{
	"_format": "hh-sol-artifact-1",
	"contractName": "LogStoreManager",
	"sourceName": "src/StoreManager.sol",
	"abi": [
		{
			"anonymous": false,
			"inputs": [
				{
					"indexed": false,
					"internalType": "address",
					"name": "previousAdmin",
					"type": "address"
				},
				{
					"indexed": false,
					"internalType": "address",
					"name": "newAdmin",
					"type": "address"
				}
			],
			"name": "AdminChanged",
			"type": "event"
		},
		{
			"anonymous": false,
			"inputs": [
				{
					"indexed": true,
					"internalType": "address",
					"name": "beacon",
					"type": "address"
				}
			],
			"name": "BeaconUpgraded",
			"type": "event"
		},
		{
			"anonymous": false,
			"inputs": [
				{
					"indexed": false,
					"internalType": "string",
					"name": "store",
					"type": "string"
				},
				{
					"indexed": false,
					"internalType": "uint256",
					"name": "fees",
					"type": "uint256"
				},
				{
					"indexed": false,
					"internalType": "uint256",
					"name": "bytesStored",
					"type": "uint256"
				}
			],
			"name": "DataStored",
			"type": "event"
		},
		{
			"anonymous": false,
			"inputs": [
				{
					"indexed": false,
					"internalType": "uint8",
					"name": "version",
					"type": "uint8"
				}
			],
			"name": "Initialized",
			"type": "event"
		},
		{
			"anonymous": false,
			"inputs": [
				{
					"indexed": true,
					"internalType": "address",
					"name": "previousOwner",
					"type": "address"
				},
				{
					"indexed": true,
					"internalType": "address",
					"name": "newOwner",
					"type": "address"
				}
			],
			"name": "OwnershipTransferred",
			"type": "event"
		},
		{
			"anonymous": false,
			"inputs": [
				{
					"indexed": false,
					"internalType": "string",
					"name": "store",
					"type": "string"
				},
				{
					"indexed": false,
					"internalType": "bool",
					"name": "isNew",
					"type": "bool"
				},
				{
					"indexed": false,
					"internalType": "uint256",
					"name": "amount",
					"type": "uint256"
				}
			],
			"name": "StoreUpdated",
			"type": "event"
		},
		{
			"anonymous": false,
			"inputs": [
				{
					"indexed": true,
					"internalType": "address",
					"name": "implementation",
					"type": "address"
				}
			],
			"name": "Upgraded",
			"type": "event"
		},
		{
			"inputs": [],
			"name": "LOGSTORE_QUERY_STREAM_ID_PATH",
			"outputs": [
				{
					"internalType": "string",
					"name": "",
					"type": "string"
				}
			],
			"stateMutability": "view",
			"type": "function"
		},
		{
			"inputs": [],
			"name": "LOGSTORE_QUERY_STREAM_METADATA_JSON_STRING",
			"outputs": [
				{
					"internalType": "string",
					"name": "",
					"type": "string"
				}
			],
			"stateMutability": "view",
			"type": "function"
		},
		{
			"inputs": [],
			"name": "LOGSTORE_SYSTEM_STREAM_ID_PATH",
			"outputs": [
				{
					"internalType": "string",
					"name": "",
					"type": "string"
				}
			],
			"stateMutability": "view",
			"type": "function"
		},
		{
			"inputs": [],
			"name": "LOGSTORE_SYSTEM_STREAM_METADATA_JSON_STRING",
			"outputs": [
				{
					"internalType": "string",
					"name": "",
					"type": "string"
				}
			],
			"stateMutability": "view",
			"type": "function"
		},
		{
			"inputs": [
				{
					"internalType": "address",
					"name": "",
					"type": "address"
				}
			],
			"name": "balanceOf",
			"outputs": [
				{
					"internalType": "uint256",
					"name": "",
					"type": "uint256"
				}
			],
			"stateMutability": "view",
			"type": "function"
		},
		{
			"inputs": [
				{
					"internalType": "string",
					"name": "streamId",
					"type": "string"
				},
				{
					"internalType": "uint256",
					"name": "amount",
					"type": "uint256"
				},
				{
					"internalType": "uint256",
					"name": "bytesStored",
					"type": "uint256"
				}
			],
			"name": "capture",
			"outputs": [
				{
					"internalType": "bool",
					"name": "success",
					"type": "bool"
				}
			],
			"stateMutability": "nonpayable",
			"type": "function"
		},
		{
			"inputs": [
				{
					"internalType": "string",
					"name": "streamId",
					"type": "string"
				}
			],
			"name": "exists",
			"outputs": [
				{
					"internalType": "bool",
					"name": "",
					"type": "bool"
				}
			],
			"stateMutability": "view",
			"type": "function"
		},
		{
			"inputs": [
				{
					"internalType": "address",
					"name": "owner",
					"type": "address"
				},
				{
					"internalType": "address",
					"name": "stakeTokenAddress_",
					"type": "address"
				},
				{
					"internalType": "address",
					"name": "streamrRegistryAddress_",
					"type": "address"
				}
			],
			"name": "initialize",
			"outputs": [],
			"stateMutability": "nonpayable",
			"type": "function"
		},
		{
			"inputs": [],
			"name": "owner",
			"outputs": [
				{
					"internalType": "address",
					"name": "",
					"type": "address"
				}
			],
			"stateMutability": "view",
			"type": "function"
		},
		{
			"inputs": [],
			"name": "proxiableUUID",
			"outputs": [
				{
					"internalType": "bytes32",
					"name": "",
					"type": "bytes32"
				}
			],
			"stateMutability": "view",
			"type": "function"
		},
		{
			"inputs": [],
			"name": "renounceOwnership",
			"outputs": [],
			"stateMutability": "nonpayable",
			"type": "function"
		},
		{
			"inputs": [
				{
					"internalType": "string",
					"name": "streamId",
					"type": "string"
				},
				{
					"internalType": "uint256",
					"name": "amount",
					"type": "uint256"
				}
			],
			"name": "stake",
			"outputs": [],
			"stateMutability": "nonpayable",
			"type": "function"
		},
		{
			"inputs": [],
			"name": "stakeTokenAddress",
			"outputs": [
				{
					"internalType": "address",
					"name": "",
					"type": "address"
				}
			],
			"stateMutability": "view",
			"type": "function"
		},
		{
			"inputs": [
				{
					"internalType": "address",
					"name": "",
					"type": "address"
				},
				{
					"internalType": "string",
					"name": "",
					"type": "string"
				}
			],
			"name": "storeBalanceOf",
			"outputs": [
				{
					"internalType": "uint256",
					"name": "",
					"type": "uint256"
				}
			],
			"stateMutability": "view",
			"type": "function"
		},
		{
			"inputs": [
				{
					"internalType": "string",
					"name": "",
					"type": "string"
				},
				{
					"internalType": "uint256",
					"name": "",
					"type": "uint256"
				}
			],
			"name": "storeStakeholders",
			"outputs": [
				{
					"internalType": "address",
					"name": "",
					"type": "address"
				}
			],
			"stateMutability": "view",
			"type": "function"
		},
		{
			"inputs": [
				{
					"internalType": "string",
					"name": "",
					"type": "string"
				}
			],
			"name": "stores",
			"outputs": [
				{
					"internalType": "uint256",
					"name": "",
					"type": "uint256"
				}
			],
			"stateMutability": "view",
			"type": "function"
		},
		{
			"inputs": [],
			"name": "totalSupply",
			"outputs": [
				{
					"internalType": "uint256",
					"name": "",
					"type": "uint256"
				}
			],
			"stateMutability": "view",
			"type": "function"
		},
		{
			"inputs": [
				{
					"internalType": "address",
					"name": "newOwner",
					"type": "address"
				}
			],
			"name": "transferOwnership",
			"outputs": [],
			"stateMutability": "nonpayable",
			"type": "function"
		},
		{
			"inputs": [
				{
					"internalType": "address",
					"name": "newImplementation",
					"type": "address"
				}
			],
			"name": "upgradeTo",
			"outputs": [],
			"stateMutability": "nonpayable",
			"type": "function"
		},
		{
			"inputs": [
				{
					"internalType": "address",
					"name": "newImplementation",
					"type": "address"
				},
				{
					"internalType": "bytes",
					"name": "data",
					"type": "bytes"
				}
			],
			"name": "upgradeToAndCall",
			"outputs": [],
			"stateMutability": "payable",
			"type": "function"
		}
	],
	"bytecode": "0x60a080604052346100315730608052611ebb90816100378239608051818181610fae015281816110b9015261143b0152f35b600080fdfe60806040818152600480361015610016575b600080fd5b600092833560e01c9081630106395f1461169a575080630429945c1461167c57806318160ddd1461165d578063261a323e146115f157806328c2b9461461073e5780633659cfe61461141057806348305634146113db5780634f1ef2861461106557806352d1902d14610f915780636115063a14610f2f57806370a0823114610ef8578063715018a614610e9d5780638da5cb5b14610e755780639494c8ae14610c335780639ac0e98b1461074a578063a7cc54051461073e578063baa2f780146106de578063c0c53b8b146101f4578063ed231297146101945763f2fde38b1461010057600080fd5b3461019057602036600319011261019057610119611866565b91610122611990565b6001600160a01b0383161561013e578361013b846119e8565b80f35b906020608492519162461bcd60e51b8352820152602660248201527f4f776e61626c653a206e6577206f776e657220697320746865207a65726f206160448201526564647265737360d01b6064820152fd5b8280fd5b5091346101f15760203660031901126101f15782359067ffffffffffffffff82116101f1575060206101cd81946101df933691016118ec565b818451938285809451938492016117b4565b810160cb815203019020549051908152f35b80fd5b50346101905760603660031901126101905761020e611866565b90602435916001600160a01b03918284168094036106da57604435928084168094036105715786549360ff8560081c1615948580966106cd575b80156106b6575b1561064d5760ff19811660011789558561063c575b5061027e60ff895460081c1661027981611c48565b611c48565b610287336119e8565b61029760ff895460081c16611c48565b85156105f9576001600160a01b031995808760cf54161760cf5560d096828189541617885560ca54161760ca55876102cd61187c565b916102d66117fc565b813b156101905782916102ff918b51948580948193630ef8cdc760e01b998a84528c8401611c06565b03925af180156105ef576105dc575b508790828754169061031e61177b565b916103276117fc565b90803b156105a657610349938580948d519687958694859384528c8401611c06565b03925af18015610575576105c8575b5061036230611d6b565b9561036b61187c565b966103aa8951918281519a8b61038a60209d8e958680870191016117b4565b820161039e825180938680850191016117b4565b0103808452018261173d565b83825416803b1561057f57838a5180928183816103d4632337c3c760e11b988983528d8301611c2b565b03925af19081156105be5784916105aa575b50506103f130611d6b565b91610436896103fe61177b565b948c51958161041688935180928680870191016117b4565b820161042a825180938680850191016117b4565b0103808652018461173d565b8481541690813b156105a6578a51838152918590839081838161045b8a828f01611c2b565b03925af1801561059c5786928691610583575b5050541691823b1561057f5761049b928a85809482519687958694859384528c84015260448301906117d7565b6003602483015203925af180156105755761055d575b50506104bb611990565b82161561050b57506104cc906119e8565b6104d4578280f35b7f7f26b83ff96e1f2b6a682f133852f6798a09c465da95921460cefb38474024989161ff001984541684555160018152a138808280f35b845162461bcd60e51b8152908101849052602660248201527f4f776e61626c653a206e6577206f776e657220697320746865207a65726f206160448201526564647265737360d01b6064820152608490fd5b610566906116bf565b6105715786386104b1565b8680fd5b88513d84823e3d90fd5b8380fd5b61058f919293506116bf565b61057f578490843861046e565b8b513d87823e3d90fd5b8480fd5b6105b3906116bf565b6101905782386103e6565b8a513d86823e3d90fd5b6105d1906116bf565b610571578638610358565b6105e8909891986116bf565b963861030e565b88513d8b823e3d90fd5b865162461bcd60e51b8152602081850152601460248201527f6572726f725f626164547261636b6572446174610000000000000000000000006044820152606490fd5b61ffff191661010117885538610264565b875162461bcd60e51b8152602081860152602e60248201527f496e697469616c697a61626c653a20636f6e747261637420697320616c72656160448201527f647920696e697469616c697a65640000000000000000000000000000000000006064820152608490fd5b50303b15801561024f5750600160ff82161461024f565b50600160ff821610610248565b8580fd5b50346101905781600319360112610190576106f7611866565b9060243567ffffffffffffffff81116105a6576020946001600160a01b03610727610736959487943691016118ec565b9316815260ce8652209061193c565b549051908152f35b50505050610011611835565b50919034610c1e576060366003190112610c1e5767ffffffffffffffff833581811161057f5761077d90369086016118ec565b9160249384359261078c611990565b6001600160a01b03968760cf541692845180946370a0823160e01b82523084830152818a60209788935afa908115610c29578291610bf8575b508611610bb6578451928751938581818b01966107e381838a6117b4565b810160cc815203019020928a8751809586918982549182815201918752898720938a88915b838310610b95575050505061081f9250038561173d565b825b8451811015610a49578b6108358287611cdf565b51168085528a896108648a8a60ce94858352610853858c208261193c565b5494519384928392519283916117b4565b810160cb81520301902054908115610a3757048b8102908082048d1490151715610a25576108bd6108b58e858a5260cd8d528d8a206108a4858254611cf3565b9055858a52848d528d8a209061193c565b918254611cf3565b905581865288526108d08986208c61193c565b54156108e6575b506108e190611cba565b610821565b989193909a928a61091189898c51936108fe856116e9565b8685528d519384928392519283916117b4565b810160cc815203019020815191838311610a1357680100000000000000008311610a13578f908b9083548585558086106109ee575b50019185528a8520908b865b8581106109da57505050505050815b8d87518210156109c857908c8c8c8c8c83610993976109818f8990611cdf565b511603610998575b5050505050611cba565b610961565b6109be946109af93519384928392519283916117b4565b810160cc815203019020611d00565b8c8c8c8c8c610989565b5050929a6108e19194929950906108d7565b845183168482015593810193600101610952565b8488528583892091820191015b818110610a085750610946565b8881556001016109fb565b634e487b7160e01b8552604188528685fd5b634e487b7160e01b8752601185528d87fd5b634e487b7160e01b8852601286528e88fd5b5092505080848a610a6a828c9a979b989b8a51809381928c519283916117b4565b810160cb815203019020610a7f878254611cf3565b9055610a8d8660c954611cf3565b60c95560cf5416604488518094819363a9059cbb60e01b83523389840152898d8401525af1918215610b8a5791610b5d575b5015159460018603610b1b5750507f73a7f4c8f8a797ce166d69942684145ae0987b01644d3ef8ffd387969819d40f91610b069184519283926060845260608401906117d7565b9087830152604435858301520390a151908152f35b845162461bcd60e51b81529182018790526019908201527f6572726f725f756e7375636365737366756c43617074757265000000000000006044820152606490fd5b610b7d9150873d8911610b83575b610b75818361173d565b810190611d46565b87610abf565b503d610b6b565b8651903d90823e3d90fd5b600193955093839294875416815201940191019187928f8b90959395610808565b845162461bcd60e51b81528083018590526014818a01527f6572726f725f6e6f74456e6f7567685374616b650000000000000000000000006044820152606490fd5b90508481813d8311610c22575b610c0f818361173d565b81010312610c1e5751386107c5565b5080fd5b503d610c05565b86513d84823e3d90fd5b503461019057610c423661190a565b90926001600160a01b0360d05416928151809463130d191f60e11b8252602095869182858301528180610c78602482018c6117d7565b03915afa908115610e6b578791610e4e575b5015610e0d578215610dcc5750917f71a18d400e8f2654aebe2b0998654bbfb6769cad471c06b8141cfe473c3bb2af9391610d849386928151855190828181890193610cd78183876117b4565b810160cb8152030190205415610dc3575b825182818851610cf98183876117b4565b810160cb815203019020610d0e858254611d5e565b905533895260cd8252828920610d25858254611d5e565b905533895260ce8252610d3a838a208761193c565b5415610d94575b5033885260ce8152610d558289208661193c565b610d60848254611d5e565b9055610d6e8360c954611d5e565b60c95581519586956060875260608701906117d7565b931515908501528301520390a180f35b82518651610dbd92610da990829084906117b4565b81019060cc82528381339303019020611d00565b38610d41565b60019450610ce8565b83606492519162461bcd60e51b8352820152601760248201527f6572726f725f696e73756666696369656e745374616b650000000000000000006044820152fd5b83606492519162461bcd60e51b8352820152601360248201527f6572726f725f696e76616c696453747265616d000000000000000000000000006044820152fd5b610e659150853d8711610b8357610b75818361173d565b38610c8a565b83513d89823e3d90fd5b505034610c1e5781600319360112610c1e576020906001600160a01b03609754169051908152f35b83346101f157806003193601126101f157610eb6611990565b806001600160a01b036097546001600160a01b03198116609755167f8be0079c531659141344cd1fd0a4f28419497f9722a3daafe3b4186f6b6457e08280a380f35b505034610c1e576020366003190112610c1e57806020926001600160a01b03610f1f611866565b16815260cd845220549051908152f35b505034610c1e57602091610f59610f453661190a565b9490818551938285809451938492016117b4565b810160cc8152030190209081548410156101f15750610f826020936001600160a01b0392611962565b92905490519260031b1c168152f35b5082346101f157806003193601126101f157506001600160a01b037f0000000000000000000000000000000000000000000000000000000000000000163003610ffd57602082517f360894a13ba1a3210667c828492db98dca3e2076cc3735a920a3ca505d382bbc8152f35b6020608492519162461bcd60e51b8352820152603860248201527f555550535570677261646561626c653a206d757374206e6f742062652063616c60448201527f6c6564207468726f7567682064656c656761746563616c6c00000000000000006064820152fd5b50829082600319360112610c1e5761107b611866565b9060243567ffffffffffffffff811161057f573660238201121561057f576110ac90369060248185013591016118b5565b936001600160a01b0390817f000000000000000000000000000000000000000000000000000000000000000016916110e683301415611a30565b6111157f360894a13ba1a3210667c828492db98dca3e2076cc3735a920a3ca505d382bbc938285541614611aa2565b61111d611990565b7f4910fdfa16fed3260ed0e7147f7cc6da11a60208b5b9406d12a635614ffd91435460ff1615611156575050505061013b919250611b14565b849193959294168351946352d1902d60e01b865260209586818981865afa8591816113ac575b506111db57855162461bcd60e51b8152808901889052602e60248201527f45524331393637557067726164653a206e657720696d706c656d656e7461746960448201526d6f6e206973206e6f74205555505360901b6064820152608490fd5b969192939603611343576111ee83611b14565b8351917fbc7cd75a20ee27fd9adebab32041f755214dbc6bffa90cc0225b39da2e5c2d3b8780a286511580159061133b575b61122f575b5050505050905080f35b823b156112d55750509280856112b695858398519201905af43d156112c257660819985a5b195960ca1b3d926112648461175f565b936112718251958661173d565b84523d878686013e5b7f416464726573733a206c6f772d6c6576656c2064656c65676174652063616c6c8151956112a787611705565b60278752860152840152611bc2565b50808280808080611225565b660819985a5b195960ca1b60609261127a565b62461bcd60e51b82528101849052602660248201527f416464726573733a2064656c65676174652063616c6c20746f206e6f6e2d636f60448201527f6e747261637400000000000000000000000000000000000000000000000000006064820152608490fd5b506001611220565b835162461bcd60e51b8152908101859052602960248201527f45524331393637557067726164653a20756e737570706f727465642070726f7860448201527f6961626c655555494400000000000000000000000000000000000000000000006064820152608490fd5b9091508781813d83116113d4575b6113c4818361173d565b810103126106da5751908a61117c565b503d6113ba565b505034610c1e5781600319360112610c1e5761140c906113f961187c565b90519182916020835260208301906117d7565b0390f35b50829034610c1e57602090816003193601126101905761142e611866565b916001600160a01b0394857f00000000000000000000000000000000000000000000000000000000000000001661146781301415611a30565b6114967f360894a13ba1a3210667c828492db98dca3e2076cc3735a920a3ca505d382bbc918883541614611aa2565b61149e611990565b8151966114aa886116e9565b8688527f4910fdfa16fed3260ed0e7147f7cc6da11a60208b5b9406d12a635614ffd91435460ff16156114e757505050505061013b919250611b14565b859294969395169084516352d1902d60e01b815286818981865afa8591816115c2575b5061156957855162461bcd60e51b8152808901889052602e60248201527f45524331393637557067726164653a206e657720696d706c656d656e7461746960448201526d6f6e206973206e6f74205555505360901b6064820152608490fd5b9691929396036113435761157c83611b14565b8351917fbc7cd75a20ee27fd9adebab32041f755214dbc6bffa90cc0225b39da2e5c2d3b8780a28651158015906115bb5761122f575050505050905080f35b5085611220565b9091508781813d83116115ea575b6115da818361173d565b810103126106da5751908a61150a565b503d6115d0565b50346101905760203660031901126101905780359267ffffffffffffffff91828511610c1e5736602386011215610c1e578401359182116101f15736602483860101116101f1575060208093826024938551948593018337810160cb8152030190205415159051908152f35b505034610c1e5781600319360112610c1e5760209060c9549051908152f35b505034610c1e5781600319360112610c1e5761140c906113f961177b565b849034610c1e5781600319360112610c1e576020906001600160a01b0360ca54168152f35b67ffffffffffffffff81116116d357604052565b634e487b7160e01b600052604160045260246000fd5b6020810190811067ffffffffffffffff8211176116d357604052565b6060810190811067ffffffffffffffff8211176116d357604052565b6040810190811067ffffffffffffffff8211176116d357604052565b90601f8019910116810190811067ffffffffffffffff8211176116d357604052565b67ffffffffffffffff81116116d357601f01601f191660200190565b6040519061178882611721565b600f82527f2f6c6f6773746f72652d717565727900000000000000000000000000000000006020830152565b60005b8381106117c75750506000910152565b81810151838201526020016117b7565b906020916117f0815180928185528580860191016117b4565b601f01601f1916010190565b6040519061180982611721565b601382527f7b2022706172746974696f6e73223a2031207d000000000000000000000000006020830152565b50346100115760003660031901126100115761140c6118526117fc565b6040519182916020835260208301906117d7565b600435906001600160a01b038216820361001157565b6040519061188982611721565b601082527f2f6c6f6773746f72652d73797374656d000000000000000000000000000000006020830152565b9291926118c18261175f565b916118cf604051938461173d565b829481845281830111610011578281602093846000960137010152565b9080601f8301121561001157816020611907933591016118b5565b90565b6040600319820112610011576004359067ffffffffffffffff821161001157611935916004016118ec565b9060243590565b6020906119569282604051948386809551938492016117b4565b82019081520301902090565b805482101561197a5760005260206000200190600090565b634e487b7160e01b600052603260045260246000fd5b6001600160a01b036097541633036119a457565b606460405162461bcd60e51b815260206004820152602060248201527f4f776e61626c653a2063616c6c6572206973206e6f7420746865206f776e65726044820152fd5b609754906001600160a01b0380911691826001600160a01b0319821617609755167f8be0079c531659141344cd1fd0a4f28419497f9722a3daafe3b4186f6b6457e0600080a3565b15611a3757565b60405162461bcd60e51b815260206004820152602c60248201527f46756e6374696f6e206d7573742062652063616c6c6564207468726f7567682060448201527f64656c656761746563616c6c00000000000000000000000000000000000000006064820152608490fd5b15611aa957565b60405162461bcd60e51b815260206004820152602c60248201527f46756e6374696f6e206d7573742062652063616c6c6564207468726f7567682060448201527f6163746976652070726f787900000000000000000000000000000000000000006064820152608490fd5b803b15611b57576001600160a01b037f360894a13ba1a3210667c828492db98dca3e2076cc3735a920a3ca505d382bbc91166001600160a01b0319825416179055565b60405162461bcd60e51b815260206004820152602d60248201527f455243313936373a206e657720696d706c656d656e746174696f6e206973206e60448201527f6f74206120636f6e7472616374000000000000000000000000000000000000006064820152608490fd5b90919015611bce575090565b815115611bde5750805190602001fd5b60405162461bcd60e51b815260206004820152908190611c029060248301906117d7565b0390fd5b9091611c1d611907936040845260408401906117d7565b9160208184039101526117d7565b91906020611c436002926040865260408601906117d7565b930152565b15611c4f57565b60405162461bcd60e51b815260206004820152602b60248201527f496e697469616c697a61626c653a20636f6e7472616374206973206e6f74206960448201527f6e697469616c697a696e670000000000000000000000000000000000000000006064820152608490fd5b6000198114611cc95760010190565b634e487b7160e01b600052601160045260246000fd5b805182101561197a5760209160051b010190565b91908203918211611cc957565b8054680100000000000000008110156116d357611d2291600182018155611962565b819291549060031b916001600160a01b039283811b93849216901b16911916179055565b90816020910312610011575180151581036100115790565b91908201809211611cc957565b6001600160a01b031660405190611d8182611705565b602a8252602090818301604036823783511561197a5760309053825160019081101561197a57607860218501536029905b808211611e06575050611dc3575090565b6064906040519062461bcd60e51b825280600483015260248201527f537472696e67733a20686578206c656e67746820696e73756666696369656e746044820152fd5b9091600f81166010811015611e70578551841015611e70577f3031323334353637383961626364656600000000000000000000000000000000901a84848701015360041c918015611e5b576000190190611db2565b60246000634e487b7160e01b81526011600452fd5b60246000634e487b7160e01b81526032600452fdfea2646970667358221220f5000ff63a34dbfb6e33af16c0338c1beed207e2979c7674cda2b5cc719e71f964736f6c63430008110033",
	"linkReferences": {},
	"deployedLinkReferences": {}
}