{
  "_format": "hh-sol-artifact-1",
  "contractName": "LogStoreQueryManager",
  "sourceName": "src/QueryManager.sol",
  "abi": [
    {
      "anonymous": false,
      "inputs": [
        {
          "indexed": false,
          "internalType": "address",
          "name": "previousAdmin",
          "type": "address"
        },
        {
          "indexed": false,
          "internalType": "address",
          "name": "newAdmin",
          "type": "address"
        }
      ],
      "name": "AdminChanged",
      "type": "event"
    },
    {
      "anonymous": false,
      "inputs": [
        {
          "indexed": true,
          "internalType": "address",
          "name": "beacon",
          "type": "address"
        }
      ],
      "name": "BeaconUpgraded",
      "type": "event"
    },
    {
      "anonymous": false,
      "inputs": [
        {
          "indexed": false,
          "internalType": "address",
          "name": "consumer",
          "type": "address"
        },
        {
          "indexed": false,
          "internalType": "uint256",
          "name": "stake",
          "type": "uint256"
        },
        {
          "indexed": false,
          "internalType": "uint256",
          "name": "capture",
          "type": "uint256"
        },
        {
          "indexed": false,
          "internalType": "uint256",
          "name": "overflow",
          "type": "uint256"
        }
      ],
      "name": "CaptureOverflow",
      "type": "event"
    },
    {
      "anonymous": false,
      "inputs": [
        {
          "indexed": true,
          "internalType": "address",
          "name": "consumer",
          "type": "address"
        },
        {
          "indexed": false,
          "internalType": "uint256",
          "name": "fees",
          "type": "uint256"
        },
        {
          "indexed": false,
          "internalType": "uint256",
          "name": "bytesProcessed",
          "type": "uint256"
        }
      ],
      "name": "DataQueried",
      "type": "event"
    },
    {
      "anonymous": false,
      "inputs": [
        {
          "indexed": false,
          "internalType": "uint8",
          "name": "version",
          "type": "uint8"
        }
      ],
      "name": "Initialized",
      "type": "event"
    },
    {
      "anonymous": false,
      "inputs": [
        {
          "indexed": true,
          "internalType": "address",
          "name": "previousOwner",
          "type": "address"
        },
        {
          "indexed": true,
          "internalType": "address",
          "name": "newOwner",
          "type": "address"
        }
      ],
      "name": "OwnershipTransferred",
      "type": "event"
    },
    {
      "anonymous": false,
      "inputs": [
        {
          "indexed": true,
          "internalType": "address",
          "name": "consumer",
          "type": "address"
        },
        {
          "indexed": false,
          "internalType": "uint256",
          "name": "amount",
          "type": "uint256"
        }
      ],
      "name": "Stake",
      "type": "event"
    },
    {
      "anonymous": false,
      "inputs": [
        {
          "indexed": false,
          "internalType": "uint256",
          "name": "supply",
          "type": "uint256"
        },
        {
          "indexed": false,
          "internalType": "uint256",
          "name": "capture",
          "type": "uint256"
        },
        {
          "indexed": false,
          "internalType": "uint256",
          "name": "overflow",
          "type": "uint256"
        }
      ],
      "name": "SupplyOverflow",
      "type": "event"
    },
    {
      "anonymous": false,
      "inputs": [
        {
          "indexed": true,
          "internalType": "address",
          "name": "implementation",
          "type": "address"
        }
      ],
      "name": "Upgraded",
      "type": "event"
    },
    {
      "inputs": [
        {
          "internalType": "address",
          "name": "",
          "type": "address"
        }
      ],
      "name": "balanceOf",
      "outputs": [
        {
          "internalType": "uint256",
          "name": "",
          "type": "uint256"
        }
      ],
      "stateMutability": "view",
      "type": "function"
    },
    {
      "inputs": [
        {
          "internalType": "address",
          "name": "consumer",
          "type": "address"
        },
        {
          "internalType": "uint256",
          "name": "amount",
          "type": "uint256"
        },
        {
          "internalType": "uint256",
          "name": "bytesProcessed",
          "type": "uint256"
        }
      ],
      "name": "capture",
      "outputs": [],
      "stateMutability": "nonpayable",
      "type": "function"
    },
    {
      "inputs": [
        {
          "internalType": "address",
          "name": "owner_",
          "type": "address"
        },
        {
          "internalType": "address",
          "name": "parent_",
          "type": "address"
        },
        {
          "internalType": "address",
          "name": "stakeTokenAddress_",
          "type": "address"
        }
      ],
      "name": "initialize",
      "outputs": [],
      "stateMutability": "nonpayable",
      "type": "function"
    },
    {
      "inputs": [],
      "name": "owner",
      "outputs": [
        {
          "internalType": "address",
          "name": "",
          "type": "address"
        }
      ],
      "stateMutability": "view",
      "type": "function"
    },
    {
      "inputs": [],
      "name": "proxiableUUID",
      "outputs": [
        {
          "internalType": "bytes32",
          "name": "",
          "type": "bytes32"
        }
      ],
      "stateMutability": "view",
      "type": "function"
    },
    {
      "inputs": [],
      "name": "renounceOwnership",
      "outputs": [],
      "stateMutability": "nonpayable",
      "type": "function"
    },
    {
      "inputs": [
        {
          "internalType": "address",
          "name": "_parent",
          "type": "address"
        }
      ],
      "name": "setParent",
      "outputs": [],
      "stateMutability": "nonpayable",
      "type": "function"
    },
    {
      "inputs": [
        {
          "internalType": "uint256",
          "name": "amount",
          "type": "uint256"
        }
      ],
      "name": "stake",
      "outputs": [],
      "stateMutability": "nonpayable",
      "type": "function"
    },
    {
      "inputs": [],
      "name": "stakeTokenAddress",
      "outputs": [
        {
          "internalType": "address",
          "name": "",
          "type": "address"
        }
      ],
      "stateMutability": "view",
      "type": "function"
    },
    {
      "inputs": [],
      "name": "totalSupply",
      "outputs": [
        {
          "internalType": "uint256",
          "name": "",
          "type": "uint256"
        }
      ],
      "stateMutability": "view",
      "type": "function"
    },
    {
      "inputs": [
        {
          "internalType": "address",
          "name": "newOwner",
          "type": "address"
        }
      ],
      "name": "transferOwnership",
      "outputs": [],
      "stateMutability": "nonpayable",
      "type": "function"
    },
    {
      "inputs": [
        {
          "internalType": "address",
          "name": "newImplementation",
          "type": "address"
        }
      ],
      "name": "upgradeTo",
      "outputs": [],
      "stateMutability": "nonpayable",
      "type": "function"
    },
    {
      "inputs": [
        {
          "internalType": "address",
          "name": "newImplementation",
          "type": "address"
        },
        {
          "internalType": "bytes",
          "name": "data",
          "type": "bytes"
        }
      ],
      "name": "upgradeToAndCall",
      "outputs": [],
      "stateMutability": "payable",
      "type": "function"
    }
  ],
  "bytecode": "0x60a0806040523461003157306080526115609081610037823960805181818161090201528181610a330152610d520152f35b600080fdfe608060408181526004908136101561001657600080fd5b600092833560e01c9081630106395f14611071575080631499c5921461103257806318160ddd146110135780633659cfe614610d2a5780634f1ef286146109b957806352d1902d146108e557806370a08231146108ae578063715018a6146108505780638da5cb5b14610824578063a694fc3a146106ec578063c0c53b8b14610478578063f2fde38b146103e65763f7177d18146100b357600080fd5b346103e25760603660031901126103e2576100cc611096565b916024928335916100db6114c7565b6001600160a01b03918260ff541633036103a05782169485875260209260fd8452858820541561035f5787908588835260fd8652868884205410600014610349575087825260fd8552868220547f638ca29f0074141e8351581577c72b6a496ec69db5a9518aafc1938d857cd0ca90608090610157818a611440565b8a51918c835289830152898b8301526060820152a187825260fd8552868220549082888120555b60fb5487808210156103385750507fe7f554bdb4965a65d3bdf0779e5752fedff7e451afeb9ce70e315933e0630a1c606060fb546101bc818b611440565b8b519182528a8a8301528b820152a18260fb555b60fe54169087516370a0823160e01b8152308682015286818681865afa90811561032e57908793929185916102f7575b5090610210604492821115611463565b8951948593849263a9059cbb60e01b8452338a850152888401525af19081156102ed579060019189916102c0575b501515036102805750508251918252604435908201527f7c9e10d161637aa47a4ee991d967b5313029fdac1cf0e44d7fbc74b40c9e072e9190a2600160c95580f35b60199060649386519362461bcd60e51b85528401528201527f6572726f725f756e7375636365737366756c43617074757265000000000000006044820152fd5b6102e09150853d87116102e6575b6102d881836110e3565b8101906114af565b3861023e565b503d6102ce565b86513d8a823e3d90fd5b8481939592503d8311610327575b61030f81836110e3565b810103126103235751869290610210610200565b8380fd5b503d610305565b89513d86823e3d90fd5b61034191611440565b60fb556101d0565b90878320610358888254611440565b905561017e565b50601c9060649386519362461bcd60e51b85528401528201527f6572726f725f696e76616c6964436f6e73756d657241646472657373000000006044820152fd5b845162461bcd60e51b81526020818401526010818801527f6572726f725f6f6e6c79506172656e74000000000000000000000000000000006044820152606490fd5b8280fd5b5090346103e25760203660031901126103e257610401611096565b9161040a611121565b6001600160a01b03831615610426578361042384611179565b80f35b906020608492519162461bcd60e51b8352820152602660248201527f4f776e61626c653a206e6577206f776e657220697320746865207a65726f206160448201526564647265737360d01b6064820152fd5b5090346103e25760603660031901126103e257610493611096565b602435916001600160a01b038084168094036106e8576044358181168091036106e45786549460ff91828760081c1615968780986106d8575b80156106c2575b156106595760ff1981166001178a5587610648575b50610501838a5460081c166104fc816113ce565b6113ce565b61050a33611179565b610526838a5460081c1661051d816113ce565b6104fc816113ce565b600160c9558015610605576001600160a01b031990808260fe54161760fe558160fc54161760fc55610556611121565b825416179055610564611121565b8216156105b3575061057590611179565b61057d575080f35b60207f7f26b83ff96e1f2b6a682f133852f6798a09c465da95921460cefb38474024989161ff001984541684555160018152a180f35b608490602085519162461bcd60e51b8352820152602660248201527f4f776e61626c653a206e6577206f776e657220697320746865207a65726f206160448201526564647265737360d01b6064820152fd5b875162461bcd60e51b8152602081870152601460248201527f6572726f725f626164547261636b6572446174610000000000000000000000006044820152606490fd5b61ffff1916610101178955386104e8565b885162461bcd60e51b8152602081880152602e60248201527f496e697469616c697a61626c653a20636f6e747261637420697320616c72656160448201527f647920696e697469616c697a65640000000000000000000000000000000000006064820152608490fd5b50303b1580156104d357506001848216146104d3565b506001848216106104cc565b8680fd5b8580fd5b50346103e257602090816003193601126103235782359261070b6114c7565b610716841515611463565b33855260fd835281852061072b85825461151d565b90556107398460fb5461151d565b60fb5584836001600160a01b0360fe541660648551809481936323b872dd60e01b835233888401523060248401528a60448401525af190811561081a579060019187916107fd575b501515036107bc5750907febedb8b3c678666e7f36970bc8f57abf6d8fa2e828c0da91ea5b75bf68ed101a91519283523392a2600160c95580f35b82606492519162461bcd60e51b8352820152601760248201527f6572726f725f756e7375636365737366756c5374616b650000000000000000006044820152fd5b6108149150853d87116102e6576102d881836110e3565b38610781565b83513d88823e3d90fd5b83823461084c578160031936011261084c576020906001600160a01b03609754169051908152f35b5080fd5b83346108ab57806003193601126108ab57610869611121565b806001600160a01b036097546001600160a01b03198116609755167f8be0079c531659141344cd1fd0a4f28419497f9722a3daafe3b4186f6b6457e08280a380f35b80fd5b83823461084c57602036600319011261084c57806020926001600160a01b036108d5611096565b16815260fd845220549051908152f35b5091346108ab57806003193601126108ab57506001600160a01b037f000000000000000000000000000000000000000000000000000000000000000016300361095157602082517f360894a13ba1a3210667c828492db98dca3e2076cc3735a920a3ca505d382bbc8152f35b6020608492519162461bcd60e51b8352820152603860248201527f555550535570677261646561626c653a206d757374206e6f742062652063616c60448201527f6c6564207468726f7567682064656c656761746563616c6c00000000000000006064820152fd5b50806003193601126103e2576109cd611096565b9160249182359067ffffffffffffffff82116106e857366023830112156106e857818301356109fb81611105565b610a07835191826110e3565b8181528760209485830193368982840101116103e25780898893018637830101526001600160a01b03807f00000000000000000000000000000000000000000000000000000000000000001690610a60823014156111c1565b610a8f7f360894a13ba1a3210667c828492db98dca3e2076cc3735a920a3ca505d382bbc928284541614611233565b610a97611121565b7f4910fdfa16fed3260ed0e7147f7cc6da11a60208b5b9406d12a635614ffd91435460ff1615610ad2575050505050505050610423906112a5565b88959799949698169086516352d1902d60e01b815288818b81865afa869181610cfb575b50610b5457875162461bcd60e51b8152808b018a9052602e818d01527f45524331393637557067726164653a206e657720696d706c656d656e7461746960448201526d6f6e206973206e6f74205555505360901b6064820152608490fd5b999294989193959903610ca957610b6a896112a5565b8551927fbc7cd75a20ee27fd9adebab32041f755214dbc6bffa90cc0225b39da2e5c2d3b8980a2835115801590610ca1575b610bad575b50505050505050905080f35b883b15610c53575050509380958192610c329651915af43d15610c4057660819985a5b195960ca1b3d92610be084611105565b93610bed825195866110e3565b84523d878686013e5b7f416464726573733a206c6f772d6c6576656c2064656c65676174652063616c6c815195610c23876110b1565b60278752860152840152611353565b508038808080808080610ba1565b660819985a5b195960ca1b606092610bf6565b62461bcd60e51b835282018690526026908201527f416464726573733a2064656c65676174652063616c6c20746f206e6f6e2d636f6044820152651b9d1c9858dd60d21b6064820152608490fd5b506001610b9c565b60296084928888519362461bcd60e51b85528401528201527f45524331393637557067726164653a20756e737570706f727465642070726f786044820152681a58589b195555525160ba1b6064820152fd5b9091508981813d8311610d23575b610d1381836110e3565b810103126106e457519038610af6565b503d610d09565b5090346103e25760208060031936011261032357610d46611096565b926001600160a01b03807f000000000000000000000000000000000000000000000000000000000000000016610d7e813014156111c1565b610dad7f360894a13ba1a3210667c828492db98dca3e2076cc3735a920a3ca505d382bbc918383541614611233565b610db5611121565b8251908482019282841067ffffffffffffffff851117611000578385528883527f4910fdfa16fed3260ed0e7147f7cc6da11a60208b5b9406d12a635614ffd91435460ff1615610e0f5750505050505050610423906112a5565b879894959697169085516352d1902d60e01b815287818a81865afa869181610fd1575b50610e9157865162461bcd60e51b8152808a01899052602e60248201527f45524331393637557067726164653a206e657720696d706c656d656e7461746960448201526d6f6e206973206e6f74205555505360901b6064820152608490fd5b97919293949703610f7c57610ea5886112a5565b8451917fbc7cd75a20ee27fd9adebab32041f755214dbc6bffa90cc0225b39da2e5c2d3b8880a2825115801590610f75575b610ee7575b505050505050905080f35b873b15610f265750509380958192610f199651915af43d15610c4057660819985a5b195960ca1b3d92610be084611105565b5080388080808080610edc565b62461bcd60e51b82528101859052602660248201527f416464726573733a2064656c65676174652063616c6c20746f206e6f6e2d636f6044820152651b9d1c9858dd60d21b6064820152608490fd5b5086610ed7565b845162461bcd60e51b8152908101869052602960248201527f45524331393637557067726164653a20756e737570706f727465642070726f786044820152681a58589b195555525160ba1b6064820152608490fd5b9091508881813d8311610ff9575b610fe981836110e3565b810103126106e457519038610e32565b503d610fdf565b634e487b7160e01b895260418752602489fd5b83823461084c578160031936011261084c5760209060fb549051908152f35b83346108ab5760203660031901126108ab576001600160a01b03611054611096565b61105c611121565b166001600160a01b031960ff54161760ff5580f35b84903461084c578160031936011261084c576020906001600160a01b0360fc54168152f35b600435906001600160a01b03821682036110ac57565b600080fd5b6060810190811067ffffffffffffffff8211176110cd57604052565b634e487b7160e01b600052604160045260246000fd5b90601f8019910116810190811067ffffffffffffffff8211176110cd57604052565b67ffffffffffffffff81116110cd57601f01601f191660200190565b6001600160a01b0360975416330361113557565b606460405162461bcd60e51b815260206004820152602060248201527f4f776e61626c653a2063616c6c6572206973206e6f7420746865206f776e65726044820152fd5b609754906001600160a01b0380911691826001600160a01b0319821617609755167f8be0079c531659141344cd1fd0a4f28419497f9722a3daafe3b4186f6b6457e0600080a3565b156111c857565b60405162461bcd60e51b815260206004820152602c60248201527f46756e6374696f6e206d7573742062652063616c6c6564207468726f7567682060448201527f64656c656761746563616c6c00000000000000000000000000000000000000006064820152608490fd5b1561123a57565b60405162461bcd60e51b815260206004820152602c60248201527f46756e6374696f6e206d7573742062652063616c6c6564207468726f7567682060448201527f6163746976652070726f787900000000000000000000000000000000000000006064820152608490fd5b803b156112e8576001600160a01b037f360894a13ba1a3210667c828492db98dca3e2076cc3735a920a3ca505d382bbc91166001600160a01b0319825416179055565b60405162461bcd60e51b815260206004820152602d60248201527f455243313936373a206e657720696d706c656d656e746174696f6e206973206e60448201527f6f74206120636f6e7472616374000000000000000000000000000000000000006064820152608490fd5b9091901561135f575090565b81511561136f5750805190602001fd5b6040519062461bcd60e51b82528160208060048301528251908160248401526000935b8285106113b5575050604492506000838284010152601f80199101168101030190fd5b8481018201518686016044015293810193859350611392565b156113d557565b60405162461bcd60e51b815260206004820152602b60248201527f496e697469616c697a61626c653a20636f6e7472616374206973206e6f74206960448201527f6e697469616c697a696e670000000000000000000000000000000000000000006064820152608490fd5b9190820391821161144d57565b634e487b7160e01b600052601160045260246000fd5b1561146a57565b60405162461bcd60e51b815260206004820152601760248201527f6572726f725f696e73756666696369656e745374616b650000000000000000006044820152606490fd5b908160209103126110ac575180151581036110ac5790565b600260c954146114d857600260c955565b60405162461bcd60e51b815260206004820152601f60248201527f5265656e7472616e637947756172643a207265656e7472616e742063616c6c006044820152606490fd5b9190820180921161144d5756fea26469706673582212206d55e692018c34e1bde78f2e5f45bd3094e7ff8854a11152aa6a49bd02904a7664736f6c63430008110033",
  "linkReferences": {},
  "deployedLinkReferences": {}
}