{
  "_format": "hh-sol-artifact-1",
  "contractName": "LogStoreQueryManager",
  "sourceName": "src/QueryManager.sol",
  "abi": [
    {
      "anonymous": false,
      "inputs": [
        {
          "indexed": false,
          "internalType": "address",
          "name": "previousAdmin",
          "type": "address"
        },
        {
          "indexed": false,
          "internalType": "address",
          "name": "newAdmin",
          "type": "address"
        }
      ],
      "name": "AdminChanged",
      "type": "event"
    },
    {
      "anonymous": false,
      "inputs": [
        {
          "indexed": true,
          "internalType": "address",
          "name": "beacon",
          "type": "address"
        }
      ],
      "name": "BeaconUpgraded",
      "type": "event"
    },
    {
      "anonymous": false,
      "inputs": [
        {
          "indexed": true,
          "internalType": "address",
          "name": "consumer",
          "type": "address"
        },
        {
          "indexed": false,
          "internalType": "uint256",
          "name": "fees",
          "type": "uint256"
        },
        {
          "indexed": false,
          "internalType": "uint256",
          "name": "bytesProcessed",
          "type": "uint256"
        }
      ],
      "name": "DataQueried",
      "type": "event"
    },
    {
      "anonymous": false,
      "inputs": [
        {
          "indexed": false,
          "internalType": "uint8",
          "name": "version",
          "type": "uint8"
        }
      ],
      "name": "Initialized",
      "type": "event"
    },
    {
      "anonymous": false,
      "inputs": [
        {
          "indexed": true,
          "internalType": "address",
          "name": "previousOwner",
          "type": "address"
        },
        {
          "indexed": true,
          "internalType": "address",
          "name": "newOwner",
          "type": "address"
        }
      ],
      "name": "OwnershipTransferred",
      "type": "event"
    },
    {
      "anonymous": false,
      "inputs": [
        {
          "indexed": true,
          "internalType": "address",
          "name": "consumer",
          "type": "address"
        },
        {
          "indexed": false,
          "internalType": "uint256",
          "name": "amount",
          "type": "uint256"
        }
      ],
      "name": "Stake",
      "type": "event"
    },
    {
      "anonymous": false,
      "inputs": [
        {
          "indexed": true,
          "internalType": "address",
          "name": "implementation",
          "type": "address"
        }
      ],
      "name": "Upgraded",
      "type": "event"
    },
    {
      "inputs": [
        {
          "internalType": "address",
          "name": "",
          "type": "address"
        }
      ],
      "name": "balanceOf",
      "outputs": [
        {
          "internalType": "uint256",
          "name": "",
          "type": "uint256"
        }
      ],
      "stateMutability": "view",
      "type": "function"
    },
    {
      "inputs": [
        {
          "internalType": "address",
          "name": "consumer",
          "type": "address"
        },
        {
          "internalType": "uint256",
          "name": "amount",
          "type": "uint256"
        },
        {
          "internalType": "uint256",
          "name": "bytesProcessed",
          "type": "uint256"
        }
      ],
      "name": "capture",
      "outputs": [],
      "stateMutability": "nonpayable",
      "type": "function"
    },
    {
      "inputs": [
        {
          "internalType": "address",
          "name": "owner_",
          "type": "address"
        },
        {
          "internalType": "address",
          "name": "stakeTokenAddress_",
          "type": "address"
        }
      ],
      "name": "initialize",
      "outputs": [],
      "stateMutability": "nonpayable",
      "type": "function"
    },
    {
      "inputs": [],
      "name": "owner",
      "outputs": [
        {
          "internalType": "address",
          "name": "",
          "type": "address"
        }
      ],
      "stateMutability": "view",
      "type": "function"
    },
    {
      "inputs": [],
      "name": "proxiableUUID",
      "outputs": [
        {
          "internalType": "bytes32",
          "name": "",
          "type": "bytes32"
        }
      ],
      "stateMutability": "view",
      "type": "function"
    },
    {
      "inputs": [],
      "name": "renounceOwnership",
      "outputs": [],
      "stateMutability": "nonpayable",
      "type": "function"
    },
    {
      "inputs": [
        {
          "internalType": "uint256",
          "name": "amount",
          "type": "uint256"
        }
      ],
      "name": "stake",
      "outputs": [],
      "stateMutability": "nonpayable",
      "type": "function"
    },
    {
      "inputs": [],
      "name": "stakeTokenAddress",
      "outputs": [
        {
          "internalType": "address",
          "name": "",
          "type": "address"
        }
      ],
      "stateMutability": "view",
      "type": "function"
    },
    {
      "inputs": [],
      "name": "totalSupply",
      "outputs": [
        {
          "internalType": "uint256",
          "name": "",
          "type": "uint256"
        }
      ],
      "stateMutability": "view",
      "type": "function"
    },
    {
      "inputs": [
        {
          "internalType": "address",
          "name": "newOwner",
          "type": "address"
        }
      ],
      "name": "transferOwnership",
      "outputs": [],
      "stateMutability": "nonpayable",
      "type": "function"
    },
    {
      "inputs": [
        {
          "internalType": "address",
          "name": "newImplementation",
          "type": "address"
        }
      ],
      "name": "upgradeTo",
      "outputs": [],
      "stateMutability": "nonpayable",
      "type": "function"
    },
    {
      "inputs": [
        {
          "internalType": "address",
          "name": "newImplementation",
          "type": "address"
        },
        {
          "internalType": "bytes",
          "name": "data",
          "type": "bytes"
        }
      ],
      "name": "upgradeToAndCall",
      "outputs": [],
      "stateMutability": "payable",
      "type": "function"
    }
  ],
  "bytecode": "0x60a0806040523461003157306080526113c99081610037823960805181818161059f015281816106d10152610c460152f35b600080fdfe608060409080825260048036101561001657600080fd5b600091823560e01c9081630106395f14610f265750806318160ddd14610f075780633659cfe614610c1d578063485cc955146109cc5780634f1ef2861461065657806352d1902d1461058257806370a082311461054b578063715018a6146104ed5780638da5cb5b146104c5578063a694fc3a1461034c578063f2fde38b146102b55763f7177d18146100a857600080fd5b346102b15760603660031901126102b1576100c1610f4b565b926024356100cd611330565b6100d5610fd6565b6001600160a01b03928360fe541695835180976370a0823160e01b8252308483015281602460209a8b935afa9081156102a7578791610276575b5083116102335786858792169586835260fd82528583206101318682546112f5565b905561013f8560fb546112f5565b60fb5560fe5416604486518094819363a9059cbb60e01b835233888401528860248401525af1908115610229579060019187916101fc575b501515036101b957507f7c9e10d161637aa47a4ee991d967b5313029fdac1cf0e44d7fbc74b40c9e072e929394825191825260443590820152a2600160c95580f35b825162461bcd60e51b8152908101869052601960248201527f6572726f725f756e7375636365737366756c43617074757265000000000000006044820152606490fd5b61021c9150883d8a11610222575b6102148183610f98565b810190611318565b38610177565b503d61020a565b84513d88823e3d90fd5b835162461bcd60e51b8152808301889052601460248201527f6572726f725f6e6f74456e6f7567685374616b650000000000000000000000006044820152606490fd5b90508781813d83116102a0575b61028d8183610f98565b8101031261029c57513861010f565b8680fd5b503d610283565b85513d89823e3d90fd5b5080fd5b50829034610348576020366003190112610348576102d1610f4b565b916102da610fd6565b6001600160a01b038316156102f657836102f38461102e565b80f35b906020608492519162461bcd60e51b8352820152602660248201527f4f776e61626c653a206e6577206f776e657220697320746865207a65726f206160448201526564647265737360d01b6064820152fd5b8280fd5b50823461034857602090816003193601126104c15782359261036c611330565b83156104805733855260fd8352818520610387858254611386565b90556103958460fb54611386565b60fb5584836001600160a01b0360fe541660648551809481936323b872dd60e01b835233888401523060248401528a60448401525af190811561047657906001918791610459575b501515036104185750907febedb8b3c678666e7f36970bc8f57abf6d8fa2e828c0da91ea5b75bf68ed101a91519283523392a2600160c95580f35b82606492519162461bcd60e51b8352820152601760248201527f6572726f725f756e7375636365737366756c5374616b650000000000000000006044820152fd5b6104709150853d8711610222576102148183610f98565b876103dd565b83513d88823e3d90fd5b82606492519162461bcd60e51b8352820152601760248201527f6572726f725f696e73756666696369656e745374616b650000000000000000006044820152fd5b8380fd5b8284346102b157816003193601126102b1576020906001600160a01b03609754169051908152f35b8234610548578060031936011261054857610506610fd6565b806001600160a01b036097546001600160a01b03198116609755167f8be0079c531659141344cd1fd0a4f28419497f9722a3daafe3b4186f6b6457e08280a380f35b80fd5b8284346102b15760203660031901126102b157806020926001600160a01b03610572610f4b565b16815260fd845220549051908152f35b509034610548578060031936011261054857506001600160a01b037f00000000000000000000000000000000000000000000000000000000000000001630036105ee57602082517f360894a13ba1a3210667c828492db98dca3e2076cc3735a920a3ca505d382bbc8152f35b6020608492519162461bcd60e51b8352820152603860248201527f555550535570677261646561626c653a206d757374206e6f742062652063616c60448201527f6c6564207468726f7567682064656c656761746563616c6c00000000000000006064820152fd5b5082806003193601126103485761066b610f4b565b9160249182359067ffffffffffffffff82116109c857366023830112156109c8578183013561069981610fba565b6106a583519182610f98565b8181528760209485830193368982840101116103485780898893018637830101526001600160a01b03807f000000000000000000000000000000000000000000000000000000000000000016906106fe82301415611076565b61072d7f360894a13ba1a3210667c828492db98dca3e2076cc3735a920a3ca505d382bbc9282845416146110e8565b610735610fd6565b7f4910fdfa16fed3260ed0e7147f7cc6da11a60208b5b9406d12a635614ffd91435460ff16156107705750505050505050506102f39061115a565b88959799949698169086516352d1902d60e01b815288818b81865afa869181610999575b506107f257875162461bcd60e51b8152808b018a9052602e818d01527f45524331393637557067726164653a206e657720696d706c656d656e7461746960448201526d6f6e206973206e6f74205555505360901b6064820152608490fd5b999294989193959903610947576108088961115a565b8551927fbc7cd75a20ee27fd9adebab32041f755214dbc6bffa90cc0225b39da2e5c2d3b8980a283511580159061093f575b61084b575b50505050505050905080f35b883b156108f15750505093809581926108d09651915af43d156108de57660819985a5b195960ca1b3d9261087e84610fba565b9361088b82519586610f98565b84523d878686013e5b7f416464726573733a206c6f772d6c6576656c2064656c65676174652063616c6c8151956108c187610f66565b60278752860152840152611208565b50808280808080808061083f565b660819985a5b195960ca1b606092610894565b62461bcd60e51b835282018690526026908201527f416464726573733a2064656c65676174652063616c6c20746f206e6f6e2d636f6044820152651b9d1c9858dd60d21b6064820152608490fd5b50600161083a565b60296084928888519362461bcd60e51b85528401528201527f45524331393637557067726164653a20756e737570706f727465642070726f786044820152681a58589b195555525160ba1b6064820152fd5b9091508981813d83116109c1575b6109b18183610f98565b8101031261029c5751908c610794565b503d6109a7565b8580fd5b508290346103485781600319360112610348576109e7610f4b565b602435916001600160a01b038084168094036109c85785549360ff8560081c161594858096610c10575b8015610bf9575b15610b905760ff198116600117885585610b7f575b50610a4760ff885460081c16610a4281611283565b611283565b610a503361102e565b610a6d60ff885460081c16610a6481611283565b610a4281611283565b600160c9558015610b3c576001600160a01b0319818160fe54161760fe5560fc54161760fc55610a9b610fd6565b821615610aea5750610aac9061102e565b610ab4575080f35b60207f7f26b83ff96e1f2b6a682f133852f6798a09c465da95921460cefb38474024989161ff001984541684555160018152a180f35b608490602085519162461bcd60e51b8352820152602660248201527f4f776e61626c653a206e6577206f776e657220697320746865207a65726f206160448201526564647265737360d01b6064820152fd5b855162461bcd60e51b8152602081850152601460248201527f6572726f725f626164547261636b6572446174610000000000000000000000006044820152606490fd5b61ffff191661010117875587610a2d565b865162461bcd60e51b8152602081860152602e60248201527f496e697469616c697a61626c653a20636f6e747261637420697320616c72656160448201527f647920696e697469616c697a65640000000000000000000000000000000000006064820152608490fd5b50303b158015610a185750600160ff821614610a18565b50600160ff821610610a11565b50829034610348576020806003193601126104c157610c3a610f4b565b926001600160a01b03807f000000000000000000000000000000000000000000000000000000000000000016610c7281301415611076565b610ca17f360894a13ba1a3210667c828492db98dca3e2076cc3735a920a3ca505d382bbc9183835416146110e8565b610ca9610fd6565b8251908482019282841067ffffffffffffffff851117610ef4578385528883527f4910fdfa16fed3260ed0e7147f7cc6da11a60208b5b9406d12a635614ffd91435460ff1615610d0357505050505050506102f39061115a565b879894959697169085516352d1902d60e01b815287818a81865afa869181610ec5575b50610d8557865162461bcd60e51b8152808a01899052602e60248201527f45524331393637557067726164653a206e657720696d706c656d656e7461746960448201526d6f6e206973206e6f74205555505360901b6064820152608490fd5b97919293949703610e7057610d998861115a565b8451917fbc7cd75a20ee27fd9adebab32041f755214dbc6bffa90cc0225b39da2e5c2d3b8880a2825115801590610e69575b610ddb575b505050505050905080f35b873b15610e1a5750509380958192610e0d9651915af43d156108de57660819985a5b195960ca1b3d9261087e84610fba565b5080828080808080610dd0565b62461bcd60e51b82528101859052602660248201527f416464726573733a2064656c65676174652063616c6c20746f206e6f6e2d636f6044820152651b9d1c9858dd60d21b6064820152608490fd5b5086610dcb565b845162461bcd60e51b8152908101869052602960248201527f45524331393637557067726164653a20756e737570706f727465642070726f786044820152681a58589b195555525160ba1b6064820152608490fd5b9091508881813d8311610eed575b610edd8183610f98565b8101031261029c5751908b610d26565b503d610ed3565b634e487b7160e01b895260418752602489fd5b8284346102b157816003193601126102b15760209060fb549051908152f35b8390346102b157816003193601126102b1576020906001600160a01b0360fc54168152f35b600435906001600160a01b0382168203610f6157565b600080fd5b6060810190811067ffffffffffffffff821117610f8257604052565b634e487b7160e01b600052604160045260246000fd5b90601f8019910116810190811067ffffffffffffffff821117610f8257604052565b67ffffffffffffffff8111610f8257601f01601f191660200190565b6001600160a01b03609754163303610fea57565b606460405162461bcd60e51b815260206004820152602060248201527f4f776e61626c653a2063616c6c6572206973206e6f7420746865206f776e65726044820152fd5b609754906001600160a01b0380911691826001600160a01b0319821617609755167f8be0079c531659141344cd1fd0a4f28419497f9722a3daafe3b4186f6b6457e0600080a3565b1561107d57565b60405162461bcd60e51b815260206004820152602c60248201527f46756e6374696f6e206d7573742062652063616c6c6564207468726f7567682060448201527f64656c656761746563616c6c00000000000000000000000000000000000000006064820152608490fd5b156110ef57565b60405162461bcd60e51b815260206004820152602c60248201527f46756e6374696f6e206d7573742062652063616c6c6564207468726f7567682060448201527f6163746976652070726f787900000000000000000000000000000000000000006064820152608490fd5b803b1561119d576001600160a01b037f360894a13ba1a3210667c828492db98dca3e2076cc3735a920a3ca505d382bbc91166001600160a01b0319825416179055565b60405162461bcd60e51b815260206004820152602d60248201527f455243313936373a206e657720696d706c656d656e746174696f6e206973206e60448201527f6f74206120636f6e7472616374000000000000000000000000000000000000006064820152608490fd5b90919015611214575090565b8151156112245750805190602001fd5b6040519062461bcd60e51b82528160208060048301528251908160248401526000935b82851061126a575050604492506000838284010152601f80199101168101030190fd5b8481018201518686016044015293810193859350611247565b1561128a57565b60405162461bcd60e51b815260206004820152602b60248201527f496e697469616c697a61626c653a20636f6e7472616374206973206e6f74206960448201527f6e697469616c697a696e670000000000000000000000000000000000000000006064820152608490fd5b9190820391821161130257565b634e487b7160e01b600052601160045260246000fd5b90816020910312610f6157518015158103610f615790565b600260c9541461134157600260c955565b60405162461bcd60e51b815260206004820152601f60248201527f5265656e7472616e637947756172643a207265656e7472616e742063616c6c006044820152606490fd5b919082018092116113025756fea264697066735822122064891eeee61a7e325db895acd4613c8a662ab34e0a0f98580816d7ffc195451f64736f6c63430008110033",
  "linkReferences": {},
  "deployedLinkReferences": {}
}