{
  "_format": "hh-sol-artifact-1",
  "contractName": "LogStoreQueryManager",
  "sourceName": "src/QueryManager.sol",
  "abi": [
    {
      "anonymous": false,
      "inputs": [
        {
          "indexed": false,
          "internalType": "address",
          "name": "previousAdmin",
          "type": "address"
        },
        {
          "indexed": false,
          "internalType": "address",
          "name": "newAdmin",
          "type": "address"
        }
      ],
      "name": "AdminChanged",
      "type": "event"
    },
    {
      "anonymous": false,
      "inputs": [
        {
          "indexed": true,
          "internalType": "address",
          "name": "beacon",
          "type": "address"
        }
      ],
      "name": "BeaconUpgraded",
      "type": "event"
    },
    {
      "anonymous": false,
      "inputs": [
        {
          "indexed": true,
          "internalType": "address",
          "name": "consumer",
          "type": "address"
        },
        {
          "indexed": false,
          "internalType": "uint256",
          "name": "fees",
          "type": "uint256"
        },
        {
          "indexed": false,
          "internalType": "uint256",
          "name": "bytesProcessed",
          "type": "uint256"
        }
      ],
      "name": "DataQueried",
      "type": "event"
    },
    {
      "anonymous": false,
      "inputs": [
        {
          "indexed": false,
          "internalType": "uint8",
          "name": "version",
          "type": "uint8"
        }
      ],
      "name": "Initialized",
      "type": "event"
    },
    {
      "anonymous": false,
      "inputs": [
        {
          "indexed": true,
          "internalType": "address",
          "name": "previousOwner",
          "type": "address"
        },
        {
          "indexed": true,
          "internalType": "address",
          "name": "newOwner",
          "type": "address"
        }
      ],
      "name": "OwnershipTransferred",
      "type": "event"
    },
    {
      "anonymous": false,
      "inputs": [
        {
          "indexed": true,
          "internalType": "address",
          "name": "consumer",
          "type": "address"
        },
        {
          "indexed": false,
          "internalType": "uint256",
          "name": "amount",
          "type": "uint256"
        }
      ],
      "name": "Stake",
      "type": "event"
    },
    {
      "anonymous": false,
      "inputs": [
        {
          "indexed": true,
          "internalType": "address",
          "name": "implementation",
          "type": "address"
        }
      ],
      "name": "Upgraded",
      "type": "event"
    },
    {
      "inputs": [
        {
          "internalType": "address",
          "name": "",
          "type": "address"
        }
      ],
      "name": "balanceOf",
      "outputs": [
        {
          "internalType": "uint256",
          "name": "",
          "type": "uint256"
        }
      ],
      "stateMutability": "view",
      "type": "function"
    },
    {
      "inputs": [
        {
          "internalType": "address",
          "name": "consumer",
          "type": "address"
        },
        {
          "internalType": "uint256",
          "name": "amount",
          "type": "uint256"
        },
        {
          "internalType": "uint256",
          "name": "bytesProcessed",
          "type": "uint256"
        }
      ],
      "name": "capture",
      "outputs": [],
      "stateMutability": "nonpayable",
      "type": "function"
    },
    {
      "inputs": [
        {
          "internalType": "address",
          "name": "owner_",
          "type": "address"
        },
        {
          "internalType": "address",
          "name": "stakeTokenAddress_",
          "type": "address"
        }
      ],
      "name": "initialize",
      "outputs": [],
      "stateMutability": "nonpayable",
      "type": "function"
    },
    {
      "inputs": [],
      "name": "owner",
      "outputs": [
        {
          "internalType": "address",
          "name": "",
          "type": "address"
        }
      ],
      "stateMutability": "view",
      "type": "function"
    },
    {
      "inputs": [],
      "name": "proxiableUUID",
      "outputs": [
        {
          "internalType": "bytes32",
          "name": "",
          "type": "bytes32"
        }
      ],
      "stateMutability": "view",
      "type": "function"
    },
    {
      "inputs": [],
      "name": "renounceOwnership",
      "outputs": [],
      "stateMutability": "nonpayable",
      "type": "function"
    },
    {
      "inputs": [
        {
          "internalType": "uint256",
          "name": "amount",
          "type": "uint256"
        }
      ],
      "name": "stake",
      "outputs": [],
      "stateMutability": "nonpayable",
      "type": "function"
    },
    {
      "inputs": [],
      "name": "stakeTokenAddress",
      "outputs": [
        {
          "internalType": "address",
          "name": "",
          "type": "address"
        }
      ],
      "stateMutability": "view",
      "type": "function"
    },
    {
      "inputs": [],
      "name": "totalSupply",
      "outputs": [
        {
          "internalType": "uint256",
          "name": "",
          "type": "uint256"
        }
      ],
      "stateMutability": "view",
      "type": "function"
    },
    {
      "inputs": [
        {
          "internalType": "address",
          "name": "newOwner",
          "type": "address"
        }
      ],
      "name": "transferOwnership",
      "outputs": [],
      "stateMutability": "nonpayable",
      "type": "function"
    },
    {
      "inputs": [
        {
          "internalType": "address",
          "name": "newImplementation",
          "type": "address"
        }
      ],
      "name": "upgradeTo",
      "outputs": [],
      "stateMutability": "nonpayable",
      "type": "function"
    },
    {
      "inputs": [
        {
          "internalType": "address",
          "name": "newImplementation",
          "type": "address"
        },
        {
          "internalType": "bytes",
          "name": "data",
          "type": "bytes"
        }
      ],
      "name": "upgradeToAndCall",
      "outputs": [],
      "stateMutability": "payable",
      "type": "function"
    }
  ],
  "bytecode": "0x60a080604052346100315730608052611415908161003782396080518181816105ea0152818161071b0152610c920152f35b600080fdfe608060408181526004908136101561001657600080fd5b600092833560e01c9081630106395f14610f725750806318160ddd14610f535780633659cfe614610c6a578063485cc95514610a1a5780634f1ef286146106a157806352d1902d146105cd57806370a0823114610596578063715018a6146105385780638da5cb5b1461050c578063a694fc3a14610394578063f2fde38b146103025763f7177d18146100a857600080fd5b346102fe5760603660031901126102fe576100c1610f97565b916024928335916100d061137c565b6100d8611022565b6001600160a01b03948560fe541692855180946370a0823160e01b82523085830152818460209788935afa9081156102f45789916102c3575b5085116102825786169586885260fd845285882054156102415783889188835260fd8252878320610143888254611341565b90556101518760fb54611341565b60fb5560fe5416604488518094819363a9059cbb60e01b835233898401528a888401525af19081156102375790600191899161020a575b501515036101ca5750508251918252604435908201527f7c9e10d161637aa47a4ee991d967b5313029fdac1cf0e44d7fbc74b40c9e072e9190a2600160c95580f35b60199060649386519362461bcd60e51b85528401528201527f6572726f725f756e7375636365737366756c43617074757265000000000000006044820152fd5b61022a9150853d8711610230575b6102228183610fe4565b810190611364565b38610188565b503d610218565b86513d8a823e3d90fd5b50601c9060649386519362461bcd60e51b85528401528201527f6572726f725f696e76616c6964436f6e73756d657241646472657373000000006044820152fd5b5060149060649386519362461bcd60e51b85528401528201527f6572726f725f6e6f74456e6f7567685374616b650000000000000000000000006044820152fd5b90508481813d83116102ed575b6102da8183610fe4565b810103126102e9575138610111565b8880fd5b503d6102d0565b87513d8b823e3d90fd5b8280fd5b5090346102fe5760203660031901126102fe5761031d610f97565b91610326611022565b6001600160a01b03831615610342578361033f8461107a565b80f35b906020608492519162461bcd60e51b8352820152602660248201527f4f776e61626c653a206e6577206f776e657220697320746865207a65726f206160448201526564647265737360d01b6064820152fd5b50346102fe5760209081600319360112610508578235926103b361137c565b83156104c75733855260fd83528185206103ce8582546113d2565b90556103dc8460fb546113d2565b60fb5584836001600160a01b0360fe541660648551809481936323b872dd60e01b835233888401523060248401528a60448401525af19081156104bd579060019187916104a0575b5015150361045f5750907febedb8b3c678666e7f36970bc8f57abf6d8fa2e828c0da91ea5b75bf68ed101a91519283523392a2600160c95580f35b82606492519162461bcd60e51b8352820152601760248201527f6572726f725f756e7375636365737366756c5374616b650000000000000000006044820152fd5b6104b79150853d8711610230576102228183610fe4565b38610424565b83513d88823e3d90fd5b82606492519162461bcd60e51b8352820152601760248201527f6572726f725f696e73756666696369656e745374616b650000000000000000006044820152fd5b8380fd5b8382346105345781600319360112610534576020906001600160a01b03609754169051908152f35b5080fd5b8334610593578060031936011261059357610551611022565b806001600160a01b036097546001600160a01b03198116609755167f8be0079c531659141344cd1fd0a4f28419497f9722a3daafe3b4186f6b6457e08280a380f35b80fd5b83823461053457602036600319011261053457806020926001600160a01b036105bd610f97565b16815260fd845220549051908152f35b509134610593578060031936011261059357506001600160a01b037f000000000000000000000000000000000000000000000000000000000000000016300361063957602082517f360894a13ba1a3210667c828492db98dca3e2076cc3735a920a3ca505d382bbc8152f35b6020608492519162461bcd60e51b8352820152603860248201527f555550535570677261646561626c653a206d757374206e6f742062652063616c60448201527f6c6564207468726f7567682064656c656761746563616c6c00000000000000006064820152fd5b50806003193601126102fe576106b5610f97565b9160249182359067ffffffffffffffff8211610a165736602383011215610a1657818301356106e381611006565b6106ef83519182610fe4565b8181528760209485830193368982840101116102fe5780898893018637830101526001600160a01b03807f00000000000000000000000000000000000000000000000000000000000000001690610748823014156110c2565b6107777f360894a13ba1a3210667c828492db98dca3e2076cc3735a920a3ca505d382bbc928284541614611134565b61077f611022565b7f4910fdfa16fed3260ed0e7147f7cc6da11a60208b5b9406d12a635614ffd91435460ff16156107ba57505050505050505061033f906111a6565b88959799949698169086516352d1902d60e01b815288818b81865afa8691816109e3575b5061083c57875162461bcd60e51b8152808b018a9052602e818d01527f45524331393637557067726164653a206e657720696d706c656d656e7461746960448201526d6f6e206973206e6f74205555505360901b6064820152608490fd5b99929498919395990361099157610852896111a6565b8551927fbc7cd75a20ee27fd9adebab32041f755214dbc6bffa90cc0225b39da2e5c2d3b8980a2835115801590610989575b610895575b50505050505050905080f35b883b1561093b57505050938095819261091a9651915af43d1561092857660819985a5b195960ca1b3d926108c884611006565b936108d582519586610fe4565b84523d878686013e5b7f416464726573733a206c6f772d6c6576656c2064656c65676174652063616c6c81519561090b87610fb2565b60278752860152840152611254565b508038808080808080610889565b660819985a5b195960ca1b6060926108de565b62461bcd60e51b835282018690526026908201527f416464726573733a2064656c65676174652063616c6c20746f206e6f6e2d636f6044820152651b9d1c9858dd60d21b6064820152608490fd5b506001610884565b60296084928888519362461bcd60e51b85528401528201527f45524331393637557067726164653a20756e737570706f727465642070726f786044820152681a58589b195555525160ba1b6064820152fd5b9091508981813d8311610a0f575b6109fb8183610fe4565b81010312610a0b575190386107de565b8680fd5b503d6109f1565b8580fd5b5090346102fe57816003193601126102fe57610a34610f97565b602435916001600160a01b03808416809403610a165785549360ff8560081c161594858096610c5d575b8015610c46575b15610bdd5760ff198116600117885585610bcc575b50610a9460ff885460081c16610a8f816112cf565b6112cf565b610a9d3361107a565b610aba60ff885460081c16610ab1816112cf565b610a8f816112cf565b600160c9558015610b89576001600160a01b0319818160fe54161760fe5560fc54161760fc55610ae8611022565b821615610b375750610af99061107a565b610b01575080f35b60207f7f26b83ff96e1f2b6a682f133852f6798a09c465da95921460cefb38474024989161ff001984541684555160018152a180f35b608490602085519162461bcd60e51b8352820152602660248201527f4f776e61626c653a206e6577206f776e657220697320746865207a65726f206160448201526564647265737360d01b6064820152fd5b855162461bcd60e51b8152602081850152601460248201527f6572726f725f626164547261636b6572446174610000000000000000000000006044820152606490fd5b61ffff191661010117875538610a7a565b865162461bcd60e51b8152602081860152602e60248201527f496e697469616c697a61626c653a20636f6e747261637420697320616c72656160448201527f647920696e697469616c697a65640000000000000000000000000000000000006064820152608490fd5b50303b158015610a655750600160ff821614610a65565b50600160ff821610610a5e565b5090346102fe5760208060031936011261050857610c86610f97565b926001600160a01b03807f000000000000000000000000000000000000000000000000000000000000000016610cbe813014156110c2565b610ced7f360894a13ba1a3210667c828492db98dca3e2076cc3735a920a3ca505d382bbc918383541614611134565b610cf5611022565b8251908482019282841067ffffffffffffffff851117610f40578385528883527f4910fdfa16fed3260ed0e7147f7cc6da11a60208b5b9406d12a635614ffd91435460ff1615610d4f575050505050505061033f906111a6565b879894959697169085516352d1902d60e01b815287818a81865afa869181610f11575b50610dd157865162461bcd60e51b8152808a01899052602e60248201527f45524331393637557067726164653a206e657720696d706c656d656e7461746960448201526d6f6e206973206e6f74205555505360901b6064820152608490fd5b97919293949703610ebc57610de5886111a6565b8451917fbc7cd75a20ee27fd9adebab32041f755214dbc6bffa90cc0225b39da2e5c2d3b8880a2825115801590610eb5575b610e27575b505050505050905080f35b873b15610e665750509380958192610e599651915af43d1561092857660819985a5b195960ca1b3d926108c884611006565b5080388080808080610e1c565b62461bcd60e51b82528101859052602660248201527f416464726573733a2064656c65676174652063616c6c20746f206e6f6e2d636f6044820152651b9d1c9858dd60d21b6064820152608490fd5b5086610e17565b845162461bcd60e51b8152908101869052602960248201527f45524331393637557067726164653a20756e737570706f727465642070726f786044820152681a58589b195555525160ba1b6064820152608490fd5b9091508881813d8311610f39575b610f298183610fe4565b81010312610a0b57519038610d72565b503d610f1f565b634e487b7160e01b895260418752602489fd5b83823461053457816003193601126105345760209060fb549051908152f35b8490346105345781600319360112610534576020906001600160a01b0360fc54168152f35b600435906001600160a01b0382168203610fad57565b600080fd5b6060810190811067ffffffffffffffff821117610fce57604052565b634e487b7160e01b600052604160045260246000fd5b90601f8019910116810190811067ffffffffffffffff821117610fce57604052565b67ffffffffffffffff8111610fce57601f01601f191660200190565b6001600160a01b0360975416330361103657565b606460405162461bcd60e51b815260206004820152602060248201527f4f776e61626c653a2063616c6c6572206973206e6f7420746865206f776e65726044820152fd5b609754906001600160a01b0380911691826001600160a01b0319821617609755167f8be0079c531659141344cd1fd0a4f28419497f9722a3daafe3b4186f6b6457e0600080a3565b156110c957565b60405162461bcd60e51b815260206004820152602c60248201527f46756e6374696f6e206d7573742062652063616c6c6564207468726f7567682060448201527f64656c656761746563616c6c00000000000000000000000000000000000000006064820152608490fd5b1561113b57565b60405162461bcd60e51b815260206004820152602c60248201527f46756e6374696f6e206d7573742062652063616c6c6564207468726f7567682060448201527f6163746976652070726f787900000000000000000000000000000000000000006064820152608490fd5b803b156111e9576001600160a01b037f360894a13ba1a3210667c828492db98dca3e2076cc3735a920a3ca505d382bbc91166001600160a01b0319825416179055565b60405162461bcd60e51b815260206004820152602d60248201527f455243313936373a206e657720696d706c656d656e746174696f6e206973206e60448201527f6f74206120636f6e7472616374000000000000000000000000000000000000006064820152608490fd5b90919015611260575090565b8151156112705750805190602001fd5b6040519062461bcd60e51b82528160208060048301528251908160248401526000935b8285106112b6575050604492506000838284010152601f80199101168101030190fd5b8481018201518686016044015293810193859350611293565b156112d657565b60405162461bcd60e51b815260206004820152602b60248201527f496e697469616c697a61626c653a20636f6e7472616374206973206e6f74206960448201527f6e697469616c697a696e670000000000000000000000000000000000000000006064820152608490fd5b9190820391821161134e57565b634e487b7160e01b600052601160045260246000fd5b90816020910312610fad57518015158103610fad5790565b600260c9541461138d57600260c955565b60405162461bcd60e51b815260206004820152601f60248201527f5265656e7472616e637947756172643a207265656e7472616e742063616c6c006044820152606490fd5b9190820180921161134e5756fea264697066735822122043bd2def38fc2b33e4bb767748d2bfe6aa3f5da53d4b4e6fda742bd210fc059364736f6c63430008110033",
  "linkReferences": {},
  "deployedLinkReferences": {}
}