{
  "_format": "hh-sol-artifact-1",
  "contractName": "DevToken",
  "sourceName": "src/dev/Token.sol",
  "abi": [
    {
      "inputs": [],
      "stateMutability": "nonpayable",
      "type": "constructor"
    },
    {
      "anonymous": false,
      "inputs": [
        {
          "indexed": true,
          "internalType": "address",
          "name": "owner",
          "type": "address"
        },
        {
          "indexed": true,
          "internalType": "address",
          "name": "spender",
          "type": "address"
        },
        {
          "indexed": false,
          "internalType": "uint256",
          "name": "value",
          "type": "uint256"
        }
      ],
      "name": "Approval",
      "type": "event"
    },
    {
      "anonymous": false,
      "inputs": [
        {
          "indexed": true,
          "internalType": "address",
          "name": "from",
          "type": "address"
        },
        {
          "indexed": true,
          "internalType": "address",
          "name": "to",
          "type": "address"
        },
        {
          "indexed": false,
          "internalType": "uint256",
          "name": "value",
          "type": "uint256"
        }
      ],
      "name": "Transfer",
      "type": "event"
    },
    {
      "inputs": [
        {
          "internalType": "address",
          "name": "owner",
          "type": "address"
        },
        {
          "internalType": "address",
          "name": "spender",
          "type": "address"
        }
      ],
      "name": "allowance",
      "outputs": [
        {
          "internalType": "uint256",
          "name": "",
          "type": "uint256"
        }
      ],
      "stateMutability": "view",
      "type": "function"
    },
    {
      "inputs": [
        {
          "internalType": "address",
          "name": "spender",
          "type": "address"
        },
        {
          "internalType": "uint256",
          "name": "amount",
          "type": "uint256"
        }
      ],
      "name": "approve",
      "outputs": [
        {
          "internalType": "bool",
          "name": "",
          "type": "bool"
        }
      ],
      "stateMutability": "nonpayable",
      "type": "function"
    },
    {
      "inputs": [
        {
          "internalType": "address",
          "name": "account",
          "type": "address"
        }
      ],
      "name": "balanceOf",
      "outputs": [
        {
          "internalType": "uint256",
          "name": "",
          "type": "uint256"
        }
      ],
      "stateMutability": "view",
      "type": "function"
    },
    {
      "inputs": [],
      "name": "decimals",
      "outputs": [
        {
          "internalType": "uint8",
          "name": "",
          "type": "uint8"
        }
      ],
      "stateMutability": "view",
      "type": "function"
    },
    {
      "inputs": [
        {
          "internalType": "address",
          "name": "spender",
          "type": "address"
        },
        {
          "internalType": "uint256",
          "name": "subtractedValue",
          "type": "uint256"
        }
      ],
      "name": "decreaseAllowance",
      "outputs": [
        {
          "internalType": "bool",
          "name": "",
          "type": "bool"
        }
      ],
      "stateMutability": "nonpayable",
      "type": "function"
    },
    {
      "inputs": [
        {
          "internalType": "address",
          "name": "spender",
          "type": "address"
        },
        {
          "internalType": "uint256",
          "name": "addedValue",
          "type": "uint256"
        }
      ],
      "name": "increaseAllowance",
      "outputs": [
        {
          "internalType": "bool",
          "name": "",
          "type": "bool"
        }
      ],
      "stateMutability": "nonpayable",
      "type": "function"
    },
    {
      "inputs": [
        {
          "internalType": "address[]",
          "name": "_addresses",
          "type": "address[]"
        },
        {
          "internalType": "address",
          "name": "spender",
          "type": "address"
        }
      ],
      "name": "mintAndApproveMany",
      "outputs": [],
      "stateMutability": "nonpayable",
      "type": "function"
    },
    {
      "inputs": [],
      "name": "name",
      "outputs": [
        {
          "internalType": "string",
          "name": "",
          "type": "string"
        }
      ],
      "stateMutability": "view",
      "type": "function"
    },
    {
      "inputs": [],
      "name": "symbol",
      "outputs": [
        {
          "internalType": "string",
          "name": "",
          "type": "string"
        }
      ],
      "stateMutability": "view",
      "type": "function"
    },
    {
      "inputs": [],
      "name": "totalSupply",
      "outputs": [
        {
          "internalType": "uint256",
          "name": "",
          "type": "uint256"
        }
      ],
      "stateMutability": "view",
      "type": "function"
    },
    {
      "inputs": [
        {
          "internalType": "address",
          "name": "to",
          "type": "address"
        },
        {
          "internalType": "uint256",
          "name": "amount",
          "type": "uint256"
        }
      ],
      "name": "transfer",
      "outputs": [
        {
          "internalType": "bool",
          "name": "",
          "type": "bool"
        }
      ],
      "stateMutability": "nonpayable",
      "type": "function"
    },
    {
      "inputs": [
        {
          "internalType": "address",
          "name": "from",
          "type": "address"
        },
        {
          "internalType": "address",
          "name": "to",
          "type": "address"
        },
        {
          "internalType": "uint256",
          "name": "amount",
          "type": "uint256"
        }
      ],
      "name": "transferFrom",
      "outputs": [
        {
          "internalType": "bool",
          "name": "",
          "type": "bool"
        }
      ],
      "stateMutability": "nonpayable",
      "type": "function"
    }
  ],
  "bytecode": "0x608034620005eb576001600160401b039060409080820183811182821017620004eb57825260088152602090672232bb2a37b5b2b760c11b8282015282519383850185811082821117620004eb57845260038086526211159560ea1b848701528251828111620004eb578154906001948583811c93168015620005e0575b87841014620005ca578190601f9384811162000574575b5087908483116001146200050d5760009262000501575b505060001982851b1c191690851b1782555b8651928311620004eb5760049687548581811c91168015620004e0575b87821014620004cb5782811162000480575b5085918411600114620004155793839491849260009562000409575b50501b92600019911b1c19161783555b69d3c21bcecceda10000009060058281556002928354818101809111620003df57845573a3d1f77acff0060f7213d7bf3c7fec78df847de1600081815280855286812080548401905586519283527fddf252ad1be2c89b69c2b068fc378daa952ba7f163c4a11628f55a4df523b3ef94939285908590a380548454818101809111620003f457855560008484734178babe9e5148c6d5fd431cd72884b07ad855a0938484528382528984208181540190558951908152a380548454818101809111620003f45785556000848473dc353aa3d81fc3d67eb49f443df258029b01d8ab938484528382528984208181540190558951908152a380548454818101809111620003f457855560008484737986b71c27b6eaab3120a984f26511b2dcfe3fb4938484528382528984208181540190558951908152a380548454818101809111620003f45785556000848473a6743286b55f36afa5f4e7e35b6a80039c452dbd938484528382528984208181540190558951908152a380548454818101809111620003f457855560008484737b556228b0d887cfc8d895cce27cbc79d3e55b3c938484528382528984208181540190558951908152a380548454818101809111620003f45785556000848473795063367ebfeb994445d810b94461274e4f109a938484528382528984208181540190558951908152a380548454818101809111620003f45785556000848473ca9b39e7a7063cdb845483426d4f12f1f4a44a19938484528382528984208181540190558951908152a380548454818101809111620003f45785556000848473505d48552ac17ffd0845ffa3783c2799fd4aad78938484528382528984208181540190558951908152a35492805490848201809211620003df57600094959650557365416cbef822290d9a2fc319eb6c7f6d9cd4a541938484528382528584208181540190558551908152a351610c019081620005f18239f35b601187634e487b7160e01b6000525260246000fd5b601188634e487b7160e01b6000525260246000fd5b01519350388062000108565b9190601f198416928860005284876000209460005b89898383106200046857505050106200044d575b50505050811b01835562000118565b01519060f884600019921b161c19169055388080806200043e565b8686015189559097019694850194889350016200042a565b88600052866000208380870160051c820192898810620004c1575b0160051c019086905b828110620004b4575050620000ec565b60008155018690620004a4565b925081926200049b565b602289634e487b7160e01b6000525260246000fd5b90607f1690620000da565b634e487b7160e01b600052604160045260246000fd5b015190503880620000ab565b90879350601f1983169186600052896000209260005b8b8282106200055d575050841162000544575b505050811b018255620000bd565b015160001983871b60f8161c1916905538808062000536565b8385015186558b9790950194938401930162000523565b90915084600052876000208480850160051c8201928a8610620005c0575b918991869594930160051c01915b828110620005b057505062000094565b60008155859450899101620005a0565b9250819262000592565b634e487b7160e01b600052602260045260246000fd5b92607f16926200007d565b600080fdfe608060408181526004918236101561001657600080fd5b600092833560e01c91826306fdde031461073857508163095ea7b31461070e57816318160ddd146106ef57816323b872dd14610624578163313ce5671461060857816339509351146105b957816370a082311461058357816395d89b41146104805781639b659d6e146101e5578163a457c2d71461012457508063a9059cbb146100f45763dd62ed3e146100a957600080fd5b346100f057806003193601126100f057806020926100c5610876565b6100cd610891565b6001600160a01b0391821683526001865283832091168252845220549051908152f35b5080fd5b50346100f057806003193601126100f05760209061011d610113610876565b6024359033610902565b5160018152f35b905082346101e257826003193601126101e25761013f610876565b91836024359233815260016020528181206001600160a01b03861682526020522054908282106101795760208561011d8585038733610a9f565b608490602086519162461bcd60e51b8352820152602560248201527f45524332303a2064656372656173656420616c6c6f77616e63652062656c6f7760448201527f207a65726f0000000000000000000000000000000000000000000000000000006064820152fd5b80fd5b8284346101e257816003193601126101e25767ffffffffffffffff92803584811161047c573660238201121561047c578082013594851161046957600585811b95855192602091610238838a01866108a7565b84528184016024809983010191368311610465579397938901905b82821061043c57505050610265610891565b9185926001600160a01b03809116948515945b8151811015610438578261028c8284610ba1565b51168a5481156103f6577fddf252ad1be2c89b69c2b068fc378daa952ba7f163c4a11628f55a4df523b3ef878c9260026102c78282546108df565b90558484528382528884208181540190558851908152a3826102e98284610ba1565b511680156103a9578661035c578088918b5260018752858b20828c5287527f8c5be1e5ebec7d5bd14f71427d1e84f3dd0314c0f7b2291e5b200ac8c7c3b92587878d60001991829120558851908152a3600019811461034a57600101610278565b634e487b7160e01b8952601188528a89fd5b845162461bcd60e51b8152808a018790526022818e01527f45524332303a20617070726f766520746f20746865207a65726f206164647265604482015261737360f01b6064820152608490fd5b6084898d8888519262461bcd60e51b8452830152808201527f45524332303a20617070726f76652066726f6d20746865207a65726f206164646044820152637265737360e01b6064820152fd5b855162461bcd60e51b8152808b01889052601f818f01527f45524332303a206d696e7420746f20746865207a65726f2061646472657373006044820152606490fd5b8880f35b81989498356001600160a01b0381168103610461578152939793908301908301610253565b8880fd5b8780fd5b634e487b7160e01b835260418252602483fd5b8280fd5b8383346100f057816003193601126100f057805191809380549160019083821c92828516948515610579575b60209586861081146105665785895290811561054257506001146104ea575b6104e687876104dc828c03836108a7565b519182918261082d565b0390f35b81529295507f8a35acfbc15ff81a39ae7d344fd709f28e8600b4aa8c65c6b64bfe7fe36bd19b5b82841061052f57505050826104e6946104dc928201019486806104cb565b8054868501880152928601928101610511565b60ff19168887015250505050151560051b83010192506104dc826104e686806104cb565b634e487b7160e01b845260228352602484fd5b93607f16936104ac565b5050346100f05760203660031901126100f057806020926001600160a01b036105aa610876565b16815280845220549051908152f35b5050346100f057806003193601126100f05761011d6020926106016105dc610876565b91338152600186528481206001600160a01b03841682528652846024359120546108df565b9033610a9f565b5050346100f057816003193601126100f0576020905160128152f35b839150346100f05760603660031901126100f057610640610876565b610648610891565b9184604435946001600160a01b038416815260016020528181203382526020522054906000198203610683575b60208661011d878787610902565b8482106106ac57509183916106a16020969561011d95033383610a9f565b919394819350610675565b606490602087519162461bcd60e51b8352820152601d60248201527f45524332303a20696e73756666696369656e7420616c6c6f77616e63650000006044820152fd5b5050346100f057816003193601126100f0576020906002549051908152f35b5050346100f057806003193601126100f05760209061011d61072e610876565b6024359033610a9f565b92915034610829578360031936011261082957600354600181811c918690828116801561081f575b602095868610821461080c57508488529081156107ea5750600114610791575b6104e686866104dc828b03836108a7565b929550600383527fc2575a0e9e593c00f959f8c92f12db2869c3395a3b0502d05e2516446f71f85b5b8284106107d757505050826104e6946104dc928201019438610780565b80548685018801529286019281016107ba565b60ff191687860152505050151560051b83010192506104dc826104e638610780565b634e487b7160e01b845260229052602483fd5b93607f1693610760565b8380fd5b6020808252825181830181905290939260005b82811061086257505060409293506000838284010152601f8019910116010190565b818101860151848201604001528501610840565b600435906001600160a01b038216820361088c57565b600080fd5b602435906001600160a01b038216820361088c57565b90601f8019910116810190811067ffffffffffffffff8211176108c957604052565b634e487b7160e01b600052604160045260246000fd5b919082018092116108ec57565b634e487b7160e01b600052601160045260246000fd5b6001600160a01b03809116918215610a3457169182156109e35760008281528060205260408120549180831061097857604082827fddf252ad1be2c89b69c2b068fc378daa952ba7f163c4a11628f55a4df523b3ef958760209652828652038282205586815220818154019055604051908152a3565b60405162461bcd60e51b815260206004820152602660248201527f45524332303a207472616e7366657220616d6f756e742065786365656473206260448201527f616c616e636500000000000000000000000000000000000000000000000000006064820152608490fd5b60405162461bcd60e51b815260206004820152602360248201527f45524332303a207472616e7366657220746f20746865207a65726f206164647260448201526265737360e81b6064820152608490fd5b60405162461bcd60e51b815260206004820152602560248201527f45524332303a207472616e736665722066726f6d20746865207a65726f20616460448201527f64726573730000000000000000000000000000000000000000000000000000006064820152608490fd5b6001600160a01b03809116918215610b505716918215610b005760207f8c5be1e5ebec7d5bd14f71427d1e84f3dd0314c0f7b2291e5b200ac8c7c3b925918360005260018252604060002085600052825280604060002055604051908152a3565b60405162461bcd60e51b815260206004820152602260248201527f45524332303a20617070726f766520746f20746865207a65726f206164647265604482015261737360f01b6064820152608490fd5b60405162461bcd60e51b8152602060048201526024808201527f45524332303a20617070726f76652066726f6d20746865207a65726f206164646044820152637265737360e01b6064820152608490fd5b8051821015610bb55760209160051b010190565b634e487b7160e01b600052603260045260246000fdfea2646970667358221220ec2b8e3685c3ec51ffbaa0e4bf28895d9857969d063cb797d44181bbb817531e64736f6c63430008110033",
  "linkReferences": {},
  "deployedLinkReferences": {}
}