{
  "_format": "hh-sol-artifact-1",
  "contractName": "LogStoreReportManager",
  "sourceName": "src/ReportManager.sol",
  "abi": [
    {
      "anonymous": false,
      "inputs": [
        {
          "indexed": false,
          "internalType": "address",
          "name": "previousAdmin",
          "type": "address"
        },
        {
          "indexed": false,
          "internalType": "address",
          "name": "newAdmin",
          "type": "address"
        }
      ],
      "name": "AdminChanged",
      "type": "event"
    },
    {
      "anonymous": false,
      "inputs": [
        {
          "indexed": true,
          "internalType": "address",
          "name": "beacon",
          "type": "address"
        }
      ],
      "name": "BeaconUpgraded",
      "type": "event"
    },
    {
      "anonymous": false,
      "inputs": [
        {
          "indexed": false,
          "internalType": "uint8",
          "name": "version",
          "type": "uint8"
        }
      ],
      "name": "Initialized",
      "type": "event"
    },
    {
      "anonymous": false,
      "inputs": [
        {
          "indexed": false,
          "internalType": "bool",
          "name": "isMet",
          "type": "bool"
        }
      ],
      "name": "Logger",
      "type": "event"
    },
    {
      "anonymous": false,
      "inputs": [
        {
          "indexed": true,
          "internalType": "address",
          "name": "previousOwner",
          "type": "address"
        },
        {
          "indexed": true,
          "internalType": "address",
          "name": "newOwner",
          "type": "address"
        }
      ],
      "name": "OwnershipTransferred",
      "type": "event"
    },
    {
      "anonymous": false,
      "inputs": [
        {
          "indexed": false,
          "internalType": "string",
          "name": "id",
          "type": "string"
        }
      ],
      "name": "ReportAccepted",
      "type": "event"
    },
    {
      "anonymous": false,
      "inputs": [
        {
          "indexed": true,
          "internalType": "address",
          "name": "implementation",
          "type": "address"
        }
      ],
      "name": "Upgraded",
      "type": "event"
    },
    {
      "inputs": [],
      "name": "MATH_PRECISION",
      "outputs": [
        {
          "internalType": "uint256",
          "name": "",
          "type": "uint256"
        }
      ],
      "stateMutability": "view",
      "type": "function"
    },
    {
      "inputs": [
        {
          "internalType": "uint256[]",
          "name": "timestamps",
          "type": "uint256[]"
        }
      ],
      "name": "aggregateTimestamps",
      "outputs": [
        {
          "internalType": "uint256",
          "name": "",
          "type": "uint256"
        }
      ],
      "stateMutability": "pure",
      "type": "function"
    },
    {
      "inputs": [],
      "name": "getLastReport",
      "outputs": [
        {
          "components": [
            {
              "internalType": "string",
              "name": "id",
              "type": "string"
            },
            {
              "internalType": "uint256",
              "name": "height",
              "type": "uint256"
            },
            {
              "internalType": "int256",
              "name": "treasury",
              "type": "int256"
            },
            {
              "components": [
                {
                  "internalType": "string",
                  "name": "id",
                  "type": "string"
                },
                {
                  "internalType": "uint256",
                  "name": "writeCapture",
                  "type": "uint256"
                },
                {
                  "internalType": "uint256",
                  "name": "writeBytes",
                  "type": "uint256"
                }
              ],
              "internalType": "struct LogStoreReportManager.Stream[]",
              "name": "streams",
              "type": "tuple[]"
            },
            {
              "components": [
                {
                  "internalType": "address",
                  "name": "id",
                  "type": "address"
                },
                {
                  "internalType": "int256",
                  "name": "amount",
                  "type": "int256"
                }
              ],
              "internalType": "struct LogStoreReportManager.Node[]",
              "name": "nodes",
              "type": "tuple[]"
            },
            {
              "components": [
                {
                  "internalType": "address",
                  "name": "id",
                  "type": "address"
                },
                {
                  "components": [
                    {
                      "internalType": "address",
                      "name": "id",
                      "type": "address"
                    },
                    {
                      "internalType": "int256",
                      "name": "amount",
                      "type": "int256"
                    }
                  ],
                  "internalType": "struct LogStoreReportManager.Node[]",
                  "name": "nodes",
                  "type": "tuple[]"
                }
              ],
              "internalType": "struct LogStoreReportManager.Delegate[]",
              "name": "delegates",
              "type": "tuple[]"
            },
            {
              "components": [
                {
                  "internalType": "address",
                  "name": "id",
                  "type": "address"
                },
                {
                  "internalType": "uint256",
                  "name": "readCapture",
                  "type": "uint256"
                },
                {
                  "internalType": "uint256",
                  "name": "readBytes",
                  "type": "uint256"
                }
              ],
              "internalType": "struct LogStoreReportManager.Consumer[]",
              "name": "consumers",
              "type": "tuple[]"
            },
            {
              "internalType": "address",
              "name": "_reporter",
              "type": "address"
            },
            {
              "internalType": "bool",
              "name": "_processed",
              "type": "bool"
            }
          ],
          "internalType": "struct LogStoreReportManager.Report",
          "name": "",
          "type": "tuple"
        }
      ],
      "stateMutability": "view",
      "type": "function"
    },
    {
      "inputs": [
        {
          "internalType": "string",
          "name": "id",
          "type": "string"
        }
      ],
      "name": "getReport",
      "outputs": [
        {
          "components": [
            {
              "internalType": "string",
              "name": "id",
              "type": "string"
            },
            {
              "internalType": "uint256",
              "name": "height",
              "type": "uint256"
            },
            {
              "internalType": "int256",
              "name": "treasury",
              "type": "int256"
            },
            {
              "components": [
                {
                  "internalType": "string",
                  "name": "id",
                  "type": "string"
                },
                {
                  "internalType": "uint256",
                  "name": "writeCapture",
                  "type": "uint256"
                },
                {
                  "internalType": "uint256",
                  "name": "writeBytes",
                  "type": "uint256"
                }
              ],
              "internalType": "struct LogStoreReportManager.Stream[]",
              "name": "streams",
              "type": "tuple[]"
            },
            {
              "components": [
                {
                  "internalType": "address",
                  "name": "id",
                  "type": "address"
                },
                {
                  "internalType": "int256",
                  "name": "amount",
                  "type": "int256"
                }
              ],
              "internalType": "struct LogStoreReportManager.Node[]",
              "name": "nodes",
              "type": "tuple[]"
            },
            {
              "components": [
                {
                  "internalType": "address",
                  "name": "id",
                  "type": "address"
                },
                {
                  "components": [
                    {
                      "internalType": "address",
                      "name": "id",
                      "type": "address"
                    },
                    {
                      "internalType": "int256",
                      "name": "amount",
                      "type": "int256"
                    }
                  ],
                  "internalType": "struct LogStoreReportManager.Node[]",
                  "name": "nodes",
                  "type": "tuple[]"
                }
              ],
              "internalType": "struct LogStoreReportManager.Delegate[]",
              "name": "delegates",
              "type": "tuple[]"
            },
            {
              "components": [
                {
                  "internalType": "address",
                  "name": "id",
                  "type": "address"
                },
                {
                  "internalType": "uint256",
                  "name": "readCapture",
                  "type": "uint256"
                },
                {
                  "internalType": "uint256",
                  "name": "readBytes",
                  "type": "uint256"
                }
              ],
              "internalType": "struct LogStoreReportManager.Consumer[]",
              "name": "consumers",
              "type": "tuple[]"
            },
            {
              "internalType": "address",
              "name": "_reporter",
              "type": "address"
            },
            {
              "internalType": "bool",
              "name": "_processed",
              "type": "bool"
            }
          ],
          "internalType": "struct LogStoreReportManager.Report",
          "name": "",
          "type": "tuple"
        }
      ],
      "stateMutability": "view",
      "type": "function"
    },
    {
      "inputs": [],
      "name": "getReporters",
      "outputs": [
        {
          "internalType": "address[]",
          "name": "reporters",
          "type": "address[]"
        }
      ],
      "stateMutability": "view",
      "type": "function"
    },
    {
      "inputs": [
        {
          "internalType": "address",
          "name": "_owner",
          "type": "address"
        },
        {
          "internalType": "uint256",
          "name": "_reportTimeBuffer",
          "type": "uint256"
        }
      ],
      "name": "initialize",
      "outputs": [],
      "stateMutability": "nonpayable",
      "type": "function"
    },
    {
      "inputs": [],
      "name": "owner",
      "outputs": [
        {
          "internalType": "address",
          "name": "",
          "type": "address"
        }
      ],
      "stateMutability": "view",
      "type": "function"
    },
    {
      "inputs": [
        {
          "internalType": "string",
          "name": "id",
          "type": "string"
        }
      ],
      "name": "processReport",
      "outputs": [],
      "stateMutability": "nonpayable",
      "type": "function"
    },
    {
      "inputs": [],
      "name": "proxiableUUID",
      "outputs": [
        {
          "internalType": "bytes32",
          "name": "",
          "type": "bytes32"
        }
      ],
      "stateMutability": "view",
      "type": "function"
    },
    {
      "inputs": [
        {
          "internalType": "address[]",
          "name": "submittedNodes",
          "type": "address[]"
        }
      ],
      "name": "quorumIsMet",
      "outputs": [
        {
          "internalType": "bool",
          "name": "isMet",
          "type": "bool"
        }
      ],
      "stateMutability": "view",
      "type": "function"
    },
    {
      "inputs": [],
      "name": "renounceOwnership",
      "outputs": [],
      "stateMutability": "nonpayable",
      "type": "function"
    },
    {
      "inputs": [
        {
          "internalType": "string",
          "name": "id",
          "type": "string"
        },
        {
          "internalType": "uint256",
          "name": "blockHeight",
          "type": "uint256"
        },
        {
          "internalType": "string[]",
          "name": "streams",
          "type": "string[]"
        },
        {
          "internalType": "uint256[]",
          "name": "writeCaptureAmounts",
          "type": "uint256[]"
        },
        {
          "internalType": "uint256[]",
          "name": "writeBytes",
          "type": "uint256[]"
        },
        {
          "internalType": "address[]",
          "name": "readConsumerAddresses",
          "type": "address[]"
        },
        {
          "internalType": "uint256[]",
          "name": "readCaptureAmounts",
          "type": "uint256[]"
        },
        {
          "internalType": "uint256[]",
          "name": "readBytes",
          "type": "uint256[]"
        },
        {
          "internalType": "address[]",
          "name": "nodes",
          "type": "address[]"
        },
        {
          "internalType": "int256[]",
          "name": "nodeChanges",
          "type": "int256[]"
        },
        {
          "internalType": "address[]",
          "name": "delegates",
          "type": "address[]"
        },
        {
          "internalType": "address[][]",
          "name": "delegateNodes",
          "type": "address[][]"
        },
        {
          "internalType": "int256[][]",
          "name": "delegateNodeChanges",
          "type": "int256[][]"
        },
        {
          "internalType": "int256",
          "name": "treasurySupplyChange",
          "type": "int256"
        },
        {
          "internalType": "address[]",
          "name": "addresses",
          "type": "address[]"
        },
        {
          "internalType": "uint256[]",
          "name": "proofTimestamps",
          "type": "uint256[]"
        },
        {
          "internalType": "bytes[]",
          "name": "signatures",
          "type": "bytes[]"
        }
      ],
      "name": "report",
      "outputs": [],
      "stateMutability": "nonpayable",
      "type": "function"
    },
    {
      "inputs": [],
      "name": "reportTimeBuffer",
      "outputs": [
        {
          "internalType": "uint256",
          "name": "",
          "type": "uint256"
        }
      ],
      "stateMutability": "view",
      "type": "function"
    },
    {
      "inputs": [
        {
          "internalType": "address",
          "name": "",
          "type": "address"
        }
      ],
      "name": "reputationOf",
      "outputs": [
        {
          "internalType": "uint256",
          "name": "",
          "type": "uint256"
        }
      ],
      "stateMutability": "view",
      "type": "function"
    },
    {
      "inputs": [
        {
          "internalType": "address",
          "name": "newOwner",
          "type": "address"
        }
      ],
      "name": "transferOwnership",
      "outputs": [],
      "stateMutability": "nonpayable",
      "type": "function"
    },
    {
      "inputs": [
        {
          "internalType": "address",
          "name": "newImplementation",
          "type": "address"
        }
      ],
      "name": "upgradeTo",
      "outputs": [],
      "stateMutability": "nonpayable",
      "type": "function"
    },
    {
      "inputs": [
        {
          "internalType": "address",
          "name": "newImplementation",
          "type": "address"
        },
        {
          "internalType": "bytes",
          "name": "data",
          "type": "bytes"
        }
      ],
      "name": "upgradeToAndCall",
      "outputs": [],
      "stateMutability": "payable",
      "type": "function"
    }
  ],
  "bytecode": "0x60a080604052346100315730608052613b46908161003782396080518181816107220152818161082f0152610b460152f35b600080fdfe610500604052600436101561001357600080fd5b60003560e01c80630e0a17131461289f57806312e63d711461266d5780631bfdc98a14610e6057806325cbbdff14610e0a57806331c74e0114610dec5780633659cfe614610b215780634f1ef286146107dd57806352d1902d1461070757806370f46202146106a2578063715018a6146106475780638da5cb5b14610620578063cd6dc6871461047b578063d91b99e81461045b578063db89c04414610421578063eefa7a3e14610218578063f2fde38b146101725763f6883c05146100d857600080fd5b3461016d57602036600319011261016d5760043567ffffffffffffffff811161016d57602061010d60079236906004016129cb565b9190610117612d5a565b826040519384928337810160fe81520301902001740100000000000000000000000000000000000000007fffffffffffffffffffffff00ffffffffffffffffffffffffffffffffffffffff825416179055600080f35b600080fd5b3461016d57602036600319011261016d5761018b612c93565b610193612d5a565b6001600160a01b038116156101ad576101ab90612db2565b005b60405162461bcd60e51b815260206004820152602660248201527f4f776e61626c653a206e6577206f776e657220697320746865207a65726f206160448201527f64647265737300000000000000000000000000000000000000000000000000006064820152608490fd5b3461016d57600036600319011261016d57610231613042565b5061023a6131dc565b604051610246816128ee565b61024f826130c0565b815260018083015490602091828401526002918285015460408501526003808601805461027b81612965565b916102896040519384612943565b81835260009081528481208685878087015b8686106103e7575050505050505060608601526102ba60048701613166565b60808601526005860180546102ce81612965565b916102dc6040519384612943565b81835260009081528481208688878087015b8686106103ad575050505050505060a08601526006860180549261031184612965565b9561031f6040519788612943565b8487526000928352818320908288015b8685106103715760c08a0189905260078b01546001600160a01b03811660e08c015260a01c60ff1615156101008b01526040518061036d8c82612a89565b0390f35b858489926040516103818161290b565b6001600160a01b038754168152848701548382015285870154604082015281520193019401939161032f565b6040516103b981612927565b6001600160a01b0386541681526103d1858701613166565b83820152815201920192019190888789926102ee565b6040516103f38161290b565b6103fc866130c0565b815284860154838201528c86015460408201528152019201920191908587899261029b565b3461016d57602036600319011261016d576001600160a01b03610442612c93565b1660005260fc6020526020604060002054604051908152f35b3461016d57600036600319011261016d5760206040516402540be4008152f35b3461016d57604036600319011261016d57610494612c93565b6000549060ff808360081c161592838094610614575b80156105fe575b156105935760ff19811660011760005583610581575b506104e18160005460081c166104dc81612fd0565b612fd0565b6104ea33612db2565b6105078160005460081c166104fe81612fd0565b6104dc81612fd0565b600160c9556001600160a01b03821690816001600160a01b031982541617905560243560fb55610535612d5a565b156101ad5761054390612db2565b61054957005b61ff0019600054166000557f7f26b83ff96e1f2b6a682f133852f6798a09c465da95921460cefb3847402498602060405160018152a1005b61ffff191661010117600055836104c7565b60405162461bcd60e51b815260206004820152602e60248201527f496e697469616c697a61626c653a20636f6e747261637420697320616c72656160448201527f647920696e697469616c697a65640000000000000000000000000000000000006064820152608490fd5b50303b1580156104b157506001828216146104b1565b506001828216106104aa565b3461016d57600036600319011261016d5760206001600160a01b0360975416604051908152f35b3461016d57600036600319011261016d57610660612d5a565b60006001600160a01b036097546001600160a01b03198116609755167f8be0079c531659141344cd1fd0a4f28419497f9722a3daafe3b4186f6b6457e08280a3005b3461016d57600036600319011261016d576106bb613362565b604051809160208083018184528251809152816040850193019160005b8281106106e757505050500390f35b83516001600160a01b0316855286955093810193928101926001016106d8565b3461016d57600036600319011261016d576001600160a01b037f00000000000000000000000000000000000000000000000000000000000000001630036107725760206040517f360894a13ba1a3210667c828492db98dca3e2076cc3735a920a3ca505d382bbc8152f35b60405162461bcd60e51b815260206004820152603860248201527f555550535570677261646561626c653a206d757374206e6f742062652063616c60448201527f6c6564207468726f7567682064656c656761746563616c6c00000000000000006064820152608490fd5b604036600319011261016d576107f1612c93565b60243567ffffffffffffffff811161016d573660238201121561016d57610822903690602481600401359101612d23565b906001600160a01b0391827f0000000000000000000000000000000000000000000000000000000000000000169261085c84301415612dfa565b61088b7f360894a13ba1a3210667c828492db98dca3e2076cc3735a920a3ca505d382bbc948286541614612e6c565b610893612d5a565b7f4910fdfa16fed3260ed0e7147f7cc6da11a60208b5b9406d12a635614ffd91435460ff16156108c95750506101ab9150612ede565b82919216604051936352d1902d60e01b85526020948581600481865afa60009181610af2575b506109505760405162461bcd60e51b815260048101879052602e60248201527f45524331393637557067726164653a206e657720696d706c656d656e7461746960448201526d6f6e206973206e6f74205555505360901b6064820152608490fd5b03610a9b5761095e82612ede565b604051907fbc7cd75a20ee27fd9adebab32041f755214dbc6bffa90cc0225b39da2e5c2d3b600080a2825115801590610a93575b61099857005b813b15610a4257506000828192856101ab9695519201905af43d15610a3a573d906109c282612d07565b916109d06040519384612943565b82523d60008484013e5b7f416464726573733a206c6f772d6c6576656c2064656c65676174652063616c6c60405193610a088561290b565b602785528401527f206661696c6564000000000000000000000000000000000000000000000000006040840152612f8c565b6060906109da565b62461bcd60e51b815260048101849052602660248201527f416464726573733a2064656c65676174652063616c6c20746f206e6f6e2d636f6044820152651b9d1c9858dd60d21b6064820152608490fd5b506001610992565b60405162461bcd60e51b815260048101859052602960248201527f45524331393637557067726164653a20756e737570706f727465642070726f786044820152681a58589b195555525160ba1b6064820152608490fd5b9091508681813d8311610b1a575b610b0a8183612943565b8101031261016d575190876108ef565b503d610b00565b3461016d5760208060031936011261016d57610b3b612c93565b6001600160a01b03807f000000000000000000000000000000000000000000000000000000000000000016610b7281301415612dfa565b610ba17f360894a13ba1a3210667c828492db98dca3e2076cc3735a920a3ca505d382bbc918383541614612e6c565b610ba9612d5a565b604051908482019282841067ffffffffffffffff851117610dd657836040526000835260ff7f4910fdfa16fed3260ed0e7147f7cc6da11a60208b5b9406d12a635614ffd91435416600014610c0657505050506101ab9150612ede565b8416906040516352d1902d60e01b81528681600481865afa60009181610da7575b50610c885760405162461bcd60e51b815260048101889052602e60248201527f45524331393637557067726164653a206e657720696d706c656d656e7461746960448201526d6f6e206973206e6f74205555505360901b6064820152608490fd5b03610d5057610c9684612ede565b604051907fbc7cd75a20ee27fd9adebab32041f755214dbc6bffa90cc0225b39da2e5c2d3b600080a2815115801590610d48575b610cd057005b833b15610cf757506101ab9392600092839251915af43d15610a3a573d906109c282612d07565b62461bcd60e51b815260048101859052602660248201527f416464726573733a2064656c65676174652063616c6c20746f206e6f6e2d636f6044820152651b9d1c9858dd60d21b6064820152608490fd5b506000610cca565b60405162461bcd60e51b815260048101869052602960248201527f45524331393637557067726164653a20756e737570706f727465642070726f786044820152681a58589b195555525160ba1b6064820152608490fd5b9091508781813d8311610dcf575b610dbf8183612943565b8101031261016d57519088610c27565b503d610db5565b634e487b7160e01b600052604160045260246000fd5b3461016d57600036600319011261016d57602060fb54604051908152f35b3461016d57602036600319011261016d5760043567ffffffffffffffff811161016d573660238201121561016d57610e56610e516020923690602481600401359101612ca9565b6136d4565b6040519015158152f35b3461016d5761022036600319011261016d5760043567ffffffffffffffff811161016d57610e929036906004016129cb565b610460526102405260443567ffffffffffffffff811161016d57610eba903690600401612c62565b6101c05260643567ffffffffffffffff811161016d57610ede903690600401612c62565b6102c0526101a05260843567ffffffffffffffff811161016d57610f06903690600401612c62565b6103c0526102005260a43567ffffffffffffffff811161016d57610f2e903690600401612c62565b6101e0529060c43567ffffffffffffffff811161016d57610f53903690600401612c62565b929067ffffffffffffffff60e4351161016d57610f753660e435600401612c62565b610100529167ffffffffffffffff610104351161016d57610f9c3661010435600401612c62565b610480526101405267ffffffffffffffff610124351161016d57610fc63661012435600401612c62565b92906102205267ffffffffffffffff610144351161016d57610fee3661014435600401612c62565b610160526103605267ffffffffffffffff610164351161016d576110183661016435600401612c62565b6102a0526104a05267ffffffffffffffff610184351161016d576110423661018435600401612c62565b6103005260c05267ffffffffffffffff6101c4351161016d5761106b366101c435600401612c62565b610120526103205267ffffffffffffffff6101e4351161016d57611095366101e435600401612c62565b6104e0526102e05267ffffffffffffffff610204351161016d576110bf3661020435600401612c62565b60a05261038052602460206001600160a01b0360ff541660405192838092630c2effa360e31b82523360048301525afa9081156124765760009161264e575b50156126095760ff60076040516104605161024051823760208161046051810160fe815203019020015460a01c166125c457436024351115806125ae575b15612569576101205180600381020460031481151715611d16576111709061116b60a051916104e0519061332b565b61332b565b600361012051020361252457611190610e51366101205161032051612ca9565b156124df576060610280526111bc6111aa6101c051612965565b806103e052604051806103a052612943565b6101c0516103a05152601f196111d46101c051612965565b0160006104c0525b806104c0511015611224576040516111f38161290b565b610280518152600060208201526000604082015260206104c0516103a05101015260206104c051016104c0526111dc565b5060006080525b6101c05160805190808210156113635761124b6040926112cf92896134fe565b92906112696112636080516102c0516101a051613540565b356138b2565b602061127e6080516103c05161020051613540565b35916112ba8551978895816102805161129f8151809289808d0191016129f9565b880191868301370191838301600081528151948592016129f9565b01906020820152036020810184520182612943565b610280526112e36080516101c051876134fe565b906112f76080516102c0516101a051613540565b3561132461130e6080516103c05161020051613540565b35926040519461131d8661290b565b3691612d23565b83526020830152604082015261133f6080516103a051613338565b5261134f6080516103a051613338565b5061135b60805161330f565b60805261122b565b505083866113886113766101e051612965565b80610340526040518061018052612943565b6101e0516101805152601f196113a06101e051612965565b0160005b8181106124b057505060005b6101e05190818110156114d0576113d36113ce826114cb9489613540565b613550565b61145760546113e661126385888b613540565b6113f485610100518a613540565b35936040519485916102805161141381518092602080880191016129f9565b8301906bffffffffffffffffffffffff199060601b16602082015283519061144482603496602088850191016129f9565b0190838201520390810184520182612943565b6102805261146c6113ce826101e05189613540565b611477828588613540565b35611486836101005188613540565b35906001600160a01b036040519361149d8561290b565b168352602083015260408201526114b78261018051613338565b526114c58161018051613338565b5061330f565b6113b0565b866114dd61048051613564565b60e05260005b6104805190818110156115a5576115046113ce826115a09461014051613540565b61154361151e611518848761022051613540565b35613a4d565b9161153560405193849261028051602085016135c5565b03601f198101835282612943565b6102805261155b6113ce826104805161014051613540565b611569828561022051613540565b356001600160a01b036040519261157f84612927565b16825260208201526115938260e051613338565b526114c58160e051613338565b6114e3565b6115c66115b461016051612965565b80610400526040518061026052612943565b610160516102605152601f196115de61016051612965565b0160005b818110612488576000610420525b6101605161042051908110156117f55761161d6116166060926102a0516104a05161360b565b9050613564565b610440526000905b611639610420516102a0516104a05161360b565b9050821015611709576117039061169761166a6113ce85611664610420516102a0516104a05161360b565b90613540565b9161153561168861151887611664610420516103005160c05161360b565b604051948593602085016135c5565b916116b36113ce82611664610420516102a0516104a05161360b565b6116ca82611664610420516103005160c05161360b565b356001600160a01b03604051926116e084612927565b16825260208201526116f58261044051613338565b526114c58161044051613338565b90611625565b90506117826117256113ce610420516101605161036051613540565b9160405180936102805161174281518092602080870191016129f9565b8201906bffffffffffffffffffffffff199060601b16602082015282519061177382603495602087850191016129f9565b01036014810184520182612943565b6102805261179d6113ce610420516101605161036051613540565b6001600160a01b03604051916117b283612927565b1681526104405160208201526117ce6104205161026051613338565b526117df6104205161026051613338565b506117ec6104205161330f565b610420526115f0565b600160005b61012051811015612482576118116101a435613a4d565b611822826104e0516102e051613540565b3561188d60606040518093602082019561046051610240518837610460518301602435602082015261028051906118638251809360206040850191016129f9565b016118788251809360206040850191016129f9565b01906040820152036040810184520182612943565b51902060206001600160a01b0360846118b06113ce866101205161032051613540565b6118c08660a051610380516134fe565b809160405197889687956301a86b5560e41b8752166004860152602485015260606044850152816064850152848401376000828201840152601f01601f1916810103018173__$267c3dc7aa7d3fe2e28bda43a2ca27cd27$__5af4801561247657600191600091612447575b501515036119425761193d9061330f565b6117fa565b505060005b1561240257611954613362565b61196d611968366104e0516102e05161297d565b613842565b60005b82518110156123fb57336001600160a01b0361198c8386613338565b5116146119a15761199c9061330f565b611970565b906103e890814202914283041442151715611d16576509184e72a0004202926402540be40092808504841490151715611d165760fb5490818102918183041490151715611d1657828102928184041490151715611d1657611a019161332b565b10156123b6575b60405190611a15826128ee565b611a826020611a2b366104605161024051612d23565b808552602435828601526101a43560408601526103a051606086015260e05160808601526102605160a08601526101805160c08601523360e0860152600061010086015281604051938285809451938492016129f9565b810160fe81520301902091805192835167ffffffffffffffff8111610dd657611aab8254613086565b601f8111612384575b506020601f821160011461231b578192939495600092612310575b50508160011b916000199060031b1c19161781555b60208201516001820155604082015160028201556060820151805190680100000000000000008211610dd6576003830154826003850155808310612265575b50602001906003830160005260206000206000925b8284106121305750505050600481016080830151906020825192611b5c8484613667565b019060005260206000206000915b8383106120fa575050505060a0820151805190680100000000000000008211610dd6576005830154826005850155808310612052575b506020016005830160005260206000206000915b838310611fba575050505060c0820151805190680100000000000000008211610dd6576006830154826006850155808310611f61575b506020016006830160005260206000206000915b838310611f21578686600787016001600160a01b0360e0830151168154907fffffffffffffffffffffff00000000000000000000000000000000000000000074ff0000000000000000000000000000000000000000610100860151151560a01b16921617179055805191825167ffffffffffffffff8111610dd657611c8460fd54613086565b601f8111611ec7575b506020601f8211600114611e435781929394600092611e38575b50508160011b916000199060031b1c19161760fd555b6000805b8251821015611df9576001600160a01b03611cdc8385613338565b51163314600014611d2c57503360005260fc6020526040600020805490600a8201809211611d165755611d1060019161330f565b90611cc1565b634e487b7160e01b600052601160045260246000fd5b9081611dc057806001600160a01b03611d48611d109386613338565b511660005260fc8060205260056040600020541015600014611d99576005905b6001600160a01b03611d7a8488613338565b5116600052602052611d92604060002091825461331e565b905561330f565b6001600160a01b03611dab8387613338565b51166000528060205260406000205490611d68565b6001600160a01b03611dd28285613338565b511660005260fc602052604060002090815460018101809111611d1657611d10925561330f565b7fc53a4e1db72f8c6fde77b85b4cc21a59f9896e9d7285f890075356dbd528d1cd611e338551604051918291602083526020830190612a1c565b0390a1005b015190508480611ca7565b601f1982169060fd6000527f9346ac6dd7de6b96975fec380d4d994c4c12e6a8897544f22915316cc6cca2809160005b818110611eaf57509583600195969710611e96575b505050811b0160fd55611cbd565b015160001960f88460031b161c19169055848080611e88565b9192602060018192868b015181550194019201611e73565b611f119060fd6000527f9346ac6dd7de6b96975fec380d4d994c4c12e6a8897544f22915316cc6cca280601f840160051c81019160208510611f17575b601f0160051c0190613650565b84611c8d565b9091508190611f04565b60036020826040600194516001600160a01b038151166001600160a01b031988541617875583810151868801550151600286015501920192019190611bfe565b6003818102048103611d16576003838102048303611d16576006840160005260206000208360030281015b8260030282018110611f9f575050611bea565b80600060039255600060018201556000600282015501611f8c565b80516001600160a01b038151166001600160a01b0319845416178355602060018401910151906020825192611fef8484613667565b01906000526020600020906000905b83821061201c57505050506002602060019201920192019190611bb4565b600260208281600194516001600160a01b038151166001600160a01b031989541617885501518487015501930191019091611ffe565b6001600160ff1b0381168103611d16576001600160ff1b0383168303611d16576005840160005260206000208360011b81015b8260011b82018110612098575050611ba0565b60008155600181015460006001830155806120b7575b50600201612085565b6001600160ff1b0381168103611d16576001820160005260206000209060011b8101905b8181106120e857506120ae565b600080825560018201556002016120db565b600260208281600194516001600160a01b038151166001600160a01b031988541617875501518486015501920192019190611b6a565b8051805180519067ffffffffffffffff8211610dd6576121508554613086565b601f8111612228575b50602090601f83116001146121b65760039383602094600197946040946000926121ab575b505060001982881b1c191690871b1787555b83810151868801550151600286015501920193019290611b38565b015190508e8061217e565b908560005260206000209160005b601f1985168110612210575093600184819794604094600398602098601f198116106121f8575b505050811b018755612190565b0151600019838a1b60f8161c191690558e80806121eb565b919260206001819286850151815501940192016121c4565b612255908660005260206000206005601f8601811c8201926020871061225b575b601f01901c0190613650565b8a612159565b9192508291612249565b6003818102048103611d16576003838102048303611d16576003840160005260206000208360030281015b82600302820181106122a3575050611b23565b806122b060039254613086565b806122cb575b50600060018201556000600282015501612290565b601f81116001146122e25750600081555b896122b6565b61230190826000526001601f6020600020920160051c82019101613650565b600060208120818355556122dc565b015190508580611acf565b8260005260206000209060005b601f198416811061236c575060019394959683601f19811610612353575b505050811b018155611ae4565b015160001960f88460031b161c19169055858080612346565b9091602060018192858b015181550193019101612328565b6123b090836000526020600020601f840160051c81019160208510611f1757601f0160051c0190613650565b85611ab4565b60405162461bcd60e51b815260206004820152601560248201527f6572726f725f696e76616c69645265706f7274657200000000000000000000006044820152606490fd5b5050611a08565b60405162461bcd60e51b815260206004820152601d60248201527f6572726f725f696e76616c69645265706f72745369676e6174757265730000006044820152606490fd5b612469915060203d60201161246f575b6124618183612943565b8101906134e6565b8461192c565b503d612457565b6040513d6000823e3d90fd5b50611947565b60209060405161249781612927565b60008152606083820152828261026051010152016115e2565b6020906040516124bf8161290b565b6000815260008382015260006040820152828261018051010152016113a4565b60405162461bcd60e51b815260206004820152601260248201527f6572726f725f71756f72756d4e6f744d657400000000000000000000000000006044820152606490fd5b60405162461bcd60e51b815260206004820152601360248201527f6572726f725f696e76616c696450726f6f6673000000000000000000000000006044820152606490fd5b60405162461bcd60e51b815260206004820152601360248201527f6572726f725f696e76616c69645265706f7274000000000000000000000000006044820152606490fd5b5060016125b96131dc565b01546024351161113c565b60405162461bcd60e51b815260206004820152601c60248201527f6572726f725f7265706f7274416c726561647950726f636573736564000000006044820152606490fd5b60405162461bcd60e51b815260206004820152601360248201527f6572726f725f7374616b655265717569726564000000000000000000000000006044820152606490fd5b612667915060203d60201161246f576124618183612943565b876110fe565b3461016d5760208060031936011261016d5760043567ffffffffffffffff811161016d576126a0829136906004016129cb565b91906126aa613042565b50826040519384928337810160fe81520301902090604051906126cc826128ee565b6126d5836130c0565b825260018084015482840152600291828501546040850152600380860180546126fd81612965565b9161270b6040519384612943565b81835260009081528481208685878087015b8686106128655750505050505050606086015261273c60048701613166565b608086015260058601805461275081612965565b9161275e6040519384612943565b81835260009081528481208688878087015b86861061282b575050505050505060a08601526006860180549261279384612965565b956127a16040519788612943565b8487526000928352818320908288015b8685106127ef5760c08a0189905260078b01546001600160a01b03811660e08c015260a01c60ff1615156101008b01526040518061036d8c82612a89565b858489926040516127ff8161290b565b6001600160a01b03875416815284870154838201528587015460408201528152019301940193916127b1565b60405161283781612927565b6001600160a01b03865416815261284f858701613166565b8382015281520192019201919088878992612770565b6040516128718161290b565b61287a866130c0565b815284860154838201528c86015460408201528152019201920191908587899261271d565b3461016d57602036600319011261016d5760043567ffffffffffffffff811161016d573660238201121561016d576128e6611968602092369060248160040135910161297d565b604051908152f35b610120810190811067ffffffffffffffff821117610dd657604052565b6060810190811067ffffffffffffffff821117610dd657604052565b6040810190811067ffffffffffffffff821117610dd657604052565b90601f8019910116810190811067ffffffffffffffff821117610dd657604052565b67ffffffffffffffff8111610dd65760051b60200190565b929161298882612965565b916129966040519384612943565b829481845260208094019160051b810192831161016d57905b8282106129bc5750505050565b813581529083019083016129af565b9181601f8401121561016d5782359167ffffffffffffffff831161016d576020838186019501011161016d57565b60005b838110612a0c5750506000910152565b81810151838201526020016129fc565b90602091612a35815180928185528580860191016129f9565b601f01601f1916010190565b90815180825260208080930193019160005b828110612a61575050505090565b835180516001600160a01b031686528201518583015260409094019392810192600101612a53565b602091828252805190612aa9610120928386860152610140850190612a1c565b93808201516040908186015280830151916060928387015282840151601f19978888820301608089015281518082528382019184808360051b8301019401926000915b888d858510612c175750505050505050612b14906080860151898983030160a08a0152612a41565b9160a085015192888882030160c089015283518082528382019184808360051b8301019601926000915b8c848410612bca5750505050505060c0850151978784030160e08801528180895194858152019801936000915b848310612b99575050505050506001600160a01b0360e0820151169061010091828501520151151591015290565b855180516001600160a01b03168b52808501518b8601528101518a8201529881019894830194600190920191612b6b565b9680612c038a89838a9e9b9c9a8798999a9b829f9860019903018a52516001600160a01b03815116845201519181858201520190612a41565b9a0193019301919392909796959497612b3e565b9780999891888293856001969798999a9b030187528a80612c428c5194855190808652850190612a1c565b938581015186850152015191015297019301930191939290969596612aec565b9181601f8401121561016d5782359167ffffffffffffffff831161016d576020808501948460051b01011161016d57565b600435906001600160a01b038216820361016d57565b9291612cb482612965565b91612cc26040519384612943565b829481845260208094019160051b810192831161016d57905b828210612ce85750505050565b81356001600160a01b038116810361016d578152908301908301612cdb565b67ffffffffffffffff8111610dd657601f01601f191660200190565b929192612d2f82612d07565b91612d3d6040519384612943565b82948184528183011161016d578281602093846000960137010152565b6001600160a01b03609754163303612d6e57565b606460405162461bcd60e51b815260206004820152602060248201527f4f776e61626c653a2063616c6c6572206973206e6f7420746865206f776e65726044820152fd5b609754906001600160a01b0380911691826001600160a01b0319821617609755167f8be0079c531659141344cd1fd0a4f28419497f9722a3daafe3b4186f6b6457e0600080a3565b15612e0157565b60405162461bcd60e51b815260206004820152602c60248201527f46756e6374696f6e206d7573742062652063616c6c6564207468726f7567682060448201527f64656c656761746563616c6c00000000000000000000000000000000000000006064820152608490fd5b15612e7357565b60405162461bcd60e51b815260206004820152602c60248201527f46756e6374696f6e206d7573742062652063616c6c6564207468726f7567682060448201527f6163746976652070726f787900000000000000000000000000000000000000006064820152608490fd5b803b15612f21576001600160a01b037f360894a13ba1a3210667c828492db98dca3e2076cc3735a920a3ca505d382bbc91166001600160a01b0319825416179055565b60405162461bcd60e51b815260206004820152602d60248201527f455243313936373a206e657720696d706c656d656e746174696f6e206973206e60448201527f6f74206120636f6e7472616374000000000000000000000000000000000000006064820152608490fd5b90919015612f98575090565b815115612fa85750805190602001fd5b60405162461bcd60e51b815260206004820152908190612fcc906024830190612a1c565b0390fd5b15612fd757565b60405162461bcd60e51b815260206004820152602b60248201527f496e697469616c697a61626c653a20636f6e7472616374206973206e6f74206960448201527f6e697469616c697a696e670000000000000000000000000000000000000000006064820152608490fd5b6040519061304f826128ee565b600061010083606080825283602083015283604083015280808301528060808301528060a083015260c08201528260e08201520152565b90600182811c921680156130b6575b60208310146130a057565b634e487b7160e01b600052602260045260246000fd5b91607f1691613095565b90604051918260008254926130d484613086565b9081845260019485811690816000146131435750600114613100575b50506130fe92500383612943565b565b9093915060005260209081600020936000915b81831061312b5750506130fe935082010138806130f0565b85548884018501529485019487945091830191613113565b9150506130fe94506020925060ff191682840152151560051b82010138806130f0565b90815461317281612965565b9260409361318285519182612943565b828152809460208092019260005281600020906000935b8585106131a857505050505050565b60028460019284516131b981612927565b6001600160a01b0387541681528487015483820152815201930194019391613199565b60405160fd548160006131ee83613086565b9260019081811690811561326b5750600114613215575b506020925060fe81520301902090565b60fd600090815291507f9346ac6dd7de6b96975fec380d4d994c4c12e6a8897544f22915316cc6cca2805b84831061325557505050602091810138613205565b8054868401528593506020909201918101613240565b60ff19168452506020938015150283019150389050613205565b602090818184031261016d5780519067ffffffffffffffff821161016d57019180601f8401121561016d5782516132bb81612965565b936132c96040519586612943565b818552838086019260051b82010192831161016d578301905b8282106132f0575050505090565b81516001600160a01b038116810361016d5781529083019083016132e2565b6000198114611d165760010190565b91908203918211611d1657565b91908201809211611d1657565b805182101561334c5760209160051b010190565b634e487b7160e01b600052603260045260246000fd5b6001600160a01b03908160ff54169160408051808095636085a91160e11b8252600091829160049889915afa9182156134da5781926134b6575b50818251958291600019918289019189831191825b6134a3578386101561349557865b6133c9878d61331e565b8681019081116134675781101561347b5760018101808211613467579089828d8b8e826133f961342a9887613338565b5116825260fc60208181528284205493856134148a8a613338565b51169052528d20541061342f575b50505061330f565b6133bf565b8061344a85613453936134428688613338565b511695613338565b5116918d613338565b5261345e828c613338565b5289388d613422565b50634e487b7160e01b885260118d52602488fd5b50919461348a9093919361330f565b9491829391936133b1565b995099505050505050505050565b634e487b7160e01b875260118c52602487fd5b6134d39192503d8084833e6134cb8183612943565b810190613285565b903861339c565b508251903d90823e3d90fd5b9081602091031261016d5751801515810361016d5790565b919081101561334c5760051b81013590601e198136030182121561016d57019081359167ffffffffffffffff831161016d57602001823603811361016d579190565b919081101561334c5760051b0190565b356001600160a01b038116810361016d5790565b9061356e82612965565b60409061357d82519182612943565b838152809361358e601f1991612965565b0191600090815b8481106135a3575050505050565b60209082516135b181612927565b848152828581830152828701015201613595565b6020906135dc6014959493828151948592016129f9565b01906bffffffffffffffffffffffff199060601b16815261360682518093602086850191016129f9565b010190565b919081101561334c5760051b81013590601e198136030182121561016d57019081359167ffffffffffffffff831161016d576020018260051b3603811361016d579190565b81811061365b575050565b60008155600101613650565b680100000000000000008211610dd657805482825580831061368857505050565b6001600160ff1b038082168203611d165783168303611d1657600091825260208220600191821b810193821b015b8381106136c35750505050565b8083600292558383820155016136b6565b90600091600090816001600160a01b0392818460ff541660405193848092636085a91160e11b825260049384915afa93841561383757829461381b575b508351946402540be40090818702968088048314901517156138085760019998978a97881c96859b5b61374d575b505050505050505050909150565b80518c1015613803578886838e835b61379c575b505050508787101561378157613779899a9b9c61330f565b9b9a9961373a565b5050505050505050915091508138808080808080808061373f565b86518310156137fe576137af9085613338565b5116846137bc8388613338565b5116146137d4576137cc9061330f565b838e8361375c565b5050958381018091116137eb57958838838e613761565b634e487b7160e01b865260118552602486fd5b613761565b61373f565b634e487b7160e01b845260118352602484fd5b6138309194503d8084833e6134cb8183612943565b9238613711565b6040513d84823e3d90fd5b90600091825b815184101561388d5761385b8483613338565b51906402540be40091828102928184041490151715611d1657613887916138819161332b565b9361330f565b92613848565b9192505190811561389c570490565b634e487b7160e01b600052601260045260246000fd5b806000908260801c80613a41575b508060401c80613a34575b5060209181831c80613a29575b5060109180831c80613a1c575b5060081c613a14575b6001809101939184821b946001600160ff1b03811603611d16576002850194858111611d165761393661392087612d07565b9661392e6040519889612943565b808852612d07565b86860190601f190136823786511561334c5760309053855183101561334c5760786021870153828101809111611d165791905b8183116139be5750505061397b575090565b6064906040519062461bcd60e51b825280600483015260248201527f537472696e67733a20686578206c656e67746820696e73756666696369656e746044820152fd5b909192600f81168281101561334c57865185101561334c577f3031323334353637383961626364656600000000000000000000000000000000901a85858801015360041c928015611d1657600019019190613969565b6001016138ee565b60029150910190386138e5565b9150600401386138d8565b60089150910190386138cb565b915050601090386138c0565b600080821291908215613acb57613a89613ac292602092604051613a7081612927565b60018152602d60f81b85820152955b613ac557506138b2565b926040519381613aa286935180928680870191016129f9565b8201613ab6825180938680850191016129f9565b01038084520182612943565b90565b036138b2565b6040516020810181811067ffffffffffffffff821117613afc5760405281815292613ac292602092613a8992613a7f565b634e487b7160e01b83526041600452602483fdfea2646970667358221220acd79973f75f21ea1b18565740235e457dce8f87d0e3404910dcbde61ccf814064736f6c63430008110033",
  "linkReferences": {
    "src/lib/VerifySignature.sol": {
      "VerifySignature": [
        {
          "length": 20,
          "start": 6461
        }
      ]
    }
  },
  "deployedLinkReferences": {
    "src/lib/VerifySignature.sol": {
      "VerifySignature": [
        {
          "length": 20,
          "start": 6406
        }
      ]
    }
  }
}