{
  "_format": "hh-sol-artifact-1",
  "contractName": "LogStoreReportManager",
  "sourceName": "src/ReportManager.sol",
  "abi": [
    {
      "anonymous": false,
      "inputs": [
        {
          "indexed": false,
          "internalType": "address",
          "name": "previousAdmin",
          "type": "address"
        },
        {
          "indexed": false,
          "internalType": "address",
          "name": "newAdmin",
          "type": "address"
        }
      ],
      "name": "AdminChanged",
      "type": "event"
    },
    {
      "anonymous": false,
      "inputs": [
        {
          "indexed": true,
          "internalType": "address",
          "name": "beacon",
          "type": "address"
        }
      ],
      "name": "BeaconUpgraded",
      "type": "event"
    },
    {
      "anonymous": false,
      "inputs": [
        {
          "indexed": false,
          "internalType": "uint8",
          "name": "version",
          "type": "uint8"
        }
      ],
      "name": "Initialized",
      "type": "event"
    },
    {
      "anonymous": false,
      "inputs": [
        {
          "indexed": false,
          "internalType": "bool",
          "name": "isMet",
          "type": "bool"
        }
      ],
      "name": "Logger",
      "type": "event"
    },
    {
      "anonymous": false,
      "inputs": [
        {
          "indexed": true,
          "internalType": "address",
          "name": "previousOwner",
          "type": "address"
        },
        {
          "indexed": true,
          "internalType": "address",
          "name": "newOwner",
          "type": "address"
        }
      ],
      "name": "OwnershipTransferred",
      "type": "event"
    },
    {
      "anonymous": false,
      "inputs": [
        {
          "indexed": false,
          "internalType": "string",
          "name": "raw",
          "type": "string"
        }
      ],
      "name": "ReportAccepted",
      "type": "event"
    },
    {
      "anonymous": false,
      "inputs": [
        {
          "indexed": true,
          "internalType": "address",
          "name": "implementation",
          "type": "address"
        }
      ],
      "name": "Upgraded",
      "type": "event"
    },
    {
      "inputs": [],
      "name": "getLastReport",
      "outputs": [
        {
          "components": [
            {
              "internalType": "string",
              "name": "id",
              "type": "string"
            },
            {
              "internalType": "uint256",
              "name": "height",
              "type": "uint256"
            },
            {
              "internalType": "int256",
              "name": "treasury",
              "type": "int256"
            },
            {
              "components": [
                {
                  "internalType": "string",
                  "name": "id",
                  "type": "string"
                },
                {
                  "internalType": "uint256",
                  "name": "writeCapture",
                  "type": "uint256"
                },
                {
                  "internalType": "uint256",
                  "name": "writeBytes",
                  "type": "uint256"
                }
              ],
              "internalType": "struct LogStoreReportManager.Stream[]",
              "name": "streams",
              "type": "tuple[]"
            },
            {
              "components": [
                {
                  "internalType": "address",
                  "name": "id",
                  "type": "address"
                },
                {
                  "internalType": "int256",
                  "name": "amount",
                  "type": "int256"
                }
              ],
              "internalType": "struct LogStoreReportManager.Node[]",
              "name": "nodes",
              "type": "tuple[]"
            },
            {
              "components": [
                {
                  "internalType": "address",
                  "name": "id",
                  "type": "address"
                },
                {
                  "components": [
                    {
                      "internalType": "address",
                      "name": "id",
                      "type": "address"
                    },
                    {
                      "internalType": "int256",
                      "name": "amount",
                      "type": "int256"
                    }
                  ],
                  "internalType": "struct LogStoreReportManager.Node[]",
                  "name": "nodes",
                  "type": "tuple[]"
                }
              ],
              "internalType": "struct LogStoreReportManager.Delegate[]",
              "name": "delegates",
              "type": "tuple[]"
            },
            {
              "components": [
                {
                  "internalType": "address",
                  "name": "id",
                  "type": "address"
                },
                {
                  "internalType": "uint256",
                  "name": "readCapture",
                  "type": "uint256"
                },
                {
                  "internalType": "uint256",
                  "name": "readBytes",
                  "type": "uint256"
                }
              ],
              "internalType": "struct LogStoreReportManager.Consumer[]",
              "name": "consumers",
              "type": "tuple[]"
            },
            {
              "internalType": "address",
              "name": "_reporter",
              "type": "address"
            },
            {
              "internalType": "bool",
              "name": "_processed",
              "type": "bool"
            }
          ],
          "internalType": "struct LogStoreReportManager.Report",
          "name": "",
          "type": "tuple"
        }
      ],
      "stateMutability": "view",
      "type": "function"
    },
    {
      "inputs": [
        {
          "internalType": "string",
          "name": "id",
          "type": "string"
        }
      ],
      "name": "getReport",
      "outputs": [
        {
          "components": [
            {
              "internalType": "string",
              "name": "id",
              "type": "string"
            },
            {
              "internalType": "uint256",
              "name": "height",
              "type": "uint256"
            },
            {
              "internalType": "int256",
              "name": "treasury",
              "type": "int256"
            },
            {
              "components": [
                {
                  "internalType": "string",
                  "name": "id",
                  "type": "string"
                },
                {
                  "internalType": "uint256",
                  "name": "writeCapture",
                  "type": "uint256"
                },
                {
                  "internalType": "uint256",
                  "name": "writeBytes",
                  "type": "uint256"
                }
              ],
              "internalType": "struct LogStoreReportManager.Stream[]",
              "name": "streams",
              "type": "tuple[]"
            },
            {
              "components": [
                {
                  "internalType": "address",
                  "name": "id",
                  "type": "address"
                },
                {
                  "internalType": "int256",
                  "name": "amount",
                  "type": "int256"
                }
              ],
              "internalType": "struct LogStoreReportManager.Node[]",
              "name": "nodes",
              "type": "tuple[]"
            },
            {
              "components": [
                {
                  "internalType": "address",
                  "name": "id",
                  "type": "address"
                },
                {
                  "components": [
                    {
                      "internalType": "address",
                      "name": "id",
                      "type": "address"
                    },
                    {
                      "internalType": "int256",
                      "name": "amount",
                      "type": "int256"
                    }
                  ],
                  "internalType": "struct LogStoreReportManager.Node[]",
                  "name": "nodes",
                  "type": "tuple[]"
                }
              ],
              "internalType": "struct LogStoreReportManager.Delegate[]",
              "name": "delegates",
              "type": "tuple[]"
            },
            {
              "components": [
                {
                  "internalType": "address",
                  "name": "id",
                  "type": "address"
                },
                {
                  "internalType": "uint256",
                  "name": "readCapture",
                  "type": "uint256"
                },
                {
                  "internalType": "uint256",
                  "name": "readBytes",
                  "type": "uint256"
                }
              ],
              "internalType": "struct LogStoreReportManager.Consumer[]",
              "name": "consumers",
              "type": "tuple[]"
            },
            {
              "internalType": "address",
              "name": "_reporter",
              "type": "address"
            },
            {
              "internalType": "bool",
              "name": "_processed",
              "type": "bool"
            }
          ],
          "internalType": "struct LogStoreReportManager.Report",
          "name": "",
          "type": "tuple"
        }
      ],
      "stateMutability": "view",
      "type": "function"
    },
    {
      "inputs": [],
      "name": "getReporters",
      "outputs": [
        {
          "internalType": "address[]",
          "name": "reporters",
          "type": "address[]"
        }
      ],
      "stateMutability": "view",
      "type": "function"
    },
    {
      "inputs": [
        {
          "internalType": "address",
          "name": "_owner",
          "type": "address"
        },
        {
          "internalType": "uint256",
          "name": "_reportBlockBuffer",
          "type": "uint256"
        }
      ],
      "name": "initialize",
      "outputs": [],
      "stateMutability": "nonpayable",
      "type": "function"
    },
    {
      "inputs": [],
      "name": "owner",
      "outputs": [
        {
          "internalType": "address",
          "name": "",
          "type": "address"
        }
      ],
      "stateMutability": "view",
      "type": "function"
    },
    {
      "inputs": [
        {
          "internalType": "string",
          "name": "id",
          "type": "string"
        }
      ],
      "name": "processReport",
      "outputs": [],
      "stateMutability": "nonpayable",
      "type": "function"
    },
    {
      "inputs": [],
      "name": "proxiableUUID",
      "outputs": [
        {
          "internalType": "bytes32",
          "name": "",
          "type": "bytes32"
        }
      ],
      "stateMutability": "view",
      "type": "function"
    },
    {
      "inputs": [
        {
          "internalType": "address[]",
          "name": "submittedNodes",
          "type": "address[]"
        }
      ],
      "name": "quorumIsMet",
      "outputs": [
        {
          "internalType": "bool",
          "name": "isMet",
          "type": "bool"
        }
      ],
      "stateMutability": "view",
      "type": "function"
    },
    {
      "inputs": [],
      "name": "renounceOwnership",
      "outputs": [],
      "stateMutability": "nonpayable",
      "type": "function"
    },
    {
      "inputs": [
        {
          "internalType": "string",
          "name": "id",
          "type": "string"
        },
        {
          "internalType": "uint256",
          "name": "blockHeight",
          "type": "uint256"
        },
        {
          "internalType": "string[]",
          "name": "streams",
          "type": "string[]"
        },
        {
          "internalType": "uint256[]",
          "name": "writeCaptureAmounts",
          "type": "uint256[]"
        },
        {
          "internalType": "uint256[]",
          "name": "writeBytes",
          "type": "uint256[]"
        },
        {
          "internalType": "address[]",
          "name": "readConsumerAddresses",
          "type": "address[]"
        },
        {
          "internalType": "uint256[]",
          "name": "readCaptureAmounts",
          "type": "uint256[]"
        },
        {
          "internalType": "uint256[]",
          "name": "readBytes",
          "type": "uint256[]"
        },
        {
          "internalType": "address[]",
          "name": "nodes",
          "type": "address[]"
        },
        {
          "internalType": "int256[]",
          "name": "nodeChanges",
          "type": "int256[]"
        },
        {
          "internalType": "address[]",
          "name": "delegates",
          "type": "address[]"
        },
        {
          "internalType": "address[][]",
          "name": "delegateNodes",
          "type": "address[][]"
        },
        {
          "internalType": "int256[][]",
          "name": "delegateNodeChanges",
          "type": "int256[][]"
        },
        {
          "internalType": "int256",
          "name": "treasurySupplyChange",
          "type": "int256"
        },
        {
          "internalType": "address[]",
          "name": "addresses",
          "type": "address[]"
        },
        {
          "internalType": "bytes[]",
          "name": "signatures",
          "type": "bytes[]"
        }
      ],
      "name": "report",
      "outputs": [],
      "stateMutability": "nonpayable",
      "type": "function"
    },
    {
      "inputs": [],
      "name": "reportBlockBuffer",
      "outputs": [
        {
          "internalType": "uint256",
          "name": "",
          "type": "uint256"
        }
      ],
      "stateMutability": "view",
      "type": "function"
    },
    {
      "inputs": [
        {
          "internalType": "address",
          "name": "newOwner",
          "type": "address"
        }
      ],
      "name": "transferOwnership",
      "outputs": [],
      "stateMutability": "nonpayable",
      "type": "function"
    },
    {
      "inputs": [
        {
          "internalType": "address",
          "name": "newImplementation",
          "type": "address"
        }
      ],
      "name": "upgradeTo",
      "outputs": [],
      "stateMutability": "nonpayable",
      "type": "function"
    },
    {
      "inputs": [
        {
          "internalType": "address",
          "name": "newImplementation",
          "type": "address"
        },
        {
          "internalType": "bytes",
          "name": "data",
          "type": "bytes"
        }
      ],
      "name": "upgradeToAndCall",
      "outputs": [],
      "stateMutability": "payable",
      "type": "function"
    }
  ],
  "bytecode": "0x60a080604052346100315730608052613c8f908161003782396080518181816120a2015281816121af01526124e40152f35b600080fdfe610500604052600436101561001357600080fd5b60003560e01c806312e63d71146127c557806325cbbdff146127745780633659cfe6146124bf57806348cf88af146124a15780634f1ef2861461215d57806352d1902d1461208757806370f4620214612022578063715018a614611fc75780638da5cb5b14611fa05780639f29124b146105a5578063cd6dc68714610400578063eefa7a3e146101f7578063f2fde38b146101515763f6883c05146100b757600080fd5b3461014c57602036600319011261014c5760043567ffffffffffffffff811161014c5760206100ec60079236906004016129f7565b91906100f6612e15565b826040519384928337810160fe81520301902001740100000000000000000000000000000000000000007fffffffffffffffffffffff00ffffffffffffffffffffffffffffffffffffffff825416179055600080f35b600080fd5b3461014c57602036600319011261014c5761016a612d1d565b610172612e15565b6001600160a01b0381161561018c5761018a90612e6d565b005b60405162461bcd60e51b815260206004820152602660248201527f4f776e61626c653a206e6577206f776e657220697320746865207a65726f206160448201527f64647265737300000000000000000000000000000000000000000000000000006064820152608490fd5b3461014c57600036600319011261014c576102106130fd565b50610219613297565b60405161022581612c8e565b61022e8261317b565b815260018083015490602091828401526002918285015460408501526003808601805461025a81612d05565b916102686040519384612ce3565b81835260009081528481208685878087015b8686106103c65750505050505050606086015261029960048701613221565b60808601526005860180546102ad81612d05565b916102bb6040519384612ce3565b81835260009081528481208688878087015b86861061038c575050505050505060a0860152600686018054926102f084612d05565b956102fe6040519788612ce3565b8487526000928352818320908288015b8685106103505760c08a0189905260078b01546001600160a01b03811660e08c015260a01c60ff1615156101008b01526040518061034c8c82612ab5565b0390f35b8584899260405161036081612cab565b6001600160a01b038754168152848701548382015285870154604082015281520193019401939161030e565b60405161039881612cc7565b6001600160a01b0386541681526103b0858701613221565b83820152815201920192019190888789926102cd565b6040516103d281612cab565b6103db8661317b565b815284860154838201528c86015460408201528152019201920191908587899261027a565b3461014c57604036600319011261014c57610419612d1d565b6000549060ff808360081c161592838094610599575b8015610583575b156105185760ff19811660011760005583610506575b506104668160005460081c166104618161308b565b61308b565b61046f33612e6d565b61048c8160005460081c166104838161308b565b6104618161308b565b600160c9556001600160a01b03821690816001600160a01b031982541617905560243560fb556104ba612e15565b1561018c576104c890612e6d565b6104ce57005b61ff0019600054166000557f7f26b83ff96e1f2b6a682f133852f6798a09c465da95921460cefb3847402498602060405160018152a1005b61ffff1916610101176000558361044c565b60405162461bcd60e51b815260206004820152602e60248201527f496e697469616c697a61626c653a20636f6e747261637420697320616c72656160448201527f647920696e697469616c697a65640000000000000000000000000000000000006064820152608490fd5b50303b1580156104365750600182821614610436565b5060018282161061042f565b3461014c5761020036600319011261014c5760043567ffffffffffffffff811161014c576105d79036906004016129f7565b610180526101405260443567ffffffffffffffff811161014c576105ff903690600401612de4565b610460526102c05260643567ffffffffffffffff811161014c57610627903690600401612de4565b60a0526103805260843567ffffffffffffffff811161014c5761064e903690600401612de4565b610340526101a05260a43567ffffffffffffffff811161014c57610676903690600401612de4565b9060c43567ffffffffffffffff811161014c57610697903690600401612de4565b610440529060e43567ffffffffffffffff811161014c576106bc903690600401612de4565b9390916101043567ffffffffffffffff811161014c576106e0903690600401612de4565b6101c0526102005267ffffffffffffffff610124351161014c5761070a3661012435600401612de4565b610360526101005267ffffffffffffffff610144351161014c576107343661014435600401612de4565b610300526102e05267ffffffffffffffff610164351161014c5761075e3661016435600401612de4565b6103a0526104e05267ffffffffffffffff610184351161014c576107883661018435600401612de4565b6101605260c05267ffffffffffffffff6101c4351161014c576107b1366101c435600401612de4565b6102205260e05267ffffffffffffffff6101e4351161014c576107da366101e435600401612de4565b6104c05261032052602460206001600160a01b0360ff541660405192838092630c2effa360e31b82523360048301525afa908115611c9957600091611f81575b5015611f3c5743602435111580611f26575b15611ee157610849610844366102205160e051612d33565b6137ef565b15611e9c57610856613403565b6104a0526000610420525b6104a05180516104205190811015611e95576108866001600160a01b039133936133d9565b5116146108a257610899610420516133ca565b61042052610861565b60fb54610420518082810204821481151715610be6576108d7916108d2908215611e8d57805b60243593026135aa565b6135aa565b431115611e48575b6108ea602435613921565b6109e7604e6108fb6101a435613a89565b92604051938491663d9134b2111d1160c91b6020840152610180516101405160278501377f222c22686569676874223a220000000000000000000000000000000000000000602761018051850101526109638151809260206033610180518801019101612a25565b7f222c227472656173757279223a220000000000000000000000000000000000006033826101805186010101526109ab82518093602060418561018051890101019101612a25565b61018051830101017f222c2273747265616d73223a5b00000000000000000000000000000000000000604182015203602e810184520182612ce3565b94610a096109f761046051612d05565b806101e0526040518061026052612ce3565b610460516102605152601f19610a2161046051612d05565b0160005b818110611e1957505060005b6104605180821015610bfc57603d610a5083610b31936102c0516135b7565b9990607d60f81b610a70610a6a8760a051610380516135f9565b35613921565b8c610a85610a6a89610340516101a0516135f9565b936040519e8f96610a9f815180926020808c019101612a25565b870191663d9134b2111d1160c91b60208401526027830137016b11161131b0b83a3ab932911d60a11b6027820152610ae1825180936020603385019101612a25565b017f2c226279746573223a00000000000000000000000000000000000000000000006033820152825190610b1e82603c9560208785019101612a25565b019182015203601d81018a520188612ce3565b866104605180600019810111610be657600019018203610bd0575b5080610b62610bcb92610460516102c0516135b7565b90610b738360a051610380516135f9565b35610b9e610b8885610340516101a0516135f9565b359260405194610b9786612cab565b3691612dad565b835260208301526040820152610bb782610260516133d9565b52610bc581610260516133d9565b506133ca565b610a31565b610bcb919750610bdf90613609565b9690610b4c565b634e487b7160e01b600052601160045260246000fd5b5050848487610c54602f60405183610c1e829551809260208086019101612a25565b81017f5d2c22636f6e73756d657273223a5b0000000000000000000000000000000000602082015203600f810184520182612ce3565b94610c73610c6182612d05565b8061024052604051806103c052612ce3565b806103c05152601f19610c8582612d05565b0160006102a0525b806102a0511015610cd357604051610ca481612cab565b60008152600060208201526000604082015260206102a0516103c05101015260206102a051016102a052610c8d565b5060005b818110611cd65786610d32602b60405183610cfc829551809260208086019101612a25565b81017f5d2c226e6f646573223a7b000000000000000000000000000000000000000000602082015203600b810184520182612ce3565b610d3e6101c051613655565b906000905b6101c05180831015610e235790610d71610d6c610d6785610d9195610200516135f9565b613641565b613b4c565b610d8b610d858561036051610100516135f9565b35613a89565b916136b6565b906101c05180600019810111610be657600019018103610e0e575b80610dc4610d67610e08936101c051610200516135f9565b610dd58261036051610100516135f9565b356001600160a01b0360405192610deb84612cc7565b1682526020820152610dfd82866133d9565b52610bc581856133d9565b90610d43565b90610e1b610e0891613609565b919050610dac565b8382610e78602f60405183610e42829551809260208086019101612a25565b81017f7d2c2264656c656761746573223a7b0000000000000000000000000000000000602082015203600f810184520182612ce3565b90610e9a610e8861030051612d05565b8061048052604051806103e052612ce3565b610300516103e05152601f19610eb261030051612d05565b0160005b818110611cae5782846000610400525b61030051610400518181101561112e57610eef610d6c610d67602493610f46956102e0516135f9565b926040519381610f09869351809260208087019101612a25565b8201601160f91b6020820152815190610f2b8260219460208685019101612a25565b019062223a7b60e81b90820152036004810184520182612ce3565b610f64610f5d610400516103a0516104e051613726565b9050613655565b610280526000905b610f80610400516103a0516104e051613726565b905082101561108e57610fcb90610fb1610d6c610d6785610fab610400516103a0516104e051613726565b906135f9565b610d8b610d8585610fab610400516101605160c051613726565b80610120528060805290610fe9610400516103a0516104e051613726565b809150600019810111610be657600019018103611076575b80611020610d6761107093610fab610400516103a0516104e051613726565b61103782610fab610400516101605160c051613726565b356001600160a01b036040519261104d84612cc7565b168252602082015261106282610280516133d9565b52610bc581610280516133d9565b90610f6c565b9050611070611086608051613609565b919050611001565b9190506103005180600019810111610be65760001901610400510361111e575b6110c5610d6761040051610300516102e0516135f9565b6001600160a01b03604051916110da83612cc7565b1681526102805160208201526110f6610400516103e0516133d9565b52611107610400516103e0516133d9565b50611114610400516133ca565b6104005290610ec6565b9061112890613609565b906110ae565b505061116b60236040518361114d829551809260208086019101612a25565b8101627d7d7d60e81b60208201526003828203018252030182612ce3565b6040519161117883612c8e565b611189366101805161014051612dad565b835260243560208401526101a435604084015261026051606084015260808301526103e05160a08301526103c05160c08301523360e0830152600061010083015260405160208101906111f460208285516111e78187858a01612a25565b8101038084520182612ce3565b5190209060019160005b6102205180821015611ca557610d678261121a9260e0516135f9565b60206001600160a01b036084611237856104c051610320516135b7565b8060409692965196879586946301a86b5560e41b865216600485015289602485015260606044850152816064850152848401376000828201840152601f01601f1916810103018173__$267c3dc7aa7d3fe2e28bda43a2ca27cd27$__5af48015611c9957600191600091611c6a575b501515036112bc576112b7906133ca565b6111fe565b5050905060005b15611c25576112e2602083518160405193828580945193849201612a25565b810160fe81520301902091805192835167ffffffffffffffff811161177a5761130b8254613141565b601f8111611bf3575b506020601f8211600114611b8a578192939495600092611b7f575b50508160011b916000199060031b1c19161781555b6020820151600182015560408201516002820155606082015180519068010000000000000000821161177a576003830154826003850155808310611ad4575b50602001906003830160005260206000206000925b82841061199f57505050506004810160808301519060208251926113bc8484613782565b019060005260206000206000915b838310611969575050505060a082015180519068010000000000000000821161177a5760058301548260058501558083106118c1575b506020016005830160005260206000206000915b838310611829575050505060c082015180519068010000000000000000821161177a5760068301548260068501558083106117d0575b506020016006830160005260206000206000915b838310611790578686600787016001600160a01b0360e0830151168154907fffffffffffffffffffffff00000000000000000000000000000000000000000074ff0000000000000000000000000000000000000000610100860151151560a01b169216171790555190815167ffffffffffffffff811161177a576114e360fc54613141565b601f8111611720575b50602092601f821160011461169e5792819293600092611693575b50508160011b916000199060031b1c19161760fc555b6000805b6104a051805183101561165557611540836001600160a01b03926133d9565b5116331460001461157a57503360005260fd6020526040600020805490600a8201809211610be657556115746001916133ca565b90611521565b9081611619576001600160a01b03611595826104a0516133d9565b511660005260fd9081602052600560406000205410156000146115ef576005915b6001600160a01b036115cb836104a0516133d9565b51166000526020526040600020918254908103908111610be65761157492556133ca565b6001600160a01b03611604826104a0516133d9565b511660005281602052604060002054916115b6565b6001600160a01b0361162e826104a0516133d9565b511660005260fd602052604060002090815460018101809111610be65761157492556133ca565b7fc53a4e1db72f8c6fde77b85b4cc21a59f9896e9d7285f890075356dbd528d1cd61168e85604051918291602083526020830190612a48565b0390a1005b015190508380611507565b601f1982169360fc6000527f371f36870d18f32a11fea0f144b021c8b407bb50f8e0267c711123f454b963c09160005b86811061170857508360019596106116ef575b505050811b0160fc5561151d565b015160001960f88460031b161c191690558380806116e1565b919260206001819286850151815501940192016116ce565b61176a9060fc6000527f371f36870d18f32a11fea0f144b021c8b407bb50f8e0267c711123f454b963c0601f840160051c81019160208510611770575b601f0160051c019061376b565b836114ec565b909150819061175d565b634e487b7160e01b600052604160045260246000fd5b60036020826040600194516001600160a01b038151166001600160a01b03198854161787558381015186880155015160028601550192019201919061145e565b6003818102048103610be6576003838102048303610be6576006840160005260206000208360030281015b826003028201811061180e57505061144a565b806000600392556000600182015560006002820155016117fb565b80516001600160a01b038151166001600160a01b031984541617835560206001840191015190602082519261185e8484613782565b01906000526020600020906000905b83821061188b57505050506002602060019201920192019190611414565b600260208281600194516001600160a01b038151166001600160a01b03198954161788550151848701550193019101909161186d565b6001600160ff1b0381168103610be6576001600160ff1b0383168303610be6576005840160005260206000208360011b81015b8260011b82018110611907575050611400565b6000815560018101546000600183015580611926575b506002016118f4565b6001600160ff1b0381168103610be6576001820160005260206000209060011b8101905b818110611957575061191d565b6000808255600182015560020161194a565b600260208281600194516001600160a01b038151166001600160a01b0319885416178755015184860155019201920191906113ca565b8051805180519067ffffffffffffffff821161177a576119bf8554613141565b601f8111611a97575b50602090601f8311600114611a25576003938360209460019794604094600092611a1a575b505060001982881b1c191690871b1787555b83810151868801550151600286015501920193019290611398565b015190508e806119ed565b908560005260206000209160005b601f1985168110611a7f575093600184819794604094600398602098601f19811610611a67575b505050811b0187556119ff565b0151600019838a1b60f8161c191690558e8080611a5a565b91926020600181928685015181550194019201611a33565b611ac4908660005260206000206005601f8601811c82019260208710611aca575b601f01901c019061376b565b8a6119c8565b9192508291611ab8565b6003818102048103610be6576003838102048303610be6576003840160005260206000208360030281015b8260030282018110611b12575050611383565b80611b1f60039254613141565b80611b3a575b50600060018201556000600282015501611aff565b601f8111600114611b515750600081555b89611b25565b611b7090826000526001601f6020600020920160051c8201910161376b565b60006020812081835555611b4b565b01519050858061132f565b8260005260206000209060005b601f1984168110611bdb575060019394959683601f19811610611bc2575b505050811b018155611344565b015160001960f88460031b161c19169055858080611bb5565b9091602060018192858b015181550193019101611b97565b611c1f90836000526020600020601f840160051c8101916020851061177057601f0160051c019061376b565b85611314565b60405162461bcd60e51b815260206004820152601d60248201527f6572726f725f696e76616c69645265706f72745369676e6174757265730000006044820152606490fd5b611c8c915060203d602011611c92575b611c848183612ce3565b810190613592565b876112a6565b503d611c7a565b6040513d6000823e3d90fd5b505050906112c3565b602090604051611cbd81612cc7565b6000815260608382015282826103e05101015201610eb6565b611d7b603d611cec610d6c610d6785878c6135f9565b98611cfe610a6a85610440518a6135f9565b607d60f81b611d11610a6a878c8b6135f9565b916040519c84611d2b8f965180926020808a019101612a25565b8501663d9134b2111d1160c91b6020820152611d51825180936020602785019101612a25565b016b11161131b0b83a3ab932911d60a11b6027820152610ae1825180936020603385019101612a25565b8682600019810111610be657600183830301611e03575b5080611da5610d67611dfe93858a6135f9565b611db38261044051886135f9565b35611dbf8389886135f9565b35906001600160a01b0360405193611dd685612cab565b16835260208301526040820152611df0826103c0516133d9565b52610bc5816103c0516133d9565b610cd7565b611dfe919750611e1290613609565b9690611d92565b602090604051611e2881612cab565b606081526000838201526000604082015282826102605101015201610a25565b60405162461bcd60e51b815260206004820152601560248201527f6572726f725f696e76616c69645265706f7274657200000000000000000000006044820152606490fd5b6000906108c8565b50506108df565b60405162461bcd60e51b815260206004820152601260248201527f6572726f725f71756f72756d4e6f744d657400000000000000000000000000006044820152606490fd5b60405162461bcd60e51b815260206004820152601360248201527f6572726f725f696e76616c69645265706f7274000000000000000000000000006044820152606490fd5b506001611f31613297565b01546024351161082c565b60405162461bcd60e51b815260206004820152601360248201527f6572726f725f7374616b655265717569726564000000000000000000000000006044820152606490fd5b611f9a915060203d602011611c9257611c848183612ce3565b8661081a565b3461014c57600036600319011261014c5760206001600160a01b0360975416604051908152f35b3461014c57600036600319011261014c57611fe0612e15565b60006001600160a01b036097546001600160a01b03198116609755167f8be0079c531659141344cd1fd0a4f28419497f9722a3daafe3b4186f6b6457e08280a3005b3461014c57600036600319011261014c5761203b613403565b604051809160208083018184528251809152816040850193019160005b82811061206757505050500390f35b83516001600160a01b031685528695509381019392810192600101612058565b3461014c57600036600319011261014c576001600160a01b037f00000000000000000000000000000000000000000000000000000000000000001630036120f25760206040517f360894a13ba1a3210667c828492db98dca3e2076cc3735a920a3ca505d382bbc8152f35b60405162461bcd60e51b815260206004820152603860248201527f555550535570677261646561626c653a206d757374206e6f742062652063616c60448201527f6c6564207468726f7567682064656c656761746563616c6c00000000000000006064820152608490fd5b604036600319011261014c57612171612d1d565b60243567ffffffffffffffff811161014c573660238201121561014c576121a2903690602481600401359101612dad565b906001600160a01b0391827f000000000000000000000000000000000000000000000000000000000000000016926121dc84301415612eb5565b61220b7f360894a13ba1a3210667c828492db98dca3e2076cc3735a920a3ca505d382bbc948286541614612f27565b612213612e15565b7f4910fdfa16fed3260ed0e7147f7cc6da11a60208b5b9406d12a635614ffd91435460ff161561224957505061018a9150612f99565b82919216604051936352d1902d60e01b85526020948581600481865afa60009181612472575b506122d05760405162461bcd60e51b815260048101879052602e60248201527f45524331393637557067726164653a206e657720696d706c656d656e7461746960448201526d6f6e206973206e6f74205555505360901b6064820152608490fd5b0361241b576122de82612f99565b604051907fbc7cd75a20ee27fd9adebab32041f755214dbc6bffa90cc0225b39da2e5c2d3b600080a2825115801590612413575b61231857005b813b156123c2575060008281928561018a9695519201905af43d156123ba573d9061234282612d91565b916123506040519384612ce3565b82523d60008484013e5b7f416464726573733a206c6f772d6c6576656c2064656c65676174652063616c6c6040519361238885612cab565b602785528401527f206661696c6564000000000000000000000000000000000000000000000000006040840152613047565b60609061235a565b62461bcd60e51b815260048101849052602660248201527f416464726573733a2064656c65676174652063616c6c20746f206e6f6e2d636f6044820152651b9d1c9858dd60d21b6064820152608490fd5b506001612312565b60405162461bcd60e51b815260048101859052602960248201527f45524331393637557067726164653a20756e737570706f727465642070726f786044820152681a58589b195555525160ba1b6064820152608490fd5b9091508681813d831161249a575b61248a8183612ce3565b8101031261014c5751908761226f565b503d612480565b3461014c57600036600319011261014c57602060fb54604051908152f35b3461014c5760208060031936011261014c576124d9612d1d565b6001600160a01b03807f00000000000000000000000000000000000000000000000000000000000000001661251081301415612eb5565b61253f7f360894a13ba1a3210667c828492db98dca3e2076cc3735a920a3ca505d382bbc918383541614612f27565b612547612e15565b604051908482019282841067ffffffffffffffff85111761177a57836040526000835260ff7f4910fdfa16fed3260ed0e7147f7cc6da11a60208b5b9406d12a635614ffd914354166000146125a4575050505061018a9150612f99565b8416906040516352d1902d60e01b81528681600481865afa60009181612745575b506126265760405162461bcd60e51b815260048101889052602e60248201527f45524331393637557067726164653a206e657720696d706c656d656e7461746960448201526d6f6e206973206e6f74205555505360901b6064820152608490fd5b036126ee5761263484612f99565b604051907fbc7cd75a20ee27fd9adebab32041f755214dbc6bffa90cc0225b39da2e5c2d3b600080a28151158015906126e6575b61266e57005b833b15612695575061018a9392600092839251915af43d156123ba573d9061234282612d91565b62461bcd60e51b815260048101859052602660248201527f416464726573733a2064656c65676174652063616c6c20746f206e6f6e2d636f6044820152651b9d1c9858dd60d21b6064820152608490fd5b506000612668565b60405162461bcd60e51b815260048101869052602960248201527f45524331393637557067726164653a20756e737570706f727465642070726f786044820152681a58589b195555525160ba1b6064820152608490fd5b9091508781813d831161276d575b61275d8183612ce3565b8101031261014c575190886125c5565b503d612753565b3461014c57602036600319011261014c5760043567ffffffffffffffff811161014c573660238201121561014c576127bb6108446020923690602481600401359101612d33565b6040519015158152f35b3461014c5760208060031936011261014c5760043567ffffffffffffffff811161014c576127f8829136906004016129f7565b91906128026130fd565b50826040519384928337810160fe815203019020906040519061282482612c8e565b61282d8361317b565b8252600180840154828401526002918285015460408501526003808601805461285581612d05565b916128636040519384612ce3565b81835260009081528481208685878087015b8686106129bd5750505050505050606086015261289460048701613221565b60808601526005860180546128a881612d05565b916128b66040519384612ce3565b81835260009081528481208688878087015b868610612983575050505050505060a0860152600686018054926128eb84612d05565b956128f96040519788612ce3565b8487526000928352818320908288015b8685106129475760c08a0189905260078b01546001600160a01b03811660e08c015260a01c60ff1615156101008b01526040518061034c8c82612ab5565b8584899260405161295781612cab565b6001600160a01b0387541681528487015483820152858701546040820152815201930194019391612909565b60405161298f81612cc7565b6001600160a01b0386541681526129a7858701613221565b83820152815201920192019190888789926128c8565b6040516129c981612cab565b6129d28661317b565b815284860154838201528c860154604082015281520192019201919085878992612875565b9181601f8401121561014c5782359167ffffffffffffffff831161014c576020838186019501011161014c57565b60005b838110612a385750506000910152565b8181015183820152602001612a28565b90602091612a6181518092818552858086019101612a25565b601f01601f1916010190565b90815180825260208080930193019160005b828110612a8d575050505090565b835180516001600160a01b031686528201518583015260409094019392810192600101612a7f565b602091828252805190612ad5610120928386860152610140850190612a48565b93808201516040908186015280830151916060928387015282840151601f19978888820301608089015281518082528382019184808360051b8301019401926000915b888d858510612c435750505050505050612b40906080860151898983030160a08a0152612a6d565b9160a085015192888882030160c089015283518082528382019184808360051b8301019601926000915b8c848410612bf65750505050505060c0850151978784030160e08801528180895194858152019801936000915b848310612bc5575050505050506001600160a01b0360e0820151169061010091828501520151151591015290565b855180516001600160a01b03168b52808501518b8601528101518a8201529881019894830194600190920191612b97565b9680612c2f8a89838a9e9b9c9a8798999a9b829f9860019903018a52516001600160a01b03815116845201519181858201520190612a6d565b9a0193019301919392909796959497612b6a565b9780999891888293856001969798999a9b030187528a80612c6e8c5194855190808652850190612a48565b938581015186850152015191015297019301930191939290969596612b18565b610120810190811067ffffffffffffffff82111761177a57604052565b6060810190811067ffffffffffffffff82111761177a57604052565b6040810190811067ffffffffffffffff82111761177a57604052565b90601f8019910116810190811067ffffffffffffffff82111761177a57604052565b67ffffffffffffffff811161177a5760051b60200190565b600435906001600160a01b038216820361014c57565b9291612d3e82612d05565b91612d4c6040519384612ce3565b829481845260208094019160051b810192831161014c57905b828210612d725750505050565b81356001600160a01b038116810361014c578152908301908301612d65565b67ffffffffffffffff811161177a57601f01601f191660200190565b929192612db982612d91565b91612dc76040519384612ce3565b82948184528183011161014c578281602093846000960137010152565b9181601f8401121561014c5782359167ffffffffffffffff831161014c576020808501948460051b01011161014c57565b6001600160a01b03609754163303612e2957565b606460405162461bcd60e51b815260206004820152602060248201527f4f776e61626c653a2063616c6c6572206973206e6f7420746865206f776e65726044820152fd5b609754906001600160a01b0380911691826001600160a01b0319821617609755167f8be0079c531659141344cd1fd0a4f28419497f9722a3daafe3b4186f6b6457e0600080a3565b15612ebc57565b60405162461bcd60e51b815260206004820152602c60248201527f46756e6374696f6e206d7573742062652063616c6c6564207468726f7567682060448201527f64656c656761746563616c6c00000000000000000000000000000000000000006064820152608490fd5b15612f2e57565b60405162461bcd60e51b815260206004820152602c60248201527f46756e6374696f6e206d7573742062652063616c6c6564207468726f7567682060448201527f6163746976652070726f787900000000000000000000000000000000000000006064820152608490fd5b803b15612fdc576001600160a01b037f360894a13ba1a3210667c828492db98dca3e2076cc3735a920a3ca505d382bbc91166001600160a01b0319825416179055565b60405162461bcd60e51b815260206004820152602d60248201527f455243313936373a206e657720696d706c656d656e746174696f6e206973206e60448201527f6f74206120636f6e7472616374000000000000000000000000000000000000006064820152608490fd5b90919015613053575090565b8151156130635750805190602001fd5b60405162461bcd60e51b815260206004820152908190613087906024830190612a48565b0390fd5b1561309257565b60405162461bcd60e51b815260206004820152602b60248201527f496e697469616c697a61626c653a20636f6e7472616374206973206e6f74206960448201527f6e697469616c697a696e670000000000000000000000000000000000000000006064820152608490fd5b6040519061310a82612c8e565b600061010083606080825283602083015283604083015280808301528060808301528060a083015260c08201528260e08201520152565b90600182811c92168015613171575b602083101461315b57565b634e487b7160e01b600052602260045260246000fd5b91607f1691613150565b906040519182600082549261318f84613141565b9081845260019485811690816000146131fe57506001146131bb575b50506131b992500383612ce3565b565b9093915060005260209081600020936000915b8183106131e65750506131b9935082010138806131ab565b855488840185015294850194879450918301916131ce565b9150506131b994506020925060ff191682840152151560051b82010138806131ab565b90815461322d81612d05565b9260409361323d85519182612ce3565b828152809460208092019260005281600020906000935b85851061326357505050505050565b600284600192845161327481612cc7565b6001600160a01b0387541681528487015483820152815201930194019391613254565b60405160fc548160006132a983613141565b9260019081811690811561332657506001146132d0575b506020925060fe81520301902090565b60fc600090815291507f371f36870d18f32a11fea0f144b021c8b407bb50f8e0267c711123f454b963c05b848310613310575050506020918101386132c0565b80548684015285935060209092019181016132fb565b60ff191684525060209380151502830191503890506132c0565b602090818184031261014c5780519067ffffffffffffffff821161014c57019180601f8401121561014c57825161337681612d05565b936133846040519586612ce3565b818552838086019260051b82010192831161014c578301905b8282106133ab575050505090565b81516001600160a01b038116810361014c57815290830190830161339d565b6000198114610be65760010190565b80518210156133ed5760209160051b010190565b634e487b7160e01b600052603260045260246000fd5b6001600160a01b038060ff5416906040918251938491636085a91160e11b835282600460009788935afa918215613588578592613564575b5081519361344885612d05565b9461345582519687612ce3565b808652613464601f1991612d05565b0160209036828801378690875b8551811015613559578894895b88885182101561352c57613492828a6133d9565b51168b5260fd80855285878d2054101580613523575b613519578988161561350057896134bf838b6133d9565b51168c528452858b20548988168c52868c2054106134e6575b6134e1906133ca565b61347e565b95506134e1886134f6888a6133d9565b51169690506134d8565b5095506134e188613511888a6133d9565b5116966133ca565b506134e1906133ca565b508515156134a8565b919690506135549294501692838a5260fd8352848a20549361354e828b6133d9565b526133ca565b613471565b505050509350505090565b6135819192503d8087833e6135798183612ce3565b810190613340565b903861343b565b84513d87823e3d90fd5b9081602091031261014c5751801515810361014c5790565b91908201809211610be657565b91908110156133ed5760051b81013590601e198136030182121561014c57019081359167ffffffffffffffff831161014c57602001823603811361014c579190565b91908110156133ed5760051b0190565b906131b9602160405184613627829651809260208086019101612a25565b8101600b60fa1b6020820152036001810185520183612ce3565b356001600160a01b038116810361014c5790565b9061365f82612d05565b60409061366e82519182612ce3565b838152809361367f601f1991612d05565b0191600090815b848110613694575050505050565b60209082516136a281612cc7565b848152828581830152828701015201613686565b6023906131b992949360405195826136d8889451809260208088019101612a25565b8301601160f91b60208201526136f8825180936020602185019101612a25565b0161111d60f11b60218201526137178251809360208785019101612a25565b01036003810185520183612ce3565b91908110156133ed5760051b81013590601e198136030182121561014c57019081359167ffffffffffffffff831161014c576020018260051b3603811361014c579190565b818110613776575050565b6000815560010161376b565b68010000000000000000821161177a5780548282558083106137a357505050565b6001600160ff1b038082168203610be65783168303610be657600091825260208220600191821b810193821b015b8381106137de5750505050565b8083600292558383820155016137d1565b9060046000926000806001600160a01b0392828460ff541660405196878092636085a91160e11b82525afa9485156139165783956138fa575b508451600195869591861c806138f057508594989796985b80995b613854575b50505050505050909150565b81518a10156138eb578681815b61389b575b5050858510156138845761387c8798999a6133ca565b999897613843565b505050505050915091508138808080808080613848565b85518110156138e657846138af8d866133d9565b5116856138bc83896133d9565b5116146138d2576138cc906133ca565b81613861565b5050936138de906133ca565b938638613866565b613866565b613848565b9498979698613840565b61390f9195503d8085833e6135798183612ce3565b9338613828565b6040513d85823e3d90fd5b806000917a184f03e93ff9f4daa797ed6e38ed64bf6a1f01000000000000000080821015613a7b575b506d04ee2d6d415b85acef810000000080831015613a6c575b50662386f26fc1000080831015613a5d575b506305f5e10080831015613a4e575b5061271080831015613a3f575b506064821015613a2f575b600a80921015613a25575b600190816021818601956139ba87612d91565b966139c86040519889612ce3565b8088526139d7601f1991612d91565b01366020890137860101905b6139ef575b5050505090565b600019019083906f181899199a1a9b1b9c1cb0b131b232b360811b8282061a835304918215613a20579190826139e3565b6139e8565b91600101916139a7565b919060646002910491019161399c565b60049193920491019138613991565b60089193920491019138613984565b60109193920491019138613975565b60209193920491019138613963565b60409350810491503861394a565b600080821291908215613b0757613ac5613afe92602092604051613aac81612cc7565b60018152602d60f81b85820152955b613b015750613921565b926040519381613ade8693518092868087019101612a25565b8201613af282518093868085019101612a25565b01038084520182612ce3565b90565b03613921565b6040516020810181811067ffffffffffffffff821117613b385760405281815292613afe92602092613ac592613abb565b634e487b7160e01b83526041600452602483fd5b6001600160a01b031660405190613b6282612cab565b602a825260209081830160403682378351156133ed576030905382516001908110156133ed57607860218501536029905b808211613be7575050613ba4575090565b6064906040519062461bcd60e51b825280600483015260248201527f537472696e67733a20686578206c656e67746820696e73756666696369656e746044820152fd5b9091600f81166010811015613c44578551841015613c44576f181899199a1a9b1b9c1cb0b131b232b360811b901a84848701015360041c918015613c2f576000190190613b93565b60246000634e487b7160e01b81526011600452fd5b60246000634e487b7160e01b81526032600452fdfea26469706673582212200fb0e1974859de2936dc63b61558ed3c996940122eb1510738e1d32409171e3264736f6c63430008110033",
  "linkReferences": {
    "src/lib/VerifySignature.sol": {
      "VerifySignature": [
        {
          "length": 20,
          "start": 4791
        }
      ]
    }
  },
  "deployedLinkReferences": {
    "src/lib/VerifySignature.sol": {
      "VerifySignature": [
        {
          "length": 20,
          "start": 4736
        }
      ]
    }
  }
}