{
  "_format": "hh-sol-artifact-1",
  "contractName": "LogStoreReportManager",
  "sourceName": "src/ReportManager.sol",
  "abi": [
    {
      "anonymous": false,
      "inputs": [
        {
          "indexed": false,
          "internalType": "address",
          "name": "previousAdmin",
          "type": "address"
        },
        {
          "indexed": false,
          "internalType": "address",
          "name": "newAdmin",
          "type": "address"
        }
      ],
      "name": "AdminChanged",
      "type": "event"
    },
    {
      "anonymous": false,
      "inputs": [
        {
          "indexed": true,
          "internalType": "address",
          "name": "beacon",
          "type": "address"
        }
      ],
      "name": "BeaconUpgraded",
      "type": "event"
    },
    {
      "anonymous": false,
      "inputs": [
        {
          "indexed": false,
          "internalType": "uint8",
          "name": "version",
          "type": "uint8"
        }
      ],
      "name": "Initialized",
      "type": "event"
    },
    {
      "anonymous": false,
      "inputs": [
        {
          "indexed": false,
          "internalType": "bool",
          "name": "isMet",
          "type": "bool"
        }
      ],
      "name": "Logger",
      "type": "event"
    },
    {
      "anonymous": false,
      "inputs": [
        {
          "indexed": true,
          "internalType": "address",
          "name": "previousOwner",
          "type": "address"
        },
        {
          "indexed": true,
          "internalType": "address",
          "name": "newOwner",
          "type": "address"
        }
      ],
      "name": "OwnershipTransferred",
      "type": "event"
    },
    {
      "anonymous": false,
      "inputs": [
        {
          "indexed": false,
          "internalType": "string",
          "name": "id",
          "type": "string"
        }
      ],
      "name": "ReportAccepted",
      "type": "event"
    },
    {
      "anonymous": false,
      "inputs": [
        {
          "indexed": true,
          "internalType": "address",
          "name": "implementation",
          "type": "address"
        }
      ],
      "name": "Upgraded",
      "type": "event"
    },
    {
      "inputs": [],
      "name": "MATH_PRECISION",
      "outputs": [
        {
          "internalType": "uint256",
          "name": "",
          "type": "uint256"
        }
      ],
      "stateMutability": "view",
      "type": "function"
    },
    {
      "inputs": [
        {
          "internalType": "uint256[]",
          "name": "timestamps",
          "type": "uint256[]"
        }
      ],
      "name": "aggregateTimestamps",
      "outputs": [
        {
          "internalType": "uint256",
          "name": "",
          "type": "uint256"
        }
      ],
      "stateMutability": "pure",
      "type": "function"
    },
    {
      "inputs": [],
      "name": "blockTimestamp",
      "outputs": [
        {
          "internalType": "uint256",
          "name": "",
          "type": "uint256"
        }
      ],
      "stateMutability": "view",
      "type": "function"
    },
    {
      "inputs": [],
      "name": "getLastReport",
      "outputs": [
        {
          "components": [
            {
              "internalType": "string",
              "name": "id",
              "type": "string"
            },
            {
              "internalType": "uint256",
              "name": "height",
              "type": "uint256"
            },
            {
              "internalType": "int256",
              "name": "treasury",
              "type": "int256"
            },
            {
              "components": [
                {
                  "internalType": "string",
                  "name": "id",
                  "type": "string"
                },
                {
                  "internalType": "uint256",
                  "name": "writeCapture",
                  "type": "uint256"
                },
                {
                  "internalType": "uint256",
                  "name": "writeBytes",
                  "type": "uint256"
                }
              ],
              "internalType": "struct LogStoreReportManager.Stream[]",
              "name": "streams",
              "type": "tuple[]"
            },
            {
              "components": [
                {
                  "internalType": "address",
                  "name": "id",
                  "type": "address"
                },
                {
                  "internalType": "int256",
                  "name": "amount",
                  "type": "int256"
                }
              ],
              "internalType": "struct LogStoreReportManager.Node[]",
              "name": "nodes",
              "type": "tuple[]"
            },
            {
              "components": [
                {
                  "internalType": "address",
                  "name": "id",
                  "type": "address"
                },
                {
                  "components": [
                    {
                      "internalType": "address",
                      "name": "id",
                      "type": "address"
                    },
                    {
                      "internalType": "int256",
                      "name": "amount",
                      "type": "int256"
                    }
                  ],
                  "internalType": "struct LogStoreReportManager.Node[]",
                  "name": "nodes",
                  "type": "tuple[]"
                }
              ],
              "internalType": "struct LogStoreReportManager.Delegate[]",
              "name": "delegates",
              "type": "tuple[]"
            },
            {
              "components": [
                {
                  "internalType": "address",
                  "name": "id",
                  "type": "address"
                },
                {
                  "internalType": "uint256",
                  "name": "readCapture",
                  "type": "uint256"
                },
                {
                  "internalType": "uint256",
                  "name": "readBytes",
                  "type": "uint256"
                }
              ],
              "internalType": "struct LogStoreReportManager.Consumer[]",
              "name": "consumers",
              "type": "tuple[]"
            },
            {
              "internalType": "address",
              "name": "_reporter",
              "type": "address"
            },
            {
              "internalType": "bool",
              "name": "_processed",
              "type": "bool"
            }
          ],
          "internalType": "struct LogStoreReportManager.Report",
          "name": "",
          "type": "tuple"
        }
      ],
      "stateMutability": "view",
      "type": "function"
    },
    {
      "inputs": [
        {
          "internalType": "string",
          "name": "id",
          "type": "string"
        }
      ],
      "name": "getReport",
      "outputs": [
        {
          "components": [
            {
              "internalType": "string",
              "name": "id",
              "type": "string"
            },
            {
              "internalType": "uint256",
              "name": "height",
              "type": "uint256"
            },
            {
              "internalType": "int256",
              "name": "treasury",
              "type": "int256"
            },
            {
              "components": [
                {
                  "internalType": "string",
                  "name": "id",
                  "type": "string"
                },
                {
                  "internalType": "uint256",
                  "name": "writeCapture",
                  "type": "uint256"
                },
                {
                  "internalType": "uint256",
                  "name": "writeBytes",
                  "type": "uint256"
                }
              ],
              "internalType": "struct LogStoreReportManager.Stream[]",
              "name": "streams",
              "type": "tuple[]"
            },
            {
              "components": [
                {
                  "internalType": "address",
                  "name": "id",
                  "type": "address"
                },
                {
                  "internalType": "int256",
                  "name": "amount",
                  "type": "int256"
                }
              ],
              "internalType": "struct LogStoreReportManager.Node[]",
              "name": "nodes",
              "type": "tuple[]"
            },
            {
              "components": [
                {
                  "internalType": "address",
                  "name": "id",
                  "type": "address"
                },
                {
                  "components": [
                    {
                      "internalType": "address",
                      "name": "id",
                      "type": "address"
                    },
                    {
                      "internalType": "int256",
                      "name": "amount",
                      "type": "int256"
                    }
                  ],
                  "internalType": "struct LogStoreReportManager.Node[]",
                  "name": "nodes",
                  "type": "tuple[]"
                }
              ],
              "internalType": "struct LogStoreReportManager.Delegate[]",
              "name": "delegates",
              "type": "tuple[]"
            },
            {
              "components": [
                {
                  "internalType": "address",
                  "name": "id",
                  "type": "address"
                },
                {
                  "internalType": "uint256",
                  "name": "readCapture",
                  "type": "uint256"
                },
                {
                  "internalType": "uint256",
                  "name": "readBytes",
                  "type": "uint256"
                }
              ],
              "internalType": "struct LogStoreReportManager.Consumer[]",
              "name": "consumers",
              "type": "tuple[]"
            },
            {
              "internalType": "address",
              "name": "_reporter",
              "type": "address"
            },
            {
              "internalType": "bool",
              "name": "_processed",
              "type": "bool"
            }
          ],
          "internalType": "struct LogStoreReportManager.Report",
          "name": "",
          "type": "tuple"
        }
      ],
      "stateMutability": "view",
      "type": "function"
    },
    {
      "inputs": [],
      "name": "getReporters",
      "outputs": [
        {
          "internalType": "address[]",
          "name": "reporters",
          "type": "address[]"
        }
      ],
      "stateMutability": "view",
      "type": "function"
    },
    {
      "inputs": [
        {
          "internalType": "address",
          "name": "_owner",
          "type": "address"
        },
        {
          "internalType": "uint256",
          "name": "_reportTimeBuffer",
          "type": "uint256"
        }
      ],
      "name": "initialize",
      "outputs": [],
      "stateMutability": "nonpayable",
      "type": "function"
    },
    {
      "inputs": [],
      "name": "owner",
      "outputs": [
        {
          "internalType": "address",
          "name": "",
          "type": "address"
        }
      ],
      "stateMutability": "view",
      "type": "function"
    },
    {
      "inputs": [
        {
          "internalType": "string",
          "name": "id",
          "type": "string"
        }
      ],
      "name": "processReport",
      "outputs": [],
      "stateMutability": "nonpayable",
      "type": "function"
    },
    {
      "inputs": [],
      "name": "proxiableUUID",
      "outputs": [
        {
          "internalType": "bytes32",
          "name": "",
          "type": "bytes32"
        }
      ],
      "stateMutability": "view",
      "type": "function"
    },
    {
      "inputs": [
        {
          "internalType": "address[]",
          "name": "submittedNodes",
          "type": "address[]"
        }
      ],
      "name": "quorumIsMet",
      "outputs": [
        {
          "internalType": "bool",
          "name": "isMet",
          "type": "bool"
        }
      ],
      "stateMutability": "view",
      "type": "function"
    },
    {
      "inputs": [],
      "name": "renounceOwnership",
      "outputs": [],
      "stateMutability": "nonpayable",
      "type": "function"
    },
    {
      "inputs": [
        {
          "internalType": "string",
          "name": "id",
          "type": "string"
        },
        {
          "internalType": "uint256",
          "name": "blockHeight",
          "type": "uint256"
        },
        {
          "internalType": "string[]",
          "name": "streams",
          "type": "string[]"
        },
        {
          "internalType": "uint256[]",
          "name": "writeCaptureAmounts",
          "type": "uint256[]"
        },
        {
          "internalType": "uint256[]",
          "name": "writeBytes",
          "type": "uint256[]"
        },
        {
          "internalType": "address[]",
          "name": "readConsumerAddresses",
          "type": "address[]"
        },
        {
          "internalType": "uint256[]",
          "name": "readCaptureAmounts",
          "type": "uint256[]"
        },
        {
          "internalType": "uint256[]",
          "name": "readBytes",
          "type": "uint256[]"
        },
        {
          "internalType": "address[]",
          "name": "nodes",
          "type": "address[]"
        },
        {
          "internalType": "int256[]",
          "name": "nodeChanges",
          "type": "int256[]"
        },
        {
          "internalType": "address[]",
          "name": "delegates",
          "type": "address[]"
        },
        {
          "internalType": "address[][]",
          "name": "delegateNodes",
          "type": "address[][]"
        },
        {
          "internalType": "int256[][]",
          "name": "delegateNodeChanges",
          "type": "int256[][]"
        },
        {
          "internalType": "int256",
          "name": "treasurySupplyChange",
          "type": "int256"
        },
        {
          "internalType": "address[]",
          "name": "addresses",
          "type": "address[]"
        },
        {
          "internalType": "uint256[]",
          "name": "proofTimestamps",
          "type": "uint256[]"
        },
        {
          "internalType": "bytes[]",
          "name": "signatures",
          "type": "bytes[]"
        }
      ],
      "name": "report",
      "outputs": [],
      "stateMutability": "nonpayable",
      "type": "function"
    },
    {
      "inputs": [],
      "name": "reportTimeBuffer",
      "outputs": [
        {
          "internalType": "uint256",
          "name": "",
          "type": "uint256"
        }
      ],
      "stateMutability": "view",
      "type": "function"
    },
    {
      "inputs": [
        {
          "internalType": "address",
          "name": "",
          "type": "address"
        }
      ],
      "name": "reputationOf",
      "outputs": [
        {
          "internalType": "uint256",
          "name": "",
          "type": "uint256"
        }
      ],
      "stateMutability": "view",
      "type": "function"
    },
    {
      "inputs": [
        {
          "internalType": "address",
          "name": "newOwner",
          "type": "address"
        }
      ],
      "name": "transferOwnership",
      "outputs": [],
      "stateMutability": "nonpayable",
      "type": "function"
    },
    {
      "inputs": [
        {
          "internalType": "address",
          "name": "newImplementation",
          "type": "address"
        }
      ],
      "name": "upgradeTo",
      "outputs": [],
      "stateMutability": "nonpayable",
      "type": "function"
    },
    {
      "inputs": [
        {
          "internalType": "address",
          "name": "newImplementation",
          "type": "address"
        },
        {
          "internalType": "bytes",
          "name": "data",
          "type": "bytes"
        }
      ],
      "name": "upgradeToAndCall",
      "outputs": [],
      "stateMutability": "payable",
      "type": "function"
    }
  ],
  "bytecode": "0x60a080604052346100315730608052614456908161003782396080518181816107500152818161085d0152610b740152f35b600080fdfe610680604052600436101561001357600080fd5b60003560e01c80630e0a171314612e6257806312e63d7114612c305780631bfdc98a14610e8e57806325cbbdff14610e3857806331c74e0114610e1a5780633659cfe614610b4f5780634f1ef2861461080b57806352d1902d1461073557806370f46202146106d0578063715018a6146106755780638da5cb5b1461064e578063adb618321461062b578063cd6dc68714610486578063d91b99e814610466578063db89c0441461042c578063eefa7a3e14610223578063f2fde38b1461017d5763f6883c05146100e357600080fd5b346101785760203660031901126101785760043567ffffffffffffffff81116101785760206101186007923690600401612f86565b9190610122613315565b826040519384928337810160fe81520301902001740100000000000000000000000000000000000000007fffffffffffffffffffffff00ffffffffffffffffffffffffffffffffffffffff825416179055600080f35b600080fd5b346101785760203660031901126101785761019661324e565b61019e613315565b6001600160a01b038116156101b8576101b69061336d565b005b60405162461bcd60e51b815260206004820152602660248201527f4f776e61626c653a206e6577206f776e657220697320746865207a65726f206160448201527f64647265737300000000000000000000000000000000000000000000000000006064820152608490fd5b346101785760003660031901126101785761023c6135fd565b50610245613797565b60405161025181612ea9565b61025a8261367b565b815260018083015490602091828401526002918285015460408501526003808601805461028681612f20565b916102946040519384612efe565b81835260009081528481208685878087015b8686106103f2575050505050505060608601526102c560048701613721565b60808601526005860180546102d981612f20565b916102e76040519384612efe565b81835260009081528481208688878087015b8686106103b8575050505050505060a08601526006860180549261031c84612f20565b9561032a6040519788612efe565b8487526000928352818320908288015b86851061037c5760c08a0189905260078b01546001600160a01b03811660e08c015260a01c60ff1615156101008b0152604051806103788c82613044565b0390f35b8584899260405161038c81612ec6565b6001600160a01b038754168152848701548382015285870154604082015281520193019401939161033a565b6040516103c481612ee2565b6001600160a01b0386541681526103dc858701613721565b83820152815201920192019190888789926102f9565b6040516103fe81612ec6565b6104078661367b565b815284860154838201528c8601546040820152815201920192019190858789926102a6565b34610178576020366003190112610178576001600160a01b0361044d61324e565b1660005260fc6020526020604060002054604051908152f35b346101785760003660031901126101785760206040516402540be4008152f35b346101785760403660031901126101785761049f61324e565b6000549060ff808360081c16159283809461061f575b8015610609575b1561059e5760ff1981166001176000558361058c575b506104ec8160005460081c166104e78161358b565b61358b565b6104f53361336d565b6105128160005460081c166105098161358b565b6104e78161358b565b600160c9556001600160a01b03821690816001600160a01b031982541617905560243560fb55610540613315565b156101b85761054e9061336d565b61055457005b61ff0019600054166000557f7f26b83ff96e1f2b6a682f133852f6798a09c465da95921460cefb3847402498602060405160018152a1005b61ffff191661010117600055836104d2565b60405162461bcd60e51b815260206004820152602e60248201527f496e697469616c697a61626c653a20636f6e747261637420697320616c72656160448201527f647920696e697469616c697a65640000000000000000000000000000000000006064820152608490fd5b50303b1580156104bc57506001828216146104bc565b506001828216106104b5565b34610178576000366003190112610178576020610646613f6a565b604051908152f35b346101785760003660031901126101785760206001600160a01b0360975416604051908152f35b346101785760003660031901126101785761068e613315565b60006001600160a01b036097546001600160a01b03198116609755167f8be0079c531659141344cd1fd0a4f28419497f9722a3daafe3b4186f6b6457e08280a3005b34610178576000366003190112610178576106e961391d565b604051809160208083018184528251809152816040850193019160005b82811061071557505050500390f35b83516001600160a01b031685528695509381019392810192600101610706565b34610178576000366003190112610178576001600160a01b037f00000000000000000000000000000000000000000000000000000000000000001630036107a05760206040517f360894a13ba1a3210667c828492db98dca3e2076cc3735a920a3ca505d382bbc8152f35b60405162461bcd60e51b815260206004820152603860248201527f555550535570677261646561626c653a206d757374206e6f742062652063616c60448201527f6c6564207468726f7567682064656c656761746563616c6c00000000000000006064820152608490fd5b60403660031901126101785761081f61324e565b60243567ffffffffffffffff81116101785736602382011215610178576108509036906024816004013591016132de565b906001600160a01b0391827f0000000000000000000000000000000000000000000000000000000000000000169261088a843014156133b5565b6108b97f360894a13ba1a3210667c828492db98dca3e2076cc3735a920a3ca505d382bbc948286541614613427565b6108c1613315565b7f4910fdfa16fed3260ed0e7147f7cc6da11a60208b5b9406d12a635614ffd91435460ff16156108f75750506101b69150613499565b82919216604051936352d1902d60e01b85526020948581600481865afa60009181610b20575b5061097e5760405162461bcd60e51b815260048101879052602e60248201527f45524331393637557067726164653a206e657720696d706c656d656e7461746960448201526d6f6e206973206e6f74205555505360901b6064820152608490fd5b03610ac95761098c82613499565b604051907fbc7cd75a20ee27fd9adebab32041f755214dbc6bffa90cc0225b39da2e5c2d3b600080a2825115801590610ac1575b6109c657005b813b15610a7057506000828192856101b69695519201905af43d15610a68573d906109f0826132c2565b916109fe6040519384612efe565b82523d60008484013e5b7f416464726573733a206c6f772d6c6576656c2064656c65676174652063616c6c60405193610a3685612ec6565b602785528401527f206661696c6564000000000000000000000000000000000000000000000000006040840152613547565b606090610a08565b62461bcd60e51b815260048101849052602660248201527f416464726573733a2064656c65676174652063616c6c20746f206e6f6e2d636f6044820152651b9d1c9858dd60d21b6064820152608490fd5b5060016109c0565b60405162461bcd60e51b815260048101859052602960248201527f45524331393637557067726164653a20756e737570706f727465642070726f786044820152681a58589b195555525160ba1b6064820152608490fd5b9091508681813d8311610b48575b610b388183612efe565b810103126101785751908761091d565b503d610b2e565b346101785760208060031936011261017857610b6961324e565b6001600160a01b03807f000000000000000000000000000000000000000000000000000000000000000016610ba0813014156133b5565b610bcf7f360894a13ba1a3210667c828492db98dca3e2076cc3735a920a3ca505d382bbc918383541614613427565b610bd7613315565b604051908482019282841067ffffffffffffffff851117610e0457836040526000835260ff7f4910fdfa16fed3260ed0e7147f7cc6da11a60208b5b9406d12a635614ffd91435416600014610c3457505050506101b69150613499565b8416906040516352d1902d60e01b81528681600481865afa60009181610dd5575b50610cb65760405162461bcd60e51b815260048101889052602e60248201527f45524331393637557067726164653a206e657720696d706c656d656e7461746960448201526d6f6e206973206e6f74205555505360901b6064820152608490fd5b03610d7e57610cc484613499565b604051907fbc7cd75a20ee27fd9adebab32041f755214dbc6bffa90cc0225b39da2e5c2d3b600080a2815115801590610d76575b610cfe57005b833b15610d2557506101b69392600092839251915af43d15610a68573d906109f0826132c2565b62461bcd60e51b815260048101859052602660248201527f416464726573733a2064656c65676174652063616c6c20746f206e6f6e2d636f6044820152651b9d1c9858dd60d21b6064820152608490fd5b506000610cf8565b60405162461bcd60e51b815260048101869052602960248201527f45524331393637557067726164653a20756e737570706f727465642070726f786044820152681a58589b195555525160ba1b6064820152608490fd5b9091508781813d8311610dfd575b610ded8183612efe565b8101031261017857519088610c55565b503d610de3565b634e487b7160e01b600052604160045260246000fd5b3461017857600036600319011261017857602060fb54604051908152f35b346101785760203660031901126101785760043567ffffffffffffffff8111610178573660238201121561017857610e84610e7f6020923690602481600401359101613264565b613d8c565b6040519015158152f35b34610178576102203660031901126101785760043567ffffffffffffffff811161017857610ec0903690600401612f86565b610600526105005260443567ffffffffffffffff811161017857610ee890369060040161321d565b6101a0526104605260643567ffffffffffffffff811161017857610f1090369060040161321d565b610560526102e05260843567ffffffffffffffff811161017857610f3890369060040161321d565b6101605260c05267ffffffffffffffff60a4351161017857610f5f3660a43560040161321d565b610660526104e05267ffffffffffffffff60c4351161017857610f873660c43560040161321d565b610320526105a05267ffffffffffffffff60e4351161017857610faf3660e43560040161321d565b610100526101405267ffffffffffffffff610104351161017857610fd9366101043560040161321d565b610580526103805267ffffffffffffffff610124351161017857611003366101243560040161321d565b6105c0526102605267ffffffffffffffff61014435116101785761102d366101443560040161321d565b6102a0526104805267ffffffffffffffff610164351161017857611057366101643560040161321d565b60a0526103405267ffffffffffffffff610184351161017857611080366101843560040161321d565b610200526101e05267ffffffffffffffff6101c43511610178576110aa366101c43560040161321d565b610120526106405267ffffffffffffffff6101e43511610178576110d4366101e43560040161321d565b610620526104405267ffffffffffffffff6102043511610178576110fe366102043560040161321d565b6101805261024052602460206001600160a01b0360ff541660405192838092630c2effa360e31b82523360048301525afa908115612a1b57600091612c11575b5015612bcc5760ff60076040516106005161050051823760208161060051810160fe815203019020015460a01c16612b875743602435111580612b71575b15612b2c5761012051806003810204600314811517156115f4576111b1906111ac610180519161062051906138e6565b6138e6565b6003610120510203612ae7576111d1610e7f366101205161064051613264565b15612aa2576111de61391d565b610400526111fb6111f6366106205161044051612f38565b613efa565b60005b610400518051821015612a9a576001600160a01b0361121e8333936138f3565b5116146112335761122e906138ca565b6111fe565b61123b613f6a565b9160fb54918281029281840414901517156115f4576402540be400918281029281840414901517156115f457611270916138e6565b1015612a55575b604051806103c052806101c081011067ffffffffffffffff6101c083011117610e04576101c0016040526000610520525b610520516101c08110156112cf576060906103c051015260206105205101610520526112a8565b604051601160f91b60208201526106005161050051602183013761130f602282610600518101601160f91b60218201526002828203018252030182612efe565b6103c0515261131f602435613f9c565b60206103c05101526113336101a435614289565b61137560226040518093601160f91b602083015261135b815180926020602186019101612fb4565b8101601160f91b6021820152036002810184520182612efe565b6101a06103c051015261139f61138d6101a051612f20565b806104a0526040518061028052612efe565b6101a0516102805152601f196113b76101a051612f20565b0160006103e0525b806103e0511015611405576040516113d681612ec6565b60608152600060208201526000604082015260206103e0516102805101015260206103e051016103e0526113bf565b60006104c0525b6101a0516104c0518181101561160a57602261143761147e9260406103c05101519461046051613ab9565b8094916040519583611453889551809260208089019101612fb4565b840191601160f91b6020840152602183013701601160f91b6021820152036002810184520182612efe565b60406103c05101526114b460606103c05101516114ae6114a86104c051610560516102e051613afb565b35614104565b90613b0b565b60606103c05101526114e960806103c05101516114e36114dd6104c0516101605160c051613afb565b35613f9c565b90613b65565b60806103c05101526101a051806000198101116115f457600019016104c051036115a7575b6115226104c0516101a05161046051613ab9565b906115376104c051610560516102e051613afb565b3561156461154e6104c0516101605160c051613afb565b35926040519461155d86612ec6565b36916132de565b8352602083015260408201526115806104c051610280516138f3565b526115916104c051610280516138f3565b5061159e6104c0516138ca565b6104c05261140c565b6115b760406103c0510151613ba6565b60406103c05101526115cf60606103c0510151613ba6565b60606103c05101526115e760806103c0510151613ba6565b60806103c051015261150e565b634e487b7160e01b600052601160045260246000fd5b61162b61161961066051612f20565b806105e0526040518061030052612efe565b610660516103005152601f1961164361066051612f20565b0160006080525b80608051101561168c5760405161166081612ec6565b60008152600060208201526000604082015260206080516103005101015260206080510160805261164a565b6000610360525b6106605161036051908082101561182e576114ae6116c86116c36116cd9460a06103c0510151946104e051613afb565b613bde565b61435d565b60a06103c05101526116f760c06103c05101516114ae6114a861036051610320516105a051613afb565b60c06103c051015261172160e06103c05101516114e36114dd610360516101005161014051613afb565b60e06103c051015261066051806000198101116115f4576000190161036051036117e1575b61175d6116c361036051610660516104e051613afb565b61177161036051610320516105a051613afb565b35611786610360516101005161014051613afb565b35906001600160a01b036040519361179d85612ec6565b168352602083015260408201526117ba61036051610300516138f3565b526117cb61036051610300516138f3565b506117d8610360516138ca565b61036052611693565b6117f160a06103c0510151613ba6565b60a06103c051015261180960c06103c0510151613ba6565b60c06103c051015261182160e06103c0510151613ba6565b60e06103c0510152611746565b61183a61058051613bf2565b6102205260005b61058051808210156119675761186e906114ae6116c86116c3856101006103c05101519461038051613afb565b6101006103c051015261189d6101206103c05101516114ae611897846105c05161026051613afb565b35614289565b6101206103c05101526105805190816000198101116115f4576119299160001901810361192e575b6118d96116c3826105805161038051613afb565b6118ea826105c05161026051613afb565b356001600160a01b036040519261190084612ee2565b168252602082015261191582610220516138f3565b5261192381610220516138f3565b506138ca565b611841565b61193f6101006103c0510151613ba6565b6101006103c05101526119596101206103c0510151613ba6565b6101206103c05101526118c5565b6119836119766102a051612f20565b6040518061042052612efe565b6102a0516104205152601f1961199b6102a051612f20565b0160005b818110612a2d5760006102c0525b6102a0516102c0519080821015611ccb576114ae6116c86116c36119de946101406103c05101519461048051613afb565b6101406103c05101526119f86101606103c0510151613c53565b6101606103c0510152611a126101806103c0510151613c53565b6101806103c0510152611a38611a316102c05160a05161034051613c8b565b9050613bf2565b6105405260006101c0525b611a566102c05160a05161034051613c8b565b90506101c0511015611bb857611a946101606103c05101516114ae6116c86116c3611a8a6102c05160a05161034051613c8b565b6101c05191613afb565b6101606103c0510152611ac36101806103c05101516114ae611897611a8a6102c051610200516101e051613c8b565b6101806103c0510152611adf6102c05160a05161034051613c8b565b8091506000198101116115f457600019016101c05103611b7f575b611b136116c3611a8a6102c05160a05161034051613c8b565b611b2a611a8a6102c051610200516101e051613c8b565b356001600160a01b0360405192611b4084612ee2565b1682526020820152611b586101c051610540516138f3565b52611b696101c051610540516138f3565b50611b766101c0516138ca565b6101c052611a43565b611b906101606103c0510151613ba6565b6101606103c0510152611baa6101806103c0510151613ba6565b6101806103c0510152611afa565b611bc96101606103c0510151613cd0565b6101606103c0510152611be36101806103c0510151613cd0565b6101806103c05101526102a051806000198101116115f457600019016102c05103611c78575b611c206116c36102c0516102a05161048051613afb565b6001600160a01b0360405191611c3583612ee2565b168152610540516020820152611c516102c051610420516138f3565b52611c626102c051610420516138f3565b50611c6f6102c0516138ca565b6102c0526119ad565b611c896101406103c0510151613ba6565b6101406103c0510152611ca36101606103c0510151613ba6565b6101606103c0510152611cbd6101806103c0510151613ba6565b6101806103c0510152611c09565b611eed60456103c05180519060208101516103a0526040810151606082015190608083015160a084015160c085015160e08601516101008701519161012088015193610140890151956101608a0151976101a06101808c01519b01519b605b60f81b60206040518060e0520152611d4e815180926020602160e051019101612fb4565b60e05101600b60fa1b60218201526103a05190611d75825180936020602285019101612fb4565b01612c5b60f01b6022820152611d95825180936020602485019101612fb4565b0198625d2c5b60e81b998a6024820152611db9825180936020602785019101612fb4565b01896027820152611dd4825180936020602a85019101612fb4565b0188602a820152611def825180936020602d85019101612fb4565b0187602d820152611e0a825180936020603085019101612fb4565b01866030820152611e25825180936020603385019101612fb4565b01856033820152611e40825180936020603685019101612fb4565b01846036820152611e5b825180936020603985019101612fb4565b01836039820152611e76825180936020603c85019101612fb4565b0182603c820152611e91825180936020603f85019101612fb4565b0190603f820152611eac825180936020604285019101612fb4565b0161174b60f21b6042820152611ecc825180936020604485019101612fb4565b01605d60f81b604482015260e051809103906025820190520160e051612efe565b604051611ef981612ea9565b611f0a3661060051610500516132de565b815260243560208201526101a43560408201526102805160608201526102205160808201526104205160a08201526103005160c08201523360e08201526000610100820152600160005b61012051811015612a2757611f70816106205161044051613afb565b35604051611fa960408260208101946020611f9360e05188815193849201612fb4565b8201906020820152036020810184520182612efe565b51902060206001600160a01b036084611fcc6116c3866101205161064051613afb565b611fdd866101805161024051613ab9565b809160405197889687956301a86b5560e41b8752166004860152602485015260606044850152816064850152848401376000828201840152601f01601f1916810103018173__$267c3dc7aa7d3fe2e28bda43a2ca27cd27$__5af48015612a1b576001916000916129ec575b5015150361205f5761205a906138ca565b611f54565b505060005b156129a757612083602082518160405193828580945193849201612fb4565b810160fe81520301902090805191825167ffffffffffffffff8111610e04576120ac8254613641565b601f8111612975575b506020601f821160011461290d5781929394600092612902575b50508160011b916000199060031b1c19161781555b60208201516001820155604082015160028201556060820151805190680100000000000000008211610e04576003830154826003850155808310612857575b50602001906003830160005260206000206000925b82841061272257858560048101608083015190602082519261215a8484613d1f565b019060005260206000206000915b8383106126ec57858560a0820151805190680100000000000000008211610e04576005830154826005850155808310612644575b506020016005830160005260206000206000915b8383106125ac57858560c0820151805190680100000000000000008211610e04576006830154826006850155808310612553575b506020016006830160005260206000206000915b8383106125135785600786016001600160a01b0360e0830151168154907fffffffffffffffffffffff00000000000000000000000000000000000000000074ff0000000000000000000000000000000000000000610100860151151560a01b16921617179055805190815167ffffffffffffffff8111610e045761227d60fd54613641565b601f81116124b9575b50602092601f8211600114612437579281929360009261242c575b50508160011b916000199060031b1c19161760fd555b6000805b6104005180518310156123ed576122da836001600160a01b03926138f3565b5116331460001461231457503360005260fc6020526040600020805490600a82018092116115f4575561230e6001916138ca565b906122bb565b90816123b157806001600160a01b0361233361230e93610400516138f3565b511660005260fc8060205260056040600020541015600014612387576005905b6001600160a01b0361236884610400516138f3565b511660005260205261238060406000209182546138d9565b90556138ca565b6001600160a01b0361239c83610400516138f3565b51166000528060205260406000205490612353565b6001600160a01b036123c682610400516138f3565b511660005260fc6020526040600020908154600181018091116115f45761230e92556138ca565b7fc53a4e1db72f8c6fde77b85b4cc21a59f9896e9d7285f890075356dbd528d1cd6124278551604051918291602083526020830190612fd7565b0390a1005b0151905083806122a1565b601f1982169360fd6000527f9346ac6dd7de6b96975fec380d4d994c4c12e6a8897544f22915316cc6cca2809160005b8681106124a15750836001959610612488575b505050811b0160fd556122b7565b015160001960f88460031b161c1916905583808061247a565b91926020600181928685015181550194019201612467565b6125039060fd6000527f9346ac6dd7de6b96975fec380d4d994c4c12e6a8897544f22915316cc6cca280601f840160051c81019160208510612509575b601f0160051c0190613d08565b83612286565b90915081906124f6565b60036020826040600194516001600160a01b038151166001600160a01b0319885416178755838101518688015501516002860155019201920191906121f8565b60038181020481036115f45760038381020483036115f4576006840160005260206000208360030281015b82600302820181106125915750506121e4565b8060006003925560006001820155600060028201550161257e565b80516001600160a01b038151166001600160a01b03198454161783556020600184019101519060208251926125e18484613d1f565b01906000526020600020906000905b83821061260e575050505060026020600192019201920191906121b0565b600260208281600194516001600160a01b038151166001600160a01b0319895416178855015184870155019301910190916125f0565b6001600160ff1b03811681036115f4576001600160ff1b03831683036115f4576005840160005260206000208360011b81015b8260011b8201811061268a57505061219c565b60008155600181015460006001830155806126a9575b50600201612677565b6001600160ff1b03811681036115f4576001820160005260206000209060011b8101905b8181106126da57506126a0565b600080825560018201556002016126cd565b600260208281600194516001600160a01b038151166001600160a01b031988541617875501518486015501920192019190612168565b8051805180519067ffffffffffffffff8211610e04576127428554613641565b601f811161281a575b50602090601f83116001146127a857600393836020946001979460409460009261279d575b505060001982881b1c191690871b1787555b83810151868801550151600286015501920193019290612138565b015190508d80612770565b908560005260206000209160005b601f1985168110612802575093600184819794604094600398602098601f198116106127ea575b505050811b018755612782565b0151600019838a1b60f8161c191690558d80806127dd565b919260206001819286850151815501940192016127b6565b612847908660005260206000206005601f8601811c8201926020871061284d575b601f01901c0190613d08565b8961274b565b919250829161283b565b60038181020481036115f45760038381020483036115f4576003840160005260206000208360030281015b8260030282018110612895575050612123565b806128a260039254613641565b806128bd575b50600060018201556000600282015501612882565b601f81116001146128d45750600081555b886128a8565b6128f390826000526001601f6020600020920160051c82019101613d08565b600060208120818355556128ce565b0151905084806120cf565b8260005260206000209060005b601f198416811061295d5750600193949583601f19811610612944575b505050811b0181556120e4565b015160001960f88460031b161c19169055848080612937565b9091602060018192858a01518155019301910161291a565b6129a190836000526020600020601f840160051c8101916020851061250957601f0160051c0190613d08565b846120b5565b60405162461bcd60e51b815260206004820152601d60248201527f6572726f725f696e76616c69645265706f72745369676e6174757265730000006044820152606490fd5b612a0e915060203d602011612a14575b612a068183612efe565b810190613aa1565b85612049565b503d6129fc565b6040513d6000823e3d90fd5b50612064565b602090604051612a3c81612ee2565b600081526060838201528282610420510101520161199f565b60405162461bcd60e51b815260206004820152601560248201527f6572726f725f696e76616c69645265706f7274657200000000000000000000006044820152606490fd5b505050611277565b60405162461bcd60e51b815260206004820152601260248201527f6572726f725f71756f72756d4e6f744d657400000000000000000000000000006044820152606490fd5b60405162461bcd60e51b815260206004820152601360248201527f6572726f725f696e76616c696450726f6f6673000000000000000000000000006044820152606490fd5b60405162461bcd60e51b815260206004820152601360248201527f6572726f725f696e76616c69645265706f7274000000000000000000000000006044820152606490fd5b506001612b7c613797565b01546024351161117c565b60405162461bcd60e51b815260206004820152601c60248201527f6572726f725f7265706f7274416c726561647950726f636573736564000000006044820152606490fd5b60405162461bcd60e51b815260206004820152601360248201527f6572726f725f7374616b655265717569726564000000000000000000000000006044820152606490fd5b612c2a915060203d602011612a1457612a068183612efe565b8161113e565b34610178576020806003193601126101785760043567ffffffffffffffff811161017857612c6382913690600401612f86565b9190612c6d6135fd565b50826040519384928337810160fe8152030190209060405190612c8f82612ea9565b612c988361367b565b82526001808401548284015260029182850154604085015260038086018054612cc081612f20565b91612cce6040519384612efe565b81835260009081528481208685878087015b868610612e2857505050505050506060860152612cff60048701613721565b6080860152600586018054612d1381612f20565b91612d216040519384612efe565b81835260009081528481208688878087015b868610612dee575050505050505060a086015260068601805492612d5684612f20565b95612d646040519788612efe565b8487526000928352818320908288015b868510612db25760c08a0189905260078b01546001600160a01b03811660e08c015260a01c60ff1615156101008b0152604051806103788c82613044565b85848992604051612dc281612ec6565b6001600160a01b0387541681528487015483820152858701546040820152815201930194019391612d74565b604051612dfa81612ee2565b6001600160a01b038654168152612e12858701613721565b8382015281520192019201919088878992612d33565b604051612e3481612ec6565b612e3d8661367b565b815284860154838201528c860154604082015281520192019201919085878992612ce0565b346101785760203660031901126101785760043567ffffffffffffffff81116101785736602382011215610178576106466111f66020923690602481600401359101612f38565b610120810190811067ffffffffffffffff821117610e0457604052565b6060810190811067ffffffffffffffff821117610e0457604052565b6040810190811067ffffffffffffffff821117610e0457604052565b90601f8019910116810190811067ffffffffffffffff821117610e0457604052565b67ffffffffffffffff8111610e045760051b60200190565b9291612f4382612f20565b91612f516040519384612efe565b829481845260208094019160051b810192831161017857905b828210612f775750505050565b81358152908301908301612f6a565b9181601f840112156101785782359167ffffffffffffffff8311610178576020838186019501011161017857565b60005b838110612fc75750506000910152565b8181015183820152602001612fb7565b90602091612ff081518092818552858086019101612fb4565b601f01601f1916010190565b90815180825260208080930193019160005b82811061301c575050505090565b835180516001600160a01b03168652820151858301526040909401939281019260010161300e565b602091828252805190613064610120928386860152610140850190612fd7565b93808201516040908186015280830151916060928387015282840151601f19978888820301608089015281518082528382019184808360051b8301019401926000915b888d8585106131d257505050505050506130cf906080860151898983030160a08a0152612ffc565b9160a085015192888882030160c089015283518082528382019184808360051b8301019601926000915b8c8484106131855750505050505060c0850151978784030160e08801528180895194858152019801936000915b848310613154575050505050506001600160a01b0360e0820151169061010091828501520151151591015290565b855180516001600160a01b03168b52808501518b8601528101518a8201529881019894830194600190920191613126565b96806131be8a89838a9e9b9c9a8798999a9b829f9860019903018a52516001600160a01b03815116845201519181858201520190612ffc565b9a01930193019193929097969594976130f9565b9780999891888293856001969798999a9b030187528a806131fd8c5194855190808652850190612fd7565b9385810151868501520151910152970193019301919392909695966130a7565b9181601f840112156101785782359167ffffffffffffffff8311610178576020808501948460051b01011161017857565b600435906001600160a01b038216820361017857565b929161326f82612f20565b9161327d6040519384612efe565b829481845260208094019160051b810192831161017857905b8282106132a35750505050565b81356001600160a01b0381168103610178578152908301908301613296565b67ffffffffffffffff8111610e0457601f01601f191660200190565b9291926132ea826132c2565b916132f86040519384612efe565b829481845281830111610178578281602093846000960137010152565b6001600160a01b0360975416330361332957565b606460405162461bcd60e51b815260206004820152602060248201527f4f776e61626c653a2063616c6c6572206973206e6f7420746865206f776e65726044820152fd5b609754906001600160a01b0380911691826001600160a01b0319821617609755167f8be0079c531659141344cd1fd0a4f28419497f9722a3daafe3b4186f6b6457e0600080a3565b156133bc57565b60405162461bcd60e51b815260206004820152602c60248201527f46756e6374696f6e206d7573742062652063616c6c6564207468726f7567682060448201527f64656c656761746563616c6c00000000000000000000000000000000000000006064820152608490fd5b1561342e57565b60405162461bcd60e51b815260206004820152602c60248201527f46756e6374696f6e206d7573742062652063616c6c6564207468726f7567682060448201527f6163746976652070726f787900000000000000000000000000000000000000006064820152608490fd5b803b156134dc576001600160a01b037f360894a13ba1a3210667c828492db98dca3e2076cc3735a920a3ca505d382bbc91166001600160a01b0319825416179055565b60405162461bcd60e51b815260206004820152602d60248201527f455243313936373a206e657720696d706c656d656e746174696f6e206973206e60448201527f6f74206120636f6e7472616374000000000000000000000000000000000000006064820152608490fd5b90919015613553575090565b8151156135635750805190602001fd5b60405162461bcd60e51b815260206004820152908190613587906024830190612fd7565b0390fd5b1561359257565b60405162461bcd60e51b815260206004820152602b60248201527f496e697469616c697a61626c653a20636f6e7472616374206973206e6f74206960448201527f6e697469616c697a696e670000000000000000000000000000000000000000006064820152608490fd5b6040519061360a82612ea9565b600061010083606080825283602083015283604083015280808301528060808301528060a083015260c08201528260e08201520152565b90600182811c92168015613671575b602083101461365b57565b634e487b7160e01b600052602260045260246000fd5b91607f1691613650565b906040519182600082549261368f84613641565b9081845260019485811690816000146136fe57506001146136bb575b50506136b992500383612efe565b565b9093915060005260209081600020936000915b8183106136e65750506136b9935082010138806136ab565b855488840185015294850194879450918301916136ce565b9150506136b994506020925060ff191682840152151560051b82010138806136ab565b90815461372d81612f20565b9260409361373d85519182612efe565b828152809460208092019260005281600020906000935b85851061376357505050505050565b600284600192845161377481612ee2565b6001600160a01b0387541681528487015483820152815201930194019391613754565b60405160fd548160006137a983613641565b9260019081811690811561382657506001146137d0575b506020925060fe81520301902090565b60fd600090815291507f9346ac6dd7de6b96975fec380d4d994c4c12e6a8897544f22915316cc6cca2805b848310613810575050506020918101386137c0565b80548684015285935060209092019181016137fb565b60ff191684525060209380151502830191503890506137c0565b60209081818403126101785780519067ffffffffffffffff821161017857019180601f8401121561017857825161387681612f20565b936138846040519586612efe565b818552838086019260051b820101928311610178578301905b8282106138ab575050505090565b81516001600160a01b038116810361017857815290830190830161389d565b60001981146115f45760010190565b919082039182116115f457565b919082018092116115f457565b80518210156139075760209160051b010190565b634e487b7160e01b600052603260045260246000fd5b6001600160a01b03908160ff54169160408051808095636085a91160e11b8252600091829160049889915afa918215613a95578192613a71575b50818251958291600019918289019189831191825b613a5e5783861015613a5057865b613984878d6138d9565b868101908111613a2257811015613a365760018101808211613a22579089828d8b8e826139b46139e598876138f3565b5116825260fc60208181528284205493856139cf8a8a6138f3565b51169052528d2054106139ea575b5050506138ca565b61397a565b80613a0585613a0e936139fd86886138f3565b5116956138f3565b5116918d6138f3565b52613a19828c6138f3565b5289388d6139dd565b50634e487b7160e01b885260118d52602488fd5b509194613a45909391936138ca565b94918293919361396c565b995099505050505050505050565b634e487b7160e01b875260118c52602487fd5b613a8e9192503d8084833e613a868183612efe565b810190613840565b9038613957565b508251903d90823e3d90fd5b90816020910312610178575180151581036101785790565b91908110156139075760051b81013590601e198136030182121561017857019081359167ffffffffffffffff8311610178576020018236038113610178579190565b91908110156139075760051b0190565b60226136b9919392936040519481613b2d879351809260208087019101612fb4565b820190601160f91b91826020820152613b50825180936020602185019101612fb4565b01906021820152036002810185520183612efe565b60206136b9919392936040519481613b868793518092868087019101612fb4565b8201613b9a82518093868085019101612fb4565b01038085520183612efe565b906136b9602160405184613bc4829651809260208086019101612fb4565b8101600b60fa1b6020820152036001810185520183612efe565b356001600160a01b03811681036101785790565b90613bfc82612f20565b604090613c0b82519182612efe565b8381528093613c1c601f1991612f20565b0191600090815b848110613c31575050505050565b6020908251613c3f81612ee2565b848152828581830152828701015201613c23565b906136b9602160405184613c71829651809260208086019101612fb4565b8101605b60f81b6020820152036001810185520183612efe565b91908110156139075760051b81013590601e198136030182121561017857019081359167ffffffffffffffff8311610178576020018260051b36038113610178579190565b906136b9602160405184613cee829651809260208086019101612fb4565b8101605d60f81b6020820152036001810185520183612efe565b818110613d13575050565b60008155600101613d08565b680100000000000000008211610e04578054828255808310613d4057505050565b6001600160ff1b0380821682036115f457831683036115f457600091825260208220600191821b810193821b015b838110613d7b5750505050565b808360029255838382015501613d6e565b90600091600090816001600160a01b0392818460ff541660405193848092636085a91160e11b825260049384915afa938415613eef578294613ed3575b508351946402540be4009081870296808804831490151715613ec05760019998978a97881c96859b5b613e05575b505050505050505050909150565b80518c1015613ebb578886838e835b613e54575b5050505087871015613e3957613e31899a9b9c6138ca565b9b9a99613df2565b50505050505050509150915081388080808080808080613df7565b8651831015613eb657613e6790856138f3565b511684613e7483886138f3565b511614613e8c57613e84906138ca565b838e83613e14565b505095838101809111613ea357958838838e613e19565b634e487b7160e01b865260118552602486fd5b613e19565b613df7565b634e487b7160e01b845260118352602484fd5b613ee89194503d8084833e613a868183612efe565b9238613dc9565b6040513d84823e3d90fd5b90600091825b8151841015613f4557613f1384836138f3565b51906402540be400918281029281840414901517156115f457613f3f91613f39916138e6565b936138ca565b92613f00565b91925051908115613f54570490565b634e487b7160e01b600052601260045260246000fd5b6103e88042029042820414421517156115f4576509184e72a0004202908082046402540be40014901517156115f45790565b806000917a184f03e93ff9f4daa797ed6e38ed64bf6a1f010000000000000000808210156140f6575b506d04ee2d6d415b85acef8100000000808310156140e7575b50662386f26fc10000808310156140d8575b506305f5e100808310156140c9575b50612710808310156140ba575b5060648210156140aa575b600a809210156140a0575b60019081602181860195614035876132c2565b966140436040519889612efe565b808852614052601f19916132c2565b01366020890137860101905b61406a575b5050505090565b600019019083906f181899199a1a9b1b9c1cb0b131b232b360811b8282061a83530491821561409b5791908261405e565b614063565b9160010191614022565b9190606460029104910191614017565b6004919392049101913861400c565b60089193920491019138613fff565b60109193920491019138613ff0565b60209193920491019138613fde565b604093508104915038613fc5565b8060008260801c8061427e575b508160401c80614273575b508160201c80614268575b5060109180831c8061425b575b5060081c614253575b6001809101929183821b936001600160ff1b038116036115f45760028401938481116115f45761418561416f866132c2565b9561417d6040519788612efe565b8087526132c2565b6020860190601f19013682378551156139075760309053845183101561390757607860218601538281018091116115f45791905b81831161420e575050506141ca5790565b606460405162461bcd60e51b815260206004820152602060248201527f537472696e67733a20686578206c656e67746820696e73756666696369656e746044820152fd5b909192600f811682811015613907576f181899199a1a9b1b9c1cb0b131b232b360811b901a61423d858761434c565b5360041c9280156115f4576000190191906141b9565b60010161413d565b6002915091019038614134565b915060040138614127565b91506008013861411c565b915050601038614111565b600080821291908215614307576142c56142fe926020926040516142ac81612ee2565b60018152602d60f81b85820152955b6143015750614104565b9260405193816142de8693518092868087019101612fb4565b82016142f282518093868085019101612fb4565b01038084520182612efe565b90565b03614104565b6040516020810181811067ffffffffffffffff82111761433857604052818152926142fe926020926142c5926142bb565b634e487b7160e01b83526041600452602483fd5b908151811015613907570160200190565b6001600160a01b03166040519061437382612ec6565b602a82526020820160403682378251156139075760309053815160019081101561390757607860218401536029905b8082116143b25750506141ca5790565b9091600f8116601081101561440b576f181899199a1a9b1b9c1cb0b131b232b360811b901a6143e1848661434c565b5360041c9180156143f65760001901906143a2565b60246000634e487b7160e01b81526011600452fd5b60246000634e487b7160e01b81526032600452fdfea2646970667358221220ebb5e02da7ddac976481d549bdf58f5db7c316330a7d75e67bab435ed95fbdda64736f6c63430008110033",
  "linkReferences": {
    "src/lib/VerifySignature.sol": {
      "VerifySignature": [
        {
          "length": 20,
          "start": 8282
        }
      ]
    }
  },
  "deployedLinkReferences": {
    "src/lib/VerifySignature.sol": {
      "VerifySignature": [
        {
          "length": 20,
          "start": 8227
        }
      ]
    }
  }
}