{
  "_format": "hh-sol-artifact-1",
  "contractName": "LogStoreReportManager",
  "sourceName": "src/ReportManager.sol",
  "abi": [
    {
      "anonymous": false,
      "inputs": [
        {
          "indexed": false,
          "internalType": "address",
          "name": "previousAdmin",
          "type": "address"
        },
        {
          "indexed": false,
          "internalType": "address",
          "name": "newAdmin",
          "type": "address"
        }
      ],
      "name": "AdminChanged",
      "type": "event"
    },
    {
      "anonymous": false,
      "inputs": [
        {
          "indexed": true,
          "internalType": "address",
          "name": "beacon",
          "type": "address"
        }
      ],
      "name": "BeaconUpgraded",
      "type": "event"
    },
    {
      "anonymous": false,
      "inputs": [
        {
          "indexed": false,
          "internalType": "uint8",
          "name": "version",
          "type": "uint8"
        }
      ],
      "name": "Initialized",
      "type": "event"
    },
    {
      "anonymous": false,
      "inputs": [
        {
          "indexed": false,
          "internalType": "bool",
          "name": "isMet",
          "type": "bool"
        }
      ],
      "name": "Logger",
      "type": "event"
    },
    {
      "anonymous": false,
      "inputs": [
        {
          "indexed": true,
          "internalType": "address",
          "name": "previousOwner",
          "type": "address"
        },
        {
          "indexed": true,
          "internalType": "address",
          "name": "newOwner",
          "type": "address"
        }
      ],
      "name": "OwnershipTransferred",
      "type": "event"
    },
    {
      "anonymous": false,
      "inputs": [
        {
          "indexed": false,
          "internalType": "string",
          "name": "raw",
          "type": "string"
        }
      ],
      "name": "ReportAccepted",
      "type": "event"
    },
    {
      "anonymous": false,
      "inputs": [
        {
          "indexed": true,
          "internalType": "address",
          "name": "implementation",
          "type": "address"
        }
      ],
      "name": "Upgraded",
      "type": "event"
    },
    {
      "inputs": [],
      "name": "getLastReport",
      "outputs": [
        {
          "components": [
            {
              "internalType": "string",
              "name": "id",
              "type": "string"
            },
            {
              "internalType": "uint256",
              "name": "height",
              "type": "uint256"
            },
            {
              "internalType": "int256",
              "name": "treasury",
              "type": "int256"
            },
            {
              "components": [
                {
                  "internalType": "string",
                  "name": "id",
                  "type": "string"
                },
                {
                  "internalType": "uint256",
                  "name": "writeCapture",
                  "type": "uint256"
                },
                {
                  "internalType": "uint256",
                  "name": "writeBytes",
                  "type": "uint256"
                }
              ],
              "internalType": "struct LogStoreReportManager.Stream[]",
              "name": "streams",
              "type": "tuple[]"
            },
            {
              "components": [
                {
                  "internalType": "address",
                  "name": "id",
                  "type": "address"
                },
                {
                  "internalType": "int256",
                  "name": "amount",
                  "type": "int256"
                }
              ],
              "internalType": "struct LogStoreReportManager.Node[]",
              "name": "nodes",
              "type": "tuple[]"
            },
            {
              "components": [
                {
                  "internalType": "address",
                  "name": "id",
                  "type": "address"
                },
                {
                  "components": [
                    {
                      "internalType": "address",
                      "name": "id",
                      "type": "address"
                    },
                    {
                      "internalType": "int256",
                      "name": "amount",
                      "type": "int256"
                    }
                  ],
                  "internalType": "struct LogStoreReportManager.Node[]",
                  "name": "nodes",
                  "type": "tuple[]"
                }
              ],
              "internalType": "struct LogStoreReportManager.Delegate[]",
              "name": "delegates",
              "type": "tuple[]"
            },
            {
              "components": [
                {
                  "internalType": "address",
                  "name": "id",
                  "type": "address"
                },
                {
                  "internalType": "uint256",
                  "name": "readCapture",
                  "type": "uint256"
                },
                {
                  "internalType": "uint256",
                  "name": "readBytes",
                  "type": "uint256"
                }
              ],
              "internalType": "struct LogStoreReportManager.Consumer[]",
              "name": "consumers",
              "type": "tuple[]"
            },
            {
              "internalType": "address",
              "name": "_reporter",
              "type": "address"
            },
            {
              "internalType": "bool",
              "name": "_processed",
              "type": "bool"
            }
          ],
          "internalType": "struct LogStoreReportManager.Report",
          "name": "",
          "type": "tuple"
        }
      ],
      "stateMutability": "view",
      "type": "function"
    },
    {
      "inputs": [
        {
          "internalType": "string",
          "name": "id",
          "type": "string"
        }
      ],
      "name": "getReport",
      "outputs": [
        {
          "components": [
            {
              "internalType": "string",
              "name": "id",
              "type": "string"
            },
            {
              "internalType": "uint256",
              "name": "height",
              "type": "uint256"
            },
            {
              "internalType": "int256",
              "name": "treasury",
              "type": "int256"
            },
            {
              "components": [
                {
                  "internalType": "string",
                  "name": "id",
                  "type": "string"
                },
                {
                  "internalType": "uint256",
                  "name": "writeCapture",
                  "type": "uint256"
                },
                {
                  "internalType": "uint256",
                  "name": "writeBytes",
                  "type": "uint256"
                }
              ],
              "internalType": "struct LogStoreReportManager.Stream[]",
              "name": "streams",
              "type": "tuple[]"
            },
            {
              "components": [
                {
                  "internalType": "address",
                  "name": "id",
                  "type": "address"
                },
                {
                  "internalType": "int256",
                  "name": "amount",
                  "type": "int256"
                }
              ],
              "internalType": "struct LogStoreReportManager.Node[]",
              "name": "nodes",
              "type": "tuple[]"
            },
            {
              "components": [
                {
                  "internalType": "address",
                  "name": "id",
                  "type": "address"
                },
                {
                  "components": [
                    {
                      "internalType": "address",
                      "name": "id",
                      "type": "address"
                    },
                    {
                      "internalType": "int256",
                      "name": "amount",
                      "type": "int256"
                    }
                  ],
                  "internalType": "struct LogStoreReportManager.Node[]",
                  "name": "nodes",
                  "type": "tuple[]"
                }
              ],
              "internalType": "struct LogStoreReportManager.Delegate[]",
              "name": "delegates",
              "type": "tuple[]"
            },
            {
              "components": [
                {
                  "internalType": "address",
                  "name": "id",
                  "type": "address"
                },
                {
                  "internalType": "uint256",
                  "name": "readCapture",
                  "type": "uint256"
                },
                {
                  "internalType": "uint256",
                  "name": "readBytes",
                  "type": "uint256"
                }
              ],
              "internalType": "struct LogStoreReportManager.Consumer[]",
              "name": "consumers",
              "type": "tuple[]"
            },
            {
              "internalType": "address",
              "name": "_reporter",
              "type": "address"
            },
            {
              "internalType": "bool",
              "name": "_processed",
              "type": "bool"
            }
          ],
          "internalType": "struct LogStoreReportManager.Report",
          "name": "",
          "type": "tuple"
        }
      ],
      "stateMutability": "view",
      "type": "function"
    },
    {
      "inputs": [
        {
          "internalType": "address",
          "name": "_owner",
          "type": "address"
        }
      ],
      "name": "initialize",
      "outputs": [],
      "stateMutability": "nonpayable",
      "type": "function"
    },
    {
      "inputs": [],
      "name": "owner",
      "outputs": [
        {
          "internalType": "address",
          "name": "",
          "type": "address"
        }
      ],
      "stateMutability": "view",
      "type": "function"
    },
    {
      "inputs": [
        {
          "internalType": "string",
          "name": "id",
          "type": "string"
        }
      ],
      "name": "processReport",
      "outputs": [],
      "stateMutability": "nonpayable",
      "type": "function"
    },
    {
      "inputs": [],
      "name": "proxiableUUID",
      "outputs": [
        {
          "internalType": "bytes32",
          "name": "",
          "type": "bytes32"
        }
      ],
      "stateMutability": "view",
      "type": "function"
    },
    {
      "inputs": [
        {
          "internalType": "address[]",
          "name": "submittedNodes",
          "type": "address[]"
        }
      ],
      "name": "quorumIsMet",
      "outputs": [
        {
          "internalType": "bool",
          "name": "isMet",
          "type": "bool"
        }
      ],
      "stateMutability": "view",
      "type": "function"
    },
    {
      "inputs": [],
      "name": "renounceOwnership",
      "outputs": [],
      "stateMutability": "nonpayable",
      "type": "function"
    },
    {
      "inputs": [
        {
          "internalType": "string",
          "name": "id",
          "type": "string"
        },
        {
          "internalType": "uint256",
          "name": "blockHeight",
          "type": "uint256"
        },
        {
          "internalType": "string[]",
          "name": "streams",
          "type": "string[]"
        },
        {
          "internalType": "uint256[]",
          "name": "writeCaptureAmounts",
          "type": "uint256[]"
        },
        {
          "internalType": "uint256[]",
          "name": "writeBytes",
          "type": "uint256[]"
        },
        {
          "internalType": "address[]",
          "name": "readConsumerAddresses",
          "type": "address[]"
        },
        {
          "internalType": "uint256[]",
          "name": "readCaptureAmounts",
          "type": "uint256[]"
        },
        {
          "internalType": "uint256[]",
          "name": "readBytes",
          "type": "uint256[]"
        },
        {
          "internalType": "address[]",
          "name": "nodes",
          "type": "address[]"
        },
        {
          "internalType": "int256[]",
          "name": "nodeChanges",
          "type": "int256[]"
        },
        {
          "internalType": "address[]",
          "name": "delegates",
          "type": "address[]"
        },
        {
          "internalType": "address[][]",
          "name": "delegateNodes",
          "type": "address[][]"
        },
        {
          "internalType": "int256[][]",
          "name": "delegateNodeChanges",
          "type": "int256[][]"
        },
        {
          "internalType": "int256",
          "name": "treasurySupplyChange",
          "type": "int256"
        },
        {
          "internalType": "address[]",
          "name": "addresses",
          "type": "address[]"
        },
        {
          "internalType": "bytes[]",
          "name": "signatures",
          "type": "bytes[]"
        }
      ],
      "name": "report",
      "outputs": [],
      "stateMutability": "nonpayable",
      "type": "function"
    },
    {
      "inputs": [
        {
          "internalType": "address",
          "name": "newOwner",
          "type": "address"
        }
      ],
      "name": "transferOwnership",
      "outputs": [],
      "stateMutability": "nonpayable",
      "type": "function"
    },
    {
      "inputs": [
        {
          "internalType": "address",
          "name": "newImplementation",
          "type": "address"
        }
      ],
      "name": "upgradeTo",
      "outputs": [],
      "stateMutability": "nonpayable",
      "type": "function"
    },
    {
      "inputs": [
        {
          "internalType": "address",
          "name": "newImplementation",
          "type": "address"
        },
        {
          "internalType": "bytes",
          "name": "data",
          "type": "bytes"
        }
      ],
      "name": "upgradeToAndCall",
      "outputs": [],
      "stateMutability": "payable",
      "type": "function"
    }
  ],
  "bytecode": "0x60a080604052346100315730608052613c0090816100378239608051818181611f000152818161200d01526123240152f35b600080fdfe6104c0604052600436101561001357600080fd5b60003560e01c806312e63d711461260557806325cbbdff146125b45780633659cfe6146122ff5780634f1ef28614611fbb57806352d1902d14611ee5578063715018a614611e8a5780638da5cb5b14611e635780639f29124b14610593578063c4d66de8146103ea578063eefa7a3e146101e1578063f2fde38b1461013b5763f6883c05146100a157600080fd5b346101365760203660031901126101365760043567ffffffffffffffff81116101365760206100d66007923690600401612837565b91906100e0612c55565b826040519384928337810160ff81520301902001740100000000000000000000000000000000000000007fffffffffffffffffffffff00ffffffffffffffffffffffffffffffffffffffff825416179055600080f35b600080fd5b3461013657602036600319011261013657610154612b5d565b61015c612c55565b6001600160a01b038116156101765761017490612cad565b005b60405162461bcd60e51b815260206004820152602660248201527f4f776e61626c653a206e6577206f776e657220697320746865207a65726f206160448201527f64647265737300000000000000000000000000000000000000000000000000006064820152608490fd5b34610136576000366003190112610136576101fa612f3d565b506102036130d7565b60405161020f81612ace565b61021882612fbb565b815260018083015490602091828401526002918285015460408501526003808601805461024481612b45565b916102526040519384612b23565b81835260009081528481208685878087015b8686106103b05750505050505050606086015261028360048701613061565b608086015260058601805461029781612b45565b916102a56040519384612b23565b81835260009081528481208688878087015b868610610376575050505050505060a0860152600686018054926102da84612b45565b956102e86040519788612b23565b8487526000928352818320908288015b86851061033a5760c08a0189905260078b01546001600160a01b03811660e08c015260a01c60ff1615156101008b0152604051806103368c826128f5565b0390f35b8584899260405161034a81612aeb565b6001600160a01b03875416815284870154838201528587015460408201528152019301940193916102f8565b60405161038281612b07565b6001600160a01b03865416815261039a858701613061565b83820152815201920192019190888789926102b7565b6040516103bc81612aeb565b6103c586612fbb565b815284860154838201528c860154604082015281520192019201919085878992610264565b3461013657602036600319011261013657610403612b5d565b6000549060ff8260081c161591828093610586575b801561056f575b156105045760ff198116600117600055826104f2575b5061045060ff60005460081c1661044b81612ecb565b612ecb565b61045933612cad565b61047760ff60005460081c1661046e81612ecb565b61044b81612ecb565b600160c9556001600160a01b038116610100816001600160a01b0319825416179055600a60fb556104a6612c55565b15610176576104b490612cad565b6104ba57005b61ff0019600054166000557f7f26b83ff96e1f2b6a682f133852f6798a09c465da95921460cefb3847402498602060405160018152a1005b61ffff19166101011760005582610435565b60405162461bcd60e51b815260206004820152602e60248201527f496e697469616c697a61626c653a20636f6e747261637420697320616c72656160448201527f647920696e697469616c697a65640000000000000000000000000000000000006064820152608490fd5b50303b15801561041f5750600160ff82161461041f565b50600160ff821610610418565b34610136576102003660031901126101365760043567ffffffffffffffff8111610136576105c5903690600401612837565b610320526101205260443567ffffffffffffffff8111610136576105ed903690600401612c24565b906102c05260643567ffffffffffffffff811161013657610612903690600401612c24565b906103a05260843567ffffffffffffffff811161013657610637903690600401612c24565b60805260e05260a43567ffffffffffffffff81116101365761065d903690600401612c24565b60c43567ffffffffffffffff81116101365761067d903690600401612c24565b610160529067ffffffffffffffff60e43511610136576106a23660e435600401612c24565b919067ffffffffffffffff6101043511610136576106c63661010435600401612c24565b6101e0526103405267ffffffffffffffff6101243511610136576106f03661012435600401612c24565b610440526102805267ffffffffffffffff61014435116101365761071a3661014435600401612c24565b610220526101405267ffffffffffffffff6101643511610136576107443661016435600401612c24565b610100526104805267ffffffffffffffff61018435116101365761076e3661018435600401612c24565b60c0526102e05267ffffffffffffffff6101c4351161013657610797366101c435600401612c24565b610300526103605267ffffffffffffffff6101e43511610136576107c1366101e435600401612c24565b610460526103c052602460206001600160a01b03610100541660405192838092630c2effa360e31b82523360048301525afa908115611cd657600091611e44575b5015611dff5743602435111580611de9575b15611da45761083261082d366103005161036051612b73565b613762565b15611d5f57610847610320516101205161348e565b6000610380525b80516103805190811015611d58576001600160a01b0361086f3392846131a7565b51161461088b5761088261038051613198565b6103805261084e565b5060fb5461038051818102918183041490151715610c14576024358101809111610c1457431115611d13575b6108c2602435613895565b6109bf604e6108d36101a4356139fd565b92604051938491663d9134b2111d1160c91b6020840152610320516101205160278501377f222c22686569676874223a2200000000000000000000000000000000000000006027610320518501015261093b8151809260206033610320518801019101612865565b7f222c227472656173757279223a2200000000000000000000000000000000000060338261032051860101015261098382518093602060418561032051890101019101612865565b61032051830101017f222c2273747265616d73223a5b00000000000000000000000000000000000000604182015203602e810184520182612b23565b610240526109e16109cf88612b45565b80610400526040518061020052612b23565b866102005152601f196109f388612b45565b016000610260525b80610260511015610a4157604051610a1281612aeb565b6060815260006020820152600060408201526020610260516102005101015260206102605101610260526109fb565b5060006104a0525b6104a05187811015610c2a57610b4f610a68603d928a6102c0516131d1565b9290610a84610a7e6104a0518c6103a051613213565b35613895565b607d60f81b610a9e610a7e6104a05160805160e051613213565b916040519687948161024051610abd815180926020808c019101612865565b870191663d9134b2111d1160c91b60208401526027830137016b11161131b0b83a3ab932911d60a11b6027820152610aff825180936020603385019101612865565b017f2c226279746573223a00000000000000000000000000000000000000000000006033820152825190610b3c82603c9560208785019101612865565b019182015203601d810184520182612b23565b806102405287600019810111610c145760001988016104a05103610c01575b50610b806104a051886102c0516131d1565b90610b926104a051896103a051613213565b35610bbe610ba86104a05160805160e051613213565b359260405194610bb786612aeb565b3691612bed565b835260208301526040820152610bda6104a051610200516131a7565b52610beb6104a051610200516131a7565b50610bf86104a051613198565b6104a052610a49565b610c0a90613223565b6102405287610b6e565b634e487b7160e01b600052601160045260246000fd5b5084604051610c82602f8261024051610c4c8151809260208086019101612865565b81017f5d2c22636f6e73756d657273223a5b0000000000000000000000000000000000602082015203600f810184520182612b23565b61024052610ca4610c9284612b45565b8061042052604051806101c052612b23565b826101c05152601f19610cb684612b45565b0160006102a0525b806102a0511015610d0457604051610cd581612aeb565b60008152600060208201526000604082015260206102a0516101c05101015260206102a051016102a052610cbe565b50600060a0525b60a05183811015610e8357610d2c610d27610d31928685613213565b61325b565b613abd565b610dcc603d610d49610a7e60a051610160518b613213565b92610d5a610a7e60a0518a89613213565b607d60f81b60405195869361024051610d7c815180926020808a019101612865565b8501663d9134b2111d1160c91b6020820152610da2825180936020602785019101612865565b016b11161131b0b83a3ab932911d60a11b6027820152610aff825180936020603385019101612865565b806102405283600019810111610c1457600019840160a05103610e70575b50610dfb610d2760a0518584613213565b610e0b60a0516101605188613213565b35610e1960a0518786613213565b35906001600160a01b0360405193610e3085612aeb565b16835260208301526040820152610e4c60a0516101c0516131a7565b52610e5c60a0516101c0516131a7565b50610e6860a051613198565b60a052610d0b565b610e7990613223565b6102405285610dea565b604051610ed9602b8261024051610ea38151809260208086019101612865565b81017f5d2c226e6f646573223a7b000000000000000000000000000000000000000000602082015203600b810184520182612b23565b61024052610ee96101e05161326f565b60005b6101e05180821015610fcf57610f0f610d2c610d2784610f339461034051613213565b610f29610f23846104405161028051613213565b356139fd565b90610240516132d0565b9081610240526101e0519182600019810111610c1457610fb792600019018203610fbc575b50610f6d610d27826101e05161034051613213565b610f7e826104405161028051613213565b356001600160a01b0360405192610f9484612b07565b1682526020820152610fa682856131a7565b52610fb181846131a7565b50613198565b610eec565b610fc590613223565b6102405283610f58565b82604051611026602f8261024051610ff08151809260208086019101612865565b81017f7d2c2264656c656761746573223a7b0000000000000000000000000000000000602082015203600f810184520182612b23565b6102405261104661103961022051612b45565b6040518061018052612b23565b610220516101805152601f1961105e61022051612b45565b0160005b818110611ceb578260006103e0525b610220516103e051818110156112d657610d27610d2c916110959361014051613213565b6110f360246040518093610240516110b68151809260208087019101612865565b8201601160f91b60208201528151906110d88260219460208685019101612865565b019062223a7b60e81b90820152036004810184520182612b23565b6102405261111561110e6103e0516101005161048051613340565b905061326f565b6101a05260005b6111306103e0516101005161048051613340565b90508110156112345761117a611160610d2c610d278461115a6103e0516101005161048051613340565b90613213565b610f29610f238461115a6103e05160c0516102e051613340565b610240526111926103e0516101005161048051613340565b80929150600019810111610c145761121a9160001901810361121f575b6111ca610d278261115a6103e0516101005161048051613340565b6111e18261115a6103e05160c0516102e051613340565b356001600160a01b03604051926111f784612b07565b168252602082015261120c826101a0516131a7565b52610fb1816101a0516131a7565b61111c565b61122b61024051613223565b610240526111af565b506102205180600019810111610c1457600019016103e051036112c1575b611269610d276103e0516102205161014051613213565b6001600160a01b036040519161127e83612b07565b1681526101a051602082015261129a6103e051610180516131a7565b526112ab6103e051610180516131a7565b506112b86103e051613198565b6103e052611071565b6112cd61024051613223565b61024052611252565b82604051611315602382610240516112f78151809260208086019101612865565b8101627d7d7d60e81b60208201526003828203018252030182612b23565b6040519161132283612ace565b611333366103205161012051612bed565b835260243560208401526101a435604084015261020051606084015260808301526101805160a08301526101c05160c08301523360e08301526000610100830152604051602081019061139e60208285516113918187858a01612865565b8101038084520182612b23565b5190209060005b6103005180821015611ce257610d27826113c29261036051613213565b60206001600160a01b0360846113df85610460516103c0516131d1565b8060409692965196879586946301a86b5560e41b86521660048501528a602485015260606044850152816064850152848401376000828201840152601f01601f1916810103018173__$267c3dc7aa7d3fe2e28bda43a2ca27cd27$__5af48015611cd657600191600091611ca7575b501515036114645761145f90613198565b6113a5565b5090505b611482602083518160405193828580945193849201612865565b810160ff81520301902091805192835167ffffffffffffffff81116117fc576114ab8254612f81565b601f8111611c75575b506020601f8211600114611c0c578192939495600092611c01575b50508160011b916000199060031b1c19161781555b60208201516001820155604082015160028201556060820151805190600160401b82116117fc576003830154826003850155808310611b56575b50602001906003830160005260206000206000925b828410611a215750505050600481016080830151906020825192611557848461339c565b019060005260206000206000915b8383106119eb575050505060a0820151805190600160401b82116117fc576005830154826005850155808310611943575b506020016005830160005260206000206000915b8383106118ab575050505060c0820151805190600160401b82116117fc576006830154826006850155808310611852575b506020016006830160005260206000206000915b838310611812578686600787016001600160a01b0360e0830151168154907fffffffffffffffffffffff00000000000000000000000000000000000000000074ff0000000000000000000000000000000000000000610100860151151560a01b169216171790555180519067ffffffffffffffff82116117fc5761167460fc54612f81565b601f81116117a2575b50602090601f83116001146116f75791807fc53a4e1db72f8c6fde77b85b4cc21a59f9896e9d7285f890075356dbd528d1cd94926116e7946000926116ec575b50508160011b916000199060031b1c19161760fc555b604051918291602083526020830190612888565b0390a1005b0151905085806116bd565b90601f1983169160fc6000527f371f36870d18f32a11fea0f144b021c8b407bb50f8e0267c711123f454b963c09260005b81811061178a57509260019285926116e7967fc53a4e1db72f8c6fde77b85b4cc21a59f9896e9d7285f890075356dbd528d1cd989610611771575b505050811b0160fc556116d3565b015160001960f88460031b161c19169055858080611763565b92936020600181928786015181550195019301611728565b6117ec9060fc6000527f371f36870d18f32a11fea0f144b021c8b407bb50f8e0267c711123f454b963c0601f850160051c810191602086106117f2575b601f0160051c0190613385565b8361167d565b90915081906117df565b634e487b7160e01b600052604160045260246000fd5b60036020826040600194516001600160a01b038151166001600160a01b0319885416178755838101518688015501516002860155019201920191906115ef565b6003818102048103610c14576003838102048303610c14576006840160005260206000208360030281015b82600302820181106118905750506115db565b8060006003925560006001820155600060028201550161187d565b80516001600160a01b038151166001600160a01b03198454161783556020600184019101519060208251926118e0848461339c565b01906000526020600020906000905b83821061190d575050505060026020600192019201920191906115aa565b600260208281600194516001600160a01b038151166001600160a01b0319895416178855015184870155019301910190916118ef565b6001600160ff1b0381168103610c14576001600160ff1b0383168303610c14576005840160005260206000208360011b81015b8260011b82018110611989575050611596565b60008155600181015460006001830155806119a8575b50600201611976565b6001600160ff1b0381168103610c14576001820160005260206000209060011b8101905b8181106119d9575061199f565b600080825560018201556002016119cc565b600260208281600194516001600160a01b038151166001600160a01b031988541617875501518486015501920192019190611565565b8051805180519067ffffffffffffffff82116117fc57611a418554612f81565b601f8111611b19575b50602090601f8311600114611aa7576003938360209460019794604094600092611a9c575b505060001982881b1c191690871b1787555b83810151868801550151600286015501920193019290611533565b015190508e80611a6f565b908560005260206000209160005b601f1985168110611b01575093600184819794604094600398602098601f19811610611ae9575b505050811b018755611a81565b0151600019838a1b60f8161c191690558e8080611adc565b91926020600181928685015181550194019201611ab5565b611b46908660005260206000206005601f8601811c82019260208710611b4c575b601f01901c0190613385565b8a611a4a565b9192508291611b3a565b6003818102048103610c14576003838102048303610c14576003840160005260206000208360030281015b8260030282018110611b9457505061151e565b80611ba160039254612f81565b80611bbc575b50600060018201556000600282015501611b81565b601f8111600114611bd35750600081555b89611ba7565b611bf290826000526001601f6020600020920160051c82019101613385565b60006020812081835555611bcd565b0151905085806114cf565b8260005260206000209060005b601f1984168110611c5d575060019394959683601f19811610611c44575b505050811b0181556114e4565b015160001960f88460031b161c19169055858080611c37565b9091602060018192858b015181550193019101611c19565b611ca190836000526020600020601f840160051c810191602085106117f257601f0160051c0190613385565b856114b4565b611cc9915060203d602011611ccf575b611cc18183612b23565b810190613180565b8661144e565b503d611cb7565b6040513d6000823e3d90fd5b50509050611468565b602090604051611cfa81612b07565b6000815260608382015282826101805101015201611062565b60405162461bcd60e51b815260206004820152601560248201527f6572726f725f696e76616c69645265706f7274657200000000000000000000006044820152606490fd5b50506108b7565b60405162461bcd60e51b815260206004820152601260248201527f6572726f725f71756f72756d4e6f744d657400000000000000000000000000006044820152606490fd5b60405162461bcd60e51b815260206004820152601360248201527f6572726f725f696e76616c69645265706f7274000000000000000000000000006044820152606490fd5b506001611df46130d7565b015460243511610814565b60405162461bcd60e51b815260206004820152601360248201527f6572726f725f7374616b655265717569726564000000000000000000000000006044820152606490fd5b611e5d915060203d602011611ccf57611cc18183612b23565b88610802565b346101365760003660031901126101365760206001600160a01b0360975416604051908152f35b3461013657600036600319011261013657611ea3612c55565b60006001600160a01b036097546001600160a01b03198116609755167f8be0079c531659141344cd1fd0a4f28419497f9722a3daafe3b4186f6b6457e08280a3005b34610136576000366003190112610136576001600160a01b037f0000000000000000000000000000000000000000000000000000000000000000163003611f505760206040517f360894a13ba1a3210667c828492db98dca3e2076cc3735a920a3ca505d382bbc8152f35b60405162461bcd60e51b815260206004820152603860248201527f555550535570677261646561626c653a206d757374206e6f742062652063616c60448201527f6c6564207468726f7567682064656c656761746563616c6c00000000000000006064820152608490fd5b604036600319011261013657611fcf612b5d565b60243567ffffffffffffffff8111610136573660238201121561013657612000903690602481600401359101612bed565b906001600160a01b0391827f0000000000000000000000000000000000000000000000000000000000000000169261203a84301415612cf5565b6120697f360894a13ba1a3210667c828492db98dca3e2076cc3735a920a3ca505d382bbc948286541614612d67565b612071612c55565b7f4910fdfa16fed3260ed0e7147f7cc6da11a60208b5b9406d12a635614ffd91435460ff16156120a75750506101749150612dd9565b82919216604051936352d1902d60e01b85526020948581600481865afa600091816122d0575b5061212e5760405162461bcd60e51b815260048101879052602e60248201527f45524331393637557067726164653a206e657720696d706c656d656e7461746960448201526d6f6e206973206e6f74205555505360901b6064820152608490fd5b036122795761213c82612dd9565b604051907fbc7cd75a20ee27fd9adebab32041f755214dbc6bffa90cc0225b39da2e5c2d3b600080a2825115801590612271575b61217657005b813b1561222057506000828192856101749695519201905af43d15612218573d906121a082612bd1565b916121ae6040519384612b23565b82523d60008484013e5b7f416464726573733a206c6f772d6c6576656c2064656c65676174652063616c6c604051936121e685612aeb565b602785528401527f206661696c6564000000000000000000000000000000000000000000000000006040840152612e87565b6060906121b8565b62461bcd60e51b815260048101849052602660248201527f416464726573733a2064656c65676174652063616c6c20746f206e6f6e2d636f6044820152651b9d1c9858dd60d21b6064820152608490fd5b506001612170565b60405162461bcd60e51b815260048101859052602960248201527f45524331393637557067726164653a20756e737570706f727465642070726f786044820152681a58589b195555525160ba1b6064820152608490fd5b9091508681813d83116122f8575b6122e88183612b23565b81010312610136575190876120cd565b503d6122de565b346101365760208060031936011261013657612319612b5d565b6001600160a01b03807f00000000000000000000000000000000000000000000000000000000000000001661235081301415612cf5565b61237f7f360894a13ba1a3210667c828492db98dca3e2076cc3735a920a3ca505d382bbc918383541614612d67565b612387612c55565b604051908482019282841067ffffffffffffffff8511176117fc57836040526000835260ff7f4910fdfa16fed3260ed0e7147f7cc6da11a60208b5b9406d12a635614ffd914354166000146123e457505050506101749150612dd9565b8416906040516352d1902d60e01b81528681600481865afa60009181612585575b506124665760405162461bcd60e51b815260048101889052602e60248201527f45524331393637557067726164653a206e657720696d706c656d656e7461746960448201526d6f6e206973206e6f74205555505360901b6064820152608490fd5b0361252e5761247484612dd9565b604051907fbc7cd75a20ee27fd9adebab32041f755214dbc6bffa90cc0225b39da2e5c2d3b600080a2815115801590612526575b6124ae57005b833b156124d557506101749392600092839251915af43d15612218573d906121a082612bd1565b62461bcd60e51b815260048101859052602660248201527f416464726573733a2064656c65676174652063616c6c20746f206e6f6e2d636f6044820152651b9d1c9858dd60d21b6064820152608490fd5b5060006124a8565b60405162461bcd60e51b815260048101869052602960248201527f45524331393637557067726164653a20756e737570706f727465642070726f786044820152681a58589b195555525160ba1b6064820152608490fd5b9091508781813d83116125ad575b61259d8183612b23565b8101031261013657519088612405565b503d612593565b346101365760203660031901126101365760043567ffffffffffffffff81116101365736602382011215610136576125fb61082d6020923690602481600401359101612b73565b6040519015158152f35b34610136576020806003193601126101365760043567ffffffffffffffff81116101365761263882913690600401612837565b9190612642612f3d565b50826040519384928337810160ff815203019020906040519061266482612ace565b61266d83612fbb565b8252600180840154828401526002918285015460408501526003808601805461269581612b45565b916126a36040519384612b23565b81835260009081528481208685878087015b8686106127fd575050505050505060608601526126d460048701613061565b60808601526005860180546126e881612b45565b916126f66040519384612b23565b81835260009081528481208688878087015b8686106127c3575050505050505060a08601526006860180549261272b84612b45565b956127396040519788612b23565b8487526000928352818320908288015b8685106127875760c08a0189905260078b01546001600160a01b03811660e08c015260a01c60ff1615156101008b0152604051806103368c826128f5565b8584899260405161279781612aeb565b6001600160a01b0387541681528487015483820152858701546040820152815201930194019391612749565b6040516127cf81612b07565b6001600160a01b0386541681526127e7858701613061565b8382015281520192019201919088878992612708565b60405161280981612aeb565b61281286612fbb565b815284860154838201528c8601546040820152815201920192019190858789926126b5565b9181601f840112156101365782359167ffffffffffffffff8311610136576020838186019501011161013657565b60005b8381106128785750506000910152565b8181015183820152602001612868565b906020916128a181518092818552858086019101612865565b601f01601f1916010190565b90815180825260208080930193019160005b8281106128cd575050505090565b835180516001600160a01b0316865282015185830152604090940193928101926001016128bf565b602091828252805190612915610120928386860152610140850190612888565b93808201516040908186015280830151916060928387015282840151601f19978888820301608089015281518082528382019184808360051b8301019401926000915b888d858510612a835750505050505050612980906080860151898983030160a08a01526128ad565b9160a085015192888882030160c089015283518082528382019184808360051b8301019601926000915b8c848410612a365750505050505060c0850151978784030160e08801528180895194858152019801936000915b848310612a05575050505050506001600160a01b0360e0820151169061010091828501520151151591015290565b855180516001600160a01b03168b52808501518b8601528101518a82015298810198948301946001909201916129d7565b9680612a6f8a89838a9e9b9c9a8798999a9b829f9860019903018a52516001600160a01b038151168452015191818582015201906128ad565b9a01930193019193929097969594976129aa565b9780999891888293856001969798999a9b030187528a80612aae8c5194855190808652850190612888565b938581015186850152015191015297019301930191939290969596612958565b610120810190811067ffffffffffffffff8211176117fc57604052565b6060810190811067ffffffffffffffff8211176117fc57604052565b6040810190811067ffffffffffffffff8211176117fc57604052565b90601f8019910116810190811067ffffffffffffffff8211176117fc57604052565b67ffffffffffffffff81116117fc5760051b60200190565b600435906001600160a01b038216820361013657565b9291612b7e82612b45565b91612b8c6040519384612b23565b829481845260208094019160051b810192831161013657905b828210612bb25750505050565b81356001600160a01b0381168103610136578152908301908301612ba5565b67ffffffffffffffff81116117fc57601f01601f191660200190565b929192612bf982612bd1565b91612c076040519384612b23565b829481845281830111610136578281602093846000960137010152565b9181601f840112156101365782359167ffffffffffffffff8311610136576020808501948460051b01011161013657565b6001600160a01b03609754163303612c6957565b606460405162461bcd60e51b815260206004820152602060248201527f4f776e61626c653a2063616c6c6572206973206e6f7420746865206f776e65726044820152fd5b609754906001600160a01b0380911691826001600160a01b0319821617609755167f8be0079c531659141344cd1fd0a4f28419497f9722a3daafe3b4186f6b6457e0600080a3565b15612cfc57565b60405162461bcd60e51b815260206004820152602c60248201527f46756e6374696f6e206d7573742062652063616c6c6564207468726f7567682060448201527f64656c656761746563616c6c00000000000000000000000000000000000000006064820152608490fd5b15612d6e57565b60405162461bcd60e51b815260206004820152602c60248201527f46756e6374696f6e206d7573742062652063616c6c6564207468726f7567682060448201527f6163746976652070726f787900000000000000000000000000000000000000006064820152608490fd5b803b15612e1c576001600160a01b037f360894a13ba1a3210667c828492db98dca3e2076cc3735a920a3ca505d382bbc91166001600160a01b0319825416179055565b60405162461bcd60e51b815260206004820152602d60248201527f455243313936373a206e657720696d706c656d656e746174696f6e206973206e60448201527f6f74206120636f6e7472616374000000000000000000000000000000000000006064820152608490fd5b90919015612e93575090565b815115612ea35750805190602001fd5b60405162461bcd60e51b815260206004820152908190612ec7906024830190612888565b0390fd5b15612ed257565b60405162461bcd60e51b815260206004820152602b60248201527f496e697469616c697a61626c653a20636f6e7472616374206973206e6f74206960448201527f6e697469616c697a696e670000000000000000000000000000000000000000006064820152608490fd5b60405190612f4a82612ace565b600061010083606080825283602083015283604083015280808301528060808301528060a083015260c08201528260e08201520152565b90600182811c92168015612fb1575b6020831014612f9b57565b634e487b7160e01b600052602260045260246000fd5b91607f1691612f90565b9060405191826000825492612fcf84612f81565b90818452600194858116908160001461303e5750600114612ffb575b5050612ff992500383612b23565b565b9093915060005260209081600020936000915b818310613026575050612ff993508201013880612feb565b8554888401850152948501948794509183019161300e565b915050612ff994506020925060ff191682840152151560051b8201013880612feb565b90815461306d81612b45565b9260409361307d85519182612b23565b828152809460208092019260005281600020906000935b8585106130a357505050505050565b60028460019284516130b481612b07565b6001600160a01b0387541681528487015483820152815201930194019391613094565b60405160fc548160006130e983612f81565b926001908181169081156131665750600114613110575b506020925060ff81520301902090565b60fc600090815291507f371f36870d18f32a11fea0f144b021c8b407bb50f8e0267c711123f454b963c05b84831061315057505050602091810138613100565b805486840152859350602090920191810161313b565b60ff19168452506020938015150283019150389050613100565b90816020910312610136575180151581036101365790565b6000198114610c145760010190565b80518210156131bb5760209160051b010190565b634e487b7160e01b600052603260045260246000fd5b91908110156131bb5760051b81013590601e198136030182121561013657019081359167ffffffffffffffff8311610136576020018236038113610136579190565b91908110156131bb5760051b0190565b90612ff9602160405184613241829651809260208086019101612865565b8101600b60fa1b6020820152036001810185520183612b23565b356001600160a01b03811681036101365790565b9061327982612b45565b60409061328882519182612b23565b8381528093613299601f1991612b45565b0191600090815b8481106132ae575050505050565b60209082516132bc81612b07565b8481528285818301528287010152016132a0565b602390612ff992949360405195826132f2889451809260208088019101612865565b8301601160f91b6020820152613312825180936020602185019101612865565b0161111d60f11b60218201526133318251809360208785019101612865565b01036003810185520183612b23565b91908110156131bb5760051b81013590601e198136030182121561013657019081359167ffffffffffffffff8311610136576020018260051b36038113610136579190565b818110613390575050565b60008155600101613385565b600160401b82116117fc5780548282558083106133b857505050565b6001600160ff1b038082168203610c145783168303610c1457600091825260208220600191821b810193821b015b8381106133f35750505050565b8083600292558383820155016133e6565b60209081818403126101365780519067ffffffffffffffff821161013657019180601f8401121561013657825161343a81612b45565b936134486040519586612b23565b818552838086019260051b820101928311610136578301905b82821061346f575050505090565b81516001600160a01b0381168103610136578152908301908301613461565b9190604090815193818186378482810160fe8152602096879103019020546136f4576001600160a01b0392836101005416928151968794636085a91160e11b865285600460009a8b935afa9485156136ea5788956136c6575b50845196919361350e6134f989612b45565b9861350686519a8b612b23565b808a52612b45565b8883019190601f190136833789938a925b8851841015613624578b92918b918499855b8d8d80518310156135ed578a8e8d8f8561354b88876131a7565b51168d5260fd8094528c20541015806135e4575b6135d7578316156135be57828f918f908e8d8461357c8a896131a7565b51169052528b205491168a528d8a2054106135a2575b505061359d90613198565b613531565b8261359d939e506135b2916131a7565b51169b90508d8d613592565b508261359d939e506135cf916131a7565b51169b613198565b5050505061359d90613198565b508d151561355f565b5061361b959a5088949891508b9061361593979d989498169384815260fd8b522054996131a7565b52613198565b9290969161351f565b989750999593509050828294519384928337810160fe8152030190209285519467ffffffffffffffff86116136b257600160401b86116136b2578454868655808710613698575b50938352818320925b8581106136845750505050505090565b845182168482015593820193600101613674565b8585528385206136ac918101908801613385565b3861366b565b634e487b7160e01b84526041600452602484fd5b6136e39195503d808a833e6136db8183612b23565b810190613404565b93386134e7565b83513d8a823e3d90fd5b93829394828294519384928337810160fe81520301902091518092839183825491828152019160005283600020936000905b82821061373f5750505061373c92500382612b23565b90565b85546001600160a01b031684526001958601958795509381019390910190613726565b9060046000926000806001600160a01b03928284610100541660405196878092636085a91160e11b82525afa94851561388a57839561386e575b508451600195869591861c8061386457508594989796985b80995b6137c8575b50505050505050909150565b81518a101561385f578681815b61380f575b5050858510156137f8576137f08798999a613198565b9998976137b7565b5050505050509150915081388080808080806137bc565b855181101561385a57846138238d866131a7565b51168561383083896131a7565b5116146138465761384090613198565b816137d5565b50509361385290613198565b9386386137da565b6137da565b6137bc565b94989796986137b4565b6138839195503d8085833e6136db8183612b23565b933861379c565b6040513d85823e3d90fd5b806000917a184f03e93ff9f4daa797ed6e38ed64bf6a1f010000000000000000808210156139ef575b506d04ee2d6d415b85acef8100000000808310156139e0575b50662386f26fc10000808310156139d1575b506305f5e100808310156139c2575b50612710808310156139b3575b5060648210156139a3575b600a80921015613999575b6001908160218186019561392e87612bd1565b9661393c6040519889612b23565b80885261394b601f1991612bd1565b01366020890137860101905b613963575b5050505090565b600019019083906f181899199a1a9b1b9c1cb0b131b232b360811b8282061a83530491821561399457919082613957565b61395c565b916001019161391b565b9190606460029104910191613910565b60049193920491019138613905565b600891939204910191386138f8565b601091939204910191386138e9565b602091939204910191386138d7565b6040935081049150386138be565b600080821291908215613a7857613a3961373c92602092604051613a2081612b07565b60018152602d60f81b85820152955b613a725750613895565b926040519381613a528693518092868087019101612865565b8201613a6682518093868085019101612865565b01038084520182612b23565b03613895565b6040516020810181811067ffffffffffffffff821117613aa9576040528181529261373c92602092613a3992613a2f565b634e487b7160e01b83526041600452602483fd5b6001600160a01b031660405190613ad382612aeb565b602a825260209081830160403682378351156131bb576030905382516001908110156131bb57607860218501536029905b808211613b58575050613b15575090565b6064906040519062461bcd60e51b825280600483015260248201527f537472696e67733a20686578206c656e67746820696e73756666696369656e746044820152fd5b9091600f81166010811015613bb5578551841015613bb5576f181899199a1a9b1b9c1cb0b131b232b360811b901a84848701015360041c918015613ba0576000190190613b04565b60246000634e487b7160e01b81526011600452fd5b60246000634e487b7160e01b81526032600452fdfea2646970667358221220e259ca37022d4c59a6320af207631639261cf54d1e9e8e6d6ae1fc087452d5eb64736f6c63430008110033",
  "linkReferences": {
    "src/lib/VerifySignature.sol": {
      "VerifySignature": [
        {
          "length": 20,
          "start": 5215
        }
      ]
    }
  },
  "deployedLinkReferences": {
    "src/lib/VerifySignature.sol": {
      "VerifySignature": [
        {
          "length": 20,
          "start": 5160
        }
      ]
    }
  }
}