{
  "_format": "hh-sol-artifact-1",
  "contractName": "LogStoreReportManager",
  "sourceName": "src/ReportManager.sol",
  "abi": [
    {
      "anonymous": false,
      "inputs": [
        {
          "indexed": false,
          "internalType": "address",
          "name": "previousAdmin",
          "type": "address"
        },
        {
          "indexed": false,
          "internalType": "address",
          "name": "newAdmin",
          "type": "address"
        }
      ],
      "name": "AdminChanged",
      "type": "event"
    },
    {
      "anonymous": false,
      "inputs": [
        {
          "indexed": true,
          "internalType": "address",
          "name": "beacon",
          "type": "address"
        }
      ],
      "name": "BeaconUpgraded",
      "type": "event"
    },
    {
      "anonymous": false,
      "inputs": [
        {
          "indexed": false,
          "internalType": "uint8",
          "name": "version",
          "type": "uint8"
        }
      ],
      "name": "Initialized",
      "type": "event"
    },
    {
      "anonymous": false,
      "inputs": [
        {
          "indexed": false,
          "internalType": "bool",
          "name": "isMet",
          "type": "bool"
        }
      ],
      "name": "Logger",
      "type": "event"
    },
    {
      "anonymous": false,
      "inputs": [
        {
          "indexed": true,
          "internalType": "address",
          "name": "previousOwner",
          "type": "address"
        },
        {
          "indexed": true,
          "internalType": "address",
          "name": "newOwner",
          "type": "address"
        }
      ],
      "name": "OwnershipTransferred",
      "type": "event"
    },
    {
      "anonymous": false,
      "inputs": [
        {
          "indexed": false,
          "internalType": "string",
          "name": "id",
          "type": "string"
        }
      ],
      "name": "ReportAccepted",
      "type": "event"
    },
    {
      "anonymous": false,
      "inputs": [
        {
          "indexed": true,
          "internalType": "address",
          "name": "implementation",
          "type": "address"
        }
      ],
      "name": "Upgraded",
      "type": "event"
    },
    {
      "inputs": [],
      "name": "MATH_PRECISION",
      "outputs": [
        {
          "internalType": "uint256",
          "name": "",
          "type": "uint256"
        }
      ],
      "stateMutability": "view",
      "type": "function"
    },
    {
      "inputs": [
        {
          "internalType": "uint256[]",
          "name": "timestamps",
          "type": "uint256[]"
        }
      ],
      "name": "aggregateTimestamps",
      "outputs": [
        {
          "internalType": "uint256",
          "name": "",
          "type": "uint256"
        }
      ],
      "stateMutability": "pure",
      "type": "function"
    },
    {
      "inputs": [],
      "name": "getLastReport",
      "outputs": [
        {
          "components": [
            {
              "internalType": "string",
              "name": "id",
              "type": "string"
            },
            {
              "internalType": "uint256",
              "name": "height",
              "type": "uint256"
            },
            {
              "internalType": "int256",
              "name": "treasury",
              "type": "int256"
            },
            {
              "components": [
                {
                  "internalType": "string",
                  "name": "id",
                  "type": "string"
                },
                {
                  "internalType": "uint256",
                  "name": "writeCapture",
                  "type": "uint256"
                },
                {
                  "internalType": "uint256",
                  "name": "writeBytes",
                  "type": "uint256"
                }
              ],
              "internalType": "struct LogStoreReportManager.Stream[]",
              "name": "streams",
              "type": "tuple[]"
            },
            {
              "components": [
                {
                  "internalType": "address",
                  "name": "id",
                  "type": "address"
                },
                {
                  "internalType": "int256",
                  "name": "amount",
                  "type": "int256"
                }
              ],
              "internalType": "struct LogStoreReportManager.Node[]",
              "name": "nodes",
              "type": "tuple[]"
            },
            {
              "components": [
                {
                  "internalType": "address",
                  "name": "id",
                  "type": "address"
                },
                {
                  "components": [
                    {
                      "internalType": "address",
                      "name": "id",
                      "type": "address"
                    },
                    {
                      "internalType": "int256",
                      "name": "amount",
                      "type": "int256"
                    }
                  ],
                  "internalType": "struct LogStoreReportManager.Node[]",
                  "name": "nodes",
                  "type": "tuple[]"
                }
              ],
              "internalType": "struct LogStoreReportManager.Delegate[]",
              "name": "delegates",
              "type": "tuple[]"
            },
            {
              "components": [
                {
                  "internalType": "address",
                  "name": "id",
                  "type": "address"
                },
                {
                  "internalType": "uint256",
                  "name": "readCapture",
                  "type": "uint256"
                },
                {
                  "internalType": "uint256",
                  "name": "readBytes",
                  "type": "uint256"
                }
              ],
              "internalType": "struct LogStoreReportManager.Consumer[]",
              "name": "consumers",
              "type": "tuple[]"
            },
            {
              "internalType": "address",
              "name": "_reporter",
              "type": "address"
            },
            {
              "internalType": "bool",
              "name": "_processed",
              "type": "bool"
            }
          ],
          "internalType": "struct LogStoreReportManager.Report",
          "name": "",
          "type": "tuple"
        }
      ],
      "stateMutability": "view",
      "type": "function"
    },
    {
      "inputs": [
        {
          "internalType": "string",
          "name": "id",
          "type": "string"
        }
      ],
      "name": "getReport",
      "outputs": [
        {
          "components": [
            {
              "internalType": "string",
              "name": "id",
              "type": "string"
            },
            {
              "internalType": "uint256",
              "name": "height",
              "type": "uint256"
            },
            {
              "internalType": "int256",
              "name": "treasury",
              "type": "int256"
            },
            {
              "components": [
                {
                  "internalType": "string",
                  "name": "id",
                  "type": "string"
                },
                {
                  "internalType": "uint256",
                  "name": "writeCapture",
                  "type": "uint256"
                },
                {
                  "internalType": "uint256",
                  "name": "writeBytes",
                  "type": "uint256"
                }
              ],
              "internalType": "struct LogStoreReportManager.Stream[]",
              "name": "streams",
              "type": "tuple[]"
            },
            {
              "components": [
                {
                  "internalType": "address",
                  "name": "id",
                  "type": "address"
                },
                {
                  "internalType": "int256",
                  "name": "amount",
                  "type": "int256"
                }
              ],
              "internalType": "struct LogStoreReportManager.Node[]",
              "name": "nodes",
              "type": "tuple[]"
            },
            {
              "components": [
                {
                  "internalType": "address",
                  "name": "id",
                  "type": "address"
                },
                {
                  "components": [
                    {
                      "internalType": "address",
                      "name": "id",
                      "type": "address"
                    },
                    {
                      "internalType": "int256",
                      "name": "amount",
                      "type": "int256"
                    }
                  ],
                  "internalType": "struct LogStoreReportManager.Node[]",
                  "name": "nodes",
                  "type": "tuple[]"
                }
              ],
              "internalType": "struct LogStoreReportManager.Delegate[]",
              "name": "delegates",
              "type": "tuple[]"
            },
            {
              "components": [
                {
                  "internalType": "address",
                  "name": "id",
                  "type": "address"
                },
                {
                  "internalType": "uint256",
                  "name": "readCapture",
                  "type": "uint256"
                },
                {
                  "internalType": "uint256",
                  "name": "readBytes",
                  "type": "uint256"
                }
              ],
              "internalType": "struct LogStoreReportManager.Consumer[]",
              "name": "consumers",
              "type": "tuple[]"
            },
            {
              "internalType": "address",
              "name": "_reporter",
              "type": "address"
            },
            {
              "internalType": "bool",
              "name": "_processed",
              "type": "bool"
            }
          ],
          "internalType": "struct LogStoreReportManager.Report",
          "name": "",
          "type": "tuple"
        }
      ],
      "stateMutability": "view",
      "type": "function"
    },
    {
      "inputs": [],
      "name": "getReporters",
      "outputs": [
        {
          "internalType": "address[]",
          "name": "reporters",
          "type": "address[]"
        }
      ],
      "stateMutability": "view",
      "type": "function"
    },
    {
      "inputs": [
        {
          "internalType": "address",
          "name": "_owner",
          "type": "address"
        },
        {
          "internalType": "uint256",
          "name": "_reportTimeBuffer",
          "type": "uint256"
        }
      ],
      "name": "initialize",
      "outputs": [],
      "stateMutability": "nonpayable",
      "type": "function"
    },
    {
      "inputs": [],
      "name": "owner",
      "outputs": [
        {
          "internalType": "address",
          "name": "",
          "type": "address"
        }
      ],
      "stateMutability": "view",
      "type": "function"
    },
    {
      "inputs": [
        {
          "internalType": "string",
          "name": "id",
          "type": "string"
        }
      ],
      "name": "processReport",
      "outputs": [],
      "stateMutability": "nonpayable",
      "type": "function"
    },
    {
      "inputs": [],
      "name": "proxiableUUID",
      "outputs": [
        {
          "internalType": "bytes32",
          "name": "",
          "type": "bytes32"
        }
      ],
      "stateMutability": "view",
      "type": "function"
    },
    {
      "inputs": [
        {
          "internalType": "address[]",
          "name": "submittedNodes",
          "type": "address[]"
        }
      ],
      "name": "quorumIsMet",
      "outputs": [
        {
          "internalType": "bool",
          "name": "isMet",
          "type": "bool"
        }
      ],
      "stateMutability": "view",
      "type": "function"
    },
    {
      "inputs": [],
      "name": "renounceOwnership",
      "outputs": [],
      "stateMutability": "nonpayable",
      "type": "function"
    },
    {
      "inputs": [
        {
          "internalType": "string",
          "name": "id",
          "type": "string"
        },
        {
          "internalType": "uint256",
          "name": "blockHeight",
          "type": "uint256"
        },
        {
          "internalType": "string[]",
          "name": "streams",
          "type": "string[]"
        },
        {
          "internalType": "uint256[]",
          "name": "writeCaptureAmounts",
          "type": "uint256[]"
        },
        {
          "internalType": "uint256[]",
          "name": "writeBytes",
          "type": "uint256[]"
        },
        {
          "internalType": "address[]",
          "name": "readConsumerAddresses",
          "type": "address[]"
        },
        {
          "internalType": "uint256[]",
          "name": "readCaptureAmounts",
          "type": "uint256[]"
        },
        {
          "internalType": "uint256[]",
          "name": "readBytes",
          "type": "uint256[]"
        },
        {
          "internalType": "address[]",
          "name": "nodes",
          "type": "address[]"
        },
        {
          "internalType": "int256[]",
          "name": "nodeChanges",
          "type": "int256[]"
        },
        {
          "internalType": "address[]",
          "name": "delegates",
          "type": "address[]"
        },
        {
          "internalType": "address[][]",
          "name": "delegateNodes",
          "type": "address[][]"
        },
        {
          "internalType": "int256[][]",
          "name": "delegateNodeChanges",
          "type": "int256[][]"
        },
        {
          "internalType": "int256",
          "name": "treasurySupplyChange",
          "type": "int256"
        },
        {
          "internalType": "address[]",
          "name": "addresses",
          "type": "address[]"
        },
        {
          "internalType": "uint256[]",
          "name": "proofTimestamps",
          "type": "uint256[]"
        },
        {
          "internalType": "bytes[]",
          "name": "signatures",
          "type": "bytes[]"
        }
      ],
      "name": "report",
      "outputs": [],
      "stateMutability": "nonpayable",
      "type": "function"
    },
    {
      "inputs": [],
      "name": "reportTimeBuffer",
      "outputs": [
        {
          "internalType": "uint256",
          "name": "",
          "type": "uint256"
        }
      ],
      "stateMutability": "view",
      "type": "function"
    },
    {
      "inputs": [
        {
          "internalType": "address",
          "name": "newOwner",
          "type": "address"
        }
      ],
      "name": "transferOwnership",
      "outputs": [],
      "stateMutability": "nonpayable",
      "type": "function"
    },
    {
      "inputs": [
        {
          "internalType": "address",
          "name": "newImplementation",
          "type": "address"
        }
      ],
      "name": "upgradeTo",
      "outputs": [],
      "stateMutability": "nonpayable",
      "type": "function"
    },
    {
      "inputs": [
        {
          "internalType": "address",
          "name": "newImplementation",
          "type": "address"
        },
        {
          "internalType": "bytes",
          "name": "data",
          "type": "bytes"
        }
      ],
      "name": "upgradeToAndCall",
      "outputs": [],
      "stateMutability": "payable",
      "type": "function"
    }
  ],
  "bytecode": "0x60a08060405234610031573060805261441f908161003782396080518181816106dd015281816107ea0152610b010152f35b600080fdfe610680604052600436101561001357600080fd5b60003560e01c80630e0a171314612e5557806312e63d7114612c235780631bfdc98a14610e1b57806325cbbdff14610dc557806331c74e0114610da75780633659cfe614610adc5780634f1ef2861461079857806352d1902d146106c257806370f462021461065d578063715018a6146106025780638da5cb5b146105db578063cd6dc68714610436578063d91b99e814610416578063eefa7a3e1461020d578063f2fde38b146101675763f6883c05146100cd57600080fd5b346101625760203660031901126101625760043567ffffffffffffffff81116101625760206101026007923690600401612f81565b919061010c613310565b826040519384928337810160fe81520301902001740100000000000000000000000000000000000000007fffffffffffffffffffffff00ffffffffffffffffffffffffffffffffffffffff825416179055600080f35b600080fd5b3461016257602036600319011261016257610180613249565b610188613310565b6001600160a01b038116156101a2576101a090613368565b005b60405162461bcd60e51b815260206004820152602660248201527f4f776e61626c653a206e6577206f776e657220697320746865207a65726f206160448201527f64647265737300000000000000000000000000000000000000000000000000006064820152608490fd5b34610162576000366003190112610162576102266135f8565b5061022f613792565b60405161023b81612ea4565b61024482613676565b815260018083015490602091828401526002918285015460408501526003808601805461027081612f1b565b9161027e6040519384612ef9565b81835260009081528481208685878087015b8686106103dc575050505050505060608601526102af6004870161371c565b60808601526005860180546102c381612f1b565b916102d16040519384612ef9565b81835260009081528481208688878087015b8686106103a2575050505050505060a08601526006860180549261030684612f1b565b956103146040519788612ef9565b8487526000928352818320908288015b8685106103665760c08a0189905260078b01546001600160a01b03811660e08c015260a01c60ff1615156101008b0152604051806103628c8261303f565b0390f35b8584899260405161037681612ec1565b6001600160a01b0387541681528487015483820152858701546040820152815201930194019391610324565b6040516103ae81612edd565b6001600160a01b0386541681526103c685870161371c565b83820152815201920192019190888789926102e3565b6040516103e881612ec1565b6103f186613676565b815284860154838201528c860154604082015281520192019201919085878992610290565b346101625760003660031901126101625760206040516402540be4008152f35b346101625760403660031901126101625761044f613249565b6000549060ff808360081c1615928380946105cf575b80156105b9575b1561054e5760ff1981166001176000558361053c575b5061049c8160005460081c1661049781613586565b613586565b6104a533613368565b6104c28160005460081c166104b981613586565b61049781613586565b600160c9556001600160a01b03821690816001600160a01b031982541617905560243560fb556104f0613310565b156101a2576104fe90613368565b61050457005b61ff0019600054166000557f7f26b83ff96e1f2b6a682f133852f6798a09c465da95921460cefb3847402498602060405160018152a1005b61ffff19166101011760005583610482565b60405162461bcd60e51b815260206004820152602e60248201527f496e697469616c697a61626c653a20636f6e747261637420697320616c72656160448201527f647920696e697469616c697a65640000000000000000000000000000000000006064820152608490fd5b50303b15801561046c575060018282161461046c565b50600182821610610465565b346101625760003660031901126101625760206001600160a01b0360975416604051908152f35b346101625760003660031901126101625761061b613310565b60006001600160a01b036097546001600160a01b03198116609755167f8be0079c531659141344cd1fd0a4f28419497f9722a3daafe3b4186f6b6457e08280a3005b3461016257600036600319011261016257610676613918565b604051809160208083018184528251809152816040850193019160005b8281106106a257505050500390f35b83516001600160a01b031685528695509381019392810192600101610693565b34610162576000366003190112610162576001600160a01b037f000000000000000000000000000000000000000000000000000000000000000016300361072d5760206040517f360894a13ba1a3210667c828492db98dca3e2076cc3735a920a3ca505d382bbc8152f35b60405162461bcd60e51b815260206004820152603860248201527f555550535570677261646561626c653a206d757374206e6f742062652063616c60448201527f6c6564207468726f7567682064656c656761746563616c6c00000000000000006064820152608490fd5b6040366003190112610162576107ac613249565b60243567ffffffffffffffff81116101625736602382011215610162576107dd9036906024816004013591016132d9565b906001600160a01b0391827f00000000000000000000000000000000000000000000000000000000000000001692610817843014156133b0565b6108467f360894a13ba1a3210667c828492db98dca3e2076cc3735a920a3ca505d382bbc948286541614613422565b61084e613310565b7f4910fdfa16fed3260ed0e7147f7cc6da11a60208b5b9406d12a635614ffd91435460ff16156108845750506101a09150613494565b82919216604051936352d1902d60e01b85526020948581600481865afa60009181610aad575b5061090b5760405162461bcd60e51b815260048101879052602e60248201527f45524331393637557067726164653a206e657720696d706c656d656e7461746960448201526d6f6e206973206e6f74205555505360901b6064820152608490fd5b03610a565761091982613494565b604051907fbc7cd75a20ee27fd9adebab32041f755214dbc6bffa90cc0225b39da2e5c2d3b600080a2825115801590610a4e575b61095357005b813b156109fd57506000828192856101a09695519201905af43d156109f5573d9061097d826132bd565b9161098b6040519384612ef9565b82523d60008484013e5b7f416464726573733a206c6f772d6c6576656c2064656c65676174652063616c6c604051936109c385612ec1565b602785528401527f206661696c6564000000000000000000000000000000000000000000000000006040840152613542565b606090610995565b62461bcd60e51b815260048101849052602660248201527f416464726573733a2064656c65676174652063616c6c20746f206e6f6e2d636f6044820152651b9d1c9858dd60d21b6064820152608490fd5b50600161094d565b60405162461bcd60e51b815260048101859052602960248201527f45524331393637557067726164653a20756e737570706f727465642070726f786044820152681a58589b195555525160ba1b6064820152608490fd5b9091508681813d8311610ad5575b610ac58183612ef9565b81010312610162575190876108aa565b503d610abb565b346101625760208060031936011261016257610af6613249565b6001600160a01b03807f000000000000000000000000000000000000000000000000000000000000000016610b2d813014156133b0565b610b5c7f360894a13ba1a3210667c828492db98dca3e2076cc3735a920a3ca505d382bbc918383541614613422565b610b64613310565b604051908482019282841067ffffffffffffffff851117610d9157836040526000835260ff7f4910fdfa16fed3260ed0e7147f7cc6da11a60208b5b9406d12a635614ffd91435416600014610bc157505050506101a09150613494565b8416906040516352d1902d60e01b81528681600481865afa60009181610d62575b50610c435760405162461bcd60e51b815260048101889052602e60248201527f45524331393637557067726164653a206e657720696d706c656d656e7461746960448201526d6f6e206973206e6f74205555505360901b6064820152608490fd5b03610d0b57610c5184613494565b604051907fbc7cd75a20ee27fd9adebab32041f755214dbc6bffa90cc0225b39da2e5c2d3b600080a2815115801590610d03575b610c8b57005b833b15610cb257506101a09392600092839251915af43d156109f5573d9061097d826132bd565b62461bcd60e51b815260048101859052602660248201527f416464726573733a2064656c65676174652063616c6c20746f206e6f6e2d636f6044820152651b9d1c9858dd60d21b6064820152608490fd5b506000610c85565b60405162461bcd60e51b815260048101869052602960248201527f45524331393637557067726164653a20756e737570706f727465642070726f786044820152681a58589b195555525160ba1b6064820152608490fd5b9091508781813d8311610d8a575b610d7a8183612ef9565b8101031261016257519088610be2565b503d610d70565b634e487b7160e01b600052604160045260246000fd5b3461016257600036600319011261016257602060fb54604051908152f35b346101625760203660031901126101625760043567ffffffffffffffff8111610162573660238201121561016257610e11610e0c602092369060248160040135910161325f565b613d87565b6040519015158152f35b34610162576102203660031901126101625760043567ffffffffffffffff811161016257610e4d903690600401612f81565b610400526102005260443567ffffffffffffffff811161016257610e75903690600401613218565b6102a0526103805260643567ffffffffffffffff811161016257610e9d903690600401613218565b610620526101605260843567ffffffffffffffff811161016257610ec5903690600401613218565b610280526102605267ffffffffffffffff60a4351161016257610eed3660a435600401613218565b6080526103205267ffffffffffffffff60c4351161016257610f143660c435600401613218565b610300526105205267ffffffffffffffff60e4351161016257610f3c3660e435600401613218565b6103e0526101205267ffffffffffffffff610104351161016257610f663661010435600401613218565b610180526101c05267ffffffffffffffff610124351161016257610f903661012435600401613218565b6102c0526101a05267ffffffffffffffff610144351161016257610fba3661014435600401613218565b610240526101405267ffffffffffffffff610164351161016257610fe43661016435600401613218565b610500526105a05267ffffffffffffffff61018435116101625761100e3661018435600401613218565b6105805260e05267ffffffffffffffff6101c4351161016257611037366101c435600401613218565b6105e0526104605267ffffffffffffffff6101e4351161016257611061366101e435600401613218565b60c0526105c05267ffffffffffffffff61020435116101625761108a3661020435600401613218565b6103c05261056052602460206001600160a01b0360ff541660405192838092630c2effa360e31b82523360048301525afa908115612a0d57600091612c04575b5015612bbf5760ff60076040516104005161020051823760208161040051810160fe815203019020015460a01c16612b7a5743602435111580612b64575b15612b1f576105e051806003810204600314811517156115885761113c906111376103c0519160c051906138e1565b6138e1565b60036105e0510203612ada5761115c610e0c366105e0516104605161325f565b15612a9557611169613918565b610440526111856111803660c0516105c051612f33565b613ef5565b60005b610440518051821015612a8d576001600160a01b036111a88333936138ee565b5116146111bd576111b8906138c5565b611188565b906402540be40090814202924284048314421517156115885760fb54908181029181830414901517156115885782810292818404149015171561158857611203916138e1565b1015612a48575b6040518061010052806101c081011067ffffffffffffffff6101c083011117610d91576101c0016040526000610360525b610360516101c081101561126257606090610100510152602061036051016103605261123b565b604051601160f91b6020820152610400516102005160218301376112a2602282610400518101601160f91b60218201526002828203018252030182612ef9565b61010051526112b2602435613f65565b60206101005101526112c66101a435614252565b61130860226040518093601160f91b60208301526112ee815180926020602186019101612faf565b8101601160f91b6021820152036002810184520182612ef9565b6101a06101005101526113316113206102a051612f1b565b8060a0526040518061034052612ef9565b6102a0516103405152601f196113496102a051612f1b565b016000610220525b806102205110156113975760405161136881612ec1565b606081526000602082015260006040820152602061022051610340510101526020610220510161022052611351565b60006102e0525b6102a0516102e0518181101561159e5760226113c96114109260406101005101519461038051613ab4565b80949160405195836113e5889551809260208089019101612faf565b840191601160f91b6020840152602183013701601160f91b6021820152036002810184520182612ef9565b6040610100510152611446606061010051015161144061143a6102e0516106205161016051613af6565b356140cd565b90613b06565b606061010051015261147c60806101005101516114766114706102e0516102805161026051613af6565b35613f65565b90613b60565b60806101005101526102a0518060001981011161158857600019016102e0510361153b575b6114b56102e0516102a05161038051613ab4565b906114ca6102e0516106205161016051613af6565b356114f86114e26102e0516102805161026051613af6565b3592604051946114f186612ec1565b36916132d9565b8352602083015260408201526115146102e051610340516138ee565b526115256102e051610340516138ee565b506115326102e0516138c5565b6102e05261139e565b61154b6040610100510151613ba1565b60406101005101526115636060610100510151613ba1565b606061010051015261157b6080610100510151613ba1565b60806101005101526114a1565b634e487b7160e01b600052601160045260246000fd5b6115be6115ac608051612f1b565b806103a0526040518061060052612ef9565b6080516106005152601f196115d4608051612f1b565b016000610660525b80610660511015611622576040516115f381612ec1565b6000815260006020820152600060408201526020610660516106005101015260206106605101610660526115dc565b6000610420525b6080516104205190808210156117c15761144061165d6116586116629460a06101005101519461032051613af6565b613bd9565b614326565b60a061010051015261168c60c061010051015161144061143a610420516103005161052051613af6565b60c06101005101526116b660e0610100510151611476611470610420516103e05161012051613af6565b60e06101005101526080518060001981011161158857600019016104205103611774575b6116f06116586104205160805161032051613af6565b611704610420516103005161052051613af6565b35611719610420516103e05161012051613af6565b35906001600160a01b036040519361173085612ec1565b1683526020830152604082015261174d61042051610600516138ee565b5261175e61042051610600516138ee565b5061176b610420516138c5565b61042052611629565b61178460a0610100510151613ba1565b60a061010051015261179c60c0610100510151613ba1565b60c06101005101526117b460e0610100510151613ba1565b60e06101005101526116da565b6117cd61018051613bed565b6101e05260005b61018051808210156118f2576117ff9061144061165d6116588561010080510151946101c051613af6565b6101008051015261182c610120610100510151611440611826846102c0516101a051613af6565b35614252565b610120610100510152610180519081600019810111611588576118b8916000190181036118bd575b61186861165882610180516101c051613af6565b611879826102c0516101a051613af6565b356001600160a01b036040519261188f84612edd565b16825260208201526118a4826101e0516138ee565b526118b2816101e0516138ee565b506138c5565b6117d4565b6118cc61010080510151613ba1565b610100805101526118e4610120610100510151613ba1565b610120610100510152611854565b61190e61190161024051612f1b565b604051806104e052612ef9565b610240516104e05152601f1961192661024051612f1b565b0160005b818110612a20576000610480525b61024051610480519080821015611c595761144061165d611658611969946101406101005101519461014051613af6565b610140610100510152611983610160610100510151613c4e565b61016061010051015261199d610180610100510151613c4e565b6101806101005101526119c46119bd61048051610500516105a051613c86565b9050613bed565b6105405260006104a0525b6119e361048051610500516105a051613c86565b90506104a0511015611b4657611a2261016061010051015161144061165d611658611a1861048051610500516105a051613c86565b6104a05191613af6565b610160610100510152611a50610180610100510151611440611826611a18610480516105805160e051613c86565b610180610100510152611a6d61048051610500516105a051613c86565b80915060001981011161158857600019016104a05103611b0d575b611aa2611658611a1861048051610500516105a051613c86565b611ab8611a18610480516105805160e051613c86565b356001600160a01b0360405192611ace84612edd565b1682526020820152611ae66104a051610540516138ee565b52611af76104a051610540516138ee565b50611b046104a0516138c5565b6104a0526119cf565b611b1e610160610100510151613ba1565b610160610100510152611b38610180610100510151613ba1565b610180610100510152611a88565b611b57610160610100510151613ccb565b610160610100510152611b71610180610100510151613ccb565b610180610100510152610240518060001981011161158857600019016104805103611c06575b611bae611658610480516102405161014051613af6565b6001600160a01b0360405191611bc383612edd565b168152610540516020820152611bdf610480516104e0516138ee565b52611bf0610480516104e0516138ee565b50611bfd610480516138c5565b61048052611938565b611c17610140610100510151613ba1565b610140610100510152611c31610160610100510151613ba1565b610160610100510152611c4b610180610100510151613ba1565b610180610100510152611b97565b611e8060456101005180519060208101516104c0526040810151606082015190608083015160a084015160c085015160e08601516101008701519161012088015193610140890151956101608a0151976101a06101808c01519b01519b605b60f81b602060405180610640520152611cde815180926020602161064051019101612faf565b6106405101600b60fa1b60218201526104c05190611d06825180936020602285019101612faf565b01612c5b60f01b6022820152611d26825180936020602485019101612faf565b0198625d2c5b60e81b998a6024820152611d4a825180936020602785019101612faf565b01896027820152611d65825180936020602a85019101612faf565b0188602a820152611d80825180936020602d85019101612faf565b0187602d820152611d9b825180936020603085019101612faf565b01866030820152611db6825180936020603385019101612faf565b01856033820152611dd1825180936020603685019101612faf565b01846036820152611dec825180936020603985019101612faf565b01836039820152611e07825180936020603c85019101612faf565b0182603c820152611e22825180936020603f85019101612faf565b0190603f820152611e3d825180936020604285019101612faf565b0161174b60f21b6042820152611e5d825180936020604485019101612faf565b01605d60f81b604482015261064051809103906025820190520161064051612ef9565b604051611e8c81612ea4565b611e9d3661040051610200516132d9565b815260243560208201526101a43560408201526103405160608201526101e05160808201526104e05160a08201526106005160c08201523360e082015260006101008201526040516020810190611f1160208281611f046106405187815193849201612faf565b8101038084520182612ef9565b51902060019060005b6105e051811015612a1957611f358160c0516105c051613af6565b35604051906020820190815260208252611f4e82612edd565b611f7e604080518093611f6e602083019689885251809285850190612faf565b8101036020810184520182612ef9565b611f9a60206040518093611f0483830196879251928391612faf565b51902060206001600160a01b036084611fbd611658866105e05161046051613af6565b611fce866103c05161056051613ab4565b809160405197889687956301a86b5560e41b8752166004860152602485015260606044850152816064850152848401376000828201840152601f01601f1916810103018173__$267c3dc7aa7d3fe2e28bda43a2ca27cd27$__5af48015612a0d576001916000916129de575b501515036120505761204b906138c5565b611f1a565b50505060005b1561299957612075602082518160405193828580945193849201612faf565b810160fe81520301902090805191825167ffffffffffffffff8111610d915761209e825461363c565b601f8111612967575b506020601f82116001146128ff57819293946000926128f4575b50508160011b916000199060031b1c19161781555b60208201516001820155604082015160028201556060820151805190680100000000000000008211610d91576003830154826003850155808310612849575b50602001906003830160005260206000206000925b82841061271457858560048101608083015190602082519261214c8484613d1a565b019060005260206000206000915b8383106126de57858560a0820151805190680100000000000000008211610d91576005830154826005850155808310612636575b506020016005830160005260206000206000915b83831061259e57858560c0820151805190680100000000000000008211610d91576006830154826006850155808310612545575b506020016006830160005260206000206000915b8383106125055785600786016001600160a01b0360e0830151168154907fffffffffffffffffffffff00000000000000000000000000000000000000000074ff0000000000000000000000000000000000000000610100860151151560a01b16921617179055805190815167ffffffffffffffff8111610d915761226f60fc5461363c565b601f81116124ab575b50602092601f8211600114612429579281929360009261241e575b50508160011b916000199060031b1c19161760fc555b6000805b6104405180518310156123df576122cc836001600160a01b03926138ee565b5116331460001461230657503360005260fd6020526040600020805490600a820180921161158857556123006001916138c5565b906122ad565b90816123a357806001600160a01b0361232561230093610440516138ee565b511660005260fd8060205260056040600020541015600014612379576005905b6001600160a01b0361235a84610440516138ee565b511660005260205261237260406000209182546138d4565b90556138c5565b6001600160a01b0361238e83610440516138ee565b51166000528060205260406000205490612345565b6001600160a01b036123b882610440516138ee565b511660005260fd6020526040600020908154600181018091116115885761230092556138c5565b7fc53a4e1db72f8c6fde77b85b4cc21a59f9896e9d7285f890075356dbd528d1cd6124198551604051918291602083526020830190612fd2565b0390a1005b015190508380612293565b601f1982169360fc6000527f371f36870d18f32a11fea0f144b021c8b407bb50f8e0267c711123f454b963c09160005b868110612493575083600195961061247a575b505050811b0160fc556122a9565b015160001960f88460031b161c1916905583808061246c565b91926020600181928685015181550194019201612459565b6124f59060fc6000527f371f36870d18f32a11fea0f144b021c8b407bb50f8e0267c711123f454b963c0601f840160051c810191602085106124fb575b601f0160051c0190613d03565b83612278565b90915081906124e8565b60036020826040600194516001600160a01b038151166001600160a01b0319885416178755838101518688015501516002860155019201920191906121ea565b6003818102048103611588576003838102048303611588576006840160005260206000208360030281015b82600302820181106125835750506121d6565b80600060039255600060018201556000600282015501612570565b80516001600160a01b038151166001600160a01b03198454161783556020600184019101519060208251926125d38484613d1a565b01906000526020600020906000905b838210612600575050505060026020600192019201920191906121a2565b600260208281600194516001600160a01b038151166001600160a01b0319895416178855015184870155019301910190916125e2565b6001600160ff1b0381168103611588576001600160ff1b0383168303611588576005840160005260206000208360011b81015b8260011b8201811061267c57505061218e565b600081556001810154600060018301558061269b575b50600201612669565b6001600160ff1b0381168103611588576001820160005260206000209060011b8101905b8181106126cc5750612692565b600080825560018201556002016126bf565b600260208281600194516001600160a01b038151166001600160a01b03198854161787550151848601550192019201919061215a565b8051805180519067ffffffffffffffff8211610d9157612734855461363c565b601f811161280c575b50602090601f831160011461279a57600393836020946001979460409460009261278f575b505060001982881b1c191690871b1787555b8381015186880155015160028601550192019301929061212a565b015190508d80612762565b908560005260206000209160005b601f19851681106127f4575093600184819794604094600398602098601f198116106127dc575b505050811b018755612774565b0151600019838a1b60f8161c191690558d80806127cf565b919260206001819286850151815501940192016127a8565b612839908660005260206000206005601f8601811c8201926020871061283f575b601f01901c0190613d03565b8961273d565b919250829161282d565b6003818102048103611588576003838102048303611588576003840160005260206000208360030281015b8260030282018110612887575050612115565b806128946003925461363c565b806128af575b50600060018201556000600282015501612874565b601f81116001146128c65750600081555b8861289a565b6128e590826000526001601f6020600020920160051c82019101613d03565b600060208120818355556128c0565b0151905084806120c1565b8260005260206000209060005b601f198416811061294f5750600193949583601f19811610612936575b505050811b0181556120d6565b015160001960f88460031b161c19169055848080612929565b9091602060018192858a01518155019301910161290c565b61299390836000526020600020601f840160051c810191602085106124fb57601f0160051c0190613d03565b846120a7565b60405162461bcd60e51b815260206004820152601d60248201527f6572726f725f696e76616c69645265706f72745369676e6174757265730000006044820152606490fd5b612a00915060203d602011612a06575b6129f88183612ef9565b810190613a9c565b8661203a565b503d6129ee565b6040513d6000823e3d90fd5b5050612056565b602090604051612a2f81612edd565b6000815260608382015282826104e0510101520161192a565b60405162461bcd60e51b815260206004820152601560248201527f6572726f725f696e76616c69645265706f7274657200000000000000000000006044820152606490fd5b50505061120a565b60405162461bcd60e51b815260206004820152601260248201527f6572726f725f71756f72756d4e6f744d657400000000000000000000000000006044820152606490fd5b60405162461bcd60e51b815260206004820152601360248201527f6572726f725f696e76616c696450726f6f6673000000000000000000000000006044820152606490fd5b60405162461bcd60e51b815260206004820152601360248201527f6572726f725f696e76616c69645265706f7274000000000000000000000000006044820152606490fd5b506001612b6f613792565b015460243511611108565b60405162461bcd60e51b815260206004820152601c60248201527f6572726f725f7265706f7274416c726561647950726f636573736564000000006044820152606490fd5b60405162461bcd60e51b815260206004820152601360248201527f6572726f725f7374616b655265717569726564000000000000000000000000006044820152606490fd5b612c1d915060203d602011612a06576129f88183612ef9565b816110ca565b34610162576020806003193601126101625760043567ffffffffffffffff811161016257612c5682913690600401612f81565b9190612c606135f8565b50826040519384928337810160fe8152030190209060405190612c8282612ea4565b612c8b83613676565b82526001808401548284015260029182850154604085015260038086018054612cb381612f1b565b91612cc16040519384612ef9565b81835260009081528481208685878087015b868610612e1b57505050505050506060860152612cf26004870161371c565b6080860152600586018054612d0681612f1b565b91612d146040519384612ef9565b81835260009081528481208688878087015b868610612de1575050505050505060a086015260068601805492612d4984612f1b565b95612d576040519788612ef9565b8487526000928352818320908288015b868510612da55760c08a0189905260078b01546001600160a01b03811660e08c015260a01c60ff1615156101008b0152604051806103628c8261303f565b85848992604051612db581612ec1565b6001600160a01b0387541681528487015483820152858701546040820152815201930194019391612d67565b604051612ded81612edd565b6001600160a01b038654168152612e0585870161371c565b8382015281520192019201919088878992612d26565b604051612e2781612ec1565b612e3086613676565b815284860154838201528c860154604082015281520192019201919085878992612cd3565b346101625760203660031901126101625760043567ffffffffffffffff8111610162573660238201121561016257612e9c6111806020923690602481600401359101612f33565b604051908152f35b610120810190811067ffffffffffffffff821117610d9157604052565b6060810190811067ffffffffffffffff821117610d9157604052565b6040810190811067ffffffffffffffff821117610d9157604052565b90601f8019910116810190811067ffffffffffffffff821117610d9157604052565b67ffffffffffffffff8111610d915760051b60200190565b9291612f3e82612f1b565b91612f4c6040519384612ef9565b829481845260208094019160051b810192831161016257905b828210612f725750505050565b81358152908301908301612f65565b9181601f840112156101625782359167ffffffffffffffff8311610162576020838186019501011161016257565b60005b838110612fc25750506000910152565b8181015183820152602001612fb2565b90602091612feb81518092818552858086019101612faf565b601f01601f1916010190565b90815180825260208080930193019160005b828110613017575050505090565b835180516001600160a01b031686528201518583015260409094019392810192600101613009565b60209182825280519061305f610120928386860152610140850190612fd2565b93808201516040908186015280830151916060928387015282840151601f19978888820301608089015281518082528382019184808360051b8301019401926000915b888d8585106131cd57505050505050506130ca906080860151898983030160a08a0152612ff7565b9160a085015192888882030160c089015283518082528382019184808360051b8301019601926000915b8c8484106131805750505050505060c0850151978784030160e08801528180895194858152019801936000915b84831061314f575050505050506001600160a01b0360e0820151169061010091828501520151151591015290565b855180516001600160a01b03168b52808501518b8601528101518a8201529881019894830194600190920191613121565b96806131b98a89838a9e9b9c9a8798999a9b829f9860019903018a52516001600160a01b03815116845201519181858201520190612ff7565b9a01930193019193929097969594976130f4565b9780999891888293856001969798999a9b030187528a806131f88c5194855190808652850190612fd2565b9385810151868501520151910152970193019301919392909695966130a2565b9181601f840112156101625782359167ffffffffffffffff8311610162576020808501948460051b01011161016257565b600435906001600160a01b038216820361016257565b929161326a82612f1b565b916132786040519384612ef9565b829481845260208094019160051b810192831161016257905b82821061329e5750505050565b81356001600160a01b0381168103610162578152908301908301613291565b67ffffffffffffffff8111610d9157601f01601f191660200190565b9291926132e5826132bd565b916132f36040519384612ef9565b829481845281830111610162578281602093846000960137010152565b6001600160a01b0360975416330361332457565b606460405162461bcd60e51b815260206004820152602060248201527f4f776e61626c653a2063616c6c6572206973206e6f7420746865206f776e65726044820152fd5b609754906001600160a01b0380911691826001600160a01b0319821617609755167f8be0079c531659141344cd1fd0a4f28419497f9722a3daafe3b4186f6b6457e0600080a3565b156133b757565b60405162461bcd60e51b815260206004820152602c60248201527f46756e6374696f6e206d7573742062652063616c6c6564207468726f7567682060448201527f64656c656761746563616c6c00000000000000000000000000000000000000006064820152608490fd5b1561342957565b60405162461bcd60e51b815260206004820152602c60248201527f46756e6374696f6e206d7573742062652063616c6c6564207468726f7567682060448201527f6163746976652070726f787900000000000000000000000000000000000000006064820152608490fd5b803b156134d7576001600160a01b037f360894a13ba1a3210667c828492db98dca3e2076cc3735a920a3ca505d382bbc91166001600160a01b0319825416179055565b60405162461bcd60e51b815260206004820152602d60248201527f455243313936373a206e657720696d706c656d656e746174696f6e206973206e60448201527f6f74206120636f6e7472616374000000000000000000000000000000000000006064820152608490fd5b9091901561354e575090565b81511561355e5750805190602001fd5b60405162461bcd60e51b815260206004820152908190613582906024830190612fd2565b0390fd5b1561358d57565b60405162461bcd60e51b815260206004820152602b60248201527f496e697469616c697a61626c653a20636f6e7472616374206973206e6f74206960448201527f6e697469616c697a696e670000000000000000000000000000000000000000006064820152608490fd5b6040519061360582612ea4565b600061010083606080825283602083015283604083015280808301528060808301528060a083015260c08201528260e08201520152565b90600182811c9216801561366c575b602083101461365657565b634e487b7160e01b600052602260045260246000fd5b91607f169161364b565b906040519182600082549261368a8461363c565b9081845260019485811690816000146136f957506001146136b6575b50506136b492500383612ef9565b565b9093915060005260209081600020936000915b8183106136e15750506136b4935082010138806136a6565b855488840185015294850194879450918301916136c9565b9150506136b494506020925060ff191682840152151560051b82010138806136a6565b90815461372881612f1b565b9260409361373885519182612ef9565b828152809460208092019260005281600020906000935b85851061375e57505050505050565b600284600192845161376f81612edd565b6001600160a01b038754168152848701548382015281520193019401939161374f565b60405160fc548160006137a48361363c565b9260019081811690811561382157506001146137cb575b506020925060fe81520301902090565b60fc600090815291507f371f36870d18f32a11fea0f144b021c8b407bb50f8e0267c711123f454b963c05b84831061380b575050506020918101386137bb565b80548684015285935060209092019181016137f6565b60ff191684525060209380151502830191503890506137bb565b60209081818403126101625780519067ffffffffffffffff821161016257019180601f8401121561016257825161387181612f1b565b9361387f6040519586612ef9565b818552838086019260051b820101928311610162578301905b8282106138a6575050505090565b81516001600160a01b0381168103610162578152908301908301613898565b60001981146115885760010190565b9190820391821161158857565b9190820180921161158857565b80518210156139025760209160051b010190565b634e487b7160e01b600052603260045260246000fd5b6001600160a01b03908160ff54169160408051808095636085a91160e11b8252600091829160049889915afa918215613a90578192613a6c575b50818251958291600019918289019189831191825b613a595783861015613a4b57865b61397f878d6138d4565b868101908111613a1d57811015613a315760018101808211613a1d579089828d8b8e826139af6139e098876138ee565b5116825260fd60208181528284205493856139ca8a8a6138ee565b51169052528d2054106139e5575b5050506138c5565b613975565b80613a0085613a09936139f886886138ee565b5116956138ee565b5116918d6138ee565b52613a14828c6138ee565b5289388d6139d8565b50634e487b7160e01b885260118d52602488fd5b509194613a40909391936138c5565b949182939193613967565b995099505050505050505050565b634e487b7160e01b875260118c52602487fd5b613a899192503d8084833e613a818183612ef9565b81019061383b565b9038613952565b508251903d90823e3d90fd5b90816020910312610162575180151581036101625790565b91908110156139025760051b81013590601e198136030182121561016257019081359167ffffffffffffffff8311610162576020018236038113610162579190565b91908110156139025760051b0190565b60226136b4919392936040519481613b28879351809260208087019101612faf565b820190601160f91b91826020820152613b4b825180936020602185019101612faf565b01906021820152036002810185520183612ef9565b60206136b4919392936040519481613b818793518092868087019101612faf565b8201613b9582518093868085019101612faf565b01038085520183612ef9565b906136b4602160405184613bbf829651809260208086019101612faf565b8101600b60fa1b6020820152036001810185520183612ef9565b356001600160a01b03811681036101625790565b90613bf782612f1b565b604090613c0682519182612ef9565b8381528093613c17601f1991612f1b565b0191600090815b848110613c2c575050505050565b6020908251613c3a81612edd565b848152828581830152828701015201613c1e565b906136b4602160405184613c6c829651809260208086019101612faf565b8101605b60f81b6020820152036001810185520183612ef9565b91908110156139025760051b81013590601e198136030182121561016257019081359167ffffffffffffffff8311610162576020018260051b36038113610162579190565b906136b4602160405184613ce9829651809260208086019101612faf565b8101605d60f81b6020820152036001810185520183612ef9565b818110613d0e575050565b60008155600101613d03565b680100000000000000008211610d91578054828255808310613d3b57505050565b6001600160ff1b038082168203611588578316830361158857600091825260208220600191821b810193821b015b838110613d765750505050565b808360029255838382015501613d69565b90600091600090816001600160a01b0392818460ff541660405193848092636085a91160e11b825260049384915afa938415613eea578294613ece575b508351946402540be4009081870296808804831490151715613ebb5760019998978a97881c96859b5b613e00575b505050505050505050909150565b80518c1015613eb6578886838e835b613e4f575b5050505087871015613e3457613e2c899a9b9c6138c5565b9b9a99613ded565b50505050505050509150915081388080808080808080613df2565b8651831015613eb157613e6290856138ee565b511684613e6f83886138ee565b511614613e8757613e7f906138c5565b838e83613e0f565b505095838101809111613e9e57958838838e613e14565b634e487b7160e01b865260118552602486fd5b613e14565b613df2565b634e487b7160e01b845260118352602484fd5b613ee39194503d8084833e613a818183612ef9565b9238613dc4565b6040513d84823e3d90fd5b90600091825b8151841015613f4057613f0e84836138ee565b51906402540be4009182810292818404149015171561158857613f3a91613f34916138e1565b936138c5565b92613efb565b91925051908115613f4f570490565b634e487b7160e01b600052601260045260246000fd5b806000917a184f03e93ff9f4daa797ed6e38ed64bf6a1f010000000000000000808210156140bf575b506d04ee2d6d415b85acef8100000000808310156140b0575b50662386f26fc10000808310156140a1575b506305f5e10080831015614092575b5061271080831015614083575b506064821015614073575b600a80921015614069575b60019081602181860195613ffe876132bd565b9661400c6040519889612ef9565b80885261401b601f19916132bd565b01366020890137860101905b614033575b5050505090565b600019019083906f181899199a1a9b1b9c1cb0b131b232b360811b8282061a83530491821561406457919082614027565b61402c565b9160010191613feb565b9190606460029104910191613fe0565b60049193920491019138613fd5565b60089193920491019138613fc8565b60109193920491019138613fb9565b60209193920491019138613fa7565b604093508104915038613f8e565b8060008260801c80614247575b508160401c8061423c575b508160201c80614231575b5060109180831c80614224575b5060081c61421c575b6001809101929183821b936001600160ff1b038116036115885760028401938481116115885761414e614138866132bd565b956141466040519788612ef9565b8087526132bd565b6020860190601f19013682378551156139025760309053845183101561390257607860218601538281018091116115885791905b8183116141d7575050506141935790565b606460405162461bcd60e51b815260206004820152602060248201527f537472696e67733a20686578206c656e67746820696e73756666696369656e746044820152fd5b909192600f811682811015613902576f181899199a1a9b1b9c1cb0b131b232b360811b901a6142068587614315565b5360041c92801561158857600019019190614182565b600101614106565b60029150910190386140fd565b9150600401386140f0565b9150600801386140e5565b9150506010386140da565b6000808212919082156142d05761428e6142c79260209260405161427581612edd565b60018152602d60f81b85820152955b6142ca57506140cd565b9260405193816142a78693518092868087019101612faf565b82016142bb82518093868085019101612faf565b01038084520182612ef9565b90565b036140cd565b6040516020810181811067ffffffffffffffff82111761430157604052818152926142c79260209261428e92614284565b634e487b7160e01b83526041600452602483fd5b908151811015613902570160200190565b6001600160a01b03166040519061433c82612ec1565b602a82526020820160403682378251156139025760309053815160019081101561390257607860218401536029905b80821161437b5750506141935790565b9091600f811660108110156143d4576f181899199a1a9b1b9c1cb0b131b232b360811b901a6143aa8486614315565b5360041c9180156143bf57600019019061436b565b60246000634e487b7160e01b81526011600452fd5b60246000634e487b7160e01b81526032600452fdfea2646970667358221220c1dcc56e2a45c5cb864f9f1f49554770611ed14a8560abd191a1ed7f176c6ebf64736f6c63430008110033",
  "linkReferences": {
    "src/lib/VerifySignature.sol": {
      "VerifySignature": [
        {
          "length": 20,
          "start": 8267
        }
      ]
    }
  },
  "deployedLinkReferences": {
    "src/lib/VerifySignature.sol": {
      "VerifySignature": [
        {
          "length": 20,
          "start": 8212
        }
      ]
    }
  }
}