{
  "_format": "hh-sol-artifact-1",
  "contractName": "LogStoreReportManager",
  "sourceName": "src/ReportManager.sol",
  "abi": [
    {
      "anonymous": false,
      "inputs": [
        {
          "indexed": false,
          "internalType": "address",
          "name": "previousAdmin",
          "type": "address"
        },
        {
          "indexed": false,
          "internalType": "address",
          "name": "newAdmin",
          "type": "address"
        }
      ],
      "name": "AdminChanged",
      "type": "event"
    },
    {
      "anonymous": false,
      "inputs": [
        {
          "indexed": true,
          "internalType": "address",
          "name": "beacon",
          "type": "address"
        }
      ],
      "name": "BeaconUpgraded",
      "type": "event"
    },
    {
      "anonymous": false,
      "inputs": [
        {
          "indexed": false,
          "internalType": "uint8",
          "name": "version",
          "type": "uint8"
        }
      ],
      "name": "Initialized",
      "type": "event"
    },
    {
      "anonymous": false,
      "inputs": [
        {
          "indexed": true,
          "internalType": "address",
          "name": "previousOwner",
          "type": "address"
        },
        {
          "indexed": true,
          "internalType": "address",
          "name": "newOwner",
          "type": "address"
        }
      ],
      "name": "OwnershipTransferred",
      "type": "event"
    },
    {
      "anonymous": false,
      "inputs": [
        {
          "indexed": false,
          "internalType": "string",
          "name": "id",
          "type": "string"
        }
      ],
      "name": "ReportAccepted",
      "type": "event"
    },
    {
      "anonymous": false,
      "inputs": [
        {
          "indexed": true,
          "internalType": "address",
          "name": "implementation",
          "type": "address"
        }
      ],
      "name": "Upgraded",
      "type": "event"
    },
    {
      "inputs": [],
      "name": "MATH_PRECISION",
      "outputs": [
        {
          "internalType": "uint256",
          "name": "",
          "type": "uint256"
        }
      ],
      "stateMutability": "view",
      "type": "function"
    },
    {
      "inputs": [
        {
          "internalType": "uint256[]",
          "name": "timestamps",
          "type": "uint256[]"
        }
      ],
      "name": "aggregateTimestamps",
      "outputs": [
        {
          "internalType": "uint256",
          "name": "",
          "type": "uint256"
        }
      ],
      "stateMutability": "pure",
      "type": "function"
    },
    {
      "inputs": [],
      "name": "blockTimestamp",
      "outputs": [
        {
          "internalType": "uint256",
          "name": "",
          "type": "uint256"
        }
      ],
      "stateMutability": "view",
      "type": "function"
    },
    {
      "inputs": [
        {
          "internalType": "uint256[]",
          "name": "proofTimestamps",
          "type": "uint256[]"
        }
      ],
      "name": "canReport",
      "outputs": [
        {
          "internalType": "bool",
          "name": "",
          "type": "bool"
        }
      ],
      "stateMutability": "view",
      "type": "function"
    },
    {
      "inputs": [],
      "name": "getLastReport",
      "outputs": [
        {
          "components": [
            {
              "internalType": "string",
              "name": "id",
              "type": "string"
            },
            {
              "internalType": "uint256",
              "name": "height",
              "type": "uint256"
            },
            {
              "internalType": "int256",
              "name": "treasury",
              "type": "int256"
            },
            {
              "components": [
                {
                  "internalType": "string",
                  "name": "id",
                  "type": "string"
                },
                {
                  "internalType": "uint256",
                  "name": "writeCapture",
                  "type": "uint256"
                },
                {
                  "internalType": "uint256",
                  "name": "writeBytes",
                  "type": "uint256"
                }
              ],
              "internalType": "struct LogStoreReportManager.Stream[]",
              "name": "streams",
              "type": "tuple[]"
            },
            {
              "components": [
                {
                  "internalType": "address",
                  "name": "id",
                  "type": "address"
                },
                {
                  "internalType": "int256",
                  "name": "amount",
                  "type": "int256"
                }
              ],
              "internalType": "struct LogStoreReportManager.Node[]",
              "name": "nodes",
              "type": "tuple[]"
            },
            {
              "components": [
                {
                  "internalType": "address",
                  "name": "id",
                  "type": "address"
                },
                {
                  "components": [
                    {
                      "internalType": "address",
                      "name": "id",
                      "type": "address"
                    },
                    {
                      "internalType": "int256",
                      "name": "amount",
                      "type": "int256"
                    }
                  ],
                  "internalType": "struct LogStoreReportManager.Node[]",
                  "name": "nodes",
                  "type": "tuple[]"
                }
              ],
              "internalType": "struct LogStoreReportManager.Delegate[]",
              "name": "delegates",
              "type": "tuple[]"
            },
            {
              "components": [
                {
                  "internalType": "address",
                  "name": "id",
                  "type": "address"
                },
                {
                  "internalType": "uint256",
                  "name": "readCapture",
                  "type": "uint256"
                },
                {
                  "internalType": "uint256",
                  "name": "readBytes",
                  "type": "uint256"
                }
              ],
              "internalType": "struct LogStoreReportManager.Consumer[]",
              "name": "consumers",
              "type": "tuple[]"
            },
            {
              "internalType": "address",
              "name": "_reporter",
              "type": "address"
            },
            {
              "internalType": "bool",
              "name": "_processed",
              "type": "bool"
            }
          ],
          "internalType": "struct LogStoreReportManager.Report",
          "name": "",
          "type": "tuple"
        }
      ],
      "stateMutability": "view",
      "type": "function"
    },
    {
      "inputs": [
        {
          "internalType": "string",
          "name": "id",
          "type": "string"
        }
      ],
      "name": "getReport",
      "outputs": [
        {
          "components": [
            {
              "internalType": "string",
              "name": "id",
              "type": "string"
            },
            {
              "internalType": "uint256",
              "name": "height",
              "type": "uint256"
            },
            {
              "internalType": "int256",
              "name": "treasury",
              "type": "int256"
            },
            {
              "components": [
                {
                  "internalType": "string",
                  "name": "id",
                  "type": "string"
                },
                {
                  "internalType": "uint256",
                  "name": "writeCapture",
                  "type": "uint256"
                },
                {
                  "internalType": "uint256",
                  "name": "writeBytes",
                  "type": "uint256"
                }
              ],
              "internalType": "struct LogStoreReportManager.Stream[]",
              "name": "streams",
              "type": "tuple[]"
            },
            {
              "components": [
                {
                  "internalType": "address",
                  "name": "id",
                  "type": "address"
                },
                {
                  "internalType": "int256",
                  "name": "amount",
                  "type": "int256"
                }
              ],
              "internalType": "struct LogStoreReportManager.Node[]",
              "name": "nodes",
              "type": "tuple[]"
            },
            {
              "components": [
                {
                  "internalType": "address",
                  "name": "id",
                  "type": "address"
                },
                {
                  "components": [
                    {
                      "internalType": "address",
                      "name": "id",
                      "type": "address"
                    },
                    {
                      "internalType": "int256",
                      "name": "amount",
                      "type": "int256"
                    }
                  ],
                  "internalType": "struct LogStoreReportManager.Node[]",
                  "name": "nodes",
                  "type": "tuple[]"
                }
              ],
              "internalType": "struct LogStoreReportManager.Delegate[]",
              "name": "delegates",
              "type": "tuple[]"
            },
            {
              "components": [
                {
                  "internalType": "address",
                  "name": "id",
                  "type": "address"
                },
                {
                  "internalType": "uint256",
                  "name": "readCapture",
                  "type": "uint256"
                },
                {
                  "internalType": "uint256",
                  "name": "readBytes",
                  "type": "uint256"
                }
              ],
              "internalType": "struct LogStoreReportManager.Consumer[]",
              "name": "consumers",
              "type": "tuple[]"
            },
            {
              "internalType": "address",
              "name": "_reporter",
              "type": "address"
            },
            {
              "internalType": "bool",
              "name": "_processed",
              "type": "bool"
            }
          ],
          "internalType": "struct LogStoreReportManager.Report",
          "name": "",
          "type": "tuple"
        }
      ],
      "stateMutability": "view",
      "type": "function"
    },
    {
      "inputs": [],
      "name": "getReporters",
      "outputs": [
        {
          "internalType": "address[]",
          "name": "reporters",
          "type": "address[]"
        }
      ],
      "stateMutability": "view",
      "type": "function"
    },
    {
      "inputs": [
        {
          "internalType": "address",
          "name": "_owner",
          "type": "address"
        },
        {
          "internalType": "uint256",
          "name": "_reportTimeBuffer",
          "type": "uint256"
        }
      ],
      "name": "initialize",
      "outputs": [],
      "stateMutability": "nonpayable",
      "type": "function"
    },
    {
      "inputs": [],
      "name": "owner",
      "outputs": [
        {
          "internalType": "address",
          "name": "",
          "type": "address"
        }
      ],
      "stateMutability": "view",
      "type": "function"
    },
    {
      "inputs": [
        {
          "internalType": "string",
          "name": "id",
          "type": "string"
        }
      ],
      "name": "processReport",
      "outputs": [],
      "stateMutability": "nonpayable",
      "type": "function"
    },
    {
      "inputs": [],
      "name": "proxiableUUID",
      "outputs": [
        {
          "internalType": "bytes32",
          "name": "",
          "type": "bytes32"
        }
      ],
      "stateMutability": "view",
      "type": "function"
    },
    {
      "inputs": [
        {
          "internalType": "address[]",
          "name": "submittedNodes",
          "type": "address[]"
        }
      ],
      "name": "quorumIsMet",
      "outputs": [
        {
          "internalType": "bool",
          "name": "isMet",
          "type": "bool"
        }
      ],
      "stateMutability": "view",
      "type": "function"
    },
    {
      "inputs": [],
      "name": "renounceOwnership",
      "outputs": [],
      "stateMutability": "nonpayable",
      "type": "function"
    },
    {
      "inputs": [
        {
          "internalType": "string",
          "name": "id",
          "type": "string"
        },
        {
          "internalType": "uint256",
          "name": "blockHeight",
          "type": "uint256"
        },
        {
          "internalType": "string[]",
          "name": "streams",
          "type": "string[]"
        },
        {
          "internalType": "uint256[]",
          "name": "writeCaptureAmounts",
          "type": "uint256[]"
        },
        {
          "internalType": "uint256[]",
          "name": "writeBytes",
          "type": "uint256[]"
        },
        {
          "internalType": "address[]",
          "name": "readConsumerAddresses",
          "type": "address[]"
        },
        {
          "internalType": "uint256[]",
          "name": "readCaptureAmounts",
          "type": "uint256[]"
        },
        {
          "internalType": "uint256[]",
          "name": "readBytes",
          "type": "uint256[]"
        },
        {
          "internalType": "address[]",
          "name": "nodes",
          "type": "address[]"
        },
        {
          "internalType": "int256[]",
          "name": "nodeChanges",
          "type": "int256[]"
        },
        {
          "internalType": "address[]",
          "name": "delegates",
          "type": "address[]"
        },
        {
          "internalType": "address[][]",
          "name": "delegateNodes",
          "type": "address[][]"
        },
        {
          "internalType": "int256[][]",
          "name": "delegateNodeChanges",
          "type": "int256[][]"
        },
        {
          "internalType": "int256",
          "name": "treasurySupplyChange",
          "type": "int256"
        },
        {
          "internalType": "address[]",
          "name": "addresses",
          "type": "address[]"
        },
        {
          "internalType": "uint256[]",
          "name": "proofTimestamps",
          "type": "uint256[]"
        },
        {
          "internalType": "bytes[]",
          "name": "signatures",
          "type": "bytes[]"
        }
      ],
      "name": "report",
      "outputs": [],
      "stateMutability": "nonpayable",
      "type": "function"
    },
    {
      "inputs": [],
      "name": "reportTimeBuffer",
      "outputs": [
        {
          "internalType": "uint256",
          "name": "",
          "type": "uint256"
        }
      ],
      "stateMutability": "view",
      "type": "function"
    },
    {
      "inputs": [
        {
          "internalType": "address",
          "name": "",
          "type": "address"
        }
      ],
      "name": "reputationOf",
      "outputs": [
        {
          "internalType": "uint256",
          "name": "",
          "type": "uint256"
        }
      ],
      "stateMutability": "view",
      "type": "function"
    },
    {
      "inputs": [
        {
          "internalType": "uint256",
          "name": "_reportTimeBuffer",
          "type": "uint256"
        }
      ],
      "name": "setReportTimeBuffer",
      "outputs": [],
      "stateMutability": "nonpayable",
      "type": "function"
    },
    {
      "inputs": [
        {
          "internalType": "address",
          "name": "newOwner",
          "type": "address"
        }
      ],
      "name": "transferOwnership",
      "outputs": [],
      "stateMutability": "nonpayable",
      "type": "function"
    },
    {
      "inputs": [
        {
          "internalType": "address",
          "name": "newImplementation",
          "type": "address"
        }
      ],
      "name": "upgradeTo",
      "outputs": [],
      "stateMutability": "nonpayable",
      "type": "function"
    },
    {
      "inputs": [
        {
          "internalType": "address",
          "name": "newImplementation",
          "type": "address"
        },
        {
          "internalType": "bytes",
          "name": "data",
          "type": "bytes"
        }
      ],
      "name": "upgradeToAndCall",
      "outputs": [],
      "stateMutability": "payable",
      "type": "function"
    }
  ],
  "bytecode": "0x60a080604052346100315730608052613c88908161003782396080518181816107f8015281816109050152610c1c0152f35b600080fdfe6104c0604052600436101561001357600080fd5b60003560e01c80630e0a17131461288257806312e63d71146126505780631bfdc98a14610f2c57806325cbbdff14610ee057806331c74e0114610ec25780633659cfe614610bf75780634f1ef286146108b357806352d1902d146107dd5780636f94990d146107b257806370f462021461074d578063715018a6146106f25780638da5cb5b146106cb578063adb61832146106a8578063cd6dc687146104ea578063d91b99e8146104ca578063db89c04414610490578063dbc2d37014610442578063eefa7a3e14610239578063f2fde38b146101935763f6883c05146100f957600080fd5b3461018e57602036600319011261018e5760043567ffffffffffffffff811161018e57602061012e60079236906004016129b6565b9190610138612d45565b826040519384928337810160fe81520301902001740100000000000000000000000000000000000000007fffffffffffffffffffffff00ffffffffffffffffffffffffffffffffffffffff825416179055600080f35b600080fd5b3461018e57602036600319011261018e576101ac612c7e565b6101b4612d45565b6001600160a01b038116156101ce576101cc90612d9d565b005b60405162461bcd60e51b815260206004820152602660248201527f4f776e61626c653a206e6577206f776e657220697320746865207a65726f206160448201527f64647265737300000000000000000000000000000000000000000000000000006064820152608490fd5b3461018e57600036600319011261018e57610252613040565b5061025b6131da565b6040516102678161289a565b610270826130be565b815260018083015490602091828401526002918285015460408501526003808601805461029c81612911565b916102aa60405193846128ef565b81835260009081528481208685878087015b868610610408575050505050505060608601526102db60048701613164565b60808601526005860180546102ef81612911565b916102fd60405193846128ef565b81835260009081528481208688878087015b8686106103ce575050505050505060a08601526006860180549261033284612911565b9561034060405197886128ef565b8487526000928352818320908288015b8685106103925760c08a0189905260078b01546001600160a01b03811660e08c015260a01c60ff1615156101008b01526040518061038e8c82612a74565b0390f35b858489926040516103a2816128b7565b6001600160a01b0387541681528487015483820152858701546040820152815201930194019391610350565b6040516103da816128d3565b6001600160a01b0386541681526103f2858701613164565b838201528152019201920191908887899261030f565b604051610414816128b7565b61041d866130be565b815284860154838201528c8601546040820152815201920192019190858789926102bc565b3461018e57602036600319011261018e5760043561045e612d45565b6402540be4009081810291818304149015171561047a5760fb55005b634e487b7160e01b600052601160045260246000fd5b3461018e57602036600319011261018e576001600160a01b036104b1612c7e565b1660005260fc6020526020604060002054604051908152f35b3461018e57600036600319011261018e5760206040516402540be4008152f35b3461018e57604036600319011261018e57610503612c7e565b602435906000549160ff90818460081c16159384809561069c575b8015610686575b1561061b5760ff19811660011760005584610609575b506105558260005460081c1661055081612fce565b612fce565b61055e33612d9d565b61057b8260005460081c1661057281612fce565b61055081612fce565b600160c9556001600160a01b03831691826001600160a01b03198254161790556402540be4009081810291818304149015171561047a5760fb556105bd612d45565b156101ce576105cb90612d9d565b6105d157005b61ff0019600054166000557f7f26b83ff96e1f2b6a682f133852f6798a09c465da95921460cefb3847402498602060405160018152a1005b61ffff1916610101176000558461053b565b60405162461bcd60e51b815260206004820152602e60248201527f496e697469616c697a61626c653a20636f6e747261637420697320616c72656160448201527f647920696e697469616c697a65640000000000000000000000000000000000006064820152608490fd5b50303b1580156105255750600183821614610525565b5060018382161061051e565b3461018e57600036600319011261018e5760206106c36139c5565b604051908152f35b3461018e57600036600319011261018e5760206001600160a01b0360975416604051908152f35b3461018e57600036600319011261018e5761070b612d45565b60006001600160a01b036097546001600160a01b03198116609755167f8be0079c531659141344cd1fd0a4f28419497f9722a3daafe3b4186f6b6457e08280a3005b3461018e57600036600319011261018e57610766613360565b604051809160208083018184528251809152816040850193019160005b82811061079257505050500390f35b83516001600160a01b031685528695509381019392810192600101610783565b3461018e5760206107d36107c536612977565b6107cd613360565b336138b0565b6040519015158152f35b3461018e57600036600319011261018e576001600160a01b037f00000000000000000000000000000000000000000000000000000000000000001630036108485760206040517f360894a13ba1a3210667c828492db98dca3e2076cc3735a920a3ca505d382bbc8152f35b60405162461bcd60e51b815260206004820152603860248201527f555550535570677261646561626c653a206d757374206e6f742062652063616c60448201527f6c6564207468726f7567682064656c656761746563616c6c00000000000000006064820152608490fd5b604036600319011261018e576108c7612c7e565b60243567ffffffffffffffff811161018e573660238201121561018e576108f8903690602481600401359101612d0e565b906001600160a01b0391827f0000000000000000000000000000000000000000000000000000000000000000169261093284301415612de5565b6109617f360894a13ba1a3210667c828492db98dca3e2076cc3735a920a3ca505d382bbc948286541614612e57565b610969612d45565b7f4910fdfa16fed3260ed0e7147f7cc6da11a60208b5b9406d12a635614ffd91435460ff161561099f5750506101cc9150612ec9565b82919216604051936352d1902d60e01b85526020948581600481865afa60009181610bc8575b50610a265760405162461bcd60e51b815260048101879052602e60248201527f45524331393637557067726164653a206e657720696d706c656d656e7461746960448201526d6f6e206973206e6f74205555505360901b6064820152608490fd5b03610b7157610a3482612ec9565b604051907fbc7cd75a20ee27fd9adebab32041f755214dbc6bffa90cc0225b39da2e5c2d3b600080a2825115801590610b69575b610a6e57005b813b15610b1857506000828192856101cc9695519201905af43d15610b10573d90610a9882612cf2565b91610aa660405193846128ef565b82523d60008484013e5b7f416464726573733a206c6f772d6c6576656c2064656c65676174652063616c6c60405193610ade856128b7565b602785528401527f206661696c6564000000000000000000000000000000000000000000000000006040840152612f77565b606090610ab0565b62461bcd60e51b815260048101849052602660248201527f416464726573733a2064656c65676174652063616c6c20746f206e6f6e2d636f6044820152651b9d1c9858dd60d21b6064820152608490fd5b506001610a68565b60405162461bcd60e51b815260048101859052602960248201527f45524331393637557067726164653a20756e737570706f727465642070726f786044820152681a58589b195555525160ba1b6064820152608490fd5b9091508681813d8311610bf0575b610be081836128ef565b8101031261018e575190876109c5565b503d610bd6565b3461018e5760208060031936011261018e57610c11612c7e565b6001600160a01b03807f000000000000000000000000000000000000000000000000000000000000000016610c4881301415612de5565b610c777f360894a13ba1a3210667c828492db98dca3e2076cc3735a920a3ca505d382bbc918383541614612e57565b610c7f612d45565b604051908482019282841067ffffffffffffffff851117610eac57836040526000835260ff7f4910fdfa16fed3260ed0e7147f7cc6da11a60208b5b9406d12a635614ffd91435416600014610cdc57505050506101cc9150612ec9565b8416906040516352d1902d60e01b81528681600481865afa60009181610e7d575b50610d5e5760405162461bcd60e51b815260048101889052602e60248201527f45524331393637557067726164653a206e657720696d706c656d656e7461746960448201526d6f6e206973206e6f74205555505360901b6064820152608490fd5b03610e2657610d6c84612ec9565b604051907fbc7cd75a20ee27fd9adebab32041f755214dbc6bffa90cc0225b39da2e5c2d3b600080a2815115801590610e1e575b610da657005b833b15610dcd57506101cc9392600092839251915af43d15610b10573d90610a9882612cf2565b62461bcd60e51b815260048101859052602660248201527f416464726573733a2064656c65676174652063616c6c20746f206e6f6e2d636f6044820152651b9d1c9858dd60d21b6064820152608490fd5b506000610da0565b60405162461bcd60e51b815260048101869052602960248201527f45524331393637557067726164653a20756e737570706f727465642070726f786044820152681a58589b195555525160ba1b6064820152608490fd5b9091508781813d8311610ea5575b610e9581836128ef565b8101031261018e57519088610cfd565b503d610e8b565b634e487b7160e01b600052604160045260246000fd5b3461018e57600036600319011261018e57602060fb54604051908152f35b3461018e57602036600319011261018e5760043567ffffffffffffffff811161018e573660238201121561018e576107d3610f276020923690602481600401359101612c94565b6136d2565b3461018e5761022036600319011261018e5760043567ffffffffffffffff811161018e57610f5e9036906004016129b6565b610240526103405260443567ffffffffffffffff811161018e57610f86903690600401612c4d565b6103605260643567ffffffffffffffff811161018e57610faa903690600401612c4d565b60e0526104205260843567ffffffffffffffff811161018e57610fd1903690600401612c4d565b6103e0526104405260a43567ffffffffffffffff811161018e57610ff9903690600401612c4d565b60805260c43567ffffffffffffffff811161018e5761101c903690600401612c4d565b9060e43567ffffffffffffffff811161018e5761103d903690600401612c4d565b61028052926101043567ffffffffffffffff811161018e57611063903690600401612c4d565b6104a052610260526101243567ffffffffffffffff811161018e5761108c903690600401612c4d565b92906103c0526101443567ffffffffffffffff811161018e576110b3903690600401612c4d565b61046052610140526101643567ffffffffffffffff811161018e576110dc903690600401612c4d565b61016052610180526101843567ffffffffffffffff811161018e57611105903690600401612c4d565b6101a0526102c05267ffffffffffffffff6101c4351161018e5761112f366101c435600401612c4d565b61020052610320526101e43567ffffffffffffffff811161018e57611158903690600401612c4d565b61022052610480526102043567ffffffffffffffff811161018e57611181903690600401612c4d565b610100526102e052602460206001600160a01b0360ff541660405192838092630c2effa360e31b82523360048301525afa90811561245157600091612631575b50156125ec5760ff60076040516102405161034051823760208161024051810160fe815203019020015460a01c166125a75743602435111580612591575b1561254c57610200518060038102046003148115171561047a576112349061122f61010051916102205190613329565b613329565b600361020051020361250757611254610f27366102005161032051612c94565b156124c25760606102a05261127f61126e61036051612911565b806101c0526040518060a0526128ef565b6103605160a05152601f1961129661036051612911565b0160005b81811061249257505060005b61036051808210156113c3579060406113456112c6836113be958c6134fc565b92906112e16112db8660e0516104205161353e565b356139f7565b60206112f4876103e0516104405161353e565b35916113308551978895816102a0516113158151809289808d0191016129e4565b880191868301370191838301600081528151948592016129e4565b019060208201520360208101845201826128ef565b6102a05261135781610360518a6134fc565b906113688360e0516104205161353e565b3561139361137d856103e0516104405161353e565b35926040519461138c866128b7565b3691612d0e565b8352602083015260408201526113ab8260a051613336565b526113b88160a051613336565b5061330d565b6112a6565b505084846113e76113d5608051612911565b806101e05260405180610400526128ef565b6080516104005152601f196113fd608051612911565b0160005b81811061246357505060005b60805190818110156115255761142f61142a82611520948961353e565b61354e565b6114b360546114426112db85888b61353e565b61145085610280518a61353e565b35936040519485916102a05161146f81518092602080880191016129e4565b8301906bffffffffffffffffffffffff199060601b1660208201528351906114a082603496602088850191016129e4565b01908382015203908101845201826128ef565b6102a0526114c761142a826080518961353e565b6114d282858861353e565b356114e183610280518861353e565b35906001600160a01b03604051936114f8856128b7565b168352602083015260408201526115128261040051613336565b526113b88161040051613336565b61140d565b866115326104a051613562565b6103805260005b6104a05190818110156115fd5761155a61142a826115f8946102605161353e565b61159961157461156e84876103c05161353e565b35613b92565b9161158b6040519384926102a051602085016135c3565b03601f1981018352826128ef565b6102a0526115b161142a826104a0516102605161353e565b6115bf82856103c05161353e565b356001600160a01b03604051926115d5846128d3565b16825260208201526115ea8261038051613336565b526113b88161038051613336565b611539565b61161861160c61046051612911565b6040518060c0526128ef565b6104605160c05152601f1961162f61046051612911565b0160006103a0525b806103a05110156116755760405161164e816128d3565b600081526060602082015260206103a05160c05101015260206103a051016103a052611637565b6000610300525b610460516103005190811015611881576116a96116a26060926101605161018051613609565b9050613562565b610120526000905b6116c5610300516101605161018051613609565b905082101561179757611791906117246116f661142a856116f0610300516101605161018051613609565b9061353e565b9161158b61171561156e876116f0610300516101a0516102c051613609565b604051948593602085016135c3565b9161174061142a826116f0610300516101605161018051613609565b611758826116f0610300516101a0516102c051613609565b356001600160a01b036040519261176e846128d3565b16825260208201526117838261012051613336565b526113b88161012051613336565b906116b1565b90506118106117b361142a61030051610460516101405161353e565b9160405180936102a0516117d081518092602080870191016129e4565b8201906bffffffffffffffffffffffff199060601b16602082015282519061180182603495602087850191016129e4565b010360148101845201826128ef565b6102a05261182b61142a61030051610460516101405161353e565b6001600160a01b0360405191611840836128d3565b16815261012051602082015261185b6103005160c051613336565b5261186b6103005160c051613336565b506118786103005161330d565b6103005261167c565b600160005b6102005181101561245d5761189d6101a435613b92565b6118ae82610220516104805161353e565b356119196060604051809360208201956102405161034051883761024051830160243560208201526102a051906118ef8251809360206040850191016129e4565b016119048251809360206040850191016129e4565b019060408201520360408101845201826128ef565b51902060206001600160a01b03608461193c61142a86610200516103205161353e565b61194d86610100516102e0516134fc565b809160405197889687956301a86b5560e41b8752166004860152602485015260606044850152816064850152848401376000828201840152601f01601f1916810103018173__$267c3dc7aa7d3fe2e28bda43a2ca27cd27$__5af4801561245157600191600091612422575b501515036119cf576119ca9061330d565b611886565b505060005b156123dd576119e1613360565b6119fc6119f5366102205161048051612929565b82336138b0565b156123985760405190611a0e8261289a565b611a7a6020611a24366102405161034051612d0e565b808552602435828601526101a435604086015260a051606086015261038051608086015260c05160a08601526104005160c08601523360e0860152600061010086015281604051938285809451938492016129e4565b810160fe81520301902091805192835167ffffffffffffffff8111610eac57611aa38254613084565b601f8111612366575b506020601f82116001146122fd5781929394956000926122f2575b50508160011b916000199060031b1c19161781555b60208201516001820155604082015160028201556060820151805190680100000000000000008211610eac576003830154826003850155808310612247575b50602001906003830160005260206000206000925b8284106121125750505050600481016080830151906020825192611b548484613665565b019060005260206000206000915b8383106120dc575050505060a0820151805190680100000000000000008211610eac576005830154826005850155808310612034575b506020016005830160005260206000206000915b838310611f9c575050505060c0820151805190680100000000000000008211610eac576006830154826006850155808310611f43575b506020016006830160005260206000206000915b838310611f03578686600787016001600160a01b0360e0830151168154907fffffffffffffffffffffff00000000000000000000000000000000000000000074ff0000000000000000000000000000000000000000610100860151151560a01b16921617179055805191825167ffffffffffffffff8111610eac57611c7c60fd54613084565b601f8111611ea9575b506020601f8211600114611e255781929394600092611e1a575b50508160011b916000199060031b1c19161760fd555b6000805b8251821015611ddb576001600160a01b03611cd48385613336565b51163314600014611d0e57503360005260fc6020526040600020805490600a820180921161047a5755611d0860019161330d565b90611cb9565b9081611da257806001600160a01b03611d2a611d089386613336565b511660005260fc8060205260056040600020541015600014611d7b576005905b6001600160a01b03611d5c8488613336565b5116600052602052611d74604060002091825461331c565b905561330d565b6001600160a01b03611d8d8387613336565b51166000528060205260406000205490611d4a565b6001600160a01b03611db48285613336565b511660005260fc60205260406000209081546001810180911161047a57611d08925561330d565b7fc53a4e1db72f8c6fde77b85b4cc21a59f9896e9d7285f890075356dbd528d1cd611e158551604051918291602083526020830190612a07565b0390a1005b015190508480611c9f565b601f1982169060fd6000527f9346ac6dd7de6b96975fec380d4d994c4c12e6a8897544f22915316cc6cca2809160005b818110611e9157509583600195969710611e78575b505050811b0160fd55611cb5565b015160001960f88460031b161c19169055848080611e6a565b9192602060018192868b015181550194019201611e55565b611ef39060fd6000527f9346ac6dd7de6b96975fec380d4d994c4c12e6a8897544f22915316cc6cca280601f840160051c81019160208510611ef9575b601f0160051c019061364e565b84611c85565b9091508190611ee6565b60036020826040600194516001600160a01b038151166001600160a01b031988541617875583810151868801550151600286015501920192019190611bf6565b600381810204810361047a57600383810204830361047a576006840160005260206000208360030281015b8260030282018110611f81575050611be2565b80600060039255600060018201556000600282015501611f6e565b80516001600160a01b038151166001600160a01b0319845416178355602060018401910151906020825192611fd18484613665565b01906000526020600020906000905b838210611ffe57505050506002602060019201920192019190611bac565b600260208281600194516001600160a01b038151166001600160a01b031989541617885501518487015501930191019091611fe0565b6001600160ff1b038116810361047a576001600160ff1b038316830361047a576005840160005260206000208360011b81015b8260011b8201811061207a575050611b98565b6000815560018101546000600183015580612099575b50600201612067565b6001600160ff1b038116810361047a576001820160005260206000209060011b8101905b8181106120ca5750612090565b600080825560018201556002016120bd565b600260208281600194516001600160a01b038151166001600160a01b031988541617875501518486015501920192019190611b62565b8051805180519067ffffffffffffffff8211610eac576121328554613084565b601f811161220a575b50602090601f831160011461219857600393836020946001979460409460009261218d575b505060001982881b1c191690871b1787555b83810151868801550151600286015501920193019290611b30565b015190508e80612160565b908560005260206000209160005b601f19851681106121f2575093600184819794604094600398602098601f198116106121da575b505050811b018755612172565b0151600019838a1b60f8161c191690558e80806121cd565b919260206001819286850151815501940192016121a6565b612237908660005260206000206005601f8601811c8201926020871061223d575b601f01901c019061364e565b8a61213b565b919250829161222b565b600381810204810361047a57600383810204830361047a576003840160005260206000208360030281015b8260030282018110612285575050611b1b565b8061229260039254613084565b806122ad575b50600060018201556000600282015501612272565b601f81116001146122c45750600081555b89612298565b6122e390826000526001601f6020600020920160051c8201910161364e565b600060208120818355556122be565b015190508580611ac7565b8260005260206000209060005b601f198416811061234e575060019394959683601f19811610612335575b505050811b018155611adc565b015160001960f88460031b161c19169055858080612328565b9091602060018192858b01518155019301910161230a565b61239290836000526020600020601f840160051c81019160208510611ef957601f0160051c019061364e565b85611aac565b60405162461bcd60e51b815260206004820152601560248201527f6572726f725f696e76616c69645265706f7274657200000000000000000000006044820152606490fd5b60405162461bcd60e51b815260206004820152601d60248201527f6572726f725f696e76616c69645265706f72745369676e6174757265730000006044820152606490fd5b612444915060203d60201161244a575b61243c81836128ef565b8101906134e4565b846119b9565b503d612432565b6040513d6000823e3d90fd5b506119d4565b602090604051612472816128b7565b600081526000838201526000604082015282826104005101015201611401565b6020906040516124a1816128b7565b6102a051815260008382015260006040820152828260a0510101520161129a565b60405162461bcd60e51b815260206004820152601260248201527f6572726f725f71756f72756d4e6f744d657400000000000000000000000000006044820152606490fd5b60405162461bcd60e51b815260206004820152601360248201527f6572726f725f696e76616c696450726f6f6673000000000000000000000000006044820152606490fd5b60405162461bcd60e51b815260206004820152601360248201527f6572726f725f696e76616c69645265706f7274000000000000000000000000006044820152606490fd5b50600161259c6131da565b0154602435116111ff565b60405162461bcd60e51b815260206004820152601c60248201527f6572726f725f7265706f7274416c726561647950726f636573736564000000006044820152606490fd5b60405162461bcd60e51b815260206004820152601360248201527f6572726f725f7374616b655265717569726564000000000000000000000000006044820152606490fd5b61264a915060203d60201161244a5761243c81836128ef565b876111c1565b3461018e5760208060031936011261018e5760043567ffffffffffffffff811161018e57612683829136906004016129b6565b919061268d613040565b50826040519384928337810160fe81520301902090604051906126af8261289a565b6126b8836130be565b825260018084015482840152600291828501546040850152600380860180546126e081612911565b916126ee60405193846128ef565b81835260009081528481208685878087015b8686106128485750505050505050606086015261271f60048701613164565b608086015260058601805461273381612911565b9161274160405193846128ef565b81835260009081528481208688878087015b86861061280e575050505050505060a08601526006860180549261277684612911565b9561278460405197886128ef565b8487526000928352818320908288015b8685106127d25760c08a0189905260078b01546001600160a01b03811660e08c015260a01c60ff1615156101008b01526040518061038e8c82612a74565b858489926040516127e2816128b7565b6001600160a01b0387541681528487015483820152858701546040820152815201930194019391612794565b60405161281a816128d3565b6001600160a01b038654168152612832858701613164565b8382015281520192019201919088878992612753565b604051612854816128b7565b61285d866130be565b815284860154838201528c860154604082015281520192019201919085878992612700565b3461018e5760206106c361289536612977565b613840565b610120810190811067ffffffffffffffff821117610eac57604052565b6060810190811067ffffffffffffffff821117610eac57604052565b6040810190811067ffffffffffffffff821117610eac57604052565b90601f8019910116810190811067ffffffffffffffff821117610eac57604052565b67ffffffffffffffff8111610eac5760051b60200190565b929161293482612911565b9161294260405193846128ef565b829481845260208094019160051b810192831161018e57905b8282106129685750505050565b8135815290830190830161295b565b602060031982011261018e576004359067ffffffffffffffff821161018e578060238301121561018e578160246129b393600401359101612929565b90565b9181601f8401121561018e5782359167ffffffffffffffff831161018e576020838186019501011161018e57565b60005b8381106129f75750506000910152565b81810151838201526020016129e7565b90602091612a20815180928185528580860191016129e4565b601f01601f1916010190565b90815180825260208080930193019160005b828110612a4c575050505090565b835180516001600160a01b031686528201518583015260409094019392810192600101612a3e565b602091828252805190612a94610120928386860152610140850190612a07565b93808201516040908186015280830151916060928387015282840151601f19978888820301608089015281518082528382019184808360051b8301019401926000915b888d858510612c025750505050505050612aff906080860151898983030160a08a0152612a2c565b9160a085015192888882030160c089015283518082528382019184808360051b8301019601926000915b8c848410612bb55750505050505060c0850151978784030160e08801528180895194858152019801936000915b848310612b84575050505050506001600160a01b0360e0820151169061010091828501520151151591015290565b855180516001600160a01b03168b52808501518b8601528101518a8201529881019894830194600190920191612b56565b9680612bee8a89838a9e9b9c9a8798999a9b829f9860019903018a52516001600160a01b03815116845201519181858201520190612a2c565b9a0193019301919392909796959497612b29565b9780999891888293856001969798999a9b030187528a80612c2d8c5194855190808652850190612a07565b938581015186850152015191015297019301930191939290969596612ad7565b9181601f8401121561018e5782359167ffffffffffffffff831161018e576020808501948460051b01011161018e57565b600435906001600160a01b038216820361018e57565b9291612c9f82612911565b91612cad60405193846128ef565b829481845260208094019160051b810192831161018e57905b828210612cd35750505050565b81356001600160a01b038116810361018e578152908301908301612cc6565b67ffffffffffffffff8111610eac57601f01601f191660200190565b929192612d1a82612cf2565b91612d2860405193846128ef565b82948184528183011161018e578281602093846000960137010152565b6001600160a01b03609754163303612d5957565b606460405162461bcd60e51b815260206004820152602060248201527f4f776e61626c653a2063616c6c6572206973206e6f7420746865206f776e65726044820152fd5b609754906001600160a01b0380911691826001600160a01b0319821617609755167f8be0079c531659141344cd1fd0a4f28419497f9722a3daafe3b4186f6b6457e0600080a3565b15612dec57565b60405162461bcd60e51b815260206004820152602c60248201527f46756e6374696f6e206d7573742062652063616c6c6564207468726f7567682060448201527f64656c656761746563616c6c00000000000000000000000000000000000000006064820152608490fd5b15612e5e57565b60405162461bcd60e51b815260206004820152602c60248201527f46756e6374696f6e206d7573742062652063616c6c6564207468726f7567682060448201527f6163746976652070726f787900000000000000000000000000000000000000006064820152608490fd5b803b15612f0c576001600160a01b037f360894a13ba1a3210667c828492db98dca3e2076cc3735a920a3ca505d382bbc91166001600160a01b0319825416179055565b60405162461bcd60e51b815260206004820152602d60248201527f455243313936373a206e657720696d706c656d656e746174696f6e206973206e60448201527f6f74206120636f6e7472616374000000000000000000000000000000000000006064820152608490fd5b90919015612f83575090565b815115612f935750805190602001fd5b60405162461bcd60e51b815260206004820152908190612fb7906024830190612a07565b0390fd5b8181029291811591840414171561047a57565b15612fd557565b60405162461bcd60e51b815260206004820152602b60248201527f496e697469616c697a61626c653a20636f6e7472616374206973206e6f74206960448201527f6e697469616c697a696e670000000000000000000000000000000000000000006064820152608490fd5b6040519061304d8261289a565b600061010083606080825283602083015283604083015280808301528060808301528060a083015260c08201528260e08201520152565b90600182811c921680156130b4575b602083101461309e57565b634e487b7160e01b600052602260045260246000fd5b91607f1691613093565b90604051918260008254926130d284613084565b90818452600194858116908160001461314157506001146130fe575b50506130fc925003836128ef565b565b9093915060005260209081600020936000915b8183106131295750506130fc935082010138806130ee565b85548884018501529485019487945091830191613111565b9150506130fc94506020925060ff191682840152151560051b82010138806130ee565b90815461317081612911565b92604093613180855191826128ef565b828152809460208092019260005281600020906000935b8585106131a657505050505050565b60028460019284516131b7816128d3565b6001600160a01b0387541681528487015483820152815201930194019391613197565b60405160fd548160006131ec83613084565b926001908181169081156132695750600114613213575b506020925060fe81520301902090565b60fd600090815291507f9346ac6dd7de6b96975fec380d4d994c4c12e6a8897544f22915316cc6cca2805b84831061325357505050602091810138613203565b805486840152859350602090920191810161323e565b60ff19168452506020938015150283019150389050613203565b602090818184031261018e5780519067ffffffffffffffff821161018e57019180601f8401121561018e5782516132b981612911565b936132c760405195866128ef565b818552838086019260051b82010192831161018e578301905b8282106132ee575050505090565b81516001600160a01b038116810361018e5781529083019083016132e0565b600019811461047a5760010190565b9190820391821161047a57565b9190820180921161047a57565b805182101561334a5760209160051b010190565b634e487b7160e01b600052603260045260246000fd5b6001600160a01b03908160ff54169160408051808095636085a91160e11b8252600091829160049889915afa9182156134d85781926134b4575b50818251958291600019918289019189831191825b6134a1578386101561349357865b6133c7878d61331c565b868101908111613465578110156134795760018101808211613465579089828d8b8e826133f76134289887613336565b5116825260fc60208181528284205493856134128a8a613336565b51169052528d20541061342d575b50505061330d565b6133bd565b8061344885613451936134408688613336565b511695613336565b5116918d613336565b5261345c828c613336565b5289388d613420565b50634e487b7160e01b885260118d52602488fd5b5091946134889093919361330d565b9491829391936133af565b995099505050505050505050565b634e487b7160e01b875260118c52602487fd5b6134d19192503d8084833e6134c981836128ef565b810190613283565b903861339a565b508251903d90823e3d90fd5b9081602091031261018e5751801515810361018e5790565b919081101561334a5760051b81013590601e198136030182121561018e57019081359167ffffffffffffffff831161018e57602001823603811361018e579190565b919081101561334a5760051b0190565b356001600160a01b038116810361018e5790565b9061356c82612911565b60409061357b825191826128ef565b838152809361358c601f1991612911565b0191600090815b8481106135a1575050505050565b60209082516135af816128d3565b848152828581830152828701015201613593565b6020906135da6014959493828151948592016129e4565b01906bffffffffffffffffffffffff199060601b16815261360482518093602086850191016129e4565b010190565b919081101561334a5760051b81013590601e198136030182121561018e57019081359167ffffffffffffffff831161018e576020018260051b3603811361018e579190565b818110613659575050565b6000815560010161364e565b680100000000000000008211610eac57805482825580831061368657505050565b6001600160ff1b03808216820361047a578316830361047a57600091825260208220600191821b810193821b015b8381106136c15750505050565b8083600292558383820155016136b4565b90600091600090816001600160a01b0392818460ff541660405193848092636085a91160e11b825260049384915afa938415613835578294613819575b508351946402540be40090818702968088048314901517156138065760019998978a97881c96859b5b61374b575b505050505050505050909150565b80518c1015613801578886838e835b61379a575b505050508787101561377f57613777899a9b9c61330d565b9b9a99613738565b5050505050505050915091508138808080808080808061373d565b86518310156137fc576137ad9085613336565b5116846137ba8388613336565b5116146137d2576137ca9061330d565b838e8361375a565b5050958381018091116137e957958838838e61375f565b634e487b7160e01b865260118552602486fd5b61375f565b61373d565b634e487b7160e01b845260118352602484fd5b61382e9194503d8084833e6134c981836128ef565b923861370f565b6040513d84823e3d90fd5b90600091825b815184101561388b576138598483613336565b51906402540be4009182810292818404149015171561047a576138859161387f91613329565b9361330d565b92613846565b9192505190811561389a570490565b634e487b7160e01b600052601260045260246000fd5b9290926000906138c1600094613840565b6138c96139c5565b9160fb54906138d9885183612fbb565b9760015b6138eb8561122f8c84612fbb565b8611156139125760018101809111156138dd57634e487b7160e01b89526011600452602489fd5b93949597969850865b81518110156139ba576001600160a01b03806139378385613336565b51169084161461394f5761394a9061330d565b61391b565b92939495969750505061396f8461122f8561396a8686612fbb565b612fbb565b85101595600182018092116139a657506139949261396a600196959361122f93612fbb565b11911490816139a1575090565b905090565b634e487b7160e01b81526011600452602490fd5b505050505050505090565b6103e880420290428204144215171561047a576509184e72a0004202908082046402540be400149015171561047a5790565b806000908260801c80613b86575b508060401c80613b79575b5060209181831c80613b6e575b5060109180831c80613b61575b5060081c613b59575b6001809101939184821b946001600160ff1b0381160361047a57600285019485811161047a57613a7b613a6587612cf2565b96613a7360405198896128ef565b808852612cf2565b86860190601f190136823786511561334a5760309053855183101561334a576078602187015382810180911161047a5791905b818311613b0357505050613ac0575090565b6064906040519062461bcd60e51b825280600483015260248201527f537472696e67733a20686578206c656e67746820696e73756666696369656e746044820152fd5b909192600f81168281101561334a57865185101561334a577f3031323334353637383961626364656600000000000000000000000000000000901a85858801015360041c92801561047a57600019019190613aae565b600101613a33565b6002915091019038613a2a565b915060040138613a1d565b6008915091019038613a10565b91505060109038613a05565b600080821291908215613c0d57613bce6129b392602092604051613bb5816128d3565b60018152602d60f81b85820152955b613c0757506139f7565b926040519381613be786935180928680870191016129e4565b8201613bfb825180938680850191016129e4565b010380845201826128ef565b036139f7565b6040516020810181811067ffffffffffffffff821117613c3e57604052818152926129b392602092613bce92613bc4565b634e487b7160e01b83526041600452602483fdfea2646970667358221220eca6ef04d0f7ba4ec1f48ed23fb4d0557ba555687253bccf980fb403a830ddc664736f6c63430008110033",
  "linkReferences": {
    "src/lib/VerifySignature.sol": {
      "VerifySignature": [
        {
          "length": 20,
          "start": 6602
        }
      ]
    }
  },
  "deployedLinkReferences": {
    "src/lib/VerifySignature.sol": {
      "VerifySignature": [
        {
          "length": 20,
          "start": 6547
        }
      ]
    }
  }
}