{
  "_format": "hh-sol-artifact-1",
  "contractName": "LogStoreReportManager",
  "sourceName": "src/ReportManager.sol",
  "abi": [
    {
      "anonymous": false,
      "inputs": [
        {
          "indexed": false,
          "internalType": "address",
          "name": "previousAdmin",
          "type": "address"
        },
        {
          "indexed": false,
          "internalType": "address",
          "name": "newAdmin",
          "type": "address"
        }
      ],
      "name": "AdminChanged",
      "type": "event"
    },
    {
      "anonymous": false,
      "inputs": [
        {
          "indexed": true,
          "internalType": "address",
          "name": "beacon",
          "type": "address"
        }
      ],
      "name": "BeaconUpgraded",
      "type": "event"
    },
    {
      "anonymous": false,
      "inputs": [
        {
          "indexed": false,
          "internalType": "uint8",
          "name": "version",
          "type": "uint8"
        }
      ],
      "name": "Initialized",
      "type": "event"
    },
    {
      "anonymous": false,
      "inputs": [
        {
          "indexed": false,
          "internalType": "bool",
          "name": "isMet",
          "type": "bool"
        }
      ],
      "name": "Logger",
      "type": "event"
    },
    {
      "anonymous": false,
      "inputs": [
        {
          "indexed": true,
          "internalType": "address",
          "name": "previousOwner",
          "type": "address"
        },
        {
          "indexed": true,
          "internalType": "address",
          "name": "newOwner",
          "type": "address"
        }
      ],
      "name": "OwnershipTransferred",
      "type": "event"
    },
    {
      "anonymous": false,
      "inputs": [
        {
          "indexed": false,
          "internalType": "string",
          "name": "raw",
          "type": "string"
        }
      ],
      "name": "ReportAccepted",
      "type": "event"
    },
    {
      "anonymous": false,
      "inputs": [
        {
          "indexed": true,
          "internalType": "address",
          "name": "implementation",
          "type": "address"
        }
      ],
      "name": "Upgraded",
      "type": "event"
    },
    {
      "inputs": [],
      "name": "getLastReport",
      "outputs": [
        {
          "components": [
            {
              "internalType": "string",
              "name": "id",
              "type": "string"
            },
            {
              "internalType": "uint256",
              "name": "height",
              "type": "uint256"
            },
            {
              "internalType": "int256",
              "name": "treasury",
              "type": "int256"
            },
            {
              "components": [
                {
                  "internalType": "string",
                  "name": "id",
                  "type": "string"
                },
                {
                  "internalType": "uint256",
                  "name": "writeCapture",
                  "type": "uint256"
                },
                {
                  "internalType": "uint256",
                  "name": "writeBytes",
                  "type": "uint256"
                }
              ],
              "internalType": "struct LogStoreReportManager.Stream[]",
              "name": "streams",
              "type": "tuple[]"
            },
            {
              "components": [
                {
                  "internalType": "address",
                  "name": "id",
                  "type": "address"
                },
                {
                  "internalType": "int256",
                  "name": "amount",
                  "type": "int256"
                }
              ],
              "internalType": "struct LogStoreReportManager.Node[]",
              "name": "nodes",
              "type": "tuple[]"
            },
            {
              "components": [
                {
                  "internalType": "address",
                  "name": "id",
                  "type": "address"
                },
                {
                  "components": [
                    {
                      "internalType": "address",
                      "name": "id",
                      "type": "address"
                    },
                    {
                      "internalType": "int256",
                      "name": "amount",
                      "type": "int256"
                    }
                  ],
                  "internalType": "struct LogStoreReportManager.Node[]",
                  "name": "nodes",
                  "type": "tuple[]"
                }
              ],
              "internalType": "struct LogStoreReportManager.Delegate[]",
              "name": "delegates",
              "type": "tuple[]"
            },
            {
              "components": [
                {
                  "internalType": "address",
                  "name": "id",
                  "type": "address"
                },
                {
                  "internalType": "uint256",
                  "name": "readCapture",
                  "type": "uint256"
                },
                {
                  "internalType": "uint256",
                  "name": "readBytes",
                  "type": "uint256"
                }
              ],
              "internalType": "struct LogStoreReportManager.Consumer[]",
              "name": "consumers",
              "type": "tuple[]"
            },
            {
              "internalType": "address",
              "name": "_reporter",
              "type": "address"
            },
            {
              "internalType": "bool",
              "name": "_processed",
              "type": "bool"
            }
          ],
          "internalType": "struct LogStoreReportManager.Report",
          "name": "",
          "type": "tuple"
        }
      ],
      "stateMutability": "view",
      "type": "function"
    },
    {
      "inputs": [
        {
          "internalType": "string",
          "name": "id",
          "type": "string"
        }
      ],
      "name": "getReport",
      "outputs": [
        {
          "components": [
            {
              "internalType": "string",
              "name": "id",
              "type": "string"
            },
            {
              "internalType": "uint256",
              "name": "height",
              "type": "uint256"
            },
            {
              "internalType": "int256",
              "name": "treasury",
              "type": "int256"
            },
            {
              "components": [
                {
                  "internalType": "string",
                  "name": "id",
                  "type": "string"
                },
                {
                  "internalType": "uint256",
                  "name": "writeCapture",
                  "type": "uint256"
                },
                {
                  "internalType": "uint256",
                  "name": "writeBytes",
                  "type": "uint256"
                }
              ],
              "internalType": "struct LogStoreReportManager.Stream[]",
              "name": "streams",
              "type": "tuple[]"
            },
            {
              "components": [
                {
                  "internalType": "address",
                  "name": "id",
                  "type": "address"
                },
                {
                  "internalType": "int256",
                  "name": "amount",
                  "type": "int256"
                }
              ],
              "internalType": "struct LogStoreReportManager.Node[]",
              "name": "nodes",
              "type": "tuple[]"
            },
            {
              "components": [
                {
                  "internalType": "address",
                  "name": "id",
                  "type": "address"
                },
                {
                  "components": [
                    {
                      "internalType": "address",
                      "name": "id",
                      "type": "address"
                    },
                    {
                      "internalType": "int256",
                      "name": "amount",
                      "type": "int256"
                    }
                  ],
                  "internalType": "struct LogStoreReportManager.Node[]",
                  "name": "nodes",
                  "type": "tuple[]"
                }
              ],
              "internalType": "struct LogStoreReportManager.Delegate[]",
              "name": "delegates",
              "type": "tuple[]"
            },
            {
              "components": [
                {
                  "internalType": "address",
                  "name": "id",
                  "type": "address"
                },
                {
                  "internalType": "uint256",
                  "name": "readCapture",
                  "type": "uint256"
                },
                {
                  "internalType": "uint256",
                  "name": "readBytes",
                  "type": "uint256"
                }
              ],
              "internalType": "struct LogStoreReportManager.Consumer[]",
              "name": "consumers",
              "type": "tuple[]"
            },
            {
              "internalType": "address",
              "name": "_reporter",
              "type": "address"
            },
            {
              "internalType": "bool",
              "name": "_processed",
              "type": "bool"
            }
          ],
          "internalType": "struct LogStoreReportManager.Report",
          "name": "",
          "type": "tuple"
        }
      ],
      "stateMutability": "view",
      "type": "function"
    },
    {
      "inputs": [
        {
          "internalType": "address",
          "name": "_owner",
          "type": "address"
        },
        {
          "internalType": "uint256",
          "name": "_reportBlockBuffer",
          "type": "uint256"
        }
      ],
      "name": "initialize",
      "outputs": [],
      "stateMutability": "nonpayable",
      "type": "function"
    },
    {
      "inputs": [],
      "name": "owner",
      "outputs": [
        {
          "internalType": "address",
          "name": "",
          "type": "address"
        }
      ],
      "stateMutability": "view",
      "type": "function"
    },
    {
      "inputs": [
        {
          "internalType": "string",
          "name": "id",
          "type": "string"
        }
      ],
      "name": "processReport",
      "outputs": [],
      "stateMutability": "nonpayable",
      "type": "function"
    },
    {
      "inputs": [],
      "name": "proxiableUUID",
      "outputs": [
        {
          "internalType": "bytes32",
          "name": "",
          "type": "bytes32"
        }
      ],
      "stateMutability": "view",
      "type": "function"
    },
    {
      "inputs": [
        {
          "internalType": "address[]",
          "name": "submittedNodes",
          "type": "address[]"
        }
      ],
      "name": "quorumIsMet",
      "outputs": [
        {
          "internalType": "bool",
          "name": "isMet",
          "type": "bool"
        }
      ],
      "stateMutability": "view",
      "type": "function"
    },
    {
      "inputs": [],
      "name": "renounceOwnership",
      "outputs": [],
      "stateMutability": "nonpayable",
      "type": "function"
    },
    {
      "inputs": [
        {
          "internalType": "string",
          "name": "id",
          "type": "string"
        },
        {
          "internalType": "uint256",
          "name": "blockHeight",
          "type": "uint256"
        },
        {
          "internalType": "string[]",
          "name": "streams",
          "type": "string[]"
        },
        {
          "internalType": "uint256[]",
          "name": "writeCaptureAmounts",
          "type": "uint256[]"
        },
        {
          "internalType": "uint256[]",
          "name": "writeBytes",
          "type": "uint256[]"
        },
        {
          "internalType": "address[]",
          "name": "readConsumerAddresses",
          "type": "address[]"
        },
        {
          "internalType": "uint256[]",
          "name": "readCaptureAmounts",
          "type": "uint256[]"
        },
        {
          "internalType": "uint256[]",
          "name": "readBytes",
          "type": "uint256[]"
        },
        {
          "internalType": "address[]",
          "name": "nodes",
          "type": "address[]"
        },
        {
          "internalType": "int256[]",
          "name": "nodeChanges",
          "type": "int256[]"
        },
        {
          "internalType": "address[]",
          "name": "delegates",
          "type": "address[]"
        },
        {
          "internalType": "address[][]",
          "name": "delegateNodes",
          "type": "address[][]"
        },
        {
          "internalType": "int256[][]",
          "name": "delegateNodeChanges",
          "type": "int256[][]"
        },
        {
          "internalType": "int256",
          "name": "treasurySupplyChange",
          "type": "int256"
        },
        {
          "internalType": "address[]",
          "name": "addresses",
          "type": "address[]"
        },
        {
          "internalType": "bytes[]",
          "name": "signatures",
          "type": "bytes[]"
        }
      ],
      "name": "report",
      "outputs": [],
      "stateMutability": "nonpayable",
      "type": "function"
    },
    {
      "inputs": [
        {
          "internalType": "address",
          "name": "newOwner",
          "type": "address"
        }
      ],
      "name": "transferOwnership",
      "outputs": [],
      "stateMutability": "nonpayable",
      "type": "function"
    },
    {
      "inputs": [
        {
          "internalType": "address",
          "name": "newImplementation",
          "type": "address"
        }
      ],
      "name": "upgradeTo",
      "outputs": [],
      "stateMutability": "nonpayable",
      "type": "function"
    },
    {
      "inputs": [
        {
          "internalType": "address",
          "name": "newImplementation",
          "type": "address"
        },
        {
          "internalType": "bytes",
          "name": "data",
          "type": "bytes"
        }
      ],
      "name": "upgradeToAndCall",
      "outputs": [],
      "stateMutability": "payable",
      "type": "function"
    }
  ],
  "bytecode": "0x60a080604052346100315730608052613d41908161003782396080518181816120340152818161214101526124580152f35b600080fdfe6104c0604052600436101561001357600080fd5b60003560e01c806312e63d711461273957806325cbbdff146126e85780633659cfe6146124335780634f1ef286146120ef57806352d1902d14612019578063715018a614611fbe5780638da5cb5b14611f975780639f29124b14610594578063cd6dc687146103ea578063eefa7a3e146101e1578063f2fde38b1461013b5763f6883c05146100a157600080fd5b346101365760203660031901126101365760043567ffffffffffffffff81116101365760206100d6600792369060040161296b565b91906100e0612d89565b826040519384928337810160ff81520301902001740100000000000000000000000000000000000000007fffffffffffffffffffffff00ffffffffffffffffffffffffffffffffffffffff825416179055600080f35b600080fd5b3461013657602036600319011261013657610154612c91565b61015c612d89565b6001600160a01b038116156101765761017490612de1565b005b60405162461bcd60e51b815260206004820152602660248201527f4f776e61626c653a206e6577206f776e657220697320746865207a65726f206160448201527f64647265737300000000000000000000000000000000000000000000000000006064820152608490fd5b34610136576000366003190112610136576101fa613071565b5061020361320b565b60405161020f81612c02565b610218826130ef565b815260018083015490602091828401526002918285015460408501526003808601805461024481612c79565b916102526040519384612c57565b81835260009081528481208685878087015b8686106103b05750505050505050606086015261028360048701613195565b608086015260058601805461029781612c79565b916102a56040519384612c57565b81835260009081528481208688878087015b868610610376575050505050505060a0860152600686018054926102da84612c79565b956102e86040519788612c57565b8487526000928352818320908288015b86851061033a5760c08a0189905260078b01546001600160a01b03811660e08c015260a01c60ff1615156101008b0152604051806103368c82612a29565b0390f35b8584899260405161034a81612c1f565b6001600160a01b03875416815284870154838201528587015460408201528152019301940193916102f8565b60405161038281612c3b565b6001600160a01b03865416815261039a858701613195565b83820152815201920192019190888789926102b7565b6040516103bc81612c1f565b6103c5866130ef565b815284860154838201528c860154604082015281520192019201919085878992610264565b3461013657604036600319011261013657610403612c91565b6000549060ff8260081c161591828093610587575b8015610570575b156105055760ff198116600117600055826104f3575b5061045060ff60005460081c1661044b81612fff565b612fff565b61045933612de1565b61047760ff60005460081c1661046e81612fff565b61044b81612fff565b600160c9556001600160a01b038116610100816001600160a01b031982541617905560243560fb556104a7612d89565b15610176576104b590612de1565b6104bb57005b61ff0019600054166000557f7f26b83ff96e1f2b6a682f133852f6798a09c465da95921460cefb3847402498602060405160018152a1005b61ffff19166101011760005582610435565b60405162461bcd60e51b815260206004820152602e60248201527f496e697469616c697a61626c653a20636f6e747261637420697320616c72656160448201527f647920696e697469616c697a65640000000000000000000000000000000000006064820152608490fd5b50303b15801561041f5750600160ff82161461041f565b50600160ff821610610418565b34610136576102003660031901126101365760043567ffffffffffffffff8111610136576105c690369060040161296b565b6102e0526102a05260443567ffffffffffffffff8111610136576105ee903690600401612d58565b6103e0526102205260643567ffffffffffffffff811161013657610616903690600401612d58565b6104a0526103405260843567ffffffffffffffff81116101365761063e903690600401612d58565b610200526102805260a43567ffffffffffffffff811161013657610666903690600401612d58565b60c43567ffffffffffffffff811161013657610686903690600401612d58565b610120529060e43567ffffffffffffffff8111610136576106ab903690600401612d58565b9390916101043567ffffffffffffffff8111610136576106cf903690600401612d58565b60e052610440526101243567ffffffffffffffff8111610136576106f7903690600401612d58565b610100526103605267ffffffffffffffff6101443511610136576107213661014435600401612d58565b610460526102c05267ffffffffffffffff61016435116101365761074b3661016435600401612d58565b610300526101805267ffffffffffffffff6101843511610136576107753661018435600401612d58565b610160526102605267ffffffffffffffff6101c435116101365761079f366101c435600401612d58565b610420526101e05267ffffffffffffffff6101e43511610136576107c9366101e435600401612d58565b610240526103c052602460206001600160a01b03610100541660405192838092630c2effa360e31b82523360048301525afa908115611c8a57600091611f78575b5015611f335743602435111580611f1d575b15611ed85761083a61083536610420516101e051612ca7565b6138a3565b15611e935761084f6102e0516102a0516135cf565b6104005260005b610400518051821015611e89576001600160a01b036108768333936132db565b51161461088b57610886906132cc565b610856565b60fb949192939454908082810204821481151715610bdd576108c2916108bd908215611e8157805b6024359302613305565b613305565b431115611e3c575b6108d56024356139d6565b6109d2604e6108e66101a435613b3e565b92604051938491663d9134b2111d1160c91b60208401526102e0516102a05160278501377f222c22686569676874223a22000000000000000000000000000000000000000060276102e0518501015261094e81518092602060336102e0518801019101612999565b7f222c227472656173757279223a220000000000000000000000000000000000006033826102e05186010101526109968251809360206041856102e051890101019101612999565b6102e051830101017f222c2273747265616d73223a5b00000000000000000000000000000000000000604182015203602e810184520182612c57565b610320526109f76109e56103e051612c79565b806103a0526040518061014052612c57565b6103e0516101405152601f19610a0f6103e051612c79565b0160005b818110611e0d57505060005b6103e05180821015610bf35790610b25610a3f82603d9461022051613312565b9390610a5b610a55856104a05161034051613354565b356139d6565b607d60f81b610a74610a55876102005161028051613354565b916040519788948161032051610a93815180926020808c019101612999565b870191663d9134b2111d1160c91b60208401526027830137016b11161131b0b83a3ab932911d60a11b6027820152610ad5825180936020603385019101612999565b017f2c226279746573223a00000000000000000000000000000000000000000000006033820152825190610b1282603c9560208785019101612999565b019182015203601d810185520183612c57565b81610320526103e0519182600019810111610bdd57610bc592600019018203610bca575b50610b5b816103e05161022051613312565b90610b6d836104a05161034051613354565b35610b98610b82856102005161028051613354565b359260405194610b9186612c1f565b3691612d21565b835260208301526040820152610bb182610140516132db565b52610bbf81610140516132db565b506132cc565b610a1f565b610bd390613364565b6103205287610b49565b634e487b7160e01b600052601160045260246000fd5b50508385604051610c4d602f8261032051610c178151809260208086019101612999565b81017f5d2c22636f6e73756d657273223a5b0000000000000000000000000000000000602082015203600f810184520182612c57565b61032052610c6d610c5d85612c79565b806080526040518060c052612c57565b8360c05152601f19610c7e85612c79565b016000610380525b80610380511015610ccb57604051610c9d81612c1f565b60008152600060208201526000604082015260206103805160c0510101526020610380510161038052610c86565b5060005b848110611cc757604051610d2c602b8261032051610cf68151809260208086019101612999565b81017f5d2c226e6f646573223a7b000000000000000000000000000000000000000000602082015203600b810184520182612c57565b61032052610d3b60e0516133b0565b60005b60e05180821015610e2257610d6a610d65610d6084610d8e9461044051613354565b61339c565b613bfe565b610d84610d7e846101005161036051613354565b35613b3e565b9061032051613411565b90816103205260e0519182600019810111610bdd57610e0a92600019018203610e0f575b50610dc6610d608260e05161044051613354565b610dd7826101005161036051613354565b356001600160a01b0360405192610ded84612c3b565b1682526020820152610dff82856132db565b52610bbf81846132db565b610d3e565b610e1890613364565b6103205283610db2565b82604051610e79602f8261032051610e438151809260208086019101612999565b81017f7d2c2264656c656761746573223a7b0000000000000000000000000000000000602082015203600f810184520182612c57565b61032052610e9e610e8c61046051612c79565b806101a052604051806101c052612c57565b610460516101c05152601f19610eb661046051612c79565b0160005b818110611c9f57826000610480525b61046051610480518181101561112c57610d60610d6591610eed936102c051613354565b610f4b6024604051809361032051610f0e8151809260208087019101612999565b8201601160f91b6020820152815190610f308260219460208685019101612999565b019062223a7b60e81b90820152036004810184520182612c57565b61032052610f6d610f66610480516103005161018051613481565b90506133b0565b60a05260005b610f87610480516103005161018051613481565b905081101561108b57610fd2610fb7610d65610d6084610fb1610480516103005161018051613481565b90613354565b610d84610d7e84610fb1610480516101605161026051613481565b61032052610fea610480516103005161018051613481565b80929150600019810111610bdd5761107191600019018103611076575b611022610d6082610fb1610480516103005161018051613481565b61103a82610fb1610480516101605161026051613481565b356001600160a01b036040519261105084612c3b565b16825260208201526110648260a0516132db565b52610bbf8160a0516132db565b610f73565b61108261032051613364565b61032052611007565b506104605180600019810111610bdd57600019016104805103611117575b6110c0610d6061048051610460516102c051613354565b6001600160a01b03604051916110d583612c3b565b16815260a05160208201526110f0610480516101c0516132db565b52611101610480516101c0516132db565b5061110e610480516132cc565b61048052610ec9565b61112361032051613364565b610320526110a9565b8260405161116b6023826103205161114d8151809260208086019101612999565b8101627d7d7d60e81b60208201526003828203018252030182612c57565b6040519161117883612c02565b611189366102e0516102a051612d21565b835260243560208401526101a435604084015261014051606084015260808301526101c05160a083015260c05160c08301523360e0830152600061010083015260405160208101906111f360208285516111e68187858a01612999565b8101038084520182612c57565b5190209060019160005b6104205180821015611c9657610d608261121a926101e051613354565b60206001600160a01b03608461123785610240516103c051613312565b8060409692965196879586946301a86b5560e41b865216600485015289602485015260606044850152816064850152848401376000828201840152601f01601f1916810103018173__$267c3dc7aa7d3fe2e28bda43a2ca27cd27$__5af48015611c8a57600191600091611c5b575b501515036112bc576112b7906132cc565b6111fd565b5050905060005b15611c16576112e2602083518160405193828580945193849201612999565b810160ff81520301902091805192835167ffffffffffffffff811161176b5761130b82546130b5565b601f8111611be4575b506020601f8211600114611b7b578192939495600092611b70575b50508160011b916000199060031b1c19161781555b60208201516001820155604082015160028201556060820151805190600160401b821161176b576003830154826003850155808310611ac5575b50602001906003830160005260206000206000925b82841061199057505050506004810160808301519060208251926113b784846134dd565b019060005260206000206000915b83831061195a575050505060a0820151805190600160401b821161176b5760058301548260058501558083106118b2575b506020016005830160005260206000206000915b83831061181a575050505060c0820151805190600160401b821161176b5760068301548260068501558083106117c1575b506020016006830160005260206000206000915b838310611781578686600787016001600160a01b0360e0830151168154907fffffffffffffffffffffff00000000000000000000000000000000000000000074ff0000000000000000000000000000000000000000610100860151151560a01b169216171790555190815167ffffffffffffffff811161176b576114d460fc546130b5565b601f8111611711575b50602092601f821160011461168f5792819293600092611684575b50508160011b916000199060031b1c19161760fc555b6000805b61040051805183101561164657611531836001600160a01b03926132db565b5116331460001461156b57503360005260fd6020526040600020805490600a8201809211610bdd57556115656001916132cc565b90611512565b908161160a576001600160a01b0361158682610400516132db565b511660005260fd9081602052600560406000205410156000146115e0576005915b6001600160a01b036115bc83610400516132db565b51166000526020526040600020918254908103908111610bdd5761156592556132cc565b6001600160a01b036115f582610400516132db565b511660005281602052604060002054916115a7565b6001600160a01b0361161f82610400516132db565b511660005260fd602052604060002090815460018101809111610bdd5761156592556132cc565b7fc53a4e1db72f8c6fde77b85b4cc21a59f9896e9d7285f890075356dbd528d1cd61167f856040519182916020835260208301906129bc565b0390a1005b0151905083806114f8565b601f1982169360fc6000527f371f36870d18f32a11fea0f144b021c8b407bb50f8e0267c711123f454b963c09160005b8681106116f957508360019596106116e0575b505050811b0160fc5561150e565b015160001960f88460031b161c191690558380806116d2565b919260206001819286850151815501940192016116bf565b61175b9060fc6000527f371f36870d18f32a11fea0f144b021c8b407bb50f8e0267c711123f454b963c0601f840160051c81019160208510611761575b601f0160051c01906134c6565b836114dd565b909150819061174e565b634e487b7160e01b600052604160045260246000fd5b60036020826040600194516001600160a01b038151166001600160a01b03198854161787558381015186880155015160028601550192019201919061144f565b6003818102048103610bdd576003838102048303610bdd576006840160005260206000208360030281015b82600302820181106117ff57505061143b565b806000600392556000600182015560006002820155016117ec565b80516001600160a01b038151166001600160a01b031984541617835560206001840191015190602082519261184f84846134dd565b01906000526020600020906000905b83821061187c5750505050600260206001920192019201919061140a565b600260208281600194516001600160a01b038151166001600160a01b03198954161788550151848701550193019101909161185e565b6001600160ff1b0381168103610bdd576001600160ff1b0383168303610bdd576005840160005260206000208360011b81015b8260011b820181106118f85750506113f6565b6000815560018101546000600183015580611917575b506002016118e5565b6001600160ff1b0381168103610bdd576001820160005260206000209060011b8101905b818110611948575061190e565b6000808255600182015560020161193b565b600260208281600194516001600160a01b038151166001600160a01b0319885416178755015184860155019201920191906113c5565b8051805180519067ffffffffffffffff821161176b576119b085546130b5565b601f8111611a88575b50602090601f8311600114611a16576003938360209460019794604094600092611a0b575b505060001982881b1c191690871b1787555b83810151868801550151600286015501920193019290611393565b015190508e806119de565b908560005260206000209160005b601f1985168110611a70575093600184819794604094600398602098601f19811610611a58575b505050811b0187556119f0565b0151600019838a1b60f8161c191690558e8080611a4b565b91926020600181928685015181550194019201611a24565b611ab5908660005260206000206005601f8601811c82019260208710611abb575b601f01901c01906134c6565b8a6119b9565b9192508291611aa9565b6003818102048103610bdd576003838102048303610bdd576003840160005260206000208360030281015b8260030282018110611b0357505061137e565b80611b10600392546130b5565b80611b2b575b50600060018201556000600282015501611af0565b601f8111600114611b425750600081555b89611b16565b611b6190826000526001601f6020600020920160051c820191016134c6565b60006020812081835555611b3c565b01519050858061132f565b8260005260206000209060005b601f1984168110611bcc575060019394959683601f19811610611bb3575b505050811b018155611344565b015160001960f88460031b161c19169055858080611ba6565b9091602060018192858b015181550193019101611b88565b611c1090836000526020600020601f840160051c8101916020851061176157601f0160051c01906134c6565b85611314565b60405162461bcd60e51b815260206004820152601d60248201527f6572726f725f696e76616c69645265706f72745369676e6174757265730000006044820152606490fd5b611c7d915060203d602011611c83575b611c758183612c57565b8101906132b4565b876112a6565b503d611c6b565b6040513d6000823e3d90fd5b505050906112c3565b602090604051611cae81612c3b565b6000815260608382015282826101c05101015201610eba565b611cd8610d65610d6083888a613354565b90611d70603d611cef610a5584610120518a613354565b93611cfe610a5585888a613354565b607d60f81b60405196879361032051611d20815180926020808a019101612999565b8501663d9134b2111d1160c91b6020820152611d46825180936020602785019101612999565b016b11161131b0b83a3ab932911d60a11b6027820152610ad5825180936020603385019101612999565b816103205285600019810111610bdd57611df591600187830301611dfa575b50611d9e610d6082888a613354565b611dac826101205188613354565b35611db8838688613354565b35906001600160a01b0360405193611dcf85612c1f565b16835260208301526040820152611de88260c0516132db565b52610bbf8160c0516132db565b610ccf565b611e0390613364565b6103205287611d8f565b602090604051611e1c81612c1f565b606081526000838201526000604082015282826101405101015201610a13565b60405162461bcd60e51b815260206004820152601560248201527f6572726f725f696e76616c69645265706f7274657200000000000000000000006044820152606490fd5b6000906108b3565b50509091926108ca565b60405162461bcd60e51b815260206004820152601260248201527f6572726f725f71756f72756d4e6f744d657400000000000000000000000000006044820152606490fd5b60405162461bcd60e51b815260206004820152601360248201527f6572726f725f696e76616c69645265706f7274000000000000000000000000006044820152606490fd5b506001611f2861320b565b01546024351161081c565b60405162461bcd60e51b815260206004820152601360248201527f6572726f725f7374616b655265717569726564000000000000000000000000006044820152606490fd5b611f91915060203d602011611c8357611c758183612c57565b8661080a565b346101365760003660031901126101365760206001600160a01b0360975416604051908152f35b3461013657600036600319011261013657611fd7612d89565b60006001600160a01b036097546001600160a01b03198116609755167f8be0079c531659141344cd1fd0a4f28419497f9722a3daafe3b4186f6b6457e08280a3005b34610136576000366003190112610136576001600160a01b037f00000000000000000000000000000000000000000000000000000000000000001630036120845760206040517f360894a13ba1a3210667c828492db98dca3e2076cc3735a920a3ca505d382bbc8152f35b60405162461bcd60e51b815260206004820152603860248201527f555550535570677261646561626c653a206d757374206e6f742062652063616c60448201527f6c6564207468726f7567682064656c656761746563616c6c00000000000000006064820152608490fd5b604036600319011261013657612103612c91565b60243567ffffffffffffffff8111610136573660238201121561013657612134903690602481600401359101612d21565b906001600160a01b0391827f0000000000000000000000000000000000000000000000000000000000000000169261216e84301415612e29565b61219d7f360894a13ba1a3210667c828492db98dca3e2076cc3735a920a3ca505d382bbc948286541614612e9b565b6121a5612d89565b7f4910fdfa16fed3260ed0e7147f7cc6da11a60208b5b9406d12a635614ffd91435460ff16156121db5750506101749150612f0d565b82919216604051936352d1902d60e01b85526020948581600481865afa60009181612404575b506122625760405162461bcd60e51b815260048101879052602e60248201527f45524331393637557067726164653a206e657720696d706c656d656e7461746960448201526d6f6e206973206e6f74205555505360901b6064820152608490fd5b036123ad5761227082612f0d565b604051907fbc7cd75a20ee27fd9adebab32041f755214dbc6bffa90cc0225b39da2e5c2d3b600080a28251158015906123a5575b6122aa57005b813b1561235457506000828192856101749695519201905af43d1561234c573d906122d482612d05565b916122e26040519384612c57565b82523d60008484013e5b7f416464726573733a206c6f772d6c6576656c2064656c65676174652063616c6c6040519361231a85612c1f565b602785528401527f206661696c6564000000000000000000000000000000000000000000000000006040840152612fbb565b6060906122ec565b62461bcd60e51b815260048101849052602660248201527f416464726573733a2064656c65676174652063616c6c20746f206e6f6e2d636f6044820152651b9d1c9858dd60d21b6064820152608490fd5b5060016122a4565b60405162461bcd60e51b815260048101859052602960248201527f45524331393637557067726164653a20756e737570706f727465642070726f786044820152681a58589b195555525160ba1b6064820152608490fd5b9091508681813d831161242c575b61241c8183612c57565b8101031261013657519087612201565b503d612412565b34610136576020806003193601126101365761244d612c91565b6001600160a01b03807f00000000000000000000000000000000000000000000000000000000000000001661248481301415612e29565b6124b37f360894a13ba1a3210667c828492db98dca3e2076cc3735a920a3ca505d382bbc918383541614612e9b565b6124bb612d89565b604051908482019282841067ffffffffffffffff85111761176b57836040526000835260ff7f4910fdfa16fed3260ed0e7147f7cc6da11a60208b5b9406d12a635614ffd9143541660001461251857505050506101749150612f0d565b8416906040516352d1902d60e01b81528681600481865afa600091816126b9575b5061259a5760405162461bcd60e51b815260048101889052602e60248201527f45524331393637557067726164653a206e657720696d706c656d656e7461746960448201526d6f6e206973206e6f74205555505360901b6064820152608490fd5b03612662576125a884612f0d565b604051907fbc7cd75a20ee27fd9adebab32041f755214dbc6bffa90cc0225b39da2e5c2d3b600080a281511580159061265a575b6125e257005b833b1561260957506101749392600092839251915af43d1561234c573d906122d482612d05565b62461bcd60e51b815260048101859052602660248201527f416464726573733a2064656c65676174652063616c6c20746f206e6f6e2d636f6044820152651b9d1c9858dd60d21b6064820152608490fd5b5060006125dc565b60405162461bcd60e51b815260048101869052602960248201527f45524331393637557067726164653a20756e737570706f727465642070726f786044820152681a58589b195555525160ba1b6064820152608490fd5b9091508781813d83116126e1575b6126d18183612c57565b8101031261013657519088612539565b503d6126c7565b346101365760203660031901126101365760043567ffffffffffffffff811161013657366023820112156101365761272f6108356020923690602481600401359101612ca7565b6040519015158152f35b34610136576020806003193601126101365760043567ffffffffffffffff81116101365761276c8291369060040161296b565b9190612776613071565b50826040519384928337810160ff815203019020906040519061279882612c02565b6127a1836130ef565b825260018084015482840152600291828501546040850152600380860180546127c981612c79565b916127d76040519384612c57565b81835260009081528481208685878087015b8686106129315750505050505050606086015261280860048701613195565b608086015260058601805461281c81612c79565b9161282a6040519384612c57565b81835260009081528481208688878087015b8686106128f7575050505050505060a08601526006860180549261285f84612c79565b9561286d6040519788612c57565b8487526000928352818320908288015b8685106128bb5760c08a0189905260078b01546001600160a01b03811660e08c015260a01c60ff1615156101008b0152604051806103368c82612a29565b858489926040516128cb81612c1f565b6001600160a01b038754168152848701548382015285870154604082015281520193019401939161287d565b60405161290381612c3b565b6001600160a01b03865416815261291b858701613195565b838201528152019201920191908887899261283c565b60405161293d81612c1f565b612946866130ef565b815284860154838201528c8601546040820152815201920192019190858789926127e9565b9181601f840112156101365782359167ffffffffffffffff8311610136576020838186019501011161013657565b60005b8381106129ac5750506000910152565b818101518382015260200161299c565b906020916129d581518092818552858086019101612999565b601f01601f1916010190565b90815180825260208080930193019160005b828110612a01575050505090565b835180516001600160a01b0316865282015185830152604090940193928101926001016129f3565b602091828252805190612a496101209283868601526101408501906129bc565b93808201516040908186015280830151916060928387015282840151601f19978888820301608089015281518082528382019184808360051b8301019401926000915b888d858510612bb75750505050505050612ab4906080860151898983030160a08a01526129e1565b9160a085015192888882030160c089015283518082528382019184808360051b8301019601926000915b8c848410612b6a5750505050505060c0850151978784030160e08801528180895194858152019801936000915b848310612b39575050505050506001600160a01b0360e0820151169061010091828501520151151591015290565b855180516001600160a01b03168b52808501518b8601528101518a8201529881019894830194600190920191612b0b565b9680612ba38a89838a9e9b9c9a8798999a9b829f9860019903018a52516001600160a01b038151168452015191818582015201906129e1565b9a0193019301919392909796959497612ade565b9780999891888293856001969798999a9b030187528a80612be28c51948551908086528501906129bc565b938581015186850152015191015297019301930191939290969596612a8c565b610120810190811067ffffffffffffffff82111761176b57604052565b6060810190811067ffffffffffffffff82111761176b57604052565b6040810190811067ffffffffffffffff82111761176b57604052565b90601f8019910116810190811067ffffffffffffffff82111761176b57604052565b67ffffffffffffffff811161176b5760051b60200190565b600435906001600160a01b038216820361013657565b9291612cb282612c79565b91612cc06040519384612c57565b829481845260208094019160051b810192831161013657905b828210612ce65750505050565b81356001600160a01b0381168103610136578152908301908301612cd9565b67ffffffffffffffff811161176b57601f01601f191660200190565b929192612d2d82612d05565b91612d3b6040519384612c57565b829481845281830111610136578281602093846000960137010152565b9181601f840112156101365782359167ffffffffffffffff8311610136576020808501948460051b01011161013657565b6001600160a01b03609754163303612d9d57565b606460405162461bcd60e51b815260206004820152602060248201527f4f776e61626c653a2063616c6c6572206973206e6f7420746865206f776e65726044820152fd5b609754906001600160a01b0380911691826001600160a01b0319821617609755167f8be0079c531659141344cd1fd0a4f28419497f9722a3daafe3b4186f6b6457e0600080a3565b15612e3057565b60405162461bcd60e51b815260206004820152602c60248201527f46756e6374696f6e206d7573742062652063616c6c6564207468726f7567682060448201527f64656c656761746563616c6c00000000000000000000000000000000000000006064820152608490fd5b15612ea257565b60405162461bcd60e51b815260206004820152602c60248201527f46756e6374696f6e206d7573742062652063616c6c6564207468726f7567682060448201527f6163746976652070726f787900000000000000000000000000000000000000006064820152608490fd5b803b15612f50576001600160a01b037f360894a13ba1a3210667c828492db98dca3e2076cc3735a920a3ca505d382bbc91166001600160a01b0319825416179055565b60405162461bcd60e51b815260206004820152602d60248201527f455243313936373a206e657720696d706c656d656e746174696f6e206973206e60448201527f6f74206120636f6e7472616374000000000000000000000000000000000000006064820152608490fd5b90919015612fc7575090565b815115612fd75750805190602001fd5b60405162461bcd60e51b815260206004820152908190612ffb9060248301906129bc565b0390fd5b1561300657565b60405162461bcd60e51b815260206004820152602b60248201527f496e697469616c697a61626c653a20636f6e7472616374206973206e6f74206960448201527f6e697469616c697a696e670000000000000000000000000000000000000000006064820152608490fd5b6040519061307e82612c02565b600061010083606080825283602083015283604083015280808301528060808301528060a083015260c08201528260e08201520152565b90600182811c921680156130e5575b60208310146130cf57565b634e487b7160e01b600052602260045260246000fd5b91607f16916130c4565b9060405191826000825492613103846130b5565b908184526001948581169081600014613172575060011461312f575b505061312d92500383612c57565b565b9093915060005260209081600020936000915b81831061315a57505061312d9350820101388061311f565b85548884018501529485019487945091830191613142565b91505061312d94506020925060ff191682840152151560051b820101388061311f565b9081546131a181612c79565b926040936131b185519182612c57565b828152809460208092019260005281600020906000935b8585106131d757505050505050565b60028460019284516131e881612c3b565b6001600160a01b03875416815284870154838201528152019301940193916131c8565b60405160fc5481600061321d836130b5565b9260019081811690811561329a5750600114613244575b506020925060ff81520301902090565b60fc600090815291507f371f36870d18f32a11fea0f144b021c8b407bb50f8e0267c711123f454b963c05b84831061328457505050602091810138613234565b805486840152859350602090920191810161326f565b60ff19168452506020938015150283019150389050613234565b90816020910312610136575180151581036101365790565b6000198114610bdd5760010190565b80518210156132ef5760209160051b010190565b634e487b7160e01b600052603260045260246000fd5b91908201809211610bdd57565b91908110156132ef5760051b81013590601e198136030182121561013657019081359167ffffffffffffffff8311610136576020018236038113610136579190565b91908110156132ef5760051b0190565b9061312d602160405184613382829651809260208086019101612999565b8101600b60fa1b6020820152036001810185520183612c57565b356001600160a01b03811681036101365790565b906133ba82612c79565b6040906133c982519182612c57565b83815280936133da601f1991612c79565b0191600090815b8481106133ef575050505050565b60209082516133fd81612c3b565b8481528285818301528287010152016133e1565b60239061312d9294936040519582613433889451809260208088019101612999565b8301601160f91b6020820152613453825180936020602185019101612999565b0161111d60f11b60218201526134728251809360208785019101612999565b01036003810185520183612c57565b91908110156132ef5760051b81013590601e198136030182121561013657019081359167ffffffffffffffff8311610136576020018260051b36038113610136579190565b8181106134d1575050565b600081556001016134c6565b600160401b821161176b5780548282558083106134f957505050565b6001600160ff1b038082168203610bdd5783168303610bdd57600091825260208220600191821b810193821b015b8381106135345750505050565b808360029255838382015501613527565b60209081818403126101365780519067ffffffffffffffff821161013657019180601f8401121561013657825161357b81612c79565b936135896040519586612c57565b818552838086019260051b820101928311610136578301905b8282106135b0575050505090565b81516001600160a01b03811681036101365781529083019083016135a2565b9190604090815193818186378482810160fe815260209687910301902054613835576001600160a01b0392836101005416928151968794636085a91160e11b865285600460009a8b935afa94851561382b578895613807575b50845196919361364f61363a89612c79565b9861364786519a8b612c57565b808a52612c79565b8883019190601f190136833789938a925b8851841015613765578b92918b918499855b8d8d805183101561372e578a8e8d8f8561368c88876132db565b51168d5260fd8094528c2054101580613725575b613718578316156136ff57828f918f908e8d846136bd8a896132db565b51169052528b205491168a528d8a2054106136e3575b50506136de906132cc565b613672565b826136de939e506136f3916132db565b51169b90508d8d6136d3565b50826136de939e50613710916132db565b51169b6132cc565b505050506136de906132cc565b508d15156136a0565b5061375c959a5088949891508b9061375693979d989498169384815260fd8b522054996132db565b526132cc565b92909691613660565b989750999593509050828294519384928337810160fe8152030190209285519467ffffffffffffffff86116137f357600160401b86116137f35784548686558087106137d9575b50938352818320925b8581106137c55750505050505090565b8451821684820155938201936001016137b5565b8585528385206137ed9181019088016134c6565b386137ac565b634e487b7160e01b84526041600452602484fd5b6138249195503d808a833e61381c8183612c57565b810190613545565b9338613628565b83513d8a823e3d90fd5b93829394828294519384928337810160fe81520301902091518092839183825491828152019160005283600020936000905b8282106138805750505061387d92500382612c57565b90565b85546001600160a01b031684526001958601958795509381019390910190613867565b9060046000926000806001600160a01b03928284610100541660405196878092636085a91160e11b82525afa9485156139cb5783956139af575b508451600195869591861c806139a557508594989796985b80995b613909575b50505050505050909150565b81518a10156139a0578681815b613950575b505085851015613939576139318798999a6132cc565b9998976138f8565b5050505050509150915081388080808080806138fd565b855181101561399b57846139648d866132db565b51168561397183896132db565b51161461398757613981906132cc565b81613916565b505093613993906132cc565b93863861391b565b61391b565b6138fd565b94989796986138f5565b6139c49195503d8085833e61381c8183612c57565b93386138dd565b6040513d85823e3d90fd5b806000917a184f03e93ff9f4daa797ed6e38ed64bf6a1f01000000000000000080821015613b30575b506d04ee2d6d415b85acef810000000080831015613b21575b50662386f26fc1000080831015613b12575b506305f5e10080831015613b03575b5061271080831015613af4575b506064821015613ae4575b600a80921015613ada575b60019081602181860195613a6f87612d05565b96613a7d6040519889612c57565b808852613a8c601f1991612d05565b01366020890137860101905b613aa4575b5050505090565b600019019083906f181899199a1a9b1b9c1cb0b131b232b360811b8282061a835304918215613ad557919082613a98565b613a9d565b9160010191613a5c565b9190606460029104910191613a51565b60049193920491019138613a46565b60089193920491019138613a39565b60109193920491019138613a2a565b60209193920491019138613a18565b6040935081049150386139ff565b600080821291908215613bb957613b7a61387d92602092604051613b6181612c3b565b60018152602d60f81b85820152955b613bb357506139d6565b926040519381613b938693518092868087019101612999565b8201613ba782518093868085019101612999565b01038084520182612c57565b036139d6565b6040516020810181811067ffffffffffffffff821117613bea576040528181529261387d92602092613b7a92613b70565b634e487b7160e01b83526041600452602483fd5b6001600160a01b031660405190613c1482612c1f565b602a825260209081830160403682378351156132ef576030905382516001908110156132ef57607860218501536029905b808211613c99575050613c56575090565b6064906040519062461bcd60e51b825280600483015260248201527f537472696e67733a20686578206c656e67746820696e73756666696369656e746044820152fd5b9091600f81166010811015613cf6578551841015613cf6576f181899199a1a9b1b9c1cb0b131b232b360811b901a84848701015360041c918015613ce1576000190190613c45565b60246000634e487b7160e01b81526011600452fd5b60246000634e487b7160e01b81526032600452fdfea2646970667358221220105bb0e64c0060859d768a821f76112874a21c86d3a4d6ecd8c5d9b357cb00bd64736f6c63430008110033",
  "linkReferences": {
    "src/lib/VerifySignature.sol": {
      "VerifySignature": [
        {
          "length": 20,
          "start": 4791
        }
      ]
    }
  },
  "deployedLinkReferences": {
    "src/lib/VerifySignature.sol": {
      "VerifySignature": [
        {
          "length": 20,
          "start": 4736
        }
      ]
    }
  }
}