{
  "_format": "hh-sol-artifact-1",
  "contractName": "LogStoreReportManager",
  "sourceName": "src/ReportManager.sol",
  "abi": [
    {
      "anonymous": false,
      "inputs": [
        {
          "indexed": false,
          "internalType": "address",
          "name": "previousAdmin",
          "type": "address"
        },
        {
          "indexed": false,
          "internalType": "address",
          "name": "newAdmin",
          "type": "address"
        }
      ],
      "name": "AdminChanged",
      "type": "event"
    },
    {
      "anonymous": false,
      "inputs": [
        {
          "indexed": true,
          "internalType": "address",
          "name": "beacon",
          "type": "address"
        }
      ],
      "name": "BeaconUpgraded",
      "type": "event"
    },
    {
      "anonymous": false,
      "inputs": [
        {
          "indexed": false,
          "internalType": "uint8",
          "name": "version",
          "type": "uint8"
        }
      ],
      "name": "Initialized",
      "type": "event"
    },
    {
      "anonymous": false,
      "inputs": [
        {
          "indexed": false,
          "internalType": "bool",
          "name": "isMet",
          "type": "bool"
        }
      ],
      "name": "Logger",
      "type": "event"
    },
    {
      "anonymous": false,
      "inputs": [
        {
          "indexed": true,
          "internalType": "address",
          "name": "previousOwner",
          "type": "address"
        },
        {
          "indexed": true,
          "internalType": "address",
          "name": "newOwner",
          "type": "address"
        }
      ],
      "name": "OwnershipTransferred",
      "type": "event"
    },
    {
      "anonymous": false,
      "inputs": [
        {
          "indexed": false,
          "internalType": "string",
          "name": "raw",
          "type": "string"
        }
      ],
      "name": "ReportAccepted",
      "type": "event"
    },
    {
      "anonymous": false,
      "inputs": [
        {
          "indexed": true,
          "internalType": "address",
          "name": "implementation",
          "type": "address"
        }
      ],
      "name": "Upgraded",
      "type": "event"
    },
    {
      "inputs": [],
      "name": "getLastReport",
      "outputs": [
        {
          "components": [
            {
              "internalType": "string",
              "name": "id",
              "type": "string"
            },
            {
              "internalType": "uint256",
              "name": "height",
              "type": "uint256"
            },
            {
              "internalType": "int256",
              "name": "treasury",
              "type": "int256"
            },
            {
              "components": [
                {
                  "internalType": "string",
                  "name": "id",
                  "type": "string"
                },
                {
                  "internalType": "uint256",
                  "name": "writeCapture",
                  "type": "uint256"
                },
                {
                  "internalType": "uint256",
                  "name": "writeBytes",
                  "type": "uint256"
                }
              ],
              "internalType": "struct LogStoreReportManager.Stream[]",
              "name": "streams",
              "type": "tuple[]"
            },
            {
              "components": [
                {
                  "internalType": "address",
                  "name": "id",
                  "type": "address"
                },
                {
                  "internalType": "int256",
                  "name": "amount",
                  "type": "int256"
                }
              ],
              "internalType": "struct LogStoreReportManager.Node[]",
              "name": "nodes",
              "type": "tuple[]"
            },
            {
              "components": [
                {
                  "internalType": "address",
                  "name": "id",
                  "type": "address"
                },
                {
                  "components": [
                    {
                      "internalType": "address",
                      "name": "id",
                      "type": "address"
                    },
                    {
                      "internalType": "int256",
                      "name": "amount",
                      "type": "int256"
                    }
                  ],
                  "internalType": "struct LogStoreReportManager.Node[]",
                  "name": "nodes",
                  "type": "tuple[]"
                }
              ],
              "internalType": "struct LogStoreReportManager.Delegate[]",
              "name": "delegates",
              "type": "tuple[]"
            },
            {
              "components": [
                {
                  "internalType": "address",
                  "name": "id",
                  "type": "address"
                },
                {
                  "internalType": "uint256",
                  "name": "readCapture",
                  "type": "uint256"
                },
                {
                  "internalType": "uint256",
                  "name": "readBytes",
                  "type": "uint256"
                }
              ],
              "internalType": "struct LogStoreReportManager.Consumer[]",
              "name": "consumers",
              "type": "tuple[]"
            },
            {
              "internalType": "address",
              "name": "_reporter",
              "type": "address"
            },
            {
              "internalType": "bool",
              "name": "_processed",
              "type": "bool"
            }
          ],
          "internalType": "struct LogStoreReportManager.Report",
          "name": "",
          "type": "tuple"
        }
      ],
      "stateMutability": "view",
      "type": "function"
    },
    {
      "inputs": [
        {
          "internalType": "string",
          "name": "id",
          "type": "string"
        }
      ],
      "name": "getReport",
      "outputs": [
        {
          "components": [
            {
              "internalType": "string",
              "name": "id",
              "type": "string"
            },
            {
              "internalType": "uint256",
              "name": "height",
              "type": "uint256"
            },
            {
              "internalType": "int256",
              "name": "treasury",
              "type": "int256"
            },
            {
              "components": [
                {
                  "internalType": "string",
                  "name": "id",
                  "type": "string"
                },
                {
                  "internalType": "uint256",
                  "name": "writeCapture",
                  "type": "uint256"
                },
                {
                  "internalType": "uint256",
                  "name": "writeBytes",
                  "type": "uint256"
                }
              ],
              "internalType": "struct LogStoreReportManager.Stream[]",
              "name": "streams",
              "type": "tuple[]"
            },
            {
              "components": [
                {
                  "internalType": "address",
                  "name": "id",
                  "type": "address"
                },
                {
                  "internalType": "int256",
                  "name": "amount",
                  "type": "int256"
                }
              ],
              "internalType": "struct LogStoreReportManager.Node[]",
              "name": "nodes",
              "type": "tuple[]"
            },
            {
              "components": [
                {
                  "internalType": "address",
                  "name": "id",
                  "type": "address"
                },
                {
                  "components": [
                    {
                      "internalType": "address",
                      "name": "id",
                      "type": "address"
                    },
                    {
                      "internalType": "int256",
                      "name": "amount",
                      "type": "int256"
                    }
                  ],
                  "internalType": "struct LogStoreReportManager.Node[]",
                  "name": "nodes",
                  "type": "tuple[]"
                }
              ],
              "internalType": "struct LogStoreReportManager.Delegate[]",
              "name": "delegates",
              "type": "tuple[]"
            },
            {
              "components": [
                {
                  "internalType": "address",
                  "name": "id",
                  "type": "address"
                },
                {
                  "internalType": "uint256",
                  "name": "readCapture",
                  "type": "uint256"
                },
                {
                  "internalType": "uint256",
                  "name": "readBytes",
                  "type": "uint256"
                }
              ],
              "internalType": "struct LogStoreReportManager.Consumer[]",
              "name": "consumers",
              "type": "tuple[]"
            },
            {
              "internalType": "address",
              "name": "_reporter",
              "type": "address"
            },
            {
              "internalType": "bool",
              "name": "_processed",
              "type": "bool"
            }
          ],
          "internalType": "struct LogStoreReportManager.Report",
          "name": "",
          "type": "tuple"
        }
      ],
      "stateMutability": "view",
      "type": "function"
    },
    {
      "inputs": [
        {
          "internalType": "address",
          "name": "_owner",
          "type": "address"
        },
        {
          "internalType": "uint256",
          "name": "_reportBlockBuffer",
          "type": "uint256"
        }
      ],
      "name": "initialize",
      "outputs": [],
      "stateMutability": "nonpayable",
      "type": "function"
    },
    {
      "inputs": [],
      "name": "owner",
      "outputs": [
        {
          "internalType": "address",
          "name": "",
          "type": "address"
        }
      ],
      "stateMutability": "view",
      "type": "function"
    },
    {
      "inputs": [
        {
          "internalType": "string",
          "name": "id",
          "type": "string"
        }
      ],
      "name": "processReport",
      "outputs": [],
      "stateMutability": "nonpayable",
      "type": "function"
    },
    {
      "inputs": [],
      "name": "proxiableUUID",
      "outputs": [
        {
          "internalType": "bytes32",
          "name": "",
          "type": "bytes32"
        }
      ],
      "stateMutability": "view",
      "type": "function"
    },
    {
      "inputs": [
        {
          "internalType": "address[]",
          "name": "submittedNodes",
          "type": "address[]"
        }
      ],
      "name": "quorumIsMet",
      "outputs": [
        {
          "internalType": "bool",
          "name": "isMet",
          "type": "bool"
        }
      ],
      "stateMutability": "view",
      "type": "function"
    },
    {
      "inputs": [],
      "name": "renounceOwnership",
      "outputs": [],
      "stateMutability": "nonpayable",
      "type": "function"
    },
    {
      "inputs": [
        {
          "internalType": "string",
          "name": "id",
          "type": "string"
        },
        {
          "internalType": "uint256",
          "name": "blockHeight",
          "type": "uint256"
        },
        {
          "internalType": "string[]",
          "name": "streams",
          "type": "string[]"
        },
        {
          "internalType": "uint256[]",
          "name": "writeCaptureAmounts",
          "type": "uint256[]"
        },
        {
          "internalType": "uint256[]",
          "name": "writeBytes",
          "type": "uint256[]"
        },
        {
          "internalType": "address[]",
          "name": "readConsumerAddresses",
          "type": "address[]"
        },
        {
          "internalType": "uint256[]",
          "name": "readCaptureAmounts",
          "type": "uint256[]"
        },
        {
          "internalType": "uint256[]",
          "name": "readBytes",
          "type": "uint256[]"
        },
        {
          "internalType": "address[]",
          "name": "nodes",
          "type": "address[]"
        },
        {
          "internalType": "int256[]",
          "name": "nodeChanges",
          "type": "int256[]"
        },
        {
          "internalType": "address[]",
          "name": "delegates",
          "type": "address[]"
        },
        {
          "internalType": "address[][]",
          "name": "delegateNodes",
          "type": "address[][]"
        },
        {
          "internalType": "int256[][]",
          "name": "delegateNodeChanges",
          "type": "int256[][]"
        },
        {
          "internalType": "int256",
          "name": "treasurySupplyChange",
          "type": "int256"
        },
        {
          "internalType": "address[]",
          "name": "addresses",
          "type": "address[]"
        },
        {
          "internalType": "bytes[]",
          "name": "signatures",
          "type": "bytes[]"
        }
      ],
      "name": "report",
      "outputs": [],
      "stateMutability": "nonpayable",
      "type": "function"
    },
    {
      "inputs": [
        {
          "internalType": "address",
          "name": "newOwner",
          "type": "address"
        }
      ],
      "name": "transferOwnership",
      "outputs": [],
      "stateMutability": "nonpayable",
      "type": "function"
    },
    {
      "inputs": [
        {
          "internalType": "address",
          "name": "newImplementation",
          "type": "address"
        }
      ],
      "name": "upgradeTo",
      "outputs": [],
      "stateMutability": "nonpayable",
      "type": "function"
    },
    {
      "inputs": [
        {
          "internalType": "address",
          "name": "newImplementation",
          "type": "address"
        },
        {
          "internalType": "bytes",
          "name": "data",
          "type": "bytes"
        }
      ],
      "name": "upgradeToAndCall",
      "outputs": [],
      "stateMutability": "payable",
      "type": "function"
    }
  ],
  "bytecode": "0x60a080604052346100315730608052613c0b90816100378239608051818181611f0b01528181612018015261232f0152f35b600080fdfe6104c0604052600436101561001357600080fd5b60003560e01c806312e63d711461261057806325cbbdff146125bf5780633659cfe61461230a5780634f1ef28614611fc657806352d1902d14611ef0578063715018a614611e955780638da5cb5b14611e6e5780639f29124b14610594578063cd6dc687146103ea578063eefa7a3e146101e1578063f2fde38b1461013b5763f6883c05146100a157600080fd5b346101365760203660031901126101365760043567ffffffffffffffff81116101365760206100d66007923690600401612842565b91906100e0612c60565b826040519384928337810160ff81520301902001740100000000000000000000000000000000000000007fffffffffffffffffffffff00ffffffffffffffffffffffffffffffffffffffff825416179055600080f35b600080fd5b3461013657602036600319011261013657610154612b68565b61015c612c60565b6001600160a01b038116156101765761017490612cb8565b005b60405162461bcd60e51b815260206004820152602660248201527f4f776e61626c653a206e6577206f776e657220697320746865207a65726f206160448201527f64647265737300000000000000000000000000000000000000000000000000006064820152608490fd5b34610136576000366003190112610136576101fa612f48565b506102036130e2565b60405161020f81612ad9565b61021882612fc6565b815260018083015490602091828401526002918285015460408501526003808601805461024481612b50565b916102526040519384612b2e565b81835260009081528481208685878087015b8686106103b0575050505050505060608601526102836004870161306c565b608086015260058601805461029781612b50565b916102a56040519384612b2e565b81835260009081528481208688878087015b868610610376575050505050505060a0860152600686018054926102da84612b50565b956102e86040519788612b2e565b8487526000928352818320908288015b86851061033a5760c08a0189905260078b01546001600160a01b03811660e08c015260a01c60ff1615156101008b0152604051806103368c82612900565b0390f35b8584899260405161034a81612af6565b6001600160a01b03875416815284870154838201528587015460408201528152019301940193916102f8565b60405161038281612b12565b6001600160a01b03865416815261039a85870161306c565b83820152815201920192019190888789926102b7565b6040516103bc81612af6565b6103c586612fc6565b815284860154838201528c860154604082015281520192019201919085878992610264565b3461013657604036600319011261013657610403612b68565b6000549060ff8260081c161591828093610587575b8015610570575b156105055760ff198116600117600055826104f3575b5061045060ff60005460081c1661044b81612ed6565b612ed6565b61045933612cb8565b61047760ff60005460081c1661046e81612ed6565b61044b81612ed6565b600160c9556001600160a01b038116610100816001600160a01b031982541617905560243560fb556104a7612c60565b15610176576104b590612cb8565b6104bb57005b61ff0019600054166000557f7f26b83ff96e1f2b6a682f133852f6798a09c465da95921460cefb3847402498602060405160018152a1005b61ffff19166101011760005582610435565b60405162461bcd60e51b815260206004820152602e60248201527f496e697469616c697a61626c653a20636f6e747261637420697320616c72656160448201527f647920696e697469616c697a65640000000000000000000000000000000000006064820152608490fd5b50303b15801561041f5750600160ff82161461041f565b50600160ff821610610418565b34610136576102003660031901126101365760043567ffffffffffffffff8111610136576105c6903690600401612842565b610380526102805260443567ffffffffffffffff8111610136576105ee903690600401612c2f565b906101805260643567ffffffffffffffff811161013657610613903690600401612c2f565b9060c05260843567ffffffffffffffff811161013657610637903690600401612c2f565b6103005260805260a43567ffffffffffffffff81116101365761065e903690600401612c2f565b67ffffffffffffffff60c435116101365761067e3660c435600401612c2f565b610340529067ffffffffffffffff60e43511610136576106a33660e435600401612c2f565b919067ffffffffffffffff6101043511610136576106c73661010435600401612c2f565b6101405260e05267ffffffffffffffff6101243511610136576106f03661012435600401612c2f565b6102e0526102605267ffffffffffffffff61014435116101365761071a3661014435600401612c2f565b610320526104a05267ffffffffffffffff6101643511610136576107443661016435600401612c2f565b610360526101c05267ffffffffffffffff61018435116101365761076e3661018435600401612c2f565b610420526102205267ffffffffffffffff6101c4351161013657610798366101c435600401612c2f565b610240526103c05267ffffffffffffffff6101e43511610136576107c2366101e435600401612c2f565b60a05261020052602460206001600160a01b03610100541660405192838092630c2effa360e31b82523360048301525afa908115611ce157600091611e4f575b5015611e0a5743602435111580611df4575b15611daf5761083261082d36610240516103c051612b7e565b61376d565b15611d6a576108476103805161028051613499565b6000610460525b80516104605190811015611d63576001600160a01b0361086f3392846131b2565b51161461088b57610882610460516131a3565b6104605261084e565b5060fb54610460518082810204821481151715610c1457026024358101908110610c1457431115611d1e575b6108c26024356138a0565b6109bf604e6108d36101a435613a08565b92604051938491663d9134b2111d1160c91b6020840152610380516102805160278501377f222c22686569676874223a2200000000000000000000000000000000000000006027610380518501015261093b8151809260206033610380518801019101612870565b7f222c227472656173757279223a2200000000000000000000000000000000000060338261038051860101015261098382518093602060418561038051890101019101612870565b61038051830101017f222c2273747265616d73223a5b00000000000000000000000000000000000000604182015203602e810184520182612b2e565b6101e0526109e16109cf88612b50565b806102a0526040518061048052612b2e565b866104805152601f196109f388612b50565b0160006102c0525b806102c0511015610a4157604051610a1281612af6565b60608152600060208201526000604082015260206102c0516104805101015260206102c051016102c0526109fb565b506000610160525b6101605187811015610c2a57610b4f610a68603d928a610180516131dc565b9290610a83610a7d610160518c60c05161321e565b356138a0565b607d60f81b610a9e610a7d610160516103005160805161321e565b91604051968794816101e051610abd815180926020808c019101612870565b870191663d9134b2111d1160c91b60208401526027830137016b11161131b0b83a3ab932911d60a11b6027820152610aff825180936020603385019101612870565b017f2c226279746573223a00000000000000000000000000000000000000000000006033820152825190610b3c82603c9560208785019101612870565b019182015203601d810184520182612b2e565b806101e05287600019810111610c145760001988016101605103610c01575b50610b806101605188610180516131dc565b90610b91610160518960c05161321e565b35610bbe610ba8610160516103005160805161321e565b359260405194610bb786612af6565b3691612bf8565b835260208301526040820152610bda61016051610480516131b2565b52610beb61016051610480516131b2565b50610bf8610160516131a3565b61016052610a49565b610c0a9061322e565b6101e05287610b6e565b634e487b7160e01b600052601160045260246000fd5b5084604051610c82602f826101e051610c4c8151809260208086019101612870565b81017f5d2c22636f6e73756d657273223a5b0000000000000000000000000000000000602082015203600f810184520182612b2e565b6101e052610ca4610c9284612b50565b8061010052604051806103e052612b2e565b826103e05152601f19610cb684612b50565b016000610400525b80610400511015610d0457604051610cd581612af6565b6000815260006020820152600060408201526020610400516103e0510101526020610400510161040052610cbe565b5060006101a0525b6101a05183811015610e8f57610d2e610d29610d3392868561321e565b613266565b613ac8565b610dd0603d610d4c610a7d6101a051610340518b61321e565b92610d5e610a7d6101a0518a8961321e565b607d60f81b6040519586936101e051610d80815180926020808a019101612870565b8501663d9134b2111d1160c91b6020820152610da6825180936020602785019101612870565b016b11161131b0b83a3ab932911d60a11b6027820152610aff825180936020603385019101612870565b806101e05283600019810111610c145760001984016101a05103610e7c575b50610e01610d296101a051858461321e565b610e126101a051610340518861321e565b35610e216101a051878661321e565b35906001600160a01b0360405193610e3885612af6565b16835260208301526040820152610e556101a0516103e0516131b2565b52610e666101a0516103e0516131b2565b50610e736101a0516131a3565b6101a052610d0c565b610e859061322e565b6101e05285610def565b604051610ee5602b826101e051610eaf8151809260208086019101612870565b81017f5d2c226e6f646573223a7b000000000000000000000000000000000000000000602082015203600b810184520182612b2e565b6101e052610ef56101405161327a565b60005b6101405180821015610fd957610f1a610d2e610d2984610f3e9460e05161321e565b610f34610f2e846102e0516102605161321e565b35613a08565b906101e0516132db565b90816101e052610140519182600019810111610c1457610fc192600019018203610fc6575b50610f77610d29826101405160e05161321e565b610f88826102e0516102605161321e565b356001600160a01b0360405192610f9e84612b12565b1682526020820152610fb082856131b2565b52610fbb81846131b2565b506131a3565b610ef8565b610fcf9061322e565b6101e05283610f63565b82604051611030602f826101e051610ffa8151809260208086019101612870565b81017f7d2c2264656c656761746573223a7b0000000000000000000000000000000000602082015203600f810184520182612b2e565b6101e05261105061104361032051612b50565b6040518061012052612b2e565b610320516101205152601f1961106861032051612b50565b0160005b818110611cf657826000610440525b6103205161044051818110156112e257610d29610d2e9161109f936104a05161321e565b6110fd602460405180936101e0516110c08151809260208087019101612870565b8201601160f91b60208201528151906110e28260219460208685019101612870565b019062223a7b60e81b90820152036004810184520182612b2e565b6101e05261111f61111861044051610360516101c05161334b565b905061327a565b6103a05260005b61113a61044051610360516101c05161334b565b90508110156112405761118561116a610d2e610d298461116461044051610360516101c05161334b565b9061321e565b610f34610f2e8461116461044051610420516102205161334b565b6101e05261119d61044051610360516101c05161334b565b80929150600019810111610c14576112269160001901810361122b575b6111d5610d298261116461044051610360516101c05161334b565b6111ed8261116461044051610420516102205161334b565b356001600160a01b036040519261120384612b12565b1682526020820152611218826103a0516131b2565b52610fbb816103a0516131b2565b611126565b6112376101e05161322e565b6101e0526111ba565b506103205180600019810111610c14576000190161044051036112cd575b611275610d2961044051610320516104a05161321e565b6001600160a01b036040519161128a83612b12565b1681526103a05160208201526112a661044051610120516131b2565b526112b761044051610120516131b2565b506112c4610440516131a3565b6104405261107b565b6112d96101e05161322e565b6101e05261125e565b826040516113216023826101e0516113038151809260208086019101612870565b8101627d7d7d60e81b60208201526003828203018252030182612b2e565b6040519161132e83612ad9565b61133f366103805161028051612bf8565b835260243560208401526101a435604084015261048051606084015260808301526101205160a08301526103e05160c08301523360e0830152600061010083015260405160208101906113aa602082855161139d8187858a01612870565b8101038084520182612b2e565b5190209060005b6102405180821015611ced57610d29826113ce926103c05161321e565b60206001600160a01b0360846113ea8560a051610200516131dc565b8060409692965196879586946301a86b5560e41b86521660048501528a602485015260606044850152816064850152848401376000828201840152601f01601f1916810103018173__$267c3dc7aa7d3fe2e28bda43a2ca27cd27$__5af48015611ce157600191600091611cb2575b5015150361146f5761146a906131a3565b6113b1565b5090505b61148d602083518160405193828580945193849201612870565b810160ff81520301902091805192835167ffffffffffffffff8111611807576114b68254612f8c565b601f8111611c80575b506020601f8211600114611c17578192939495600092611c0c575b50508160011b916000199060031b1c19161781555b60208201516001820155604082015160028201556060820151805190600160401b8211611807576003830154826003850155808310611b61575b50602001906003830160005260206000206000925b828410611a2c575050505060048101608083015190602082519261156284846133a7565b019060005260206000206000915b8383106119f6575050505060a0820151805190600160401b821161180757600583015482600585015580831061194e575b506020016005830160005260206000206000915b8383106118b6575050505060c0820151805190600160401b821161180757600683015482600685015580831061185d575b506020016006830160005260206000206000915b83831061181d578686600787016001600160a01b0360e0830151168154907fffffffffffffffffffffff00000000000000000000000000000000000000000074ff0000000000000000000000000000000000000000610100860151151560a01b169216171790555180519067ffffffffffffffff82116118075761167f60fc54612f8c565b601f81116117ad575b50602090601f83116001146117025791807fc53a4e1db72f8c6fde77b85b4cc21a59f9896e9d7285f890075356dbd528d1cd94926116f2946000926116f7575b50508160011b916000199060031b1c19161760fc555b604051918291602083526020830190612893565b0390a1005b0151905085806116c8565b90601f1983169160fc6000527f371f36870d18f32a11fea0f144b021c8b407bb50f8e0267c711123f454b963c09260005b81811061179557509260019285926116f2967fc53a4e1db72f8c6fde77b85b4cc21a59f9896e9d7285f890075356dbd528d1cd98961061177c575b505050811b0160fc556116de565b015160001960f88460031b161c1916905585808061176e565b92936020600181928786015181550195019301611733565b6117f79060fc6000527f371f36870d18f32a11fea0f144b021c8b407bb50f8e0267c711123f454b963c0601f850160051c810191602086106117fd575b601f0160051c0190613390565b83611688565b90915081906117ea565b634e487b7160e01b600052604160045260246000fd5b60036020826040600194516001600160a01b038151166001600160a01b0319885416178755838101518688015501516002860155019201920191906115fa565b6003818102048103610c14576003838102048303610c14576006840160005260206000208360030281015b826003028201811061189b5750506115e6565b80600060039255600060018201556000600282015501611888565b80516001600160a01b038151166001600160a01b03198454161783556020600184019101519060208251926118eb84846133a7565b01906000526020600020906000905b838210611918575050505060026020600192019201920191906115b5565b600260208281600194516001600160a01b038151166001600160a01b0319895416178855015184870155019301910190916118fa565b6001600160ff1b0381168103610c14576001600160ff1b0383168303610c14576005840160005260206000208360011b81015b8260011b820181106119945750506115a1565b60008155600181015460006001830155806119b3575b50600201611981565b6001600160ff1b0381168103610c14576001820160005260206000209060011b8101905b8181106119e457506119aa565b600080825560018201556002016119d7565b600260208281600194516001600160a01b038151166001600160a01b031988541617875501518486015501920192019190611570565b8051805180519067ffffffffffffffff821161180757611a4c8554612f8c565b601f8111611b24575b50602090601f8311600114611ab2576003938360209460019794604094600092611aa7575b505060001982881b1c191690871b1787555b8381015186880155015160028601550192019301929061153e565b015190508e80611a7a565b908560005260206000209160005b601f1985168110611b0c575093600184819794604094600398602098601f19811610611af4575b505050811b018755611a8c565b0151600019838a1b60f8161c191690558e8080611ae7565b91926020600181928685015181550194019201611ac0565b611b51908660005260206000206005601f8601811c82019260208710611b57575b601f01901c0190613390565b8a611a55565b9192508291611b45565b6003818102048103610c14576003838102048303610c14576003840160005260206000208360030281015b8260030282018110611b9f575050611529565b80611bac60039254612f8c565b80611bc7575b50600060018201556000600282015501611b8c565b601f8111600114611bde5750600081555b89611bb2565b611bfd90826000526001601f6020600020920160051c82019101613390565b60006020812081835555611bd8565b0151905085806114da565b8260005260206000209060005b601f1984168110611c68575060019394959683601f19811610611c4f575b505050811b0181556114ef565b015160001960f88460031b161c19169055858080611c42565b9091602060018192858b015181550193019101611c24565b611cac90836000526020600020601f840160051c810191602085106117fd57601f0160051c0190613390565b856114bf565b611cd4915060203d602011611cda575b611ccc8183612b2e565b81019061318b565b86611459565b503d611cc2565b6040513d6000823e3d90fd5b50509050611473565b602090604051611d0581612b12565b600081526060838201528282610120510101520161106c565b60405162461bcd60e51b815260206004820152601560248201527f6572726f725f696e76616c69645265706f7274657200000000000000000000006044820152606490fd5b50506108b7565b60405162461bcd60e51b815260206004820152601260248201527f6572726f725f71756f72756d4e6f744d657400000000000000000000000000006044820152606490fd5b60405162461bcd60e51b815260206004820152601360248201527f6572726f725f696e76616c69645265706f7274000000000000000000000000006044820152606490fd5b506001611dff6130e2565b015460243511610814565b60405162461bcd60e51b815260206004820152601360248201527f6572726f725f7374616b655265717569726564000000000000000000000000006044820152606490fd5b611e68915060203d602011611cda57611ccc8183612b2e565b88610802565b346101365760003660031901126101365760206001600160a01b0360975416604051908152f35b3461013657600036600319011261013657611eae612c60565b60006001600160a01b036097546001600160a01b03198116609755167f8be0079c531659141344cd1fd0a4f28419497f9722a3daafe3b4186f6b6457e08280a3005b34610136576000366003190112610136576001600160a01b037f0000000000000000000000000000000000000000000000000000000000000000163003611f5b5760206040517f360894a13ba1a3210667c828492db98dca3e2076cc3735a920a3ca505d382bbc8152f35b60405162461bcd60e51b815260206004820152603860248201527f555550535570677261646561626c653a206d757374206e6f742062652063616c60448201527f6c6564207468726f7567682064656c656761746563616c6c00000000000000006064820152608490fd5b604036600319011261013657611fda612b68565b60243567ffffffffffffffff811161013657366023820112156101365761200b903690602481600401359101612bf8565b906001600160a01b0391827f0000000000000000000000000000000000000000000000000000000000000000169261204584301415612d00565b6120747f360894a13ba1a3210667c828492db98dca3e2076cc3735a920a3ca505d382bbc948286541614612d72565b61207c612c60565b7f4910fdfa16fed3260ed0e7147f7cc6da11a60208b5b9406d12a635614ffd91435460ff16156120b25750506101749150612de4565b82919216604051936352d1902d60e01b85526020948581600481865afa600091816122db575b506121395760405162461bcd60e51b815260048101879052602e60248201527f45524331393637557067726164653a206e657720696d706c656d656e7461746960448201526d6f6e206973206e6f74205555505360901b6064820152608490fd5b036122845761214782612de4565b604051907fbc7cd75a20ee27fd9adebab32041f755214dbc6bffa90cc0225b39da2e5c2d3b600080a282511580159061227c575b61218157005b813b1561222b57506000828192856101749695519201905af43d15612223573d906121ab82612bdc565b916121b96040519384612b2e565b82523d60008484013e5b7f416464726573733a206c6f772d6c6576656c2064656c65676174652063616c6c604051936121f185612af6565b602785528401527f206661696c6564000000000000000000000000000000000000000000000000006040840152612e92565b6060906121c3565b62461bcd60e51b815260048101849052602660248201527f416464726573733a2064656c65676174652063616c6c20746f206e6f6e2d636f6044820152651b9d1c9858dd60d21b6064820152608490fd5b50600161217b565b60405162461bcd60e51b815260048101859052602960248201527f45524331393637557067726164653a20756e737570706f727465642070726f786044820152681a58589b195555525160ba1b6064820152608490fd5b9091508681813d8311612303575b6122f38183612b2e565b81010312610136575190876120d8565b503d6122e9565b346101365760208060031936011261013657612324612b68565b6001600160a01b03807f00000000000000000000000000000000000000000000000000000000000000001661235b81301415612d00565b61238a7f360894a13ba1a3210667c828492db98dca3e2076cc3735a920a3ca505d382bbc918383541614612d72565b612392612c60565b604051908482019282841067ffffffffffffffff85111761180757836040526000835260ff7f4910fdfa16fed3260ed0e7147f7cc6da11a60208b5b9406d12a635614ffd914354166000146123ef57505050506101749150612de4565b8416906040516352d1902d60e01b81528681600481865afa60009181612590575b506124715760405162461bcd60e51b815260048101889052602e60248201527f45524331393637557067726164653a206e657720696d706c656d656e7461746960448201526d6f6e206973206e6f74205555505360901b6064820152608490fd5b036125395761247f84612de4565b604051907fbc7cd75a20ee27fd9adebab32041f755214dbc6bffa90cc0225b39da2e5c2d3b600080a2815115801590612531575b6124b957005b833b156124e057506101749392600092839251915af43d15612223573d906121ab82612bdc565b62461bcd60e51b815260048101859052602660248201527f416464726573733a2064656c65676174652063616c6c20746f206e6f6e2d636f6044820152651b9d1c9858dd60d21b6064820152608490fd5b5060006124b3565b60405162461bcd60e51b815260048101869052602960248201527f45524331393637557067726164653a20756e737570706f727465642070726f786044820152681a58589b195555525160ba1b6064820152608490fd5b9091508781813d83116125b8575b6125a88183612b2e565b8101031261013657519088612410565b503d61259e565b346101365760203660031901126101365760043567ffffffffffffffff811161013657366023820112156101365761260661082d6020923690602481600401359101612b7e565b6040519015158152f35b34610136576020806003193601126101365760043567ffffffffffffffff81116101365761264382913690600401612842565b919061264d612f48565b50826040519384928337810160ff815203019020906040519061266f82612ad9565b61267883612fc6565b825260018084015482840152600291828501546040850152600380860180546126a081612b50565b916126ae6040519384612b2e565b81835260009081528481208685878087015b868610612808575050505050505060608601526126df6004870161306c565b60808601526005860180546126f381612b50565b916127016040519384612b2e565b81835260009081528481208688878087015b8686106127ce575050505050505060a08601526006860180549261273684612b50565b956127446040519788612b2e565b8487526000928352818320908288015b8685106127925760c08a0189905260078b01546001600160a01b03811660e08c015260a01c60ff1615156101008b0152604051806103368c82612900565b858489926040516127a281612af6565b6001600160a01b0387541681528487015483820152858701546040820152815201930194019391612754565b6040516127da81612b12565b6001600160a01b0386541681526127f285870161306c565b8382015281520192019201919088878992612713565b60405161281481612af6565b61281d86612fc6565b815284860154838201528c8601546040820152815201920192019190858789926126c0565b9181601f840112156101365782359167ffffffffffffffff8311610136576020838186019501011161013657565b60005b8381106128835750506000910152565b8181015183820152602001612873565b906020916128ac81518092818552858086019101612870565b601f01601f1916010190565b90815180825260208080930193019160005b8281106128d8575050505090565b835180516001600160a01b0316865282015185830152604090940193928101926001016128ca565b602091828252805190612920610120928386860152610140850190612893565b93808201516040908186015280830151916060928387015282840151601f19978888820301608089015281518082528382019184808360051b8301019401926000915b888d858510612a8e575050505050505061298b906080860151898983030160a08a01526128b8565b9160a085015192888882030160c089015283518082528382019184808360051b8301019601926000915b8c848410612a415750505050505060c0850151978784030160e08801528180895194858152019801936000915b848310612a10575050505050506001600160a01b0360e0820151169061010091828501520151151591015290565b855180516001600160a01b03168b52808501518b8601528101518a82015298810198948301946001909201916129e2565b9680612a7a8a89838a9e9b9c9a8798999a9b829f9860019903018a52516001600160a01b038151168452015191818582015201906128b8565b9a01930193019193929097969594976129b5565b9780999891888293856001969798999a9b030187528a80612ab98c5194855190808652850190612893565b938581015186850152015191015297019301930191939290969596612963565b610120810190811067ffffffffffffffff82111761180757604052565b6060810190811067ffffffffffffffff82111761180757604052565b6040810190811067ffffffffffffffff82111761180757604052565b90601f8019910116810190811067ffffffffffffffff82111761180757604052565b67ffffffffffffffff81116118075760051b60200190565b600435906001600160a01b038216820361013657565b9291612b8982612b50565b91612b976040519384612b2e565b829481845260208094019160051b810192831161013657905b828210612bbd5750505050565b81356001600160a01b0381168103610136578152908301908301612bb0565b67ffffffffffffffff811161180757601f01601f191660200190565b929192612c0482612bdc565b91612c126040519384612b2e565b829481845281830111610136578281602093846000960137010152565b9181601f840112156101365782359167ffffffffffffffff8311610136576020808501948460051b01011161013657565b6001600160a01b03609754163303612c7457565b606460405162461bcd60e51b815260206004820152602060248201527f4f776e61626c653a2063616c6c6572206973206e6f7420746865206f776e65726044820152fd5b609754906001600160a01b0380911691826001600160a01b0319821617609755167f8be0079c531659141344cd1fd0a4f28419497f9722a3daafe3b4186f6b6457e0600080a3565b15612d0757565b60405162461bcd60e51b815260206004820152602c60248201527f46756e6374696f6e206d7573742062652063616c6c6564207468726f7567682060448201527f64656c656761746563616c6c00000000000000000000000000000000000000006064820152608490fd5b15612d7957565b60405162461bcd60e51b815260206004820152602c60248201527f46756e6374696f6e206d7573742062652063616c6c6564207468726f7567682060448201527f6163746976652070726f787900000000000000000000000000000000000000006064820152608490fd5b803b15612e27576001600160a01b037f360894a13ba1a3210667c828492db98dca3e2076cc3735a920a3ca505d382bbc91166001600160a01b0319825416179055565b60405162461bcd60e51b815260206004820152602d60248201527f455243313936373a206e657720696d706c656d656e746174696f6e206973206e60448201527f6f74206120636f6e7472616374000000000000000000000000000000000000006064820152608490fd5b90919015612e9e575090565b815115612eae5750805190602001fd5b60405162461bcd60e51b815260206004820152908190612ed2906024830190612893565b0390fd5b15612edd57565b60405162461bcd60e51b815260206004820152602b60248201527f496e697469616c697a61626c653a20636f6e7472616374206973206e6f74206960448201527f6e697469616c697a696e670000000000000000000000000000000000000000006064820152608490fd5b60405190612f5582612ad9565b600061010083606080825283602083015283604083015280808301528060808301528060a083015260c08201528260e08201520152565b90600182811c92168015612fbc575b6020831014612fa657565b634e487b7160e01b600052602260045260246000fd5b91607f1691612f9b565b9060405191826000825492612fda84612f8c565b9081845260019485811690816000146130495750600114613006575b505061300492500383612b2e565b565b9093915060005260209081600020936000915b81831061303157505061300493508201013880612ff6565b85548884018501529485019487945091830191613019565b91505061300494506020925060ff191682840152151560051b8201013880612ff6565b90815461307881612b50565b9260409361308885519182612b2e565b828152809460208092019260005281600020906000935b8585106130ae57505050505050565b60028460019284516130bf81612b12565b6001600160a01b038754168152848701548382015281520193019401939161309f565b60405160fc548160006130f483612f8c565b92600190818116908115613171575060011461311b575b506020925060ff81520301902090565b60fc600090815291507f371f36870d18f32a11fea0f144b021c8b407bb50f8e0267c711123f454b963c05b84831061315b5750505060209181013861310b565b8054868401528593506020909201918101613146565b60ff1916845250602093801515028301915038905061310b565b90816020910312610136575180151581036101365790565b6000198114610c145760010190565b80518210156131c65760209160051b010190565b634e487b7160e01b600052603260045260246000fd5b91908110156131c65760051b81013590601e198136030182121561013657019081359167ffffffffffffffff8311610136576020018236038113610136579190565b91908110156131c65760051b0190565b9061300460216040518461324c829651809260208086019101612870565b8101600b60fa1b6020820152036001810185520183612b2e565b356001600160a01b03811681036101365790565b9061328482612b50565b60409061329382519182612b2e565b83815280936132a4601f1991612b50565b0191600090815b8481106132b9575050505050565b60209082516132c781612b12565b8481528285818301528287010152016132ab565b60239061300492949360405195826132fd889451809260208088019101612870565b8301601160f91b602082015261331d825180936020602185019101612870565b0161111d60f11b602182015261333c8251809360208785019101612870565b01036003810185520183612b2e565b91908110156131c65760051b81013590601e198136030182121561013657019081359167ffffffffffffffff8311610136576020018260051b36038113610136579190565b81811061339b575050565b60008155600101613390565b600160401b82116118075780548282558083106133c357505050565b6001600160ff1b038082168203610c145783168303610c1457600091825260208220600191821b810193821b015b8381106133fe5750505050565b8083600292558383820155016133f1565b60209081818403126101365780519067ffffffffffffffff821161013657019180601f8401121561013657825161344581612b50565b936134536040519586612b2e565b818552838086019260051b820101928311610136578301905b82821061347a575050505090565b81516001600160a01b038116810361013657815290830190830161346c565b9190604090815193818186378482810160fe8152602096879103019020546136ff576001600160a01b0392836101005416928151968794636085a91160e11b865285600460009a8b935afa9485156136f55788956136d1575b50845196919361351961350489612b50565b9861351186519a8b612b2e565b808a52612b50565b8883019190601f190136833789938a925b885184101561362f578b92918b918499855b8d8d80518310156135f8578a8e8d8f8561355688876131b2565b51168d5260fd8094528c20541015806135ef575b6135e2578316156135c957828f918f908e8d846135878a896131b2565b51169052528b205491168a528d8a2054106135ad575b50506135a8906131a3565b61353c565b826135a8939e506135bd916131b2565b51169b90508d8d61359d565b50826135a8939e506135da916131b2565b51169b6131a3565b505050506135a8906131a3565b508d151561356a565b50613626959a5088949891508b9061362093979d989498169384815260fd8b522054996131b2565b526131a3565b9290969161352a565b989750999593509050828294519384928337810160fe8152030190209285519467ffffffffffffffff86116136bd57600160401b86116136bd5784548686558087106136a3575b50938352818320925b85811061368f5750505050505090565b84518216848201559382019360010161367f565b8585528385206136b7918101908801613390565b38613676565b634e487b7160e01b84526041600452602484fd5b6136ee9195503d808a833e6136e68183612b2e565b81019061340f565b93386134f2565b83513d8a823e3d90fd5b93829394828294519384928337810160fe81520301902091518092839183825491828152019160005283600020936000905b82821061374a5750505061374792500382612b2e565b90565b85546001600160a01b031684526001958601958795509381019390910190613731565b9060046000926000806001600160a01b03928284610100541660405196878092636085a91160e11b82525afa948515613895578395613879575b508451600195869591861c8061386f57508594989796985b80995b6137d3575b50505050505050909150565b81518a101561386a578681815b61381a575b505085851015613803576137fb8798999a6131a3565b9998976137c2565b5050505050509150915081388080808080806137c7565b8551811015613865578461382e8d866131b2565b51168561383b83896131b2565b5116146138515761384b906131a3565b816137e0565b50509361385d906131a3565b9386386137e5565b6137e5565b6137c7565b94989796986137bf565b61388e9195503d8085833e6136e68183612b2e565b93386137a7565b6040513d85823e3d90fd5b806000917a184f03e93ff9f4daa797ed6e38ed64bf6a1f010000000000000000808210156139fa575b506d04ee2d6d415b85acef8100000000808310156139eb575b50662386f26fc10000808310156139dc575b506305f5e100808310156139cd575b50612710808310156139be575b5060648210156139ae575b600a809210156139a4575b6001908160218186019561393987612bdc565b966139476040519889612b2e565b808852613956601f1991612bdc565b01366020890137860101905b61396e575b5050505090565b600019019083906f181899199a1a9b1b9c1cb0b131b232b360811b8282061a83530491821561399f57919082613962565b613967565b9160010191613926565b919060646002910491019161391b565b60049193920491019138613910565b60089193920491019138613903565b601091939204910191386138f4565b602091939204910191386138e2565b6040935081049150386138c9565b600080821291908215613a8357613a4461374792602092604051613a2b81612b12565b60018152602d60f81b85820152955b613a7d57506138a0565b926040519381613a5d8693518092868087019101612870565b8201613a7182518093868085019101612870565b01038084520182612b2e565b036138a0565b6040516020810181811067ffffffffffffffff821117613ab4576040528181529261374792602092613a4492613a3a565b634e487b7160e01b83526041600452602483fd5b6001600160a01b031660405190613ade82612af6565b602a825260209081830160403682378351156131c6576030905382516001908110156131c657607860218501536029905b808211613b63575050613b20575090565b6064906040519062461bcd60e51b825280600483015260248201527f537472696e67733a20686578206c656e67746820696e73756666696369656e746044820152fd5b9091600f81166010811015613bc0578551841015613bc0576f181899199a1a9b1b9c1cb0b131b232b360811b901a84848701015360041c918015613bab576000190190613b0f565b60246000634e487b7160e01b81526011600452fd5b60246000634e487b7160e01b81526032600452fdfea26469706673582212205945444e82670f00acb96963e4c7faf884ea450d27550a4bc613b630b826575c64736f6c63430008110033",
  "linkReferences": {
    "src/lib/VerifySignature.sol": {
      "VerifySignature": [
        {
          "length": 20,
          "start": 5226
        }
      ]
    }
  },
  "deployedLinkReferences": {
    "src/lib/VerifySignature.sol": {
      "VerifySignature": [
        {
          "length": 20,
          "start": 5171
        }
      ]
    }
  }
}