{
  "_format": "hh-sol-artifact-1",
  "contractName": "LogStoreReportManager",
  "sourceName": "src/ReportManager.sol",
  "abi": [
    {
      "anonymous": false,
      "inputs": [
        {
          "indexed": false,
          "internalType": "address",
          "name": "previousAdmin",
          "type": "address"
        },
        {
          "indexed": false,
          "internalType": "address",
          "name": "newAdmin",
          "type": "address"
        }
      ],
      "name": "AdminChanged",
      "type": "event"
    },
    {
      "anonymous": false,
      "inputs": [
        {
          "indexed": true,
          "internalType": "address",
          "name": "beacon",
          "type": "address"
        }
      ],
      "name": "BeaconUpgraded",
      "type": "event"
    },
    {
      "anonymous": false,
      "inputs": [
        {
          "indexed": false,
          "internalType": "uint8",
          "name": "version",
          "type": "uint8"
        }
      ],
      "name": "Initialized",
      "type": "event"
    },
    {
      "anonymous": false,
      "inputs": [
        {
          "indexed": false,
          "internalType": "bool",
          "name": "isMet",
          "type": "bool"
        }
      ],
      "name": "Logger",
      "type": "event"
    },
    {
      "anonymous": false,
      "inputs": [
        {
          "indexed": true,
          "internalType": "address",
          "name": "previousOwner",
          "type": "address"
        },
        {
          "indexed": true,
          "internalType": "address",
          "name": "newOwner",
          "type": "address"
        }
      ],
      "name": "OwnershipTransferred",
      "type": "event"
    },
    {
      "anonymous": false,
      "inputs": [
        {
          "indexed": false,
          "internalType": "string",
          "name": "id",
          "type": "string"
        }
      ],
      "name": "ReportAccepted",
      "type": "event"
    },
    {
      "anonymous": false,
      "inputs": [
        {
          "indexed": true,
          "internalType": "address",
          "name": "implementation",
          "type": "address"
        }
      ],
      "name": "Upgraded",
      "type": "event"
    },
    {
      "inputs": [],
      "name": "MATH_PRECISION",
      "outputs": [
        {
          "internalType": "uint256",
          "name": "",
          "type": "uint256"
        }
      ],
      "stateMutability": "view",
      "type": "function"
    },
    {
      "inputs": [
        {
          "internalType": "uint256[]",
          "name": "timestamps",
          "type": "uint256[]"
        }
      ],
      "name": "aggregateTimestamps",
      "outputs": [
        {
          "internalType": "uint256",
          "name": "",
          "type": "uint256"
        }
      ],
      "stateMutability": "pure",
      "type": "function"
    },
    {
      "inputs": [],
      "name": "getLastReport",
      "outputs": [
        {
          "components": [
            {
              "internalType": "string",
              "name": "id",
              "type": "string"
            },
            {
              "internalType": "uint256",
              "name": "height",
              "type": "uint256"
            },
            {
              "internalType": "int256",
              "name": "treasury",
              "type": "int256"
            },
            {
              "components": [
                {
                  "internalType": "string",
                  "name": "id",
                  "type": "string"
                },
                {
                  "internalType": "uint256",
                  "name": "writeCapture",
                  "type": "uint256"
                },
                {
                  "internalType": "uint256",
                  "name": "writeBytes",
                  "type": "uint256"
                }
              ],
              "internalType": "struct LogStoreReportManager.Stream[]",
              "name": "streams",
              "type": "tuple[]"
            },
            {
              "components": [
                {
                  "internalType": "address",
                  "name": "id",
                  "type": "address"
                },
                {
                  "internalType": "int256",
                  "name": "amount",
                  "type": "int256"
                }
              ],
              "internalType": "struct LogStoreReportManager.Node[]",
              "name": "nodes",
              "type": "tuple[]"
            },
            {
              "components": [
                {
                  "internalType": "address",
                  "name": "id",
                  "type": "address"
                },
                {
                  "components": [
                    {
                      "internalType": "address",
                      "name": "id",
                      "type": "address"
                    },
                    {
                      "internalType": "int256",
                      "name": "amount",
                      "type": "int256"
                    }
                  ],
                  "internalType": "struct LogStoreReportManager.Node[]",
                  "name": "nodes",
                  "type": "tuple[]"
                }
              ],
              "internalType": "struct LogStoreReportManager.Delegate[]",
              "name": "delegates",
              "type": "tuple[]"
            },
            {
              "components": [
                {
                  "internalType": "address",
                  "name": "id",
                  "type": "address"
                },
                {
                  "internalType": "uint256",
                  "name": "readCapture",
                  "type": "uint256"
                },
                {
                  "internalType": "uint256",
                  "name": "readBytes",
                  "type": "uint256"
                }
              ],
              "internalType": "struct LogStoreReportManager.Consumer[]",
              "name": "consumers",
              "type": "tuple[]"
            },
            {
              "internalType": "address",
              "name": "_reporter",
              "type": "address"
            },
            {
              "internalType": "bool",
              "name": "_processed",
              "type": "bool"
            }
          ],
          "internalType": "struct LogStoreReportManager.Report",
          "name": "",
          "type": "tuple"
        }
      ],
      "stateMutability": "view",
      "type": "function"
    },
    {
      "inputs": [
        {
          "internalType": "string",
          "name": "id",
          "type": "string"
        }
      ],
      "name": "getReport",
      "outputs": [
        {
          "components": [
            {
              "internalType": "string",
              "name": "id",
              "type": "string"
            },
            {
              "internalType": "uint256",
              "name": "height",
              "type": "uint256"
            },
            {
              "internalType": "int256",
              "name": "treasury",
              "type": "int256"
            },
            {
              "components": [
                {
                  "internalType": "string",
                  "name": "id",
                  "type": "string"
                },
                {
                  "internalType": "uint256",
                  "name": "writeCapture",
                  "type": "uint256"
                },
                {
                  "internalType": "uint256",
                  "name": "writeBytes",
                  "type": "uint256"
                }
              ],
              "internalType": "struct LogStoreReportManager.Stream[]",
              "name": "streams",
              "type": "tuple[]"
            },
            {
              "components": [
                {
                  "internalType": "address",
                  "name": "id",
                  "type": "address"
                },
                {
                  "internalType": "int256",
                  "name": "amount",
                  "type": "int256"
                }
              ],
              "internalType": "struct LogStoreReportManager.Node[]",
              "name": "nodes",
              "type": "tuple[]"
            },
            {
              "components": [
                {
                  "internalType": "address",
                  "name": "id",
                  "type": "address"
                },
                {
                  "components": [
                    {
                      "internalType": "address",
                      "name": "id",
                      "type": "address"
                    },
                    {
                      "internalType": "int256",
                      "name": "amount",
                      "type": "int256"
                    }
                  ],
                  "internalType": "struct LogStoreReportManager.Node[]",
                  "name": "nodes",
                  "type": "tuple[]"
                }
              ],
              "internalType": "struct LogStoreReportManager.Delegate[]",
              "name": "delegates",
              "type": "tuple[]"
            },
            {
              "components": [
                {
                  "internalType": "address",
                  "name": "id",
                  "type": "address"
                },
                {
                  "internalType": "uint256",
                  "name": "readCapture",
                  "type": "uint256"
                },
                {
                  "internalType": "uint256",
                  "name": "readBytes",
                  "type": "uint256"
                }
              ],
              "internalType": "struct LogStoreReportManager.Consumer[]",
              "name": "consumers",
              "type": "tuple[]"
            },
            {
              "internalType": "address",
              "name": "_reporter",
              "type": "address"
            },
            {
              "internalType": "bool",
              "name": "_processed",
              "type": "bool"
            }
          ],
          "internalType": "struct LogStoreReportManager.Report",
          "name": "",
          "type": "tuple"
        }
      ],
      "stateMutability": "view",
      "type": "function"
    },
    {
      "inputs": [],
      "name": "getReporters",
      "outputs": [
        {
          "internalType": "address[]",
          "name": "reporters",
          "type": "address[]"
        }
      ],
      "stateMutability": "view",
      "type": "function"
    },
    {
      "inputs": [
        {
          "internalType": "address",
          "name": "_owner",
          "type": "address"
        },
        {
          "internalType": "uint256",
          "name": "_reportTimeBuffer",
          "type": "uint256"
        }
      ],
      "name": "initialize",
      "outputs": [],
      "stateMutability": "nonpayable",
      "type": "function"
    },
    {
      "inputs": [],
      "name": "owner",
      "outputs": [
        {
          "internalType": "address",
          "name": "",
          "type": "address"
        }
      ],
      "stateMutability": "view",
      "type": "function"
    },
    {
      "inputs": [
        {
          "internalType": "string",
          "name": "id",
          "type": "string"
        }
      ],
      "name": "processReport",
      "outputs": [],
      "stateMutability": "nonpayable",
      "type": "function"
    },
    {
      "inputs": [],
      "name": "proxiableUUID",
      "outputs": [
        {
          "internalType": "bytes32",
          "name": "",
          "type": "bytes32"
        }
      ],
      "stateMutability": "view",
      "type": "function"
    },
    {
      "inputs": [
        {
          "internalType": "address[]",
          "name": "submittedNodes",
          "type": "address[]"
        }
      ],
      "name": "quorumIsMet",
      "outputs": [
        {
          "internalType": "bool",
          "name": "isMet",
          "type": "bool"
        }
      ],
      "stateMutability": "view",
      "type": "function"
    },
    {
      "inputs": [],
      "name": "renounceOwnership",
      "outputs": [],
      "stateMutability": "nonpayable",
      "type": "function"
    },
    {
      "inputs": [
        {
          "internalType": "string",
          "name": "id",
          "type": "string"
        },
        {
          "internalType": "uint256",
          "name": "blockHeight",
          "type": "uint256"
        },
        {
          "internalType": "string[]",
          "name": "streams",
          "type": "string[]"
        },
        {
          "internalType": "uint256[]",
          "name": "writeCaptureAmounts",
          "type": "uint256[]"
        },
        {
          "internalType": "uint256[]",
          "name": "writeBytes",
          "type": "uint256[]"
        },
        {
          "internalType": "address[]",
          "name": "readConsumerAddresses",
          "type": "address[]"
        },
        {
          "internalType": "uint256[]",
          "name": "readCaptureAmounts",
          "type": "uint256[]"
        },
        {
          "internalType": "uint256[]",
          "name": "readBytes",
          "type": "uint256[]"
        },
        {
          "internalType": "address[]",
          "name": "nodes",
          "type": "address[]"
        },
        {
          "internalType": "int256[]",
          "name": "nodeChanges",
          "type": "int256[]"
        },
        {
          "internalType": "address[]",
          "name": "delegates",
          "type": "address[]"
        },
        {
          "internalType": "address[][]",
          "name": "delegateNodes",
          "type": "address[][]"
        },
        {
          "internalType": "int256[][]",
          "name": "delegateNodeChanges",
          "type": "int256[][]"
        },
        {
          "internalType": "int256",
          "name": "treasurySupplyChange",
          "type": "int256"
        },
        {
          "internalType": "address[]",
          "name": "addresses",
          "type": "address[]"
        },
        {
          "internalType": "uint256[]",
          "name": "proofTimestamps",
          "type": "uint256[]"
        },
        {
          "internalType": "bytes[]",
          "name": "signatures",
          "type": "bytes[]"
        }
      ],
      "name": "report",
      "outputs": [],
      "stateMutability": "nonpayable",
      "type": "function"
    },
    {
      "inputs": [],
      "name": "reportTimeBuffer",
      "outputs": [
        {
          "internalType": "uint256",
          "name": "",
          "type": "uint256"
        }
      ],
      "stateMutability": "view",
      "type": "function"
    },
    {
      "inputs": [
        {
          "internalType": "address",
          "name": "",
          "type": "address"
        }
      ],
      "name": "reputationOf",
      "outputs": [
        {
          "internalType": "uint256",
          "name": "",
          "type": "uint256"
        }
      ],
      "stateMutability": "view",
      "type": "function"
    },
    {
      "inputs": [
        {
          "internalType": "address",
          "name": "newOwner",
          "type": "address"
        }
      ],
      "name": "transferOwnership",
      "outputs": [],
      "stateMutability": "nonpayable",
      "type": "function"
    },
    {
      "inputs": [
        {
          "internalType": "address",
          "name": "newImplementation",
          "type": "address"
        }
      ],
      "name": "upgradeTo",
      "outputs": [],
      "stateMutability": "nonpayable",
      "type": "function"
    },
    {
      "inputs": [
        {
          "internalType": "address",
          "name": "newImplementation",
          "type": "address"
        },
        {
          "internalType": "bytes",
          "name": "data",
          "type": "bytes"
        }
      ],
      "name": "upgradeToAndCall",
      "outputs": [],
      "stateMutability": "payable",
      "type": "function"
    }
  ],
  "bytecode": "0x60a080604052346100315730608052613b4c908161003782396080518181816107220152818161082f0152610b460152f35b600080fdfe610500604052600436101561001357600080fd5b60003560e01c80630e0a1713146128a557806312e63d71146126735780631bfdc98a14610e6057806325cbbdff14610e0a57806331c74e0114610dec5780633659cfe614610b215780634f1ef286146107dd57806352d1902d1461070757806370f46202146106a2578063715018a6146106475780638da5cb5b14610620578063cd6dc6871461047b578063d91b99e81461045b578063db89c04414610421578063eefa7a3e14610218578063f2fde38b146101725763f6883c05146100d857600080fd5b3461016d57602036600319011261016d5760043567ffffffffffffffff811161016d57602061010d60079236906004016129d1565b9190610117612d60565b826040519384928337810160fe81520301902001740100000000000000000000000000000000000000007fffffffffffffffffffffff00ffffffffffffffffffffffffffffffffffffffff825416179055600080f35b600080fd5b3461016d57602036600319011261016d5761018b612c99565b610193612d60565b6001600160a01b038116156101ad576101ab90612db8565b005b60405162461bcd60e51b815260206004820152602660248201527f4f776e61626c653a206e6577206f776e657220697320746865207a65726f206160448201527f64647265737300000000000000000000000000000000000000000000000000006064820152608490fd5b3461016d57600036600319011261016d57610231613048565b5061023a6131e2565b604051610246816128f4565b61024f826130c6565b815260018083015490602091828401526002918285015460408501526003808601805461027b8161296b565b916102896040519384612949565b81835260009081528481208685878087015b8686106103e7575050505050505060608601526102ba6004870161316c565b60808601526005860180546102ce8161296b565b916102dc6040519384612949565b81835260009081528481208688878087015b8686106103ad575050505050505060a0860152600686018054926103118461296b565b9561031f6040519788612949565b8487526000928352818320908288015b8685106103715760c08a0189905260078b01546001600160a01b03811660e08c015260a01c60ff1615156101008b01526040518061036d8c82612a8f565b0390f35b8584899260405161038181612911565b6001600160a01b038754168152848701548382015285870154604082015281520193019401939161032f565b6040516103b98161292d565b6001600160a01b0386541681526103d185870161316c565b83820152815201920192019190888789926102ee565b6040516103f381612911565b6103fc866130c6565b815284860154838201528c86015460408201528152019201920191908587899261029b565b3461016d57602036600319011261016d576001600160a01b03610442612c99565b1660005260fc6020526020604060002054604051908152f35b3461016d57600036600319011261016d5760206040516402540be4008152f35b3461016d57604036600319011261016d57610494612c99565b6000549060ff808360081c161592838094610614575b80156105fe575b156105935760ff19811660011760005583610581575b506104e18160005460081c166104dc81612fd6565b612fd6565b6104ea33612db8565b6105078160005460081c166104fe81612fd6565b6104dc81612fd6565b600160c9556001600160a01b03821690816001600160a01b031982541617905560243560fb55610535612d60565b156101ad5761054390612db8565b61054957005b61ff0019600054166000557f7f26b83ff96e1f2b6a682f133852f6798a09c465da95921460cefb3847402498602060405160018152a1005b61ffff191661010117600055836104c7565b60405162461bcd60e51b815260206004820152602e60248201527f496e697469616c697a61626c653a20636f6e747261637420697320616c72656160448201527f647920696e697469616c697a65640000000000000000000000000000000000006064820152608490fd5b50303b1580156104b157506001828216146104b1565b506001828216106104aa565b3461016d57600036600319011261016d5760206001600160a01b0360975416604051908152f35b3461016d57600036600319011261016d57610660612d60565b60006001600160a01b036097546001600160a01b03198116609755167f8be0079c531659141344cd1fd0a4f28419497f9722a3daafe3b4186f6b6457e08280a3005b3461016d57600036600319011261016d576106bb613368565b604051809160208083018184528251809152816040850193019160005b8281106106e757505050500390f35b83516001600160a01b0316855286955093810193928101926001016106d8565b3461016d57600036600319011261016d576001600160a01b037f00000000000000000000000000000000000000000000000000000000000000001630036107725760206040517f360894a13ba1a3210667c828492db98dca3e2076cc3735a920a3ca505d382bbc8152f35b60405162461bcd60e51b815260206004820152603860248201527f555550535570677261646561626c653a206d757374206e6f742062652063616c60448201527f6c6564207468726f7567682064656c656761746563616c6c00000000000000006064820152608490fd5b604036600319011261016d576107f1612c99565b60243567ffffffffffffffff811161016d573660238201121561016d57610822903690602481600401359101612d29565b906001600160a01b0391827f0000000000000000000000000000000000000000000000000000000000000000169261085c84301415612e00565b61088b7f360894a13ba1a3210667c828492db98dca3e2076cc3735a920a3ca505d382bbc948286541614612e72565b610893612d60565b7f4910fdfa16fed3260ed0e7147f7cc6da11a60208b5b9406d12a635614ffd91435460ff16156108c95750506101ab9150612ee4565b82919216604051936352d1902d60e01b85526020948581600481865afa60009181610af2575b506109505760405162461bcd60e51b815260048101879052602e60248201527f45524331393637557067726164653a206e657720696d706c656d656e7461746960448201526d6f6e206973206e6f74205555505360901b6064820152608490fd5b03610a9b5761095e82612ee4565b604051907fbc7cd75a20ee27fd9adebab32041f755214dbc6bffa90cc0225b39da2e5c2d3b600080a2825115801590610a93575b61099857005b813b15610a4257506000828192856101ab9695519201905af43d15610a3a573d906109c282612d0d565b916109d06040519384612949565b82523d60008484013e5b7f416464726573733a206c6f772d6c6576656c2064656c65676174652063616c6c60405193610a0885612911565b602785528401527f206661696c6564000000000000000000000000000000000000000000000000006040840152612f92565b6060906109da565b62461bcd60e51b815260048101849052602660248201527f416464726573733a2064656c65676174652063616c6c20746f206e6f6e2d636f6044820152651b9d1c9858dd60d21b6064820152608490fd5b506001610992565b60405162461bcd60e51b815260048101859052602960248201527f45524331393637557067726164653a20756e737570706f727465642070726f786044820152681a58589b195555525160ba1b6064820152608490fd5b9091508681813d8311610b1a575b610b0a8183612949565b8101031261016d575190876108ef565b503d610b00565b3461016d5760208060031936011261016d57610b3b612c99565b6001600160a01b03807f000000000000000000000000000000000000000000000000000000000000000016610b7281301415612e00565b610ba17f360894a13ba1a3210667c828492db98dca3e2076cc3735a920a3ca505d382bbc918383541614612e72565b610ba9612d60565b604051908482019282841067ffffffffffffffff851117610dd657836040526000835260ff7f4910fdfa16fed3260ed0e7147f7cc6da11a60208b5b9406d12a635614ffd91435416600014610c0657505050506101ab9150612ee4565b8416906040516352d1902d60e01b81528681600481865afa60009181610da7575b50610c885760405162461bcd60e51b815260048101889052602e60248201527f45524331393637557067726164653a206e657720696d706c656d656e7461746960448201526d6f6e206973206e6f74205555505360901b6064820152608490fd5b03610d5057610c9684612ee4565b604051907fbc7cd75a20ee27fd9adebab32041f755214dbc6bffa90cc0225b39da2e5c2d3b600080a2815115801590610d48575b610cd057005b833b15610cf757506101ab9392600092839251915af43d15610a3a573d906109c282612d0d565b62461bcd60e51b815260048101859052602660248201527f416464726573733a2064656c65676174652063616c6c20746f206e6f6e2d636f6044820152651b9d1c9858dd60d21b6064820152608490fd5b506000610cca565b60405162461bcd60e51b815260048101869052602960248201527f45524331393637557067726164653a20756e737570706f727465642070726f786044820152681a58589b195555525160ba1b6064820152608490fd5b9091508781813d8311610dcf575b610dbf8183612949565b8101031261016d57519088610c27565b503d610db5565b634e487b7160e01b600052604160045260246000fd5b3461016d57600036600319011261016d57602060fb54604051908152f35b3461016d57602036600319011261016d5760043567ffffffffffffffff811161016d573660238201121561016d57610e56610e516020923690602481600401359101612caf565b6136da565b6040519015158152f35b3461016d5761022036600319011261016d5760043567ffffffffffffffff811161016d57610e929036906004016129d1565b610440526102605260443567ffffffffffffffff811161016d57610eba903690600401612c68565b6101e05260643567ffffffffffffffff811161016d57610ede903690600401612c68565b6102e0526101a05260843567ffffffffffffffff811161016d57610f06903690600401612c68565b6103e0526102205267ffffffffffffffff60a4351161016d57610f2e3660a435600401612c68565b610200529067ffffffffffffffff60c4351161016d57610f533660c435600401612c68565b929067ffffffffffffffff60e4351161016d57610f753660e435600401612c68565b60c0529167ffffffffffffffff610104351161016d57610f9b3661010435600401612c68565b610460526101405267ffffffffffffffff610124351161016d57610fc53661012435600401612c68565b92906102405267ffffffffffffffff610144351161016d57610fed3661014435600401612c68565b610160526103805267ffffffffffffffff610164351161016d576110173661016435600401612c68565b6102c0526104805267ffffffffffffffff610184351161016d576110413661018435600401612c68565b6103205260a05267ffffffffffffffff6101c4351161016d5761106a366101c435600401612c68565b60e0526103405267ffffffffffffffff6101e4351161016d57611093366101e435600401612c68565b6104e0526103005267ffffffffffffffff610204351161016d576110bd3661020435600401612c68565b6080526103a052602460206001600160a01b0360ff541660405192838092630c2effa360e31b82523360048301525afa90811561247c57600091612654575b501561260f5760ff60076040516104405161026051823760208161044051810160fe815203019020015460a01c166125ca57436024351115806125b4575b1561256f5760e05180600381020460031481151715611d1c5761116d90611168608051916104e05190613331565b613331565b600360e051020361252a5761118b610e513660e05161034051612caf565b156124e55760606102a0526111b76111a56101e05161296b565b8061040052604051806103c052612949565b6101e0516103c05152601f196111cf6101e05161296b565b0160006104c0525b806104c051101561121f576040516111ee81612911565b6102a0518152600060208201526000604082015260206104c0516103c05101015260206104c051016104c0526111d7565b506000610100525b6101e051610100519080821015611369576112486040926112ce9289613504565b9290611267611261610100516102e0516101a051613546565b356138b8565b602061127d610100516103e05161022051613546565b35916112b98551978895816102a05161129e8151809289808d0191016129ff565b880191868301370191838301600081528151948592016129ff565b01906020820152036020810184520182612949565b6102a0526112e3610100516101e05187613504565b906112f8610100516102e0516101a051613546565b35611326611310610100516103e05161022051613546565b35926040519461131f86612911565b3691612d29565b835260208301526040820152611342610100516103c05161333e565b52611353610100516103c05161333e565b5061136061010051613315565b61010052611227565b5050838661138e61137c6102005161296b565b80610360526040518061018052612949565b610200516101805152601f196113a66102005161296b565b0160005b8181106124b657505060005b6102005190818110156114d4576113d96113d4826114cf9489613546565b613556565b61145c60546113ec61126185888b613546565b6113f98560c0518a613546565b35936040519485916102a05161141881518092602080880191016129ff565b8301906bffffffffffffffffffffffff199060601b16602082015283519061144982603496602088850191016129ff565b0190838201520390810184520182612949565b6102a0526114716113d4826102005189613546565b61147c828588613546565b3561148a8360c05188613546565b35906001600160a01b03604051936114a185612911565b168352602083015260408201526114bb826101805161333e565b526114c9816101805161333e565b50613315565b6113b6565b866114e16104605161356a565b6101c05260005b6104605190818110156115ac576115096113d4826115a79461014051613546565b61154861152361151d848761024051613546565b35613a53565b9161153a6040519384926102a051602085016135cb565b03601f198101835282612949565b6102a0526115606113d4826104605161014051613546565b61156e828561024051613546565b356001600160a01b03604051926115848461292d565b1682526020820152611599826101c05161333e565b526114c9816101c05161333e565b6114e8565b6115cd6115bb6101605161296b565b80610420526040518061028052612949565b610160516102805152601f196115e56101605161296b565b0160005b81811061248e5760006104a0525b610160516104a051908110156117fc5761162461161d6060926102c05161048051613611565b905061356a565b610120526000905b6116406104a0516102c05161048051613611565b90508210156117105761170a9061169e6116716113d48561166b6104a0516102c05161048051613611565b90613546565b9161153a61168f61151d8761166b6104a0516103205160a051613611565b604051948593602085016135cb565b916116ba6113d48261166b6104a0516102c05161048051613611565b6116d18261166b6104a0516103205160a051613611565b356001600160a01b03604051926116e78461292d565b16825260208201526116fc826101205161333e565b526114c9816101205161333e565b9061162c565b905061178961172c6113d46104a0516101605161038051613546565b9160405180936102a05161174981518092602080870191016129ff565b8201906bffffffffffffffffffffffff199060601b16602082015282519061177a82603495602087850191016129ff565b01036014810184520182612949565b6102a0526117a46113d46104a0516101605161038051613546565b6001600160a01b03604051916117b98361292d565b1681526101205160208201526117d56104a0516102805161333e565b526117e66104a0516102805161333e565b506117f36104a051613315565b6104a0526115f7565b600160005b60e051811015612488576118176101a435613a53565b611828826104e05161030051613546565b356118936060604051809360208201956104405161026051883761044051830160243560208201526102a051906118698251809360206040850191016129ff565b0161187e8251809360206040850191016129ff565b01906040820152036040810184520182612949565b51902060206001600160a01b0360846118b56113d48660e05161034051613546565b6118c5866080516103a051613504565b809160405197889687956301a86b5560e41b8752166004860152602485015260606044850152816064850152848401376000828201840152601f01601f1916810103018173__$267c3dc7aa7d3fe2e28bda43a2ca27cd27$__5af4801561247c5760019160009161244d575b501515036119475761194290613315565b611801565b505060005b1561240857611959613368565b61197261196d366104e05161030051612983565b613848565b60005b825181101561240157336001600160a01b03611991838661333e565b5116146119a6576119a190613315565b611975565b906103e890814202914283041442151715611d1c576509184e72a0004202926402540be40092808504841490151715611d1c5760fb5490818102918183041490151715611d1c57828102928184041490151715611d1c57611a0691613331565b10156123bc575b60405190611a1a826128f4565b611a886020611a30366104405161026051612d29565b808552602435828601526101a43560408601526103c05160608601526101c05160808601526102805160a08601526101805160c08601523360e0860152600061010086015281604051938285809451938492016129ff565b810160fe81520301902091805192835167ffffffffffffffff8111610dd657611ab1825461308c565b601f811161238a575b506020601f8211600114612321578192939495600092612316575b50508160011b916000199060031b1c19161781555b60208201516001820155604082015160028201556060820151805190680100000000000000008211610dd657600383015482600385015580831061226b575b50602001906003830160005260206000206000925b8284106121365750505050600481016080830151906020825192611b62848461366d565b019060005260206000206000915b838310612100575050505060a0820151805190680100000000000000008211610dd6576005830154826005850155808310612058575b506020016005830160005260206000206000915b838310611fc0575050505060c0820151805190680100000000000000008211610dd6576006830154826006850155808310611f67575b506020016006830160005260206000206000915b838310611f27578686600787016001600160a01b0360e0830151168154907fffffffffffffffffffffff00000000000000000000000000000000000000000074ff0000000000000000000000000000000000000000610100860151151560a01b16921617179055805191825167ffffffffffffffff8111610dd657611c8a60fd5461308c565b601f8111611ecd575b506020601f8211600114611e495781929394600092611e3e575b50508160011b916000199060031b1c19161760fd555b6000805b8251821015611dff576001600160a01b03611ce2838561333e565b51163314600014611d3257503360005260fc6020526040600020805490600a8201809211611d1c5755611d16600191613315565b90611cc7565b634e487b7160e01b600052601160045260246000fd5b9081611dc657806001600160a01b03611d4e611d16938661333e565b511660005260fc8060205260056040600020541015600014611d9f576005905b6001600160a01b03611d80848861333e565b5116600052602052611d986040600020918254613324565b9055613315565b6001600160a01b03611db1838761333e565b51166000528060205260406000205490611d6e565b6001600160a01b03611dd8828561333e565b511660005260fc602052604060002090815460018101809111611d1c57611d169255613315565b7fc53a4e1db72f8c6fde77b85b4cc21a59f9896e9d7285f890075356dbd528d1cd611e398551604051918291602083526020830190612a22565b0390a1005b015190508480611cad565b601f1982169060fd6000527f9346ac6dd7de6b96975fec380d4d994c4c12e6a8897544f22915316cc6cca2809160005b818110611eb557509583600195969710611e9c575b505050811b0160fd55611cc3565b015160001960f88460031b161c19169055848080611e8e565b9192602060018192868b015181550194019201611e79565b611f179060fd6000527f9346ac6dd7de6b96975fec380d4d994c4c12e6a8897544f22915316cc6cca280601f840160051c81019160208510611f1d575b601f0160051c0190613656565b84611c93565b9091508190611f0a565b60036020826040600194516001600160a01b038151166001600160a01b031988541617875583810151868801550151600286015501920192019190611c04565b6003818102048103611d1c576003838102048303611d1c576006840160005260206000208360030281015b8260030282018110611fa5575050611bf0565b80600060039255600060018201556000600282015501611f92565b80516001600160a01b038151166001600160a01b0319845416178355602060018401910151906020825192611ff5848461366d565b01906000526020600020906000905b83821061202257505050506002602060019201920192019190611bba565b600260208281600194516001600160a01b038151166001600160a01b031989541617885501518487015501930191019091612004565b6001600160ff1b0381168103611d1c576001600160ff1b0383168303611d1c576005840160005260206000208360011b81015b8260011b8201811061209e575050611ba6565b60008155600181015460006001830155806120bd575b5060020161208b565b6001600160ff1b0381168103611d1c576001820160005260206000209060011b8101905b8181106120ee57506120b4565b600080825560018201556002016120e1565b600260208281600194516001600160a01b038151166001600160a01b031988541617875501518486015501920192019190611b70565b8051805180519067ffffffffffffffff8211610dd657612156855461308c565b601f811161222e575b50602090601f83116001146121bc5760039383602094600197946040946000926121b1575b505060001982881b1c191690871b1787555b83810151868801550151600286015501920193019290611b3e565b015190508e80612184565b908560005260206000209160005b601f1985168110612216575093600184819794604094600398602098601f198116106121fe575b505050811b018755612196565b0151600019838a1b60f8161c191690558e80806121f1565b919260206001819286850151815501940192016121ca565b61225b908660005260206000206005601f8601811c82019260208710612261575b601f01901c0190613656565b8a61215f565b919250829161224f565b6003818102048103611d1c576003838102048303611d1c576003840160005260206000208360030281015b82600302820181106122a9575050611b29565b806122b66003925461308c565b806122d1575b50600060018201556000600282015501612296565b601f81116001146122e85750600081555b896122bc565b61230790826000526001601f6020600020920160051c82019101613656565b600060208120818355556122e2565b015190508580611ad5565b8260005260206000209060005b601f1984168110612372575060019394959683601f19811610612359575b505050811b018155611aea565b015160001960f88460031b161c1916905585808061234c565b9091602060018192858b01518155019301910161232e565b6123b690836000526020600020601f840160051c81019160208510611f1d57601f0160051c0190613656565b85611aba565b60405162461bcd60e51b815260206004820152601560248201527f6572726f725f696e76616c69645265706f7274657200000000000000000000006044820152606490fd5b5050611a0d565b60405162461bcd60e51b815260206004820152601d60248201527f6572726f725f696e76616c69645265706f72745369676e6174757265730000006044820152606490fd5b61246f915060203d602011612475575b6124678183612949565b8101906134ec565b84611931565b503d61245d565b6040513d6000823e3d90fd5b5061194c565b60209060405161249d8161292d565b60008152606083820152828261028051010152016115e9565b6020906040516124c581612911565b6000815260008382015260006040820152828261018051010152016113aa565b60405162461bcd60e51b815260206004820152601260248201527f6572726f725f71756f72756d4e6f744d657400000000000000000000000000006044820152606490fd5b60405162461bcd60e51b815260206004820152601360248201527f6572726f725f696e76616c696450726f6f6673000000000000000000000000006044820152606490fd5b60405162461bcd60e51b815260206004820152601360248201527f6572726f725f696e76616c69645265706f7274000000000000000000000000006044820152606490fd5b5060016125bf6131e2565b01546024351161113a565b60405162461bcd60e51b815260206004820152601c60248201527f6572726f725f7265706f7274416c726561647950726f636573736564000000006044820152606490fd5b60405162461bcd60e51b815260206004820152601360248201527f6572726f725f7374616b655265717569726564000000000000000000000000006044820152606490fd5b61266d915060203d602011612475576124678183612949565b876110fc565b3461016d5760208060031936011261016d5760043567ffffffffffffffff811161016d576126a6829136906004016129d1565b91906126b0613048565b50826040519384928337810160fe81520301902090604051906126d2826128f4565b6126db836130c6565b825260018084015482840152600291828501546040850152600380860180546127038161296b565b916127116040519384612949565b81835260009081528481208685878087015b86861061286b575050505050505060608601526127426004870161316c565b60808601526005860180546127568161296b565b916127646040519384612949565b81835260009081528481208688878087015b868610612831575050505050505060a0860152600686018054926127998461296b565b956127a76040519788612949565b8487526000928352818320908288015b8685106127f55760c08a0189905260078b01546001600160a01b03811660e08c015260a01c60ff1615156101008b01526040518061036d8c82612a8f565b8584899260405161280581612911565b6001600160a01b03875416815284870154838201528587015460408201528152019301940193916127b7565b60405161283d8161292d565b6001600160a01b03865416815261285585870161316c565b8382015281520192019201919088878992612776565b60405161287781612911565b612880866130c6565b815284860154838201528c860154604082015281520192019201919085878992612723565b3461016d57602036600319011261016d5760043567ffffffffffffffff811161016d573660238201121561016d576128ec61196d6020923690602481600401359101612983565b604051908152f35b610120810190811067ffffffffffffffff821117610dd657604052565b6060810190811067ffffffffffffffff821117610dd657604052565b6040810190811067ffffffffffffffff821117610dd657604052565b90601f8019910116810190811067ffffffffffffffff821117610dd657604052565b67ffffffffffffffff8111610dd65760051b60200190565b929161298e8261296b565b9161299c6040519384612949565b829481845260208094019160051b810192831161016d57905b8282106129c25750505050565b813581529083019083016129b5565b9181601f8401121561016d5782359167ffffffffffffffff831161016d576020838186019501011161016d57565b60005b838110612a125750506000910152565b8181015183820152602001612a02565b90602091612a3b815180928185528580860191016129ff565b601f01601f1916010190565b90815180825260208080930193019160005b828110612a67575050505090565b835180516001600160a01b031686528201518583015260409094019392810192600101612a59565b602091828252805190612aaf610120928386860152610140850190612a22565b93808201516040908186015280830151916060928387015282840151601f19978888820301608089015281518082528382019184808360051b8301019401926000915b888d858510612c1d5750505050505050612b1a906080860151898983030160a08a0152612a47565b9160a085015192888882030160c089015283518082528382019184808360051b8301019601926000915b8c848410612bd05750505050505060c0850151978784030160e08801528180895194858152019801936000915b848310612b9f575050505050506001600160a01b0360e0820151169061010091828501520151151591015290565b855180516001600160a01b03168b52808501518b8601528101518a8201529881019894830194600190920191612b71565b9680612c098a89838a9e9b9c9a8798999a9b829f9860019903018a52516001600160a01b03815116845201519181858201520190612a47565b9a0193019301919392909796959497612b44565b9780999891888293856001969798999a9b030187528a80612c488c5194855190808652850190612a22565b938581015186850152015191015297019301930191939290969596612af2565b9181601f8401121561016d5782359167ffffffffffffffff831161016d576020808501948460051b01011161016d57565b600435906001600160a01b038216820361016d57565b9291612cba8261296b565b91612cc86040519384612949565b829481845260208094019160051b810192831161016d57905b828210612cee5750505050565b81356001600160a01b038116810361016d578152908301908301612ce1565b67ffffffffffffffff8111610dd657601f01601f191660200190565b929192612d3582612d0d565b91612d436040519384612949565b82948184528183011161016d578281602093846000960137010152565b6001600160a01b03609754163303612d7457565b606460405162461bcd60e51b815260206004820152602060248201527f4f776e61626c653a2063616c6c6572206973206e6f7420746865206f776e65726044820152fd5b609754906001600160a01b0380911691826001600160a01b0319821617609755167f8be0079c531659141344cd1fd0a4f28419497f9722a3daafe3b4186f6b6457e0600080a3565b15612e0757565b60405162461bcd60e51b815260206004820152602c60248201527f46756e6374696f6e206d7573742062652063616c6c6564207468726f7567682060448201527f64656c656761746563616c6c00000000000000000000000000000000000000006064820152608490fd5b15612e7957565b60405162461bcd60e51b815260206004820152602c60248201527f46756e6374696f6e206d7573742062652063616c6c6564207468726f7567682060448201527f6163746976652070726f787900000000000000000000000000000000000000006064820152608490fd5b803b15612f27576001600160a01b037f360894a13ba1a3210667c828492db98dca3e2076cc3735a920a3ca505d382bbc91166001600160a01b0319825416179055565b60405162461bcd60e51b815260206004820152602d60248201527f455243313936373a206e657720696d706c656d656e746174696f6e206973206e60448201527f6f74206120636f6e7472616374000000000000000000000000000000000000006064820152608490fd5b90919015612f9e575090565b815115612fae5750805190602001fd5b60405162461bcd60e51b815260206004820152908190612fd2906024830190612a22565b0390fd5b15612fdd57565b60405162461bcd60e51b815260206004820152602b60248201527f496e697469616c697a61626c653a20636f6e7472616374206973206e6f74206960448201527f6e697469616c697a696e670000000000000000000000000000000000000000006064820152608490fd5b60405190613055826128f4565b600061010083606080825283602083015283604083015280808301528060808301528060a083015260c08201528260e08201520152565b90600182811c921680156130bc575b60208310146130a657565b634e487b7160e01b600052602260045260246000fd5b91607f169161309b565b90604051918260008254926130da8461308c565b9081845260019485811690816000146131495750600114613106575b505061310492500383612949565b565b9093915060005260209081600020936000915b818310613131575050613104935082010138806130f6565b85548884018501529485019487945091830191613119565b91505061310494506020925060ff191682840152151560051b82010138806130f6565b9081546131788161296b565b9260409361318885519182612949565b828152809460208092019260005281600020906000935b8585106131ae57505050505050565b60028460019284516131bf8161292d565b6001600160a01b038754168152848701548382015281520193019401939161319f565b60405160fd548160006131f48361308c565b92600190818116908115613271575060011461321b575b506020925060fe81520301902090565b60fd600090815291507f9346ac6dd7de6b96975fec380d4d994c4c12e6a8897544f22915316cc6cca2805b84831061325b5750505060209181013861320b565b8054868401528593506020909201918101613246565b60ff1916845250602093801515028301915038905061320b565b602090818184031261016d5780519067ffffffffffffffff821161016d57019180601f8401121561016d5782516132c18161296b565b936132cf6040519586612949565b818552838086019260051b82010192831161016d578301905b8282106132f6575050505090565b81516001600160a01b038116810361016d5781529083019083016132e8565b6000198114611d1c5760010190565b91908203918211611d1c57565b91908201809211611d1c57565b80518210156133525760209160051b010190565b634e487b7160e01b600052603260045260246000fd5b6001600160a01b03908160ff54169160408051808095636085a91160e11b8252600091829160049889915afa9182156134e05781926134bc575b50818251958291600019918289019189831191825b6134a9578386101561349b57865b6133cf878d613324565b86810190811161346d57811015613481576001810180821161346d579089828d8b8e826133ff613430988761333e565b5116825260fc602081815282842054938561341a8a8a61333e565b51169052528d205410613435575b505050613315565b6133c5565b806134508561345993613448868861333e565b51169561333e565b5116918d61333e565b52613464828c61333e565b5289388d613428565b50634e487b7160e01b885260118d52602488fd5b50919461349090939193613315565b9491829391936133b7565b995099505050505050505050565b634e487b7160e01b875260118c52602487fd5b6134d99192503d8084833e6134d18183612949565b81019061328b565b90386133a2565b508251903d90823e3d90fd5b9081602091031261016d5751801515810361016d5790565b91908110156133525760051b81013590601e198136030182121561016d57019081359167ffffffffffffffff831161016d57602001823603811361016d579190565b91908110156133525760051b0190565b356001600160a01b038116810361016d5790565b906135748261296b565b60409061358382519182612949565b8381528093613594601f199161296b565b0191600090815b8481106135a9575050505050565b60209082516135b78161292d565b84815282858183015282870101520161359b565b6020906135e26014959493828151948592016129ff565b01906bffffffffffffffffffffffff199060601b16815261360c82518093602086850191016129ff565b010190565b91908110156133525760051b81013590601e198136030182121561016d57019081359167ffffffffffffffff831161016d576020018260051b3603811361016d579190565b818110613661575050565b60008155600101613656565b680100000000000000008211610dd657805482825580831061368e57505050565b6001600160ff1b038082168203611d1c5783168303611d1c57600091825260208220600191821b810193821b015b8381106136c95750505050565b8083600292558383820155016136bc565b90600091600090816001600160a01b0392818460ff541660405193848092636085a91160e11b825260049384915afa93841561383d578294613821575b508351946402540be400908187029680880483149015171561380e5760019998978a97881c96859b5b613753575b505050505050505050909150565b80518c1015613809578886838e835b6137a2575b50505050878710156137875761377f899a9b9c613315565b9b9a99613740565b50505050505050509150915081388080808080808080613745565b8651831015613804576137b5908561333e565b5116846137c2838861333e565b5116146137da576137d290613315565b838e83613762565b5050958381018091116137f157958838838e613767565b634e487b7160e01b865260118552602486fd5b613767565b613745565b634e487b7160e01b845260118352602484fd5b6138369194503d8084833e6134d18183612949565b9238613717565b6040513d84823e3d90fd5b90600091825b815184101561389357613861848361333e565b51906402540be40091828102928184041490151715611d1c5761388d9161388791613331565b93613315565b9261384e565b919250519081156138a2570490565b634e487b7160e01b600052601260045260246000fd5b806000908260801c80613a47575b508060401c80613a3a575b5060209181831c80613a2f575b5060109180831c80613a22575b5060081c613a1a575b6001809101939184821b946001600160ff1b03811603611d1c576002850194858111611d1c5761393c61392687612d0d565b966139346040519889612949565b808852612d0d565b86860190601f1901368237865115613352576030905385518310156133525760786021870153828101809111611d1c5791905b8183116139c457505050613981575090565b6064906040519062461bcd60e51b825280600483015260248201527f537472696e67733a20686578206c656e67746820696e73756666696369656e746044820152fd5b909192600f811682811015613352578651851015613352577f3031323334353637383961626364656600000000000000000000000000000000901a85858801015360041c928015611d1c5760001901919061396f565b6001016138f4565b60029150910190386138eb565b9150600401386138de565b60089150910190386138d1565b915050601090386138c6565b600080821291908215613ad157613a8f613ac892602092604051613a768161292d565b60018152602d60f81b85820152955b613acb57506138b8565b926040519381613aa886935180928680870191016129ff565b8201613abc825180938680850191016129ff565b01038084520182612949565b90565b036138b8565b6040516020810181811067ffffffffffffffff821117613b025760405281815292613ac892602092613a8f92613a85565b634e487b7160e01b83526041600452602483fdfea2646970667358221220acd79973f75f21ea1b18565740235e457dce8f87d0e3404910dcbde61ccf814064736f6c63430008110033",
  "linkReferences": {
    "src/lib/VerifySignature.sol": {
      "VerifySignature": [
        {
          "length": 20,
          "start": 6466
        }
      ]
    }
  },
  "deployedLinkReferences": {
    "src/lib/VerifySignature.sol": {
      "VerifySignature": [
        {
          "length": 20,
          "start": 6411
        }
      ]
    }
  }
}