{
  "_format": "hh-sol-artifact-1",
  "contractName": "LogStoreReportManager",
  "sourceName": "src/ReportManager.sol",
  "abi": [
    {
      "anonymous": false,
      "inputs": [
        {
          "indexed": false,
          "internalType": "address",
          "name": "previousAdmin",
          "type": "address"
        },
        {
          "indexed": false,
          "internalType": "address",
          "name": "newAdmin",
          "type": "address"
        }
      ],
      "name": "AdminChanged",
      "type": "event"
    },
    {
      "anonymous": false,
      "inputs": [
        {
          "indexed": true,
          "internalType": "address",
          "name": "beacon",
          "type": "address"
        }
      ],
      "name": "BeaconUpgraded",
      "type": "event"
    },
    {
      "anonymous": false,
      "inputs": [
        {
          "indexed": false,
          "internalType": "uint8",
          "name": "version",
          "type": "uint8"
        }
      ],
      "name": "Initialized",
      "type": "event"
    },
    {
      "anonymous": false,
      "inputs": [
        {
          "indexed": false,
          "internalType": "bool",
          "name": "isMet",
          "type": "bool"
        }
      ],
      "name": "Logger",
      "type": "event"
    },
    {
      "anonymous": false,
      "inputs": [
        {
          "indexed": true,
          "internalType": "address",
          "name": "previousOwner",
          "type": "address"
        },
        {
          "indexed": true,
          "internalType": "address",
          "name": "newOwner",
          "type": "address"
        }
      ],
      "name": "OwnershipTransferred",
      "type": "event"
    },
    {
      "anonymous": false,
      "inputs": [
        {
          "indexed": false,
          "internalType": "string",
          "name": "id",
          "type": "string"
        }
      ],
      "name": "ReportAccepted",
      "type": "event"
    },
    {
      "anonymous": false,
      "inputs": [
        {
          "indexed": true,
          "internalType": "address",
          "name": "implementation",
          "type": "address"
        }
      ],
      "name": "Upgraded",
      "type": "event"
    },
    {
      "inputs": [],
      "name": "getLastReport",
      "outputs": [
        {
          "components": [
            {
              "internalType": "string",
              "name": "id",
              "type": "string"
            },
            {
              "internalType": "uint256",
              "name": "height",
              "type": "uint256"
            },
            {
              "internalType": "int256",
              "name": "treasury",
              "type": "int256"
            },
            {
              "components": [
                {
                  "internalType": "string",
                  "name": "id",
                  "type": "string"
                },
                {
                  "internalType": "uint256",
                  "name": "writeCapture",
                  "type": "uint256"
                },
                {
                  "internalType": "uint256",
                  "name": "writeBytes",
                  "type": "uint256"
                }
              ],
              "internalType": "struct LogStoreReportManager.Stream[]",
              "name": "streams",
              "type": "tuple[]"
            },
            {
              "components": [
                {
                  "internalType": "address",
                  "name": "id",
                  "type": "address"
                },
                {
                  "internalType": "int256",
                  "name": "amount",
                  "type": "int256"
                }
              ],
              "internalType": "struct LogStoreReportManager.Node[]",
              "name": "nodes",
              "type": "tuple[]"
            },
            {
              "components": [
                {
                  "internalType": "address",
                  "name": "id",
                  "type": "address"
                },
                {
                  "components": [
                    {
                      "internalType": "address",
                      "name": "id",
                      "type": "address"
                    },
                    {
                      "internalType": "int256",
                      "name": "amount",
                      "type": "int256"
                    }
                  ],
                  "internalType": "struct LogStoreReportManager.Node[]",
                  "name": "nodes",
                  "type": "tuple[]"
                }
              ],
              "internalType": "struct LogStoreReportManager.Delegate[]",
              "name": "delegates",
              "type": "tuple[]"
            },
            {
              "components": [
                {
                  "internalType": "address",
                  "name": "id",
                  "type": "address"
                },
                {
                  "internalType": "uint256",
                  "name": "readCapture",
                  "type": "uint256"
                },
                {
                  "internalType": "uint256",
                  "name": "readBytes",
                  "type": "uint256"
                }
              ],
              "internalType": "struct LogStoreReportManager.Consumer[]",
              "name": "consumers",
              "type": "tuple[]"
            },
            {
              "internalType": "address",
              "name": "_reporter",
              "type": "address"
            },
            {
              "internalType": "bool",
              "name": "_processed",
              "type": "bool"
            }
          ],
          "internalType": "struct LogStoreReportManager.Report",
          "name": "",
          "type": "tuple"
        }
      ],
      "stateMutability": "view",
      "type": "function"
    },
    {
      "inputs": [
        {
          "internalType": "string",
          "name": "id",
          "type": "string"
        }
      ],
      "name": "getReport",
      "outputs": [
        {
          "components": [
            {
              "internalType": "string",
              "name": "id",
              "type": "string"
            },
            {
              "internalType": "uint256",
              "name": "height",
              "type": "uint256"
            },
            {
              "internalType": "int256",
              "name": "treasury",
              "type": "int256"
            },
            {
              "components": [
                {
                  "internalType": "string",
                  "name": "id",
                  "type": "string"
                },
                {
                  "internalType": "uint256",
                  "name": "writeCapture",
                  "type": "uint256"
                },
                {
                  "internalType": "uint256",
                  "name": "writeBytes",
                  "type": "uint256"
                }
              ],
              "internalType": "struct LogStoreReportManager.Stream[]",
              "name": "streams",
              "type": "tuple[]"
            },
            {
              "components": [
                {
                  "internalType": "address",
                  "name": "id",
                  "type": "address"
                },
                {
                  "internalType": "int256",
                  "name": "amount",
                  "type": "int256"
                }
              ],
              "internalType": "struct LogStoreReportManager.Node[]",
              "name": "nodes",
              "type": "tuple[]"
            },
            {
              "components": [
                {
                  "internalType": "address",
                  "name": "id",
                  "type": "address"
                },
                {
                  "components": [
                    {
                      "internalType": "address",
                      "name": "id",
                      "type": "address"
                    },
                    {
                      "internalType": "int256",
                      "name": "amount",
                      "type": "int256"
                    }
                  ],
                  "internalType": "struct LogStoreReportManager.Node[]",
                  "name": "nodes",
                  "type": "tuple[]"
                }
              ],
              "internalType": "struct LogStoreReportManager.Delegate[]",
              "name": "delegates",
              "type": "tuple[]"
            },
            {
              "components": [
                {
                  "internalType": "address",
                  "name": "id",
                  "type": "address"
                },
                {
                  "internalType": "uint256",
                  "name": "readCapture",
                  "type": "uint256"
                },
                {
                  "internalType": "uint256",
                  "name": "readBytes",
                  "type": "uint256"
                }
              ],
              "internalType": "struct LogStoreReportManager.Consumer[]",
              "name": "consumers",
              "type": "tuple[]"
            },
            {
              "internalType": "address",
              "name": "_reporter",
              "type": "address"
            },
            {
              "internalType": "bool",
              "name": "_processed",
              "type": "bool"
            }
          ],
          "internalType": "struct LogStoreReportManager.Report",
          "name": "",
          "type": "tuple"
        }
      ],
      "stateMutability": "view",
      "type": "function"
    },
    {
      "inputs": [],
      "name": "getReporters",
      "outputs": [
        {
          "internalType": "address[]",
          "name": "reporters",
          "type": "address[]"
        }
      ],
      "stateMutability": "view",
      "type": "function"
    },
    {
      "inputs": [
        {
          "internalType": "address",
          "name": "_owner",
          "type": "address"
        },
        {
          "internalType": "uint256",
          "name": "_reportBlockBuffer",
          "type": "uint256"
        }
      ],
      "name": "initialize",
      "outputs": [],
      "stateMutability": "nonpayable",
      "type": "function"
    },
    {
      "inputs": [],
      "name": "owner",
      "outputs": [
        {
          "internalType": "address",
          "name": "",
          "type": "address"
        }
      ],
      "stateMutability": "view",
      "type": "function"
    },
    {
      "inputs": [
        {
          "internalType": "string",
          "name": "id",
          "type": "string"
        }
      ],
      "name": "processReport",
      "outputs": [],
      "stateMutability": "nonpayable",
      "type": "function"
    },
    {
      "inputs": [],
      "name": "proxiableUUID",
      "outputs": [
        {
          "internalType": "bytes32",
          "name": "",
          "type": "bytes32"
        }
      ],
      "stateMutability": "view",
      "type": "function"
    },
    {
      "inputs": [
        {
          "internalType": "address[]",
          "name": "submittedNodes",
          "type": "address[]"
        }
      ],
      "name": "quorumIsMet",
      "outputs": [
        {
          "internalType": "bool",
          "name": "isMet",
          "type": "bool"
        }
      ],
      "stateMutability": "view",
      "type": "function"
    },
    {
      "inputs": [],
      "name": "renounceOwnership",
      "outputs": [],
      "stateMutability": "nonpayable",
      "type": "function"
    },
    {
      "inputs": [
        {
          "internalType": "string",
          "name": "id",
          "type": "string"
        },
        {
          "internalType": "uint256",
          "name": "blockHeight",
          "type": "uint256"
        },
        {
          "internalType": "string[]",
          "name": "streams",
          "type": "string[]"
        },
        {
          "internalType": "uint256[]",
          "name": "writeCaptureAmounts",
          "type": "uint256[]"
        },
        {
          "internalType": "uint256[]",
          "name": "writeBytes",
          "type": "uint256[]"
        },
        {
          "internalType": "address[]",
          "name": "readConsumerAddresses",
          "type": "address[]"
        },
        {
          "internalType": "uint256[]",
          "name": "readCaptureAmounts",
          "type": "uint256[]"
        },
        {
          "internalType": "uint256[]",
          "name": "readBytes",
          "type": "uint256[]"
        },
        {
          "internalType": "address[]",
          "name": "nodes",
          "type": "address[]"
        },
        {
          "internalType": "int256[]",
          "name": "nodeChanges",
          "type": "int256[]"
        },
        {
          "internalType": "address[]",
          "name": "delegates",
          "type": "address[]"
        },
        {
          "internalType": "address[][]",
          "name": "delegateNodes",
          "type": "address[][]"
        },
        {
          "internalType": "int256[][]",
          "name": "delegateNodeChanges",
          "type": "int256[][]"
        },
        {
          "internalType": "int256",
          "name": "treasurySupplyChange",
          "type": "int256"
        },
        {
          "internalType": "address[]",
          "name": "addresses",
          "type": "address[]"
        },
        {
          "internalType": "bytes[]",
          "name": "signatures",
          "type": "bytes[]"
        }
      ],
      "name": "report",
      "outputs": [],
      "stateMutability": "nonpayable",
      "type": "function"
    },
    {
      "inputs": [],
      "name": "reportBlockBuffer",
      "outputs": [
        {
          "internalType": "uint256",
          "name": "",
          "type": "uint256"
        }
      ],
      "stateMutability": "view",
      "type": "function"
    },
    {
      "inputs": [
        {
          "internalType": "address",
          "name": "newOwner",
          "type": "address"
        }
      ],
      "name": "transferOwnership",
      "outputs": [],
      "stateMutability": "nonpayable",
      "type": "function"
    },
    {
      "inputs": [
        {
          "internalType": "address",
          "name": "newImplementation",
          "type": "address"
        }
      ],
      "name": "upgradeTo",
      "outputs": [],
      "stateMutability": "nonpayable",
      "type": "function"
    },
    {
      "inputs": [
        {
          "internalType": "address",
          "name": "newImplementation",
          "type": "address"
        },
        {
          "internalType": "bytes",
          "name": "data",
          "type": "bytes"
        }
      ],
      "name": "upgradeToAndCall",
      "outputs": [],
      "stateMutability": "payable",
      "type": "function"
    }
  ],
  "bytecode": "0x60a080604052346100315730608052613e8a908161003782396080518181816121430152818161225001526125850152f35b600080fdfe610520604052600436101561001357600080fd5b60003560e01c806312e63d711461286657806325cbbdff146128155780633659cfe61461256057806348cf88af146125425780634f1ef286146121fe57806352d1902d1461212857806370f46202146120c3578063715018a6146120685780638da5cb5b146120415780639f29124b146105a5578063cd6dc68714610400578063eefa7a3e146101f7578063f2fde38b146101515763f6883c05146100b757600080fd5b3461014c57602036600319011261014c5760043567ffffffffffffffff811161014c5760206100ec6007923690600401612a98565b91906100f6612eb6565b826040519384928337810160fe81520301902001740100000000000000000000000000000000000000007fffffffffffffffffffffff00ffffffffffffffffffffffffffffffffffffffff825416179055600080f35b600080fd5b3461014c57602036600319011261014c5761016a612dbe565b610172612eb6565b6001600160a01b0381161561018c5761018a90612f0e565b005b60405162461bcd60e51b815260206004820152602660248201527f4f776e61626c653a206e6577206f776e657220697320746865207a65726f206160448201527f64647265737300000000000000000000000000000000000000000000000000006064820152608490fd5b3461014c57600036600319011261014c5761021061319e565b50610219613338565b60405161022581612d2f565b61022e8261321c565b815260018083015490602091828401526002918285015460408501526003808601805461025a81612da6565b916102686040519384612d84565b81835260009081528481208685878087015b8686106103c657505050505050506060860152610299600487016132c2565b60808601526005860180546102ad81612da6565b916102bb6040519384612d84565b81835260009081528481208688878087015b86861061038c575050505050505060a0860152600686018054926102f084612da6565b956102fe6040519788612d84565b8487526000928352818320908288015b8685106103505760c08a0189905260078b01546001600160a01b03811660e08c015260a01c60ff1615156101008b01526040518061034c8c82612b56565b0390f35b8584899260405161036081612d4c565b6001600160a01b038754168152848701548382015285870154604082015281520193019401939161030e565b60405161039881612d68565b6001600160a01b0386541681526103b08587016132c2565b83820152815201920192019190888789926102cd565b6040516103d281612d4c565b6103db8661321c565b815284860154838201528c86015460408201528152019201920191908587899261027a565b3461014c57604036600319011261014c57610419612dbe565b6000549060ff808360081c161592838094610599575b8015610583575b156105185760ff19811660011760005583610506575b506104668160005460081c166104618161312c565b61312c565b61046f33612f0e565b61048c8160005460081c166104838161312c565b6104618161312c565b600160c9556001600160a01b03821690816001600160a01b031982541617905560243560fb556104ba612eb6565b1561018c576104c890612f0e565b6104ce57005b61ff0019600054166000557f7f26b83ff96e1f2b6a682f133852f6798a09c465da95921460cefb3847402498602060405160018152a1005b61ffff1916610101176000558361044c565b60405162461bcd60e51b815260206004820152602e60248201527f496e697469616c697a61626c653a20636f6e747261637420697320616c72656160448201527f647920696e697469616c697a65640000000000000000000000000000000000006064820152608490fd5b50303b1580156104365750600182821614610436565b5060018282161061042f565b3461014c5761020036600319011261014c5760043567ffffffffffffffff811161014c576105d7903690600401612a98565b610200526103805260443567ffffffffffffffff811161014c576105ff903690600401612e85565b610240526102805260643567ffffffffffffffff811161014c57610627903690600401612e85565b6103a0526102a05260843567ffffffffffffffff811161014c5761064f903690600401612e85565b610440526102205260a43567ffffffffffffffff811161014c57610677903690600401612e85565b60c43567ffffffffffffffff811161014c57610697903690600401612e85565b6103c0526104805267ffffffffffffffff60e4351161014c576106bf3660e435600401612e85565b91909267ffffffffffffffff610104351161014c576106e43661010435600401612e85565b6101a0526101605267ffffffffffffffff610124351161014c5761070e3661012435600401612e85565b610320526101205267ffffffffffffffff610144351161014c576107383661014435600401612e85565b610400526101e05267ffffffffffffffff610164351161014c576107623661016435600401612e85565b60e0526102c05267ffffffffffffffff610184351161014c5761078b3661018435600401612e85565b610140526104e05267ffffffffffffffff6101c4351161014c576107b5366101c435600401612e85565b6102e0526101005267ffffffffffffffff6101e4351161014c576107df366101e435600401612e85565b60a0526103e052602460206001600160a01b0360ff541660405192838092630c2effa360e31b82523360048301525afa908115611cf157600091612022575b5015611fdd5743602435111580611fc7575b15611f825761084e610849366102e05161010051612dd4565b61389e565b15611f3d5761085b6134be565b6103605260006101c0525b6103605180516101c05190811015611f365761088b6001600160a01b03913393613494565b5116146108a75761089e6101c05161346b565b6101c052610866565b60fb546101c0518082810204821481151715610c34576108dc916108d7908215611f2e57805b6024359302613487565b613487565b431115611ee9575b6108ef6024356139d0565b6109d8604e6109006101a435613cbd565b92604051938491663d9134b2111d1160c91b6020840152610200516103805160278501376102005183017f222c22686569676874223a2200000000000000000000000000000000000000006027820152610964825180936020603385019101612ac6565b7f222c227472656173757279223a22000000000000000000000000000000000000603383830101526109a28351809460206041868601019101612ac6565b01017f222c2273747265616d73223a5b00000000000000000000000000000000000000604182015203602e810184520182612d84565b610460526109fd6109eb61024051612da6565b80610500526040518061042052612d84565b610240516104205152601f19610a1561024051612da6565b0160006104c0525b806104c0511015610a6357604051610a3481612d4c565b60608152600060208201526000604082015260206104c0516104205101015260206104c051016104c052610a1d565b5060006080525b610240516080519080821015610c4a57610a8d603f92610b6c926102805161365a565b9290610aab610aa56080516103a0516102a05161369c565b35613b38565b607d60f81b610acc610ac6608051610440516102205161369c565b356139d0565b9169111611313cba32b9911d60b11b6040519788958161046051610af9815180926020808d019101612ac6565b880191663d9134b2111d1160c91b60208401526027830137016c11161131b0b83a3ab932911d1160991b6027820152825190610b3e8260349560208785019101612ac6565b0191820152825190610b5982603e9560208785019101612ac6565b019182015203601f810184520182612d84565b80610460526102405180600019810111610c34576000190160805103610c21575b50610ba1608051610240516102805161365a565b90610bb56080516103a0516102a05161369c565b35610be2610bcc608051610440516102205161369c565b359260405194610bdb86612d4c565b3691612e4e565b835260208301526040820152610bfd60805161042051613494565b52610c0d60805161042051613494565b50610c1960805161346b565b608052610a6a565b610c2a906136ac565b6104605284610b8d565b634e487b7160e01b600052601160045260246000fd5b50508284604051610ca4602f8261046051610c6e8151809260208086019101612ac6565b81017f5d2c22636f6e73756d657273223a5b0000000000000000000000000000000000602082015203600f810184520182612d84565b61046052610cc5610cb485612da6565b8060c0526040518061018052612d84565b836101805152601f19610cd785612da6565b0160005b818110611eba57505060005b848110611d2d57604051610d44602b8261046051610d0e8151809260208086019101612ac6565b81017f5d2c226e6f646573223a7b000000000000000000000000000000000000000000602082015203600b810184520182612d84565b61046052610d546101a0516136f8565b60005b6101a05180821015610e4457610d84610d7f610d7a84610da8946101605161369c565b6136e4565b613d91565b610d9e610d9884610320516101205161369c565b35613cbd565b9061046051613759565b9081610460526101a0519182600019810111610c3457610e2c92600019018203610e31575b50610de2610d7a826101a0516101605161369c565b610df382610320516101205161369c565b356001600160a01b0360405192610e0984612d68565b1682526020820152610e1b8285613494565b52610e268184613494565b5061346b565b610d57565b610e3a906136ac565b6104605283610dcd565b82604051610e9b602f8261046051610e658151809260208086019101612ac6565b81017f7d2c2264656c656761746573223a7b0000000000000000000000000000000000602082015203600f810184520182612d84565b61046052610ec0610eae61040051612da6565b80610340526040518061030052612d84565b610400516103005152601f19610ed861040051612da6565b0160005b818110611d05578260006104a0525b610400516104a0518181101561119057610d7a610d7f91610f0f936101e05161369c565b610f6f6024604051809361046051610f308151809260208087019101612ac6565b601160f91b60208285010152610f528251809360206021858801019101612ac6565b82010162223a7b60e81b6021820152036004810184520182612d84565b61046052610f90610f896104a05160e0516102c0516137d5565b90506136f8565b6102605260005b610faa6104a05160e0516102c0516137d5565b90508110156110ad57610ff4610fd9610d7f610d7a84610fd36104a05160e0516102c0516137d5565b9061369c565b610d9e610d9884610fd36104a051610140516104e0516137d5565b6104605261100b6104a05160e0516102c0516137d5565b80929150600019810111610c345761109391600019018103611098575b611042610d7a82610fd36104a05160e0516102c0516137d5565b61105a82610fd36104a051610140516104e0516137d5565b356001600160a01b036040519261107084612d68565b16825260208201526110858261026051613494565b52610e268161026051613494565b610f97565b6110a4610460516136ac565b61046052611028565b506104005180600019810111610c34576104a051600019919091011461114d576110d9610460516136ac565b610460525b6110f5610d7a6104a051610400516101e05161369c565b6001600160a01b036040519161110a83612d68565b1681526102605160208201526111266104a05161030051613494565b526111376104a05161030051613494565b506111446104a05161346b565b6104a052610eeb565b6040516111876021826104605161116d8151809260208086019101612ac6565b8101607d60f81b6020820152036001810184520182612d84565b610460526110de565b826040516111ce602282610460516111b18151809260208086019101612ac6565b8101617d7d60f01b60208201526002828203018252030182612d84565b604051916111db83612d2f565b6111ec366102005161038051612e4e565b835260243560208401526101a435604084015261042051606084015260808301526103005160a08301526101805160c08301523360e083015260006101008301526040516112576020828161124a8183019687815193849201612ac6565b8101038084520182612d84565b51902060019060005b6102e05180821015611cfd57610d7a8261127d926101005161369c565b60206001600160a01b0360846112998560a0516103e05161365a565b8060409692965196879586946301a86b5560e41b865216600485015289602485015260606044850152816064850152848401376000828201840152601f01601f1916810103018173__$267c3dc7aa7d3fe2e28bda43a2ca27cd27$__5af48015611cf157600191600091611cc2575b5015150361131e576113199061346b565b611260565b50505060005b15611c7d57611343602082518160405193828580945193849201612ac6565b810160fe81520301902090805191825167ffffffffffffffff81116117d35761136c82546131e2565b601f8111611c4b575b506020601f8211600114611be35781929394600092611bd8575b50508160011b916000199060031b1c19161781555b602082015160018201556040820151600282015560608201518051906801000000000000000082116117d3576003830154826003850155808310611b2d575b50602001906003830160005260206000206000925b8284106119f857858560048101608083015190602082519261141a8484613831565b019060005260206000206000915b8383106119c257858560a08201518051906801000000000000000082116117d357600583015482600585015580831061191a575b506020016005830160005260206000206000915b83831061188257858560c08201518051906801000000000000000082116117d3576006830154826006850155808310611829575b506020016006830160005260206000206000915b8383106117e95785600786016001600160a01b0360e0830151168154907fffffffffffffffffffffff00000000000000000000000000000000000000000074ff0000000000000000000000000000000000000000610100860151151560a01b16921617179055805190815167ffffffffffffffff81116117d35761153d60fc546131e2565b601f8111611779575b50602092601f82116001146116f757928192936000926116ec575b50508160011b916000199060031b1c19161760fc555b6000805b6103605180518310156116ad5761159a836001600160a01b0392613494565b511633146000146115d457503360005260fd6020526040600020805490600a8201809211610c3457556115ce60019161346b565b9061157b565b908161167157806001600160a01b036115f36115ce9361036051613494565b511660005260fd8060205260056040600020541015600014611647576005905b6001600160a01b036116288461036051613494565b5116600052602052611640604060002091825461347a565b905561346b565b6001600160a01b0361165c8361036051613494565b51166000528060205260406000205490611613565b6001600160a01b036116868261036051613494565b511660005260fd602052604060002090815460018101809111610c34576115ce925561346b565b7fc53a4e1db72f8c6fde77b85b4cc21a59f9896e9d7285f890075356dbd528d1cd6116e78551604051918291602083526020830190612ae9565b0390a1005b015190508380611561565b601f1982169360fc6000527f371f36870d18f32a11fea0f144b021c8b407bb50f8e0267c711123f454b963c09160005b8681106117615750836001959610611748575b505050811b0160fc55611577565b015160001960f88460031b161c1916905583808061173a565b91926020600181928685015181550194019201611727565b6117c39060fc6000527f371f36870d18f32a11fea0f144b021c8b407bb50f8e0267c711123f454b963c0601f840160051c810191602085106117c9575b601f0160051c019061381a565b83611546565b90915081906117b6565b634e487b7160e01b600052604160045260246000fd5b60036020826040600194516001600160a01b038151166001600160a01b0319885416178755838101518688015501516002860155019201920191906114b8565b6003818102048103610c34576003838102048303610c34576006840160005260206000208360030281015b82600302820181106118675750506114a4565b80600060039255600060018201556000600282015501611854565b80516001600160a01b038151166001600160a01b03198454161783556020600184019101519060208251926118b78484613831565b01906000526020600020906000905b8382106118e457505050506002602060019201920192019190611470565b600260208281600194516001600160a01b038151166001600160a01b0319895416178855015184870155019301910190916118c6565b6001600160ff1b0381168103610c34576001600160ff1b0383168303610c34576005840160005260206000208360011b81015b8260011b8201811061196057505061145c565b600081556001810154600060018301558061197f575b5060020161194d565b6001600160ff1b0381168103610c34576001820160005260206000209060011b8101905b8181106119b05750611976565b600080825560018201556002016119a3565b600260208281600194516001600160a01b038151166001600160a01b031988541617875501518486015501920192019190611428565b8051805180519067ffffffffffffffff82116117d357611a1885546131e2565b601f8111611af0575b50602090601f8311600114611a7e576003938360209460019794604094600092611a73575b505060001982881b1c191690871b1787555b838101518688015501516002860155019201930192906113f8565b015190508d80611a46565b908560005260206000209160005b601f1985168110611ad8575093600184819794604094600398602098601f19811610611ac0575b505050811b018755611a58565b0151600019838a1b60f8161c191690558d8080611ab3565b91926020600181928685015181550194019201611a8c565b611b1d908660005260206000206005601f8601811c82019260208710611b23575b601f01901c019061381a565b89611a21565b9192508291611b11565b6003818102048103610c34576003838102048303610c34576003840160005260206000208360030281015b8260030282018110611b6b5750506113e3565b80611b78600392546131e2565b80611b93575b50600060018201556000600282015501611b58565b601f8111600114611baa5750600081555b88611b7e565b611bc990826000526001601f6020600020920160051c8201910161381a565b60006020812081835555611ba4565b01519050848061138f565b8260005260206000209060005b601f1984168110611c335750600193949583601f19811610611c1a575b505050811b0181556113a4565b015160001960f88460031b161c19169055848080611c0d565b9091602060018192858a015181550193019101611bf0565b611c7790836000526020600020601f840160051c810191602085106117c957601f0160051c019061381a565b84611375565b60405162461bcd60e51b815260206004820152601d60248201527f6572726f725f696e76616c69645265706f72745369676e6174757265730000006044820152606490fd5b611ce4915060203d602011611cea575b611cdc8183612d84565b810190613642565b86611308565b503d611cd2565b6040513d6000823e3d90fd5b505050611324565b602090604051611d1481612d68565b6000815260608382015282826103005101015201610edc565b80611e18603f611d52610d7f610d7a69111611313cba32b9911d60b11b968b8b61369c565b611d66610aa5856103c0516104805161369c565b607d60f81b611d79610ac6878b8b61369c565b9160405197889461046051611d97815180926020808b019101612ac6565b8601663d9134b2111d1160c91b6020820152611dbd825180936020602785019101612ac6565b016c11161131b0b83a3ab932911d1160991b6027820152825190611dea8260349560208785019101612ac6565b0191820152825190611e0582603e9560208785019101612ac6565b019182015203601f810185520183612d84565b816104605285600019810111610c3457611ea291600187830301611ea7575b50611e46610d7a82888861369c565b611e57826103c0516104805161369c565b35611e6383878761369c565b35906001600160a01b0360405193611e7a85612d4c565b16835260208301526040820152611e948261018051613494565b52610e268161018051613494565b610ce7565b611eb0906136ac565b6104605286611e37565b602090604051611ec981612d4c565b600081526000838201526000604082015282826101805101015201610cdb565b60405162461bcd60e51b815260206004820152601560248201527f6572726f725f696e76616c69645265706f7274657200000000000000000000006044820152606490fd5b6000906108cd565b50506108e4565b60405162461bcd60e51b815260206004820152601260248201527f6572726f725f71756f72756d4e6f744d657400000000000000000000000000006044820152606490fd5b60405162461bcd60e51b815260206004820152601360248201527f6572726f725f696e76616c69645265706f7274000000000000000000000000006044820152606490fd5b506001611fd2613338565b015460243511610830565b60405162461bcd60e51b815260206004820152601360248201527f6572726f725f7374616b655265717569726564000000000000000000000000006044820152606490fd5b61203b915060203d602011611cea57611cdc8183612d84565b8561081e565b3461014c57600036600319011261014c5760206001600160a01b0360975416604051908152f35b3461014c57600036600319011261014c57612081612eb6565b60006001600160a01b036097546001600160a01b03198116609755167f8be0079c531659141344cd1fd0a4f28419497f9722a3daafe3b4186f6b6457e08280a3005b3461014c57600036600319011261014c576120dc6134be565b604051809160208083018184528251809152816040850193019160005b82811061210857505050500390f35b83516001600160a01b0316855286955093810193928101926001016120f9565b3461014c57600036600319011261014c576001600160a01b037f00000000000000000000000000000000000000000000000000000000000000001630036121935760206040517f360894a13ba1a3210667c828492db98dca3e2076cc3735a920a3ca505d382bbc8152f35b60405162461bcd60e51b815260206004820152603860248201527f555550535570677261646561626c653a206d757374206e6f742062652063616c60448201527f6c6564207468726f7567682064656c656761746563616c6c00000000000000006064820152608490fd5b604036600319011261014c57612212612dbe565b60243567ffffffffffffffff811161014c573660238201121561014c57612243903690602481600401359101612e4e565b906001600160a01b0391827f0000000000000000000000000000000000000000000000000000000000000000169261227d84301415612f56565b6122ac7f360894a13ba1a3210667c828492db98dca3e2076cc3735a920a3ca505d382bbc948286541614612fc8565b6122b4612eb6565b7f4910fdfa16fed3260ed0e7147f7cc6da11a60208b5b9406d12a635614ffd91435460ff16156122ea57505061018a915061303a565b82919216604051936352d1902d60e01b85526020948581600481865afa60009181612513575b506123715760405162461bcd60e51b815260048101879052602e60248201527f45524331393637557067726164653a206e657720696d706c656d656e7461746960448201526d6f6e206973206e6f74205555505360901b6064820152608490fd5b036124bc5761237f8261303a565b604051907fbc7cd75a20ee27fd9adebab32041f755214dbc6bffa90cc0225b39da2e5c2d3b600080a28251158015906124b4575b6123b957005b813b15612463575060008281928561018a9695519201905af43d1561245b573d906123e382612e32565b916123f16040519384612d84565b82523d60008484013e5b7f416464726573733a206c6f772d6c6576656c2064656c65676174652063616c6c6040519361242985612d4c565b602785528401527f206661696c65640000000000000000000000000000000000000000000000000060408401526130e8565b6060906123fb565b62461bcd60e51b815260048101849052602660248201527f416464726573733a2064656c65676174652063616c6c20746f206e6f6e2d636f6044820152651b9d1c9858dd60d21b6064820152608490fd5b5060016123b3565b60405162461bcd60e51b815260048101859052602960248201527f45524331393637557067726164653a20756e737570706f727465642070726f786044820152681a58589b195555525160ba1b6064820152608490fd5b9091508681813d831161253b575b61252b8183612d84565b8101031261014c57519087612310565b503d612521565b3461014c57600036600319011261014c57602060fb54604051908152f35b3461014c5760208060031936011261014c5761257a612dbe565b6001600160a01b03807f0000000000000000000000000000000000000000000000000000000000000000166125b181301415612f56565b6125e07f360894a13ba1a3210667c828492db98dca3e2076cc3735a920a3ca505d382bbc918383541614612fc8565b6125e8612eb6565b604051908482019282841067ffffffffffffffff8511176117d357836040526000835260ff7f4910fdfa16fed3260ed0e7147f7cc6da11a60208b5b9406d12a635614ffd91435416600014612645575050505061018a915061303a565b8416906040516352d1902d60e01b81528681600481865afa600091816127e6575b506126c75760405162461bcd60e51b815260048101889052602e60248201527f45524331393637557067726164653a206e657720696d706c656d656e7461746960448201526d6f6e206973206e6f74205555505360901b6064820152608490fd5b0361278f576126d58461303a565b604051907fbc7cd75a20ee27fd9adebab32041f755214dbc6bffa90cc0225b39da2e5c2d3b600080a2815115801590612787575b61270f57005b833b15612736575061018a9392600092839251915af43d1561245b573d906123e382612e32565b62461bcd60e51b815260048101859052602660248201527f416464726573733a2064656c65676174652063616c6c20746f206e6f6e2d636f6044820152651b9d1c9858dd60d21b6064820152608490fd5b506000612709565b60405162461bcd60e51b815260048101869052602960248201527f45524331393637557067726164653a20756e737570706f727465642070726f786044820152681a58589b195555525160ba1b6064820152608490fd5b9091508781813d831161280e575b6127fe8183612d84565b8101031261014c57519088612666565b503d6127f4565b3461014c57602036600319011261014c5760043567ffffffffffffffff811161014c573660238201121561014c5761285c6108496020923690602481600401359101612dd4565b6040519015158152f35b3461014c5760208060031936011261014c5760043567ffffffffffffffff811161014c5761289982913690600401612a98565b91906128a361319e565b50826040519384928337810160fe81520301902090604051906128c582612d2f565b6128ce8361321c565b825260018084015482840152600291828501546040850152600380860180546128f681612da6565b916129046040519384612d84565b81835260009081528481208685878087015b868610612a5e57505050505050506060860152612935600487016132c2565b608086015260058601805461294981612da6565b916129576040519384612d84565b81835260009081528481208688878087015b868610612a24575050505050505060a08601526006860180549261298c84612da6565b9561299a6040519788612d84565b8487526000928352818320908288015b8685106129e85760c08a0189905260078b01546001600160a01b03811660e08c015260a01c60ff1615156101008b01526040518061034c8c82612b56565b858489926040516129f881612d4c565b6001600160a01b03875416815284870154838201528587015460408201528152019301940193916129aa565b604051612a3081612d68565b6001600160a01b038654168152612a488587016132c2565b8382015281520192019201919088878992612969565b604051612a6a81612d4c565b612a738661321c565b815284860154838201528c860154604082015281520192019201919085878992612916565b9181601f8401121561014c5782359167ffffffffffffffff831161014c576020838186019501011161014c57565b60005b838110612ad95750506000910152565b8181015183820152602001612ac9565b90602091612b0281518092818552858086019101612ac6565b601f01601f1916010190565b90815180825260208080930193019160005b828110612b2e575050505090565b835180516001600160a01b031686528201518583015260409094019392810192600101612b20565b602091828252805190612b76610120928386860152610140850190612ae9565b93808201516040908186015280830151916060928387015282840151601f19978888820301608089015281518082528382019184808360051b8301019401926000915b888d858510612ce45750505050505050612be1906080860151898983030160a08a0152612b0e565b9160a085015192888882030160c089015283518082528382019184808360051b8301019601926000915b8c848410612c975750505050505060c0850151978784030160e08801528180895194858152019801936000915b848310612c66575050505050506001600160a01b0360e0820151169061010091828501520151151591015290565b855180516001600160a01b03168b52808501518b8601528101518a8201529881019894830194600190920191612c38565b9680612cd08a89838a9e9b9c9a8798999a9b829f9860019903018a52516001600160a01b03815116845201519181858201520190612b0e565b9a0193019301919392909796959497612c0b565b9780999891888293856001969798999a9b030187528a80612d0f8c5194855190808652850190612ae9565b938581015186850152015191015297019301930191939290969596612bb9565b610120810190811067ffffffffffffffff8211176117d357604052565b6060810190811067ffffffffffffffff8211176117d357604052565b6040810190811067ffffffffffffffff8211176117d357604052565b90601f8019910116810190811067ffffffffffffffff8211176117d357604052565b67ffffffffffffffff81116117d35760051b60200190565b600435906001600160a01b038216820361014c57565b9291612ddf82612da6565b91612ded6040519384612d84565b829481845260208094019160051b810192831161014c57905b828210612e135750505050565b81356001600160a01b038116810361014c578152908301908301612e06565b67ffffffffffffffff81116117d357601f01601f191660200190565b929192612e5a82612e32565b91612e686040519384612d84565b82948184528183011161014c578281602093846000960137010152565b9181601f8401121561014c5782359167ffffffffffffffff831161014c576020808501948460051b01011161014c57565b6001600160a01b03609754163303612eca57565b606460405162461bcd60e51b815260206004820152602060248201527f4f776e61626c653a2063616c6c6572206973206e6f7420746865206f776e65726044820152fd5b609754906001600160a01b0380911691826001600160a01b0319821617609755167f8be0079c531659141344cd1fd0a4f28419497f9722a3daafe3b4186f6b6457e0600080a3565b15612f5d57565b60405162461bcd60e51b815260206004820152602c60248201527f46756e6374696f6e206d7573742062652063616c6c6564207468726f7567682060448201527f64656c656761746563616c6c00000000000000000000000000000000000000006064820152608490fd5b15612fcf57565b60405162461bcd60e51b815260206004820152602c60248201527f46756e6374696f6e206d7573742062652063616c6c6564207468726f7567682060448201527f6163746976652070726f787900000000000000000000000000000000000000006064820152608490fd5b803b1561307d576001600160a01b037f360894a13ba1a3210667c828492db98dca3e2076cc3735a920a3ca505d382bbc91166001600160a01b0319825416179055565b60405162461bcd60e51b815260206004820152602d60248201527f455243313936373a206e657720696d706c656d656e746174696f6e206973206e60448201527f6f74206120636f6e7472616374000000000000000000000000000000000000006064820152608490fd5b909190156130f4575090565b8151156131045750805190602001fd5b60405162461bcd60e51b815260206004820152908190613128906024830190612ae9565b0390fd5b1561313357565b60405162461bcd60e51b815260206004820152602b60248201527f496e697469616c697a61626c653a20636f6e7472616374206973206e6f74206960448201527f6e697469616c697a696e670000000000000000000000000000000000000000006064820152608490fd5b604051906131ab82612d2f565b600061010083606080825283602083015283604083015280808301528060808301528060a083015260c08201528260e08201520152565b90600182811c92168015613212575b60208310146131fc57565b634e487b7160e01b600052602260045260246000fd5b91607f16916131f1565b9060405191826000825492613230846131e2565b90818452600194858116908160001461329f575060011461325c575b505061325a92500383612d84565b565b9093915060005260209081600020936000915b81831061328757505061325a9350820101388061324c565b8554888401850152948501948794509183019161326f565b91505061325a94506020925060ff191682840152151560051b820101388061324c565b9081546132ce81612da6565b926040936132de85519182612d84565b828152809460208092019260005281600020906000935b85851061330457505050505050565b600284600192845161331581612d68565b6001600160a01b03875416815284870154838201528152019301940193916132f5565b60405160fc5481600061334a836131e2565b926001908181169081156133c75750600114613371575b506020925060fe81520301902090565b60fc600090815291507f371f36870d18f32a11fea0f144b021c8b407bb50f8e0267c711123f454b963c05b8483106133b157505050602091810138613361565b805486840152859350602090920191810161339c565b60ff19168452506020938015150283019150389050613361565b602090818184031261014c5780519067ffffffffffffffff821161014c57019180601f8401121561014c57825161341781612da6565b936134256040519586612d84565b818552838086019260051b82010192831161014c578301905b82821061344c575050505090565b81516001600160a01b038116810361014c57815290830190830161343e565b6000198114610c345760010190565b91908203918211610c3457565b91908201809211610c3457565b80518210156134a85760209160051b010190565b634e487b7160e01b600052603260045260246000fd5b6001600160a01b03908160ff54169160408051808095636085a91160e11b8252600091829160049889915afa918215613636578192613612575b50818251958291600019918289019189831191825b6135ff57838610156135f157865b613525878d61347a565b8681019081116135c3578110156135d757600181018082116135c3579089828d8b8e826135556135869887613494565b5116825260fd60208181528284205493856135708a8a613494565b51169052528d20541061358b575b50505061346b565b61351b565b806135a6856135af9361359e8688613494565b511695613494565b5116918d613494565b526135ba828c613494565b5289388d61357e565b50634e487b7160e01b885260118d52602488fd5b5091946135e69093919361346b565b94918293919361350d565b995099505050505050505050565b634e487b7160e01b875260118c52602487fd5b61362f9192503d8084833e6136278183612d84565b8101906133e1565b90386134f8565b508251903d90823e3d90fd5b9081602091031261014c5751801515810361014c5790565b91908110156134a85760051b81013590601e198136030182121561014c57019081359167ffffffffffffffff831161014c57602001823603811361014c579190565b91908110156134a85760051b0190565b9061325a6021604051846136ca829651809260208086019101612ac6565b8101600b60fa1b6020820152036001810185520183612d84565b356001600160a01b038116810361014c5790565b9061370282612da6565b60409061371182519182612d84565b8381528093613722601f1991612da6565b0191600090815b848110613737575050505050565b602090825161374581612d68565b848152828581830152828701015201613729565b60259061325a92949394604051958261377c889451809260208088019101612ac6565b830191601160f91b9283602082015261379f825180936020602185019101612ac6565b0162111d1160e91b60218201526137c0825180936020602485019101612ac6565b01906024820152036005810185520183612d84565b91908110156134a85760051b81013590601e198136030182121561014c57019081359167ffffffffffffffff831161014c576020018260051b3603811361014c579190565b818110613825575050565b6000815560010161381a565b6801000000000000000082116117d357805482825580831061385257505050565b6001600160ff1b038082168203610c345783168303610c3457600091825260208220600191821b810193821b015b83811061388d5750505050565b808360029255838382015501613880565b9060046000926000806001600160a01b0392828460ff541660405196878092636085a91160e11b82525afa9485156139c55783956139a9575b508451600195869591861c8061399f57508594989796985b80995b613903575b50505050505050909150565b81518a101561399a578681815b61394a575b5050858510156139335761392b8798999a61346b565b9998976138f2565b5050505050509150915081388080808080806138f7565b8551811015613995578461395e8d86613494565b51168561396b8389613494565b5116146139815761397b9061346b565b81613910565b50509361398d9061346b565b938638613915565b613915565b6138f7565b94989796986138ef565b6139be9195503d8085833e6136278183612d84565b93386138d7565b6040513d85823e3d90fd5b806000917a184f03e93ff9f4daa797ed6e38ed64bf6a1f01000000000000000080821015613b2a575b506d04ee2d6d415b85acef810000000080831015613b1b575b50662386f26fc1000080831015613b0c575b506305f5e10080831015613afd575b5061271080831015613aee575b506064821015613ade575b600a80921015613ad4575b60019081602181860195613a6987612e32565b96613a776040519889612d84565b808852613a86601f1991612e32565b01366020890137860101905b613a9e575b5050505090565b600019019083906f181899199a1a9b1b9c1cb0b131b232b360811b8282061a835304918215613acf57919082613a92565b613a97565b9160010191613a56565b9190606460029104910191613a4b565b60049193920491019138613a40565b60089193920491019138613a33565b60109193920491019138613a24565b60209193920491019138613a12565b6040935081049150386139f9565b8060008260801c80613cb2575b508160401c80613ca7575b508160201c80613c9c575b5060109180831c80613c8f575b5060081c613c87575b6001809101929183821b936001600160ff1b03811603610c34576002840193848111610c3457613bb9613ba386612e32565b95613bb16040519788612d84565b808752612e32565b6020860190601f19013682378551156134a8576030905384518310156134a85760786021860153828101809111610c345791905b818311613c4257505050613bfe5790565b606460405162461bcd60e51b815260206004820152602060248201527f537472696e67733a20686578206c656e67746820696e73756666696369656e746044820152fd5b909192600f8116828110156134a8576f181899199a1a9b1b9c1cb0b131b232b360811b901a613c718587613d80565b5360041c928015610c3457600019019190613bed565b600101613b71565b6002915091019038613b68565b915060040138613b5b565b915060080138613b50565b915050601038613b45565b600080821291908215613d3b57613cf9613d3292602092604051613ce081612d68565b60018152602d60f81b85820152955b613d355750613b38565b926040519381613d128693518092868087019101612ac6565b8201613d2682518093868085019101612ac6565b01038084520182612d84565b90565b03613b38565b6040516020810181811067ffffffffffffffff821117613d6c5760405281815292613d3292602092613cf992613cef565b634e487b7160e01b83526041600452602483fd5b9081518110156134a8570160200190565b6001600160a01b031660405190613da782612d4c565b602a82526020820160403682378251156134a8576030905381516001908110156134a857607860218401536029905b808211613de6575050613bfe5790565b9091600f81166010811015613e3f576f181899199a1a9b1b9c1cb0b131b232b360811b901a613e158486613d80565b5360041c918015613e2a576000190190613dd6565b60246000634e487b7160e01b81526011600452fd5b60246000634e487b7160e01b81526032600452fdfea2646970667358221220d946854d5f4d4c3badf7145327528fa7ec34aa51782f9de0dc432d86053c558164736f6c63430008110033",
  "linkReferences": {
    "src/lib/VerifySignature.sol": {
      "VerifySignature": [
        {
          "length": 20,
          "start": 4889
        }
      ]
    }
  },
  "deployedLinkReferences": {
    "src/lib/VerifySignature.sol": {
      "VerifySignature": [
        {
          "length": 20,
          "start": 4834
        }
      ]
    }
  }
}