{
  "_format": "hh-sol-artifact-1",
  "contractName": "LogStoreReportManager",
  "sourceName": "src/ReportManager.sol",
  "abi": [
    {
      "anonymous": false,
      "inputs": [
        {
          "indexed": false,
          "internalType": "address",
          "name": "previousAdmin",
          "type": "address"
        },
        {
          "indexed": false,
          "internalType": "address",
          "name": "newAdmin",
          "type": "address"
        }
      ],
      "name": "AdminChanged",
      "type": "event"
    },
    {
      "anonymous": false,
      "inputs": [
        {
          "indexed": true,
          "internalType": "address",
          "name": "beacon",
          "type": "address"
        }
      ],
      "name": "BeaconUpgraded",
      "type": "event"
    },
    {
      "anonymous": false,
      "inputs": [
        {
          "indexed": false,
          "internalType": "uint8",
          "name": "version",
          "type": "uint8"
        }
      ],
      "name": "Initialized",
      "type": "event"
    },
    {
      "anonymous": false,
      "inputs": [
        {
          "indexed": true,
          "internalType": "address",
          "name": "previousOwner",
          "type": "address"
        },
        {
          "indexed": true,
          "internalType": "address",
          "name": "newOwner",
          "type": "address"
        }
      ],
      "name": "OwnershipTransferred",
      "type": "event"
    },
    {
      "anonymous": false,
      "inputs": [
        {
          "indexed": false,
          "internalType": "string",
          "name": "id",
          "type": "string"
        }
      ],
      "name": "ReportAccepted",
      "type": "event"
    },
    {
      "anonymous": false,
      "inputs": [
        {
          "indexed": true,
          "internalType": "address",
          "name": "implementation",
          "type": "address"
        }
      ],
      "name": "Upgraded",
      "type": "event"
    },
    {
      "inputs": [],
      "name": "MATH_PRECISION",
      "outputs": [
        {
          "internalType": "uint256",
          "name": "",
          "type": "uint256"
        }
      ],
      "stateMutability": "view",
      "type": "function"
    },
    {
      "inputs": [
        {
          "internalType": "uint256[]",
          "name": "timestamps",
          "type": "uint256[]"
        }
      ],
      "name": "aggregateTimestamps",
      "outputs": [
        {
          "internalType": "uint256",
          "name": "",
          "type": "uint256"
        }
      ],
      "stateMutability": "pure",
      "type": "function"
    },
    {
      "inputs": [],
      "name": "blockTimestamp",
      "outputs": [
        {
          "internalType": "uint256",
          "name": "",
          "type": "uint256"
        }
      ],
      "stateMutability": "view",
      "type": "function"
    },
    {
      "inputs": [
        {
          "internalType": "uint256[]",
          "name": "proofTimestamps",
          "type": "uint256[]"
        }
      ],
      "name": "canReport",
      "outputs": [
        {
          "internalType": "bool",
          "name": "",
          "type": "bool"
        }
      ],
      "stateMutability": "view",
      "type": "function"
    },
    {
      "inputs": [],
      "name": "getLastReport",
      "outputs": [
        {
          "components": [
            {
              "internalType": "string",
              "name": "id",
              "type": "string"
            },
            {
              "internalType": "uint256",
              "name": "height",
              "type": "uint256"
            },
            {
              "internalType": "int256",
              "name": "treasury",
              "type": "int256"
            },
            {
              "components": [
                {
                  "internalType": "string",
                  "name": "id",
                  "type": "string"
                },
                {
                  "internalType": "uint256",
                  "name": "writeCapture",
                  "type": "uint256"
                },
                {
                  "internalType": "uint256",
                  "name": "writeBytes",
                  "type": "uint256"
                }
              ],
              "internalType": "struct LogStoreReportManager.Stream[]",
              "name": "streams",
              "type": "tuple[]"
            },
            {
              "components": [
                {
                  "internalType": "address",
                  "name": "id",
                  "type": "address"
                },
                {
                  "internalType": "int256",
                  "name": "amount",
                  "type": "int256"
                }
              ],
              "internalType": "struct LogStoreReportManager.Node[]",
              "name": "nodes",
              "type": "tuple[]"
            },
            {
              "components": [
                {
                  "internalType": "address",
                  "name": "id",
                  "type": "address"
                },
                {
                  "components": [
                    {
                      "internalType": "address",
                      "name": "id",
                      "type": "address"
                    },
                    {
                      "internalType": "int256",
                      "name": "amount",
                      "type": "int256"
                    }
                  ],
                  "internalType": "struct LogStoreReportManager.Node[]",
                  "name": "nodes",
                  "type": "tuple[]"
                }
              ],
              "internalType": "struct LogStoreReportManager.Delegate[]",
              "name": "delegates",
              "type": "tuple[]"
            },
            {
              "components": [
                {
                  "internalType": "address",
                  "name": "id",
                  "type": "address"
                },
                {
                  "internalType": "uint256",
                  "name": "readCapture",
                  "type": "uint256"
                },
                {
                  "internalType": "uint256",
                  "name": "readBytes",
                  "type": "uint256"
                }
              ],
              "internalType": "struct LogStoreReportManager.Consumer[]",
              "name": "consumers",
              "type": "tuple[]"
            },
            {
              "internalType": "address",
              "name": "_reporter",
              "type": "address"
            },
            {
              "internalType": "bool",
              "name": "_processed",
              "type": "bool"
            }
          ],
          "internalType": "struct LogStoreReportManager.Report",
          "name": "",
          "type": "tuple"
        }
      ],
      "stateMutability": "view",
      "type": "function"
    },
    {
      "inputs": [
        {
          "internalType": "string",
          "name": "id",
          "type": "string"
        }
      ],
      "name": "getReport",
      "outputs": [
        {
          "components": [
            {
              "internalType": "string",
              "name": "id",
              "type": "string"
            },
            {
              "internalType": "uint256",
              "name": "height",
              "type": "uint256"
            },
            {
              "internalType": "int256",
              "name": "treasury",
              "type": "int256"
            },
            {
              "components": [
                {
                  "internalType": "string",
                  "name": "id",
                  "type": "string"
                },
                {
                  "internalType": "uint256",
                  "name": "writeCapture",
                  "type": "uint256"
                },
                {
                  "internalType": "uint256",
                  "name": "writeBytes",
                  "type": "uint256"
                }
              ],
              "internalType": "struct LogStoreReportManager.Stream[]",
              "name": "streams",
              "type": "tuple[]"
            },
            {
              "components": [
                {
                  "internalType": "address",
                  "name": "id",
                  "type": "address"
                },
                {
                  "internalType": "int256",
                  "name": "amount",
                  "type": "int256"
                }
              ],
              "internalType": "struct LogStoreReportManager.Node[]",
              "name": "nodes",
              "type": "tuple[]"
            },
            {
              "components": [
                {
                  "internalType": "address",
                  "name": "id",
                  "type": "address"
                },
                {
                  "components": [
                    {
                      "internalType": "address",
                      "name": "id",
                      "type": "address"
                    },
                    {
                      "internalType": "int256",
                      "name": "amount",
                      "type": "int256"
                    }
                  ],
                  "internalType": "struct LogStoreReportManager.Node[]",
                  "name": "nodes",
                  "type": "tuple[]"
                }
              ],
              "internalType": "struct LogStoreReportManager.Delegate[]",
              "name": "delegates",
              "type": "tuple[]"
            },
            {
              "components": [
                {
                  "internalType": "address",
                  "name": "id",
                  "type": "address"
                },
                {
                  "internalType": "uint256",
                  "name": "readCapture",
                  "type": "uint256"
                },
                {
                  "internalType": "uint256",
                  "name": "readBytes",
                  "type": "uint256"
                }
              ],
              "internalType": "struct LogStoreReportManager.Consumer[]",
              "name": "consumers",
              "type": "tuple[]"
            },
            {
              "internalType": "address",
              "name": "_reporter",
              "type": "address"
            },
            {
              "internalType": "bool",
              "name": "_processed",
              "type": "bool"
            }
          ],
          "internalType": "struct LogStoreReportManager.Report",
          "name": "",
          "type": "tuple"
        }
      ],
      "stateMutability": "view",
      "type": "function"
    },
    {
      "inputs": [],
      "name": "getReporters",
      "outputs": [
        {
          "internalType": "address[]",
          "name": "reporters",
          "type": "address[]"
        }
      ],
      "stateMutability": "view",
      "type": "function"
    },
    {
      "inputs": [
        {
          "internalType": "address",
          "name": "_owner",
          "type": "address"
        },
        {
          "internalType": "uint256",
          "name": "_reportTimeBuffer",
          "type": "uint256"
        },
        {
          "internalType": "uint256",
          "name": "__test_block_timestamp",
          "type": "uint256"
        }
      ],
      "name": "initialize",
      "outputs": [],
      "stateMutability": "nonpayable",
      "type": "function"
    },
    {
      "inputs": [],
      "name": "owner",
      "outputs": [
        {
          "internalType": "address",
          "name": "",
          "type": "address"
        }
      ],
      "stateMutability": "view",
      "type": "function"
    },
    {
      "inputs": [
        {
          "internalType": "string",
          "name": "id",
          "type": "string"
        }
      ],
      "name": "processReport",
      "outputs": [],
      "stateMutability": "nonpayable",
      "type": "function"
    },
    {
      "inputs": [],
      "name": "proxiableUUID",
      "outputs": [
        {
          "internalType": "bytes32",
          "name": "",
          "type": "bytes32"
        }
      ],
      "stateMutability": "view",
      "type": "function"
    },
    {
      "inputs": [
        {
          "internalType": "address[]",
          "name": "submittedNodes",
          "type": "address[]"
        }
      ],
      "name": "quorumIsMet",
      "outputs": [
        {
          "internalType": "bool",
          "name": "isMet",
          "type": "bool"
        }
      ],
      "stateMutability": "view",
      "type": "function"
    },
    {
      "inputs": [],
      "name": "renounceOwnership",
      "outputs": [],
      "stateMutability": "nonpayable",
      "type": "function"
    },
    {
      "inputs": [
        {
          "internalType": "string",
          "name": "id",
          "type": "string"
        },
        {
          "internalType": "uint256",
          "name": "blockHeight",
          "type": "uint256"
        },
        {
          "internalType": "string[]",
          "name": "streams",
          "type": "string[]"
        },
        {
          "internalType": "uint256[]",
          "name": "writeCaptureAmounts",
          "type": "uint256[]"
        },
        {
          "internalType": "uint256[]",
          "name": "writeBytes",
          "type": "uint256[]"
        },
        {
          "internalType": "address[]",
          "name": "readConsumerAddresses",
          "type": "address[]"
        },
        {
          "internalType": "uint256[]",
          "name": "readCaptureAmounts",
          "type": "uint256[]"
        },
        {
          "internalType": "uint256[]",
          "name": "readBytes",
          "type": "uint256[]"
        },
        {
          "internalType": "address[]",
          "name": "nodes",
          "type": "address[]"
        },
        {
          "internalType": "int256[]",
          "name": "nodeChanges",
          "type": "int256[]"
        },
        {
          "internalType": "address[]",
          "name": "delegates",
          "type": "address[]"
        },
        {
          "internalType": "address[][]",
          "name": "delegateNodes",
          "type": "address[][]"
        },
        {
          "internalType": "int256[][]",
          "name": "delegateNodeChanges",
          "type": "int256[][]"
        },
        {
          "internalType": "int256",
          "name": "treasurySupplyChange",
          "type": "int256"
        },
        {
          "internalType": "address[]",
          "name": "addresses",
          "type": "address[]"
        },
        {
          "internalType": "uint256[]",
          "name": "proofTimestamps",
          "type": "uint256[]"
        },
        {
          "internalType": "bytes[]",
          "name": "signatures",
          "type": "bytes[]"
        }
      ],
      "name": "report",
      "outputs": [],
      "stateMutability": "nonpayable",
      "type": "function"
    },
    {
      "inputs": [],
      "name": "reportTimeBuffer",
      "outputs": [
        {
          "internalType": "uint256",
          "name": "",
          "type": "uint256"
        }
      ],
      "stateMutability": "view",
      "type": "function"
    },
    {
      "inputs": [
        {
          "internalType": "address",
          "name": "",
          "type": "address"
        }
      ],
      "name": "reputationOf",
      "outputs": [
        {
          "internalType": "uint256",
          "name": "",
          "type": "uint256"
        }
      ],
      "stateMutability": "view",
      "type": "function"
    },
    {
      "inputs": [
        {
          "internalType": "uint256",
          "name": "_reportTimeBuffer",
          "type": "uint256"
        }
      ],
      "name": "setReportTimeBuffer",
      "outputs": [],
      "stateMutability": "nonpayable",
      "type": "function"
    },
    {
      "inputs": [
        {
          "internalType": "address",
          "name": "newOwner",
          "type": "address"
        }
      ],
      "name": "transferOwnership",
      "outputs": [],
      "stateMutability": "nonpayable",
      "type": "function"
    },
    {
      "inputs": [
        {
          "internalType": "address",
          "name": "newImplementation",
          "type": "address"
        }
      ],
      "name": "upgradeTo",
      "outputs": [],
      "stateMutability": "nonpayable",
      "type": "function"
    },
    {
      "inputs": [
        {
          "internalType": "address",
          "name": "newImplementation",
          "type": "address"
        },
        {
          "internalType": "bytes",
          "name": "data",
          "type": "bytes"
        }
      ],
      "name": "upgradeToAndCall",
      "outputs": [],
      "stateMutability": "payable",
      "type": "function"
    }
  ],
  "bytecode": "0x60a080604052346100315730608052614123908161003782396080518181816108910152818161099e0152610cb50152f35b600080fdfe6104c0604052600436101561001357600080fd5b60003560e01c80630e0a17131461291657806312e63d71146126e45780631bfdc98a14610fc557806325cbbdff14610f7957806331c74e0114610f5b5780633659cfe614610c905780634f1ef2861461094c57806352d1902d146108765780636f94990d1461084b57806370f46202146107e6578063715018a61461078b5780637a1ac61e1461051d5780638da5cb5b146104f6578063adb61832146104d3578063d91b99e8146104b3578063db89c04414610479578063dbc2d3701461042b578063eefa7a3e14610222578063f2fde38b146101935763f6883c05146100f957600080fd5b3461018e57602036600319011261018e5760043567ffffffffffffffff811161018e57602061012e6007923690600401612a4a565b9190610138612dd9565b826040519384928337810160fe81520301902001740100000000000000000000000000000000000000007fffffffffffffffffffffff00ffffffffffffffffffffffffffffffffffffffff825416179055600080f35b600080fd5b3461018e57602036600319011261018e576101ac612d12565b6101b4612dd9565b6001600160a01b038116156101ce576101cc90612e31565b005b60405162461bcd60e51b815260206004820152602660248201527f4f776e61626c653a206e6577206f776e657220697320746865207a65726f206160448201526564647265737360d01b6064820152608490fd5b3461018e57600036600319011261018e5761023b6130d4565b5061024461326e565b6040516102508161292e565b61025982613152565b8152600180830154906020918284015260029182850154604085015260038086018054610285816129a5565b916102936040519384612983565b81835260009081528481208685878087015b8686106103f1575050505050505060608601526102c4600487016131f8565b60808601526005860180546102d8816129a5565b916102e66040519384612983565b81835260009081528481208688878087015b8686106103b7575050505050505060a08601526006860180549261031b846129a5565b956103296040519788612983565b8487526000928352818320908288015b86851061037b5760c08a0189905260078b01546001600160a01b03811660e08c015260a01c60ff1615156101008b0152604051806103778c82612b08565b0390f35b8584899260405161038b8161294b565b6001600160a01b0387541681528487015483820152858701546040820152815201930194019391610339565b6040516103c381612967565b6001600160a01b0386541681526103db8587016131f8565b83820152815201920192019190888789926102f8565b6040516103fd8161294b565b61040686613152565b815284860154838201528c8601546040820152815201920192019190858789926102a5565b3461018e57602036600319011261018e57600435610447612dd9565b6402540be400908181029181830414901517156104635760fb55005b634e487b7160e01b600052601160045260246000fd5b3461018e57602036600319011261018e576001600160a01b0361049a612d12565b1660005260fc6020526020604060002054604051908152f35b3461018e57600036600319011261018e5760206040516402540be4008152f35b3461018e57600036600319011261018e5760206104ee613cfb565b604051908152f35b3461018e57600036600319011261018e5760206001600160a01b0360975416604051908152f35b3461018e57606036600319011261018e57610536612d12565b6024908135916044356000549360ff91828660081c16159586809761077f575b8015610769575b156106ff5760ff198116600117600055866106ed575b5061058d8360005460081c1661058881613062565b613062565b61059633612e31565b6105b38360005460081c166105aa81613062565b61058881613062565b600160c9556001600160a01b03851692836001600160a01b03198254161790556402540be40091828102908082048414901517156106d85760fb556103e8908181029181830414811517156106d8576509184e72a000029181830414901517156106c35761010055610623612dd9565b15610670575061063290612e31565b61063857005b61ff0019600054166000557f7f26b83ff96e1f2b6a682f133852f6798a09c465da95921460cefb3847402498602060405160018152a1005b60849060266040519162461bcd60e51b8352602060048401528201527f4f776e61626c653a206e6577206f776e657220697320746865207a65726f206160448201526564647265737360d01b6064820152fd5b82634e487b7160e01b60005260116004526000fd5b84634e487b7160e01b60005260116004526000fd5b61ffff19166101011760005586610573565b60405162461bcd60e51b815260206004820152602e818701527f496e697469616c697a61626c653a20636f6e747261637420697320616c72656160448201527f647920696e697469616c697a65640000000000000000000000000000000000006064820152608490fd5b50303b15801561055d575060018482161461055d565b50600184821610610556565b3461018e57600036600319011261018e576107a4612dd9565b60006001600160a01b036097546001600160a01b03198116609755167f8be0079c531659141344cd1fd0a4f28419497f9722a3daafe3b4186f6b6457e08280a3005b3461018e57600036600319011261018e576107ff6133f4565b604051809160208083018184528251809152816040850193019160005b82811061082b57505050500390f35b83516001600160a01b03168552869550938101939281019260010161081c565b3461018e57602061086c61085e36612a0b565b6108666133f4565b33613944565b6040519015158152f35b3461018e57600036600319011261018e576001600160a01b037f00000000000000000000000000000000000000000000000000000000000000001630036108e15760206040517f360894a13ba1a3210667c828492db98dca3e2076cc3735a920a3ca505d382bbc8152f35b60405162461bcd60e51b815260206004820152603860248201527f555550535570677261646561626c653a206d757374206e6f742062652063616c60448201527f6c6564207468726f7567682064656c656761746563616c6c00000000000000006064820152608490fd5b604036600319011261018e57610960612d12565b60243567ffffffffffffffff811161018e573660238201121561018e57610991903690602481600401359101612da2565b906001600160a01b0391827f000000000000000000000000000000000000000000000000000000000000000016926109cb84301415612e79565b6109fa7f360894a13ba1a3210667c828492db98dca3e2076cc3735a920a3ca505d382bbc948286541614612eeb565b610a02612dd9565b7f4910fdfa16fed3260ed0e7147f7cc6da11a60208b5b9406d12a635614ffd91435460ff1615610a385750506101cc9150612f5d565b82919216604051936352d1902d60e01b85526020948581600481865afa60009181610c61575b50610abf5760405162461bcd60e51b815260048101879052602e60248201527f45524331393637557067726164653a206e657720696d706c656d656e7461746960448201526d6f6e206973206e6f74205555505360901b6064820152608490fd5b03610c0a57610acd82612f5d565b604051907fbc7cd75a20ee27fd9adebab32041f755214dbc6bffa90cc0225b39da2e5c2d3b600080a2825115801590610c02575b610b0757005b813b15610bb157506000828192856101cc9695519201905af43d15610ba9573d90610b3182612d86565b91610b3f6040519384612983565b82523d60008484013e5b7f416464726573733a206c6f772d6c6576656c2064656c65676174652063616c6c60405193610b778561294b565b602785528401527f206661696c656400000000000000000000000000000000000000000000000000604084015261300b565b606090610b49565b62461bcd60e51b815260048101849052602660248201527f416464726573733a2064656c65676174652063616c6c20746f206e6f6e2d636f6044820152651b9d1c9858dd60d21b6064820152608490fd5b506001610b01565b60405162461bcd60e51b815260048101859052602960248201527f45524331393637557067726164653a20756e737570706f727465642070726f786044820152681a58589b195555525160ba1b6064820152608490fd5b9091508681813d8311610c89575b610c798183612983565b8101031261018e57519087610a5e565b503d610c6f565b3461018e5760208060031936011261018e57610caa612d12565b6001600160a01b03807f000000000000000000000000000000000000000000000000000000000000000016610ce181301415612e79565b610d107f360894a13ba1a3210667c828492db98dca3e2076cc3735a920a3ca505d382bbc918383541614612eeb565b610d18612dd9565b604051908482019282841067ffffffffffffffff851117610f4557836040526000835260ff7f4910fdfa16fed3260ed0e7147f7cc6da11a60208b5b9406d12a635614ffd91435416600014610d7557505050506101cc9150612f5d565b8416906040516352d1902d60e01b81528681600481865afa60009181610f16575b50610df75760405162461bcd60e51b815260048101889052602e60248201527f45524331393637557067726164653a206e657720696d706c656d656e7461746960448201526d6f6e206973206e6f74205555505360901b6064820152608490fd5b03610ebf57610e0584612f5d565b604051907fbc7cd75a20ee27fd9adebab32041f755214dbc6bffa90cc0225b39da2e5c2d3b600080a2815115801590610eb7575b610e3f57005b833b15610e6657506101cc9392600092839251915af43d15610ba9573d90610b3182612d86565b62461bcd60e51b815260048101859052602660248201527f416464726573733a2064656c65676174652063616c6c20746f206e6f6e2d636f6044820152651b9d1c9858dd60d21b6064820152608490fd5b506000610e39565b60405162461bcd60e51b815260048101869052602960248201527f45524331393637557067726164653a20756e737570706f727465642070726f786044820152681a58589b195555525160ba1b6064820152608490fd5b9091508781813d8311610f3e575b610f2e8183612983565b8101031261018e57519088610d96565b503d610f24565b634e487b7160e01b600052604160045260246000fd5b3461018e57600036600319011261018e57602060fb54604051908152f35b3461018e57602036600319011261018e5760043567ffffffffffffffff811161018e573660238201121561018e5761086c610fc06020923690602481600401359101612d28565b613766565b3461018e5761022036600319011261018e5760043567ffffffffffffffff811161018e57610ff7903690600401612a4a565b6101a0526101c05260443567ffffffffffffffff811161018e5761101f903690600401612ce1565b6102a05260643567ffffffffffffffff811161018e57611043903690600401612ce1565b6103c0526103205260843567ffffffffffffffff811161018e5761106b903690600401612ce1565b610120526104605260a43567ffffffffffffffff811161018e57611093903690600401612ce1565b6101405260c43567ffffffffffffffff811161018e576110b7903690600401612ce1565b9060e43567ffffffffffffffff811161018e576110d8903690600401612ce1565b61044052926101043567ffffffffffffffff811161018e576110fe903690600401612ce1565b61034052610300526101243567ffffffffffffffff811161018e57611127903690600401612ce1565b9290610200526101443567ffffffffffffffff811161018e5761114e903690600401612ce1565b610240526102e0526101643567ffffffffffffffff811161018e57611177903690600401612ce1565b6104805260e0526101843567ffffffffffffffff811161018e5761119f903690600401612ce1565b6101e05260c0526101c43567ffffffffffffffff811161018e576111c7903690600401612ce1565b61040052610280526101e43567ffffffffffffffff811161018e576111f0903690600401612ce1565b608052610260526102043567ffffffffffffffff811161018e57611218903690600401612ce1565b6102205261016052602460206001600160a01b0360ff541660405192838092630c2effa360e31b82523360048301525afa9081156124e4576000916126c5575b50156126805760ff60076040516101a0516101c05182376020816101a051810160fe815203019020015460a01c1661263b5743602435111580612625575b156125e0576104005180600381020460031481151715610463576112ca906112c56102205191608051906133bd565b6133bd565b600361040051020361259b576112ea610fc0366104005161028051612d28565b156125565760606103a0526113166113046102a0516129a5565b80610360526040518061010052612983565b6102a0516101005152601f1961132e6102a0516129a5565b0160005b81811061252557505060005b6102a0518082101561145f579060406113de61135e8361145a958c613590565b929061137a611374866103c051610320516135d2565b35613e9f565b602061138d8761012051610460516135d2565b35916113c98551978895816103a0516113ae8151809289808d019101612a78565b88019186830137019183830160008152815194859201612a78565b01906020820152036020810184520182612983565b6103a0526113f0816102a0518a613590565b90611402836103c051610320516135d2565b3561142d6114178561012051610460516135d2565b3592604051946114268661294b565b3691612da2565b83526020830152604082015261144682610100516133ca565b5261145481610100516133ca565b506133a1565b61133e565b50508484611484611472610140516129a5565b80610380526040518061018052612983565b610140516101805152601f1961149c610140516129a5565b0160005b8181106124f657505060005b6101405190818110156115c6576114cf6114ca826115c194896135d2565b6135e2565b61155360546114e261137485888b6135d2565b6114f085610440518a6135d2565b35936040519485916103a05161150f8151809260208088019101612a78565b8301906bffffffffffffffffffffffff199060601b1660208201528351906115408260349660208885019101612a78565b0190838201520390810184520182612983565b6103a0526115686114ca8261014051896135d2565b6115738285886135d2565b356115828361044051886135d2565b35906001600160a01b03604051936115998561294b565b168352602083015260408201526115b382610180516133ca565b5261145481610180516133ca565b6114ac565b866115d3610340516135f6565b6102c05260005b61034051908181101561169e576115fb6114ca8261169994610300516135d2565b61163a61161561160f8487610200516135d2565b3561402d565b9161162c6040519384926103a05160208501613657565b03601f198101835282612983565b6103a0526116526114ca8261034051610300516135d2565b6116608285610200516135d2565b356001600160a01b036040519261167684612967565b168252602082015261168b826102c0516133ca565b52611454816102c0516133ca565b6115da565b6116ba6116ad610240516129a5565b6040518061042052612983565b610240516104205152601f196116d2610240516129a5565b0160006103e0525b806103e0511015611719576040516116f181612967565b600081526060602082015260206103e0516104205101015260206103e051016103e0526116da565b600060a0525b6102405160a051908110156119145761174a6117436060926104805160e05161369d565b90506135f6565b6104a0526000905b61176460a0516104805160e05161369d565b905082101561182e57611828906117bf6117936114ca8561178d60a0516104805160e05161369d565b906135d2565b9161162c6117b061160f8761178d60a0516101e05160c05161369d565b60405194859360208501613657565b916117d96114ca8261178d60a0516104805160e05161369d565b6117ef8261178d60a0516101e05160c05161369d565b356001600160a01b036040519261180584612967565b168252602082015261181a826104a0516133ca565b52611454816104a0516133ca565b90611752565b90506118a66118496114ca60a051610240516102e0516135d2565b9160405180936103a0516118668151809260208087019101612a78565b8201906bffffffffffffffffffffffff199060601b1660208201528251906118978260349560208785019101612a78565b01036014810184520182612983565b6103a0526118c06114ca60a051610240516102e0516135d2565b6001600160a01b03604051916118d583612967565b1681526104a05160208201526118f060a051610420516133ca565b5261190060a051610420516133ca565b5061190c60a0516133a1565b60a05261171f565b600160005b610400518110156124f0576119306101a43561402d565b61194082608051610260516135d2565b356119ab6060604051809360208201956101a0516101c05188376101a051830160243560208201526103a05190611981825180936020604085019101612a78565b01611996825180936020604085019101612a78565b01906040820152036040810184520182612983565b51902060206001600160a01b0360846119ce6114ca8661040051610280516135d2565b6119df866102205161016051613590565b809160405197889687956301a86b5560e41b8752166004860152602485015260606044850152816064850152848401376000828201840152601f01601f1916810103018173__$267c3dc7aa7d3fe2e28bda43a2ca27cd27$__5af480156124e4576001916000916124b5575b50151503611a6157611a5c906133a1565b611919565b505060005b1561247057611a736133f4565b611a8d611a8636608051610260516129bd565b8233613944565b1561242b5760405190611a9f8261292e565b611b0d6020611ab5366101a0516101c051612da2565b808552602435828601526101a43560408601526101005160608601526102c05160808601526104205160a08601526101805160c08601523360e086015260006101008601528160405193828580945193849201612a78565b810160fe81520301902091805192835167ffffffffffffffff8111610f4557611b368254613118565b601f81116123f9575b506020601f8211600114612390578192939495600092612385575b50508160011b916000199060031b1c19161781555b60208201516001820155604082015160028201556060820151805190680100000000000000008211610f455760038301548260038501558083106122da575b50602001906003830160005260206000206000925b8284106121a55750505050600481016080830151906020825192611be784846136f9565b019060005260206000206000915b83831061216f575050505060a0820151805190680100000000000000008211610f455760058301548260058501558083106120c7575b506020016005830160005260206000206000915b83831061202f575050505060c0820151805190680100000000000000008211610f45576006830154826006850155808310611fd6575b506020016006830160005260206000206000915b838310611f96578686600787016001600160a01b0360e0830151168154907fffffffffffffffffffffff00000000000000000000000000000000000000000074ff0000000000000000000000000000000000000000610100860151151560a01b16921617179055805191825167ffffffffffffffff8111610f4557611d0f60fd54613118565b601f8111611f3c575b506020601f8211600114611eb85781929394600092611ead575b50508160011b916000199060031b1c19161760fd555b6000805b8251821015611e6e576001600160a01b03611d6783856133ca565b51163314600014611da157503360005260fc6020526040600020805490600a82018092116104635755611d9b6001916133a1565b90611d4c565b9081611e3557806001600160a01b03611dbd611d9b93866133ca565b511660005260fc8060205260056040600020541015600014611e0e576005905b6001600160a01b03611def84886133ca565b5116600052602052611e0760406000209182546133b0565b90556133a1565b6001600160a01b03611e2083876133ca565b51166000528060205260406000205490611ddd565b6001600160a01b03611e4782856133ca565b511660005260fc60205260406000209081546001810180911161046357611d9b92556133a1565b7fc53a4e1db72f8c6fde77b85b4cc21a59f9896e9d7285f890075356dbd528d1cd611ea88551604051918291602083526020830190612a9b565b0390a1005b015190508480611d32565b601f1982169060fd6000527f9346ac6dd7de6b96975fec380d4d994c4c12e6a8897544f22915316cc6cca2809160005b818110611f2457509583600195969710611f0b575b505050811b0160fd55611d48565b015160001960f88460031b161c19169055848080611efd565b9192602060018192868b015181550194019201611ee8565b611f869060fd6000527f9346ac6dd7de6b96975fec380d4d994c4c12e6a8897544f22915316cc6cca280601f840160051c81019160208510611f8c575b601f0160051c01906136e2565b84611d18565b9091508190611f79565b60036020826040600194516001600160a01b038151166001600160a01b031988541617875583810151868801550151600286015501920192019190611c89565b6003818102048103610463576003838102048303610463576006840160005260206000208360030281015b8260030282018110612014575050611c75565b80600060039255600060018201556000600282015501612001565b80516001600160a01b038151166001600160a01b031984541617835560206001840191015190602082519261206484846136f9565b01906000526020600020906000905b83821061209157505050506002602060019201920192019190611c3f565b600260208281600194516001600160a01b038151166001600160a01b031989541617885501518487015501930191019091612073565b6001600160ff1b0381168103610463576001600160ff1b0383168303610463576005840160005260206000208360011b81015b8260011b8201811061210d575050611c2b565b600081556001810154600060018301558061212c575b506002016120fa565b6001600160ff1b0381168103610463576001820160005260206000209060011b8101905b81811061215d5750612123565b60008082556001820155600201612150565b600260208281600194516001600160a01b038151166001600160a01b031988541617875501518486015501920192019190611bf5565b8051805180519067ffffffffffffffff8211610f45576121c58554613118565b601f811161229d575b50602090601f831160011461222b576003938360209460019794604094600092612220575b505060001982881b1c191690871b1787555b83810151868801550151600286015501920193019290611bc3565b015190508e806121f3565b908560005260206000209160005b601f1985168110612285575093600184819794604094600398602098601f1981161061226d575b505050811b018755612205565b0151600019838a1b60f8161c191690558e8080612260565b91926020600181928685015181550194019201612239565b6122ca908660005260206000206005601f8601811c820192602087106122d0575b601f01901c01906136e2565b8a6121ce565b91925082916122be565b6003818102048103610463576003838102048303610463576003840160005260206000208360030281015b8260030282018110612318575050611bae565b8061232560039254613118565b80612340575b50600060018201556000600282015501612305565b601f81116001146123575750600081555b8961232b565b61237690826000526001601f6020600020920160051c820191016136e2565b60006020812081835555612351565b015190508580611b5a565b8260005260206000209060005b601f19841681106123e1575060019394959683601f198116106123c8575b505050811b018155611b6f565b015160001960f88460031b161c191690558580806123bb565b9091602060018192858b01518155019301910161239d565b61242590836000526020600020601f840160051c81019160208510611f8c57601f0160051c01906136e2565b85611b3f565b60405162461bcd60e51b815260206004820152601560248201527f6572726f725f696e76616c69645265706f7274657200000000000000000000006044820152606490fd5b60405162461bcd60e51b815260206004820152601d60248201527f6572726f725f696e76616c69645265706f72745369676e6174757265730000006044820152606490fd5b6124d7915060203d6020116124dd575b6124cf8183612983565b810190613578565b84611a4b565b503d6124c5565b6040513d6000823e3d90fd5b50611a66565b6020906040516125058161294b565b6000815260008382015260006040820152828261018051010152016114a0565b6020906040516125348161294b565b6103a05181526000838201526000604082015282826101005101015201611332565b60405162461bcd60e51b815260206004820152601260248201527f6572726f725f71756f72756d4e6f744d657400000000000000000000000000006044820152606490fd5b60405162461bcd60e51b815260206004820152601360248201527f6572726f725f696e76616c696450726f6f6673000000000000000000000000006044820152606490fd5b60405162461bcd60e51b815260206004820152601360248201527f6572726f725f696e76616c69645265706f7274000000000000000000000000006044820152606490fd5b50600161263061326e565b015460243511611296565b60405162461bcd60e51b815260206004820152601c60248201527f6572726f725f7265706f7274416c726561647950726f636573736564000000006044820152606490fd5b60405162461bcd60e51b815260206004820152601360248201527f6572726f725f7374616b655265717569726564000000000000000000000000006044820152606490fd5b6126de915060203d6020116124dd576124cf8183612983565b87611258565b3461018e5760208060031936011261018e5760043567ffffffffffffffff811161018e5761271782913690600401612a4a565b91906127216130d4565b50826040519384928337810160fe81520301902090604051906127438261292e565b61274c83613152565b82526001808401548284015260029182850154604085015260038086018054612774816129a5565b916127826040519384612983565b81835260009081528481208685878087015b8686106128dc575050505050505060608601526127b3600487016131f8565b60808601526005860180546127c7816129a5565b916127d56040519384612983565b81835260009081528481208688878087015b8686106128a2575050505050505060a08601526006860180549261280a846129a5565b956128186040519788612983565b8487526000928352818320908288015b8685106128665760c08a0189905260078b01546001600160a01b03811660e08c015260a01c60ff1615156101008b0152604051806103778c82612b08565b858489926040516128768161294b565b6001600160a01b0387541681528487015483820152858701546040820152815201930194019391612828565b6040516128ae81612967565b6001600160a01b0386541681526128c68587016131f8565b83820152815201920192019190888789926127e7565b6040516128e88161294b565b6128f186613152565b815284860154838201528c860154604082015281520192019201919085878992612794565b3461018e5760206104ee61292936612a0b565b6138d4565b610120810190811067ffffffffffffffff821117610f4557604052565b6060810190811067ffffffffffffffff821117610f4557604052565b6040810190811067ffffffffffffffff821117610f4557604052565b90601f8019910116810190811067ffffffffffffffff821117610f4557604052565b67ffffffffffffffff8111610f455760051b60200190565b92916129c8826129a5565b916129d66040519384612983565b829481845260208094019160051b810192831161018e57905b8282106129fc5750505050565b813581529083019083016129ef565b602060031982011261018e576004359067ffffffffffffffff821161018e578060238301121561018e57816024612a47936004013591016129bd565b90565b9181601f8401121561018e5782359167ffffffffffffffff831161018e576020838186019501011161018e57565b60005b838110612a8b5750506000910152565b8181015183820152602001612a7b565b90602091612ab481518092818552858086019101612a78565b601f01601f1916010190565b90815180825260208080930193019160005b828110612ae0575050505090565b835180516001600160a01b031686528201518583015260409094019392810192600101612ad2565b602091828252805190612b28610120928386860152610140850190612a9b565b93808201516040908186015280830151916060928387015282840151601f19978888820301608089015281518082528382019184808360051b8301019401926000915b888d858510612c965750505050505050612b93906080860151898983030160a08a0152612ac0565b9160a085015192888882030160c089015283518082528382019184808360051b8301019601926000915b8c848410612c495750505050505060c0850151978784030160e08801528180895194858152019801936000915b848310612c18575050505050506001600160a01b0360e0820151169061010091828501520151151591015290565b855180516001600160a01b03168b52808501518b8601528101518a8201529881019894830194600190920191612bea565b9680612c828a89838a9e9b9c9a8798999a9b829f9860019903018a52516001600160a01b03815116845201519181858201520190612ac0565b9a0193019301919392909796959497612bbd565b9780999891888293856001969798999a9b030187528a80612cc18c5194855190808652850190612a9b565b938581015186850152015191015297019301930191939290969596612b6b565b9181601f8401121561018e5782359167ffffffffffffffff831161018e576020808501948460051b01011161018e57565b600435906001600160a01b038216820361018e57565b9291612d33826129a5565b91612d416040519384612983565b829481845260208094019160051b810192831161018e57905b828210612d675750505050565b81356001600160a01b038116810361018e578152908301908301612d5a565b67ffffffffffffffff8111610f4557601f01601f191660200190565b929192612dae82612d86565b91612dbc6040519384612983565b82948184528183011161018e578281602093846000960137010152565b6001600160a01b03609754163303612ded57565b606460405162461bcd60e51b815260206004820152602060248201527f4f776e61626c653a2063616c6c6572206973206e6f7420746865206f776e65726044820152fd5b609754906001600160a01b0380911691826001600160a01b0319821617609755167f8be0079c531659141344cd1fd0a4f28419497f9722a3daafe3b4186f6b6457e0600080a3565b15612e8057565b60405162461bcd60e51b815260206004820152602c60248201527f46756e6374696f6e206d7573742062652063616c6c6564207468726f7567682060448201527f64656c656761746563616c6c00000000000000000000000000000000000000006064820152608490fd5b15612ef257565b60405162461bcd60e51b815260206004820152602c60248201527f46756e6374696f6e206d7573742062652063616c6c6564207468726f7567682060448201527f6163746976652070726f787900000000000000000000000000000000000000006064820152608490fd5b803b15612fa0576001600160a01b037f360894a13ba1a3210667c828492db98dca3e2076cc3735a920a3ca505d382bbc91166001600160a01b0319825416179055565b60405162461bcd60e51b815260206004820152602d60248201527f455243313936373a206e657720696d706c656d656e746174696f6e206973206e60448201527f6f74206120636f6e7472616374000000000000000000000000000000000000006064820152608490fd5b90919015613017575090565b8151156130275750805190602001fd5b60405162461bcd60e51b81526020600482015290819061304b906024830190612a9b565b0390fd5b8181029291811591840414171561046357565b1561306957565b60405162461bcd60e51b815260206004820152602b60248201527f496e697469616c697a61626c653a20636f6e7472616374206973206e6f74206960448201527f6e697469616c697a696e670000000000000000000000000000000000000000006064820152608490fd5b604051906130e18261292e565b600061010083606080825283602083015283604083015280808301528060808301528060a083015260c08201528260e08201520152565b90600182811c92168015613148575b602083101461313257565b634e487b7160e01b600052602260045260246000fd5b91607f1691613127565b906040519182600082549261316684613118565b9081845260019485811690816000146131d55750600114613192575b505061319092500383612983565b565b9093915060005260209081600020936000915b8183106131bd57505061319093508201013880613182565b855488840185015294850194879450918301916131a5565b91505061319094506020925060ff191682840152151560051b8201013880613182565b908154613204816129a5565b9260409361321485519182612983565b828152809460208092019260005281600020906000935b85851061323a57505050505050565b600284600192845161324b81612967565b6001600160a01b038754168152848701548382015281520193019401939161322b565b60405160fd5481600061328083613118565b926001908181169081156132fd57506001146132a7575b506020925060fe81520301902090565b60fd600090815291507f9346ac6dd7de6b96975fec380d4d994c4c12e6a8897544f22915316cc6cca2805b8483106132e757505050602091810138613297565b80548684015285935060209092019181016132d2565b60ff19168452506020938015150283019150389050613297565b602090818184031261018e5780519067ffffffffffffffff821161018e57019180601f8401121561018e57825161334d816129a5565b9361335b6040519586612983565b818552838086019260051b82010192831161018e578301905b828210613382575050505090565b81516001600160a01b038116810361018e578152908301908301613374565b60001981146104635760010190565b9190820391821161046357565b9190820180921161046357565b80518210156133de5760209160051b010190565b634e487b7160e01b600052603260045260246000fd5b6001600160a01b03908160ff54169160408051808095636085a91160e11b8252600091829160049889915afa91821561356c578192613548575b50818251958291600019918289019189831191825b613535578386101561352757865b61345b878d6133b0565b8681019081116134f95781101561350d57600181018082116134f9579089828d8b8e8261348b6134bc98876133ca565b5116825260fc60208181528284205493856134a68a8a6133ca565b51169052528d2054106134c1575b5050506133a1565b613451565b806134dc856134e5936134d486886133ca565b5116956133ca565b5116918d6133ca565b526134f0828c6133ca565b5289388d6134b4565b50634e487b7160e01b885260118d52602488fd5b50919461351c909391936133a1565b949182939193613443565b995099505050505050505050565b634e487b7160e01b875260118c52602487fd5b6135659192503d8084833e61355d8183612983565b810190613317565b903861342e565b508251903d90823e3d90fd5b9081602091031261018e5751801515810361018e5790565b91908110156133de5760051b81013590601e198136030182121561018e57019081359167ffffffffffffffff831161018e57602001823603811361018e579190565b91908110156133de5760051b0190565b356001600160a01b038116810361018e5790565b90613600826129a5565b60409061360f82519182612983565b8381528093613620601f19916129a5565b0191600090815b848110613635575050505050565b602090825161364381612967565b848152828581830152828701015201613627565b60209061366e601495949382815194859201612a78565b01906bffffffffffffffffffffffff199060601b1681526136988251809360208685019101612a78565b010190565b91908110156133de5760051b81013590601e198136030182121561018e57019081359167ffffffffffffffff831161018e576020018260051b3603811361018e579190565b8181106136ed575050565b600081556001016136e2565b680100000000000000008211610f4557805482825580831061371a57505050565b6001600160ff1b038082168203610463578316830361046357600091825260208220600191821b810193821b015b8381106137555750505050565b808360029255838382015501613748565b90600091600090816001600160a01b0392818460ff541660405193848092636085a91160e11b825260049384915afa9384156138c95782946138ad575b508351946402540be400908187029680880483149015171561389a5760019998978a97881c96859b5b6137df575b505050505050505050909150565b80518c1015613895578886838e835b61382e575b50505050878710156138135761380b899a9b9c6133a1565b9b9a996137cc565b505050505050505091509150813880808080808080806137d1565b86518310156138905761384190856133ca565b51168461384e83886133ca565b5116146138665761385e906133a1565b838e836137ee565b50509583810180911161387d57958838838e6137f3565b634e487b7160e01b865260118552602486fd5b6137f3565b6137d1565b634e487b7160e01b845260118352602484fd5b6138c29194503d8084833e61355d8183612983565b92386137a3565b6040513d84823e3d90fd5b90600091825b815184101561391f576138ed84836133ca565b51906402540be400918281029281840414901517156104635761391991613913916133bd565b936133a1565b926138da565b9192505190811561392e570490565b634e487b7160e01b600052601260045260246000fd5b92600092839290613954906138d4565b9461395e86613d37565b916040916139a1835161397081612967565b601281526020957f6d65616e50726f6f6654696d657374616d70000000000000000000000000000087830152613ca1565b6139a9613cfb565b916139f06139b684613d37565b8551906139c282612967565b600e82527f70726563697365426c6f636b547300000000000000000000000000000000000088830152613ca1565b835160016139fd82612967565b808252863681840137602182015b6000190190600a906f181899199a1a9b1b9c1cb0b131b232b360811b8282061a8353049081613a0b5750508451613a7391613a4582612967565b600682527f6379636c6573000000000000000000000000000000000000000000000000000088830152613ca1565b865b8151811015613c95576001600160a01b0380613a9183856133ca565b511690841614613aa957613aa4906133a1565b613a75565b92939495969750505060fb54613abf818361304f565b80800460011481151715613c6d5788613ad7916133bd565b9060018301808411613c815790613aed9161304f565b80800460011481151715613c6d57613b16613b1061319098999a613b50936133bd565b93613d37565b855190613b2282612967565b600f82527f7265706f72746572496e6465783a20000000000000000000000000000000000088830152613ca1565b613b96613b5c82613d37565b855190613b6882612967565b600782527f73746172743a200000000000000000000000000000000000000000000000000088830152613ca1565b613bdc613ba283613d37565b855190613bae82612967565b600582527f656e643a2000000000000000000000000000000000000000000000000000000088830152613ca1565b8210159182613c63575b5050809550600014613c34576c2b30b634b22932b837b93a32b960991b8151613c0e81612967565b60018152601560fa1b84820152915b5192613c2884612967565b600d8452830152613ca1565b6c2b30b634b22932b837b93a32b960991b8151613c5081612967565b60018152602360f91b8482015291613c1d565b1090503880613be6565b634e487b7160e01b88526011600452602488fd5b634e487b7160e01b89526011600452602489fd5b50505050505091925050565b6000919061162c613ce88493604051928391613cd66020840196634b5c427760e01b8852604060248601526064850190612a9b565b83810360231901604485015290612a9b565b51906a636f6e736f6c652e6c6f675afa50565b6101005480612a4757506103e8804202904282041442151715610463576509184e72a0004202908082046402540be40014901517156104635790565b806000917a184f03e93ff9f4daa797ed6e38ed64bf6a1f01000000000000000080821015613e91575b506d04ee2d6d415b85acef810000000080831015613e82575b50662386f26fc1000080831015613e73575b506305f5e10080831015613e64575b5061271080831015613e55575b506064821015613e45575b600a80921015613e3b575b60019081602181860195613dd087612d86565b96613dde6040519889612983565b808852613ded601f1991612d86565b01366020890137860101905b613e05575b5050505090565b600019019083906f181899199a1a9b1b9c1cb0b131b232b360811b8282061a835304918215613e3657919082613df9565b613dfe565b9160010191613dbd565b9190606460029104910191613db2565b60049193920491019138613da7565b60089193920491019138613d9a565b60109193920491019138613d8b565b60209193920491019138613d79565b604093508104915038613d60565b806000908260801c80614021575b508060401c80614014575b5060209181831c80614009575b5060109180831c80613ffc575b5060081c613ff4575b6001809101939184821b946001600160ff1b0381160361046357600285019485811161046357613f23613f0d87612d86565b96613f1b6040519889612983565b808852612d86565b86860190601f19013682378651156133de576030905385518310156133de57607860218701538281018091116104635791905b818311613fab57505050613f68575090565b6064906040519062461bcd60e51b825280600483015260248201527f537472696e67733a20686578206c656e67746820696e73756666696369656e746044820152fd5b909192600f8116828110156133de5786518510156133de576f181899199a1a9b1b9c1cb0b131b232b360811b901a85858801015360041c92801561046357600019019190613f56565b600101613edb565b6002915091019038613ed2565b915060040138613ec5565b6008915091019038613eb8565b91505060109038613ead565b6000808212919082156140a857614069612a479260209260405161405081612967565b60018152602d60f81b85820152955b6140a25750613e9f565b9260405193816140828693518092868087019101612a78565b820161409682518093868085019101612a78565b01038084520182612983565b03613e9f565b6040516020810181811067ffffffffffffffff8211176140d95760405281815292612a47926020926140699261405f565b634e487b7160e01b83526041600452602483fdfea264697066735822122004dd55c1f55fa3ba801ad28c9a46b6c3b2eac1b21d6425fa2d95a58fcc492d0564736f6c63430008110033",
  "linkReferences": {
    "src/lib/VerifySignature.sol": {
      "VerifySignature": [
        {
          "length": 20,
          "start": 6748
        }
      ]
    }
  },
  "deployedLinkReferences": {
    "src/lib/VerifySignature.sol": {
      "VerifySignature": [
        {
          "length": 20,
          "start": 6693
        }
      ]
    }
  }
}