{
  "_format": "hh-sol-artifact-1",
  "contractName": "LogStoreReportManager",
  "sourceName": "src/ReportManager.sol",
  "abi": [
    {
      "anonymous": false,
      "inputs": [
        {
          "indexed": false,
          "internalType": "address",
          "name": "previousAdmin",
          "type": "address"
        },
        {
          "indexed": false,
          "internalType": "address",
          "name": "newAdmin",
          "type": "address"
        }
      ],
      "name": "AdminChanged",
      "type": "event"
    },
    {
      "anonymous": false,
      "inputs": [
        {
          "indexed": true,
          "internalType": "address",
          "name": "beacon",
          "type": "address"
        }
      ],
      "name": "BeaconUpgraded",
      "type": "event"
    },
    {
      "anonymous": false,
      "inputs": [
        {
          "indexed": false,
          "internalType": "uint8",
          "name": "version",
          "type": "uint8"
        }
      ],
      "name": "Initialized",
      "type": "event"
    },
    {
      "anonymous": false,
      "inputs": [
        {
          "indexed": false,
          "internalType": "bool",
          "name": "isMet",
          "type": "bool"
        }
      ],
      "name": "Logger",
      "type": "event"
    },
    {
      "anonymous": false,
      "inputs": [
        {
          "indexed": true,
          "internalType": "address",
          "name": "previousOwner",
          "type": "address"
        },
        {
          "indexed": true,
          "internalType": "address",
          "name": "newOwner",
          "type": "address"
        }
      ],
      "name": "OwnershipTransferred",
      "type": "event"
    },
    {
      "anonymous": false,
      "inputs": [
        {
          "indexed": false,
          "internalType": "string",
          "name": "id",
          "type": "string"
        }
      ],
      "name": "ReportAccepted",
      "type": "event"
    },
    {
      "anonymous": false,
      "inputs": [
        {
          "indexed": true,
          "internalType": "address",
          "name": "implementation",
          "type": "address"
        }
      ],
      "name": "Upgraded",
      "type": "event"
    },
    {
      "inputs": [],
      "name": "MATH_PRECISION",
      "outputs": [
        {
          "internalType": "uint256",
          "name": "",
          "type": "uint256"
        }
      ],
      "stateMutability": "view",
      "type": "function"
    },
    {
      "inputs": [
        {
          "internalType": "uint256[]",
          "name": "timestamps",
          "type": "uint256[]"
        }
      ],
      "name": "aggregateTimestamps",
      "outputs": [
        {
          "internalType": "uint256",
          "name": "",
          "type": "uint256"
        }
      ],
      "stateMutability": "pure",
      "type": "function"
    },
    {
      "inputs": [],
      "name": "getLastReport",
      "outputs": [
        {
          "components": [
            {
              "internalType": "string",
              "name": "id",
              "type": "string"
            },
            {
              "internalType": "uint256",
              "name": "height",
              "type": "uint256"
            },
            {
              "internalType": "int256",
              "name": "treasury",
              "type": "int256"
            },
            {
              "components": [
                {
                  "internalType": "string",
                  "name": "id",
                  "type": "string"
                },
                {
                  "internalType": "uint256",
                  "name": "writeCapture",
                  "type": "uint256"
                },
                {
                  "internalType": "uint256",
                  "name": "writeBytes",
                  "type": "uint256"
                }
              ],
              "internalType": "struct LogStoreReportManager.Stream[]",
              "name": "streams",
              "type": "tuple[]"
            },
            {
              "components": [
                {
                  "internalType": "address",
                  "name": "id",
                  "type": "address"
                },
                {
                  "internalType": "int256",
                  "name": "amount",
                  "type": "int256"
                }
              ],
              "internalType": "struct LogStoreReportManager.Node[]",
              "name": "nodes",
              "type": "tuple[]"
            },
            {
              "components": [
                {
                  "internalType": "address",
                  "name": "id",
                  "type": "address"
                },
                {
                  "components": [
                    {
                      "internalType": "address",
                      "name": "id",
                      "type": "address"
                    },
                    {
                      "internalType": "int256",
                      "name": "amount",
                      "type": "int256"
                    }
                  ],
                  "internalType": "struct LogStoreReportManager.Node[]",
                  "name": "nodes",
                  "type": "tuple[]"
                }
              ],
              "internalType": "struct LogStoreReportManager.Delegate[]",
              "name": "delegates",
              "type": "tuple[]"
            },
            {
              "components": [
                {
                  "internalType": "address",
                  "name": "id",
                  "type": "address"
                },
                {
                  "internalType": "uint256",
                  "name": "readCapture",
                  "type": "uint256"
                },
                {
                  "internalType": "uint256",
                  "name": "readBytes",
                  "type": "uint256"
                }
              ],
              "internalType": "struct LogStoreReportManager.Consumer[]",
              "name": "consumers",
              "type": "tuple[]"
            },
            {
              "internalType": "address",
              "name": "_reporter",
              "type": "address"
            },
            {
              "internalType": "bool",
              "name": "_processed",
              "type": "bool"
            }
          ],
          "internalType": "struct LogStoreReportManager.Report",
          "name": "",
          "type": "tuple"
        }
      ],
      "stateMutability": "view",
      "type": "function"
    },
    {
      "inputs": [
        {
          "internalType": "string",
          "name": "id",
          "type": "string"
        }
      ],
      "name": "getReport",
      "outputs": [
        {
          "components": [
            {
              "internalType": "string",
              "name": "id",
              "type": "string"
            },
            {
              "internalType": "uint256",
              "name": "height",
              "type": "uint256"
            },
            {
              "internalType": "int256",
              "name": "treasury",
              "type": "int256"
            },
            {
              "components": [
                {
                  "internalType": "string",
                  "name": "id",
                  "type": "string"
                },
                {
                  "internalType": "uint256",
                  "name": "writeCapture",
                  "type": "uint256"
                },
                {
                  "internalType": "uint256",
                  "name": "writeBytes",
                  "type": "uint256"
                }
              ],
              "internalType": "struct LogStoreReportManager.Stream[]",
              "name": "streams",
              "type": "tuple[]"
            },
            {
              "components": [
                {
                  "internalType": "address",
                  "name": "id",
                  "type": "address"
                },
                {
                  "internalType": "int256",
                  "name": "amount",
                  "type": "int256"
                }
              ],
              "internalType": "struct LogStoreReportManager.Node[]",
              "name": "nodes",
              "type": "tuple[]"
            },
            {
              "components": [
                {
                  "internalType": "address",
                  "name": "id",
                  "type": "address"
                },
                {
                  "components": [
                    {
                      "internalType": "address",
                      "name": "id",
                      "type": "address"
                    },
                    {
                      "internalType": "int256",
                      "name": "amount",
                      "type": "int256"
                    }
                  ],
                  "internalType": "struct LogStoreReportManager.Node[]",
                  "name": "nodes",
                  "type": "tuple[]"
                }
              ],
              "internalType": "struct LogStoreReportManager.Delegate[]",
              "name": "delegates",
              "type": "tuple[]"
            },
            {
              "components": [
                {
                  "internalType": "address",
                  "name": "id",
                  "type": "address"
                },
                {
                  "internalType": "uint256",
                  "name": "readCapture",
                  "type": "uint256"
                },
                {
                  "internalType": "uint256",
                  "name": "readBytes",
                  "type": "uint256"
                }
              ],
              "internalType": "struct LogStoreReportManager.Consumer[]",
              "name": "consumers",
              "type": "tuple[]"
            },
            {
              "internalType": "address",
              "name": "_reporter",
              "type": "address"
            },
            {
              "internalType": "bool",
              "name": "_processed",
              "type": "bool"
            }
          ],
          "internalType": "struct LogStoreReportManager.Report",
          "name": "",
          "type": "tuple"
        }
      ],
      "stateMutability": "view",
      "type": "function"
    },
    {
      "inputs": [],
      "name": "getReporters",
      "outputs": [
        {
          "internalType": "address[]",
          "name": "reporters",
          "type": "address[]"
        }
      ],
      "stateMutability": "view",
      "type": "function"
    },
    {
      "inputs": [
        {
          "internalType": "address",
          "name": "_owner",
          "type": "address"
        },
        {
          "internalType": "uint256",
          "name": "_reportTimeBuffer",
          "type": "uint256"
        }
      ],
      "name": "initialize",
      "outputs": [],
      "stateMutability": "nonpayable",
      "type": "function"
    },
    {
      "inputs": [],
      "name": "owner",
      "outputs": [
        {
          "internalType": "address",
          "name": "",
          "type": "address"
        }
      ],
      "stateMutability": "view",
      "type": "function"
    },
    {
      "inputs": [
        {
          "internalType": "string",
          "name": "id",
          "type": "string"
        }
      ],
      "name": "processReport",
      "outputs": [],
      "stateMutability": "nonpayable",
      "type": "function"
    },
    {
      "inputs": [],
      "name": "proxiableUUID",
      "outputs": [
        {
          "internalType": "bytes32",
          "name": "",
          "type": "bytes32"
        }
      ],
      "stateMutability": "view",
      "type": "function"
    },
    {
      "inputs": [
        {
          "internalType": "address[]",
          "name": "submittedNodes",
          "type": "address[]"
        }
      ],
      "name": "quorumIsMet",
      "outputs": [
        {
          "internalType": "bool",
          "name": "isMet",
          "type": "bool"
        }
      ],
      "stateMutability": "view",
      "type": "function"
    },
    {
      "inputs": [],
      "name": "renounceOwnership",
      "outputs": [],
      "stateMutability": "nonpayable",
      "type": "function"
    },
    {
      "inputs": [
        {
          "internalType": "string",
          "name": "id",
          "type": "string"
        },
        {
          "internalType": "uint256",
          "name": "blockHeight",
          "type": "uint256"
        },
        {
          "internalType": "string[]",
          "name": "streams",
          "type": "string[]"
        },
        {
          "internalType": "uint256[]",
          "name": "writeCaptureAmounts",
          "type": "uint256[]"
        },
        {
          "internalType": "uint256[]",
          "name": "writeBytes",
          "type": "uint256[]"
        },
        {
          "internalType": "address[]",
          "name": "readConsumerAddresses",
          "type": "address[]"
        },
        {
          "internalType": "uint256[]",
          "name": "readCaptureAmounts",
          "type": "uint256[]"
        },
        {
          "internalType": "uint256[]",
          "name": "readBytes",
          "type": "uint256[]"
        },
        {
          "internalType": "address[]",
          "name": "nodes",
          "type": "address[]"
        },
        {
          "internalType": "int256[]",
          "name": "nodeChanges",
          "type": "int256[]"
        },
        {
          "internalType": "address[]",
          "name": "delegates",
          "type": "address[]"
        },
        {
          "internalType": "address[][]",
          "name": "delegateNodes",
          "type": "address[][]"
        },
        {
          "internalType": "int256[][]",
          "name": "delegateNodeChanges",
          "type": "int256[][]"
        },
        {
          "internalType": "int256",
          "name": "treasurySupplyChange",
          "type": "int256"
        },
        {
          "internalType": "address[]",
          "name": "addresses",
          "type": "address[]"
        },
        {
          "internalType": "uint256[]",
          "name": "proofTimestamps",
          "type": "uint256[]"
        },
        {
          "internalType": "bytes[]",
          "name": "signatures",
          "type": "bytes[]"
        }
      ],
      "name": "report",
      "outputs": [],
      "stateMutability": "nonpayable",
      "type": "function"
    },
    {
      "inputs": [],
      "name": "reportTimeBuffer",
      "outputs": [
        {
          "internalType": "uint256",
          "name": "",
          "type": "uint256"
        }
      ],
      "stateMutability": "view",
      "type": "function"
    },
    {
      "inputs": [
        {
          "internalType": "address",
          "name": "newOwner",
          "type": "address"
        }
      ],
      "name": "transferOwnership",
      "outputs": [],
      "stateMutability": "nonpayable",
      "type": "function"
    },
    {
      "inputs": [
        {
          "internalType": "address",
          "name": "newImplementation",
          "type": "address"
        }
      ],
      "name": "upgradeTo",
      "outputs": [],
      "stateMutability": "nonpayable",
      "type": "function"
    },
    {
      "inputs": [
        {
          "internalType": "address",
          "name": "newImplementation",
          "type": "address"
        },
        {
          "internalType": "bytes",
          "name": "data",
          "type": "bytes"
        }
      ],
      "name": "upgradeToAndCall",
      "outputs": [],
      "stateMutability": "payable",
      "type": "function"
    }
  ],
  "bytecode": "0x60a0806040523461003157306080526143d8908161003782396080518181816106dd015281816107ea0152610b010152f35b600080fdfe610680604052600436101561001357600080fd5b60003560e01c80630e0a171314612e0e57806312e63d7114612bdc5780631bfdc98a14610e1b57806325cbbdff14610dc557806331c74e0114610da75780633659cfe614610adc5780634f1ef2861461079857806352d1902d146106c257806370f462021461065d578063715018a6146106025780638da5cb5b146105db578063cd6dc68714610436578063d91b99e814610416578063eefa7a3e1461020d578063f2fde38b146101675763f6883c05146100cd57600080fd5b346101625760203660031901126101625760043567ffffffffffffffff81116101625760206101026007923690600401612f3a565b919061010c6132c9565b826040519384928337810160fe81520301902001740100000000000000000000000000000000000000007fffffffffffffffffffffff00ffffffffffffffffffffffffffffffffffffffff825416179055600080f35b600080fd5b3461016257602036600319011261016257610180613202565b6101886132c9565b6001600160a01b038116156101a2576101a090613321565b005b60405162461bcd60e51b815260206004820152602660248201527f4f776e61626c653a206e6577206f776e657220697320746865207a65726f206160448201527f64647265737300000000000000000000000000000000000000000000000000006064820152608490fd5b34610162576000366003190112610162576102266135b1565b5061022f61374b565b60405161023b81612e5d565b6102448261362f565b815260018083015490602091828401526002918285015460408501526003808601805461027081612ed4565b9161027e6040519384612eb2565b81835260009081528481208685878087015b8686106103dc575050505050505060608601526102af600487016136d5565b60808601526005860180546102c381612ed4565b916102d16040519384612eb2565b81835260009081528481208688878087015b8686106103a2575050505050505060a08601526006860180549261030684612ed4565b956103146040519788612eb2565b8487526000928352818320908288015b8685106103665760c08a0189905260078b01546001600160a01b03811660e08c015260a01c60ff1615156101008b0152604051806103628c82612ff8565b0390f35b8584899260405161037681612e7a565b6001600160a01b0387541681528487015483820152858701546040820152815201930194019391610324565b6040516103ae81612e96565b6001600160a01b0386541681526103c68587016136d5565b83820152815201920192019190888789926102e3565b6040516103e881612e7a565b6103f18661362f565b815284860154838201528c860154604082015281520192019201919085878992610290565b346101625760003660031901126101625760206040516402540be4008152f35b346101625760403660031901126101625761044f613202565b6000549060ff808360081c1615928380946105cf575b80156105b9575b1561054e5760ff1981166001176000558361053c575b5061049c8160005460081c166104978161353f565b61353f565b6104a533613321565b6104c28160005460081c166104b98161353f565b6104978161353f565b600160c9556001600160a01b03821690816001600160a01b031982541617905560243560fb556104f06132c9565b156101a2576104fe90613321565b61050457005b61ff0019600054166000557f7f26b83ff96e1f2b6a682f133852f6798a09c465da95921460cefb3847402498602060405160018152a1005b61ffff19166101011760005583610482565b60405162461bcd60e51b815260206004820152602e60248201527f496e697469616c697a61626c653a20636f6e747261637420697320616c72656160448201527f647920696e697469616c697a65640000000000000000000000000000000000006064820152608490fd5b50303b15801561046c575060018282161461046c565b50600182821610610465565b346101625760003660031901126101625760206001600160a01b0360975416604051908152f35b346101625760003660031901126101625761061b6132c9565b60006001600160a01b036097546001600160a01b03198116609755167f8be0079c531659141344cd1fd0a4f28419497f9722a3daafe3b4186f6b6457e08280a3005b34610162576000366003190112610162576106766138d1565b604051809160208083018184528251809152816040850193019160005b8281106106a257505050500390f35b83516001600160a01b031685528695509381019392810192600101610693565b34610162576000366003190112610162576001600160a01b037f000000000000000000000000000000000000000000000000000000000000000016300361072d5760206040517f360894a13ba1a3210667c828492db98dca3e2076cc3735a920a3ca505d382bbc8152f35b60405162461bcd60e51b815260206004820152603860248201527f555550535570677261646561626c653a206d757374206e6f742062652063616c60448201527f6c6564207468726f7567682064656c656761746563616c6c00000000000000006064820152608490fd5b6040366003190112610162576107ac613202565b60243567ffffffffffffffff81116101625736602382011215610162576107dd903690602481600401359101613292565b906001600160a01b0391827f0000000000000000000000000000000000000000000000000000000000000000169261081784301415613369565b6108467f360894a13ba1a3210667c828492db98dca3e2076cc3735a920a3ca505d382bbc9482865416146133db565b61084e6132c9565b7f4910fdfa16fed3260ed0e7147f7cc6da11a60208b5b9406d12a635614ffd91435460ff16156108845750506101a0915061344d565b82919216604051936352d1902d60e01b85526020948581600481865afa60009181610aad575b5061090b5760405162461bcd60e51b815260048101879052602e60248201527f45524331393637557067726164653a206e657720696d706c656d656e7461746960448201526d6f6e206973206e6f74205555505360901b6064820152608490fd5b03610a56576109198261344d565b604051907fbc7cd75a20ee27fd9adebab32041f755214dbc6bffa90cc0225b39da2e5c2d3b600080a2825115801590610a4e575b61095357005b813b156109fd57506000828192856101a09695519201905af43d156109f5573d9061097d82613276565b9161098b6040519384612eb2565b82523d60008484013e5b7f416464726573733a206c6f772d6c6576656c2064656c65676174652063616c6c604051936109c385612e7a565b602785528401527f206661696c65640000000000000000000000000000000000000000000000000060408401526134fb565b606090610995565b62461bcd60e51b815260048101849052602660248201527f416464726573733a2064656c65676174652063616c6c20746f206e6f6e2d636f6044820152651b9d1c9858dd60d21b6064820152608490fd5b50600161094d565b60405162461bcd60e51b815260048101859052602960248201527f45524331393637557067726164653a20756e737570706f727465642070726f786044820152681a58589b195555525160ba1b6064820152608490fd5b9091508681813d8311610ad5575b610ac58183612eb2565b81010312610162575190876108aa565b503d610abb565b346101625760208060031936011261016257610af6613202565b6001600160a01b03807f000000000000000000000000000000000000000000000000000000000000000016610b2d81301415613369565b610b5c7f360894a13ba1a3210667c828492db98dca3e2076cc3735a920a3ca505d382bbc9183835416146133db565b610b646132c9565b604051908482019282841067ffffffffffffffff851117610d9157836040526000835260ff7f4910fdfa16fed3260ed0e7147f7cc6da11a60208b5b9406d12a635614ffd91435416600014610bc157505050506101a0915061344d565b8416906040516352d1902d60e01b81528681600481865afa60009181610d62575b50610c435760405162461bcd60e51b815260048101889052602e60248201527f45524331393637557067726164653a206e657720696d706c656d656e7461746960448201526d6f6e206973206e6f74205555505360901b6064820152608490fd5b03610d0b57610c518461344d565b604051907fbc7cd75a20ee27fd9adebab32041f755214dbc6bffa90cc0225b39da2e5c2d3b600080a2815115801590610d03575b610c8b57005b833b15610cb257506101a09392600092839251915af43d156109f5573d9061097d82613276565b62461bcd60e51b815260048101859052602660248201527f416464726573733a2064656c65676174652063616c6c20746f206e6f6e2d636f6044820152651b9d1c9858dd60d21b6064820152608490fd5b506000610c85565b60405162461bcd60e51b815260048101869052602960248201527f45524331393637557067726164653a20756e737570706f727465642070726f786044820152681a58589b195555525160ba1b6064820152608490fd5b9091508781813d8311610d8a575b610d7a8183612eb2565b8101031261016257519088610be2565b503d610d70565b634e487b7160e01b600052604160045260246000fd5b3461016257600036600319011261016257602060fb54604051908152f35b346101625760203660031901126101625760043567ffffffffffffffff8111610162573660238201121561016257610e11610e0c6020923690602481600401359101613218565b613d40565b6040519015158152f35b34610162576102203660031901126101625760043567ffffffffffffffff811161016257610e4d903690600401612f3a565b6080526103405260443567ffffffffffffffff811161016257610e749036906004016131d1565b610600526102605260643567ffffffffffffffff811161016257610e9c9036906004016131d1565b610240526103805260843567ffffffffffffffff811161016257610ec49036906004016131d1565b6102a0526104605267ffffffffffffffff60a4351161016257610eec3660a4356004016131d1565b610480526101805267ffffffffffffffff60c4351161016257610f143660c4356004016131d1565b6105e0526104e05267ffffffffffffffff60e4351161016257610f3c3660e4356004016131d1565b6104c0526105a05267ffffffffffffffff610104351161016257610f6636610104356004016131d1565b610320526105405267ffffffffffffffff610124351161016257610f9036610124356004016131d1565b6102c0526105005267ffffffffffffffff610144351161016257610fba36610144356004016131d1565b610420526106405267ffffffffffffffff610164351161016257610fe436610164356004016131d1565b6103c0526103e05267ffffffffffffffff61018435116101625761100e36610184356004016131d1565b610120526101005267ffffffffffffffff6101c4351161016257611038366101c4356004016131d1565b610300526105805267ffffffffffffffff6101e4351161016257611062366101e4356004016131d1565b6102e0526106605267ffffffffffffffff61020435116101625761108c36610204356004016131d1565b610400526101a052602460206001600160a01b0360ff541660405192838092630c2effa360e31b82523360048301525afa9081156129c757600091612bbd575b5015612b785760ff6007604051608051610340518237602081608051810160fe815203019020015460a01c16612b335743602435111580612b1d575b15612ad85761030051806003810204600314811517156115a35761113d9061113861040051916102e0519061389a565b61389a565b6003610300510203612a935761115d610e0c366103005161058051613218565b15612a4e5761116a6138d1565b61020052611187611182366102e05161066051612eec565b613eae565b60005b610200518051821015612a46576001600160a01b036111aa8333936138a7565b5116146111bf576111ba9061387e565b61118a565b906103e8908142029142830414421517156115a3576509184e72a0004202926402540be400928085048414901517156115a35760fb54908181029181830414901517156115a3578281029281840414901517156115a35761121f9161389a565b1015612a01575b6040518061052052806101c081011067ffffffffffffffff6101c083011117610d91576101c0016040526000610360525b610360516101c081101561127e576060906105205101526020610360510161036052611257565b604051601160f91b60208201526080516103405160218301376112bc6022826080518101601160f91b60218201526002828203018252030182612eb2565b61052051526112cc602435613f1e565b60206105205101526112e06101a43561420b565b61132260226040518093601160f91b6020830152611308815180926020602186019101612f68565b8101601160f91b6021820152036002810184520182612eb2565b6101a061052051015261134c61133a61060051612ed4565b806101e0526040518061022052612eb2565b610600516102205152601f1961136461060051612ed4565b0160006103a0525b806103a05110156113b25760405161138381612e7a565b60608152600060208201526000604082015260206103a0516102205101015260206103a051016103a05261136c565b6000610620525b6106005161062051818110156115b95760226113e461142b9260406105205101519461026051613a6d565b8094916040519583611400889551809260208089019101612f68565b840191601160f91b6020840152602183013701601160f91b6021820152036002810184520182612eb2565b6040610520510152611461606061052051015161145b611455610620516102405161038051613aaf565b35614086565b90613abf565b6060610520510152611497608061052051015161149161148b610620516102a05161046051613aaf565b35613f1e565b90613b19565b608061052051015261060051806000198101116115a357600019016106205103611556575b6114d0610620516106005161026051613a6d565b906114e5610620516102405161038051613aaf565b356115136114fd610620516102a05161046051613aaf565b35926040519461150c86612e7a565b3691613292565b83526020830152604082015261152f61062051610220516138a7565b5261154061062051610220516138a7565b5061154d6106205161387e565b610620526113b9565b6115666040610520510151613b5a565b604061052051015261157e6060610520510151613b5a565b60606105205101526115966080610520510151613b5a565b60806105205101526114bc565b634e487b7160e01b600052601160045260246000fd5b6115da6115c861048051612ed4565b80610440526040518061014052612eb2565b610480516101405152601f196115f261048051612ed4565b016000610160525b806101605110156116405760405161161181612e7a565b6000815260006020820152600060408201526020610160516101405101015260206101605101610160526115fa565b60006101c0525b610480516101c05190808210156117e25761145b61167c6116776116819460a06105205101519461018051613aaf565b613b92565b6142df565b60a06105205101526116ab60c061052051015161145b6114556101c0516105e0516104e051613aaf565b60c06105205101526116d560e061052051015161149161148b6101c0516104c0516105a051613aaf565b60e061052051015261048051806000198101116115a357600019016101c05103611795575b6117116116776101c0516104805161018051613aaf565b6117256101c0516105e0516104e051613aaf565b3561173a6101c0516104c0516105a051613aaf565b35906001600160a01b036040519361175185612e7a565b1683526020830152604082015261176e6101c051610140516138a7565b5261177f6101c051610140516138a7565b5061178c6101c05161387e565b6101c052611647565b6117a560a0610520510151613b5a565b60a06105205101526117bd60c0610520510151613b5a565b60c06105205101526117d560e0610520510151613b5a565b60e06105205101526116fa565b6117ee61032051613ba6565b60c05260005b6103205180821015611918576118219061145b61167c611677856101006105205101519461054051613aaf565b61010061052051015261185061012061052051015161145b61184a846102c05161050051613aaf565b3561420b565b6101206105205101526103205190816000198101116115a3576118da916000190181036118df575b61188c611677826103205161054051613aaf565b61189d826102c05161050051613aaf565b356001600160a01b03604051926118b384612e96565b16825260208201526118c78260c0516138a7565b526118d48160c0516138a7565b5061387e565b6117f4565b6118f0610100610520510151613b5a565b61010061052051015261190a610120610520510151613b5a565b610120610520510152611878565b61193461192761042051612ed4565b6040518061056052612eb2565b610420516105605152601f1961194c61042051612ed4565b0160005b8181106129d9576000610280525b61042051610280519080821015611c795761145b61167c61167761198f946101406105205101519461064051613aaf565b6101406105205101526119a9610160610520510151613c07565b6101606105205101526119c3610180610520510151613c07565b6101806105205101526119ea6119e3610280516103c0516103e051613c3f565b9050613ba6565b6105c052600060e0525b611a08610280516103c0516103e051613c3f565b905060e0511015611b6657611a4561016061052051015161145b61167c611677611a3c610280516103c0516103e051613c3f565b60e05191613aaf565b610160610520510152611a7461018061052051015161145b61184a611a3c610280516101205161010051613c3f565b610180610520510152611a91610280516103c0516103e051613c3f565b8091506000198101116115a3576000190160e05103611b2d575b611ac5611677611a3c610280516103c0516103e051613c3f565b611adc611a3c610280516101205161010051613c3f565b356001600160a01b0360405192611af284612e96565b1682526020820152611b0960e0516105c0516138a7565b52611b1960e0516105c0516138a7565b50611b2560e05161387e565b60e0526119f4565b611b3e610160610520510151613b5a565b610160610520510152611b58610180610520510151613b5a565b610180610520510152611aab565b611b77610160610520510151613c84565b610160610520510152611b91610180610520510151613c84565b61018061052051015261042051806000198101116115a357600019016102805103611c26575b611bce611677610280516104205161064051613aaf565b6001600160a01b0360405191611be383612e96565b1681526105c0516020820152611bff61028051610560516138a7565b52611c1061028051610560516138a7565b50611c1d6102805161387e565b6102805261195e565b611c37610140610520510151613b5a565b610140610520510152611c51610160610520510151613b5a565b610160610520510152611c6b610180610520510151613b5a565b610180610520510152611bb7565b611e9b60456105205180519060208101516104a0526040810151606082015190608083015160a084015160c085015160e08601516101008701519161012088015193610140890151956101608a0151976101a06101808c01519b01519b605b60f81b60206040518060a0520152611cfc815180926020602160a051019101612f68565b60a05101600b60fa1b60218201526104a05190611d23825180936020602285019101612f68565b01612c5b60f01b6022820152611d43825180936020602485019101612f68565b0198625d2c5b60e81b998a6024820152611d67825180936020602785019101612f68565b01896027820152611d82825180936020602a85019101612f68565b0188602a820152611d9d825180936020602d85019101612f68565b0187602d820152611db8825180936020603085019101612f68565b01866030820152611dd3825180936020603385019101612f68565b01856033820152611dee825180936020603685019101612f68565b01846036820152611e09825180936020603985019101612f68565b01836039820152611e24825180936020603c85019101612f68565b0182603c820152611e3f825180936020603f85019101612f68565b0190603f820152611e5a825180936020604285019101612f68565b0161174b60f21b6042820152611e7a825180936020604485019101612f68565b01605d60f81b604482015260a051809103906025820190520160a051612eb2565b604051611ea781612e5d565b611eb73660805161034051613292565b815260243560208201526101a435604082015261022051606082015260c05160808201526105605160a08201526101405160c08201523360e08201526000610100820152600160005b610300518110156129d357611f1c816102e05161066051613aaf565b35604051611f5560408260208101946020611f3f60a05188815193849201612f68565b8201906020820152036020810184520182612eb2565b51902060206001600160a01b036084611f78611677866103005161058051613aaf565b611f8986610400516101a051613a6d565b809160405197889687956301a86b5560e41b8752166004860152602485015260606044850152816064850152848401376000828201840152601f01601f1916810103018173__$267c3dc7aa7d3fe2e28bda43a2ca27cd27$__5af480156129c757600191600091612998575b5015150361200b576120069061387e565b611f00565b505060005b156129535761202f602082518160405193828580945193849201612f68565b810160fe81520301902090805191825167ffffffffffffffff8111610d915761205882546135f5565b601f8111612921575b506020601f82116001146128b957819293946000926128ae575b50508160011b916000199060031b1c19161781555b60208201516001820155604082015160028201556060820151805190680100000000000000008211610d91576003830154826003850155808310612803575b50602001906003830160005260206000206000925b8284106126ce5785856004810160808301519060208251926121068484613cd3565b019060005260206000206000915b83831061269857858560a0820151805190680100000000000000008211610d915760058301548260058501558083106125f0575b506020016005830160005260206000206000915b83831061255857858560c0820151805190680100000000000000008211610d915760068301548260068501558083106124ff575b506020016006830160005260206000206000915b8383106124bf5785600786016001600160a01b0360e0830151168154907fffffffffffffffffffffff00000000000000000000000000000000000000000074ff0000000000000000000000000000000000000000610100860151151560a01b16921617179055805190815167ffffffffffffffff8111610d915761222960fc546135f5565b601f8111612465575b50602092601f82116001146123e357928192936000926123d8575b50508160011b916000199060031b1c19161760fc555b6000805b61020051805183101561239957612286836001600160a01b03926138a7565b511633146000146122c057503360005260fd6020526040600020805490600a82018092116115a357556122ba60019161387e565b90612267565b908161235d57806001600160a01b036122df6122ba93610200516138a7565b511660005260fd8060205260056040600020541015600014612333576005905b6001600160a01b0361231484610200516138a7565b511660005260205261232c604060002091825461388d565b905561387e565b6001600160a01b0361234883610200516138a7565b511660005280602052604060002054906122ff565b6001600160a01b0361237282610200516138a7565b511660005260fd6020526040600020908154600181018091116115a3576122ba925561387e565b7fc53a4e1db72f8c6fde77b85b4cc21a59f9896e9d7285f890075356dbd528d1cd6123d38551604051918291602083526020830190612f8b565b0390a1005b01519050838061224d565b601f1982169360fc6000527f371f36870d18f32a11fea0f144b021c8b407bb50f8e0267c711123f454b963c09160005b86811061244d5750836001959610612434575b505050811b0160fc55612263565b015160001960f88460031b161c19169055838080612426565b91926020600181928685015181550194019201612413565b6124af9060fc6000527f371f36870d18f32a11fea0f144b021c8b407bb50f8e0267c711123f454b963c0601f840160051c810191602085106124b5575b601f0160051c0190613cbc565b83612232565b90915081906124a2565b60036020826040600194516001600160a01b038151166001600160a01b0319885416178755838101518688015501516002860155019201920191906121a4565b60038181020481036115a35760038381020483036115a3576006840160005260206000208360030281015b826003028201811061253d575050612190565b8060006003925560006001820155600060028201550161252a565b80516001600160a01b038151166001600160a01b031984541617835560206001840191015190602082519261258d8484613cd3565b01906000526020600020906000905b8382106125ba5750505050600260206001920192019201919061215c565b600260208281600194516001600160a01b038151166001600160a01b03198954161788550151848701550193019101909161259c565b6001600160ff1b03811681036115a3576001600160ff1b03831683036115a3576005840160005260206000208360011b81015b8260011b82018110612636575050612148565b6000815560018101546000600183015580612655575b50600201612623565b6001600160ff1b03811681036115a3576001820160005260206000209060011b8101905b818110612686575061264c565b60008082556001820155600201612679565b600260208281600194516001600160a01b038151166001600160a01b031988541617875501518486015501920192019190612114565b8051805180519067ffffffffffffffff8211610d91576126ee85546135f5565b601f81116127c6575b50602090601f8311600114612754576003938360209460019794604094600092612749575b505060001982881b1c191690871b1787555b838101518688015501516002860155019201930192906120e4565b015190508d8061271c565b908560005260206000209160005b601f19851681106127ae575093600184819794604094600398602098601f19811610612796575b505050811b01875561272e565b0151600019838a1b60f8161c191690558d8080612789565b91926020600181928685015181550194019201612762565b6127f3908660005260206000206005601f8601811c820192602087106127f9575b601f01901c0190613cbc565b896126f7565b91925082916127e7565b60038181020481036115a35760038381020483036115a3576003840160005260206000208360030281015b82600302820181106128415750506120cf565b8061284e600392546135f5565b80612869575b5060006001820155600060028201550161282e565b601f81116001146128805750600081555b88612854565b61289f90826000526001601f6020600020920160051c82019101613cbc565b6000602081208183555561287a565b01519050848061207b565b8260005260206000209060005b601f19841681106129095750600193949583601f198116106128f0575b505050811b018155612090565b015160001960f88460031b161c191690558480806128e3565b9091602060018192858a0151815501930191016128c6565b61294d90836000526020600020601f840160051c810191602085106124b557601f0160051c0190613cbc565b84612061565b60405162461bcd60e51b815260206004820152601d60248201527f6572726f725f696e76616c69645265706f72745369676e6174757265730000006044820152606490fd5b6129ba915060203d6020116129c0575b6129b28183612eb2565b810190613a55565b85611ff5565b503d6129a8565b6040513d6000823e3d90fd5b50612010565b6020906040516129e881612e96565b6000815260608382015282826105605101015201611950565b60405162461bcd60e51b815260206004820152601560248201527f6572726f725f696e76616c69645265706f7274657200000000000000000000006044820152606490fd5b505050611226565b60405162461bcd60e51b815260206004820152601260248201527f6572726f725f71756f72756d4e6f744d657400000000000000000000000000006044820152606490fd5b60405162461bcd60e51b815260206004820152601360248201527f6572726f725f696e76616c696450726f6f6673000000000000000000000000006044820152606490fd5b60405162461bcd60e51b815260206004820152601360248201527f6572726f725f696e76616c69645265706f7274000000000000000000000000006044820152606490fd5b506001612b2861374b565b015460243511611108565b60405162461bcd60e51b815260206004820152601c60248201527f6572726f725f7265706f7274416c726561647950726f636573736564000000006044820152606490fd5b60405162461bcd60e51b815260206004820152601360248201527f6572726f725f7374616b655265717569726564000000000000000000000000006044820152606490fd5b612bd6915060203d6020116129c0576129b28183612eb2565b816110cc565b34610162576020806003193601126101625760043567ffffffffffffffff811161016257612c0f82913690600401612f3a565b9190612c196135b1565b50826040519384928337810160fe8152030190209060405190612c3b82612e5d565b612c448361362f565b82526001808401548284015260029182850154604085015260038086018054612c6c81612ed4565b91612c7a6040519384612eb2565b81835260009081528481208685878087015b868610612dd457505050505050506060860152612cab600487016136d5565b6080860152600586018054612cbf81612ed4565b91612ccd6040519384612eb2565b81835260009081528481208688878087015b868610612d9a575050505050505060a086015260068601805492612d0284612ed4565b95612d106040519788612eb2565b8487526000928352818320908288015b868510612d5e5760c08a0189905260078b01546001600160a01b03811660e08c015260a01c60ff1615156101008b0152604051806103628c82612ff8565b85848992604051612d6e81612e7a565b6001600160a01b0387541681528487015483820152858701546040820152815201930194019391612d20565b604051612da681612e96565b6001600160a01b038654168152612dbe8587016136d5565b8382015281520192019201919088878992612cdf565b604051612de081612e7a565b612de98661362f565b815284860154838201528c860154604082015281520192019201919085878992612c8c565b346101625760203660031901126101625760043567ffffffffffffffff8111610162573660238201121561016257612e556111826020923690602481600401359101612eec565b604051908152f35b610120810190811067ffffffffffffffff821117610d9157604052565b6060810190811067ffffffffffffffff821117610d9157604052565b6040810190811067ffffffffffffffff821117610d9157604052565b90601f8019910116810190811067ffffffffffffffff821117610d9157604052565b67ffffffffffffffff8111610d915760051b60200190565b9291612ef782612ed4565b91612f056040519384612eb2565b829481845260208094019160051b810192831161016257905b828210612f2b5750505050565b81358152908301908301612f1e565b9181601f840112156101625782359167ffffffffffffffff8311610162576020838186019501011161016257565b60005b838110612f7b5750506000910152565b8181015183820152602001612f6b565b90602091612fa481518092818552858086019101612f68565b601f01601f1916010190565b90815180825260208080930193019160005b828110612fd0575050505090565b835180516001600160a01b031686528201518583015260409094019392810192600101612fc2565b602091828252805190613018610120928386860152610140850190612f8b565b93808201516040908186015280830151916060928387015282840151601f19978888820301608089015281518082528382019184808360051b8301019401926000915b888d8585106131865750505050505050613083906080860151898983030160a08a0152612fb0565b9160a085015192888882030160c089015283518082528382019184808360051b8301019601926000915b8c8484106131395750505050505060c0850151978784030160e08801528180895194858152019801936000915b848310613108575050505050506001600160a01b0360e0820151169061010091828501520151151591015290565b855180516001600160a01b03168b52808501518b8601528101518a82015298810198948301946001909201916130da565b96806131728a89838a9e9b9c9a8798999a9b829f9860019903018a52516001600160a01b03815116845201519181858201520190612fb0565b9a01930193019193929097969594976130ad565b9780999891888293856001969798999a9b030187528a806131b18c5194855190808652850190612f8b565b93858101518685015201519101529701930193019193929096959661305b565b9181601f840112156101625782359167ffffffffffffffff8311610162576020808501948460051b01011161016257565b600435906001600160a01b038216820361016257565b929161322382612ed4565b916132316040519384612eb2565b829481845260208094019160051b810192831161016257905b8282106132575750505050565b81356001600160a01b038116810361016257815290830190830161324a565b67ffffffffffffffff8111610d9157601f01601f191660200190565b92919261329e82613276565b916132ac6040519384612eb2565b829481845281830111610162578281602093846000960137010152565b6001600160a01b036097541633036132dd57565b606460405162461bcd60e51b815260206004820152602060248201527f4f776e61626c653a2063616c6c6572206973206e6f7420746865206f776e65726044820152fd5b609754906001600160a01b0380911691826001600160a01b0319821617609755167f8be0079c531659141344cd1fd0a4f28419497f9722a3daafe3b4186f6b6457e0600080a3565b1561337057565b60405162461bcd60e51b815260206004820152602c60248201527f46756e6374696f6e206d7573742062652063616c6c6564207468726f7567682060448201527f64656c656761746563616c6c00000000000000000000000000000000000000006064820152608490fd5b156133e257565b60405162461bcd60e51b815260206004820152602c60248201527f46756e6374696f6e206d7573742062652063616c6c6564207468726f7567682060448201527f6163746976652070726f787900000000000000000000000000000000000000006064820152608490fd5b803b15613490576001600160a01b037f360894a13ba1a3210667c828492db98dca3e2076cc3735a920a3ca505d382bbc91166001600160a01b0319825416179055565b60405162461bcd60e51b815260206004820152602d60248201527f455243313936373a206e657720696d706c656d656e746174696f6e206973206e60448201527f6f74206120636f6e7472616374000000000000000000000000000000000000006064820152608490fd5b90919015613507575090565b8151156135175750805190602001fd5b60405162461bcd60e51b81526020600482015290819061353b906024830190612f8b565b0390fd5b1561354657565b60405162461bcd60e51b815260206004820152602b60248201527f496e697469616c697a61626c653a20636f6e7472616374206973206e6f74206960448201527f6e697469616c697a696e670000000000000000000000000000000000000000006064820152608490fd5b604051906135be82612e5d565b600061010083606080825283602083015283604083015280808301528060808301528060a083015260c08201528260e08201520152565b90600182811c92168015613625575b602083101461360f57565b634e487b7160e01b600052602260045260246000fd5b91607f1691613604565b9060405191826000825492613643846135f5565b9081845260019485811690816000146136b2575060011461366f575b505061366d92500383612eb2565b565b9093915060005260209081600020936000915b81831061369a57505061366d9350820101388061365f565b85548884018501529485019487945091830191613682565b91505061366d94506020925060ff191682840152151560051b820101388061365f565b9081546136e181612ed4565b926040936136f185519182612eb2565b828152809460208092019260005281600020906000935b85851061371757505050505050565b600284600192845161372881612e96565b6001600160a01b0387541681528487015483820152815201930194019391613708565b60405160fc5481600061375d836135f5565b926001908181169081156137da5750600114613784575b506020925060fe81520301902090565b60fc600090815291507f371f36870d18f32a11fea0f144b021c8b407bb50f8e0267c711123f454b963c05b8483106137c457505050602091810138613774565b80548684015285935060209092019181016137af565b60ff19168452506020938015150283019150389050613774565b60209081818403126101625780519067ffffffffffffffff821161016257019180601f8401121561016257825161382a81612ed4565b936138386040519586612eb2565b818552838086019260051b820101928311610162578301905b82821061385f575050505090565b81516001600160a01b0381168103610162578152908301908301613851565b60001981146115a35760010190565b919082039182116115a357565b919082018092116115a357565b80518210156138bb5760209160051b010190565b634e487b7160e01b600052603260045260246000fd5b6001600160a01b03908160ff54169160408051808095636085a91160e11b8252600091829160049889915afa918215613a49578192613a25575b50818251958291600019918289019189831191825b613a125783861015613a0457865b613938878d61388d565b8681019081116139d6578110156139ea57600181018082116139d6579089828d8b8e8261396861399998876138a7565b5116825260fd60208181528284205493856139838a8a6138a7565b51169052528d20541061399e575b50505061387e565b61392e565b806139b9856139c2936139b186886138a7565b5116956138a7565b5116918d6138a7565b526139cd828c6138a7565b5289388d613991565b50634e487b7160e01b885260118d52602488fd5b5091946139f99093919361387e565b949182939193613920565b995099505050505050505050565b634e487b7160e01b875260118c52602487fd5b613a429192503d8084833e613a3a8183612eb2565b8101906137f4565b903861390b565b508251903d90823e3d90fd5b90816020910312610162575180151581036101625790565b91908110156138bb5760051b81013590601e198136030182121561016257019081359167ffffffffffffffff8311610162576020018236038113610162579190565b91908110156138bb5760051b0190565b602261366d919392936040519481613ae1879351809260208087019101612f68565b820190601160f91b91826020820152613b04825180936020602185019101612f68565b01906021820152036002810185520183612eb2565b602061366d919392936040519481613b3a8793518092868087019101612f68565b8201613b4e82518093868085019101612f68565b01038085520183612eb2565b9061366d602160405184613b78829651809260208086019101612f68565b8101600b60fa1b6020820152036001810185520183612eb2565b356001600160a01b03811681036101625790565b90613bb082612ed4565b604090613bbf82519182612eb2565b8381528093613bd0601f1991612ed4565b0191600090815b848110613be5575050505050565b6020908251613bf381612e96565b848152828581830152828701015201613bd7565b9061366d602160405184613c25829651809260208086019101612f68565b8101605b60f81b6020820152036001810185520183612eb2565b91908110156138bb5760051b81013590601e198136030182121561016257019081359167ffffffffffffffff8311610162576020018260051b36038113610162579190565b9061366d602160405184613ca2829651809260208086019101612f68565b8101605d60f81b6020820152036001810185520183612eb2565b818110613cc7575050565b60008155600101613cbc565b680100000000000000008211610d91578054828255808310613cf457505050565b6001600160ff1b0380821682036115a357831683036115a357600091825260208220600191821b810193821b015b838110613d2f5750505050565b808360029255838382015501613d22565b90600091600090816001600160a01b0392818460ff541660405193848092636085a91160e11b825260049384915afa938415613ea3578294613e87575b508351946402540be4009081870296808804831490151715613e745760019998978a97881c96859b5b613db9575b505050505050505050909150565b80518c1015613e6f578886838e835b613e08575b5050505087871015613ded57613de5899a9b9c61387e565b9b9a99613da6565b50505050505050509150915081388080808080808080613dab565b8651831015613e6a57613e1b90856138a7565b511684613e2883886138a7565b511614613e4057613e389061387e565b838e83613dc8565b505095838101809111613e5757958838838e613dcd565b634e487b7160e01b865260118552602486fd5b613dcd565b613dab565b634e487b7160e01b845260118352602484fd5b613e9c9194503d8084833e613a3a8183612eb2565b9238613d7d565b6040513d84823e3d90fd5b90600091825b8151841015613ef957613ec784836138a7565b51906402540be400918281029281840414901517156115a357613ef391613eed9161389a565b9361387e565b92613eb4565b91925051908115613f08570490565b634e487b7160e01b600052601260045260246000fd5b806000917a184f03e93ff9f4daa797ed6e38ed64bf6a1f01000000000000000080821015614078575b506d04ee2d6d415b85acef810000000080831015614069575b50662386f26fc100008083101561405a575b506305f5e1008083101561404b575b506127108083101561403c575b50606482101561402c575b600a80921015614022575b60019081602181860195613fb787613276565b96613fc56040519889612eb2565b808852613fd4601f1991613276565b01366020890137860101905b613fec575b5050505090565b600019019083906f181899199a1a9b1b9c1cb0b131b232b360811b8282061a83530491821561401d57919082613fe0565b613fe5565b9160010191613fa4565b9190606460029104910191613f99565b60049193920491019138613f8e565b60089193920491019138613f81565b60109193920491019138613f72565b60209193920491019138613f60565b604093508104915038613f47565b8060008260801c80614200575b508160401c806141f5575b508160201c806141ea575b5060109180831c806141dd575b5060081c6141d5575b6001809101929183821b936001600160ff1b038116036115a35760028401938481116115a3576141076140f186613276565b956140ff6040519788612eb2565b808752613276565b6020860190601f19013682378551156138bb576030905384518310156138bb57607860218601538281018091116115a35791905b8183116141905750505061414c5790565b606460405162461bcd60e51b815260206004820152602060248201527f537472696e67733a20686578206c656e67746820696e73756666696369656e746044820152fd5b909192600f8116828110156138bb576f181899199a1a9b1b9c1cb0b131b232b360811b901a6141bf85876142ce565b5360041c9280156115a35760001901919061413b565b6001016140bf565b60029150910190386140b6565b9150600401386140a9565b91506008013861409e565b915050601038614093565b600080821291908215614289576142476142809260209260405161422e81612e96565b60018152602d60f81b85820152955b6142835750614086565b9260405193816142608693518092868087019101612f68565b820161427482518093868085019101612f68565b01038084520182612eb2565b90565b03614086565b6040516020810181811067ffffffffffffffff8211176142ba5760405281815292614280926020926142479261423d565b634e487b7160e01b83526041600452602483fd5b9081518110156138bb570160200190565b6001600160a01b0316604051906142f582612e7a565b602a82526020820160403682378251156138bb576030905381516001908110156138bb57607860218401536029905b80821161433457505061414c5790565b9091600f8116601081101561438d576f181899199a1a9b1b9c1cb0b131b232b360811b901a61436384866142ce565b5360041c918015614378576000190190614324565b60246000634e487b7160e01b81526011600452fd5b60246000634e487b7160e01b81526032600452fdfea264697066735822122073d91652605d58d4aa5d9ab4f812ef221a579fce38c52abbb82ac22f78434d5264736f6c63430008110033",
  "linkReferences": {
    "src/lib/VerifySignature.sol": {
      "VerifySignature": [
        {
          "length": 20,
          "start": 8198
        }
      ]
    }
  },
  "deployedLinkReferences": {
    "src/lib/VerifySignature.sol": {
      "VerifySignature": [
        {
          "length": 20,
          "start": 8143
        }
      ]
    }
  }
}