{
  "_format": "hh-sol-artifact-1",
  "contractName": "LogStoreReportManager",
  "sourceName": "src/ReportManager.sol",
  "abi": [
    {
      "anonymous": false,
      "inputs": [
        {
          "indexed": false,
          "internalType": "address",
          "name": "previousAdmin",
          "type": "address"
        },
        {
          "indexed": false,
          "internalType": "address",
          "name": "newAdmin",
          "type": "address"
        }
      ],
      "name": "AdminChanged",
      "type": "event"
    },
    {
      "anonymous": false,
      "inputs": [
        {
          "indexed": true,
          "internalType": "address",
          "name": "beacon",
          "type": "address"
        }
      ],
      "name": "BeaconUpgraded",
      "type": "event"
    },
    {
      "anonymous": false,
      "inputs": [
        {
          "indexed": false,
          "internalType": "uint8",
          "name": "version",
          "type": "uint8"
        }
      ],
      "name": "Initialized",
      "type": "event"
    },
    {
      "anonymous": false,
      "inputs": [
        {
          "indexed": true,
          "internalType": "address",
          "name": "previousOwner",
          "type": "address"
        },
        {
          "indexed": true,
          "internalType": "address",
          "name": "newOwner",
          "type": "address"
        }
      ],
      "name": "OwnershipTransferred",
      "type": "event"
    },
    {
      "anonymous": false,
      "inputs": [
        {
          "indexed": false,
          "internalType": "string",
          "name": "id",
          "type": "string"
        }
      ],
      "name": "ReportAccepted",
      "type": "event"
    },
    {
      "anonymous": false,
      "inputs": [
        {
          "indexed": true,
          "internalType": "address",
          "name": "implementation",
          "type": "address"
        }
      ],
      "name": "Upgraded",
      "type": "event"
    },
    {
      "inputs": [],
      "name": "MATH_PRECISION",
      "outputs": [
        {
          "internalType": "uint256",
          "name": "",
          "type": "uint256"
        }
      ],
      "stateMutability": "view",
      "type": "function"
    },
    {
      "inputs": [
        {
          "internalType": "uint256[]",
          "name": "timestamps",
          "type": "uint256[]"
        }
      ],
      "name": "aggregateTimestamps",
      "outputs": [
        {
          "internalType": "uint256",
          "name": "",
          "type": "uint256"
        }
      ],
      "stateMutability": "pure",
      "type": "function"
    },
    {
      "inputs": [],
      "name": "blockTimestamp",
      "outputs": [
        {
          "internalType": "uint256",
          "name": "",
          "type": "uint256"
        }
      ],
      "stateMutability": "view",
      "type": "function"
    },
    {
      "inputs": [
        {
          "internalType": "uint256[]",
          "name": "timestamps",
          "type": "uint256[]"
        }
      ],
      "name": "canReport",
      "outputs": [
        {
          "internalType": "bool",
          "name": "",
          "type": "bool"
        }
      ],
      "stateMutability": "view",
      "type": "function"
    },
    {
      "inputs": [],
      "name": "getLastReport",
      "outputs": [
        {
          "components": [
            {
              "internalType": "string",
              "name": "id",
              "type": "string"
            },
            {
              "internalType": "uint256",
              "name": "height",
              "type": "uint256"
            },
            {
              "internalType": "int256",
              "name": "treasury",
              "type": "int256"
            },
            {
              "components": [
                {
                  "internalType": "string",
                  "name": "id",
                  "type": "string"
                },
                {
                  "internalType": "uint256",
                  "name": "writeCapture",
                  "type": "uint256"
                },
                {
                  "internalType": "uint256",
                  "name": "writeBytes",
                  "type": "uint256"
                }
              ],
              "internalType": "struct LogStoreReportManager.Stream[]",
              "name": "streams",
              "type": "tuple[]"
            },
            {
              "components": [
                {
                  "internalType": "address",
                  "name": "id",
                  "type": "address"
                },
                {
                  "internalType": "int256",
                  "name": "amount",
                  "type": "int256"
                }
              ],
              "internalType": "struct LogStoreReportManager.Node[]",
              "name": "nodes",
              "type": "tuple[]"
            },
            {
              "components": [
                {
                  "internalType": "address",
                  "name": "id",
                  "type": "address"
                },
                {
                  "components": [
                    {
                      "internalType": "address",
                      "name": "id",
                      "type": "address"
                    },
                    {
                      "internalType": "int256",
                      "name": "amount",
                      "type": "int256"
                    }
                  ],
                  "internalType": "struct LogStoreReportManager.Node[]",
                  "name": "nodes",
                  "type": "tuple[]"
                }
              ],
              "internalType": "struct LogStoreReportManager.Delegate[]",
              "name": "delegates",
              "type": "tuple[]"
            },
            {
              "components": [
                {
                  "internalType": "address",
                  "name": "id",
                  "type": "address"
                },
                {
                  "internalType": "uint256",
                  "name": "readCapture",
                  "type": "uint256"
                },
                {
                  "internalType": "uint256",
                  "name": "readBytes",
                  "type": "uint256"
                }
              ],
              "internalType": "struct LogStoreReportManager.Consumer[]",
              "name": "consumers",
              "type": "tuple[]"
            },
            {
              "internalType": "address",
              "name": "_reporter",
              "type": "address"
            },
            {
              "internalType": "bool",
              "name": "_processed",
              "type": "bool"
            }
          ],
          "internalType": "struct LogStoreReportManager.Report",
          "name": "",
          "type": "tuple"
        }
      ],
      "stateMutability": "view",
      "type": "function"
    },
    {
      "inputs": [
        {
          "internalType": "string",
          "name": "id",
          "type": "string"
        }
      ],
      "name": "getProofOfReport",
      "outputs": [
        {
          "components": [
            {
              "internalType": "address",
              "name": "signer",
              "type": "address"
            },
            {
              "internalType": "bytes",
              "name": "signature",
              "type": "bytes"
            },
            {
              "internalType": "uint256",
              "name": "timestamp",
              "type": "uint256"
            }
          ],
          "internalType": "struct LogStoreReportManager.Proof[]",
          "name": "",
          "type": "tuple[]"
        }
      ],
      "stateMutability": "view",
      "type": "function"
    },
    {
      "inputs": [
        {
          "internalType": "string",
          "name": "id",
          "type": "string"
        }
      ],
      "name": "getReport",
      "outputs": [
        {
          "components": [
            {
              "internalType": "string",
              "name": "id",
              "type": "string"
            },
            {
              "internalType": "uint256",
              "name": "height",
              "type": "uint256"
            },
            {
              "internalType": "int256",
              "name": "treasury",
              "type": "int256"
            },
            {
              "components": [
                {
                  "internalType": "string",
                  "name": "id",
                  "type": "string"
                },
                {
                  "internalType": "uint256",
                  "name": "writeCapture",
                  "type": "uint256"
                },
                {
                  "internalType": "uint256",
                  "name": "writeBytes",
                  "type": "uint256"
                }
              ],
              "internalType": "struct LogStoreReportManager.Stream[]",
              "name": "streams",
              "type": "tuple[]"
            },
            {
              "components": [
                {
                  "internalType": "address",
                  "name": "id",
                  "type": "address"
                },
                {
                  "internalType": "int256",
                  "name": "amount",
                  "type": "int256"
                }
              ],
              "internalType": "struct LogStoreReportManager.Node[]",
              "name": "nodes",
              "type": "tuple[]"
            },
            {
              "components": [
                {
                  "internalType": "address",
                  "name": "id",
                  "type": "address"
                },
                {
                  "components": [
                    {
                      "internalType": "address",
                      "name": "id",
                      "type": "address"
                    },
                    {
                      "internalType": "int256",
                      "name": "amount",
                      "type": "int256"
                    }
                  ],
                  "internalType": "struct LogStoreReportManager.Node[]",
                  "name": "nodes",
                  "type": "tuple[]"
                }
              ],
              "internalType": "struct LogStoreReportManager.Delegate[]",
              "name": "delegates",
              "type": "tuple[]"
            },
            {
              "components": [
                {
                  "internalType": "address",
                  "name": "id",
                  "type": "address"
                },
                {
                  "internalType": "uint256",
                  "name": "readCapture",
                  "type": "uint256"
                },
                {
                  "internalType": "uint256",
                  "name": "readBytes",
                  "type": "uint256"
                }
              ],
              "internalType": "struct LogStoreReportManager.Consumer[]",
              "name": "consumers",
              "type": "tuple[]"
            },
            {
              "internalType": "address",
              "name": "_reporter",
              "type": "address"
            },
            {
              "internalType": "bool",
              "name": "_processed",
              "type": "bool"
            }
          ],
          "internalType": "struct LogStoreReportManager.Report",
          "name": "",
          "type": "tuple"
        }
      ],
      "stateMutability": "view",
      "type": "function"
    },
    {
      "inputs": [],
      "name": "getReporters",
      "outputs": [
        {
          "internalType": "address[]",
          "name": "reporters",
          "type": "address[]"
        }
      ],
      "stateMutability": "view",
      "type": "function"
    },
    {
      "inputs": [
        {
          "internalType": "address",
          "name": "owner_",
          "type": "address"
        },
        {
          "internalType": "address",
          "name": "parent_",
          "type": "address"
        },
        {
          "internalType": "uint256",
          "name": "reportTimeBuffer_",
          "type": "uint256"
        },
        {
          "internalType": "uint256",
          "name": "__test_block_timestamp",
          "type": "uint256"
        }
      ],
      "name": "initialize",
      "outputs": [],
      "stateMutability": "nonpayable",
      "type": "function"
    },
    {
      "inputs": [],
      "name": "owner",
      "outputs": [
        {
          "internalType": "address",
          "name": "",
          "type": "address"
        }
      ],
      "stateMutability": "view",
      "type": "function"
    },
    {
      "inputs": [
        {
          "internalType": "string",
          "name": "id",
          "type": "string"
        }
      ],
      "name": "processReport",
      "outputs": [],
      "stateMutability": "nonpayable",
      "type": "function"
    },
    {
      "inputs": [],
      "name": "proxiableUUID",
      "outputs": [
        {
          "internalType": "bytes32",
          "name": "",
          "type": "bytes32"
        }
      ],
      "stateMutability": "view",
      "type": "function"
    },
    {
      "inputs": [
        {
          "internalType": "address[]",
          "name": "participants",
          "type": "address[]"
        },
        {
          "internalType": "address[]",
          "name": "totalMembers",
          "type": "address[]"
        }
      ],
      "name": "quorumIsMet",
      "outputs": [
        {
          "internalType": "bool",
          "name": "isMet",
          "type": "bool"
        }
      ],
      "stateMutability": "pure",
      "type": "function"
    },
    {
      "inputs": [],
      "name": "renounceOwnership",
      "outputs": [],
      "stateMutability": "nonpayable",
      "type": "function"
    },
    {
      "inputs": [
        {
          "internalType": "string",
          "name": "id",
          "type": "string"
        },
        {
          "internalType": "uint256",
          "name": "blockHeight",
          "type": "uint256"
        },
        {
          "internalType": "string[]",
          "name": "streams",
          "type": "string[]"
        },
        {
          "internalType": "uint256[]",
          "name": "writeCaptureAmounts",
          "type": "uint256[]"
        },
        {
          "internalType": "uint256[]",
          "name": "writeBytes",
          "type": "uint256[]"
        },
        {
          "internalType": "address[]",
          "name": "readConsumerAddresses",
          "type": "address[]"
        },
        {
          "internalType": "uint256[]",
          "name": "readCaptureAmounts",
          "type": "uint256[]"
        },
        {
          "internalType": "uint256[]",
          "name": "readBytes",
          "type": "uint256[]"
        },
        {
          "internalType": "address[]",
          "name": "nodes",
          "type": "address[]"
        },
        {
          "internalType": "int256[]",
          "name": "nodeChanges",
          "type": "int256[]"
        },
        {
          "internalType": "address[]",
          "name": "delegates",
          "type": "address[]"
        },
        {
          "internalType": "address[][]",
          "name": "delegateNodes",
          "type": "address[][]"
        },
        {
          "internalType": "int256[][]",
          "name": "delegateNodeChanges",
          "type": "int256[][]"
        },
        {
          "internalType": "int256",
          "name": "treasurySupplyChange",
          "type": "int256"
        },
        {
          "internalType": "address[]",
          "name": "addresses",
          "type": "address[]"
        },
        {
          "internalType": "uint256[]",
          "name": "proofTimestamps",
          "type": "uint256[]"
        },
        {
          "internalType": "bytes[]",
          "name": "signatures",
          "type": "bytes[]"
        }
      ],
      "name": "report",
      "outputs": [],
      "stateMutability": "nonpayable",
      "type": "function"
    },
    {
      "inputs": [],
      "name": "reportTimeBuffer",
      "outputs": [
        {
          "internalType": "uint256",
          "name": "",
          "type": "uint256"
        }
      ],
      "stateMutability": "view",
      "type": "function"
    },
    {
      "inputs": [
        {
          "internalType": "address",
          "name": "",
          "type": "address"
        }
      ],
      "name": "reputationOf",
      "outputs": [
        {
          "internalType": "uint256",
          "name": "",
          "type": "uint256"
        }
      ],
      "stateMutability": "view",
      "type": "function"
    },
    {
      "inputs": [
        {
          "internalType": "address",
          "name": "_parent",
          "type": "address"
        }
      ],
      "name": "setParent",
      "outputs": [],
      "stateMutability": "nonpayable",
      "type": "function"
    },
    {
      "inputs": [
        {
          "internalType": "uint256",
          "name": "_reportTimeBuffer",
          "type": "uint256"
        }
      ],
      "name": "setReportTimeBuffer",
      "outputs": [],
      "stateMutability": "nonpayable",
      "type": "function"
    },
    {
      "inputs": [
        {
          "internalType": "address",
          "name": "newOwner",
          "type": "address"
        }
      ],
      "name": "transferOwnership",
      "outputs": [],
      "stateMutability": "nonpayable",
      "type": "function"
    },
    {
      "inputs": [
        {
          "internalType": "address",
          "name": "newImplementation",
          "type": "address"
        }
      ],
      "name": "upgradeTo",
      "outputs": [],
      "stateMutability": "nonpayable",
      "type": "function"
    },
    {
      "inputs": [
        {
          "internalType": "address",
          "name": "newImplementation",
          "type": "address"
        },
        {
          "internalType": "bytes",
          "name": "data",
          "type": "bytes"
        }
      ],
      "name": "upgradeToAndCall",
      "outputs": [],
      "stateMutability": "payable",
      "type": "function"
    }
  ],
  "bytecode": "0x60a08060405234610031573060805261420390816100378239608051818181610ae101528181610bee0152610f300152f35b600080fdfe610600604052600436101561001357600080fd5b60003560e01c80630e0a171314612d0e57806312e63d7114612acc5780631499c59214612a7e5780631bfdc98a146110fb57806331c74e01146110dd5780633659cfe614610f0b5780634f1ef28614610b9c57806352d1902d14610ac65780636f94990d14610aa557806370f4620214610a40578063715018a6146109e55780638da5cb5b146109be578063a5157b711461095d578063adb618321461093a578063d91b99e81461091a578063d9741473146107c4578063db89c0441461078a578063dbc2d3701461073c578063eb990c59146104a7578063eefa7a3e14610287578063f2fde38b146101f85763f6883c051461010f57600080fd5b346101f35760203660031901126101f35760043567ffffffffffffffff81116101f357610140903690600401612e5e565b6001600160a01b03610101541633036101ae576020600792826040519384928337810160fe81520301902001740100000000000000000000000000000000000000007fffffffffffffffffffffff00ffffffffffffffffffffffffffffffffffffffff825416179055600080f35b60405162461bcd60e51b815260206004820152601060248201527f6572726f725f6f6e6c79506172656e74000000000000000000000000000000006044820152606490fd5b600080fd5b346101f35760203660031901126101f3576102116130f5565b610219613208565b6001600160a01b038116156102335761023190613260565b005b60405162461bcd60e51b815260206004820152602660248201527f4f776e61626c653a206e6577206f776e657220697320746865207a65726f206160448201526564647265737360d01b6064820152608490fd5b346101f35760003660031901126101f3576102a0613503565b506102a961368d565b6040516102b581612d26565b6040516102cd816102c68186613581565b0382612d97565b81526001808301549060209182840152600291828501546040850152600380860180546102f981612db9565b916103076040519384612d97565b81835260009081528481208685878087015b8686106104655750505050505050606086015261033860048701613617565b608086015260058601805461034c81612db9565b9161035a6040519384612d97565b81835260009081528481208688878087015b86861061042b575050505050505060a08601526006860180549261038f84612db9565b9561039d6040519788612d97565b8487526000928352818320908288015b8685106103ef5760c08a0189905260078b01546001600160a01b03811660e08c015260a01c60ff1615156101008b0152604051806103eb8c82612f1c565b0390f35b858489926040516103ff81612d43565b6001600160a01b03875416815284870154838201528587015460408201528152019301940193916103ad565b60405161043781612d5f565b6001600160a01b03865416815261044f858701613617565b838201528152019201920191908887899261036c565b60405161047181612d43565b604051610482816102c6818a613581565b815284860154838201528c860154604082015281520192019201919085878992610319565b346101f35760803660031901126101f3576104c06130f5565b6024908135916001600160a01b038084168094036101f35760443593606435946000549560ff8760081c16159687809861072f575b8015610718575b156106ae5760ff1981166001176000558761069c575b5061052d60ff60005460081c1661052881613491565b613491565b61053633613260565b61055460ff60005460081c1661054b81613491565b61052881613491565b600160c9556402540be40091828102908082048414901517156106875760fb556103e890818102918183041481151715610687576509184e72a0000291818304149015171561067257610102556105a9613208565b6001600160a01b0319906101018183825416179055610100918254161790556105d0613208565b82161561061f57506105e190613260565b6105e757005b61ff0019600054166000557f7f26b83ff96e1f2b6a682f133852f6798a09c465da95921460cefb3847402498602060405160018152a1005b60849060266040519162461bcd60e51b8352602060048401528201527f4f776e61626c653a206e6577206f776e657220697320746865207a65726f206160448201526564647265737360d01b6064820152fd5b83634e487b7160e01b60005260116004526000fd5b85634e487b7160e01b60005260116004526000fd5b61ffff19166101011760005587610512565b60405162461bcd60e51b815260206004820152602e818801527f496e697469616c697a61626c653a20636f6e747261637420697320616c72656160448201527f647920696e697469616c697a65640000000000000000000000000000000000006064820152608490fd5b50303b1580156104fc5750600160ff8216146104fc565b50600160ff8216106104f5565b346101f35760203660031901126101f357600435610758613208565b6402540be400908181029181830414901517156107745760fb55005b634e487b7160e01b600052601160045260246000fd5b346101f35760203660031901126101f3576001600160a01b036107ab6130f5565b1660005260fc6020526020604060002054604051908152f35b346101f3576020806003193601126101f35760043567ffffffffffffffff81116101f3576107f782913690600401612e5e565b9190826040519384928337810160ff8152030190209081549161081983612db9565b926108276040519485612d97565b8084528284018092600052836000206000915b8383106108c65750505050604051918083019381845251809452604083019360408160051b85010192916000955b8287106108755785850386f35b909192938280600192603f198982030185528751906001600160a01b0382511681526040806108b08585015160608088870152850190612eaf565b9301519101529601920196019592919092610868565b6003866001926040999899516108db81612d43565b6001600160a01b0386541681526040516108fb816102c681898b01613581565b838201526002860154604082015281520192019201919095949561083a565b346101f35760003660031901126101f35760206040516402540be4008152f35b346101f35760003660031901126101f3576020610955613e1d565b604051908152f35b346101f35760403660031901126101f35767ffffffffffffffff6004358181116101f35761098f9036906004016131ed565b906024359081116101f3576020916109ae6109b49236906004016131ed565b90613cb8565b6040519015158152f35b346101f35760003660031901126101f35760206001600160a01b0360975416604051908152f35b346101f35760003660031901126101f3576109fe613208565b60006001600160a01b036097546001600160a01b03198116609755167f8be0079c531659141344cd1fd0a4f28419497f9722a3daafe3b4186f6b6457e08280a3005b346101f35760003660031901126101f357610a59613785565b604051809160208083018184528251809152816040850193019160005b828110610a8557505050500390f35b83516001600160a01b031685528695509381019392810192600101610a76565b346101f35760206109b4610ab836612e1f565b610ac0613785565b33613e59565b346101f35760003660031901126101f3576001600160a01b037f0000000000000000000000000000000000000000000000000000000000000000163003610b315760206040517f360894a13ba1a3210667c828492db98dca3e2076cc3735a920a3ca505d382bbc8152f35b60405162461bcd60e51b815260206004820152603860248201527f555550535570677261646561626c653a206d757374206e6f742062652063616c60448201527f6c6564207468726f7567682064656c656761746563616c6c00000000000000006064820152608490fd5b60403660031901126101f357610bb06130f5565b60243567ffffffffffffffff81116101f357366023820112156101f357610be1903690602481600401359101613158565b906001600160a01b0391827f00000000000000000000000000000000000000000000000000000000000000001692610c1b843014156132a8565b610c4a7f360894a13ba1a3210667c828492db98dca3e2076cc3735a920a3ca505d382bbc94828654161461331a565b610c52613208565b7f4910fdfa16fed3260ed0e7147f7cc6da11a60208b5b9406d12a635614ffd91435460ff1615610c88575050610231915061338c565b82919216604051936352d1902d60e01b85526020948581600481865afa60009181610edc575b50610d0f5760405162461bcd60e51b815260048101879052602e60248201527f45524331393637557067726164653a206e657720696d706c656d656e7461746960448201526d6f6e206973206e6f74205555505360901b6064820152608490fd5b03610e7157610d1d8261338c565b604051907fbc7cd75a20ee27fd9adebab32041f755214dbc6bffa90cc0225b39da2e5c2d3b600080a2825115801590610e69575b610d5757005b813b15610e0157506000828192856102319695519201905af43d15610df9573d90610d818261313c565b91610d8f6040519384612d97565b82523d60008484013e5b7f416464726573733a206c6f772d6c6576656c2064656c65676174652063616c6c60405193610dc785612d43565b602785528401527f206661696c656400000000000000000000000000000000000000000000000000604084015261343a565b606090610d99565b62461bcd60e51b815260048101849052602660248201527f416464726573733a2064656c65676174652063616c6c20746f206e6f6e2d636f60448201527f6e747261637400000000000000000000000000000000000000000000000000006064820152608490fd5b506001610d51565b60405162461bcd60e51b815260048101859052602960248201527f45524331393637557067726164653a20756e737570706f727465642070726f7860448201527f6961626c655555494400000000000000000000000000000000000000000000006064820152608490fd5b9091508681813d8311610f04575b610ef48183612d97565b810103126101f357519087610cae565b503d610eea565b346101f3576020806003193601126101f357610f256130f5565b6001600160a01b03807f000000000000000000000000000000000000000000000000000000000000000016610f5c813014156132a8565b610f8b7f360894a13ba1a3210667c828492db98dca3e2076cc3735a920a3ca505d382bbc91838354161461331a565b610f93613208565b60405191610fa083612d7b565b600083527f4910fdfa16fed3260ed0e7147f7cc6da11a60208b5b9406d12a635614ffd91435460ff1615610fdb57505050610231915061338c565b83929316906040516352d1902d60e01b81528581600481865afa600091816110ae575b5061105f5760405162461bcd60e51b815260048101879052602e60248201527f45524331393637557067726164653a206e657720696d706c656d656e7461746960448201526d6f6e206973206e6f74205555505360901b6064820152608490fd5b03610e715761106d8261338c565b604051907fbc7cd75a20ee27fd9adebab32041f755214dbc6bffa90cc0225b39da2e5c2d3b600080a28251158015906110a657610d5757005b506000610d51565b9091508681813d83116110d6575b6110c68183612d97565b810103126101f357519087610ffe565b503d6110bc565b346101f35760003660031901126101f357602060fb54604051908152f35b346101f3576102203660031901126101f35760043567ffffffffffffffff81116101f35761112d903690600401612e5e565b610420526105205260443567ffffffffffffffff81116101f35761115590369060040161310b565b6105a0526104c05260643567ffffffffffffffff81116101f35761117d90369060040161310b565b610500526101c05260843567ffffffffffffffff81116101f3576111a590369060040161310b565b6080526101805260a43567ffffffffffffffff81116101f3576111cc90369060040161310b565b610160526105c05260c43567ffffffffffffffff81116101f3576111f490369060040161310b565b906101405260e43567ffffffffffffffff81116101f35761121990369060040161310b565b610260526101043567ffffffffffffffff81116101f35761123e90369060040161310b565b60a052610120526101243567ffffffffffffffff81116101f35761126690369060040161310b565b6102005260c0526101443567ffffffffffffffff81116101f35761128e90369060040161310b565b610300526103a0526101643567ffffffffffffffff81116101f3576112b790369060040161310b565b6104605260e0526101843567ffffffffffffffff81116101f3576112df90369060040161310b565b61048052610340526101c43567ffffffffffffffff81116101f35761130890369060040161310b565b61044052610100526101e43567ffffffffffffffff81116101f35761133190369060040161310b565b6104a0526105e0526102043567ffffffffffffffff81116101f35761135a90369060040161310b565b610320526101a052602460206001600160a01b03610100541660405192838092630c2effa360e31b82523360048301525afa908115611edf57600091612a5f575b5015612a1a5760ff60076040516104205161052051823760fe6104205182015260208161042051810103019020015460a01c166129d557436024351115806129bf575b1561297a576104405180600381020460031481151715610774576114139061140e61032051916104a05190613764565b613764565b60036104405102036129355761144561142a613785565b806105405261144036610440516101005161318f565b613cb8565b156128f05761146861145e366104a0516105e051612dd1565b6105405133613e59565b156128ab576060610360526114946114826105a051612db9565b80610380526040518061058052612d97565b6105a0516105805152601f196114ac6105a051612db9565b0160005b81811061287a57505060005b6105a051808210156115e15790604061155e6114df836115dc956104c0516139a9565b92906114fb6114f586610500516101c0516139eb565b35613f72565b602061150d87608051610180516139eb565b35916115498551978895816103605161152e8151809289808d019101612e8c565b88019186830137019183830160008152815194859201612e8c565b01906020820152036020810184520182612d97565b61036052611573816105a0516104c0516139a9565b9061158583610500516101c0516139eb565b356115af61159985608051610180516139eb565b3592604051946115a886612d43565b3691613158565b8352602083015260408201526115c88261058051613771565b526115d68161058051613771565b50613736565b6114bc565b82846116046115f261016051612db9565b806103c0526040518061056052612d97565b610160516105605152601f1961161c61016051612db9565b0160005b81811061284b57505060005b6101605190818110156117525761165261164d8261174d946105c0516139eb565b6139fb565b6116d960546116686114f58588610140516139eb565b61167685610260518a6139eb565b3593604051948591610360516116958151809260208088019101612e8c565b8301906bffffffffffffffffffffffff199060601b1660208201528351906116c68260349660208885019101612e8c565b0190838201520390810184520182612d97565b610360526116f161164d82610160516105c0516139eb565b6116ff8285610140516139eb565b3561170e8361026051886139eb565b35906001600160a01b036040519361172585612d43565b1683526020830152604082015261173f8261056051613771565b526115d68161056051613771565b61162c565b61175d60a051613a0f565b6102805260005b60a051908181101561182a5761178461164d8261182594610120516139eb565b6117c56117a061179a846102005160c0516139eb565b3561410d565b916117b76040519384926103605160208501613a70565b03601f198101835282612d97565b610360526117dc61164d8260a051610120516139eb565b6117ec826102005160c0516139eb565b356001600160a01b036040519261180284612d5f565b16825260208201526118178261028051613771565b526115d68161028051613771565b611764565b61184b61183961030051612db9565b806102e052604051806103e052612d97565b610300516103e05152601f1961186361030051612db9565b0160005b818110612823576000610400525b610300516104005190811015611a78576118a161189a6060926104605160e051613ab6565b9050613a0f565b610220526000905b6118bc610400516104605160e051613ab6565b905082101561198c576119869061191a6118ec61164d856118e6610400516104605160e051613ab6565b906139eb565b916117b761190b61179a876118e6610400516104805161034051613ab6565b60405194859360208501613a70565b9161193561164d826118e6610400516104605160e051613ab6565b61194d826118e6610400516104805161034051613ab6565b356001600160a01b036040519261196384612d5f565b16825260208201526119788261022051613771565b526115d68161022051613771565b906118a9565b9050611a056119a861164d61040051610300516103a0516139eb565b916040518093610360516119c58151809260208087019101612e8c565b8201906bffffffffffffffffffffffff199060601b1660208201528251906119f68260349560208785019101612e8c565b01036014810184520182612d97565b61036052611a2061164d61040051610300516103a0516139eb565b6001600160a01b0360405191611a3583612d5f565b168152610220516020820152611a51610400516103e051613771565b52611a62610400516103e051613771565b50611a6f61040051613736565b61040052611875565b604051611a8481612d7b565b600081526040516104205161052051823760208161042051810160ff81520301902090805190600160401b8211611e66578254828455808310612778575b506020019160005260206000206000925b82841061275a5760006102405260006102c0526105405151806104e052806402540be4008102046402540be40014901517156107745760006102a0525b61054051516102a0511015611eeb57611b2f604051806101e052612d43565b60006101e05152606060206101e0510152600060406101e051015260005b61044051811015611bff57611b9d906001600160a01b03611b746102a05161054051613771565b51166001600160a01b03611b9261164d8461044051610100516139eb565b1614611ba257613736565b611b4d565b6001600160a01b03611bbe61164d8361044051610100516139eb565b166101e05152611bd86115a882610320516101a0516139a9565b60206101e0510152611bf1816104a0516105e0516139eb565b3560406101e0510152613736565b50611c0c6101a43561410d565b60406101e0510151611c7e6060604051809360208201956104205161052051883761042051830160243560208201526103605190611c54825180936020604085019101612e8c565b01611c69825180936020604085019101612e8c565b01906040820152036040810184520182612d97565b51902060206101e05191816001600160a01b0384511693015192611cc860405194859384936301a86b5560e41b855260048501526024840152606060448401526064830190612eaf565b038173__$267c3dc7aa7d3fe2e28bda43a2ca27cd27$__5af48015611edf57600191600091611eb0575b50151503611e7c576040516104205161052051823760208161042051810160ff8152030190208054600160401b811015611e665760018101808355811015611e5057611d4e91600052602060002060036101e051920201613b4e565b611d5a6102c051613752565b6102c0526101e051516001600160a01b0316338103611daf57503360005260fc60205260406000208054600a8101811161077457600a0190556001610240525b611da66102a051613736565b6102a052611b10565b61024051611e2d57506101e0516001600160a01b0381511660005260fc9081602052600590816040600020541015600014611e125750905b6001600160a01b036101e0515116600052602052611e0b6040600020918254613745565b9055611d9a565b6001600160a01b039150511660005260406000205490611de7565b60005260fc60205260406000208054600181018111610774576001019055611d9a565b634e487b7160e01b600052603260045260246000fd5b634e487b7160e01b600052604160045260246000fd5b6001600160a01b03611e9b61164d6102a05161044051610100516139eb565b1660005260fc60205260006040812055611d9a565b611ed2915060203d602011611ed8575b611eca8183612d97565b810190613991565b82611cf2565b503d611ec0565b6040513d6000823e3d90fd5b6402540be4006104e0510260011c6102c0511061271557604051611f0e81612d26565b611f7c6020611f24366104205161052051613158565b808452602435828501526101a43560408501526105805160608501526102805160808501526103e05160a08501526105605160c08501523360e085015260006101008501528160405193828580945193849201612e8c565b810160fe81520301902090805191825167ffffffffffffffff8111611e6657611faf81611fa98454613547565b84613b12565b6020601f82116001146126ad57819293946000926126a2575b50508160011b916000199060031b1c19161781555b60208201516001820155604082015160028201556060820151805190600160401b8211611e665760038301548260038501558083106125f7575b50602001906003830160005260206000206000925b8284106124ff57858560048101608083015190602082519261204e8484613c50565b019060005260206000206000915b8383106124c957858560a0820151805190600160401b8211611e66576005830154826005850155808310612421575b506020016005830160005260206000206000915b83831061238957858560c0820151805190600160401b8211611e66576006830154826006850155808310612330575b506020016006830160005260206000206000915b8383106122f05785600786016001600160a01b0360e0830151168154907fffffffffffffffffffffff00000000000000000000000000000000000000000074ff0000000000000000000000000000000000000000610100860151151560a01b16921617179055805180519067ffffffffffffffff8211611e665761216760fd54613547565b601f8111612296575b50602090601f83116001146121eb5791807fc53a4e1db72f8c6fde77b85b4cc21a59f9896e9d7285f890075356dbd528d1cd94926121db946000926121e0575b50508160011b916000199060031b1c19161760fd555b51604051918291602083526020830190612eaf565b0390a1005b0151905085806121b0565b90601f1983169160fd6000527f9346ac6dd7de6b96975fec380d4d994c4c12e6a8897544f22915316cc6cca2809260005b81811061227e57509260019285926121db967fc53a4e1db72f8c6fde77b85b4cc21a59f9896e9d7285f890075356dbd528d1cd989610612265575b505050811b0160fd556121c6565b015160001960f88460031b161c19169055858080612257565b9293602060018192878601518155019501930161221c565b6122e09060fd6000527f9346ac6dd7de6b96975fec380d4d994c4c12e6a8897544f22915316cc6cca280601f850160051c810191602086106122e6575b601f0160051c0190613afb565b83612170565b90915081906122d3565b60036020826040600194516001600160a01b038151166001600160a01b0319885416178755838101518688015501516002860155019201920191906120e2565b6003818102048103610774576003838102048303610774576006840160005260206000208360030281015b826003028201811061236e5750506120ce565b8060006003925560006001820155600060028201550161235b565b80516001600160a01b038151166001600160a01b03198454161783556020600184019101519060208251926123be8484613c50565b01906000526020600020906000905b8382106123eb5750505050600260206001920192019201919061209f565b600260208281600194516001600160a01b038151166001600160a01b0319895416178855015184870155019301910190916123cd565b6001600160ff1b0381168103610774576001600160ff1b0383168303610774576005840160005260206000208360011b81015b8260011b8201811061246757505061208b565b6000815560018101546000600183015580612486575b50600201612454565b6001600160ff1b0381168103610774576001820160005260206000209060011b8101905b8181106124b7575061247d565b600080825560018201556002016124aa565b600260208281600194516001600160a01b038151166001600160a01b03198854161787550151848601550192019201919061205c565b8051805180519067ffffffffffffffff8211611e6657612529826125238754613547565b87613b12565b602090601f831160011461258557600393836020946001979460409460009261257a575b505060001982881b1c191690871b1787555b8381015186880155015160028601550192019301929061202c565b015190508d8061254d565b908560005260206000209160005b601f19851681106125df575093600184819794604094600398602098601f198116106125c7575b505050811b01875561255f565b0151600019838a1b60f8161c191690558d80806125ba565b91926020600181928685015181550194019201612593565b6003818102048103610774576003838102048303610774576003840160005260206000208360030281015b8260030282018110612635575050612017565b8061264260039254613547565b8061265d575b50600060018201556000600282015501612622565b601f81116001146126745750600081555b88612648565b61269390826000526001601f6020600020920160051c82019101613afb565b6000602081208183555561266e565b015190508480611fc8565b8260005260206000209060005b601f19841681106126fd5750600193949583601f198116106126e4575b505050811b018155611fdd565b015160001960f88460031b161c191690558480806126d7565b9091602060018192858a0151815501930191016126ba565b60405162461bcd60e51b815260206004820152601560248201527f6572726f725f636f6e73656e7375734e6f744d657400000000000000000000006044820152606490fd5b600360208261276c6001945186613b4e565b01920193019290611ad3565b6003818102048103610774576003838102048303610774578360005260206000208360030281015b82600302820181106127b3575050611ac2565b8060006003925560018082016127c98154613547565b91826127e0575b50505060006002820155016127a0565b600092601f918282116001146127fd57505050555b8780806127d0565b6128169284865260208620920160051c82019101613afb565b81602081209155556127f5565b60209060405161283281612d5f565b6000815260608382015282826103e05101015201611867565b60209060405161285a81612d43565b600081526000838201526000604082015282826105605101015201611620565b60209060405161288981612d43565b61036051815260008382015260006040820152828261058051010152016114b0565b60405162461bcd60e51b815260206004820152601560248201527f6572726f725f696e76616c69645265706f7274657200000000000000000000006044820152606490fd5b60405162461bcd60e51b815260206004820152601260248201527f6572726f725f71756f72756d4e6f744d657400000000000000000000000000006044820152606490fd5b60405162461bcd60e51b815260206004820152601360248201527f6572726f725f696e76616c696450726f6f6673000000000000000000000000006044820152606490fd5b60405162461bcd60e51b815260206004820152601360248201527f6572726f725f696e76616c69645265706f7274000000000000000000000000006044820152606490fd5b5060016129ca61368d565b0154602435116113de565b60405162461bcd60e51b815260206004820152601c60248201527f6572726f725f7265706f7274416c726561647950726f636573736564000000006044820152606490fd5b60405162461bcd60e51b815260206004820152601360248201527f6572726f725f7374616b655265717569726564000000000000000000000000006044820152606490fd5b612a78915060203d602011611ed857611eca8183612d97565b8361139b565b346101f35760203660031901126101f3576001600160a01b03612a9f6130f5565b612aa7613208565b166001600160a01b031990610101818382541617905561010091825416179055600080f35b346101f3576020806003193601126101f35760043567ffffffffffffffff81116101f357612aff82913690600401612e5e565b9190612b09613503565b50826040519384928337810160fe8152030190209060405190612b2b82612d26565b604051612b3c816102c68187613581565b82526001808401548284015260029182850154604085015260038086018054612b6481612db9565b91612b726040519384612d97565b81835260009081528481208685878087015b868610612ccc57505050505050506060860152612ba360048701613617565b6080860152600586018054612bb781612db9565b91612bc56040519384612d97565b81835260009081528481208688878087015b868610612c92575050505050505060a086015260068601805492612bfa84612db9565b95612c086040519788612d97565b8487526000928352818320908288015b868510612c565760c08a0189905260078b01546001600160a01b03811660e08c015260a01c60ff1615156101008b0152604051806103eb8c82612f1c565b85848992604051612c6681612d43565b6001600160a01b0387541681528487015483820152858701546040820152815201930194019391612c18565b604051612c9e81612d5f565b6001600160a01b038654168152612cb6858701613617565b8382015281520192019201919088878992612bd7565b604051612cd881612d43565b604051612ce9816102c6818a613581565b815284860154838201528c860154604082015281520192019201919085878992612b84565b346101f3576020610955612d2136612e1f565b613dad565b610120810190811067ffffffffffffffff821117611e6657604052565b6060810190811067ffffffffffffffff821117611e6657604052565b6040810190811067ffffffffffffffff821117611e6657604052565b6020810190811067ffffffffffffffff821117611e6657604052565b90601f8019910116810190811067ffffffffffffffff821117611e6657604052565b67ffffffffffffffff8111611e665760051b60200190565b9291612ddc82612db9565b91612dea6040519384612d97565b829481845260208094019160051b81019283116101f357905b828210612e105750505050565b81358152908301908301612e03565b60206003198201126101f3576004359067ffffffffffffffff82116101f357806023830112156101f357816024612e5b93600401359101612dd1565b90565b9181601f840112156101f35782359167ffffffffffffffff83116101f357602083818601950101116101f357565b60005b838110612e9f5750506000910152565b8181015183820152602001612e8f565b90602091612ec881518092818552858086019101612e8c565b601f01601f1916010190565b90815180825260208080930193019160005b828110612ef4575050505090565b835180516001600160a01b031686528201518583015260409094019392810192600101612ee6565b602091828252805190612f3c610120928386860152610140850190612eaf565b93808201516040908186015280830151916060928387015282840151601f19978888820301608089015281518082528382019184808360051b8301019401926000915b888d8585106130aa5750505050505050612fa7906080860151898983030160a08a0152612ed4565b9160a085015192888882030160c089015283518082528382019184808360051b8301019601926000915b8c84841061305d5750505050505060c0850151978784030160e08801528180895194858152019801936000915b84831061302c575050505050506001600160a01b0360e0820151169061010091828501520151151591015290565b855180516001600160a01b03168b52808501518b8601528101518a8201529881019894830194600190920191612ffe565b96806130968a89838a9e9b9c9a8798999a9b829f9860019903018a52516001600160a01b03815116845201519181858201520190612ed4565b9a0193019301919392909796959497612fd1565b9780999891888293856001969798999a9b030187528a806130d58c5194855190808652850190612eaf565b938581015186850152015191015297019301930191939290969596612f7f565b600435906001600160a01b03821682036101f357565b9181601f840112156101f35782359167ffffffffffffffff83116101f3576020808501948460051b0101116101f357565b67ffffffffffffffff8111611e6657601f01601f191660200190565b9291926131648261313c565b916131726040519384612d97565b8294818452818301116101f3578281602093846000960137010152565b929161319a82612db9565b916131a86040519384612d97565b829481845260208094019160051b81019283116101f357905b8282106131ce5750505050565b81356001600160a01b03811681036101f35781529083019083016131c1565b9080601f830112156101f357816020612e5b9335910161318f565b6001600160a01b0360975416330361321c57565b606460405162461bcd60e51b815260206004820152602060248201527f4f776e61626c653a2063616c6c6572206973206e6f7420746865206f776e65726044820152fd5b609754906001600160a01b0380911691826001600160a01b0319821617609755167f8be0079c531659141344cd1fd0a4f28419497f9722a3daafe3b4186f6b6457e0600080a3565b156132af57565b60405162461bcd60e51b815260206004820152602c60248201527f46756e6374696f6e206d7573742062652063616c6c6564207468726f7567682060448201527f64656c656761746563616c6c00000000000000000000000000000000000000006064820152608490fd5b1561332157565b60405162461bcd60e51b815260206004820152602c60248201527f46756e6374696f6e206d7573742062652063616c6c6564207468726f7567682060448201527f6163746976652070726f787900000000000000000000000000000000000000006064820152608490fd5b803b156133cf576001600160a01b037f360894a13ba1a3210667c828492db98dca3e2076cc3735a920a3ca505d382bbc91166001600160a01b0319825416179055565b60405162461bcd60e51b815260206004820152602d60248201527f455243313936373a206e657720696d706c656d656e746174696f6e206973206e60448201527f6f74206120636f6e7472616374000000000000000000000000000000000000006064820152608490fd5b90919015613446575090565b8151156134565750805190602001fd5b60405162461bcd60e51b81526020600482015290819061347a906024830190612eaf565b0390fd5b8181029291811591840414171561077457565b1561349857565b60405162461bcd60e51b815260206004820152602b60248201527f496e697469616c697a61626c653a20636f6e7472616374206973206e6f74206960448201527f6e697469616c697a696e670000000000000000000000000000000000000000006064820152608490fd5b6040519061351082612d26565b600061010083606080825283602083015283604083015280808301528060808301528060a083015260c08201528260e08201520152565b90600182811c92168015613577575b602083101461356157565b634e487b7160e01b600052602260045260246000fd5b91607f1691613556565b906000929180549161359283613547565b9182825260019384811690816000146135f457506001146135b4575b50505050565b90919394506000526020928360002092846000945b8386106135e05750505050010190388080806135ae565b8054858701830152940193859082016135c9565b9294505050602093945060ff191683830152151560051b010190388080806135ae565b90815461362381612db9565b9260409361363385519182612d97565b828152809460208092019260005281600020906000935b85851061365957505050505050565b600284600192845161366a81612d5f565b6001600160a01b038754168152848701548382015281520193019401939161364a565b60405160fd5481600061369f83613547565b9260019081811690811561371c57506001146136c6575b506020925060fe81520301902090565b60fd600090815291507f9346ac6dd7de6b96975fec380d4d994c4c12e6a8897544f22915316cc6cca2805b848310613706575050506020918101386136b6565b80548684015285935060209092019181016136f1565b60ff191684525060209380151502830191503890506136b6565b60001981146107745760010190565b9190820391821161077457565b906402540be400820180921161077457565b9190820180921161077457565b8051821015611e505760209160051b010190565b6001600160a01b03908161010054169160408051808095636085a91160e11b8252600091829160049889915afa9182156139855781926138da575b50818251958291600019918289019189831191825b6138c757838610156138b957865b6137ed878d613745565b86810190811161388b5781101561389f576001810180821161388b579089828d8b8e8261381d61384e9887613771565b5116825260fc60208181528284205493856138388a8a613771565b51169052528d205410613853575b505050613736565b6137e3565b8061386e85613877936138668688613771565b511695613771565b5116918d613771565b52613882828c613771565b5289388d613846565b50634e487b7160e01b885260118d52602488fd5b5091946138ae90939193613736565b9491829391936137d5565b995099505050505050505050565b634e487b7160e01b875260118c52602487fd5b9091503d8083833e6138ec8183612d97565b810190602090818184031261397d5780519067ffffffffffffffff821161398157019180601f8401121561397d57825161392581612db9565b9361393287519586612d97565b818552838086019260051b820101928311613979578301905b82821061395d575050505090386137c0565b8151888116810361397557815290830190830161394b565b8680fd5b8580fd5b8380fd5b8480fd5b508251903d90823e3d90fd5b908160209103126101f3575180151581036101f35790565b9190811015611e505760051b81013590601e19813603018212156101f357019081359167ffffffffffffffff83116101f35760200182360381136101f3579190565b9190811015611e505760051b0190565b356001600160a01b03811681036101f35790565b90613a1982612db9565b604090613a2882519182612d97565b8381528093613a39601f1991612db9565b0191600090815b848110613a4e575050505050565b6020908251613a5c81612d5f565b848152828581830152828701015201613a40565b602090613a87601495949382815194859201612e8c565b01906bffffffffffffffffffffffff199060601b168152613ab18251809360208685019101612e8c565b010190565b9190811015611e505760051b81013590601e19813603018212156101f357019081359167ffffffffffffffff83116101f3576020018260051b360381136101f3579190565b818110613b06575050565b60008155600101613afb565b9190601f8111613b2157505050565b613b4c926000526020600020906020601f840160051c830193106122e657601f0160051c0190613afb565b565b906001600160a01b038151166001600160a01b03198354161782556001908183016020808301519384519167ffffffffffffffff8311611e6657613b9c83613b968654613547565b86613b12565b80601f8411600114613be15750918080926040969594600298600094613bd6575b50501b916000199060031b1c19161790555b0151910155565b015192503880613bbd565b91939495601f1984168660005283600020936000905b828210613c395750509160029795939185604098969410613c20575b505050811b019055613bcf565b015160001960f88460031b161c19169055388080613c13565b808886978294978701518155019601940190613bf7565b600160401b8211611e66578054828255808310613c6c57505050565b6001600160ff1b038082168203610774578316830361077457600091825260208220600191821b810193821b015b838110613ca75750505050565b808360029255838382015501613c9a565b91906000926000808351926402540be40093848102948186041490151715613d995760019695948794851c9380985b613cf7575b505050505050909150565b8151891015613d94578581815b613d3c575b505084841015613d2757613d1f86979899613736565b989796613ce7565b50505050509150915081388080808080613cec565b8451811015613d8f576001600160a01b0380613d588d87613771565b511690613d658388613771565b511614613d7b57613d7590613736565b81613d04565b505092613d8790613752565b928538613d09565b613d09565b613cec565b634e487b7160e01b83526011600452602483fd5b90600091825b8151841015613df857613dc68483613771565b51906402540be4009182810292818404149015171561077457613df291613dec91613764565b93613736565b92613db3565b91925051908115613e07570490565b634e487b7160e01b600052601260045260246000fd5b6101025480612e5b57506103e8804202904282041442151715610774576509184e72a0004202908082046402540be40014901517156107745790565b92919092600091613e6b600091613dad565b94613e74613e1d565b9260fb5490613e8483518361347e565b97845b6001810190818111613f5e57613ea18361140e8d8561347e565b8810613ead5750613e87565b61140e915099613ec3939495969798999a61347e565b92845b8151811015613f54576001600160a01b0380613ee28385613771565b511690841614613efa57613ef590613736565b613ec6565b9293949596505050613f108361140e848461347e565b9360018201809211613f405750613f2b929161140e9161347e565b908210159182613f3a57505090565b10905090565b634e487b7160e01b81526011600452602490fd5b5050505050505090565b634e487b7160e01b87526011600452602487fd5b806000908260801c80614101575b508060401c806140f4575b5060209181831c806140e9575b5060109180831c806140dc575b5060081c6140d4575b6001809101939184821b946001600160ff1b0381160361077457600285019485811161077457613ff6613fe08761313c565b96613fee6040519889612d97565b80885261313c565b86860190601f1901368237865115611e5057603090538551831015611e5057607860218701538281018091116107745791905b81831161407e5750505061403b575090565b6064906040519062461bcd60e51b825280600483015260248201527f537472696e67733a20686578206c656e67746820696e73756666696369656e746044820152fd5b909192600f811682811015611e50578651851015611e50577f3031323334353637383961626364656600000000000000000000000000000000901a85858801015360041c92801561077457600019019190614029565b600101613fae565b6002915091019038613fa5565b915060040138613f98565b6008915091019038613f8b565b91505060109038613f80565b60008082129190821561418857614149612e5b9260209260405161413081612d5f565b60018152602d60f81b85820152955b6141825750613f72565b9260405193816141628693518092868087019101612e8c565b820161417682518093868085019101612e8c565b01038084520182612d97565b03613f72565b6040516020810181811067ffffffffffffffff8211176141b95760405281815292612e5b926020926141499261413f565b634e487b7160e01b83526041600452602483fdfea2646970667358221220ffadb2eb6de96d30a69daa9e1d209c1a4b5baeb33f18113e75252cef378bbc8764736f6c63430008110033",
  "linkReferences": {
    "src/lib/VerifySignature.sol": {
      "VerifySignature": [
        {
          "length": 20,
          "start": 7427
        }
      ]
    }
  },
  "deployedLinkReferences": {
    "src/lib/VerifySignature.sol": {
      "VerifySignature": [
        {
          "length": 20,
          "start": 7372
        }
      ]
    }
  }
}