{
  "_format": "hh-sol-artifact-1",
  "contractName": "LogStoreReportManager",
  "sourceName": "src/ReportManager.sol",
  "abi": [
    {
      "anonymous": false,
      "inputs": [
        {
          "indexed": false,
          "internalType": "address",
          "name": "previousAdmin",
          "type": "address"
        },
        {
          "indexed": false,
          "internalType": "address",
          "name": "newAdmin",
          "type": "address"
        }
      ],
      "name": "AdminChanged",
      "type": "event"
    },
    {
      "anonymous": false,
      "inputs": [
        {
          "indexed": true,
          "internalType": "address",
          "name": "beacon",
          "type": "address"
        }
      ],
      "name": "BeaconUpgraded",
      "type": "event"
    },
    {
      "anonymous": false,
      "inputs": [
        {
          "indexed": false,
          "internalType": "uint8",
          "name": "version",
          "type": "uint8"
        }
      ],
      "name": "Initialized",
      "type": "event"
    },
    {
      "anonymous": false,
      "inputs": [
        {
          "indexed": true,
          "internalType": "address",
          "name": "previousOwner",
          "type": "address"
        },
        {
          "indexed": true,
          "internalType": "address",
          "name": "newOwner",
          "type": "address"
        }
      ],
      "name": "OwnershipTransferred",
      "type": "event"
    },
    {
      "anonymous": false,
      "inputs": [
        {
          "indexed": false,
          "internalType": "string",
          "name": "id",
          "type": "string"
        }
      ],
      "name": "ReportAccepted",
      "type": "event"
    },
    {
      "anonymous": false,
      "inputs": [
        {
          "indexed": true,
          "internalType": "address",
          "name": "implementation",
          "type": "address"
        }
      ],
      "name": "Upgraded",
      "type": "event"
    },
    {
      "inputs": [],
      "name": "MATH_PRECISION",
      "outputs": [
        {
          "internalType": "uint256",
          "name": "",
          "type": "uint256"
        }
      ],
      "stateMutability": "view",
      "type": "function"
    },
    {
      "inputs": [
        {
          "internalType": "uint256[]",
          "name": "timestamps",
          "type": "uint256[]"
        }
      ],
      "name": "aggregateTimestamps",
      "outputs": [
        {
          "internalType": "uint256",
          "name": "",
          "type": "uint256"
        }
      ],
      "stateMutability": "pure",
      "type": "function"
    },
    {
      "inputs": [],
      "name": "blockTimestamp",
      "outputs": [
        {
          "internalType": "uint256",
          "name": "",
          "type": "uint256"
        }
      ],
      "stateMutability": "view",
      "type": "function"
    },
    {
      "inputs": [
        {
          "internalType": "uint256[]",
          "name": "proofTimestamps",
          "type": "uint256[]"
        }
      ],
      "name": "canReport",
      "outputs": [
        {
          "internalType": "bool",
          "name": "",
          "type": "bool"
        }
      ],
      "stateMutability": "view",
      "type": "function"
    },
    {
      "inputs": [],
      "name": "getLastReport",
      "outputs": [
        {
          "components": [
            {
              "internalType": "string",
              "name": "id",
              "type": "string"
            },
            {
              "internalType": "uint256",
              "name": "height",
              "type": "uint256"
            },
            {
              "internalType": "int256",
              "name": "treasury",
              "type": "int256"
            },
            {
              "components": [
                {
                  "internalType": "string",
                  "name": "id",
                  "type": "string"
                },
                {
                  "internalType": "uint256",
                  "name": "writeCapture",
                  "type": "uint256"
                },
                {
                  "internalType": "uint256",
                  "name": "writeBytes",
                  "type": "uint256"
                }
              ],
              "internalType": "struct LogStoreReportManager.Stream[]",
              "name": "streams",
              "type": "tuple[]"
            },
            {
              "components": [
                {
                  "internalType": "address",
                  "name": "id",
                  "type": "address"
                },
                {
                  "internalType": "int256",
                  "name": "amount",
                  "type": "int256"
                }
              ],
              "internalType": "struct LogStoreReportManager.Node[]",
              "name": "nodes",
              "type": "tuple[]"
            },
            {
              "components": [
                {
                  "internalType": "address",
                  "name": "id",
                  "type": "address"
                },
                {
                  "components": [
                    {
                      "internalType": "address",
                      "name": "id",
                      "type": "address"
                    },
                    {
                      "internalType": "int256",
                      "name": "amount",
                      "type": "int256"
                    }
                  ],
                  "internalType": "struct LogStoreReportManager.Node[]",
                  "name": "nodes",
                  "type": "tuple[]"
                }
              ],
              "internalType": "struct LogStoreReportManager.Delegate[]",
              "name": "delegates",
              "type": "tuple[]"
            },
            {
              "components": [
                {
                  "internalType": "address",
                  "name": "id",
                  "type": "address"
                },
                {
                  "internalType": "uint256",
                  "name": "readCapture",
                  "type": "uint256"
                },
                {
                  "internalType": "uint256",
                  "name": "readBytes",
                  "type": "uint256"
                }
              ],
              "internalType": "struct LogStoreReportManager.Consumer[]",
              "name": "consumers",
              "type": "tuple[]"
            },
            {
              "internalType": "address",
              "name": "_reporter",
              "type": "address"
            },
            {
              "internalType": "bool",
              "name": "_processed",
              "type": "bool"
            }
          ],
          "internalType": "struct LogStoreReportManager.Report",
          "name": "",
          "type": "tuple"
        }
      ],
      "stateMutability": "view",
      "type": "function"
    },
    {
      "inputs": [
        {
          "internalType": "string",
          "name": "id",
          "type": "string"
        }
      ],
      "name": "getReport",
      "outputs": [
        {
          "components": [
            {
              "internalType": "string",
              "name": "id",
              "type": "string"
            },
            {
              "internalType": "uint256",
              "name": "height",
              "type": "uint256"
            },
            {
              "internalType": "int256",
              "name": "treasury",
              "type": "int256"
            },
            {
              "components": [
                {
                  "internalType": "string",
                  "name": "id",
                  "type": "string"
                },
                {
                  "internalType": "uint256",
                  "name": "writeCapture",
                  "type": "uint256"
                },
                {
                  "internalType": "uint256",
                  "name": "writeBytes",
                  "type": "uint256"
                }
              ],
              "internalType": "struct LogStoreReportManager.Stream[]",
              "name": "streams",
              "type": "tuple[]"
            },
            {
              "components": [
                {
                  "internalType": "address",
                  "name": "id",
                  "type": "address"
                },
                {
                  "internalType": "int256",
                  "name": "amount",
                  "type": "int256"
                }
              ],
              "internalType": "struct LogStoreReportManager.Node[]",
              "name": "nodes",
              "type": "tuple[]"
            },
            {
              "components": [
                {
                  "internalType": "address",
                  "name": "id",
                  "type": "address"
                },
                {
                  "components": [
                    {
                      "internalType": "address",
                      "name": "id",
                      "type": "address"
                    },
                    {
                      "internalType": "int256",
                      "name": "amount",
                      "type": "int256"
                    }
                  ],
                  "internalType": "struct LogStoreReportManager.Node[]",
                  "name": "nodes",
                  "type": "tuple[]"
                }
              ],
              "internalType": "struct LogStoreReportManager.Delegate[]",
              "name": "delegates",
              "type": "tuple[]"
            },
            {
              "components": [
                {
                  "internalType": "address",
                  "name": "id",
                  "type": "address"
                },
                {
                  "internalType": "uint256",
                  "name": "readCapture",
                  "type": "uint256"
                },
                {
                  "internalType": "uint256",
                  "name": "readBytes",
                  "type": "uint256"
                }
              ],
              "internalType": "struct LogStoreReportManager.Consumer[]",
              "name": "consumers",
              "type": "tuple[]"
            },
            {
              "internalType": "address",
              "name": "_reporter",
              "type": "address"
            },
            {
              "internalType": "bool",
              "name": "_processed",
              "type": "bool"
            }
          ],
          "internalType": "struct LogStoreReportManager.Report",
          "name": "",
          "type": "tuple"
        }
      ],
      "stateMutability": "view",
      "type": "function"
    },
    {
      "inputs": [],
      "name": "getReporters",
      "outputs": [
        {
          "internalType": "address[]",
          "name": "reporters",
          "type": "address[]"
        }
      ],
      "stateMutability": "view",
      "type": "function"
    },
    {
      "inputs": [
        {
          "internalType": "address",
          "name": "_owner",
          "type": "address"
        },
        {
          "internalType": "uint256",
          "name": "_reportTimeBuffer",
          "type": "uint256"
        },
        {
          "internalType": "uint256",
          "name": "__test_block_timestamp",
          "type": "uint256"
        }
      ],
      "name": "initialize",
      "outputs": [],
      "stateMutability": "nonpayable",
      "type": "function"
    },
    {
      "inputs": [],
      "name": "owner",
      "outputs": [
        {
          "internalType": "address",
          "name": "",
          "type": "address"
        }
      ],
      "stateMutability": "view",
      "type": "function"
    },
    {
      "inputs": [
        {
          "internalType": "string",
          "name": "id",
          "type": "string"
        }
      ],
      "name": "processReport",
      "outputs": [],
      "stateMutability": "nonpayable",
      "type": "function"
    },
    {
      "inputs": [],
      "name": "proxiableUUID",
      "outputs": [
        {
          "internalType": "bytes32",
          "name": "",
          "type": "bytes32"
        }
      ],
      "stateMutability": "view",
      "type": "function"
    },
    {
      "inputs": [
        {
          "internalType": "address[]",
          "name": "submittedNodes",
          "type": "address[]"
        }
      ],
      "name": "quorumIsMet",
      "outputs": [
        {
          "internalType": "bool",
          "name": "isMet",
          "type": "bool"
        }
      ],
      "stateMutability": "view",
      "type": "function"
    },
    {
      "inputs": [],
      "name": "renounceOwnership",
      "outputs": [],
      "stateMutability": "nonpayable",
      "type": "function"
    },
    {
      "inputs": [
        {
          "internalType": "string",
          "name": "id",
          "type": "string"
        },
        {
          "internalType": "uint256",
          "name": "blockHeight",
          "type": "uint256"
        },
        {
          "internalType": "string[]",
          "name": "streams",
          "type": "string[]"
        },
        {
          "internalType": "uint256[]",
          "name": "writeCaptureAmounts",
          "type": "uint256[]"
        },
        {
          "internalType": "uint256[]",
          "name": "writeBytes",
          "type": "uint256[]"
        },
        {
          "internalType": "address[]",
          "name": "readConsumerAddresses",
          "type": "address[]"
        },
        {
          "internalType": "uint256[]",
          "name": "readCaptureAmounts",
          "type": "uint256[]"
        },
        {
          "internalType": "uint256[]",
          "name": "readBytes",
          "type": "uint256[]"
        },
        {
          "internalType": "address[]",
          "name": "nodes",
          "type": "address[]"
        },
        {
          "internalType": "int256[]",
          "name": "nodeChanges",
          "type": "int256[]"
        },
        {
          "internalType": "address[]",
          "name": "delegates",
          "type": "address[]"
        },
        {
          "internalType": "address[][]",
          "name": "delegateNodes",
          "type": "address[][]"
        },
        {
          "internalType": "int256[][]",
          "name": "delegateNodeChanges",
          "type": "int256[][]"
        },
        {
          "internalType": "int256",
          "name": "treasurySupplyChange",
          "type": "int256"
        },
        {
          "internalType": "address[]",
          "name": "addresses",
          "type": "address[]"
        },
        {
          "internalType": "uint256[]",
          "name": "proofTimestamps",
          "type": "uint256[]"
        },
        {
          "internalType": "bytes[]",
          "name": "signatures",
          "type": "bytes[]"
        }
      ],
      "name": "report",
      "outputs": [],
      "stateMutability": "nonpayable",
      "type": "function"
    },
    {
      "inputs": [],
      "name": "reportTimeBuffer",
      "outputs": [
        {
          "internalType": "uint256",
          "name": "",
          "type": "uint256"
        }
      ],
      "stateMutability": "view",
      "type": "function"
    },
    {
      "inputs": [
        {
          "internalType": "address",
          "name": "",
          "type": "address"
        }
      ],
      "name": "reputationOf",
      "outputs": [
        {
          "internalType": "uint256",
          "name": "",
          "type": "uint256"
        }
      ],
      "stateMutability": "view",
      "type": "function"
    },
    {
      "inputs": [
        {
          "internalType": "uint256",
          "name": "_reportTimeBuffer",
          "type": "uint256"
        }
      ],
      "name": "setReportTimeBuffer",
      "outputs": [],
      "stateMutability": "nonpayable",
      "type": "function"
    },
    {
      "inputs": [
        {
          "internalType": "address",
          "name": "newOwner",
          "type": "address"
        }
      ],
      "name": "transferOwnership",
      "outputs": [],
      "stateMutability": "nonpayable",
      "type": "function"
    },
    {
      "inputs": [
        {
          "internalType": "address",
          "name": "newImplementation",
          "type": "address"
        }
      ],
      "name": "upgradeTo",
      "outputs": [],
      "stateMutability": "nonpayable",
      "type": "function"
    },
    {
      "inputs": [
        {
          "internalType": "address",
          "name": "newImplementation",
          "type": "address"
        },
        {
          "internalType": "bytes",
          "name": "data",
          "type": "bytes"
        }
      ],
      "name": "upgradeToAndCall",
      "outputs": [],
      "stateMutability": "payable",
      "type": "function"
    }
  ],
  "bytecode": "0x60a0806040523461003157306080526140f9908161003782396080518181816108910152818161099e0152610cb50152f35b600080fdfe6104c0604052600436101561001357600080fd5b60003560e01c80630e0a17131461292057806312e63d71146126ee5780631bfdc98a14610fc557806325cbbdff14610f7957806331c74e0114610f5b5780633659cfe614610c905780634f1ef2861461094c57806352d1902d146108765780636f94990d1461084b57806370f46202146107e6578063715018a61461078b5780637a1ac61e1461051d5780638da5cb5b146104f6578063adb61832146104d3578063d91b99e8146104b3578063db89c04414610479578063dbc2d3701461042b578063eefa7a3e14610222578063f2fde38b146101935763f6883c05146100f957600080fd5b3461018e57602036600319011261018e5760043567ffffffffffffffff811161018e57602061012e6007923690600401612a54565b9190610138612de3565b826040519384928337810160fe81520301902001740100000000000000000000000000000000000000007fffffffffffffffffffffff00ffffffffffffffffffffffffffffffffffffffff825416179055600080f35b600080fd5b3461018e57602036600319011261018e576101ac612d1c565b6101b4612de3565b6001600160a01b038116156101ce576101cc90612e3b565b005b60405162461bcd60e51b815260206004820152602660248201527f4f776e61626c653a206e6577206f776e657220697320746865207a65726f206160448201526564647265737360d01b6064820152608490fd5b3461018e57600036600319011261018e5761023b6130de565b50610244613278565b60405161025081612938565b6102598261315c565b8152600180830154906020918284015260029182850154604085015260038086018054610285816129af565b91610293604051938461298d565b81835260009081528481208685878087015b8686106103f1575050505050505060608601526102c460048701613202565b60808601526005860180546102d8816129af565b916102e6604051938461298d565b81835260009081528481208688878087015b8686106103b7575050505050505060a08601526006860180549261031b846129af565b95610329604051978861298d565b8487526000928352818320908288015b86851061037b5760c08a0189905260078b01546001600160a01b03811660e08c015260a01c60ff1615156101008b0152604051806103778c82612b12565b0390f35b8584899260405161038b81612955565b6001600160a01b0387541681528487015483820152858701546040820152815201930194019391610339565b6040516103c381612971565b6001600160a01b0386541681526103db858701613202565b83820152815201920192019190888789926102f8565b6040516103fd81612955565b6104068661315c565b815284860154838201528c8601546040820152815201920192019190858789926102a5565b3461018e57602036600319011261018e57600435610447612de3565b6402540be400908181029181830414901517156104635760fb55005b634e487b7160e01b600052601160045260246000fd5b3461018e57602036600319011261018e576001600160a01b0361049a612d1c565b1660005260fc6020526020604060002054604051908152f35b3461018e57600036600319011261018e5760206040516402540be4008152f35b3461018e57600036600319011261018e5760206104ee61394e565b604051908152f35b3461018e57600036600319011261018e5760206001600160a01b0360975416604051908152f35b3461018e57606036600319011261018e57610536612d1c565b6024908135916044356000549360ff91828660081c16159586809761077f575b8015610769575b156106ff5760ff198116600117600055866106ed575b5061058d8360005460081c166105888161306c565b61306c565b61059633612e3b565b6105b38360005460081c166105aa8161306c565b6105888161306c565b600160c9556001600160a01b03851692836001600160a01b03198254161790556402540be40091828102908082048414901517156106d85760fb556103e8908181029181830414811517156106d8576509184e72a000029181830414901517156106c35761010055610623612de3565b15610670575061063290612e3b565b61063857005b61ff0019600054166000557f7f26b83ff96e1f2b6a682f133852f6798a09c465da95921460cefb3847402498602060405160018152a1005b60849060266040519162461bcd60e51b8352602060048401528201527f4f776e61626c653a206e6577206f776e657220697320746865207a65726f206160448201526564647265737360d01b6064820152fd5b82634e487b7160e01b60005260116004526000fd5b84634e487b7160e01b60005260116004526000fd5b61ffff19166101011760005586610573565b60405162461bcd60e51b815260206004820152602e818701527f496e697469616c697a61626c653a20636f6e747261637420697320616c72656160448201527f647920696e697469616c697a65640000000000000000000000000000000000006064820152608490fd5b50303b15801561055d575060018482161461055d565b50600184821610610556565b3461018e57600036600319011261018e576107a4612de3565b60006001600160a01b036097546001600160a01b03198116609755167f8be0079c531659141344cd1fd0a4f28419497f9722a3daafe3b4186f6b6457e08280a3005b3461018e57600036600319011261018e576107ff6133fe565b604051809160208083018184528251809152816040850193019160005b82811061082b57505050500390f35b83516001600160a01b03168552869550938101939281019260010161081c565b3461018e57602061086c61085e36612a15565b6108666133fe565b3361398a565b6040519015158152f35b3461018e57600036600319011261018e576001600160a01b037f00000000000000000000000000000000000000000000000000000000000000001630036108e15760206040517f360894a13ba1a3210667c828492db98dca3e2076cc3735a920a3ca505d382bbc8152f35b60405162461bcd60e51b815260206004820152603860248201527f555550535570677261646561626c653a206d757374206e6f742062652063616c60448201527f6c6564207468726f7567682064656c656761746563616c6c00000000000000006064820152608490fd5b604036600319011261018e57610960612d1c565b60243567ffffffffffffffff811161018e573660238201121561018e57610991903690602481600401359101612dac565b906001600160a01b0391827f000000000000000000000000000000000000000000000000000000000000000016926109cb84301415612e83565b6109fa7f360894a13ba1a3210667c828492db98dca3e2076cc3735a920a3ca505d382bbc948286541614612ef5565b610a02612de3565b7f4910fdfa16fed3260ed0e7147f7cc6da11a60208b5b9406d12a635614ffd91435460ff1615610a385750506101cc9150612f67565b82919216604051936352d1902d60e01b85526020948581600481865afa60009181610c61575b50610abf5760405162461bcd60e51b815260048101879052602e60248201527f45524331393637557067726164653a206e657720696d706c656d656e7461746960448201526d6f6e206973206e6f74205555505360901b6064820152608490fd5b03610c0a57610acd82612f67565b604051907fbc7cd75a20ee27fd9adebab32041f755214dbc6bffa90cc0225b39da2e5c2d3b600080a2825115801590610c02575b610b0757005b813b15610bb157506000828192856101cc9695519201905af43d15610ba9573d90610b3182612d90565b91610b3f604051938461298d565b82523d60008484013e5b7f416464726573733a206c6f772d6c6576656c2064656c65676174652063616c6c60405193610b7785612955565b602785528401527f206661696c6564000000000000000000000000000000000000000000000000006040840152613015565b606090610b49565b62461bcd60e51b815260048101849052602660248201527f416464726573733a2064656c65676174652063616c6c20746f206e6f6e2d636f6044820152651b9d1c9858dd60d21b6064820152608490fd5b506001610b01565b60405162461bcd60e51b815260048101859052602960248201527f45524331393637557067726164653a20756e737570706f727465642070726f786044820152681a58589b195555525160ba1b6064820152608490fd5b9091508681813d8311610c89575b610c79818361298d565b8101031261018e57519087610a5e565b503d610c6f565b3461018e5760208060031936011261018e57610caa612d1c565b6001600160a01b03807f000000000000000000000000000000000000000000000000000000000000000016610ce181301415612e83565b610d107f360894a13ba1a3210667c828492db98dca3e2076cc3735a920a3ca505d382bbc918383541614612ef5565b610d18612de3565b604051908482019282841067ffffffffffffffff851117610f4557836040526000835260ff7f4910fdfa16fed3260ed0e7147f7cc6da11a60208b5b9406d12a635614ffd91435416600014610d7557505050506101cc9150612f67565b8416906040516352d1902d60e01b81528681600481865afa60009181610f16575b50610df75760405162461bcd60e51b815260048101889052602e60248201527f45524331393637557067726164653a206e657720696d706c656d656e7461746960448201526d6f6e206973206e6f74205555505360901b6064820152608490fd5b03610ebf57610e0584612f67565b604051907fbc7cd75a20ee27fd9adebab32041f755214dbc6bffa90cc0225b39da2e5c2d3b600080a2815115801590610eb7575b610e3f57005b833b15610e6657506101cc9392600092839251915af43d15610ba9573d90610b3182612d90565b62461bcd60e51b815260048101859052602660248201527f416464726573733a2064656c65676174652063616c6c20746f206e6f6e2d636f6044820152651b9d1c9858dd60d21b6064820152608490fd5b506000610e39565b60405162461bcd60e51b815260048101869052602960248201527f45524331393637557067726164653a20756e737570706f727465642070726f786044820152681a58589b195555525160ba1b6064820152608490fd5b9091508781813d8311610f3e575b610f2e818361298d565b8101031261018e57519088610d96565b503d610f24565b634e487b7160e01b600052604160045260246000fd5b3461018e57600036600319011261018e57602060fb54604051908152f35b3461018e57602036600319011261018e5760043567ffffffffffffffff811161018e573660238201121561018e5761086c610fc06020923690602481600401359101612d32565b613770565b3461018e5761022036600319011261018e5760043567ffffffffffffffff811161018e57610ff7903690600401612a54565b6101e0526104405260443567ffffffffffffffff811161018e5761101f903690600401612ceb565b6102c05260643567ffffffffffffffff811161018e57611043903690600401612ceb565b610280526102e05260843567ffffffffffffffff811161018e5761106b903690600401612ceb565b610160526103605260a43567ffffffffffffffff811161018e57611093903690600401612ceb565b6104005260c43567ffffffffffffffff811161018e576110b7903690600401612ceb565b9060e43567ffffffffffffffff811161018e576110d8903690600401612ceb565b6101c052926101043567ffffffffffffffff811161018e576110fe903690600401612ceb565b610420526104a0526101243567ffffffffffffffff811161018e57611127903690600401612ceb565b9290610320526101443567ffffffffffffffff811161018e5761114e903690600401612ceb565b6102005260c0526101643567ffffffffffffffff811161018e57611176903690600401612ceb565b61046052610300526101843567ffffffffffffffff811161018e5761119f903690600401612ceb565b6103c0526102a0526101c43567ffffffffffffffff811161018e576111c8903690600401612ceb565b61022052610140526101e43567ffffffffffffffff811161018e576111f1903690600401612ceb565b61024052610180526102043567ffffffffffffffff811161018e5761121a903690600401612ceb565b610380526101a052602460206001600160a01b0360ff541660405192838092630c2effa360e31b82523360048301525afa9081156124ef576000916126cf575b501561268a5760ff60076040516101e0516104405182376020816101e051810160fe815203019020015460a01c16612645574360243511158061262f575b156125ea576102205180600381020460031481151715610463576112cd906112c8610380519161024051906133c7565b6133c7565b60036102205102036125a5576112ed610fc0366102205161014051612d32565b15612560576060610120526113196113076102c0516129af565b8061048052604051806102605261298d565b6102c0516102605152601f196113316102c0516129af565b0160005b81811061252f57505060005b6102c05180821015611462579060406113e16113618361145d958c61359a565b929061137d61137786610280516102e0516135dc565b35613e75565b60206113908761016051610360516135dc565b35916113cc855197889581610120516113b18151809289808d019101612a82565b88019186830137019183830160008152815194859201612a82565b0190602082015203602081018452018261298d565b610120526113f3816102c0518a61359a565b9061140583610280516102e0516135dc565b3561143061141a8561016051610360516135dc565b35926040519461142986612955565b3691612dac565b83526020830152604082015261144982610260516133d4565b5261145781610260516133d4565b506133ab565b611341565b50508484611485611475610400516129af565b8060e0526040518060a05261298d565b6104005160a05152601f1961149c610400516129af565b0160005b81811061250157505060005b6104005190818110156115c4576114cf6114ca826115bf94896135dc565b6135ec565b61155360546114e261137785888b6135dc565b6114f0856101c0518a6135dc565b35936040519485916101205161150f8151809260208088019101612a82565b8301906bffffffffffffffffffffffff199060601b1660208201528351906115408260349660208885019101612a82565b019083820152039081018452018261298d565b610120526115686114ca8261040051896135dc565b6115738285886135dc565b35611582836101c051886135dc565b35906001600160a01b036040519361159985612955565b168352602083015260408201526115b28260a0516133d4565b526114578160a0516133d4565b6114ac565b866115d161042051613600565b6103405260005b61042051908181101561169c576115f96114ca82611697946104a0516135dc565b61163861161361160d8487610320516135dc565b35614003565b9161162a6040519384926101205160208501613661565b03601f19810183528261298d565b610120526116506114ca82610420516104a0516135dc565b61165e8285610320516135dc565b356001600160a01b036040519261167484612971565b168252602082015261168982610340516133d4565b5261145781610340516133d4565b6115d8565b6116b86116ab610200516129af565b604051806101005261298d565b610200516101005152601f196116d0610200516129af565b0160006080525b806080511015611712576040516116ed81612971565b60008152606060208201526020608051610100510101526020608051016080526116d7565b60006103e0525b610200516103e0519081101561191e5761174661173f60609261046051610300516136a7565b9050613600565b6103a0526000905b6117626103e05161046051610300516136a7565b90508210156118345761182e906117c16117936114ca8561178d6103e05161046051610300516136a7565b906135dc565b9161162a6117b261160d8761178d6103e0516103c0516102a0516136a7565b60405194859360208501613661565b916117dd6114ca8261178d6103e05161046051610300516136a7565b6117f58261178d6103e0516103c0516102a0516136a7565b356001600160a01b036040519261180b84612971565b1682526020820152611820826103a0516133d4565b52611457816103a0516133d4565b9061174e565b90506118ac61184f6114ca6103e0516102005160c0516135dc565b9160405180936101205161186c8151809260208087019101612a82565b8201906bffffffffffffffffffffffff199060601b16602082015282519061189d8260349560208785019101612a82565b0103601481018452018261298d565b610120526118c66114ca6103e0516102005160c0516135dc565b6001600160a01b03604051916118db83612971565b1681526103a05160208201526118f76103e051610100516133d4565b526119086103e051610100516133d4565b506119156103e0516133ab565b6103e052611719565b600160005b610220518110156124fb5761193a6101a435614003565b61194b8261024051610180516135dc565b356119b66060604051809360208201956101e0516104405188376101e05183016024356020820152610120519061198c825180936020604085019101612a82565b016119a1825180936020604085019101612a82565b0190604082015203604081018452018261298d565b51902060206001600160a01b0360846119d96114ca8661022051610140516135dc565b6119ea86610380516101a05161359a565b809160405197889687956301a86b5560e41b8752166004860152602485015260606044850152816064850152848401376000828201840152601f01601f1916810103018173__$267c3dc7aa7d3fe2e28bda43a2ca27cd27$__5af480156124ef576001916000916124c0575b50151503611a6c57611a67906133ab565b611923565b505060005b1561247b57611a7e6133fe565b611a99611a923661024051610180516129c7565b823361398a565b156124365760405190611aab82612938565b611b186020611ac1366101e05161044051612dac565b808552602435828601526101a43560408601526102605160608601526103405160808601526101005160a086015260a05160c08601523360e086015260006101008601528160405193828580945193849201612a82565b810160fe81520301902091805192835167ffffffffffffffff8111610f4557611b418254613122565b601f8111612404575b506020601f821160011461239b578192939495600092612390575b50508160011b916000199060031b1c19161781555b60208201516001820155604082015160028201556060820151805190680100000000000000008211610f455760038301548260038501558083106122e5575b50602001906003830160005260206000206000925b8284106121b05750505050600481016080830151906020825192611bf28484613703565b019060005260206000206000915b83831061217a575050505060a0820151805190680100000000000000008211610f455760058301548260058501558083106120d2575b506020016005830160005260206000206000915b83831061203a575050505060c0820151805190680100000000000000008211610f45576006830154826006850155808310611fe1575b506020016006830160005260206000206000915b838310611fa1578686600787016001600160a01b0360e0830151168154907fffffffffffffffffffffff00000000000000000000000000000000000000000074ff0000000000000000000000000000000000000000610100860151151560a01b16921617179055805191825167ffffffffffffffff8111610f4557611d1a60fd54613122565b601f8111611f47575b506020601f8211600114611ec35781929394600092611eb8575b50508160011b916000199060031b1c19161760fd555b6000805b8251821015611e79576001600160a01b03611d7283856133d4565b51163314600014611dac57503360005260fc6020526040600020805490600a82018092116104635755611da66001916133ab565b90611d57565b9081611e4057806001600160a01b03611dc8611da693866133d4565b511660005260fc8060205260056040600020541015600014611e19576005905b6001600160a01b03611dfa84886133d4565b5116600052602052611e1260406000209182546133ba565b90556133ab565b6001600160a01b03611e2b83876133d4565b51166000528060205260406000205490611de8565b6001600160a01b03611e5282856133d4565b511660005260fc60205260406000209081546001810180911161046357611da692556133ab565b7fc53a4e1db72f8c6fde77b85b4cc21a59f9896e9d7285f890075356dbd528d1cd611eb38551604051918291602083526020830190612aa5565b0390a1005b015190508480611d3d565b601f1982169060fd6000527f9346ac6dd7de6b96975fec380d4d994c4c12e6a8897544f22915316cc6cca2809160005b818110611f2f57509583600195969710611f16575b505050811b0160fd55611d53565b015160001960f88460031b161c19169055848080611f08565b9192602060018192868b015181550194019201611ef3565b611f919060fd6000527f9346ac6dd7de6b96975fec380d4d994c4c12e6a8897544f22915316cc6cca280601f840160051c81019160208510611f97575b601f0160051c01906136ec565b84611d23565b9091508190611f84565b60036020826040600194516001600160a01b038151166001600160a01b031988541617875583810151868801550151600286015501920192019190611c94565b6003818102048103610463576003838102048303610463576006840160005260206000208360030281015b826003028201811061201f575050611c80565b8060006003925560006001820155600060028201550161200c565b80516001600160a01b038151166001600160a01b031984541617835560206001840191015190602082519261206f8484613703565b01906000526020600020906000905b83821061209c57505050506002602060019201920192019190611c4a565b600260208281600194516001600160a01b038151166001600160a01b03198954161788550151848701550193019101909161207e565b6001600160ff1b0381168103610463576001600160ff1b0383168303610463576005840160005260206000208360011b81015b8260011b82018110612118575050611c36565b6000815560018101546000600183015580612137575b50600201612105565b6001600160ff1b0381168103610463576001820160005260206000209060011b8101905b818110612168575061212e565b6000808255600182015560020161215b565b600260208281600194516001600160a01b038151166001600160a01b031988541617875501518486015501920192019190611c00565b8051805180519067ffffffffffffffff8211610f45576121d08554613122565b601f81116122a8575b50602090601f831160011461223657600393836020946001979460409460009261222b575b505060001982881b1c191690871b1787555b83810151868801550151600286015501920193019290611bce565b015190508e806121fe565b908560005260206000209160005b601f1985168110612290575093600184819794604094600398602098601f19811610612278575b505050811b018755612210565b0151600019838a1b60f8161c191690558e808061226b565b91926020600181928685015181550194019201612244565b6122d5908660005260206000206005601f8601811c820192602087106122db575b601f01901c01906136ec565b8a6121d9565b91925082916122c9565b6003818102048103610463576003838102048303610463576003840160005260206000208360030281015b8260030282018110612323575050611bb9565b8061233060039254613122565b8061234b575b50600060018201556000600282015501612310565b601f81116001146123625750600081555b89612336565b61238190826000526001601f6020600020920160051c820191016136ec565b6000602081208183555561235c565b015190508580611b65565b8260005260206000209060005b601f19841681106123ec575060019394959683601f198116106123d3575b505050811b018155611b7a565b015160001960f88460031b161c191690558580806123c6565b9091602060018192858b0151815501930191016123a8565b61243090836000526020600020601f840160051c81019160208510611f9757601f0160051c01906136ec565b85611b4a565b60405162461bcd60e51b815260206004820152601560248201527f6572726f725f696e76616c69645265706f7274657200000000000000000000006044820152606490fd5b60405162461bcd60e51b815260206004820152601d60248201527f6572726f725f696e76616c69645265706f72745369676e6174757265730000006044820152606490fd5b6124e2915060203d6020116124e8575b6124da818361298d565b810190613582565b84611a56565b503d6124d0565b6040513d6000823e3d90fd5b50611a71565b60209060405161251081612955565b6000815260008382015260006040820152828260a051010152016114a0565b60209060405161253e81612955565b6101205181526000838201526000604082015282826102605101015201611335565b60405162461bcd60e51b815260206004820152601260248201527f6572726f725f71756f72756d4e6f744d657400000000000000000000000000006044820152606490fd5b60405162461bcd60e51b815260206004820152601360248201527f6572726f725f696e76616c696450726f6f6673000000000000000000000000006044820152606490fd5b60405162461bcd60e51b815260206004820152601360248201527f6572726f725f696e76616c69645265706f7274000000000000000000000000006044820152606490fd5b50600161263a613278565b015460243511611298565b60405162461bcd60e51b815260206004820152601c60248201527f6572726f725f7265706f7274416c726561647950726f636573736564000000006044820152606490fd5b60405162461bcd60e51b815260206004820152601360248201527f6572726f725f7374616b655265717569726564000000000000000000000000006044820152606490fd5b6126e8915060203d6020116124e8576124da818361298d565b8761125a565b3461018e5760208060031936011261018e5760043567ffffffffffffffff811161018e5761272182913690600401612a54565b919061272b6130de565b50826040519384928337810160fe815203019020906040519061274d82612938565b6127568361315c565b8252600180840154828401526002918285015460408501526003808601805461277e816129af565b9161278c604051938461298d565b81835260009081528481208685878087015b8686106128e6575050505050505060608601526127bd60048701613202565b60808601526005860180546127d1816129af565b916127df604051938461298d565b81835260009081528481208688878087015b8686106128ac575050505050505060a086015260068601805492612814846129af565b95612822604051978861298d565b8487526000928352818320908288015b8685106128705760c08a0189905260078b01546001600160a01b03811660e08c015260a01c60ff1615156101008b0152604051806103778c82612b12565b8584899260405161288081612955565b6001600160a01b0387541681528487015483820152858701546040820152815201930194019391612832565b6040516128b881612971565b6001600160a01b0386541681526128d0858701613202565b83820152815201920192019190888789926127f1565b6040516128f281612955565b6128fb8661315c565b815284860154838201528c86015460408201528152019201920191908587899261279e565b3461018e5760206104ee61293336612a15565b6138de565b610120810190811067ffffffffffffffff821117610f4557604052565b6060810190811067ffffffffffffffff821117610f4557604052565b6040810190811067ffffffffffffffff821117610f4557604052565b90601f8019910116810190811067ffffffffffffffff821117610f4557604052565b67ffffffffffffffff8111610f455760051b60200190565b92916129d2826129af565b916129e0604051938461298d565b829481845260208094019160051b810192831161018e57905b828210612a065750505050565b813581529083019083016129f9565b602060031982011261018e576004359067ffffffffffffffff821161018e578060238301121561018e57816024612a51936004013591016129c7565b90565b9181601f8401121561018e5782359167ffffffffffffffff831161018e576020838186019501011161018e57565b60005b838110612a955750506000910152565b8181015183820152602001612a85565b90602091612abe81518092818552858086019101612a82565b601f01601f1916010190565b90815180825260208080930193019160005b828110612aea575050505090565b835180516001600160a01b031686528201518583015260409094019392810192600101612adc565b602091828252805190612b32610120928386860152610140850190612aa5565b93808201516040908186015280830151916060928387015282840151601f19978888820301608089015281518082528382019184808360051b8301019401926000915b888d858510612ca05750505050505050612b9d906080860151898983030160a08a0152612aca565b9160a085015192888882030160c089015283518082528382019184808360051b8301019601926000915b8c848410612c535750505050505060c0850151978784030160e08801528180895194858152019801936000915b848310612c22575050505050506001600160a01b0360e0820151169061010091828501520151151591015290565b855180516001600160a01b03168b52808501518b8601528101518a8201529881019894830194600190920191612bf4565b9680612c8c8a89838a9e9b9c9a8798999a9b829f9860019903018a52516001600160a01b03815116845201519181858201520190612aca565b9a0193019301919392909796959497612bc7565b9780999891888293856001969798999a9b030187528a80612ccb8c5194855190808652850190612aa5565b938581015186850152015191015297019301930191939290969596612b75565b9181601f8401121561018e5782359167ffffffffffffffff831161018e576020808501948460051b01011161018e57565b600435906001600160a01b038216820361018e57565b9291612d3d826129af565b91612d4b604051938461298d565b829481845260208094019160051b810192831161018e57905b828210612d715750505050565b81356001600160a01b038116810361018e578152908301908301612d64565b67ffffffffffffffff8111610f4557601f01601f191660200190565b929192612db882612d90565b91612dc6604051938461298d565b82948184528183011161018e578281602093846000960137010152565b6001600160a01b03609754163303612df757565b606460405162461bcd60e51b815260206004820152602060248201527f4f776e61626c653a2063616c6c6572206973206e6f7420746865206f776e65726044820152fd5b609754906001600160a01b0380911691826001600160a01b0319821617609755167f8be0079c531659141344cd1fd0a4f28419497f9722a3daafe3b4186f6b6457e0600080a3565b15612e8a57565b60405162461bcd60e51b815260206004820152602c60248201527f46756e6374696f6e206d7573742062652063616c6c6564207468726f7567682060448201527f64656c656761746563616c6c00000000000000000000000000000000000000006064820152608490fd5b15612efc57565b60405162461bcd60e51b815260206004820152602c60248201527f46756e6374696f6e206d7573742062652063616c6c6564207468726f7567682060448201527f6163746976652070726f787900000000000000000000000000000000000000006064820152608490fd5b803b15612faa576001600160a01b037f360894a13ba1a3210667c828492db98dca3e2076cc3735a920a3ca505d382bbc91166001600160a01b0319825416179055565b60405162461bcd60e51b815260206004820152602d60248201527f455243313936373a206e657720696d706c656d656e746174696f6e206973206e60448201527f6f74206120636f6e7472616374000000000000000000000000000000000000006064820152608490fd5b90919015613021575090565b8151156130315750805190602001fd5b60405162461bcd60e51b815260206004820152908190613055906024830190612aa5565b0390fd5b8181029291811591840414171561046357565b1561307357565b60405162461bcd60e51b815260206004820152602b60248201527f496e697469616c697a61626c653a20636f6e7472616374206973206e6f74206960448201527f6e697469616c697a696e670000000000000000000000000000000000000000006064820152608490fd5b604051906130eb82612938565b600061010083606080825283602083015283604083015280808301528060808301528060a083015260c08201528260e08201520152565b90600182811c92168015613152575b602083101461313c57565b634e487b7160e01b600052602260045260246000fd5b91607f1691613131565b906040519182600082549261317084613122565b9081845260019485811690816000146131df575060011461319c575b505061319a9250038361298d565b565b9093915060005260209081600020936000915b8183106131c757505061319a9350820101388061318c565b855488840185015294850194879450918301916131af565b91505061319a94506020925060ff191682840152151560051b820101388061318c565b90815461320e816129af565b9260409361321e8551918261298d565b828152809460208092019260005281600020906000935b85851061324457505050505050565b600284600192845161325581612971565b6001600160a01b0387541681528487015483820152815201930194019391613235565b60405160fd5481600061328a83613122565b9260019081811690811561330757506001146132b1575b506020925060fe81520301902090565b60fd600090815291507f9346ac6dd7de6b96975fec380d4d994c4c12e6a8897544f22915316cc6cca2805b8483106132f1575050506020918101386132a1565b80548684015285935060209092019181016132dc565b60ff191684525060209380151502830191503890506132a1565b602090818184031261018e5780519067ffffffffffffffff821161018e57019180601f8401121561018e578251613357816129af565b93613365604051958661298d565b818552838086019260051b82010192831161018e578301905b82821061338c575050505090565b81516001600160a01b038116810361018e57815290830190830161337e565b60001981146104635760010190565b9190820391821161046357565b9190820180921161046357565b80518210156133e85760209160051b010190565b634e487b7160e01b600052603260045260246000fd5b6001600160a01b03908160ff54169160408051808095636085a91160e11b8252600091829160049889915afa918215613576578192613552575b50818251958291600019918289019189831191825b61353f578386101561353157865b613465878d6133ba565b868101908111613503578110156135175760018101808211613503579089828d8b8e826134956134c698876133d4565b5116825260fc60208181528284205493856134b08a8a6133d4565b51169052528d2054106134cb575b5050506133ab565b61345b565b806134e6856134ef936134de86886133d4565b5116956133d4565b5116918d6133d4565b526134fa828c6133d4565b5289388d6134be565b50634e487b7160e01b885260118d52602488fd5b509194613526909391936133ab565b94918293919361344d565b995099505050505050505050565b634e487b7160e01b875260118c52602487fd5b61356f9192503d8084833e613567818361298d565b810190613321565b9038613438565b508251903d90823e3d90fd5b9081602091031261018e5751801515810361018e5790565b91908110156133e85760051b81013590601e198136030182121561018e57019081359167ffffffffffffffff831161018e57602001823603811361018e579190565b91908110156133e85760051b0190565b356001600160a01b038116810361018e5790565b9061360a826129af565b6040906136198251918261298d565b838152809361362a601f19916129af565b0191600090815b84811061363f575050505050565b602090825161364d81612971565b848152828581830152828701015201613631565b602090613678601495949382815194859201612a82565b01906bffffffffffffffffffffffff199060601b1681526136a28251809360208685019101612a82565b010190565b91908110156133e85760051b81013590601e198136030182121561018e57019081359167ffffffffffffffff831161018e576020018260051b3603811361018e579190565b8181106136f7575050565b600081556001016136ec565b680100000000000000008211610f4557805482825580831061372457505050565b6001600160ff1b038082168203610463578316830361046357600091825260208220600191821b810193821b015b83811061375f5750505050565b808360029255838382015501613752565b90600091600090816001600160a01b0392818460ff541660405193848092636085a91160e11b825260049384915afa9384156138d35782946138b7575b508351946402540be40090818702968088048314901517156138a45760019998978a97881c96859b5b6137e9575b505050505050505050909150565b80518c101561389f578886838e835b613838575b505050508787101561381d57613815899a9b9c6133ab565b9b9a996137d6565b505050505050505091509150813880808080808080806137db565b865183101561389a5761384b90856133d4565b51168461385883886133d4565b51161461387057613868906133ab565b838e836137f8565b50509583810180911161388757958838838e6137fd565b634e487b7160e01b865260118552602486fd5b6137fd565b6137db565b634e487b7160e01b845260118352602484fd5b6138cc9194503d8084833e613567818361298d565b92386137ad565b6040513d84823e3d90fd5b90600091825b8151841015613929576138f784836133d4565b51906402540be40091828102928184041490151715610463576139239161391d916133c7565b936133ab565b926138e4565b91925051908115613938570490565b634e487b7160e01b600052601260045260246000fd5b6101005480612a5157506103e8804202904282041442151715610463576509184e72a0004202908082046402540be40014901517156104635790565b926000916139996000946138de565b6139a281613d0d565b916040916139e583516139b481612971565b601281526020957f6d65616e50726f6f6654696d657374616d70000000000000000000000000000087830152613cb3565b6139ed61394e565b90613a346139fa83613d0d565b855190613a0682612971565b600e82527f70726563697365426c6f636b547300000000000000000000000000000000000088830152613cb3565b60fb5492613a43815185613059565b99895b6001810190818111613c9f57613a60856112c88f85613059565b8610613a6c5750613a46565b9495969798999a9b613a899150936112c8613a8f93949587613059565b93613d0d565b91613ace8751613a9e81612971565b6005948582527f6379636c650000000000000000000000000000000000000000000000000000008b830152613cb3565b8a5b81518110156137db576001600160a01b0380613aec83856133d4565b511690841614613b0457613aff906133ab565b613ad0565b949596979899505050613b1b826112c88786613059565b91600195868501808611613c9f5792613bab613b71613b6b7f56616c69645265706f72746572000000000000000000000000000000000000009997956112c8613c329661319a9f9e9d9b99613059565b95613d0d565b895190613b7d82612971565b600f82527f7265706f72746572496e6465783a2000000000000000000000000000000000008c830152613cb3565b613bf1613bb784613d0d565b895190613bc382612971565b600782527f73746172743a20000000000000000000000000000000000000000000000000008c830152613cb3565b613bfa84613d0d565b885191613c0683612971565b82527f656e643a200000000000000000000000000000000000000000000000000000008a830152613cb3565b8210159182613c95575b5050809750600014613c7857825190613c5482612971565b8152601560fa1b84820152915b5192613c6c84612971565b600d8452830152613cb3565b825190613c8482612971565b8152602360f91b8482015291613c61565b1090503880613c3c565b634e487b7160e01b8c52601160045260248cfd5b6000919061162a613cfa8493604051928391613ce86020840196634b5c427760e01b8852604060248601526064850190612aa5565b83810360231901604485015290612aa5565b51906a636f6e736f6c652e6c6f675afa50565b806000917a184f03e93ff9f4daa797ed6e38ed64bf6a1f01000000000000000080821015613e67575b506d04ee2d6d415b85acef810000000080831015613e58575b50662386f26fc1000080831015613e49575b506305f5e10080831015613e3a575b5061271080831015613e2b575b506064821015613e1b575b600a80921015613e11575b60019081602181860195613da687612d90565b96613db4604051988961298d565b808852613dc3601f1991612d90565b01366020890137860101905b613ddb575b5050505090565b600019019083906f181899199a1a9b1b9c1cb0b131b232b360811b8282061a835304918215613e0c57919082613dcf565b613dd4565b9160010191613d93565b9190606460029104910191613d88565b60049193920491019138613d7d565b60089193920491019138613d70565b60109193920491019138613d61565b60209193920491019138613d4f565b604093508104915038613d36565b806000908260801c80613ff7575b508060401c80613fea575b5060209181831c80613fdf575b5060109180831c80613fd2575b5060081c613fca575b6001809101939184821b946001600160ff1b0381160361046357600285019485811161046357613ef9613ee387612d90565b96613ef1604051988961298d565b808852612d90565b86860190601f19013682378651156133e8576030905385518310156133e857607860218701538281018091116104635791905b818311613f8157505050613f3e575090565b6064906040519062461bcd60e51b825280600483015260248201527f537472696e67733a20686578206c656e67746820696e73756666696369656e746044820152fd5b909192600f8116828110156133e85786518510156133e8576f181899199a1a9b1b9c1cb0b131b232b360811b901a85858801015360041c92801561046357600019019190613f2c565b600101613eb1565b6002915091019038613ea8565b915060040138613e9b565b6008915091019038613e8e565b91505060109038613e83565b60008082129190821561407e5761403f612a519260209260405161402681612971565b60018152602d60f81b85820152955b6140785750613e75565b9260405193816140588693518092868087019101612a82565b820161406c82518093868085019101612a82565b0103808452018261298d565b03613e75565b6040516020810181811067ffffffffffffffff8211176140af5760405281815292612a519260209261403f92614035565b634e487b7160e01b83526041600452602483fdfea2646970667358221220a89933d0cc8db7d54c9fcae13f7227b2b2473d0038bc90aead18b20834ae325564736f6c63430008110033",
  "linkReferences": {
    "src/lib/VerifySignature.sol": {
      "VerifySignature": [
        {
          "length": 20,
          "start": 6759
        }
      ]
    }
  },
  "deployedLinkReferences": {
    "src/lib/VerifySignature.sol": {
      "VerifySignature": [
        {
          "length": 20,
          "start": 6704
        }
      ]
    }
  }
}