{
  "_format": "hh-sol-artifact-1",
  "contractName": "LogStoreReportManager",
  "sourceName": "src/ReportManager.sol",
  "abi": [
    {
      "anonymous": false,
      "inputs": [
        {
          "indexed": false,
          "internalType": "address",
          "name": "previousAdmin",
          "type": "address"
        },
        {
          "indexed": false,
          "internalType": "address",
          "name": "newAdmin",
          "type": "address"
        }
      ],
      "name": "AdminChanged",
      "type": "event"
    },
    {
      "anonymous": false,
      "inputs": [
        {
          "indexed": true,
          "internalType": "address",
          "name": "beacon",
          "type": "address"
        }
      ],
      "name": "BeaconUpgraded",
      "type": "event"
    },
    {
      "anonymous": false,
      "inputs": [
        {
          "indexed": false,
          "internalType": "uint8",
          "name": "version",
          "type": "uint8"
        }
      ],
      "name": "Initialized",
      "type": "event"
    },
    {
      "anonymous": false,
      "inputs": [
        {
          "indexed": true,
          "internalType": "address",
          "name": "previousOwner",
          "type": "address"
        },
        {
          "indexed": true,
          "internalType": "address",
          "name": "newOwner",
          "type": "address"
        }
      ],
      "name": "OwnershipTransferred",
      "type": "event"
    },
    {
      "anonymous": false,
      "inputs": [
        {
          "indexed": false,
          "internalType": "string",
          "name": "raw",
          "type": "string"
        }
      ],
      "name": "ReportAccepted",
      "type": "event"
    },
    {
      "anonymous": false,
      "inputs": [
        {
          "indexed": true,
          "internalType": "address",
          "name": "implementation",
          "type": "address"
        }
      ],
      "name": "Upgraded",
      "type": "event"
    },
    {
      "inputs": [],
      "name": "getLastReport",
      "outputs": [
        {
          "components": [
            {
              "internalType": "string",
              "name": "id",
              "type": "string"
            },
            {
              "internalType": "uint256",
              "name": "height",
              "type": "uint256"
            },
            {
              "internalType": "int256",
              "name": "treasury",
              "type": "int256"
            },
            {
              "components": [
                {
                  "internalType": "string",
                  "name": "id",
                  "type": "string"
                },
                {
                  "internalType": "uint256",
                  "name": "writeCapture",
                  "type": "uint256"
                },
                {
                  "internalType": "uint256",
                  "name": "writeBytes",
                  "type": "uint256"
                }
              ],
              "internalType": "struct LogStoreReportManager.Stream[]",
              "name": "streams",
              "type": "tuple[]"
            },
            {
              "components": [
                {
                  "internalType": "address",
                  "name": "id",
                  "type": "address"
                },
                {
                  "internalType": "int256",
                  "name": "amount",
                  "type": "int256"
                }
              ],
              "internalType": "struct LogStoreReportManager.Node[]",
              "name": "nodes",
              "type": "tuple[]"
            },
            {
              "components": [
                {
                  "internalType": "address",
                  "name": "id",
                  "type": "address"
                },
                {
                  "components": [
                    {
                      "internalType": "address",
                      "name": "id",
                      "type": "address"
                    },
                    {
                      "internalType": "int256",
                      "name": "amount",
                      "type": "int256"
                    }
                  ],
                  "internalType": "struct LogStoreReportManager.Node[]",
                  "name": "nodes",
                  "type": "tuple[]"
                }
              ],
              "internalType": "struct LogStoreReportManager.Delegate[]",
              "name": "delegates",
              "type": "tuple[]"
            },
            {
              "components": [
                {
                  "internalType": "address",
                  "name": "id",
                  "type": "address"
                },
                {
                  "internalType": "uint256",
                  "name": "readCapture",
                  "type": "uint256"
                },
                {
                  "internalType": "uint256",
                  "name": "readBytes",
                  "type": "uint256"
                }
              ],
              "internalType": "struct LogStoreReportManager.Consumer[]",
              "name": "consumers",
              "type": "tuple[]"
            },
            {
              "internalType": "address",
              "name": "_reporter",
              "type": "address"
            },
            {
              "internalType": "bool",
              "name": "_processed",
              "type": "bool"
            }
          ],
          "internalType": "struct LogStoreReportManager.Report",
          "name": "",
          "type": "tuple"
        }
      ],
      "stateMutability": "view",
      "type": "function"
    },
    {
      "inputs": [
        {
          "internalType": "string",
          "name": "id",
          "type": "string"
        }
      ],
      "name": "getReport",
      "outputs": [
        {
          "components": [
            {
              "internalType": "string",
              "name": "id",
              "type": "string"
            },
            {
              "internalType": "uint256",
              "name": "height",
              "type": "uint256"
            },
            {
              "internalType": "int256",
              "name": "treasury",
              "type": "int256"
            },
            {
              "components": [
                {
                  "internalType": "string",
                  "name": "id",
                  "type": "string"
                },
                {
                  "internalType": "uint256",
                  "name": "writeCapture",
                  "type": "uint256"
                },
                {
                  "internalType": "uint256",
                  "name": "writeBytes",
                  "type": "uint256"
                }
              ],
              "internalType": "struct LogStoreReportManager.Stream[]",
              "name": "streams",
              "type": "tuple[]"
            },
            {
              "components": [
                {
                  "internalType": "address",
                  "name": "id",
                  "type": "address"
                },
                {
                  "internalType": "int256",
                  "name": "amount",
                  "type": "int256"
                }
              ],
              "internalType": "struct LogStoreReportManager.Node[]",
              "name": "nodes",
              "type": "tuple[]"
            },
            {
              "components": [
                {
                  "internalType": "address",
                  "name": "id",
                  "type": "address"
                },
                {
                  "components": [
                    {
                      "internalType": "address",
                      "name": "id",
                      "type": "address"
                    },
                    {
                      "internalType": "int256",
                      "name": "amount",
                      "type": "int256"
                    }
                  ],
                  "internalType": "struct LogStoreReportManager.Node[]",
                  "name": "nodes",
                  "type": "tuple[]"
                }
              ],
              "internalType": "struct LogStoreReportManager.Delegate[]",
              "name": "delegates",
              "type": "tuple[]"
            },
            {
              "components": [
                {
                  "internalType": "address",
                  "name": "id",
                  "type": "address"
                },
                {
                  "internalType": "uint256",
                  "name": "readCapture",
                  "type": "uint256"
                },
                {
                  "internalType": "uint256",
                  "name": "readBytes",
                  "type": "uint256"
                }
              ],
              "internalType": "struct LogStoreReportManager.Consumer[]",
              "name": "consumers",
              "type": "tuple[]"
            },
            {
              "internalType": "address",
              "name": "_reporter",
              "type": "address"
            },
            {
              "internalType": "bool",
              "name": "_processed",
              "type": "bool"
            }
          ],
          "internalType": "struct LogStoreReportManager.Report",
          "name": "",
          "type": "tuple"
        }
      ],
      "stateMutability": "view",
      "type": "function"
    },
    {
      "inputs": [
        {
          "internalType": "address",
          "name": "owner",
          "type": "address"
        }
      ],
      "name": "initialize",
      "outputs": [],
      "stateMutability": "nonpayable",
      "type": "function"
    },
    {
      "inputs": [],
      "name": "owner",
      "outputs": [
        {
          "internalType": "address",
          "name": "",
          "type": "address"
        }
      ],
      "stateMutability": "view",
      "type": "function"
    },
    {
      "inputs": [
        {
          "internalType": "string",
          "name": "id",
          "type": "string"
        }
      ],
      "name": "processReport",
      "outputs": [],
      "stateMutability": "nonpayable",
      "type": "function"
    },
    {
      "inputs": [],
      "name": "proxiableUUID",
      "outputs": [
        {
          "internalType": "bytes32",
          "name": "",
          "type": "bytes32"
        }
      ],
      "stateMutability": "view",
      "type": "function"
    },
    {
      "inputs": [],
      "name": "renounceOwnership",
      "outputs": [],
      "stateMutability": "nonpayable",
      "type": "function"
    },
    {
      "inputs": [
        {
          "internalType": "string",
          "name": "id",
          "type": "string"
        },
        {
          "internalType": "uint256",
          "name": "blockHeight",
          "type": "uint256"
        },
        {
          "internalType": "string[]",
          "name": "streams",
          "type": "string[]"
        },
        {
          "internalType": "uint256[]",
          "name": "writeCaptureAmounts",
          "type": "uint256[]"
        },
        {
          "internalType": "uint256[]",
          "name": "writeBytes",
          "type": "uint256[]"
        },
        {
          "internalType": "address[]",
          "name": "readConsumerAddresses",
          "type": "address[]"
        },
        {
          "internalType": "uint256[]",
          "name": "readCaptureAmounts",
          "type": "uint256[]"
        },
        {
          "internalType": "uint256[]",
          "name": "readBytes",
          "type": "uint256[]"
        },
        {
          "internalType": "address[]",
          "name": "nodes",
          "type": "address[]"
        },
        {
          "internalType": "int256[]",
          "name": "nodeChanges",
          "type": "int256[]"
        },
        {
          "internalType": "address[]",
          "name": "delegates",
          "type": "address[]"
        },
        {
          "internalType": "address[][]",
          "name": "delegateNodes",
          "type": "address[][]"
        },
        {
          "internalType": "int256[][]",
          "name": "delegateNodeChanges",
          "type": "int256[][]"
        },
        {
          "internalType": "int256",
          "name": "treasurySupplyChange",
          "type": "int256"
        },
        {
          "internalType": "address[]",
          "name": "addresses",
          "type": "address[]"
        },
        {
          "internalType": "bytes[]",
          "name": "signatures",
          "type": "bytes[]"
        }
      ],
      "name": "report",
      "outputs": [],
      "stateMutability": "nonpayable",
      "type": "function"
    },
    {
      "inputs": [
        {
          "internalType": "address",
          "name": "newOwner",
          "type": "address"
        }
      ],
      "name": "transferOwnership",
      "outputs": [],
      "stateMutability": "nonpayable",
      "type": "function"
    },
    {
      "inputs": [
        {
          "internalType": "address",
          "name": "newImplementation",
          "type": "address"
        }
      ],
      "name": "upgradeTo",
      "outputs": [],
      "stateMutability": "nonpayable",
      "type": "function"
    },
    {
      "inputs": [
        {
          "internalType": "address",
          "name": "newImplementation",
          "type": "address"
        },
        {
          "internalType": "bytes",
          "name": "data",
          "type": "bytes"
        }
      ],
      "name": "upgradeToAndCall",
      "outputs": [],
      "stateMutability": "payable",
      "type": "function"
    }
  ],
  "bytecode": "0x60a080604052346100315730608052613a4c90816100378239608051818181611f3601528181612043015261235a0152f35b600080fdfe6104a0604052600436101561001357600080fd5b60003560e01c806312e63d71146125ea5780633659cfe6146123355780634f1ef28614611ff157806352d1902d14611f1b578063715018a614611ec05780638da5cb5b14611e995780639f29124b14610575578063c4d66de8146103df578063eefa7a3e146101d6578063f2fde38b146101305763f6883c051461009657600080fd5b3461012b57602036600319011261012b5760043567ffffffffffffffff811161012b5760206100cb600792369060040161281c565b91906100d5612bc4565b826040519384928337810160cd81520301902001740100000000000000000000000000000000000000007fffffffffffffffffffffff00ffffffffffffffffffffffffffffffffffffffff825416179055600080f35b600080fd5b3461012b57602036600319011261012b57610149612ab3565b610151612bc4565b6001600160a01b0381161561016b5761016990612c1c565b005b60405162461bcd60e51b815260206004820152602660248201527f4f776e61626c653a206e6577206f776e657220697320746865207a65726f206160448201527f64647265737300000000000000000000000000000000000000000000000000006064820152608490fd5b3461012b57600036600319011261012b576101ef612eac565b506101f861305e565b60405161020481612ac9565b61020d82612f2a565b815260018083015490602091828401526002918285015460408501526003808601805461023981612fd0565b916102476040519384612b1e565b81835260009081528481208685878087015b8686106103a55750505050505050606086015261027860048701612fe8565b608086015260058601805461028c81612fd0565b9161029a6040519384612b1e565b81835260009081528481208688878087015b86861061036b575050505050505060a0860152600686018054926102cf84612fd0565b956102dd6040519788612b1e565b8487526000928352818320908288015b86851061032f5760c08a0189905260078b01546001600160a01b03811660e08c015260a01c60ff1615156101008b01526040518061032b8c826128da565b0390f35b8584899260405161033f81612ae6565b6001600160a01b03875416815284870154838201528587015460408201528152019301940193916102ed565b60405161037781612b02565b6001600160a01b03865416815261038f858701612fe8565b83820152815201920192019190888789926102ac565b6040516103b181612ae6565b6103ba86612f2a565b815284860154838201528c860154604082015281520192019201919085878992610259565b3461012b57602036600319011261012b576103f8612ab3565b6000549060ff8260081c161591828093610568575b8015610551575b156104e65760ff198116600117600055826104d4575b5061044560ff60005460081c1661044081612e3a565b612e3a565b61044e33612c1c565b61045f60ff60005460081c16612e3a565b6001600160a01b038116806001600160a01b031960ce54161760ce55600a60c955610488612bc4565b1561016b5761049690612c1c565b61049c57005b61ff0019600054166000557f7f26b83ff96e1f2b6a682f133852f6798a09c465da95921460cefb3847402498602060405160018152a1005b61ffff1916610101176000558261042a565b60405162461bcd60e51b815260206004820152602e60248201527f496e697469616c697a61626c653a20636f6e747261637420697320616c72656160448201527f647920696e697469616c697a65640000000000000000000000000000000000006064820152608490fd5b50303b1580156104145750600160ff821614610414565b50600160ff82161061040d565b3461012b5761020036600319011261012b5760043567ffffffffffffffff811161012b576105a790369060040161281c565b6102a0526103205260443567ffffffffffffffff811161012b576105cf903690600401612b93565b6103c0526101205260643567ffffffffffffffff811161012b576105f7903690600401612b93565b906101c05260843567ffffffffffffffff811161012b5761061c903690600401612b93565b610400526103605260a43567ffffffffffffffff811161012b57610644903690600401612b93565b9160c43567ffffffffffffffff811161012b57610665903690600401612b93565b6103a0529160e43567ffffffffffffffff811161012b5761068a903690600401612b93565b9490936101043567ffffffffffffffff811161012b576106ae903690600401612b93565b61020052610420526101243567ffffffffffffffff811161012b576106d7903690600401612b93565b6101a0526104605267ffffffffffffffff610144351161012b576107013661014435600401612b93565b6101e0526101005267ffffffffffffffff610164351161012b5761072b3661016435600401612b93565b610220526101805267ffffffffffffffff610184351161012b576107553661018435600401612b93565b60a0526104405267ffffffffffffffff6101c4351161012b5761077e366101c435600401612b93565b60c0526103805267ffffffffffffffff6101e4351161012b576107a7366101e435600401612b93565b6103e0526102e052602460206001600160a01b0360ce541660405192838092630c2effa360e31b82523360048301525afa908115611b5d57600091611e7a575b5015611e355743602435111580611e1f575b15611dda5761080e6102a0516103205161338b565b610300526000610160525b6103005180516101605190811015611dd35761083e6001600160a01b0391339361312e565b51161461085a576108516101605161311f565b61016052610819565b60c95461016051818102918183041490151715610b8c576024358101809111610b8c57431115611d8e575b6108906024356136e1565b61098d604e6108a16101a435613849565b92604051938491663d9134b2111d1160c91b60208401526102a0516103205160278501377f222c22686569676874223a22000000000000000000000000000000000000000060276102a0518501015261090981518092602060336102a051880101910161284a565b7f222c227472656173757279223a220000000000000000000000000000000000006033826102a05186010101526109518251809360206041856102a05189010101910161284a565b6102a051830101017f222c2273747265616d73223a5b00000000000000000000000000000000000000604182015203602e810184520182612b1e565b610240526109b06109a06103c051612fd0565b8060e05260405180608052612b1e565b6103c05160805152601f196109c76103c051612fd0565b0160005b818110611d6057505060005b6103c05180821015610ba25790610ad96109f782603f9461012051613158565b9390610a10610a0a858b6101c05161319a565b356136e1565b607d60f81b610a29610a0a87610400516103605161319a565b916040519788948161024051610a48815180926020808c01910161284a565b870191663d9134b2111d1160c91b60208401526027830137017f222c2263617074757265223a00000000000000000000000000000000000000006027820152610a9b82518093602060338501910161284a565b016a0161011313cba32b9911d160ad1b6033820152825190610ac682603e956020878501910161284a565b019182015203601f810185520183612b1e565b81610240526103c0519182600019810111610b8c57610b7492600019018203610b79575b50610b0f816103c05161012051613158565b90610b1e83896101c05161319a565b35610b49610b3385610400516103605161319a565b359260405194610b4286612ae6565b3691612b5c565b835260208301526040820152610b618260805161312e565b52610b6e8160805161312e565b5061311f565b6109d7565b610b82906131aa565b6102405288610afd565b634e487b7160e01b600052601160045260246000fd5b50508486604051610bfe60318261024051610bc6815180926020808601910161284a565b81017f5d2c2022636f6e73756d657273223a205b00000000000000000000000000000060208201526011828203018252030182612b1e565b61024052610c20610c0e85612fd0565b8061048052604051806102c052612b1e565b836102c05152601f19610c3285612fd0565b0160005b818110611d3157505060005b848110611b9a57604051610c9f602d8261024051610c69815180926020808601910161284a565b81017f5d2c20226e6f646573223a207b00000000000000000000000000000000000000602082015203600d810184520182612b1e565b61024052610caf610200516131f6565b60005b6102005180821015610d9957610cdf610cda610cd584610d03946104205161319a565b6131e2565b613909565b610cf9610cf3846101a0516104605161319a565b35613849565b9061024051613257565b908161024052610200519182600019810111610b8c57610d8192600019018203610d86575b50610d3d610cd582610200516104205161319a565b610d4e826101a0516104605161319a565b356001600160a01b0360405192610d6484612b02565b1682526020820152610d76828561312e565b52610b6e818461312e565b610cb2565b610d8f906131aa565b6102405283610d28565b82604051610df060318261024051610dba815180926020808601910161284a565b81017f7d2c202264656c656761746573223a207b0000000000000000000000000000006020820152036011810184520182612b1e565b61024052610e15610e036101e051612fd0565b80610280526040518061014052612b1e565b6101e0516101405152601f19610e2d6101e051612fd0565b0160005b818110611b7257826000610260525b6101e05161026051818110156110a557610cd5610cda91610e64936101005161319a565b610ec26024604051809361024051610e85815180926020808701910161284a565b8201601160f91b6020820152815190610ea7826021946020868501910161284a565b019062223a7b60e81b90820152036004810184520182612b1e565b61024052610ee4610edd6102605161022051610180516132c7565b90506131f6565b6103405260005b610eff6102605161022051610180516132c7565b905081101561100357610f49610f2f610cda610cd584610f296102605161022051610180516132c7565b9061319a565b610cf9610cf384610f296102605160a051610440516132c7565b61024052610f616102605161022051610180516132c7565b80929150600019810111610b8c57610fe991600019018103610fee575b610f99610cd582610f296102605161022051610180516132c7565b610fb082610f296102605160a051610440516132c7565b356001600160a01b0360405192610fc684612b02565b1682526020820152610fdb826103405161312e565b52610b6e816103405161312e565b610eeb565b610ffa610240516131aa565b61024052610f7e565b506101e05180600019810111610b8c57600019016102605103611090575b611038610cd5610260516101e0516101005161319a565b6001600160a01b036040519161104d83612b02565b168152610340516020820152611069610260516101405161312e565b5261107a610260516101405161312e565b506110876102605161311f565b61026052610e40565b61109c610240516131aa565b61024052611021565b826040516110e3602282610240516110c6815180926020808601910161284a565b8101617d7d60f01b60208201526002828203018252030182612b1e565b604051916110f083612ac9565b611101366102a05161032051612b5c565b835260243560208401526101a4356040840152608051606084015260808301526101405160a08301526102c05160c08301523360e08301526000610100830152604051602081019061116b602082855161115e8187858a0161284a565b8101038084520182612b1e565b5190209060019160005b60c05180821015611b6957610cd582611191926103805161319a565b60206001600160a01b0360846111ae856103e0516102e051613158565b8060409692965196879586946301a86b5560e41b865216600485015289602485015260606044850152816064850152848401376000828201840152601f01601f1916810103018173__$267c3dc7aa7d3fe2e28bda43a2ca27cd27$__5af48015611b5d57600191600091611b2e575b501515036112335761122e9061311f565b611175565b5050905060005b15611ae95761125960208351816040519382858094519384920161284a565b810160cd81520301902091805192835167ffffffffffffffff811161163e576112828254612ef0565b601f8111611ab7575b506020601f8211600114611a4e578192939495600092611a43575b50508160011b916000199060031b1c19161781555b60208201516001820155604082015160028201556060820151805190600160401b821161163e576003830154826003850155808310611998575b50602001906003830160005260206000206000925b828410611863575050505060048101608083015190602082519261132e8484613323565b019060005260206000206000915b83831061182d575050505060a0820151805190600160401b821161163e576005830154826005850155808310611785575b506020016005830160005260206000206000915b8383106116ed575050505060c0820151805190600160401b821161163e576006830154826006850155808310611694575b506020016006830160005260206000206000915b838310611654578686600787016001600160a01b0360e0830151168154907fffffffffffffffffffffff00000000000000000000000000000000000000000074ff0000000000000000000000000000000000000000610100860151151560a01b169216171790555190815167ffffffffffffffff811161163e5761144b60ca54612ef0565b601f81116115e4575b50602092601f82116001146115625792819293600092611557575b50508160011b916000199060031b1c19161760ca555b60005b610300518051821015611519576114a7826001600160a01b039261312e565b511633146000146114dd573360005260cb6020526040600020908154600a8101809111610b8c576114d8925561311f565b611488565b6001600160a01b036114f2826103005161312e565b511660005260cb602052604060002090815460018101809111610b8c576114d8925561311f565b7fc53a4e1db72f8c6fde77b85b4cc21a59f9896e9d7285f890075356dbd528d1cd6115528460405191829160208352602083019061286d565b0390a1005b01519050838061146f565b601f1982169360ca6000527f42d72674974f694b5f5159593243114d38a5c39c89d6b62fee061ff523240ee19160005b8681106115cc57508360019596106115b3575b505050811b0160ca55611485565b015160001960f88460031b161c191690558380806115a5565b91926020600181928685015181550194019201611592565b61162e9060ca6000527f42d72674974f694b5f5159593243114d38a5c39c89d6b62fee061ff523240ee1601f840160051c81019160208510611634575b601f0160051c019061330c565b83611454565b9091508190611621565b634e487b7160e01b600052604160045260246000fd5b60036020826040600194516001600160a01b038151166001600160a01b0319885416178755838101518688015501516002860155019201920191906113c6565b6003818102048103610b8c576003838102048303610b8c576006840160005260206000208360030281015b82600302820181106116d25750506113b2565b806000600392556000600182015560006002820155016116bf565b80516001600160a01b038151166001600160a01b03198454161783556020600184019101519060208251926117228484613323565b01906000526020600020906000905b83821061174f57505050506002602060019201920192019190611381565b600260208281600194516001600160a01b038151166001600160a01b031989541617885501518487015501930191019091611731565b6001600160ff1b0381168103610b8c576001600160ff1b0383168303610b8c576005840160005260206000208360011b81015b8260011b820181106117cb57505061136d565b60008155600181015460006001830155806117ea575b506002016117b8565b6001600160ff1b0381168103610b8c576001820160005260206000209060011b8101905b81811061181b57506117e1565b6000808255600182015560020161180e565b600260208281600194516001600160a01b038151166001600160a01b03198854161787550151848601550192019201919061133c565b8051805180519067ffffffffffffffff821161163e576118838554612ef0565b601f811161195b575b50602090601f83116001146118e95760039383602094600197946040946000926118de575b505060001982881b1c191690871b1787555b8381015186880155015160028601550192019301929061130a565b015190508e806118b1565b908560005260206000209160005b601f1985168110611943575093600184819794604094600398602098601f1981161061192b575b505050811b0187556118c3565b0151600019838a1b60f8161c191690558e808061191e565b919260206001819286850151815501940192016118f7565b611988908660005260206000206005601f8601811c8201926020871061198e575b601f01901c019061330c565b8a61188c565b919250829161197c565b6003818102048103610b8c576003838102048303610b8c576003840160005260206000208360030281015b82600302820181106119d65750506112f5565b806119e360039254612ef0565b806119fe575b506000600182015560006002820155016119c3565b601f8111600114611a155750600081555b896119e9565b611a3490826000526001601f6020600020920160051c8201910161330c565b60006020812081835555611a0f565b0151905085806112a6565b8260005260206000209060005b601f1984168110611a9f575060019394959683601f19811610611a86575b505050811b0181556112bb565b015160001960f88460031b161c19169055858080611a79565b9091602060018192858b015181550193019101611a5b565b611ae390836000526020600020601f840160051c8101916020851061163457601f0160051c019061330c565b8561128b565b60405162461bcd60e51b815260206004820152601d60248201527f6572726f725f696e76616c69645265706f72745369676e6174757265730000006044820152606490fd5b611b50915060203d602011611b56575b611b488183612b1e565b810190613107565b8761121d565b503d611b3e565b6040513d6000823e3d90fd5b5050509061123a565b602090604051611b8181612b02565b6000815260608382015282826101405101015201610e31565b80611c926040611bc0610cda610cd56a0161011313cba32b9911d160ad1b968b8d61319a565b611bd1610a0a856103a0518b61319a565b607d60f81b611be4610a0a878a8c61319a565b91845197889461024051611c01815180926020808b01910161284a565b8601663d9134b2111d1160c91b6020820152611c2782518093602060278501910161284a565b017f222c2263617074757265223a20000000000000000000000000000000000000006027820152825190611c64826034956020878501910161284a565b0191820152825190611c7f82603f956020878501910161284a565b0191820152036020810185520183612b1e565b816102405285600019810111610b8c57611d1991600187830301611d1e575b50611cc0610cd582888a61319a565b611cce826103a0518861319a565b35611cda83868861319a565b35906001600160a01b0360405193611cf185612ae6565b16835260208301526040820152611d0b826102c05161312e565b52610b6e816102c05161312e565b610c42565b611d27906131aa565b6102405287611cb1565b602090604051611d4081612ae6565b600081526000838201526000604082015282826102c05101015201610c36565b602090604051611d6f81612ae6565b60608152600083820152600060408201528282608051010152016109cb565b60405162461bcd60e51b815260206004820152601560248201527f6572726f725f696e76616c69645265706f7274657200000000000000000000006044820152606490fd5b5050610885565b60405162461bcd60e51b815260206004820152601360248201527f6572726f725f696e76616c69645265706f7274000000000000000000000000006044820152606490fd5b506001611e2a61305e565b0154602435116107f9565b60405162461bcd60e51b815260206004820152601360248201527f6572726f725f7374616b655265717569726564000000000000000000000000006044820152606490fd5b611e93915060203d602011611b5657611b488183612b1e565b876107e7565b3461012b57600036600319011261012b5760206001600160a01b0360975416604051908152f35b3461012b57600036600319011261012b57611ed9612bc4565b60006001600160a01b036097546001600160a01b03198116609755167f8be0079c531659141344cd1fd0a4f28419497f9722a3daafe3b4186f6b6457e08280a3005b3461012b57600036600319011261012b576001600160a01b037f0000000000000000000000000000000000000000000000000000000000000000163003611f865760206040517f360894a13ba1a3210667c828492db98dca3e2076cc3735a920a3ca505d382bbc8152f35b60405162461bcd60e51b815260206004820152603860248201527f555550535570677261646561626c653a206d757374206e6f742062652063616c60448201527f6c6564207468726f7567682064656c656761746563616c6c00000000000000006064820152608490fd5b604036600319011261012b57612005612ab3565b60243567ffffffffffffffff811161012b573660238201121561012b57612036903690602481600401359101612b5c565b906001600160a01b0391827f0000000000000000000000000000000000000000000000000000000000000000169261207084301415612c64565b61209f7f360894a13ba1a3210667c828492db98dca3e2076cc3735a920a3ca505d382bbc948286541614612cd6565b6120a7612bc4565b7f4910fdfa16fed3260ed0e7147f7cc6da11a60208b5b9406d12a635614ffd91435460ff16156120dd5750506101699150612d48565b82919216604051936352d1902d60e01b85526020948581600481865afa60009181612306575b506121645760405162461bcd60e51b815260048101879052602e60248201527f45524331393637557067726164653a206e657720696d706c656d656e7461746960448201526d6f6e206973206e6f74205555505360901b6064820152608490fd5b036122af5761217282612d48565b604051907fbc7cd75a20ee27fd9adebab32041f755214dbc6bffa90cc0225b39da2e5c2d3b600080a28251158015906122a7575b6121ac57005b813b1561225657506000828192856101699695519201905af43d1561224e573d906121d682612b40565b916121e46040519384612b1e565b82523d60008484013e5b7f416464726573733a206c6f772d6c6576656c2064656c65676174652063616c6c6040519361221c85612ae6565b602785528401527f206661696c6564000000000000000000000000000000000000000000000000006040840152612df6565b6060906121ee565b62461bcd60e51b815260048101849052602660248201527f416464726573733a2064656c65676174652063616c6c20746f206e6f6e2d636f6044820152651b9d1c9858dd60d21b6064820152608490fd5b5060016121a6565b60405162461bcd60e51b815260048101859052602960248201527f45524331393637557067726164653a20756e737570706f727465642070726f786044820152681a58589b195555525160ba1b6064820152608490fd5b9091508681813d831161232e575b61231e8183612b1e565b8101031261012b57519087612103565b503d612314565b3461012b5760208060031936011261012b5761234f612ab3565b6001600160a01b03807f00000000000000000000000000000000000000000000000000000000000000001661238681301415612c64565b6123b57f360894a13ba1a3210667c828492db98dca3e2076cc3735a920a3ca505d382bbc918383541614612cd6565b6123bd612bc4565b604051908482019282841067ffffffffffffffff85111761163e57836040526000835260ff7f4910fdfa16fed3260ed0e7147f7cc6da11a60208b5b9406d12a635614ffd9143541660001461241a57505050506101699150612d48565b8416906040516352d1902d60e01b81528681600481865afa600091816125bb575b5061249c5760405162461bcd60e51b815260048101889052602e60248201527f45524331393637557067726164653a206e657720696d706c656d656e7461746960448201526d6f6e206973206e6f74205555505360901b6064820152608490fd5b03612564576124aa84612d48565b604051907fbc7cd75a20ee27fd9adebab32041f755214dbc6bffa90cc0225b39da2e5c2d3b600080a281511580159061255c575b6124e457005b833b1561250b57506101699392600092839251915af43d1561224e573d906121d682612b40565b62461bcd60e51b815260048101859052602660248201527f416464726573733a2064656c65676174652063616c6c20746f206e6f6e2d636f6044820152651b9d1c9858dd60d21b6064820152608490fd5b5060006124de565b60405162461bcd60e51b815260048101869052602960248201527f45524331393637557067726164653a20756e737570706f727465642070726f786044820152681a58589b195555525160ba1b6064820152608490fd5b9091508781813d83116125e3575b6125d38183612b1e565b8101031261012b5751908861243b565b503d6125c9565b3461012b5760208060031936011261012b5760043567ffffffffffffffff811161012b5761261d8291369060040161281c565b9190612627612eac565b50826040519384928337810160cd815203019020906040519061264982612ac9565b61265283612f2a565b8252600180840154828401526002918285015460408501526003808601805461267a81612fd0565b916126886040519384612b1e565b81835260009081528481208685878087015b8686106127e2575050505050505060608601526126b960048701612fe8565b60808601526005860180546126cd81612fd0565b916126db6040519384612b1e565b81835260009081528481208688878087015b8686106127a8575050505050505060a08601526006860180549261271084612fd0565b9561271e6040519788612b1e565b8487526000928352818320908288015b86851061276c5760c08a0189905260078b01546001600160a01b03811660e08c015260a01c60ff1615156101008b01526040518061032b8c826128da565b8584899260405161277c81612ae6565b6001600160a01b038754168152848701548382015285870154604082015281520193019401939161272e565b6040516127b481612b02565b6001600160a01b0386541681526127cc858701612fe8565b83820152815201920192019190888789926126ed565b6040516127ee81612ae6565b6127f786612f2a565b815284860154838201528c86015460408201528152019201920191908587899261269a565b9181601f8401121561012b5782359167ffffffffffffffff831161012b576020838186019501011161012b57565b60005b83811061285d5750506000910152565b818101518382015260200161284d565b906020916128868151809281855285808601910161284a565b601f01601f1916010190565b90815180825260208080930193019160005b8281106128b2575050505090565b835180516001600160a01b0316865282015185830152604090940193928101926001016128a4565b6020918282528051906128fa61012092838686015261014085019061286d565b93808201516040908186015280830151916060928387015282840151601f19978888820301608089015281518082528382019184808360051b8301019401926000915b888d858510612a685750505050505050612965906080860151898983030160a08a0152612892565b9160a085015192888882030160c089015283518082528382019184808360051b8301019601926000915b8c848410612a1b5750505050505060c0850151978784030160e08801528180895194858152019801936000915b8483106129ea575050505050506001600160a01b0360e0820151169061010091828501520151151591015290565b855180516001600160a01b03168b52808501518b8601528101518a82015298810198948301946001909201916129bc565b9680612a548a89838a9e9b9c9a8798999a9b829f9860019903018a52516001600160a01b03815116845201519181858201520190612892565b9a019301930191939290979695949761298f565b9780999891888293856001969798999a9b030187528a80612a938c519485519080865285019061286d565b93858101518685015201519101529701930193019193929096959661293d565b600435906001600160a01b038216820361012b57565b610120810190811067ffffffffffffffff82111761163e57604052565b6060810190811067ffffffffffffffff82111761163e57604052565b6040810190811067ffffffffffffffff82111761163e57604052565b90601f8019910116810190811067ffffffffffffffff82111761163e57604052565b67ffffffffffffffff811161163e57601f01601f191660200190565b929192612b6882612b40565b91612b766040519384612b1e565b82948184528183011161012b578281602093846000960137010152565b9181601f8401121561012b5782359167ffffffffffffffff831161012b576020808501948460051b01011161012b57565b6001600160a01b03609754163303612bd857565b606460405162461bcd60e51b815260206004820152602060248201527f4f776e61626c653a2063616c6c6572206973206e6f7420746865206f776e65726044820152fd5b609754906001600160a01b0380911691826001600160a01b0319821617609755167f8be0079c531659141344cd1fd0a4f28419497f9722a3daafe3b4186f6b6457e0600080a3565b15612c6b57565b60405162461bcd60e51b815260206004820152602c60248201527f46756e6374696f6e206d7573742062652063616c6c6564207468726f7567682060448201527f64656c656761746563616c6c00000000000000000000000000000000000000006064820152608490fd5b15612cdd57565b60405162461bcd60e51b815260206004820152602c60248201527f46756e6374696f6e206d7573742062652063616c6c6564207468726f7567682060448201527f6163746976652070726f787900000000000000000000000000000000000000006064820152608490fd5b803b15612d8b576001600160a01b037f360894a13ba1a3210667c828492db98dca3e2076cc3735a920a3ca505d382bbc91166001600160a01b0319825416179055565b60405162461bcd60e51b815260206004820152602d60248201527f455243313936373a206e657720696d706c656d656e746174696f6e206973206e60448201527f6f74206120636f6e7472616374000000000000000000000000000000000000006064820152608490fd5b90919015612e02575090565b815115612e125750805190602001fd5b60405162461bcd60e51b815260206004820152908190612e3690602483019061286d565b0390fd5b15612e4157565b60405162461bcd60e51b815260206004820152602b60248201527f496e697469616c697a61626c653a20636f6e7472616374206973206e6f74206960448201527f6e697469616c697a696e670000000000000000000000000000000000000000006064820152608490fd5b60405190612eb982612ac9565b600061010083606080825283602083015283604083015280808301528060808301528060a083015260c08201528260e08201520152565b90600182811c92168015612f20575b6020831014612f0a57565b634e487b7160e01b600052602260045260246000fd5b91607f1691612eff565b9060405191826000825492612f3e84612ef0565b908184526001948581169081600014612fad5750600114612f6a575b5050612f6892500383612b1e565b565b9093915060005260209081600020936000915b818310612f95575050612f6893508201013880612f5a565b85548884018501529485019487945091830191612f7d565b915050612f6894506020925060ff191682840152151560051b8201013880612f5a565b67ffffffffffffffff811161163e5760051b60200190565b908154612ff481612fd0565b9260409361300485519182612b1e565b828152809460208092019260005281600020906000935b85851061302a57505050505050565b600284600192845161303b81612b02565b6001600160a01b038754168152848701548382015281520193019401939161301b565b60405160ca5481600061307083612ef0565b926001908181169081156130ed5750600114613097575b506020925060cd81520301902090565b60ca600090815291507f42d72674974f694b5f5159593243114d38a5c39c89d6b62fee061ff523240ee15b8483106130d757505050602091810138613087565b80548684015285935060209092019181016130c2565b60ff19168452506020938015150283019150389050613087565b9081602091031261012b5751801515810361012b5790565b6000198114610b8c5760010190565b80518210156131425760209160051b010190565b634e487b7160e01b600052603260045260246000fd5b91908110156131425760051b81013590601e198136030182121561012b57019081359167ffffffffffffffff831161012b57602001823603811361012b579190565b91908110156131425760051b0190565b90612f686021604051846131c882965180926020808601910161284a565b8101600b60fa1b6020820152036001810185520183612b1e565b356001600160a01b038116810361012b5790565b9061320082612fd0565b60409061320f82519182612b1e565b8381528093613220601f1991612fd0565b0191600090815b848110613235575050505050565b602090825161324381612b02565b848152828581830152828701015201613227565b602390612f68929493604051958261327988945180926020808801910161284a565b8301601160f91b602082015261329982518093602060218501910161284a565b0161111d60f11b60218201526132b8825180936020878501910161284a565b01036003810185520183612b1e565b91908110156131425760051b81013590601e198136030182121561012b57019081359167ffffffffffffffff831161012b576020018260051b3603811361012b579190565b818110613317575050565b6000815560010161330c565b600160401b821161163e57805482825580831061333f57505050565b6001600160ff1b038082168203610b8c5783168303610b8c57600091825260208220600191821b810193821b015b83811061337a5750505050565b80836002925583838201550161336d565b9190604090815193818186378482810160cc815260209687910301902054613673576001600160a01b03928360ce5416928151968794636085a91160e11b865285600460009a8b935afa9485156136695788956135c2575b50845196919361340a6133f589612fd0565b9861340286519a8b612b1e565b808a52612fd0565b8883019190601f190136833789938a925b8851841015613520578b92918b918499855b8d8d80518310156134e9578a8e8d8f85613447888761312e565b51168d5260cb8094528c20541015806134e0575b6134d3578316156134ba57828f918f908e8d846134788a8961312e565b51169052528b205491168a528d8a20541061349e575b50506134999061311f565b61342d565b82613499939e506134ae9161312e565b51169b90508d8d61348e565b5082613499939e506134cb9161312e565b51169b61311f565b505050506134999061311f565b508d151561345b565b50613517959a5088949891508b9061351193979d989498169384815260cb8b5220549961312e565b5261311f565b9290969161341b565b989750999593509050828294519384928337810160cc8152030190209285519467ffffffffffffffff86116135ae57600160401b86116135ae578454868655808710613594575b50938352818320925b8581106135805750505050505090565b845182168482015593820193600101613570565b8585528385206135a891810190880161330c565b38613567565b634e487b7160e01b84526041600452602484fd5b9094503d8089833e6135d48183612b1e565b81019085818303126136615780519067ffffffffffffffff821161366557019080601f8301121561366157815161360a81612fd0565b9261361786519485612b1e565b818452878085019260051b82010192831161365d578701905b8282106136415750505093386133e3565b81518981168103613659578152908701908701613630565b8b80fd5b8a80fd5b8880fd5b8980fd5b83513d8a823e3d90fd5b93829394828294519384928337810160cc81520301902091518092839183825491828152019160005283600020936000905b8282106136be575050506136bb92500382612b1e565b90565b85546001600160a01b0316845260019586019587955093810193909101906136a5565b806000917a184f03e93ff9f4daa797ed6e38ed64bf6a1f0100000000000000008082101561383b575b506d04ee2d6d415b85acef81000000008083101561382c575b50662386f26fc100008083101561381d575b506305f5e1008083101561380e575b50612710808310156137ff575b5060648210156137ef575b600a809210156137e5575b6001908160218186019561377a87612b40565b966137886040519889612b1e565b808852613797601f1991612b40565b01366020890137860101905b6137af575b5050505090565b600019019083906f181899199a1a9b1b9c1cb0b131b232b360811b8282061a8353049182156137e0579190826137a3565b6137a8565b9160010191613767565b919060646002910491019161375c565b60049193920491019138613751565b60089193920491019138613744565b60109193920491019138613735565b60209193920491019138613723565b60409350810491503861370a565b6000808212919082156138c4576138856136bb9260209260405161386c81612b02565b60018152602d60f81b85820152955b6138be57506136e1565b92604051938161389e869351809286808701910161284a565b82016138b28251809386808501910161284a565b01038084520182612b1e565b036136e1565b6040516020810181811067ffffffffffffffff8211176138f557604052818152926136bb926020926138859261387b565b634e487b7160e01b83526041600452602483fd5b6001600160a01b03166040519061391f82612ae6565b602a825260209081830160403682378351156131425760309053825160019081101561314257607860218501536029905b8082116139a4575050613961575090565b6064906040519062461bcd60e51b825280600483015260248201527f537472696e67733a20686578206c656e67746820696e73756666696369656e746044820152fd5b9091600f81166010811015613a01578551841015613a01576f181899199a1a9b1b9c1cb0b131b232b360811b901a84848701015360041c9180156139ec576000190190613950565b60246000634e487b7160e01b81526011600452fd5b60246000634e487b7160e01b81526032600452fdfea264697066735822122031f0e61c81bdf18868116455b530166a3a7f35c4ce75446eec495d50d54891fe64736f6c63430008110033",
  "linkReferences": {
    "src/lib/VerifySignature.sol": {
      "VerifySignature": [
        {
          "length": 20,
          "start": 4654
        }
      ]
    }
  },
  "deployedLinkReferences": {
    "src/lib/VerifySignature.sol": {
      "VerifySignature": [
        {
          "length": 20,
          "start": 4599
        }
      ]
    }
  }
}