{
  "_format": "hh-sol-artifact-1",
  "contractName": "LogStoreReportManager",
  "sourceName": "src/ReportManager.sol",
  "abi": [
    {
      "anonymous": false,
      "inputs": [
        {
          "indexed": false,
          "internalType": "address",
          "name": "previousAdmin",
          "type": "address"
        },
        {
          "indexed": false,
          "internalType": "address",
          "name": "newAdmin",
          "type": "address"
        }
      ],
      "name": "AdminChanged",
      "type": "event"
    },
    {
      "anonymous": false,
      "inputs": [
        {
          "indexed": true,
          "internalType": "address",
          "name": "beacon",
          "type": "address"
        }
      ],
      "name": "BeaconUpgraded",
      "type": "event"
    },
    {
      "anonymous": false,
      "inputs": [
        {
          "indexed": false,
          "internalType": "uint8",
          "name": "version",
          "type": "uint8"
        }
      ],
      "name": "Initialized",
      "type": "event"
    },
    {
      "anonymous": false,
      "inputs": [
        {
          "indexed": false,
          "internalType": "bool",
          "name": "isMet",
          "type": "bool"
        }
      ],
      "name": "Logger",
      "type": "event"
    },
    {
      "anonymous": false,
      "inputs": [
        {
          "indexed": true,
          "internalType": "address",
          "name": "previousOwner",
          "type": "address"
        },
        {
          "indexed": true,
          "internalType": "address",
          "name": "newOwner",
          "type": "address"
        }
      ],
      "name": "OwnershipTransferred",
      "type": "event"
    },
    {
      "anonymous": false,
      "inputs": [
        {
          "indexed": false,
          "internalType": "string",
          "name": "raw",
          "type": "string"
        }
      ],
      "name": "ReportAccepted",
      "type": "event"
    },
    {
      "anonymous": false,
      "inputs": [
        {
          "indexed": true,
          "internalType": "address",
          "name": "implementation",
          "type": "address"
        }
      ],
      "name": "Upgraded",
      "type": "event"
    },
    {
      "inputs": [],
      "name": "getLastReport",
      "outputs": [
        {
          "components": [
            {
              "internalType": "string",
              "name": "id",
              "type": "string"
            },
            {
              "internalType": "uint256",
              "name": "height",
              "type": "uint256"
            },
            {
              "internalType": "int256",
              "name": "treasury",
              "type": "int256"
            },
            {
              "components": [
                {
                  "internalType": "string",
                  "name": "id",
                  "type": "string"
                },
                {
                  "internalType": "uint256",
                  "name": "writeCapture",
                  "type": "uint256"
                },
                {
                  "internalType": "uint256",
                  "name": "writeBytes",
                  "type": "uint256"
                }
              ],
              "internalType": "struct LogStoreReportManager.Stream[]",
              "name": "streams",
              "type": "tuple[]"
            },
            {
              "components": [
                {
                  "internalType": "address",
                  "name": "id",
                  "type": "address"
                },
                {
                  "internalType": "int256",
                  "name": "amount",
                  "type": "int256"
                }
              ],
              "internalType": "struct LogStoreReportManager.Node[]",
              "name": "nodes",
              "type": "tuple[]"
            },
            {
              "components": [
                {
                  "internalType": "address",
                  "name": "id",
                  "type": "address"
                },
                {
                  "components": [
                    {
                      "internalType": "address",
                      "name": "id",
                      "type": "address"
                    },
                    {
                      "internalType": "int256",
                      "name": "amount",
                      "type": "int256"
                    }
                  ],
                  "internalType": "struct LogStoreReportManager.Node[]",
                  "name": "nodes",
                  "type": "tuple[]"
                }
              ],
              "internalType": "struct LogStoreReportManager.Delegate[]",
              "name": "delegates",
              "type": "tuple[]"
            },
            {
              "components": [
                {
                  "internalType": "address",
                  "name": "id",
                  "type": "address"
                },
                {
                  "internalType": "uint256",
                  "name": "readCapture",
                  "type": "uint256"
                },
                {
                  "internalType": "uint256",
                  "name": "readBytes",
                  "type": "uint256"
                }
              ],
              "internalType": "struct LogStoreReportManager.Consumer[]",
              "name": "consumers",
              "type": "tuple[]"
            },
            {
              "internalType": "address",
              "name": "_reporter",
              "type": "address"
            },
            {
              "internalType": "bool",
              "name": "_processed",
              "type": "bool"
            }
          ],
          "internalType": "struct LogStoreReportManager.Report",
          "name": "",
          "type": "tuple"
        }
      ],
      "stateMutability": "view",
      "type": "function"
    },
    {
      "inputs": [
        {
          "internalType": "string",
          "name": "id",
          "type": "string"
        }
      ],
      "name": "getReport",
      "outputs": [
        {
          "components": [
            {
              "internalType": "string",
              "name": "id",
              "type": "string"
            },
            {
              "internalType": "uint256",
              "name": "height",
              "type": "uint256"
            },
            {
              "internalType": "int256",
              "name": "treasury",
              "type": "int256"
            },
            {
              "components": [
                {
                  "internalType": "string",
                  "name": "id",
                  "type": "string"
                },
                {
                  "internalType": "uint256",
                  "name": "writeCapture",
                  "type": "uint256"
                },
                {
                  "internalType": "uint256",
                  "name": "writeBytes",
                  "type": "uint256"
                }
              ],
              "internalType": "struct LogStoreReportManager.Stream[]",
              "name": "streams",
              "type": "tuple[]"
            },
            {
              "components": [
                {
                  "internalType": "address",
                  "name": "id",
                  "type": "address"
                },
                {
                  "internalType": "int256",
                  "name": "amount",
                  "type": "int256"
                }
              ],
              "internalType": "struct LogStoreReportManager.Node[]",
              "name": "nodes",
              "type": "tuple[]"
            },
            {
              "components": [
                {
                  "internalType": "address",
                  "name": "id",
                  "type": "address"
                },
                {
                  "components": [
                    {
                      "internalType": "address",
                      "name": "id",
                      "type": "address"
                    },
                    {
                      "internalType": "int256",
                      "name": "amount",
                      "type": "int256"
                    }
                  ],
                  "internalType": "struct LogStoreReportManager.Node[]",
                  "name": "nodes",
                  "type": "tuple[]"
                }
              ],
              "internalType": "struct LogStoreReportManager.Delegate[]",
              "name": "delegates",
              "type": "tuple[]"
            },
            {
              "components": [
                {
                  "internalType": "address",
                  "name": "id",
                  "type": "address"
                },
                {
                  "internalType": "uint256",
                  "name": "readCapture",
                  "type": "uint256"
                },
                {
                  "internalType": "uint256",
                  "name": "readBytes",
                  "type": "uint256"
                }
              ],
              "internalType": "struct LogStoreReportManager.Consumer[]",
              "name": "consumers",
              "type": "tuple[]"
            },
            {
              "internalType": "address",
              "name": "_reporter",
              "type": "address"
            },
            {
              "internalType": "bool",
              "name": "_processed",
              "type": "bool"
            }
          ],
          "internalType": "struct LogStoreReportManager.Report",
          "name": "",
          "type": "tuple"
        }
      ],
      "stateMutability": "view",
      "type": "function"
    },
    {
      "inputs": [
        {
          "internalType": "address",
          "name": "_owner",
          "type": "address"
        }
      ],
      "name": "initialize",
      "outputs": [],
      "stateMutability": "nonpayable",
      "type": "function"
    },
    {
      "inputs": [],
      "name": "owner",
      "outputs": [
        {
          "internalType": "address",
          "name": "",
          "type": "address"
        }
      ],
      "stateMutability": "view",
      "type": "function"
    },
    {
      "inputs": [
        {
          "internalType": "string",
          "name": "id",
          "type": "string"
        }
      ],
      "name": "processReport",
      "outputs": [],
      "stateMutability": "nonpayable",
      "type": "function"
    },
    {
      "inputs": [],
      "name": "proxiableUUID",
      "outputs": [
        {
          "internalType": "bytes32",
          "name": "",
          "type": "bytes32"
        }
      ],
      "stateMutability": "view",
      "type": "function"
    },
    {
      "inputs": [
        {
          "internalType": "address[]",
          "name": "submittedNodes",
          "type": "address[]"
        }
      ],
      "name": "quorumIsMet",
      "outputs": [
        {
          "internalType": "bool",
          "name": "isMet",
          "type": "bool"
        }
      ],
      "stateMutability": "view",
      "type": "function"
    },
    {
      "inputs": [],
      "name": "renounceOwnership",
      "outputs": [],
      "stateMutability": "nonpayable",
      "type": "function"
    },
    {
      "inputs": [
        {
          "internalType": "string",
          "name": "id",
          "type": "string"
        },
        {
          "internalType": "uint256",
          "name": "blockHeight",
          "type": "uint256"
        },
        {
          "internalType": "string[]",
          "name": "streams",
          "type": "string[]"
        },
        {
          "internalType": "uint256[]",
          "name": "writeCaptureAmounts",
          "type": "uint256[]"
        },
        {
          "internalType": "uint256[]",
          "name": "writeBytes",
          "type": "uint256[]"
        },
        {
          "internalType": "address[]",
          "name": "readConsumerAddresses",
          "type": "address[]"
        },
        {
          "internalType": "uint256[]",
          "name": "readCaptureAmounts",
          "type": "uint256[]"
        },
        {
          "internalType": "uint256[]",
          "name": "readBytes",
          "type": "uint256[]"
        },
        {
          "internalType": "address[]",
          "name": "nodes",
          "type": "address[]"
        },
        {
          "internalType": "int256[]",
          "name": "nodeChanges",
          "type": "int256[]"
        },
        {
          "internalType": "address[]",
          "name": "delegates",
          "type": "address[]"
        },
        {
          "internalType": "address[][]",
          "name": "delegateNodes",
          "type": "address[][]"
        },
        {
          "internalType": "int256[][]",
          "name": "delegateNodeChanges",
          "type": "int256[][]"
        },
        {
          "internalType": "int256",
          "name": "treasurySupplyChange",
          "type": "int256"
        },
        {
          "internalType": "address[]",
          "name": "addresses",
          "type": "address[]"
        },
        {
          "internalType": "bytes[]",
          "name": "signatures",
          "type": "bytes[]"
        }
      ],
      "name": "report",
      "outputs": [],
      "stateMutability": "nonpayable",
      "type": "function"
    },
    {
      "inputs": [
        {
          "internalType": "address",
          "name": "newOwner",
          "type": "address"
        }
      ],
      "name": "transferOwnership",
      "outputs": [],
      "stateMutability": "nonpayable",
      "type": "function"
    },
    {
      "inputs": [
        {
          "internalType": "address",
          "name": "newImplementation",
          "type": "address"
        }
      ],
      "name": "upgradeTo",
      "outputs": [],
      "stateMutability": "nonpayable",
      "type": "function"
    },
    {
      "inputs": [
        {
          "internalType": "address",
          "name": "newImplementation",
          "type": "address"
        },
        {
          "internalType": "bytes",
          "name": "data",
          "type": "bytes"
        }
      ],
      "name": "upgradeToAndCall",
      "outputs": [],
      "stateMutability": "payable",
      "type": "function"
    }
  ],
  "bytecode": "0x60a080604052346100315730608052613ca290816100378239608051818181611fa2015281816120af01526123c60152f35b600080fdfe6104a0604052600436101561001357600080fd5b60003560e01c806312e63d71146126a757806325cbbdff146126565780633659cfe6146123a15780634f1ef2861461205d57806352d1902d14611f87578063715018a614611f2c5780638da5cb5b14611f055780639f29124b14610593578063c4d66de8146103ea578063eefa7a3e146101e1578063f2fde38b1461013b5763f6883c05146100a157600080fd5b346101365760203660031901126101365760043567ffffffffffffffff81116101365760206100d660079236906004016128d9565b91906100e0612cf7565b826040519384928337810160ff81520301902001740100000000000000000000000000000000000000007fffffffffffffffffffffff00ffffffffffffffffffffffffffffffffffffffff825416179055600080f35b600080fd5b3461013657602036600319011261013657610154612bff565b61015c612cf7565b6001600160a01b038116156101765761017490612d4f565b005b60405162461bcd60e51b815260206004820152602660248201527f4f776e61626c653a206e6577206f776e657220697320746865207a65726f206160448201527f64647265737300000000000000000000000000000000000000000000000000006064820152608490fd5b34610136576000366003190112610136576101fa612fdf565b50610203613179565b60405161020f81612b70565b6102188261305d565b815260018083015490602091828401526002918285015460408501526003808601805461024481612be7565b916102526040519384612bc5565b81835260009081528481208685878087015b8686106103b05750505050505050606086015261028360048701613103565b608086015260058601805461029781612be7565b916102a56040519384612bc5565b81835260009081528481208688878087015b868610610376575050505050505060a0860152600686018054926102da84612be7565b956102e86040519788612bc5565b8487526000928352818320908288015b86851061033a5760c08a0189905260078b01546001600160a01b03811660e08c015260a01c60ff1615156101008b0152604051806103368c82612997565b0390f35b8584899260405161034a81612b8d565b6001600160a01b03875416815284870154838201528587015460408201528152019301940193916102f8565b60405161038281612ba9565b6001600160a01b03865416815261039a858701613103565b83820152815201920192019190888789926102b7565b6040516103bc81612b8d565b6103c58661305d565b815284860154838201528c860154604082015281520192019201919085878992610264565b3461013657602036600319011261013657610403612bff565b6000549060ff8260081c161591828093610586575b801561056f575b156105045760ff198116600117600055826104f2575b5061045060ff60005460081c1661044b81612f6d565b612f6d565b61045933612d4f565b61047760ff60005460081c1661046e81612f6d565b61044b81612f6d565b600160c9556001600160a01b038116610100816001600160a01b0319825416179055600a60fb556104a6612cf7565b15610176576104b490612d4f565b6104ba57005b61ff0019600054166000557f7f26b83ff96e1f2b6a682f133852f6798a09c465da95921460cefb3847402498602060405160018152a1005b61ffff19166101011760005582610435565b60405162461bcd60e51b815260206004820152602e60248201527f496e697469616c697a61626c653a20636f6e747261637420697320616c72656160448201527f647920696e697469616c697a65640000000000000000000000000000000000006064820152608490fd5b50303b15801561041f5750600160ff82161461041f565b50600160ff821610610418565b34610136576102003660031901126101365760043567ffffffffffffffff8111610136576105c59036906004016128d9565b6102e05260e05260443567ffffffffffffffff8111610136576105ec903690600401612cc6565b610200526103005260643567ffffffffffffffff811161013657610614903690600401612cc6565b906101c05260843567ffffffffffffffff811161013657610639903690600401612cc6565b610340526102605260a43567ffffffffffffffff811161013657610661903690600401612cc6565b9160c43567ffffffffffffffff811161013657610682903690600401612cc6565b610460529160e43567ffffffffffffffff8111610136576106a7903690600401612cc6565b9490936101043567ffffffffffffffff8111610136576106cb903690600401612cc6565b6101a052610220526101243567ffffffffffffffff8111610136576106f4903690600401612cc6565b610140526103805267ffffffffffffffff61014435116101365761071e3661014435600401612cc6565b6101205260a05267ffffffffffffffff6101643511610136576107473661016435600401612cc6565b610440526103c05267ffffffffffffffff6101843511610136576107713661018435600401612cc6565b6102c05260c05267ffffffffffffffff6101c435116101365761079a366101c435600401612cc6565b610240526101005267ffffffffffffffff6101e43511610136576107c4366101e435600401612cc6565b6104005261042052602460206001600160a01b03610100541660405192838092630c2effa360e31b82523360048301525afa908115611b8657600091611ee6575b5015611ea15743602435111580611e8b575b15611e4657610835610830366102405161010051612c15565b613804565b15611e01576108496102e05160e051613530565b610320526000610180525b6103205180516101805190811015611dfa576108796001600160a01b03913393613249565b5116146108955761088c6101805161323a565b61018052610854565b60fb5461018051818102918183041490151715610bc7576024358101809111610bc757431115611db5575b6108cb602435613937565b6109c7604e6108dc6101a435613a9f565b92604051938491663d9134b2111d1160c91b60208401526102e05160e05160278501377f222c22686569676874223a22000000000000000000000000000000000000000060276102e0518501015261094381518092602060336102e0518801019101612907565b7f222c227472656173757279223a220000000000000000000000000000000000006033826102e051860101015261098b8251809360206041856102e051890101019101612907565b6102e051830101017f222c2273747265616d73223a5b00000000000000000000000000000000000000604182015203602e810184520182612bc5565b6080526109eb6109d961020051612be7565b80610360526040518061028052612bc5565b610200516102805152601f19610a0361020051612be7565b0160005b818110611d8657505060005b6102005180821015610bdd5790610b14610a3382603f9461030051613273565b9390610a4c610a46858b6101c0516132b5565b35613937565b607d60f81b610a65610a468761034051610260516132b5565b9160405197889481608051610a83815180926020808c019101612907565b870191663d9134b2111d1160c91b60208401526027830137017f222c2263617074757265223a00000000000000000000000000000000000000006027820152610ad6825180936020603385019101612907565b016a0161011313cba32b9911d160ad1b6033820152825190610b0182603e9560208785019101612907565b019182015203601f810185520183612bc5565b81608052610200519182600019810111610bc757610bb092600019018203610bb5575b50610b49816102005161030051613273565b90610b5883896101c0516132b5565b35610b83610b6d8561034051610260516132b5565b359260405194610b7c86612b8d565b3691612c8f565b835260208301526040820152610b9c8261028051613249565b52610baa8161028051613249565b5061323a565b610a13565b610bbe906132c5565b60805288610b37565b634e487b7160e01b600052601160045260246000fd5b50508486604051610c38603182608051610c008151809260208086019101612907565b81017f5d2c2022636f6e73756d657273223a205b00000000000000000000000000000060208201526011828203018252030182612bc5565b608052610c59610c4785612be7565b8061048052604051806102a052612bc5565b836102a05152601f19610c6b85612be7565b0160005b818110611d5757505060005b848110611bc357604051610cd7602d82608051610ca18151809260208086019101612907565b81017f5d2c20226e6f646573223a207b00000000000000000000000000000000000000602082015203600d810184520182612bc5565b608052610ce66101a051613311565b60005b6101a05180821015610dcd57610d16610d11610d0c84610d3994610220516132b5565b6132fd565b613b5f565b610d30610d2a8461014051610380516132b5565b35613a9f565b90608051613372565b90816080526101a0519182600019810111610bc757610db692600019018203610dbb575b50610d72610d0c826101a051610220516132b5565b610d838261014051610380516132b5565b356001600160a01b0360405192610d9984612ba9565b1682526020820152610dab8285613249565b52610baa8184613249565b610ce9565b610dc4906132c5565b60805283610d5d565b82604051610e23603182608051610ded8151809260208086019101612907565b81017f7d2c202264656c656761746573223a207b0000000000000000000000000000006020820152036011810184520182612bc5565b608052610e47610e3561012051612be7565b806103e0526040518061016052612bc5565b610120516101605152601f19610e5f61012051612be7565b0160005b818110611b9b578260006101e0525b610120516101e051818110156110ce57610d0c610d1191610e959360a0516132b5565b610ef260246040518093608051610eb58151809260208087019101612907565b8201601160f91b6020820152815190610ed78260219460208685019101612907565b019062223a7b60e81b90820152036004810184520182612bc5565b608052610f13610f0c6101e051610440516103c0516133e2565b9050613311565b6103a05260005b610f2e6101e051610440516103c0516133e2565b905081101561102f57610f78610f5e610d11610d0c84610f586101e051610440516103c0516133e2565b906132b5565b610d30610d2a84610f586101e0516102c05160c0516133e2565b608052610f8f6101e051610440516103c0516133e2565b80929150600019810111610bc7576110179160001901810361101c575b610fc7610d0c82610f586101e051610440516103c0516133e2565b610fde82610f586101e0516102c05160c0516133e2565b356001600160a01b0360405192610ff484612ba9565b1682526020820152611009826103a051613249565b52610baa816103a051613249565b610f1a565b6110276080516132c5565b608052610fac565b506101205180600019810111610bc757600019016101e051036110bb575b611063610d0c6101e0516101205160a0516132b5565b6001600160a01b036040519161107883612ba9565b1681526103a05160208201526110946101e05161016051613249565b526110a56101e05161016051613249565b506110b26101e05161323a565b6101e052610e72565b6110c66080516132c5565b60805261104d565b8260405161110b6022826080516110ee8151809260208086019101612907565b8101617d7d60f01b60208201526002828203018252030182612bc5565b6040519161111883612b70565b611128366102e05160e051612c8f565b835260243560208401526101a435604084015261028051606084015260808301526101605160a08301526102a05160c08301523360e08301526000610100830152604051602081019061119360208285516111868187858a01612907565b8101038084520182612bc5565b5190209060019160005b6102405180821015611b9257610d0c826111ba92610100516132b5565b60206001600160a01b0360846111d7856104005161042051613273565b8060409692965196879586946301a86b5560e41b865216600485015289602485015260606044850152816064850152848401376000828201840152601f01601f1916810103018173__$267c3dc7aa7d3fe2e28bda43a2ca27cd27$__5af48015611b8657600191600091611b57575b5015150361125c576112579061323a565b61119d565b5050905060005b15611b1257611282602083518160405193828580945193849201612907565b810160ff81520301902091805192835167ffffffffffffffff8111611667576112ab8254613023565b601f8111611ae0575b506020601f8211600114611a77578192939495600092611a6c575b50508160011b916000199060031b1c19161781555b60208201516001820155604082015160028201556060820151805190600160401b82116116675760038301548260038501558083106119c1575b50602001906003830160005260206000206000925b82841061188c5750505050600481016080830151906020825192611357848461343e565b019060005260206000206000915b838310611856575050505060a0820151805190600160401b82116116675760058301548260058501558083106117ae575b506020016005830160005260206000206000915b838310611716575050505060c0820151805190600160401b82116116675760068301548260068501558083106116bd575b506020016006830160005260206000206000915b83831061167d578686600787016001600160a01b0360e0830151168154907fffffffffffffffffffffff00000000000000000000000000000000000000000074ff0000000000000000000000000000000000000000610100860151151560a01b169216171790555190815167ffffffffffffffff81116116675761147460fc54613023565b601f811161160d575b50602092601f821160011461158b5792819293600092611580575b50508160011b916000199060031b1c19161760fc555b60005b610320518051821015611542576114d0826001600160a01b0392613249565b51163314600014611506573360005260fd6020526040600020908154600a8101809111610bc757611501925561323a565b6114b1565b6001600160a01b0361151b8261032051613249565b511660005260fd602052604060002090815460018101809111610bc757611501925561323a565b7fc53a4e1db72f8c6fde77b85b4cc21a59f9896e9d7285f890075356dbd528d1cd61157b8460405191829160208352602083019061292a565b0390a1005b015190508380611498565b601f1982169360fc6000527f371f36870d18f32a11fea0f144b021c8b407bb50f8e0267c711123f454b963c09160005b8681106115f557508360019596106115dc575b505050811b0160fc556114ae565b015160001960f88460031b161c191690558380806115ce565b919260206001819286850151815501940192016115bb565b6116579060fc6000527f371f36870d18f32a11fea0f144b021c8b407bb50f8e0267c711123f454b963c0601f840160051c8101916020851061165d575b601f0160051c0190613427565b8361147d565b909150819061164a565b634e487b7160e01b600052604160045260246000fd5b60036020826040600194516001600160a01b038151166001600160a01b0319885416178755838101518688015501516002860155019201920191906113ef565b6003818102048103610bc7576003838102048303610bc7576006840160005260206000208360030281015b82600302820181106116fb5750506113db565b806000600392556000600182015560006002820155016116e8565b80516001600160a01b038151166001600160a01b031984541617835560206001840191015190602082519261174b848461343e565b01906000526020600020906000905b838210611778575050505060026020600192019201920191906113aa565b600260208281600194516001600160a01b038151166001600160a01b03198954161788550151848701550193019101909161175a565b6001600160ff1b0381168103610bc7576001600160ff1b0383168303610bc7576005840160005260206000208360011b81015b8260011b820181106117f4575050611396565b6000815560018101546000600183015580611813575b506002016117e1565b6001600160ff1b0381168103610bc7576001820160005260206000209060011b8101905b818110611844575061180a565b60008082556001820155600201611837565b600260208281600194516001600160a01b038151166001600160a01b031988541617875501518486015501920192019190611365565b8051805180519067ffffffffffffffff8211611667576118ac8554613023565b601f8111611984575b50602090601f8311600114611912576003938360209460019794604094600092611907575b505060001982881b1c191690871b1787555b83810151868801550151600286015501920193019290611333565b015190508e806118da565b908560005260206000209160005b601f198516811061196c575093600184819794604094600398602098601f19811610611954575b505050811b0187556118ec565b0151600019838a1b60f8161c191690558e8080611947565b91926020600181928685015181550194019201611920565b6119b1908660005260206000206005601f8601811c820192602087106119b7575b601f01901c0190613427565b8a6118b5565b91925082916119a5565b6003818102048103610bc7576003838102048303610bc7576003840160005260206000208360030281015b82600302820181106119ff57505061131e565b80611a0c60039254613023565b80611a27575b506000600182015560006002820155016119ec565b601f8111600114611a3e5750600081555b89611a12565b611a5d90826000526001601f6020600020920160051c82019101613427565b60006020812081835555611a38565b0151905085806112cf565b8260005260206000209060005b601f1984168110611ac8575060019394959683601f19811610611aaf575b505050811b0181556112e4565b015160001960f88460031b161c19169055858080611aa2565b9091602060018192858b015181550193019101611a84565b611b0c90836000526020600020601f840160051c8101916020851061165d57601f0160051c0190613427565b856112b4565b60405162461bcd60e51b815260206004820152601d60248201527f6572726f725f696e76616c69645265706f72745369676e6174757265730000006044820152606490fd5b611b79915060203d602011611b7f575b611b718183612bc5565b810190613222565b87611246565b503d611b67565b6040513d6000823e3d90fd5b50505090611263565b602090604051611baa81612ba9565b6000815260608382015282826101605101015201610e63565b80611cba6040611be9610d11610d0c6a0161011313cba32b9911d160ad1b968b8d6132b5565b611bfa610a4685610460518b6132b5565b607d60f81b611c0d610a46878a8c6132b5565b918451978894608051611c29815180926020808b019101612907565b8601663d9134b2111d1160c91b6020820152611c4f825180936020602785019101612907565b017f222c2263617074757265223a20000000000000000000000000000000000000006027820152825190611c8c8260349560208785019101612907565b0191820152825190611ca782603f9560208785019101612907565b0191820152036020810185520183612bc5565b8160805285600019810111610bc757611d4091600187830301611d45575b50611ce7610d0c82888a6132b5565b611cf58261046051886132b5565b35611d018386886132b5565b35906001600160a01b0360405193611d1885612b8d565b16835260208301526040820152611d32826102a051613249565b52610baa816102a051613249565b610c7b565b611d4e906132c5565b60805287611cd8565b602090604051611d6681612b8d565b600081526000838201526000604082015282826102a05101015201610c6f565b602090604051611d9581612b8d565b606081526000838201526000604082015282826102805101015201610a07565b60405162461bcd60e51b815260206004820152601560248201527f6572726f725f696e76616c69645265706f7274657200000000000000000000006044820152606490fd5b50506108c0565b60405162461bcd60e51b815260206004820152601260248201527f6572726f725f71756f72756d4e6f744d657400000000000000000000000000006044820152606490fd5b60405162461bcd60e51b815260206004820152601360248201527f6572726f725f696e76616c69645265706f7274000000000000000000000000006044820152606490fd5b506001611e96613179565b015460243511610817565b60405162461bcd60e51b815260206004820152601360248201527f6572726f725f7374616b655265717569726564000000000000000000000000006044820152606490fd5b611eff915060203d602011611b7f57611b718183612bc5565b87610805565b346101365760003660031901126101365760206001600160a01b0360975416604051908152f35b3461013657600036600319011261013657611f45612cf7565b60006001600160a01b036097546001600160a01b03198116609755167f8be0079c531659141344cd1fd0a4f28419497f9722a3daafe3b4186f6b6457e08280a3005b34610136576000366003190112610136576001600160a01b037f0000000000000000000000000000000000000000000000000000000000000000163003611ff25760206040517f360894a13ba1a3210667c828492db98dca3e2076cc3735a920a3ca505d382bbc8152f35b60405162461bcd60e51b815260206004820152603860248201527f555550535570677261646561626c653a206d757374206e6f742062652063616c60448201527f6c6564207468726f7567682064656c656761746563616c6c00000000000000006064820152608490fd5b604036600319011261013657612071612bff565b60243567ffffffffffffffff81116101365736602382011215610136576120a2903690602481600401359101612c8f565b906001600160a01b0391827f000000000000000000000000000000000000000000000000000000000000000016926120dc84301415612d97565b61210b7f360894a13ba1a3210667c828492db98dca3e2076cc3735a920a3ca505d382bbc948286541614612e09565b612113612cf7565b7f4910fdfa16fed3260ed0e7147f7cc6da11a60208b5b9406d12a635614ffd91435460ff16156121495750506101749150612e7b565b82919216604051936352d1902d60e01b85526020948581600481865afa60009181612372575b506121d05760405162461bcd60e51b815260048101879052602e60248201527f45524331393637557067726164653a206e657720696d706c656d656e7461746960448201526d6f6e206973206e6f74205555505360901b6064820152608490fd5b0361231b576121de82612e7b565b604051907fbc7cd75a20ee27fd9adebab32041f755214dbc6bffa90cc0225b39da2e5c2d3b600080a2825115801590612313575b61221857005b813b156122c257506000828192856101749695519201905af43d156122ba573d9061224282612c73565b916122506040519384612bc5565b82523d60008484013e5b7f416464726573733a206c6f772d6c6576656c2064656c65676174652063616c6c6040519361228885612b8d565b602785528401527f206661696c6564000000000000000000000000000000000000000000000000006040840152612f29565b60609061225a565b62461bcd60e51b815260048101849052602660248201527f416464726573733a2064656c65676174652063616c6c20746f206e6f6e2d636f6044820152651b9d1c9858dd60d21b6064820152608490fd5b506001612212565b60405162461bcd60e51b815260048101859052602960248201527f45524331393637557067726164653a20756e737570706f727465642070726f786044820152681a58589b195555525160ba1b6064820152608490fd5b9091508681813d831161239a575b61238a8183612bc5565b810103126101365751908761216f565b503d612380565b3461013657602080600319360112610136576123bb612bff565b6001600160a01b03807f0000000000000000000000000000000000000000000000000000000000000000166123f281301415612d97565b6124217f360894a13ba1a3210667c828492db98dca3e2076cc3735a920a3ca505d382bbc918383541614612e09565b612429612cf7565b604051908482019282841067ffffffffffffffff85111761166757836040526000835260ff7f4910fdfa16fed3260ed0e7147f7cc6da11a60208b5b9406d12a635614ffd9143541660001461248657505050506101749150612e7b565b8416906040516352d1902d60e01b81528681600481865afa60009181612627575b506125085760405162461bcd60e51b815260048101889052602e60248201527f45524331393637557067726164653a206e657720696d706c656d656e7461746960448201526d6f6e206973206e6f74205555505360901b6064820152608490fd5b036125d05761251684612e7b565b604051907fbc7cd75a20ee27fd9adebab32041f755214dbc6bffa90cc0225b39da2e5c2d3b600080a28151158015906125c8575b61255057005b833b1561257757506101749392600092839251915af43d156122ba573d9061224282612c73565b62461bcd60e51b815260048101859052602660248201527f416464726573733a2064656c65676174652063616c6c20746f206e6f6e2d636f6044820152651b9d1c9858dd60d21b6064820152608490fd5b50600061254a565b60405162461bcd60e51b815260048101869052602960248201527f45524331393637557067726164653a20756e737570706f727465642070726f786044820152681a58589b195555525160ba1b6064820152608490fd5b9091508781813d831161264f575b61263f8183612bc5565b81010312610136575190886124a7565b503d612635565b346101365760203660031901126101365760043567ffffffffffffffff811161013657366023820112156101365761269d6108306020923690602481600401359101612c15565b6040519015158152f35b34610136576020806003193601126101365760043567ffffffffffffffff8111610136576126da829136906004016128d9565b91906126e4612fdf565b50826040519384928337810160ff815203019020906040519061270682612b70565b61270f8361305d565b8252600180840154828401526002918285015460408501526003808601805461273781612be7565b916127456040519384612bc5565b81835260009081528481208685878087015b86861061289f5750505050505050606086015261277660048701613103565b608086015260058601805461278a81612be7565b916127986040519384612bc5565b81835260009081528481208688878087015b868610612865575050505050505060a0860152600686018054926127cd84612be7565b956127db6040519788612bc5565b8487526000928352818320908288015b8685106128295760c08a0189905260078b01546001600160a01b03811660e08c015260a01c60ff1615156101008b0152604051806103368c82612997565b8584899260405161283981612b8d565b6001600160a01b03875416815284870154838201528587015460408201528152019301940193916127eb565b60405161287181612ba9565b6001600160a01b038654168152612889858701613103565b83820152815201920192019190888789926127aa565b6040516128ab81612b8d565b6128b48661305d565b815284860154838201528c860154604082015281520192019201919085878992612757565b9181601f840112156101365782359167ffffffffffffffff8311610136576020838186019501011161013657565b60005b83811061291a5750506000910152565b818101518382015260200161290a565b9060209161294381518092818552858086019101612907565b601f01601f1916010190565b90815180825260208080930193019160005b82811061296f575050505090565b835180516001600160a01b031686528201518583015260409094019392810192600101612961565b6020918282528051906129b761012092838686015261014085019061292a565b93808201516040908186015280830151916060928387015282840151601f19978888820301608089015281518082528382019184808360051b8301019401926000915b888d858510612b255750505050505050612a22906080860151898983030160a08a015261294f565b9160a085015192888882030160c089015283518082528382019184808360051b8301019601926000915b8c848410612ad85750505050505060c0850151978784030160e08801528180895194858152019801936000915b848310612aa7575050505050506001600160a01b0360e0820151169061010091828501520151151591015290565b855180516001600160a01b03168b52808501518b8601528101518a8201529881019894830194600190920191612a79565b9680612b118a89838a9e9b9c9a8798999a9b829f9860019903018a52516001600160a01b0381511684520151918185820152019061294f565b9a0193019301919392909796959497612a4c565b9780999891888293856001969798999a9b030187528a80612b508c519485519080865285019061292a565b9385810151868501520151910152970193019301919392909695966129fa565b610120810190811067ffffffffffffffff82111761166757604052565b6060810190811067ffffffffffffffff82111761166757604052565b6040810190811067ffffffffffffffff82111761166757604052565b90601f8019910116810190811067ffffffffffffffff82111761166757604052565b67ffffffffffffffff81116116675760051b60200190565b600435906001600160a01b038216820361013657565b9291612c2082612be7565b91612c2e6040519384612bc5565b829481845260208094019160051b810192831161013657905b828210612c545750505050565b81356001600160a01b0381168103610136578152908301908301612c47565b67ffffffffffffffff811161166757601f01601f191660200190565b929192612c9b82612c73565b91612ca96040519384612bc5565b829481845281830111610136578281602093846000960137010152565b9181601f840112156101365782359167ffffffffffffffff8311610136576020808501948460051b01011161013657565b6001600160a01b03609754163303612d0b57565b606460405162461bcd60e51b815260206004820152602060248201527f4f776e61626c653a2063616c6c6572206973206e6f7420746865206f776e65726044820152fd5b609754906001600160a01b0380911691826001600160a01b0319821617609755167f8be0079c531659141344cd1fd0a4f28419497f9722a3daafe3b4186f6b6457e0600080a3565b15612d9e57565b60405162461bcd60e51b815260206004820152602c60248201527f46756e6374696f6e206d7573742062652063616c6c6564207468726f7567682060448201527f64656c656761746563616c6c00000000000000000000000000000000000000006064820152608490fd5b15612e1057565b60405162461bcd60e51b815260206004820152602c60248201527f46756e6374696f6e206d7573742062652063616c6c6564207468726f7567682060448201527f6163746976652070726f787900000000000000000000000000000000000000006064820152608490fd5b803b15612ebe576001600160a01b037f360894a13ba1a3210667c828492db98dca3e2076cc3735a920a3ca505d382bbc91166001600160a01b0319825416179055565b60405162461bcd60e51b815260206004820152602d60248201527f455243313936373a206e657720696d706c656d656e746174696f6e206973206e60448201527f6f74206120636f6e7472616374000000000000000000000000000000000000006064820152608490fd5b90919015612f35575090565b815115612f455750805190602001fd5b60405162461bcd60e51b815260206004820152908190612f6990602483019061292a565b0390fd5b15612f7457565b60405162461bcd60e51b815260206004820152602b60248201527f496e697469616c697a61626c653a20636f6e7472616374206973206e6f74206960448201527f6e697469616c697a696e670000000000000000000000000000000000000000006064820152608490fd5b60405190612fec82612b70565b600061010083606080825283602083015283604083015280808301528060808301528060a083015260c08201528260e08201520152565b90600182811c92168015613053575b602083101461303d57565b634e487b7160e01b600052602260045260246000fd5b91607f1691613032565b906040519182600082549261307184613023565b9081845260019485811690816000146130e0575060011461309d575b505061309b92500383612bc5565b565b9093915060005260209081600020936000915b8183106130c857505061309b9350820101388061308d565b855488840185015294850194879450918301916130b0565b91505061309b94506020925060ff191682840152151560051b820101388061308d565b90815461310f81612be7565b9260409361311f85519182612bc5565b828152809460208092019260005281600020906000935b85851061314557505050505050565b600284600192845161315681612ba9565b6001600160a01b0387541681528487015483820152815201930194019391613136565b60405160fc5481600061318b83613023565b9260019081811690811561320857506001146131b2575b506020925060ff81520301902090565b60fc600090815291507f371f36870d18f32a11fea0f144b021c8b407bb50f8e0267c711123f454b963c05b8483106131f2575050506020918101386131a2565b80548684015285935060209092019181016131dd565b60ff191684525060209380151502830191503890506131a2565b90816020910312610136575180151581036101365790565b6000198114610bc75760010190565b805182101561325d5760209160051b010190565b634e487b7160e01b600052603260045260246000fd5b919081101561325d5760051b81013590601e198136030182121561013657019081359167ffffffffffffffff8311610136576020018236038113610136579190565b919081101561325d5760051b0190565b9061309b6021604051846132e3829651809260208086019101612907565b8101600b60fa1b6020820152036001810185520183612bc5565b356001600160a01b03811681036101365790565b9061331b82612be7565b60409061332a82519182612bc5565b838152809361333b601f1991612be7565b0191600090815b848110613350575050505050565b602090825161335e81612ba9565b848152828581830152828701015201613342565b60239061309b9294936040519582613394889451809260208088019101612907565b8301601160f91b60208201526133b4825180936020602185019101612907565b0161111d60f11b60218201526133d38251809360208785019101612907565b01036003810185520183612bc5565b919081101561325d5760051b81013590601e198136030182121561013657019081359167ffffffffffffffff8311610136576020018260051b36038113610136579190565b818110613432575050565b60008155600101613427565b600160401b821161166757805482825580831061345a57505050565b6001600160ff1b038082168203610bc75783168303610bc757600091825260208220600191821b810193821b015b8381106134955750505050565b808360029255838382015501613488565b60209081818403126101365780519067ffffffffffffffff821161013657019180601f840112156101365782516134dc81612be7565b936134ea6040519586612bc5565b818552838086019260051b820101928311610136578301905b828210613511575050505090565b81516001600160a01b0381168103610136578152908301908301613503565b9190604090815193818186378482810160fe815260209687910301902054613796576001600160a01b0392836101005416928151968794636085a91160e11b865285600460009a8b935afa94851561378c578895613768575b5084519691936135b061359b89612be7565b986135a886519a8b612bc5565b808a52612be7565b8883019190601f190136833789938a925b88518410156136c6578b92918b918499855b8d8d805183101561368f578a8e8d8f856135ed8887613249565b51168d5260fd8094528c2054101580613686575b6136795783161561366057828f918f908e8d8461361e8a89613249565b51169052528b205491168a528d8a205410613644575b505061363f9061323a565b6135d3565b8261363f939e5061365491613249565b51169b90508d8d613634565b508261363f939e5061367191613249565b51169b61323a565b5050505061363f9061323a565b508d1515613601565b506136bd959a5088949891508b906136b793979d989498169384815260fd8b52205499613249565b5261323a565b929096916135c1565b989750999593509050828294519384928337810160fe8152030190209285519467ffffffffffffffff861161375457600160401b861161375457845486865580871061373a575b50938352818320925b8581106137265750505050505090565b845182168482015593820193600101613716565b85855283852061374e918101908801613427565b3861370d565b634e487b7160e01b84526041600452602484fd5b6137859195503d808a833e61377d8183612bc5565b8101906134a6565b9338613589565b83513d8a823e3d90fd5b93829394828294519384928337810160fe81520301902091518092839183825491828152019160005283600020936000905b8282106137e1575050506137de92500382612bc5565b90565b85546001600160a01b0316845260019586019587955093810193909101906137c8565b9060046000926000806001600160a01b03928284610100541660405196878092636085a91160e11b82525afa94851561392c578395613910575b508451600195869591861c8061390657508594989796985b80995b61386a575b50505050505050909150565b81518a1015613901578681815b6138b1575b50508585101561389a576138928798999a61323a565b999897613859565b50505050505091509150813880808080808061385e565b85518110156138fc57846138c58d86613249565b5116856138d28389613249565b5116146138e8576138e29061323a565b81613877565b5050936138f49061323a565b93863861387c565b61387c565b61385e565b9498979698613856565b6139259195503d8085833e61377d8183612bc5565b933861383e565b6040513d85823e3d90fd5b806000917a184f03e93ff9f4daa797ed6e38ed64bf6a1f01000000000000000080821015613a91575b506d04ee2d6d415b85acef810000000080831015613a82575b50662386f26fc1000080831015613a73575b506305f5e10080831015613a64575b5061271080831015613a55575b506064821015613a45575b600a80921015613a3b575b600190816021818601956139d087612c73565b966139de6040519889612bc5565b8088526139ed601f1991612c73565b01366020890137860101905b613a05575b5050505090565b600019019083906f181899199a1a9b1b9c1cb0b131b232b360811b8282061a835304918215613a36579190826139f9565b6139fe565b91600101916139bd565b91906064600291049101916139b2565b600491939204910191386139a7565b6008919392049101913861399a565b6010919392049101913861398b565b60209193920491019138613979565b604093508104915038613960565b600080821291908215613b1a57613adb6137de92602092604051613ac281612ba9565b60018152602d60f81b85820152955b613b145750613937565b926040519381613af48693518092868087019101612907565b8201613b0882518093868085019101612907565b01038084520182612bc5565b03613937565b6040516020810181811067ffffffffffffffff821117613b4b57604052818152926137de92602092613adb92613ad1565b634e487b7160e01b83526041600452602483fd5b6001600160a01b031660405190613b7582612b8d565b602a8252602090818301604036823783511561325d5760309053825160019081101561325d57607860218501536029905b808211613bfa575050613bb7575090565b6064906040519062461bcd60e51b825280600483015260248201527f537472696e67733a20686578206c656e67746820696e73756666696369656e746044820152fd5b9091600f81166010811015613c57578551841015613c57576f181899199a1a9b1b9c1cb0b131b232b360811b901a84848701015360041c918015613c42576000190190613ba6565b60246000634e487b7160e01b81526011600452fd5b60246000634e487b7160e01b81526032600452fdfea2646970667358221220a3c090059cf546a6935da3bf2af36b143ba0f138912d34684ee6fb82f1bd8ffd64736f6c63430008110033",
  "linkReferences": {
    "src/lib/VerifySignature.sol": {
      "VerifySignature": [
        {
          "length": 20,
          "start": 4695
        }
      ]
    }
  },
  "deployedLinkReferences": {
    "src/lib/VerifySignature.sol": {
      "VerifySignature": [
        {
          "length": 20,
          "start": 4640
        }
      ]
    }
  }
}