{
  "_format": "hh-sol-artifact-1",
  "contractName": "LogStoreReportManager",
  "sourceName": "src/ReportManager.sol",
  "abi": [
    {
      "anonymous": false,
      "inputs": [
        {
          "indexed": false,
          "internalType": "address",
          "name": "previousAdmin",
          "type": "address"
        },
        {
          "indexed": false,
          "internalType": "address",
          "name": "newAdmin",
          "type": "address"
        }
      ],
      "name": "AdminChanged",
      "type": "event"
    },
    {
      "anonymous": false,
      "inputs": [
        {
          "indexed": true,
          "internalType": "address",
          "name": "beacon",
          "type": "address"
        }
      ],
      "name": "BeaconUpgraded",
      "type": "event"
    },
    {
      "anonymous": false,
      "inputs": [
        {
          "indexed": false,
          "internalType": "uint8",
          "name": "version",
          "type": "uint8"
        }
      ],
      "name": "Initialized",
      "type": "event"
    },
    {
      "anonymous": false,
      "inputs": [
        {
          "indexed": true,
          "internalType": "address",
          "name": "previousOwner",
          "type": "address"
        },
        {
          "indexed": true,
          "internalType": "address",
          "name": "newOwner",
          "type": "address"
        }
      ],
      "name": "OwnershipTransferred",
      "type": "event"
    },
    {
      "anonymous": false,
      "inputs": [
        {
          "indexed": false,
          "internalType": "string",
          "name": "id",
          "type": "string"
        }
      ],
      "name": "ReportAccepted",
      "type": "event"
    },
    {
      "anonymous": false,
      "inputs": [
        {
          "indexed": true,
          "internalType": "address",
          "name": "implementation",
          "type": "address"
        }
      ],
      "name": "Upgraded",
      "type": "event"
    },
    {
      "inputs": [],
      "name": "MATH_PRECISION",
      "outputs": [
        {
          "internalType": "uint256",
          "name": "",
          "type": "uint256"
        }
      ],
      "stateMutability": "view",
      "type": "function"
    },
    {
      "inputs": [
        {
          "internalType": "uint256[]",
          "name": "timestamps",
          "type": "uint256[]"
        }
      ],
      "name": "aggregateTimestamps",
      "outputs": [
        {
          "internalType": "uint256",
          "name": "",
          "type": "uint256"
        }
      ],
      "stateMutability": "pure",
      "type": "function"
    },
    {
      "inputs": [],
      "name": "blockTimestamp",
      "outputs": [
        {
          "internalType": "uint256",
          "name": "",
          "type": "uint256"
        }
      ],
      "stateMutability": "view",
      "type": "function"
    },
    {
      "inputs": [
        {
          "internalType": "uint256[]",
          "name": "timestamps",
          "type": "uint256[]"
        }
      ],
      "name": "canReport",
      "outputs": [
        {
          "internalType": "bool",
          "name": "",
          "type": "bool"
        }
      ],
      "stateMutability": "view",
      "type": "function"
    },
    {
      "inputs": [],
      "name": "getLastReport",
      "outputs": [
        {
          "components": [
            {
              "internalType": "string",
              "name": "id",
              "type": "string"
            },
            {
              "internalType": "uint256",
              "name": "height",
              "type": "uint256"
            },
            {
              "internalType": "int256",
              "name": "treasury",
              "type": "int256"
            },
            {
              "components": [
                {
                  "internalType": "string",
                  "name": "id",
                  "type": "string"
                },
                {
                  "internalType": "uint256",
                  "name": "writeCapture",
                  "type": "uint256"
                },
                {
                  "internalType": "uint256",
                  "name": "writeBytes",
                  "type": "uint256"
                }
              ],
              "internalType": "struct LogStoreReportManager.Stream[]",
              "name": "streams",
              "type": "tuple[]"
            },
            {
              "components": [
                {
                  "internalType": "address",
                  "name": "id",
                  "type": "address"
                },
                {
                  "internalType": "int256",
                  "name": "amount",
                  "type": "int256"
                }
              ],
              "internalType": "struct LogStoreReportManager.Node[]",
              "name": "nodes",
              "type": "tuple[]"
            },
            {
              "components": [
                {
                  "internalType": "address",
                  "name": "id",
                  "type": "address"
                },
                {
                  "components": [
                    {
                      "internalType": "address",
                      "name": "id",
                      "type": "address"
                    },
                    {
                      "internalType": "int256",
                      "name": "amount",
                      "type": "int256"
                    }
                  ],
                  "internalType": "struct LogStoreReportManager.Node[]",
                  "name": "nodes",
                  "type": "tuple[]"
                }
              ],
              "internalType": "struct LogStoreReportManager.Delegate[]",
              "name": "delegates",
              "type": "tuple[]"
            },
            {
              "components": [
                {
                  "internalType": "address",
                  "name": "id",
                  "type": "address"
                },
                {
                  "internalType": "uint256",
                  "name": "readCapture",
                  "type": "uint256"
                },
                {
                  "internalType": "uint256",
                  "name": "readBytes",
                  "type": "uint256"
                }
              ],
              "internalType": "struct LogStoreReportManager.Consumer[]",
              "name": "consumers",
              "type": "tuple[]"
            },
            {
              "internalType": "address",
              "name": "_reporter",
              "type": "address"
            },
            {
              "internalType": "bool",
              "name": "_processed",
              "type": "bool"
            }
          ],
          "internalType": "struct LogStoreReportManager.Report",
          "name": "",
          "type": "tuple"
        }
      ],
      "stateMutability": "view",
      "type": "function"
    },
    {
      "inputs": [
        {
          "internalType": "string",
          "name": "id",
          "type": "string"
        }
      ],
      "name": "getProofOfReport",
      "outputs": [
        {
          "components": [
            {
              "internalType": "address",
              "name": "signer",
              "type": "address"
            },
            {
              "internalType": "bytes",
              "name": "signature",
              "type": "bytes"
            },
            {
              "internalType": "uint256",
              "name": "timestamp",
              "type": "uint256"
            }
          ],
          "internalType": "struct LogStoreReportManager.Proof[]",
          "name": "",
          "type": "tuple[]"
        }
      ],
      "stateMutability": "view",
      "type": "function"
    },
    {
      "inputs": [
        {
          "internalType": "string",
          "name": "id",
          "type": "string"
        }
      ],
      "name": "getReport",
      "outputs": [
        {
          "components": [
            {
              "internalType": "string",
              "name": "id",
              "type": "string"
            },
            {
              "internalType": "uint256",
              "name": "height",
              "type": "uint256"
            },
            {
              "internalType": "int256",
              "name": "treasury",
              "type": "int256"
            },
            {
              "components": [
                {
                  "internalType": "string",
                  "name": "id",
                  "type": "string"
                },
                {
                  "internalType": "uint256",
                  "name": "writeCapture",
                  "type": "uint256"
                },
                {
                  "internalType": "uint256",
                  "name": "writeBytes",
                  "type": "uint256"
                }
              ],
              "internalType": "struct LogStoreReportManager.Stream[]",
              "name": "streams",
              "type": "tuple[]"
            },
            {
              "components": [
                {
                  "internalType": "address",
                  "name": "id",
                  "type": "address"
                },
                {
                  "internalType": "int256",
                  "name": "amount",
                  "type": "int256"
                }
              ],
              "internalType": "struct LogStoreReportManager.Node[]",
              "name": "nodes",
              "type": "tuple[]"
            },
            {
              "components": [
                {
                  "internalType": "address",
                  "name": "id",
                  "type": "address"
                },
                {
                  "components": [
                    {
                      "internalType": "address",
                      "name": "id",
                      "type": "address"
                    },
                    {
                      "internalType": "int256",
                      "name": "amount",
                      "type": "int256"
                    }
                  ],
                  "internalType": "struct LogStoreReportManager.Node[]",
                  "name": "nodes",
                  "type": "tuple[]"
                }
              ],
              "internalType": "struct LogStoreReportManager.Delegate[]",
              "name": "delegates",
              "type": "tuple[]"
            },
            {
              "components": [
                {
                  "internalType": "address",
                  "name": "id",
                  "type": "address"
                },
                {
                  "internalType": "uint256",
                  "name": "readCapture",
                  "type": "uint256"
                },
                {
                  "internalType": "uint256",
                  "name": "readBytes",
                  "type": "uint256"
                }
              ],
              "internalType": "struct LogStoreReportManager.Consumer[]",
              "name": "consumers",
              "type": "tuple[]"
            },
            {
              "internalType": "address",
              "name": "_reporter",
              "type": "address"
            },
            {
              "internalType": "bool",
              "name": "_processed",
              "type": "bool"
            }
          ],
          "internalType": "struct LogStoreReportManager.Report",
          "name": "",
          "type": "tuple"
        }
      ],
      "stateMutability": "view",
      "type": "function"
    },
    {
      "inputs": [],
      "name": "getReporters",
      "outputs": [
        {
          "internalType": "address[]",
          "name": "reporters",
          "type": "address[]"
        }
      ],
      "stateMutability": "view",
      "type": "function"
    },
    {
      "inputs": [
        {
          "internalType": "address",
          "name": "_owner",
          "type": "address"
        },
        {
          "internalType": "uint256",
          "name": "_reportTimeBuffer",
          "type": "uint256"
        },
        {
          "internalType": "uint256",
          "name": "__test_block_timestamp",
          "type": "uint256"
        }
      ],
      "name": "initialize",
      "outputs": [],
      "stateMutability": "nonpayable",
      "type": "function"
    },
    {
      "inputs": [],
      "name": "owner",
      "outputs": [
        {
          "internalType": "address",
          "name": "",
          "type": "address"
        }
      ],
      "stateMutability": "view",
      "type": "function"
    },
    {
      "inputs": [
        {
          "internalType": "string",
          "name": "id",
          "type": "string"
        }
      ],
      "name": "processReport",
      "outputs": [],
      "stateMutability": "nonpayable",
      "type": "function"
    },
    {
      "inputs": [],
      "name": "proxiableUUID",
      "outputs": [
        {
          "internalType": "bytes32",
          "name": "",
          "type": "bytes32"
        }
      ],
      "stateMutability": "view",
      "type": "function"
    },
    {
      "inputs": [
        {
          "internalType": "address[]",
          "name": "participants",
          "type": "address[]"
        },
        {
          "internalType": "address[]",
          "name": "totalMembers",
          "type": "address[]"
        }
      ],
      "name": "quorumIsMet",
      "outputs": [
        {
          "internalType": "bool",
          "name": "isMet",
          "type": "bool"
        }
      ],
      "stateMutability": "pure",
      "type": "function"
    },
    {
      "inputs": [],
      "name": "renounceOwnership",
      "outputs": [],
      "stateMutability": "nonpayable",
      "type": "function"
    },
    {
      "inputs": [
        {
          "internalType": "string",
          "name": "id",
          "type": "string"
        },
        {
          "internalType": "uint256",
          "name": "blockHeight",
          "type": "uint256"
        },
        {
          "internalType": "string[]",
          "name": "streams",
          "type": "string[]"
        },
        {
          "internalType": "uint256[]",
          "name": "writeCaptureAmounts",
          "type": "uint256[]"
        },
        {
          "internalType": "uint256[]",
          "name": "writeBytes",
          "type": "uint256[]"
        },
        {
          "internalType": "address[]",
          "name": "readConsumerAddresses",
          "type": "address[]"
        },
        {
          "internalType": "uint256[]",
          "name": "readCaptureAmounts",
          "type": "uint256[]"
        },
        {
          "internalType": "uint256[]",
          "name": "readBytes",
          "type": "uint256[]"
        },
        {
          "internalType": "address[]",
          "name": "nodes",
          "type": "address[]"
        },
        {
          "internalType": "int256[]",
          "name": "nodeChanges",
          "type": "int256[]"
        },
        {
          "internalType": "address[]",
          "name": "delegates",
          "type": "address[]"
        },
        {
          "internalType": "address[][]",
          "name": "delegateNodes",
          "type": "address[][]"
        },
        {
          "internalType": "int256[][]",
          "name": "delegateNodeChanges",
          "type": "int256[][]"
        },
        {
          "internalType": "int256",
          "name": "treasurySupplyChange",
          "type": "int256"
        },
        {
          "internalType": "address[]",
          "name": "addresses",
          "type": "address[]"
        },
        {
          "internalType": "uint256[]",
          "name": "proofTimestamps",
          "type": "uint256[]"
        },
        {
          "internalType": "bytes[]",
          "name": "signatures",
          "type": "bytes[]"
        }
      ],
      "name": "report",
      "outputs": [],
      "stateMutability": "nonpayable",
      "type": "function"
    },
    {
      "inputs": [],
      "name": "reportTimeBuffer",
      "outputs": [
        {
          "internalType": "uint256",
          "name": "",
          "type": "uint256"
        }
      ],
      "stateMutability": "view",
      "type": "function"
    },
    {
      "inputs": [
        {
          "internalType": "address",
          "name": "",
          "type": "address"
        }
      ],
      "name": "reputationOf",
      "outputs": [
        {
          "internalType": "uint256",
          "name": "",
          "type": "uint256"
        }
      ],
      "stateMutability": "view",
      "type": "function"
    },
    {
      "inputs": [
        {
          "internalType": "uint256",
          "name": "_reportTimeBuffer",
          "type": "uint256"
        }
      ],
      "name": "setReportTimeBuffer",
      "outputs": [],
      "stateMutability": "nonpayable",
      "type": "function"
    },
    {
      "inputs": [
        {
          "internalType": "address",
          "name": "newOwner",
          "type": "address"
        }
      ],
      "name": "transferOwnership",
      "outputs": [],
      "stateMutability": "nonpayable",
      "type": "function"
    },
    {
      "inputs": [
        {
          "internalType": "address",
          "name": "newImplementation",
          "type": "address"
        }
      ],
      "name": "upgradeTo",
      "outputs": [],
      "stateMutability": "nonpayable",
      "type": "function"
    },
    {
      "inputs": [
        {
          "internalType": "address",
          "name": "newImplementation",
          "type": "address"
        },
        {
          "internalType": "bytes",
          "name": "data",
          "type": "bytes"
        }
      ],
      "name": "upgradeToAndCall",
      "outputs": [],
      "stateMutability": "payable",
      "type": "function"
    }
  ],
  "bytecode": "0x60a08060405234610031573060805261413990816100378239608051818181610a6501528181610b720152610eb40152f35b600080fdfe610600604052600436101561001357600080fd5b60003560e01c80630e0a171314612c4457806312e63d7114612a025780631bfdc98a1461107f57806331c74e01146110615780633659cfe614610e8f5780634f1ef28614610b2057806352d1902d14610a4a5780636f94990d14610a2957806370f46202146109c4578063715018a6146109695780637a1ac61e146106f65780638da5cb5b146106cf578063a5157b711461066e578063adb618321461064b578063d91b99e81461062b578063d9741473146104d5578063db89c0441461049b578063dbc2d3701461044d578063eefa7a3e1461022d578063f2fde38b1461019e5763f6883c051461010457600080fd5b346101995760203660031901126101995760043567ffffffffffffffff81116101995760206101396007923690600401612d94565b919061014361313e565b826040519384928337810160fe81520301902001740100000000000000000000000000000000000000007fffffffffffffffffffffff00ffffffffffffffffffffffffffffffffffffffff825416179055600080f35b600080fd5b34610199576020366003190112610199576101b761305c565b6101bf61313e565b6001600160a01b038116156101d9576101d790613196565b005b60405162461bcd60e51b815260206004820152602660248201527f4f776e61626c653a206e6577206f776e657220697320746865207a65726f206160448201526564647265737360d01b6064820152608490fd5b3461019957600036600319011261019957610246613439565b5061024f6135c3565b60405161025b81612c5c565b6040516102738161026c81866134b7565b0382612ccd565b815260018083015490602091828401526002918285015460408501526003808601805461029f81612cef565b916102ad6040519384612ccd565b81835260009081528481208685878087015b86861061040b575050505050505060608601526102de6004870161354d565b60808601526005860180546102f281612cef565b916103006040519384612ccd565b81835260009081528481208688878087015b8686106103d1575050505050505060a08601526006860180549261033584612cef565b956103436040519788612ccd565b8487526000928352818320908288015b8685106103955760c08a0189905260078b01546001600160a01b03811660e08c015260a01c60ff1615156101008b0152604051806103918c82612e52565b0390f35b858489926040516103a581612c79565b6001600160a01b0387541681528487015483820152858701546040820152815201930194019391610353565b6040516103dd81612c95565b6001600160a01b0386541681526103f585870161354d565b8382015281520192019201919088878992610312565b60405161041781612c79565b6040516104288161026c818a6134b7565b815284860154838201528c8601546040820152815201920192019190858789926102bf565b346101995760203660031901126101995760043561046961313e565b6402540be400908181029181830414901517156104855760fb55005b634e487b7160e01b600052601160045260246000fd5b34610199576020366003190112610199576001600160a01b036104bc61305c565b1660005260fc6020526020604060002054604051908152f35b34610199576020806003193601126101995760043567ffffffffffffffff81116101995761050882913690600401612d94565b9190826040519384928337810160ff8152030190209081549161052a83612cef565b926105386040519485612ccd565b8084528284018092600052836000206000915b8383106105d75750505050604051918083019381845251809452604083019360408160051b85010192916000955b8287106105865785850386f35b909192938280600192603f198982030185528751906001600160a01b0382511681526040806105c18585015160608088870152850190612de5565b9301519101529601920196019592919092610579565b6003866001926040999899516105ec81612c79565b6001600160a01b03865416815260405161060c8161026c81898b016134b7565b838201526002860154604082015281520192019201919095949561054b565b346101995760003660031901126101995760206040516402540be4008152f35b34610199576000366003190112610199576020610666613d53565b604051908152f35b346101995760403660031901126101995767ffffffffffffffff600435818111610199576106a0903690600401613123565b90602435908111610199576020916106bf6106c5923690600401613123565b90613bee565b6040519015158152f35b346101995760003660031901126101995760206001600160a01b0360975416604051908152f35b346101995760603660031901126101995761070f61305c565b6024908135916044356000549360ff8560081c16159485809661095c575b8015610945575b156108db5760ff198116600117600055856108c9575b5061076560ff60005460081c16610760816133c7565b6133c7565b61076e33613196565b61078c60ff60005460081c16610783816133c7565b610760816133c7565b600160c9556001600160a01b03841691610100836001600160a01b03198254161790556402540be40091828102908082048414901517156108b45760fb556103e8908181029181830414811517156108b4576509184e72a0000291818304149015171561089f57610101556107ff61313e565b1561084c575061080e90613196565b61081457005b61ff0019600054166000557f7f26b83ff96e1f2b6a682f133852f6798a09c465da95921460cefb3847402498602060405160018152a1005b60849060266040519162461bcd60e51b8352602060048401528201527f4f776e61626c653a206e6577206f776e657220697320746865207a65726f206160448201526564647265737360d01b6064820152fd5b82634e487b7160e01b60005260116004526000fd5b84634e487b7160e01b60005260116004526000fd5b61ffff1916610101176000558561074a565b60405162461bcd60e51b815260206004820152602e818601527f496e697469616c697a61626c653a20636f6e747261637420697320616c72656160448201527f647920696e697469616c697a65640000000000000000000000000000000000006064820152608490fd5b50303b1580156107345750600160ff821614610734565b50600160ff82161061072d565b346101995760003660031901126101995761098261313e565b60006001600160a01b036097546001600160a01b03198116609755167f8be0079c531659141344cd1fd0a4f28419497f9722a3daafe3b4186f6b6457e08280a3005b34610199576000366003190112610199576109dd6136bb565b604051809160208083018184528251809152816040850193019160005b828110610a0957505050500390f35b83516001600160a01b0316855286955093810193928101926001016109fa565b346101995760206106c5610a3c36612d55565b610a446136bb565b33613d8f565b34610199576000366003190112610199576001600160a01b037f0000000000000000000000000000000000000000000000000000000000000000163003610ab55760206040517f360894a13ba1a3210667c828492db98dca3e2076cc3735a920a3ca505d382bbc8152f35b60405162461bcd60e51b815260206004820152603860248201527f555550535570677261646561626c653a206d757374206e6f742062652063616c60448201527f6c6564207468726f7567682064656c656761746563616c6c00000000000000006064820152608490fd5b604036600319011261019957610b3461305c565b60243567ffffffffffffffff8111610199573660238201121561019957610b6590369060248160040135910161308e565b906001600160a01b0391827f00000000000000000000000000000000000000000000000000000000000000001692610b9f843014156131de565b610bce7f360894a13ba1a3210667c828492db98dca3e2076cc3735a920a3ca505d382bbc948286541614613250565b610bd661313e565b7f4910fdfa16fed3260ed0e7147f7cc6da11a60208b5b9406d12a635614ffd91435460ff1615610c0c5750506101d791506132c2565b82919216604051936352d1902d60e01b85526020948581600481865afa60009181610e60575b50610c935760405162461bcd60e51b815260048101879052602e60248201527f45524331393637557067726164653a206e657720696d706c656d656e7461746960448201526d6f6e206973206e6f74205555505360901b6064820152608490fd5b03610df557610ca1826132c2565b604051907fbc7cd75a20ee27fd9adebab32041f755214dbc6bffa90cc0225b39da2e5c2d3b600080a2825115801590610ded575b610cdb57005b813b15610d8557506000828192856101d79695519201905af43d15610d7d573d90610d0582613072565b91610d136040519384612ccd565b82523d60008484013e5b7f416464726573733a206c6f772d6c6576656c2064656c65676174652063616c6c60405193610d4b85612c79565b602785528401527f206661696c6564000000000000000000000000000000000000000000000000006040840152613370565b606090610d1d565b62461bcd60e51b815260048101849052602660248201527f416464726573733a2064656c65676174652063616c6c20746f206e6f6e2d636f60448201527f6e747261637400000000000000000000000000000000000000000000000000006064820152608490fd5b506001610cd5565b60405162461bcd60e51b815260048101859052602960248201527f45524331393637557067726164653a20756e737570706f727465642070726f7860448201527f6961626c655555494400000000000000000000000000000000000000000000006064820152608490fd5b9091508681813d8311610e88575b610e788183612ccd565b8101031261019957519087610c32565b503d610e6e565b346101995760208060031936011261019957610ea961305c565b6001600160a01b03807f000000000000000000000000000000000000000000000000000000000000000016610ee0813014156131de565b610f0f7f360894a13ba1a3210667c828492db98dca3e2076cc3735a920a3ca505d382bbc918383541614613250565b610f1761313e565b60405191610f2483612cb1565b600083527f4910fdfa16fed3260ed0e7147f7cc6da11a60208b5b9406d12a635614ffd91435460ff1615610f5f575050506101d791506132c2565b83929316906040516352d1902d60e01b81528581600481865afa60009181611032575b50610fe35760405162461bcd60e51b815260048101879052602e60248201527f45524331393637557067726164653a206e657720696d706c656d656e7461746960448201526d6f6e206973206e6f74205555505360901b6064820152608490fd5b03610df557610ff1826132c2565b604051907fbc7cd75a20ee27fd9adebab32041f755214dbc6bffa90cc0225b39da2e5c2d3b600080a282511580159061102a57610cdb57005b506000610cd5565b9091508681813d831161105a575b61104a8183612ccd565b8101031261019957519087610f82565b503d611040565b3461019957600036600319011261019957602060fb54604051908152f35b34610199576102203660031901126101995760043567ffffffffffffffff8111610199576110b1903690600401612d94565b610440526103a05260443567ffffffffffffffff8111610199576110d990369060040161302b565b610240526104205260643567ffffffffffffffff81116101995761110190369060040161302b565b610220526102605260843567ffffffffffffffff81116101995761112990369060040161302b565b6104a0526103605260a43567ffffffffffffffff81116101995761115190369060040161302b565b610400526102c05260c43567ffffffffffffffff81116101995761117990369060040161302b565b906102005260e43567ffffffffffffffff81116101995761119e90369060040161302b565b6105405267ffffffffffffffff6101043511610199576111c4366101043560040161302b565b61028052610580526101243567ffffffffffffffff8111610199576111ed90369060040161302b565b6105c0526101805267ffffffffffffffff610144351161019957611217366101443560040161302b565b6102e052610560526101643567ffffffffffffffff81116101995761124090369060040161302b565b610100526104c0526101843567ffffffffffffffff81116101995761126990369060040161302b565b610460526105a0526101c43567ffffffffffffffff81116101995761129290369060040161302b565b6103c0526103e0526101e43567ffffffffffffffff8111610199576112bb90369060040161302b565b6103205260a0526102043567ffffffffffffffff8111610199576112e390369060040161302b565b60e0526104e052602460206001600160a01b03610100541660405192838092630c2effa360e31b82523360048301525afa908115611e65576000916129e3575b501561299e5760ff6007604051610440516103a051823760fe6104405182015260208161044051810103019020015460a01c166129595743602435111580612943575b156128fe576103c051806003810204600314811517156104855761139a9061139560e05191610320519061369a565b61369a565b60036103c05102036128b9576113cb6113b16136bb565b806080526113c6366103c0516103e0516130c5565b613bee565b15612874576113ec6113e3366103205160a051612d07565b60805133613d8f565b1561282f5760606103405261141761140661024051612cef565b80610520526040518060c052612ccd565b6102405160c05152601f1961142e61024051612cef565b0160005b8181106127ff57505060005b6102405180821015611563579060406114e16114618361155e95610420516138df565b929061147d611477866102205161026051613921565b35613ea8565b6020611490876104a05161036051613921565b35916114cc855197889581610340516114b18151809289808d019101612dc2565b88019186830137019183830160008152815194859201612dc2565b01906020820152036020810184520182612ccd565b610340526114f68161024051610420516138df565b90611508836102205161026051613921565b3561153361151d856104a05161036051613921565b35926040519461152c86612c79565b369161308e565b83526020830152604082015261154b8260c0516136a7565b526115588160c0516136a7565b5061366c565b61143e565b828461158661157461040051612cef565b806101e052604051806105e052612ccd565b610400516105e05152601f1961159e61040051612cef565b0160005b8181106127d057505060005b6104005190818110156116d4576115d46115cf826116cf946102c051613921565b613931565b61165b60546115ea611477858861020051613921565b6115f885610540518a613921565b3593604051948591610340516116178151809260208088019101612dc2565b8301906bffffffffffffffffffffffff199060601b1660208201528351906116488260349660208885019101612dc2565b0190838201520390810184520182612ccd565b610340526116736115cf82610400516102c051613921565b611681828561020051613921565b35611690836105405188613921565b35906001600160a01b03604051936116a785612c79565b168352602083015260408201526116c1826105e0516136a7565b52611558816105e0516136a7565b6115ae565b6116e061028051613945565b6103805260005b6102805190818110156117b1576117086115cf826117ac9461058051613921565b61174a61172561171f846105c05161018051613921565b35614043565b9161173c60405193849261034051602085016139a6565b03601f198101835282612ccd565b610340526117626115cf826102805161058051613921565b611773826105c05161018051613921565b356001600160a01b036040519261178984612c95565b168252602082015261179e82610380516136a7565b5261155881610380516136a7565b6116e7565b6117d26117c06102e051612cef565b80610160526040518061012052612ccd565b6102e0516101205152601f196117ea6102e051612cef565b0160005b8181106127a85760006101a0525b6102e0516101a05190811015611a0357611829611822606092610100516104c0516139ec565b9050613945565b610300526000905b6118456101a051610100516104c0516139ec565b905082101561191757611911906118a46118766115cf856118706101a051610100516104c0516139ec565b90613921565b9161173c61189561171f876118706101a051610460516105a0516139ec565b604051948593602085016139a6565b916118c06115cf826118706101a051610100516104c0516139ec565b6118d8826118706101a051610460516105a0516139ec565b356001600160a01b03604051926118ee84612c95565b168252602082015261190382610300516136a7565b5261155881610300516136a7565b90611831565b90506119906119336115cf6101a0516102e05161056051613921565b916040518093610340516119508151809260208087019101612dc2565b8201906bffffffffffffffffffffffff199060601b1660208201528251906119818260349560208785019101612dc2565b01036014810184520182612ccd565b610340526119ab6115cf6101a0516102e05161056051613921565b6001600160a01b03604051916119c083612c95565b1681526103005160208201526119dc6101a051610120516136a7565b526119ed6101a051610120516136a7565b506119fa6101a05161366c565b6101a0526117fc565b604051611a0f81612cb1565b60008152604051610440516103a051823760208161044051810160ff81520301902090805190600160401b8211611dec5782548284558083106126fd575b506020019160005260206000206000925b8284106126df5760006104805260006101405260805151806101c052806402540be4008102046402540be4001490151715610485576000610500525b60805151610500511015611e7157611ab8604051806102a052612c79565b60006102a05152606060206102a0510152600060406102a051015260005b6103c051811015611b8557611b25906001600160a01b03611afc610500516080516136a7565b51166001600160a01b03611b1a6115cf846103c0516103e051613921565b1614611b2a5761366c565b611ad6565b6001600160a01b03611b466115cf836103c0516103e051613921565b166102a05152611b5f61152c8260e0516104e0516138df565b60206102a0510152611b77816103205160a051613921565b3560406102a051015261366c565b50611b926101a435614043565b60406102a0510151611c04606060405180936020820195610440516103a051883761044051830160243560208201526103405190611bda825180936020604085019101612dc2565b01611bef825180936020604085019101612dc2565b01906040820152036040810184520182612ccd565b51902060206102a05191816001600160a01b0384511693015192611c4e60405194859384936301a86b5560e41b855260048501526024840152606060448401526064830190612de5565b038173__$267c3dc7aa7d3fe2e28bda43a2ca27cd27$__5af48015611e6557600191600091611e36575b50151503611e0257604051610440516103a051823760208161044051810160ff8152030190208054600160401b811015611dec5760018101808355811015611dd657611cd491600052602060002060036102a051920201613a84565b611ce061014051613688565b610140526102a051516001600160a01b0316338103611d3557503360005260fc60205260406000208054600a8101811161048557600a0190556001610480525b611d2c6105005161366c565b61050052611a9a565b61048051611db357506102a0516001600160a01b0381511660005260fc9081602052600590816040600020541015600014611d985750905b6001600160a01b036102a0515116600052602052611d91604060002091825461367b565b9055611d20565b6001600160a01b039150511660005260406000205490611d6d565b60005260fc60205260406000208054600181018111610485576001019055611d20565b634e487b7160e01b600052603260045260246000fd5b634e487b7160e01b600052604160045260246000fd5b6001600160a01b03611e216115cf610500516103c0516103e051613921565b1660005260fc60205260006040812055611d20565b611e58915060203d602011611e5e575b611e508183612ccd565b8101906138c7565b82611c78565b503d611e46565b6040513d6000823e3d90fd5b6402540be4006101c0510260011c610140511061269a57604051611e9481612c5c565b611f016020611eaa36610440516103a05161308e565b808452602435828501526101a435604085015260c05160608501526103805160808501526101205160a08501526105e05160c08501523360e085015260006101008501528160405193828580945193849201612dc2565b810160fe81520301902090805191825167ffffffffffffffff8111611dec57611f3481611f2e845461347d565b84613a48565b6020601f82116001146126325781929394600092612627575b50508160011b916000199060031b1c19161781555b60208201516001820155604082015160028201556060820151805190600160401b8211611dec57600383015482600385015580831061257c575b50602001906003830160005260206000206000925b828410612484578585600481016080830151906020825192611fd38484613b86565b019060005260206000206000915b83831061244e57858560a0820151805190600160401b8211611dec5760058301548260058501558083106123a6575b506020016005830160005260206000206000915b83831061230e57858560c0820151805190600160401b8211611dec5760068301548260068501558083106122b5575b506020016006830160005260206000206000915b8383106122755785600786016001600160a01b0360e0830151168154907fffffffffffffffffffffff00000000000000000000000000000000000000000074ff0000000000000000000000000000000000000000610100860151151560a01b16921617179055805180519067ffffffffffffffff8211611dec576120ec60fd5461347d565b601f811161221b575b50602090601f83116001146121705791807fc53a4e1db72f8c6fde77b85b4cc21a59f9896e9d7285f890075356dbd528d1cd949261216094600092612165575b50508160011b916000199060031b1c19161760fd555b51604051918291602083526020830190612de5565b0390a1005b015190508580612135565b90601f1983169160fd6000527f9346ac6dd7de6b96975fec380d4d994c4c12e6a8897544f22915316cc6cca2809260005b8181106122035750926001928592612160967fc53a4e1db72f8c6fde77b85b4cc21a59f9896e9d7285f890075356dbd528d1cd9896106121ea575b505050811b0160fd5561214b565b015160001960f88460031b161c191690558580806121dc565b929360206001819287860151815501950193016121a1565b6122659060fd6000527f9346ac6dd7de6b96975fec380d4d994c4c12e6a8897544f22915316cc6cca280601f850160051c8101916020861061226b575b601f0160051c0190613a31565b836120f5565b9091508190612258565b60036020826040600194516001600160a01b038151166001600160a01b031988541617875583810151868801550151600286015501920192019190612067565b6003818102048103610485576003838102048303610485576006840160005260206000208360030281015b82600302820181106122f3575050612053565b806000600392556000600182015560006002820155016122e0565b80516001600160a01b038151166001600160a01b03198454161783556020600184019101519060208251926123438484613b86565b01906000526020600020906000905b83821061237057505050506002602060019201920192019190612024565b600260208281600194516001600160a01b038151166001600160a01b031989541617885501518487015501930191019091612352565b6001600160ff1b0381168103610485576001600160ff1b0383168303610485576005840160005260206000208360011b81015b8260011b820181106123ec575050612010565b600081556001810154600060018301558061240b575b506002016123d9565b6001600160ff1b0381168103610485576001820160005260206000209060011b8101905b81811061243c5750612402565b6000808255600182015560020161242f565b600260208281600194516001600160a01b038151166001600160a01b031988541617875501518486015501920192019190611fe1565b8051805180519067ffffffffffffffff8211611dec576124ae826124a8875461347d565b87613a48565b602090601f831160011461250a5760039383602094600197946040946000926124ff575b505060001982881b1c191690871b1787555b83810151868801550151600286015501920193019290611fb1565b015190508d806124d2565b908560005260206000209160005b601f1985168110612564575093600184819794604094600398602098601f1981161061254c575b505050811b0187556124e4565b0151600019838a1b60f8161c191690558d808061253f565b91926020600181928685015181550194019201612518565b6003818102048103610485576003838102048303610485576003840160005260206000208360030281015b82600302820181106125ba575050611f9c565b806125c76003925461347d565b806125e2575b506000600182015560006002820155016125a7565b601f81116001146125f95750600081555b886125cd565b61261890826000526001601f6020600020920160051c82019101613a31565b600060208120818355556125f3565b015190508480611f4d565b8260005260206000209060005b601f19841681106126825750600193949583601f19811610612669575b505050811b018155611f62565b015160001960f88460031b161c1916905584808061265c565b9091602060018192858a01518155019301910161263f565b60405162461bcd60e51b815260206004820152601560248201527f6572726f725f636f6e73656e7375734e6f744d657400000000000000000000006044820152606490fd5b60036020826126f16001945186613a84565b01920193019290611a5e565b6003818102048103610485576003838102048303610485578360005260206000208360030281015b8260030282018110612738575050611a4d565b80600060039255600180820161274e815461347d565b9182612765575b5050506000600282015501612725565b600092601f9182821160011461278257505050555b878080612755565b61279b9284865260208620920160051c82019101613a31565b816020812091555561277a565b6020906040516127b781612c95565b60008152606083820152828261012051010152016117ee565b6020906040516127df81612c79565b600081526000838201526000604082015282826105e051010152016115a2565b60209060405161280e81612c79565b61034051815260008382015260006040820152828260c05101015201611432565b60405162461bcd60e51b815260206004820152601560248201527f6572726f725f696e76616c69645265706f7274657200000000000000000000006044820152606490fd5b60405162461bcd60e51b815260206004820152601260248201527f6572726f725f71756f72756d4e6f744d657400000000000000000000000000006044820152606490fd5b60405162461bcd60e51b815260206004820152601360248201527f6572726f725f696e76616c696450726f6f6673000000000000000000000000006044820152606490fd5b60405162461bcd60e51b815260206004820152601360248201527f6572726f725f696e76616c69645265706f7274000000000000000000000000006044820152606490fd5b50600161294e6135c3565b015460243511611366565b60405162461bcd60e51b815260206004820152601c60248201527f6572726f725f7265706f7274416c726561647950726f636573736564000000006044820152606490fd5b60405162461bcd60e51b815260206004820152601360248201527f6572726f725f7374616b655265717569726564000000000000000000000000006044820152606490fd5b6129fc915060203d602011611e5e57611e508183612ccd565b83611323565b34610199576020806003193601126101995760043567ffffffffffffffff811161019957612a3582913690600401612d94565b9190612a3f613439565b50826040519384928337810160fe8152030190209060405190612a6182612c5c565b604051612a728161026c81876134b7565b82526001808401548284015260029182850154604085015260038086018054612a9a81612cef565b91612aa86040519384612ccd565b81835260009081528481208685878087015b868610612c0257505050505050506060860152612ad96004870161354d565b6080860152600586018054612aed81612cef565b91612afb6040519384612ccd565b81835260009081528481208688878087015b868610612bc8575050505050505060a086015260068601805492612b3084612cef565b95612b3e6040519788612ccd565b8487526000928352818320908288015b868510612b8c5760c08a0189905260078b01546001600160a01b03811660e08c015260a01c60ff1615156101008b0152604051806103918c82612e52565b85848992604051612b9c81612c79565b6001600160a01b0387541681528487015483820152858701546040820152815201930194019391612b4e565b604051612bd481612c95565b6001600160a01b038654168152612bec85870161354d565b8382015281520192019201919088878992612b0d565b604051612c0e81612c79565b604051612c1f8161026c818a6134b7565b815284860154838201528c860154604082015281520192019201919085878992612aba565b34610199576020610666612c5736612d55565b613ce3565b610120810190811067ffffffffffffffff821117611dec57604052565b6060810190811067ffffffffffffffff821117611dec57604052565b6040810190811067ffffffffffffffff821117611dec57604052565b6020810190811067ffffffffffffffff821117611dec57604052565b90601f8019910116810190811067ffffffffffffffff821117611dec57604052565b67ffffffffffffffff8111611dec5760051b60200190565b9291612d1282612cef565b91612d206040519384612ccd565b829481845260208094019160051b810192831161019957905b828210612d465750505050565b81358152908301908301612d39565b6020600319820112610199576004359067ffffffffffffffff8211610199578060238301121561019957816024612d9193600401359101612d07565b90565b9181601f840112156101995782359167ffffffffffffffff8311610199576020838186019501011161019957565b60005b838110612dd55750506000910152565b8181015183820152602001612dc5565b90602091612dfe81518092818552858086019101612dc2565b601f01601f1916010190565b90815180825260208080930193019160005b828110612e2a575050505090565b835180516001600160a01b031686528201518583015260409094019392810192600101612e1c565b602091828252805190612e72610120928386860152610140850190612de5565b93808201516040908186015280830151916060928387015282840151601f19978888820301608089015281518082528382019184808360051b8301019401926000915b888d858510612fe05750505050505050612edd906080860151898983030160a08a0152612e0a565b9160a085015192888882030160c089015283518082528382019184808360051b8301019601926000915b8c848410612f935750505050505060c0850151978784030160e08801528180895194858152019801936000915b848310612f62575050505050506001600160a01b0360e0820151169061010091828501520151151591015290565b855180516001600160a01b03168b52808501518b8601528101518a8201529881019894830194600190920191612f34565b9680612fcc8a89838a9e9b9c9a8798999a9b829f9860019903018a52516001600160a01b03815116845201519181858201520190612e0a565b9a0193019301919392909796959497612f07565b9780999891888293856001969798999a9b030187528a8061300b8c5194855190808652850190612de5565b938581015186850152015191015297019301930191939290969596612eb5565b9181601f840112156101995782359167ffffffffffffffff8311610199576020808501948460051b01011161019957565b600435906001600160a01b038216820361019957565b67ffffffffffffffff8111611dec57601f01601f191660200190565b92919261309a82613072565b916130a86040519384612ccd565b829481845281830111610199578281602093846000960137010152565b92916130d082612cef565b916130de6040519384612ccd565b829481845260208094019160051b810192831161019957905b8282106131045750505050565b81356001600160a01b03811681036101995781529083019083016130f7565b9080601f8301121561019957816020612d91933591016130c5565b6001600160a01b0360975416330361315257565b606460405162461bcd60e51b815260206004820152602060248201527f4f776e61626c653a2063616c6c6572206973206e6f7420746865206f776e65726044820152fd5b609754906001600160a01b0380911691826001600160a01b0319821617609755167f8be0079c531659141344cd1fd0a4f28419497f9722a3daafe3b4186f6b6457e0600080a3565b156131e557565b60405162461bcd60e51b815260206004820152602c60248201527f46756e6374696f6e206d7573742062652063616c6c6564207468726f7567682060448201527f64656c656761746563616c6c00000000000000000000000000000000000000006064820152608490fd5b1561325757565b60405162461bcd60e51b815260206004820152602c60248201527f46756e6374696f6e206d7573742062652063616c6c6564207468726f7567682060448201527f6163746976652070726f787900000000000000000000000000000000000000006064820152608490fd5b803b15613305576001600160a01b037f360894a13ba1a3210667c828492db98dca3e2076cc3735a920a3ca505d382bbc91166001600160a01b0319825416179055565b60405162461bcd60e51b815260206004820152602d60248201527f455243313936373a206e657720696d706c656d656e746174696f6e206973206e60448201527f6f74206120636f6e7472616374000000000000000000000000000000000000006064820152608490fd5b9091901561337c575090565b81511561338c5750805190602001fd5b60405162461bcd60e51b8152602060048201529081906133b0906024830190612de5565b0390fd5b8181029291811591840414171561048557565b156133ce57565b60405162461bcd60e51b815260206004820152602b60248201527f496e697469616c697a61626c653a20636f6e7472616374206973206e6f74206960448201527f6e697469616c697a696e670000000000000000000000000000000000000000006064820152608490fd5b6040519061344682612c5c565b600061010083606080825283602083015283604083015280808301528060808301528060a083015260c08201528260e08201520152565b90600182811c921680156134ad575b602083101461349757565b634e487b7160e01b600052602260045260246000fd5b91607f169161348c565b90600092918054916134c88361347d565b91828252600193848116908160001461352a57506001146134ea575b50505050565b90919394506000526020928360002092846000945b8386106135165750505050010190388080806134e4565b8054858701830152940193859082016134ff565b9294505050602093945060ff191683830152151560051b010190388080806134e4565b90815461355981612cef565b9260409361356985519182612ccd565b828152809460208092019260005281600020906000935b85851061358f57505050505050565b60028460019284516135a081612c95565b6001600160a01b0387541681528487015483820152815201930194019391613580565b60405160fd548160006135d58361347d565b9260019081811690811561365257506001146135fc575b506020925060fe81520301902090565b60fd600090815291507f9346ac6dd7de6b96975fec380d4d994c4c12e6a8897544f22915316cc6cca2805b84831061363c575050506020918101386135ec565b8054868401528593506020909201918101613627565b60ff191684525060209380151502830191503890506135ec565b60001981146104855760010190565b9190820391821161048557565b906402540be400820180921161048557565b9190820180921161048557565b8051821015611dd65760209160051b010190565b6001600160a01b03908161010054169160408051808095636085a91160e11b8252600091829160049889915afa9182156138bb578192613810575b50818251958291600019918289019189831191825b6137fd57838610156137ef57865b613723878d61367b565b8681019081116137c1578110156137d557600181018082116137c1579089828d8b8e8261375361378498876136a7565b5116825260fc602081815282842054938561376e8a8a6136a7565b51169052528d205410613789575b50505061366c565b613719565b806137a4856137ad9361379c86886136a7565b5116956136a7565b5116918d6136a7565b526137b8828c6136a7565b5289388d61377c565b50634e487b7160e01b885260118d52602488fd5b5091946137e49093919361366c565b94918293919361370b565b995099505050505050505050565b634e487b7160e01b875260118c52602487fd5b9091503d8083833e6138228183612ccd565b81019060209081818403126138b35780519067ffffffffffffffff82116138b757019180601f840112156138b357825161385b81612cef565b9361386887519586612ccd565b818552838086019260051b8201019283116138af578301905b828210613893575050505090386136f6565b815188811681036138ab578152908301908301613881565b8680fd5b8580fd5b8380fd5b8480fd5b508251903d90823e3d90fd5b90816020910312610199575180151581036101995790565b9190811015611dd65760051b81013590601e198136030182121561019957019081359167ffffffffffffffff8311610199576020018236038113610199579190565b9190811015611dd65760051b0190565b356001600160a01b03811681036101995790565b9061394f82612cef565b60409061395e82519182612ccd565b838152809361396f601f1991612cef565b0191600090815b848110613984575050505050565b602090825161399281612c95565b848152828581830152828701015201613976565b6020906139bd601495949382815194859201612dc2565b01906bffffffffffffffffffffffff199060601b1681526139e78251809360208685019101612dc2565b010190565b9190811015611dd65760051b81013590601e198136030182121561019957019081359167ffffffffffffffff8311610199576020018260051b36038113610199579190565b818110613a3c575050565b60008155600101613a31565b9190601f8111613a5757505050565b613a82926000526020600020906020601f840160051c8301931061226b57601f0160051c0190613a31565b565b906001600160a01b038151166001600160a01b03198354161782556001908183016020808301519384519167ffffffffffffffff8311611dec57613ad283613acc865461347d565b86613a48565b80601f8411600114613b175750918080926040969594600298600094613b0c575b50501b916000199060031b1c19161790555b0151910155565b015192503880613af3565b91939495601f1984168660005283600020936000905b828210613b6f5750509160029795939185604098969410613b56575b505050811b019055613b05565b015160001960f88460031b161c19169055388080613b49565b808886978294978701518155019601940190613b2d565b600160401b8211611dec578054828255808310613ba257505050565b6001600160ff1b038082168203610485578316830361048557600091825260208220600191821b810193821b015b838110613bdd5750505050565b808360029255838382015501613bd0565b91906000926000808351926402540be40093848102948186041490151715613ccf5760019695948794851c9380985b613c2d575b505050505050909150565b8151891015613cca578581815b613c72575b505084841015613c5d57613c558697989961366c565b989796613c1d565b50505050509150915081388080808080613c22565b8451811015613cc5576001600160a01b0380613c8e8d876136a7565b511690613c9b83886136a7565b511614613cb157613cab9061366c565b81613c3a565b505092613cbd90613688565b928538613c3f565b613c3f565b613c22565b634e487b7160e01b83526011600452602483fd5b90600091825b8151841015613d2e57613cfc84836136a7565b51906402540be4009182810292818404149015171561048557613d2891613d229161369a565b9361366c565b92613ce9565b91925051908115613d3d570490565b634e487b7160e01b600052601260045260246000fd5b6101015480612d9157506103e8804202904282041442151715610485576509184e72a0004202908082046402540be40014901517156104855790565b92919092600091613da1600091613ce3565b94613daa613d53565b9260fb5490613dba8351836133b4565b97845b6001810190818111613e9457613dd7836113958d856133b4565b8810613de35750613dbd565b611395915099613df9939495969798999a6133b4565b92845b8151811015613e8a576001600160a01b0380613e1883856136a7565b511690841614613e3057613e2b9061366c565b613dfc565b9293949596505050613e468361139584846133b4565b9360018201809211613e765750613e619291611395916133b4565b908210159182613e7057505090565b10905090565b634e487b7160e01b81526011600452602490fd5b5050505050505090565b634e487b7160e01b87526011600452602487fd5b806000908260801c80614037575b508060401c8061402a575b5060209181831c8061401f575b5060109180831c80614012575b5060081c61400a575b6001809101939184821b946001600160ff1b0381160361048557600285019485811161048557613f2c613f1687613072565b96613f246040519889612ccd565b808852613072565b86860190601f1901368237865115611dd657603090538551831015611dd657607860218701538281018091116104855791905b818311613fb457505050613f71575090565b6064906040519062461bcd60e51b825280600483015260248201527f537472696e67733a20686578206c656e67746820696e73756666696369656e746044820152fd5b909192600f811682811015611dd6578651851015611dd6577f3031323334353637383961626364656600000000000000000000000000000000901a85858801015360041c92801561048557600019019190613f5f565b600101613ee4565b6002915091019038613edb565b915060040138613ece565b6008915091019038613ec1565b91505060109038613eb6565b6000808212919082156140be5761407f612d919260209260405161406681612c95565b60018152602d60f81b85820152955b6140b85750613ea8565b9260405193816140988693518092868087019101612dc2565b82016140ac82518093868085019101612dc2565b01038084520182612ccd565b03613ea8565b6040516020810181811067ffffffffffffffff8211176140ef5760405281815292612d919260209261407f92614075565b634e487b7160e01b83526041600452602483fdfea2646970667358221220b77e0021cbb75e42d62b3a89e11f22a1cfa46953b82bf7ea281dbe617ab9b3b064736f6c63430008110033",
  "linkReferences": {
    "src/lib/VerifySignature.sol": {
      "VerifySignature": [
        {
          "length": 20,
          "start": 7305
        }
      ]
    }
  },
  "deployedLinkReferences": {
    "src/lib/VerifySignature.sol": {
      "VerifySignature": [
        {
          "length": 20,
          "start": 7250
        }
      ]
    }
  }
}