{
  "_format": "hh-sol-artifact-1",
  "contractName": "LogStoreReportManager",
  "sourceName": "src/ReportManager.sol",
  "abi": [
    {
      "anonymous": false,
      "inputs": [
        {
          "indexed": false,
          "internalType": "address",
          "name": "previousAdmin",
          "type": "address"
        },
        {
          "indexed": false,
          "internalType": "address",
          "name": "newAdmin",
          "type": "address"
        }
      ],
      "name": "AdminChanged",
      "type": "event"
    },
    {
      "anonymous": false,
      "inputs": [
        {
          "indexed": true,
          "internalType": "address",
          "name": "beacon",
          "type": "address"
        }
      ],
      "name": "BeaconUpgraded",
      "type": "event"
    },
    {
      "anonymous": false,
      "inputs": [
        {
          "indexed": false,
          "internalType": "uint8",
          "name": "version",
          "type": "uint8"
        }
      ],
      "name": "Initialized",
      "type": "event"
    },
    {
      "anonymous": false,
      "inputs": [
        {
          "indexed": true,
          "internalType": "address",
          "name": "previousOwner",
          "type": "address"
        },
        {
          "indexed": true,
          "internalType": "address",
          "name": "newOwner",
          "type": "address"
        }
      ],
      "name": "OwnershipTransferred",
      "type": "event"
    },
    {
      "anonymous": false,
      "inputs": [
        {
          "indexed": false,
          "internalType": "string",
          "name": "id",
          "type": "string"
        }
      ],
      "name": "ReportAccepted",
      "type": "event"
    },
    {
      "anonymous": false,
      "inputs": [
        {
          "indexed": true,
          "internalType": "address",
          "name": "implementation",
          "type": "address"
        }
      ],
      "name": "Upgraded",
      "type": "event"
    },
    {
      "inputs": [],
      "name": "MATH_PRECISION",
      "outputs": [
        {
          "internalType": "uint256",
          "name": "",
          "type": "uint256"
        }
      ],
      "stateMutability": "view",
      "type": "function"
    },
    {
      "inputs": [
        {
          "internalType": "uint256[]",
          "name": "timestamps",
          "type": "uint256[]"
        }
      ],
      "name": "aggregateTimestamps",
      "outputs": [
        {
          "internalType": "uint256",
          "name": "",
          "type": "uint256"
        }
      ],
      "stateMutability": "pure",
      "type": "function"
    },
    {
      "inputs": [],
      "name": "blockTimestamp",
      "outputs": [
        {
          "internalType": "uint256",
          "name": "",
          "type": "uint256"
        }
      ],
      "stateMutability": "view",
      "type": "function"
    },
    {
      "inputs": [
        {
          "internalType": "uint256[]",
          "name": "timestamps",
          "type": "uint256[]"
        }
      ],
      "name": "canReport",
      "outputs": [
        {
          "internalType": "bool",
          "name": "",
          "type": "bool"
        }
      ],
      "stateMutability": "view",
      "type": "function"
    },
    {
      "inputs": [],
      "name": "getLastReport",
      "outputs": [
        {
          "components": [
            {
              "internalType": "string",
              "name": "id",
              "type": "string"
            },
            {
              "internalType": "uint256",
              "name": "height",
              "type": "uint256"
            },
            {
              "internalType": "int256",
              "name": "treasury",
              "type": "int256"
            },
            {
              "components": [
                {
                  "internalType": "string",
                  "name": "id",
                  "type": "string"
                },
                {
                  "internalType": "uint256",
                  "name": "writeCapture",
                  "type": "uint256"
                },
                {
                  "internalType": "uint256",
                  "name": "writeBytes",
                  "type": "uint256"
                }
              ],
              "internalType": "struct LogStoreReportManager.Stream[]",
              "name": "streams",
              "type": "tuple[]"
            },
            {
              "components": [
                {
                  "internalType": "address",
                  "name": "id",
                  "type": "address"
                },
                {
                  "internalType": "int256",
                  "name": "amount",
                  "type": "int256"
                }
              ],
              "internalType": "struct LogStoreReportManager.Node[]",
              "name": "nodes",
              "type": "tuple[]"
            },
            {
              "components": [
                {
                  "internalType": "address",
                  "name": "id",
                  "type": "address"
                },
                {
                  "components": [
                    {
                      "internalType": "address",
                      "name": "id",
                      "type": "address"
                    },
                    {
                      "internalType": "int256",
                      "name": "amount",
                      "type": "int256"
                    }
                  ],
                  "internalType": "struct LogStoreReportManager.Node[]",
                  "name": "nodes",
                  "type": "tuple[]"
                }
              ],
              "internalType": "struct LogStoreReportManager.Delegate[]",
              "name": "delegates",
              "type": "tuple[]"
            },
            {
              "components": [
                {
                  "internalType": "address",
                  "name": "id",
                  "type": "address"
                },
                {
                  "internalType": "uint256",
                  "name": "readCapture",
                  "type": "uint256"
                },
                {
                  "internalType": "uint256",
                  "name": "readBytes",
                  "type": "uint256"
                }
              ],
              "internalType": "struct LogStoreReportManager.Consumer[]",
              "name": "consumers",
              "type": "tuple[]"
            },
            {
              "internalType": "address",
              "name": "_reporter",
              "type": "address"
            },
            {
              "internalType": "bool",
              "name": "_processed",
              "type": "bool"
            }
          ],
          "internalType": "struct LogStoreReportManager.Report",
          "name": "",
          "type": "tuple"
        }
      ],
      "stateMutability": "view",
      "type": "function"
    },
    {
      "inputs": [
        {
          "internalType": "string",
          "name": "id",
          "type": "string"
        }
      ],
      "name": "getProofOfReport",
      "outputs": [
        {
          "components": [
            {
              "internalType": "address",
              "name": "signer",
              "type": "address"
            },
            {
              "internalType": "bytes",
              "name": "signature",
              "type": "bytes"
            },
            {
              "internalType": "uint256",
              "name": "timestamp",
              "type": "uint256"
            }
          ],
          "internalType": "struct LogStoreReportManager.Proof[]",
          "name": "",
          "type": "tuple[]"
        }
      ],
      "stateMutability": "view",
      "type": "function"
    },
    {
      "inputs": [
        {
          "internalType": "string",
          "name": "id",
          "type": "string"
        }
      ],
      "name": "getReport",
      "outputs": [
        {
          "components": [
            {
              "internalType": "string",
              "name": "id",
              "type": "string"
            },
            {
              "internalType": "uint256",
              "name": "height",
              "type": "uint256"
            },
            {
              "internalType": "int256",
              "name": "treasury",
              "type": "int256"
            },
            {
              "components": [
                {
                  "internalType": "string",
                  "name": "id",
                  "type": "string"
                },
                {
                  "internalType": "uint256",
                  "name": "writeCapture",
                  "type": "uint256"
                },
                {
                  "internalType": "uint256",
                  "name": "writeBytes",
                  "type": "uint256"
                }
              ],
              "internalType": "struct LogStoreReportManager.Stream[]",
              "name": "streams",
              "type": "tuple[]"
            },
            {
              "components": [
                {
                  "internalType": "address",
                  "name": "id",
                  "type": "address"
                },
                {
                  "internalType": "int256",
                  "name": "amount",
                  "type": "int256"
                }
              ],
              "internalType": "struct LogStoreReportManager.Node[]",
              "name": "nodes",
              "type": "tuple[]"
            },
            {
              "components": [
                {
                  "internalType": "address",
                  "name": "id",
                  "type": "address"
                },
                {
                  "components": [
                    {
                      "internalType": "address",
                      "name": "id",
                      "type": "address"
                    },
                    {
                      "internalType": "int256",
                      "name": "amount",
                      "type": "int256"
                    }
                  ],
                  "internalType": "struct LogStoreReportManager.Node[]",
                  "name": "nodes",
                  "type": "tuple[]"
                }
              ],
              "internalType": "struct LogStoreReportManager.Delegate[]",
              "name": "delegates",
              "type": "tuple[]"
            },
            {
              "components": [
                {
                  "internalType": "address",
                  "name": "id",
                  "type": "address"
                },
                {
                  "internalType": "uint256",
                  "name": "readCapture",
                  "type": "uint256"
                },
                {
                  "internalType": "uint256",
                  "name": "readBytes",
                  "type": "uint256"
                }
              ],
              "internalType": "struct LogStoreReportManager.Consumer[]",
              "name": "consumers",
              "type": "tuple[]"
            },
            {
              "internalType": "address",
              "name": "_reporter",
              "type": "address"
            },
            {
              "internalType": "bool",
              "name": "_processed",
              "type": "bool"
            }
          ],
          "internalType": "struct LogStoreReportManager.Report",
          "name": "",
          "type": "tuple"
        }
      ],
      "stateMutability": "view",
      "type": "function"
    },
    {
      "inputs": [],
      "name": "getReporters",
      "outputs": [
        {
          "internalType": "address[]",
          "name": "reporters",
          "type": "address[]"
        }
      ],
      "stateMutability": "view",
      "type": "function"
    },
    {
      "inputs": [
        {
          "internalType": "address",
          "name": "_owner",
          "type": "address"
        },
        {
          "internalType": "uint256",
          "name": "_reportTimeBuffer",
          "type": "uint256"
        },
        {
          "internalType": "uint256",
          "name": "__test_block_timestamp",
          "type": "uint256"
        }
      ],
      "name": "initialize",
      "outputs": [],
      "stateMutability": "nonpayable",
      "type": "function"
    },
    {
      "inputs": [],
      "name": "owner",
      "outputs": [
        {
          "internalType": "address",
          "name": "",
          "type": "address"
        }
      ],
      "stateMutability": "view",
      "type": "function"
    },
    {
      "inputs": [
        {
          "internalType": "string",
          "name": "id",
          "type": "string"
        }
      ],
      "name": "processReport",
      "outputs": [],
      "stateMutability": "nonpayable",
      "type": "function"
    },
    {
      "inputs": [],
      "name": "proxiableUUID",
      "outputs": [
        {
          "internalType": "bytes32",
          "name": "",
          "type": "bytes32"
        }
      ],
      "stateMutability": "view",
      "type": "function"
    },
    {
      "inputs": [
        {
          "internalType": "address[]",
          "name": "participants",
          "type": "address[]"
        },
        {
          "internalType": "address[]",
          "name": "totalMembers",
          "type": "address[]"
        }
      ],
      "name": "quorumIsMet",
      "outputs": [
        {
          "internalType": "bool",
          "name": "isMet",
          "type": "bool"
        }
      ],
      "stateMutability": "pure",
      "type": "function"
    },
    {
      "inputs": [],
      "name": "renounceOwnership",
      "outputs": [],
      "stateMutability": "nonpayable",
      "type": "function"
    },
    {
      "inputs": [
        {
          "internalType": "string",
          "name": "id",
          "type": "string"
        },
        {
          "internalType": "uint256",
          "name": "blockHeight",
          "type": "uint256"
        },
        {
          "internalType": "string[]",
          "name": "streams",
          "type": "string[]"
        },
        {
          "internalType": "uint256[]",
          "name": "writeCaptureAmounts",
          "type": "uint256[]"
        },
        {
          "internalType": "uint256[]",
          "name": "writeBytes",
          "type": "uint256[]"
        },
        {
          "internalType": "address[]",
          "name": "readConsumerAddresses",
          "type": "address[]"
        },
        {
          "internalType": "uint256[]",
          "name": "readCaptureAmounts",
          "type": "uint256[]"
        },
        {
          "internalType": "uint256[]",
          "name": "readBytes",
          "type": "uint256[]"
        },
        {
          "internalType": "address[]",
          "name": "nodes",
          "type": "address[]"
        },
        {
          "internalType": "int256[]",
          "name": "nodeChanges",
          "type": "int256[]"
        },
        {
          "internalType": "address[]",
          "name": "delegates",
          "type": "address[]"
        },
        {
          "internalType": "address[][]",
          "name": "delegateNodes",
          "type": "address[][]"
        },
        {
          "internalType": "int256[][]",
          "name": "delegateNodeChanges",
          "type": "int256[][]"
        },
        {
          "internalType": "int256",
          "name": "treasurySupplyChange",
          "type": "int256"
        },
        {
          "internalType": "address[]",
          "name": "addresses",
          "type": "address[]"
        },
        {
          "internalType": "uint256[]",
          "name": "proofTimestamps",
          "type": "uint256[]"
        },
        {
          "internalType": "bytes[]",
          "name": "signatures",
          "type": "bytes[]"
        }
      ],
      "name": "report",
      "outputs": [],
      "stateMutability": "nonpayable",
      "type": "function"
    },
    {
      "inputs": [],
      "name": "reportTimeBuffer",
      "outputs": [
        {
          "internalType": "uint256",
          "name": "",
          "type": "uint256"
        }
      ],
      "stateMutability": "view",
      "type": "function"
    },
    {
      "inputs": [
        {
          "internalType": "address",
          "name": "",
          "type": "address"
        }
      ],
      "name": "reputationOf",
      "outputs": [
        {
          "internalType": "uint256",
          "name": "",
          "type": "uint256"
        }
      ],
      "stateMutability": "view",
      "type": "function"
    },
    {
      "inputs": [
        {
          "internalType": "uint256",
          "name": "_reportTimeBuffer",
          "type": "uint256"
        }
      ],
      "name": "setReportTimeBuffer",
      "outputs": [],
      "stateMutability": "nonpayable",
      "type": "function"
    },
    {
      "inputs": [
        {
          "internalType": "address",
          "name": "newOwner",
          "type": "address"
        }
      ],
      "name": "transferOwnership",
      "outputs": [],
      "stateMutability": "nonpayable",
      "type": "function"
    },
    {
      "inputs": [
        {
          "internalType": "address",
          "name": "newImplementation",
          "type": "address"
        }
      ],
      "name": "upgradeTo",
      "outputs": [],
      "stateMutability": "nonpayable",
      "type": "function"
    },
    {
      "inputs": [
        {
          "internalType": "address",
          "name": "newImplementation",
          "type": "address"
        },
        {
          "internalType": "bytes",
          "name": "data",
          "type": "bytes"
        }
      ],
      "name": "upgradeToAndCall",
      "outputs": [],
      "stateMutability": "payable",
      "type": "function"
    }
  ],
  "bytecode": "0x60a08060405234610031573060805261413d90816100378239608051818181610a6501528181610b720152610eb40152f35b600080fdfe610600604052600436101561001357600080fd5b60003560e01c80630e0a171314612c4857806312e63d7114612a065780631bfdc98a1461107f57806331c74e01146110615780633659cfe614610e8f5780634f1ef28614610b2057806352d1902d14610a4a5780636f94990d14610a2957806370f46202146109c4578063715018a6146109695780637a1ac61e146106f65780638da5cb5b146106cf578063a5157b711461066e578063adb618321461064b578063d91b99e81461062b578063d9741473146104d5578063db89c0441461049b578063dbc2d3701461044d578063eefa7a3e1461022d578063f2fde38b1461019e5763f6883c051461010457600080fd5b346101995760203660031901126101995760043567ffffffffffffffff81116101995760206101396007923690600401612d98565b9190610143613142565b826040519384928337810160fe81520301902001740100000000000000000000000000000000000000007fffffffffffffffffffffff00ffffffffffffffffffffffffffffffffffffffff825416179055600080f35b600080fd5b34610199576020366003190112610199576101b7613060565b6101bf613142565b6001600160a01b038116156101d9576101d79061319a565b005b60405162461bcd60e51b815260206004820152602660248201527f4f776e61626c653a206e6577206f776e657220697320746865207a65726f206160448201526564647265737360d01b6064820152608490fd5b346101995760003660031901126101995761024661343d565b5061024f6135c7565b60405161025b81612c60565b6040516102738161026c81866134bb565b0382612cd1565b815260018083015490602091828401526002918285015460408501526003808601805461029f81612cf3565b916102ad6040519384612cd1565b81835260009081528481208685878087015b86861061040b575050505050505060608601526102de60048701613551565b60808601526005860180546102f281612cf3565b916103006040519384612cd1565b81835260009081528481208688878087015b8686106103d1575050505050505060a08601526006860180549261033584612cf3565b956103436040519788612cd1565b8487526000928352818320908288015b8685106103955760c08a0189905260078b01546001600160a01b03811660e08c015260a01c60ff1615156101008b0152604051806103918c82612e56565b0390f35b858489926040516103a581612c7d565b6001600160a01b0387541681528487015483820152858701546040820152815201930194019391610353565b6040516103dd81612c99565b6001600160a01b0386541681526103f5858701613551565b8382015281520192019201919088878992610312565b60405161041781612c7d565b6040516104288161026c818a6134bb565b815284860154838201528c8601546040820152815201920192019190858789926102bf565b3461019957602036600319011261019957600435610469613142565b6402540be400908181029181830414901517156104855760fb55005b634e487b7160e01b600052601160045260246000fd5b34610199576020366003190112610199576001600160a01b036104bc613060565b1660005260fc6020526020604060002054604051908152f35b34610199576020806003193601126101995760043567ffffffffffffffff81116101995761050882913690600401612d98565b9190826040519384928337810160ff8152030190209081549161052a83612cf3565b926105386040519485612cd1565b8084528284018092600052836000206000915b8383106105d75750505050604051918083019381845251809452604083019360408160051b85010192916000955b8287106105865785850386f35b909192938280600192603f198982030185528751906001600160a01b0382511681526040806105c18585015160608088870152850190612de9565b9301519101529601920196019592919092610579565b6003866001926040999899516105ec81612c7d565b6001600160a01b03865416815260405161060c8161026c81898b016134bb565b838201526002860154604082015281520192019201919095949561054b565b346101995760003660031901126101995760206040516402540be4008152f35b34610199576000366003190112610199576020610666613d57565b604051908152f35b346101995760403660031901126101995767ffffffffffffffff600435818111610199576106a0903690600401613127565b90602435908111610199576020916106bf6106c5923690600401613127565b90613bf2565b6040519015158152f35b346101995760003660031901126101995760206001600160a01b0360975416604051908152f35b346101995760603660031901126101995761070f613060565b6024908135916044356000549360ff8560081c16159485809661095c575b8015610945575b156108db5760ff198116600117600055856108c9575b5061076560ff60005460081c16610760816133cb565b6133cb565b61076e3361319a565b61078c60ff60005460081c16610783816133cb565b610760816133cb565b600160c9556001600160a01b03841691610100836001600160a01b03198254161790556402540be40091828102908082048414901517156108b45760fb556103e8908181029181830414811517156108b4576509184e72a0000291818304149015171561089f57610101556107ff613142565b1561084c575061080e9061319a565b61081457005b61ff0019600054166000557f7f26b83ff96e1f2b6a682f133852f6798a09c465da95921460cefb3847402498602060405160018152a1005b60849060266040519162461bcd60e51b8352602060048401528201527f4f776e61626c653a206e6577206f776e657220697320746865207a65726f206160448201526564647265737360d01b6064820152fd5b82634e487b7160e01b60005260116004526000fd5b84634e487b7160e01b60005260116004526000fd5b61ffff1916610101176000558561074a565b60405162461bcd60e51b815260206004820152602e818601527f496e697469616c697a61626c653a20636f6e747261637420697320616c72656160448201527f647920696e697469616c697a65640000000000000000000000000000000000006064820152608490fd5b50303b1580156107345750600160ff821614610734565b50600160ff82161061072d565b3461019957600036600319011261019957610982613142565b60006001600160a01b036097546001600160a01b03198116609755167f8be0079c531659141344cd1fd0a4f28419497f9722a3daafe3b4186f6b6457e08280a3005b34610199576000366003190112610199576109dd6136bf565b604051809160208083018184528251809152816040850193019160005b828110610a0957505050500390f35b83516001600160a01b0316855286955093810193928101926001016109fa565b346101995760206106c5610a3c36612d59565b610a446136bf565b33613d93565b34610199576000366003190112610199576001600160a01b037f0000000000000000000000000000000000000000000000000000000000000000163003610ab55760206040517f360894a13ba1a3210667c828492db98dca3e2076cc3735a920a3ca505d382bbc8152f35b60405162461bcd60e51b815260206004820152603860248201527f555550535570677261646561626c653a206d757374206e6f742062652063616c60448201527f6c6564207468726f7567682064656c656761746563616c6c00000000000000006064820152608490fd5b604036600319011261019957610b34613060565b60243567ffffffffffffffff8111610199573660238201121561019957610b65903690602481600401359101613092565b906001600160a01b0391827f00000000000000000000000000000000000000000000000000000000000000001692610b9f843014156131e2565b610bce7f360894a13ba1a3210667c828492db98dca3e2076cc3735a920a3ca505d382bbc948286541614613254565b610bd6613142565b7f4910fdfa16fed3260ed0e7147f7cc6da11a60208b5b9406d12a635614ffd91435460ff1615610c0c5750506101d791506132c6565b82919216604051936352d1902d60e01b85526020948581600481865afa60009181610e60575b50610c935760405162461bcd60e51b815260048101879052602e60248201527f45524331393637557067726164653a206e657720696d706c656d656e7461746960448201526d6f6e206973206e6f74205555505360901b6064820152608490fd5b03610df557610ca1826132c6565b604051907fbc7cd75a20ee27fd9adebab32041f755214dbc6bffa90cc0225b39da2e5c2d3b600080a2825115801590610ded575b610cdb57005b813b15610d8557506000828192856101d79695519201905af43d15610d7d573d90610d0582613076565b91610d136040519384612cd1565b82523d60008484013e5b7f416464726573733a206c6f772d6c6576656c2064656c65676174652063616c6c60405193610d4b85612c7d565b602785528401527f206661696c6564000000000000000000000000000000000000000000000000006040840152613374565b606090610d1d565b62461bcd60e51b815260048101849052602660248201527f416464726573733a2064656c65676174652063616c6c20746f206e6f6e2d636f60448201527f6e747261637400000000000000000000000000000000000000000000000000006064820152608490fd5b506001610cd5565b60405162461bcd60e51b815260048101859052602960248201527f45524331393637557067726164653a20756e737570706f727465642070726f7860448201527f6961626c655555494400000000000000000000000000000000000000000000006064820152608490fd5b9091508681813d8311610e88575b610e788183612cd1565b8101031261019957519087610c32565b503d610e6e565b346101995760208060031936011261019957610ea9613060565b6001600160a01b03807f000000000000000000000000000000000000000000000000000000000000000016610ee0813014156131e2565b610f0f7f360894a13ba1a3210667c828492db98dca3e2076cc3735a920a3ca505d382bbc918383541614613254565b610f17613142565b60405191610f2483612cb5565b600083527f4910fdfa16fed3260ed0e7147f7cc6da11a60208b5b9406d12a635614ffd91435460ff1615610f5f575050506101d791506132c6565b83929316906040516352d1902d60e01b81528581600481865afa60009181611032575b50610fe35760405162461bcd60e51b815260048101879052602e60248201527f45524331393637557067726164653a206e657720696d706c656d656e7461746960448201526d6f6e206973206e6f74205555505360901b6064820152608490fd5b03610df557610ff1826132c6565b604051907fbc7cd75a20ee27fd9adebab32041f755214dbc6bffa90cc0225b39da2e5c2d3b600080a282511580159061102a57610cdb57005b506000610cd5565b9091508681813d831161105a575b61104a8183612cd1565b8101031261019957519087610f82565b503d611040565b3461019957600036600319011261019957602060fb54604051908152f35b34610199576102203660031901126101995760043567ffffffffffffffff8111610199576110b1903690600401612d98565b610440526103805260443567ffffffffffffffff8111610199576110d990369060040161302f565b610240526104205260643567ffffffffffffffff81116101995761110190369060040161302f565b610220526102605260843567ffffffffffffffff81116101995761112990369060040161302f565b6104a0526103605260a43567ffffffffffffffff81116101995761115190369060040161302f565b610400526102e05260c43567ffffffffffffffff81116101995761117990369060040161302f565b906102005267ffffffffffffffff60e435116101995761119e3660e43560040161302f565b6105205267ffffffffffffffff6101043511610199576111c4366101043560040161302f565b610280526105605267ffffffffffffffff6101243511610199576111ee366101243560040161302f565b6105a052610180526101443567ffffffffffffffff81116101995761121790369060040161302f565b61030052610540526101643567ffffffffffffffff81116101995761124090369060040161302f565b610100526104c05267ffffffffffffffff61018435116101995761126a366101843560040161302f565b610460526105805267ffffffffffffffff6101c4351161019957611294366101c43560040161302f565b6103a0526103e05267ffffffffffffffff6101e43511610199576112be366101e43560040161302f565b6103205260805267ffffffffffffffff6102043511610199576112e7366102043560040161302f565b60c0526104e052602460206001600160a01b03610100541660405192838092630c2effa360e31b82523360048301525afa908115611e69576000916129e7575b50156129a25760ff60076040516104405161038051823760fe6104405182015260208161044051810103019020015460a01c1661295d5743602435111580612947575b15612902576103a051806003810204600314811517156104855761139e9061139960c05191610320519061369e565b61369e565b60036103a05102036128bd576113cf6113b56136bf565b8060e0526113ca366103a0516103e0516130c9565b613bf2565b15612878576113f06113e73661032051608051612d0b565b60e05133613d93565b156128335760606103405261141b61140a61024051612cf3565b80610500526040518060a052612cd1565b6102405160a05152601f1961143261024051612cf3565b0160005b81811061280357505060005b6102405180821015611567579060406114e56114658361156295610420516138e3565b929061148161147b866102205161026051613925565b35613eac565b6020611494876104a05161036051613925565b35916114d0855197889581610340516114b58151809289808d019101612dc6565b88019186830137019183830160008152815194859201612dc6565b01906020820152036020810184520182612cd1565b610340526114fa8161024051610420516138e3565b9061150c836102205161026051613925565b35611537611521856104a05161036051613925565b35926040519461153086612c7d565b3691613092565b83526020830152604082015261154f8260a0516136ab565b5261155c8160a0516136ab565b50613670565b611442565b828461158a61157861040051612cf3565b806101c052604051806105c052612cd1565b610400516105c05152601f196115a261040051612cf3565b0160005b8181106127d457505060005b6104005190818110156116d8576115d86115d3826116d3946102e051613925565b613935565b61165f60546115ee61147b858861020051613925565b6115fc85610520518a613925565b35936040519485916103405161161b8151809260208088019101612dc6565b8301906bffffffffffffffffffffffff199060601b16602082015283519061164c8260349660208885019101612dc6565b0190838201520390810184520182612cd1565b610340526116776115d382610400516102e051613925565b611685828561020051613925565b35611694836105205188613925565b35906001600160a01b03604051936116ab85612c7d565b168352602083015260408201526116c5826105c0516136ab565b5261155c816105c0516136ab565b6115b2565b6116e461028051613949565b6102a05260005b6102805190818110156117b55761170c6115d3826117b09461056051613925565b61174e611729611723846105a05161018051613925565b35614047565b9161174060405193849261034051602085016139aa565b03601f198101835282612cd1565b610340526117666115d3826102805161056051613925565b611777826105a05161018051613925565b356001600160a01b036040519261178d84612c99565b16825260208201526117a2826102a0516136ab565b5261155c816102a0516136ab565b6116eb565b6117d66117c461030051612cf3565b80610160526040518061012052612cd1565b610300516101205152601f196117ee61030051612cf3565b0160005b8181106127ac5760006105e0525b610300516105e05190811015611a075761182d611826606092610100516104c0516139f0565b9050613949565b6101a0526000905b6118496105e051610100516104c0516139f0565b905082101561191b57611915906118a861187a6115d3856118746105e051610100516104c0516139f0565b90613925565b91611740611899611723876118746105e05161046051610580516139f0565b604051948593602085016139aa565b916118c46115d3826118746105e051610100516104c0516139f0565b6118dc826118746105e05161046051610580516139f0565b356001600160a01b03604051926118f284612c99565b1682526020820152611907826101a0516136ab565b5261155c816101a0516136ab565b90611835565b90506119946119376115d36105e0516103005161054051613925565b916040518093610340516119548151809260208087019101612dc6565b8201906bffffffffffffffffffffffff199060601b1660208201528251906119858260349560208785019101612dc6565b01036014810184520182612cd1565b610340526119af6115d36105e0516103005161054051613925565b6001600160a01b03604051916119c483612c99565b1681526101a05160208201526119e06105e051610120516136ab565b526119f16105e051610120516136ab565b506119fe6105e051613670565b6105e052611800565b604051611a1381612cb5565b600081526040516104405161038051823760208161044051810160ff81520301902090805190600160401b8211611df0578254828455808310612701575b506020019160005260206000206000925b8284106126e35760006104805260006101405260e05151806103c052806402540be4008102046402540be40014901517156104855760006101e0525b60e051516101e0511015611e7557611abc604051806102c052612c7d565b60006102c05152606060206102c0510152600060406102c051015260005b6103a051811015611b8957611b29906001600160a01b03611b006101e05160e0516136ab565b51166001600160a01b03611b1e6115d3846103a0516103e051613925565b1614611b2e57613670565b611ada565b6001600160a01b03611b4a6115d3836103a0516103e051613925565b166102c05152611b636115308260c0516104e0516138e3565b60206102c0510152611b7b8161032051608051613925565b3560406102c0510152613670565b50611b966101a435614047565b60406102c0510151611c086060604051809360208201956104405161038051883761044051830160243560208201526103405190611bde825180936020604085019101612dc6565b01611bf3825180936020604085019101612dc6565b01906040820152036040810184520182612cd1565b51902060206102c05191816001600160a01b0384511693015192611c5260405194859384936301a86b5560e41b855260048501526024840152606060448401526064830190612de9565b038173__$267c3dc7aa7d3fe2e28bda43a2ca27cd27$__5af48015611e6957600191600091611e3a575b50151503611e06576040516104405161038051823760208161044051810160ff8152030190208054600160401b811015611df05760018101808355811015611dda57611cd891600052602060002060036102c051920201613a88565b611ce46101405161368c565b610140526102c051516001600160a01b0316338103611d3957503360005260fc60205260406000208054600a8101811161048557600a0190556001610480525b611d306101e051613670565b6101e052611a9e565b61048051611db757506102c0516001600160a01b0381511660005260fc9081602052600590816040600020541015600014611d9c5750905b6001600160a01b036102c0515116600052602052611d95604060002091825461367f565b9055611d24565b6001600160a01b039150511660005260406000205490611d71565b60005260fc60205260406000208054600181018111610485576001019055611d24565b634e487b7160e01b600052603260045260246000fd5b634e487b7160e01b600052604160045260246000fd5b6001600160a01b03611e256115d36101e0516103a0516103e051613925565b1660005260fc60205260006040812055611d24565b611e5c915060203d602011611e62575b611e548183612cd1565b8101906138cb565b82611c7c565b503d611e4a565b6040513d6000823e3d90fd5b6402540be4006103c0510260011c610140511061269e57604051611e9881612c60565b611f056020611eae366104405161038051613092565b808452602435828501526101a435604085015260a05160608501526102a05160808501526101205160a08501526105c05160c08501523360e085015260006101008501528160405193828580945193849201612dc6565b810160fe81520301902090805191825167ffffffffffffffff8111611df057611f3881611f328454613481565b84613a4c565b6020601f8211600114612636578192939460009261262b575b50508160011b916000199060031b1c19161781555b60208201516001820155604082015160028201556060820151805190600160401b8211611df0576003830154826003850155808310612580575b50602001906003830160005260206000206000925b828410612488578585600481016080830151906020825192611fd78484613b8a565b019060005260206000206000915b83831061245257858560a0820151805190600160401b8211611df05760058301548260058501558083106123aa575b506020016005830160005260206000206000915b83831061231257858560c0820151805190600160401b8211611df05760068301548260068501558083106122b9575b506020016006830160005260206000206000915b8383106122795785600786016001600160a01b0360e0830151168154907fffffffffffffffffffffff00000000000000000000000000000000000000000074ff0000000000000000000000000000000000000000610100860151151560a01b16921617179055805180519067ffffffffffffffff8211611df0576120f060fd54613481565b601f811161221f575b50602090601f83116001146121745791807fc53a4e1db72f8c6fde77b85b4cc21a59f9896e9d7285f890075356dbd528d1cd949261216494600092612169575b50508160011b916000199060031b1c19161760fd555b51604051918291602083526020830190612de9565b0390a1005b015190508580612139565b90601f1983169160fd6000527f9346ac6dd7de6b96975fec380d4d994c4c12e6a8897544f22915316cc6cca2809260005b8181106122075750926001928592612164967fc53a4e1db72f8c6fde77b85b4cc21a59f9896e9d7285f890075356dbd528d1cd9896106121ee575b505050811b0160fd5561214f565b015160001960f88460031b161c191690558580806121e0565b929360206001819287860151815501950193016121a5565b6122699060fd6000527f9346ac6dd7de6b96975fec380d4d994c4c12e6a8897544f22915316cc6cca280601f850160051c8101916020861061226f575b601f0160051c0190613a35565b836120f9565b909150819061225c565b60036020826040600194516001600160a01b038151166001600160a01b03198854161787558381015186880155015160028601550192019201919061206b565b6003818102048103610485576003838102048303610485576006840160005260206000208360030281015b82600302820181106122f7575050612057565b806000600392556000600182015560006002820155016122e4565b80516001600160a01b038151166001600160a01b03198454161783556020600184019101519060208251926123478484613b8a565b01906000526020600020906000905b83821061237457505050506002602060019201920192019190612028565b600260208281600194516001600160a01b038151166001600160a01b031989541617885501518487015501930191019091612356565b6001600160ff1b0381168103610485576001600160ff1b0383168303610485576005840160005260206000208360011b81015b8260011b820181106123f0575050612014565b600081556001810154600060018301558061240f575b506002016123dd565b6001600160ff1b0381168103610485576001820160005260206000209060011b8101905b8181106124405750612406565b60008082556001820155600201612433565b600260208281600194516001600160a01b038151166001600160a01b031988541617875501518486015501920192019190611fe5565b8051805180519067ffffffffffffffff8211611df0576124b2826124ac8754613481565b87613a4c565b602090601f831160011461250e576003938360209460019794604094600092612503575b505060001982881b1c191690871b1787555b83810151868801550151600286015501920193019290611fb5565b015190508d806124d6565b908560005260206000209160005b601f1985168110612568575093600184819794604094600398602098601f19811610612550575b505050811b0187556124e8565b0151600019838a1b60f8161c191690558d8080612543565b9192602060018192868501518155019401920161251c565b6003818102048103610485576003838102048303610485576003840160005260206000208360030281015b82600302820181106125be575050611fa0565b806125cb60039254613481565b806125e6575b506000600182015560006002820155016125ab565b601f81116001146125fd5750600081555b886125d1565b61261c90826000526001601f6020600020920160051c82019101613a35565b600060208120818355556125f7565b015190508480611f51565b8260005260206000209060005b601f19841681106126865750600193949583601f1981161061266d575b505050811b018155611f66565b015160001960f88460031b161c19169055848080612660565b9091602060018192858a015181550193019101612643565b60405162461bcd60e51b815260206004820152601560248201527f6572726f725f636f6e73656e7375734e6f744d657400000000000000000000006044820152606490fd5b60036020826126f56001945186613a88565b01920193019290611a62565b6003818102048103610485576003838102048303610485578360005260206000208360030281015b826003028201811061273c575050611a51565b8060006003925560018082016127528154613481565b9182612769575b5050506000600282015501612729565b600092601f9182821160011461278657505050555b878080612759565b61279f9284865260208620920160051c82019101613a35565b816020812091555561277e565b6020906040516127bb81612c99565b60008152606083820152828261012051010152016117f2565b6020906040516127e381612c7d565b600081526000838201526000604082015282826105c051010152016115a6565b60209060405161281281612c7d565b61034051815260008382015260006040820152828260a05101015201611436565b60405162461bcd60e51b815260206004820152601560248201527f6572726f725f696e76616c69645265706f7274657200000000000000000000006044820152606490fd5b60405162461bcd60e51b815260206004820152601260248201527f6572726f725f71756f72756d4e6f744d657400000000000000000000000000006044820152606490fd5b60405162461bcd60e51b815260206004820152601360248201527f6572726f725f696e76616c696450726f6f6673000000000000000000000000006044820152606490fd5b60405162461bcd60e51b815260206004820152601360248201527f6572726f725f696e76616c69645265706f7274000000000000000000000000006044820152606490fd5b5060016129526135c7565b01546024351161136a565b60405162461bcd60e51b815260206004820152601c60248201527f6572726f725f7265706f7274416c726561647950726f636573736564000000006044820152606490fd5b60405162461bcd60e51b815260206004820152601360248201527f6572726f725f7374616b655265717569726564000000000000000000000000006044820152606490fd5b612a00915060203d602011611e6257611e548183612cd1565b83611327565b34610199576020806003193601126101995760043567ffffffffffffffff811161019957612a3982913690600401612d98565b9190612a4361343d565b50826040519384928337810160fe8152030190209060405190612a6582612c60565b604051612a768161026c81876134bb565b82526001808401548284015260029182850154604085015260038086018054612a9e81612cf3565b91612aac6040519384612cd1565b81835260009081528481208685878087015b868610612c0657505050505050506060860152612add60048701613551565b6080860152600586018054612af181612cf3565b91612aff6040519384612cd1565b81835260009081528481208688878087015b868610612bcc575050505050505060a086015260068601805492612b3484612cf3565b95612b426040519788612cd1565b8487526000928352818320908288015b868510612b905760c08a0189905260078b01546001600160a01b03811660e08c015260a01c60ff1615156101008b0152604051806103918c82612e56565b85848992604051612ba081612c7d565b6001600160a01b0387541681528487015483820152858701546040820152815201930194019391612b52565b604051612bd881612c99565b6001600160a01b038654168152612bf0858701613551565b8382015281520192019201919088878992612b11565b604051612c1281612c7d565b604051612c238161026c818a6134bb565b815284860154838201528c860154604082015281520192019201919085878992612abe565b34610199576020610666612c5b36612d59565b613ce7565b610120810190811067ffffffffffffffff821117611df057604052565b6060810190811067ffffffffffffffff821117611df057604052565b6040810190811067ffffffffffffffff821117611df057604052565b6020810190811067ffffffffffffffff821117611df057604052565b90601f8019910116810190811067ffffffffffffffff821117611df057604052565b67ffffffffffffffff8111611df05760051b60200190565b9291612d1682612cf3565b91612d246040519384612cd1565b829481845260208094019160051b810192831161019957905b828210612d4a5750505050565b81358152908301908301612d3d565b6020600319820112610199576004359067ffffffffffffffff8211610199578060238301121561019957816024612d9593600401359101612d0b565b90565b9181601f840112156101995782359167ffffffffffffffff8311610199576020838186019501011161019957565b60005b838110612dd95750506000910152565b8181015183820152602001612dc9565b90602091612e0281518092818552858086019101612dc6565b601f01601f1916010190565b90815180825260208080930193019160005b828110612e2e575050505090565b835180516001600160a01b031686528201518583015260409094019392810192600101612e20565b602091828252805190612e76610120928386860152610140850190612de9565b93808201516040908186015280830151916060928387015282840151601f19978888820301608089015281518082528382019184808360051b8301019401926000915b888d858510612fe45750505050505050612ee1906080860151898983030160a08a0152612e0e565b9160a085015192888882030160c089015283518082528382019184808360051b8301019601926000915b8c848410612f975750505050505060c0850151978784030160e08801528180895194858152019801936000915b848310612f66575050505050506001600160a01b0360e0820151169061010091828501520151151591015290565b855180516001600160a01b03168b52808501518b8601528101518a8201529881019894830194600190920191612f38565b9680612fd08a89838a9e9b9c9a8798999a9b829f9860019903018a52516001600160a01b03815116845201519181858201520190612e0e565b9a0193019301919392909796959497612f0b565b9780999891888293856001969798999a9b030187528a8061300f8c5194855190808652850190612de9565b938581015186850152015191015297019301930191939290969596612eb9565b9181601f840112156101995782359167ffffffffffffffff8311610199576020808501948460051b01011161019957565b600435906001600160a01b038216820361019957565b67ffffffffffffffff8111611df057601f01601f191660200190565b92919261309e82613076565b916130ac6040519384612cd1565b829481845281830111610199578281602093846000960137010152565b92916130d482612cf3565b916130e26040519384612cd1565b829481845260208094019160051b810192831161019957905b8282106131085750505050565b81356001600160a01b03811681036101995781529083019083016130fb565b9080601f8301121561019957816020612d95933591016130c9565b6001600160a01b0360975416330361315657565b606460405162461bcd60e51b815260206004820152602060248201527f4f776e61626c653a2063616c6c6572206973206e6f7420746865206f776e65726044820152fd5b609754906001600160a01b0380911691826001600160a01b0319821617609755167f8be0079c531659141344cd1fd0a4f28419497f9722a3daafe3b4186f6b6457e0600080a3565b156131e957565b60405162461bcd60e51b815260206004820152602c60248201527f46756e6374696f6e206d7573742062652063616c6c6564207468726f7567682060448201527f64656c656761746563616c6c00000000000000000000000000000000000000006064820152608490fd5b1561325b57565b60405162461bcd60e51b815260206004820152602c60248201527f46756e6374696f6e206d7573742062652063616c6c6564207468726f7567682060448201527f6163746976652070726f787900000000000000000000000000000000000000006064820152608490fd5b803b15613309576001600160a01b037f360894a13ba1a3210667c828492db98dca3e2076cc3735a920a3ca505d382bbc91166001600160a01b0319825416179055565b60405162461bcd60e51b815260206004820152602d60248201527f455243313936373a206e657720696d706c656d656e746174696f6e206973206e60448201527f6f74206120636f6e7472616374000000000000000000000000000000000000006064820152608490fd5b90919015613380575090565b8151156133905750805190602001fd5b60405162461bcd60e51b8152602060048201529081906133b4906024830190612de9565b0390fd5b8181029291811591840414171561048557565b156133d257565b60405162461bcd60e51b815260206004820152602b60248201527f496e697469616c697a61626c653a20636f6e7472616374206973206e6f74206960448201527f6e697469616c697a696e670000000000000000000000000000000000000000006064820152608490fd5b6040519061344a82612c60565b600061010083606080825283602083015283604083015280808301528060808301528060a083015260c08201528260e08201520152565b90600182811c921680156134b1575b602083101461349b57565b634e487b7160e01b600052602260045260246000fd5b91607f1691613490565b90600092918054916134cc83613481565b91828252600193848116908160001461352e57506001146134ee575b50505050565b90919394506000526020928360002092846000945b83861061351a5750505050010190388080806134e8565b805485870183015294019385908201613503565b9294505050602093945060ff191683830152151560051b010190388080806134e8565b90815461355d81612cf3565b9260409361356d85519182612cd1565b828152809460208092019260005281600020906000935b85851061359357505050505050565b60028460019284516135a481612c99565b6001600160a01b0387541681528487015483820152815201930194019391613584565b60405160fd548160006135d983613481565b926001908181169081156136565750600114613600575b506020925060fe81520301902090565b60fd600090815291507f9346ac6dd7de6b96975fec380d4d994c4c12e6a8897544f22915316cc6cca2805b848310613640575050506020918101386135f0565b805486840152859350602090920191810161362b565b60ff191684525060209380151502830191503890506135f0565b60001981146104855760010190565b9190820391821161048557565b906402540be400820180921161048557565b9190820180921161048557565b8051821015611dda5760209160051b010190565b6001600160a01b03908161010054169160408051808095636085a91160e11b8252600091829160049889915afa9182156138bf578192613814575b50818251958291600019918289019189831191825b61380157838610156137f357865b613727878d61367f565b8681019081116137c5578110156137d957600181018082116137c5579089828d8b8e8261375761378898876136ab565b5116825260fc60208181528284205493856137728a8a6136ab565b51169052528d20541061378d575b505050613670565b61371d565b806137a8856137b1936137a086886136ab565b5116956136ab565b5116918d6136ab565b526137bc828c6136ab565b5289388d613780565b50634e487b7160e01b885260118d52602488fd5b5091946137e890939193613670565b94918293919361370f565b995099505050505050505050565b634e487b7160e01b875260118c52602487fd5b9091503d8083833e6138268183612cd1565b81019060209081818403126138b75780519067ffffffffffffffff82116138bb57019180601f840112156138b757825161385f81612cf3565b9361386c87519586612cd1565b818552838086019260051b8201019283116138b3578301905b828210613897575050505090386136fa565b815188811681036138af578152908301908301613885565b8680fd5b8580fd5b8380fd5b8480fd5b508251903d90823e3d90fd5b90816020910312610199575180151581036101995790565b9190811015611dda5760051b81013590601e198136030182121561019957019081359167ffffffffffffffff8311610199576020018236038113610199579190565b9190811015611dda5760051b0190565b356001600160a01b03811681036101995790565b9061395382612cf3565b60409061396282519182612cd1565b8381528093613973601f1991612cf3565b0191600090815b848110613988575050505050565b602090825161399681612c99565b84815282858183015282870101520161397a565b6020906139c1601495949382815194859201612dc6565b01906bffffffffffffffffffffffff199060601b1681526139eb8251809360208685019101612dc6565b010190565b9190811015611dda5760051b81013590601e198136030182121561019957019081359167ffffffffffffffff8311610199576020018260051b36038113610199579190565b818110613a40575050565b60008155600101613a35565b9190601f8111613a5b57505050565b613a86926000526020600020906020601f840160051c8301931061226f57601f0160051c0190613a35565b565b906001600160a01b038151166001600160a01b03198354161782556001908183016020808301519384519167ffffffffffffffff8311611df057613ad683613ad08654613481565b86613a4c565b80601f8411600114613b1b5750918080926040969594600298600094613b10575b50501b916000199060031b1c19161790555b0151910155565b015192503880613af7565b91939495601f1984168660005283600020936000905b828210613b735750509160029795939185604098969410613b5a575b505050811b019055613b09565b015160001960f88460031b161c19169055388080613b4d565b808886978294978701518155019601940190613b31565b600160401b8211611df0578054828255808310613ba657505050565b6001600160ff1b038082168203610485578316830361048557600091825260208220600191821b810193821b015b838110613be15750505050565b808360029255838382015501613bd4565b91906000926000808351926402540be40093848102948186041490151715613cd35760019695948794851c9380985b613c31575b505050505050909150565b8151891015613cce578581815b613c76575b505084841015613c6157613c5986979899613670565b989796613c21565b50505050509150915081388080808080613c26565b8451811015613cc9576001600160a01b0380613c928d876136ab565b511690613c9f83886136ab565b511614613cb557613caf90613670565b81613c3e565b505092613cc19061368c565b928538613c43565b613c43565b613c26565b634e487b7160e01b83526011600452602483fd5b90600091825b8151841015613d3257613d0084836136ab565b51906402540be4009182810292818404149015171561048557613d2c91613d269161369e565b93613670565b92613ced565b91925051908115613d41570490565b634e487b7160e01b600052601260045260246000fd5b6101015480612d9557506103e8804202904282041442151715610485576509184e72a0004202908082046402540be40014901517156104855790565b92919092600091613da5600091613ce7565b94613dae613d57565b9260fb5490613dbe8351836133b8565b97845b6001810190818111613e9857613ddb836113998d856133b8565b8810613de75750613dc1565b611399915099613dfd939495969798999a6133b8565b92845b8151811015613e8e576001600160a01b0380613e1c83856136ab565b511690841614613e3457613e2f90613670565b613e00565b9293949596505050613e4a8361139984846133b8565b9360018201809211613e7a5750613e659291611399916133b8565b908210159182613e7457505090565b10905090565b634e487b7160e01b81526011600452602490fd5b5050505050505090565b634e487b7160e01b87526011600452602487fd5b806000908260801c8061403b575b508060401c8061402e575b5060209181831c80614023575b5060109180831c80614016575b5060081c61400e575b6001809101939184821b946001600160ff1b0381160361048557600285019485811161048557613f30613f1a87613076565b96613f286040519889612cd1565b808852613076565b86860190601f1901368237865115611dda57603090538551831015611dda57607860218701538281018091116104855791905b818311613fb857505050613f75575090565b6064906040519062461bcd60e51b825280600483015260248201527f537472696e67733a20686578206c656e67746820696e73756666696369656e746044820152fd5b909192600f811682811015611dda578651851015611dda577f3031323334353637383961626364656600000000000000000000000000000000901a85858801015360041c92801561048557600019019190613f63565b600101613ee8565b6002915091019038613edf565b915060040138613ed2565b6008915091019038613ec5565b91505060109038613eba565b6000808212919082156140c257614083612d959260209260405161406a81612c99565b60018152602d60f81b85820152955b6140bc5750613eac565b92604051938161409c8693518092868087019101612dc6565b82016140b082518093868085019101612dc6565b01038084520182612cd1565b03613eac565b6040516020810181811067ffffffffffffffff8211176140f35760405281815292612d959260209261408392614079565b634e487b7160e01b83526041600452602483fdfea2646970667358221220b77e0021cbb75e42d62b3a89e11f22a1cfa46953b82bf7ea281dbe617ab9b3b064736f6c63430008110033",
  "linkReferences": {
    "src/lib/VerifySignature.sol": {
      "VerifySignature": [
        {
          "length": 20,
          "start": 7309
        }
      ]
    }
  },
  "deployedLinkReferences": {
    "src/lib/VerifySignature.sol": {
      "VerifySignature": [
        {
          "length": 20,
          "start": 7254
        }
      ]
    }
  }
}