{
  "_format": "hh-sol-artifact-1",
  "contractName": "LogStoreReportManager",
  "sourceName": "src/ReportManager.sol",
  "abi": [
    {
      "anonymous": false,
      "inputs": [
        {
          "indexed": false,
          "internalType": "address",
          "name": "previousAdmin",
          "type": "address"
        },
        {
          "indexed": false,
          "internalType": "address",
          "name": "newAdmin",
          "type": "address"
        }
      ],
      "name": "AdminChanged",
      "type": "event"
    },
    {
      "anonymous": false,
      "inputs": [
        {
          "indexed": true,
          "internalType": "address",
          "name": "beacon",
          "type": "address"
        }
      ],
      "name": "BeaconUpgraded",
      "type": "event"
    },
    {
      "anonymous": false,
      "inputs": [
        {
          "indexed": false,
          "internalType": "uint8",
          "name": "version",
          "type": "uint8"
        }
      ],
      "name": "Initialized",
      "type": "event"
    },
    {
      "anonymous": false,
      "inputs": [
        {
          "indexed": true,
          "internalType": "address",
          "name": "previousOwner",
          "type": "address"
        },
        {
          "indexed": true,
          "internalType": "address",
          "name": "newOwner",
          "type": "address"
        }
      ],
      "name": "OwnershipTransferred",
      "type": "event"
    },
    {
      "anonymous": false,
      "inputs": [
        {
          "indexed": false,
          "internalType": "string",
          "name": "id",
          "type": "string"
        }
      ],
      "name": "ReportAccepted",
      "type": "event"
    },
    {
      "anonymous": false,
      "inputs": [
        {
          "indexed": true,
          "internalType": "address",
          "name": "implementation",
          "type": "address"
        }
      ],
      "name": "Upgraded",
      "type": "event"
    },
    {
      "inputs": [],
      "name": "MATH_PRECISION",
      "outputs": [
        {
          "internalType": "uint256",
          "name": "",
          "type": "uint256"
        }
      ],
      "stateMutability": "view",
      "type": "function"
    },
    {
      "inputs": [
        {
          "internalType": "uint256[]",
          "name": "timestamps",
          "type": "uint256[]"
        }
      ],
      "name": "aggregateTimestamps",
      "outputs": [
        {
          "internalType": "uint256",
          "name": "",
          "type": "uint256"
        }
      ],
      "stateMutability": "pure",
      "type": "function"
    },
    {
      "inputs": [],
      "name": "blockTimestamp",
      "outputs": [
        {
          "internalType": "uint256",
          "name": "",
          "type": "uint256"
        }
      ],
      "stateMutability": "view",
      "type": "function"
    },
    {
      "inputs": [
        {
          "internalType": "uint256[]",
          "name": "timestamps",
          "type": "uint256[]"
        }
      ],
      "name": "canReport",
      "outputs": [
        {
          "internalType": "bool",
          "name": "",
          "type": "bool"
        }
      ],
      "stateMutability": "view",
      "type": "function"
    },
    {
      "inputs": [],
      "name": "getLastReport",
      "outputs": [
        {
          "components": [
            {
              "internalType": "string",
              "name": "id",
              "type": "string"
            },
            {
              "internalType": "uint256",
              "name": "height",
              "type": "uint256"
            },
            {
              "internalType": "int256",
              "name": "treasury",
              "type": "int256"
            },
            {
              "components": [
                {
                  "internalType": "string",
                  "name": "id",
                  "type": "string"
                },
                {
                  "internalType": "uint256",
                  "name": "writeCapture",
                  "type": "uint256"
                },
                {
                  "internalType": "uint256",
                  "name": "writeBytes",
                  "type": "uint256"
                }
              ],
              "internalType": "struct LogStoreReportManager.Stream[]",
              "name": "streams",
              "type": "tuple[]"
            },
            {
              "components": [
                {
                  "internalType": "address",
                  "name": "id",
                  "type": "address"
                },
                {
                  "internalType": "int256",
                  "name": "amount",
                  "type": "int256"
                }
              ],
              "internalType": "struct LogStoreReportManager.Node[]",
              "name": "nodes",
              "type": "tuple[]"
            },
            {
              "components": [
                {
                  "internalType": "address",
                  "name": "id",
                  "type": "address"
                },
                {
                  "components": [
                    {
                      "internalType": "address",
                      "name": "id",
                      "type": "address"
                    },
                    {
                      "internalType": "int256",
                      "name": "amount",
                      "type": "int256"
                    }
                  ],
                  "internalType": "struct LogStoreReportManager.Node[]",
                  "name": "nodes",
                  "type": "tuple[]"
                }
              ],
              "internalType": "struct LogStoreReportManager.Delegate[]",
              "name": "delegates",
              "type": "tuple[]"
            },
            {
              "components": [
                {
                  "internalType": "address",
                  "name": "id",
                  "type": "address"
                },
                {
                  "internalType": "uint256",
                  "name": "readCapture",
                  "type": "uint256"
                },
                {
                  "internalType": "uint256",
                  "name": "readBytes",
                  "type": "uint256"
                }
              ],
              "internalType": "struct LogStoreReportManager.Consumer[]",
              "name": "consumers",
              "type": "tuple[]"
            },
            {
              "internalType": "address",
              "name": "_reporter",
              "type": "address"
            },
            {
              "internalType": "bool",
              "name": "_processed",
              "type": "bool"
            }
          ],
          "internalType": "struct LogStoreReportManager.Report",
          "name": "",
          "type": "tuple"
        }
      ],
      "stateMutability": "view",
      "type": "function"
    },
    {
      "inputs": [
        {
          "internalType": "string",
          "name": "id",
          "type": "string"
        }
      ],
      "name": "getProofOfReport",
      "outputs": [
        {
          "components": [
            {
              "internalType": "address",
              "name": "signer",
              "type": "address"
            },
            {
              "internalType": "bytes",
              "name": "signature",
              "type": "bytes"
            },
            {
              "internalType": "uint256",
              "name": "timestamp",
              "type": "uint256"
            }
          ],
          "internalType": "struct LogStoreReportManager.Proof[]",
          "name": "",
          "type": "tuple[]"
        }
      ],
      "stateMutability": "view",
      "type": "function"
    },
    {
      "inputs": [
        {
          "internalType": "string",
          "name": "id",
          "type": "string"
        }
      ],
      "name": "getReport",
      "outputs": [
        {
          "components": [
            {
              "internalType": "string",
              "name": "id",
              "type": "string"
            },
            {
              "internalType": "uint256",
              "name": "height",
              "type": "uint256"
            },
            {
              "internalType": "int256",
              "name": "treasury",
              "type": "int256"
            },
            {
              "components": [
                {
                  "internalType": "string",
                  "name": "id",
                  "type": "string"
                },
                {
                  "internalType": "uint256",
                  "name": "writeCapture",
                  "type": "uint256"
                },
                {
                  "internalType": "uint256",
                  "name": "writeBytes",
                  "type": "uint256"
                }
              ],
              "internalType": "struct LogStoreReportManager.Stream[]",
              "name": "streams",
              "type": "tuple[]"
            },
            {
              "components": [
                {
                  "internalType": "address",
                  "name": "id",
                  "type": "address"
                },
                {
                  "internalType": "int256",
                  "name": "amount",
                  "type": "int256"
                }
              ],
              "internalType": "struct LogStoreReportManager.Node[]",
              "name": "nodes",
              "type": "tuple[]"
            },
            {
              "components": [
                {
                  "internalType": "address",
                  "name": "id",
                  "type": "address"
                },
                {
                  "components": [
                    {
                      "internalType": "address",
                      "name": "id",
                      "type": "address"
                    },
                    {
                      "internalType": "int256",
                      "name": "amount",
                      "type": "int256"
                    }
                  ],
                  "internalType": "struct LogStoreReportManager.Node[]",
                  "name": "nodes",
                  "type": "tuple[]"
                }
              ],
              "internalType": "struct LogStoreReportManager.Delegate[]",
              "name": "delegates",
              "type": "tuple[]"
            },
            {
              "components": [
                {
                  "internalType": "address",
                  "name": "id",
                  "type": "address"
                },
                {
                  "internalType": "uint256",
                  "name": "readCapture",
                  "type": "uint256"
                },
                {
                  "internalType": "uint256",
                  "name": "readBytes",
                  "type": "uint256"
                }
              ],
              "internalType": "struct LogStoreReportManager.Consumer[]",
              "name": "consumers",
              "type": "tuple[]"
            },
            {
              "internalType": "address",
              "name": "_reporter",
              "type": "address"
            },
            {
              "internalType": "bool",
              "name": "_processed",
              "type": "bool"
            }
          ],
          "internalType": "struct LogStoreReportManager.Report",
          "name": "",
          "type": "tuple"
        }
      ],
      "stateMutability": "view",
      "type": "function"
    },
    {
      "inputs": [],
      "name": "getReporters",
      "outputs": [
        {
          "internalType": "address[]",
          "name": "reporters",
          "type": "address[]"
        }
      ],
      "stateMutability": "view",
      "type": "function"
    },
    {
      "inputs": [
        {
          "internalType": "address",
          "name": "owner_",
          "type": "address"
        },
        {
          "internalType": "address",
          "name": "parent_",
          "type": "address"
        },
        {
          "internalType": "uint256",
          "name": "reportTimeBuffer_",
          "type": "uint256"
        },
        {
          "internalType": "uint256",
          "name": "__test_block_timestamp",
          "type": "uint256"
        }
      ],
      "name": "initialize",
      "outputs": [],
      "stateMutability": "nonpayable",
      "type": "function"
    },
    {
      "inputs": [],
      "name": "owner",
      "outputs": [
        {
          "internalType": "address",
          "name": "",
          "type": "address"
        }
      ],
      "stateMutability": "view",
      "type": "function"
    },
    {
      "inputs": [
        {
          "internalType": "string",
          "name": "id",
          "type": "string"
        }
      ],
      "name": "processReport",
      "outputs": [],
      "stateMutability": "nonpayable",
      "type": "function"
    },
    {
      "inputs": [],
      "name": "proxiableUUID",
      "outputs": [
        {
          "internalType": "bytes32",
          "name": "",
          "type": "bytes32"
        }
      ],
      "stateMutability": "view",
      "type": "function"
    },
    {
      "inputs": [
        {
          "internalType": "address[]",
          "name": "participants",
          "type": "address[]"
        },
        {
          "internalType": "address[]",
          "name": "totalMembers",
          "type": "address[]"
        }
      ],
      "name": "quorumIsMet",
      "outputs": [
        {
          "internalType": "bool",
          "name": "isMet",
          "type": "bool"
        }
      ],
      "stateMutability": "pure",
      "type": "function"
    },
    {
      "inputs": [],
      "name": "renounceOwnership",
      "outputs": [],
      "stateMutability": "nonpayable",
      "type": "function"
    },
    {
      "inputs": [
        {
          "internalType": "string",
          "name": "id",
          "type": "string"
        },
        {
          "internalType": "uint256",
          "name": "blockHeight",
          "type": "uint256"
        },
        {
          "internalType": "string[]",
          "name": "streams",
          "type": "string[]"
        },
        {
          "internalType": "uint256[]",
          "name": "writeCaptureAmounts",
          "type": "uint256[]"
        },
        {
          "internalType": "uint256[]",
          "name": "writeBytes",
          "type": "uint256[]"
        },
        {
          "internalType": "address[]",
          "name": "readConsumerAddresses",
          "type": "address[]"
        },
        {
          "internalType": "uint256[]",
          "name": "readCaptureAmounts",
          "type": "uint256[]"
        },
        {
          "internalType": "uint256[]",
          "name": "readBytes",
          "type": "uint256[]"
        },
        {
          "internalType": "address[]",
          "name": "nodes",
          "type": "address[]"
        },
        {
          "internalType": "int256[]",
          "name": "nodeChanges",
          "type": "int256[]"
        },
        {
          "internalType": "address[]",
          "name": "delegates",
          "type": "address[]"
        },
        {
          "internalType": "address[][]",
          "name": "delegateNodes",
          "type": "address[][]"
        },
        {
          "internalType": "int256[][]",
          "name": "delegateNodeChanges",
          "type": "int256[][]"
        },
        {
          "internalType": "int256",
          "name": "treasurySupplyChange",
          "type": "int256"
        },
        {
          "internalType": "address[]",
          "name": "addresses",
          "type": "address[]"
        },
        {
          "internalType": "uint256[]",
          "name": "proofTimestamps",
          "type": "uint256[]"
        },
        {
          "internalType": "bytes[]",
          "name": "signatures",
          "type": "bytes[]"
        }
      ],
      "name": "report",
      "outputs": [],
      "stateMutability": "nonpayable",
      "type": "function"
    },
    {
      "inputs": [],
      "name": "reportTimeBuffer",
      "outputs": [
        {
          "internalType": "uint256",
          "name": "",
          "type": "uint256"
        }
      ],
      "stateMutability": "view",
      "type": "function"
    },
    {
      "inputs": [
        {
          "internalType": "address",
          "name": "",
          "type": "address"
        }
      ],
      "name": "reputationOf",
      "outputs": [
        {
          "internalType": "uint256",
          "name": "",
          "type": "uint256"
        }
      ],
      "stateMutability": "view",
      "type": "function"
    },
    {
      "inputs": [
        {
          "internalType": "address",
          "name": "_parent",
          "type": "address"
        }
      ],
      "name": "setParent",
      "outputs": [],
      "stateMutability": "nonpayable",
      "type": "function"
    },
    {
      "inputs": [
        {
          "internalType": "uint256",
          "name": "_reportTimeBuffer",
          "type": "uint256"
        }
      ],
      "name": "setReportTimeBuffer",
      "outputs": [],
      "stateMutability": "nonpayable",
      "type": "function"
    },
    {
      "inputs": [
        {
          "internalType": "address",
          "name": "newOwner",
          "type": "address"
        }
      ],
      "name": "transferOwnership",
      "outputs": [],
      "stateMutability": "nonpayable",
      "type": "function"
    },
    {
      "inputs": [
        {
          "internalType": "address",
          "name": "newImplementation",
          "type": "address"
        }
      ],
      "name": "upgradeTo",
      "outputs": [],
      "stateMutability": "nonpayable",
      "type": "function"
    },
    {
      "inputs": [
        {
          "internalType": "address",
          "name": "newImplementation",
          "type": "address"
        },
        {
          "internalType": "bytes",
          "name": "data",
          "type": "bytes"
        }
      ],
      "name": "upgradeToAndCall",
      "outputs": [],
      "stateMutability": "payable",
      "type": "function"
    }
  ],
  "bytecode": "0x60a08060405234610031573060805261420690816100378239608051818181610ae101528181610bee0152610f300152f35b600080fdfe610600604052600436101561001357600080fd5b60003560e01c80630e0a171314612d1157806312e63d7114612acf5780631499c59214612a815780631bfdc98a146110fb57806331c74e01146110dd5780633659cfe614610f0b5780634f1ef28614610b9c57806352d1902d14610ac65780636f94990d14610aa557806370f4620214610a40578063715018a6146109e55780638da5cb5b146109be578063a5157b711461095d578063adb618321461093a578063d91b99e81461091a578063d9741473146107c4578063db89c0441461078a578063dbc2d3701461073c578063eb990c59146104a7578063eefa7a3e14610287578063f2fde38b146101f85763f6883c051461010f57600080fd5b346101f35760203660031901126101f35760043567ffffffffffffffff81116101f357610140903690600401612e61565b6001600160a01b03610101541633036101ae576020600792826040519384928337810160fe81520301902001740100000000000000000000000000000000000000007fffffffffffffffffffffff00ffffffffffffffffffffffffffffffffffffffff825416179055600080f35b60405162461bcd60e51b815260206004820152601060248201527f6572726f725f6f6e6c79506172656e74000000000000000000000000000000006044820152606490fd5b600080fd5b346101f35760203660031901126101f3576102116130f8565b61021961320b565b6001600160a01b038116156102335761023190613263565b005b60405162461bcd60e51b815260206004820152602660248201527f4f776e61626c653a206e6577206f776e657220697320746865207a65726f206160448201526564647265737360d01b6064820152608490fd5b346101f35760003660031901126101f3576102a0613506565b506102a9613690565b6040516102b581612d29565b6040516102cd816102c68186613584565b0382612d9a565b81526001808301549060209182840152600291828501546040850152600380860180546102f981612dbc565b916103076040519384612d9a565b81835260009081528481208685878087015b868610610465575050505050505060608601526103386004870161361a565b608086015260058601805461034c81612dbc565b9161035a6040519384612d9a565b81835260009081528481208688878087015b86861061042b575050505050505060a08601526006860180549261038f84612dbc565b9561039d6040519788612d9a565b8487526000928352818320908288015b8685106103ef5760c08a0189905260078b01546001600160a01b03811660e08c015260a01c60ff1615156101008b0152604051806103eb8c82612f1f565b0390f35b858489926040516103ff81612d46565b6001600160a01b03875416815284870154838201528587015460408201528152019301940193916103ad565b60405161043781612d62565b6001600160a01b03865416815261044f85870161361a565b838201528152019201920191908887899261036c565b60405161047181612d46565b604051610482816102c6818a613584565b815284860154838201528c860154604082015281520192019201919085878992610319565b346101f35760803660031901126101f3576104c06130f8565b6024908135916001600160a01b038084168094036101f35760443593606435946000549560ff8760081c16159687809861072f575b8015610718575b156106ae5760ff1981166001176000558761069c575b5061052d60ff60005460081c1661052881613494565b613494565b61053633613263565b61055460ff60005460081c1661054b81613494565b61052881613494565b600160c9556402540be40091828102908082048414901517156106875760fb556103e890818102918183041481151715610687576509184e72a0000291818304149015171561067257610102556105a961320b565b6001600160a01b0319906101018183825416179055610100918254161790556105d061320b565b82161561061f57506105e190613263565b6105e757005b61ff0019600054166000557f7f26b83ff96e1f2b6a682f133852f6798a09c465da95921460cefb3847402498602060405160018152a1005b60849060266040519162461bcd60e51b8352602060048401528201527f4f776e61626c653a206e6577206f776e657220697320746865207a65726f206160448201526564647265737360d01b6064820152fd5b83634e487b7160e01b60005260116004526000fd5b85634e487b7160e01b60005260116004526000fd5b61ffff19166101011760005587610512565b60405162461bcd60e51b815260206004820152602e818801527f496e697469616c697a61626c653a20636f6e747261637420697320616c72656160448201527f647920696e697469616c697a65640000000000000000000000000000000000006064820152608490fd5b50303b1580156104fc5750600160ff8216146104fc565b50600160ff8216106104f5565b346101f35760203660031901126101f35760043561075861320b565b6402540be400908181029181830414901517156107745760fb55005b634e487b7160e01b600052601160045260246000fd5b346101f35760203660031901126101f3576001600160a01b036107ab6130f8565b1660005260fc6020526020604060002054604051908152f35b346101f3576020806003193601126101f35760043567ffffffffffffffff81116101f3576107f782913690600401612e61565b9190826040519384928337810160ff8152030190209081549161081983612dbc565b926108276040519485612d9a565b8084528284018092600052836000206000915b8383106108c65750505050604051918083019381845251809452604083019360408160051b85010192916000955b8287106108755785850386f35b909192938280600192603f198982030185528751906001600160a01b0382511681526040806108b08585015160608088870152850190612eb2565b9301519101529601920196019592919092610868565b6003866001926040999899516108db81612d46565b6001600160a01b0386541681526040516108fb816102c681898b01613584565b838201526002860154604082015281520192019201919095949561083a565b346101f35760003660031901126101f35760206040516402540be4008152f35b346101f35760003660031901126101f3576020610955613e20565b604051908152f35b346101f35760403660031901126101f35767ffffffffffffffff6004358181116101f35761098f9036906004016131f0565b906024359081116101f3576020916109ae6109b49236906004016131f0565b90613cbb565b6040519015158152f35b346101f35760003660031901126101f35760206001600160a01b0360975416604051908152f35b346101f35760003660031901126101f3576109fe61320b565b60006001600160a01b036097546001600160a01b03198116609755167f8be0079c531659141344cd1fd0a4f28419497f9722a3daafe3b4186f6b6457e08280a3005b346101f35760003660031901126101f357610a59613788565b604051809160208083018184528251809152816040850193019160005b828110610a8557505050500390f35b83516001600160a01b031685528695509381019392810192600101610a76565b346101f35760206109b4610ab836612e22565b610ac0613788565b33613e5c565b346101f35760003660031901126101f3576001600160a01b037f0000000000000000000000000000000000000000000000000000000000000000163003610b315760206040517f360894a13ba1a3210667c828492db98dca3e2076cc3735a920a3ca505d382bbc8152f35b60405162461bcd60e51b815260206004820152603860248201527f555550535570677261646561626c653a206d757374206e6f742062652063616c60448201527f6c6564207468726f7567682064656c656761746563616c6c00000000000000006064820152608490fd5b60403660031901126101f357610bb06130f8565b60243567ffffffffffffffff81116101f357366023820112156101f357610be190369060248160040135910161315b565b906001600160a01b0391827f00000000000000000000000000000000000000000000000000000000000000001692610c1b843014156132ab565b610c4a7f360894a13ba1a3210667c828492db98dca3e2076cc3735a920a3ca505d382bbc94828654161461331d565b610c5261320b565b7f4910fdfa16fed3260ed0e7147f7cc6da11a60208b5b9406d12a635614ffd91435460ff1615610c88575050610231915061338f565b82919216604051936352d1902d60e01b85526020948581600481865afa60009181610edc575b50610d0f5760405162461bcd60e51b815260048101879052602e60248201527f45524331393637557067726164653a206e657720696d706c656d656e7461746960448201526d6f6e206973206e6f74205555505360901b6064820152608490fd5b03610e7157610d1d8261338f565b604051907fbc7cd75a20ee27fd9adebab32041f755214dbc6bffa90cc0225b39da2e5c2d3b600080a2825115801590610e69575b610d5757005b813b15610e0157506000828192856102319695519201905af43d15610df9573d90610d818261313f565b91610d8f6040519384612d9a565b82523d60008484013e5b7f416464726573733a206c6f772d6c6576656c2064656c65676174652063616c6c60405193610dc785612d46565b602785528401527f206661696c656400000000000000000000000000000000000000000000000000604084015261343d565b606090610d99565b62461bcd60e51b815260048101849052602660248201527f416464726573733a2064656c65676174652063616c6c20746f206e6f6e2d636f60448201527f6e747261637400000000000000000000000000000000000000000000000000006064820152608490fd5b506001610d51565b60405162461bcd60e51b815260048101859052602960248201527f45524331393637557067726164653a20756e737570706f727465642070726f7860448201527f6961626c655555494400000000000000000000000000000000000000000000006064820152608490fd5b9091508681813d8311610f04575b610ef48183612d9a565b810103126101f357519087610cae565b503d610eea565b346101f3576020806003193601126101f357610f256130f8565b6001600160a01b03807f000000000000000000000000000000000000000000000000000000000000000016610f5c813014156132ab565b610f8b7f360894a13ba1a3210667c828492db98dca3e2076cc3735a920a3ca505d382bbc91838354161461331d565b610f9361320b565b60405191610fa083612d7e565b600083527f4910fdfa16fed3260ed0e7147f7cc6da11a60208b5b9406d12a635614ffd91435460ff1615610fdb57505050610231915061338f565b83929316906040516352d1902d60e01b81528581600481865afa600091816110ae575b5061105f5760405162461bcd60e51b815260048101879052602e60248201527f45524331393637557067726164653a206e657720696d706c656d656e7461746960448201526d6f6e206973206e6f74205555505360901b6064820152608490fd5b03610e715761106d8261338f565b604051907fbc7cd75a20ee27fd9adebab32041f755214dbc6bffa90cc0225b39da2e5c2d3b600080a28251158015906110a657610d5757005b506000610d51565b9091508681813d83116110d6575b6110c68183612d9a565b810103126101f357519087610ffe565b503d6110bc565b346101f35760003660031901126101f357602060fb54604051908152f35b346101f3576102203660031901126101f35760043567ffffffffffffffff81116101f35761112d903690600401612e61565b610460526105405260443567ffffffffffffffff81116101f35761115590369060040161310e565b6105a0526105005260643567ffffffffffffffff81116101f35761117d90369060040161310e565b610520526102605260843567ffffffffffffffff81116101f3576111a590369060040161310e565b60c0526102205260a43567ffffffffffffffff81116101f3576111cc90369060040161310e565b610200526105c05260c43567ffffffffffffffff81116101f3576111f490369060040161310e565b906101e05260e43567ffffffffffffffff81116101f35761121990369060040161310e565b6102e0526101043567ffffffffffffffff81116101f35761123e90369060040161310e565b60e0526101a0526101243567ffffffffffffffff81116101f35761126690369060040161310e565b6102a0526101405267ffffffffffffffff61014435116101f357611290366101443560040161310e565b61034052610400526101643567ffffffffffffffff81116101f3576112b990369060040161310e565b6104a052610160526101843567ffffffffffffffff81116101f3576112e290369060040161310e565b6104c0526103a0526101c43567ffffffffffffffff81116101f35761130b90369060040161310e565b61048052610180526101e43567ffffffffffffffff81116101f35761133490369060040161310e565b6104e0526105e0526102043567ffffffffffffffff81116101f35761135d90369060040161310e565b6103605261024052602460206001600160a01b03610100541660405192838092630c2effa360e31b82523360048301525afa908115611ee357600091612a62575b5015612a1d5760ff60076040516104605161054051823760fe6104605182015260208161046051810103019020015460a01c166129d857436024351115806129c2575b1561297d576104805180600381020460031481151715610774576114169061141161036051916104e05190613767565b613767565b60036104805102036129385761144861142d613788565b8061010052611443366104805161018051613192565b613cbb565b156128f35761146b611461366104e0516105e051612dd4565b6101005133613e5c565b156128ae5760606103c0526114976114856105a051612dbc565b806103e0526040518061058052612d9a565b6105a0516105805152601f196114af6105a051612dbc565b0160005b81811061287d57505060005b6105a051808210156115e4579060406115616114e2836115df95610500516139ac565b92906114fe6114f88661052051610260516139ee565b35613f75565b60206115108760c051610220516139ee565b359161154c8551978895816103c0516115318151809289808d019101612e8f565b88019186830137019183830160008152815194859201612e8f565b01906020820152036020810184520182612d9a565b6103c052611576816105a051610500516139ac565b906115888361052051610260516139ee565b356115b261159c8560c051610220516139ee565b3592604051946115ab86612d46565b369161315b565b8352602083015260408201526115cb8261058051613774565b526115d98161058051613774565b50613739565b6114bf565b82846116076115f561020051612dbc565b80610420526040518061056052612d9a565b610200516105605152601f1961161f61020051612dbc565b0160005b81811061284e57505060005b6102005190818110156117555761165561165082611750946105c0516139ee565b6139fe565b6116dc605461166b6114f885886101e0516139ee565b611679856102e0518a6139ee565b35936040519485916103c0516116988151809260208088019101612e8f565b8301906bffffffffffffffffffffffff199060601b1660208201528351906116c98260349660208885019101612e8f565b0190838201520390810184520182612d9a565b6103c0526116f461165082610200516105c0516139ee565b61170282856101e0516139ee565b35611711836102e051886139ee565b35906001600160a01b036040519361172885612d46565b168352602083015260408201526117428261056051613774565b526115d98161056051613774565b61162f565b61176060e051613a12565b6101c05260005b60e051908181101561182f576117876116508261182a946101a0516139ee565b6117c96117a461179e846102a051610140516139ee565b35614110565b916117bb6040519384926103c05160208501613a73565b03601f198101835282612d9a565b6103c0526117e06116508260e0516101a0516139ee565b6117f1826102a051610140516139ee565b356001600160a01b036040519261180784612d62565b168252602082015261181c826101c051613774565b526115d9816101c051613774565b611767565b61185061183e61034051612dbc565b80610320526040518061044052612d9a565b610340516104405152601f1961186861034051612dbc565b0160005b818110612826576000610120525b610340516101205190811015611a7d576118a76118a06060926104a05161016051613ab9565b9050613a12565b6080526000905b6118c2610120516104a05161016051613ab9565b90508210156119925761198c906119216118f3611650856118ed610120516104a05161016051613ab9565b906139ee565b916117bb61191261179e876118ed610120516104c0516103a051613ab9565b60405194859360208501613a73565b9161193d611650826118ed610120516104a05161016051613ab9565b611955826118ed610120516104c0516103a051613ab9565b356001600160a01b036040519261196b84612d62565b168252602082015261197f82608051613774565b526115d981608051613774565b906118ae565b9050611a0b6119ae6116506101205161034051610400516139ee565b9160405180936103c0516119cb8151809260208087019101612e8f565b8201906bffffffffffffffffffffffff199060601b1660208201528251906119fc8260349560208785019101612e8f565b01036014810184520182612d9a565b6103c052611a266116506101205161034051610400516139ee565b6001600160a01b0360405191611a3b83612d62565b1681526080516020820152611a566101205161044051613774565b52611a676101205161044051613774565b50611a7461012051613739565b6101205261187a565b604051611a8981612d7e565b600081526040516104605161054051823760208161046051810160ff81520301902090805190600160401b8211611e6a57825482845580831061277b575b506020019160005260206000206000925b82841061275d5760006102c05260006103005261010051518060a052806402540be4008102046402540be4001490151715610774576000610380525b6101005151610380511015611eef57611b336040518061028052612d46565b60006102805152606060206102805101526000604061028051015260005b61048051811015611c0357611ba1906001600160a01b03611b786103805161010051613774565b51166001600160a01b03611b966116508461048051610180516139ee565b1614611ba657613739565b611b51565b6001600160a01b03611bc26116508361048051610180516139ee565b166102805152611bdc6115ab8261036051610240516139ac565b6020610280510152611bf5816104e0516105e0516139ee565b356040610280510152613739565b50611c106101a435614110565b6040610280510151611c826060604051809360208201956104605161054051883761046051830160243560208201526103c05190611c58825180936020604085019101612e8f565b01611c6d825180936020604085019101612e8f565b01906040820152036040810184520182612d9a565b51902060206102805191816001600160a01b0384511693015192611ccc60405194859384936301a86b5560e41b855260048501526024840152606060448401526064830190612eb2565b038173__$267c3dc7aa7d3fe2e28bda43a2ca27cd27$__5af48015611ee357600191600091611eb4575b50151503611e80576040516104605161054051823760208161046051810160ff8152030190208054600160401b811015611e6a5760018101808355811015611e5457611d52916000526020600020600361028051920201613b51565b611d5e61030051613755565b6103005261028051516001600160a01b0316338103611db357503360005260fc60205260406000208054600a8101811161077457600a01905560016102c0525b611daa61038051613739565b61038052611b14565b6102c051611e315750610280516001600160a01b0381511660005260fc9081602052600590816040600020541015600014611e165750905b6001600160a01b03610280515116600052602052611e0f6040600020918254613748565b9055611d9e565b6001600160a01b039150511660005260406000205490611deb565b60005260fc60205260406000208054600181018111610774576001019055611d9e565b634e487b7160e01b600052603260045260246000fd5b634e487b7160e01b600052604160045260246000fd5b6001600160a01b03611e9f6116506103805161048051610180516139ee565b1660005260fc60205260006040812055611d9e565b611ed6915060203d602011611edc575b611ece8183612d9a565b810190613994565b82611cf6565b503d611ec4565b6040513d6000823e3d90fd5b6402540be40060a0510260011c610300511061271857604051611f1181612d29565b611f7f6020611f2736610460516105405161315b565b808452602435828501526101a43560408501526105805160608501526101c05160808501526104405160a08501526105605160c08501523360e085015260006101008501528160405193828580945193849201612e8f565b810160fe81520301902090805191825167ffffffffffffffff8111611e6a57611fb281611fac845461354a565b84613b15565b6020601f82116001146126b057819293946000926126a5575b50508160011b916000199060031b1c19161781555b60208201516001820155604082015160028201556060820151805190600160401b8211611e6a5760038301548260038501558083106125fa575b50602001906003830160005260206000206000925b8284106125025785856004810160808301519060208251926120518484613c53565b019060005260206000206000915b8383106124cc57858560a0820151805190600160401b8211611e6a576005830154826005850155808310612424575b506020016005830160005260206000206000915b83831061238c57858560c0820151805190600160401b8211611e6a576006830154826006850155808310612333575b506020016006830160005260206000206000915b8383106122f35785600786016001600160a01b0360e0830151168154907fffffffffffffffffffffff00000000000000000000000000000000000000000074ff0000000000000000000000000000000000000000610100860151151560a01b16921617179055805180519067ffffffffffffffff8211611e6a5761216a60fd5461354a565b601f8111612299575b50602090601f83116001146121ee5791807fc53a4e1db72f8c6fde77b85b4cc21a59f9896e9d7285f890075356dbd528d1cd94926121de946000926121e3575b50508160011b916000199060031b1c19161760fd555b51604051918291602083526020830190612eb2565b0390a1005b0151905085806121b3565b90601f1983169160fd6000527f9346ac6dd7de6b96975fec380d4d994c4c12e6a8897544f22915316cc6cca2809260005b81811061228157509260019285926121de967fc53a4e1db72f8c6fde77b85b4cc21a59f9896e9d7285f890075356dbd528d1cd989610612268575b505050811b0160fd556121c9565b015160001960f88460031b161c1916905585808061225a565b9293602060018192878601518155019501930161221f565b6122e39060fd6000527f9346ac6dd7de6b96975fec380d4d994c4c12e6a8897544f22915316cc6cca280601f850160051c810191602086106122e9575b601f0160051c0190613afe565b83612173565b90915081906122d6565b60036020826040600194516001600160a01b038151166001600160a01b0319885416178755838101518688015501516002860155019201920191906120e5565b6003818102048103610774576003838102048303610774576006840160005260206000208360030281015b82600302820181106123715750506120d1565b8060006003925560006001820155600060028201550161235e565b80516001600160a01b038151166001600160a01b03198454161783556020600184019101519060208251926123c18484613c53565b01906000526020600020906000905b8382106123ee575050505060026020600192019201920191906120a2565b600260208281600194516001600160a01b038151166001600160a01b0319895416178855015184870155019301910190916123d0565b6001600160ff1b0381168103610774576001600160ff1b0383168303610774576005840160005260206000208360011b81015b8260011b8201811061246a57505061208e565b6000815560018101546000600183015580612489575b50600201612457565b6001600160ff1b0381168103610774576001820160005260206000209060011b8101905b8181106124ba5750612480565b600080825560018201556002016124ad565b600260208281600194516001600160a01b038151166001600160a01b03198854161787550151848601550192019201919061205f565b8051805180519067ffffffffffffffff8211611e6a5761252c82612526875461354a565b87613b15565b602090601f831160011461258857600393836020946001979460409460009261257d575b505060001982881b1c191690871b1787555b8381015186880155015160028601550192019301929061202f565b015190508d80612550565b908560005260206000209160005b601f19851681106125e2575093600184819794604094600398602098601f198116106125ca575b505050811b018755612562565b0151600019838a1b60f8161c191690558d80806125bd565b91926020600181928685015181550194019201612596565b6003818102048103610774576003838102048303610774576003840160005260206000208360030281015b826003028201811061263857505061201a565b806126456003925461354a565b80612660575b50600060018201556000600282015501612625565b601f81116001146126775750600081555b8861264b565b61269690826000526001601f6020600020920160051c82019101613afe565b60006020812081835555612671565b015190508480611fcb565b8260005260206000209060005b601f19841681106127005750600193949583601f198116106126e7575b505050811b018155611fe0565b015160001960f88460031b161c191690558480806126da565b9091602060018192858a0151815501930191016126bd565b60405162461bcd60e51b815260206004820152601560248201527f6572726f725f636f6e73656e7375734e6f744d657400000000000000000000006044820152606490fd5b600360208261276f6001945186613b51565b01920193019290611ad8565b6003818102048103610774576003838102048303610774578360005260206000208360030281015b82600302820181106127b6575050611ac7565b8060006003925560018082016127cc815461354a565b91826127e3575b50505060006002820155016127a3565b600092601f9182821160011461280057505050555b8780806127d3565b6128199284865260208620920160051c82019101613afe565b81602081209155556127f8565b60209060405161283581612d62565b600081526060838201528282610440510101520161186c565b60209060405161285d81612d46565b600081526000838201526000604082015282826105605101015201611623565b60209060405161288c81612d46565b6103c051815260008382015260006040820152828261058051010152016114b3565b60405162461bcd60e51b815260206004820152601560248201527f6572726f725f696e76616c69645265706f7274657200000000000000000000006044820152606490fd5b60405162461bcd60e51b815260206004820152601260248201527f6572726f725f71756f72756d4e6f744d657400000000000000000000000000006044820152606490fd5b60405162461bcd60e51b815260206004820152601360248201527f6572726f725f696e76616c696450726f6f6673000000000000000000000000006044820152606490fd5b60405162461bcd60e51b815260206004820152601360248201527f6572726f725f696e76616c69645265706f7274000000000000000000000000006044820152606490fd5b5060016129cd613690565b0154602435116113e1565b60405162461bcd60e51b815260206004820152601c60248201527f6572726f725f7265706f7274416c726561647950726f636573736564000000006044820152606490fd5b60405162461bcd60e51b815260206004820152601360248201527f6572726f725f7374616b655265717569726564000000000000000000000000006044820152606490fd5b612a7b915060203d602011611edc57611ece8183612d9a565b8361139e565b346101f35760203660031901126101f3576001600160a01b03612aa26130f8565b612aaa61320b565b166001600160a01b031990610101818382541617905561010091825416179055600080f35b346101f3576020806003193601126101f35760043567ffffffffffffffff81116101f357612b0282913690600401612e61565b9190612b0c613506565b50826040519384928337810160fe8152030190209060405190612b2e82612d29565b604051612b3f816102c68187613584565b82526001808401548284015260029182850154604085015260038086018054612b6781612dbc565b91612b756040519384612d9a565b81835260009081528481208685878087015b868610612ccf57505050505050506060860152612ba66004870161361a565b6080860152600586018054612bba81612dbc565b91612bc86040519384612d9a565b81835260009081528481208688878087015b868610612c95575050505050505060a086015260068601805492612bfd84612dbc565b95612c0b6040519788612d9a565b8487526000928352818320908288015b868510612c595760c08a0189905260078b01546001600160a01b03811660e08c015260a01c60ff1615156101008b0152604051806103eb8c82612f1f565b85848992604051612c6981612d46565b6001600160a01b0387541681528487015483820152858701546040820152815201930194019391612c1b565b604051612ca181612d62565b6001600160a01b038654168152612cb985870161361a565b8382015281520192019201919088878992612bda565b604051612cdb81612d46565b604051612cec816102c6818a613584565b815284860154838201528c860154604082015281520192019201919085878992612b87565b346101f3576020610955612d2436612e22565b613db0565b610120810190811067ffffffffffffffff821117611e6a57604052565b6060810190811067ffffffffffffffff821117611e6a57604052565b6040810190811067ffffffffffffffff821117611e6a57604052565b6020810190811067ffffffffffffffff821117611e6a57604052565b90601f8019910116810190811067ffffffffffffffff821117611e6a57604052565b67ffffffffffffffff8111611e6a5760051b60200190565b9291612ddf82612dbc565b91612ded6040519384612d9a565b829481845260208094019160051b81019283116101f357905b828210612e135750505050565b81358152908301908301612e06565b60206003198201126101f3576004359067ffffffffffffffff82116101f357806023830112156101f357816024612e5e93600401359101612dd4565b90565b9181601f840112156101f35782359167ffffffffffffffff83116101f357602083818601950101116101f357565b60005b838110612ea25750506000910152565b8181015183820152602001612e92565b90602091612ecb81518092818552858086019101612e8f565b601f01601f1916010190565b90815180825260208080930193019160005b828110612ef7575050505090565b835180516001600160a01b031686528201518583015260409094019392810192600101612ee9565b602091828252805190612f3f610120928386860152610140850190612eb2565b93808201516040908186015280830151916060928387015282840151601f19978888820301608089015281518082528382019184808360051b8301019401926000915b888d8585106130ad5750505050505050612faa906080860151898983030160a08a0152612ed7565b9160a085015192888882030160c089015283518082528382019184808360051b8301019601926000915b8c8484106130605750505050505060c0850151978784030160e08801528180895194858152019801936000915b84831061302f575050505050506001600160a01b0360e0820151169061010091828501520151151591015290565b855180516001600160a01b03168b52808501518b8601528101518a8201529881019894830194600190920191613001565b96806130998a89838a9e9b9c9a8798999a9b829f9860019903018a52516001600160a01b03815116845201519181858201520190612ed7565b9a0193019301919392909796959497612fd4565b9780999891888293856001969798999a9b030187528a806130d88c5194855190808652850190612eb2565b938581015186850152015191015297019301930191939290969596612f82565b600435906001600160a01b03821682036101f357565b9181601f840112156101f35782359167ffffffffffffffff83116101f3576020808501948460051b0101116101f357565b67ffffffffffffffff8111611e6a57601f01601f191660200190565b9291926131678261313f565b916131756040519384612d9a565b8294818452818301116101f3578281602093846000960137010152565b929161319d82612dbc565b916131ab6040519384612d9a565b829481845260208094019160051b81019283116101f357905b8282106131d15750505050565b81356001600160a01b03811681036101f35781529083019083016131c4565b9080601f830112156101f357816020612e5e93359101613192565b6001600160a01b0360975416330361321f57565b606460405162461bcd60e51b815260206004820152602060248201527f4f776e61626c653a2063616c6c6572206973206e6f7420746865206f776e65726044820152fd5b609754906001600160a01b0380911691826001600160a01b0319821617609755167f8be0079c531659141344cd1fd0a4f28419497f9722a3daafe3b4186f6b6457e0600080a3565b156132b257565b60405162461bcd60e51b815260206004820152602c60248201527f46756e6374696f6e206d7573742062652063616c6c6564207468726f7567682060448201527f64656c656761746563616c6c00000000000000000000000000000000000000006064820152608490fd5b1561332457565b60405162461bcd60e51b815260206004820152602c60248201527f46756e6374696f6e206d7573742062652063616c6c6564207468726f7567682060448201527f6163746976652070726f787900000000000000000000000000000000000000006064820152608490fd5b803b156133d2576001600160a01b037f360894a13ba1a3210667c828492db98dca3e2076cc3735a920a3ca505d382bbc91166001600160a01b0319825416179055565b60405162461bcd60e51b815260206004820152602d60248201527f455243313936373a206e657720696d706c656d656e746174696f6e206973206e60448201527f6f74206120636f6e7472616374000000000000000000000000000000000000006064820152608490fd5b90919015613449575090565b8151156134595750805190602001fd5b60405162461bcd60e51b81526020600482015290819061347d906024830190612eb2565b0390fd5b8181029291811591840414171561077457565b1561349b57565b60405162461bcd60e51b815260206004820152602b60248201527f496e697469616c697a61626c653a20636f6e7472616374206973206e6f74206960448201527f6e697469616c697a696e670000000000000000000000000000000000000000006064820152608490fd5b6040519061351382612d29565b600061010083606080825283602083015283604083015280808301528060808301528060a083015260c08201528260e08201520152565b90600182811c9216801561357a575b602083101461356457565b634e487b7160e01b600052602260045260246000fd5b91607f1691613559565b90600092918054916135958361354a565b9182825260019384811690816000146135f757506001146135b7575b50505050565b90919394506000526020928360002092846000945b8386106135e35750505050010190388080806135b1565b8054858701830152940193859082016135cc565b9294505050602093945060ff191683830152151560051b010190388080806135b1565b90815461362681612dbc565b9260409361363685519182612d9a565b828152809460208092019260005281600020906000935b85851061365c57505050505050565b600284600192845161366d81612d62565b6001600160a01b038754168152848701548382015281520193019401939161364d565b60405160fd548160006136a28361354a565b9260019081811690811561371f57506001146136c9575b506020925060fe81520301902090565b60fd600090815291507f9346ac6dd7de6b96975fec380d4d994c4c12e6a8897544f22915316cc6cca2805b848310613709575050506020918101386136b9565b80548684015285935060209092019181016136f4565b60ff191684525060209380151502830191503890506136b9565b60001981146107745760010190565b9190820391821161077457565b906402540be400820180921161077457565b9190820180921161077457565b8051821015611e545760209160051b010190565b6001600160a01b03908161010054169160408051808095636085a91160e11b8252600091829160049889915afa9182156139885781926138dd575b50818251958291600019918289019189831191825b6138ca57838610156138bc57865b6137f0878d613748565b86810190811161388e578110156138a2576001810180821161388e579089828d8b8e826138206138519887613774565b5116825260fc602081815282842054938561383b8a8a613774565b51169052528d205410613856575b505050613739565b6137e6565b806138718561387a936138698688613774565b511695613774565b5116918d613774565b52613885828c613774565b5289388d613849565b50634e487b7160e01b885260118d52602488fd5b5091946138b190939193613739565b9491829391936137d8565b995099505050505050505050565b634e487b7160e01b875260118c52602487fd5b9091503d8083833e6138ef8183612d9a565b81019060209081818403126139805780519067ffffffffffffffff821161398457019180601f8401121561398057825161392881612dbc565b9361393587519586612d9a565b818552838086019260051b82010192831161397c578301905b828210613960575050505090386137c3565b8151888116810361397857815290830190830161394e565b8680fd5b8580fd5b8380fd5b8480fd5b508251903d90823e3d90fd5b908160209103126101f3575180151581036101f35790565b9190811015611e545760051b81013590601e19813603018212156101f357019081359167ffffffffffffffff83116101f35760200182360381136101f3579190565b9190811015611e545760051b0190565b356001600160a01b03811681036101f35790565b90613a1c82612dbc565b604090613a2b82519182612d9a565b8381528093613a3c601f1991612dbc565b0191600090815b848110613a51575050505050565b6020908251613a5f81612d62565b848152828581830152828701015201613a43565b602090613a8a601495949382815194859201612e8f565b01906bffffffffffffffffffffffff199060601b168152613ab48251809360208685019101612e8f565b010190565b9190811015611e545760051b81013590601e19813603018212156101f357019081359167ffffffffffffffff83116101f3576020018260051b360381136101f3579190565b818110613b09575050565b60008155600101613afe565b9190601f8111613b2457505050565b613b4f926000526020600020906020601f840160051c830193106122e957601f0160051c0190613afe565b565b906001600160a01b038151166001600160a01b03198354161782556001908183016020808301519384519167ffffffffffffffff8311611e6a57613b9f83613b99865461354a565b86613b15565b80601f8411600114613be45750918080926040969594600298600094613bd9575b50501b916000199060031b1c19161790555b0151910155565b015192503880613bc0565b91939495601f1984168660005283600020936000905b828210613c3c5750509160029795939185604098969410613c23575b505050811b019055613bd2565b015160001960f88460031b161c19169055388080613c16565b808886978294978701518155019601940190613bfa565b600160401b8211611e6a578054828255808310613c6f57505050565b6001600160ff1b038082168203610774578316830361077457600091825260208220600191821b810193821b015b838110613caa5750505050565b808360029255838382015501613c9d565b91906000926000808351926402540be40093848102948186041490151715613d9c5760019695948794851c9380985b613cfa575b505050505050909150565b8151891015613d97578581815b613d3f575b505084841015613d2a57613d2286979899613739565b989796613cea565b50505050509150915081388080808080613cef565b8451811015613d92576001600160a01b0380613d5b8d87613774565b511690613d688388613774565b511614613d7e57613d7890613739565b81613d07565b505092613d8a90613755565b928538613d0c565b613d0c565b613cef565b634e487b7160e01b83526011600452602483fd5b90600091825b8151841015613dfb57613dc98483613774565b51906402540be4009182810292818404149015171561077457613df591613def91613767565b93613739565b92613db6565b91925051908115613e0a570490565b634e487b7160e01b600052601260045260246000fd5b6101025480612e5e57506103e8804202904282041442151715610774576509184e72a0004202908082046402540be40014901517156107745790565b92919092600091613e6e600091613db0565b94613e77613e20565b9260fb5490613e87835183613481565b97845b6001810190818111613f6157613ea4836114118d85613481565b8810613eb05750613e8a565b611411915099613ec6939495969798999a613481565b92845b8151811015613f57576001600160a01b0380613ee58385613774565b511690841614613efd57613ef890613739565b613ec9565b9293949596505050613f13836114118484613481565b9360018201809211613f435750613f2e929161141191613481565b908210159182613f3d57505090565b10905090565b634e487b7160e01b81526011600452602490fd5b5050505050505090565b634e487b7160e01b87526011600452602487fd5b806000908260801c80614104575b508060401c806140f7575b5060209181831c806140ec575b5060109180831c806140df575b5060081c6140d7575b6001809101939184821b946001600160ff1b0381160361077457600285019485811161077457613ff9613fe38761313f565b96613ff16040519889612d9a565b80885261313f565b86860190601f1901368237865115611e5457603090538551831015611e5457607860218701538281018091116107745791905b8183116140815750505061403e575090565b6064906040519062461bcd60e51b825280600483015260248201527f537472696e67733a20686578206c656e67746820696e73756666696369656e746044820152fd5b909192600f811682811015611e54578651851015611e54577f3031323334353637383961626364656600000000000000000000000000000000901a85858801015360041c9280156107745760001901919061402c565b600101613fb1565b6002915091019038613fa8565b915060040138613f9b565b6008915091019038613f8e565b91505060109038613f83565b60008082129190821561418b5761414c612e5e9260209260405161413381612d62565b60018152602d60f81b85820152955b6141855750613f75565b9260405193816141658693518092868087019101612e8f565b820161417982518093868085019101612e8f565b01038084520182612d9a565b03613f75565b6040516020810181811067ffffffffffffffff8211176141bc5760405281815292612e5e9260209261414c92614142565b634e487b7160e01b83526041600452602483fdfea264697066735822122021db169403dab40c11816939adc6e310b96a6d9da2333dae5fb7aba84bfe444d64736f6c63430008110033",
  "linkReferences": {
    "src/lib/VerifySignature.sol": {
      "VerifySignature": [
        {
          "length": 20,
          "start": 7431
        }
      ]
    }
  },
  "deployedLinkReferences": {
    "src/lib/VerifySignature.sol": {
      "VerifySignature": [
        {
          "length": 20,
          "start": 7376
        }
      ]
    }
  }
}