{
  "_format": "hh-sol-artifact-1",
  "contractName": "LogStoreManager",
  "sourceName": "src/StoreManager.sol",
  "abi": [
    {
      "anonymous": false,
      "inputs": [
        {
          "indexed": false,
          "internalType": "address",
          "name": "previousAdmin",
          "type": "address"
        },
        {
          "indexed": false,
          "internalType": "address",
          "name": "newAdmin",
          "type": "address"
        }
      ],
      "name": "AdminChanged",
      "type": "event"
    },
    {
      "anonymous": false,
      "inputs": [
        {
          "indexed": true,
          "internalType": "address",
          "name": "beacon",
          "type": "address"
        }
      ],
      "name": "BeaconUpgraded",
      "type": "event"
    },
    {
      "anonymous": false,
      "inputs": [
        {
          "indexed": false,
          "internalType": "string",
          "name": "store",
          "type": "string"
        },
        {
          "indexed": false,
          "internalType": "uint256",
          "name": "fees",
          "type": "uint256"
        },
        {
          "indexed": false,
          "internalType": "uint256",
          "name": "bytesStored",
          "type": "uint256"
        }
      ],
      "name": "DataStored",
      "type": "event"
    },
    {
      "anonymous": false,
      "inputs": [
        {
          "indexed": false,
          "internalType": "uint8",
          "name": "version",
          "type": "uint8"
        }
      ],
      "name": "Initialized",
      "type": "event"
    },
    {
      "anonymous": false,
      "inputs": [
        {
          "indexed": true,
          "internalType": "address",
          "name": "previousOwner",
          "type": "address"
        },
        {
          "indexed": true,
          "internalType": "address",
          "name": "newOwner",
          "type": "address"
        }
      ],
      "name": "OwnershipTransferred",
      "type": "event"
    },
    {
      "anonymous": false,
      "inputs": [
        {
          "indexed": false,
          "internalType": "string",
          "name": "store",
          "type": "string"
        },
        {
          "indexed": false,
          "internalType": "bool",
          "name": "isNew",
          "type": "bool"
        },
        {
          "indexed": false,
          "internalType": "uint256",
          "name": "amount",
          "type": "uint256"
        }
      ],
      "name": "StoreUpdated",
      "type": "event"
    },
    {
      "anonymous": false,
      "inputs": [
        {
          "indexed": true,
          "internalType": "address",
          "name": "implementation",
          "type": "address"
        }
      ],
      "name": "Upgraded",
      "type": "event"
    },
    {
      "inputs": [
        {
          "internalType": "address",
          "name": "",
          "type": "address"
        }
      ],
      "name": "balanceOf",
      "outputs": [
        {
          "internalType": "uint256",
          "name": "",
          "type": "uint256"
        }
      ],
      "stateMutability": "view",
      "type": "function"
    },
    {
      "inputs": [
        {
          "internalType": "string",
          "name": "streamId",
          "type": "string"
        },
        {
          "internalType": "uint256",
          "name": "amount",
          "type": "uint256"
        },
        {
          "internalType": "uint256",
          "name": "bytesStored",
          "type": "uint256"
        }
      ],
      "name": "capture",
      "outputs": [
        {
          "internalType": "bool",
          "name": "success",
          "type": "bool"
        }
      ],
      "stateMutability": "nonpayable",
      "type": "function"
    },
    {
      "inputs": [
        {
          "internalType": "string",
          "name": "streamId",
          "type": "string"
        }
      ],
      "name": "exists",
      "outputs": [
        {
          "internalType": "bool",
          "name": "",
          "type": "bool"
        }
      ],
      "stateMutability": "view",
      "type": "function"
    },
    {
      "inputs": [
        {
          "internalType": "address",
          "name": "owner_",
          "type": "address"
        },
        {
          "internalType": "address",
          "name": "stakeTokenAddress_",
          "type": "address"
        },
        {
          "internalType": "address",
          "name": "streamrRegistryAddress_",
          "type": "address"
        }
      ],
      "name": "initialize",
      "outputs": [],
      "stateMutability": "nonpayable",
      "type": "function"
    },
    {
      "inputs": [],
      "name": "owner",
      "outputs": [
        {
          "internalType": "address",
          "name": "",
          "type": "address"
        }
      ],
      "stateMutability": "view",
      "type": "function"
    },
    {
      "inputs": [],
      "name": "proxiableUUID",
      "outputs": [
        {
          "internalType": "bytes32",
          "name": "",
          "type": "bytes32"
        }
      ],
      "stateMutability": "view",
      "type": "function"
    },
    {
      "inputs": [],
      "name": "renounceOwnership",
      "outputs": [],
      "stateMutability": "nonpayable",
      "type": "function"
    },
    {
      "inputs": [
        {
          "internalType": "string",
          "name": "streamId",
          "type": "string"
        },
        {
          "internalType": "uint256",
          "name": "amount",
          "type": "uint256"
        }
      ],
      "name": "stake",
      "outputs": [],
      "stateMutability": "nonpayable",
      "type": "function"
    },
    {
      "inputs": [],
      "name": "stakeTokenAddress",
      "outputs": [
        {
          "internalType": "address",
          "name": "",
          "type": "address"
        }
      ],
      "stateMutability": "view",
      "type": "function"
    },
    {
      "inputs": [
        {
          "internalType": "address",
          "name": "",
          "type": "address"
        },
        {
          "internalType": "string",
          "name": "",
          "type": "string"
        }
      ],
      "name": "storeBalanceOf",
      "outputs": [
        {
          "internalType": "uint256",
          "name": "",
          "type": "uint256"
        }
      ],
      "stateMutability": "view",
      "type": "function"
    },
    {
      "inputs": [
        {
          "internalType": "string",
          "name": "",
          "type": "string"
        },
        {
          "internalType": "uint256",
          "name": "",
          "type": "uint256"
        }
      ],
      "name": "storeStakeholders",
      "outputs": [
        {
          "internalType": "address",
          "name": "",
          "type": "address"
        }
      ],
      "stateMutability": "view",
      "type": "function"
    },
    {
      "inputs": [
        {
          "internalType": "string",
          "name": "",
          "type": "string"
        }
      ],
      "name": "stores",
      "outputs": [
        {
          "internalType": "uint256",
          "name": "",
          "type": "uint256"
        }
      ],
      "stateMutability": "view",
      "type": "function"
    },
    {
      "inputs": [],
      "name": "totalSupply",
      "outputs": [
        {
          "internalType": "uint256",
          "name": "",
          "type": "uint256"
        }
      ],
      "stateMutability": "view",
      "type": "function"
    },
    {
      "inputs": [
        {
          "internalType": "address",
          "name": "newOwner",
          "type": "address"
        }
      ],
      "name": "transferOwnership",
      "outputs": [],
      "stateMutability": "nonpayable",
      "type": "function"
    },
    {
      "inputs": [
        {
          "internalType": "address",
          "name": "newImplementation",
          "type": "address"
        }
      ],
      "name": "upgradeTo",
      "outputs": [],
      "stateMutability": "nonpayable",
      "type": "function"
    },
    {
      "inputs": [
        {
          "internalType": "address",
          "name": "newImplementation",
          "type": "address"
        },
        {
          "internalType": "bytes",
          "name": "data",
          "type": "bytes"
        }
      ],
      "name": "upgradeToAndCall",
      "outputs": [],
      "stateMutability": "payable",
      "type": "function"
    }
  ],
  "bytecode": "0x60a080604052346100315730608052611a7390816100378239608051818181610e1c01528181610f2701526112740152f35b600080fdfe6080604081815260048036101561001557600080fd5b600092833560e01c9081630106395f146114b55750806318160ddd14611496578063261a323e1461142a5780633659cfe6146112495780634f1ef28614610ed357806352d1902d14610dff5780636115063a14610d9d57806370a0823114610d66578063715018a614610d0b5780638da5cb5b14610ce35780639494c8ae146109ec5780639ac0e98b1461049f578063baa2f7801461043a578063c0c53b8b146101c7578063ed231297146101675763f2fde38b146100d357600080fd5b34610163576020366003190112610163576100ec6114da565b916100f561167f565b6001600160a01b03831615610111578361010e846116d7565b80f35b906020608492519162461bcd60e51b8352820152602660248201527f4f776e61626c653a206e6577206f776e657220697320746865207a65726f206160448201526564647265737360d01b6064820152fd5b8280fd5b5091346101c45760203660031901126101c45782359067ffffffffffffffff82116101c4575060206101a081946101b2933691016115b8565b81845193828580945193849201611608565b810160fd815203019020549051908152f35b80fd5b5034610163576060366003190112610163576101e16114da565b602435916001600160a01b0380841680940361043657604435938185168095036104325786549460ff8660081c161595868097610425575b801561040e575b156103a55760ff198116600117895586610394575b5061024f60ff895460081c1661024a8161191a565b61191a565b610258336116d7565b61027560ff895460081c1661026c8161191a565b61024a8161191a565b600160c9558115610351576001600160a01b0319906101029082825416179055610101828282541617905560fc54161760fc556102b061167f565b8216156102ff57506102c1906116d7565b6102c9575080f35b60207f7f26b83ff96e1f2b6a682f133852f6798a09c465da95921460cefb38474024989161ff001984541684555160018152a180f35b608490602085519162461bcd60e51b8352820152602660248201527f4f776e61626c653a206e6577206f776e657220697320746865207a65726f206160448201526564647265737360d01b6064820152fd5b865162461bcd60e51b8152602081860152601460248201527f6572726f725f626164547261636b6572446174610000000000000000000000006044820152606490fd5b61ffff191661010117885538610235565b875162461bcd60e51b8152602081870152602e60248201527f496e697469616c697a61626c653a20636f6e747261637420697320616c72656160448201527f647920696e697469616c697a65640000000000000000000000000000000000006064820152608490fd5b50303b1580156102205750600160ff821614610220565b50600160ff821610610219565b8680fd5b8580fd5b50346101635781600319360112610163576104536114da565b9060243567ffffffffffffffff811161049b576020946001600160a01b03610483610493959487943691016115b8565b931681526101008652209061162b565b549051908152f35b8480fd5b509190346109d35760603660031901126109d35767ffffffffffffffff83358181116109e8576104d290369086016115b8565b916024938435926001600160a01b039687610101541692845180946370a0823160e01b82523084830152818a60209788935afa9081156109de5782916109ad575b50861161096b578451928751938581818b019661053181838a611608565b810160fe815203019020928a8751809586918982549182815201918752898720938a88915b83831061094a575050505061056d92500385611543565b825b8451811015610798578b61058382876119b1565b51168085528a896105b38a8a610100948583526105a2858c208261162b565b549451938492839251928391611608565b810160fd8152030190205490811561078657048b8102908082048d14901517156107745761060c6106048e858a5260ff8d528d8a206105f38582546119c5565b9055858a52848d528d8a209061162b565b9182546119c5565b9055818652885261061f8986208c61162b565b5415610635575b506106309061198c565b61056f565b989193909a928a61066089898c519361064d856114f5565b8685528d51938492839251928391611608565b810160fe81520301902081519183831161076257680100000000000000008311610762578f908b90835485855580861061073d575b50019185528a8520908b865b85811061072957505050505050815b8d875182101561071757908c8c8c8c8c836106e2976106d08f89906119b1565b5116036106e7575b505050505061198c565b6106b0565b61070d946106fe9351938492839251928391611608565b810160fe8152030190206119d2565b8c8c8c8c8c6106d8565b5050929a610630919492995090610626565b8451831684820155938101936001016106a1565b8488528583892091820191015b8181106107575750610695565b88815560010161074a565b634e487b7160e01b8552604188528685fd5b634e487b7160e01b8752601185528d87fd5b634e487b7160e01b8852601286528e88fd5b50949992505091959493958651898188516107b4818387611608565b810160fd81520301902054156109085782916107dc8a80938a51809381928c51928391611608565b810160fd8152030190206107f18782546119c5565b90556107ff8660fb546119c5565b60fb556101015416604488518094819363a9059cbb60e01b83523389840152898d8401525af19182156108fd57916108d0575b501515946001860361088e5750507f73a7f4c8f8a797ce166d69942684145ae0987b01644d3ef8ffd387969819d40f916108799184519283926060845260608401906118f5565b9087830152604435858301520390a151908152f35b845162461bcd60e51b81529182018790526019908201527f6572726f725f756e7375636365737366756c43617074757265000000000000006044820152606490fd5b6108f09150873d89116108f6575b6108e88183611543565b810190611a18565b38610832565b503d6108de565b8651903d90823e3d90fd5b865162461bcd60e51b81528085018a90526015818a01527f6572726f725f696e76616c696453747265616d496400000000000000000000006044820152606490fd5b600193955093839294875416815201940191019187928f8b90959395610556565b845162461bcd60e51b81528083018590526014818a01527f6572726f725f6e6f74456e6f7567685374616b650000000000000000000000006044820152606490fd5b90508481813d83116109d7575b6109c48183611543565b810103126109d3575138610513565b5080fd5b503d6109ba565b86513d84823e3d90fd5b8380fd5b5034610163576109fb366115d6565b90926001600160a01b0392836101025416938251809563130d191f60e11b8252602096879182868301528180610a34602482018d6118f5565b03915afa908115610cd9578891610cbc575b5015610c7a578315610c3857848791610101541660648551809481936323b872dd60e01b835233888401523060248401528960448401525af1908115610c2e57906001918891610c11575b50151503610bd05750917f71a18d400e8f2654aebe2b0998654bbfb6769cad471c06b8141cfe473c3bb2af9391610b889386928151855190828181890193610ada818387611608565b810160fd8152030190205415610bc7575b825182818851610afc818387611608565b810160fd815203019020610b11858254611a30565b905533895260ff8252828920610b28858254611a30565b905533895261010090818352610b40848b208861162b565b5415610b98575b503389528152610b598289208661162b565b610b64848254611a30565b9055610b728360fb54611a30565b60fb5581519586956060875260608701906118f5565b931515908501528301520390a180f35b83518751610bc192610bad9082908490611608565b81019060fe825284813393030190206119d2565b38610b47565b60019450610aeb565b83606492519162461bcd60e51b8352820152601760248201527f6572726f725f756e7375636365737366756c5374616b650000000000000000006044820152fd5b610c289150863d88116108f6576108e88183611543565b38610a91565b83513d89823e3d90fd5b5083606492519162461bcd60e51b8352820152601760248201527f6572726f725f696e73756666696369656e745374616b650000000000000000006044820152fd5b5083606492519162461bcd60e51b8352820152601360248201527f6572726f725f696e76616c696453747265616d000000000000000000000000006044820152fd5b610cd39150863d88116108f6576108e88183611543565b38610a46565b84513d8a823e3d90fd5b5050346109d357816003193601126109d3576020906001600160a01b03609754169051908152f35b83346101c457806003193601126101c457610d2461167f565b806001600160a01b036097546001600160a01b03198116609755167f8be0079c531659141344cd1fd0a4f28419497f9722a3daafe3b4186f6b6457e08280a380f35b5050346109d35760203660031901126109d357806020926001600160a01b03610d8d6114da565b16815260ff845220549051908152f35b5050346109d357602091610dc7610db3366115d6565b949081855193828580945193849201611608565b810160fe8152030190209081548410156101c45750610df06020936001600160a01b0392611651565b92905490519260031b1c168152f35b5082346101c457806003193601126101c457506001600160a01b037f0000000000000000000000000000000000000000000000000000000000000000163003610e6b57602082517f360894a13ba1a3210667c828492db98dca3e2076cc3735a920a3ca505d382bbc8152f35b6020608492519162461bcd60e51b8352820152603860248201527f555550535570677261646561626c653a206d757374206e6f742062652063616c60448201527f6c6564207468726f7567682064656c656761746563616c6c00000000000000006064820152fd5b508290826003193601126109d357610ee96114da565b9060243567ffffffffffffffff81116109e857366023820112156109e857610f1a9036906024818501359101611581565b936001600160a01b0390817f00000000000000000000000000000000000000000000000000000000000000001691610f548330141561171f565b610f837f360894a13ba1a3210667c828492db98dca3e2076cc3735a920a3ca505d382bbc938285541614611791565b610f8b61167f565b7f4910fdfa16fed3260ed0e7147f7cc6da11a60208b5b9406d12a635614ffd91435460ff1615610fc4575050505061010e919250611803565b849193959294168351946352d1902d60e01b865260209586818981865afa85918161121a575b5061104957855162461bcd60e51b8152808901889052602e60248201527f45524331393637557067726164653a206e657720696d706c656d656e7461746960448201526d6f6e206973206e6f74205555505360901b6064820152608490fd5b9691929396036111b15761105c83611803565b8351917fbc7cd75a20ee27fd9adebab32041f755214dbc6bffa90cc0225b39da2e5c2d3b8780a28651158015906111a9575b61109d575b5050505050905080f35b823b1561114357505092808561112495858398519201905af43d1561113057660819985a5b195960ca1b3d926110d284611565565b936110df82519586611543565b84523d878686013e5b7f416464726573733a206c6f772d6c6576656c2064656c65676174652063616c6c81519561111587611527565b602787528601528401526118b1565b50808280808080611093565b660819985a5b195960ca1b6060926110e8565b62461bcd60e51b82528101849052602660248201527f416464726573733a2064656c65676174652063616c6c20746f206e6f6e2d636f60448201527f6e747261637400000000000000000000000000000000000000000000000000006064820152608490fd5b50600161108e565b835162461bcd60e51b8152908101859052602960248201527f45524331393637557067726164653a20756e737570706f727465642070726f7860448201527f6961626c655555494400000000000000000000000000000000000000000000006064820152608490fd5b9091508781813d8311611242575b6112328183611543565b810103126104365751908a610fea565b503d611228565b508290346109d35760209081600319360112610163576112676114da565b916001600160a01b0394857f0000000000000000000000000000000000000000000000000000000000000000166112a08130141561171f565b6112cf7f360894a13ba1a3210667c828492db98dca3e2076cc3735a920a3ca505d382bbc918883541614611791565b6112d761167f565b8151966112e3886114f5565b8688527f4910fdfa16fed3260ed0e7147f7cc6da11a60208b5b9406d12a635614ffd91435460ff161561132057505050505061010e919250611803565b859294969395169084516352d1902d60e01b815286818981865afa8591816113fb575b506113a257855162461bcd60e51b8152808901889052602e60248201527f45524331393637557067726164653a206e657720696d706c656d656e7461746960448201526d6f6e206973206e6f74205555505360901b6064820152608490fd5b9691929396036111b1576113b583611803565b8351917fbc7cd75a20ee27fd9adebab32041f755214dbc6bffa90cc0225b39da2e5c2d3b8780a28651158015906113f45761109d575050505050905080f35b508561108e565b9091508781813d8311611423575b6114138183611543565b810103126104365751908a611343565b503d611409565b50346101635760203660031901126101635780359267ffffffffffffffff918285116109d357366023860112156109d3578401359182116101c45736602483860101116101c4575060208093826024938551948593018337810160fd8152030190205415159051908152f35b5050346109d357816003193601126109d35760209060fb549051908152f35b8490346109d357816003193601126109d3576020906001600160a01b0360fc54168152f35b600435906001600160a01b03821682036114f057565b600080fd5b6020810190811067ffffffffffffffff82111761151157604052565b634e487b7160e01b600052604160045260246000fd5b6060810190811067ffffffffffffffff82111761151157604052565b90601f8019910116810190811067ffffffffffffffff82111761151157604052565b67ffffffffffffffff811161151157601f01601f191660200190565b92919261158d82611565565b9161159b6040519384611543565b8294818452818301116114f0578281602093846000960137010152565b9080601f830112156114f0578160206115d393359101611581565b90565b60406003198201126114f0576004359067ffffffffffffffff82116114f057611601916004016115b8565b9060243590565b60005b83811061161b5750506000910152565b818101518382015260200161160b565b602090611645928260405194838680955193849201611608565b82019081520301902090565b80548210156116695760005260206000200190600090565b634e487b7160e01b600052603260045260246000fd5b6001600160a01b0360975416330361169357565b606460405162461bcd60e51b815260206004820152602060248201527f4f776e61626c653a2063616c6c6572206973206e6f7420746865206f776e65726044820152fd5b609754906001600160a01b0380911691826001600160a01b0319821617609755167f8be0079c531659141344cd1fd0a4f28419497f9722a3daafe3b4186f6b6457e0600080a3565b1561172657565b60405162461bcd60e51b815260206004820152602c60248201527f46756e6374696f6e206d7573742062652063616c6c6564207468726f7567682060448201527f64656c656761746563616c6c00000000000000000000000000000000000000006064820152608490fd5b1561179857565b60405162461bcd60e51b815260206004820152602c60248201527f46756e6374696f6e206d7573742062652063616c6c6564207468726f7567682060448201527f6163746976652070726f787900000000000000000000000000000000000000006064820152608490fd5b803b15611846576001600160a01b037f360894a13ba1a3210667c828492db98dca3e2076cc3735a920a3ca505d382bbc91166001600160a01b0319825416179055565b60405162461bcd60e51b815260206004820152602d60248201527f455243313936373a206e657720696d706c656d656e746174696f6e206973206e60448201527f6f74206120636f6e7472616374000000000000000000000000000000000000006064820152608490fd5b909190156118bd575090565b8151156118cd5750805190602001fd5b60405162461bcd60e51b8152602060048201529081906118f19060248301906118f5565b0390fd5b9060209161190e81518092818552858086019101611608565b601f01601f1916010190565b1561192157565b60405162461bcd60e51b815260206004820152602b60248201527f496e697469616c697a61626c653a20636f6e7472616374206973206e6f74206960448201527f6e697469616c697a696e670000000000000000000000000000000000000000006064820152608490fd5b600019811461199b5760010190565b634e487b7160e01b600052601160045260246000fd5b80518210156116695760209160051b010190565b9190820391821161199b57565b805468010000000000000000811015611511576119f491600182018155611651565b819291549060031b916001600160a01b039283811b93849216901b16911916179055565b908160209103126114f0575180151581036114f05790565b9190820180921161199b5756fea264697066735822122059c28f32ca1d823cb3c570fd473ffcd2e7a1008ca0910933013365da738b0d4164736f6c63430008110033",
  "linkReferences": {},
  "deployedLinkReferences": {}
}