{
  "_format": "hh-sol-artifact-1",
  "contractName": "LogStoreManager",
  "sourceName": "src/StoreManager.sol",
  "abi": [
    {
      "anonymous": false,
      "inputs": [
        {
          "indexed": false,
          "internalType": "address",
          "name": "previousAdmin",
          "type": "address"
        },
        {
          "indexed": false,
          "internalType": "address",
          "name": "newAdmin",
          "type": "address"
        }
      ],
      "name": "AdminChanged",
      "type": "event"
    },
    {
      "anonymous": false,
      "inputs": [
        {
          "indexed": true,
          "internalType": "address",
          "name": "beacon",
          "type": "address"
        }
      ],
      "name": "BeaconUpgraded",
      "type": "event"
    },
    {
      "anonymous": false,
      "inputs": [
        {
          "indexed": false,
          "internalType": "string",
          "name": "store",
          "type": "string"
        },
        {
          "indexed": false,
          "internalType": "uint256",
          "name": "stake",
          "type": "uint256"
        },
        {
          "indexed": false,
          "internalType": "uint256",
          "name": "capture",
          "type": "uint256"
        },
        {
          "indexed": false,
          "internalType": "uint256",
          "name": "overflow",
          "type": "uint256"
        }
      ],
      "name": "CaptureOverflow",
      "type": "event"
    },
    {
      "anonymous": false,
      "inputs": [
        {
          "indexed": false,
          "internalType": "string",
          "name": "store",
          "type": "string"
        },
        {
          "indexed": false,
          "internalType": "uint256",
          "name": "fees",
          "type": "uint256"
        },
        {
          "indexed": false,
          "internalType": "uint256",
          "name": "bytesStored",
          "type": "uint256"
        }
      ],
      "name": "DataStored",
      "type": "event"
    },
    {
      "anonymous": false,
      "inputs": [
        {
          "indexed": false,
          "internalType": "uint8",
          "name": "version",
          "type": "uint8"
        }
      ],
      "name": "Initialized",
      "type": "event"
    },
    {
      "anonymous": false,
      "inputs": [
        {
          "indexed": true,
          "internalType": "address",
          "name": "previousOwner",
          "type": "address"
        },
        {
          "indexed": true,
          "internalType": "address",
          "name": "newOwner",
          "type": "address"
        }
      ],
      "name": "OwnershipTransferred",
      "type": "event"
    },
    {
      "anonymous": false,
      "inputs": [
        {
          "indexed": false,
          "internalType": "string",
          "name": "store",
          "type": "string"
        },
        {
          "indexed": false,
          "internalType": "bool",
          "name": "isNew",
          "type": "bool"
        },
        {
          "indexed": false,
          "internalType": "uint256",
          "name": "amount",
          "type": "uint256"
        }
      ],
      "name": "StoreUpdated",
      "type": "event"
    },
    {
      "anonymous": false,
      "inputs": [
        {
          "indexed": false,
          "internalType": "uint256",
          "name": "supply",
          "type": "uint256"
        },
        {
          "indexed": false,
          "internalType": "uint256",
          "name": "capture",
          "type": "uint256"
        },
        {
          "indexed": false,
          "internalType": "uint256",
          "name": "overflow",
          "type": "uint256"
        }
      ],
      "name": "SupplyOverflow",
      "type": "event"
    },
    {
      "anonymous": false,
      "inputs": [
        {
          "indexed": true,
          "internalType": "address",
          "name": "implementation",
          "type": "address"
        }
      ],
      "name": "Upgraded",
      "type": "event"
    },
    {
      "inputs": [
        {
          "internalType": "address",
          "name": "",
          "type": "address"
        }
      ],
      "name": "balanceOf",
      "outputs": [
        {
          "internalType": "uint256",
          "name": "",
          "type": "uint256"
        }
      ],
      "stateMutability": "view",
      "type": "function"
    },
    {
      "inputs": [
        {
          "internalType": "string",
          "name": "streamId",
          "type": "string"
        },
        {
          "internalType": "uint256",
          "name": "amount",
          "type": "uint256"
        },
        {
          "internalType": "uint256",
          "name": "bytesStored",
          "type": "uint256"
        }
      ],
      "name": "capture",
      "outputs": [],
      "stateMutability": "nonpayable",
      "type": "function"
    },
    {
      "inputs": [
        {
          "internalType": "string",
          "name": "streamId",
          "type": "string"
        }
      ],
      "name": "exists",
      "outputs": [
        {
          "internalType": "bool",
          "name": "",
          "type": "bool"
        }
      ],
      "stateMutability": "view",
      "type": "function"
    },
    {
      "inputs": [
        {
          "internalType": "address",
          "name": "owner_",
          "type": "address"
        },
        {
          "internalType": "address",
          "name": "parent_",
          "type": "address"
        },
        {
          "internalType": "address",
          "name": "stakeTokenAddress_",
          "type": "address"
        },
        {
          "internalType": "address",
          "name": "streamrRegistryAddress_",
          "type": "address"
        }
      ],
      "name": "initialize",
      "outputs": [],
      "stateMutability": "nonpayable",
      "type": "function"
    },
    {
      "inputs": [],
      "name": "owner",
      "outputs": [
        {
          "internalType": "address",
          "name": "",
          "type": "address"
        }
      ],
      "stateMutability": "view",
      "type": "function"
    },
    {
      "inputs": [],
      "name": "proxiableUUID",
      "outputs": [
        {
          "internalType": "bytes32",
          "name": "",
          "type": "bytes32"
        }
      ],
      "stateMutability": "view",
      "type": "function"
    },
    {
      "inputs": [],
      "name": "renounceOwnership",
      "outputs": [],
      "stateMutability": "nonpayable",
      "type": "function"
    },
    {
      "inputs": [
        {
          "internalType": "address",
          "name": "_parent",
          "type": "address"
        }
      ],
      "name": "setParent",
      "outputs": [],
      "stateMutability": "nonpayable",
      "type": "function"
    },
    {
      "inputs": [
        {
          "internalType": "string",
          "name": "streamId",
          "type": "string"
        },
        {
          "internalType": "uint256",
          "name": "amount",
          "type": "uint256"
        }
      ],
      "name": "stake",
      "outputs": [],
      "stateMutability": "nonpayable",
      "type": "function"
    },
    {
      "inputs": [],
      "name": "stakeTokenAddress",
      "outputs": [
        {
          "internalType": "address",
          "name": "",
          "type": "address"
        }
      ],
      "stateMutability": "view",
      "type": "function"
    },
    {
      "inputs": [
        {
          "internalType": "address",
          "name": "",
          "type": "address"
        },
        {
          "internalType": "string",
          "name": "",
          "type": "string"
        }
      ],
      "name": "storeBalanceOf",
      "outputs": [
        {
          "internalType": "uint256",
          "name": "",
          "type": "uint256"
        }
      ],
      "stateMutability": "view",
      "type": "function"
    },
    {
      "inputs": [
        {
          "internalType": "string",
          "name": "",
          "type": "string"
        },
        {
          "internalType": "uint256",
          "name": "",
          "type": "uint256"
        }
      ],
      "name": "storeStakeholders",
      "outputs": [
        {
          "internalType": "address",
          "name": "",
          "type": "address"
        }
      ],
      "stateMutability": "view",
      "type": "function"
    },
    {
      "inputs": [
        {
          "internalType": "string",
          "name": "",
          "type": "string"
        }
      ],
      "name": "stores",
      "outputs": [
        {
          "internalType": "uint256",
          "name": "",
          "type": "uint256"
        }
      ],
      "stateMutability": "view",
      "type": "function"
    },
    {
      "inputs": [],
      "name": "totalSupply",
      "outputs": [
        {
          "internalType": "uint256",
          "name": "",
          "type": "uint256"
        }
      ],
      "stateMutability": "view",
      "type": "function"
    },
    {
      "inputs": [
        {
          "internalType": "address",
          "name": "newOwner",
          "type": "address"
        }
      ],
      "name": "transferOwnership",
      "outputs": [],
      "stateMutability": "nonpayable",
      "type": "function"
    },
    {
      "inputs": [
        {
          "internalType": "address",
          "name": "newImplementation",
          "type": "address"
        }
      ],
      "name": "upgradeTo",
      "outputs": [],
      "stateMutability": "nonpayable",
      "type": "function"
    },
    {
      "inputs": [
        {
          "internalType": "address",
          "name": "newImplementation",
          "type": "address"
        },
        {
          "internalType": "bytes",
          "name": "data",
          "type": "bytes"
        }
      ],
      "name": "upgradeToAndCall",
      "outputs": [],
      "stateMutability": "payable",
      "type": "function"
    }
  ],
  "bytecode": "0x60a080604052346100315730608052611ea9908161003782396080518181816112080152818161131501526116570152f35b600080fdfe608080604052600436101561001357600080fd5b60003560e01c9081630106395f146118d1575080631499c5921461188f57806318160ddd14611871578063261a323e146118045780633659cfe6146116325780634f1ef286146112c357806352d1902d146111ed5780636115063a1461118d57806370a0823114611153578063715018a6146110f85780638da5cb5b146110d15780639494c8ae14610e155780639ac0e98b14610488578063baa2f78014610423578063ed231297146103c6578063f2fde38b1461038b5763f8c8765e146100da57600080fd5b34610386576080366003190112610386576100f36118f5565b602435906001600160a01b0380831680930361038657604435928184168094036103865760643590828216809203610386576000549460ff8660081c161595868097610379575b8015610362575b156102f75760ff198116600117600055866102e5575b5061017260ff60005460081c1661016d81611d1a565b611d1a565b61017b33611ad7565b61019960ff60005460081c1661019081611d1a565b61016d81611d1a565b600160c95580156102a0576001600160a01b031992610102908482541617905561010181848254161790558260fc54161760fc556101d5611a7f565b610103918254161790556101e7611a7f565b811615610235576101f790611ad7565b6101fd57005b61ff0019600054166000557f7f26b83ff96e1f2b6a682f133852f6798a09c465da95921460cefb3847402498602060405160018152a1005b60405162461bcd60e51b815260206004820152602660248201527f4f776e61626c653a206e6577206f776e657220697320746865207a65726f206160448201527f64647265737300000000000000000000000000000000000000000000000000006064820152608490fd5b60405162461bcd60e51b815260206004820152601460248201527f6572726f725f626164547261636b6572446174610000000000000000000000006044820152606490fd5b61ffff19166101011760005538610157565b60405162461bcd60e51b815260206004820152602e60248201527f496e697469616c697a61626c653a20636f6e747261637420697320616c72656160448201527f647920696e697469616c697a65640000000000000000000000000000000000006064820152608490fd5b50303b1580156101415750600160ff821614610141565b50600160ff82161061013a565b600080fd5b34610386576020366003190112610386576103a46118f5565b6103ac611a7f565b6001600160a01b03811615610235576103c490611ad7565b005b346103865760203660031901126103865760043567ffffffffffffffff81116103865761041060206103fd819336906004016119b8565b8160405193828580945193849201611a08565b810160fd81520301902054604051908152f35b346103865760403660031901126103865761043c6118f5565b60243567ffffffffffffffff8111610386576020916001600160a01b0361046a61047f9336906004016119b8565b91166000526101008352604060002090611a2b565b54604051908152f35b346103865760603660031901126103865760043567ffffffffffffffff8111610386576104b99036906004016119b8565b600260c95414610dd057600260c9556001600160a01b0361010354163303610d8b5760405160208183516104f08183858801611a08565b810160fd8152030190205415610d46576024358080604051602081865161051a8183858b01611a08565b810160fd8152030190205410600014610a01577fa095bf677bbe19af0bd5c37214c8e2209f826724b04d37c8ad795d65531ab0319060405160208186516105648183858b01611a08565b810160fd815203019020549061059960405160208188516105888183858d01611a08565b810160fd8152030190205482611daf565b91604051928392608084526105b16080850189611cf5565b926020850152604084015260608301520390a160405160208184516105d98183858901611a08565b810160fd815203019020549060405160208185516105fa8183858a01611a08565b810160fe815203019020906040518083602082955493848152019060005260206000209260005b8181106109df57505061063692500383611943565b60005b82518110156106ee57806001600160a01b036106586106b39386611d9b565b51168060005260ff908160205260406000205491610100928360205261068260406000208b611a2b565b5411156106b85781600052602052600060408120555b60005260205260006106ad6040822088611a2b565b55611d8c565b610639565b81600052826020526106ce60406000208a611a2b565b5490826000526020526106e76040600020918254611daf565b9055610698565b509190506040516106fe8161190b565b6000815260405160208186516107178183858b01611a08565b810160fe81520301902081519167ffffffffffffffff83116109c9576801000000000000000083116109c957815483835580841061099f575b5060200190600052602060002060005b8381106109825750505050600060405160208186516107828183858b01611a08565b810160fd815203019020555b60fb5482808210156109715750507fe7f554bdb4965a65d3bdf0779e5752fedff7e451afeb9ce70e315933e0630a1c606060fb546107cc8186611daf565b6040519182528560208301526040820152a1600060fb555b6001600160a01b036101015416906040516370a0823160e01b8152306004820152602081602481865afa9081156109305760009161093c575b50916044826108326000956020951115611e02565b604051948593849263a9059cbb60e01b845233600485015260248401525af1801561093057600191600091610901575b501515036108bc577f73a7f4c8f8a797ce166d69942684145ae0987b01644d3ef8ffd387969819d40f916108a491604051928392606084526060840190611cf5565b90602083015260443560408301520390a1600160c955005b60405162461bcd60e51b815260206004820152601960248201527f6572726f725f756e7375636365737366756c43617074757265000000000000006044820152606490fd5b610923915060203d602011610929575b61091b8183611943565b810190611e4e565b84610862565b503d610911565b6040513d6000823e3d90fd5b9290506020833d602011610969575b8161095860209383611943565b81010312610386579151604461081d565b3d915061094b565b61097a91611daf565b60fb556107e4565b60019060206001600160a01b038551169401938184015501610760565b826000526020600020908482019101905b8181106109bd5750610750565b600081556001016109b0565b634e487b7160e01b600052604160045260246000fd5b84546001600160a01b0316835260019485019487945060209093019201610621565b916040516020818351610a178183858801611a08565b810160fe815203019020926040518085602082975493848152019060005260206000209260005b818110610d24575050610a5392500385611943565b60005b8451811015610cef576001600160a01b03610a718287611d9b565b51168060005261010080602052610a8c604060002086611a2b565b546040516020818851610aa28183858d01611a08565b810160fd81520301902054908115610cd9570484810290808204861490151715610cc3578260005260ff806020528160406000205410600014610cab5783600052602052600060408120555b826000528160205280610b05604060002088611a2b565b541015610c83575081600052806020526000610b246040822087611a2b565b555b81600052602052610b3b604060002085611a2b565b5415610b51575b50610b4c90611d8c565b610a56565b919093604051610b608161190b565b600081526040516020818751610b798183858c01611a08565b810160fe81520301902081519167ffffffffffffffff83116109c9576801000000000000000083116109c9578154838355808410610c5a575b5060200190600052602060002060005b838110610c3d575050505060005b8651811015610c305780846001600160a01b03610bf0610bfc948b611d9b565b511603610c0157611d8c565b610bd0565b610c2b8560405160208181610c1c8c83815193849201611a08565b810160fe815203019020611dbc565b611d8c565b5093909150610b4c610b42565b60019060206001600160a01b038551169401938184015501610bc2565b8260005283602060002091820191015b818110610c775750610bb2565b60008155600101610c6a565b8260005281602052610ca4610c9c604060002088611a2b565b918254611daf565b9055610b26565b506040600020610cbc828254611daf565b9055610aee565b634e487b7160e01b600052601160045260246000fd5b634e487b7160e01b600052601260045260246000fd5b509092506040516020818551610d088183858a01611a08565b810160fd815203019020610d1d828254611daf565b905561078e565b84546001600160a01b0316835260019485019489945060209093019201610a3e565b60405162461bcd60e51b815260206004820152601560248201527f6572726f725f696e76616c696453747265616d496400000000000000000000006044820152606490fd5b60405162461bcd60e51b815260206004820152601060248201527f6572726f725f6f6e6c79506172656e74000000000000000000000000000000006044820152606490fd5b60405162461bcd60e51b815260206004820152601f60248201527f5265656e7472616e637947756172643a207265656e7472616e742063616c6c006044820152606490fd5b3461038657610e23366119d6565b6001600160a01b039081610102541691604051809363130d191f60e11b825260209485918260048301528180610e5c602482018b611cf5565b03915afa908115610930576000916110b4575b501561106f5782600091610e84841515611e02565b61010154166064604051809481936323b872dd60e01b83523360048401523060248401528760448401525af1801561093057600191600091611052575b5015150361100d5791610fc3917f71a18d400e8f2654aebe2b0998654bbfb6769cad471c06b8141cfe473c3bb2af93600091604051845190828181880193610f0a818387611a08565b810160fd8152030190205415611004575b60405182818751610f2d818387611a08565b810160fd815203019020610f42848254611e66565b90553360005260ff82526040600020610f5c848254611e66565b90553360005261010090818352610f77604060002087611a2b565b5415610fd4575b50336000528152610f93604060002085611a2b565b610f9e838254611e66565b9055610fac8260fb54611e66565b60fb55604051948594606086526060860190611cf5565b9215159084015260408301520390a1005b6040518651610ffe92610fea9082908490611a08565b81019060fe82528481339303019020611dbc565b87610f7e565b60019350610f1b565b60405162461bcd60e51b815260048101839052601760248201527f6572726f725f756e7375636365737366756c5374616b650000000000000000006044820152606490fd5b6110699150843d86116109295761091b8183611943565b85610ec1565b60405162461bcd60e51b815260048101849052601360248201527f6572726f725f696e76616c696453747265616d000000000000000000000000006044820152606490fd5b6110cb9150843d86116109295761091b8183611943565b85610e6f565b346103865760003660031901126103865760206001600160a01b0360975416604051908152f35b3461038657600036600319011261038657611111611a7f565b60006001600160a01b036097546001600160a01b03198116609755167f8be0079c531659141344cd1fd0a4f28419497f9722a3daafe3b4186f6b6457e08280a3005b34610386576020366003190112610386576001600160a01b036111746118f5565b1660005260ff6020526020604060002054604051908152f35b346103865760206111b56111a0366119d6565b92908160405193828580945193849201611a08565b810160fe815203019020908154811015610386576111dd6001600160a01b0391602093611a51565b9190546040519260031b1c168152f35b34610386576000366003190112610386576001600160a01b037f00000000000000000000000000000000000000000000000000000000000000001630036112585760206040517f360894a13ba1a3210667c828492db98dca3e2076cc3735a920a3ca505d382bbc8152f35b60405162461bcd60e51b815260206004820152603860248201527f555550535570677261646561626c653a206d757374206e6f742062652063616c60448201527f6c6564207468726f7567682064656c656761746563616c6c00000000000000006064820152608490fd5b6040366003190112610386576112d76118f5565b60243567ffffffffffffffff8111610386573660238201121561038657611308903690602481600401359101611981565b906001600160a01b0391827f0000000000000000000000000000000000000000000000000000000000000000169261134284301415611b1f565b6113717f360894a13ba1a3210667c828492db98dca3e2076cc3735a920a3ca505d382bbc948286541614611b91565b611379611a7f565b7f4910fdfa16fed3260ed0e7147f7cc6da11a60208b5b9406d12a635614ffd91435460ff16156113af5750506103c49150611c03565b82919216604051936352d1902d60e01b85526020948581600481865afa60009181611603575b506114365760405162461bcd60e51b815260048101879052602e60248201527f45524331393637557067726164653a206e657720696d706c656d656e7461746960448201526d6f6e206973206e6f74205555505360901b6064820152608490fd5b036115985761144482611c03565b604051907fbc7cd75a20ee27fd9adebab32041f755214dbc6bffa90cc0225b39da2e5c2d3b600080a2825115801590611590575b61147e57005b813b1561152857506000828192856103c49695519201905af43d15611520573d906114a882611965565b916114b66040519384611943565b82523d60008484013e5b7f416464726573733a206c6f772d6c6576656c2064656c65676174652063616c6c604051936114ee85611927565b602785528401527f206661696c6564000000000000000000000000000000000000000000000000006040840152611cb1565b6060906114c0565b62461bcd60e51b815260048101849052602660248201527f416464726573733a2064656c65676174652063616c6c20746f206e6f6e2d636f60448201527f6e747261637400000000000000000000000000000000000000000000000000006064820152608490fd5b506001611478565b60405162461bcd60e51b815260048101859052602960248201527f45524331393637557067726164653a20756e737570706f727465642070726f7860448201527f6961626c655555494400000000000000000000000000000000000000000000006064820152608490fd5b9091508681813d831161162b575b61161b8183611943565b81010312610386575190876113d5565b503d611611565b34610386576020806003193601126103865761164c6118f5565b6001600160a01b03807f00000000000000000000000000000000000000000000000000000000000000001661168381301415611b1f565b6116b27f360894a13ba1a3210667c828492db98dca3e2076cc3735a920a3ca505d382bbc918383541614611b91565b6116ba611a7f565b604051916116c78361190b565b600083527f4910fdfa16fed3260ed0e7147f7cc6da11a60208b5b9406d12a635614ffd91435460ff1615611702575050506103c49150611c03565b83929316906040516352d1902d60e01b81528581600481865afa600091816117d5575b506117865760405162461bcd60e51b815260048101879052602e60248201527f45524331393637557067726164653a206e657720696d706c656d656e7461746960448201526d6f6e206973206e6f74205555505360901b6064820152608490fd5b036115985761179482611c03565b604051907fbc7cd75a20ee27fd9adebab32041f755214dbc6bffa90cc0225b39da2e5c2d3b600080a28251158015906117cd5761147e57005b506000611478565b9091508681813d83116117fd575b6117ed8183611943565b8101031261038657519087611725565b503d6117e3565b346103865760203660031901126103865767ffffffffffffffff6004358181116103865736602382011215610386578060040135918211610386573660248383010111610386576020602491838294604051948593018337810160fd815203019020541515604051908152f35b3461038657600036600319011261038657602060fb54604051908152f35b34610386576020366003190112610386576118a86118f5565b6118b0611a7f565b6001600160a01b0361010391166001600160a01b0319825416179055600080f35b34610386576000366003190112610386576020906001600160a01b0360fc54168152f35b600435906001600160a01b038216820361038657565b6020810190811067ffffffffffffffff8211176109c957604052565b6060810190811067ffffffffffffffff8211176109c957604052565b90601f8019910116810190811067ffffffffffffffff8211176109c957604052565b67ffffffffffffffff81116109c957601f01601f191660200190565b92919261198d82611965565b9161199b6040519384611943565b829481845281830111610386578281602093846000960137010152565b9080601f83011215610386578160206119d393359101611981565b90565b6040600319820112610386576004359067ffffffffffffffff821161038657611a01916004016119b8565b9060243590565b60005b838110611a1b5750506000910152565b8181015183820152602001611a0b565b602090611a45928260405194838680955193849201611a08565b82019081520301902090565b8054821015611a695760005260206000200190600090565b634e487b7160e01b600052603260045260246000fd5b6001600160a01b03609754163303611a9357565b606460405162461bcd60e51b815260206004820152602060248201527f4f776e61626c653a2063616c6c6572206973206e6f7420746865206f776e65726044820152fd5b609754906001600160a01b0380911691826001600160a01b0319821617609755167f8be0079c531659141344cd1fd0a4f28419497f9722a3daafe3b4186f6b6457e0600080a3565b15611b2657565b60405162461bcd60e51b815260206004820152602c60248201527f46756e6374696f6e206d7573742062652063616c6c6564207468726f7567682060448201527f64656c656761746563616c6c00000000000000000000000000000000000000006064820152608490fd5b15611b9857565b60405162461bcd60e51b815260206004820152602c60248201527f46756e6374696f6e206d7573742062652063616c6c6564207468726f7567682060448201527f6163746976652070726f787900000000000000000000000000000000000000006064820152608490fd5b803b15611c46576001600160a01b037f360894a13ba1a3210667c828492db98dca3e2076cc3735a920a3ca505d382bbc91166001600160a01b0319825416179055565b60405162461bcd60e51b815260206004820152602d60248201527f455243313936373a206e657720696d706c656d656e746174696f6e206973206e60448201527f6f74206120636f6e7472616374000000000000000000000000000000000000006064820152608490fd5b90919015611cbd575090565b815115611ccd5750805190602001fd5b60405162461bcd60e51b815260206004820152908190611cf1906024830190611cf5565b0390fd5b90602091611d0e81518092818552858086019101611a08565b601f01601f1916010190565b15611d2157565b60405162461bcd60e51b815260206004820152602b60248201527f496e697469616c697a61626c653a20636f6e7472616374206973206e6f74206960448201527f6e697469616c697a696e670000000000000000000000000000000000000000006064820152608490fd5b6000198114610cc35760010190565b8051821015611a695760209160051b010190565b91908203918211610cc357565b8054680100000000000000008110156109c957611dde91600182018155611a51565b819291549060031b916001600160a01b039283811b93849216901b16911916179055565b15611e0957565b60405162461bcd60e51b815260206004820152601760248201527f6572726f725f696e73756666696369656e745374616b650000000000000000006044820152606490fd5b90816020910312610386575180151581036103865790565b91908201809211610cc35756fea2646970667358221220a23232f2e96e36b50e797ace2fa2b309d84bb5a92e4cfbcd504171d7fd4e8b0764736f6c63430008110033",
  "linkReferences": {},
  "deployedLinkReferences": {}
}