{
  "_format": "hh-sol-artifact-1",
  "contractName": "LogStoreManager",
  "sourceName": "src/StoreManager.sol",
  "abi": [
    {
      "anonymous": false,
      "inputs": [
        {
          "indexed": false,
          "internalType": "address",
          "name": "previousAdmin",
          "type": "address"
        },
        {
          "indexed": false,
          "internalType": "address",
          "name": "newAdmin",
          "type": "address"
        }
      ],
      "name": "AdminChanged",
      "type": "event"
    },
    {
      "anonymous": false,
      "inputs": [
        {
          "indexed": true,
          "internalType": "address",
          "name": "beacon",
          "type": "address"
        }
      ],
      "name": "BeaconUpgraded",
      "type": "event"
    },
    {
      "anonymous": false,
      "inputs": [
        {
          "indexed": false,
          "internalType": "string",
          "name": "store",
          "type": "string"
        },
        {
          "indexed": false,
          "internalType": "uint256",
          "name": "fees",
          "type": "uint256"
        },
        {
          "indexed": false,
          "internalType": "uint256",
          "name": "bytesStored",
          "type": "uint256"
        }
      ],
      "name": "DataStored",
      "type": "event"
    },
    {
      "anonymous": false,
      "inputs": [
        {
          "indexed": false,
          "internalType": "uint8",
          "name": "version",
          "type": "uint8"
        }
      ],
      "name": "Initialized",
      "type": "event"
    },
    {
      "anonymous": false,
      "inputs": [
        {
          "indexed": true,
          "internalType": "address",
          "name": "previousOwner",
          "type": "address"
        },
        {
          "indexed": true,
          "internalType": "address",
          "name": "newOwner",
          "type": "address"
        }
      ],
      "name": "OwnershipTransferred",
      "type": "event"
    },
    {
      "anonymous": false,
      "inputs": [
        {
          "indexed": false,
          "internalType": "string",
          "name": "store",
          "type": "string"
        },
        {
          "indexed": false,
          "internalType": "bool",
          "name": "isNew",
          "type": "bool"
        },
        {
          "indexed": false,
          "internalType": "uint256",
          "name": "amount",
          "type": "uint256"
        }
      ],
      "name": "StoreUpdated",
      "type": "event"
    },
    {
      "anonymous": false,
      "inputs": [
        {
          "indexed": true,
          "internalType": "address",
          "name": "implementation",
          "type": "address"
        }
      ],
      "name": "Upgraded",
      "type": "event"
    },
    {
      "inputs": [],
      "name": "LOGSTORE_STREAM_ID_PATH",
      "outputs": [
        {
          "internalType": "string",
          "name": "",
          "type": "string"
        }
      ],
      "stateMutability": "view",
      "type": "function"
    },
    {
      "inputs": [],
      "name": "LOGSTORE_STREAM_METADATA_JSON_STRING",
      "outputs": [
        {
          "internalType": "string",
          "name": "",
          "type": "string"
        }
      ],
      "stateMutability": "view",
      "type": "function"
    },
    {
      "inputs": [
        {
          "internalType": "address",
          "name": "",
          "type": "address"
        }
      ],
      "name": "balanceOf",
      "outputs": [
        {
          "internalType": "uint256",
          "name": "",
          "type": "uint256"
        }
      ],
      "stateMutability": "view",
      "type": "function"
    },
    {
      "inputs": [
        {
          "internalType": "string",
          "name": "streamId",
          "type": "string"
        },
        {
          "internalType": "uint256",
          "name": "amount",
          "type": "uint256"
        },
        {
          "internalType": "uint256",
          "name": "bytesStored",
          "type": "uint256"
        }
      ],
      "name": "capture",
      "outputs": [
        {
          "internalType": "bool",
          "name": "success",
          "type": "bool"
        }
      ],
      "stateMutability": "nonpayable",
      "type": "function"
    },
    {
      "inputs": [
        {
          "internalType": "string",
          "name": "streamId",
          "type": "string"
        }
      ],
      "name": "exists",
      "outputs": [
        {
          "internalType": "bool",
          "name": "",
          "type": "bool"
        }
      ],
      "stateMutability": "view",
      "type": "function"
    },
    {
      "inputs": [
        {
          "internalType": "address",
          "name": "owner",
          "type": "address"
        },
        {
          "internalType": "address",
          "name": "stakeTokenAddress_",
          "type": "address"
        },
        {
          "internalType": "address",
          "name": "streamrRegistryAddress_",
          "type": "address"
        }
      ],
      "name": "initialize",
      "outputs": [],
      "stateMutability": "nonpayable",
      "type": "function"
    },
    {
      "inputs": [],
      "name": "owner",
      "outputs": [
        {
          "internalType": "address",
          "name": "",
          "type": "address"
        }
      ],
      "stateMutability": "view",
      "type": "function"
    },
    {
      "inputs": [],
      "name": "proxiableUUID",
      "outputs": [
        {
          "internalType": "bytes32",
          "name": "",
          "type": "bytes32"
        }
      ],
      "stateMutability": "view",
      "type": "function"
    },
    {
      "inputs": [],
      "name": "renounceOwnership",
      "outputs": [],
      "stateMutability": "nonpayable",
      "type": "function"
    },
    {
      "inputs": [
        {
          "internalType": "string",
          "name": "streamId",
          "type": "string"
        },
        {
          "internalType": "uint256",
          "name": "amount",
          "type": "uint256"
        }
      ],
      "name": "stake",
      "outputs": [],
      "stateMutability": "nonpayable",
      "type": "function"
    },
    {
      "inputs": [],
      "name": "stakeTokenAddress",
      "outputs": [
        {
          "internalType": "address",
          "name": "",
          "type": "address"
        }
      ],
      "stateMutability": "view",
      "type": "function"
    },
    {
      "inputs": [
        {
          "internalType": "address",
          "name": "",
          "type": "address"
        },
        {
          "internalType": "string",
          "name": "",
          "type": "string"
        }
      ],
      "name": "storeBalanceOf",
      "outputs": [
        {
          "internalType": "uint256",
          "name": "",
          "type": "uint256"
        }
      ],
      "stateMutability": "view",
      "type": "function"
    },
    {
      "inputs": [
        {
          "internalType": "string",
          "name": "",
          "type": "string"
        },
        {
          "internalType": "uint256",
          "name": "",
          "type": "uint256"
        }
      ],
      "name": "storeStakeholders",
      "outputs": [
        {
          "internalType": "address",
          "name": "",
          "type": "address"
        }
      ],
      "stateMutability": "view",
      "type": "function"
    },
    {
      "inputs": [
        {
          "internalType": "string",
          "name": "",
          "type": "string"
        }
      ],
      "name": "stores",
      "outputs": [
        {
          "internalType": "uint256",
          "name": "",
          "type": "uint256"
        }
      ],
      "stateMutability": "view",
      "type": "function"
    },
    {
      "inputs": [],
      "name": "totalSupply",
      "outputs": [
        {
          "internalType": "uint256",
          "name": "",
          "type": "uint256"
        }
      ],
      "stateMutability": "view",
      "type": "function"
    },
    {
      "inputs": [
        {
          "internalType": "address",
          "name": "newOwner",
          "type": "address"
        }
      ],
      "name": "transferOwnership",
      "outputs": [],
      "stateMutability": "nonpayable",
      "type": "function"
    },
    {
      "inputs": [
        {
          "internalType": "address",
          "name": "newImplementation",
          "type": "address"
        }
      ],
      "name": "upgradeTo",
      "outputs": [],
      "stateMutability": "nonpayable",
      "type": "function"
    },
    {
      "inputs": [
        {
          "internalType": "address",
          "name": "newImplementation",
          "type": "address"
        },
        {
          "internalType": "bytes",
          "name": "data",
          "type": "bytes"
        }
      ],
      "name": "upgradeToAndCall",
      "outputs": [],
      "stateMutability": "payable",
      "type": "function"
    }
  ],
  "bytecode": "0x60a080604052346100315730608052611cae90816100378239608051818181610f930152818161109e01526113ef0152f35b600080fdfe6080604081815260048036101561001557600080fd5b600092833560e01c9081630106395f1461164e5750806318160ddd1461162f57806322549c0c14611611578063261a323e146115a55780633659cfe6146113c45780634f1ef2861461104a57806352d1902d14610f765780636115063a14610f1457806370a0823114610edd578063715018a614610e825780638da5cb5b14610e5a5780639494c8ae14610c185780639ac0e98b14610733578063b82898e8146106fa578063baa2f78014610696578063c0c53b8b146101dd578063ed2312971461017d5763f2fde38b146100e957600080fd5b34610179576020366003190112610179576101026117b0565b9161010b6118df565b6001600160a01b03831615610127578361012484611937565b80f35b906020608492519162461bcd60e51b8352820152602660248201527f4f776e61626c653a206e6577206f776e657220697320746865207a65726f206160448201526564647265737360d01b6064820152fd5b8280fd5b5091346101da5760203660031901126101da5782359067ffffffffffffffff82116101da575060206101b681946101c893369101611802565b81845193828580945193849201611768565b810160cb815203019020549051908152f35b80fd5b5034610179576003196060368201126105b1576101f86117b0565b916024928335916001600160a01b0394858416809403610692576044908135958787168097036104a95789549660ff8860081c161596878098610685575b801561066e575b1561060757600160ff198a1681178d5598886105f6575b5061026e60ff8d5460081c1661026981611b55565b611b55565b61027733611937565b61028760ff8d5460081c16611b55565b80156105b557908b916001600160a01b0319818160cf54161760cf55828160d054161760d05560ca54161760ca556102bd6118a6565b906102c661172f565b93813b156105b15783886103068f936102f8988551998a9889978896630ef8cdc760e01b88528701528d86019061178b565b91848303018b85015261178b565b03925af180156105a757610594575b5030968851610323816116b9565b602a8152602098898201908b368337825115610582576030825382518a1015610582576078602184015360295b8a81116104f857506104b7576103a08a8d938d6103809461036f6118a6565b915195869351809286860190611768565b820161039482518093868085019101611768565b010380845201826116f1565b8260d05416803b15610179576103d49183918d838a825196879586948593632337c3c760e11b85528401528c83019061178b565b60028b83015203925af180156104ad57610495575b50506103f36118df565b8416156104455750505061040690611937565b61040e578380f35b7f7f26b83ff96e1f2b6a682f133852f6798a09c465da95921460cefb38474024989261ff0019855416855551908152a13880808380f35b875162461bcd60e51b81529283018790526026908301527f4f776e61626c653a206e6577206f776e657220697320746865207a65726f2061908201526564647265737360d01b6064820152608490fd5b61049e90611673565b6104a95789386103e9565b8980fd5b8b513d84823e3d90fd5b8a5162461bcd60e51b81528087018b90528085018b90527f537472696e67733a20686578206c656e67746820696e73756666696369656e7481870152606490fd5b90600f8116601081101561057057845183101561055c577f3031323334353637383961626364656600000000000000000000000000000000901a8c8386010153871c90801561054a5760001901610350565b634e487b7160e01b8e5260118852858efd5b8660328a634e487b7160e01b600052526000fd5b634e487b7160e01b8f5260328952868ffd5b634e487b7160e01b8d5260328752848dfd5b6105a090999199611673565b9738610315565b89513d8c823e3d90fd5b8380fd5b8a5162461bcd60e51b81526020818801526014818601527f6572726f725f626164547261636b65724461746100000000000000000000000081870152606490fd5b61ffff1916610101178c5538610254565b8a5162461bcd60e51b8152602081880152602e818601527f496e697469616c697a61626c653a20636f6e747261637420697320616c726561818701527f647920696e697469616c697a65640000000000000000000000000000000000006064820152608490fd5b50303b15801561023d5750600160ff8a161461023d565b50600160ff8a1610610236565b8780fd5b50346101795781600319360112610179576106af6117b0565b9060243567ffffffffffffffff81116106f6576020946001600160a01b036106df6106ee95948794369101611802565b9316815260ce86522090611852565b549051908152f35b8480fd5b50503461072f578160031936011261072f5761072b906107186118a6565b905191829160208352602083019061178b565b0390f35b5080fd5b5091903461072f57606036600319011261072f5767ffffffffffffffff83358181116105b1576107669036908601611802565b916024938435926107756118df565b6001600160a01b03968760cf541692845180946370a0823160e01b82523084830152818a60209788935afa908115610c0e578291610be1575b508611610b9f578451928751938581818b01966107cc81838a611768565b810160cc815203019020928a8751809586918982549182815201918752898720938a88915b838310610b7e5750505050610808925003856116f1565b825b8451811015610a32578b61081e8287611bec565b51168085528a8961084d8a8a60ce9485835261083c858c2082611852565b549451938492839251928391611768565b810160cb81520301902054908115610a2057048b8102908082048d1490151715610a0e576108a661089e8e858a5260cd8d528d8a2061088d858254611c00565b9055858a52848d528d8a2090611852565b918254611c00565b905581865288526108b98986208c611852565b54156108cf575b506108ca90611bc7565b61080a565b989193909a928a6108fa89898c51936108e78561169d565b8685528d51938492839251928391611768565b810160cc8152030190208151918383116109fc576801000000000000000083116109fc578f908b9083548585558086106109d7575b50019185528a8520908b865b8581106109c357505050505050815b8d87518210156109b157908c8c8c8c8c8361097c9761096a8f8990611bec565b511603610981575b5050505050611bc7565b61094a565b6109a7946109989351938492839251928391611768565b810160cc815203019020611c0d565b8c8c8c8c8c610972565b5050929a6108ca9194929950906108c0565b84518316848201559381019360010161093b565b8488528583892091820191015b8181106109f1575061092f565b8881556001016109e4565b634e487b7160e01b8552604188528685fd5b634e487b7160e01b8752601185528d87fd5b634e487b7160e01b8852601286528e88fd5b5092505080848a610a53828c9a979b989b8a51809381928c51928391611768565b810160cb815203019020610a68878254611c00565b9055610a768660c954611c00565b60c95560cf5416604488518094819363a9059cbb60e01b83523389840152898d8401525af1918215610b735791610b46575b5015159460018603610b045750507f73a7f4c8f8a797ce166d69942684145ae0987b01644d3ef8ffd387969819d40f91610aef91845192839260608452606084019061178b565b9087830152604435858301520390a151908152f35b845162461bcd60e51b81529182018790526019908201527f6572726f725f756e7375636365737366756c43617074757265000000000000006044820152606490fd5b610b669150873d8911610b6c575b610b5e81836116f1565b810190611c53565b87610aa8565b503d610b54565b8651903d90823e3d90fd5b600193955093839294875416815201940191019187928f8b909593956107f1565b845162461bcd60e51b81528083018590526014818a01527f6572726f725f6e6f74456e6f7567685374616b650000000000000000000000006044820152606490fd5b90508481813d8311610c07575b610bf881836116f1565b8101031261072f5751386107ae565b503d610bee565b86513d84823e3d90fd5b503461017957610c2736611820565b90926001600160a01b0360d05416928151809463130d191f60e11b8252602095869182858301528180610c5d602482018c61178b565b03915afa908115610e50578791610e33575b5015610df2578215610db15750917f71a18d400e8f2654aebe2b0998654bbfb6769cad471c06b8141cfe473c3bb2af9391610d699386928151855190828181890193610cbc818387611768565b810160cb8152030190205415610da8575b825182818851610cde818387611768565b810160cb815203019020610cf3858254611c6b565b905533895260cd8252828920610d0a858254611c6b565b905533895260ce8252610d1f838a2087611852565b5415610d79575b5033885260ce8152610d3a82892086611852565b610d45848254611c6b565b9055610d538360c954611c6b565b60c955815195869560608752606087019061178b565b931515908501528301520390a180f35b82518651610da292610d8e9082908490611768565b81019060cc82528381339303019020611c0d565b38610d26565b60019450610ccd565b83606492519162461bcd60e51b8352820152601760248201527f6572726f725f696e73756666696369656e745374616b650000000000000000006044820152fd5b83606492519162461bcd60e51b8352820152601360248201527f6572726f725f696e76616c696453747265616d000000000000000000000000006044820152fd5b610e4a9150853d8711610b6c57610b5e81836116f1565b38610c6f565b83513d89823e3d90fd5b50503461072f578160031936011261072f576020906001600160a01b03609754169051908152f35b83346101da57806003193601126101da57610e9b6118df565b806001600160a01b036097546001600160a01b03198116609755167f8be0079c531659141344cd1fd0a4f28419497f9722a3daafe3b4186f6b6457e08280a380f35b50503461072f57602036600319011261072f57806020926001600160a01b03610f046117b0565b16815260cd845220549051908152f35b50503461072f57602091610f3e610f2a36611820565b949081855193828580945193849201611768565b810160cc8152030190209081548410156101da5750610f676020936001600160a01b0392611878565b92905490519260031b1c168152f35b5082346101da57806003193601126101da57506001600160a01b037f0000000000000000000000000000000000000000000000000000000000000000163003610fe257602082517f360894a13ba1a3210667c828492db98dca3e2076cc3735a920a3ca505d382bbc8152f35b6020608492519162461bcd60e51b8352820152603860248201527f555550535570677261646561626c653a206d757374206e6f742062652063616c60448201527f6c6564207468726f7567682064656c656761746563616c6c00000000000000006064820152fd5b5082908260031936011261072f576110606117b0565b9060243567ffffffffffffffff81116105b157366023820112156105b15761109190369060248185013591016117cb565b936001600160a01b0390817f000000000000000000000000000000000000000000000000000000000000000016916110cb8330141561197f565b6110fa7f360894a13ba1a3210667c828492db98dca3e2076cc3735a920a3ca505d382bbc9382855416146119f1565b6111026118df565b7f4910fdfa16fed3260ed0e7147f7cc6da11a60208b5b9406d12a635614ffd91435460ff161561113b5750505050610124919250611a63565b849193959294168351946352d1902d60e01b865260209586818981865afa859181611391575b506111c057855162461bcd60e51b8152808901889052602e60248201527f45524331393637557067726164653a206e657720696d706c656d656e7461746960448201526d6f6e206973206e6f74205555505360901b6064820152608490fd5b969192939603611328576111d383611a63565b8351917fbc7cd75a20ee27fd9adebab32041f755214dbc6bffa90cc0225b39da2e5c2d3b8780a2865115801590611320575b611214575b5050505050905080f35b823b156112ba57505092808561129b95858398519201905af43d156112a757660819985a5b195960ca1b3d9261124984611713565b93611256825195866116f1565b84523d878686013e5b7f416464726573733a206c6f772d6c6576656c2064656c65676174652063616c6c81519561128c876116b9565b60278752860152840152611b11565b5080828080808061120a565b660819985a5b195960ca1b60609261125f565b62461bcd60e51b82528101849052602660248201527f416464726573733a2064656c65676174652063616c6c20746f206e6f6e2d636f60448201527f6e747261637400000000000000000000000000000000000000000000000000006064820152608490fd5b506001611205565b835162461bcd60e51b8152908101859052602960248201527f45524331393637557067726164653a20756e737570706f727465642070726f7860448201527f6961626c655555494400000000000000000000000000000000000000000000006064820152608490fd5b9091508781813d83116113bd575b6113a981836116f1565b810103126113b95751908a611161565b8580fd5b503d61139f565b5082903461072f5760209081600319360112610179576113e26117b0565b916001600160a01b0394857f00000000000000000000000000000000000000000000000000000000000000001661141b8130141561197f565b61144a7f360894a13ba1a3210667c828492db98dca3e2076cc3735a920a3ca505d382bbc9188835416146119f1565b6114526118df565b81519661145e8861169d565b8688527f4910fdfa16fed3260ed0e7147f7cc6da11a60208b5b9406d12a635614ffd91435460ff161561149b575050505050610124919250611a63565b859294969395169084516352d1902d60e01b815286818981865afa859181611576575b5061151d57855162461bcd60e51b8152808901889052602e60248201527f45524331393637557067726164653a206e657720696d706c656d656e7461746960448201526d6f6e206973206e6f74205555505360901b6064820152608490fd5b9691929396036113285761153083611a63565b8351917fbc7cd75a20ee27fd9adebab32041f755214dbc6bffa90cc0225b39da2e5c2d3b8780a286511580159061156f57611214575050505050905080f35b5085611205565b9091508781813d831161159e575b61158e81836116f1565b810103126113b95751908a6114be565b503d611584565b50346101795760203660031901126101795780359267ffffffffffffffff9182851161072f573660238601121561072f578401359182116101da5736602483860101116101da575060208093826024938551948593018337810160cb8152030190205415159051908152f35b50503461072f578160031936011261072f5761072b9061071861172f565b50503461072f578160031936011261072f5760209060c9549051908152f35b84903461072f578160031936011261072f576020906001600160a01b0360ca54168152f35b67ffffffffffffffff811161168757604052565b634e487b7160e01b600052604160045260246000fd5b6020810190811067ffffffffffffffff82111761168757604052565b6060810190811067ffffffffffffffff82111761168757604052565b6040810190811067ffffffffffffffff82111761168757604052565b90601f8019910116810190811067ffffffffffffffff82111761168757604052565b67ffffffffffffffff811161168757601f01601f191660200190565b6040519061173c826116d5565b601382527f7b2022706172746974696f6e73223a2031207d000000000000000000000000006020830152565b60005b83811061177b5750506000910152565b818101518382015260200161176b565b906020916117a481518092818552858086019101611768565b601f01601f1916010190565b600435906001600160a01b03821682036117c657565b600080fd5b9291926117d782611713565b916117e560405193846116f1565b8294818452818301116117c6578281602093846000960137010152565b9080601f830112156117c65781602061181d933591016117cb565b90565b60406003198201126117c6576004359067ffffffffffffffff82116117c65761184b91600401611802565b9060243590565b60209061186c928260405194838680955193849201611768565b82019081520301902090565b80548210156118905760005260206000200190600090565b634e487b7160e01b600052603260045260246000fd5b604051906118b3826116d5565b600982527f2f6c6f6773746f726500000000000000000000000000000000000000000000006020830152565b6001600160a01b036097541633036118f357565b606460405162461bcd60e51b815260206004820152602060248201527f4f776e61626c653a2063616c6c6572206973206e6f7420746865206f776e65726044820152fd5b609754906001600160a01b0380911691826001600160a01b0319821617609755167f8be0079c531659141344cd1fd0a4f28419497f9722a3daafe3b4186f6b6457e0600080a3565b1561198657565b60405162461bcd60e51b815260206004820152602c60248201527f46756e6374696f6e206d7573742062652063616c6c6564207468726f7567682060448201527f64656c656761746563616c6c00000000000000000000000000000000000000006064820152608490fd5b156119f857565b60405162461bcd60e51b815260206004820152602c60248201527f46756e6374696f6e206d7573742062652063616c6c6564207468726f7567682060448201527f6163746976652070726f787900000000000000000000000000000000000000006064820152608490fd5b803b15611aa6576001600160a01b037f360894a13ba1a3210667c828492db98dca3e2076cc3735a920a3ca505d382bbc91166001600160a01b0319825416179055565b60405162461bcd60e51b815260206004820152602d60248201527f455243313936373a206e657720696d706c656d656e746174696f6e206973206e60448201527f6f74206120636f6e7472616374000000000000000000000000000000000000006064820152608490fd5b90919015611b1d575090565b815115611b2d5750805190602001fd5b60405162461bcd60e51b815260206004820152908190611b5190602483019061178b565b0390fd5b15611b5c57565b60405162461bcd60e51b815260206004820152602b60248201527f496e697469616c697a61626c653a20636f6e7472616374206973206e6f74206960448201527f6e697469616c697a696e670000000000000000000000000000000000000000006064820152608490fd5b6000198114611bd65760010190565b634e487b7160e01b600052601160045260246000fd5b80518210156118905760209160051b010190565b91908203918211611bd657565b80546801000000000000000081101561168757611c2f91600182018155611878565b819291549060031b916001600160a01b039283811b93849216901b16911916179055565b908160209103126117c6575180151581036117c65790565b91908201809211611bd65756fea26469706673582212203b0953090f0485aa1a9fb230f50d4561c94d8fd8453cec5e84d3696fb3a098f164736f6c63430008110033",
  "linkReferences": {},
  "deployedLinkReferences": {}
}