{
  "_format": "hh-sol-artifact-1",
  "contractName": "LogStoreManager",
  "sourceName": "src/StoreManager.sol",
  "abi": [
    {
      "anonymous": false,
      "inputs": [
        {
          "indexed": false,
          "internalType": "address",
          "name": "previousAdmin",
          "type": "address"
        },
        {
          "indexed": false,
          "internalType": "address",
          "name": "newAdmin",
          "type": "address"
        }
      ],
      "name": "AdminChanged",
      "type": "event"
    },
    {
      "anonymous": false,
      "inputs": [
        {
          "indexed": true,
          "internalType": "address",
          "name": "beacon",
          "type": "address"
        }
      ],
      "name": "BeaconUpgraded",
      "type": "event"
    },
    {
      "anonymous": false,
      "inputs": [
        {
          "indexed": false,
          "internalType": "string",
          "name": "store",
          "type": "string"
        },
        {
          "indexed": false,
          "internalType": "uint256",
          "name": "fees",
          "type": "uint256"
        },
        {
          "indexed": false,
          "internalType": "uint256",
          "name": "bytesStored",
          "type": "uint256"
        }
      ],
      "name": "DataStored",
      "type": "event"
    },
    {
      "anonymous": false,
      "inputs": [
        {
          "indexed": false,
          "internalType": "uint8",
          "name": "version",
          "type": "uint8"
        }
      ],
      "name": "Initialized",
      "type": "event"
    },
    {
      "anonymous": false,
      "inputs": [
        {
          "indexed": true,
          "internalType": "address",
          "name": "previousOwner",
          "type": "address"
        },
        {
          "indexed": true,
          "internalType": "address",
          "name": "newOwner",
          "type": "address"
        }
      ],
      "name": "OwnershipTransferred",
      "type": "event"
    },
    {
      "anonymous": false,
      "inputs": [
        {
          "indexed": false,
          "internalType": "string",
          "name": "store",
          "type": "string"
        },
        {
          "indexed": false,
          "internalType": "bool",
          "name": "isNew",
          "type": "bool"
        },
        {
          "indexed": false,
          "internalType": "uint256",
          "name": "amount",
          "type": "uint256"
        }
      ],
      "name": "StoreUpdated",
      "type": "event"
    },
    {
      "anonymous": false,
      "inputs": [
        {
          "indexed": true,
          "internalType": "address",
          "name": "implementation",
          "type": "address"
        }
      ],
      "name": "Upgraded",
      "type": "event"
    },
    {
      "inputs": [],
      "name": "LOGSTORE_QUERY_STREAM_ID_PATH",
      "outputs": [
        {
          "internalType": "string",
          "name": "",
          "type": "string"
        }
      ],
      "stateMutability": "view",
      "type": "function"
    },
    {
      "inputs": [],
      "name": "LOGSTORE_QUERY_STREAM_METADATA_JSON_STRING",
      "outputs": [
        {
          "internalType": "string",
          "name": "",
          "type": "string"
        }
      ],
      "stateMutability": "view",
      "type": "function"
    },
    {
      "inputs": [],
      "name": "LOGSTORE_SYSTEM_STREAM_ID_PATH",
      "outputs": [
        {
          "internalType": "string",
          "name": "",
          "type": "string"
        }
      ],
      "stateMutability": "view",
      "type": "function"
    },
    {
      "inputs": [],
      "name": "LOGSTORE_SYSTEM_STREAM_METADATA_JSON_STRING",
      "outputs": [
        {
          "internalType": "string",
          "name": "",
          "type": "string"
        }
      ],
      "stateMutability": "view",
      "type": "function"
    },
    {
      "inputs": [
        {
          "internalType": "address",
          "name": "",
          "type": "address"
        }
      ],
      "name": "balanceOf",
      "outputs": [
        {
          "internalType": "uint256",
          "name": "",
          "type": "uint256"
        }
      ],
      "stateMutability": "view",
      "type": "function"
    },
    {
      "inputs": [
        {
          "internalType": "string",
          "name": "streamId",
          "type": "string"
        },
        {
          "internalType": "uint256",
          "name": "amount",
          "type": "uint256"
        },
        {
          "internalType": "uint256",
          "name": "bytesStored",
          "type": "uint256"
        }
      ],
      "name": "capture",
      "outputs": [
        {
          "internalType": "bool",
          "name": "success",
          "type": "bool"
        }
      ],
      "stateMutability": "nonpayable",
      "type": "function"
    },
    {
      "inputs": [
        {
          "internalType": "string",
          "name": "streamId",
          "type": "string"
        }
      ],
      "name": "exists",
      "outputs": [
        {
          "internalType": "bool",
          "name": "",
          "type": "bool"
        }
      ],
      "stateMutability": "view",
      "type": "function"
    },
    {
      "inputs": [
        {
          "internalType": "address",
          "name": "owner_",
          "type": "address"
        },
        {
          "internalType": "address",
          "name": "stakeTokenAddress_",
          "type": "address"
        },
        {
          "internalType": "address",
          "name": "streamrRegistryAddress_",
          "type": "address"
        }
      ],
      "name": "initialize",
      "outputs": [],
      "stateMutability": "nonpayable",
      "type": "function"
    },
    {
      "inputs": [],
      "name": "owner",
      "outputs": [
        {
          "internalType": "address",
          "name": "",
          "type": "address"
        }
      ],
      "stateMutability": "view",
      "type": "function"
    },
    {
      "inputs": [],
      "name": "proxiableUUID",
      "outputs": [
        {
          "internalType": "bytes32",
          "name": "",
          "type": "bytes32"
        }
      ],
      "stateMutability": "view",
      "type": "function"
    },
    {
      "inputs": [],
      "name": "renounceOwnership",
      "outputs": [],
      "stateMutability": "nonpayable",
      "type": "function"
    },
    {
      "inputs": [
        {
          "internalType": "string",
          "name": "streamId",
          "type": "string"
        },
        {
          "internalType": "uint256",
          "name": "amount",
          "type": "uint256"
        }
      ],
      "name": "stake",
      "outputs": [],
      "stateMutability": "nonpayable",
      "type": "function"
    },
    {
      "inputs": [],
      "name": "stakeTokenAddress",
      "outputs": [
        {
          "internalType": "address",
          "name": "",
          "type": "address"
        }
      ],
      "stateMutability": "view",
      "type": "function"
    },
    {
      "inputs": [
        {
          "internalType": "address",
          "name": "",
          "type": "address"
        },
        {
          "internalType": "string",
          "name": "",
          "type": "string"
        }
      ],
      "name": "storeBalanceOf",
      "outputs": [
        {
          "internalType": "uint256",
          "name": "",
          "type": "uint256"
        }
      ],
      "stateMutability": "view",
      "type": "function"
    },
    {
      "inputs": [
        {
          "internalType": "string",
          "name": "",
          "type": "string"
        },
        {
          "internalType": "uint256",
          "name": "",
          "type": "uint256"
        }
      ],
      "name": "storeStakeholders",
      "outputs": [
        {
          "internalType": "address",
          "name": "",
          "type": "address"
        }
      ],
      "stateMutability": "view",
      "type": "function"
    },
    {
      "inputs": [
        {
          "internalType": "string",
          "name": "",
          "type": "string"
        }
      ],
      "name": "stores",
      "outputs": [
        {
          "internalType": "uint256",
          "name": "",
          "type": "uint256"
        }
      ],
      "stateMutability": "view",
      "type": "function"
    },
    {
      "inputs": [],
      "name": "totalSupply",
      "outputs": [
        {
          "internalType": "uint256",
          "name": "",
          "type": "uint256"
        }
      ],
      "stateMutability": "view",
      "type": "function"
    },
    {
      "inputs": [
        {
          "internalType": "address",
          "name": "newOwner",
          "type": "address"
        }
      ],
      "name": "transferOwnership",
      "outputs": [],
      "stateMutability": "nonpayable",
      "type": "function"
    },
    {
      "inputs": [
        {
          "internalType": "address",
          "name": "newImplementation",
          "type": "address"
        }
      ],
      "name": "upgradeTo",
      "outputs": [],
      "stateMutability": "nonpayable",
      "type": "function"
    },
    {
      "inputs": [
        {
          "internalType": "address",
          "name": "newImplementation",
          "type": "address"
        },
        {
          "internalType": "bytes",
          "name": "data",
          "type": "bytes"
        }
      ],
      "name": "upgradeToAndCall",
      "outputs": [],
      "stateMutability": "payable",
      "type": "function"
    }
  ],
  "bytecode": "0x60a080604052346100315730608052611f80908161003782396080518181816110730152818161117e01526115000152f35b600080fdfe60806040818152600480361015610016575b600080fd5b600092833560e01c9081630106395f1461175f575080630429945c1461174157806318160ddd14611722578063261a323e146116b657806328c2b946146107535780633659cfe6146114d557806348305634146114a05780634f1ef2861461112a57806352d1902d146110565780636115063a14610ff457806370a0823114610fbd578063715018a614610f625780638da5cb5b14610f3a5780639494c8ae14610c435780639ac0e98b1461075f578063a7cc540514610753578063baa2f780146106f2578063c0c53b8b146101f4578063ed231297146101945763f2fde38b1461010057600080fd5b346101905760203660031901126101905761011961192b565b91610122611a55565b6001600160a01b0383161561013e578361013b84611aad565b80f35b906020608492519162461bcd60e51b8352820152602660248201527f4f776e61626c653a206e6577206f776e657220697320746865207a65726f206160448201526564647265737360d01b6064820152fd5b8280fd5b5091346101f15760203660031901126101f15782359067ffffffffffffffff82116101f1575060206101cd81946101df933691016119b1565b81845193828580945193849201611879565b810160fd815203019020549051908152f35b80fd5b50346101905760603660031901126101905761020e61192b565b90602435916001600160a01b03918284168094036106ee57604435928084168094036105855786549360ff8560081c1615948580966106e1575b80156106ca575b156106615760ff198116600117895585610650575b5061027e60ff895460081c1661027981611d0d565b611d0d565b61028733611aad565b6102a460ff895460081c1661029b81611d0d565b61027981611d0d565b600160c955851561060d576001600160a01b031995610101818882541617905561010296828189541617885560fc54161760fc55876102e1611941565b916102ea6118c1565b813b15610190578291610313918b51948580948193630ef8cdc760e01b998a84528c8401611ccb565b03925af18015610603576105f0575b5087908287541690610332611840565b9161033b6118c1565b90803b156105ba5761035d938580948d519687958694859384528c8401611ccb565b03925af18015610589576105dc575b5061037630611e30565b9561037f611941565b966103be8951918281519a8b61039e60209d8e95868087019101611879565b82016103b282518093868085019101611879565b01038084520182611802565b83825416803b1561059357838a5180928183816103e8632337c3c760e11b988983528d8301611cf0565b03925af19081156105d25784916105be575b505061040530611e30565b9161044a89610412611840565b948c51958161042a8893518092868087019101611879565b820161043e82518093868085019101611879565b01038086520184611802565b8481541690813b156105ba578a51838152918590839081838161046f8a828f01611cf0565b03925af180156105b05786928691610597575b5050541691823b15610593576104af928a85809482519687958694859384528c840152604483019061189c565b6003602483015203925af1801561058957610571575b50506104cf611a55565b82161561051f57506104e090611aad565b6104e8578280f35b7f7f26b83ff96e1f2b6a682f133852f6798a09c465da95921460cefb38474024989161ff001984541684555160018152a138808280f35b845162461bcd60e51b8152908101849052602660248201527f4f776e61626c653a206e6577206f776e657220697320746865207a65726f206160448201526564647265737360d01b6064820152608490fd5b61057a90611784565b6105855786386104c5565b8680fd5b88513d84823e3d90fd5b8380fd5b6105a391929350611784565b6105935784908438610482565b8b513d87823e3d90fd5b8480fd5b6105c790611784565b6101905782386103fa565b8a513d86823e3d90fd5b6105e590611784565b61058557863861036c565b6105fc90989198611784565b9638610322565b88513d8b823e3d90fd5b865162461bcd60e51b8152602081850152601460248201527f6572726f725f626164547261636b6572446174610000000000000000000000006044820152606490fd5b61ffff191661010117885538610264565b875162461bcd60e51b8152602081860152602e60248201527f496e697469616c697a61626c653a20636f6e747261637420697320616c72656160448201527f647920696e697469616c697a65640000000000000000000000000000000000006064820152608490fd5b50303b15801561024f5750600160ff82161461024f565b50600160ff821610610248565b8580fd5b503461019057816003193601126101905761070b61192b565b9060243567ffffffffffffffff81116105ba576020946001600160a01b0361073b61074b959487943691016119b1565b9316815261010086522090611a01565b549051908152f35b505050506100116118fa565b50919034610c2e576060366003190112610c2e5767ffffffffffffffff83358181116105935761079290369086016119b1565b916024938435926001600160a01b039687610101541692845180946370a0823160e01b82523084830152818a60209788935afa908115610c39578291610c08575b508611610bc6578451928751938581818b01966107f181838a611879565b810160fe815203019020928a8751809586918982549182815201918752898720938a88915b838310610ba5575050505061082d92500385611802565b825b8451811015610a58578b6108438287611da4565b51168085528a896108738a8a61010094858352610862858c2082611a01565b549451938492839251928391611879565b810160fd81520301902054908115610a4657048b8102908082048d1490151715610a34576108cc6108c48e858a5260ff8d528d8a206108b3858254611db8565b9055858a52848d528d8a2090611a01565b918254611db8565b905581865288526108df8986208c611a01565b54156108f5575b506108f090611d7f565b61082f565b989193909a928a61092089898c519361090d856117ae565b8685528d51938492839251928391611879565b810160fe815203019020815191838311610a2257680100000000000000008311610a22578f908b9083548585558086106109fd575b50019185528a8520908b865b8581106109e957505050505050815b8d87518210156109d757908c8c8c8c8c836109a2976109908f8990611da4565b5116036109a7575b5050505050611d7f565b610970565b6109cd946109be9351938492839251928391611879565b810160fe815203019020611dc5565b8c8c8c8c8c610998565b5050929a6108f09194929950906108e6565b845183168482015593810193600101610961565b8488528583892091820191015b818110610a175750610955565b888155600101610a0a565b634e487b7160e01b8552604188528685fd5b634e487b7160e01b8752601185528d87fd5b634e487b7160e01b8852601286528e88fd5b5092505080848a610a79828c9a979b989b8a51809381928c51928391611879565b810160fd815203019020610a8e878254611db8565b9055610a9c8660fb54611db8565b60fb556101015416604488518094819363a9059cbb60e01b83523389840152898d8401525af1918215610b9a5791610b6d575b5015159460018603610b2b5750507f73a7f4c8f8a797ce166d69942684145ae0987b01644d3ef8ffd387969819d40f91610b1691845192839260608452606084019061189c565b9087830152604435858301520390a151908152f35b845162461bcd60e51b81529182018790526019908201527f6572726f725f756e7375636365737366756c43617074757265000000000000006044820152606490fd5b610b8d9150873d8911610b93575b610b858183611802565b810190611e0b565b87610acf565b503d610b7b565b8651903d90823e3d90fd5b600193955093839294875416815201940191019187928f8b90959395610816565b845162461bcd60e51b81528083018590526014818a01527f6572726f725f6e6f74456e6f7567685374616b650000000000000000000000006044820152606490fd5b90508481813d8311610c32575b610c1f8183611802565b81010312610c2e5751386107d3565b5080fd5b503d610c15565b86513d84823e3d90fd5b503461019057610c52366119cf565b90926001600160a01b0392836101025416938251809563130d191f60e11b8252602096879182868301528180610c8b602482018d61189c565b03915afa908115610f30578891610f13575b5015610ed1578315610e8f57848791610101541660648551809481936323b872dd60e01b835233888401523060248401528960448401525af1908115610e8557906001918891610e68575b50151503610e275750917f71a18d400e8f2654aebe2b0998654bbfb6769cad471c06b8141cfe473c3bb2af9391610ddf9386928151855190828181890193610d31818387611879565b810160fd8152030190205415610e1e575b825182818851610d53818387611879565b810160fd815203019020610d68858254611e23565b905533895260ff8252828920610d7f858254611e23565b905533895261010090818352610d97848b2088611a01565b5415610def575b503389528152610db082892086611a01565b610dbb848254611e23565b9055610dc98360fb54611e23565b60fb55815195869560608752606087019061189c565b931515908501528301520390a180f35b83518751610e1892610e049082908490611879565b81019060fe82528481339303019020611dc5565b38610d9e565b60019450610d42565b83606492519162461bcd60e51b8352820152601760248201527f6572726f725f756e7375636365737366756c5374616b650000000000000000006044820152fd5b610e7f9150863d8811610b9357610b858183611802565b38610ce8565b83513d89823e3d90fd5b5083606492519162461bcd60e51b8352820152601760248201527f6572726f725f696e73756666696369656e745374616b650000000000000000006044820152fd5b5083606492519162461bcd60e51b8352820152601360248201527f6572726f725f696e76616c696453747265616d000000000000000000000000006044820152fd5b610f2a9150863d8811610b9357610b858183611802565b38610c9d565b84513d8a823e3d90fd5b505034610c2e5781600319360112610c2e576020906001600160a01b03609754169051908152f35b83346101f157806003193601126101f157610f7b611a55565b806001600160a01b036097546001600160a01b03198116609755167f8be0079c531659141344cd1fd0a4f28419497f9722a3daafe3b4186f6b6457e08280a380f35b505034610c2e576020366003190112610c2e57806020926001600160a01b03610fe461192b565b16815260ff845220549051908152f35b505034610c2e5760209161101e61100a366119cf565b949081855193828580945193849201611879565b810160fe8152030190209081548410156101f157506110476020936001600160a01b0392611a27565b92905490519260031b1c168152f35b5082346101f157806003193601126101f157506001600160a01b037f00000000000000000000000000000000000000000000000000000000000000001630036110c257602082517f360894a13ba1a3210667c828492db98dca3e2076cc3735a920a3ca505d382bbc8152f35b6020608492519162461bcd60e51b8352820152603860248201527f555550535570677261646561626c653a206d757374206e6f742062652063616c60448201527f6c6564207468726f7567682064656c656761746563616c6c00000000000000006064820152fd5b50829082600319360112610c2e5761114061192b565b9060243567ffffffffffffffff8111610593573660238201121561059357611171903690602481850135910161197a565b936001600160a01b0390817f000000000000000000000000000000000000000000000000000000000000000016916111ab83301415611af5565b6111da7f360894a13ba1a3210667c828492db98dca3e2076cc3735a920a3ca505d382bbc938285541614611b67565b6111e2611a55565b7f4910fdfa16fed3260ed0e7147f7cc6da11a60208b5b9406d12a635614ffd91435460ff161561121b575050505061013b919250611bd9565b849193959294168351946352d1902d60e01b865260209586818981865afa859181611471575b506112a057855162461bcd60e51b8152808901889052602e60248201527f45524331393637557067726164653a206e657720696d706c656d656e7461746960448201526d6f6e206973206e6f74205555505360901b6064820152608490fd5b969192939603611408576112b383611bd9565b8351917fbc7cd75a20ee27fd9adebab32041f755214dbc6bffa90cc0225b39da2e5c2d3b8780a2865115801590611400575b6112f4575b5050505050905080f35b823b1561139a57505092808561137b95858398519201905af43d1561138757660819985a5b195960ca1b3d9261132984611824565b9361133682519586611802565b84523d878686013e5b7f416464726573733a206c6f772d6c6576656c2064656c65676174652063616c6c81519561136c876117ca565b60278752860152840152611c87565b508082808080806112ea565b660819985a5b195960ca1b60609261133f565b62461bcd60e51b82528101849052602660248201527f416464726573733a2064656c65676174652063616c6c20746f206e6f6e2d636f60448201527f6e747261637400000000000000000000000000000000000000000000000000006064820152608490fd5b5060016112e5565b835162461bcd60e51b8152908101859052602960248201527f45524331393637557067726164653a20756e737570706f727465642070726f7860448201527f6961626c655555494400000000000000000000000000000000000000000000006064820152608490fd5b9091508781813d8311611499575b6114898183611802565b810103126106ee5751908a611241565b503d61147f565b505034610c2e5781600319360112610c2e576114d1906114be611941565b905191829160208352602083019061189c565b0390f35b50829034610c2e5760209081600319360112610190576114f361192b565b916001600160a01b0394857f00000000000000000000000000000000000000000000000000000000000000001661152c81301415611af5565b61155b7f360894a13ba1a3210667c828492db98dca3e2076cc3735a920a3ca505d382bbc918883541614611b67565b611563611a55565b81519661156f886117ae565b8688527f4910fdfa16fed3260ed0e7147f7cc6da11a60208b5b9406d12a635614ffd91435460ff16156115ac57505050505061013b919250611bd9565b859294969395169084516352d1902d60e01b815286818981865afa859181611687575b5061162e57855162461bcd60e51b8152808901889052602e60248201527f45524331393637557067726164653a206e657720696d706c656d656e7461746960448201526d6f6e206973206e6f74205555505360901b6064820152608490fd5b9691929396036114085761164183611bd9565b8351917fbc7cd75a20ee27fd9adebab32041f755214dbc6bffa90cc0225b39da2e5c2d3b8780a2865115801590611680576112f4575050505050905080f35b50856112e5565b9091508781813d83116116af575b61169f8183611802565b810103126106ee5751908a6115cf565b503d611695565b50346101905760203660031901126101905780359267ffffffffffffffff91828511610c2e5736602386011215610c2e578401359182116101f15736602483860101116101f1575060208093826024938551948593018337810160fd8152030190205415159051908152f35b505034610c2e5781600319360112610c2e5760209060fb549051908152f35b505034610c2e5781600319360112610c2e576114d1906114be611840565b849034610c2e5781600319360112610c2e576020906001600160a01b0360fc54168152f35b67ffffffffffffffff811161179857604052565b634e487b7160e01b600052604160045260246000fd5b6020810190811067ffffffffffffffff82111761179857604052565b6060810190811067ffffffffffffffff82111761179857604052565b6040810190811067ffffffffffffffff82111761179857604052565b90601f8019910116810190811067ffffffffffffffff82111761179857604052565b67ffffffffffffffff811161179857601f01601f191660200190565b6040519061184d826117e6565b600f82527f2f6c6f6773746f72652d717565727900000000000000000000000000000000006020830152565b60005b83811061188c5750506000910152565b818101518382015260200161187c565b906020916118b581518092818552858086019101611879565b601f01601f1916010190565b604051906118ce826117e6565b601382527f7b2022706172746974696f6e73223a2031207d000000000000000000000000006020830152565b5034610011576000366003190112610011576114d16119176118c1565b60405191829160208352602083019061189c565b600435906001600160a01b038216820361001157565b6040519061194e826117e6565b601082527f2f6c6f6773746f72652d73797374656d000000000000000000000000000000006020830152565b92919261198682611824565b916119946040519384611802565b829481845281830111610011578281602093846000960137010152565b9080601f83011215610011578160206119cc9335910161197a565b90565b6040600319820112610011576004359067ffffffffffffffff8211610011576119fa916004016119b1565b9060243590565b602090611a1b928260405194838680955193849201611879565b82019081520301902090565b8054821015611a3f5760005260206000200190600090565b634e487b7160e01b600052603260045260246000fd5b6001600160a01b03609754163303611a6957565b606460405162461bcd60e51b815260206004820152602060248201527f4f776e61626c653a2063616c6c6572206973206e6f7420746865206f776e65726044820152fd5b609754906001600160a01b0380911691826001600160a01b0319821617609755167f8be0079c531659141344cd1fd0a4f28419497f9722a3daafe3b4186f6b6457e0600080a3565b15611afc57565b60405162461bcd60e51b815260206004820152602c60248201527f46756e6374696f6e206d7573742062652063616c6c6564207468726f7567682060448201527f64656c656761746563616c6c00000000000000000000000000000000000000006064820152608490fd5b15611b6e57565b60405162461bcd60e51b815260206004820152602c60248201527f46756e6374696f6e206d7573742062652063616c6c6564207468726f7567682060448201527f6163746976652070726f787900000000000000000000000000000000000000006064820152608490fd5b803b15611c1c576001600160a01b037f360894a13ba1a3210667c828492db98dca3e2076cc3735a920a3ca505d382bbc91166001600160a01b0319825416179055565b60405162461bcd60e51b815260206004820152602d60248201527f455243313936373a206e657720696d706c656d656e746174696f6e206973206e60448201527f6f74206120636f6e7472616374000000000000000000000000000000000000006064820152608490fd5b90919015611c93575090565b815115611ca35750805190602001fd5b60405162461bcd60e51b815260206004820152908190611cc790602483019061189c565b0390fd5b9091611ce26119cc9360408452604084019061189c565b91602081840391015261189c565b91906020611d0860029260408652604086019061189c565b930152565b15611d1457565b60405162461bcd60e51b815260206004820152602b60248201527f496e697469616c697a61626c653a20636f6e7472616374206973206e6f74206960448201527f6e697469616c697a696e670000000000000000000000000000000000000000006064820152608490fd5b6000198114611d8e5760010190565b634e487b7160e01b600052601160045260246000fd5b8051821015611a3f5760209160051b010190565b91908203918211611d8e57565b80546801000000000000000081101561179857611de791600182018155611a27565b819291549060031b916001600160a01b039283811b93849216901b16911916179055565b90816020910312610011575180151581036100115790565b91908201809211611d8e57565b6001600160a01b031660405190611e46826117ca565b602a82526020908183016040368237835115611a3f57603090538251600190811015611a3f57607860218501536029905b808211611ecb575050611e88575090565b6064906040519062461bcd60e51b825280600483015260248201527f537472696e67733a20686578206c656e67746820696e73756666696369656e746044820152fd5b9091600f81166010811015611f35578551841015611f35577f3031323334353637383961626364656600000000000000000000000000000000901a84848701015360041c918015611f20576000190190611e77565b60246000634e487b7160e01b81526011600452fd5b60246000634e487b7160e01b81526032600452fdfea264697066735822122067fa4e4da257e57c56c7c419a1252f89045f21137d8a6b649e5b091f66f275c864736f6c63430008110033",
  "linkReferences": {},
  "deployedLinkReferences": {}
}