{
  "_format": "hh-sol-artifact-1",
  "contractName": "LogStoreManager",
  "sourceName": "src/StoreManager.sol",
  "abi": [
    {
      "anonymous": false,
      "inputs": [
        {
          "indexed": false,
          "internalType": "address",
          "name": "previousAdmin",
          "type": "address"
        },
        {
          "indexed": false,
          "internalType": "address",
          "name": "newAdmin",
          "type": "address"
        }
      ],
      "name": "AdminChanged",
      "type": "event"
    },
    {
      "anonymous": false,
      "inputs": [
        {
          "indexed": true,
          "internalType": "address",
          "name": "beacon",
          "type": "address"
        }
      ],
      "name": "BeaconUpgraded",
      "type": "event"
    },
    {
      "anonymous": false,
      "inputs": [
        {
          "indexed": false,
          "internalType": "string",
          "name": "store",
          "type": "string"
        },
        {
          "indexed": false,
          "internalType": "uint256",
          "name": "fees",
          "type": "uint256"
        },
        {
          "indexed": false,
          "internalType": "uint256",
          "name": "bytesStored",
          "type": "uint256"
        }
      ],
      "name": "DataStored",
      "type": "event"
    },
    {
      "anonymous": false,
      "inputs": [
        {
          "indexed": false,
          "internalType": "uint8",
          "name": "version",
          "type": "uint8"
        }
      ],
      "name": "Initialized",
      "type": "event"
    },
    {
      "anonymous": false,
      "inputs": [
        {
          "indexed": true,
          "internalType": "address",
          "name": "previousOwner",
          "type": "address"
        },
        {
          "indexed": true,
          "internalType": "address",
          "name": "newOwner",
          "type": "address"
        }
      ],
      "name": "OwnershipTransferred",
      "type": "event"
    },
    {
      "anonymous": false,
      "inputs": [
        {
          "indexed": false,
          "internalType": "string",
          "name": "store",
          "type": "string"
        },
        {
          "indexed": false,
          "internalType": "bool",
          "name": "isNew",
          "type": "bool"
        },
        {
          "indexed": false,
          "internalType": "uint256",
          "name": "amount",
          "type": "uint256"
        }
      ],
      "name": "StoreUpdated",
      "type": "event"
    },
    {
      "anonymous": false,
      "inputs": [
        {
          "indexed": true,
          "internalType": "address",
          "name": "implementation",
          "type": "address"
        }
      ],
      "name": "Upgraded",
      "type": "event"
    },
    {
      "inputs": [
        {
          "internalType": "address",
          "name": "",
          "type": "address"
        }
      ],
      "name": "balanceOf",
      "outputs": [
        {
          "internalType": "uint256",
          "name": "",
          "type": "uint256"
        }
      ],
      "stateMutability": "view",
      "type": "function"
    },
    {
      "inputs": [
        {
          "internalType": "string",
          "name": "streamId",
          "type": "string"
        },
        {
          "internalType": "uint256",
          "name": "amount",
          "type": "uint256"
        },
        {
          "internalType": "uint256",
          "name": "bytesStored",
          "type": "uint256"
        }
      ],
      "name": "capture",
      "outputs": [],
      "stateMutability": "nonpayable",
      "type": "function"
    },
    {
      "inputs": [
        {
          "internalType": "string",
          "name": "streamId",
          "type": "string"
        }
      ],
      "name": "exists",
      "outputs": [
        {
          "internalType": "bool",
          "name": "",
          "type": "bool"
        }
      ],
      "stateMutability": "view",
      "type": "function"
    },
    {
      "inputs": [
        {
          "internalType": "address",
          "name": "owner_",
          "type": "address"
        },
        {
          "internalType": "address",
          "name": "stakeTokenAddress_",
          "type": "address"
        },
        {
          "internalType": "address",
          "name": "streamrRegistryAddress_",
          "type": "address"
        }
      ],
      "name": "initialize",
      "outputs": [],
      "stateMutability": "nonpayable",
      "type": "function"
    },
    {
      "inputs": [],
      "name": "owner",
      "outputs": [
        {
          "internalType": "address",
          "name": "",
          "type": "address"
        }
      ],
      "stateMutability": "view",
      "type": "function"
    },
    {
      "inputs": [],
      "name": "proxiableUUID",
      "outputs": [
        {
          "internalType": "bytes32",
          "name": "",
          "type": "bytes32"
        }
      ],
      "stateMutability": "view",
      "type": "function"
    },
    {
      "inputs": [],
      "name": "renounceOwnership",
      "outputs": [],
      "stateMutability": "nonpayable",
      "type": "function"
    },
    {
      "inputs": [
        {
          "internalType": "string",
          "name": "streamId",
          "type": "string"
        },
        {
          "internalType": "uint256",
          "name": "amount",
          "type": "uint256"
        }
      ],
      "name": "stake",
      "outputs": [],
      "stateMutability": "nonpayable",
      "type": "function"
    },
    {
      "inputs": [],
      "name": "stakeTokenAddress",
      "outputs": [
        {
          "internalType": "address",
          "name": "",
          "type": "address"
        }
      ],
      "stateMutability": "view",
      "type": "function"
    },
    {
      "inputs": [
        {
          "internalType": "address",
          "name": "",
          "type": "address"
        },
        {
          "internalType": "string",
          "name": "",
          "type": "string"
        }
      ],
      "name": "storeBalanceOf",
      "outputs": [
        {
          "internalType": "uint256",
          "name": "",
          "type": "uint256"
        }
      ],
      "stateMutability": "view",
      "type": "function"
    },
    {
      "inputs": [
        {
          "internalType": "string",
          "name": "",
          "type": "string"
        },
        {
          "internalType": "uint256",
          "name": "",
          "type": "uint256"
        }
      ],
      "name": "storeStakeholders",
      "outputs": [
        {
          "internalType": "address",
          "name": "",
          "type": "address"
        }
      ],
      "stateMutability": "view",
      "type": "function"
    },
    {
      "inputs": [
        {
          "internalType": "string",
          "name": "",
          "type": "string"
        }
      ],
      "name": "stores",
      "outputs": [
        {
          "internalType": "uint256",
          "name": "",
          "type": "uint256"
        }
      ],
      "stateMutability": "view",
      "type": "function"
    },
    {
      "inputs": [],
      "name": "totalSupply",
      "outputs": [
        {
          "internalType": "uint256",
          "name": "",
          "type": "uint256"
        }
      ],
      "stateMutability": "view",
      "type": "function"
    },
    {
      "inputs": [
        {
          "internalType": "address",
          "name": "newOwner",
          "type": "address"
        }
      ],
      "name": "transferOwnership",
      "outputs": [],
      "stateMutability": "nonpayable",
      "type": "function"
    },
    {
      "inputs": [
        {
          "internalType": "address",
          "name": "newImplementation",
          "type": "address"
        }
      ],
      "name": "upgradeTo",
      "outputs": [],
      "stateMutability": "nonpayable",
      "type": "function"
    },
    {
      "inputs": [
        {
          "internalType": "address",
          "name": "newImplementation",
          "type": "address"
        },
        {
          "internalType": "bytes",
          "name": "data",
          "type": "bytes"
        }
      ],
      "name": "upgradeToAndCall",
      "outputs": [],
      "stateMutability": "payable",
      "type": "function"
    }
  ],
  "bytecode": "0x60a080604052346100315730608052611a7890816100378239608051818181610e6501528181610f7201526112b40152f35b600080fdfe608080604052600436101561001357600080fd5b60003560e01c9081630106395f146114ec5750806318160ddd146114ce578063261a323e146114615780633659cfe61461128f5780634f1ef28614610f2057806352d1902d14610e4a5780636115063a14610dea57806370a0823114610db0578063715018a614610d555780638da5cb5b14610d2e5780639494c8ae14610a325780639ac0e98b1461045c578063baa2f780146103f7578063c0c53b8b146101d7578063ed2312971461017a5763f2fde38b146100cf57600080fd5b34610175576020366003190112610175576100e8611510565b6100f061169a565b6001600160a01b0381161561010a57610108906116f2565b005b60405162461bcd60e51b815260206004820152602660248201527f4f776e61626c653a206e6577206f776e657220697320746865207a65726f206160448201527f64647265737300000000000000000000000000000000000000000000000000006064820152608490fd5b600080fd5b346101755760203660031901126101755760043567ffffffffffffffff8111610175576101c460206101b1819336906004016115d3565b8160405193828580945193849201611623565b810160fd81520301902054604051908152f35b34610175576060366003190112610175576101f0611510565b602435906001600160a01b038083168093036101755760443592818416809403610175576000549360ff8560081c1615948580966103ea575b80156103d3575b156103685760ff19811660011760005585610356575b5061026160ff60005460081c1661025c81611935565b611935565b61026a336116f2565b61028860ff60005460081c1661027f81611935565b61025c81611935565b600160c9558115610311576001600160a01b0319906101029082825416179055610101828282541617905560fc54161760fc556102c361169a565b81161561010a576102d3906116f2565b6102d957005b61ff0019600054166000557f7f26b83ff96e1f2b6a682f133852f6798a09c465da95921460cefb3847402498602060405160018152a1005b60405162461bcd60e51b815260206004820152601460248201527f6572726f725f626164547261636b6572446174610000000000000000000000006044820152606490fd5b61ffff19166101011760005585610246565b60405162461bcd60e51b815260206004820152602e60248201527f496e697469616c697a61626c653a20636f6e747261637420697320616c72656160448201527f647920696e697469616c697a65640000000000000000000000000000000000006064820152608490fd5b50303b1580156102305750600160ff821614610230565b50600160ff821610610229565b3461017557604036600319011261017557610410611510565b60243567ffffffffffffffff8111610175576020916001600160a01b0361043e6104539336906004016115d3565b91166000526101008352604060002090611646565b54604051908152f35b346101755760603660031901126101755760043567ffffffffffffffff81116101755761048d9036906004016115d3565b600260c954146109ed57600260c9556104a461169a565b60405160208183516104b98183858801611623565b810160fd81520301902054156109a857602460206001600160a01b036101015416604051928380926370a0823160e01b82523060048301525afa90811561090357600091610976575b50602435116109315760405160208183516105208183858801611623565b810160fe815203019020906040518083602082955493848152019060005260206000209260005b81811061090f57505061055c9250038361155e565b6000905b82518210156107b0576001600160a01b0361057b83856119b6565b511680600052610100602052610595604060002083611646565b5460405160208185516105ab8183858a01611623565b810160fd8152030190205490811561079a57046024358102908082046024351490151715610784578160005260ff60205260406000206105ec8282546119ca565b905581600052610100602052610611610609604060002085611646565b9182546119ca565b90558060005261010060205261062b604060002083611646565b5415610643575b509061063d906119a7565b90610560565b60405161064f81611526565b6000815260405160208185516106688183858a01611623565b810160fe81520301902081519167ffffffffffffffff831161076e5768010000000000000000831161076e578154838355808410610745575b5060200190600052602060002060005b838110610728575050505060005b845181101561071d5780826001600160a01b036106df6106eb94896119b6565b5116036106f0576119a7565b6106bf565b6107188360405160208188516107098183858d01611623565b810160fe8152030190206119d7565b6119a7565b5061063d9050610632565b60019060206001600160a01b0385511694019381840155016106b1565b8260005283602060002091820191015b81811061076257506106a1565b60008155600101610755565b634e487b7160e01b600052604160045260246000fd5b634e487b7160e01b600052601160045260246000fd5b634e487b7160e01b600052601260045260246000fd5b60405160208183516107c58183858801611623565b810160fd8152030190206107dc60243582546119ca565b90556107ec60243560fb546119ca565b60fb55600060206001600160a01b03610101541660446040518094819363a9059cbb60e01b835233600484015260243560248401525af18015610903576001916000916108d4575b5015150361088f576108757f73a7f4c8f8a797ce166d69942684145ae0987b01644d3ef8ffd387969819d40f91604051918291606083526060830190611910565b602435602083015260443560408301520390a1600160c955005b60405162461bcd60e51b815260206004820152601960248201527f6572726f725f756e7375636365737366756c43617074757265000000000000006044820152606490fd5b6108f6915060203d6020116108fc575b6108ee818361155e565b810190611a1d565b83610834565b503d6108e4565b6040513d6000823e3d90fd5b84546001600160a01b0316835260019485019487945060209093019201610547565b60405162461bcd60e51b815260206004820152601460248201527f6572726f725f6e6f74456e6f7567685374616b650000000000000000000000006044820152606490fd5b90506020813d6020116109a0575b816109916020938361155e565b81010312610175575182610502565b3d9150610984565b60405162461bcd60e51b815260206004820152601560248201527f6572726f725f696e76616c696453747265616d496400000000000000000000006044820152606490fd5b60405162461bcd60e51b815260206004820152601f60248201527f5265656e7472616e637947756172643a207265656e7472616e742063616c6c006044820152606490fd5b3461017557610a40366115f1565b6001600160a01b039081610102541691604051809363130d191f60e11b825260209485918260048301528180610a79602482018b611910565b03915afa90811561090357600091610d11575b5015610ccc578115610c87578260009161010154166064604051809481936323b872dd60e01b83523360048401523060248401528760448401525af1801561090357600191600091610c6a575b50151503610c255791610bdb917f71a18d400e8f2654aebe2b0998654bbfb6769cad471c06b8141cfe473c3bb2af93600091604051845190828181880193610b22818387611623565b810160fd8152030190205415610c1c575b60405182818751610b45818387611623565b810160fd815203019020610b5a848254611a35565b90553360005260ff82526040600020610b74848254611a35565b90553360005261010090818352610b8f604060002087611646565b5415610bec575b50336000528152610bab604060002085611646565b610bb6838254611a35565b9055610bc48260fb54611a35565b60fb55604051948594606086526060860190611910565b9215159084015260408301520390a1005b6040518651610c1692610c029082908490611623565b81019060fe825284813393030190206119d7565b87610b96565b60019350610b33565b60405162461bcd60e51b815260048101839052601760248201527f6572726f725f756e7375636365737366756c5374616b650000000000000000006044820152606490fd5b610c819150843d86116108fc576108ee818361155e565b85610ad9565b60405162461bcd60e51b815260048101849052601760248201527f6572726f725f696e73756666696369656e745374616b650000000000000000006044820152606490fd5b60405162461bcd60e51b815260048101849052601360248201527f6572726f725f696e76616c696453747265616d000000000000000000000000006044820152606490fd5b610d289150843d86116108fc576108ee818361155e565b85610a8c565b346101755760003660031901126101755760206001600160a01b0360975416604051908152f35b3461017557600036600319011261017557610d6e61169a565b60006001600160a01b036097546001600160a01b03198116609755167f8be0079c531659141344cd1fd0a4f28419497f9722a3daafe3b4186f6b6457e08280a3005b34610175576020366003190112610175576001600160a01b03610dd1611510565b1660005260ff6020526020604060002054604051908152f35b34610175576020610e12610dfd366115f1565b92908160405193828580945193849201611623565b810160fe81520301902090815481101561017557610e3a6001600160a01b039160209361166c565b9190546040519260031b1c168152f35b34610175576000366003190112610175576001600160a01b037f0000000000000000000000000000000000000000000000000000000000000000163003610eb55760206040517f360894a13ba1a3210667c828492db98dca3e2076cc3735a920a3ca505d382bbc8152f35b60405162461bcd60e51b815260206004820152603860248201527f555550535570677261646561626c653a206d757374206e6f742062652063616c60448201527f6c6564207468726f7567682064656c656761746563616c6c00000000000000006064820152608490fd5b604036600319011261017557610f34611510565b60243567ffffffffffffffff8111610175573660238201121561017557610f6590369060248160040135910161159c565b906001600160a01b0391827f00000000000000000000000000000000000000000000000000000000000000001692610f9f8430141561173a565b610fce7f360894a13ba1a3210667c828492db98dca3e2076cc3735a920a3ca505d382bbc9482865416146117ac565b610fd661169a565b7f4910fdfa16fed3260ed0e7147f7cc6da11a60208b5b9406d12a635614ffd91435460ff161561100c575050610108915061181e565b82919216604051936352d1902d60e01b85526020948581600481865afa60009181611260575b506110935760405162461bcd60e51b815260048101879052602e60248201527f45524331393637557067726164653a206e657720696d706c656d656e7461746960448201526d6f6e206973206e6f74205555505360901b6064820152608490fd5b036111f5576110a18261181e565b604051907fbc7cd75a20ee27fd9adebab32041f755214dbc6bffa90cc0225b39da2e5c2d3b600080a28251158015906111ed575b6110db57005b813b1561118557506000828192856101089695519201905af43d1561117d573d9061110582611580565b91611113604051938461155e565b82523d60008484013e5b7f416464726573733a206c6f772d6c6576656c2064656c65676174652063616c6c6040519361114b85611542565b602785528401527f206661696c65640000000000000000000000000000000000000000000000000060408401526118cc565b60609061111d565b62461bcd60e51b815260048101849052602660248201527f416464726573733a2064656c65676174652063616c6c20746f206e6f6e2d636f60448201527f6e747261637400000000000000000000000000000000000000000000000000006064820152608490fd5b5060016110d5565b60405162461bcd60e51b815260048101859052602960248201527f45524331393637557067726164653a20756e737570706f727465642070726f7860448201527f6961626c655555494400000000000000000000000000000000000000000000006064820152608490fd5b9091508681813d8311611288575b611278818361155e565b8101031261017557519087611032565b503d61126e565b3461017557602080600319360112610175576112a9611510565b6001600160a01b03807f0000000000000000000000000000000000000000000000000000000000000000166112e08130141561173a565b61130f7f360894a13ba1a3210667c828492db98dca3e2076cc3735a920a3ca505d382bbc9183835416146117ac565b61131761169a565b6040519161132483611526565b600083527f4910fdfa16fed3260ed0e7147f7cc6da11a60208b5b9406d12a635614ffd91435460ff161561135f57505050610108915061181e565b83929316906040516352d1902d60e01b81528581600481865afa60009181611432575b506113e35760405162461bcd60e51b815260048101879052602e60248201527f45524331393637557067726164653a206e657720696d706c656d656e7461746960448201526d6f6e206973206e6f74205555505360901b6064820152608490fd5b036111f5576113f18261181e565b604051907fbc7cd75a20ee27fd9adebab32041f755214dbc6bffa90cc0225b39da2e5c2d3b600080a282511580159061142a576110db57005b5060006110d5565b9091508681813d831161145a575b61144a818361155e565b8101031261017557519087611382565b503d611440565b346101755760203660031901126101755767ffffffffffffffff6004358181116101755736602382011215610175578060040135918211610175573660248383010111610175576020602491838294604051948593018337810160fd815203019020541515604051908152f35b3461017557600036600319011261017557602060fb54604051908152f35b34610175576000366003190112610175576020906001600160a01b0360fc54168152f35b600435906001600160a01b038216820361017557565b6020810190811067ffffffffffffffff82111761076e57604052565b6060810190811067ffffffffffffffff82111761076e57604052565b90601f8019910116810190811067ffffffffffffffff82111761076e57604052565b67ffffffffffffffff811161076e57601f01601f191660200190565b9291926115a882611580565b916115b6604051938461155e565b829481845281830111610175578281602093846000960137010152565b9080601f83011215610175578160206115ee9335910161159c565b90565b6040600319820112610175576004359067ffffffffffffffff82116101755761161c916004016115d3565b9060243590565b60005b8381106116365750506000910152565b8181015183820152602001611626565b602090611660928260405194838680955193849201611623565b82019081520301902090565b80548210156116845760005260206000200190600090565b634e487b7160e01b600052603260045260246000fd5b6001600160a01b036097541633036116ae57565b606460405162461bcd60e51b815260206004820152602060248201527f4f776e61626c653a2063616c6c6572206973206e6f7420746865206f776e65726044820152fd5b609754906001600160a01b0380911691826001600160a01b0319821617609755167f8be0079c531659141344cd1fd0a4f28419497f9722a3daafe3b4186f6b6457e0600080a3565b1561174157565b60405162461bcd60e51b815260206004820152602c60248201527f46756e6374696f6e206d7573742062652063616c6c6564207468726f7567682060448201527f64656c656761746563616c6c00000000000000000000000000000000000000006064820152608490fd5b156117b357565b60405162461bcd60e51b815260206004820152602c60248201527f46756e6374696f6e206d7573742062652063616c6c6564207468726f7567682060448201527f6163746976652070726f787900000000000000000000000000000000000000006064820152608490fd5b803b15611861576001600160a01b037f360894a13ba1a3210667c828492db98dca3e2076cc3735a920a3ca505d382bbc91166001600160a01b0319825416179055565b60405162461bcd60e51b815260206004820152602d60248201527f455243313936373a206e657720696d706c656d656e746174696f6e206973206e60448201527f6f74206120636f6e7472616374000000000000000000000000000000000000006064820152608490fd5b909190156118d8575090565b8151156118e85750805190602001fd5b60405162461bcd60e51b81526020600482015290819061190c906024830190611910565b0390fd5b9060209161192981518092818552858086019101611623565b601f01601f1916010190565b1561193c57565b60405162461bcd60e51b815260206004820152602b60248201527f496e697469616c697a61626c653a20636f6e7472616374206973206e6f74206960448201527f6e697469616c697a696e670000000000000000000000000000000000000000006064820152608490fd5b60001981146107845760010190565b80518210156116845760209160051b010190565b9190820391821161078457565b80546801000000000000000081101561076e576119f99160018201815561166c565b819291549060031b916001600160a01b039283811b93849216901b16911916179055565b90816020910312610175575180151581036101755790565b919082018092116107845756fea264697066735822122055393deec45b23449e96039a28e1ff932087b095cc3c46a177545fa447386aa164736f6c63430008110033",
  "linkReferences": {},
  "deployedLinkReferences": {}
}