{
	"_format": "hh-sol-artifact-1",
	"contractName": "LogStoreManager",
	"sourceName": "src/StoreManager.sol",
	"abi": [
		{
			"anonymous": false,
			"inputs": [
				{
					"indexed": false,
					"internalType": "address",
					"name": "previousAdmin",
					"type": "address"
				},
				{
					"indexed": false,
					"internalType": "address",
					"name": "newAdmin",
					"type": "address"
				}
			],
			"name": "AdminChanged",
			"type": "event"
		},
		{
			"anonymous": false,
			"inputs": [
				{
					"indexed": true,
					"internalType": "address",
					"name": "beacon",
					"type": "address"
				}
			],
			"name": "BeaconUpgraded",
			"type": "event"
		},
		{
			"anonymous": false,
			"inputs": [
				{
					"indexed": false,
					"internalType": "string",
					"name": "store",
					"type": "string"
				},
				{
					"indexed": false,
					"internalType": "uint256",
					"name": "fees",
					"type": "uint256"
				},
				{
					"indexed": false,
					"internalType": "uint256",
					"name": "bytesStored",
					"type": "uint256"
				}
			],
			"name": "DataStored",
			"type": "event"
		},
		{
			"anonymous": false,
			"inputs": [
				{
					"indexed": false,
					"internalType": "uint8",
					"name": "version",
					"type": "uint8"
				}
			],
			"name": "Initialized",
			"type": "event"
		},
		{
			"anonymous": false,
			"inputs": [
				{
					"indexed": true,
					"internalType": "address",
					"name": "previousOwner",
					"type": "address"
				},
				{
					"indexed": true,
					"internalType": "address",
					"name": "newOwner",
					"type": "address"
				}
			],
			"name": "OwnershipTransferred",
			"type": "event"
		},
		{
			"anonymous": false,
			"inputs": [
				{
					"indexed": false,
					"internalType": "string",
					"name": "store",
					"type": "string"
				},
				{
					"indexed": false,
					"internalType": "bool",
					"name": "isNew",
					"type": "bool"
				},
				{
					"indexed": false,
					"internalType": "uint256",
					"name": "amount",
					"type": "uint256"
				},
				{
					"indexed": false,
					"internalType": "address",
					"name": "updatedBy",
					"type": "address"
				}
			],
			"name": "StoreUpdated",
			"type": "event"
		},
		{
			"anonymous": false,
			"inputs": [
				{
					"indexed": true,
					"internalType": "address",
					"name": "implementation",
					"type": "address"
				}
			],
			"name": "Upgraded",
			"type": "event"
		},
		{
			"inputs": [
				{
					"internalType": "address",
					"name": "",
					"type": "address"
				}
			],
			"name": "balanceOf",
			"outputs": [
				{
					"internalType": "uint256",
					"name": "",
					"type": "uint256"
				}
			],
			"stateMutability": "view",
			"type": "function"
		},
		{
			"inputs": [
				{
					"internalType": "string",
					"name": "streamId",
					"type": "string"
				},
				{
					"internalType": "uint256",
					"name": "amount",
					"type": "uint256"
				},
				{
					"internalType": "uint256",
					"name": "bytesStored",
					"type": "uint256"
				}
			],
			"name": "capture",
			"outputs": [
				{
					"internalType": "bool",
					"name": "success",
					"type": "bool"
				}
			],
			"stateMutability": "nonpayable",
			"type": "function"
		},
		{
			"inputs": [
				{
					"internalType": "string[]",
					"name": "streamIds",
					"type": "string[]"
				},
				{
					"internalType": "uint256[]",
					"name": "amounts",
					"type": "uint256[]"
				},
				{
					"internalType": "uint256[]",
					"name": "bytesStored",
					"type": "uint256[]"
				}
			],
			"name": "captureBundle",
			"outputs": [],
			"stateMutability": "nonpayable",
			"type": "function"
		},
		{
			"inputs": [
				{
					"internalType": "string",
					"name": "streamId",
					"type": "string"
				}
			],
			"name": "exists",
			"outputs": [
				{
					"internalType": "bool",
					"name": "",
					"type": "bool"
				}
			],
			"stateMutability": "view",
			"type": "function"
		},
		{
			"inputs": [
				{
					"internalType": "address",
					"name": "owner",
					"type": "address"
				},
				{
					"internalType": "address",
					"name": "stakeTokenAddress_",
					"type": "address"
				},
				{
					"internalType": "address",
					"name": "streamrRegistryAddress_",
					"type": "address"
				}
			],
			"name": "initialize",
			"outputs": [],
			"stateMutability": "nonpayable",
			"type": "function"
		},
		{
			"inputs": [],
			"name": "owner",
			"outputs": [
				{
					"internalType": "address",
					"name": "",
					"type": "address"
				}
			],
			"stateMutability": "view",
			"type": "function"
		},
		{
			"inputs": [],
			"name": "proxiableUUID",
			"outputs": [
				{
					"internalType": "bytes32",
					"name": "",
					"type": "bytes32"
				}
			],
			"stateMutability": "view",
			"type": "function"
		},
		{
			"inputs": [],
			"name": "renounceOwnership",
			"outputs": [],
			"stateMutability": "nonpayable",
			"type": "function"
		},
		{
			"inputs": [
				{
					"internalType": "string",
					"name": "streamId",
					"type": "string"
				},
				{
					"internalType": "uint256",
					"name": "amount",
					"type": "uint256"
				}
			],
			"name": "stake",
			"outputs": [],
			"stateMutability": "nonpayable",
			"type": "function"
		},
		{
			"inputs": [],
			"name": "stakeTokenAddress",
			"outputs": [
				{
					"internalType": "address",
					"name": "",
					"type": "address"
				}
			],
			"stateMutability": "view",
			"type": "function"
		},
		{
			"inputs": [
				{
					"internalType": "address",
					"name": "",
					"type": "address"
				},
				{
					"internalType": "string",
					"name": "",
					"type": "string"
				}
			],
			"name": "storeBalanceOf",
			"outputs": [
				{
					"internalType": "uint256",
					"name": "",
					"type": "uint256"
				}
			],
			"stateMutability": "view",
			"type": "function"
		},
		{
			"inputs": [
				{
					"internalType": "string",
					"name": "",
					"type": "string"
				},
				{
					"internalType": "uint256",
					"name": "",
					"type": "uint256"
				}
			],
			"name": "storeStakeholders",
			"outputs": [
				{
					"internalType": "address",
					"name": "",
					"type": "address"
				}
			],
			"stateMutability": "view",
			"type": "function"
		},
		{
			"inputs": [
				{
					"internalType": "string",
					"name": "",
					"type": "string"
				}
			],
			"name": "stores",
			"outputs": [
				{
					"internalType": "uint256",
					"name": "",
					"type": "uint256"
				}
			],
			"stateMutability": "view",
			"type": "function"
		},
		{
			"inputs": [],
			"name": "totalSupply",
			"outputs": [
				{
					"internalType": "uint256",
					"name": "",
					"type": "uint256"
				}
			],
			"stateMutability": "view",
			"type": "function"
		},
		{
			"inputs": [
				{
					"internalType": "address",
					"name": "newOwner",
					"type": "address"
				}
			],
			"name": "transferOwnership",
			"outputs": [],
			"stateMutability": "nonpayable",
			"type": "function"
		},
		{
			"inputs": [
				{
					"internalType": "address",
					"name": "newImplementation",
					"type": "address"
				}
			],
			"name": "upgradeTo",
			"outputs": [],
			"stateMutability": "nonpayable",
			"type": "function"
		},
		{
			"inputs": [
				{
					"internalType": "address",
					"name": "newImplementation",
					"type": "address"
				},
				{
					"internalType": "bytes",
					"name": "data",
					"type": "bytes"
				}
			],
			"name": "upgradeToAndCall",
			"outputs": [],
			"stateMutability": "payable",
			"type": "function"
		}
	],
	"bytecode": "0x60a080604052346100315730608052611b7b90816100378239608051818181610877015281816109820152610cd30152f35b600080fdfe60a0604081815260048036101561001557600080fd5b600092833560e01c9081630106395f1461107c5750806318160ddd1461105d578063261a323e14610ff157806330c59dfc14610e895780633659cfe614610ca85780634f1ef2861461092e57806352d1902d1461085a5780636115063a146107f857806370a08231146107c1578063715018a6146107665780638da5cb5b1461073a5780639494c8ae146104e25780639ac0e98b14610494578063baa2f78014610430578063c0c53b8b146101d2578063ed231297146101725763f2fde38b146100de57600080fd5b3461016e57602036600319011261016e576100f76111fd565b916101006112bc565b6001600160a01b0383161561011c578361011984611314565b80f35b906020608492519162461bcd60e51b8352820152602660248201527f4f776e61626c653a206e6577206f776e657220697320746865207a65726f206160448201526564647265737360d01b6064820152fd5b8280fd5b5091346101cf5760203660031901126101cf5782359067ffffffffffffffff82116101cf575060206101ab81946101bd93369101611181565b81845193828580945193849201611245565b810160cb815203019020549051908152f35b80fd5b503461016e57606036600319011261016e576101ec6111fd565b602435916001600160a01b0380841680940361042c57604435938185168095036104285786549460ff8660081c16159586809761041b575b8015610404575b1561039b5760ff19811660011789558661038a575b5061025a60ff895460081c1661025581611557565b611557565b61026333611314565b61027360ff895460081c16611557565b8115610347576001600160a01b031990828260cf54161760cf558160d054161760d05560ca54161760ca556102a66112bc565b8216156102f557506102b790611314565b6102bf575080f35b60207f7f26b83ff96e1f2b6a682f133852f6798a09c465da95921460cefb38474024989161ff001984541684555160018152a180f35b608490602085519162461bcd60e51b8352820152602660248201527f4f776e61626c653a206e6577206f776e657220697320746865207a65726f206160448201526564647265737360d01b6064820152fd5b865162461bcd60e51b8152602081860152601460248201527f6572726f725f626164547261636b6572446174610000000000000000000000006044820152606490fd5b61ffff191661010117885538610240565b875162461bcd60e51b8152602081870152602e60248201527f496e697469616c697a61626c653a20636f6e747261637420697320616c72656160448201527f647920696e697469616c697a65640000000000000000000000000000000000006064820152608490fd5b50303b15801561022b5750600160ff82161461022b565b50600160ff821610610224565b8680fd5b8580fd5b503461016e578160031936011261016e576104496111fd565b9060243567ffffffffffffffff8111610490576020946001600160a01b0361047961048895948794369101611181565b9316815260ce86522090611268565b549051908152f35b8480fd5b5091346101cf5760603660031901126101cf5782359067ffffffffffffffff82116101cf57506104cc6020936104d992369101611181565b6044359060243590611602565b90519015158152f35b503461016e576104f136611213565b90926001600160a01b0360d05416928151809463130d191f60e11b8252602095869182858301528180610527602482018c611532565b03915afa908115610730578791610703575b50156106c25782156106815750917f8eac26c54bd993af8cf4404c930ea5d179a6eb29bf90c154275f15dd74dab26393916106339386928151855190828181890193610586818387611245565b810160cb8152030190205415610678575b8251828188516105a8818387611245565b810160cb8152030190206105bd858254611b38565b905533895260cd82528289206105d4858254611b38565b905533895260ce82526105e9838a2087611268565b5415610649575b5033885260ce815261060482892086611268565b61060f848254611b38565b905561061d8360c954611b38565b60c9558151958695608087526080870190611532565b931515908501528301523360608301520390a180f35b825186516106729261065e9082908490611245565b81019060cc82528381339303019020611ada565b386105f0565b60019450610597565b83606492519162461bcd60e51b8352820152601760248201527f6572726f725f696e73756666696369656e745374616b650000000000000000006044820152fd5b83606492519162461bcd60e51b8352820152601360248201527f6572726f725f696e76616c696453747265616d000000000000000000000000006044820152fd5b6107239150853d8711610729575b61071b81836110ef565b810190611b20565b38610539565b503d610711565b83513d89823e3d90fd5b5050346107625781600319360112610762576020906001600160a01b03609754169051908152f35b5080fd5b83346101cf57806003193601126101cf5761077f6112bc565b806001600160a01b036097546001600160a01b03198116609755167f8be0079c531659141344cd1fd0a4f28419497f9722a3daafe3b4186f6b6457e08280a380f35b50503461076257602036600319011261076257806020926001600160a01b036107e86111fd565b16815260cd845220549051908152f35b5050346107625760209161082261080e36611213565b949081855193828580945193849201611245565b810160cc8152030190209081548410156101cf575061084b6020936001600160a01b039261128e565b92905490519260031b1c168152f35b5082346101cf57806003193601126101cf57506001600160a01b037f00000000000000000000000000000000000000000000000000000000000000001630036108c657602082517f360894a13ba1a3210667c828492db98dca3e2076cc3735a920a3ca505d382bbc8152f35b6020608492519162461bcd60e51b8352820152603860248201527f555550535570677261646561626c653a206d757374206e6f742062652063616c60448201527f6c6564207468726f7567682064656c656761746563616c6c00000000000000006064820152fd5b50829082600319360112610762576109446111fd565b9060243567ffffffffffffffff8111610ca45736602382011215610ca4576109759036906024818501359101611145565b936001600160a01b0390817f000000000000000000000000000000000000000000000000000000000000000016916109af8330141561135c565b6109de7f360894a13ba1a3210667c828492db98dca3e2076cc3735a920a3ca505d382bbc9382855416146113ce565b6109e66112bc565b7f4910fdfa16fed3260ed0e7147f7cc6da11a60208b5b9406d12a635614ffd91435460ff1615610a1f5750505050610119919250611440565b849193959294168351946352d1902d60e01b865260209586818981865afa859181610c75575b50610aa457855162461bcd60e51b8152808901889052602e60248201527f45524331393637557067726164653a206e657720696d706c656d656e7461746960448201526d6f6e206973206e6f74205555505360901b6064820152608490fd5b969192939603610c0c57610ab783611440565b8351917fbc7cd75a20ee27fd9adebab32041f755214dbc6bffa90cc0225b39da2e5c2d3b8780a2865115801590610c04575b610af8575b5050505050905080f35b823b15610b9e575050928085610b7f95858398519201905af43d15610b8b57660819985a5b195960ca1b3d92610b2d84611129565b93610b3a825195866110ef565b84523d878686013e5b7f416464726573733a206c6f772d6c6576656c2064656c65676174652063616c6c815195610b70876110d3565b602787528601528401526114ee565b50808280808080610aee565b660819985a5b195960ca1b606092610b43565b62461bcd60e51b82528101849052602660248201527f416464726573733a2064656c65676174652063616c6c20746f206e6f6e2d636f60448201527f6e747261637400000000000000000000000000000000000000000000000000006064820152608490fd5b506001610ae9565b835162461bcd60e51b8152908101859052602960248201527f45524331393637557067726164653a20756e737570706f727465642070726f7860448201527f6961626c655555494400000000000000000000000000000000000000000000006064820152608490fd5b9091508781813d8311610c9d575b610c8d81836110ef565b8101031261042c5751908a610a45565b503d610c83565b8380fd5b50829034610762576020908160031936011261016e57610cc66111fd565b916001600160a01b0394857f000000000000000000000000000000000000000000000000000000000000000016610cff8130141561135c565b610d2e7f360894a13ba1a3210667c828492db98dca3e2076cc3735a920a3ca505d382bbc9188835416146113ce565b610d366112bc565b815196610d42886110a1565b8688527f4910fdfa16fed3260ed0e7147f7cc6da11a60208b5b9406d12a635614ffd91435460ff1615610d7f575050505050610119919250611440565b859294969395169084516352d1902d60e01b815286818981865afa859181610e5a575b50610e0157855162461bcd60e51b8152808901889052602e60248201527f45524331393637557067726164653a206e657720696d706c656d656e7461746960448201526d6f6e206973206e6f74205555505360901b6064820152608490fd5b969192939603610c0c57610e1483611440565b8351917fbc7cd75a20ee27fd9adebab32041f755214dbc6bffa90cc0225b39da2e5c2d3b8780a2865115801590610e5357610af8575050505050905080f35b5085610ae9565b9091508781813d8311610e82575b610e7281836110ef565b8101031261042c5751908a610da2565b503d610e68565b5091903461076257606036600319011261076257823567ffffffffffffffff93848211610ca45736602383011215610ca45781810135610ec881611111565b92610ed5855194856110ef565b8184526020908185016024809460051b83010191368311610fed57848101915b838310610fc35750505050813587811161042857610f16903690850161119f565b9660443590811161042857610f2e903690850161119f565b948451885103610f845750505050825b8151811015610f805780610f75610f58610f7b93856115ee565b51610f6383896115ee565b51610f6e84886115ee565b5191611602565b506115c9565b610f3e565b8380f35b5162461bcd60e51b8152928301526010908201527f6572726f725f62616452657175657374000000000000000000000000000000006044820152606490fd5b82358b8111610fe9578591610fde8392893691870101611181565b815201920191610ef5565b8a80fd5b8880fd5b503461016e57602036600319011261016e5780359267ffffffffffffffff918285116107625736602386011215610762578401359182116101cf5736602483860101116101cf575060208093826024938551948593018337810160cb8152030190205415159051908152f35b50503461076257816003193601126107625760209060c9549051908152f35b8490346107625781600319360112610762576020906001600160a01b0360ca54168152f35b6020810190811067ffffffffffffffff8211176110bd57604052565b634e487b7160e01b600052604160045260246000fd5b6060810190811067ffffffffffffffff8211176110bd57604052565b90601f8019910116810190811067ffffffffffffffff8211176110bd57604052565b67ffffffffffffffff81116110bd5760051b60200190565b67ffffffffffffffff81116110bd57601f01601f191660200190565b92919261115182611129565b9161115f60405193846110ef565b82948184528183011161117c578281602093846000960137010152565b600080fd5b9080601f8301121561117c5781602061119c93359101611145565b90565b81601f8201121561117c578035916111b683611111565b926111c460405194856110ef565b808452602092838086019260051b82010192831161117c578301905b8282106111ee575050505090565b813581529083019083016111e0565b600435906001600160a01b038216820361117c57565b604060031982011261117c576004359067ffffffffffffffff821161117c5761123e91600401611181565b9060243590565b60005b8381106112585750506000910152565b8181015183820152602001611248565b602090611282928260405194838680955193849201611245565b82019081520301902090565b80548210156112a65760005260206000200190600090565b634e487b7160e01b600052603260045260246000fd5b6001600160a01b036097541633036112d057565b606460405162461bcd60e51b815260206004820152602060248201527f4f776e61626c653a2063616c6c6572206973206e6f7420746865206f776e65726044820152fd5b609754906001600160a01b0380911691826001600160a01b0319821617609755167f8be0079c531659141344cd1fd0a4f28419497f9722a3daafe3b4186f6b6457e0600080a3565b1561136357565b60405162461bcd60e51b815260206004820152602c60248201527f46756e6374696f6e206d7573742062652063616c6c6564207468726f7567682060448201527f64656c656761746563616c6c00000000000000000000000000000000000000006064820152608490fd5b156113d557565b60405162461bcd60e51b815260206004820152602c60248201527f46756e6374696f6e206d7573742062652063616c6c6564207468726f7567682060448201527f6163746976652070726f787900000000000000000000000000000000000000006064820152608490fd5b803b15611483576001600160a01b037f360894a13ba1a3210667c828492db98dca3e2076cc3735a920a3ca505d382bbc91166001600160a01b0319825416179055565b60405162461bcd60e51b815260206004820152602d60248201527f455243313936373a206e657720696d706c656d656e746174696f6e206973206e60448201527f6f74206120636f6e7472616374000000000000000000000000000000000000006064820152608490fd5b909190156114fa575090565b81511561150a5750805190602001fd5b60405162461bcd60e51b81526020600482015290819061152e906024830190611532565b0390fd5b9060209161154b81518092818552858086019101611245565b601f01601f1916010190565b1561155e57565b60405162461bcd60e51b815260206004820152602b60248201527f496e697469616c697a61626c653a20636f6e7472616374206973206e6f74206960448201527f6e697469616c697a696e670000000000000000000000000000000000000000006064820152608490fd5b60001981146115d85760010190565b634e487b7160e01b600052601160045260246000fd5b80518210156112a65760209160051b010190565b9061160b6112bc565b6001600160a01b0360809080825260cf54169060409182519182916370a0823160e01b8352826004913083830152602095869160249687915afa908115611ac257600091611a95575b508611611a53578451928751938581818b019661167281838a611245565b810160cc815203019020998651808c88829e54938481520190600052886000209260005b8a828210611a34575050506116ad9250038c6110ef565b60005b8b518110156118f75784516116c5828e6115ee565b5116806000528a896116f68a8a60ce948583526116e58560002082611268565b549451938492839251928391611245565b810160cb815203019020549081156118e357048b8102908082048d14901517156118cf5761175361174b8e8560005260cd8d528d600020611738858254611acd565b905585600052848d528d60002090611268565b918254611acd565b9055816000528852611768896000208c611268565b541561177e575b50611779906115c9565b6116b0565b989193909a928a6117aa89898c5193611796856110a1565b600085528d51938492839251928391611245565b810160cc81520301902081519167ffffffffffffffff83116118bb576801000000000000000083116118bb578a908254848455808510611893575b5001906000528960002060008951905b84811061187f57505050505060005b8d805182101561186d57908c8c8c8c8c83611838976118268f899051926115ee565b51160361183d575b50505050506115c9565b611804565b611863946118549351938492839251928391611245565b810160cc815203019020611ada565b8c8c8c8c8c61182e565b5050929a61177991949299509061176f565b8351821683820155928c01926001016117f5565b83600052848360002091820191015b8181106118af57506117e5565b600081556001016118a2565b83604186634e487b7160e01b600052526000fd5b85601188634e487b7160e01b600052526000fd5b86601289634e487b7160e01b600052526000fd5b509950909193600098959461191a828099968b8951938492839251928391611245565b810160cb81520301902061192f868254611acd565b905561193d8560c954611acd565b60c9555160cf541660448651809b819363a9059cbb60e01b8352338884015288878401525af1978815611a2957600098611a0a575b506001881515036119c857505091817f73a7f4c8f8a797ce166d69942684145ae0987b01644d3ef8ffd387969819d40f95936119bb959351958695606087526060870190611532565b938501528301520390a190565b835162461bcd60e51b81529182018690526019908201527f6572726f725f756e7375636365737366756c43617074757265000000000000006044820152606490fd5b611a22919850863d88116107295761071b81836110ef565b9638611972565b84513d6000823e3d90fd5b60019294508291938a5187541681520194019101918e92939193611696565b845162461bcd60e51b81529081018490526014818401527f6572726f725f6e6f74456e6f7567685374616b650000000000000000000000006044820152606490fd5b908582813d8311611abb575b611aab81836110ef565b810103126101cf57505138611654565b503d611aa1565b86513d6000823e3d90fd5b919082039182116115d857565b8054680100000000000000008110156110bd57611afc9160018201815561128e565b819291549060031b916001600160a01b039283811b93849216901b16911916179055565b9081602091031261117c5751801515810361117c5790565b919082018092116115d85756fea26469706673582212202c419c1e856c21995b7d3c0404d12ecc2d9c686a2f84b9f5db2ab540fe4b58d564736f6c63430008110033",
	"linkReferences": {},
	"deployedLinkReferences": {}
}