{
  "_format": "hh-sol-artifact-1",
  "contractName": "VerifySignature",
  "sourceName": "src/lib/VerifySignature.sol",
  "abi": [
    {
      "inputs": [
        {
          "internalType": "bytes32",
          "name": "_messageHash",
          "type": "bytes32"
        }
      ],
      "name": "getEthSignedMessageHash",
      "outputs": [
        {
          "internalType": "bytes32",
          "name": "",
          "type": "bytes32"
        }
      ],
      "stateMutability": "pure",
      "type": "function"
    },
    {
      "inputs": [
        {
          "internalType": "bytes",
          "name": "sig",
          "type": "bytes"
        }
      ],
      "name": "splitSignature",
      "outputs": [
        {
          "internalType": "bytes32",
          "name": "r",
          "type": "bytes32"
        },
        {
          "internalType": "bytes32",
          "name": "s",
          "type": "bytes32"
        },
        {
          "internalType": "uint8",
          "name": "v",
          "type": "uint8"
        }
      ],
      "stateMutability": "pure",
      "type": "function"
    },
    {
      "inputs": [
        {
          "internalType": "address",
          "name": "signer",
          "type": "address"
        },
        {
          "internalType": "bytes32",
          "name": "message",
          "type": "bytes32"
        },
        {
          "internalType": "bytes",
          "name": "signature",
          "type": "bytes"
        }
      ],
      "name": "verify",
      "outputs": [
        {
          "internalType": "bool",
          "name": "",
          "type": "bool"
        }
      ],
      "stateMutability": "pure",
      "type": "function"
    }
  ],
  "bytecode": "0x6080806040523461001a576102fd9081610020823930815050f35b600080fdfe60806040526004361015610013575b600080fd5b6000803560e01c9081631a86b5501461005257508063a7bb5803146100495763fa5408011461004157600080fd5b61000e6101df565b5061000e610194565b60603660031901126100f75760043573ffffffffffffffffffffffffffffffffffffffff8082168092036100fa576044358367ffffffffffffffff82116100f75760806100ad6100a86020943690600401610115565b610201565b9160ff6100bb602435610265565b9360405194855216868401526040830152606082015282805260015afa156100ec5791516040519216148152602090f35b6040513d84823e3d90fd5b80fd5b8280fd5b50634e487b7160e01b600052604160045260246000fd5b81601f8201121561000e5780359067ffffffffffffffff92838311610187575b60405193601f8401601f19908116603f011685019081118582101761017a575b6040528284526020838301011161000e57816000926020809301838601378301015290565b6101826100fe565b610155565b61018f6100fe565b610135565b50602036600319011261000e5760043567ffffffffffffffff811161000e5760ff6101c86100a86060933690600401610115565b906040939293519384526020840152166040820152f35b50602036600319011261000e5760206101f9600435610265565b604051908152f35b6041815103610220576020810151916060604083015192015160001a90565b60405162461bcd60e51b815260206004820152601860248201527f696e76616c6964207369676e6174757265206c656e67746800000000000000006044820152606490fd5b60405160208101917f19457468657265756d205369676e6564204d6573736167653a0a3332000000008352603c820152603c81526060810181811067ffffffffffffffff8211176102ba575b60405251902090565b6102c26100fe565b6102b156fea26469706673582212209b2292659ed27f4eb2d29fa1488d85988184147455a208ff465aaa9c39ca15c464736f6c63430008110033",
  "linkReferences": {},
  "deployedLinkReferences": {}
}