{
  "_format": "hh-sol-artifact-1",
  "contractName": "VerifySignature",
  "sourceName": "src/lib/VerifySignature.sol",
  "abi": [
    {
      "inputs": [
        {
          "internalType": "bytes32",
          "name": "_messageHash",
          "type": "bytes32"
        }
      ],
      "name": "getEthSignedMessageHash",
      "outputs": [
        {
          "internalType": "bytes32",
          "name": "",
          "type": "bytes32"
        }
      ],
      "stateMutability": "pure",
      "type": "function"
    },
    {
      "inputs": [
        {
          "internalType": "bytes",
          "name": "sig",
          "type": "bytes"
        }
      ],
      "name": "splitSignature",
      "outputs": [
        {
          "internalType": "bytes32",
          "name": "r",
          "type": "bytes32"
        },
        {
          "internalType": "bytes32",
          "name": "s",
          "type": "bytes32"
        },
        {
          "internalType": "uint8",
          "name": "v",
          "type": "uint8"
        }
      ],
      "stateMutability": "pure",
      "type": "function"
    },
    {
      "inputs": [
        {
          "internalType": "address",
          "name": "signer",
          "type": "address"
        },
        {
          "internalType": "bytes32",
          "name": "message",
          "type": "bytes32"
        },
        {
          "internalType": "bytes",
          "name": "signature",
          "type": "bytes"
        }
      ],
      "name": "verify",
      "outputs": [
        {
          "internalType": "bool",
          "name": "",
          "type": "bool"
        }
      ],
      "stateMutability": "pure",
      "type": "function"
    }
  ],
  "bytecode": "0x6080806040523461001a5761033f9081610020823930815050f35b600080fdfe60806040526004361015610013575b600080fd5b6000803560e01c9081631a86b5501461005257508063a7bb5803146100495763fa5408011461004157600080fd5b61000e6101a2565b5061000e610152565b60603660031901126100b9576004359073ffffffffffffffffffffffffffffffffffffffff821682036100b9576044359067ffffffffffffffff82116100b95760206100af846100a536600487016100d3565b90602435906101c4565b6040519015158152f35b80fd5b50634e487b7160e01b600052604160045260246000fd5b81601f8201121561000e5780359067ffffffffffffffff92838311610145575b60405193601f8401601f19908116603f0116850190811185821017610138575b6040528284526020838301011161000e57816000926020809301838601378301015290565b6101406100bc565b610113565b61014d6100bc565b6100f3565b50602036600319011261000e5760043567ffffffffffffffff811161000e5760ff61018b61018660609336906004016100d3565b610243565b906040939293519384526020840152166040820152f35b50602036600319011261000e5760206101bc6004356102a7565b604051908152f35b91604181510361023b57608060ff6020936101ed6101e3600095610243565b94919290936102a7565b9360405194855216868401526040830152606082015282805260015afa1561022f5773ffffffffffffffffffffffffffffffffffffffff806000511691161490565b6040513d6000823e3d90fd5b505050600090565b6041815103610262576020810151916060604083015192015160001a90565b60405162461bcd60e51b815260206004820152601860248201527f696e76616c6964207369676e6174757265206c656e67746800000000000000006044820152606490fd5b60405160208101917f19457468657265756d205369676e6564204d6573736167653a0a3332000000008352603c820152603c81526060810181811067ffffffffffffffff8211176102fc575b60405251902090565b6103046100bc565b6102f356fea2646970667358221220c81d16aabe33113561c9c1731cbf5a67a07ff9f8f6e44601d4921705c597f10f64736f6c63430008110033",
  "linkReferences": {},
  "deployedLinkReferences": {}
}