{
	"_format": "hh-sol-artifact-1",
	"contractName": "PipelineContract",
	"sourceName": "contracts/PipelineContract.sol",
	"abi": [
		{
			"anonymous": false,
			"inputs": [
				{
					"indexed": true,
					"internalType": "address",
					"name": "_ownerAddress",
					"type": "address"
				},
				{
					"indexed": true,
					"internalType": "bytes32",
					"name": "_pipelineId",
					"type": "bytes32"
				}
			],
			"name": "PipelineCreated",
			"type": "event"
		},
		{
			"anonymous": false,
			"inputs": [
				{
					"indexed": true,
					"internalType": "bytes32",
					"name": "_pipelineId",
					"type": "bytes32"
				}
			],
			"name": "PipelineDeleted",
			"type": "event"
		},
		{
			"anonymous": false,
			"inputs": [
				{
					"indexed": true,
					"internalType": "bytes32",
					"name": "_pipelineId",
					"type": "bytes32"
				}
			],
			"name": "PipelineModified",
			"type": "event"
		},
		{
			"inputs": [
				{
					"internalType": "bytes32",
					"name": "_pipelineId",
					"type": "bytes32"
				},
				{
					"internalType": "enum PipelineContract.SupportedSources",
					"name": "_sourceType",
					"type": "uint8"
				},
				{
					"internalType": "string",
					"name": "_sourceContractAddress",
					"type": "string"
				},
				{
					"internalType": "string",
					"name": "_eventType",
					"type": "string"
				},
				{
					"internalType": "string",
					"name": "_sourceContractABI",
					"type": "string"
				}
			],
			"name": "addSourceToPipeline",
			"outputs": [],
			"stateMutability": "nonpayable",
			"type": "function"
		},
		{
			"inputs": [
				{
					"internalType": "string",
					"name": "_jsContractAddress",
					"type": "string"
				}
			],
			"name": "createPipeline",
			"outputs": [],
			"stateMutability": "nonpayable",
			"type": "function"
		},
		{
			"inputs": [
				{
					"internalType": "bytes32",
					"name": "_pipelineId",
					"type": "bytes32"
				}
			],
			"name": "deletePipeline",
			"outputs": [],
			"stateMutability": "nonpayable",
			"type": "function"
		},
		{
			"inputs": [],
			"name": "getAllPipelineKeys",
			"outputs": [
				{
					"internalType": "bytes32[]",
					"name": "",
					"type": "bytes32[]"
				}
			],
			"stateMutability": "view",
			"type": "function"
		},
		{
			"inputs": [
				{
					"internalType": "bytes32",
					"name": "_pipelineId",
					"type": "bytes32"
				},
				{
					"internalType": "uint256",
					"name": "_sourceIndex",
					"type": "uint256"
				}
			],
			"name": "getSingleSourceFromPipeline",
			"outputs": [
				{
					"internalType": "enum PipelineContract.SupportedSources",
					"name": "",
					"type": "uint8"
				},
				{
					"internalType": "string",
					"name": "",
					"type": "string"
				},
				{
					"internalType": "string",
					"name": "",
					"type": "string"
				},
				{
					"internalType": "string",
					"name": "",
					"type": "string"
				}
			],
			"stateMutability": "view",
			"type": "function"
		},
		{
			"inputs": [
				{
					"internalType": "bytes32",
					"name": "_pipelineId",
					"type": "bytes32"
				},
				{
					"internalType": "string",
					"name": "_newJSContract",
					"type": "string"
				}
			],
			"name": "modifyPipelineContract",
			"outputs": [],
			"stateMutability": "nonpayable",
			"type": "function"
		},
		{
			"inputs": [
				{
					"internalType": "uint256",
					"name": "",
					"type": "uint256"
				}
			],
			"name": "pipelineIDs",
			"outputs": [
				{
					"internalType": "bytes32",
					"name": "",
					"type": "bytes32"
				}
			],
			"stateMutability": "view",
			"type": "function"
		},
		{
			"inputs": [
				{
					"internalType": "bytes32",
					"name": "",
					"type": "bytes32"
				}
			],
			"name": "pipelines",
			"outputs": [
				{
					"internalType": "string",
					"name": "contractAddress",
					"type": "string"
				},
				{
					"internalType": "address",
					"name": "owner",
					"type": "address"
				},
				{
					"internalType": "bool",
					"name": "initialised",
					"type": "bool"
				},
				{
					"internalType": "uint256",
					"name": "sourcesCount",
					"type": "uint256"
				}
			],
			"stateMutability": "view",
			"type": "function"
		},
		{
			"inputs": [],
			"name": "totalPipelines",
			"outputs": [
				{
					"internalType": "uint256",
					"name": "",
					"type": "uint256"
				}
			],
			"stateMutability": "view",
			"type": "function"
		}
	],
	"bytecode": "0x60806040526000805534801561001457600080fd5b50611e35806100246000396000f3fe608060405234801561001057600080fd5b50600436106100935760003560e01c80639870e7e5116100665780639870e7e514610136578063a3d8faa414610152578063a7aa3f2c14610170578063bbad630f1461018e578063e3e482be146101aa57610093565b806316e866591461009857806371f40d9e146100b45780638979d70d146100e75780639124769c14610103575b600080fd5b6100b260048036038101906100ad919061144c565b6101da565b005b6100ce60048036038101906100c991906115b5565b610392565b6040516100de94939291906118a7565b60405180910390f35b61010160048036038101906100fc9190611555565b6107c5565b005b61011d6004803603810190610118919061144c565b6108c9565b60405161012d9493929190611901565b60405180910390f35b610150600480360381019061014b9190611479565b6109ae565b005b61015a610d0a565b60405161016791906119cd565b60405180910390f35b610178610d10565b604051610185919061186a565b60405180910390f35b6101a860048036038101906101a391906115f5565b610d68565b005b6101c460048036038101906101bf9190611642565b611029565b6040516101d1919061188c565b60405180910390f35b803373ffffffffffffffffffffffffffffffffffffffff166001600083815260200190815260200160002060020160009054906101000a900473ffffffffffffffffffffffffffffffffffffffff1673ffffffffffffffffffffffffffffffffffffffff161461027f576040517f08c379a00000000000000000000000000000000000000000000000000000000081526004016102769061198d565b60405180910390fd5b60006002600084815260200190815260200160002054905060016000848152602001908152602001600020600080820160006102bb919061104d565b6001820160006102cb9190611071565b6002820160006101000a81549073ffffffffffffffffffffffffffffffffffffffff02191690556002820160146101000a81549060ff0219169055600382016000905550506003818154811061032457610323611c57565b5b9060005260206000200160009055600260008481526020019081526020016000206000905560008081548092919061035b90611b01565b9190505550827f2c84a139544f536bc7e36bfea4b355056a5fdf92cc1f813716edb845c19bba6460405160405180910390a2505050565b600060608060606000600160008881526020019081526020016000206040518060a001604052908160008201805480602002602001604051908101604052809291908181526020016000905b8282101561060157838290600052602060002090600402016040518060800160405290816000820160009054906101000a900460ff16600281111561042657610425611bf9565b5b600281111561043857610437611bf9565b5b815260200160018201805461044c90611b2b565b80601f016020809104026020016040519081016040528092919081815260200182805461047890611b2b565b80156104c55780601f1061049a576101008083540402835291602001916104c5565b820191906000526020600020905b8154815290600101906020018083116104a857829003601f168201915b505050505081526020016002820180546104de90611b2b565b80601f016020809104026020016040519081016040528092919081815260200182805461050a90611b2b565b80156105575780601f1061052c57610100808354040283529160200191610557565b820191906000526020600020905b81548152906001019060200180831161053a57829003601f168201915b5050505050815260200160038201805461057090611b2b565b80601f016020809104026020016040519081016040528092919081815260200182805461059c90611b2b565b80156105e95780601f106105be576101008083540402835291602001916105e9565b820191906000526020600020905b8154815290600101906020018083116105cc57829003601f168201915b505050505081525050815260200190600101906103de565b50505050815260200160018201805461061990611b2b565b80601f016020809104026020016040519081016040528092919081815260200182805461064590611b2b565b80156106925780601f1061066757610100808354040283529160200191610692565b820191906000526020600020905b81548152906001019060200180831161067557829003601f168201915b505050505081526020016002820160009054906101000a900473ffffffffffffffffffffffffffffffffffffffff1673ffffffffffffffffffffffffffffffffffffffff1673ffffffffffffffffffffffffffffffffffffffff1681526020016002820160149054906101000a900460ff1615151515815260200160038201548152505090506001600088815260200190815260200160002060020160149054906101000a900460ff1661077b576040517f08c379a00000000000000000000000000000000000000000000000000000000081526004016107729061196d565b60405180910390fd5b60008160000151878151811061079457610793611c57565b5b6020026020010151905080600001518160200151826040015183606001519550955095509550505092959194509250565b823373ffffffffffffffffffffffffffffffffffffffff166001600083815260200190815260200160002060020160009054906101000a900473ffffffffffffffffffffffffffffffffffffffff1673ffffffffffffffffffffffffffffffffffffffff161461086a576040517f08c379a00000000000000000000000000000000000000000000000000000000081526004016108619061198d565b60405180910390fd5b600060016000868152602001908152602001600020905083838260010191906108949291906110b1565b50847f47e638acf01820f59abb5e0b2119a93890fabd177900411e2c868ab3d22e901e60405160405180910390a25050505050565b60016020528060005260406000206000915090508060010180546108ec90611b2b565b80601f016020809104026020016040519081016040528092919081815260200182805461091890611b2b565b80156109655780601f1061093a57610100808354040283529160200191610965565b820191906000526020600020905b81548152906001019060200180831161094857829003601f168201915b5050505050908060020160009054906101000a900473ffffffffffffffffffffffffffffffffffffffff16908060020160149054906101000a900460ff16908060030154905084565b873373ffffffffffffffffffffffffffffffffffffffff166001600083815260200190815260200160002060020160009054906101000a900473ffffffffffffffffffffffffffffffffffffffff1673ffffffffffffffffffffffffffffffffffffffff1614610a53576040517f08c379a0000000000000000000000000000000000000000000000000000000008152600401610a4a9061198d565b60405180910390fd5b6000600160008b815260200190815260200160002090503373ffffffffffffffffffffffffffffffffffffffff168160020160009054906101000a900473ffffffffffffffffffffffffffffffffffffffff1673ffffffffffffffffffffffffffffffffffffffff1614610afc576040517f08c379a0000000000000000000000000000000000000000000000000000000008152600401610af3906119ad565b60405180910390fd5b600060405180608001604052808b6002811115610b1c57610b1b611bf9565b5b81526020018a8a8080601f016020809104026020016040519081016040528093929190818152602001838380828437600081840152601f19601f82011690508083019250505050505050815260200188888080601f016020809104026020016040519081016040528093929190818152602001838380828437600081840152601f19601f82011690508083019250505050505050815260200186868080601f016020809104026020016040519081016040528093929190818152602001838380828437600081840152601f19601f8201169050808301925050505050505081525090508160000181908060018154018082558091505060019003906000526020600020906004020160009091909190915060008201518160000160006101000a81548160ff02191690836002811115610c5857610c57611bf9565b5b02179055506020820151816001019080519060200190610c79929190611137565b506040820151816002019080519060200190610c96929190611137565b506060820151816003019080519060200190610cb3929190611137565b505050816003016000815480929190610ccb90611b5d565b91905055508a7f47e638acf01820f59abb5e0b2119a93890fabd177900411e2c868ab3d22e901e60405160405180910390a25050505050505050505050565b60005481565b60606003805480602002602001604051908101604052809291908181526020018280548015610d5e57602002820191906000526020600020905b815481526020019060010190808311610d4a575b5050505050905090565b6000338383604051602001610d7f93929190611840565b6040516020818303038152906040528051906020012090506001600082815260200190815260200160002060020160149054906101000a900460ff1615610dfb576040517f08c379a0000000000000000000000000000000000000000000000000000000008152600401610df29061194d565b60405180910390fd5b60006001600083815260200190815260200160002090508383826001019190610e259291906110b1565b50338160020160006101000a81548173ffffffffffffffffffffffffffffffffffffffff021916908373ffffffffffffffffffffffffffffffffffffffff16021790555060018160020160146101000a81548160ff021916908315150217905550600081600301819055506000600380549050905081600160008581526020019081526020016000206000820181600001908054610ec49291906111bd565b506001820181600101908054610ed990611b2b565b610ee49291906112b2565b506002820160009054906101000a900473ffffffffffffffffffffffffffffffffffffffff168160020160006101000a81548173ffffffffffffffffffffffffffffffffffffffff021916908373ffffffffffffffffffffffffffffffffffffffff1602179055506002820160149054906101000a900460ff168160020160146101000a81548160ff021916908315150217905550600382015481600301559050506003839080600181540180825580915050600190039060005260206000200160009091909190915055806002600085815260200190815260200160002081905550600080815480929190610fd990611b5d565b9190505550823373ffffffffffffffffffffffffffffffffffffffff167fdba0caa48e46171066cbdd94cb1bee32636f40dfdb05d3d8465f2d647091946f60405160405180910390a35050505050565b6003818154811061103957600080fd5b906000526020600020016000915090505481565b508054600082556004029060005260206000209081019061106e919061133f565b50565b50805461107d90611b2b565b6000825580601f1061108f57506110ae565b601f0160209004906000526020600020908101906110ad919061139a565b5b50565b8280546110bd90611b2b565b90600052602060002090601f0160209004810192826110df5760008555611126565b82601f106110f857803560ff1916838001178555611126565b82800160010185558215611126579182015b8281111561112557823582559160200191906001019061110a565b5b509050611133919061139a565b5090565b82805461114390611b2b565b90600052602060002090601f01602090048101928261116557600085556111ac565b82601f1061117e57805160ff19168380011785556111ac565b828001600101855582156111ac579182015b828111156111ab578251825591602001919060010190611190565b5b5090506111b9919061139a565b5090565b8280548282559060005260206000209060040281019282156112a15760005260206000209160040282015b828111156112a05782826000820160009054906101000a900460ff168160000160006101000a81548160ff0219169083600281111561122a57611229611bf9565b5b0217905550600182018160010190805461124390611b2b565b61124e9291906112b2565b50600282018160020190805461126390611b2b565b61126e9291906112b2565b50600382018160030190805461128390611b2b565b61128e9291906112b2565b505050916004019190600401906111e8565b5b5090506112ae919061133f565b5090565b8280546112be90611b2b565b90600052602060002090601f0160209004810192826112e0576000855561132e565b82601f106112f1578054855561132e565b8280016001018555821561132e57600052602060002091601f016020900482015b8281111561132d578254825591600101919060010190611312565b5b50905061133b919061139a565b5090565b5b8082111561139657600080820160006101000a81549060ff021916905560018201600061136d9190611071565b60028201600061137d9190611071565b60038201600061138d9190611071565b50600401611340565b5090565b5b808211156113b357600081600090555060010161139b565b5090565b6000813590506113c681611dc1565b92915050565b6000813590506113db81611dd8565b92915050565b60008083601f8401126113f7576113f6611c8b565b5b8235905067ffffffffffffffff81111561141457611413611c86565b5b6020830191508360018202830111156114305761142f611c90565b5b9250929050565b60008135905061144681611de8565b92915050565b60006020828403121561146257611461611c9a565b5b6000611470848285016113b7565b91505092915050565b60008060008060008060008060a0898b03121561149957611498611c9a565b5b60006114a78b828c016113b7565b98505060206114b88b828c016113cc565b975050604089013567ffffffffffffffff8111156114d9576114d8611c95565b5b6114e58b828c016113e1565b9650965050606089013567ffffffffffffffff81111561150857611507611c95565b5b6115148b828c016113e1565b9450945050608089013567ffffffffffffffff81111561153757611536611c95565b5b6115438b828c016113e1565b92509250509295985092959890939650565b60008060006040848603121561156e5761156d611c9a565b5b600061157c868287016113b7565b935050602084013567ffffffffffffffff81111561159d5761159c611c95565b5b6115a9868287016113e1565b92509250509250925092565b600080604083850312156115cc576115cb611c9a565b5b60006115da858286016113b7565b92505060206115eb85828601611437565b9150509250929050565b6000806020838503121561160c5761160b611c9a565b5b600083013567ffffffffffffffff81111561162a57611629611c95565b5b611636858286016113e1565b92509250509250929050565b60006020828403121561165857611657611c9a565b5b600061166684828501611437565b91505092915050565b600061167b838361171a565b60208301905092915050565b61169081611a48565b82525050565b6116a76116a282611a48565b611ba6565b82525050565b60006116b8826119f8565b6116c28185611a1b565b93506116cd836119e8565b8060005b838110156116fe5781516116e5888261166f565b97506116f083611a0e565b9250506001810190506116d1565b5085935050505092915050565b61171481611a5a565b82525050565b61172381611a66565b82525050565b61173281611a66565b82525050565b61174181611aad565b82525050565b60006117538385611a3d565b9350611760838584611abf565b82840190509392505050565b600061177782611a03565b6117818185611a2c565b9350611791818560208601611ace565b61179a81611c9f565b840191505092915050565b60006117b2602083611a2c565b91506117bd82611cbd565b602082019050919050565b60006117d5601683611a2c565b91506117e082611ce6565b602082019050919050565b60006117f8602983611a2c565b915061180382611d0f565b604082019050919050565b600061181b602d83611a2c565b915061182682611d5e565b604082019050919050565b61183a81611aa3565b82525050565b600061184c8286611696565b60148201915061185d828486611747565b9150819050949350505050565b6000602082019050818103600083015261188481846116ad565b905092915050565b60006020820190506118a16000830184611729565b92915050565b60006080820190506118bc6000830187611738565b81810360208301526118ce818661176c565b905081810360408301526118e2818561176c565b905081810360608301526118f6818461176c565b905095945050505050565b6000608082019050818103600083015261191b818761176c565b905061192a6020830186611687565b611937604083018561170b565b6119446060830184611831565b95945050505050565b60006020820190508181036000830152611966816117a5565b9050919050565b60006020820190508181036000830152611986816117c8565b9050919050565b600060208201905081810360008301526119a6816117eb565b9050919050565b600060208201905081810360008301526119c68161180e565b9050919050565b60006020820190506119e26000830184611831565b92915050565b6000819050602082019050919050565b600081519050919050565b600081519050919050565b6000602082019050919050565b600082825260208201905092915050565b600082825260208201905092915050565b600081905092915050565b6000611a5382611a83565b9050919050565b60008115159050919050565b6000819050919050565b6000819050611a7e82611dad565b919050565b600073ffffffffffffffffffffffffffffffffffffffff82169050919050565b6000819050919050565b6000611ab882611a70565b9050919050565b82818337600083830152505050565b60005b83811015611aec578082015181840152602081019050611ad1565b83811115611afb576000848401525b50505050565b6000611b0c82611aa3565b91506000821415611b2057611b1f611bca565b5b600182039050919050565b60006002820490506001821680611b4357607f821691505b60208210811415611b5757611b56611c28565b5b50919050565b6000611b6882611aa3565b91507fffffffffffffffffffffffffffffffffffffffffffffffffffffffffffffffff821415611b9b57611b9a611bca565b5b600182019050919050565b6000611bb182611bb8565b9050919050565b6000611bc382611cb0565b9050919050565b7f4e487b7100000000000000000000000000000000000000000000000000000000600052601160045260246000fd5b7f4e487b7100000000000000000000000000000000000000000000000000000000600052602160045260246000fd5b7f4e487b7100000000000000000000000000000000000000000000000000000000600052602260045260246000fd5b7f4e487b7100000000000000000000000000000000000000000000000000000000600052603260045260246000fd5b600080fd5b600080fd5b600080fd5b600080fd5b600080fd5b6000601f19601f8301169050919050565b60008160601b9050919050565b7f506c6561736520737570706c7920616e6f7468657220706970656c696e654964600082015250565b7f506970656c696e6520646f6573276e7420657869737400000000000000000000600082015250565b7f596f752063616e206f6e6c79206d6f6469667920706970656c696e657320796f60008201527f7520637265617465640000000000000000000000000000000000000000000000602082015250565b7f596f752063616e206f6e6c79206d6f6469667920706970656c696e657320637260008201527f656174656420627920796f752100000000000000000000000000000000000000602082015250565b60038110611dbe57611dbd611bf9565b5b50565b611dca81611a66565b8114611dd557600080fd5b50565b60038110611de557600080fd5b50565b611df181611aa3565b8114611dfc57600080fd5b5056fea264697066735822122018d3a9929c8ff2bc3b25a77fa5713e93fdef25b7aa9abeb222b1af391820ac9d64736f6c63430008070033",
	"linkReferences": {},
	"deployedLinkReferences": {}
}