{
  "_format": "hh-sol-artifact-1",
  "contractName": "LSAN",
  "sourceName": "src/alpha/Token.sol",
  "abi": [
    {
      "anonymous": false,
      "inputs": [
        {
          "indexed": false,
          "internalType": "address",
          "name": "previousAdmin",
          "type": "address"
        },
        {
          "indexed": false,
          "internalType": "address",
          "name": "newAdmin",
          "type": "address"
        }
      ],
      "name": "AdminChanged",
      "type": "event"
    },
    {
      "anonymous": false,
      "inputs": [
        {
          "indexed": true,
          "internalType": "address",
          "name": "owner",
          "type": "address"
        },
        {
          "indexed": true,
          "internalType": "address",
          "name": "spender",
          "type": "address"
        },
        {
          "indexed": false,
          "internalType": "uint256",
          "name": "value",
          "type": "uint256"
        }
      ],
      "name": "Approval",
      "type": "event"
    },
    {
      "anonymous": false,
      "inputs": [
        {
          "indexed": true,
          "internalType": "address",
          "name": "beacon",
          "type": "address"
        }
      ],
      "name": "BeaconUpgraded",
      "type": "event"
    },
    {
      "anonymous": false,
      "inputs": [
        {
          "indexed": false,
          "internalType": "uint8",
          "name": "version",
          "type": "uint8"
        }
      ],
      "name": "Initialized",
      "type": "event"
    },
    {
      "anonymous": false,
      "inputs": [
        {
          "indexed": true,
          "internalType": "address",
          "name": "previousOwner",
          "type": "address"
        },
        {
          "indexed": true,
          "internalType": "address",
          "name": "newOwner",
          "type": "address"
        }
      ],
      "name": "OwnershipTransferred",
      "type": "event"
    },
    {
      "anonymous": false,
      "inputs": [
        {
          "indexed": true,
          "internalType": "address",
          "name": "from",
          "type": "address"
        },
        {
          "indexed": true,
          "internalType": "address",
          "name": "to",
          "type": "address"
        },
        {
          "indexed": false,
          "internalType": "uint256",
          "name": "value",
          "type": "uint256"
        }
      ],
      "name": "Transfer",
      "type": "event"
    },
    {
      "anonymous": false,
      "inputs": [
        {
          "indexed": true,
          "internalType": "address",
          "name": "implementation",
          "type": "address"
        }
      ],
      "name": "Upgraded",
      "type": "event"
    },
    {
      "inputs": [],
      "name": "DEPLOYED_TIME",
      "outputs": [
        {
          "internalType": "uint256",
          "name": "",
          "type": "uint256"
        }
      ],
      "stateMutability": "view",
      "type": "function"
    },
    {
      "inputs": [],
      "name": "SAFE_ADDRESS",
      "outputs": [
        {
          "internalType": "address payable",
          "name": "",
          "type": "address"
        }
      ],
      "stateMutability": "view",
      "type": "function"
    },
    {
      "inputs": [
        {
          "internalType": "address",
          "name": "owner",
          "type": "address"
        },
        {
          "internalType": "address",
          "name": "spender",
          "type": "address"
        }
      ],
      "name": "allowance",
      "outputs": [
        {
          "internalType": "uint256",
          "name": "",
          "type": "uint256"
        }
      ],
      "stateMutability": "view",
      "type": "function"
    },
    {
      "inputs": [
        {
          "internalType": "address",
          "name": "spender",
          "type": "address"
        },
        {
          "internalType": "uint256",
          "name": "amount",
          "type": "uint256"
        }
      ],
      "name": "approve",
      "outputs": [
        {
          "internalType": "bool",
          "name": "",
          "type": "bool"
        }
      ],
      "stateMutability": "nonpayable",
      "type": "function"
    },
    {
      "inputs": [],
      "name": "balance",
      "outputs": [
        {
          "internalType": "uint256",
          "name": "",
          "type": "uint256"
        }
      ],
      "stateMutability": "view",
      "type": "function"
    },
    {
      "inputs": [
        {
          "internalType": "address",
          "name": "account",
          "type": "address"
        }
      ],
      "name": "balanceOf",
      "outputs": [
        {
          "internalType": "uint256",
          "name": "",
          "type": "uint256"
        }
      ],
      "stateMutability": "view",
      "type": "function"
    },
    {
      "inputs": [
        {
          "internalType": "address",
          "name": "account",
          "type": "address"
        },
        {
          "internalType": "uint256",
          "name": "amount",
          "type": "uint256"
        }
      ],
      "name": "burn",
      "outputs": [],
      "stateMutability": "nonpayable",
      "type": "function"
    },
    {
      "inputs": [],
      "name": "decimals",
      "outputs": [
        {
          "internalType": "uint8",
          "name": "",
          "type": "uint8"
        }
      ],
      "stateMutability": "view",
      "type": "function"
    },
    {
      "inputs": [
        {
          "internalType": "address",
          "name": "spender",
          "type": "address"
        },
        {
          "internalType": "uint256",
          "name": "subtractedValue",
          "type": "uint256"
        }
      ],
      "name": "decreaseAllowance",
      "outputs": [
        {
          "internalType": "bool",
          "name": "",
          "type": "bool"
        }
      ],
      "stateMutability": "nonpayable",
      "type": "function"
    },
    {
      "inputs": [],
      "name": "destroy",
      "outputs": [],
      "stateMutability": "nonpayable",
      "type": "function"
    },
    {
      "inputs": [],
      "name": "getTokenPrice",
      "outputs": [
        {
          "internalType": "uint256",
          "name": "lsanPrice",
          "type": "uint256"
        }
      ],
      "stateMutability": "view",
      "type": "function"
    },
    {
      "inputs": [
        {
          "internalType": "address",
          "name": "spender",
          "type": "address"
        },
        {
          "internalType": "uint256",
          "name": "addedValue",
          "type": "uint256"
        }
      ],
      "name": "increaseAllowance",
      "outputs": [
        {
          "internalType": "bool",
          "name": "",
          "type": "bool"
        }
      ],
      "stateMutability": "nonpayable",
      "type": "function"
    },
    {
      "inputs": [
        {
          "internalType": "address",
          "name": "_safeAddress",
          "type": "address"
        },
        {
          "internalType": "address[]",
          "name": "initialWhitelist",
          "type": "address[]"
        }
      ],
      "name": "initialize",
      "outputs": [],
      "stateMutability": "nonpayable",
      "type": "function"
    },
    {
      "inputs": [
        {
          "internalType": "address[]",
          "name": "accounts",
          "type": "address[]"
        },
        {
          "internalType": "uint256",
          "name": "option",
          "type": "uint256"
        }
      ],
      "name": "massWhitelistUpdate",
      "outputs": [],
      "stateMutability": "nonpayable",
      "type": "function"
    },
    {
      "inputs": [],
      "name": "maticPerByte",
      "outputs": [
        {
          "internalType": "uint256",
          "name": "",
          "type": "uint256"
        }
      ],
      "stateMutability": "view",
      "type": "function"
    },
    {
      "inputs": [],
      "name": "minimumDeposit",
      "outputs": [
        {
          "internalType": "uint256",
          "name": "",
          "type": "uint256"
        }
      ],
      "stateMutability": "view",
      "type": "function"
    },
    {
      "inputs": [],
      "name": "mint",
      "outputs": [],
      "stateMutability": "payable",
      "type": "function"
    },
    {
      "inputs": [
        {
          "internalType": "address[]",
          "name": "_addresses",
          "type": "address[]"
        },
        {
          "internalType": "uint256",
          "name": "amount",
          "type": "uint256"
        }
      ],
      "name": "mintManyTokens",
      "outputs": [],
      "stateMutability": "nonpayable",
      "type": "function"
    },
    {
      "inputs": [
        {
          "internalType": "address",
          "name": "account",
          "type": "address"
        },
        {
          "internalType": "uint256",
          "name": "amount",
          "type": "uint256"
        }
      ],
      "name": "mintTokens",
      "outputs": [],
      "stateMutability": "nonpayable",
      "type": "function"
    },
    {
      "inputs": [],
      "name": "multiplier",
      "outputs": [
        {
          "internalType": "uint256",
          "name": "",
          "type": "uint256"
        }
      ],
      "stateMutability": "view",
      "type": "function"
    },
    {
      "inputs": [],
      "name": "name",
      "outputs": [
        {
          "internalType": "string",
          "name": "",
          "type": "string"
        }
      ],
      "stateMutability": "view",
      "type": "function"
    },
    {
      "inputs": [],
      "name": "owner",
      "outputs": [
        {
          "internalType": "address",
          "name": "",
          "type": "address"
        }
      ],
      "stateMutability": "view",
      "type": "function"
    },
    {
      "inputs": [],
      "name": "proxiableUUID",
      "outputs": [
        {
          "internalType": "bytes32",
          "name": "",
          "type": "bytes32"
        }
      ],
      "stateMutability": "view",
      "type": "function"
    },
    {
      "inputs": [],
      "name": "renounceOwnership",
      "outputs": [],
      "stateMutability": "nonpayable",
      "type": "function"
    },
    {
      "inputs": [
        {
          "internalType": "uint256",
          "name": "_maticPerByte",
          "type": "uint256"
        }
      ],
      "name": "setMaticPerByte",
      "outputs": [],
      "stateMutability": "nonpayable",
      "type": "function"
    },
    {
      "inputs": [
        {
          "internalType": "uint256",
          "name": "_minimumDeposit",
          "type": "uint256"
        }
      ],
      "name": "setMinimumDeposit",
      "outputs": [],
      "stateMutability": "nonpayable",
      "type": "function"
    },
    {
      "inputs": [
        {
          "internalType": "uint256",
          "name": "_multiplier",
          "type": "uint256"
        }
      ],
      "name": "setMultipler",
      "outputs": [],
      "stateMutability": "nonpayable",
      "type": "function"
    },
    {
      "inputs": [
        {
          "internalType": "uint256",
          "name": "_totalBytesStored",
          "type": "uint256"
        }
      ],
      "name": "setTotalBytesStored",
      "outputs": [],
      "stateMutability": "nonpayable",
      "type": "function"
    },
    {
      "inputs": [],
      "name": "symbol",
      "outputs": [
        {
          "internalType": "string",
          "name": "",
          "type": "string"
        }
      ],
      "stateMutability": "view",
      "type": "function"
    },
    {
      "inputs": [],
      "name": "totalBytesStored",
      "outputs": [
        {
          "internalType": "uint256",
          "name": "",
          "type": "uint256"
        }
      ],
      "stateMutability": "view",
      "type": "function"
    },
    {
      "inputs": [],
      "name": "totalSupply",
      "outputs": [
        {
          "internalType": "uint256",
          "name": "",
          "type": "uint256"
        }
      ],
      "stateMutability": "view",
      "type": "function"
    },
    {
      "inputs": [
        {
          "internalType": "address",
          "name": "_to",
          "type": "address"
        },
        {
          "internalType": "uint256",
          "name": "_amount",
          "type": "uint256"
        }
      ],
      "name": "transfer",
      "outputs": [
        {
          "internalType": "bool",
          "name": "",
          "type": "bool"
        }
      ],
      "stateMutability": "nonpayable",
      "type": "function"
    },
    {
      "inputs": [
        {
          "internalType": "address",
          "name": "_from",
          "type": "address"
        },
        {
          "internalType": "address",
          "name": "_to",
          "type": "address"
        },
        {
          "internalType": "uint256",
          "name": "amount",
          "type": "uint256"
        }
      ],
      "name": "transferFrom",
      "outputs": [
        {
          "internalType": "bool",
          "name": "",
          "type": "bool"
        }
      ],
      "stateMutability": "nonpayable",
      "type": "function"
    },
    {
      "inputs": [
        {
          "internalType": "address",
          "name": "",
          "type": "address"
        }
      ],
      "name": "transferFromWhitelist",
      "outputs": [
        {
          "internalType": "bool",
          "name": "",
          "type": "bool"
        }
      ],
      "stateMutability": "view",
      "type": "function"
    },
    {
      "inputs": [
        {
          "internalType": "address",
          "name": "newOwner",
          "type": "address"
        }
      ],
      "name": "transferOwnership",
      "outputs": [],
      "stateMutability": "nonpayable",
      "type": "function"
    },
    {
      "inputs": [
        {
          "internalType": "address",
          "name": "",
          "type": "address"
        }
      ],
      "name": "transferToWhitelist",
      "outputs": [
        {
          "internalType": "bool",
          "name": "",
          "type": "bool"
        }
      ],
      "stateMutability": "view",
      "type": "function"
    },
    {
      "inputs": [
        {
          "internalType": "address",
          "name": "account",
          "type": "address"
        }
      ],
      "name": "unWhitelistTransferFrom",
      "outputs": [],
      "stateMutability": "nonpayable",
      "type": "function"
    },
    {
      "inputs": [
        {
          "internalType": "address",
          "name": "account",
          "type": "address"
        }
      ],
      "name": "unWhitelistTransferTo",
      "outputs": [],
      "stateMutability": "nonpayable",
      "type": "function"
    },
    {
      "inputs": [
        {
          "internalType": "address",
          "name": "newImplementation",
          "type": "address"
        }
      ],
      "name": "upgradeTo",
      "outputs": [],
      "stateMutability": "nonpayable",
      "type": "function"
    },
    {
      "inputs": [
        {
          "internalType": "address",
          "name": "newImplementation",
          "type": "address"
        },
        {
          "internalType": "bytes",
          "name": "data",
          "type": "bytes"
        }
      ],
      "name": "upgradeToAndCall",
      "outputs": [],
      "stateMutability": "payable",
      "type": "function"
    },
    {
      "inputs": [
        {
          "internalType": "address",
          "name": "account",
          "type": "address"
        }
      ],
      "name": "whitelistTransferFrom",
      "outputs": [],
      "stateMutability": "nonpayable",
      "type": "function"
    },
    {
      "inputs": [
        {
          "internalType": "address",
          "name": "account",
          "type": "address"
        }
      ],
      "name": "whitelistTransferTo",
      "outputs": [],
      "stateMutability": "nonpayable",
      "type": "function"
    },
    {
      "inputs": [
        {
          "internalType": "uint256",
          "name": "amount",
          "type": "uint256"
        }
      ],
      "name": "withdraw",
      "outputs": [],
      "stateMutability": "nonpayable",
      "type": "function"
    }
  ],
  "bytecode": "0x60a08060405234610031573060805261297f9081610037823960805181818161129f015281816113d701526117e60152f35b600080fdfe608080604052600436101561001357600080fd5b60003560e01c90816306fdde0314611e8a57508063095ea7b314611e645780631249c58b14611d6e57806318160ddd14611d5057806319058d1414611d315780631b3ed72214611d125780632241c86d14611c4257806323b872dd14611b3e5780632e1a7d4d14611a92578063313ce56714611a765780633659cfe6146117c1578063385d633f1461179f578063395093511461174d5780633d794a771461170a5780634b94f50e146116e75780634dc29ca0146116c85780634f1ef2861461135a57806352d1902d14611284578063636bfbab14611265578063650177961461124657806367c1ed091461120357806370a08231146111c9578063715018a61461116e57806383197ef01461114857806385d38f80146111205780638da5cb5b146110f9578063946d920414610b3857806395d89b4114610a5a5780639dc29fac1461092a578063a457c2d71461086a578063a9059cbb146107fa578063afc2afa6146107d8578063b69ef8a8146107bc578063c11b0d491461077c578063d4a046be14610736578063d95b787c14610714578063dd62ed3e146106c2578063e449b6ee1461067c578063e78ec42e1461065a578063e7eff69014610310578063f0dda65c146102e3578063f2fde38b1461023d5763f6c99895146101f857600080fd5b34610238576020366003190112610238576001600160a01b03610219611f76565b16600052610134602052602060ff604060002054166040519015158152f35b600080fd5b3461023857602036600319011261023857610256611f76565b61025e61208f565b6001600160a01b0381161561027857610276906120e7565b005b60405162461bcd60e51b815260206004820152602660248201527f4f776e61626c653a206e6577206f776e657220697320746865207a65726f206160448201527f64647265737300000000000000000000000000000000000000000000000000006064820152608490fd5b34610238576040366003190112610238576102766102ff611f76565b61030761208f565b60243590612507565b346102385760403660031901126102385760043567ffffffffffffffff8082116102385736602383011215610238578160040135908111610238576024820191602436918360051b0101116102385760243561036a61208f565b6001808210158061064f575b1561060a57808214610584575b60028214610502575b600382146104ad575b60048214610458575b5060058114610405575b6006146103b157005b60005b8181106103bd57005b806001600160a01b036103dc6103d76104009486886125e2565b6125f2565b6103e461208f565b16600052610134602052604060002060ff19815416905561245c565b6103b4565b60005b82811061041557506103a8565b806001600160a01b0361042f6103d76104539487896125e2565b61043761208f565b16600052610133602052604060002060ff19815416905561245c565b610408565b60005b838110610468575061039e565b806001600160a01b036104826103d76104a894888a6125e2565b61048a61208f565b1660005261013460205260406000208360ff1982541617905561245c565b61045b565b60005b8381106104bd5750610395565b806001600160a01b036104d76103d76104fd94888a6125e2565b6104df61208f565b1660005261013360205260406000208360ff1982541617905561245c565b6104b0565b60005b838110610512575061038c565b806105246103d761057f9387896125e2565b61052c61208f565b6001600160a01b038091166000526101346020610133815260406000209260ff19938481541690556105626103d7868b8d6125e2565b61056a61208f565b1660005252604060002090815416905561245c565b610505565b60005b8381106105945750610383565b806105a66103d76106059387896125e2565b6105ae61208f565b6001600160a01b038091166000526101346020610133815260406000209260ff199387858254161790556105e66103d7868b8d6125e2565b6105ee61208f565b16600052528360406000209182541617905561245c565b610587565b60405162461bcd60e51b815260206004820152601460248201527f4c53414e3a20496e76616c6964206f7074696f6e0000000000000000000000006044820152606490fd5b506006821115610376565b346102385760203660031901126102385761067361208f565b60043561013055005b34610238576020366003190112610238576001600160a01b0361069d611f76565b6106a561208f565b16600090815261013460205260409020805460ff19166001179055005b34610238576040366003190112610238576106db611f76565b6106e3611f8c565b906001600160a01b0380911660005260fc602052604060002091166000526020526020604060002054604051908152f35b346102385760203660031901126102385761072d61208f565b60043561012e55005b34610238576020366003190112610238576001600160a01b03610757611f76565b61075f61208f565b16600090815261013360205260409020805460ff19166001179055005b34610238576020366003190112610238576001600160a01b0361079d611f76565b16600052610133602052602060ff604060002054166040519015158152f35b3461023857600036600319011261023857602047604051908152f35b34610238576020366003190112610238576107f161208f565b60043561012f55005b346102385760403660031901126102385761085f610816611f76565b3360005261013460205261083160ff604060002054166126c6565b6001600160a01b03811660005261013360205261085560ff60406000205416612738565b60243590336127aa565b602060405160018152f35b3461023857604036600319011261023857610883611f76565b602435903360005260fc60205260406000206001600160a01b038216600052602052604060002054918083106108bf5761085f9203903361231e565b60405162461bcd60e51b815260206004820152602560248201527f45524332303a2064656372656173656420616c6c6f77616e63652062656c6f7760448201527f207a65726f0000000000000000000000000000000000000000000000000000006064820152608490fd5b3461023857604036600319011261023857610943611f76565b6001600160a01b036024359161095761208f565b168015610a0b578060005260fb602052604060002054918083106109bb576020817fddf252ad1be2c89b69c2b068fc378daa952ba7f163c4a11628f55a4df523b3ef9260009585875260fb84520360408620558060fd540360fd55604051908152a3005b60405162461bcd60e51b815260206004820152602260248201527f45524332303a206275726e20616d6f756e7420657863656564732062616c616e604482015261636560f01b6064820152608490fd5b60405162461bcd60e51b815260206004820152602160248201527f45524332303a206275726e2066726f6d20746865207a65726f206164647265736044820152607360f81b6064820152608490fd5b3461023857600036600319011261023857604051600060ff54610a7c816122c1565b80845290600190818116908115610b115750600114610ab6575b610ab284610aa681860382611fda565b60405191829182611f2d565b0390f35b60ff600090815292507fe08ec2af2cfc251225e1968fd6ca21e4044f129bffa95bac3503be8bdb30a3675b828410610af9575050508101602001610aa682610a96565b80546020858701810191909152909301928101610ae1565b60ff191660208087019190915292151560051b85019092019250610aa69150839050610a96565b3461023857604036600319011261023857610b51611f76565b60243567ffffffffffffffff811161023857610b71903690600401611ffc565b906000549060ff8260081c1615918280936110ec575b80156110d5575b1561106a5760ff19811660011760005582611058575b50610bbf60ff60005460081c16610bba81612495565b612495565b610bc8336120e7565b60405192610bd584611fbe565b601d84527f4c6f672053746f726520416c706861204e6574776f726b20546f6b656e000000602085015260405193610c0c85611fbe565b60048552632629a0a760e11b6020860152610c3260ff60005460081c16610bba81612495565b80519067ffffffffffffffff8211610f03578190610c5160fe546122c1565b601f8111610fae575b50602090601f8311600114610f2457600092610f19575b50508160011b916000199060031b1c19161760fe555b835167ffffffffffffffff8111610f0357610ca360ff546122c1565b601f8111610e9e575b50602094601f8211600114610e1a57948192939495600092610e0f575b50508160011b916000199060031b1c19161760ff555b610cfd60ff60005460081c16610cf481612495565b610bba81612495565b600160c95580519060005b828110610d9e57846001600160a01b0385610d2161208f565b16806000526101336020526040600020600160ff19825416179055610131906001600160a01b03198254161790554261013255600161012f55600061013055610d6657005b61ff0019600054166000557f7f26b83ff96e1f2b6a682f133852f6798a09c465da95921460cefb3847402498602060405160018152a1005b610e0a906001600160a01b0380610db5838661246b565b5116610dbf61208f565b6000526101336020526040600020600160ff19825416179055610de2828561246b565b5116610dec61208f565b6000526101346020526040600020600160ff1982541617905561245c565b610d08565b015190508580610cc9565b601f1982169560ff6000527fe08ec2af2cfc251225e1968fd6ca21e4044f129bffa95bac3503be8bdb30a3679160005b888110610e8657508360019596979810610e6d575b505050811b0160ff55610cdf565b015160001960f88460031b161c19169055858080610e5f565b91926020600181928685015181550194019201610e4a565b60ff6000527fe08ec2af2cfc251225e1968fd6ca21e4044f129bffa95bac3503be8bdb30a367601f830160051c81019160208410610ef9575b601f0160051c01905b818110610eed5750610cac565b60008155600101610ee0565b9091508190610ed7565b634e487b7160e01b600052604160045260246000fd5b015190508680610c71565b925060fe6000527f54075df80ec1ae6ac9100e1fd0ebf3246c17f5c933137af392011f4c5f61513a906000935b601f1984168510610f93576001945083601f19811610610f7a575b505050811b0160fe55610c87565b015160001960f88460031b161c19169055868080610f6c565b81810151835560209485019460019093019290910190610f51565b90915060fe600052601f830160051c7f54075df80ec1ae6ac9100e1fd0ebf3246c17f5c933137af392011f4c5f61513a0160208410611031575b908392915b601f820160051c7f54075df80ec1ae6ac9100e1fd0ebf3246c17f5c933137af392011f4c5f61513a0181106110225750610c5a565b60008155849350600101610fed565b507f54075df80ec1ae6ac9100e1fd0ebf3246c17f5c933137af392011f4c5f61513a610fe8565b61ffff19166101011760005583610ba4565b60405162461bcd60e51b815260206004820152602e60248201527f496e697469616c697a61626c653a20636f6e747261637420697320616c72656160448201527f647920696e697469616c697a65640000000000000000000000000000000000006064820152608490fd5b50303b158015610b8e5750600160ff821614610b8e565b50600160ff821610610b87565b346102385760003660031901126102385760206001600160a01b0360975416604051908152f35b346102385760003660031901126102385760206001600160a01b036101315416604051908152f35b34610238576000366003190112610238576001600160a01b036101315416330361023857005b346102385760003660031901126102385761118761208f565b60006001600160a01b036097546001600160a01b03198116609755167f8be0079c531659141344cd1fd0a4f28419497f9722a3daafe3b4186f6b6457e08280a3005b34610238576020366003190112610238576001600160a01b036111ea611f76565b1660005260fb6020526020604060002054604051908152f35b34610238576020366003190112610238576001600160a01b03611224611f76565b61122c61208f565b16600090815261013360205260409020805460ff19169055005b3461023857600036600319011261023857602061013254604051908152f35b3461023857600036600319011261023857602061013054604051908152f35b34610238576000366003190112610238576001600160a01b037f00000000000000000000000000000000000000000000000000000000000000001630036112ef5760206040517f360894a13ba1a3210667c828492db98dca3e2076cc3735a920a3ca505d382bbc8152f35b60405162461bcd60e51b815260206004820152603860248201527f555550535570677261646561626c653a206d757374206e6f742062652063616c60448201527f6c6564207468726f7567682064656c656761746563616c6c00000000000000006064820152608490fd5b60403660031901126102385761136e611f76565b602490813567ffffffffffffffff811161023857366023820112156102385780600401359061139c82612073565b6113a96040519182611fda565b82815260209283820192368783830101116102385781600092888793018637830101526001600160a01b03807f000000000000000000000000000000000000000000000000000000000000000016906114048230141561212f565b6114337f360894a13ba1a3210667c828492db98dca3e2076cc3735a920a3ca505d382bbc9282845416146121a1565b61143b61208f565b7f4910fdfa16fed3260ed0e7147f7cc6da11a60208b5b9406d12a635614ffd91435460ff16156114745750505050506102769150612213565b85949516906040516352d1902d60e01b81528681600481865afa60009181611699575b506114f75760405162461bcd60e51b815260048101889052602e818a01527f45524331393637557067726164653a206e657720696d706c656d656e7461746960448201526d6f6e206973206e6f74205555505360901b6064820152608490fd5b969192939496036116445761150b86612213565b604051917fbc7cd75a20ee27fd9adebab32041f755214dbc6bffa90cc0225b39da2e5c2d3b600080a282511580159061163c575b61154557005b853b156115ec57505061027693600092839251915af43d156115e4573d9061156c82612073565b9161157a6040519384611fda565b82523d60008484013e5b7f416464726573733a206c6f772d6c6576656c2064656c65676174652063616c6c604051936115b285611fa2565b602785528401527f206661696c6564000000000000000000000000000000000000000000000000006040840152612420565b606090611584565b62461bcd60e51b8252600482018590526026908201527f416464726573733a2064656c65676174652063616c6c20746f206e6f6e2d636f6044820152651b9d1c9858dd60d21b6064820152608490fd5b50600161153f565b8460296084926040519262461bcd60e51b845260048401528201527f45524331393637557067726164653a20756e737570706f727465642070726f786044820152681a58589b195555525160ba1b6064820152fd5b9091508781813d83116116c1575b6116b18183611fda565b8101031261023857519089611497565b503d6116a7565b3461023857600036600319011261023857602061012d54604051908152f35b34610238576000366003190112610238576020611702612639565b604051908152f35b34610238576020366003190112610238576001600160a01b0361172b611f76565b61173361208f565b16600090815261013460205260409020805460ff19169055005b346102385760403660031901126102385761085f611769611f76565b3360005260fc60205260406000206001600160a01b0382166000526020526117986024356040600020546122fb565b903361231e565b34610238576020366003190112610238576117b861208f565b60043561012d55005b3461023857602080600319360112610238576117db611f76565b6001600160a01b03807f0000000000000000000000000000000000000000000000000000000000000000166118128130141561212f565b6118417f360894a13ba1a3210667c828492db98dca3e2076cc3735a920a3ca505d382bbc9183835416146121a1565b61184961208f565b604051908482019282841067ffffffffffffffff851117610f0357836040526000835260ff7f4910fdfa16fed3260ed0e7147f7cc6da11a60208b5b9406d12a635614ffd914354166000146118a657505050506102769150612213565b8416906040516352d1902d60e01b81528681600481865afa60009181611a47575b506119285760405162461bcd60e51b815260048101889052602e60248201527f45524331393637557067726164653a206e657720696d706c656d656e7461746960448201526d6f6e206973206e6f74205555505360901b6064820152608490fd5b036119f05761193684612213565b604051907fbc7cd75a20ee27fd9adebab32041f755214dbc6bffa90cc0225b39da2e5c2d3b600080a28151158015906119e8575b61197057005b833b1561199757506102769392600092839251915af43d156115e4573d9061156c82612073565b62461bcd60e51b815260048101859052602660248201527f416464726573733a2064656c65676174652063616c6c20746f206e6f6e2d636f6044820152651b9d1c9858dd60d21b6064820152608490fd5b50600061196a565b60405162461bcd60e51b815260048101869052602960248201527f45524331393637557067726164653a20756e737570706f727465642070726f786044820152681a58589b195555525160ba1b6064820152608490fd5b9091508781813d8311611a6f575b611a5f8183611fda565b81010312610238575190886118c7565b503d611a55565b3461023857600036600319011261023857602060405160128152f35b3461023857602036600319011261023857600435611aae61208f565b804710611aed576000808080936001600160a01b036101315416828215611ae4575bf115611ad857005b6040513d6000823e3d90fd5b506108fc611ad0565b60405162461bcd60e51b815260206004820152602360248201527f4c53414e3a20496e73756666696369656e7420636f6e74726163742062616c616044820152626e636560e81b6064820152608490fd5b3461023857606036600319011261023857611b57611f76565b611b5f611f8c565b6044356001600160a01b0391828416806000526020936101348552611b8b60ff604060002054166126c6565b82166000526101338452611ba660ff60406000205416612738565b60005260fc83526040600020336000528352604060002054936000198503611bdd575b611bd49394506127aa565b60405160018152f35b828510611bfd57611bf583611bd4959603338361231e565b849350611bc9565b60405162461bcd60e51b815260048101859052601d60248201527f45524332303a20696e73756666696369656e7420616c6c6f77616e63650000006044820152606490fd5b346102385760403660031901126102385760043567ffffffffffffffff811161023857611c73903690600401611ffc565b60243590611c7f61208f565b60005b815181101561027657611d0d90611d08846001600160a01b0380611ca6858861246b565b5116611cb061208f565b6000526020610134815260406000209061013360019160ff1993838582541617905584611cdd898c61246b565b5116611ce761208f565b60005252604060002091825416179055611d01848761246b565b511661253e565b61245c565b611c82565b3461023857600036600319011261023857602061012f54604051908152f35b3461023857600036600319011261023857602061012e54604051908152f35b3461023857600036600319011261023857602060fd54604051908152f35b600036600319011261023857600260c95414611e1f57600260c955610130543410611db457611dad611da7611da1612639565b34612619565b33612507565b600160c955005b60405162461bcd60e51b815260206004820152602d60248201527f4c53414e3a20416d6f756e74206c657373207468616e206d696e696d756d206460448201527f65706f73697420616d6f756e74000000000000000000000000000000000000006064820152608490fd5b60405162461bcd60e51b815260206004820152601f60248201527f5265656e7472616e637947756172643a207265656e7472616e742063616c6c006044820152606490fd5b346102385760403660031901126102385761085f611e80611f76565b602435903361231e565b3461023857600036600319011261023857600060fe54611ea9816122c1565b80845290600190818116908115610b115750600114611ed257610ab284610aa681860382611fda565b60fe600090815292507f54075df80ec1ae6ac9100e1fd0ebf3246c17f5c933137af392011f4c5f61513a5b828410611f15575050508101602001610aa682610a96565b80546020858701810191909152909301928101611efd565b6020808252825181830181905290939260005b828110611f6257505060409293506000838284010152601f8019910116010190565b818101860151848201604001528501611f40565b600435906001600160a01b038216820361023857565b602435906001600160a01b038216820361023857565b6060810190811067ffffffffffffffff821117610f0357604052565b6040810190811067ffffffffffffffff821117610f0357604052565b90601f8019910116810190811067ffffffffffffffff821117610f0357604052565b9080601f830112156102385781359067ffffffffffffffff8211610f03578160051b6040519360209361203185840187611fda565b85528380860192820101928311610238578301905b828210612054575050505090565b81356001600160a01b0381168103610238578152908301908301612046565b67ffffffffffffffff8111610f0357601f01601f191660200190565b6001600160a01b036097541633036120a357565b606460405162461bcd60e51b815260206004820152602060248201527f4f776e61626c653a2063616c6c6572206973206e6f7420746865206f776e65726044820152fd5b609754906001600160a01b0380911691826001600160a01b0319821617609755167f8be0079c531659141344cd1fd0a4f28419497f9722a3daafe3b4186f6b6457e0600080a3565b1561213657565b60405162461bcd60e51b815260206004820152602c60248201527f46756e6374696f6e206d7573742062652063616c6c6564207468726f7567682060448201527f64656c656761746563616c6c00000000000000000000000000000000000000006064820152608490fd5b156121a857565b60405162461bcd60e51b815260206004820152602c60248201527f46756e6374696f6e206d7573742062652063616c6c6564207468726f7567682060448201527f6163746976652070726f787900000000000000000000000000000000000000006064820152608490fd5b803b15612256576001600160a01b037f360894a13ba1a3210667c828492db98dca3e2076cc3735a920a3ca505d382bbc91166001600160a01b0319825416179055565b60405162461bcd60e51b815260206004820152602d60248201527f455243313936373a206e657720696d706c656d656e746174696f6e206973206e60448201527f6f74206120636f6e7472616374000000000000000000000000000000000000006064820152608490fd5b90600182811c921680156122f1575b60208310146122db57565b634e487b7160e01b600052602260045260246000fd5b91607f16916122d0565b9190820180921161230857565b634e487b7160e01b600052601160045260246000fd5b6001600160a01b038091169182156123cf571691821561237f5760207f8c5be1e5ebec7d5bd14f71427d1e84f3dd0314c0f7b2291e5b200ac8c7c3b925918360005260fc8252604060002085600052825280604060002055604051908152a3565b60405162461bcd60e51b815260206004820152602260248201527f45524332303a20617070726f766520746f20746865207a65726f206164647265604482015261737360f01b6064820152608490fd5b60405162461bcd60e51b8152602060048201526024808201527f45524332303a20617070726f76652066726f6d20746865207a65726f206164646044820152637265737360e01b6064820152608490fd5b9091901561242c575090565b81511561243c5750805190602001fd5b60405162461bcd60e51b81529081906124589060048301611f2d565b0390fd5b60001981146123085760010190565b805182101561247f5760209160051b010190565b634e487b7160e01b600052603260045260246000fd5b1561249c57565b60405162461bcd60e51b815260206004820152602b60248201527f496e697469616c697a61626c653a20636f6e7472616374206973206e6f74206960448201527f6e697469616c697a696e670000000000000000000000000000000000000000006064820152608490fd5b9061253c9161251461208f565b6001600160a01b0381166000526101346020526040600020600160ff1982541617905561253e565b565b6001600160a01b031690811561259d577fddf252ad1be2c89b69c2b068fc378daa952ba7f163c4a11628f55a4df523b3ef60208261258060009460fd546122fb565b60fd5584845260fb825260408420818154019055604051908152a3565b60405162461bcd60e51b815260206004820152601f60248201527f45524332303a206d696e7420746f20746865207a65726f2061646472657373006044820152606490fd5b919081101561247f5760051b0190565b356001600160a01b03811681036102385790565b8181029291811591840414171561230857565b8115612623570490565b634e487b7160e01b600052601260045260246000fd5b61264a61012d5461012e5490612606565b61013254908142034281116123085760188102928184046018149042141715612308576105a0810292808404603c14901517156123085762015180810292808404603c1490151715612308576305265c0002918083046103e81490151715612308576126c3916126b991612619565b61012f5490612606565b90565b156126cd57565b60405162461bcd60e51b815260206004820152603060248201527f4c53414e3a2055736572206973206e6f742077686974656c697374656420746f60448201527f207472616e7366657220746f6b656e73000000000000000000000000000000006064820152608490fd5b1561273f57565b60405162461bcd60e51b815260206004820152602f60248201527f4c53414e3a2055736572206973206e6f742077686974656c697374656420746f60448201527f207265636569766520746f6b656e7300000000000000000000000000000000006064820152608490fd5b6001600160a01b038091169182156128de571691821561288d57600082815260fb60205260408120549180831061282257604082827fddf252ad1be2c89b69c2b068fc378daa952ba7f163c4a11628f55a4df523b3ef95876020965260fb8652038282205586815220818154019055604051908152a3565b60405162461bcd60e51b815260206004820152602660248201527f45524332303a207472616e7366657220616d6f756e742065786365656473206260448201527f616c616e636500000000000000000000000000000000000000000000000000006064820152608490fd5b60405162461bcd60e51b815260206004820152602360248201527f45524332303a207472616e7366657220746f20746865207a65726f206164647260448201526265737360e81b6064820152608490fd5b60405162461bcd60e51b815260206004820152602560248201527f45524332303a207472616e736665722066726f6d20746865207a65726f20616460448201527f64726573730000000000000000000000000000000000000000000000000000006064820152608490fdfea26469706673582212204380bf5b7e1dc49b3b23d1fb873c6090eb8da3b6bfdae545ad9fca53ec97820464736f6c63430008110033",
  "linkReferences": {},
  "deployedLinkReferences": {}
}