{
  "_format": "hh-sol-artifact-1",
  "contractName": "LSAN",
  "sourceName": "src/alpha/Token.sol",
  "abi": [
    {
      "anonymous": false,
      "inputs": [
        {
          "indexed": false,
          "internalType": "address",
          "name": "previousAdmin",
          "type": "address"
        },
        {
          "indexed": false,
          "internalType": "address",
          "name": "newAdmin",
          "type": "address"
        }
      ],
      "name": "AdminChanged",
      "type": "event"
    },
    {
      "anonymous": false,
      "inputs": [
        {
          "indexed": true,
          "internalType": "address",
          "name": "owner",
          "type": "address"
        },
        {
          "indexed": true,
          "internalType": "address",
          "name": "spender",
          "type": "address"
        },
        {
          "indexed": false,
          "internalType": "uint256",
          "name": "value",
          "type": "uint256"
        }
      ],
      "name": "Approval",
      "type": "event"
    },
    {
      "anonymous": false,
      "inputs": [
        {
          "indexed": true,
          "internalType": "address",
          "name": "beacon",
          "type": "address"
        }
      ],
      "name": "BeaconUpgraded",
      "type": "event"
    },
    {
      "anonymous": false,
      "inputs": [
        {
          "indexed": false,
          "internalType": "uint8",
          "name": "version",
          "type": "uint8"
        }
      ],
      "name": "Initialized",
      "type": "event"
    },
    {
      "anonymous": false,
      "inputs": [
        {
          "indexed": true,
          "internalType": "address",
          "name": "previousOwner",
          "type": "address"
        },
        {
          "indexed": true,
          "internalType": "address",
          "name": "newOwner",
          "type": "address"
        }
      ],
      "name": "OwnershipTransferred",
      "type": "event"
    },
    {
      "anonymous": false,
      "inputs": [
        {
          "indexed": true,
          "internalType": "address",
          "name": "from",
          "type": "address"
        },
        {
          "indexed": true,
          "internalType": "address",
          "name": "to",
          "type": "address"
        },
        {
          "indexed": false,
          "internalType": "uint256",
          "name": "value",
          "type": "uint256"
        }
      ],
      "name": "Transfer",
      "type": "event"
    },
    {
      "anonymous": false,
      "inputs": [
        {
          "indexed": true,
          "internalType": "address",
          "name": "implementation",
          "type": "address"
        }
      ],
      "name": "Upgraded",
      "type": "event"
    },
    {
      "inputs": [],
      "name": "DEPLOYED_TIME",
      "outputs": [
        {
          "internalType": "uint256",
          "name": "",
          "type": "uint256"
        }
      ],
      "stateMutability": "view",
      "type": "function"
    },
    {
      "inputs": [],
      "name": "SAFE_ADDRESS",
      "outputs": [
        {
          "internalType": "address payable",
          "name": "",
          "type": "address"
        }
      ],
      "stateMutability": "view",
      "type": "function"
    },
    {
      "inputs": [
        {
          "internalType": "address",
          "name": "_from",
          "type": "address"
        },
        {
          "internalType": "address",
          "name": "_to",
          "type": "address"
        }
      ],
      "name": "addWhitelist",
      "outputs": [],
      "stateMutability": "nonpayable",
      "type": "function"
    },
    {
      "inputs": [
        {
          "internalType": "address",
          "name": "owner",
          "type": "address"
        },
        {
          "internalType": "address",
          "name": "spender",
          "type": "address"
        }
      ],
      "name": "allowance",
      "outputs": [
        {
          "internalType": "uint256",
          "name": "",
          "type": "uint256"
        }
      ],
      "stateMutability": "view",
      "type": "function"
    },
    {
      "inputs": [
        {
          "internalType": "address",
          "name": "spender",
          "type": "address"
        },
        {
          "internalType": "uint256",
          "name": "amount",
          "type": "uint256"
        }
      ],
      "name": "approve",
      "outputs": [
        {
          "internalType": "bool",
          "name": "",
          "type": "bool"
        }
      ],
      "stateMutability": "nonpayable",
      "type": "function"
    },
    {
      "inputs": [],
      "name": "balance",
      "outputs": [
        {
          "internalType": "uint256",
          "name": "",
          "type": "uint256"
        }
      ],
      "stateMutability": "view",
      "type": "function"
    },
    {
      "inputs": [
        {
          "internalType": "address",
          "name": "account",
          "type": "address"
        }
      ],
      "name": "balanceOf",
      "outputs": [
        {
          "internalType": "uint256",
          "name": "",
          "type": "uint256"
        }
      ],
      "stateMutability": "view",
      "type": "function"
    },
    {
      "inputs": [
        {
          "internalType": "address",
          "name": "account",
          "type": "address"
        },
        {
          "internalType": "uint256",
          "name": "amount",
          "type": "uint256"
        }
      ],
      "name": "burn",
      "outputs": [],
      "stateMutability": "nonpayable",
      "type": "function"
    },
    {
      "inputs": [],
      "name": "decimals",
      "outputs": [
        {
          "internalType": "uint8",
          "name": "",
          "type": "uint8"
        }
      ],
      "stateMutability": "view",
      "type": "function"
    },
    {
      "inputs": [
        {
          "internalType": "address",
          "name": "spender",
          "type": "address"
        },
        {
          "internalType": "uint256",
          "name": "subtractedValue",
          "type": "uint256"
        }
      ],
      "name": "decreaseAllowance",
      "outputs": [
        {
          "internalType": "bool",
          "name": "",
          "type": "bool"
        }
      ],
      "stateMutability": "nonpayable",
      "type": "function"
    },
    {
      "inputs": [
        {
          "internalType": "uint256",
          "name": "",
          "type": "uint256"
        }
      ],
      "name": "defaultWhitelistedRecipients",
      "outputs": [
        {
          "internalType": "address",
          "name": "",
          "type": "address"
        }
      ],
      "stateMutability": "view",
      "type": "function"
    },
    {
      "inputs": [],
      "name": "getTokenPrice",
      "outputs": [
        {
          "internalType": "uint256",
          "name": "lsanPrice",
          "type": "uint256"
        }
      ],
      "stateMutability": "view",
      "type": "function"
    },
    {
      "inputs": [
        {
          "internalType": "address",
          "name": "spender",
          "type": "address"
        },
        {
          "internalType": "uint256",
          "name": "addedValue",
          "type": "uint256"
        }
      ],
      "name": "increaseAllowance",
      "outputs": [
        {
          "internalType": "bool",
          "name": "",
          "type": "bool"
        }
      ],
      "stateMutability": "nonpayable",
      "type": "function"
    },
    {
      "inputs": [
        {
          "internalType": "address",
          "name": "_safeAddress",
          "type": "address"
        },
        {
          "internalType": "address[]",
          "name": "_whitelistFrom",
          "type": "address[]"
        },
        {
          "internalType": "address[]",
          "name": "_whitelistTo",
          "type": "address[]"
        },
        {
          "internalType": "address[]",
          "name": "_defaultWhitelistedRecipients",
          "type": "address[]"
        }
      ],
      "name": "initialize",
      "outputs": [],
      "stateMutability": "nonpayable",
      "type": "function"
    },
    {
      "inputs": [
        {
          "internalType": "address",
          "name": "_from",
          "type": "address"
        },
        {
          "internalType": "address",
          "name": "_to",
          "type": "address"
        }
      ],
      "name": "isWhitelisted",
      "outputs": [
        {
          "internalType": "bool",
          "name": "",
          "type": "bool"
        }
      ],
      "stateMutability": "view",
      "type": "function"
    },
    {
      "inputs": [
        {
          "internalType": "address[]",
          "name": "_fromAddresses",
          "type": "address[]"
        },
        {
          "internalType": "address[]",
          "name": "_toAddresses",
          "type": "address[]"
        }
      ],
      "name": "massAddWhitelist",
      "outputs": [],
      "stateMutability": "nonpayable",
      "type": "function"
    },
    {
      "inputs": [
        {
          "internalType": "address[]",
          "name": "_fromAddresses",
          "type": "address[]"
        },
        {
          "internalType": "address[]",
          "name": "_toAddresses",
          "type": "address[]"
        }
      ],
      "name": "massRemoveWhitelist",
      "outputs": [],
      "stateMutability": "nonpayable",
      "type": "function"
    },
    {
      "inputs": [],
      "name": "maticPerByte",
      "outputs": [
        {
          "internalType": "uint256",
          "name": "",
          "type": "uint256"
        }
      ],
      "stateMutability": "view",
      "type": "function"
    },
    {
      "inputs": [],
      "name": "minimumDeposit",
      "outputs": [
        {
          "internalType": "uint256",
          "name": "",
          "type": "uint256"
        }
      ],
      "stateMutability": "view",
      "type": "function"
    },
    {
      "inputs": [],
      "name": "mint",
      "outputs": [],
      "stateMutability": "payable",
      "type": "function"
    },
    {
      "inputs": [
        {
          "internalType": "address[]",
          "name": "_addresses",
          "type": "address[]"
        },
        {
          "internalType": "uint256",
          "name": "amount",
          "type": "uint256"
        }
      ],
      "name": "mintManyTokens",
      "outputs": [],
      "stateMutability": "nonpayable",
      "type": "function"
    },
    {
      "inputs": [
        {
          "internalType": "address",
          "name": "account",
          "type": "address"
        },
        {
          "internalType": "uint256",
          "name": "amount",
          "type": "uint256"
        }
      ],
      "name": "mintTokens",
      "outputs": [],
      "stateMutability": "nonpayable",
      "type": "function"
    },
    {
      "inputs": [],
      "name": "multiplier",
      "outputs": [
        {
          "internalType": "uint256",
          "name": "",
          "type": "uint256"
        }
      ],
      "stateMutability": "view",
      "type": "function"
    },
    {
      "inputs": [],
      "name": "name",
      "outputs": [
        {
          "internalType": "string",
          "name": "",
          "type": "string"
        }
      ],
      "stateMutability": "view",
      "type": "function"
    },
    {
      "inputs": [],
      "name": "owner",
      "outputs": [
        {
          "internalType": "address",
          "name": "",
          "type": "address"
        }
      ],
      "stateMutability": "view",
      "type": "function"
    },
    {
      "inputs": [],
      "name": "proxiableUUID",
      "outputs": [
        {
          "internalType": "bytes32",
          "name": "",
          "type": "bytes32"
        }
      ],
      "stateMutability": "view",
      "type": "function"
    },
    {
      "inputs": [
        {
          "internalType": "address",
          "name": "_from",
          "type": "address"
        },
        {
          "internalType": "address",
          "name": "_to",
          "type": "address"
        }
      ],
      "name": "removeWhitelist",
      "outputs": [],
      "stateMutability": "nonpayable",
      "type": "function"
    },
    {
      "inputs": [],
      "name": "renounceOwnership",
      "outputs": [],
      "stateMutability": "nonpayable",
      "type": "function"
    },
    {
      "inputs": [
        {
          "internalType": "address[]",
          "name": "_defaultRecipients",
          "type": "address[]"
        }
      ],
      "name": "setDefaultWhitelistedRecipients",
      "outputs": [],
      "stateMutability": "nonpayable",
      "type": "function"
    },
    {
      "inputs": [
        {
          "internalType": "uint256",
          "name": "_maticPerByte",
          "type": "uint256"
        }
      ],
      "name": "setMaticPerByte",
      "outputs": [],
      "stateMutability": "nonpayable",
      "type": "function"
    },
    {
      "inputs": [
        {
          "internalType": "uint256",
          "name": "_minimumDeposit",
          "type": "uint256"
        }
      ],
      "name": "setMinimumDeposit",
      "outputs": [],
      "stateMutability": "nonpayable",
      "type": "function"
    },
    {
      "inputs": [
        {
          "internalType": "uint256",
          "name": "_multiplier",
          "type": "uint256"
        }
      ],
      "name": "setMultipler",
      "outputs": [],
      "stateMutability": "nonpayable",
      "type": "function"
    },
    {
      "inputs": [
        {
          "internalType": "uint256",
          "name": "_totalBytesStored",
          "type": "uint256"
        }
      ],
      "name": "setTotalBytesStored",
      "outputs": [],
      "stateMutability": "nonpayable",
      "type": "function"
    },
    {
      "inputs": [],
      "name": "symbol",
      "outputs": [
        {
          "internalType": "string",
          "name": "",
          "type": "string"
        }
      ],
      "stateMutability": "view",
      "type": "function"
    },
    {
      "inputs": [],
      "name": "totalBytesStored",
      "outputs": [
        {
          "internalType": "uint256",
          "name": "",
          "type": "uint256"
        }
      ],
      "stateMutability": "view",
      "type": "function"
    },
    {
      "inputs": [],
      "name": "totalSupply",
      "outputs": [
        {
          "internalType": "uint256",
          "name": "",
          "type": "uint256"
        }
      ],
      "stateMutability": "view",
      "type": "function"
    },
    {
      "inputs": [
        {
          "internalType": "address",
          "name": "_to",
          "type": "address"
        },
        {
          "internalType": "uint256",
          "name": "_amount",
          "type": "uint256"
        }
      ],
      "name": "transfer",
      "outputs": [
        {
          "internalType": "bool",
          "name": "",
          "type": "bool"
        }
      ],
      "stateMutability": "nonpayable",
      "type": "function"
    },
    {
      "inputs": [
        {
          "internalType": "address",
          "name": "_from",
          "type": "address"
        },
        {
          "internalType": "address",
          "name": "_to",
          "type": "address"
        },
        {
          "internalType": "uint256",
          "name": "amount",
          "type": "uint256"
        }
      ],
      "name": "transferFrom",
      "outputs": [
        {
          "internalType": "bool",
          "name": "",
          "type": "bool"
        }
      ],
      "stateMutability": "nonpayable",
      "type": "function"
    },
    {
      "inputs": [
        {
          "internalType": "address",
          "name": "newOwner",
          "type": "address"
        }
      ],
      "name": "transferOwnership",
      "outputs": [],
      "stateMutability": "nonpayable",
      "type": "function"
    },
    {
      "inputs": [
        {
          "internalType": "address",
          "name": "newImplementation",
          "type": "address"
        }
      ],
      "name": "upgradeTo",
      "outputs": [],
      "stateMutability": "nonpayable",
      "type": "function"
    },
    {
      "inputs": [
        {
          "internalType": "address",
          "name": "newImplementation",
          "type": "address"
        },
        {
          "internalType": "bytes",
          "name": "data",
          "type": "bytes"
        }
      ],
      "name": "upgradeToAndCall",
      "outputs": [],
      "stateMutability": "payable",
      "type": "function"
    },
    {
      "inputs": [
        {
          "internalType": "uint256",
          "name": "amount",
          "type": "uint256"
        }
      ],
      "name": "withdraw",
      "outputs": [],
      "stateMutability": "nonpayable",
      "type": "function"
    }
  ],
  "bytecode": "0x60a0806040523461003157306080526128b690816100378239608051818181610afc01528181610c3401526110000152f35b600080fdfe6080604052600436101561001257600080fd5b60003560e01c8062e0294d14611d5a57806306fdde0314611cb4578063095ea7b314611c8e5780631249c58b14611b9857806318160ddd14611b7a57806319058d1414611b5b5780631b3ed72214611b3c5780632241c86d14611ac857806323b872dd146119d25780632e1a7d4d146119265780632f26b1de146112ac578063313ce567146112905780633659cfe614610fdb578063385d633f14610fb95780633950935114610f675780634b94f50e14610f445780634dc29ca014610f255780634f1ef28614610bb757806352d1902d14610ae1578063636bfbab14610ac25780636501779614610aa357806370a0823114610a69578063715018a614610a0e5780637d6b40281461098257806385d38f801461095a5780638da5cb5b1461093357806395d89b41146108555780639dc29fac14610725578063a457c2d714610665578063a73d633c14610605578063a9059cbb146105a4578063afc2afa614610582578063b69ef8a814610566578063b6b352721461050e578063ba9e1c86146104b3578063bd9c2e9e146103b4578063bec9947114610357578063d95b787c14610335578063dd62ed3e146102e3578063e78ec42e146102c1578063f0dda65c146102945763f2fde38b146101e957600080fd5b3461028f57602036600319011261028f57610202611e3d565b61020a611f8c565b6001600160a01b038116156102245761022290611fe4565b005b60405162461bcd60e51b815260206004820152602660248201527f4f776e61626c653a206e6577206f776e657220697320746865207a65726f206160448201527f64647265737300000000000000000000000000000000000000000000000000006064820152608490fd5b600080fd5b3461028f57604036600319011261028f576102226102b0611e3d565b6102b8611f8c565b6024359061242e565b3461028f57602036600319011261028f576102da611f8c565b60043561013055005b3461028f57604036600319011261028f576102fc611e3d565b610304611e53565b906001600160a01b0380911660005260fc602052604060002091166000526020526020604060002054604051908152f35b3461028f57602036600319011261028f5761034e611f8c565b60043561012e55005b3461028f57604036600319011261028f57610370611e3d565b610378611e53565b90610381611f8c565b6001600160a01b0380911660005261013460205260406000209116600052602052604060002060ff198154169055600080f35b3461028f5760208060031936011261028f5767ffffffffffffffff60043581811161028f576103e7903690600401611e69565b6103ef611f8c565b805191821161049d5768010000000000000000821161049d5782610133918254848455808510610467575b50019060005260005b82811061042c57005b81516001600160a01b03167f92e985329fb94cc1b424ebb0f7f2929b6d27383ca94c0ec71c44fb48bdf96d2c82015590830190600101610423565b61049790857f92e985329fb94cc1b424ebb0f7f2929b6d27383ca94c0ec71c44fb48bdf96d2c91820191016123a5565b8561041a565b634e487b7160e01b600052604160045260246000fd5b3461028f57602036600319011261028f57600435610133805482101561028f576020916001600160a01b03916000527f92e985329fb94cc1b424ebb0f7f2929b6d27383ca94c0ec71c44fb48bdf96d2c015416604051908152f35b3461028f57604036600319011261028f57610527611e3d565b61052f611e53565b906001600160a01b0380911660005261013460205260406000209116600052602052602060ff604060002054166040519015158152f35b3461028f57600036600319011261028f57602047604051908152f35b3461028f57602036600319011261028f5761059b611f8c565b60043561012f55005b3461028f57604036600319011261028f576105fa6105c0611e3d565b3360005261013460205260406000206001600160a01b0382166000526020526105f060ff6040600020541661266f565b60243590336126e1565b602060405160018152f35b3461028f57604036600319011261028f5761061e611e3d565b610626611e53565b9061062f611f8c565b6001600160a01b03809116600052610134602052604060002091166000526020526040600020600160ff19825416179055600080f35b3461028f57604036600319011261028f5761067e611e3d565b602435903360005260fc60205260406000206001600160a01b038216600052602052604060002054918083106106ba576105fa9203903361221b565b60405162461bcd60e51b815260206004820152602560248201527f45524332303a2064656372656173656420616c6c6f77616e63652062656c6f7760448201527f207a65726f0000000000000000000000000000000000000000000000000000006064820152608490fd5b3461028f57604036600319011261028f5761073e611e3d565b6001600160a01b0360243591610752611f8c565b168015610806578060005260fb602052604060002054918083106107b6576020817fddf252ad1be2c89b69c2b068fc378daa952ba7f163c4a11628f55a4df523b3ef9260009585875260fb84520360408620558060fd540360fd55604051908152a3005b60405162461bcd60e51b815260206004820152602260248201527f45524332303a206275726e20616d6f756e7420657863656564732062616c616e604482015261636560f01b6064820152608490fd5b60405162461bcd60e51b815260206004820152602160248201527f45524332303a206275726e2066726f6d20746865207a65726f206164647265736044820152607360f81b6064820152608490fd5b3461028f57600036600319011261028f57604051600060ff54610877816121be565b8084529060019081811690811561090c57506001146108b1575b6108ad846108a181860382611e1b565b60405191829182611f27565b0390f35b60ff600090815292507fe08ec2af2cfc251225e1968fd6ca21e4044f129bffa95bac3503be8bdb30a3675b8284106108f45750505081016020016108a182610891565b805460208587018101919091529093019281016108dc565b60ff191660208087019190915292151560051b850190920192506108a19150839050610891565b3461028f57600036600319011261028f5760206001600160a01b0360975416604051908152f35b3461028f57600036600319011261028f5760206001600160a01b036101315416604051908152f35b3461028f5761099036611ee0565b610998611f8c565b6109a58251825114612553565b60005b825181101561022257610a09906001600160a01b03806109c88387612368565b5116906109d58386612368565b5116906109e0611f8c565b60005260206101348152604060002091600052526040600020600160ff19825416179055612359565b6109a8565b3461028f57600036600319011261028f57610a27611f8c565b60006001600160a01b036097546001600160a01b03198116609755167f8be0079c531659141344cd1fd0a4f28419497f9722a3daafe3b4186f6b6457e08280a3005b3461028f57602036600319011261028f576001600160a01b03610a8a611e3d565b1660005260fb6020526020604060002054604051908152f35b3461028f57600036600319011261028f57602061013254604051908152f35b3461028f57600036600319011261028f57602061013054604051908152f35b3461028f57600036600319011261028f576001600160a01b037f0000000000000000000000000000000000000000000000000000000000000000163003610b4c5760206040517f360894a13ba1a3210667c828492db98dca3e2076cc3735a920a3ca505d382bbc8152f35b60405162461bcd60e51b815260206004820152603860248201527f555550535570677261646561626c653a206d757374206e6f742062652063616c60448201527f6c6564207468726f7567682064656c656761746563616c6c00000000000000006064820152608490fd5b604036600319011261028f57610bcb611e3d565b602490813567ffffffffffffffff811161028f573660238201121561028f57806004013590610bf982611f70565b610c066040519182611e1b565b828152602092838201923687838301011161028f5781600092888793018637830101526001600160a01b03807f00000000000000000000000000000000000000000000000000000000000000001690610c618230141561202c565b610c907f360894a13ba1a3210667c828492db98dca3e2076cc3735a920a3ca505d382bbc92828454161461209e565b610c98611f8c565b7f4910fdfa16fed3260ed0e7147f7cc6da11a60208b5b9406d12a635614ffd91435460ff1615610cd15750505050506102229150612110565b85949516906040516352d1902d60e01b81528681600481865afa60009181610ef6575b50610d545760405162461bcd60e51b815260048101889052602e818a01527f45524331393637557067726164653a206e657720696d706c656d656e7461746960448201526d6f6e206973206e6f74205555505360901b6064820152608490fd5b96919293949603610ea157610d6886612110565b604051917fbc7cd75a20ee27fd9adebab32041f755214dbc6bffa90cc0225b39da2e5c2d3b600080a2825115801590610e99575b610da257005b853b15610e4957505061022293600092839251915af43d15610e41573d90610dc982611f70565b91610dd76040519384611e1b565b82523d60008484013e5b7f416464726573733a206c6f772d6c6576656c2064656c65676174652063616c6c60405193610e0f85611dff565b602785528401527f206661696c656400000000000000000000000000000000000000000000000000604084015261231d565b606090610de1565b62461bcd60e51b8252600482018590526026908201527f416464726573733a2064656c65676174652063616c6c20746f206e6f6e2d636f6044820152651b9d1c9858dd60d21b6064820152608490fd5b506001610d9c565b8460296084926040519262461bcd60e51b845260048401528201527f45524331393637557067726164653a20756e737570706f727465642070726f786044820152681a58589b195555525160ba1b6064820152fd5b9091508781813d8311610f1e575b610f0e8183611e1b565b8101031261028f57519089610cf4565b503d610f04565b3461028f57600036600319011261028f57602061012d54604051908152f35b3461028f57600036600319011261028f576020610f5f6125e5565b604051908152f35b3461028f57604036600319011261028f576105fa610f83611e3d565b3360005260fc60205260406000206001600160a01b038216600052602052610fb26024356040600020546121f8565b903361221b565b3461028f57602036600319011261028f57610fd2611f8c565b60043561012d55005b3461028f5760208060031936011261028f57610ff5611e3d565b6001600160a01b03807f00000000000000000000000000000000000000000000000000000000000000001661102c8130141561202c565b61105b7f360894a13ba1a3210667c828492db98dca3e2076cc3735a920a3ca505d382bbc91838354161461209e565b611063611f8c565b604051908482019282841067ffffffffffffffff85111761049d57836040526000835260ff7f4910fdfa16fed3260ed0e7147f7cc6da11a60208b5b9406d12a635614ffd914354166000146110c057505050506102229150612110565b8416906040516352d1902d60e01b81528681600481865afa60009181611261575b506111425760405162461bcd60e51b815260048101889052602e60248201527f45524331393637557067726164653a206e657720696d706c656d656e7461746960448201526d6f6e206973206e6f74205555505360901b6064820152608490fd5b0361120a5761115084612110565b604051907fbc7cd75a20ee27fd9adebab32041f755214dbc6bffa90cc0225b39da2e5c2d3b600080a2815115801590611202575b61118a57005b833b156111b157506102229392600092839251915af43d15610e41573d90610dc982611f70565b62461bcd60e51b815260048101859052602660248201527f416464726573733a2064656c65676174652063616c6c20746f206e6f6e2d636f6044820152651b9d1c9858dd60d21b6064820152608490fd5b506000611184565b60405162461bcd60e51b815260048101869052602960248201527f45524331393637557067726164653a20756e737570706f727465642070726f786044820152681a58589b195555525160ba1b6064820152608490fd5b9091508781813d8311611289575b6112798183611e1b565b8101031261028f575190886110e1565b503d61126f565b3461028f57600036600319011261028f57602060405160128152f35b3461028f57608036600319011261028f576112c5611e3d565b60243567ffffffffffffffff811161028f576112e5903690600401611e69565b9060443567ffffffffffffffff811161028f57611306903690600401611e69565b60643567ffffffffffffffff811161028f57611326903690600401611e69565b916000549060ff8260081c161591828093611919575b8015611902575b156118975760ff19811660011760005582611885575b50845183510361181a5761137d60ff60005460081c16611378816123bc565b6123bc565b61138633611fe4565b60405161139281611de3565b601d81527f4c6f672053746f726520416c706861204e6574776f726b20546f6b656e0000006020820152604051906113c982611de3565b60048252632629a0a760e11b60208301526113ef60ff60005460081c16611378816123bc565b80519067ffffffffffffffff821161049d57819061140e60fe546121be565b601f81116117cb575b50602090601f831160011461174157600092611736575b50508160011b916000199060031b1c19161760fe555b80519067ffffffffffffffff821161049d57819061146360ff546121be565b601f81116116dc575b50602090601f831160011461165257600092611647575b50508160011b916000199060031b1c19161760ff555b6114b760ff60005460081c166114ae816123bc565b611378816123bc565b600160c95560005b855181101561152657611521906001600160a01b03806114df838a612368565b5116906114ec8388612368565b5116906114f7611f8c565b6000526101346020526040600020906000526020526040600020600160ff19825416179055612359565b6114bf565b50836001600160a01b03918261013191166001600160a01b03198254161790554261013255600161012f5560006101305580519167ffffffffffffffff831161049d5768010000000000000000831161049d576020610133928354858555808610611611575b50019160005260005b8381106115db57846115a357005b61ff0019600054166000557f7f26b83ff96e1f2b6a682f133852f6798a09c465da95921460cefb3847402498602060405160018152a1005b600190602083855116940193817f92e985329fb94cc1b424ebb0f7f2929b6d27383ca94c0ec71c44fb48bdf96d2c015501611595565b61164190867f92e985329fb94cc1b424ebb0f7f2929b6d27383ca94c0ec71c44fb48bdf96d2c91820191016123a5565b8661158c565b015190508780611483565b925060ff6000527fe08ec2af2cfc251225e1968fd6ca21e4044f129bffa95bac3503be8bdb30a367906000935b601f19841685106116c1576001945083601f198116106116a8575b505050811b0160ff55611499565b015160001960f88460031b161c1916905587808061169a565b8181015183556020948501946001909301929091019061167f565b6117269060ff6000527fe08ec2af2cfc251225e1968fd6ca21e4044f129bffa95bac3503be8bdb30a367601f850160051c8101916020861061172c575b601f0160051c01906123a5565b8861146c565b9091508190611719565b01519050888061142e565b925060fe6000527f54075df80ec1ae6ac9100e1fd0ebf3246c17f5c933137af392011f4c5f61513a906000935b601f19841685106117b0576001945083601f19811610611797575b505050811b0160fe55611444565b015160001960f88460031b161c19169055888080611789565b8181015183556020948501946001909301929091019061176e565b6118149060fe6000527f54075df80ec1ae6ac9100e1fd0ebf3246c17f5c933137af392011f4c5f61513a601f850160051c8101916020861061172c57601f0160051c01906123a5565b89611417565b60405162461bcd60e51b815260206004820152602d60248201527f4c53414e3a20496e697469616c2077686974656c69737420636f6e666967757260448201527f6174696f6e20696e76616c6964000000000000000000000000000000000000006064820152608490fd5b61ffff19166101011760005585611359565b60405162461bcd60e51b815260206004820152602e60248201527f496e697469616c697a61626c653a20636f6e747261637420697320616c72656160448201527f647920696e697469616c697a65640000000000000000000000000000000000006064820152608490fd5b50303b1580156113435750600160ff821614611343565b50600160ff82161061133c565b3461028f57602036600319011261028f57600435611942611f8c565b804710611981576000808080936001600160a01b036101315416828215611978575bf11561196c57005b6040513d6000823e3d90fd5b506108fc611964565b60405162461bcd60e51b815260206004820152602360248201527f4c53414e3a20496e73756666696369656e7420636f6e74726163742062616c616044820152626e636560e81b6064820152608490fd5b3461028f57606036600319011261028f576119eb611e3d565b6119f3611e53565b6044356001600160a01b039182841680600052602093610134855260406000209083166000528452611a2c60ff6040600020541661266f565b60005260fc83526040600020336000528352604060002054936000198503611a63575b611a5a9394506126e1565b60405160018152f35b828510611a8357611a7b83611a5a959603338361221b565b849350611a4f565b60405162461bcd60e51b815260048101859052601d60248201527f45524332303a20696e73756666696369656e7420616c6c6f77616e63650000006044820152606490fd5b3461028f57604036600319011261028f5760043567ffffffffffffffff811161028f57611af9903690600401611e69565b60243590611b05611f8c565b60005b81518110156102225780611b32846001600160a01b03611b2b611b379587612368565b511661242e565b612359565b611b08565b3461028f57600036600319011261028f57602061012f54604051908152f35b3461028f57600036600319011261028f57602061012e54604051908152f35b3461028f57600036600319011261028f57602060fd54604051908152f35b600036600319011261028f57600260c95414611c4957600260c955610130543410611bde57611bd7611bd1611bcb6125e5565b346125c5565b3361242e565b600160c955005b60405162461bcd60e51b815260206004820152602d60248201527f4c53414e3a20416d6f756e74206c657373207468616e206d696e696d756d206460448201527f65706f73697420616d6f756e74000000000000000000000000000000000000006064820152608490fd5b60405162461bcd60e51b815260206004820152601f60248201527f5265656e7472616e637947756172643a207265656e7472616e742063616c6c006044820152606490fd5b3461028f57604036600319011261028f576105fa611caa611e3d565b602435903361221b565b3461028f57600036600319011261028f57604051600060fe54611cd6816121be565b8084529060019081811690811561090c5750600114611cff576108ad846108a181860382611e1b565b60fe600090815292507f54075df80ec1ae6ac9100e1fd0ebf3246c17f5c933137af392011f4c5f61513a5b828410611d425750505081016020016108a182610891565b80546020858701810191909152909301928101611d2a565b3461028f57611d6836611ee0565b611d70611f8c565b611d7d8251825114612553565b60005b825181101561022257611dde906001600160a01b0380611da08387612368565b511690611dad8386612368565b511690611db8611f8c565b6000526020610134815260406000209160005252604060002060ff198154169055612359565b611d80565b6040810190811067ffffffffffffffff82111761049d57604052565b6060810190811067ffffffffffffffff82111761049d57604052565b90601f8019910116810190811067ffffffffffffffff82111761049d57604052565b600435906001600160a01b038216820361028f57565b602435906001600160a01b038216820361028f57565b9080601f8301121561028f5781359067ffffffffffffffff821161049d578160051b60405193602093611e9e85840187611e1b565b8552838086019282010192831161028f578301905b828210611ec1575050505090565b81356001600160a01b038116810361028f578152908301908301611eb3565b90604060031983011261028f5767ffffffffffffffff60043581811161028f5783611f0d91600401611e69565b9260243591821161028f57611f2491600401611e69565b90565b6020808252825181830181905290939260005b828110611f5c57505060409293506000838284010152601f8019910116010190565b818101860151848201604001528501611f3a565b67ffffffffffffffff811161049d57601f01601f191660200190565b6001600160a01b03609754163303611fa057565b606460405162461bcd60e51b815260206004820152602060248201527f4f776e61626c653a2063616c6c6572206973206e6f7420746865206f776e65726044820152fd5b609754906001600160a01b0380911691826001600160a01b0319821617609755167f8be0079c531659141344cd1fd0a4f28419497f9722a3daafe3b4186f6b6457e0600080a3565b1561203357565b60405162461bcd60e51b815260206004820152602c60248201527f46756e6374696f6e206d7573742062652063616c6c6564207468726f7567682060448201527f64656c656761746563616c6c00000000000000000000000000000000000000006064820152608490fd5b156120a557565b60405162461bcd60e51b815260206004820152602c60248201527f46756e6374696f6e206d7573742062652063616c6c6564207468726f7567682060448201527f6163746976652070726f787900000000000000000000000000000000000000006064820152608490fd5b803b15612153576001600160a01b037f360894a13ba1a3210667c828492db98dca3e2076cc3735a920a3ca505d382bbc91166001600160a01b0319825416179055565b60405162461bcd60e51b815260206004820152602d60248201527f455243313936373a206e657720696d706c656d656e746174696f6e206973206e60448201527f6f74206120636f6e7472616374000000000000000000000000000000000000006064820152608490fd5b90600182811c921680156121ee575b60208310146121d857565b634e487b7160e01b600052602260045260246000fd5b91607f16916121cd565b9190820180921161220557565b634e487b7160e01b600052601160045260246000fd5b6001600160a01b038091169182156122cc571691821561227c5760207f8c5be1e5ebec7d5bd14f71427d1e84f3dd0314c0f7b2291e5b200ac8c7c3b925918360005260fc8252604060002085600052825280604060002055604051908152a3565b60405162461bcd60e51b815260206004820152602260248201527f45524332303a20617070726f766520746f20746865207a65726f206164647265604482015261737360f01b6064820152608490fd5b60405162461bcd60e51b8152602060048201526024808201527f45524332303a20617070726f76652066726f6d20746865207a65726f206164646044820152637265737360e01b6064820152608490fd5b90919015612329575090565b8151156123395750805190602001fd5b60405162461bcd60e51b81529081906123559060048301611f27565b0390fd5b60001981146122055760010190565b805182101561237c5760209160051b010190565b634e487b7160e01b600052603260045260246000fd5b8181029291811591840414171561220557565b8181106123b0575050565b600081556001016123a5565b156123c357565b60405162461bcd60e51b815260206004820152602b60248201527f496e697469616c697a61626c653a20636f6e7472616374206973206e6f74206960448201527f6e697469616c697a696e670000000000000000000000000000000000000000006064820152608490fd5b60005b61013380548210156124ad57906124a8916000526001600160a01b0380827f92e985329fb94cc1b424ebb0f7f2929b6d27383ca94c0ec71c44fb48bdf96d2c0154169061247c611f8c565b84166000526020906101348252604091826000209160005252600020600160ff19825416179055612359565b612431565b50506001600160a01b031690811561250e577fddf252ad1be2c89b69c2b068fc378daa952ba7f163c4a11628f55a4df523b3ef6020826124f160009460fd546121f8565b60fd5584845260fb825260408420818154019055604051908152a3565b60405162461bcd60e51b815260206004820152601f60248201527f45524332303a206d696e7420746f20746865207a65726f2061646472657373006044820152606490fd5b1561255a57565b60405162461bcd60e51b815260206004820152602860248201527f4c53414e3a20496e76616c696420706172616d657465727320666f72206d617360448201527f73207570646174650000000000000000000000000000000000000000000000006064820152608490fd5b81156125cf570490565b634e487b7160e01b600052601260045260246000fd5b6125f661012d5461012e5490612392565b61013254908142034281116122055760188102928184046018149042141715612205576105a0810292808404603c14901517156122055762015180810292808404603c1490151715612205576305265c0002918083046103e8149015171561220557611f2491612665916125c5565b61012f5490612392565b1561267657565b60405162461bcd60e51b815260206004820152603160248201527f4c53414e3a205472616e73666572206265747765656e2061646472657373657360448201527f206973206e6f74207065726d69747465640000000000000000000000000000006064820152608490fd5b6001600160a01b0380911691821561281557169182156127c457600082815260fb60205260408120549180831061275957604082827fddf252ad1be2c89b69c2b068fc378daa952ba7f163c4a11628f55a4df523b3ef95876020965260fb8652038282205586815220818154019055604051908152a3565b60405162461bcd60e51b815260206004820152602660248201527f45524332303a207472616e7366657220616d6f756e742065786365656473206260448201527f616c616e636500000000000000000000000000000000000000000000000000006064820152608490fd5b60405162461bcd60e51b815260206004820152602360248201527f45524332303a207472616e7366657220746f20746865207a65726f206164647260448201526265737360e81b6064820152608490fd5b60405162461bcd60e51b815260206004820152602560248201527f45524332303a207472616e736665722066726f6d20746865207a65726f20616460448201527f64726573730000000000000000000000000000000000000000000000000000006064820152608490fdfea2646970667358221220971f0ed8867e536c136f3cc9e74d773e42bf1655d73ea0df77e2c32edd99c05764736f6c63430008110033",
  "linkReferences": {},
  "deployedLinkReferences": {}
}