{
  "_format": "hh-sol-artifact-1",
  "contractName": "LSAN",
  "sourceName": "src/alpha/Token.sol",
  "abi": [
    {
      "anonymous": false,
      "inputs": [
        {
          "indexed": false,
          "internalType": "address",
          "name": "previousAdmin",
          "type": "address"
        },
        {
          "indexed": false,
          "internalType": "address",
          "name": "newAdmin",
          "type": "address"
        }
      ],
      "name": "AdminChanged",
      "type": "event"
    },
    {
      "anonymous": false,
      "inputs": [
        {
          "indexed": true,
          "internalType": "address",
          "name": "owner",
          "type": "address"
        },
        {
          "indexed": true,
          "internalType": "address",
          "name": "spender",
          "type": "address"
        },
        {
          "indexed": false,
          "internalType": "uint256",
          "name": "value",
          "type": "uint256"
        }
      ],
      "name": "Approval",
      "type": "event"
    },
    {
      "anonymous": false,
      "inputs": [
        {
          "indexed": true,
          "internalType": "address",
          "name": "beacon",
          "type": "address"
        }
      ],
      "name": "BeaconUpgraded",
      "type": "event"
    },
    {
      "anonymous": false,
      "inputs": [
        {
          "indexed": false,
          "internalType": "uint8",
          "name": "version",
          "type": "uint8"
        }
      ],
      "name": "Initialized",
      "type": "event"
    },
    {
      "anonymous": false,
      "inputs": [
        {
          "indexed": true,
          "internalType": "address",
          "name": "previousOwner",
          "type": "address"
        },
        {
          "indexed": true,
          "internalType": "address",
          "name": "newOwner",
          "type": "address"
        }
      ],
      "name": "OwnershipTransferred",
      "type": "event"
    },
    {
      "anonymous": false,
      "inputs": [
        {
          "indexed": true,
          "internalType": "address",
          "name": "from",
          "type": "address"
        },
        {
          "indexed": true,
          "internalType": "address",
          "name": "to",
          "type": "address"
        },
        {
          "indexed": false,
          "internalType": "uint256",
          "name": "value",
          "type": "uint256"
        }
      ],
      "name": "Transfer",
      "type": "event"
    },
    {
      "anonymous": false,
      "inputs": [
        {
          "indexed": true,
          "internalType": "address",
          "name": "implementation",
          "type": "address"
        }
      ],
      "name": "Upgraded",
      "type": "event"
    },
    {
      "inputs": [],
      "name": "DEPLOYED_TIME",
      "outputs": [
        {
          "internalType": "uint256",
          "name": "",
          "type": "uint256"
        }
      ],
      "stateMutability": "view",
      "type": "function"
    },
    {
      "inputs": [],
      "name": "SAFE_ADDRESS",
      "outputs": [
        {
          "internalType": "address payable",
          "name": "",
          "type": "address"
        }
      ],
      "stateMutability": "view",
      "type": "function"
    },
    {
      "inputs": [
        {
          "internalType": "address",
          "name": "_address",
          "type": "address"
        }
      ],
      "name": "addBlacklist",
      "outputs": [],
      "stateMutability": "nonpayable",
      "type": "function"
    },
    {
      "inputs": [
        {
          "internalType": "address",
          "name": "_from",
          "type": "address"
        },
        {
          "internalType": "address",
          "name": "_to",
          "type": "address"
        }
      ],
      "name": "addWhitelist",
      "outputs": [],
      "stateMutability": "nonpayable",
      "type": "function"
    },
    {
      "inputs": [
        {
          "internalType": "address",
          "name": "owner",
          "type": "address"
        },
        {
          "internalType": "address",
          "name": "spender",
          "type": "address"
        }
      ],
      "name": "allowance",
      "outputs": [
        {
          "internalType": "uint256",
          "name": "",
          "type": "uint256"
        }
      ],
      "stateMutability": "view",
      "type": "function"
    },
    {
      "inputs": [
        {
          "internalType": "address",
          "name": "spender",
          "type": "address"
        },
        {
          "internalType": "uint256",
          "name": "amount",
          "type": "uint256"
        }
      ],
      "name": "approve",
      "outputs": [
        {
          "internalType": "bool",
          "name": "",
          "type": "bool"
        }
      ],
      "stateMutability": "nonpayable",
      "type": "function"
    },
    {
      "inputs": [],
      "name": "balance",
      "outputs": [
        {
          "internalType": "uint256",
          "name": "",
          "type": "uint256"
        }
      ],
      "stateMutability": "view",
      "type": "function"
    },
    {
      "inputs": [
        {
          "internalType": "address",
          "name": "account",
          "type": "address"
        }
      ],
      "name": "balanceOf",
      "outputs": [
        {
          "internalType": "uint256",
          "name": "",
          "type": "uint256"
        }
      ],
      "stateMutability": "view",
      "type": "function"
    },
    {
      "inputs": [
        {
          "internalType": "address",
          "name": "account",
          "type": "address"
        },
        {
          "internalType": "uint256",
          "name": "amount",
          "type": "uint256"
        }
      ],
      "name": "burn",
      "outputs": [],
      "stateMutability": "nonpayable",
      "type": "function"
    },
    {
      "inputs": [],
      "name": "decimals",
      "outputs": [
        {
          "internalType": "uint8",
          "name": "",
          "type": "uint8"
        }
      ],
      "stateMutability": "view",
      "type": "function"
    },
    {
      "inputs": [
        {
          "internalType": "address",
          "name": "spender",
          "type": "address"
        },
        {
          "internalType": "uint256",
          "name": "subtractedValue",
          "type": "uint256"
        }
      ],
      "name": "decreaseAllowance",
      "outputs": [
        {
          "internalType": "bool",
          "name": "",
          "type": "bool"
        }
      ],
      "stateMutability": "nonpayable",
      "type": "function"
    },
    {
      "inputs": [
        {
          "internalType": "address",
          "name": "spender",
          "type": "address"
        },
        {
          "internalType": "uint256",
          "name": "addedValue",
          "type": "uint256"
        }
      ],
      "name": "increaseAllowance",
      "outputs": [
        {
          "internalType": "bool",
          "name": "",
          "type": "bool"
        }
      ],
      "stateMutability": "nonpayable",
      "type": "function"
    },
    {
      "inputs": [
        {
          "internalType": "address",
          "name": "_safeAddress",
          "type": "address"
        },
        {
          "internalType": "uint256",
          "name": "_weiPerByte",
          "type": "uint256"
        },
        {
          "internalType": "address[]",
          "name": "_blacklist",
          "type": "address[]"
        },
        {
          "internalType": "address[][]",
          "name": "_whitelist",
          "type": "address[][]"
        }
      ],
      "name": "initialize",
      "outputs": [],
      "stateMutability": "nonpayable",
      "type": "function"
    },
    {
      "inputs": [
        {
          "internalType": "address",
          "name": "_from",
          "type": "address"
        },
        {
          "internalType": "address",
          "name": "_to",
          "type": "address"
        }
      ],
      "name": "isPermitted",
      "outputs": [
        {
          "internalType": "bool",
          "name": "",
          "type": "bool"
        }
      ],
      "stateMutability": "view",
      "type": "function"
    },
    {
      "inputs": [
        {
          "internalType": "address[]",
          "name": "_fromAddresses",
          "type": "address[]"
        },
        {
          "internalType": "address[]",
          "name": "_toAddresses",
          "type": "address[]"
        }
      ],
      "name": "massAddWhitelist",
      "outputs": [],
      "stateMutability": "nonpayable",
      "type": "function"
    },
    {
      "inputs": [
        {
          "internalType": "address[]",
          "name": "_fromAddresses",
          "type": "address[]"
        },
        {
          "internalType": "address[]",
          "name": "_toAddresses",
          "type": "address[]"
        }
      ],
      "name": "massRemoveWhitelist",
      "outputs": [],
      "stateMutability": "nonpayable",
      "type": "function"
    },
    {
      "inputs": [],
      "name": "minimumDeposit",
      "outputs": [
        {
          "internalType": "uint256",
          "name": "",
          "type": "uint256"
        }
      ],
      "stateMutability": "view",
      "type": "function"
    },
    {
      "inputs": [],
      "name": "mint",
      "outputs": [],
      "stateMutability": "payable",
      "type": "function"
    },
    {
      "inputs": [
        {
          "internalType": "address[]",
          "name": "_addresses",
          "type": "address[]"
        },
        {
          "internalType": "uint256",
          "name": "amount",
          "type": "uint256"
        }
      ],
      "name": "mintManyTokens",
      "outputs": [],
      "stateMutability": "nonpayable",
      "type": "function"
    },
    {
      "inputs": [
        {
          "internalType": "address",
          "name": "account",
          "type": "address"
        },
        {
          "internalType": "uint256",
          "name": "amount",
          "type": "uint256"
        }
      ],
      "name": "mintTokens",
      "outputs": [],
      "stateMutability": "nonpayable",
      "type": "function"
    },
    {
      "inputs": [],
      "name": "multiplier",
      "outputs": [
        {
          "internalType": "uint256",
          "name": "",
          "type": "uint256"
        }
      ],
      "stateMutability": "view",
      "type": "function"
    },
    {
      "inputs": [],
      "name": "name",
      "outputs": [
        {
          "internalType": "string",
          "name": "",
          "type": "string"
        }
      ],
      "stateMutability": "view",
      "type": "function"
    },
    {
      "inputs": [],
      "name": "owner",
      "outputs": [
        {
          "internalType": "address",
          "name": "",
          "type": "address"
        }
      ],
      "stateMutability": "view",
      "type": "function"
    },
    {
      "inputs": [],
      "name": "price",
      "outputs": [
        {
          "internalType": "uint256",
          "name": "",
          "type": "uint256"
        }
      ],
      "stateMutability": "view",
      "type": "function"
    },
    {
      "inputs": [],
      "name": "proxiableUUID",
      "outputs": [
        {
          "internalType": "bytes32",
          "name": "",
          "type": "bytes32"
        }
      ],
      "stateMutability": "view",
      "type": "function"
    },
    {
      "inputs": [
        {
          "internalType": "address",
          "name": "_address",
          "type": "address"
        }
      ],
      "name": "removeBlacklist",
      "outputs": [],
      "stateMutability": "nonpayable",
      "type": "function"
    },
    {
      "inputs": [
        {
          "internalType": "address",
          "name": "_from",
          "type": "address"
        },
        {
          "internalType": "address",
          "name": "_to",
          "type": "address"
        }
      ],
      "name": "removeWhitelist",
      "outputs": [],
      "stateMutability": "nonpayable",
      "type": "function"
    },
    {
      "inputs": [],
      "name": "renounceOwnership",
      "outputs": [],
      "stateMutability": "nonpayable",
      "type": "function"
    },
    {
      "inputs": [
        {
          "internalType": "uint256",
          "name": "_minimumDeposit",
          "type": "uint256"
        }
      ],
      "name": "setMinimumDeposit",
      "outputs": [],
      "stateMutability": "nonpayable",
      "type": "function"
    },
    {
      "inputs": [
        {
          "internalType": "uint256",
          "name": "_multiplier",
          "type": "uint256"
        }
      ],
      "name": "setMultipler",
      "outputs": [],
      "stateMutability": "nonpayable",
      "type": "function"
    },
    {
      "inputs": [
        {
          "internalType": "uint256",
          "name": "_weiPerByte",
          "type": "uint256"
        }
      ],
      "name": "setWeiPerByte",
      "outputs": [],
      "stateMutability": "nonpayable",
      "type": "function"
    },
    {
      "inputs": [],
      "name": "symbol",
      "outputs": [
        {
          "internalType": "string",
          "name": "",
          "type": "string"
        }
      ],
      "stateMutability": "view",
      "type": "function"
    },
    {
      "inputs": [],
      "name": "totalSupply",
      "outputs": [
        {
          "internalType": "uint256",
          "name": "",
          "type": "uint256"
        }
      ],
      "stateMutability": "view",
      "type": "function"
    },
    {
      "inputs": [
        {
          "internalType": "address",
          "name": "_to",
          "type": "address"
        },
        {
          "internalType": "uint256",
          "name": "_amount",
          "type": "uint256"
        }
      ],
      "name": "transfer",
      "outputs": [
        {
          "internalType": "bool",
          "name": "",
          "type": "bool"
        }
      ],
      "stateMutability": "nonpayable",
      "type": "function"
    },
    {
      "inputs": [
        {
          "internalType": "address",
          "name": "_from",
          "type": "address"
        },
        {
          "internalType": "address",
          "name": "_to",
          "type": "address"
        },
        {
          "internalType": "uint256",
          "name": "amount",
          "type": "uint256"
        }
      ],
      "name": "transferFrom",
      "outputs": [
        {
          "internalType": "bool",
          "name": "",
          "type": "bool"
        }
      ],
      "stateMutability": "nonpayable",
      "type": "function"
    },
    {
      "inputs": [
        {
          "internalType": "address",
          "name": "newOwner",
          "type": "address"
        }
      ],
      "name": "transferOwnership",
      "outputs": [],
      "stateMutability": "nonpayable",
      "type": "function"
    },
    {
      "inputs": [
        {
          "internalType": "address",
          "name": "newImplementation",
          "type": "address"
        }
      ],
      "name": "upgradeTo",
      "outputs": [],
      "stateMutability": "nonpayable",
      "type": "function"
    },
    {
      "inputs": [
        {
          "internalType": "address",
          "name": "newImplementation",
          "type": "address"
        },
        {
          "internalType": "bytes",
          "name": "data",
          "type": "bytes"
        }
      ],
      "name": "upgradeToAndCall",
      "outputs": [],
      "stateMutability": "payable",
      "type": "function"
    },
    {
      "inputs": [],
      "name": "weiPerByte",
      "outputs": [
        {
          "internalType": "uint256",
          "name": "",
          "type": "uint256"
        }
      ],
      "stateMutability": "view",
      "type": "function"
    },
    {
      "inputs": [
        {
          "internalType": "uint256",
          "name": "amount",
          "type": "uint256"
        }
      ],
      "name": "withdraw",
      "outputs": [],
      "stateMutability": "nonpayable",
      "type": "function"
    }
  ],
  "bytecode": "0x60a08060405234610031573060805261277c908161003782396080518181816111030152818161123b01526115a30152f35b600080fdfe6080604052600436101561001257600080fd5b60003560e01c80626d355914611d53578062e0294d14611cca57806306fdde0314611c24578063095ea7b314611bfe5780631217a76014611bdf5780631249c58b14611a7857806318160ddd14611a5a5780631b3ed72214611a3b5780632241c86d146119c757806323b872dd146118fb5780632e1a7d4d1461184f578063313ce567146118335780633659cfe61461157e578063395093511461152c5780634f1ef286146111be57806352d1902d146110e8578063636bfbab146110c957806365017796146110aa5780636f8bd82c1461108857806370a082311461104e578063715018a614610ff35780637d6b402814610f6757806385d38f8014610f3f5780638da5cb5b14610f1857806395d89b4114610e3a5780639cfe42da14610df45780639dc29fac14610cc4578063a035b1fe14610ca1578063a457c2d714610be1578063a73d633c14610b81578063a9059cbb14610b3e578063afc2afa614610b1c578063b69ef8a814610b00578063bec9947114610aa3578063d7ff225a14610361578063dd62ed3e1461030f578063e78ec42e146102ed578063eb91e651146102aa578063f0dda65c1461027d5763f2fde38b146101d257600080fd5b34610278576020366003190112610278576101eb611d89565b6101f3611f41565b6001600160a01b0381161561020d5761020b90611f99565b005b60405162461bcd60e51b815260206004820152602660248201527f4f776e61626c653a206e6577206f776e657220697320746865207a65726f206160448201527f64647265737300000000000000000000000000000000000000000000000000006064820152608490fd5b600080fd5b346102785760403660031901126102785761020b610299611d89565b6102a1611f41565b602435906123b9565b34610278576020366003190112610278576001600160a01b036102cb611d89565b6102d3611f41565b16600090815261013260205260409020805460ff19169055005b3461027857602036600319011261027857610306611f41565b60043561012f55005b3461027857604036600319011261027857610328611d89565b610330611d9f565b906001600160a01b0380911660005260fc602052604060002091166000526020526020604060002054604051908152f35b346102785760803660031901126102785761037a611d89565b60443567ffffffffffffffff81116102785761039a903690600401611e27565b6064359067ffffffffffffffff821161027857366023830112156102785781600401356103c681611e0f565b926103d46040519485611ded565b8184526024602085019260051b820101903682116102785760248101925b828410610a73575050505060005460ff8160081c161590818092610a66575b8015610a4f575b156109e45760ff198116600117600055816109d2575b5081518351036109675761045260ff60005460081c1661044d81612347565b612347565b61045b33611f99565b60405161046781611dd1565b601d81527f4c6f672053746f726520416c706861204e6574776f726b20546f6b656e00000060208201526040519061049e82611dd1565b60048252632629a0a760e11b60208301526104c460ff60005460081c1661044d81612347565b80519067ffffffffffffffff82116108125781906104e360fe54612173565b601f81116108bd575b50602090601f831160011461083357600092610828575b50508160011b916000199060031b1c19161760fe555b80519067ffffffffffffffff821161081257819061053860ff54612173565b601f8111610765575b50602090601f83116001146106de576000926106d3575b50508160011b916000199060031b1c19161760ff55925b61058d60ff60005460081c1661058481612347565b61044d81612347565b600160c9556000935b8251851015610660576001600160a01b0391826105b3878661231d565b51166105bd611f41565b6000526101326020526040600020600160ff1982541617905560005b6105e3878761231d565b515181101561064c578084610605610647936105ff8b8b61231d565b5161231d565b5116856106128a8961231d565b51169061061d611f41565b6000526101336020526040600020906000526020526040600020600160ff1982541617905561230e565b6105d9565b509461065991925061230e565b9390610596565b906001600160a01b0361013091166001600160a01b03198254161790554261013155600161012e55600061012f5560243561012d5561069b57005b61ff0019600054166000557f7f26b83ff96e1f2b6a682f133852f6798a09c465da95921460cefb3847402498602060405160018152a1005b015190508680610558565b60ff60009081527fe08ec2af2cfc251225e1968fd6ca21e4044f129bffa95bac3503be8bdb30a3679350601f198516905b81811061074d5750908460019594939210610734575b505050811b0160ff559261056f565b015160001960f88460031b161c19169055868080610725565b9293602060018192878601518155019501930161070f565b90915060ff600052601f830160051c7fe08ec2af2cfc251225e1968fd6ca21e4044f129bffa95bac3503be8bdb30a3670190602084106107ea575b90601f8493920160051c7fe08ec2af2cfc251225e1968fd6ca21e4044f129bffa95bac3503be8bdb30a36701905b8181106107db5750610541565b600081558493506001016107ce565b7fe08ec2af2cfc251225e1968fd6ca21e4044f129bffa95bac3503be8bdb30a36791506107a0565b634e487b7160e01b600052604160045260246000fd5b015190508780610503565b925060fe6000527f54075df80ec1ae6ac9100e1fd0ebf3246c17f5c933137af392011f4c5f61513a906000935b601f19841685106108a2576001945083601f19811610610889575b505050811b0160fe55610519565b015160001960f88460031b161c1916905587808061087b565b81810151835560209485019460019093019290910190610860565b90915060fe600052601f830160051c7f54075df80ec1ae6ac9100e1fd0ebf3246c17f5c933137af392011f4c5f61513a0160208410610940575b908392915b601f820160051c7f54075df80ec1ae6ac9100e1fd0ebf3246c17f5c933137af392011f4c5f61513a01811061093157506104ec565b600081558493506001016108fc565b507f54075df80ec1ae6ac9100e1fd0ebf3246c17f5c933137af392011f4c5f61513a6108f7565b60405162461bcd60e51b815260206004820152602d60248201527f4c53414e3a20496e697469616c2077686974656c69737420636f6e666967757260448201527f6174696f6e20696e76616c6964000000000000000000000000000000000000006064820152608490fd5b61ffff1916610101176000558461042e565b60405162461bcd60e51b815260206004820152602e60248201527f496e697469616c697a61626c653a20636f6e747261637420697320616c72656160448201527f647920696e697469616c697a65640000000000000000000000000000000000006064820152608490fd5b50303b1580156104185750600160ff821614610418565b50600160ff821610610411565b833567ffffffffffffffff811161027857602091610a98839260243691870101611e27565b8152019301926103f2565b3461027857604036600319011261027857610abc611d89565b610ac4611d9f565b90610acd611f41565b6001600160a01b0380911660005261013360205260406000209116600052602052604060002060ff198154169055600080f35b3461027857600036600319011261027857602047604051908152f35b3461027857602036600319011261027857610b35611f41565b60043561012e55005b3461027857604036600319011261027857610b76610b5a611d89565b610b6c610b6782336124eb565b612535565b60243590336125a7565b602060405160018152f35b3461027857604036600319011261027857610b9a611d89565b610ba2611d9f565b90610bab611f41565b6001600160a01b03809116600052610133602052604060002091166000526020526040600020600160ff19825416179055600080f35b3461027857604036600319011261027857610bfa611d89565b602435903360005260fc60205260406000206001600160a01b03821660005260205260406000205491808310610c3657610b76920390336121d0565b60405162461bcd60e51b815260206004820152602560248201527f45524332303a2064656372656173656420616c6c6f77616e63652062656c6f7760448201527f207a65726f0000000000000000000000000000000000000000000000000000006064820152608490fd5b34610278576000366003190112610278576020610cbc6124cf565b604051908152f35b3461027857604036600319011261027857610cdd611d89565b6001600160a01b0360243591610cf1611f41565b168015610da5578060005260fb60205260406000205491808310610d55576020817fddf252ad1be2c89b69c2b068fc378daa952ba7f163c4a11628f55a4df523b3ef9260009585875260fb84520360408620558060fd540360fd55604051908152a3005b60405162461bcd60e51b815260206004820152602260248201527f45524332303a206275726e20616d6f756e7420657863656564732062616c616e604482015261636560f01b6064820152608490fd5b60405162461bcd60e51b815260206004820152602160248201527f45524332303a206275726e2066726f6d20746865207a65726f206164647265736044820152607360f81b6064820152608490fd5b34610278576020366003190112610278576001600160a01b03610e15611d89565b610e1d611f41565b16600090815261013260205260409020805460ff19166001179055005b3461027857600036600319011261027857604051600060ff54610e5c81612173565b80845290600190818116908115610ef15750600114610e96575b610e9284610e8681860382611ded565b60405191829182611edc565b0390f35b60ff600090815292507fe08ec2af2cfc251225e1968fd6ca21e4044f129bffa95bac3503be8bdb30a3675b828410610ed9575050508101602001610e8682610e76565b80546020858701810191909152909301928101610ec1565b60ff191660208087019190915292151560051b85019092019250610e869150839050610e76565b346102785760003660031901126102785760206001600160a01b0360975416604051908152f35b346102785760003660031901126102785760206001600160a01b036101305416604051908152f35b3461027857610f7536611e95565b610f7d611f41565b610f8a825182511461245d565b60005b825181101561020b57610fee906001600160a01b0380610fad838761231d565b511690610fba838661231d565b511690610fc5611f41565b60005260206101338152604060002091600052526040600020600160ff1982541617905561230e565b610f8d565b346102785760003660031901126102785761100c611f41565b60006001600160a01b036097546001600160a01b03198116609755167f8be0079c531659141344cd1fd0a4f28419497f9722a3daafe3b4186f6b6457e08280a3005b34610278576020366003190112610278576001600160a01b0361106f611d89565b1660005260fb6020526020604060002054604051908152f35b34610278576020366003190112610278576110a1611f41565b60043561012d55005b3461027857600036600319011261027857602061013154604051908152f35b3461027857600036600319011261027857602061012f54604051908152f35b34610278576000366003190112610278576001600160a01b037f00000000000000000000000000000000000000000000000000000000000000001630036111535760206040517f360894a13ba1a3210667c828492db98dca3e2076cc3735a920a3ca505d382bbc8152f35b60405162461bcd60e51b815260206004820152603860248201527f555550535570677261646561626c653a206d757374206e6f742062652063616c60448201527f6c6564207468726f7567682064656c656761746563616c6c00000000000000006064820152608490fd5b6040366003190112610278576111d2611d89565b602490813567ffffffffffffffff811161027857366023820112156102785780600401359061120082611f25565b61120d6040519182611ded565b82815260209283820192368783830101116102785781600092888793018637830101526001600160a01b03807f0000000000000000000000000000000000000000000000000000000000000000169061126882301415611fe1565b6112977f360894a13ba1a3210667c828492db98dca3e2076cc3735a920a3ca505d382bbc928284541614612053565b61129f611f41565b7f4910fdfa16fed3260ed0e7147f7cc6da11a60208b5b9406d12a635614ffd91435460ff16156112d857505050505061020b91506120c5565b85949516906040516352d1902d60e01b81528681600481865afa600091816114fd575b5061135b5760405162461bcd60e51b815260048101889052602e818a01527f45524331393637557067726164653a206e657720696d706c656d656e7461746960448201526d6f6e206973206e6f74205555505360901b6064820152608490fd5b969192939496036114a85761136f866120c5565b604051917fbc7cd75a20ee27fd9adebab32041f755214dbc6bffa90cc0225b39da2e5c2d3b600080a28251158015906114a0575b6113a957005b853b1561145057505061020b93600092839251915af43d15611448573d906113d082611f25565b916113de6040519384611ded565b82523d60008484013e5b7f416464726573733a206c6f772d6c6576656c2064656c65676174652063616c6c6040519361141685611db5565b602785528401527f206661696c65640000000000000000000000000000000000000000000000000060408401526122d2565b6060906113e8565b62461bcd60e51b8252600482018590526026908201527f416464726573733a2064656c65676174652063616c6c20746f206e6f6e2d636f6044820152651b9d1c9858dd60d21b6064820152608490fd5b5060016113a3565b8460296084926040519262461bcd60e51b845260048401528201527f45524331393637557067726164653a20756e737570706f727465642070726f786044820152681a58589b195555525160ba1b6064820152fd5b9091508781813d8311611525575b6115158183611ded565b81010312610278575190896112fb565b503d61150b565b3461027857604036600319011261027857610b76611548611d89565b3360005260fc60205260406000206001600160a01b0382166000526020526115776024356040600020546121ad565b90336121d0565b346102785760208060031936011261027857611598611d89565b6001600160a01b03807f0000000000000000000000000000000000000000000000000000000000000000166115cf81301415611fe1565b6115fe7f360894a13ba1a3210667c828492db98dca3e2076cc3735a920a3ca505d382bbc918383541614612053565b611606611f41565b604051908482019282841067ffffffffffffffff85111761081257836040526000835260ff7f4910fdfa16fed3260ed0e7147f7cc6da11a60208b5b9406d12a635614ffd91435416600014611663575050505061020b91506120c5565b8416906040516352d1902d60e01b81528681600481865afa60009181611804575b506116e55760405162461bcd60e51b815260048101889052602e60248201527f45524331393637557067726164653a206e657720696d706c656d656e7461746960448201526d6f6e206973206e6f74205555505360901b6064820152608490fd5b036117ad576116f3846120c5565b604051907fbc7cd75a20ee27fd9adebab32041f755214dbc6bffa90cc0225b39da2e5c2d3b600080a28151158015906117a5575b61172d57005b833b15611754575061020b9392600092839251915af43d15611448573d906113d082611f25565b62461bcd60e51b815260048101859052602660248201527f416464726573733a2064656c65676174652063616c6c20746f206e6f6e2d636f6044820152651b9d1c9858dd60d21b6064820152608490fd5b506000611727565b60405162461bcd60e51b815260048101869052602960248201527f45524331393637557067726164653a20756e737570706f727465642070726f786044820152681a58589b195555525160ba1b6064820152608490fd5b9091508781813d831161182c575b61181c8183611ded565b8101031261027857519088611684565b503d611812565b3461027857600036600319011261027857602060405160128152f35b346102785760203660031901126102785760043561186b611f41565b8047106118aa576000808080936001600160a01b0361013054168282156118a1575bf11561189557005b6040513d6000823e3d90fd5b506108fc61188d565b60405162461bcd60e51b815260206004820152602360248201527f4c53414e3a20496e73756666696369656e7420636f6e74726163742062616c616044820152626e636560e81b6064820152608490fd5b3461027857606036600319011261027857611914611d89565b61191c611d9f565b6044359061192d610b6782856124eb565b6001600160a01b03831660005260fc602052604060002033600052602052604060002054926000198403611966575b610b7693506125a7565b8284106119825761197d83610b76950333836121d0565b61195c565b60405162461bcd60e51b815260206004820152601d60248201527f45524332303a20696e73756666696369656e7420616c6c6f77616e63650000006044820152606490fd5b346102785760403660031901126102785760043567ffffffffffffffff8111610278576119f8903690600401611e27565b60243590611a04611f41565b60005b815181101561020b5780611a31846001600160a01b03611a2a611a36958761231d565b51166123b9565b61230e565b611a07565b3461027857600036600319011261027857602061012e54604051908152f35b3461027857600036600319011261027857602060fd54604051908152f35b600036600319011261027857600260c95414611b9a57600260c95561012d543410611b495761012f543410611ade57611aaf6124cf565b8015611ac857611ac1903404336123b9565b600160c955005b634e487b7160e01b600052601260045260246000fd5b60405162461bcd60e51b815260206004820152602d60248201527f4c53414e3a20416d6f756e74206c657373207468616e206d696e696d756d206460448201527f65706f73697420616d6f756e74000000000000000000000000000000000000006064820152608490fd5b60405162461bcd60e51b8152602060048201526024808201527f4c53414e3a20416d6f756e74206c657373207468616e20612073696e676c65206044820152636279746560e01b6064820152608490fd5b60405162461bcd60e51b815260206004820152601f60248201527f5265656e7472616e637947756172643a207265656e7472616e742063616c6c006044820152606490fd5b3461027857600036600319011261027857602061012d54604051908152f35b3461027857604036600319011261027857610b76611c1a611d89565b60243590336121d0565b3461027857600036600319011261027857604051600060fe54611c4681612173565b80845290600190818116908115610ef15750600114611c6f57610e9284610e8681860382611ded565b60fe600090815292507f54075df80ec1ae6ac9100e1fd0ebf3246c17f5c933137af392011f4c5f61513a5b828410611cb2575050508101602001610e8682610e76565b80546020858701810191909152909301928101611c9a565b3461027857611cd836611e95565b611ce0611f41565b611ced825182511461245d565b60005b825181101561020b57611d4e906001600160a01b0380611d10838761231d565b511690611d1d838661231d565b511690611d28611f41565b6000526020610133815260406000209160005252604060002060ff19815416905561230e565b611cf0565b34610278576040366003190112610278576020611d7f611d71611d89565b611d79611d9f565b906124eb565b6040519015158152f35b600435906001600160a01b038216820361027857565b602435906001600160a01b038216820361027857565b6060810190811067ffffffffffffffff82111761081257604052565b6040810190811067ffffffffffffffff82111761081257604052565b90601f8019910116810190811067ffffffffffffffff82111761081257604052565b67ffffffffffffffff81116108125760051b60200190565b81601f8201121561027857803591611e3e83611e0f565b92611e4c6040519485611ded565b808452602092838086019260051b820101928311610278578301905b828210611e76575050505090565b81356001600160a01b0381168103610278578152908301908301611e68565b9060406003198301126102785767ffffffffffffffff6004358181116102785783611ec291600401611e27565b9260243591821161027857611ed991600401611e27565b90565b6020808252825181830181905290939260005b828110611f1157505060409293506000838284010152601f8019910116010190565b818101860151848201604001528501611eef565b67ffffffffffffffff811161081257601f01601f191660200190565b6001600160a01b03609754163303611f5557565b606460405162461bcd60e51b815260206004820152602060248201527f4f776e61626c653a2063616c6c6572206973206e6f7420746865206f776e65726044820152fd5b609754906001600160a01b0380911691826001600160a01b0319821617609755167f8be0079c531659141344cd1fd0a4f28419497f9722a3daafe3b4186f6b6457e0600080a3565b15611fe857565b60405162461bcd60e51b815260206004820152602c60248201527f46756e6374696f6e206d7573742062652063616c6c6564207468726f7567682060448201527f64656c656761746563616c6c00000000000000000000000000000000000000006064820152608490fd5b1561205a57565b60405162461bcd60e51b815260206004820152602c60248201527f46756e6374696f6e206d7573742062652063616c6c6564207468726f7567682060448201527f6163746976652070726f787900000000000000000000000000000000000000006064820152608490fd5b803b15612108576001600160a01b037f360894a13ba1a3210667c828492db98dca3e2076cc3735a920a3ca505d382bbc91166001600160a01b0319825416179055565b60405162461bcd60e51b815260206004820152602d60248201527f455243313936373a206e657720696d706c656d656e746174696f6e206973206e60448201527f6f74206120636f6e7472616374000000000000000000000000000000000000006064820152608490fd5b90600182811c921680156121a3575b602083101461218d57565b634e487b7160e01b600052602260045260246000fd5b91607f1691612182565b919082018092116121ba57565b634e487b7160e01b600052601160045260246000fd5b6001600160a01b0380911691821561228157169182156122315760207f8c5be1e5ebec7d5bd14f71427d1e84f3dd0314c0f7b2291e5b200ac8c7c3b925918360005260fc8252604060002085600052825280604060002055604051908152a3565b60405162461bcd60e51b815260206004820152602260248201527f45524332303a20617070726f766520746f20746865207a65726f206164647265604482015261737360f01b6064820152608490fd5b60405162461bcd60e51b8152602060048201526024808201527f45524332303a20617070726f76652066726f6d20746865207a65726f206164646044820152637265737360e01b6064820152608490fd5b909190156122de575090565b8151156122ee5750805190602001fd5b60405162461bcd60e51b815290819061230a9060048301611edc565b0390fd5b60001981146121ba5760010190565b80518210156123315760209160051b010190565b634e487b7160e01b600052603260045260246000fd5b1561234e57565b60405162461bcd60e51b815260206004820152602b60248201527f496e697469616c697a61626c653a20636f6e7472616374206973206e6f74206960448201527f6e697469616c697a696e670000000000000000000000000000000000000000006064820152608490fd5b6001600160a01b0316908115612418577fddf252ad1be2c89b69c2b068fc378daa952ba7f163c4a11628f55a4df523b3ef6020826123fb60009460fd546121ad565b60fd5584845260fb825260408420818154019055604051908152a3565b60405162461bcd60e51b815260206004820152601f60248201527f45524332303a206d696e7420746f20746865207a65726f2061646472657373006044820152606490fd5b1561246457565b60405162461bcd60e51b815260206004820152602860248201527f4c53414e3a20496e76616c696420706172616d657465727320666f72206d617360448201527f73207570646174650000000000000000000000000000000000000000000000006064820152608490fd5b61012d5461012e54908181029181830414901517156121ba5790565b6001600160a01b0380921660009080825261013260205260ff6040832054166125175750505050600190565b60ff9360409316825261013360205282822090825260205220541690565b1561253c57565b60405162461bcd60e51b815260206004820152603160248201527f4c53414e3a205472616e73666572206265747765656e2061646472657373657360448201527f206973206e6f74207065726d69747465640000000000000000000000000000006064820152608490fd5b6001600160a01b038091169182156126db571691821561268a57600082815260fb60205260408120549180831061261f57604082827fddf252ad1be2c89b69c2b068fc378daa952ba7f163c4a11628f55a4df523b3ef95876020965260fb8652038282205586815220818154019055604051908152a3565b60405162461bcd60e51b815260206004820152602660248201527f45524332303a207472616e7366657220616d6f756e742065786365656473206260448201527f616c616e636500000000000000000000000000000000000000000000000000006064820152608490fd5b60405162461bcd60e51b815260206004820152602360248201527f45524332303a207472616e7366657220746f20746865207a65726f206164647260448201526265737360e81b6064820152608490fd5b60405162461bcd60e51b815260206004820152602560248201527f45524332303a207472616e736665722066726f6d20746865207a65726f20616460448201527f64726573730000000000000000000000000000000000000000000000000000006064820152608490fdfea26469706673582212204f1ff685f54da7a4b1adf2aa8c5e90bbc35d871a659483d2adf3caf85cc01d2b64736f6c63430008110033",
  "linkReferences": {},
  "deployedLinkReferences": {}
}