{
  "_format": "hh-sol-artifact-1",
  "contractName": "LSAN",
  "sourceName": "src/alpha/Token.sol",
  "abi": [
    {
      "anonymous": false,
      "inputs": [
        {
          "indexed": false,
          "internalType": "address",
          "name": "previousAdmin",
          "type": "address"
        },
        {
          "indexed": false,
          "internalType": "address",
          "name": "newAdmin",
          "type": "address"
        }
      ],
      "name": "AdminChanged",
      "type": "event"
    },
    {
      "anonymous": false,
      "inputs": [
        {
          "indexed": true,
          "internalType": "address",
          "name": "owner",
          "type": "address"
        },
        {
          "indexed": true,
          "internalType": "address",
          "name": "spender",
          "type": "address"
        },
        {
          "indexed": false,
          "internalType": "uint256",
          "name": "value",
          "type": "uint256"
        }
      ],
      "name": "Approval",
      "type": "event"
    },
    {
      "anonymous": false,
      "inputs": [
        {
          "indexed": true,
          "internalType": "address",
          "name": "beacon",
          "type": "address"
        }
      ],
      "name": "BeaconUpgraded",
      "type": "event"
    },
    {
      "anonymous": false,
      "inputs": [
        {
          "indexed": false,
          "internalType": "uint8",
          "name": "version",
          "type": "uint8"
        }
      ],
      "name": "Initialized",
      "type": "event"
    },
    {
      "anonymous": false,
      "inputs": [
        {
          "indexed": true,
          "internalType": "address",
          "name": "previousOwner",
          "type": "address"
        },
        {
          "indexed": true,
          "internalType": "address",
          "name": "newOwner",
          "type": "address"
        }
      ],
      "name": "OwnershipTransferred",
      "type": "event"
    },
    {
      "anonymous": false,
      "inputs": [
        {
          "indexed": true,
          "internalType": "address",
          "name": "from",
          "type": "address"
        },
        {
          "indexed": true,
          "internalType": "address",
          "name": "to",
          "type": "address"
        },
        {
          "indexed": false,
          "internalType": "uint256",
          "name": "value",
          "type": "uint256"
        }
      ],
      "name": "Transfer",
      "type": "event"
    },
    {
      "anonymous": false,
      "inputs": [
        {
          "indexed": true,
          "internalType": "address",
          "name": "implementation",
          "type": "address"
        }
      ],
      "name": "Upgraded",
      "type": "event"
    },
    {
      "inputs": [],
      "name": "DEPLOYED_TIME",
      "outputs": [
        {
          "internalType": "uint256",
          "name": "",
          "type": "uint256"
        }
      ],
      "stateMutability": "view",
      "type": "function"
    },
    {
      "inputs": [],
      "name": "SAFE_ADDRESS",
      "outputs": [
        {
          "internalType": "address payable",
          "name": "",
          "type": "address"
        }
      ],
      "stateMutability": "view",
      "type": "function"
    },
    {
      "inputs": [
        {
          "internalType": "address",
          "name": "owner",
          "type": "address"
        },
        {
          "internalType": "address",
          "name": "spender",
          "type": "address"
        }
      ],
      "name": "allowance",
      "outputs": [
        {
          "internalType": "uint256",
          "name": "",
          "type": "uint256"
        }
      ],
      "stateMutability": "view",
      "type": "function"
    },
    {
      "inputs": [
        {
          "internalType": "address",
          "name": "spender",
          "type": "address"
        },
        {
          "internalType": "uint256",
          "name": "amount",
          "type": "uint256"
        }
      ],
      "name": "approve",
      "outputs": [
        {
          "internalType": "bool",
          "name": "",
          "type": "bool"
        }
      ],
      "stateMutability": "nonpayable",
      "type": "function"
    },
    {
      "inputs": [
        {
          "internalType": "address",
          "name": "account",
          "type": "address"
        }
      ],
      "name": "balanceOf",
      "outputs": [
        {
          "internalType": "uint256",
          "name": "",
          "type": "uint256"
        }
      ],
      "stateMutability": "view",
      "type": "function"
    },
    {
      "inputs": [
        {
          "internalType": "address",
          "name": "account",
          "type": "address"
        },
        {
          "internalType": "uint256",
          "name": "amount",
          "type": "uint256"
        }
      ],
      "name": "burn",
      "outputs": [],
      "stateMutability": "nonpayable",
      "type": "function"
    },
    {
      "inputs": [],
      "name": "decimals",
      "outputs": [
        {
          "internalType": "uint8",
          "name": "",
          "type": "uint8"
        }
      ],
      "stateMutability": "view",
      "type": "function"
    },
    {
      "inputs": [
        {
          "internalType": "address",
          "name": "spender",
          "type": "address"
        },
        {
          "internalType": "uint256",
          "name": "subtractedValue",
          "type": "uint256"
        }
      ],
      "name": "decreaseAllowance",
      "outputs": [
        {
          "internalType": "bool",
          "name": "",
          "type": "bool"
        }
      ],
      "stateMutability": "nonpayable",
      "type": "function"
    },
    {
      "inputs": [],
      "name": "destroy",
      "outputs": [],
      "stateMutability": "nonpayable",
      "type": "function"
    },
    {
      "inputs": [],
      "name": "getTokenPrice",
      "outputs": [
        {
          "internalType": "uint256",
          "name": "lsanPrice",
          "type": "uint256"
        }
      ],
      "stateMutability": "view",
      "type": "function"
    },
    {
      "inputs": [
        {
          "internalType": "address",
          "name": "spender",
          "type": "address"
        },
        {
          "internalType": "uint256",
          "name": "addedValue",
          "type": "uint256"
        }
      ],
      "name": "increaseAllowance",
      "outputs": [
        {
          "internalType": "bool",
          "name": "",
          "type": "bool"
        }
      ],
      "stateMutability": "nonpayable",
      "type": "function"
    },
    {
      "inputs": [
        {
          "internalType": "address[]",
          "name": "initialWhitelist",
          "type": "address[]"
        },
        {
          "internalType": "address",
          "name": "_safeAddress",
          "type": "address"
        },
        {
          "internalType": "address",
          "name": "_nodeManagerAddress",
          "type": "address"
        }
      ],
      "name": "initialize",
      "outputs": [],
      "stateMutability": "nonpayable",
      "type": "function"
    },
    {
      "inputs": [],
      "name": "maticPerByte",
      "outputs": [
        {
          "internalType": "uint256",
          "name": "",
          "type": "uint256"
        }
      ],
      "stateMutability": "view",
      "type": "function"
    },
    {
      "inputs": [],
      "name": "minimumDeposit",
      "outputs": [
        {
          "internalType": "uint256",
          "name": "",
          "type": "uint256"
        }
      ],
      "stateMutability": "view",
      "type": "function"
    },
    {
      "inputs": [],
      "name": "mint",
      "outputs": [],
      "stateMutability": "payable",
      "type": "function"
    },
    {
      "inputs": [
        {
          "internalType": "address",
          "name": "account",
          "type": "address"
        },
        {
          "internalType": "uint256",
          "name": "amount",
          "type": "uint256"
        }
      ],
      "name": "mintTokens",
      "outputs": [],
      "stateMutability": "nonpayable",
      "type": "function"
    },
    {
      "inputs": [],
      "name": "multiplier",
      "outputs": [
        {
          "internalType": "uint256",
          "name": "",
          "type": "uint256"
        }
      ],
      "stateMutability": "view",
      "type": "function"
    },
    {
      "inputs": [],
      "name": "name",
      "outputs": [
        {
          "internalType": "string",
          "name": "",
          "type": "string"
        }
      ],
      "stateMutability": "view",
      "type": "function"
    },
    {
      "inputs": [],
      "name": "nodeManagerAddress",
      "outputs": [
        {
          "internalType": "address",
          "name": "",
          "type": "address"
        }
      ],
      "stateMutability": "view",
      "type": "function"
    },
    {
      "inputs": [],
      "name": "owner",
      "outputs": [
        {
          "internalType": "address",
          "name": "",
          "type": "address"
        }
      ],
      "stateMutability": "view",
      "type": "function"
    },
    {
      "inputs": [],
      "name": "proxiableUUID",
      "outputs": [
        {
          "internalType": "bytes32",
          "name": "",
          "type": "bytes32"
        }
      ],
      "stateMutability": "view",
      "type": "function"
    },
    {
      "inputs": [],
      "name": "renounceOwnership",
      "outputs": [],
      "stateMutability": "nonpayable",
      "type": "function"
    },
    {
      "inputs": [
        {
          "internalType": "uint256",
          "name": "_maticPerByte",
          "type": "uint256"
        }
      ],
      "name": "setMaticPerByte",
      "outputs": [],
      "stateMutability": "nonpayable",
      "type": "function"
    },
    {
      "inputs": [
        {
          "internalType": "uint256",
          "name": "_minimumDeposit",
          "type": "uint256"
        }
      ],
      "name": "setMinimumDeposit",
      "outputs": [],
      "stateMutability": "nonpayable",
      "type": "function"
    },
    {
      "inputs": [
        {
          "internalType": "uint256",
          "name": "_multiplier",
          "type": "uint256"
        }
      ],
      "name": "setMultipler",
      "outputs": [],
      "stateMutability": "nonpayable",
      "type": "function"
    },
    {
      "inputs": [
        {
          "internalType": "address",
          "name": "_nodeManagerAddress",
          "type": "address"
        }
      ],
      "name": "setNodeManagerAddress",
      "outputs": [],
      "stateMutability": "nonpayable",
      "type": "function"
    },
    {
      "inputs": [
        {
          "internalType": "uint256",
          "name": "_totalBytesStored",
          "type": "uint256"
        }
      ],
      "name": "setTotalBytesStored",
      "outputs": [],
      "stateMutability": "nonpayable",
      "type": "function"
    },
    {
      "inputs": [],
      "name": "symbol",
      "outputs": [
        {
          "internalType": "string",
          "name": "",
          "type": "string"
        }
      ],
      "stateMutability": "view",
      "type": "function"
    },
    {
      "inputs": [],
      "name": "totalBytesStored",
      "outputs": [
        {
          "internalType": "uint256",
          "name": "",
          "type": "uint256"
        }
      ],
      "stateMutability": "view",
      "type": "function"
    },
    {
      "inputs": [],
      "name": "totalSupply",
      "outputs": [
        {
          "internalType": "uint256",
          "name": "",
          "type": "uint256"
        }
      ],
      "stateMutability": "view",
      "type": "function"
    },
    {
      "inputs": [
        {
          "internalType": "address",
          "name": "_to",
          "type": "address"
        },
        {
          "internalType": "uint256",
          "name": "_amount",
          "type": "uint256"
        }
      ],
      "name": "transfer",
      "outputs": [
        {
          "internalType": "bool",
          "name": "",
          "type": "bool"
        }
      ],
      "stateMutability": "nonpayable",
      "type": "function"
    },
    {
      "inputs": [
        {
          "internalType": "address",
          "name": "_from",
          "type": "address"
        },
        {
          "internalType": "address",
          "name": "_to",
          "type": "address"
        },
        {
          "internalType": "uint256",
          "name": "amount",
          "type": "uint256"
        }
      ],
      "name": "transferFrom",
      "outputs": [
        {
          "internalType": "bool",
          "name": "",
          "type": "bool"
        }
      ],
      "stateMutability": "nonpayable",
      "type": "function"
    },
    {
      "inputs": [
        {
          "internalType": "address",
          "name": "newOwner",
          "type": "address"
        }
      ],
      "name": "transferOwnership",
      "outputs": [],
      "stateMutability": "nonpayable",
      "type": "function"
    },
    {
      "inputs": [],
      "name": "treasury",
      "outputs": [
        {
          "internalType": "uint256",
          "name": "",
          "type": "uint256"
        }
      ],
      "stateMutability": "view",
      "type": "function"
    },
    {
      "inputs": [
        {
          "internalType": "address",
          "name": "newImplementation",
          "type": "address"
        }
      ],
      "name": "upgradeTo",
      "outputs": [],
      "stateMutability": "nonpayable",
      "type": "function"
    },
    {
      "inputs": [
        {
          "internalType": "address",
          "name": "newImplementation",
          "type": "address"
        },
        {
          "internalType": "bytes",
          "name": "data",
          "type": "bytes"
        }
      ],
      "name": "upgradeToAndCall",
      "outputs": [],
      "stateMutability": "payable",
      "type": "function"
    },
    {
      "inputs": [
        {
          "internalType": "address",
          "name": "account",
          "type": "address"
        }
      ],
      "name": "whitelistRecipient",
      "outputs": [],
      "stateMutability": "nonpayable",
      "type": "function"
    },
    {
      "inputs": [
        {
          "internalType": "address",
          "name": "account",
          "type": "address"
        }
      ],
      "name": "whitelistSender",
      "outputs": [],
      "stateMutability": "nonpayable",
      "type": "function"
    },
    {
      "inputs": [
        {
          "internalType": "address",
          "name": "",
          "type": "address"
        }
      ],
      "name": "whitelistedRecipients",
      "outputs": [
        {
          "internalType": "bool",
          "name": "",
          "type": "bool"
        }
      ],
      "stateMutability": "view",
      "type": "function"
    },
    {
      "inputs": [
        {
          "internalType": "address",
          "name": "",
          "type": "address"
        }
      ],
      "name": "whitelistedSenders",
      "outputs": [
        {
          "internalType": "bool",
          "name": "",
          "type": "bool"
        }
      ],
      "stateMutability": "view",
      "type": "function"
    },
    {
      "inputs": [
        {
          "internalType": "uint256",
          "name": "amount",
          "type": "uint256"
        }
      ],
      "name": "withdraw",
      "outputs": [],
      "stateMutability": "nonpayable",
      "type": "function"
    }
  ],
  "bytecode": "0x60a0806040523461003157306080526126fe90816100378239608051818181611095015281816111cd01526115990152f35b600080fdfe608080604052600436101561001357600080fd5b60003560e01c90816306fdde0314611d6757508063095ea7b314611d415780631249c58b14611bb857806313c5d25214611b7857806318160ddd14611b5a57806319058d1414611b3b5780631b3ed72214611b1c57806323b872dd14611993578063272efc69146119535780632e1a7d4d146118a35780632f10a6c614611845578063313ce567146118295780633659cfe614611574578063385d633f1461155257806339509351146115005780634b94f50e146114dd5780634dc29ca0146114be5780634f1ef2861461115057806352d1902d1461107a57806361d027b31461105b57806363149bfd14611019578063636bfbab14610ffa5780636501779614610fdb57806370a0823114610fa1578063715018a614610f4657806373176e5f14610f1e57806383197ef014610ef857806385d38f8014610ed05780638da5cb5b14610ea957806390482d721461077757806395d89b41146106995780639dc29fac14610569578063a457c2d7146104a9578063a9059cbb1461043b578063afc2afa614610419578063d95b787c146103f7578063dd62ed3e146103a5578063e78ec42e14610383578063f0dda65c14610356578063f2fde38b146102b05763f78fe978146101e257600080fd5b346102ab5760203660031901126102ab576001600160a01b03610203611e53565b61020b611ef5565b1680600052610136908160205260ff60406000205416610240576000526020526040600020600160ff19825416179055600080f35b60405162461bcd60e51b815260206004820152602860248201527f4163636f756e7420616c72656164792077686974656c6973746564206173207260448201527f6563697069656e740000000000000000000000000000000000000000000000006064820152608490fd5b600080fd5b346102ab5760203660031901126102ab576102c9611e53565b6102d1611ef5565b6001600160a01b038116156102eb576102e990611f4d565b005b60405162461bcd60e51b815260206004820152602660248201527f4f776e61626c653a206e6577206f776e657220697320746865207a65726f206160448201527f64647265737300000000000000000000000000000000000000000000000000006064820152608490fd5b346102ab5760403660031901126102ab576102e9610372611e53565b61037a611ef5565b60243590612348565b346102ab5760203660031901126102ab5761039c611ef5565b60043561013055005b346102ab5760403660031901126102ab576103be611e53565b6103c6611e69565b906001600160a01b0380911660005260fc602052604060002091166000526020526020604060002054604051908152f35b346102ab5760203660031901126102ab57610410611ef5565b60043561012e55005b346102ab5760203660031901126102ab57610432611ef5565b60043561012f55005b346102ab5760403660031901126102ab57610484610457611e53565b6001600160a01b038061013154169082161480159061048f575b61047a906124b7565b6024359033612529565b602060405160018152f35b50336000908152610135602052604090205460ff16610471565b346102ab5760403660031901126102ab576104c2611e53565b602435903360005260fc60205260406000206001600160a01b038216600052602052604060002054918083106104fe576104849203903361216e565b60405162461bcd60e51b815260206004820152602560248201527f45524332303a2064656372656173656420616c6c6f77616e63652062656c6f7760448201527f207a65726f0000000000000000000000000000000000000000000000000000006064820152608490fd5b346102ab5760403660031901126102ab57610582611e53565b6001600160a01b0360243591610596611ef5565b16801561064a578060005260fb602052604060002054918083106105fa576020817fddf252ad1be2c89b69c2b068fc378daa952ba7f163c4a11628f55a4df523b3ef9260009585875260fb84520360408620558060fd540360fd55604051908152a3005b60405162461bcd60e51b815260206004820152602260248201527f45524332303a206275726e20616d6f756e7420657863656564732062616c616e604482015261636560f01b6064820152608490fd5b60405162461bcd60e51b815260206004820152602160248201527f45524332303a206275726e2066726f6d20746865207a65726f206164647265736044820152607360f81b6064820152608490fd5b346102ab5760003660031901126102ab57604051600060ff546106bb81612127565b8084529060019081811690811561075057506001146106f5575b6106f1846106e581860382611eb7565b60405191829182611e0a565b0390f35b60ff600090815292507fe08ec2af2cfc251225e1968fd6ca21e4044f129bffa95bac3503be8bdb30a3675b8284106107385750505081016020016106e5826106d5565b80546020858701810191909152909301928101610720565b60ff191660208087019190915292151560051b850190920192506106e591508390506106d5565b346102ab5760603660031901126102ab5760043567ffffffffffffffff81116102ab57366023820112156102ab5780600401359067ffffffffffffffff8211610c93578160051b90604051926107d06020840185611eb7565b835260246020840192820101903682116102ab57602401915b818310610e8957836107f9611e69565b604435906001600160a01b03821682036102ab576000549260ff8460081c161593848095610e7c575b8015610e65575b15610dfa5760ff19811660011760005584610de8575b5061085a60ff60005460081c16610855816122d6565b6122d6565b61086333611f4d565b60405161086f81611e9b565b601c81527f4c6f6773746f726520416c706861204e6574776f726b20546f6b656e000000006020820152604051906108a682611e9b565b60048252632629a0a760e11b60208301526108cc60ff60005460081c16610855816122d6565b80519067ffffffffffffffff8211610c935781906108eb60fe54612127565b601f8111610d3e575b50602090601f8311600114610cb457600092610ca9575b50508160011b916000199060031b1c19161760fe555b80519067ffffffffffffffff8211610c9357819061094060ff54612127565b601f8111610be9575b50602090601f8311600114610b5f57600092610b54575b50508160011b916000199060031b1c19161760ff555b61099460ff60005460081c1661098b816122d6565b610855816122d6565b600160c95580519060005b828110610a2a575050506001600160a01b0319906001600160a01b0361013291168282541617905542610133556001600160a01b03610131921690825416179055600161012f556000610130556109f257005b61ff0019600054166000557f7f26b83ff96e1f2b6a682f133852f6798a09c465da95921460cefb3847402498602060405160018152a1005b6001600160a01b03610a3c82846122ac565b5116610a46611ef5565b8060005261013560205260ff60406000205416610ae9576000526101356020526040600020600160ff198254161790556001600160a01b03610a8882846122ac565b5116610a92611ef5565b8060005261013660205260ff60406000205416610240576000526101366020526040600020600160ff198254161790556000198114610ad35760010161099f565b634e487b7160e01b600052601160045260246000fd5b60405162461bcd60e51b815260206004820152602560248201527f4164647265737320616c72656164792077686974656c6973746564206173207360448201527f656e6465720000000000000000000000000000000000000000000000000000006064820152608490fd5b015190508680610960565b925060ff6000527fe08ec2af2cfc251225e1968fd6ca21e4044f129bffa95bac3503be8bdb30a367906000935b601f1984168510610bce576001945083601f19811610610bb5575b505050811b0160ff55610976565b015160001960f88460031b161c19169055868080610ba7565b81810151835560209485019460019093019290910190610b8c565b90915060ff600052601f830160051c7fe08ec2af2cfc251225e1968fd6ca21e4044f129bffa95bac3503be8bdb30a3670160208410610c6c575b908392915b601f820160051c7fe08ec2af2cfc251225e1968fd6ca21e4044f129bffa95bac3503be8bdb30a367018110610c5d5750610949565b60008155849350600101610c28565b507fe08ec2af2cfc251225e1968fd6ca21e4044f129bffa95bac3503be8bdb30a367610c23565b634e487b7160e01b600052604160045260246000fd5b01519050878061090b565b925060fe6000527f54075df80ec1ae6ac9100e1fd0ebf3246c17f5c933137af392011f4c5f61513a906000935b601f1984168510610d23576001945083601f19811610610d0a575b505050811b0160fe55610921565b015160001960f88460031b161c19169055878080610cfc565b81810151835560209485019460019093019290910190610ce1565b90915060fe600052601f830160051c7f54075df80ec1ae6ac9100e1fd0ebf3246c17f5c933137af392011f4c5f61513a0160208410610dc1575b908392915b601f820160051c7f54075df80ec1ae6ac9100e1fd0ebf3246c17f5c933137af392011f4c5f61513a018110610db257506108f4565b60008155849350600101610d7d565b507f54075df80ec1ae6ac9100e1fd0ebf3246c17f5c933137af392011f4c5f61513a610d78565b61ffff1916610101176000558461083f565b60405162461bcd60e51b815260206004820152602e60248201527f496e697469616c697a61626c653a20636f6e747261637420697320616c72656160448201527f647920696e697469616c697a65640000000000000000000000000000000000006064820152608490fd5b50303b1580156108295750600160ff821614610829565b50600160ff821610610822565b82356001600160a01b03811681036102ab578152602092830192016107e9565b346102ab5760003660031901126102ab5760206001600160a01b0360975416604051908152f35b346102ab5760003660031901126102ab5760206001600160a01b036101325416604051908152f35b346102ab5760003660031901126102ab576001600160a01b03610132541633036102ab57005b346102ab5760003660031901126102ab5760206001600160a01b036101315416604051908152f35b346102ab5760003660031901126102ab57610f5f611ef5565b60006001600160a01b036097546001600160a01b03198116609755167f8be0079c531659141344cd1fd0a4f28419497f9722a3daafe3b4186f6b6457e08280a3005b346102ab5760203660031901126102ab576001600160a01b03610fc2611e53565b1660005260fb6020526020604060002054604051908152f35b346102ab5760003660031901126102ab57602061013354604051908152f35b346102ab5760003660031901126102ab57602061013054604051908152f35b346102ab5760203660031901126102ab57611032611e53565b61103a611ef5565b6001600160a01b0361013191166001600160a01b0319825416179055600080f35b346102ab5760003660031901126102ab57602061013454604051908152f35b346102ab5760003660031901126102ab576001600160a01b037f00000000000000000000000000000000000000000000000000000000000000001630036110e55760206040517f360894a13ba1a3210667c828492db98dca3e2076cc3735a920a3ca505d382bbc8152f35b60405162461bcd60e51b815260206004820152603860248201527f555550535570677261646561626c653a206d757374206e6f742062652063616c60448201527f6c6564207468726f7567682064656c656761746563616c6c00000000000000006064820152608490fd5b60403660031901126102ab57611164611e53565b602490813567ffffffffffffffff81116102ab57366023820112156102ab5780600401359061119282611ed9565b61119f6040519182611eb7565b82815260209283820192368783830101116102ab5781600092888793018637830101526001600160a01b03807f000000000000000000000000000000000000000000000000000000000000000016906111fa82301415611f95565b6112297f360894a13ba1a3210667c828492db98dca3e2076cc3735a920a3ca505d382bbc928284541614612007565b611231611ef5565b7f4910fdfa16fed3260ed0e7147f7cc6da11a60208b5b9406d12a635614ffd91435460ff161561126a5750505050506102e99150612079565b85949516906040516352d1902d60e01b81528681600481865afa6000918161148f575b506112ed5760405162461bcd60e51b815260048101889052602e818a01527f45524331393637557067726164653a206e657720696d706c656d656e7461746960448201526d6f6e206973206e6f74205555505360901b6064820152608490fd5b9691929394960361143a5761130186612079565b604051917fbc7cd75a20ee27fd9adebab32041f755214dbc6bffa90cc0225b39da2e5c2d3b600080a2825115801590611432575b61133b57005b853b156113e25750506102e993600092839251915af43d156113da573d9061136282611ed9565b916113706040519384611eb7565b82523d60008484013e5b7f416464726573733a206c6f772d6c6576656c2064656c65676174652063616c6c604051936113a885611e7f565b602785528401527f206661696c6564000000000000000000000000000000000000000000000000006040840152612270565b60609061137a565b62461bcd60e51b8252600482018590526026908201527f416464726573733a2064656c65676174652063616c6c20746f206e6f6e2d636f6044820152651b9d1c9858dd60d21b6064820152608490fd5b506001611335565b8460296084926040519262461bcd60e51b845260048401528201527f45524331393637557067726164653a20756e737570706f727465642070726f786044820152681a58589b195555525160ba1b6064820152fd5b9091508781813d83116114b7575b6114a78183611eb7565b810103126102ab5751908961128d565b503d61149d565b346102ab5760003660031901126102ab57602061012d54604051908152f35b346102ab5760003660031901126102ab5760206114f861242c565b604051908152f35b346102ab5760403660031901126102ab5761048461151c611e53565b3360005260fc60205260406000206001600160a01b03821660005260205261154b602435604060002054612161565b903361216e565b346102ab5760203660031901126102ab5761156b611ef5565b60043561012d55005b346102ab576020806003193601126102ab5761158e611e53565b6001600160a01b03807f0000000000000000000000000000000000000000000000000000000000000000166115c581301415611f95565b6115f47f360894a13ba1a3210667c828492db98dca3e2076cc3735a920a3ca505d382bbc918383541614612007565b6115fc611ef5565b604051908482019282841067ffffffffffffffff851117610c9357836040526000835260ff7f4910fdfa16fed3260ed0e7147f7cc6da11a60208b5b9406d12a635614ffd9143541660001461165957505050506102e99150612079565b8416906040516352d1902d60e01b81528681600481865afa600091816117fa575b506116db5760405162461bcd60e51b815260048101889052602e60248201527f45524331393637557067726164653a206e657720696d706c656d656e7461746960448201526d6f6e206973206e6f74205555505360901b6064820152608490fd5b036117a3576116e984612079565b604051907fbc7cd75a20ee27fd9adebab32041f755214dbc6bffa90cc0225b39da2e5c2d3b600080a281511580159061179b575b61172357005b833b1561174a57506102e99392600092839251915af43d156113da573d9061136282611ed9565b62461bcd60e51b815260048101859052602660248201527f416464726573733a2064656c65676174652063616c6c20746f206e6f6e2d636f6044820152651b9d1c9858dd60d21b6064820152608490fd5b50600061171d565b60405162461bcd60e51b815260048101869052602960248201527f45524331393637557067726164653a20756e737570706f727465642070726f786044820152681a58589b195555525160ba1b6064820152608490fd5b9091508781813d8311611822575b6118128183611eb7565b810103126102ab5751908861167a565b503d611808565b346102ab5760003660031901126102ab57602060405160128152f35b346102ab5760203660031901126102ab576001600160a01b03611866611e53565b61186e611ef5565b1680600052610135908160205260ff60406000205416610ae9576000526020526040600020600160ff19825416179055600080f35b346102ab5760203660031901126102ab576004356118bf611ef5565b80471061190e576000808080936101346118da8282546123ec565b90556001600160a01b036101325416828215611905575bf1156118f957005b6040513d6000823e3d90fd5b506108fc6118f1565b60405162461bcd60e51b815260206004820152601d60248201527f496e73756666696369656e7420636f6e74726163742062616c616e63650000006044820152606490fd5b346102ab5760203660031901126102ab576001600160a01b03611974611e53565b16600052610135602052602060ff604060002054166040519015158152f35b346102ab5760603660031901126102ab576119ac611e53565b6119b4611e69565b604435906001600160a01b0380610131541681851691818314801590611b03575b15611a9857831614801590611a7e575b6119ee906124b7565b60005260fc602052604060002033600052602052604060002054926000198403611a1d575b6104849350612529565b828410611a3957611a34836104849503338361216e565b611a13565b60405162461bcd60e51b815260206004820152601d60248201527f45524332303a20696e73756666696369656e7420616c6c6f77616e63650000006044820152606490fd5b50336000908152610135602052604090205460ff166119e5565b60405162461bcd60e51b815260206004820152603460248201527f55736572206973206e6f742077686974656c697374656420746f207472616e7360448201527f66657246726f6d207468697320616464726573730000000000000000000000006064820152608490fd5b503360005261013660205260ff604060002054166119d5565b346102ab5760003660031901126102ab57602061012f54604051908152f35b346102ab5760003660031901126102ab57602061012e54604051908152f35b346102ab5760003660031901126102ab57602060fd54604051908152f35b346102ab5760203660031901126102ab576001600160a01b03611b99611e53565b16600052610136602052602060ff604060002054166040519015158152f35b60003660031901126102ab57600260c95414611cfc57600260c95561013054341115611cab5761012d5415611c665761012e5415611c2157611c1a611c04611bfe61242c565b3461240c565b610134611c12348254612161565b905533612348565b600160c955005b60405162461bcd60e51b815260206004820152601560248201527f746f74616c427974657353746f726564203c3d203000000000000000000000006044820152606490fd5b60405162461bcd60e51b815260206004820152601160248201527f6d6174696350657242797465203c3d20300000000000000000000000000000006044820152606490fd5b60405162461bcd60e51b8152602060048201526024808201527f73656e7420616d6f756e74206c657373207468616e206d696e696d756d20616d6044820152631bdd5b9d60e21b6064820152608490fd5b60405162461bcd60e51b815260206004820152601f60248201527f5265656e7472616e637947756172643a207265656e7472616e742063616c6c006044820152606490fd5b346102ab5760403660031901126102ab57610484611d5d611e53565b602435903361216e565b346102ab5760003660031901126102ab57600060fe54611d8681612127565b808452906001908181169081156107505750600114611daf576106f1846106e581860382611eb7565b60fe600090815292507f54075df80ec1ae6ac9100e1fd0ebf3246c17f5c933137af392011f4c5f61513a5b828410611df25750505081016020016106e5826106d5565b80546020858701810191909152909301928101611dda565b6020808252825181830181905290939260005b828110611e3f57505060409293506000838284010152601f8019910116010190565b818101860151848201604001528501611e1d565b600435906001600160a01b03821682036102ab57565b602435906001600160a01b03821682036102ab57565b6060810190811067ffffffffffffffff821117610c9357604052565b6040810190811067ffffffffffffffff821117610c9357604052565b90601f8019910116810190811067ffffffffffffffff821117610c9357604052565b67ffffffffffffffff8111610c9357601f01601f191660200190565b6001600160a01b03609754163303611f0957565b606460405162461bcd60e51b815260206004820152602060248201527f4f776e61626c653a2063616c6c6572206973206e6f7420746865206f776e65726044820152fd5b609754906001600160a01b0380911691826001600160a01b0319821617609755167f8be0079c531659141344cd1fd0a4f28419497f9722a3daafe3b4186f6b6457e0600080a3565b15611f9c57565b60405162461bcd60e51b815260206004820152602c60248201527f46756e6374696f6e206d7573742062652063616c6c6564207468726f7567682060448201527f64656c656761746563616c6c00000000000000000000000000000000000000006064820152608490fd5b1561200e57565b60405162461bcd60e51b815260206004820152602c60248201527f46756e6374696f6e206d7573742062652063616c6c6564207468726f7567682060448201527f6163746976652070726f787900000000000000000000000000000000000000006064820152608490fd5b803b156120bc576001600160a01b037f360894a13ba1a3210667c828492db98dca3e2076cc3735a920a3ca505d382bbc91166001600160a01b0319825416179055565b60405162461bcd60e51b815260206004820152602d60248201527f455243313936373a206e657720696d706c656d656e746174696f6e206973206e60448201527f6f74206120636f6e7472616374000000000000000000000000000000000000006064820152608490fd5b90600182811c92168015612157575b602083101461214157565b634e487b7160e01b600052602260045260246000fd5b91607f1691612136565b91908201809211610ad357565b6001600160a01b0380911691821561221f57169182156121cf5760207f8c5be1e5ebec7d5bd14f71427d1e84f3dd0314c0f7b2291e5b200ac8c7c3b925918360005260fc8252604060002085600052825280604060002055604051908152a3565b60405162461bcd60e51b815260206004820152602260248201527f45524332303a20617070726f766520746f20746865207a65726f206164647265604482015261737360f01b6064820152608490fd5b60405162461bcd60e51b8152602060048201526024808201527f45524332303a20617070726f76652066726f6d20746865207a65726f206164646044820152637265737360e01b6064820152608490fd5b9091901561227c575090565b81511561228c5750805190602001fd5b60405162461bcd60e51b81529081906122a89060048301611e0a565b0390fd5b80518210156122c05760209160051b010190565b634e487b7160e01b600052603260045260246000fd5b156122dd57565b60405162461bcd60e51b815260206004820152602b60248201527f496e697469616c697a61626c653a20636f6e7472616374206973206e6f74206960448201527f6e697469616c697a696e670000000000000000000000000000000000000000006064820152608490fd5b6001600160a01b03169081156123a7577fddf252ad1be2c89b69c2b068fc378daa952ba7f163c4a11628f55a4df523b3ef60208261238a60009460fd54612161565b60fd5584845260fb825260408420818154019055604051908152a3565b60405162461bcd60e51b815260206004820152601f60248201527f45524332303a206d696e7420746f20746865207a65726f2061646472657373006044820152606490fd5b91908203918211610ad357565b81810292918115918404141715610ad357565b8115612416570490565b634e487b7160e01b600052601260045260246000fd5b61243d61012d5461012e54906123f9565b61244a61013354426123ec565b90601882029180830460181481151715610ad3576105a0810292808404603c1490151715610ad35762015180810292808404603c1490151715610ad3576305265c0002918083046103e81490151715610ad3576124b4916124aa9161240c565b61012f54906123f9565b90565b156124be57565b60405162461bcd60e51b815260206004820152603260248201527f55736572206973206e6f742077686974656c697374656420746f207472616e7360448201527f66657220746f20746865206164647265737300000000000000000000000000006064820152608490fd5b6001600160a01b0380911691821561265d571691821561260c57600082815260fb6020526040812054918083106125a157604082827fddf252ad1be2c89b69c2b068fc378daa952ba7f163c4a11628f55a4df523b3ef95876020965260fb8652038282205586815220818154019055604051908152a3565b60405162461bcd60e51b815260206004820152602660248201527f45524332303a207472616e7366657220616d6f756e742065786365656473206260448201527f616c616e636500000000000000000000000000000000000000000000000000006064820152608490fd5b60405162461bcd60e51b815260206004820152602360248201527f45524332303a207472616e7366657220746f20746865207a65726f206164647260448201526265737360e81b6064820152608490fd5b60405162461bcd60e51b815260206004820152602560248201527f45524332303a207472616e736665722066726f6d20746865207a65726f20616460448201527f64726573730000000000000000000000000000000000000000000000000000006064820152608490fdfea2646970667358221220ccbf2fb8bc9c49996e5156be90b30f5d6d877cc5919dd54b885d8da202a3f69164736f6c63430008110033",
  "linkReferences": {},
  "deployedLinkReferences": {}
}