{
  "_format": "hh-sol-artifact-1",
  "contractName": "LSAN",
  "sourceName": "src/alpha/Token.sol",
  "abi": [
    {
      "anonymous": false,
      "inputs": [
        {
          "indexed": false,
          "internalType": "address",
          "name": "previousAdmin",
          "type": "address"
        },
        {
          "indexed": false,
          "internalType": "address",
          "name": "newAdmin",
          "type": "address"
        }
      ],
      "name": "AdminChanged",
      "type": "event"
    },
    {
      "anonymous": false,
      "inputs": [
        {
          "indexed": true,
          "internalType": "address",
          "name": "owner",
          "type": "address"
        },
        {
          "indexed": true,
          "internalType": "address",
          "name": "spender",
          "type": "address"
        },
        {
          "indexed": false,
          "internalType": "uint256",
          "name": "value",
          "type": "uint256"
        }
      ],
      "name": "Approval",
      "type": "event"
    },
    {
      "anonymous": false,
      "inputs": [
        {
          "indexed": true,
          "internalType": "address",
          "name": "beacon",
          "type": "address"
        }
      ],
      "name": "BeaconUpgraded",
      "type": "event"
    },
    {
      "anonymous": false,
      "inputs": [
        {
          "indexed": false,
          "internalType": "uint8",
          "name": "version",
          "type": "uint8"
        }
      ],
      "name": "Initialized",
      "type": "event"
    },
    {
      "anonymous": false,
      "inputs": [
        {
          "indexed": true,
          "internalType": "address",
          "name": "previousOwner",
          "type": "address"
        },
        {
          "indexed": true,
          "internalType": "address",
          "name": "newOwner",
          "type": "address"
        }
      ],
      "name": "OwnershipTransferred",
      "type": "event"
    },
    {
      "anonymous": false,
      "inputs": [
        {
          "indexed": true,
          "internalType": "address",
          "name": "from",
          "type": "address"
        },
        {
          "indexed": true,
          "internalType": "address",
          "name": "to",
          "type": "address"
        },
        {
          "indexed": false,
          "internalType": "uint256",
          "name": "value",
          "type": "uint256"
        }
      ],
      "name": "Transfer",
      "type": "event"
    },
    {
      "anonymous": false,
      "inputs": [
        {
          "indexed": true,
          "internalType": "address",
          "name": "implementation",
          "type": "address"
        }
      ],
      "name": "Upgraded",
      "type": "event"
    },
    {
      "inputs": [],
      "name": "DEPLOYED_TIME",
      "outputs": [
        {
          "internalType": "uint256",
          "name": "",
          "type": "uint256"
        }
      ],
      "stateMutability": "view",
      "type": "function"
    },
    {
      "inputs": [],
      "name": "SAFE_ADDRESS",
      "outputs": [
        {
          "internalType": "address payable",
          "name": "",
          "type": "address"
        }
      ],
      "stateMutability": "view",
      "type": "function"
    },
    {
      "inputs": [
        {
          "internalType": "address",
          "name": "owner",
          "type": "address"
        },
        {
          "internalType": "address",
          "name": "spender",
          "type": "address"
        }
      ],
      "name": "allowance",
      "outputs": [
        {
          "internalType": "uint256",
          "name": "",
          "type": "uint256"
        }
      ],
      "stateMutability": "view",
      "type": "function"
    },
    {
      "inputs": [
        {
          "internalType": "address",
          "name": "spender",
          "type": "address"
        },
        {
          "internalType": "uint256",
          "name": "amount",
          "type": "uint256"
        }
      ],
      "name": "approve",
      "outputs": [
        {
          "internalType": "bool",
          "name": "",
          "type": "bool"
        }
      ],
      "stateMutability": "nonpayable",
      "type": "function"
    },
    {
      "inputs": [],
      "name": "balance",
      "outputs": [
        {
          "internalType": "uint256",
          "name": "",
          "type": "uint256"
        }
      ],
      "stateMutability": "view",
      "type": "function"
    },
    {
      "inputs": [
        {
          "internalType": "address",
          "name": "account",
          "type": "address"
        }
      ],
      "name": "balanceOf",
      "outputs": [
        {
          "internalType": "uint256",
          "name": "",
          "type": "uint256"
        }
      ],
      "stateMutability": "view",
      "type": "function"
    },
    {
      "inputs": [
        {
          "internalType": "address",
          "name": "account",
          "type": "address"
        },
        {
          "internalType": "uint256",
          "name": "amount",
          "type": "uint256"
        }
      ],
      "name": "burn",
      "outputs": [],
      "stateMutability": "nonpayable",
      "type": "function"
    },
    {
      "inputs": [],
      "name": "decimals",
      "outputs": [
        {
          "internalType": "uint8",
          "name": "",
          "type": "uint8"
        }
      ],
      "stateMutability": "view",
      "type": "function"
    },
    {
      "inputs": [
        {
          "internalType": "address",
          "name": "spender",
          "type": "address"
        },
        {
          "internalType": "uint256",
          "name": "subtractedValue",
          "type": "uint256"
        }
      ],
      "name": "decreaseAllowance",
      "outputs": [
        {
          "internalType": "bool",
          "name": "",
          "type": "bool"
        }
      ],
      "stateMutability": "nonpayable",
      "type": "function"
    },
    {
      "inputs": [],
      "name": "destroy",
      "outputs": [],
      "stateMutability": "nonpayable",
      "type": "function"
    },
    {
      "inputs": [],
      "name": "getTokenPrice",
      "outputs": [
        {
          "internalType": "uint256",
          "name": "lsanPrice",
          "type": "uint256"
        }
      ],
      "stateMutability": "view",
      "type": "function"
    },
    {
      "inputs": [
        {
          "internalType": "address",
          "name": "spender",
          "type": "address"
        },
        {
          "internalType": "uint256",
          "name": "addedValue",
          "type": "uint256"
        }
      ],
      "name": "increaseAllowance",
      "outputs": [
        {
          "internalType": "bool",
          "name": "",
          "type": "bool"
        }
      ],
      "stateMutability": "nonpayable",
      "type": "function"
    },
    {
      "inputs": [
        {
          "internalType": "address",
          "name": "_safeAddress",
          "type": "address"
        },
        {
          "internalType": "address[]",
          "name": "initialWhitelist",
          "type": "address[]"
        }
      ],
      "name": "initialize",
      "outputs": [],
      "stateMutability": "nonpayable",
      "type": "function"
    },
    {
      "inputs": [
        {
          "internalType": "address[]",
          "name": "accounts",
          "type": "address[]"
        },
        {
          "internalType": "uint256",
          "name": "option",
          "type": "uint256"
        }
      ],
      "name": "massWhitelistUpdate",
      "outputs": [],
      "stateMutability": "nonpayable",
      "type": "function"
    },
    {
      "inputs": [],
      "name": "maticPerByte",
      "outputs": [
        {
          "internalType": "uint256",
          "name": "",
          "type": "uint256"
        }
      ],
      "stateMutability": "view",
      "type": "function"
    },
    {
      "inputs": [],
      "name": "minimumDeposit",
      "outputs": [
        {
          "internalType": "uint256",
          "name": "",
          "type": "uint256"
        }
      ],
      "stateMutability": "view",
      "type": "function"
    },
    {
      "inputs": [],
      "name": "mint",
      "outputs": [],
      "stateMutability": "payable",
      "type": "function"
    },
    {
      "inputs": [
        {
          "internalType": "address",
          "name": "account",
          "type": "address"
        },
        {
          "internalType": "uint256",
          "name": "amount",
          "type": "uint256"
        }
      ],
      "name": "mintTokens",
      "outputs": [],
      "stateMutability": "nonpayable",
      "type": "function"
    },
    {
      "inputs": [],
      "name": "multiplier",
      "outputs": [
        {
          "internalType": "uint256",
          "name": "",
          "type": "uint256"
        }
      ],
      "stateMutability": "view",
      "type": "function"
    },
    {
      "inputs": [],
      "name": "name",
      "outputs": [
        {
          "internalType": "string",
          "name": "",
          "type": "string"
        }
      ],
      "stateMutability": "view",
      "type": "function"
    },
    {
      "inputs": [],
      "name": "owner",
      "outputs": [
        {
          "internalType": "address",
          "name": "",
          "type": "address"
        }
      ],
      "stateMutability": "view",
      "type": "function"
    },
    {
      "inputs": [],
      "name": "proxiableUUID",
      "outputs": [
        {
          "internalType": "bytes32",
          "name": "",
          "type": "bytes32"
        }
      ],
      "stateMutability": "view",
      "type": "function"
    },
    {
      "inputs": [],
      "name": "renounceOwnership",
      "outputs": [],
      "stateMutability": "nonpayable",
      "type": "function"
    },
    {
      "inputs": [
        {
          "internalType": "uint256",
          "name": "_maticPerByte",
          "type": "uint256"
        }
      ],
      "name": "setMaticPerByte",
      "outputs": [],
      "stateMutability": "nonpayable",
      "type": "function"
    },
    {
      "inputs": [
        {
          "internalType": "uint256",
          "name": "_minimumDeposit",
          "type": "uint256"
        }
      ],
      "name": "setMinimumDeposit",
      "outputs": [],
      "stateMutability": "nonpayable",
      "type": "function"
    },
    {
      "inputs": [
        {
          "internalType": "uint256",
          "name": "_multiplier",
          "type": "uint256"
        }
      ],
      "name": "setMultipler",
      "outputs": [],
      "stateMutability": "nonpayable",
      "type": "function"
    },
    {
      "inputs": [
        {
          "internalType": "uint256",
          "name": "_totalBytesStored",
          "type": "uint256"
        }
      ],
      "name": "setTotalBytesStored",
      "outputs": [],
      "stateMutability": "nonpayable",
      "type": "function"
    },
    {
      "inputs": [],
      "name": "symbol",
      "outputs": [
        {
          "internalType": "string",
          "name": "",
          "type": "string"
        }
      ],
      "stateMutability": "view",
      "type": "function"
    },
    {
      "inputs": [],
      "name": "totalBytesStored",
      "outputs": [
        {
          "internalType": "uint256",
          "name": "",
          "type": "uint256"
        }
      ],
      "stateMutability": "view",
      "type": "function"
    },
    {
      "inputs": [],
      "name": "totalSupply",
      "outputs": [
        {
          "internalType": "uint256",
          "name": "",
          "type": "uint256"
        }
      ],
      "stateMutability": "view",
      "type": "function"
    },
    {
      "inputs": [
        {
          "internalType": "address",
          "name": "_to",
          "type": "address"
        },
        {
          "internalType": "uint256",
          "name": "_amount",
          "type": "uint256"
        }
      ],
      "name": "transfer",
      "outputs": [
        {
          "internalType": "bool",
          "name": "",
          "type": "bool"
        }
      ],
      "stateMutability": "nonpayable",
      "type": "function"
    },
    {
      "inputs": [
        {
          "internalType": "address",
          "name": "_from",
          "type": "address"
        },
        {
          "internalType": "address",
          "name": "_to",
          "type": "address"
        },
        {
          "internalType": "uint256",
          "name": "amount",
          "type": "uint256"
        }
      ],
      "name": "transferFrom",
      "outputs": [
        {
          "internalType": "bool",
          "name": "",
          "type": "bool"
        }
      ],
      "stateMutability": "nonpayable",
      "type": "function"
    },
    {
      "inputs": [
        {
          "internalType": "address",
          "name": "",
          "type": "address"
        }
      ],
      "name": "transferFromWhitelist",
      "outputs": [
        {
          "internalType": "bool",
          "name": "",
          "type": "bool"
        }
      ],
      "stateMutability": "view",
      "type": "function"
    },
    {
      "inputs": [
        {
          "internalType": "address",
          "name": "newOwner",
          "type": "address"
        }
      ],
      "name": "transferOwnership",
      "outputs": [],
      "stateMutability": "nonpayable",
      "type": "function"
    },
    {
      "inputs": [
        {
          "internalType": "address",
          "name": "",
          "type": "address"
        }
      ],
      "name": "transferToWhitelist",
      "outputs": [
        {
          "internalType": "bool",
          "name": "",
          "type": "bool"
        }
      ],
      "stateMutability": "view",
      "type": "function"
    },
    {
      "inputs": [
        {
          "internalType": "address",
          "name": "account",
          "type": "address"
        }
      ],
      "name": "unWhitelistTransferFrom",
      "outputs": [],
      "stateMutability": "nonpayable",
      "type": "function"
    },
    {
      "inputs": [
        {
          "internalType": "address",
          "name": "account",
          "type": "address"
        }
      ],
      "name": "unWhitelistTransferTo",
      "outputs": [],
      "stateMutability": "nonpayable",
      "type": "function"
    },
    {
      "inputs": [
        {
          "internalType": "address",
          "name": "newImplementation",
          "type": "address"
        }
      ],
      "name": "upgradeTo",
      "outputs": [],
      "stateMutability": "nonpayable",
      "type": "function"
    },
    {
      "inputs": [
        {
          "internalType": "address",
          "name": "newImplementation",
          "type": "address"
        },
        {
          "internalType": "bytes",
          "name": "data",
          "type": "bytes"
        }
      ],
      "name": "upgradeToAndCall",
      "outputs": [],
      "stateMutability": "payable",
      "type": "function"
    },
    {
      "inputs": [
        {
          "internalType": "address",
          "name": "account",
          "type": "address"
        }
      ],
      "name": "whitelistTransferFrom",
      "outputs": [],
      "stateMutability": "nonpayable",
      "type": "function"
    },
    {
      "inputs": [
        {
          "internalType": "address",
          "name": "account",
          "type": "address"
        }
      ],
      "name": "whitelistTransferTo",
      "outputs": [],
      "stateMutability": "nonpayable",
      "type": "function"
    },
    {
      "inputs": [
        {
          "internalType": "uint256",
          "name": "amount",
          "type": "uint256"
        }
      ],
      "name": "withdraw",
      "outputs": [],
      "stateMutability": "nonpayable",
      "type": "function"
    }
  ],
  "bytecode": "0x60a080604052346100315730608052612e17908161003782396080518181816117d40152818161190c0152611d850152f35b600080fdfe608080604052600436101561001357600080fd5b60003560e01c90816306fdde03146123d057508063095ea7b3146123aa5780631249c58b1461223157806318160ddd1461221357806319058d14146121f45780631b3ed722146121d557806323b872dd146120d15780632e1a7d4d14612031578063313ce567146120155780633659cfe614611d60578063385d633f14611d3e5780633950935114611cec5780633d794a7714611c3f5780634b94f50e14611c1c5780634dc29ca014611bfd5780634f1ef2861461188f57806352d1902d146117b9578063636bfbab1461179a578063650177961461177b57806367c1ed09146116d057806370a0823114611696578063715018a61461163b57806383197ef01461161557806385d38f80146115ed5780638da5cb5b146115c6578063946d920414610f5157806395d89b4114610e735780639dc29fac14610d43578063a457c2d714610c83578063a9059cbb14610c13578063afc2afa614610bf1578063b69ef8a814610bd5578063c11b0d4914610b95578063d4a046be14610ae4578063d95b787c14610ac2578063dd62ed3e14610a70578063e449b6ee146109bc578063e78ec42e1461099a578063e7eff69014610305578063f0dda65c146102d8578063f2fde38b146102325763f6c99895146101ed57600080fd5b3461022d57602036600319011261022d576001600160a01b0361020e6124bc565b16600052610134602052602060ff604060002054166040519015158152f35b600080fd5b3461022d57602036600319011261022d5761024b6124bc565b61025361255e565b6001600160a01b0381161561026d5761026b906125b6565b005b60405162461bcd60e51b815260206004820152602660248201527f4f776e61626c653a206e6577206f776e657220697320746865207a65726f206160448201527f64647265737300000000000000000000000000000000000000000000000000006064820152608490fd5b3461022d57604036600319011261022d5761026b6102f46124bc565b6102fc61255e565b602435906129d6565b3461022d57604036600319011261022d5767ffffffffffffffff60043581811161022d573660238201121561022d57806004013591821161022d57602491828201918336918360051b01011161022d57823561035f61255e565b6001808210158061098f575b1561094b578082146107f0575b600282146106a1575b600382146105e1575b6004821461051e575b5060058114610463575b6006146103a657005b60005b8181106103b257005b6001600160a01b036103cd6103c8838587612a7a565b612a8a565b6103d561255e565b16806000526101349060209082825260ff6040600020541615610414579061040f93929160005252604060002060ff19815416905561292b565b6103a9565b608482886040519162461bcd60e51b83526004830152808201527f4163636f756e74206e6f742077686974656c69737465642061732072656369706044820152631a595b9d60e21b6064820152fd5b60005b828110610473575061039d565b6001600160a01b036104896103c8838688612a7a565b61049161255e565b16806000526101339060209082825260ff60406000205416156104d057906104cb93929160005252604060002060ff19815416905561292b565b610466565b60405162461bcd60e51b8152600481018390526021818a01527f41646472657373206e6f742077686974656c69737465642061732073656e64656044820152603960f91b6064820152608490fd5b60005b83811061052e5750610393565b6001600160a01b036105446103c8838789612a7a565b61054c61255e565b16806000526101349060209082825260ff6040600020541661058c57906105879392916000525260406000208360ff1982541617905561292b565b610521565b60405162461bcd60e51b8152600481018390526028818b01527f4163636f756e7420616c72656164792077686974656c697374656420617320726044820152671958da5c1a595b9d60c21b6064820152608490fd5b60005b8381106105f1575061038a565b6001600160a01b036106076103c8838789612a7a565b61060f61255e565b16806000526101339060209082825260ff6040600020541661064f579061064a9392916000525260406000208360ff1982541617905561292b565b6105e4565b60405162461bcd60e51b8152600481018390526025818b01527f4164647265737320616c72656164792077686974656c6973746564206173207360448201526432b73232b960d91b6064820152608490fd5b60005b8381106106b15750610381565b6106bf6103c8828688612a7a565b6106c761255e565b6001600160a01b038091168060005261013360209080825260ff928360406000205416156107a257600052815260406000209260ff19938481541690556107126103c8868a8c612a7a565b61071a61255e565b1680600052610134928383526040600020541615610753579061074e9493929160005252604060002090815416905561292b565b6106a4565b6084828b6040519162461bcd60e51b83526004830152808201527f4163636f756e74206e6f742077686974656c69737465642061732072656369706044820152631a595b9d60e21b6064820152fd5b60405162461bcd60e51b8152600481018490526021818d01527f41646472657373206e6f742077686974656c69737465642061732073656e64656044820152603960f91b6064820152608490fd5b60005b8381106108005750610378565b61080e6103c8828688612a7a565b61081661255e565b6001600160a01b038091168060005261013360209080825260ff9283604060002054166108f957600052815260406000209260ff199386858254161790556108626103c8868a8c612a7a565b61086a61255e565b168060005261013492838352604060002054166108a4579061089f94939291600052528360406000209182541617905561292b565b6107f3565b60405162461bcd60e51b8152600481018390526028818c01527f4163636f756e7420616c72656164792077686974656c697374656420617320726044820152671958da5c1a595b9d60c21b6064820152608490fd5b60405162461bcd60e51b8152600481018490526025818d01527f4164647265737320616c72656164792077686974656c6973746564206173207360448201526432b73232b960d91b6064820152608490fd5b60405162461bcd60e51b815260206004820152600e818701527f496e76616c6964206f7074696f6e0000000000000000000000000000000000006044820152606490fd5b50600682111561036b565b3461022d57602036600319011261022d576109b361255e565b60043561013055005b3461022d57602036600319011261022d576001600160a01b036109dd6124bc565b6109e561255e565b1680600052610134908160205260ff60406000205416610a1a576000526020526040600020600160ff19825416179055600080f35b60405162461bcd60e51b815260206004820152602860248201527f4163636f756e7420616c72656164792077686974656c697374656420617320726044820152671958da5c1a595b9d60c21b6064820152608490fd5b3461022d57604036600319011261022d57610a896124bc565b610a916124d2565b906001600160a01b0380911660005260fc602052604060002091166000526020526020604060002054604051908152f35b3461022d57602036600319011261022d57610adb61255e565b60043561012e55005b3461022d57602036600319011261022d576001600160a01b03610b056124bc565b610b0d61255e565b1680600052610133908160205260ff60406000205416610b42576000526020526040600020600160ff19825416179055600080f35b60405162461bcd60e51b815260206004820152602560248201527f4164647265737320616c72656164792077686974656c6973746564206173207360448201526432b73232b960d91b6064820152608490fd5b3461022d57602036600319011261022d576001600160a01b03610bb66124bc565b16600052610133602052602060ff604060002054166040519015158152f35b3461022d57600036600319011261022d57602047604051908152f35b3461022d57602036600319011261022d57610c0a61255e565b60043561012f55005b3461022d57604036600319011261022d57610c78610c2f6124bc565b33600052610134602052610c4a60ff60406000205416612b5e565b6001600160a01b038116600052610133602052610c6e60ff60406000205416612bd0565b6024359033612c42565b602060405160018152f35b3461022d57604036600319011261022d57610c9c6124bc565b602435903360005260fc60205260406000206001600160a01b03821660005260205260406000205491808310610cd857610c78920390336127ed565b60405162461bcd60e51b815260206004820152602560248201527f45524332303a2064656372656173656420616c6c6f77616e63652062656c6f7760448201527f207a65726f0000000000000000000000000000000000000000000000000000006064820152608490fd5b3461022d57604036600319011261022d57610d5c6124bc565b6001600160a01b0360243591610d7061255e565b168015610e24578060005260fb60205260406000205491808310610dd4576020817fddf252ad1be2c89b69c2b068fc378daa952ba7f163c4a11628f55a4df523b3ef9260009585875260fb84520360408620558060fd540360fd55604051908152a3005b60405162461bcd60e51b815260206004820152602260248201527f45524332303a206275726e20616d6f756e7420657863656564732062616c616e604482015261636560f01b6064820152608490fd5b60405162461bcd60e51b815260206004820152602160248201527f45524332303a206275726e2066726f6d20746865207a65726f206164647265736044820152607360f81b6064820152608490fd5b3461022d57600036600319011261022d57604051600060ff54610e9581612790565b80845290600190818116908115610f2a5750600114610ecf575b610ecb84610ebf81860382612520565b60405191829182612473565b0390f35b60ff600090815292507fe08ec2af2cfc251225e1968fd6ca21e4044f129bffa95bac3503be8bdb30a3675b828410610f12575050508101602001610ebf82610eaf565b80546020858701810191909152909301928101610efa565b60ff191660208087019190915292151560051b85019092019250610ebf9150839050610eaf565b3461022d57604036600319011261022d57610f6a6124bc565b6024359067ffffffffffffffff821161022d573660238301121561022d5781600401359167ffffffffffffffff83116113b0578260051b9060405193610fb36020840186612520565b8452602460208501928201019036821161022d57602401915b8183106115a6575050506000549060ff8260081c161591828093611599575b8015611582575b156115175760ff19811660011760005582611505575b5061102360ff60005460081c1661101e81612964565b612964565b61102c336125b6565b6040519261103984612504565b601d84527f4c6f672053746f726520416c706861204e6574776f726b20546f6b656e00000060208501526040519361107085612504565b60048552632629a0a760e11b602086015261109660ff60005460081c1661101e81612964565b80519067ffffffffffffffff82116113b05781906110b560fe54612790565b601f811161145b575b50602090601f83116001146113d1576000926113c6575b50508160011b916000199060031b1c19161760fe555b835167ffffffffffffffff81116113b05761110760ff54612790565b601f811161130d575b50602094601f82116001146112895794819293949560009261127e575b50508160011b916000199060031b1c19161760ff555b61116160ff60005460081c1661115881612964565b61101e81612964565b600160c95580519060005b8281106111e1575050506001600160a01b0361013191166001600160a01b03198254161790554261013255600161012f556000610130556111a957005b61ff0019600054166000557f7f26b83ff96e1f2b6a682f133852f6798a09c465da95921460cefb3847402498602060405160018152a1005b6001600160a01b03806111f4838561293a565b51166111fe61255e565b80600052610133908160205260ff60406000205416610b42576000526020526040600020600160ff19825416179055611237828461293a565b51169061124261255e565b816000526101348060205260ff60406000205416610a1a57611279926000526020526040600020600160ff1982541617905561292b565b61116c565b01519050858061112d565b601f1982169560ff6000527fe08ec2af2cfc251225e1968fd6ca21e4044f129bffa95bac3503be8bdb30a3679160005b8881106112f5575083600195969798106112dc575b505050811b0160ff55611143565b015160001960f88460031b161c191690558580806112ce565b919260206001819286850151815501940192016112b9565b60ff600052601f820160051c7fe08ec2af2cfc251225e1968fd6ca21e4044f129bffa95bac3503be8bdb30a367019060208310611388575b601f0160051c7fe08ec2af2cfc251225e1968fd6ca21e4044f129bffa95bac3503be8bdb30a36701905b81811061137c5750611110565b6000815560010161136f565b7fe08ec2af2cfc251225e1968fd6ca21e4044f129bffa95bac3503be8bdb30a3679150611345565b634e487b7160e01b600052604160045260246000fd5b0151905086806110d5565b925060fe6000527f54075df80ec1ae6ac9100e1fd0ebf3246c17f5c933137af392011f4c5f61513a906000935b601f1984168510611440576001945083601f19811610611427575b505050811b0160fe556110eb565b015160001960f88460031b161c19169055868080611419565b818101518355602094850194600190930192909101906113fe565b90915060fe600052601f830160051c7f54075df80ec1ae6ac9100e1fd0ebf3246c17f5c933137af392011f4c5f61513a01602084106114de575b908392915b601f820160051c7f54075df80ec1ae6ac9100e1fd0ebf3246c17f5c933137af392011f4c5f61513a0181106114cf57506110be565b6000815584935060010161149a565b507f54075df80ec1ae6ac9100e1fd0ebf3246c17f5c933137af392011f4c5f61513a611495565b61ffff19166101011760005583611008565b60405162461bcd60e51b815260206004820152602e60248201527f496e697469616c697a61626c653a20636f6e747261637420697320616c72656160448201527f647920696e697469616c697a65640000000000000000000000000000000000006064820152608490fd5b50303b158015610ff25750600160ff821614610ff2565b50600160ff821610610feb565b82356001600160a01b038116810361022d57815260209283019201610fcc565b3461022d57600036600319011261022d5760206001600160a01b0360975416604051908152f35b3461022d57600036600319011261022d5760206001600160a01b036101315416604051908152f35b3461022d57600036600319011261022d576001600160a01b036101315416330361022d57005b3461022d57600036600319011261022d5761165461255e565b60006001600160a01b036097546001600160a01b03198116609755167f8be0079c531659141344cd1fd0a4f28419497f9722a3daafe3b4186f6b6457e08280a3005b3461022d57602036600319011261022d576001600160a01b036116b76124bc565b1660005260fb6020526020604060002054604051908152f35b3461022d57602036600319011261022d576001600160a01b036116f16124bc565b6116f961255e565b1680600052610133908160205260ff604060002054161561172c57600052602052604060002060ff198154169055600080f35b60405162461bcd60e51b815260206004820152602160248201527f41646472657373206e6f742077686974656c69737465642061732073656e64656044820152603960f91b6064820152608490fd5b3461022d57600036600319011261022d57602061013254604051908152f35b3461022d57600036600319011261022d57602061013054604051908152f35b3461022d57600036600319011261022d576001600160a01b037f00000000000000000000000000000000000000000000000000000000000000001630036118245760206040517f360894a13ba1a3210667c828492db98dca3e2076cc3735a920a3ca505d382bbc8152f35b60405162461bcd60e51b815260206004820152603860248201527f555550535570677261646561626c653a206d757374206e6f742062652063616c60448201527f6c6564207468726f7567682064656c656761746563616c6c00000000000000006064820152608490fd5b604036600319011261022d576118a36124bc565b602490813567ffffffffffffffff811161022d573660238201121561022d578060040135906118d182612542565b6118de6040519182612520565b828152602092838201923687838301011161022d5781600092888793018637830101526001600160a01b03807f00000000000000000000000000000000000000000000000000000000000000001690611939823014156125fe565b6119687f360894a13ba1a3210667c828492db98dca3e2076cc3735a920a3ca505d382bbc928284541614612670565b61197061255e565b7f4910fdfa16fed3260ed0e7147f7cc6da11a60208b5b9406d12a635614ffd91435460ff16156119a957505050505061026b91506126e2565b85949516906040516352d1902d60e01b81528681600481865afa60009181611bce575b50611a2c5760405162461bcd60e51b815260048101889052602e818a01527f45524331393637557067726164653a206e657720696d706c656d656e7461746960448201526d6f6e206973206e6f74205555505360901b6064820152608490fd5b96919293949603611b7957611a40866126e2565b604051917fbc7cd75a20ee27fd9adebab32041f755214dbc6bffa90cc0225b39da2e5c2d3b600080a2825115801590611b71575b611a7a57005b853b15611b2157505061026b93600092839251915af43d15611b19573d90611aa182612542565b91611aaf6040519384612520565b82523d60008484013e5b7f416464726573733a206c6f772d6c6576656c2064656c65676174652063616c6c60405193611ae7856124e8565b602785528401527f206661696c65640000000000000000000000000000000000000000000000000060408401526128ef565b606090611ab9565b62461bcd60e51b8252600482018590526026908201527f416464726573733a2064656c65676174652063616c6c20746f206e6f6e2d636f6044820152651b9d1c9858dd60d21b6064820152608490fd5b506001611a74565b8460296084926040519262461bcd60e51b845260048401528201527f45524331393637557067726164653a20756e737570706f727465642070726f786044820152681a58589b195555525160ba1b6064820152fd5b9091508781813d8311611bf6575b611be68183612520565b8101031261022d575190896119cc565b503d611bdc565b3461022d57600036600319011261022d57602061012d54604051908152f35b3461022d57600036600319011261022d576020611c37612ad1565b604051908152f35b3461022d57602036600319011261022d576001600160a01b03611c606124bc565b611c6861255e565b1680600052610134908160205260ff6040600020541615611c9b57600052602052604060002060ff198154169055600080f35b60405162461bcd60e51b8152602060048201526024808201527f4163636f756e74206e6f742077686974656c69737465642061732072656369706044820152631a595b9d60e21b6064820152608490fd5b3461022d57604036600319011261022d57610c78611d086124bc565b3360005260fc60205260406000206001600160a01b038216600052602052611d376024356040600020546127ca565b90336127ed565b3461022d57602036600319011261022d57611d5761255e565b60043561012d55005b3461022d5760208060031936011261022d57611d7a6124bc565b6001600160a01b03807f000000000000000000000000000000000000000000000000000000000000000016611db1813014156125fe565b611de07f360894a13ba1a3210667c828492db98dca3e2076cc3735a920a3ca505d382bbc918383541614612670565b611de861255e565b604051908482019282841067ffffffffffffffff8511176113b057836040526000835260ff7f4910fdfa16fed3260ed0e7147f7cc6da11a60208b5b9406d12a635614ffd91435416600014611e45575050505061026b91506126e2565b8416906040516352d1902d60e01b81528681600481865afa60009181611fe6575b50611ec75760405162461bcd60e51b815260048101889052602e60248201527f45524331393637557067726164653a206e657720696d706c656d656e7461746960448201526d6f6e206973206e6f74205555505360901b6064820152608490fd5b03611f8f57611ed5846126e2565b604051907fbc7cd75a20ee27fd9adebab32041f755214dbc6bffa90cc0225b39da2e5c2d3b600080a2815115801590611f87575b611f0f57005b833b15611f36575061026b9392600092839251915af43d15611b19573d90611aa182612542565b62461bcd60e51b815260048101859052602660248201527f416464726573733a2064656c65676174652063616c6c20746f206e6f6e2d636f6044820152651b9d1c9858dd60d21b6064820152608490fd5b506000611f09565b60405162461bcd60e51b815260048101869052602960248201527f45524331393637557067726164653a20756e737570706f727465642070726f786044820152681a58589b195555525160ba1b6064820152608490fd5b9091508781813d831161200e575b611ffe8183612520565b8101031261022d57519088611e66565b503d611ff4565b3461022d57600036600319011261022d57602060405160128152f35b3461022d57602036600319011261022d5760043561204d61255e565b80471061208c576000808080936001600160a01b036101315416828215612083575bf11561207757005b6040513d6000823e3d90fd5b506108fc61206f565b60405162461bcd60e51b815260206004820152601d60248201527f496e73756666696369656e7420636f6e74726163742062616c616e63650000006044820152606490fd5b3461022d57606036600319011261022d576120ea6124bc565b6120f26124d2565b6044356001600160a01b039182841680600052602093610134855261211e60ff60406000205416612b5e565b8216600052610133845261213960ff60406000205416612bd0565b60005260fc83526040600020336000528352604060002054936000198503612170575b612167939450612c42565b60405160018152f35b828510612190576121888361216795960333836127ed565b84935061215c565b60405162461bcd60e51b815260048101859052601d60248201527f45524332303a20696e73756666696369656e7420616c6c6f77616e63650000006044820152606490fd5b3461022d57600036600319011261022d57602061012f54604051908152f35b3461022d57600036600319011261022d57602061012e54604051908152f35b3461022d57600036600319011261022d57602060fd54604051908152f35b600036600319011261022d57600260c9541461236557600260c955610130543411156123145761012d54156122cf5761012e541561228a5761228361227d612277612ad1565b34612ab1565b336129d6565b600160c955005b60405162461bcd60e51b815260206004820152601560248201527f746f74616c427974657353746f726564203c3d203000000000000000000000006044820152606490fd5b60405162461bcd60e51b815260206004820152601160248201527f6d6174696350657242797465203c3d20300000000000000000000000000000006044820152606490fd5b60405162461bcd60e51b8152602060048201526024808201527f73656e7420616d6f756e74206c657373207468616e206d696e696d756d20616d6044820152631bdd5b9d60e21b6064820152608490fd5b60405162461bcd60e51b815260206004820152601f60248201527f5265656e7472616e637947756172643a207265656e7472616e742063616c6c006044820152606490fd5b3461022d57604036600319011261022d57610c786123c66124bc565b60243590336127ed565b3461022d57600036600319011261022d57600060fe546123ef81612790565b80845290600190818116908115610f2a575060011461241857610ecb84610ebf81860382612520565b60fe600090815292507f54075df80ec1ae6ac9100e1fd0ebf3246c17f5c933137af392011f4c5f61513a5b82841061245b575050508101602001610ebf82610eaf565b80546020858701810191909152909301928101612443565b6020808252825181830181905290939260005b8281106124a857505060409293506000838284010152601f8019910116010190565b818101860151848201604001528501612486565b600435906001600160a01b038216820361022d57565b602435906001600160a01b038216820361022d57565b6060810190811067ffffffffffffffff8211176113b057604052565b6040810190811067ffffffffffffffff8211176113b057604052565b90601f8019910116810190811067ffffffffffffffff8211176113b057604052565b67ffffffffffffffff81116113b057601f01601f191660200190565b6001600160a01b0360975416330361257257565b606460405162461bcd60e51b815260206004820152602060248201527f4f776e61626c653a2063616c6c6572206973206e6f7420746865206f776e65726044820152fd5b609754906001600160a01b0380911691826001600160a01b0319821617609755167f8be0079c531659141344cd1fd0a4f28419497f9722a3daafe3b4186f6b6457e0600080a3565b1561260557565b60405162461bcd60e51b815260206004820152602c60248201527f46756e6374696f6e206d7573742062652063616c6c6564207468726f7567682060448201527f64656c656761746563616c6c00000000000000000000000000000000000000006064820152608490fd5b1561267757565b60405162461bcd60e51b815260206004820152602c60248201527f46756e6374696f6e206d7573742062652063616c6c6564207468726f7567682060448201527f6163746976652070726f787900000000000000000000000000000000000000006064820152608490fd5b803b15612725576001600160a01b037f360894a13ba1a3210667c828492db98dca3e2076cc3735a920a3ca505d382bbc91166001600160a01b0319825416179055565b60405162461bcd60e51b815260206004820152602d60248201527f455243313936373a206e657720696d706c656d656e746174696f6e206973206e60448201527f6f74206120636f6e7472616374000000000000000000000000000000000000006064820152608490fd5b90600182811c921680156127c0575b60208310146127aa57565b634e487b7160e01b600052602260045260246000fd5b91607f169161279f565b919082018092116127d757565b634e487b7160e01b600052601160045260246000fd5b6001600160a01b0380911691821561289e571691821561284e5760207f8c5be1e5ebec7d5bd14f71427d1e84f3dd0314c0f7b2291e5b200ac8c7c3b925918360005260fc8252604060002085600052825280604060002055604051908152a3565b60405162461bcd60e51b815260206004820152602260248201527f45524332303a20617070726f766520746f20746865207a65726f206164647265604482015261737360f01b6064820152608490fd5b60405162461bcd60e51b8152602060048201526024808201527f45524332303a20617070726f76652066726f6d20746865207a65726f206164646044820152637265737360e01b6064820152608490fd5b909190156128fb575090565b81511561290b5750805190602001fd5b60405162461bcd60e51b81529081906129279060048301612473565b0390fd5b60001981146127d75760010190565b805182101561294e5760209160051b010190565b634e487b7160e01b600052603260045260246000fd5b1561296b57565b60405162461bcd60e51b815260206004820152602b60248201527f496e697469616c697a61626c653a20636f6e7472616374206973206e6f74206960448201527f6e697469616c697a696e670000000000000000000000000000000000000000006064820152608490fd5b6001600160a01b0316908115612a35577fddf252ad1be2c89b69c2b068fc378daa952ba7f163c4a11628f55a4df523b3ef602082612a1860009460fd546127ca565b60fd5584845260fb825260408420818154019055604051908152a3565b60405162461bcd60e51b815260206004820152601f60248201527f45524332303a206d696e7420746f20746865207a65726f2061646472657373006044820152606490fd5b919081101561294e5760051b0190565b356001600160a01b038116810361022d5790565b818102929181159184041417156127d757565b8115612abb570490565b634e487b7160e01b600052601260045260246000fd5b612ae261012d5461012e5490612a9e565b61013254908142034281116127d757601881029281840460181490421417156127d7576105a0810292808404603c14901517156127d75762015180810292808404603c14901517156127d7576305265c0002918083046103e814901517156127d757612b5b91612b5191612ab1565b61012f5490612a9e565b90565b15612b6557565b60405162461bcd60e51b815260206004820152602a60248201527f55736572206973206e6f742077686974656c697374656420746f207472616e7360448201527f66657220746f6b656e73000000000000000000000000000000000000000000006064820152608490fd5b15612bd757565b60405162461bcd60e51b815260206004820152602960248201527f55736572206973206e6f742077686974656c697374656420746f20726563656960448201527f766520746f6b656e7300000000000000000000000000000000000000000000006064820152608490fd5b6001600160a01b03809116918215612d765716918215612d2557600082815260fb602052604081205491808310612cba57604082827fddf252ad1be2c89b69c2b068fc378daa952ba7f163c4a11628f55a4df523b3ef95876020965260fb8652038282205586815220818154019055604051908152a3565b60405162461bcd60e51b815260206004820152602660248201527f45524332303a207472616e7366657220616d6f756e742065786365656473206260448201527f616c616e636500000000000000000000000000000000000000000000000000006064820152608490fd5b60405162461bcd60e51b815260206004820152602360248201527f45524332303a207472616e7366657220746f20746865207a65726f206164647260448201526265737360e81b6064820152608490fd5b60405162461bcd60e51b815260206004820152602560248201527f45524332303a207472616e736665722066726f6d20746865207a65726f20616460448201527f64726573730000000000000000000000000000000000000000000000000000006064820152608490fdfea26469706673582212205922492b48a2daee67cee13742e19b15042b2110aaa93481147466b71a7b0cf764736f6c63430008110033",
  "linkReferences": {},
  "deployedLinkReferences": {}
}