{
  "_format": "hh-sol-artifact-1",
  "contractName": "LSAN",
  "sourceName": "src/alpha/Token.sol",
  "abi": [
    {
      "anonymous": false,
      "inputs": [
        {
          "indexed": false,
          "internalType": "address",
          "name": "previousAdmin",
          "type": "address"
        },
        {
          "indexed": false,
          "internalType": "address",
          "name": "newAdmin",
          "type": "address"
        }
      ],
      "name": "AdminChanged",
      "type": "event"
    },
    {
      "anonymous": false,
      "inputs": [
        {
          "indexed": true,
          "internalType": "address",
          "name": "owner",
          "type": "address"
        },
        {
          "indexed": true,
          "internalType": "address",
          "name": "spender",
          "type": "address"
        },
        {
          "indexed": false,
          "internalType": "uint256",
          "name": "value",
          "type": "uint256"
        }
      ],
      "name": "Approval",
      "type": "event"
    },
    {
      "anonymous": false,
      "inputs": [
        {
          "indexed": true,
          "internalType": "address",
          "name": "beacon",
          "type": "address"
        }
      ],
      "name": "BeaconUpgraded",
      "type": "event"
    },
    {
      "anonymous": false,
      "inputs": [
        {
          "indexed": false,
          "internalType": "uint8",
          "name": "version",
          "type": "uint8"
        }
      ],
      "name": "Initialized",
      "type": "event"
    },
    {
      "anonymous": false,
      "inputs": [
        {
          "indexed": true,
          "internalType": "address",
          "name": "previousOwner",
          "type": "address"
        },
        {
          "indexed": true,
          "internalType": "address",
          "name": "newOwner",
          "type": "address"
        }
      ],
      "name": "OwnershipTransferred",
      "type": "event"
    },
    {
      "anonymous": false,
      "inputs": [
        {
          "indexed": true,
          "internalType": "address",
          "name": "from",
          "type": "address"
        },
        {
          "indexed": true,
          "internalType": "address",
          "name": "to",
          "type": "address"
        },
        {
          "indexed": false,
          "internalType": "uint256",
          "name": "value",
          "type": "uint256"
        }
      ],
      "name": "Transfer",
      "type": "event"
    },
    {
      "anonymous": false,
      "inputs": [
        {
          "indexed": true,
          "internalType": "address",
          "name": "implementation",
          "type": "address"
        }
      ],
      "name": "Upgraded",
      "type": "event"
    },
    {
      "inputs": [],
      "name": "DEPLOYED_TIME",
      "outputs": [
        {
          "internalType": "uint256",
          "name": "",
          "type": "uint256"
        }
      ],
      "stateMutability": "view",
      "type": "function"
    },
    {
      "inputs": [],
      "name": "SAFE_ADDRESS",
      "outputs": [
        {
          "internalType": "address payable",
          "name": "",
          "type": "address"
        }
      ],
      "stateMutability": "view",
      "type": "function"
    },
    {
      "inputs": [
        {
          "internalType": "address",
          "name": "owner",
          "type": "address"
        },
        {
          "internalType": "address",
          "name": "spender",
          "type": "address"
        }
      ],
      "name": "allowance",
      "outputs": [
        {
          "internalType": "uint256",
          "name": "",
          "type": "uint256"
        }
      ],
      "stateMutability": "view",
      "type": "function"
    },
    {
      "inputs": [
        {
          "internalType": "address",
          "name": "spender",
          "type": "address"
        },
        {
          "internalType": "uint256",
          "name": "amount",
          "type": "uint256"
        }
      ],
      "name": "approve",
      "outputs": [
        {
          "internalType": "bool",
          "name": "",
          "type": "bool"
        }
      ],
      "stateMutability": "nonpayable",
      "type": "function"
    },
    {
      "inputs": [
        {
          "internalType": "address",
          "name": "account",
          "type": "address"
        }
      ],
      "name": "balanceOf",
      "outputs": [
        {
          "internalType": "uint256",
          "name": "",
          "type": "uint256"
        }
      ],
      "stateMutability": "view",
      "type": "function"
    },
    {
      "inputs": [
        {
          "internalType": "address",
          "name": "account",
          "type": "address"
        },
        {
          "internalType": "uint256",
          "name": "amount",
          "type": "uint256"
        }
      ],
      "name": "burn",
      "outputs": [],
      "stateMutability": "nonpayable",
      "type": "function"
    },
    {
      "inputs": [],
      "name": "decimals",
      "outputs": [
        {
          "internalType": "uint8",
          "name": "",
          "type": "uint8"
        }
      ],
      "stateMutability": "view",
      "type": "function"
    },
    {
      "inputs": [
        {
          "internalType": "address",
          "name": "spender",
          "type": "address"
        },
        {
          "internalType": "uint256",
          "name": "subtractedValue",
          "type": "uint256"
        }
      ],
      "name": "decreaseAllowance",
      "outputs": [
        {
          "internalType": "bool",
          "name": "",
          "type": "bool"
        }
      ],
      "stateMutability": "nonpayable",
      "type": "function"
    },
    {
      "inputs": [],
      "name": "destroy",
      "outputs": [],
      "stateMutability": "nonpayable",
      "type": "function"
    },
    {
      "inputs": [],
      "name": "getTokenPrice",
      "outputs": [
        {
          "internalType": "uint256",
          "name": "lsanPrice",
          "type": "uint256"
        }
      ],
      "stateMutability": "view",
      "type": "function"
    },
    {
      "inputs": [
        {
          "internalType": "address",
          "name": "spender",
          "type": "address"
        },
        {
          "internalType": "uint256",
          "name": "addedValue",
          "type": "uint256"
        }
      ],
      "name": "increaseAllowance",
      "outputs": [
        {
          "internalType": "bool",
          "name": "",
          "type": "bool"
        }
      ],
      "stateMutability": "nonpayable",
      "type": "function"
    },
    {
      "inputs": [
        {
          "internalType": "address[]",
          "name": "initialWhitelist",
          "type": "address[]"
        },
        {
          "internalType": "address",
          "name": "_safeAddress",
          "type": "address"
        },
        {
          "internalType": "address",
          "name": "_nodeManagerAddress",
          "type": "address"
        }
      ],
      "name": "initialize",
      "outputs": [],
      "stateMutability": "nonpayable",
      "type": "function"
    },
    {
      "inputs": [],
      "name": "maticPerByte",
      "outputs": [
        {
          "internalType": "uint256",
          "name": "",
          "type": "uint256"
        }
      ],
      "stateMutability": "view",
      "type": "function"
    },
    {
      "inputs": [],
      "name": "minimumDeposit",
      "outputs": [
        {
          "internalType": "uint256",
          "name": "",
          "type": "uint256"
        }
      ],
      "stateMutability": "view",
      "type": "function"
    },
    {
      "inputs": [],
      "name": "mint",
      "outputs": [],
      "stateMutability": "payable",
      "type": "function"
    },
    {
      "inputs": [
        {
          "internalType": "address",
          "name": "account",
          "type": "address"
        },
        {
          "internalType": "uint256",
          "name": "amount",
          "type": "uint256"
        }
      ],
      "name": "mintTokens",
      "outputs": [],
      "stateMutability": "nonpayable",
      "type": "function"
    },
    {
      "inputs": [],
      "name": "multiplier",
      "outputs": [
        {
          "internalType": "uint256",
          "name": "",
          "type": "uint256"
        }
      ],
      "stateMutability": "view",
      "type": "function"
    },
    {
      "inputs": [],
      "name": "name",
      "outputs": [
        {
          "internalType": "string",
          "name": "",
          "type": "string"
        }
      ],
      "stateMutability": "view",
      "type": "function"
    },
    {
      "inputs": [],
      "name": "nodeManagerAddress",
      "outputs": [
        {
          "internalType": "address",
          "name": "",
          "type": "address"
        }
      ],
      "stateMutability": "view",
      "type": "function"
    },
    {
      "inputs": [],
      "name": "owner",
      "outputs": [
        {
          "internalType": "address",
          "name": "",
          "type": "address"
        }
      ],
      "stateMutability": "view",
      "type": "function"
    },
    {
      "inputs": [],
      "name": "proxiableUUID",
      "outputs": [
        {
          "internalType": "bytes32",
          "name": "",
          "type": "bytes32"
        }
      ],
      "stateMutability": "view",
      "type": "function"
    },
    {
      "inputs": [],
      "name": "renounceOwnership",
      "outputs": [],
      "stateMutability": "nonpayable",
      "type": "function"
    },
    {
      "inputs": [
        {
          "internalType": "uint256",
          "name": "_maticPerByte",
          "type": "uint256"
        }
      ],
      "name": "setMaticPerByte",
      "outputs": [],
      "stateMutability": "nonpayable",
      "type": "function"
    },
    {
      "inputs": [
        {
          "internalType": "uint256",
          "name": "_minimumDeposit",
          "type": "uint256"
        }
      ],
      "name": "setMinimumDeposit",
      "outputs": [],
      "stateMutability": "nonpayable",
      "type": "function"
    },
    {
      "inputs": [
        {
          "internalType": "uint256",
          "name": "_multiplier",
          "type": "uint256"
        }
      ],
      "name": "setMultipler",
      "outputs": [],
      "stateMutability": "nonpayable",
      "type": "function"
    },
    {
      "inputs": [
        {
          "internalType": "address",
          "name": "_nodeManagerAddress",
          "type": "address"
        }
      ],
      "name": "setNodeManagerAddress",
      "outputs": [],
      "stateMutability": "nonpayable",
      "type": "function"
    },
    {
      "inputs": [
        {
          "internalType": "uint256",
          "name": "_totalBytesStored",
          "type": "uint256"
        }
      ],
      "name": "setTotalBytesStored",
      "outputs": [],
      "stateMutability": "nonpayable",
      "type": "function"
    },
    {
      "inputs": [],
      "name": "symbol",
      "outputs": [
        {
          "internalType": "string",
          "name": "",
          "type": "string"
        }
      ],
      "stateMutability": "view",
      "type": "function"
    },
    {
      "inputs": [],
      "name": "totalBytesStored",
      "outputs": [
        {
          "internalType": "uint256",
          "name": "",
          "type": "uint256"
        }
      ],
      "stateMutability": "view",
      "type": "function"
    },
    {
      "inputs": [],
      "name": "totalSupply",
      "outputs": [
        {
          "internalType": "uint256",
          "name": "",
          "type": "uint256"
        }
      ],
      "stateMutability": "view",
      "type": "function"
    },
    {
      "inputs": [
        {
          "internalType": "address",
          "name": "_to",
          "type": "address"
        },
        {
          "internalType": "uint256",
          "name": "_amount",
          "type": "uint256"
        }
      ],
      "name": "transfer",
      "outputs": [
        {
          "internalType": "bool",
          "name": "",
          "type": "bool"
        }
      ],
      "stateMutability": "nonpayable",
      "type": "function"
    },
    {
      "inputs": [
        {
          "internalType": "address",
          "name": "_from",
          "type": "address"
        },
        {
          "internalType": "address",
          "name": "_to",
          "type": "address"
        },
        {
          "internalType": "uint256",
          "name": "amount",
          "type": "uint256"
        }
      ],
      "name": "transferFrom",
      "outputs": [
        {
          "internalType": "bool",
          "name": "",
          "type": "bool"
        }
      ],
      "stateMutability": "nonpayable",
      "type": "function"
    },
    {
      "inputs": [
        {
          "internalType": "address",
          "name": "",
          "type": "address"
        }
      ],
      "name": "transferFromWhitelist",
      "outputs": [
        {
          "internalType": "bool",
          "name": "",
          "type": "bool"
        }
      ],
      "stateMutability": "view",
      "type": "function"
    },
    {
      "inputs": [
        {
          "internalType": "address",
          "name": "newOwner",
          "type": "address"
        }
      ],
      "name": "transferOwnership",
      "outputs": [],
      "stateMutability": "nonpayable",
      "type": "function"
    },
    {
      "inputs": [
        {
          "internalType": "address",
          "name": "",
          "type": "address"
        }
      ],
      "name": "transferToWhitelist",
      "outputs": [
        {
          "internalType": "bool",
          "name": "",
          "type": "bool"
        }
      ],
      "stateMutability": "view",
      "type": "function"
    },
    {
      "inputs": [],
      "name": "treasury",
      "outputs": [
        {
          "internalType": "uint256",
          "name": "",
          "type": "uint256"
        }
      ],
      "stateMutability": "view",
      "type": "function"
    },
    {
      "inputs": [
        {
          "internalType": "address",
          "name": "account",
          "type": "address"
        }
      ],
      "name": "unWhitelistTransferFrom",
      "outputs": [],
      "stateMutability": "nonpayable",
      "type": "function"
    },
    {
      "inputs": [
        {
          "internalType": "address",
          "name": "account",
          "type": "address"
        }
      ],
      "name": "unWhitelistTransferTo",
      "outputs": [],
      "stateMutability": "nonpayable",
      "type": "function"
    },
    {
      "inputs": [
        {
          "internalType": "address",
          "name": "newImplementation",
          "type": "address"
        }
      ],
      "name": "upgradeTo",
      "outputs": [],
      "stateMutability": "nonpayable",
      "type": "function"
    },
    {
      "inputs": [
        {
          "internalType": "address",
          "name": "newImplementation",
          "type": "address"
        },
        {
          "internalType": "bytes",
          "name": "data",
          "type": "bytes"
        }
      ],
      "name": "upgradeToAndCall",
      "outputs": [],
      "stateMutability": "payable",
      "type": "function"
    },
    {
      "inputs": [
        {
          "internalType": "address",
          "name": "account",
          "type": "address"
        }
      ],
      "name": "whitelistTransferFrom",
      "outputs": [],
      "stateMutability": "nonpayable",
      "type": "function"
    },
    {
      "inputs": [
        {
          "internalType": "address",
          "name": "account",
          "type": "address"
        }
      ],
      "name": "whitelistTransferTo",
      "outputs": [],
      "stateMutability": "nonpayable",
      "type": "function"
    },
    {
      "inputs": [
        {
          "internalType": "uint256",
          "name": "amount",
          "type": "uint256"
        }
      ],
      "name": "withdraw",
      "outputs": [],
      "stateMutability": "nonpayable",
      "type": "function"
    }
  ],
  "bytecode": "0x60a08060405234610031573060805261286c908161003782396080518181816112340152818161136c01526117e50152f35b600080fdfe608080604052600436101561001357600080fd5b60003560e01c90816306fdde0314611ed557508063095ea7b314611eaf5780631249c58b14611d2657806318160ddd14611d0857806319058d1414611ce95780631b3ed72214611cca57806323b872dd14611b415780632e1a7d4d14611a91578063313ce56714611a755780633659cfe6146117c0578063385d633f1461179e578063395093511461174c5780633d794a771461169f5780634b94f50e1461167c5780634dc29ca01461165d5780634f1ef286146112ef57806352d1902d1461121957806361d027b3146111fa57806363149bfd146111b8578063636bfbab14611199578063650177961461117a57806367c1ed09146110cf57806370a0823114611095578063715018a61461103a57806373176e5f1461101257806383197ef014610fec57806385d38f8014610fc45780638da5cb5b14610f9d57806390482d72146108d657806395d89b41146107f85780639dc29fac146106c8578063a457c2d714610608578063a9059cbb1461059a578063afc2afa614610578578063c11b0d4914610538578063d4a046be1461046f578063d95b787c1461044d578063dd62ed3e146103fb578063e449b6ee14610332578063e78ec42e14610310578063f0dda65c146102e3578063f2fde38b1461023d5763f6c99895146101f857600080fd5b34610238576020366003190112610238576001600160a01b03610219611fc1565b16600052610136602052602060ff604060002054166040519015158152f35b600080fd5b3461023857602036600319011261023857610256611fc1565b61025e612063565b6001600160a01b0381161561027857610276906120bb565b005b60405162461bcd60e51b815260206004820152602660248201527f4f776e61626c653a206e6577206f776e657220697320746865207a65726f206160448201527f64647265737300000000000000000000000000000000000000000000000000006064820152608490fd5b34610238576040366003190112610238576102766102ff611fc1565b610307612063565b602435906124b6565b3461023857602036600319011261023857610329612063565b60043561013055005b34610238576020366003190112610238576001600160a01b03610353611fc1565b61035b612063565b1680600052610136908160205260ff60406000205416610390576000526020526040600020600160ff19825416179055600080f35b60405162461bcd60e51b815260206004820152602860248201527f4163636f756e7420616c72656164792077686974656c6973746564206173207260448201527f6563697069656e740000000000000000000000000000000000000000000000006064820152608490fd5b3461023857604036600319011261023857610414611fc1565b61041c611fd7565b906001600160a01b0380911660005260fc602052604060002091166000526020526020604060002054604051908152f35b3461023857602036600319011261023857610466612063565b60043561012e55005b34610238576020366003190112610238576001600160a01b03610490611fc1565b610498612063565b1680600052610135908160205260ff604060002054166104cd576000526020526040600020600160ff19825416179055600080f35b60405162461bcd60e51b815260206004820152602560248201527f4164647265737320616c72656164792077686974656c6973746564206173207360448201527f656e6465720000000000000000000000000000000000000000000000000000006064820152608490fd5b34610238576020366003190112610238576001600160a01b03610559611fc1565b16600052610135602052602060ff604060002054166040519015158152f35b3461023857602036600319011261023857610591612063565b60043561012f55005b34610238576040366003190112610238576105e36105b6611fc1565b6001600160a01b03806101315416908216148015906105ee575b6105d990612625565b6024359033612697565b602060405160018152f35b50336000908152610135602052604090205460ff166105d0565b3461023857604036600319011261023857610621611fc1565b602435903360005260fc60205260406000206001600160a01b0382166000526020526040600020549180831061065d576105e3920390336122dc565b60405162461bcd60e51b815260206004820152602560248201527f45524332303a2064656372656173656420616c6c6f77616e63652062656c6f7760448201527f207a65726f0000000000000000000000000000000000000000000000000000006064820152608490fd5b34610238576040366003190112610238576106e1611fc1565b6001600160a01b03602435916106f5612063565b1680156107a9578060005260fb60205260406000205491808310610759576020817fddf252ad1be2c89b69c2b068fc378daa952ba7f163c4a11628f55a4df523b3ef9260009585875260fb84520360408620558060fd540360fd55604051908152a3005b60405162461bcd60e51b815260206004820152602260248201527f45524332303a206275726e20616d6f756e7420657863656564732062616c616e604482015261636560f01b6064820152608490fd5b60405162461bcd60e51b815260206004820152602160248201527f45524332303a206275726e2066726f6d20746865207a65726f206164647265736044820152607360f81b6064820152608490fd5b3461023857600036600319011261023857604051600060ff5461081a81612295565b808452906001908181169081156108af5750600114610854575b6108508461084481860382612025565b60405191829182611f78565b0390f35b60ff600090815292507fe08ec2af2cfc251225e1968fd6ca21e4044f129bffa95bac3503be8bdb30a3675b82841061089757505050810160200161084482610834565b8054602085870181019190915290930192810161087f565b60ff191660208087019190915292151560051b850190920192506108449150839050610834565b346102385760603660031901126102385760043567ffffffffffffffff811161023857366023820112156102385780600401359067ffffffffffffffff8211610d87578160051b906040519261092f6020840185612025565b8352602460208401928201019036821161023857602401915b818310610f7d5783610958611fd7565b604435906001600160a01b0382168203610238576000549260ff8460081c161593848095610f70575b8015610f59575b15610eee5760ff19811660011760005584610edc575b506109b960ff60005460081c166109b481612444565b612444565b6109c2336120bb565b6040516109ce81612009565b601c81527f4c6f6773746f726520416c706861204e6574776f726b20546f6b656e00000000602082015260405190610a0582612009565b60048252632629a0a760e11b6020830152610a2b60ff60005460081c166109b481612444565b80519067ffffffffffffffff8211610d87578190610a4a60fe54612295565b601f8111610e32575b50602090601f8311600114610da857600092610d9d575b50508160011b916000199060031b1c19161760fe555b80519067ffffffffffffffff8211610d87578190610a9f60ff54612295565b601f8111610cdd575b50602090601f8311600114610c5357600092610c48575b50508160011b916000199060031b1c19161760ff555b610af360ff60005460081c16610aea81612444565b6109b481612444565b600160c95580519060005b828110610b89575050506001600160a01b0319906001600160a01b0361013291168282541617905542610133556001600160a01b03610131921690825416179055600161012f55600061013055610b5157005b61ff0019600054166000557f7f26b83ff96e1f2b6a682f133852f6798a09c465da95921460cefb3847402498602060405160018152a1005b6001600160a01b03610b9b828461241a565b5116610ba5612063565b8060005261013560205260ff604060002054166104cd576000526101356020526040600020600160ff198254161790556001600160a01b03610be7828461241a565b5116610bf1612063565b8060005261013660205260ff60406000205416610390576000526101366020526040600020600160ff198254161790556000198114610c3257600101610afe565b634e487b7160e01b600052601160045260246000fd5b015190508680610abf565b925060ff6000527fe08ec2af2cfc251225e1968fd6ca21e4044f129bffa95bac3503be8bdb30a367906000935b601f1984168510610cc2576001945083601f19811610610ca9575b505050811b0160ff55610ad5565b015160001960f88460031b161c19169055868080610c9b565b81810151835560209485019460019093019290910190610c80565b90915060ff600052601f830160051c7fe08ec2af2cfc251225e1968fd6ca21e4044f129bffa95bac3503be8bdb30a3670160208410610d60575b908392915b601f820160051c7fe08ec2af2cfc251225e1968fd6ca21e4044f129bffa95bac3503be8bdb30a367018110610d515750610aa8565b60008155849350600101610d1c565b507fe08ec2af2cfc251225e1968fd6ca21e4044f129bffa95bac3503be8bdb30a367610d17565b634e487b7160e01b600052604160045260246000fd5b015190508780610a6a565b925060fe6000527f54075df80ec1ae6ac9100e1fd0ebf3246c17f5c933137af392011f4c5f61513a906000935b601f1984168510610e17576001945083601f19811610610dfe575b505050811b0160fe55610a80565b015160001960f88460031b161c19169055878080610df0565b81810151835560209485019460019093019290910190610dd5565b90915060fe600052601f830160051c7f54075df80ec1ae6ac9100e1fd0ebf3246c17f5c933137af392011f4c5f61513a0160208410610eb5575b908392915b601f820160051c7f54075df80ec1ae6ac9100e1fd0ebf3246c17f5c933137af392011f4c5f61513a018110610ea65750610a53565b60008155849350600101610e71565b507f54075df80ec1ae6ac9100e1fd0ebf3246c17f5c933137af392011f4c5f61513a610e6c565b61ffff1916610101176000558461099e565b60405162461bcd60e51b815260206004820152602e60248201527f496e697469616c697a61626c653a20636f6e747261637420697320616c72656160448201527f647920696e697469616c697a65640000000000000000000000000000000000006064820152608490fd5b50303b1580156109885750600160ff821614610988565b50600160ff821610610981565b82356001600160a01b038116810361023857815260209283019201610948565b346102385760003660031901126102385760206001600160a01b0360975416604051908152f35b346102385760003660031901126102385760206001600160a01b036101325416604051908152f35b34610238576000366003190112610238576001600160a01b036101325416330361023857005b346102385760003660031901126102385760206001600160a01b036101315416604051908152f35b3461023857600036600319011261023857611053612063565b60006001600160a01b036097546001600160a01b03198116609755167f8be0079c531659141344cd1fd0a4f28419497f9722a3daafe3b4186f6b6457e08280a3005b34610238576020366003190112610238576001600160a01b036110b6611fc1565b1660005260fb6020526020604060002054604051908152f35b34610238576020366003190112610238576001600160a01b036110f0611fc1565b6110f8612063565b1680600052610135908160205260ff604060002054161561112b57600052602052604060002060ff198154169055600080f35b60405162461bcd60e51b815260206004820152602160248201527f41646472657373206e6f742077686974656c69737465642061732073656e64656044820152603960f91b6064820152608490fd5b3461023857600036600319011261023857602061013354604051908152f35b3461023857600036600319011261023857602061013054604051908152f35b34610238576020366003190112610238576111d1611fc1565b6111d9612063565b6001600160a01b0361013191166001600160a01b0319825416179055600080f35b3461023857600036600319011261023857602061013454604051908152f35b34610238576000366003190112610238576001600160a01b037f00000000000000000000000000000000000000000000000000000000000000001630036112845760206040517f360894a13ba1a3210667c828492db98dca3e2076cc3735a920a3ca505d382bbc8152f35b60405162461bcd60e51b815260206004820152603860248201527f555550535570677261646561626c653a206d757374206e6f742062652063616c60448201527f6c6564207468726f7567682064656c656761746563616c6c00000000000000006064820152608490fd5b604036600319011261023857611303611fc1565b602490813567ffffffffffffffff811161023857366023820112156102385780600401359061133182612047565b61133e6040519182612025565b82815260209283820192368783830101116102385781600092888793018637830101526001600160a01b03807f0000000000000000000000000000000000000000000000000000000000000000169061139982301415612103565b6113c87f360894a13ba1a3210667c828492db98dca3e2076cc3735a920a3ca505d382bbc928284541614612175565b6113d0612063565b7f4910fdfa16fed3260ed0e7147f7cc6da11a60208b5b9406d12a635614ffd91435460ff161561140957505050505061027691506121e7565b85949516906040516352d1902d60e01b81528681600481865afa6000918161162e575b5061148c5760405162461bcd60e51b815260048101889052602e818a01527f45524331393637557067726164653a206e657720696d706c656d656e7461746960448201526d6f6e206973206e6f74205555505360901b6064820152608490fd5b969192939496036115d9576114a0866121e7565b604051917fbc7cd75a20ee27fd9adebab32041f755214dbc6bffa90cc0225b39da2e5c2d3b600080a28251158015906115d1575b6114da57005b853b1561158157505061027693600092839251915af43d15611579573d9061150182612047565b9161150f6040519384612025565b82523d60008484013e5b7f416464726573733a206c6f772d6c6576656c2064656c65676174652063616c6c6040519361154785611fed565b602785528401527f206661696c65640000000000000000000000000000000000000000000000000060408401526123de565b606090611519565b62461bcd60e51b8252600482018590526026908201527f416464726573733a2064656c65676174652063616c6c20746f206e6f6e2d636f6044820152651b9d1c9858dd60d21b6064820152608490fd5b5060016114d4565b8460296084926040519262461bcd60e51b845260048401528201527f45524331393637557067726164653a20756e737570706f727465642070726f786044820152681a58589b195555525160ba1b6064820152fd5b9091508781813d8311611656575b6116468183612025565b810103126102385751908961142c565b503d61163c565b3461023857600036600319011261023857602061012d54604051908152f35b3461023857600036600319011261023857602061169761259a565b604051908152f35b34610238576020366003190112610238576001600160a01b036116c0611fc1565b6116c8612063565b1680600052610136908160205260ff60406000205416156116fb57600052602052604060002060ff198154169055600080f35b60405162461bcd60e51b8152602060048201526024808201527f4163636f756e74206e6f742077686974656c69737465642061732072656369706044820152631a595b9d60e21b6064820152608490fd5b34610238576040366003190112610238576105e3611768611fc1565b3360005260fc60205260406000206001600160a01b0382166000526020526117976024356040600020546122cf565b90336122dc565b34610238576020366003190112610238576117b7612063565b60043561012d55005b3461023857602080600319360112610238576117da611fc1565b6001600160a01b03807f00000000000000000000000000000000000000000000000000000000000000001661181181301415612103565b6118407f360894a13ba1a3210667c828492db98dca3e2076cc3735a920a3ca505d382bbc918383541614612175565b611848612063565b604051908482019282841067ffffffffffffffff851117610d8757836040526000835260ff7f4910fdfa16fed3260ed0e7147f7cc6da11a60208b5b9406d12a635614ffd914354166000146118a5575050505061027691506121e7565b8416906040516352d1902d60e01b81528681600481865afa60009181611a46575b506119275760405162461bcd60e51b815260048101889052602e60248201527f45524331393637557067726164653a206e657720696d706c656d656e7461746960448201526d6f6e206973206e6f74205555505360901b6064820152608490fd5b036119ef57611935846121e7565b604051907fbc7cd75a20ee27fd9adebab32041f755214dbc6bffa90cc0225b39da2e5c2d3b600080a28151158015906119e7575b61196f57005b833b1561199657506102769392600092839251915af43d15611579573d9061150182612047565b62461bcd60e51b815260048101859052602660248201527f416464726573733a2064656c65676174652063616c6c20746f206e6f6e2d636f6044820152651b9d1c9858dd60d21b6064820152608490fd5b506000611969565b60405162461bcd60e51b815260048101869052602960248201527f45524331393637557067726164653a20756e737570706f727465642070726f786044820152681a58589b195555525160ba1b6064820152608490fd5b9091508781813d8311611a6e575b611a5e8183612025565b81010312610238575190886118c6565b503d611a54565b3461023857600036600319011261023857602060405160128152f35b3461023857602036600319011261023857600435611aad612063565b804710611afc57600080808093610134611ac882825461255a565b90556001600160a01b036101325416828215611af3575bf115611ae757005b6040513d6000823e3d90fd5b506108fc611adf565b60405162461bcd60e51b815260206004820152601d60248201527f496e73756666696369656e7420636f6e74726163742062616c616e63650000006044820152606490fd5b3461023857606036600319011261023857611b5a611fc1565b611b62611fd7565b604435906001600160a01b0380610131541681851691818314801590611cb1575b15611c4657831614801590611c2c575b611b9c90612625565b60005260fc602052604060002033600052602052604060002054926000198403611bcb575b6105e39350612697565b828410611be757611be2836105e3950333836122dc565b611bc1565b60405162461bcd60e51b815260206004820152601d60248201527f45524332303a20696e73756666696369656e7420616c6c6f77616e63650000006044820152606490fd5b50336000908152610135602052604090205460ff16611b93565b60405162461bcd60e51b815260206004820152603460248201527f55736572206973206e6f742077686974656c697374656420746f207472616e7360448201527f66657246726f6d207468697320616464726573730000000000000000000000006064820152608490fd5b503360005261013660205260ff60406000205416611b83565b3461023857600036600319011261023857602061012f54604051908152f35b3461023857600036600319011261023857602061012e54604051908152f35b3461023857600036600319011261023857602060fd54604051908152f35b600036600319011261023857600260c95414611e6a57600260c95561013054341115611e195761012d5415611dd45761012e5415611d8f57611d88611d72611d6c61259a565b3461257a565b610134611d803482546122cf565b9055336124b6565b600160c955005b60405162461bcd60e51b815260206004820152601560248201527f746f74616c427974657353746f726564203c3d203000000000000000000000006044820152606490fd5b60405162461bcd60e51b815260206004820152601160248201527f6d6174696350657242797465203c3d20300000000000000000000000000000006044820152606490fd5b60405162461bcd60e51b8152602060048201526024808201527f73656e7420616d6f756e74206c657373207468616e206d696e696d756d20616d6044820152631bdd5b9d60e21b6064820152608490fd5b60405162461bcd60e51b815260206004820152601f60248201527f5265656e7472616e637947756172643a207265656e7472616e742063616c6c006044820152606490fd5b34610238576040366003190112610238576105e3611ecb611fc1565b60243590336122dc565b3461023857600036600319011261023857600060fe54611ef481612295565b808452906001908181169081156108af5750600114611f1d576108508461084481860382612025565b60fe600090815292507f54075df80ec1ae6ac9100e1fd0ebf3246c17f5c933137af392011f4c5f61513a5b828410611f6057505050810160200161084482610834565b80546020858701810191909152909301928101611f48565b6020808252825181830181905290939260005b828110611fad57505060409293506000838284010152601f8019910116010190565b818101860151848201604001528501611f8b565b600435906001600160a01b038216820361023857565b602435906001600160a01b038216820361023857565b6060810190811067ffffffffffffffff821117610d8757604052565b6040810190811067ffffffffffffffff821117610d8757604052565b90601f8019910116810190811067ffffffffffffffff821117610d8757604052565b67ffffffffffffffff8111610d8757601f01601f191660200190565b6001600160a01b0360975416330361207757565b606460405162461bcd60e51b815260206004820152602060248201527f4f776e61626c653a2063616c6c6572206973206e6f7420746865206f776e65726044820152fd5b609754906001600160a01b0380911691826001600160a01b0319821617609755167f8be0079c531659141344cd1fd0a4f28419497f9722a3daafe3b4186f6b6457e0600080a3565b1561210a57565b60405162461bcd60e51b815260206004820152602c60248201527f46756e6374696f6e206d7573742062652063616c6c6564207468726f7567682060448201527f64656c656761746563616c6c00000000000000000000000000000000000000006064820152608490fd5b1561217c57565b60405162461bcd60e51b815260206004820152602c60248201527f46756e6374696f6e206d7573742062652063616c6c6564207468726f7567682060448201527f6163746976652070726f787900000000000000000000000000000000000000006064820152608490fd5b803b1561222a576001600160a01b037f360894a13ba1a3210667c828492db98dca3e2076cc3735a920a3ca505d382bbc91166001600160a01b0319825416179055565b60405162461bcd60e51b815260206004820152602d60248201527f455243313936373a206e657720696d706c656d656e746174696f6e206973206e60448201527f6f74206120636f6e7472616374000000000000000000000000000000000000006064820152608490fd5b90600182811c921680156122c5575b60208310146122af57565b634e487b7160e01b600052602260045260246000fd5b91607f16916122a4565b91908201809211610c3257565b6001600160a01b0380911691821561238d571691821561233d5760207f8c5be1e5ebec7d5bd14f71427d1e84f3dd0314c0f7b2291e5b200ac8c7c3b925918360005260fc8252604060002085600052825280604060002055604051908152a3565b60405162461bcd60e51b815260206004820152602260248201527f45524332303a20617070726f766520746f20746865207a65726f206164647265604482015261737360f01b6064820152608490fd5b60405162461bcd60e51b8152602060048201526024808201527f45524332303a20617070726f76652066726f6d20746865207a65726f206164646044820152637265737360e01b6064820152608490fd5b909190156123ea575090565b8151156123fa5750805190602001fd5b60405162461bcd60e51b81529081906124169060048301611f78565b0390fd5b805182101561242e5760209160051b010190565b634e487b7160e01b600052603260045260246000fd5b1561244b57565b60405162461bcd60e51b815260206004820152602b60248201527f496e697469616c697a61626c653a20636f6e7472616374206973206e6f74206960448201527f6e697469616c697a696e670000000000000000000000000000000000000000006064820152608490fd5b6001600160a01b0316908115612515577fddf252ad1be2c89b69c2b068fc378daa952ba7f163c4a11628f55a4df523b3ef6020826124f860009460fd546122cf565b60fd5584845260fb825260408420818154019055604051908152a3565b60405162461bcd60e51b815260206004820152601f60248201527f45524332303a206d696e7420746f20746865207a65726f2061646472657373006044820152606490fd5b91908203918211610c3257565b81810292918115918404141715610c3257565b8115612584570490565b634e487b7160e01b600052601260045260246000fd5b6125ab61012d5461012e5490612567565b6125b8610133544261255a565b90601882029180830460181481151715610c32576105a0810292808404603c1490151715610c325762015180810292808404603c1490151715610c32576305265c0002918083046103e81490151715610c3257612622916126189161257a565b61012f5490612567565b90565b1561262c57565b60405162461bcd60e51b815260206004820152603260248201527f55736572206973206e6f742077686974656c697374656420746f207472616e7360448201527f66657220746f20746865206164647265737300000000000000000000000000006064820152608490fd5b6001600160a01b038091169182156127cb571691821561277a57600082815260fb60205260408120549180831061270f57604082827fddf252ad1be2c89b69c2b068fc378daa952ba7f163c4a11628f55a4df523b3ef95876020965260fb8652038282205586815220818154019055604051908152a3565b60405162461bcd60e51b815260206004820152602660248201527f45524332303a207472616e7366657220616d6f756e742065786365656473206260448201527f616c616e636500000000000000000000000000000000000000000000000000006064820152608490fd5b60405162461bcd60e51b815260206004820152602360248201527f45524332303a207472616e7366657220746f20746865207a65726f206164647260448201526265737360e81b6064820152608490fd5b60405162461bcd60e51b815260206004820152602560248201527f45524332303a207472616e736665722066726f6d20746865207a65726f20616460448201527f64726573730000000000000000000000000000000000000000000000000000006064820152608490fdfea2646970667358221220dd6739a1647cbba05e79ce374316740f0e1540fe0f1192098106ac78467117ea64736f6c63430008110033",
  "linkReferences": {},
  "deployedLinkReferences": {}
}