{
  "_format": "hh-sol-artifact-1",
  "contractName": "LSAN",
  "sourceName": "src/alpha/Token.sol",
  "abi": [
    {
      "anonymous": false,
      "inputs": [
        {
          "indexed": false,
          "internalType": "address",
          "name": "previousAdmin",
          "type": "address"
        },
        {
          "indexed": false,
          "internalType": "address",
          "name": "newAdmin",
          "type": "address"
        }
      ],
      "name": "AdminChanged",
      "type": "event"
    },
    {
      "anonymous": false,
      "inputs": [
        {
          "indexed": true,
          "internalType": "address",
          "name": "owner",
          "type": "address"
        },
        {
          "indexed": true,
          "internalType": "address",
          "name": "spender",
          "type": "address"
        },
        {
          "indexed": false,
          "internalType": "uint256",
          "name": "value",
          "type": "uint256"
        }
      ],
      "name": "Approval",
      "type": "event"
    },
    {
      "anonymous": false,
      "inputs": [
        {
          "indexed": true,
          "internalType": "address",
          "name": "beacon",
          "type": "address"
        }
      ],
      "name": "BeaconUpgraded",
      "type": "event"
    },
    {
      "anonymous": false,
      "inputs": [
        {
          "indexed": false,
          "internalType": "uint8",
          "name": "version",
          "type": "uint8"
        }
      ],
      "name": "Initialized",
      "type": "event"
    },
    {
      "anonymous": false,
      "inputs": [
        {
          "indexed": true,
          "internalType": "address",
          "name": "previousOwner",
          "type": "address"
        },
        {
          "indexed": true,
          "internalType": "address",
          "name": "newOwner",
          "type": "address"
        }
      ],
      "name": "OwnershipTransferred",
      "type": "event"
    },
    {
      "anonymous": false,
      "inputs": [
        {
          "indexed": true,
          "internalType": "address",
          "name": "from",
          "type": "address"
        },
        {
          "indexed": true,
          "internalType": "address",
          "name": "to",
          "type": "address"
        },
        {
          "indexed": false,
          "internalType": "uint256",
          "name": "value",
          "type": "uint256"
        }
      ],
      "name": "Transfer",
      "type": "event"
    },
    {
      "anonymous": false,
      "inputs": [
        {
          "indexed": true,
          "internalType": "address",
          "name": "implementation",
          "type": "address"
        }
      ],
      "name": "Upgraded",
      "type": "event"
    },
    {
      "inputs": [],
      "name": "DEPLOYED_TIME",
      "outputs": [
        {
          "internalType": "uint256",
          "name": "",
          "type": "uint256"
        }
      ],
      "stateMutability": "view",
      "type": "function"
    },
    {
      "inputs": [],
      "name": "SAFE_ADDRESS",
      "outputs": [
        {
          "internalType": "address payable",
          "name": "",
          "type": "address"
        }
      ],
      "stateMutability": "view",
      "type": "function"
    },
    {
      "inputs": [
        {
          "internalType": "address",
          "name": "owner",
          "type": "address"
        },
        {
          "internalType": "address",
          "name": "spender",
          "type": "address"
        }
      ],
      "name": "allowance",
      "outputs": [
        {
          "internalType": "uint256",
          "name": "",
          "type": "uint256"
        }
      ],
      "stateMutability": "view",
      "type": "function"
    },
    {
      "inputs": [
        {
          "internalType": "address",
          "name": "spender",
          "type": "address"
        },
        {
          "internalType": "uint256",
          "name": "amount",
          "type": "uint256"
        }
      ],
      "name": "approve",
      "outputs": [
        {
          "internalType": "bool",
          "name": "",
          "type": "bool"
        }
      ],
      "stateMutability": "nonpayable",
      "type": "function"
    },
    {
      "inputs": [],
      "name": "balance",
      "outputs": [
        {
          "internalType": "uint256",
          "name": "",
          "type": "uint256"
        }
      ],
      "stateMutability": "view",
      "type": "function"
    },
    {
      "inputs": [
        {
          "internalType": "address",
          "name": "account",
          "type": "address"
        }
      ],
      "name": "balanceOf",
      "outputs": [
        {
          "internalType": "uint256",
          "name": "",
          "type": "uint256"
        }
      ],
      "stateMutability": "view",
      "type": "function"
    },
    {
      "inputs": [
        {
          "internalType": "address",
          "name": "account",
          "type": "address"
        },
        {
          "internalType": "uint256",
          "name": "amount",
          "type": "uint256"
        }
      ],
      "name": "burn",
      "outputs": [],
      "stateMutability": "nonpayable",
      "type": "function"
    },
    {
      "inputs": [],
      "name": "decimals",
      "outputs": [
        {
          "internalType": "uint8",
          "name": "",
          "type": "uint8"
        }
      ],
      "stateMutability": "view",
      "type": "function"
    },
    {
      "inputs": [
        {
          "internalType": "address",
          "name": "spender",
          "type": "address"
        },
        {
          "internalType": "uint256",
          "name": "subtractedValue",
          "type": "uint256"
        }
      ],
      "name": "decreaseAllowance",
      "outputs": [
        {
          "internalType": "bool",
          "name": "",
          "type": "bool"
        }
      ],
      "stateMutability": "nonpayable",
      "type": "function"
    },
    {
      "inputs": [],
      "name": "destroy",
      "outputs": [],
      "stateMutability": "nonpayable",
      "type": "function"
    },
    {
      "inputs": [],
      "name": "getTokenPrice",
      "outputs": [
        {
          "internalType": "uint256",
          "name": "lsanPrice",
          "type": "uint256"
        }
      ],
      "stateMutability": "view",
      "type": "function"
    },
    {
      "inputs": [
        {
          "internalType": "address",
          "name": "spender",
          "type": "address"
        },
        {
          "internalType": "uint256",
          "name": "addedValue",
          "type": "uint256"
        }
      ],
      "name": "increaseAllowance",
      "outputs": [
        {
          "internalType": "bool",
          "name": "",
          "type": "bool"
        }
      ],
      "stateMutability": "nonpayable",
      "type": "function"
    },
    {
      "inputs": [
        {
          "internalType": "address[]",
          "name": "initialWhitelist",
          "type": "address[]"
        },
        {
          "internalType": "address",
          "name": "_safeAddress",
          "type": "address"
        },
        {
          "internalType": "address",
          "name": "_nodeManagerAddress",
          "type": "address"
        }
      ],
      "name": "initialize",
      "outputs": [],
      "stateMutability": "nonpayable",
      "type": "function"
    },
    {
      "inputs": [],
      "name": "maticPerByte",
      "outputs": [
        {
          "internalType": "uint256",
          "name": "",
          "type": "uint256"
        }
      ],
      "stateMutability": "view",
      "type": "function"
    },
    {
      "inputs": [],
      "name": "minimumDeposit",
      "outputs": [
        {
          "internalType": "uint256",
          "name": "",
          "type": "uint256"
        }
      ],
      "stateMutability": "view",
      "type": "function"
    },
    {
      "inputs": [],
      "name": "mint",
      "outputs": [],
      "stateMutability": "payable",
      "type": "function"
    },
    {
      "inputs": [
        {
          "internalType": "address",
          "name": "account",
          "type": "address"
        },
        {
          "internalType": "uint256",
          "name": "amount",
          "type": "uint256"
        }
      ],
      "name": "mintTokens",
      "outputs": [],
      "stateMutability": "nonpayable",
      "type": "function"
    },
    {
      "inputs": [],
      "name": "multiplier",
      "outputs": [
        {
          "internalType": "uint256",
          "name": "",
          "type": "uint256"
        }
      ],
      "stateMutability": "view",
      "type": "function"
    },
    {
      "inputs": [],
      "name": "name",
      "outputs": [
        {
          "internalType": "string",
          "name": "",
          "type": "string"
        }
      ],
      "stateMutability": "view",
      "type": "function"
    },
    {
      "inputs": [],
      "name": "nodeManagerAddress",
      "outputs": [
        {
          "internalType": "address",
          "name": "",
          "type": "address"
        }
      ],
      "stateMutability": "view",
      "type": "function"
    },
    {
      "inputs": [],
      "name": "owner",
      "outputs": [
        {
          "internalType": "address",
          "name": "",
          "type": "address"
        }
      ],
      "stateMutability": "view",
      "type": "function"
    },
    {
      "inputs": [],
      "name": "proxiableUUID",
      "outputs": [
        {
          "internalType": "bytes32",
          "name": "",
          "type": "bytes32"
        }
      ],
      "stateMutability": "view",
      "type": "function"
    },
    {
      "inputs": [],
      "name": "renounceOwnership",
      "outputs": [],
      "stateMutability": "nonpayable",
      "type": "function"
    },
    {
      "inputs": [
        {
          "internalType": "uint256",
          "name": "_maticPerByte",
          "type": "uint256"
        }
      ],
      "name": "setMaticPerByte",
      "outputs": [],
      "stateMutability": "nonpayable",
      "type": "function"
    },
    {
      "inputs": [
        {
          "internalType": "uint256",
          "name": "_minimumDeposit",
          "type": "uint256"
        }
      ],
      "name": "setMinimumDeposit",
      "outputs": [],
      "stateMutability": "nonpayable",
      "type": "function"
    },
    {
      "inputs": [
        {
          "internalType": "uint256",
          "name": "_multiplier",
          "type": "uint256"
        }
      ],
      "name": "setMultipler",
      "outputs": [],
      "stateMutability": "nonpayable",
      "type": "function"
    },
    {
      "inputs": [
        {
          "internalType": "address",
          "name": "_nodeManagerAddress",
          "type": "address"
        }
      ],
      "name": "setNodeManagerAddress",
      "outputs": [],
      "stateMutability": "nonpayable",
      "type": "function"
    },
    {
      "inputs": [
        {
          "internalType": "uint256",
          "name": "_totalBytesStored",
          "type": "uint256"
        }
      ],
      "name": "setTotalBytesStored",
      "outputs": [],
      "stateMutability": "nonpayable",
      "type": "function"
    },
    {
      "inputs": [],
      "name": "symbol",
      "outputs": [
        {
          "internalType": "string",
          "name": "",
          "type": "string"
        }
      ],
      "stateMutability": "view",
      "type": "function"
    },
    {
      "inputs": [],
      "name": "totalBytesStored",
      "outputs": [
        {
          "internalType": "uint256",
          "name": "",
          "type": "uint256"
        }
      ],
      "stateMutability": "view",
      "type": "function"
    },
    {
      "inputs": [],
      "name": "totalSupply",
      "outputs": [
        {
          "internalType": "uint256",
          "name": "",
          "type": "uint256"
        }
      ],
      "stateMutability": "view",
      "type": "function"
    },
    {
      "inputs": [
        {
          "internalType": "address",
          "name": "_to",
          "type": "address"
        },
        {
          "internalType": "uint256",
          "name": "_amount",
          "type": "uint256"
        }
      ],
      "name": "transfer",
      "outputs": [
        {
          "internalType": "bool",
          "name": "",
          "type": "bool"
        }
      ],
      "stateMutability": "nonpayable",
      "type": "function"
    },
    {
      "inputs": [
        {
          "internalType": "address",
          "name": "_from",
          "type": "address"
        },
        {
          "internalType": "address",
          "name": "_to",
          "type": "address"
        },
        {
          "internalType": "uint256",
          "name": "amount",
          "type": "uint256"
        }
      ],
      "name": "transferFrom",
      "outputs": [
        {
          "internalType": "bool",
          "name": "",
          "type": "bool"
        }
      ],
      "stateMutability": "nonpayable",
      "type": "function"
    },
    {
      "inputs": [
        {
          "internalType": "address",
          "name": "",
          "type": "address"
        }
      ],
      "name": "transferFromWhitelist",
      "outputs": [
        {
          "internalType": "bool",
          "name": "",
          "type": "bool"
        }
      ],
      "stateMutability": "view",
      "type": "function"
    },
    {
      "inputs": [
        {
          "internalType": "address",
          "name": "newOwner",
          "type": "address"
        }
      ],
      "name": "transferOwnership",
      "outputs": [],
      "stateMutability": "nonpayable",
      "type": "function"
    },
    {
      "inputs": [
        {
          "internalType": "address",
          "name": "",
          "type": "address"
        }
      ],
      "name": "transferToWhitelist",
      "outputs": [
        {
          "internalType": "bool",
          "name": "",
          "type": "bool"
        }
      ],
      "stateMutability": "view",
      "type": "function"
    },
    {
      "inputs": [
        {
          "internalType": "address",
          "name": "account",
          "type": "address"
        }
      ],
      "name": "unWhitelistTransferFrom",
      "outputs": [],
      "stateMutability": "nonpayable",
      "type": "function"
    },
    {
      "inputs": [
        {
          "internalType": "address",
          "name": "account",
          "type": "address"
        }
      ],
      "name": "unWhitelistTransferTo",
      "outputs": [],
      "stateMutability": "nonpayable",
      "type": "function"
    },
    {
      "inputs": [
        {
          "internalType": "address",
          "name": "newImplementation",
          "type": "address"
        }
      ],
      "name": "upgradeTo",
      "outputs": [],
      "stateMutability": "nonpayable",
      "type": "function"
    },
    {
      "inputs": [
        {
          "internalType": "address",
          "name": "newImplementation",
          "type": "address"
        },
        {
          "internalType": "bytes",
          "name": "data",
          "type": "bytes"
        }
      ],
      "name": "upgradeToAndCall",
      "outputs": [],
      "stateMutability": "payable",
      "type": "function"
    },
    {
      "inputs": [
        {
          "internalType": "address",
          "name": "account",
          "type": "address"
        }
      ],
      "name": "whitelistTransferFrom",
      "outputs": [],
      "stateMutability": "nonpayable",
      "type": "function"
    },
    {
      "inputs": [
        {
          "internalType": "address",
          "name": "account",
          "type": "address"
        }
      ],
      "name": "whitelistTransferTo",
      "outputs": [],
      "stateMutability": "nonpayable",
      "type": "function"
    },
    {
      "inputs": [
        {
          "internalType": "uint256",
          "name": "amount",
          "type": "uint256"
        }
      ],
      "name": "withdraw",
      "outputs": [],
      "stateMutability": "nonpayable",
      "type": "function"
    }
  ],
  "bytecode": "0x60a08060405234610031573060805261283e908161003782396080518181816112310152818161136901526117e20152f35b600080fdfe608080604052600436101561001357600080fd5b60003560e01c90816306fdde0314611eb257508063095ea7b314611e8c5780631249c58b14611d1357806318160ddd14611cf557806319058d1414611cd65780631b3ed72214611cb757806323b872dd14611b2e5780632e1a7d4d14611a8e578063313ce56714611a725780633659cfe6146117bd578063385d633f1461179b57806339509351146117495780633d794a771461169c5780634b94f50e146116795780634dc29ca01461165a5780634f1ef286146112ec57806352d1902d1461121657806363149bfd146111d4578063636bfbab146111b5578063650177961461119657806367c1ed09146110eb57806370a08231146110b1578063715018a61461105657806373176e5f1461102e57806383197ef01461100857806385d38f8014610fe05780638da5cb5b14610fb957806390482d72146108f257806395d89b41146108145780639dc29fac146106e4578063a457c2d714610624578063a9059cbb146105b6578063afc2afa614610594578063b69ef8a814610578578063c11b0d4914610538578063d4a046be1461046f578063d95b787c1461044d578063dd62ed3e146103fb578063e449b6ee14610332578063e78ec42e14610310578063f0dda65c146102e3578063f2fde38b1461023d5763f6c99895146101f857600080fd5b34610238576020366003190112610238576001600160a01b03610219611f9e565b16600052610135602052602060ff604060002054166040519015158152f35b600080fd5b3461023857602036600319011261023857610256611f9e565b61025e612040565b6001600160a01b038116156102785761027690612098565b005b60405162461bcd60e51b815260206004820152602660248201527f4f776e61626c653a206e6577206f776e657220697320746865207a65726f206160448201527f64647265737300000000000000000000000000000000000000000000000000006064820152608490fd5b34610238576040366003190112610238576102766102ff611f9e565b610307612040565b60243590612493565b3461023857602036600319011261023857610329612040565b60043561013055005b34610238576020366003190112610238576001600160a01b03610353611f9e565b61035b612040565b1680600052610135908160205260ff60406000205416610390576000526020526040600020600160ff19825416179055600080f35b60405162461bcd60e51b815260206004820152602860248201527f4163636f756e7420616c72656164792077686974656c6973746564206173207260448201527f6563697069656e740000000000000000000000000000000000000000000000006064820152608490fd5b3461023857604036600319011261023857610414611f9e565b61041c611fb4565b906001600160a01b0380911660005260fc602052604060002091166000526020526020604060002054604051908152f35b3461023857602036600319011261023857610466612040565b60043561012e55005b34610238576020366003190112610238576001600160a01b03610490611f9e565b610498612040565b1680600052610134908160205260ff604060002054166104cd576000526020526040600020600160ff19825416179055600080f35b60405162461bcd60e51b815260206004820152602560248201527f4164647265737320616c72656164792077686974656c6973746564206173207360448201527f656e6465720000000000000000000000000000000000000000000000000000006064820152608490fd5b34610238576020366003190112610238576001600160a01b03610559611f9e565b16600052610134602052602060ff604060002054166040519015158152f35b3461023857600036600319011261023857602047604051908152f35b34610238576020366003190112610238576105ad612040565b60043561012f55005b34610238576040366003190112610238576105ff6105d2611f9e565b6001600160a01b038061013154169082161480159061060a575b6105f5906125f7565b6024359033612669565b602060405160018152f35b50336000908152610134602052604090205460ff166105ec565b346102385760403660031901126102385761063d611f9e565b602435903360005260fc60205260406000206001600160a01b03821660005260205260406000205491808310610679576105ff920390336122b9565b60405162461bcd60e51b815260206004820152602560248201527f45524332303a2064656372656173656420616c6c6f77616e63652062656c6f7760448201527f207a65726f0000000000000000000000000000000000000000000000000000006064820152608490fd5b34610238576040366003190112610238576106fd611f9e565b6001600160a01b0360243591610711612040565b1680156107c5578060005260fb60205260406000205491808310610775576020817fddf252ad1be2c89b69c2b068fc378daa952ba7f163c4a11628f55a4df523b3ef9260009585875260fb84520360408620558060fd540360fd55604051908152a3005b60405162461bcd60e51b815260206004820152602260248201527f45524332303a206275726e20616d6f756e7420657863656564732062616c616e604482015261636560f01b6064820152608490fd5b60405162461bcd60e51b815260206004820152602160248201527f45524332303a206275726e2066726f6d20746865207a65726f206164647265736044820152607360f81b6064820152608490fd5b3461023857600036600319011261023857604051600060ff5461083681612272565b808452906001908181169081156108cb5750600114610870575b61086c8461086081860382612002565b60405191829182611f55565b0390f35b60ff600090815292507fe08ec2af2cfc251225e1968fd6ca21e4044f129bffa95bac3503be8bdb30a3675b8284106108b357505050810160200161086082610850565b8054602085870181019190915290930192810161089b565b60ff191660208087019190915292151560051b850190920192506108609150839050610850565b346102385760603660031901126102385760043567ffffffffffffffff811161023857366023820112156102385780600401359067ffffffffffffffff8211610da3578160051b906040519261094b6020840185612002565b8352602460208401928201019036821161023857602401915b818310610f995783610974611fb4565b604435906001600160a01b0382168203610238576000549260ff8460081c161593848095610f8c575b8015610f75575b15610f0a5760ff19811660011760005584610ef8575b506109d560ff60005460081c166109d081612421565b612421565b6109de33612098565b6040516109ea81611fe6565b601d81527f4c6f672053746f726520416c706861204e6574776f726b20546f6b656e000000602082015260405190610a2182611fe6565b60048252632629a0a760e11b6020830152610a4760ff60005460081c166109d081612421565b80519067ffffffffffffffff8211610da3578190610a6660fe54612272565b601f8111610e4e575b50602090601f8311600114610dc457600092610db9575b50508160011b916000199060031b1c19161760fe555b80519067ffffffffffffffff8211610da3578190610abb60ff54612272565b601f8111610cf9575b50602090601f8311600114610c6f57600092610c64575b50508160011b916000199060031b1c19161760ff555b610b0f60ff60005460081c16610b0681612421565b6109d081612421565b600160c95580519060005b828110610ba5575050506001600160a01b0319906001600160a01b0361013291168282541617905542610133556001600160a01b03610131921690825416179055600161012f55600061013055610b6d57005b61ff0019600054166000557f7f26b83ff96e1f2b6a682f133852f6798a09c465da95921460cefb3847402498602060405160018152a1005b6001600160a01b03610bb782846123f7565b5116610bc1612040565b8060005261013460205260ff604060002054166104cd576000526101346020526040600020600160ff198254161790556001600160a01b03610c0382846123f7565b5116610c0d612040565b8060005261013560205260ff60406000205416610390576000526101356020526040600020600160ff198254161790556000198114610c4e57600101610b1a565b634e487b7160e01b600052601160045260246000fd5b015190508680610adb565b925060ff6000527fe08ec2af2cfc251225e1968fd6ca21e4044f129bffa95bac3503be8bdb30a367906000935b601f1984168510610cde576001945083601f19811610610cc5575b505050811b0160ff55610af1565b015160001960f88460031b161c19169055868080610cb7565b81810151835560209485019460019093019290910190610c9c565b90915060ff600052601f830160051c7fe08ec2af2cfc251225e1968fd6ca21e4044f129bffa95bac3503be8bdb30a3670160208410610d7c575b908392915b601f820160051c7fe08ec2af2cfc251225e1968fd6ca21e4044f129bffa95bac3503be8bdb30a367018110610d6d5750610ac4565b60008155849350600101610d38565b507fe08ec2af2cfc251225e1968fd6ca21e4044f129bffa95bac3503be8bdb30a367610d33565b634e487b7160e01b600052604160045260246000fd5b015190508780610a86565b925060fe6000527f54075df80ec1ae6ac9100e1fd0ebf3246c17f5c933137af392011f4c5f61513a906000935b601f1984168510610e33576001945083601f19811610610e1a575b505050811b0160fe55610a9c565b015160001960f88460031b161c19169055878080610e0c565b81810151835560209485019460019093019290910190610df1565b90915060fe600052601f830160051c7f54075df80ec1ae6ac9100e1fd0ebf3246c17f5c933137af392011f4c5f61513a0160208410610ed1575b908392915b601f820160051c7f54075df80ec1ae6ac9100e1fd0ebf3246c17f5c933137af392011f4c5f61513a018110610ec25750610a6f565b60008155849350600101610e8d565b507f54075df80ec1ae6ac9100e1fd0ebf3246c17f5c933137af392011f4c5f61513a610e88565b61ffff191661010117600055846109ba565b60405162461bcd60e51b815260206004820152602e60248201527f496e697469616c697a61626c653a20636f6e747261637420697320616c72656160448201527f647920696e697469616c697a65640000000000000000000000000000000000006064820152608490fd5b50303b1580156109a45750600160ff8216146109a4565b50600160ff82161061099d565b82356001600160a01b038116810361023857815260209283019201610964565b346102385760003660031901126102385760206001600160a01b0360975416604051908152f35b346102385760003660031901126102385760206001600160a01b036101325416604051908152f35b34610238576000366003190112610238576001600160a01b036101325416330361023857005b346102385760003660031901126102385760206001600160a01b036101315416604051908152f35b346102385760003660031901126102385761106f612040565b60006001600160a01b036097546001600160a01b03198116609755167f8be0079c531659141344cd1fd0a4f28419497f9722a3daafe3b4186f6b6457e08280a3005b34610238576020366003190112610238576001600160a01b036110d2611f9e565b1660005260fb6020526020604060002054604051908152f35b34610238576020366003190112610238576001600160a01b0361110c611f9e565b611114612040565b1680600052610134908160205260ff604060002054161561114757600052602052604060002060ff198154169055600080f35b60405162461bcd60e51b815260206004820152602160248201527f41646472657373206e6f742077686974656c69737465642061732073656e64656044820152603960f91b6064820152608490fd5b3461023857600036600319011261023857602061013354604051908152f35b3461023857600036600319011261023857602061013054604051908152f35b34610238576020366003190112610238576111ed611f9e565b6111f5612040565b6001600160a01b0361013191166001600160a01b0319825416179055600080f35b34610238576000366003190112610238576001600160a01b037f00000000000000000000000000000000000000000000000000000000000000001630036112815760206040517f360894a13ba1a3210667c828492db98dca3e2076cc3735a920a3ca505d382bbc8152f35b60405162461bcd60e51b815260206004820152603860248201527f555550535570677261646561626c653a206d757374206e6f742062652063616c60448201527f6c6564207468726f7567682064656c656761746563616c6c00000000000000006064820152608490fd5b604036600319011261023857611300611f9e565b602490813567ffffffffffffffff811161023857366023820112156102385780600401359061132e82612024565b61133b6040519182612002565b82815260209283820192368783830101116102385781600092888793018637830101526001600160a01b03807f00000000000000000000000000000000000000000000000000000000000000001690611396823014156120e0565b6113c57f360894a13ba1a3210667c828492db98dca3e2076cc3735a920a3ca505d382bbc928284541614612152565b6113cd612040565b7f4910fdfa16fed3260ed0e7147f7cc6da11a60208b5b9406d12a635614ffd91435460ff161561140657505050505061027691506121c4565b85949516906040516352d1902d60e01b81528681600481865afa6000918161162b575b506114895760405162461bcd60e51b815260048101889052602e818a01527f45524331393637557067726164653a206e657720696d706c656d656e7461746960448201526d6f6e206973206e6f74205555505360901b6064820152608490fd5b969192939496036115d65761149d866121c4565b604051917fbc7cd75a20ee27fd9adebab32041f755214dbc6bffa90cc0225b39da2e5c2d3b600080a28251158015906115ce575b6114d757005b853b1561157e57505061027693600092839251915af43d15611576573d906114fe82612024565b9161150c6040519384612002565b82523d60008484013e5b7f416464726573733a206c6f772d6c6576656c2064656c65676174652063616c6c6040519361154485611fca565b602785528401527f206661696c65640000000000000000000000000000000000000000000000000060408401526123bb565b606090611516565b62461bcd60e51b8252600482018590526026908201527f416464726573733a2064656c65676174652063616c6c20746f206e6f6e2d636f6044820152651b9d1c9858dd60d21b6064820152608490fd5b5060016114d1565b8460296084926040519262461bcd60e51b845260048401528201527f45524331393637557067726164653a20756e737570706f727465642070726f786044820152681a58589b195555525160ba1b6064820152fd5b9091508781813d8311611653575b6116438183612002565b8101031261023857519089611429565b503d611639565b3461023857600036600319011261023857602061012d54604051908152f35b3461023857600036600319011261023857602061169461256a565b604051908152f35b34610238576020366003190112610238576001600160a01b036116bd611f9e565b6116c5612040565b1680600052610135908160205260ff60406000205416156116f857600052602052604060002060ff198154169055600080f35b60405162461bcd60e51b8152602060048201526024808201527f4163636f756e74206e6f742077686974656c69737465642061732072656369706044820152631a595b9d60e21b6064820152608490fd5b34610238576040366003190112610238576105ff611765611f9e565b3360005260fc60205260406000206001600160a01b0382166000526020526117946024356040600020546122ac565b90336122b9565b34610238576020366003190112610238576117b4612040565b60043561012d55005b3461023857602080600319360112610238576117d7611f9e565b6001600160a01b03807f00000000000000000000000000000000000000000000000000000000000000001661180e813014156120e0565b61183d7f360894a13ba1a3210667c828492db98dca3e2076cc3735a920a3ca505d382bbc918383541614612152565b611845612040565b604051908482019282841067ffffffffffffffff851117610da357836040526000835260ff7f4910fdfa16fed3260ed0e7147f7cc6da11a60208b5b9406d12a635614ffd914354166000146118a2575050505061027691506121c4565b8416906040516352d1902d60e01b81528681600481865afa60009181611a43575b506119245760405162461bcd60e51b815260048101889052602e60248201527f45524331393637557067726164653a206e657720696d706c656d656e7461746960448201526d6f6e206973206e6f74205555505360901b6064820152608490fd5b036119ec57611932846121c4565b604051907fbc7cd75a20ee27fd9adebab32041f755214dbc6bffa90cc0225b39da2e5c2d3b600080a28151158015906119e4575b61196c57005b833b1561199357506102769392600092839251915af43d15611576573d906114fe82612024565b62461bcd60e51b815260048101859052602660248201527f416464726573733a2064656c65676174652063616c6c20746f206e6f6e2d636f6044820152651b9d1c9858dd60d21b6064820152608490fd5b506000611966565b60405162461bcd60e51b815260048101869052602960248201527f45524331393637557067726164653a20756e737570706f727465642070726f786044820152681a58589b195555525160ba1b6064820152608490fd5b9091508781813d8311611a6b575b611a5b8183612002565b81010312610238575190886118c3565b503d611a51565b3461023857600036600319011261023857602060405160128152f35b3461023857602036600319011261023857600435611aaa612040565b804710611ae9576000808080936001600160a01b036101325416828215611ae0575bf115611ad457005b6040513d6000823e3d90fd5b506108fc611acc565b60405162461bcd60e51b815260206004820152601d60248201527f496e73756666696369656e7420636f6e74726163742062616c616e63650000006044820152606490fd5b3461023857606036600319011261023857611b47611f9e565b611b4f611fb4565b604435906001600160a01b0380610131541681851691818314801590611c9e575b15611c3357831614801590611c19575b611b89906125f7565b60005260fc602052604060002033600052602052604060002054926000198403611bb8575b6105ff9350612669565b828410611bd457611bcf836105ff950333836122b9565b611bae565b60405162461bcd60e51b815260206004820152601d60248201527f45524332303a20696e73756666696369656e7420616c6c6f77616e63650000006044820152606490fd5b50336000908152610134602052604090205460ff16611b80565b60405162461bcd60e51b815260206004820152603460248201527f55736572206973206e6f742077686974656c697374656420746f207472616e7360448201527f66657246726f6d207468697320616464726573730000000000000000000000006064820152608490fd5b503360005261013560205260ff60406000205416611b70565b3461023857600036600319011261023857602061012f54604051908152f35b3461023857600036600319011261023857602061012e54604051908152f35b3461023857600036600319011261023857602060fd54604051908152f35b600036600319011261023857600260c95414611e4757600260c95561013054341115611df65761012d5415611db15761012e5415611d6c57611d65611d5f611d5961256a565b3461254a565b33612493565b600160c955005b60405162461bcd60e51b815260206004820152601560248201527f746f74616c427974657353746f726564203c3d203000000000000000000000006044820152606490fd5b60405162461bcd60e51b815260206004820152601160248201527f6d6174696350657242797465203c3d20300000000000000000000000000000006044820152606490fd5b60405162461bcd60e51b8152602060048201526024808201527f73656e7420616d6f756e74206c657373207468616e206d696e696d756d20616d6044820152631bdd5b9d60e21b6064820152608490fd5b60405162461bcd60e51b815260206004820152601f60248201527f5265656e7472616e637947756172643a207265656e7472616e742063616c6c006044820152606490fd5b34610238576040366003190112610238576105ff611ea8611f9e565b60243590336122b9565b3461023857600036600319011261023857600060fe54611ed181612272565b808452906001908181169081156108cb5750600114611efa5761086c8461086081860382612002565b60fe600090815292507f54075df80ec1ae6ac9100e1fd0ebf3246c17f5c933137af392011f4c5f61513a5b828410611f3d57505050810160200161086082610850565b80546020858701810191909152909301928101611f25565b6020808252825181830181905290939260005b828110611f8a57505060409293506000838284010152601f8019910116010190565b818101860151848201604001528501611f68565b600435906001600160a01b038216820361023857565b602435906001600160a01b038216820361023857565b6060810190811067ffffffffffffffff821117610da357604052565b6040810190811067ffffffffffffffff821117610da357604052565b90601f8019910116810190811067ffffffffffffffff821117610da357604052565b67ffffffffffffffff8111610da357601f01601f191660200190565b6001600160a01b0360975416330361205457565b606460405162461bcd60e51b815260206004820152602060248201527f4f776e61626c653a2063616c6c6572206973206e6f7420746865206f776e65726044820152fd5b609754906001600160a01b0380911691826001600160a01b0319821617609755167f8be0079c531659141344cd1fd0a4f28419497f9722a3daafe3b4186f6b6457e0600080a3565b156120e757565b60405162461bcd60e51b815260206004820152602c60248201527f46756e6374696f6e206d7573742062652063616c6c6564207468726f7567682060448201527f64656c656761746563616c6c00000000000000000000000000000000000000006064820152608490fd5b1561215957565b60405162461bcd60e51b815260206004820152602c60248201527f46756e6374696f6e206d7573742062652063616c6c6564207468726f7567682060448201527f6163746976652070726f787900000000000000000000000000000000000000006064820152608490fd5b803b15612207576001600160a01b037f360894a13ba1a3210667c828492db98dca3e2076cc3735a920a3ca505d382bbc91166001600160a01b0319825416179055565b60405162461bcd60e51b815260206004820152602d60248201527f455243313936373a206e657720696d706c656d656e746174696f6e206973206e60448201527f6f74206120636f6e7472616374000000000000000000000000000000000000006064820152608490fd5b90600182811c921680156122a2575b602083101461228c57565b634e487b7160e01b600052602260045260246000fd5b91607f1691612281565b91908201809211610c4e57565b6001600160a01b0380911691821561236a571691821561231a5760207f8c5be1e5ebec7d5bd14f71427d1e84f3dd0314c0f7b2291e5b200ac8c7c3b925918360005260fc8252604060002085600052825280604060002055604051908152a3565b60405162461bcd60e51b815260206004820152602260248201527f45524332303a20617070726f766520746f20746865207a65726f206164647265604482015261737360f01b6064820152608490fd5b60405162461bcd60e51b8152602060048201526024808201527f45524332303a20617070726f76652066726f6d20746865207a65726f206164646044820152637265737360e01b6064820152608490fd5b909190156123c7575090565b8151156123d75750805190602001fd5b60405162461bcd60e51b81529081906123f39060048301611f55565b0390fd5b805182101561240b5760209160051b010190565b634e487b7160e01b600052603260045260246000fd5b1561242857565b60405162461bcd60e51b815260206004820152602b60248201527f496e697469616c697a61626c653a20636f6e7472616374206973206e6f74206960448201527f6e697469616c697a696e670000000000000000000000000000000000000000006064820152608490fd5b6001600160a01b03169081156124f2577fddf252ad1be2c89b69c2b068fc378daa952ba7f163c4a11628f55a4df523b3ef6020826124d560009460fd546122ac565b60fd5584845260fb825260408420818154019055604051908152a3565b60405162461bcd60e51b815260206004820152601f60248201527f45524332303a206d696e7420746f20746865207a65726f2061646472657373006044820152606490fd5b81810292918115918404141715610c4e57565b8115612554570490565b634e487b7160e01b600052601260045260246000fd5b61257b61012d5461012e5490612537565b6101335490814203428111610c4e5760188102928184046018149042141715610c4e576105a0810292808404603c1490151715610c4e5762015180810292808404603c1490151715610c4e576305265c0002918083046103e81490151715610c4e576125f4916125ea9161254a565b61012f5490612537565b90565b156125fe57565b60405162461bcd60e51b815260206004820152603260248201527f55736572206973206e6f742077686974656c697374656420746f207472616e7360448201527f66657220746f20746865206164647265737300000000000000000000000000006064820152608490fd5b6001600160a01b0380911691821561279d571691821561274c57600082815260fb6020526040812054918083106126e157604082827fddf252ad1be2c89b69c2b068fc378daa952ba7f163c4a11628f55a4df523b3ef95876020965260fb8652038282205586815220818154019055604051908152a3565b60405162461bcd60e51b815260206004820152602660248201527f45524332303a207472616e7366657220616d6f756e742065786365656473206260448201527f616c616e636500000000000000000000000000000000000000000000000000006064820152608490fd5b60405162461bcd60e51b815260206004820152602360248201527f45524332303a207472616e7366657220746f20746865207a65726f206164647260448201526265737360e81b6064820152608490fd5b60405162461bcd60e51b815260206004820152602560248201527f45524332303a207472616e736665722066726f6d20746865207a65726f20616460448201527f64726573730000000000000000000000000000000000000000000000000000006064820152608490fdfea26469706673582212207b6d84b00148812db82e33611a9625929c350735bedb2c54af96e9a57776ff2f64736f6c63430008110033",
  "linkReferences": {},
  "deployedLinkReferences": {}
}