{
  "_format": "hh-sol-artifact-1",
  "contractName": "LSAN",
  "sourceName": "src/alpha/Token.sol",
  "abi": [
    {
      "anonymous": false,
      "inputs": [
        {
          "indexed": false,
          "internalType": "address",
          "name": "previousAdmin",
          "type": "address"
        },
        {
          "indexed": false,
          "internalType": "address",
          "name": "newAdmin",
          "type": "address"
        }
      ],
      "name": "AdminChanged",
      "type": "event"
    },
    {
      "anonymous": false,
      "inputs": [
        {
          "indexed": true,
          "internalType": "address",
          "name": "owner",
          "type": "address"
        },
        {
          "indexed": true,
          "internalType": "address",
          "name": "spender",
          "type": "address"
        },
        {
          "indexed": false,
          "internalType": "uint256",
          "name": "value",
          "type": "uint256"
        }
      ],
      "name": "Approval",
      "type": "event"
    },
    {
      "anonymous": false,
      "inputs": [
        {
          "indexed": true,
          "internalType": "address",
          "name": "beacon",
          "type": "address"
        }
      ],
      "name": "BeaconUpgraded",
      "type": "event"
    },
    {
      "anonymous": false,
      "inputs": [
        {
          "indexed": false,
          "internalType": "uint8",
          "name": "version",
          "type": "uint8"
        }
      ],
      "name": "Initialized",
      "type": "event"
    },
    {
      "anonymous": false,
      "inputs": [
        {
          "indexed": true,
          "internalType": "address",
          "name": "previousOwner",
          "type": "address"
        },
        {
          "indexed": true,
          "internalType": "address",
          "name": "newOwner",
          "type": "address"
        }
      ],
      "name": "OwnershipTransferred",
      "type": "event"
    },
    {
      "anonymous": false,
      "inputs": [
        {
          "indexed": true,
          "internalType": "address",
          "name": "from",
          "type": "address"
        },
        {
          "indexed": true,
          "internalType": "address",
          "name": "to",
          "type": "address"
        },
        {
          "indexed": false,
          "internalType": "uint256",
          "name": "value",
          "type": "uint256"
        }
      ],
      "name": "Transfer",
      "type": "event"
    },
    {
      "anonymous": false,
      "inputs": [
        {
          "indexed": true,
          "internalType": "address",
          "name": "implementation",
          "type": "address"
        }
      ],
      "name": "Upgraded",
      "type": "event"
    },
    {
      "inputs": [],
      "name": "DEPLOYED_TIME",
      "outputs": [
        {
          "internalType": "uint256",
          "name": "",
          "type": "uint256"
        }
      ],
      "stateMutability": "view",
      "type": "function"
    },
    {
      "inputs": [],
      "name": "SAFE_ADDRESS",
      "outputs": [
        {
          "internalType": "address payable",
          "name": "",
          "type": "address"
        }
      ],
      "stateMutability": "view",
      "type": "function"
    },
    {
      "inputs": [
        {
          "internalType": "address",
          "name": "owner",
          "type": "address"
        },
        {
          "internalType": "address",
          "name": "spender",
          "type": "address"
        }
      ],
      "name": "allowance",
      "outputs": [
        {
          "internalType": "uint256",
          "name": "",
          "type": "uint256"
        }
      ],
      "stateMutability": "view",
      "type": "function"
    },
    {
      "inputs": [
        {
          "internalType": "address",
          "name": "spender",
          "type": "address"
        },
        {
          "internalType": "uint256",
          "name": "amount",
          "type": "uint256"
        }
      ],
      "name": "approve",
      "outputs": [
        {
          "internalType": "bool",
          "name": "",
          "type": "bool"
        }
      ],
      "stateMutability": "nonpayable",
      "type": "function"
    },
    {
      "inputs": [],
      "name": "balance",
      "outputs": [
        {
          "internalType": "uint256",
          "name": "",
          "type": "uint256"
        }
      ],
      "stateMutability": "view",
      "type": "function"
    },
    {
      "inputs": [
        {
          "internalType": "address",
          "name": "account",
          "type": "address"
        }
      ],
      "name": "balanceOf",
      "outputs": [
        {
          "internalType": "uint256",
          "name": "",
          "type": "uint256"
        }
      ],
      "stateMutability": "view",
      "type": "function"
    },
    {
      "inputs": [
        {
          "internalType": "address",
          "name": "account",
          "type": "address"
        },
        {
          "internalType": "uint256",
          "name": "amount",
          "type": "uint256"
        }
      ],
      "name": "burn",
      "outputs": [],
      "stateMutability": "nonpayable",
      "type": "function"
    },
    {
      "inputs": [],
      "name": "decimals",
      "outputs": [
        {
          "internalType": "uint8",
          "name": "",
          "type": "uint8"
        }
      ],
      "stateMutability": "view",
      "type": "function"
    },
    {
      "inputs": [
        {
          "internalType": "address",
          "name": "spender",
          "type": "address"
        },
        {
          "internalType": "uint256",
          "name": "subtractedValue",
          "type": "uint256"
        }
      ],
      "name": "decreaseAllowance",
      "outputs": [
        {
          "internalType": "bool",
          "name": "",
          "type": "bool"
        }
      ],
      "stateMutability": "nonpayable",
      "type": "function"
    },
    {
      "inputs": [],
      "name": "destroy",
      "outputs": [],
      "stateMutability": "nonpayable",
      "type": "function"
    },
    {
      "inputs": [],
      "name": "getTokenPrice",
      "outputs": [
        {
          "internalType": "uint256",
          "name": "lsanPrice",
          "type": "uint256"
        }
      ],
      "stateMutability": "view",
      "type": "function"
    },
    {
      "inputs": [
        {
          "internalType": "address",
          "name": "spender",
          "type": "address"
        },
        {
          "internalType": "uint256",
          "name": "addedValue",
          "type": "uint256"
        }
      ],
      "name": "increaseAllowance",
      "outputs": [
        {
          "internalType": "bool",
          "name": "",
          "type": "bool"
        }
      ],
      "stateMutability": "nonpayable",
      "type": "function"
    },
    {
      "inputs": [
        {
          "internalType": "address",
          "name": "_safeAddress",
          "type": "address"
        },
        {
          "internalType": "address[]",
          "name": "initialWhitelist",
          "type": "address[]"
        }
      ],
      "name": "initialize",
      "outputs": [],
      "stateMutability": "nonpayable",
      "type": "function"
    },
    {
      "inputs": [
        {
          "internalType": "address[]",
          "name": "accounts",
          "type": "address[]"
        },
        {
          "internalType": "uint256",
          "name": "option",
          "type": "uint256"
        }
      ],
      "name": "massWhitelistUpdate",
      "outputs": [],
      "stateMutability": "nonpayable",
      "type": "function"
    },
    {
      "inputs": [],
      "name": "maticPerByte",
      "outputs": [
        {
          "internalType": "uint256",
          "name": "",
          "type": "uint256"
        }
      ],
      "stateMutability": "view",
      "type": "function"
    },
    {
      "inputs": [],
      "name": "minimumDeposit",
      "outputs": [
        {
          "internalType": "uint256",
          "name": "",
          "type": "uint256"
        }
      ],
      "stateMutability": "view",
      "type": "function"
    },
    {
      "inputs": [],
      "name": "mint",
      "outputs": [],
      "stateMutability": "payable",
      "type": "function"
    },
    {
      "inputs": [
        {
          "internalType": "address[]",
          "name": "_addresses",
          "type": "address[]"
        },
        {
          "internalType": "uint256",
          "name": "amount",
          "type": "uint256"
        }
      ],
      "name": "mintManyTokens",
      "outputs": [],
      "stateMutability": "nonpayable",
      "type": "function"
    },
    {
      "inputs": [
        {
          "internalType": "address",
          "name": "account",
          "type": "address"
        },
        {
          "internalType": "uint256",
          "name": "amount",
          "type": "uint256"
        }
      ],
      "name": "mintTokens",
      "outputs": [],
      "stateMutability": "nonpayable",
      "type": "function"
    },
    {
      "inputs": [],
      "name": "multiplier",
      "outputs": [
        {
          "internalType": "uint256",
          "name": "",
          "type": "uint256"
        }
      ],
      "stateMutability": "view",
      "type": "function"
    },
    {
      "inputs": [],
      "name": "name",
      "outputs": [
        {
          "internalType": "string",
          "name": "",
          "type": "string"
        }
      ],
      "stateMutability": "view",
      "type": "function"
    },
    {
      "inputs": [],
      "name": "owner",
      "outputs": [
        {
          "internalType": "address",
          "name": "",
          "type": "address"
        }
      ],
      "stateMutability": "view",
      "type": "function"
    },
    {
      "inputs": [],
      "name": "proxiableUUID",
      "outputs": [
        {
          "internalType": "bytes32",
          "name": "",
          "type": "bytes32"
        }
      ],
      "stateMutability": "view",
      "type": "function"
    },
    {
      "inputs": [],
      "name": "renounceOwnership",
      "outputs": [],
      "stateMutability": "nonpayable",
      "type": "function"
    },
    {
      "inputs": [
        {
          "internalType": "uint256",
          "name": "_maticPerByte",
          "type": "uint256"
        }
      ],
      "name": "setMaticPerByte",
      "outputs": [],
      "stateMutability": "nonpayable",
      "type": "function"
    },
    {
      "inputs": [
        {
          "internalType": "uint256",
          "name": "_minimumDeposit",
          "type": "uint256"
        }
      ],
      "name": "setMinimumDeposit",
      "outputs": [],
      "stateMutability": "nonpayable",
      "type": "function"
    },
    {
      "inputs": [
        {
          "internalType": "uint256",
          "name": "_multiplier",
          "type": "uint256"
        }
      ],
      "name": "setMultipler",
      "outputs": [],
      "stateMutability": "nonpayable",
      "type": "function"
    },
    {
      "inputs": [
        {
          "internalType": "uint256",
          "name": "_totalBytesStored",
          "type": "uint256"
        }
      ],
      "name": "setTotalBytesStored",
      "outputs": [],
      "stateMutability": "nonpayable",
      "type": "function"
    },
    {
      "inputs": [],
      "name": "symbol",
      "outputs": [
        {
          "internalType": "string",
          "name": "",
          "type": "string"
        }
      ],
      "stateMutability": "view",
      "type": "function"
    },
    {
      "inputs": [],
      "name": "totalBytesStored",
      "outputs": [
        {
          "internalType": "uint256",
          "name": "",
          "type": "uint256"
        }
      ],
      "stateMutability": "view",
      "type": "function"
    },
    {
      "inputs": [],
      "name": "totalSupply",
      "outputs": [
        {
          "internalType": "uint256",
          "name": "",
          "type": "uint256"
        }
      ],
      "stateMutability": "view",
      "type": "function"
    },
    {
      "inputs": [
        {
          "internalType": "address",
          "name": "_to",
          "type": "address"
        },
        {
          "internalType": "uint256",
          "name": "_amount",
          "type": "uint256"
        }
      ],
      "name": "transfer",
      "outputs": [
        {
          "internalType": "bool",
          "name": "",
          "type": "bool"
        }
      ],
      "stateMutability": "nonpayable",
      "type": "function"
    },
    {
      "inputs": [
        {
          "internalType": "address",
          "name": "_from",
          "type": "address"
        },
        {
          "internalType": "address",
          "name": "_to",
          "type": "address"
        },
        {
          "internalType": "uint256",
          "name": "amount",
          "type": "uint256"
        }
      ],
      "name": "transferFrom",
      "outputs": [
        {
          "internalType": "bool",
          "name": "",
          "type": "bool"
        }
      ],
      "stateMutability": "nonpayable",
      "type": "function"
    },
    {
      "inputs": [
        {
          "internalType": "address",
          "name": "",
          "type": "address"
        }
      ],
      "name": "transferFromWhitelist",
      "outputs": [
        {
          "internalType": "bool",
          "name": "",
          "type": "bool"
        }
      ],
      "stateMutability": "view",
      "type": "function"
    },
    {
      "inputs": [
        {
          "internalType": "address",
          "name": "newOwner",
          "type": "address"
        }
      ],
      "name": "transferOwnership",
      "outputs": [],
      "stateMutability": "nonpayable",
      "type": "function"
    },
    {
      "inputs": [
        {
          "internalType": "address",
          "name": "",
          "type": "address"
        }
      ],
      "name": "transferToWhitelist",
      "outputs": [
        {
          "internalType": "bool",
          "name": "",
          "type": "bool"
        }
      ],
      "stateMutability": "view",
      "type": "function"
    },
    {
      "inputs": [
        {
          "internalType": "address",
          "name": "account",
          "type": "address"
        }
      ],
      "name": "unWhitelistTransferFrom",
      "outputs": [],
      "stateMutability": "nonpayable",
      "type": "function"
    },
    {
      "inputs": [
        {
          "internalType": "address",
          "name": "account",
          "type": "address"
        }
      ],
      "name": "unWhitelistTransferTo",
      "outputs": [],
      "stateMutability": "nonpayable",
      "type": "function"
    },
    {
      "inputs": [
        {
          "internalType": "address",
          "name": "newImplementation",
          "type": "address"
        }
      ],
      "name": "upgradeTo",
      "outputs": [],
      "stateMutability": "nonpayable",
      "type": "function"
    },
    {
      "inputs": [
        {
          "internalType": "address",
          "name": "newImplementation",
          "type": "address"
        },
        {
          "internalType": "bytes",
          "name": "data",
          "type": "bytes"
        }
      ],
      "name": "upgradeToAndCall",
      "outputs": [],
      "stateMutability": "payable",
      "type": "function"
    },
    {
      "inputs": [
        {
          "internalType": "address",
          "name": "account",
          "type": "address"
        }
      ],
      "name": "whitelistTransferFrom",
      "outputs": [],
      "stateMutability": "nonpayable",
      "type": "function"
    },
    {
      "inputs": [
        {
          "internalType": "address",
          "name": "account",
          "type": "address"
        }
      ],
      "name": "whitelistTransferTo",
      "outputs": [],
      "stateMutability": "nonpayable",
      "type": "function"
    },
    {
      "inputs": [
        {
          "internalType": "uint256",
          "name": "amount",
          "type": "uint256"
        }
      ],
      "name": "withdraw",
      "outputs": [],
      "stateMutability": "nonpayable",
      "type": "function"
    }
  ],
  "bytecode": "0x60a0806040523461003157306080526130fa90816100378239608051818181611898015281816119d00152611e490152f35b600080fdfe608080604052600436101561001357600080fd5b60003560e01c90816306fdde031461263c57508063095ea7b3146126165780631249c58b1461249d57806318160ddd1461247f57806319058d14146124605780631b3ed722146124415780632241c86d1461229957806323b872dd146121955780632e1a7d4d146120f5578063313ce567146120d95780633659cfe614611e24578063385d633f14611e025780633950935114611db05780633d794a7714611d035780634b94f50e14611ce05780634dc29ca014611cc15780634f1ef2861461195357806352d1902d1461187d578063636bfbab1461185e578063650177961461183f57806367c1ed091461179457806370a082311461175a578063715018a6146116ff57806383197ef0146116d957806385d38f80146116b15780638da5cb5b1461168a578063946d92041461108057806395d89b4114610fa25780639dc29fac14610e72578063a457c2d714610db2578063a9059cbb14610d42578063afc2afa614610d20578063b69ef8a814610d04578063c11b0d4914610cc4578063d4a046be14610c13578063d95b787c14610bf1578063dd62ed3e14610b9f578063e449b6ee14610aeb578063e78ec42e14610ac9578063e7eff69014610434578063f0dda65c146102e3578063f2fde38b1461023d5763f6c99895146101f857600080fd5b34610238576020366003190112610238576001600160a01b03610219612728565b16600052610134602052602060ff604060002054166040519015158152f35b600080fd5b3461023857602036600319011261023857610256612728565b61025e612841565b6001600160a01b038116156102785761027690612899565b005b60405162461bcd60e51b815260206004820152602660248201527f4f776e61626c653a206e6577206f776e657220697320746865207a65726f206160448201527f64647265737300000000000000000000000000000000000000000000000000006064820152608490fd5b34610238576040366003190112610238576102fc612728565b610304612841565b61030c612841565b6001600160a01b03811690816000526101349160209280845260ff604060002054166103de5781600052835260406000209060ff1991600183825416179055610353612841565b806000526101339081855260ff6040600020541661038b57936102769460005252600160406000209182541617905560243590612cb9565b60405162461bcd60e51b815260048101869052602560248201527f4164647265737320616c72656164792077686974656c6973746564206173207360448201526432b73232b960d91b6064820152608490fd5b60405162461bcd60e51b815260048101859052602860248201527f4163636f756e7420616c72656164792077686974656c697374656420617320726044820152671958da5c1a595b9d60c21b6064820152608490fd5b346102385760403660031901126102385767ffffffffffffffff600435818111610238573660238201121561023857806004013591821161023857602491828201918336918360051b01011161023857823561048e612841565b60018082101580610abe575b15610a7a5780821461091f575b600282146107d0575b60038214610710575b6004821461064d575b5060058114610592575b6006146104d557005b60005b8181106104e157005b6001600160a01b036104fc6104f7838587612d5d565b612d6d565b610504612841565b16806000526101349060209082825260ff6040600020541615610543579061053e93929160005252604060002060ff198154169055612c0e565b6104d8565b608482886040519162461bcd60e51b83526004830152808201527f4163636f756e74206e6f742077686974656c69737465642061732072656369706044820152631a595b9d60e21b6064820152fd5b60005b8281106105a257506104cc565b6001600160a01b036105b86104f7838688612d5d565b6105c0612841565b16806000526101339060209082825260ff60406000205416156105ff57906105fa93929160005252604060002060ff198154169055612c0e565b610595565b60405162461bcd60e51b8152600481018390526021818a01527f41646472657373206e6f742077686974656c69737465642061732073656e64656044820152603960f91b6064820152608490fd5b60005b83811061065d57506104c2565b6001600160a01b036106736104f7838789612d5d565b61067b612841565b16806000526101349060209082825260ff604060002054166106bb57906106b69392916000525260406000208360ff19825416179055612c0e565b610650565b60405162461bcd60e51b8152600481018390526028818b01527f4163636f756e7420616c72656164792077686974656c697374656420617320726044820152671958da5c1a595b9d60c21b6064820152608490fd5b60005b83811061072057506104b9565b6001600160a01b036107366104f7838789612d5d565b61073e612841565b16806000526101339060209082825260ff6040600020541661077e57906107799392916000525260406000208360ff19825416179055612c0e565b610713565b60405162461bcd60e51b8152600481018390526025818b01527f4164647265737320616c72656164792077686974656c6973746564206173207360448201526432b73232b960d91b6064820152608490fd5b60005b8381106107e057506104b0565b6107ee6104f7828688612d5d565b6107f6612841565b6001600160a01b038091168060005261013360209080825260ff928360406000205416156108d157600052815260406000209260ff19938481541690556108416104f7868a8c612d5d565b610849612841565b1680600052610134928383526040600020541615610882579061087d94939291600052526040600020908154169055612c0e565b6107d3565b6084828b6040519162461bcd60e51b83526004830152808201527f4163636f756e74206e6f742077686974656c69737465642061732072656369706044820152631a595b9d60e21b6064820152fd5b60405162461bcd60e51b8152600481018490526021818d01527f41646472657373206e6f742077686974656c69737465642061732073656e64656044820152603960f91b6064820152608490fd5b60005b83811061092f57506104a7565b61093d6104f7828688612d5d565b610945612841565b6001600160a01b038091168060005261013360209080825260ff928360406000205416610a2857600052815260406000209260ff199386858254161790556109916104f7868a8c612d5d565b610999612841565b168060005261013492838352604060002054166109d357906109ce949392916000525283604060002091825416179055612c0e565b610922565b60405162461bcd60e51b8152600481018390526028818c01527f4163636f756e7420616c72656164792077686974656c697374656420617320726044820152671958da5c1a595b9d60c21b6064820152608490fd5b60405162461bcd60e51b8152600481018490526025818d01527f4164647265737320616c72656164792077686974656c6973746564206173207360448201526432b73232b960d91b6064820152608490fd5b60405162461bcd60e51b815260206004820152600e818701527f496e76616c6964206f7074696f6e0000000000000000000000000000000000006044820152606490fd5b50600682111561049a565b3461023857602036600319011261023857610ae2612841565b60043561013055005b34610238576020366003190112610238576001600160a01b03610b0c612728565b610b14612841565b1680600052610134908160205260ff60406000205416610b49576000526020526040600020600160ff19825416179055600080f35b60405162461bcd60e51b815260206004820152602860248201527f4163636f756e7420616c72656164792077686974656c697374656420617320726044820152671958da5c1a595b9d60c21b6064820152608490fd5b3461023857604036600319011261023857610bb8612728565b610bc061273e565b906001600160a01b0380911660005260fc602052604060002091166000526020526020604060002054604051908152f35b3461023857602036600319011261023857610c0a612841565b60043561012e55005b34610238576020366003190112610238576001600160a01b03610c34612728565b610c3c612841565b1680600052610133908160205260ff60406000205416610c71576000526020526040600020600160ff19825416179055600080f35b60405162461bcd60e51b815260206004820152602560248201527f4164647265737320616c72656164792077686974656c6973746564206173207360448201526432b73232b960d91b6064820152608490fd5b34610238576020366003190112610238576001600160a01b03610ce5612728565b16600052610133602052602060ff604060002054166040519015158152f35b3461023857600036600319011261023857602047604051908152f35b3461023857602036600319011261023857610d39612841565b60043561012f55005b3461023857604036600319011261023857610da7610d5e612728565b33600052610134602052610d7960ff60406000205416612e41565b6001600160a01b038116600052610133602052610d9d60ff60406000205416612eb3565b6024359033612f25565b602060405160018152f35b3461023857604036600319011261023857610dcb612728565b602435903360005260fc60205260406000206001600160a01b03821660005260205260406000205491808310610e0757610da792039033612ad0565b60405162461bcd60e51b815260206004820152602560248201527f45524332303a2064656372656173656420616c6c6f77616e63652062656c6f7760448201527f207a65726f0000000000000000000000000000000000000000000000000000006064820152608490fd5b3461023857604036600319011261023857610e8b612728565b6001600160a01b0360243591610e9f612841565b168015610f53578060005260fb60205260406000205491808310610f03576020817fddf252ad1be2c89b69c2b068fc378daa952ba7f163c4a11628f55a4df523b3ef9260009585875260fb84520360408620558060fd540360fd55604051908152a3005b60405162461bcd60e51b815260206004820152602260248201527f45524332303a206275726e20616d6f756e7420657863656564732062616c616e604482015261636560f01b6064820152608490fd5b60405162461bcd60e51b815260206004820152602160248201527f45524332303a206275726e2066726f6d20746865207a65726f206164647265736044820152607360f81b6064820152608490fd5b3461023857600036600319011261023857604051600060ff54610fc481612a73565b808452906001908181169081156110595750600114610ffe575b610ffa84610fee8186038261278c565b604051918291826126df565b0390f35b60ff600090815292507fe08ec2af2cfc251225e1968fd6ca21e4044f129bffa95bac3503be8bdb30a3675b828410611041575050508101602001610fee82610fde565b80546020858701810191909152909301928101611029565b60ff191660208087019190915292151560051b85019092019250610fee9150839050610fde565b3461023857604036600319011261023857611099612728565b60243567ffffffffffffffff8111610238576110b99036906004016127ae565b906000549060ff8260081c16159182809361167d575b8015611666575b156115fb5760ff198116600117600055826115e9575b5061110760ff60005460081c1661110281612c47565b612c47565b61111033612899565b6040519261111d84612770565b601d84527f4c6f672053746f726520416c706861204e6574776f726b20546f6b656e00000060208501526040519361115485612770565b60048552632629a0a760e11b602086015261117a60ff60005460081c1661110281612c47565b80519067ffffffffffffffff821161149457819061119960fe54612a73565b601f811161153f575b50602090601f83116001146114b5576000926114aa575b50508160011b916000199060031b1c19161760fe555b835167ffffffffffffffff8111611494576111eb60ff54612a73565b601f81116113f1575b50602094601f821160011461136d57948192939495600092611362575b50508160011b916000199060031b1c19161760ff555b61124560ff60005460081c1661123c81612c47565b61110281612c47565b600160c95580519060005b8281106112c5575050506001600160a01b0361013191166001600160a01b03198254161790554261013255600161012f5560006101305561128d57005b61ff0019600054166000557f7f26b83ff96e1f2b6a682f133852f6798a09c465da95921460cefb3847402498602060405160018152a1005b6001600160a01b03806112d88385612c1d565b51166112e2612841565b80600052610133908160205260ff60406000205416610c71576000526020526040600020600160ff1982541617905561131b8284612c1d565b511690611326612841565b816000526101348060205260ff60406000205416610b495761135d926000526020526040600020600160ff19825416179055612c0e565b611250565b015190508580611211565b601f1982169560ff6000527fe08ec2af2cfc251225e1968fd6ca21e4044f129bffa95bac3503be8bdb30a3679160005b8881106113d9575083600195969798106113c0575b505050811b0160ff55611227565b015160001960f88460031b161c191690558580806113b2565b9192602060018192868501518155019401920161139d565b60ff600052601f820160051c7fe08ec2af2cfc251225e1968fd6ca21e4044f129bffa95bac3503be8bdb30a36701906020831061146c575b601f0160051c7fe08ec2af2cfc251225e1968fd6ca21e4044f129bffa95bac3503be8bdb30a36701905b81811061146057506111f4565b60008155600101611453565b7fe08ec2af2cfc251225e1968fd6ca21e4044f129bffa95bac3503be8bdb30a3679150611429565b634e487b7160e01b600052604160045260246000fd5b0151905086806111b9565b925060fe6000527f54075df80ec1ae6ac9100e1fd0ebf3246c17f5c933137af392011f4c5f61513a906000935b601f1984168510611524576001945083601f1981161061150b575b505050811b0160fe556111cf565b015160001960f88460031b161c191690558680806114fd565b818101518355602094850194600190930192909101906114e2565b90915060fe600052601f830160051c7f54075df80ec1ae6ac9100e1fd0ebf3246c17f5c933137af392011f4c5f61513a01602084106115c2575b908392915b601f820160051c7f54075df80ec1ae6ac9100e1fd0ebf3246c17f5c933137af392011f4c5f61513a0181106115b357506111a2565b6000815584935060010161157e565b507f54075df80ec1ae6ac9100e1fd0ebf3246c17f5c933137af392011f4c5f61513a611579565b61ffff191661010117600055836110ec565b60405162461bcd60e51b815260206004820152602e60248201527f496e697469616c697a61626c653a20636f6e747261637420697320616c72656160448201527f647920696e697469616c697a65640000000000000000000000000000000000006064820152608490fd5b50303b1580156110d65750600160ff8216146110d6565b50600160ff8216106110cf565b346102385760003660031901126102385760206001600160a01b0360975416604051908152f35b346102385760003660031901126102385760206001600160a01b036101315416604051908152f35b34610238576000366003190112610238576001600160a01b036101315416330361023857005b3461023857600036600319011261023857611718612841565b60006001600160a01b036097546001600160a01b03198116609755167f8be0079c531659141344cd1fd0a4f28419497f9722a3daafe3b4186f6b6457e08280a3005b34610238576020366003190112610238576001600160a01b0361177b612728565b1660005260fb6020526020604060002054604051908152f35b34610238576020366003190112610238576001600160a01b036117b5612728565b6117bd612841565b1680600052610133908160205260ff60406000205416156117f057600052602052604060002060ff198154169055600080f35b60405162461bcd60e51b815260206004820152602160248201527f41646472657373206e6f742077686974656c69737465642061732073656e64656044820152603960f91b6064820152608490fd5b3461023857600036600319011261023857602061013254604051908152f35b3461023857600036600319011261023857602061013054604051908152f35b34610238576000366003190112610238576001600160a01b037f00000000000000000000000000000000000000000000000000000000000000001630036118e85760206040517f360894a13ba1a3210667c828492db98dca3e2076cc3735a920a3ca505d382bbc8152f35b60405162461bcd60e51b815260206004820152603860248201527f555550535570677261646561626c653a206d757374206e6f742062652063616c60448201527f6c6564207468726f7567682064656c656761746563616c6c00000000000000006064820152608490fd5b604036600319011261023857611967612728565b602490813567ffffffffffffffff811161023857366023820112156102385780600401359061199582612825565b6119a2604051918261278c565b82815260209283820192368783830101116102385781600092888793018637830101526001600160a01b03807f000000000000000000000000000000000000000000000000000000000000000016906119fd823014156128e1565b611a2c7f360894a13ba1a3210667c828492db98dca3e2076cc3735a920a3ca505d382bbc928284541614612953565b611a34612841565b7f4910fdfa16fed3260ed0e7147f7cc6da11a60208b5b9406d12a635614ffd91435460ff1615611a6d57505050505061027691506129c5565b85949516906040516352d1902d60e01b81528681600481865afa60009181611c92575b50611af05760405162461bcd60e51b815260048101889052602e818a01527f45524331393637557067726164653a206e657720696d706c656d656e7461746960448201526d6f6e206973206e6f74205555505360901b6064820152608490fd5b96919293949603611c3d57611b04866129c5565b604051917fbc7cd75a20ee27fd9adebab32041f755214dbc6bffa90cc0225b39da2e5c2d3b600080a2825115801590611c35575b611b3e57005b853b15611be557505061027693600092839251915af43d15611bdd573d90611b6582612825565b91611b73604051938461278c565b82523d60008484013e5b7f416464726573733a206c6f772d6c6576656c2064656c65676174652063616c6c60405193611bab85612754565b602785528401527f206661696c6564000000000000000000000000000000000000000000000000006040840152612bd2565b606090611b7d565b62461bcd60e51b8252600482018590526026908201527f416464726573733a2064656c65676174652063616c6c20746f206e6f6e2d636f6044820152651b9d1c9858dd60d21b6064820152608490fd5b506001611b38565b8460296084926040519262461bcd60e51b845260048401528201527f45524331393637557067726164653a20756e737570706f727465642070726f786044820152681a58589b195555525160ba1b6064820152fd5b9091508781813d8311611cba575b611caa818361278c565b8101031261023857519089611a90565b503d611ca0565b3461023857600036600319011261023857602061012d54604051908152f35b34610238576000366003190112610238576020611cfb612db4565b604051908152f35b34610238576020366003190112610238576001600160a01b03611d24612728565b611d2c612841565b1680600052610134908160205260ff6040600020541615611d5f57600052602052604060002060ff198154169055600080f35b60405162461bcd60e51b8152602060048201526024808201527f4163636f756e74206e6f742077686974656c69737465642061732072656369706044820152631a595b9d60e21b6064820152608490fd5b3461023857604036600319011261023857610da7611dcc612728565b3360005260fc60205260406000206001600160a01b038216600052602052611dfb602435604060002054612aad565b9033612ad0565b3461023857602036600319011261023857611e1b612841565b60043561012d55005b346102385760208060031936011261023857611e3e612728565b6001600160a01b03807f000000000000000000000000000000000000000000000000000000000000000016611e75813014156128e1565b611ea47f360894a13ba1a3210667c828492db98dca3e2076cc3735a920a3ca505d382bbc918383541614612953565b611eac612841565b604051908482019282841067ffffffffffffffff85111761149457836040526000835260ff7f4910fdfa16fed3260ed0e7147f7cc6da11a60208b5b9406d12a635614ffd91435416600014611f09575050505061027691506129c5565b8416906040516352d1902d60e01b81528681600481865afa600091816120aa575b50611f8b5760405162461bcd60e51b815260048101889052602e60248201527f45524331393637557067726164653a206e657720696d706c656d656e7461746960448201526d6f6e206973206e6f74205555505360901b6064820152608490fd5b0361205357611f99846129c5565b604051907fbc7cd75a20ee27fd9adebab32041f755214dbc6bffa90cc0225b39da2e5c2d3b600080a281511580159061204b575b611fd357005b833b15611ffa57506102769392600092839251915af43d15611bdd573d90611b6582612825565b62461bcd60e51b815260048101859052602660248201527f416464726573733a2064656c65676174652063616c6c20746f206e6f6e2d636f6044820152651b9d1c9858dd60d21b6064820152608490fd5b506000611fcd565b60405162461bcd60e51b815260048101869052602960248201527f45524331393637557067726164653a20756e737570706f727465642070726f786044820152681a58589b195555525160ba1b6064820152608490fd5b9091508781813d83116120d2575b6120c2818361278c565b8101031261023857519088611f2a565b503d6120b8565b3461023857600036600319011261023857602060405160128152f35b3461023857602036600319011261023857600435612111612841565b804710612150576000808080936001600160a01b036101315416828215612147575bf11561213b57005b6040513d6000823e3d90fd5b506108fc612133565b60405162461bcd60e51b815260206004820152601d60248201527f496e73756666696369656e7420636f6e74726163742062616c616e63650000006044820152606490fd5b34610238576060366003190112610238576121ae612728565b6121b661273e565b6044356001600160a01b03918284168060005260209361013485526121e260ff60406000205416612e41565b821660005261013384526121fd60ff60406000205416612eb3565b60005260fc83526040600020336000528352604060002054936000198503612234575b61222b939450612f25565b60405160018152f35b8285106122545761224c8361222b9596033383612ad0565b849350612220565b60405162461bcd60e51b815260048101859052601d60248201527f45524332303a20696e73756666696369656e7420616c6c6f77616e63650000006044820152606490fd5b346102385760403660031901126102385760043567ffffffffffffffff8111610238576122ca9036906004016127ae565b60249081356122d7612841565b60005b8251811015610276576001600160a01b03806122f68386612c1d565b5116612300612841565b8060005261013460209080825260ff9283604060002054166123ec57600052815260406000209160019160ff1993838582541617905584612341878a612c1d565b511661234b612841565b80600052610133928383526040600020541661239a579261239596959261239095928995600052526040600020918254161790556123898488612c1d565b5116612cb9565b612c0e565b6122da565b60405162461bcd60e51b8152600481018390526025818c01527f4164647265737320616c72656164792077686974656c6973746564206173207360448201526432b73232b960d91b6064820152608490fd5b60405162461bcd60e51b8152600481018490526028818b01527f4163636f756e7420616c72656164792077686974656c697374656420617320726044820152671958da5c1a595b9d60c21b6064820152608490fd5b3461023857600036600319011261023857602061012f54604051908152f35b3461023857600036600319011261023857602061012e54604051908152f35b3461023857600036600319011261023857602060fd54604051908152f35b600036600319011261023857600260c954146125d157600260c955610130543411156125805761012d541561253b5761012e54156124f6576124ef6124e96124e3612db4565b34612d94565b33612cb9565b600160c955005b60405162461bcd60e51b815260206004820152601560248201527f746f74616c427974657353746f726564203c3d203000000000000000000000006044820152606490fd5b60405162461bcd60e51b815260206004820152601160248201527f6d6174696350657242797465203c3d20300000000000000000000000000000006044820152606490fd5b60405162461bcd60e51b8152602060048201526024808201527f73656e7420616d6f756e74206c657373207468616e206d696e696d756d20616d6044820152631bdd5b9d60e21b6064820152608490fd5b60405162461bcd60e51b815260206004820152601f60248201527f5265656e7472616e637947756172643a207265656e7472616e742063616c6c006044820152606490fd5b3461023857604036600319011261023857610da7612632612728565b6024359033612ad0565b3461023857600036600319011261023857600060fe5461265b81612a73565b80845290600190818116908115611059575060011461268457610ffa84610fee8186038261278c565b60fe600090815292507f54075df80ec1ae6ac9100e1fd0ebf3246c17f5c933137af392011f4c5f61513a5b8284106126c7575050508101602001610fee82610fde565b805460208587018101919091529093019281016126af565b6020808252825181830181905290939260005b82811061271457505060409293506000838284010152601f8019910116010190565b8181018601518482016040015285016126f2565b600435906001600160a01b038216820361023857565b602435906001600160a01b038216820361023857565b6060810190811067ffffffffffffffff82111761149457604052565b6040810190811067ffffffffffffffff82111761149457604052565b90601f8019910116810190811067ffffffffffffffff82111761149457604052565b9080601f830112156102385781359067ffffffffffffffff8211611494578160051b604051936020936127e38584018761278c565b85528380860192820101928311610238578301905b828210612806575050505090565b81356001600160a01b03811681036102385781529083019083016127f8565b67ffffffffffffffff811161149457601f01601f191660200190565b6001600160a01b0360975416330361285557565b606460405162461bcd60e51b815260206004820152602060248201527f4f776e61626c653a2063616c6c6572206973206e6f7420746865206f776e65726044820152fd5b609754906001600160a01b0380911691826001600160a01b0319821617609755167f8be0079c531659141344cd1fd0a4f28419497f9722a3daafe3b4186f6b6457e0600080a3565b156128e857565b60405162461bcd60e51b815260206004820152602c60248201527f46756e6374696f6e206d7573742062652063616c6c6564207468726f7567682060448201527f64656c656761746563616c6c00000000000000000000000000000000000000006064820152608490fd5b1561295a57565b60405162461bcd60e51b815260206004820152602c60248201527f46756e6374696f6e206d7573742062652063616c6c6564207468726f7567682060448201527f6163746976652070726f787900000000000000000000000000000000000000006064820152608490fd5b803b15612a08576001600160a01b037f360894a13ba1a3210667c828492db98dca3e2076cc3735a920a3ca505d382bbc91166001600160a01b0319825416179055565b60405162461bcd60e51b815260206004820152602d60248201527f455243313936373a206e657720696d706c656d656e746174696f6e206973206e60448201527f6f74206120636f6e7472616374000000000000000000000000000000000000006064820152608490fd5b90600182811c92168015612aa3575b6020831014612a8d57565b634e487b7160e01b600052602260045260246000fd5b91607f1691612a82565b91908201809211612aba57565b634e487b7160e01b600052601160045260246000fd5b6001600160a01b03809116918215612b815716918215612b315760207f8c5be1e5ebec7d5bd14f71427d1e84f3dd0314c0f7b2291e5b200ac8c7c3b925918360005260fc8252604060002085600052825280604060002055604051908152a3565b60405162461bcd60e51b815260206004820152602260248201527f45524332303a20617070726f766520746f20746865207a65726f206164647265604482015261737360f01b6064820152608490fd5b60405162461bcd60e51b8152602060048201526024808201527f45524332303a20617070726f76652066726f6d20746865207a65726f206164646044820152637265737360e01b6064820152608490fd5b90919015612bde575090565b815115612bee5750805190602001fd5b60405162461bcd60e51b8152908190612c0a90600483016126df565b0390fd5b6000198114612aba5760010190565b8051821015612c315760209160051b010190565b634e487b7160e01b600052603260045260246000fd5b15612c4e57565b60405162461bcd60e51b815260206004820152602b60248201527f496e697469616c697a61626c653a20636f6e7472616374206973206e6f74206960448201527f6e697469616c697a696e670000000000000000000000000000000000000000006064820152608490fd5b6001600160a01b0316908115612d18577fddf252ad1be2c89b69c2b068fc378daa952ba7f163c4a11628f55a4df523b3ef602082612cfb60009460fd54612aad565b60fd5584845260fb825260408420818154019055604051908152a3565b60405162461bcd60e51b815260206004820152601f60248201527f45524332303a206d696e7420746f20746865207a65726f2061646472657373006044820152606490fd5b9190811015612c315760051b0190565b356001600160a01b03811681036102385790565b81810292918115918404141715612aba57565b8115612d9e570490565b634e487b7160e01b600052601260045260246000fd5b612dc561012d5461012e5490612d81565b6101325490814203428111612aba5760188102928184046018149042141715612aba576105a0810292808404603c1490151715612aba5762015180810292808404603c1490151715612aba576305265c0002918083046103e81490151715612aba57612e3e91612e3491612d94565b61012f5490612d81565b90565b15612e4857565b60405162461bcd60e51b815260206004820152602a60248201527f55736572206973206e6f742077686974656c697374656420746f207472616e7360448201527f66657220746f6b656e73000000000000000000000000000000000000000000006064820152608490fd5b15612eba57565b60405162461bcd60e51b815260206004820152602960248201527f55736572206973206e6f742077686974656c697374656420746f20726563656960448201527f766520746f6b656e7300000000000000000000000000000000000000000000006064820152608490fd5b6001600160a01b03809116918215613059571691821561300857600082815260fb602052604081205491808310612f9d57604082827fddf252ad1be2c89b69c2b068fc378daa952ba7f163c4a11628f55a4df523b3ef95876020965260fb8652038282205586815220818154019055604051908152a3565b60405162461bcd60e51b815260206004820152602660248201527f45524332303a207472616e7366657220616d6f756e742065786365656473206260448201527f616c616e636500000000000000000000000000000000000000000000000000006064820152608490fd5b60405162461bcd60e51b815260206004820152602360248201527f45524332303a207472616e7366657220746f20746865207a65726f206164647260448201526265737360e81b6064820152608490fd5b60405162461bcd60e51b815260206004820152602560248201527f45524332303a207472616e736665722066726f6d20746865207a65726f20616460448201527f64726573730000000000000000000000000000000000000000000000000000006064820152608490fdfea2646970667358221220c7648912931cdca9d6c1fbc737129823e44b726e3b66246376cda3f7dd6305d864736f6c63430008110033",
  "linkReferences": {},
  "deployedLinkReferences": {}
}