{
  "_format": "hh-sol-artifact-1",
  "contractName": "LSAN",
  "sourceName": "src/alpha/Token.sol",
  "abi": [
    {
      "anonymous": false,
      "inputs": [
        {
          "indexed": false,
          "internalType": "address",
          "name": "previousAdmin",
          "type": "address"
        },
        {
          "indexed": false,
          "internalType": "address",
          "name": "newAdmin",
          "type": "address"
        }
      ],
      "name": "AdminChanged",
      "type": "event"
    },
    {
      "anonymous": false,
      "inputs": [
        {
          "indexed": true,
          "internalType": "address",
          "name": "owner",
          "type": "address"
        },
        {
          "indexed": true,
          "internalType": "address",
          "name": "spender",
          "type": "address"
        },
        {
          "indexed": false,
          "internalType": "uint256",
          "name": "value",
          "type": "uint256"
        }
      ],
      "name": "Approval",
      "type": "event"
    },
    {
      "anonymous": false,
      "inputs": [
        {
          "indexed": true,
          "internalType": "address",
          "name": "beacon",
          "type": "address"
        }
      ],
      "name": "BeaconUpgraded",
      "type": "event"
    },
    {
      "anonymous": false,
      "inputs": [
        {
          "indexed": false,
          "internalType": "uint8",
          "name": "version",
          "type": "uint8"
        }
      ],
      "name": "Initialized",
      "type": "event"
    },
    {
      "anonymous": false,
      "inputs": [
        {
          "indexed": true,
          "internalType": "address",
          "name": "previousOwner",
          "type": "address"
        },
        {
          "indexed": true,
          "internalType": "address",
          "name": "newOwner",
          "type": "address"
        }
      ],
      "name": "OwnershipTransferred",
      "type": "event"
    },
    {
      "anonymous": false,
      "inputs": [
        {
          "indexed": true,
          "internalType": "enum AccessControlUpgradeable.Role",
          "name": "role",
          "type": "uint8"
        },
        {
          "indexed": true,
          "internalType": "address",
          "name": "account",
          "type": "address"
        },
        {
          "indexed": true,
          "internalType": "address",
          "name": "sender",
          "type": "address"
        }
      ],
      "name": "RoleGranted",
      "type": "event"
    },
    {
      "anonymous": false,
      "inputs": [
        {
          "indexed": true,
          "internalType": "enum AccessControlUpgradeable.Role",
          "name": "role",
          "type": "uint8"
        },
        {
          "indexed": true,
          "internalType": "address",
          "name": "account",
          "type": "address"
        },
        {
          "indexed": true,
          "internalType": "address",
          "name": "sender",
          "type": "address"
        }
      ],
      "name": "RoleRevoked",
      "type": "event"
    },
    {
      "anonymous": false,
      "inputs": [
        {
          "indexed": true,
          "internalType": "address",
          "name": "from",
          "type": "address"
        },
        {
          "indexed": true,
          "internalType": "address",
          "name": "to",
          "type": "address"
        },
        {
          "indexed": false,
          "internalType": "uint256",
          "name": "value",
          "type": "uint256"
        }
      ],
      "name": "Transfer",
      "type": "event"
    },
    {
      "anonymous": false,
      "inputs": [
        {
          "indexed": true,
          "internalType": "address",
          "name": "implementation",
          "type": "address"
        }
      ],
      "name": "Upgraded",
      "type": "event"
    },
    {
      "inputs": [],
      "name": "DEPLOYED_TIME",
      "outputs": [
        {
          "internalType": "uint256",
          "name": "",
          "type": "uint256"
        }
      ],
      "stateMutability": "view",
      "type": "function"
    },
    {
      "inputs": [],
      "name": "SAFE_ADDRESS",
      "outputs": [
        {
          "internalType": "address payable",
          "name": "",
          "type": "address"
        }
      ],
      "stateMutability": "view",
      "type": "function"
    },
    {
      "inputs": [
        {
          "internalType": "address",
          "name": "_address",
          "type": "address"
        }
      ],
      "name": "addBlacklist",
      "outputs": [],
      "stateMutability": "nonpayable",
      "type": "function"
    },
    {
      "inputs": [
        {
          "internalType": "address",
          "name": "_from",
          "type": "address"
        },
        {
          "internalType": "address",
          "name": "_to",
          "type": "address"
        }
      ],
      "name": "addWhitelist",
      "outputs": [],
      "stateMutability": "nonpayable",
      "type": "function"
    },
    {
      "inputs": [
        {
          "internalType": "address",
          "name": "owner",
          "type": "address"
        },
        {
          "internalType": "address",
          "name": "spender",
          "type": "address"
        }
      ],
      "name": "allowance",
      "outputs": [
        {
          "internalType": "uint256",
          "name": "",
          "type": "uint256"
        }
      ],
      "stateMutability": "view",
      "type": "function"
    },
    {
      "inputs": [
        {
          "internalType": "address",
          "name": "spender",
          "type": "address"
        },
        {
          "internalType": "uint256",
          "name": "amount",
          "type": "uint256"
        }
      ],
      "name": "approve",
      "outputs": [
        {
          "internalType": "bool",
          "name": "",
          "type": "bool"
        }
      ],
      "stateMutability": "nonpayable",
      "type": "function"
    },
    {
      "inputs": [],
      "name": "balance",
      "outputs": [
        {
          "internalType": "uint256",
          "name": "",
          "type": "uint256"
        }
      ],
      "stateMutability": "view",
      "type": "function"
    },
    {
      "inputs": [
        {
          "internalType": "address",
          "name": "account",
          "type": "address"
        }
      ],
      "name": "balanceOf",
      "outputs": [
        {
          "internalType": "uint256",
          "name": "",
          "type": "uint256"
        }
      ],
      "stateMutability": "view",
      "type": "function"
    },
    {
      "inputs": [
        {
          "internalType": "address",
          "name": "account",
          "type": "address"
        },
        {
          "internalType": "uint256",
          "name": "amount",
          "type": "uint256"
        }
      ],
      "name": "burn",
      "outputs": [],
      "stateMutability": "nonpayable",
      "type": "function"
    },
    {
      "inputs": [],
      "name": "decimals",
      "outputs": [
        {
          "internalType": "uint8",
          "name": "",
          "type": "uint8"
        }
      ],
      "stateMutability": "view",
      "type": "function"
    },
    {
      "inputs": [
        {
          "internalType": "address",
          "name": "spender",
          "type": "address"
        },
        {
          "internalType": "uint256",
          "name": "subtractedValue",
          "type": "uint256"
        }
      ],
      "name": "decreaseAllowance",
      "outputs": [
        {
          "internalType": "bool",
          "name": "",
          "type": "bool"
        }
      ],
      "stateMutability": "nonpayable",
      "type": "function"
    },
    {
      "inputs": [
        {
          "internalType": "enum AccessControlUpgradeable.Role",
          "name": "role",
          "type": "uint8"
        },
        {
          "internalType": "address",
          "name": "account",
          "type": "address"
        }
      ],
      "name": "grantRole",
      "outputs": [],
      "stateMutability": "nonpayable",
      "type": "function"
    },
    {
      "inputs": [
        {
          "internalType": "address",
          "name": "spender",
          "type": "address"
        },
        {
          "internalType": "uint256",
          "name": "addedValue",
          "type": "uint256"
        }
      ],
      "name": "increaseAllowance",
      "outputs": [
        {
          "internalType": "bool",
          "name": "",
          "type": "bool"
        }
      ],
      "stateMutability": "nonpayable",
      "type": "function"
    },
    {
      "inputs": [
        {
          "internalType": "address",
          "name": "_safeAddress",
          "type": "address"
        },
        {
          "internalType": "uint256",
          "name": "_weiPerByte",
          "type": "uint256"
        },
        {
          "internalType": "address[]",
          "name": "_blacklist",
          "type": "address[]"
        },
        {
          "internalType": "address[][]",
          "name": "_whitelist",
          "type": "address[][]"
        }
      ],
      "name": "initialize",
      "outputs": [],
      "stateMutability": "nonpayable",
      "type": "function"
    },
    {
      "inputs": [
        {
          "internalType": "address",
          "name": "_from",
          "type": "address"
        },
        {
          "internalType": "address",
          "name": "_to",
          "type": "address"
        }
      ],
      "name": "isPermitted",
      "outputs": [
        {
          "internalType": "bool",
          "name": "",
          "type": "bool"
        }
      ],
      "stateMutability": "view",
      "type": "function"
    },
    {
      "inputs": [
        {
          "internalType": "address[]",
          "name": "_fromAddresses",
          "type": "address[]"
        },
        {
          "internalType": "address[]",
          "name": "_toAddresses",
          "type": "address[]"
        }
      ],
      "name": "massAddWhitelist",
      "outputs": [],
      "stateMutability": "nonpayable",
      "type": "function"
    },
    {
      "inputs": [
        {
          "internalType": "address[]",
          "name": "_fromAddresses",
          "type": "address[]"
        },
        {
          "internalType": "address[]",
          "name": "_toAddresses",
          "type": "address[]"
        }
      ],
      "name": "massRemoveWhitelist",
      "outputs": [],
      "stateMutability": "nonpayable",
      "type": "function"
    },
    {
      "inputs": [],
      "name": "minimumDeposit",
      "outputs": [
        {
          "internalType": "uint256",
          "name": "",
          "type": "uint256"
        }
      ],
      "stateMutability": "view",
      "type": "function"
    },
    {
      "inputs": [],
      "name": "mint",
      "outputs": [],
      "stateMutability": "payable",
      "type": "function"
    },
    {
      "inputs": [
        {
          "internalType": "address[]",
          "name": "_addresses",
          "type": "address[]"
        },
        {
          "internalType": "uint256",
          "name": "amount",
          "type": "uint256"
        }
      ],
      "name": "mintManyTokens",
      "outputs": [],
      "stateMutability": "nonpayable",
      "type": "function"
    },
    {
      "inputs": [
        {
          "internalType": "address",
          "name": "account",
          "type": "address"
        },
        {
          "internalType": "uint256",
          "name": "amount",
          "type": "uint256"
        }
      ],
      "name": "mintTokens",
      "outputs": [],
      "stateMutability": "nonpayable",
      "type": "function"
    },
    {
      "inputs": [],
      "name": "multiplier",
      "outputs": [
        {
          "internalType": "uint256",
          "name": "",
          "type": "uint256"
        }
      ],
      "stateMutability": "view",
      "type": "function"
    },
    {
      "inputs": [],
      "name": "name",
      "outputs": [
        {
          "internalType": "string",
          "name": "",
          "type": "string"
        }
      ],
      "stateMutability": "view",
      "type": "function"
    },
    {
      "inputs": [],
      "name": "owner",
      "outputs": [
        {
          "internalType": "address",
          "name": "",
          "type": "address"
        }
      ],
      "stateMutability": "view",
      "type": "function"
    },
    {
      "inputs": [],
      "name": "price",
      "outputs": [
        {
          "internalType": "uint256",
          "name": "",
          "type": "uint256"
        }
      ],
      "stateMutability": "view",
      "type": "function"
    },
    {
      "inputs": [],
      "name": "proxiableUUID",
      "outputs": [
        {
          "internalType": "bytes32",
          "name": "",
          "type": "bytes32"
        }
      ],
      "stateMutability": "view",
      "type": "function"
    },
    {
      "inputs": [
        {
          "internalType": "address",
          "name": "_address",
          "type": "address"
        }
      ],
      "name": "removeBlacklist",
      "outputs": [],
      "stateMutability": "nonpayable",
      "type": "function"
    },
    {
      "inputs": [
        {
          "internalType": "address",
          "name": "_from",
          "type": "address"
        },
        {
          "internalType": "address",
          "name": "_to",
          "type": "address"
        }
      ],
      "name": "removeWhitelist",
      "outputs": [],
      "stateMutability": "nonpayable",
      "type": "function"
    },
    {
      "inputs": [],
      "name": "renounceOwnership",
      "outputs": [],
      "stateMutability": "nonpayable",
      "type": "function"
    },
    {
      "inputs": [
        {
          "internalType": "address",
          "name": "account",
          "type": "address"
        }
      ],
      "name": "renounceRole",
      "outputs": [],
      "stateMutability": "nonpayable",
      "type": "function"
    },
    {
      "inputs": [
        {
          "internalType": "address",
          "name": "account",
          "type": "address"
        }
      ],
      "name": "revokeRole",
      "outputs": [],
      "stateMutability": "nonpayable",
      "type": "function"
    },
    {
      "inputs": [
        {
          "internalType": "address",
          "name": "",
          "type": "address"
        }
      ],
      "name": "roles",
      "outputs": [
        {
          "internalType": "enum AccessControlUpgradeable.Role",
          "name": "",
          "type": "uint8"
        }
      ],
      "stateMutability": "view",
      "type": "function"
    },
    {
      "inputs": [
        {
          "internalType": "uint256",
          "name": "_minimumDeposit",
          "type": "uint256"
        }
      ],
      "name": "setMinimumDeposit",
      "outputs": [],
      "stateMutability": "nonpayable",
      "type": "function"
    },
    {
      "inputs": [
        {
          "internalType": "uint256",
          "name": "_multiplier",
          "type": "uint256"
        }
      ],
      "name": "setMultipler",
      "outputs": [],
      "stateMutability": "nonpayable",
      "type": "function"
    },
    {
      "inputs": [
        {
          "internalType": "uint256",
          "name": "_weiPerByte",
          "type": "uint256"
        }
      ],
      "name": "setWeiPerByte",
      "outputs": [],
      "stateMutability": "nonpayable",
      "type": "function"
    },
    {
      "inputs": [
        {
          "internalType": "bytes4",
          "name": "interfaceId",
          "type": "bytes4"
        }
      ],
      "name": "supportsInterface",
      "outputs": [
        {
          "internalType": "bool",
          "name": "",
          "type": "bool"
        }
      ],
      "stateMutability": "view",
      "type": "function"
    },
    {
      "inputs": [],
      "name": "symbol",
      "outputs": [
        {
          "internalType": "string",
          "name": "",
          "type": "string"
        }
      ],
      "stateMutability": "view",
      "type": "function"
    },
    {
      "inputs": [],
      "name": "totalSupply",
      "outputs": [
        {
          "internalType": "uint256",
          "name": "",
          "type": "uint256"
        }
      ],
      "stateMutability": "view",
      "type": "function"
    },
    {
      "inputs": [
        {
          "internalType": "address",
          "name": "_to",
          "type": "address"
        },
        {
          "internalType": "uint256",
          "name": "_amount",
          "type": "uint256"
        }
      ],
      "name": "transfer",
      "outputs": [
        {
          "internalType": "bool",
          "name": "",
          "type": "bool"
        }
      ],
      "stateMutability": "nonpayable",
      "type": "function"
    },
    {
      "inputs": [
        {
          "internalType": "address",
          "name": "_from",
          "type": "address"
        },
        {
          "internalType": "address",
          "name": "_to",
          "type": "address"
        },
        {
          "internalType": "uint256",
          "name": "amount",
          "type": "uint256"
        }
      ],
      "name": "transferFrom",
      "outputs": [
        {
          "internalType": "bool",
          "name": "",
          "type": "bool"
        }
      ],
      "stateMutability": "nonpayable",
      "type": "function"
    },
    {
      "inputs": [
        {
          "internalType": "address",
          "name": "newOwner",
          "type": "address"
        }
      ],
      "name": "transferOwnership",
      "outputs": [],
      "stateMutability": "nonpayable",
      "type": "function"
    },
    {
      "inputs": [
        {
          "internalType": "address",
          "name": "newImplementation",
          "type": "address"
        }
      ],
      "name": "upgradeTo",
      "outputs": [],
      "stateMutability": "nonpayable",
      "type": "function"
    },
    {
      "inputs": [
        {
          "internalType": "address",
          "name": "newImplementation",
          "type": "address"
        },
        {
          "internalType": "bytes",
          "name": "data",
          "type": "bytes"
        }
      ],
      "name": "upgradeToAndCall",
      "outputs": [],
      "stateMutability": "payable",
      "type": "function"
    },
    {
      "inputs": [],
      "name": "weiPerByte",
      "outputs": [
        {
          "internalType": "uint256",
          "name": "",
          "type": "uint256"
        }
      ],
      "stateMutability": "view",
      "type": "function"
    },
    {
      "inputs": [
        {
          "internalType": "uint256",
          "name": "amount",
          "type": "uint256"
        }
      ],
      "name": "withdraw",
      "outputs": [],
      "stateMutability": "nonpayable",
      "type": "function"
    }
  ],
  "bytecode": "0x60a080604052346100315730608052612ca5908161003782396080518181816115420152818161167a01526119e20152f35b600080fdfe6080604052600436101561001257600080fd5b60003560e01c80626d355914612230578062e0294d1461216457806301ffc9a71461212a57806306fdde0314612084578063095ea7b31461205e5780631217a7601461203f5780631249c58b14611ed857806318160ddd14611eba5780631b3ed72214611e9b5780632241c86d14611e0657806323b872dd14611d3a5780632e1a7d4d14611c8e578063313ce56714611c725780633659cfe6146119bd578063395093511461196b5780634f1ef286146115fd57806352d1902d146115275780635d5664e11461146a578063636bfbab1461144b578063650177961461142c5780636f8bd82c1461140a57806370a08231146113d0578063715018a6146113755780637d6b4028146112a657806380e52e3f1461126957806385d38f80146112415780638da5cb5b1461121a57806395d89b411461113c57806399374642146110f55780639cfe42da1461108d5780639dc29fac14610f3c578063a035b1fe14610f19578063a457c2d714610e59578063a73d633c14610dd8578063a9059cbb14610d95578063afc2afa614610d73578063b69ef8a814610d57578063bec9947114610cd9578063d7ff225a14610484578063dcc1a49a146103f2578063dd62ed3e146103a0578063e78ec42e1461037e578063eb91e65114610319578063f0dda65c146102b45763f2fde38b1461020957600080fd5b346102af5760203660031901126102af57610222612266565b61022a61241e565b6001600160a01b038116156102445761024290612476565b005b60405162461bcd60e51b815260206004820152602660248201527f4f776e61626c653a206e6577206f776e657220697320746865207a65726f206160448201527f64647265737300000000000000000000000000000000000000000000000000006064820152608490fd5b600080fd5b346102af5760403660031901126102af576102cd612266565b3360005261015f60205260ff60406000205416906004821015610303576102fa60026102429310156127eb565b602435906128e2565b634e487b7160e01b600052602160045260246000fd5b346102af5760203660031901126102af57610332612266565b3360005261015f60205260ff604060002054169060048210156103035761036460026001600160a01b039310156127eb565b16600090815261019660205260409020805460ff19169055005b346102af5760203660031901126102af5761039761241e565b60043561019355005b346102af5760403660031901126102af576103b9612266565b6103c161227c565b906001600160a01b0380911660005260fc602052604060002091166000526020526020604060002054604051908152f35b346102af5760203660031901126102af5761040b612266565b336001600160a01b0382160361044057610242906001600160a01b031660005261015f602052604060002060ff198154169055565b606460405162461bcd60e51b815260206004820152602060248201527f416363657373436f6e74726f6c3a204e4f545f4143434f554e545f4f574e45526044820152fd5b346102af5760803660031901126102af5761049d612266565b60443567ffffffffffffffff81116102af576104bd903690600401612304565b906064359067ffffffffffffffff82116102af57366023830112156102af5781600401356104ea816122ec565b926104f860405194856122ca565b8184526024602085019260051b820101903682116102af5760248101925b828410610ca9575050505060005460ff8160081c161590818092610c9c575b8015610c85575b15610c1a5760ff19811660011760005581610c08575b508351835103610b9d5761057660ff60005460081c1661057181612870565b612870565b61057f33612476565b60405161058b816122ae565b601d81527f4c6f672053746f726520416c706861204e6574776f726b20546f6b656e0000006020820152604051906105c2826122ae565b60048252632629a0a760e11b60208301526105e860ff60005460081c1661057181612870565b80519067ffffffffffffffff8211610a4857819061060760fe54612650565b601f8111610af3575b50602090601f8311600114610a6957600092610a5e575b50508160011b916000199060031b1c19161760fe555b80519067ffffffffffffffff8211610a4857819061065c60ff54612650565b601f811161099e575b50602090601f831160011461091457600092610909575b50508160011b916000199060031b1c19161760ff555b6106c760ff60005460081c166106a781612870565b6106b081612870565b6106b981612870565b600160c95561057181612870565b3360005261015f60205260ff604060002054166004811015610303576003146108b8573360005261015f6020526040600020600360ff19825416179055333360037f570d3756e5b890fbf84c01fc2daf898fa7e95ae3ca9f1ed5edf012eacb5c6ce6600080a46000915b8451831015610846576001600160a01b0361074c8487612846565b51163360005261015f60205260ff6040600020541660048110156103035760026107779110156127eb565b6000526101966020526040600020600160ff1982541617905560005b61079d8486612846565b5151811015610835576001600160a01b036107c2826107bc8789612846565b51612846565b5116906001600160a01b036107d78689612846565b51163360005261015f60205260ff604060002054169260048410156103035761080660026108309510156127eb565b6000526101976020526040600020906000526020526040600020600160ff19825416179055612837565b610793565b509161084090612837565b91610731565b6001600160a01b0361019491166001600160a01b031982541617905542610195556001610192556000610193556024356101915561088057005b61ff0019600054166000557f7f26b83ff96e1f2b6a682f133852f6798a09c465da95921460cefb3847402498602060405160018152a1005b60405162461bcd60e51b8152602060048201526024808201527f416363657373436f6e74726f6c3a20524f4c455f414c52454144595f4153534960448201526311d3915160e21b6064820152608490fd5b01519050868061067c565b925060ff6000527fe08ec2af2cfc251225e1968fd6ca21e4044f129bffa95bac3503be8bdb30a367906000935b601f1984168510610983576001945083601f1981161061096a575b505050811b0160ff55610692565b015160001960f88460031b161c1916905586808061095c565b81810151835560209485019460019093019290910190610941565b90915060ff600052601f830160051c7fe08ec2af2cfc251225e1968fd6ca21e4044f129bffa95bac3503be8bdb30a3670160208410610a21575b908392915b601f820160051c7fe08ec2af2cfc251225e1968fd6ca21e4044f129bffa95bac3503be8bdb30a367018110610a125750610665565b600081558493506001016109dd565b507fe08ec2af2cfc251225e1968fd6ca21e4044f129bffa95bac3503be8bdb30a3676109d8565b634e487b7160e01b600052604160045260246000fd5b015190508780610627565b925060fe6000527f54075df80ec1ae6ac9100e1fd0ebf3246c17f5c933137af392011f4c5f61513a906000935b601f1984168510610ad8576001945083601f19811610610abf575b505050811b0160fe5561063d565b015160001960f88460031b161c19169055878080610ab1565b81810151835560209485019460019093019290910190610a96565b90915060fe600052601f830160051c7f54075df80ec1ae6ac9100e1fd0ebf3246c17f5c933137af392011f4c5f61513a0160208410610b76575b908392915b601f820160051c7f54075df80ec1ae6ac9100e1fd0ebf3246c17f5c933137af392011f4c5f61513a018110610b675750610610565b60008155849350600101610b32565b507f54075df80ec1ae6ac9100e1fd0ebf3246c17f5c933137af392011f4c5f61513a610b2d565b60405162461bcd60e51b815260206004820152602d60248201527f4c53414e3a20496e697469616c2077686974656c69737420636f6e666967757260448201527f6174696f6e20696e76616c6964000000000000000000000000000000000000006064820152608490fd5b61ffff19166101011760005584610552565b60405162461bcd60e51b815260206004820152602e60248201527f496e697469616c697a61626c653a20636f6e747261637420697320616c72656160448201527f647920696e697469616c697a65640000000000000000000000000000000000006064820152608490fd5b50303b15801561053c5750600160ff82161461053c565b50600160ff821610610535565b833567ffffffffffffffff81116102af57602091610cce839260243691870101612304565b815201930192610516565b346102af5760403660031901126102af57610cf2612266565b610cfa61227c565b903360005261015f60205260ff604060002054166004811015610303576002610d249110156127eb565b6001600160a01b0380911660005261019760205260406000209116600052602052604060002060ff198154169055600080f35b346102af5760003660031901126102af57602047604051908152f35b346102af5760203660031901126102af57610d8c61241e565b60043561019255005b346102af5760403660031901126102af57610dcd610db1612266565b610dc3610dbe8233612a14565b612a5e565b6024359033612ad0565b602060405160018152f35b346102af5760403660031901126102af57610df1612266565b610df961227c565b903360005261015f60205260ff604060002054166004811015610303576002610e239110156127eb565b6001600160a01b03809116600052610197602052604060002091166000526020526040600020600160ff19825416179055600080f35b346102af5760403660031901126102af57610e72612266565b602435903360005260fc60205260406000206001600160a01b03821660005260205260406000205491808310610eae57610dcd920390336126ad565b60405162461bcd60e51b815260206004820152602560248201527f45524332303a2064656372656173656420616c6c6f77616e63652062656c6f7760448201527f207a65726f0000000000000000000000000000000000000000000000000000006064820152608490fd5b346102af5760003660031901126102af576020610f346129f8565b604051908152f35b346102af5760403660031901126102af57610f55612266565b6024353360005260209161015f835260ff6040600020541690600482101561030357610f8c60026001600160a01b039310156127eb565b1690811561103e578160005260fb8352604060002054818110610fee5792817fddf252ad1be2c89b69c2b068fc378daa952ba7f163c4a11628f55a4df523b3ef9260009585875260fb84520360408620558060fd540360fd55604051908152a3005b60405162461bcd60e51b815260048101859052602260248201527f45524332303a206275726e20616d6f756e7420657863656564732062616c616e604482015261636560f01b6064820152608490fd5b60405162461bcd60e51b815260048101849052602160248201527f45524332303a206275726e2066726f6d20746865207a65726f206164647265736044820152607360f81b6064820152608490fd5b346102af5760203660031901126102af576110a6612266565b3360005261015f60205260ff60406000205416906004821015610303576110d860026001600160a01b039310156127eb565b16600090815261019660205260409020805460ff19166001179055005b346102af5760203660031901126102af576001600160a01b03611116612266565b1660005261015f60205260ff604060002054166040516004821015610303576020918152f35b346102af5760003660031901126102af57604051600060ff5461115e81612650565b808452906001908181169081156111f35750600114611198575b61119484611188818603826122ca565b604051918291826123b9565b0390f35b60ff600090815292507fe08ec2af2cfc251225e1968fd6ca21e4044f129bffa95bac3503be8bdb30a3675b8284106111db57505050810160200161118882611178565b805460208587018101919091529093019281016111c3565b60ff191660208087019190915292151560051b850190920192506111889150839050611178565b346102af5760003660031901126102af5760206001600160a01b0360975416604051908152f35b346102af5760003660031901126102af5760206001600160a01b036101945416604051908152f35b346102af5760203660031901126102af57610242611285612266565b6001600160a01b031660005261015f602052604060002060ff198154169055565b346102af576112b436612372565b903360005261015f602081815260ff938460406000205416946004861015610303576112e46002809710156127eb565b6112f18551835114612986565b60005b8551811015610242576001600160a01b0390816113118289612846565b51169161131e8286612846565b5116336000528686528360406000205416926004841015610303576113488a6113709510156127eb565b600052610197865260406000209060005285526040600020600160ff19825416179055612837565b6112f4565b346102af5760003660031901126102af5761138e61241e565b60006001600160a01b036097546001600160a01b03198116609755167f8be0079c531659141344cd1fd0a4f28419497f9722a3daafe3b4186f6b6457e08280a3005b346102af5760203660031901126102af576001600160a01b036113f1612266565b1660005260fb6020526020604060002054604051908152f35b346102af5760203660031901126102af5761142361241e565b60043561019155005b346102af5760003660031901126102af57602061019554604051908152f35b346102af5760003660031901126102af57602061019354604051908152f35b346102af5760403660031901126102af5760043560048110156102af5761148f61227c565b3360005261015f908160205260ff60406000205416906004821015610303576114c360036001600160a01b039310156127eb565b1690816000528060205260ff6040600020541660048110156103035783146108b85781600052602052604060002060ff1981541660ff841617905533917f570d3756e5b890fbf84c01fc2daf898fa7e95ae3ca9f1ed5edf012eacb5c6ce6600080a4005b346102af5760003660031901126102af576001600160a01b037f00000000000000000000000000000000000000000000000000000000000000001630036115925760206040517f360894a13ba1a3210667c828492db98dca3e2076cc3735a920a3ca505d382bbc8152f35b60405162461bcd60e51b815260206004820152603860248201527f555550535570677261646561626c653a206d757374206e6f742062652063616c60448201527f6c6564207468726f7567682064656c656761746563616c6c00000000000000006064820152608490fd5b60403660031901126102af57611611612266565b602490813567ffffffffffffffff81116102af57366023820112156102af5780600401359061163f82612402565b61164c60405191826122ca565b82815260209283820192368783830101116102af5781600092888793018637830101526001600160a01b03807f000000000000000000000000000000000000000000000000000000000000000016906116a7823014156124be565b6116d67f360894a13ba1a3210667c828492db98dca3e2076cc3735a920a3ca505d382bbc928284541614612530565b6116de61241e565b7f4910fdfa16fed3260ed0e7147f7cc6da11a60208b5b9406d12a635614ffd91435460ff161561171757505050505061024291506125a2565b85949516906040516352d1902d60e01b81528681600481865afa6000918161193c575b5061179a5760405162461bcd60e51b815260048101889052602e818a01527f45524331393637557067726164653a206e657720696d706c656d656e7461746960448201526d6f6e206973206e6f74205555505360901b6064820152608490fd5b969192939496036118e7576117ae866125a2565b604051917fbc7cd75a20ee27fd9adebab32041f755214dbc6bffa90cc0225b39da2e5c2d3b600080a28251158015906118df575b6117e857005b853b1561188f57505061024293600092839251915af43d15611887573d9061180f82612402565b9161181d60405193846122ca565b82523d60008484013e5b7f416464726573733a206c6f772d6c6576656c2064656c65676174652063616c6c6040519361185585612292565b602785528401527f206661696c65640000000000000000000000000000000000000000000000000060408401526127af565b606090611827565b62461bcd60e51b8252600482018590526026908201527f416464726573733a2064656c65676174652063616c6c20746f206e6f6e2d636f6044820152651b9d1c9858dd60d21b6064820152608490fd5b5060016117e2565b8460296084926040519262461bcd60e51b845260048401528201527f45524331393637557067726164653a20756e737570706f727465642070726f786044820152681a58589b195555525160ba1b6064820152fd5b9091508781813d8311611964575b61195481836122ca565b810103126102af5751908961173a565b503d61194a565b346102af5760403660031901126102af57610dcd611987612266565b3360005260fc60205260406000206001600160a01b0382166000526020526119b660243560406000205461268a565b90336126ad565b346102af576020806003193601126102af576119d7612266565b6001600160a01b03807f000000000000000000000000000000000000000000000000000000000000000016611a0e813014156124be565b611a3d7f360894a13ba1a3210667c828492db98dca3e2076cc3735a920a3ca505d382bbc918383541614612530565b611a4561241e565b604051908482019282841067ffffffffffffffff851117610a4857836040526000835260ff7f4910fdfa16fed3260ed0e7147f7cc6da11a60208b5b9406d12a635614ffd91435416600014611aa2575050505061024291506125a2565b8416906040516352d1902d60e01b81528681600481865afa60009181611c43575b50611b245760405162461bcd60e51b815260048101889052602e60248201527f45524331393637557067726164653a206e657720696d706c656d656e7461746960448201526d6f6e206973206e6f74205555505360901b6064820152608490fd5b03611bec57611b32846125a2565b604051907fbc7cd75a20ee27fd9adebab32041f755214dbc6bffa90cc0225b39da2e5c2d3b600080a2815115801590611be4575b611b6c57005b833b15611b9357506102429392600092839251915af43d15611887573d9061180f82612402565b62461bcd60e51b815260048101859052602660248201527f416464726573733a2064656c65676174652063616c6c20746f206e6f6e2d636f6044820152651b9d1c9858dd60d21b6064820152608490fd5b506000611b66565b60405162461bcd60e51b815260048101869052602960248201527f45524331393637557067726164653a20756e737570706f727465642070726f786044820152681a58589b195555525160ba1b6064820152608490fd5b9091508781813d8311611c6b575b611c5b81836122ca565b810103126102af57519088611ac3565b503d611c51565b346102af5760003660031901126102af57602060405160128152f35b346102af5760203660031901126102af57600435611caa61241e565b804710611ce9576000808080936001600160a01b036101945416828215611ce0575bf115611cd457005b6040513d6000823e3d90fd5b506108fc611ccc565b60405162461bcd60e51b815260206004820152602360248201527f4c53414e3a20496e73756666696369656e7420636f6e74726163742062616c616044820152626e636560e81b6064820152608490fd5b346102af5760603660031901126102af57611d53612266565b611d5b61227c565b60443590611d6c610dbe8285612a14565b6001600160a01b03831660005260fc602052604060002033600052602052604060002054926000198403611da5575b610dcd9350612ad0565b828410611dc157611dbc83610dcd950333836126ad565b611d9b565b60405162461bcd60e51b815260206004820152601d60248201527f45524332303a20696e73756666696369656e7420616c6c6f77616e63650000006044820152606490fd5b346102af5760403660031901126102af5760043567ffffffffffffffff81116102af57611e37903690600401612304565b602435903360005261015f60205260ff604060002054166004811015610303576002611e649110156127eb565b60005b81518110156102425780611e91846001600160a01b03611e8a611e969587612846565b51166128e2565b612837565b611e67565b346102af5760003660031901126102af57602061019254604051908152f35b346102af5760003660031901126102af57602060fd54604051908152f35b60003660031901126102af57600260c95414611ffa57600260c955610191543410611fa957610193543410611f3e57611f0f6129f8565b8015611f2857611f21903404336128e2565b600160c955005b634e487b7160e01b600052601260045260246000fd5b60405162461bcd60e51b815260206004820152602d60248201527f4c53414e3a20416d6f756e74206c657373207468616e206d696e696d756d206460448201527f65706f73697420616d6f756e74000000000000000000000000000000000000006064820152608490fd5b60405162461bcd60e51b8152602060048201526024808201527f4c53414e3a20416d6f756e74206c657373207468616e20612073696e676c65206044820152636279746560e01b6064820152608490fd5b60405162461bcd60e51b815260206004820152601f60248201527f5265656e7472616e637947756172643a207265656e7472616e742063616c6c006044820152606490fd5b346102af5760003660031901126102af57602061019154604051908152f35b346102af5760403660031901126102af57610dcd61207a612266565b60243590336126ad565b346102af5760003660031901126102af57604051600060fe546120a681612650565b808452906001908181169081156111f357506001146120cf5761119484611188818603826122ca565b60fe600090815292507f54075df80ec1ae6ac9100e1fd0ebf3246c17f5c933137af392011f4c5f61513a5b82841061211257505050810160200161118882611178565b805460208587018101919091529093019281016120fa565b346102af5760203660031901126102af5760043563ffffffff60e01b81168091036102af576040516301ffc9a760e01b9091148152602090f35b346102af5761217236612372565b903360005261015f602081815260ff938460406000205416946004861015610303576121a26002809710156127eb565b6121af8551835114612986565b60005b8551811015610242576001600160a01b0390816121cf8289612846565b5116916121dc8286612846565b5116336000528686528360406000205416926004841015610303576122068a61222b9510156127eb565b60005261019786526040600020906000528552604060002060ff198154169055612837565b6121b2565b346102af5760403660031901126102af57602061225c61224e612266565b61225661227c565b90612a14565b6040519015158152f35b600435906001600160a01b03821682036102af57565b602435906001600160a01b03821682036102af57565b6060810190811067ffffffffffffffff821117610a4857604052565b6040810190811067ffffffffffffffff821117610a4857604052565b90601f8019910116810190811067ffffffffffffffff821117610a4857604052565b67ffffffffffffffff8111610a485760051b60200190565b81601f820112156102af5780359161231b836122ec565b9261232960405194856122ca565b808452602092838086019260051b8201019283116102af578301905b828210612353575050505090565b81356001600160a01b03811681036102af578152908301908301612345565b9060406003198301126102af5767ffffffffffffffff6004358181116102af578361239f91600401612304565b926024359182116102af576123b691600401612304565b90565b6020808252825181830181905290939260005b8281106123ee57505060409293506000838284010152601f8019910116010190565b8181018601518482016040015285016123cc565b67ffffffffffffffff8111610a4857601f01601f191660200190565b6001600160a01b0360975416330361243257565b606460405162461bcd60e51b815260206004820152602060248201527f4f776e61626c653a2063616c6c6572206973206e6f7420746865206f776e65726044820152fd5b609754906001600160a01b0380911691826001600160a01b0319821617609755167f8be0079c531659141344cd1fd0a4f28419497f9722a3daafe3b4186f6b6457e0600080a3565b156124c557565b60405162461bcd60e51b815260206004820152602c60248201527f46756e6374696f6e206d7573742062652063616c6c6564207468726f7567682060448201527f64656c656761746563616c6c00000000000000000000000000000000000000006064820152608490fd5b1561253757565b60405162461bcd60e51b815260206004820152602c60248201527f46756e6374696f6e206d7573742062652063616c6c6564207468726f7567682060448201527f6163746976652070726f787900000000000000000000000000000000000000006064820152608490fd5b803b156125e5576001600160a01b037f360894a13ba1a3210667c828492db98dca3e2076cc3735a920a3ca505d382bbc91166001600160a01b0319825416179055565b60405162461bcd60e51b815260206004820152602d60248201527f455243313936373a206e657720696d706c656d656e746174696f6e206973206e60448201527f6f74206120636f6e7472616374000000000000000000000000000000000000006064820152608490fd5b90600182811c92168015612680575b602083101461266a57565b634e487b7160e01b600052602260045260246000fd5b91607f169161265f565b9190820180921161269757565b634e487b7160e01b600052601160045260246000fd5b6001600160a01b0380911691821561275e571691821561270e5760207f8c5be1e5ebec7d5bd14f71427d1e84f3dd0314c0f7b2291e5b200ac8c7c3b925918360005260fc8252604060002085600052825280604060002055604051908152a3565b60405162461bcd60e51b815260206004820152602260248201527f45524332303a20617070726f766520746f20746865207a65726f206164647265604482015261737360f01b6064820152608490fd5b60405162461bcd60e51b8152602060048201526024808201527f45524332303a20617070726f76652066726f6d20746865207a65726f206164646044820152637265737360e01b6064820152608490fd5b909190156127bb575090565b8151156127cb5750805190602001fd5b60405162461bcd60e51b81529081906127e790600483016123b9565b0390fd5b156127f257565b60405162461bcd60e51b815260206004820152601d60248201527f416363657373436f6e74726f6c3a204e4f545f415554484f52495a45440000006044820152606490fd5b60001981146126975760010190565b805182101561285a5760209160051b010190565b634e487b7160e01b600052603260045260246000fd5b1561287757565b60405162461bcd60e51b815260206004820152602b60248201527f496e697469616c697a61626c653a20636f6e7472616374206973206e6f74206960448201527f6e697469616c697a696e670000000000000000000000000000000000000000006064820152608490fd5b6001600160a01b0316908115612941577fddf252ad1be2c89b69c2b068fc378daa952ba7f163c4a11628f55a4df523b3ef60208261292460009460fd5461268a565b60fd5584845260fb825260408420818154019055604051908152a3565b60405162461bcd60e51b815260206004820152601f60248201527f45524332303a206d696e7420746f20746865207a65726f2061646472657373006044820152606490fd5b1561298d57565b60405162461bcd60e51b815260206004820152602860248201527f4c53414e3a20496e76616c696420706172616d657465727320666f72206d617360448201527f73207570646174650000000000000000000000000000000000000000000000006064820152608490fd5b6101915461019254908181029181830414901517156126975790565b6001600160a01b0380921660009080825261019660205260ff604083205416612a405750505050600190565b60ff9360409316825261019760205282822090825260205220541690565b15612a6557565b60405162461bcd60e51b815260206004820152603160248201527f4c53414e3a205472616e73666572206265747765656e2061646472657373657360448201527f206973206e6f74207065726d69747465640000000000000000000000000000006064820152608490fd5b6001600160a01b03809116918215612c045716918215612bb357600082815260fb602052604081205491808310612b4857604082827fddf252ad1be2c89b69c2b068fc378daa952ba7f163c4a11628f55a4df523b3ef95876020965260fb8652038282205586815220818154019055604051908152a3565b60405162461bcd60e51b815260206004820152602660248201527f45524332303a207472616e7366657220616d6f756e742065786365656473206260448201527f616c616e636500000000000000000000000000000000000000000000000000006064820152608490fd5b60405162461bcd60e51b815260206004820152602360248201527f45524332303a207472616e7366657220746f20746865207a65726f206164647260448201526265737360e81b6064820152608490fd5b60405162461bcd60e51b815260206004820152602560248201527f45524332303a207472616e736665722066726f6d20746865207a65726f20616460448201527f64726573730000000000000000000000000000000000000000000000000000006064820152608490fdfea2646970667358221220a8e00f9cb3634fd3b487bb3be99412d7bd435ba984bb021f8be0560bca4a63ce64736f6c63430008110033",
  "linkReferences": {},
  "deployedLinkReferences": {}
}