{
  "_format": "hh-sol-artifact-1",
  "contractName": "LogStoreNodeManager",
  "sourceName": "src/NodeManager.sol",
  "abi": [
    {
      "anonymous": false,
      "inputs": [
        {
          "indexed": false,
          "internalType": "address",
          "name": "previousAdmin",
          "type": "address"
        },
        {
          "indexed": false,
          "internalType": "address",
          "name": "newAdmin",
          "type": "address"
        }
      ],
      "name": "AdminChanged",
      "type": "event"
    },
    {
      "anonymous": false,
      "inputs": [
        {
          "indexed": true,
          "internalType": "address",
          "name": "beacon",
          "type": "address"
        }
      ],
      "name": "BeaconUpgraded",
      "type": "event"
    },
    {
      "anonymous": false,
      "inputs": [
        {
          "indexed": false,
          "internalType": "uint8",
          "name": "version",
          "type": "uint8"
        }
      ],
      "name": "Initialized",
      "type": "event"
    },
    {
      "anonymous": false,
      "inputs": [
        {
          "indexed": true,
          "internalType": "address",
          "name": "nodeAddress",
          "type": "address"
        }
      ],
      "name": "NodeRemoved",
      "type": "event"
    },
    {
      "anonymous": false,
      "inputs": [
        {
          "indexed": true,
          "internalType": "address",
          "name": "nodeAddress",
          "type": "address"
        },
        {
          "indexed": false,
          "internalType": "uint256",
          "name": "stake",
          "type": "uint256"
        }
      ],
      "name": "NodeStakeUpdated",
      "type": "event"
    },
    {
      "anonymous": false,
      "inputs": [
        {
          "indexed": true,
          "internalType": "address",
          "name": "nodeAddress",
          "type": "address"
        },
        {
          "indexed": false,
          "internalType": "string",
          "name": "metadata",
          "type": "string"
        },
        {
          "indexed": true,
          "internalType": "uint256",
          "name": "isNew",
          "type": "uint256"
        },
        {
          "indexed": false,
          "internalType": "uint256",
          "name": "lastSeen",
          "type": "uint256"
        }
      ],
      "name": "NodeUpdated",
      "type": "event"
    },
    {
      "anonymous": false,
      "inputs": [
        {
          "indexed": true,
          "internalType": "address",
          "name": "nodeAddress",
          "type": "address"
        }
      ],
      "name": "NodeWhitelistApproved",
      "type": "event"
    },
    {
      "anonymous": false,
      "inputs": [
        {
          "indexed": true,
          "internalType": "address",
          "name": "nodeAddress",
          "type": "address"
        }
      ],
      "name": "NodeWhitelistRejected",
      "type": "event"
    },
    {
      "anonymous": false,
      "inputs": [
        {
          "indexed": true,
          "internalType": "address",
          "name": "previousOwner",
          "type": "address"
        },
        {
          "indexed": true,
          "internalType": "address",
          "name": "newOwner",
          "type": "address"
        }
      ],
      "name": "OwnershipTransferred",
      "type": "event"
    },
    {
      "anonymous": false,
      "inputs": [
        {
          "indexed": false,
          "internalType": "string",
          "name": "id",
          "type": "string"
        }
      ],
      "name": "ReportProcessed",
      "type": "event"
    },
    {
      "anonymous": false,
      "inputs": [
        {
          "indexed": true,
          "internalType": "bool",
          "name": "value",
          "type": "bool"
        }
      ],
      "name": "RequiresWhitelistChanged",
      "type": "event"
    },
    {
      "anonymous": false,
      "inputs": [
        {
          "indexed": true,
          "internalType": "address",
          "name": "implementation",
          "type": "address"
        }
      ],
      "name": "Upgraded",
      "type": "event"
    },
    {
      "inputs": [
        {
          "internalType": "address",
          "name": "",
          "type": "address"
        }
      ],
      "name": "balanceOf",
      "outputs": [
        {
          "internalType": "uint256",
          "name": "",
          "type": "uint256"
        }
      ],
      "stateMutability": "view",
      "type": "function"
    },
    {
      "inputs": [],
      "name": "countNodes",
      "outputs": [
        {
          "internalType": "uint256",
          "name": "",
          "type": "uint256"
        }
      ],
      "stateMutability": "view",
      "type": "function"
    },
    {
      "inputs": [
        {
          "internalType": "uint256",
          "name": "amount",
          "type": "uint256"
        },
        {
          "internalType": "address",
          "name": "node",
          "type": "address"
        }
      ],
      "name": "delegate",
      "outputs": [],
      "stateMutability": "nonpayable",
      "type": "function"
    },
    {
      "inputs": [
        {
          "internalType": "uint256",
          "name": "amount",
          "type": "uint256"
        },
        {
          "internalType": "address",
          "name": "node",
          "type": "address"
        }
      ],
      "name": "delegateStake",
      "outputs": [],
      "stateMutability": "nonpayable",
      "type": "function"
    },
    {
      "inputs": [
        {
          "internalType": "address",
          "name": "",
          "type": "address"
        },
        {
          "internalType": "address",
          "name": "",
          "type": "address"
        }
      ],
      "name": "delegatesOf",
      "outputs": [
        {
          "internalType": "uint256",
          "name": "",
          "type": "uint256"
        }
      ],
      "stateMutability": "view",
      "type": "function"
    },
    {
      "inputs": [],
      "name": "headNode",
      "outputs": [
        {
          "internalType": "address",
          "name": "",
          "type": "address"
        }
      ],
      "stateMutability": "view",
      "type": "function"
    },
    {
      "inputs": [
        {
          "internalType": "address",
          "name": "owner_",
          "type": "address"
        },
        {
          "internalType": "bool",
          "name": "requiresWhitelist_",
          "type": "bool"
        },
        {
          "internalType": "address",
          "name": "stakeTokenAddress_",
          "type": "address"
        },
        {
          "internalType": "uint256",
          "name": "stakeRequiredAmount_",
          "type": "uint256"
        },
        {
          "internalType": "address[]",
          "name": "initialNodes",
          "type": "address[]"
        },
        {
          "internalType": "string[]",
          "name": "initialMetadata",
          "type": "string[]"
        }
      ],
      "name": "initialize",
      "outputs": [],
      "stateMutability": "nonpayable",
      "type": "function"
    },
    {
      "inputs": [
        {
          "internalType": "address",
          "name": "node",
          "type": "address"
        }
      ],
      "name": "isStaked",
      "outputs": [
        {
          "internalType": "bool",
          "name": "",
          "type": "bool"
        }
      ],
      "stateMutability": "view",
      "type": "function"
    },
    {
      "inputs": [
        {
          "internalType": "uint256",
          "name": "amount",
          "type": "uint256"
        },
        {
          "internalType": "string",
          "name": "metadata_",
          "type": "string"
        }
      ],
      "name": "join",
      "outputs": [],
      "stateMutability": "nonpayable",
      "type": "function"
    },
    {
      "inputs": [
        {
          "internalType": "address",
          "name": "nodeAddress",
          "type": "address"
        }
      ],
      "name": "kickNode",
      "outputs": [],
      "stateMutability": "nonpayable",
      "type": "function"
    },
    {
      "inputs": [],
      "name": "leave",
      "outputs": [],
      "stateMutability": "nonpayable",
      "type": "function"
    },
    {
      "inputs": [],
      "name": "nodeAddresses",
      "outputs": [
        {
          "internalType": "address[]",
          "name": "resultAddresses",
          "type": "address[]"
        }
      ],
      "stateMutability": "view",
      "type": "function"
    },
    {
      "inputs": [
        {
          "internalType": "address",
          "name": "node",
          "type": "address"
        }
      ],
      "name": "nodeStake",
      "outputs": [
        {
          "internalType": "uint256",
          "name": "",
          "type": "uint256"
        }
      ],
      "stateMutability": "view",
      "type": "function"
    },
    {
      "inputs": [
        {
          "internalType": "address",
          "name": "",
          "type": "address"
        }
      ],
      "name": "nodes",
      "outputs": [
        {
          "internalType": "uint256",
          "name": "index",
          "type": "uint256"
        },
        {
          "internalType": "string",
          "name": "metadata",
          "type": "string"
        },
        {
          "internalType": "uint256",
          "name": "lastSeen",
          "type": "uint256"
        },
        {
          "internalType": "address",
          "name": "next",
          "type": "address"
        },
        {
          "internalType": "address",
          "name": "prev",
          "type": "address"
        },
        {
          "internalType": "uint256",
          "name": "stake",
          "type": "uint256"
        }
      ],
      "stateMutability": "view",
      "type": "function"
    },
    {
      "inputs": [],
      "name": "owner",
      "outputs": [
        {
          "internalType": "address",
          "name": "",
          "type": "address"
        }
      ],
      "stateMutability": "view",
      "type": "function"
    },
    {
      "inputs": [
        {
          "internalType": "string",
          "name": "id",
          "type": "string"
        }
      ],
      "name": "processReport",
      "outputs": [],
      "stateMutability": "nonpayable",
      "type": "function"
    },
    {
      "inputs": [],
      "name": "proxiableUUID",
      "outputs": [
        {
          "internalType": "bytes32",
          "name": "",
          "type": "bytes32"
        }
      ],
      "stateMutability": "view",
      "type": "function"
    },
    {
      "inputs": [
        {
          "internalType": "address",
          "name": "contractAddress",
          "type": "address"
        }
      ],
      "name": "registerQueryManager",
      "outputs": [],
      "stateMutability": "nonpayable",
      "type": "function"
    },
    {
      "inputs": [
        {
          "internalType": "address",
          "name": "contractAddress",
          "type": "address"
        }
      ],
      "name": "registerReportManager",
      "outputs": [],
      "stateMutability": "nonpayable",
      "type": "function"
    },
    {
      "inputs": [
        {
          "internalType": "address",
          "name": "contractAddress",
          "type": "address"
        }
      ],
      "name": "registerStoreManager",
      "outputs": [],
      "stateMutability": "nonpayable",
      "type": "function"
    },
    {
      "inputs": [],
      "name": "removeNode",
      "outputs": [],
      "stateMutability": "nonpayable",
      "type": "function"
    },
    {
      "inputs": [
        {
          "internalType": "address",
          "name": "nodeAddress",
          "type": "address"
        }
      ],
      "name": "removeNodeAdmin",
      "outputs": [],
      "stateMutability": "nonpayable",
      "type": "function"
    },
    {
      "inputs": [],
      "name": "renounceOwnership",
      "outputs": [],
      "stateMutability": "nonpayable",
      "type": "function"
    },
    {
      "inputs": [],
      "name": "requiresWhitelist",
      "outputs": [
        {
          "internalType": "bool",
          "name": "",
          "type": "bool"
        }
      ],
      "stateMutability": "view",
      "type": "function"
    },
    {
      "inputs": [
        {
          "internalType": "bool",
          "name": "value",
          "type": "bool"
        }
      ],
      "name": "setRequiresWhitelist",
      "outputs": [],
      "stateMutability": "nonpayable",
      "type": "function"
    },
    {
      "inputs": [
        {
          "internalType": "uint256",
          "name": "amount",
          "type": "uint256"
        }
      ],
      "name": "stake",
      "outputs": [],
      "stateMutability": "nonpayable",
      "type": "function"
    },
    {
      "inputs": [],
      "name": "stakeRequiredAmount",
      "outputs": [
        {
          "internalType": "uint256",
          "name": "",
          "type": "uint256"
        }
      ],
      "stateMutability": "view",
      "type": "function"
    },
    {
      "inputs": [],
      "name": "stakeTokenAddress",
      "outputs": [
        {
          "internalType": "address",
          "name": "",
          "type": "address"
        }
      ],
      "stateMutability": "view",
      "type": "function"
    },
    {
      "inputs": [],
      "name": "tailNode",
      "outputs": [
        {
          "internalType": "address",
          "name": "",
          "type": "address"
        }
      ],
      "stateMutability": "view",
      "type": "function"
    },
    {
      "inputs": [],
      "name": "totalNodes",
      "outputs": [
        {
          "internalType": "uint256",
          "name": "",
          "type": "uint256"
        }
      ],
      "stateMutability": "view",
      "type": "function"
    },
    {
      "inputs": [],
      "name": "totalSupply",
      "outputs": [
        {
          "internalType": "uint256",
          "name": "",
          "type": "uint256"
        }
      ],
      "stateMutability": "view",
      "type": "function"
    },
    {
      "inputs": [
        {
          "internalType": "address",
          "name": "newOwner",
          "type": "address"
        }
      ],
      "name": "transferOwnership",
      "outputs": [],
      "stateMutability": "nonpayable",
      "type": "function"
    },
    {
      "inputs": [],
      "name": "treasurySupply",
      "outputs": [
        {
          "internalType": "uint256",
          "name": "",
          "type": "uint256"
        }
      ],
      "stateMutability": "view",
      "type": "function"
    },
    {
      "inputs": [
        {
          "internalType": "uint256",
          "name": "amount",
          "type": "uint256"
        }
      ],
      "name": "treasuryWithdraw",
      "outputs": [],
      "stateMutability": "nonpayable",
      "type": "function"
    },
    {
      "inputs": [
        {
          "internalType": "uint256",
          "name": "amount",
          "type": "uint256"
        },
        {
          "internalType": "address",
          "name": "node",
          "type": "address"
        }
      ],
      "name": "undelegate",
      "outputs": [],
      "stateMutability": "nonpayable",
      "type": "function"
    },
    {
      "inputs": [
        {
          "internalType": "uint256",
          "name": "amount",
          "type": "uint256"
        },
        {
          "internalType": "address",
          "name": "node",
          "type": "address"
        }
      ],
      "name": "undelegateWithdraw",
      "outputs": [],
      "stateMutability": "nonpayable",
      "type": "function"
    },
    {
      "inputs": [
        {
          "internalType": "address",
          "name": "newImplementation",
          "type": "address"
        }
      ],
      "name": "upgradeTo",
      "outputs": [],
      "stateMutability": "nonpayable",
      "type": "function"
    },
    {
      "inputs": [
        {
          "internalType": "address",
          "name": "newImplementation",
          "type": "address"
        },
        {
          "internalType": "bytes",
          "name": "data",
          "type": "bytes"
        }
      ],
      "name": "upgradeToAndCall",
      "outputs": [],
      "stateMutability": "payable",
      "type": "function"
    },
    {
      "inputs": [
        {
          "internalType": "string",
          "name": "metadata_",
          "type": "string"
        }
      ],
      "name": "upsertNode",
      "outputs": [],
      "stateMutability": "nonpayable",
      "type": "function"
    },
    {
      "inputs": [
        {
          "internalType": "address",
          "name": "node",
          "type": "address"
        },
        {
          "internalType": "string",
          "name": "metadata_",
          "type": "string"
        }
      ],
      "name": "upsertNodeAdmin",
      "outputs": [],
      "stateMutability": "nonpayable",
      "type": "function"
    },
    {
      "inputs": [
        {
          "internalType": "address",
          "name": "",
          "type": "address"
        }
      ],
      "name": "whitelist",
      "outputs": [
        {
          "internalType": "enum LogStoreNodeManager.WhitelistState",
          "name": "",
          "type": "uint8"
        }
      ],
      "stateMutability": "view",
      "type": "function"
    },
    {
      "inputs": [
        {
          "internalType": "address",
          "name": "nodeAddress",
          "type": "address"
        }
      ],
      "name": "whitelistApproveNode",
      "outputs": [],
      "stateMutability": "nonpayable",
      "type": "function"
    },
    {
      "inputs": [
        {
          "internalType": "address",
          "name": "nodeAddress",
          "type": "address"
        }
      ],
      "name": "whitelistRejectNode",
      "outputs": [],
      "stateMutability": "nonpayable",
      "type": "function"
    },
    {
      "inputs": [
        {
          "internalType": "uint256",
          "name": "amount",
          "type": "uint256"
        }
      ],
      "name": "withdraw",
      "outputs": [],
      "stateMutability": "nonpayable",
      "type": "function"
    }
  ],
  "bytecode": "0x60a080604052346100315730608052613bf09081610037823960805181818161190601528181611a3e01526120bf0152f35b600080fdfe6080604052600436101561001257600080fd5b60003560e01c80628c580c146126895780630106395f1461266257806308bbb8241461263e5780631204c486146125f357806318160ddd146125d5578063189a5a17146124af5780631ad603d01461243257806320a59a03146123d65780632af575801461236b5780632e1a7d4d1461234f5780633659cfe61461209a5780633cfb3d8a14611d7b57806345e863e014611d5757806346c198f614611d2f5780634f1ef286146119c157806352d1902d146118eb5780635888799c146118805780635fc1a4b8146118625780636177fd1814611835578063652671391461174757806370258cdc146114d757806370a082311461149c578063715018a61461144157806375ed25dc146113ff57806379e574cb146113bd5780638ce15586146113945780638da5cb5b1461136d5780639592d4241461134e5780639b19251a14611307578063a5ee5b41146112e4578063a694fc3a14611088578063abad29a814611035578063b2a52fef14610f67578063bfdf086614610f3f578063c10b522214610e3d578063cd23d26814610dff578063d0d3f5ba14610de5578063d5c7096614610dc7578063d66d9e1914610d74578063e04b0f1814610cee578063e7b5895314610cc1578063e8d88aba14610c7f578063f2fde38b14610bf05763f6883c05146101ff57600080fd5b346103ad5760203660031901126103ad5760043567ffffffffffffffff81116103ad57610230903690600401612b34565b9061023a33613b86565b15610bab5761010a916001600160a01b0383541690600060405180936312e63d7160e01b825281806102708689600484016130eb565b03915afa9182156103ba576000926107b5575b506101008201516107705760005b60609081840191825180518310156103c6576102af83604092612ed1565b5101516102c7575b506102c29150612ec2565b610291565b602061032c6001600160a01b0361010854166102e4858751612ed1565b51516000846102f4888a51612ed1565b510151956040610305898b51612ed1565b5101519660405197889687958694639ac0e98b60e01b865260048601526064850190612bbf565b916024840152604483015203925af180156103ba5761036f575b506020610357826102c29451612ed1565b51015161036760fc918254613113565b9055386102b7565b6020813d6020116103b2575b8161038860209383612afa565b810103126103ad57610357826102c2946103a3602094612fb0565b5094505050610346565b600080fd5b3d915061037b565b6040513d6000823e3d90fd5b8686898760005b60c0840190815180518210156104bb576103e982604092612ed1565b510151610400575b6103fb9150612ec2565b6103cd565b6001600160a01b036101095416916001600160a01b03610421838351612ed1565b5151166020610431848451612ed1565b5101516040610441858551612ed1565b51015194803b156103ad57600092836064926040519889958694631ee2efa360e31b86526004860152602485015260448401525af19283156103ba5782602092610495926103fb966104ac575b5051612ed1565b5101516104a560fc918254613113565b90556103f1565b6104b590612ae6565b8a61048e565b505050929060005b608084018051805183101561057c57906001600160a01b036104e98461054d9594612ed1565b515116600052610101806020526005908361051b83604060002001546020610512848851612ed1565b51015190613120565b936000851315610552576001600160a01b03916105389151612ed1565b51511660005260205260406000200155612ec2565b6104c3565b600094506001600160a01b03916105699151612ed1565b5151168352602052604082200155612ec2565b5060009593949150505b60a08101938451518610156106ba5760005b60206105a5888851612ed1565b510151518110156106a257806001600160a01b036105d56106669360206105cd8c8c51612ed1565b510151612ed1565b51511660206105ea83826105cd8d8d51612ed1565b510151906001600160a01b036106018b8b51612ed1565b5151166000526106296101049283602052604060002083600052602052604060002054613120565b91600083131561066b576001600160a01b036106468c8c51612ed1565b515116600052602052604060002090600052602052604060002055612ec2565b610598565b9091506001600160a01b036106818b8b51612ed1565b51511660005260205260406000209060005260205260006040812055612ec2565b509291946106b1919450612ec2565b93909192610586565b92916106d66001600160a01b0392604060fd5491015190613120565b60008113156107655760fd555b541691823b156103ad576000604051809463f6883c0560e01b825281838161070f8888600484016130eb565b03925af19283156103ba577fbcd21d99bbf55769881dda49c45043a8750d2229c330cdddd4718575f723640293610756575b50610751604051928392836130eb565b0390a1005b61075f90612ae6565b83610741565b50600060fd556106e3565b60405162461bcd60e51b815260206004820152601c60248201527f6572726f725f7265706f7274416c726561647950726f636573736564000000006044820152606490fd5b9091503d90816000823e6107c98282612afa565b60208183810103126103ad5780519067ffffffffffffffff82116103ad57610120928383830182840103126103ad5760405193840184811067ffffffffffffffff821117610b95576040528282015167ffffffffffffffff81116103ad57610838908284019085850101613009565b845281830160208181015190860152604080820151908601526060015167ffffffffffffffff81116103ad57818301601f82868601010112156103ad5780848401015161088481612b1c565b916108926040519384612afa565b818352602083019084860160208460051b838a8a01010101116103ad576020818888010101915b60208460051b838a8a010101018310610afc575050505060608501526080838301015167ffffffffffffffff81116103ad576108fc908284019085850101613062565b608085015260a0838301015167ffffffffffffffff81116103ad57818301601f82868601010112156103ad5780848401015161093781612b1c565b916109456040519384612afa565b8183526020830184860160208460051b848a8a01010101116103ad576020828888010101905b60208460051b848a8a010101018210610a69575050505060a085015260c0838301015167ffffffffffffffff81116103ad5783830101818301601f820112156103ad578051906109ba82612b1c565b926109c86040519485612afa565b8284526020606081860194028301019181860183116103ad57602001925b828410610a24575050505060c0840152610a1990610a0883820160e00161304e565b60e085015261010092018201612fb0565b908201529038610283565b60608483880103126103ad576020606091604051610a4181612aae565b610a4a8761304e565b81528287015183820152604087015160408201528152019301926109e6565b815167ffffffffffffffff81116103ad576040888a0185018201888a0103601f1901126103ad5760405191610a9d83612aca565b610aaf602083878d8d0101010161304e565b8352604082868c8c01010101519067ffffffffffffffff82116103ad57602093610aeb8b868096958f968b8f9884998601950101010101613062565b83820152815201920191905061096b565b82519067ffffffffffffffff82116103ad576060888a0184018301888a0103601f1901126103ad5760405191610b3183612aae565b602081858c8c01010101519167ffffffffffffffff83116103ad576020936060859493878e8e610b708f988a809a840191878787870101010101613009565b86520101016040818101518685015291015190820152815291909401930190506108b9565b634e487b7160e01b600052604160045260246000fd5b60405162461bcd60e51b815260206004820152601360248201527f6572726f725f7374616b655265717569726564000000000000000000000000006044820152606490fd5b346103ad5760203660031901126103ad57610c09612a82565b610c11612c00565b6001600160a01b03811615610c2b57610c2990612c58565b005b60405162461bcd60e51b815260206004820152602660248201527f4f776e61626c653a206e6577206f776e657220697320746865207a65726f206160448201526564647265737360d01b6064820152608490fd5b346103ad5760203660031901126103ad57610c98612a82565b610ca0612c00565b6001600160a01b0361010a91166001600160a01b0319825416179055600080f35b346103ad5760403660031901126103ad57610c29600435610ce9610ce3612a98565b82613388565b613582565b346103ad5760003660031901126103ad5760006001600160a01b0390818061010554165b1660005261010160205260038281604060002001541615610d4757610d41838092604060002001541692612ec2565b91610d12565b5060018101809111610d5e57602090604051908152f35b634e487b7160e01b600052601160045260246000fd5b346103ad5760003660031901126103ad57336000526101046020526040600020602052610da633604060002054613388565b33600052610103602052610dbe604060002054613582565b610c2933613979565b346103ad5760003660031901126103ad57602060fe54604051908152f35b346103ad5760003660031901126103ad57610c2933613979565b346103ad5760203660031901126103ad576001600160a01b03610e20612a82565b166000526101016020526020600560406000200154604051908152f35b346103ad5760003660031901126103ad5761010054610e74610e5e82612b1c565b91610e6c6040519384612afa565b808352612b1c565b6020808301929091601f19013684376001600160a01b0380610105541691600060019384805b610edf575b5050506040519380850191818652518092526040850195926000905b838210610ec85786880387f35b845181168852968201969382019390850190610ebb565b90859795919693949615610f2c575b60009087610efc8588612ed1565b91168091526000526101018452610f1d876003604060002001541693612ec2565b91959796949396929192610e9a565b868116610eee5796949695939295610e9f565b346103ad5760003660031901126103ad5760206001600160a01b036101065416604051908152f35b346103ad5760203660031901126103ad5760043567ffffffffffffffff81116103ad57610f98903690600401612b34565b60ff60fb5416158015610ffa575b15610fb557610c299133613695565b60405162461bcd60e51b815260206004820152601160248201527f6572726f725f6e6f74417070726f7665640000000000000000000000000000006044820152606490fd5b503360005261010260205260ff60406000205416600381101561101f57600114610fa6565b634e487b7160e01b600052602160045260246000fd5b346103ad5760403660031901126103ad5761104e612a82565b611056612a98565b906001600160a01b03809116600052610104602052604060002091166000526020526020604060002054604051908152f35b346103ad576020806003193601126103ad57600435600260c9541461129f57600260c955801561125a576001600160a01b0361010760248483835416604051928380926370a0823160e01b82523360048301525afa80156103ba578491600091611229575b50106111e4579160648492600094338652610103855260408620611112858254613113565b90556111208460fc54613113565b60fc5554169160405194859384926323b872dd60e01b845233600485015230602485015260448401525af180156103ba576000906111af575b6001915015150361116b57600160c955005b6064906040519062461bcd60e51b82526004820152601760248201527f6572726f725f756e7375636365737366756c5374616b650000000000000000006044820152fd5b508181813d83116111dd575b6111c58183612afa565b810103126103ad576111d8600191612fb0565b611159565b503d6111bb565b60405162461bcd60e51b815260048101859052601960248201527f6572726f725f696e73756666696369656e7442616c616e6365000000000000006044820152606490fd5b809250868092503d8311611253575b6112428183612afa565b810103126103ad57839051866110ed565b503d611238565b60405162461bcd60e51b815260048101839052601760248201527f6572726f725f696e73756666696369656e745374616b650000000000000000006044820152606490fd5b60405162461bcd60e51b815260048101839052601f60248201527f5265656e7472616e637947756172643a207265656e7472616e742063616c6c006044820152606490fd5b346103ad5760003660031901126103ad57602060ff60fb54166040519015158152f35b346103ad5760203660031901126103ad576001600160a01b03611328612a82565b1660005261010260205260ff60406000205416604051600382101561101f576020918152f35b346103ad5760003660031901126103ad57602061010054604051908152f35b346103ad5760003660031901126103ad5760206001600160a01b0360975416604051908152f35b346103ad5760203660031901126103ad57610c296113b0612a82565b6113b8612c00565b613979565b346103ad5760203660031901126103ad576113d6612a82565b6113de612c00565b6001600160a01b0361010991166001600160a01b0319825416179055600080f35b346103ad5760203660031901126103ad57611418612a82565b611420612c00565b6001600160a01b0361010891166001600160a01b0319825416179055600080f35b346103ad5760003660031901126103ad5761145a612c00565b60006001600160a01b036097546001600160a01b03198116609755167f8be0079c531659141344cd1fd0a4f28419497f9722a3daafe3b4186f6b6457e08280a3005b346103ad5760203660031901126103ad576001600160a01b036114bd612a82565b166000526101036020526020604060002054604051908152f35b346103ad5760403660031901126103ad576004356114f3612a98565b600260c9541461170257600260c95581156116bd576001600160a01b039161010792808454169360405180956370a0823160e01b825233600483015281602460209889935afa80156103ba57849160009161168c575b501061164757600091859133845261010383526040842061156b868254613113565b90556115798560fc54613113565b60fc5554166064604051809481936323b872dd60e01b83523360048401523060248401528760448401525af180156103ba57600090611612575b600191501515036115cd57610c299250600160c9556131eb565b60405162461bcd60e51b815260048101849052601760248201527f6572726f725f756e7375636365737366756c5374616b650000000000000000006044820152606490fd5b508381813d8311611640575b6116288183612afa565b810103126103ad5761163b600191612fb0565b6115b3565b503d61161e565b60405162461bcd60e51b815260048101869052601960248201527f6572726f725f696e73756666696369656e7442616c616e6365000000000000006044820152606490fd5b809250878092503d83116116b6575b6116a58183612afa565b810103126103ad5783905187611549565b503d61169b565b60405162461bcd60e51b815260206004820152601760248201527f6572726f725f696e73756666696369656e745374616b650000000000000000006044820152606490fd5b60405162461bcd60e51b815260206004820152601f60248201527f5265656e7472616e637947756172643a207265656e7472616e742063616c6c006044820152606490fd5b346103ad5760203660031901126103ad57600060206117d560043561176a612c00565b6117918160fd5461177d81831115612f57565b6117898260fc54612fa3565b60fc55612fa3565b60fd556001600160a01b0361010754169060405194858094819363a9059cbb60e01b83523360048401602090939291936001600160a01b0360408201951681520152565b03925af19081156103ba576000916117f6575b610c29600183151514612fbd565b90506020813d821161182d575b8161181060209383612afa565b810103126103ad576001611826610c2992612fb0565b91506117e8565b3d9150611803565b346103ad5760203660031901126103ad576020611858611853612a82565b613b86565b6040519015158152f35b346103ad5760003660031901126103ad57602060fd54604051908152f35b346103ad5760203660031901126103ad576001600160a01b036118a1612a82565b6118a9612c00565b16806000526101026020526040600020600160ff198254161790557fdfe83f699699403a4b116b6f9504680228c3f319bbf5ab26b48a81d3005d98b2600080a2005b346103ad5760003660031901126103ad576001600160a01b037f00000000000000000000000000000000000000000000000000000000000000001630036119565760206040517f360894a13ba1a3210667c828492db98dca3e2076cc3735a920a3ca505d382bbc8152f35b60405162461bcd60e51b815260206004820152603860248201527f555550535570677261646561626c653a206d757374206e6f742062652063616c60448201527f6c6564207468726f7567682064656c656761746563616c6c00000000000000006064820152608490fd5b60403660031901126103ad576119d5612a82565b602490813567ffffffffffffffff81116103ad57366023820112156103ad57806004013590611a0382612be4565b611a106040519182612afa565b82815260209283820192368783830101116103ad5781600092888793018637830101526001600160a01b03807f00000000000000000000000000000000000000000000000000000000000000001690611a6b82301415612ca0565b611a9a7f360894a13ba1a3210667c828492db98dca3e2076cc3735a920a3ca505d382bbc928284541614612d12565b611aa2612c00565b7f4910fdfa16fed3260ed0e7147f7cc6da11a60208b5b9406d12a635614ffd91435460ff1615611adb575050505050610c299150612d84565b85949516906040516352d1902d60e01b81528681600481865afa60009181611d00575b50611b5e5760405162461bcd60e51b815260048101889052602e818a01527f45524331393637557067726164653a206e657720696d706c656d656e7461746960448201526d6f6e206973206e6f74205555505360901b6064820152608490fd5b96919293949603611cab57611b7286612d84565b604051917fbc7cd75a20ee27fd9adebab32041f755214dbc6bffa90cc0225b39da2e5c2d3b600080a2825115801590611ca3575b611bac57005b853b15611c53575050610c2993600092839251915af43d15611c4b573d90611bd382612be4565b91611be16040519384612afa565b82523d60008484013e5b7f416464726573733a206c6f772d6c6576656c2064656c65676174652063616c6c60405193611c1985612aae565b602785528401527f206661696c6564000000000000000000000000000000000000000000000000006040840152612e32565b606090611beb565b62461bcd60e51b8252600482018590526026908201527f416464726573733a2064656c65676174652063616c6c20746f206e6f6e2d636f6044820152651b9d1c9858dd60d21b6064820152608490fd5b506001611ba6565b8460296084926040519262461bcd60e51b845260048401528201527f45524331393637557067726164653a20756e737570706f727465642070726f786044820152681a58589b195555525160ba1b6064820152fd5b9091508781813d8311611d28575b611d188183612afa565b810103126103ad57519089611afe565b503d611d0e565b346103ad5760003660031901126103ad5760206001600160a01b036101055416604051908152f35b346103ad5760403660031901126103ad57610c29611d73612a98565b600435613388565b346103ad5760403660031901126103ad576004356024803567ffffffffffffffff81116103ad57611db0903690600401612b34565b9060ff60fb5416158015612060575b1561201c5790611dcf9133613695565b600260c95414611fd857600260c9558115611f94576001600160a01b039061010791808354169260405180946370a0823160e01b8252336004830152818560209788935afa80156103ba578691600091611f63575b5010611f1f576000918491338452610103835260408420611e46888254613113565b9055611e548760fc54613113565b60fc5554166064604051809481936323b872dd60e01b835233600484015230888401528960448401525af180156103ba57600090611eea575b60019150151503611ea757600160c955610c2933846131eb565b9060176064926040519262461bcd60e51b845260048401528201527f6572726f725f756e7375636365737366756c5374616b650000000000000000006044820152fd5b508281813d8311611f18575b611f008183612afa565b810103126103ad57611f13600191612fb0565b611e8d565b503d611ef6565b60405162461bcd60e51b8152600481018590526019818501527f6572726f725f696e73756666696369656e7442616c616e6365000000000000006044820152606490fd5b809250868092503d8311611f8d575b611f7c8183612afa565b810103126103ad5785905187611e24565b503d611f72565b60649060176040519162461bcd60e51b8352602060048401528201527f6572726f725f696e73756666696369656e745374616b650000000000000000006044820152fd5b606490601f6040519162461bcd60e51b8352602060048401528201527f5265656e7472616e637947756172643a207265656e7472616e742063616c6c006044820152fd5b60405162461bcd60e51b8152602060048201526011818501527f6572726f725f6e6f74417070726f7665640000000000000000000000000000006044820152606490fd5b503360005261010260205260ff60406000205416600381101561208557600114611dbf565b83634e487b7160e01b60005260216004526000fd5b346103ad576020806003193601126103ad576120b4612a82565b6001600160a01b03807f0000000000000000000000000000000000000000000000000000000000000000166120eb81301415612ca0565b61211a7f360894a13ba1a3210667c828492db98dca3e2076cc3735a920a3ca505d382bbc918383541614612d12565b612122612c00565b604051908482019282841067ffffffffffffffff851117610b9557836040526000835260ff7f4910fdfa16fed3260ed0e7147f7cc6da11a60208b5b9406d12a635614ffd9143541660001461217f5750505050610c299150612d84565b8416906040516352d1902d60e01b81528681600481865afa60009181612320575b506122015760405162461bcd60e51b815260048101889052602e60248201527f45524331393637557067726164653a206e657720696d706c656d656e7461746960448201526d6f6e206973206e6f74205555505360901b6064820152608490fd5b036122c95761220f84612d84565b604051907fbc7cd75a20ee27fd9adebab32041f755214dbc6bffa90cc0225b39da2e5c2d3b600080a28151158015906122c1575b61224957005b833b156122705750610c299392600092839251915af43d15611c4b573d90611bd382612be4565b62461bcd60e51b815260048101859052602660248201527f416464726573733a2064656c65676174652063616c6c20746f206e6f6e2d636f6044820152651b9d1c9858dd60d21b6064820152608490fd5b506000612243565b60405162461bcd60e51b815260048101869052602960248201527f45524331393637557067726164653a20756e737570706f727465642070726f786044820152681a58589b195555525160ba1b6064820152608490fd5b9091508781813d8311612348575b6123388183612afa565b810103126103ad575190886121a0565b503d61232e565b346103ad5760203660031901126103ad57610c29600435613582565b346103ad5760203660031901126103ad576001600160a01b0361238c612a82565b612394612c00565b16806000526101026020526040600020600260ff198254161790557fbbe2a784aa6240d8175fa65a8459058efd8f44c5ab66caa2525fe9d634210878600080a2005b346103ad5760203660031901126103ad576004358015158091036103ad576123fc612c00565b60ff1960fb541660ff82161760fb557f7623db9c426686f05cec977c4cadb8ff9657502540ca665ae347731114dac69d600080a2005b346103ad5760203660031901126103ad57610c2961244e612a82565b612456612c00565b61245e612c00565b6001600160a01b038116806000526101026020526040600020600260ff198254161790557fbbe2a784aa6240d8175fa65a8459058efd8f44c5ab66caa2525fe9d634210878600080a26113b8612c00565b346103ad576020806003193601126103ad576001600160a01b03806124d2612a82565b1660005261010182526040600020908154916001908482820160405193849160009181549161250083612b62565b808652928281169081156125b25750600114612573575b50505061252692500383612afa565b60028101549261255a600582600385015416926004850154169301549360c0604051988998895288015260c0870190612bbf565b9360408601526060850152608084015260a08301520390f35b600090815285812095935091905b81831061259a5750899450508201016125268980612517565b85548884018501529485019487945091830191612581565b9250505061252694925060ff191682840152151560051b82010187928980612517565b346103ad5760003660031901126103ad57602060fc54604051908152f35b346103ad5760403660031901126103ad5761260c612a82565b6024359067ffffffffffffffff82116103ad57612630610c29923690600401612b34565b91612639612c00565b613695565b346103ad5760403660031901126103ad57610c2961265a612a98565b6004356131eb565b346103ad5760003660031901126103ad5760206001600160a01b0360ff5416604051908152f35b346103ad5760c03660031901126103ad576126a2612a82565b60243580151581036103ad576044356001600160a01b03811681036103ad576084359167ffffffffffffffff83116103ad57366023840112156103ad578260040135916126ee83612b1c565b936126fc6040519586612afa565b83855260209360248587019160051b830101913683116103ad57602401905b828210612a635750505067ffffffffffffffff60a435116103ad5736602360a4350112156103ad5767ffffffffffffffff60a43560040135116103ad5736602460a4356004013560051b60a4350101116103ad576000549160ff8360081c161592838094612a56575b8015612a3f575b156129d45760ff1980821660011760005560ff91856129c2575b506127b860a43560040135885114612e76565b6001600160a01b0384161515806129b7575b6127d390612e76565b6127ec8260005460081c166127e781612ee5565b612ee5565b6127f533612c58565b6128128260005460081c1661280981612ee5565b6127e781612ee5565b600160c95560fb5416911515161760fb556001600160a01b036001600160a01b03199161010782821684825416179055169060ff54161760ff5560643560fe5560005b8351811015612904576001600160a01b036128708286612ed1565b51169060a435600401358110156128ee5760248160051b60a43501013560421960a4353603018112156103ad5760a435019167ffffffffffffffff6024840135116103ad576024830135360360448401136103ad576128e9926128e4916128d5612c00565b60446024830135920190613695565b612ec2565b612855565b634e487b7160e01b600052603260045260246000fd5b508361290e612c00565b6001600160a01b038116156129635761292690612c58565b61292c57005b7f7f26b83ff96e1f2b6a682f133852f6798a09c465da95921460cefb38474024989061ff00196000541660005560405160018152a1005b60405162461bcd60e51b815260048101849052602660248201527f4f776e61626c653a206e6577206f776e657220697320746865207a65726f206160448201526564647265737360d01b6064820152608490fd5b5060643515156127ca565b61ffff191661010117600055886127a5565b60405162461bcd60e51b815260048101869052602e60248201527f496e697469616c697a61626c653a20636f6e747261637420697320616c72656160448201527f647920696e697469616c697a65640000000000000000000000000000000000006064820152608490fd5b50303b15801561278b5750600160ff82161461278b565b50600160ff821610612784565b81356001600160a01b03811681036103ad57815290850190850161271b565b600435906001600160a01b03821682036103ad57565b602435906001600160a01b03821682036103ad57565b6060810190811067ffffffffffffffff821117610b9557604052565b6040810190811067ffffffffffffffff821117610b9557604052565b67ffffffffffffffff8111610b9557604052565b90601f8019910116810190811067ffffffffffffffff821117610b9557604052565b67ffffffffffffffff8111610b955760051b60200190565b9181601f840112156103ad5782359167ffffffffffffffff83116103ad57602083818601950101116103ad57565b90600182811c92168015612b92575b6020831014612b7c57565b634e487b7160e01b600052602260045260246000fd5b91607f1691612b71565b60005b838110612baf5750506000910152565b8181015183820152602001612b9f565b90602091612bd881518092818552858086019101612b9c565b601f01601f1916010190565b67ffffffffffffffff8111610b9557601f01601f191660200190565b6001600160a01b03609754163303612c1457565b606460405162461bcd60e51b815260206004820152602060248201527f4f776e61626c653a2063616c6c6572206973206e6f7420746865206f776e65726044820152fd5b609754906001600160a01b0380911691826001600160a01b0319821617609755167f8be0079c531659141344cd1fd0a4f28419497f9722a3daafe3b4186f6b6457e0600080a3565b15612ca757565b60405162461bcd60e51b815260206004820152602c60248201527f46756e6374696f6e206d7573742062652063616c6c6564207468726f7567682060448201527f64656c656761746563616c6c00000000000000000000000000000000000000006064820152608490fd5b15612d1957565b60405162461bcd60e51b815260206004820152602c60248201527f46756e6374696f6e206d7573742062652063616c6c6564207468726f7567682060448201527f6163746976652070726f787900000000000000000000000000000000000000006064820152608490fd5b803b15612dc7576001600160a01b037f360894a13ba1a3210667c828492db98dca3e2076cc3735a920a3ca505d382bbc91166001600160a01b0319825416179055565b60405162461bcd60e51b815260206004820152602d60248201527f455243313936373a206e657720696d706c656d656e746174696f6e206973206e60448201527f6f74206120636f6e7472616374000000000000000000000000000000000000006064820152608490fd5b90919015612e3e575090565b815115612e4e5750805190602001fd5b60405162461bcd60e51b815260206004820152908190612e72906024830190612bbf565b0390fd5b15612e7d57565b60405162461bcd60e51b815260206004820152601460248201527f6572726f725f626164547261636b6572446174610000000000000000000000006044820152606490fd5b6000198114610d5e5760010190565b80518210156128ee5760209160051b010190565b15612eec57565b60405162461bcd60e51b815260206004820152602b60248201527f496e697469616c697a61626c653a20636f6e7472616374206973206e6f74206960448201527f6e697469616c697a696e670000000000000000000000000000000000000000006064820152608490fd5b15612f5e57565b60405162461bcd60e51b815260206004820152601460248201527f6572726f725f6e6f74456e6f7567685374616b650000000000000000000000006044820152606490fd5b91908203918211610d5e57565b519081151582036103ad57565b15612fc457565b60405162461bcd60e51b815260206004820152601a60248201527f6572726f725f756e7375636365737366756c57697468647261770000000000006044820152606490fd5b81601f820112156103ad57805161301f81612be4565b9261302d6040519485612afa565b818452602082840101116103ad5761304b9160208085019101612b9c565b90565b51906001600160a01b03821682036103ad57565b81601f820112156103ad5780519061307982612b1c565b9260409261308984519586612afa565b808552602091828087019260061b850101938185116103ad578301915b8483106130b65750505050505090565b85838303126103ad5783869182516130cd81612aca565b6130d68661304e565b815282860151838201528152019201916130a6565b90918060409360208452816020850152848401376000828201840152601f01601f1916010190565b91908201809211610d5e57565b91909160008382019384129112908015821691151617610d5e57565b1561314357565b606460405162461bcd60e51b815260206004820152602060248201527f6572726f725f696e73756666696369656e7444656c6567617465416d6f756e746044820152fd5b1561318e57565b60405162461bcd60e51b815260206004820152601160248201527f6572726f725f696e76616c69644e6f64650000000000000000000000000000006044820152606490fd5b80548210156128ee5760005260206000200190600090565b91906001600160a01b039061320184151561313c565b1660009281845261010190602091808352604091613226600284892001541515613187565b338752610103845282872061323c828254612fa3565b90553387526101048452828720858852845282872061325c828254613113565b9055848752818452613275600584892001918254613113565b9055838652808352600782872001338752835260ff8287205416156132cd575b8186600592867fcf939c6aa5e54a02f6433632298ef92d8600b2e56030790abb22fb9b3ab25d7e9798995285522001549051908152a2565b83865280835260068287200180549068010000000000000000821015613374579660059261334a613328847fcf939c6aa5e54a02f6433632298ef92d8600b2e56030790abb22fb9b3ab25d7e999a9b600189970181556131d3565b81546001600160a01b0360039290921b91821b80199091163390921b16179055565b8782528086528282203383526007018652918120805460ff19166001179055969594509050613295565b634e487b7160e01b88526041600452602488fd5b919061339583151561313c565b6001600160a01b03809116906000938285526101016020928184526040926133c46002858a2001541515613187565b338852610104855283882086895285528388206133e2828254612fa3565b90558588528285526005848920016133fb828254612fa3565b90553388526101038552613413848920918254613113565b905586858852828552600680858a2001548984888a858a855b8b88881061353e575b509290925250505086895250505084892081018054600019939184820191821161352a57856134826134ad94868f8c908f968f98613474908f926131d3565b9990549883525220016131d3565b92909360031b1c169082549060031b916001600160a01b039283811b93849216901b16911916179055565b86895283865284892001908154801561351657927fcf939c6aa5e54a02f6433632298ef92d8600b2e56030790abb22fb9b3ab25d7e9798999260059592879501916134f883836131d3565b909182549160031b1b191690555587825285522001549051908152a2565b634e487b7160e01b8a52603160045260248afd5b634e487b7160e01b8c52601160045260248cfd5b61354e95889583525220016131d3565b90549060031b1c1633146135705761356590612ec2565b84888a858a8f61342c565b92503890508084888a858a8f8b613435565b60003381528061010361360c60209482869384526135a66040862054831115612f57565b3385528352604084206135ba828254612fa3565b90556135c88160fc54612fa3565b60fc556001600160a01b0361010754169060405195868094819363a9059cbb60e01b83523360048401602090939291936001600160a01b0360408201951681520152565b03925af1928315613671578193613631575b505050600161362f91151514612fbd565b565b9091809350813d831161366a575b6136498183612afa565b810103126136675750600161366061362f92612fb0565b913861361e565b80fd5b503d61363f565b50604051903d90823e3d90fd5b818110613689575050565b6000815560010161367e565b6001600160a01b038091169160009083825260209061010182526040832093839660028601918254156138d6575b5060018096019267ffffffffffffffff82116138c25781906136e58554612b62565b601f8111613889575b508690601f831160011461382a57879261381f575b5050600019600383901b1c191690861b1782555b42905560405193604085528382549261372f84612b62565b9384604089015283811690816000146137d5575060011461377e575b505050509180917f7b8ea65757bf0d882563917834f76c4df069ea7e489c9fc65bf764289792e3349342908301520390a3565b9080949550528383205b8284106137c157505050820160600190807f7b8ea65757bf0d882563917834f76c4df069ea7e489c9fc65bf764289792e334843861374b565b805486850160600152928401928101613788565b915050869550606092507f7b8ea65757bf0d882563917834f76c4df069ea7e489c9fc65bf764289792e334969493915060ff191682850152151560051b830101929381923861374b565b013590503880613703565b85885286882089945091601f198416895b898282106138735750508411613859575b505050811b018255613717565b0135600019600384901b60f8161c1916905538808061384c565b8385013586558c9790950194928301920161383b565b6138b290868952878920601f850160051c8101918986106138b8575b601f0160051c019061367e565b386136ee565b90915081906138a5565b634e487b7160e01b86526041600452602486fd5b975060019761010590808254161560001461393b5750876001600160a01b03198254161790555b610106876001600160a01b03198254161790556101008054908982018092116139275755386136c3565b634e487b7160e01b87526011600452602487fd5b90506101069080825416875260036040882001916001600160a01b0319928a84825416179055541660048801918254161790556101005486556138fd565b6001600160a01b038091169060009082825261010160209080825260409081852092600284015415613b43578686528181528286208681556001878183016139c18154612b62565b80613b07575b50506002830155868860039781898601556006600495838782015583600582015501805483825580613aee575b50508b85820191868a8c878654169301958787541681528b8b5220016001600160a01b0319918282541617905561010580548387821614613add575b5050846101069384549382851614613acc575b50505050509082915416905b613a82575b5050505050505050807fcfc24166db4bb677e857cacabd1541fb2b30645021b27c5130419589b84db52b91a2565b87168015613ac75780895284845285892080548015613ab4576000190190558852838352848820860154871681613a4f565b634e487b7160e01b8b526011855260248bfd5b613a54565b541691161790553880808481613a43565b828787541691161790553880613a30565b613b009184528784209081019061367e565b38806139f4565b601f8111600114613b1d5750555b8738806139c7565b818352858320613b3791601f0160051c810190850161367e565b81858120915555613b15565b60649083519062461bcd60e51b82526004820152600e60248201527f6572726f725f6e6f74466f756e640000000000000000000000000000000000006044820152fd5b60fe548015159182613b9757505090565b6001600160a01b039192501660005261010160205260056040600020015410159056fea26469706673582212208171e89271af19750da2d4a8c246381ed6203b21c091a440f0e0e4b3b2614df064736f6c63430008110033",
  "linkReferences": {},
  "deployedLinkReferences": {}
}