{
  "_format": "hh-sol-artifact-1",
  "contractName": "LogStoreNodeManager",
  "sourceName": "src/NodeManager.sol",
  "abi": [
    {
      "anonymous": false,
      "inputs": [
        {
          "indexed": false,
          "internalType": "address",
          "name": "previousAdmin",
          "type": "address"
        },
        {
          "indexed": false,
          "internalType": "address",
          "name": "newAdmin",
          "type": "address"
        }
      ],
      "name": "AdminChanged",
      "type": "event"
    },
    {
      "anonymous": false,
      "inputs": [
        {
          "indexed": true,
          "internalType": "address",
          "name": "beacon",
          "type": "address"
        }
      ],
      "name": "BeaconUpgraded",
      "type": "event"
    },
    {
      "anonymous": false,
      "inputs": [
        {
          "indexed": false,
          "internalType": "uint8",
          "name": "version",
          "type": "uint8"
        }
      ],
      "name": "Initialized",
      "type": "event"
    },
    {
      "anonymous": false,
      "inputs": [
        {
          "indexed": true,
          "internalType": "address",
          "name": "nodeAddress",
          "type": "address"
        }
      ],
      "name": "NodeRemoved",
      "type": "event"
    },
    {
      "anonymous": false,
      "inputs": [
        {
          "indexed": true,
          "internalType": "address",
          "name": "nodeAddress",
          "type": "address"
        },
        {
          "indexed": false,
          "internalType": "uint256",
          "name": "stake",
          "type": "uint256"
        }
      ],
      "name": "NodeStakeUpdated",
      "type": "event"
    },
    {
      "anonymous": false,
      "inputs": [
        {
          "indexed": true,
          "internalType": "address",
          "name": "nodeAddress",
          "type": "address"
        },
        {
          "indexed": false,
          "internalType": "string",
          "name": "metadata",
          "type": "string"
        },
        {
          "indexed": true,
          "internalType": "uint256",
          "name": "isNew",
          "type": "uint256"
        },
        {
          "indexed": false,
          "internalType": "uint256",
          "name": "lastSeen",
          "type": "uint256"
        }
      ],
      "name": "NodeUpdated",
      "type": "event"
    },
    {
      "anonymous": false,
      "inputs": [
        {
          "indexed": true,
          "internalType": "address",
          "name": "nodeAddress",
          "type": "address"
        }
      ],
      "name": "NodeWhitelistApproved",
      "type": "event"
    },
    {
      "anonymous": false,
      "inputs": [
        {
          "indexed": true,
          "internalType": "address",
          "name": "nodeAddress",
          "type": "address"
        }
      ],
      "name": "NodeWhitelistRejected",
      "type": "event"
    },
    {
      "anonymous": false,
      "inputs": [
        {
          "indexed": true,
          "internalType": "address",
          "name": "previousOwner",
          "type": "address"
        },
        {
          "indexed": true,
          "internalType": "address",
          "name": "newOwner",
          "type": "address"
        }
      ],
      "name": "OwnershipTransferred",
      "type": "event"
    },
    {
      "anonymous": false,
      "inputs": [
        {
          "indexed": false,
          "internalType": "string",
          "name": "id",
          "type": "string"
        }
      ],
      "name": "ReportProcessed",
      "type": "event"
    },
    {
      "anonymous": false,
      "inputs": [
        {
          "indexed": true,
          "internalType": "bool",
          "name": "value",
          "type": "bool"
        }
      ],
      "name": "RequiresWhitelistChanged",
      "type": "event"
    },
    {
      "anonymous": false,
      "inputs": [
        {
          "indexed": true,
          "internalType": "address",
          "name": "implementation",
          "type": "address"
        }
      ],
      "name": "Upgraded",
      "type": "event"
    },
    {
      "inputs": [],
      "name": "LOGSTORE_SYSTEM_STREAM_ID_PATH",
      "outputs": [
        {
          "internalType": "string",
          "name": "",
          "type": "string"
        }
      ],
      "stateMutability": "view",
      "type": "function"
    },
    {
      "inputs": [],
      "name": "LOGSTORE_SYSTEM_STREAM_METADATA_JSON_STRING",
      "outputs": [
        {
          "internalType": "string",
          "name": "",
          "type": "string"
        }
      ],
      "stateMutability": "view",
      "type": "function"
    },
    {
      "inputs": [
        {
          "internalType": "address",
          "name": "",
          "type": "address"
        }
      ],
      "name": "balanceOf",
      "outputs": [
        {
          "internalType": "uint256",
          "name": "",
          "type": "uint256"
        }
      ],
      "stateMutability": "view",
      "type": "function"
    },
    {
      "inputs": [
        {
          "internalType": "uint256",
          "name": "amount",
          "type": "uint256"
        },
        {
          "internalType": "address",
          "name": "node",
          "type": "address"
        }
      ],
      "name": "delegate",
      "outputs": [],
      "stateMutability": "nonpayable",
      "type": "function"
    },
    {
      "inputs": [
        {
          "internalType": "address",
          "name": "",
          "type": "address"
        },
        {
          "internalType": "address",
          "name": "",
          "type": "address"
        }
      ],
      "name": "delegatesOf",
      "outputs": [
        {
          "internalType": "uint256",
          "name": "",
          "type": "uint256"
        }
      ],
      "stateMutability": "view",
      "type": "function"
    },
    {
      "inputs": [],
      "name": "headNode",
      "outputs": [
        {
          "internalType": "address",
          "name": "",
          "type": "address"
        }
      ],
      "stateMutability": "view",
      "type": "function"
    },
    {
      "inputs": [
        {
          "internalType": "address",
          "name": "owner_",
          "type": "address"
        },
        {
          "internalType": "bool",
          "name": "requiresWhitelist_",
          "type": "bool"
        },
        {
          "internalType": "address",
          "name": "stakeTokenAddress_",
          "type": "address"
        },
        {
          "internalType": "uint256",
          "name": "stakeRequiredAmount_",
          "type": "uint256"
        },
        {
          "internalType": "address",
          "name": "streamrRegistryAddress_",
          "type": "address"
        },
        {
          "internalType": "address[]",
          "name": "initialNodes",
          "type": "address[]"
        },
        {
          "internalType": "string[]",
          "name": "initialMetadata",
          "type": "string[]"
        }
      ],
      "name": "initialize",
      "outputs": [],
      "stateMutability": "nonpayable",
      "type": "function"
    },
    {
      "inputs": [
        {
          "internalType": "address",
          "name": "node",
          "type": "address"
        }
      ],
      "name": "isStaked",
      "outputs": [
        {
          "internalType": "bool",
          "name": "",
          "type": "bool"
        }
      ],
      "stateMutability": "view",
      "type": "function"
    },
    {
      "inputs": [
        {
          "internalType": "uint256",
          "name": "amount",
          "type": "uint256"
        },
        {
          "internalType": "string",
          "name": "metadata_",
          "type": "string"
        }
      ],
      "name": "join",
      "outputs": [],
      "stateMutability": "nonpayable",
      "type": "function"
    },
    {
      "inputs": [
        {
          "internalType": "address",
          "name": "nodeAddress",
          "type": "address"
        }
      ],
      "name": "kickNode",
      "outputs": [],
      "stateMutability": "nonpayable",
      "type": "function"
    },
    {
      "inputs": [],
      "name": "leave",
      "outputs": [],
      "stateMutability": "nonpayable",
      "type": "function"
    },
    {
      "inputs": [],
      "name": "nodeAddresses",
      "outputs": [
        {
          "internalType": "address[]",
          "name": "resultAddresses",
          "type": "address[]"
        }
      ],
      "stateMutability": "view",
      "type": "function"
    },
    {
      "inputs": [
        {
          "internalType": "address",
          "name": "node",
          "type": "address"
        }
      ],
      "name": "nodeStake",
      "outputs": [
        {
          "internalType": "uint256",
          "name": "",
          "type": "uint256"
        }
      ],
      "stateMutability": "view",
      "type": "function"
    },
    {
      "inputs": [
        {
          "internalType": "address",
          "name": "",
          "type": "address"
        }
      ],
      "name": "nodes",
      "outputs": [
        {
          "internalType": "uint256",
          "name": "index",
          "type": "uint256"
        },
        {
          "internalType": "string",
          "name": "metadata",
          "type": "string"
        },
        {
          "internalType": "uint256",
          "name": "lastSeen",
          "type": "uint256"
        },
        {
          "internalType": "address",
          "name": "next",
          "type": "address"
        },
        {
          "internalType": "address",
          "name": "prev",
          "type": "address"
        },
        {
          "internalType": "uint256",
          "name": "stake",
          "type": "uint256"
        }
      ],
      "stateMutability": "view",
      "type": "function"
    },
    {
      "inputs": [],
      "name": "owner",
      "outputs": [
        {
          "internalType": "address",
          "name": "",
          "type": "address"
        }
      ],
      "stateMutability": "view",
      "type": "function"
    },
    {
      "inputs": [
        {
          "internalType": "string",
          "name": "id",
          "type": "string"
        }
      ],
      "name": "processReport",
      "outputs": [],
      "stateMutability": "nonpayable",
      "type": "function"
    },
    {
      "inputs": [],
      "name": "proxiableUUID",
      "outputs": [
        {
          "internalType": "bytes32",
          "name": "",
          "type": "bytes32"
        }
      ],
      "stateMutability": "view",
      "type": "function"
    },
    {
      "inputs": [
        {
          "internalType": "address",
          "name": "contractAddress",
          "type": "address"
        }
      ],
      "name": "registerQueryManager",
      "outputs": [],
      "stateMutability": "nonpayable",
      "type": "function"
    },
    {
      "inputs": [
        {
          "internalType": "address",
          "name": "contractAddress",
          "type": "address"
        }
      ],
      "name": "registerReportManager",
      "outputs": [],
      "stateMutability": "nonpayable",
      "type": "function"
    },
    {
      "inputs": [
        {
          "internalType": "address",
          "name": "contractAddress",
          "type": "address"
        }
      ],
      "name": "registerStoreManager",
      "outputs": [],
      "stateMutability": "nonpayable",
      "type": "function"
    },
    {
      "inputs": [],
      "name": "removeNode",
      "outputs": [],
      "stateMutability": "nonpayable",
      "type": "function"
    },
    {
      "inputs": [
        {
          "internalType": "address",
          "name": "nodeAddress",
          "type": "address"
        }
      ],
      "name": "removeNodeAdmin",
      "outputs": [],
      "stateMutability": "nonpayable",
      "type": "function"
    },
    {
      "inputs": [],
      "name": "renounceOwnership",
      "outputs": [],
      "stateMutability": "nonpayable",
      "type": "function"
    },
    {
      "inputs": [],
      "name": "requiresWhitelist",
      "outputs": [
        {
          "internalType": "bool",
          "name": "",
          "type": "bool"
        }
      ],
      "stateMutability": "view",
      "type": "function"
    },
    {
      "inputs": [
        {
          "internalType": "bool",
          "name": "value",
          "type": "bool"
        }
      ],
      "name": "setRequiresWhitelist",
      "outputs": [],
      "stateMutability": "nonpayable",
      "type": "function"
    },
    {
      "inputs": [
        {
          "internalType": "uint256",
          "name": "amount",
          "type": "uint256"
        }
      ],
      "name": "stake",
      "outputs": [],
      "stateMutability": "nonpayable",
      "type": "function"
    },
    {
      "inputs": [
        {
          "internalType": "uint256",
          "name": "amount",
          "type": "uint256"
        },
        {
          "internalType": "address",
          "name": "node",
          "type": "address"
        }
      ],
      "name": "stakeAndDelegate",
      "outputs": [],
      "stateMutability": "nonpayable",
      "type": "function"
    },
    {
      "inputs": [],
      "name": "stakeRequiredAmount",
      "outputs": [
        {
          "internalType": "uint256",
          "name": "",
          "type": "uint256"
        }
      ],
      "stateMutability": "view",
      "type": "function"
    },
    {
      "inputs": [],
      "name": "stakeTokenAddress",
      "outputs": [
        {
          "internalType": "address",
          "name": "",
          "type": "address"
        }
      ],
      "stateMutability": "view",
      "type": "function"
    },
    {
      "inputs": [],
      "name": "tailNode",
      "outputs": [
        {
          "internalType": "address",
          "name": "",
          "type": "address"
        }
      ],
      "stateMutability": "view",
      "type": "function"
    },
    {
      "inputs": [],
      "name": "totalNodes",
      "outputs": [
        {
          "internalType": "uint256",
          "name": "",
          "type": "uint256"
        }
      ],
      "stateMutability": "view",
      "type": "function"
    },
    {
      "inputs": [],
      "name": "totalSupply",
      "outputs": [
        {
          "internalType": "uint256",
          "name": "",
          "type": "uint256"
        }
      ],
      "stateMutability": "view",
      "type": "function"
    },
    {
      "inputs": [
        {
          "internalType": "address",
          "name": "newOwner",
          "type": "address"
        }
      ],
      "name": "transferOwnership",
      "outputs": [],
      "stateMutability": "nonpayable",
      "type": "function"
    },
    {
      "inputs": [],
      "name": "treasurySupply",
      "outputs": [
        {
          "internalType": "uint256",
          "name": "",
          "type": "uint256"
        }
      ],
      "stateMutability": "view",
      "type": "function"
    },
    {
      "inputs": [
        {
          "internalType": "uint256",
          "name": "amount",
          "type": "uint256"
        }
      ],
      "name": "treasuryWithdraw",
      "outputs": [],
      "stateMutability": "nonpayable",
      "type": "function"
    },
    {
      "inputs": [
        {
          "internalType": "uint256",
          "name": "amount",
          "type": "uint256"
        },
        {
          "internalType": "address",
          "name": "node",
          "type": "address"
        }
      ],
      "name": "undelegate",
      "outputs": [],
      "stateMutability": "nonpayable",
      "type": "function"
    },
    {
      "inputs": [
        {
          "internalType": "uint256",
          "name": "amount",
          "type": "uint256"
        },
        {
          "internalType": "address",
          "name": "node",
          "type": "address"
        }
      ],
      "name": "undelegateWithdraw",
      "outputs": [],
      "stateMutability": "nonpayable",
      "type": "function"
    },
    {
      "inputs": [
        {
          "internalType": "address",
          "name": "newImplementation",
          "type": "address"
        }
      ],
      "name": "upgradeTo",
      "outputs": [],
      "stateMutability": "nonpayable",
      "type": "function"
    },
    {
      "inputs": [
        {
          "internalType": "address",
          "name": "newImplementation",
          "type": "address"
        },
        {
          "internalType": "bytes",
          "name": "data",
          "type": "bytes"
        }
      ],
      "name": "upgradeToAndCall",
      "outputs": [],
      "stateMutability": "payable",
      "type": "function"
    },
    {
      "inputs": [
        {
          "internalType": "string",
          "name": "metadata_",
          "type": "string"
        }
      ],
      "name": "upsertNode",
      "outputs": [],
      "stateMutability": "nonpayable",
      "type": "function"
    },
    {
      "inputs": [
        {
          "internalType": "address",
          "name": "node",
          "type": "address"
        },
        {
          "internalType": "string",
          "name": "metadata_",
          "type": "string"
        }
      ],
      "name": "upsertNodeAdmin",
      "outputs": [],
      "stateMutability": "nonpayable",
      "type": "function"
    },
    {
      "inputs": [
        {
          "internalType": "address",
          "name": "",
          "type": "address"
        }
      ],
      "name": "whitelist",
      "outputs": [
        {
          "internalType": "enum LogStoreNodeManager.WhitelistState",
          "name": "",
          "type": "uint8"
        }
      ],
      "stateMutability": "view",
      "type": "function"
    },
    {
      "inputs": [
        {
          "internalType": "address",
          "name": "nodeAddress",
          "type": "address"
        }
      ],
      "name": "whitelistApproveNode",
      "outputs": [],
      "stateMutability": "nonpayable",
      "type": "function"
    },
    {
      "inputs": [
        {
          "internalType": "address",
          "name": "nodeAddress",
          "type": "address"
        }
      ],
      "name": "whitelistRejectNode",
      "outputs": [],
      "stateMutability": "nonpayable",
      "type": "function"
    },
    {
      "inputs": [
        {
          "internalType": "uint256",
          "name": "amount",
          "type": "uint256"
        }
      ],
      "name": "withdraw",
      "outputs": [],
      "stateMutability": "nonpayable",
      "type": "function"
    }
  ],
  "bytecode": "0x60a0806040523461003157306080526140589081610037823960805181818161189f015281816119d801526128120152f35b600080fdfe608080604052600436101561001357600080fd5b600090813560e01c9081630106395f14612e215750806308bbb82414612dfc5780631204c48614612db057806318160ddd14612d92578063189a5a1714612c6d5780631ad603d014612bf257806320a59a0314612b955780632af5758014612b2b5780632e1a7d4d14612b0e5780633659cfe6146127eb5780633cfb3d8a146124c657806345e863e0146124a15780634632974314611d2b57806346c198f614611d035780634830563414611ce75780634f1ef2861461195a57806352d1902d146118845780635888799c1461181a5780635fc1a4b8146117fc5780636177fd18146117ce57806365267139146116e057806370a08231146116a7578063715018a61461164b578063735e6c7a146113cf57806375ed25dc1461138e57806379e574cb1461134d5780638ce15586146113235780638da5cb5b146112fc5780639592d424146112dd5780639b19251a14611281578063a5ee5b411461125e578063a694fc3a14610ff7578063a7cc540514610fc3578063abad29a814610f72578063b2a52fef14610ea7578063bfdf086614610e7f578063c10b522214610e19578063cd23d26814610ddd578063d0d3f5ba14610dc3578063d5c7096614610da5578063d66d9e1914610d52578063e7b5895314610d24578063e8d88aba14610ce3578063f2fde38b14610c3b5763f6883c051461021057600080fd5b34610c38576020366003190112610c385760043567ffffffffffffffff811161079757610241903690600401612e77565b9061024b33613fee565b15610bf35761010b926001600160a01b03845416918160405180946312e63d7160e01b8252818061028089876004840161360a565b03915afa92831561078c5782936107ea575b506101008301516107a557815b606080850190815180518410156103d4576102bc846040926133f0565b5101516102d4575b50506102cf906133cb565b61029f565b60206103386001600160a01b0361010954166102f18686516133f0565b515188846103008989516133f0565b5101519560406103118a8a516133f0565b5101519660405197889687958694639ac0e98b60e01b865260048601526064850190612f70565b916024840152604483015203925af180156103c95761037d575b50906020610364826102cf94516133f0565b51015161037460fc918254613632565b905590386102c4565b6020813d6020116103c1575b8161039660209383612f2b565b810103126103bd57610364836102cf94936103b26020946134cf565b509350935050610352565b8480fd5b3d9150610389565b6040513d87823e3d90fd5b505050508490825b60c08501805180518310156104e0576103f7836040926133f0565b51015161040e575b50610409906133cb565b6103dc565b6001600160a01b0361010a54166001600160a01b0361042e8484516133f0565b515116602061043e8585516133f0565b51015190604061044f8686516133f0565b51015192803b156104dc57889291836064926040519687958694631ee2efa360e31b86526004860152602485015260448401525af180156104d1579086916104bd575b50509060206104a58261040994516133f0565b5101516104b560fc918254613632565b9055906103ff565b6104c690612edf565b6103bd578488610492565b6040513d88823e3d90fd5b8880fd5b5050509390825b60808501805180518310156105a4576001600160a01b036105718480948361051561057e98610579976133f0565b5151168a526101018060205260406105458c6005928391200154602061053c8787516133f0565b5101519061363f565b918c8084131561058357508661055c8686516133f0565b5151168d5260205260408c2001555b516133f0565b515116613e77565b6133cb565b6104e7565b9250866105918686516133f0565b515116835260205260408220015561056b565b85808987878b5b60a08101938451518710156106d857855b60206105c98988516133f0565b510151518110156106c0578088602061060f83826105fc6001600160a01b03610604610686998f6105fc8a8792516133f0565b5101516133f0565b515116958d516133f0565b510151906001600160a01b036106268c8b516133f0565b5151168a5261064c610104928360205260408c208360005260205260406000205461363f565b918a83131561068b576001600160a01b036106688d8c516133f0565b5151168b5260205260408a20906000526020526040600020556133cb565b6105bc565b9091506001600160a01b036106a18c8b516133f0565b5151168a526020526040892090600052602052876040600020556133cb565b509291956106cf9194506133cb565b949091926105ab565b935084916106f66001600160a01b0392604060fd549101519061363f565b8381131561079b5760fd555b5416803b156107975781604051809263f6883c0560e01b825281838161072c898b6004840161360a565b03925af1801561078c57610774575b50507fbcd21d99bbf55769881dda49c45043a8750d2229c330cdddd4718575f72364029161076e6040519283928361360a565b0390a180f35b61077d90612edf565b61078857828461073b565b8280fd5b6040513d84823e3d90fd5b5080fd5b508260fd55610702565b60405162461bcd60e51b815260206004820152601c60248201527f6572726f725f7265706f7274416c726561647950726f636573736564000000006044820152606490fd5b9092503d908183823e6107fd8282612f2b565b60208183810103126107885780519067ffffffffffffffff8211610bef57610120928383830182840103126103bd5760405193840184811067ffffffffffffffff821117610bd9576040528282015167ffffffffffffffff8111610a9f5761086c908284019085850101613528565b845281830160208181015190860152604080820151908601526060015167ffffffffffffffff8111610a9f57818301601f8286860101011215610a9f57808484010151906108b982612f95565b916108c76040519384612f2b565b808352602083019184860160208360051b838a8a01010101116104dc576020818888010101925b60208360051b838a8a010101018410610b40575050505060608501526080838301015167ffffffffffffffff8111610a9f57610931908284019085850101613581565b608085015260a0838301015167ffffffffffffffff8111610a9f57818301601f8286860101011215610a9f5780848401015161096c81612f95565b9161097a6040519384612f2b565b818352602083019084860160208460051b838a8a01010101116104dc576020818888010101915b60208460051b838a8a010101018310610aa3575050505060a085015260c0838301015167ffffffffffffffff8111610a9f5783830101818301601f82011215610a9f578051906109f082612f95565b926109fe6040519485612f2b565b8284526020606081860194028301019181860183116104dc57602001925b828410610a5a575050505060c0840152610a4f90610a3e83820160e00161356d565b60e0850152610100920182016134cf565b908201529138610292565b60608483880103126104dc576020606091604051610a7781612ef3565b610a808761356d565b8152828701518382015260408701516040820152815201930192610a1c565b8580fd5b825167ffffffffffffffff8111610b3c576040888a0184018201888a0103601f190112610b3c5760405190610ad782612f0f565b610ae9602082868d8d0101010161356d565b8252604081858c8c01010101519067ffffffffffffffff8211610b38579260209392610b278b868096958f968a8f9884998601950101010101613581565b8382015281520193019290506109a1565b8c80fd5b8a80fd5b835167ffffffffffffffff8111610b3c576060888a0184018201888a0103601f190112610b3c5760405190610b7482612ef3565b602081858c8c010101015167ffffffffffffffff8111610b385792602093926060859493878e8e610bb48f988a809a840191878787870101010101613528565b86520101016040818101518685015291015190820152815291909501940190506108ee565b634e487b7160e01b600052604160045260246000fd5b8380fd5b60405162461bcd60e51b815260206004820152601360248201527f6572726f725f7374616b655265717569726564000000000000000000000000006044820152606490fd5b80fd5b5034610c38576020366003190112610c3857610c55612e61565b610c5d61303b565b6001600160a01b03811615610c7857610c7590613093565b80f35b60405162461bcd60e51b815260206004820152602660248201527f4f776e61626c653a206e6577206f776e657220697320746865207a65726f206160448201527f64647265737300000000000000000000000000000000000000000000000000006064820152608490fd5b5034610c38576020366003190112610c3857610cfd612e61565b610d0561303b565b6001600160a01b0361010b91166001600160a01b031982541617905580f35b5034610c38576040366003190112610c3857610c75600435610d4d610d47612e46565b826137ba565b61386b565b5034610c385780600319360112610c38573381526101046020526040812033600052602052610d86336040600020546137ba565b338152610103602052610d9c604082205461386b565b610c7533613c36565b5034610c385780600319360112610c3857602060fe54604051908152f35b5034610c385780600319360112610c3857610c7533613c36565b5034610c38576020366003190112610c3857600560406020926001600160a01b03610e06612e61565b1681526101018452200154604051908152f35b5034610c385780600319360112610c3857610e32613f3f565b90604051918291602080840190808552835180925280604086019401925b828110610e5f57505050500390f35b83516001600160a01b031685528695509381019392810192600101610e50565b5034610c385780600319360112610c385760206001600160a01b036101065416604051908152f35b5034610c38576020366003190112610c385760043567ffffffffffffffff811161079757610ed9903690600401612e77565b60ff60fb5416158015610f3b575b15610ef657610c759133613964565b60405162461bcd60e51b815260206004820152601160248201527f6572726f725f6e6f74417070726f7665640000000000000000000000000000006044820152606490fd5b5033835261010260205260ff6040842054166003811015610f5e57600114610ee7565b634e487b7160e01b84526021600452602484fd5b5034610c38576040366003190112610c3857610f8c612e61565b6040610f96612e46565b926001600160a01b0380931681526101046020522091166000526020526020604060002054604051908152f35b5034610c385780600319360112610c3857610ff3610fdf613002565b604051918291602083526020830190612f70565b0390f35b5034610c385760208060031936011261079757600435600260c9541461121957600260c95580156111d4576001600160a01b0361010860248483835416604051928380926370a0823160e01b82523360048301525afa80156104d157849187916111a3575b501061115e5791606484928694338652610103855260408620611080858254613632565b905561108e8460fc54613632565b60fc5554169160405194859384926323b872dd60e01b845233600485015230602485015260448401525af1801561115357839061111e575b600191501515036110da5750600160c95580f35b6064906040519062461bcd60e51b82526004820152601760248201527f6572726f725f756e7375636365737366756c5374616b650000000000000000006044820152fd5b508181813d831161114c575b6111348183612f2b565b81010312610788576111476001916134cf565b6110c6565b503d61112a565b6040513d85823e3d90fd5b60405162461bcd60e51b815260048101859052601960248201527f6572726f725f696e73756666696369656e7442616c616e6365000000000000006044820152606490fd5b809250868092503d83116111cd575b6111bc8183612f2b565b81010312610a9f578390513861105c565b503d6111b2565b60405162461bcd60e51b815260048101839052601760248201527f6572726f725f696e73756666696369656e745374616b650000000000000000006044820152606490fd5b60405162461bcd60e51b815260048101839052601f60248201527f5265656e7472616e637947756172643a207265656e7472616e742063616c6c006044820152606490fd5b5034610c385780600319360112610c3857602060ff60fb54166040519015158152f35b5034610c38576020366003190112610c38576001600160a01b036112a3612e61565b16815261010260205260ff6040822054166040519060038110156112c957602092508152f35b634e487b7160e01b83526021600452602483fd5b5034610c385780600319360112610c3857602061010054604051908152f35b5034610c385780600319360112610c385760206001600160a01b0360975416604051908152f35b5034610c38576020366003190112610c3857610c75611340612e61565b61134861303b565b613c36565b5034610c38576020366003190112610c3857611367612e61565b61136f61303b565b6001600160a01b0361010a91166001600160a01b031982541617905580f35b5034610c38576020366003190112610c38576113a8612e61565b6113b061303b565b6001600160a01b0361010991166001600160a01b031982541617905580f35b5034610c38576040366003190112610c3857600435906113ed612e46565b600260c9541461160657600260c95582156115c1576001600160a01b039261010893808554169460405180966370a0823160e01b82523360048301528160246020998a935afa9081156104d1579084918791611590575b501061154b5784918691338452610103835260408420611465868254613632565b90556114738560fc54613632565b60fc5554166064604051809481936323b872dd60e01b83523360048401523060248401528760448401525af1801561154057849061150b575b600191501515036114c65790610c7591600160c9556136f2565b60405162461bcd60e51b815260048101859052601760248201527f6572726f725f756e7375636365737366756c5374616b650000000000000000006044820152606490fd5b508481813d8311611539575b6115218183612f2b565b81010312610bef576115346001916134cf565b6114ac565b503d611517565b6040513d86823e3d90fd5b60405162461bcd60e51b815260048101879052601960248201527f6572726f725f696e73756666696369656e7442616c616e6365000000000000006044820152606490fd5b809250888092503d83116115ba575b6115a98183612f2b565b81010312610a9f5783905138611444565b503d61159f565b60405162461bcd60e51b815260206004820152601760248201527f6572726f725f696e73756666696369656e745374616b650000000000000000006044820152606490fd5b60405162461bcd60e51b815260206004820152601f60248201527f5265656e7472616e637947756172643a207265656e7472616e742063616c6c006044820152606490fd5b5034610c385780600319360112610c385761166461303b565b60006001600160a01b036097546001600160a01b03198116609755167f8be0079c531659141344cd1fd0a4f28419497f9722a3daafe3b4186f6b6457e08280a380f35b5034610c38576020366003190112610c385760406020916001600160a01b036116ce612e61565b16815261010383522054604051908152f35b5034610c38576020366003190112610c385780602061176e60043561170361303b565b61172a8160fd5461171681831115613476565b6117228260fc546134c2565b60fc556134c2565b60fd556001600160a01b0361010854169060405194858094819363a9059cbb60e01b83523360048401602090939291936001600160a01b0360408201951681520152565b03925af190811561078c57829161178f575b506001610c75911515146134dc565b90506020813d82116117c6575b816117a960209383612f2b565b810103126107975760016117bf610c75926134cf565b9150611780565b3d915061179c565b5034610c38576020366003190112610c385760206117f26117ed612e61565b613fee565b6040519015158152f35b5034610c385780600319360112610c3857602060fd54604051908152f35b5034610c38576020366003190112610c38576001600160a01b0361183c612e61565b61184461303b565b1680825261010260205260408220805460ff191660011790557fdfe83f699699403a4b116b6f9504680228c3f319bbf5ab26b48a81d3005d98b28280a280f35b5034610c385780600319360112610c38576001600160a01b037f00000000000000000000000000000000000000000000000000000000000000001630036118ef5760206040517f360894a13ba1a3210667c828492db98dca3e2076cc3735a920a3ca505d382bbc8152f35b60405162461bcd60e51b815260206004820152603860248201527f555550535570677261646561626c653a206d757374206e6f742062652063616c60448201527f6c6564207468726f7567682064656c656761746563616c6c00000000000000006064820152608490fd5b506040366003190112610c385761196f612e61565b90602491823567ffffffffffffffff811161078857366023820112156107885780600401359061199e82612fad565b6119ab6040519182612f2b565b8281526020928382019236888383010111611ce357818792898793018637830101526001600160a01b03807f00000000000000000000000000000000000000000000000000000000000000001690611a05823014156130db565b611a347f360894a13ba1a3210667c828492db98dca3e2076cc3735a920a3ca505d382bbc92828454161461314d565b611a3c61303b565b7f4910fdfa16fed3260ed0e7147f7cc6da11a60208b5b9406d12a635614ffd91435460ff1615611a76575050505050610c759192506131bf565b8596949616906040516352d1902d60e01b81528781600481865afa60009181611cb4575b50611afa5760405162461bcd60e51b815260048101899052602e818b01527f45524331393637557067726164653a206e657720696d706c656d656e7461746960448201526d6f6e206973206e6f74205555505360901b6064820152608490fd5b979192939496959703611c5f57611b10876131bf565b604051917fbc7cd75a20ee27fd9adebab32041f755214dbc6bffa90cc0225b39da2e5c2d3b600080a2825115801590611c57575b611b53575b5050505050905080f35b863b15611c07575050611bf39394600092839251915af43d15611bff573d90611b7b82612fad565b91611b896040519384612f2b565b82523d60008484013e5b7f416464726573733a206c6f772d6c6576656c2064656c65676174652063616c6c60405193611bc185612ef3565b602785528401527f206661696c656400000000000000000000000000000000000000000000000000604084015261326d565b50803880808080611b49565b606090611b93565b62461bcd60e51b8252600482018590526026908201527f416464726573733a2064656c65676174652063616c6c20746f206e6f6e2d636f6044820152651b9d1c9858dd60d21b6064820152608490fd5b506001611b44565b8460296084926040519262461bcd60e51b845260048401528201527f45524331393637557067726164653a20756e737570706f727465642070726f786044820152681a58589b195555525160ba1b6064820152fd5b90918982813d8311611cdc575b611ccb8183612f2b565b81010312610c385750519038611a9a565b503d611cc1565b8680fd5b5034610c385780600319360112610c3857610ff3610fdf612fc9565b5034610c385780600319360112610c385760206001600160a01b036101055416604051908152f35b5034610c385760e0366003190112610c3857611d45612e61565b602435801515810361078857604435906001600160a01b0382168203610bef576084356001600160a01b03811681036103bd5760a4359267ffffffffffffffff8411610a9f5736602385011215610a9f57836004013593611da585612f95565b94611db36040519687612f2b565b80865260208601913660248360051b830101116104dc579160248301925b60248360051b8201018410612476575050505067ffffffffffffffff60c43511610a9f5736602360c435011215610a9f5767ffffffffffffffff60c4356004013511610a9f5736602460c4356004013560051b60c435010111610a9f5785549260ff8460081c161593848095612469575b8015612452575b156123e75760ff19808216600117895560ff91866123d6575b50611e7560c435600401358851146132b1565b6001600160a01b0384161515806123cb575b611e90906132b1565b611ea8828a5460081c16611ea381613404565b613404565b611eb133613093565b611ecd828a5460081c16611ec481613404565b611ea381613404565b600160c95560fb5416911515161760fb556001600160a01b036001600160a01b03199161010882821684825416179055168160ff54161760ff5560643560fe556001600160a01b0382169061010c54161761010c5584611f2b612fc9565b91611f34613002565b906001600160a01b0381163b1561078857611f7a836001600160a01b03611f8c9660405197889687958693630ef8cdc760e01b8552604060048601526044850190612f70565b83810360031901602485015290612f70565b0393165af180156103c9576123b8575b5060405130611faa82612ef3565b602a825260403660208401378151156121685760306020830153815160011015612168576078602183015360295b6001811161233957506122f55761202b6020611ff2612fc9565b92604051938161200b8693518092868087019101612f4d565b820161201f82518093868085019101612f4d565b01038084520182612f2b565b80519067ffffffffffffffff82116122e157819061204b61010754612ea5565b601f8111612286575b50602090601f83116001146121fc5787926121f1575b50508160011b916000199060031b1c191617610107555b836001600160a01b0361010c5416803b1561079757816040518092632337c3c760e11b8252604060048301528183816120bc60448201613314565b6003602483015203925af1801561078c576121dd575b505b825181101561217c576001600160a01b036120ef82856133f0565b51169060c435600401358110156121685760248160051b60c43501013560421960c435360301811215611ce35760c435019167ffffffffffffffff602484013511611ce357602483013536036044840113611ce357612163926105799161215461303b565b60446024830135920190613964565b6120d4565b634e487b7160e01b86526032600452602486fd5b84828561218761303b565b6001600160a01b03811615610c785761219f90613093565b6121a65780f35b61ff001981541681557f7f26b83ff96e1f2b6a682f133852f6798a09c465da95921460cefb3847402498602060405160018152a180f35b6121e690612edf565b610bef5783386120d2565b01519050388061206a565b925061010787527f47c4908e245f386bfc1825973249847f4053a761ddb4880ad63c323a7b5a2a259087935b601f198416851061226b576001945083601f19811610612252575b505050811b0161010755612081565b015160001960f88460031b161c19169055388080612243565b81810151835560209485019460019093019290910190612228565b6122d1906101076000527f47c4908e245f386bfc1825973249847f4053a761ddb4880ad63c323a7b5a2a25601f850160051c810191602086106122d7575b601f0160051c01906132fd565b38612054565b90915081906122c4565b634e487b7160e01b86526041600452602486fd5b606460405162461bcd60e51b815260206004820152602060248201527f537472696e67733a20686578206c656e67746820696e73756666696369656e746044820152fd5b906010600f821610156123a457825182101561238e57807f3031323334353637383961626364656600000000000000000000000000000000600f61238993161a6020848601015360041c91613c29565b611fd8565b634e487b7160e01b600052603260045260246000fd5b634e487b7160e01b87526032600452602487fd5b6123c490949194612edf565b9238611f9c565b506064351515611e87565b61ffff191661010117895538611e62565b60405162461bcd60e51b815260206004820152602e60248201527f496e697469616c697a61626c653a20636f6e747261637420697320616c72656160448201527f647920696e697469616c697a65640000000000000000000000000000000000006064820152608490fd5b50303b158015611e495750600160ff821614611e49565b50600160ff821610611e42565b6001600160a01b0384351684350361249d5760208060249386358152019401939150611dd1565b8980fd5b5034610c38576040366003190112610c3857610c756124be612e46565b6004356137ba565b5034610c38576040366003190112610c38576004356024803567ffffffffffffffff8111610bef576124fc903690600401612e77565b9060ff60fb54161580156127b5575b15612771579061251b9133613964565b600260c9541461272d57600260c95581156126e9576001600160a01b039061010891808354169260405180946370a0823160e01b8252336004830152818560209788935afa80156126de57869188916126ad575b50106126695785918491338452610103835260408420612590888254613632565b905561259e8760fc54613632565b60fc5554166064604051809481936323b872dd60e01b835233600484015230888401528960448401525af180156103c9578590612634575b600191501515036125f157600160c95583610c7533856136f2565b9060176064926040519262461bcd60e51b845260048401528201527f6572726f725f756e7375636365737366756c5374616b650000000000000000006044820152fd5b508281813d8311612662575b61264a8183612f2b565b810103126103bd5761265d6001916134cf565b6125d6565b503d612640565b60405162461bcd60e51b8152600481018590526019818501527f6572726f725f696e73756666696369656e7442616c616e6365000000000000006044820152606490fd5b809250868092503d83116126d7575b6126c68183612f2b565b81010312611ce3578590513861256f565b503d6126bc565b6040513d89823e3d90fd5b60649060176040519162461bcd60e51b8352602060048401528201527f6572726f725f696e73756666696369656e745374616b650000000000000000006044820152fd5b606490601f6040519162461bcd60e51b8352602060048401528201527f5265656e7472616e637947756172643a207265656e7472616e742063616c6c006044820152fd5b60405162461bcd60e51b8152602060048201526011818501527f6572726f725f6e6f74417070726f7665640000000000000000000000000000006044820152606490fd5b5033855261010260205260ff60408620541660038110156127d85760011461250b565b634e487b7160e01b865260216004528386fd5b5034610c385760208060031936011261079757612806612e61565b906001600160a01b03807f00000000000000000000000000000000000000000000000000000000000000001661283e813014156130db565b61286d7f360894a13ba1a3210667c828492db98dca3e2076cc3735a920a3ca505d382bbc91838354161461314d565b61287561303b565b604051908382019282841067ffffffffffffffff851117612afa578360405286835260ff7f4910fdfa16fed3260ed0e7147f7cc6da11a60208b5b9406d12a635614ffd914354166000146128d1575050505050610c75906131bf565b8596949516906040516352d1902d60e01b81528681600481865afa869181612acb575b506129555760405162461bcd60e51b815260048101889052602e60248201527f45524331393637557067726164653a206e657720696d706c656d656e7461746960448201526d6f6e206973206e6f74205555505360901b6064820152608490fd5b95949503612a7457612966866131bf565b604051907fbc7cd75a20ee27fd9adebab32041f755214dbc6bffa90cc0225b39da2e5c2d3b8680a2815115801590612a6d575b6129a7575b50505050905080f35b853b15612a1c57509280948192612a119551915af43d15611bff573d906129cd82612fad565b916129db6040519384612f2b565b82523d858484013e7f416464726573733a206c6f772d6c6576656c2064656c65676174652063616c6c60405193611bc185612ef3565b50803880808061299e565b62461bcd60e51b815260048101849052602660248201527f416464726573733a2064656c65676174652063616c6c20746f206e6f6e2d636f6044820152651b9d1c9858dd60d21b6064820152608490fd5b5084612999565b60405162461bcd60e51b815260048101859052602960248201527f45524331393637557067726164653a20756e737570706f727465642070726f786044820152681a58589b195555525160ba1b6064820152608490fd5b9091508781813d8311612af3575b612ae38183612f2b565b81010312611ce3575190386128f4565b503d612ad9565b634e487b7160e01b87526041600452602487fd5b5034610c38576020366003190112610c3857610c7560043561386b565b5034610c38576020366003190112610c38576001600160a01b03612b4d612e61565b612b5561303b565b1680825261010260205260408220805460ff191660021790557fbbe2a784aa6240d8175fa65a8459058efd8f44c5ab66caa2525fe9d6342108788280a280f35b5034610c38576020366003190112610c385760043580151580910361079757612bbc61303b565b60ff1960fb541660ff82161760fb557f7623db9c426686f05cec977c4cadb8ff9657502540ca665ae347731114dac69d8280a280f35b5034610c38576020366003190112610c3857610c75612c0f612e61565b612c1761303b565b612c1f61303b565b6001600160a01b03811680845261010260205260408420805460ff191660021790557fbbe2a784aa6240d8175fa65a8459058efd8f44c5ab66caa2525fe9d6342108788480a261134861303b565b5034610c385760209081600319360112610c38576001600160a01b0380612c92612e61565b168252610101835260408220918254928460018083019360405194859282825492612cbc84612ea5565b80875293838116908115612d6d5750600114612d30575b50505050612ce392500383612f2b565b600281015492612d17600582600385015416926004850154169301549360c0604051988998895288015260c0870190612f70565b9360408601526060850152608084015260a08301520390f35b815285812095935091905b818310612d55575089945050820101612ce3388080612cd3565b85548884018501529485019487945091830191612d3b565b9350505050612ce394925060ff191682840152151560051b8201018792388080612cd3565b5034610c385780600319360112610c3857602060fc54604051908152f35b5034610c38576040366003190112610c3857612dca612e61565b6024359067ffffffffffffffff821161078857612dee610c75923690600401612e77565b91612df761303b565b613964565b5034610c38576040366003190112610c3857610c75612e19612e46565b6004356136f2565b9050346107975781600319360112610797576020906001600160a01b0360ff54168152f35b602435906001600160a01b0382168203612e5c57565b600080fd5b600435906001600160a01b0382168203612e5c57565b9181601f84011215612e5c5782359167ffffffffffffffff8311612e5c5760208381860195010111612e5c57565b90600182811c92168015612ed5575b6020831014612ebf57565b634e487b7160e01b600052602260045260246000fd5b91607f1691612eb4565b67ffffffffffffffff8111610bd957604052565b6060810190811067ffffffffffffffff821117610bd957604052565b6040810190811067ffffffffffffffff821117610bd957604052565b90601f8019910116810190811067ffffffffffffffff821117610bd957604052565b60005b838110612f605750506000910152565b8181015183820152602001612f50565b90602091612f8981518092818552858086019101612f4d565b601f01601f1916010190565b67ffffffffffffffff8111610bd95760051b60200190565b67ffffffffffffffff8111610bd957601f01601f191660200190565b60405190612fd682612f0f565b600782527f2f73797374656d000000000000000000000000000000000000000000000000006020830152565b6040519061300f82612f0f565b601382527f7b2022706172746974696f6e73223a2031207d000000000000000000000000006020830152565b6001600160a01b0360975416330361304f57565b606460405162461bcd60e51b815260206004820152602060248201527f4f776e61626c653a2063616c6c6572206973206e6f7420746865206f776e65726044820152fd5b609754906001600160a01b0380911691826001600160a01b0319821617609755167f8be0079c531659141344cd1fd0a4f28419497f9722a3daafe3b4186f6b6457e0600080a3565b156130e257565b60405162461bcd60e51b815260206004820152602c60248201527f46756e6374696f6e206d7573742062652063616c6c6564207468726f7567682060448201527f64656c656761746563616c6c00000000000000000000000000000000000000006064820152608490fd5b1561315457565b60405162461bcd60e51b815260206004820152602c60248201527f46756e6374696f6e206d7573742062652063616c6c6564207468726f7567682060448201527f6163746976652070726f787900000000000000000000000000000000000000006064820152608490fd5b803b15613202576001600160a01b037f360894a13ba1a3210667c828492db98dca3e2076cc3735a920a3ca505d382bbc91166001600160a01b0319825416179055565b60405162461bcd60e51b815260206004820152602d60248201527f455243313936373a206e657720696d706c656d656e746174696f6e206973206e60448201527f6f74206120636f6e7472616374000000000000000000000000000000000000006064820152608490fd5b90919015613279575090565b8151156132895750805190602001fd5b60405162461bcd60e51b8152602060048201529081906132ad906024830190612f70565b0390fd5b156132b857565b60405162461bcd60e51b815260206004820152601460248201527f6572726f725f626164547261636b6572446174610000000000000000000000006044820152606490fd5b818110613308575050565b600081556001016132fd565b9060009161010790815461332781612ea5565b808352926001918083169081156133a65750600114613347575b50505050565b90929394506000527f47c4908e245f386bfc1825973249847f4053a761ddb4880ad63c323a7b5a2a25916000925b84841061338e5750506020925001019038808080613341565b80546020858501810191909152909301928101613375565b92505050602093945060ff929192191683830152151560051b01019038808080613341565b60001981146133da5760010190565b634e487b7160e01b600052601160045260246000fd5b805182101561238e5760209160051b010190565b1561340b57565b60405162461bcd60e51b815260206004820152602b60248201527f496e697469616c697a61626c653a20636f6e7472616374206973206e6f74206960448201527f6e697469616c697a696e670000000000000000000000000000000000000000006064820152608490fd5b1561347d57565b60405162461bcd60e51b815260206004820152601460248201527f6572726f725f6e6f74456e6f7567685374616b650000000000000000000000006044820152606490fd5b919082039182116133da57565b51908115158203612e5c57565b156134e357565b60405162461bcd60e51b815260206004820152601a60248201527f6572726f725f756e7375636365737366756c57697468647261770000000000006044820152606490fd5b81601f82011215612e5c57805161353e81612fad565b9261354c6040519485612f2b565b81845260208284010111612e5c5761356a9160208085019101612f4d565b90565b51906001600160a01b0382168203612e5c57565b81601f82011215612e5c5780519061359882612f95565b926040926135a884519586612f2b565b808552602091828087019260061b85010193818511612e5c578301915b8483106135d55750505050505090565b8583830312612e5c5783869182516135ec81612f0f565b6135f58661356d565b815282860151838201528152019201916135c5565b90918060409360208452816020850152848401376000828201840152601f01601f1916010190565b919082018092116133da57565b919091600083820193841291129080158216911516176133da57565b1561366257565b606460405162461bcd60e51b815260206004820152602060248201527f6572726f725f696e73756666696369656e7444656c6567617465416d6f756e746044820152fd5b156136ad57565b60405162461bcd60e51b815260206004820152601160248201527f6572726f725f696e76616c69644e6f64650000000000000000000000000000006044820152606490fd5b7fcf939c6aa5e54a02f6433632298ef92d8600b2e56030790abb22fb9b3ab25d7e9061371f81151561365b565b6001600160a01b038316926005600092858452610101936020948086526137aa60409586946137556002878720015415156136a6565b338552610103895285852061376b8282546134c2565b905533855261010489528585208b8652895285852061378b828254613632565b90558a85528389526137a38787872001918254613632565b9055613e77565b87825285522001549051908152a2565b7fcf939c6aa5e54a02f6433632298ef92d8600b2e56030790abb22fb9b3ab25d7e906137e781151561365b565b6001600160a01b038316926005600092858452610101936020948086526137aa604095869461381d6002878720015415156136a6565b33855261010489528585208b8652895285852061383b8282546134c2565b90558a855283895286868620016138538282546134c2565b905533855261010389526137a3868620918254613632565b6000338152806101036138f5602094828693845261388f6040862054831115613476565b3385528352604084206138a38282546134c2565b90556138b18160fc546134c2565b60fc556001600160a01b0361010854169060405195868094819363a9059cbb60e01b83523360048401602090939291936001600160a01b0360408201951681520152565b03925af192831561395757819361391a575b5050506001613918911515146134dc565b565b9091809350813d8311613950575b6139328183612f2b565b81010312610c3857506001613949613918926134cf565b9138613907565b503d613928565b50604051903d90823e3d90fd5b6001600160a01b03809116916000908382526020906101018252604083209383966002860191825415613b86575b5060018096019267ffffffffffffffff82116122e15781906139b48554612ea5565b601f8111613b58575b508690601f8311600114613af9578792613aee575b5050600019600383901b1c191690861b1782555b4290556040519360408552838254926139fe84612ea5565b938460408901528381169081600014613aa45750600114613a4d575b505050509180917f7b8ea65757bf0d882563917834f76c4df069ea7e489c9fc65bf764289792e3349342908301520390a3565b9080949550528383205b828410613a9057505050820160600190807f7b8ea65757bf0d882563917834f76c4df069ea7e489c9fc65bf764289792e3348438613a1a565b805486850160600152928401928101613a57565b915050869550606092507f7b8ea65757bf0d882563917834f76c4df069ea7e489c9fc65bf764289792e334969493915060ff191682850152151560051b8301019293819238613a1a565b0135905038806139d2565b85885286882089945091601f198416895b89828210613b425750508411613b28575b505050811b0182556139e6565b0135600019600384901b60f8161c19169055388080613b1b565b8385013586558c97909501949283019201613b0a565b613b8090868952878920601f850160051c8101918986106122d757601f0160051c01906132fd565b386139bd565b9750600197610105908082541615600014613beb5750876001600160a01b03198254161790555b610106876001600160a01b0319825416179055610100805490898201809211613bd7575538613992565b634e487b7160e01b87526011600452602487fd5b90506101069080825416875260036040882001916001600160a01b0319928a8482541617905554166004880191825416179055610100548655613bad565b80156133da576000190190565b6001600160a01b038091169060009082825261010160209080825260409081852092600284015415613e3457600484018581541680613e0b575b506003809501908682541680613de5575b5061010580548a89821614613dcc575b505061010690815490888b81841614613db2575b505050508787528282528387209087825587600560019382858201613cca8154612ea5565b80613d77575b50506002820155828982015582600482015501556101008054906000198201918211613d635755548616815b613d2e575b50505050505050807fcfc24166db4bb677e857cacabd1541fb2b30645021b27c5130419589b84db52b91a2565b86168015613d5e57808852838352848820613d498154613c29565b90558752828252858585892001541681613cfc565b613d01565b634e487b7160e01b8a52601160045260248afd5b601f8111600114613d8d5750555b823880613cd0565b818352888320613da691601f01861c81019089016132fd565b81888120915555613d85565b6001600160a01b0319915416911617905538808088613ca5565b6001600160a01b03198985541691161790553880613c91565b878254169089528484526004868a2001906001600160a01b031982541617905538613c81565b86600387015416908852838352600385892001906001600160a01b031982541617905538613c70565b60649083519062461bcd60e51b82526004820152600e60248201527f6572726f725f6e6f74466f756e640000000000000000000000000000000000006044820152fd5b6001600160a01b039081166000818152610101602052604081206005015460fe5491939111613f0a5761010c5416803b1561078857829182916040518095818094634cbf455560e11b825260606004830152613ed560648301613314565b9060248301526002604483015203925af1908115613efe5750613ef55750565b61391890612edf565b604051903d90823e3d90fd5b61010c5416803b1561078857829182916040518095818094631f1cbd7560e11b825260606004830152613ed560648301613314565b61010054613f4c81612f95565b90604090613f5c82519384612f2b565b808352613f6b601f1991612f95565b0160209036828501376001600160a01b038061010554168015613fe75791600060019384805b613fa0575b5050505050505090565b15613fda575b60009084613fb4848a6133f0565b911680915281526101018352613fd2846003888420015416926133cb565b919085613f91565b838116613fa65780613f96565b5050505090565b60fe548015159182613fff57505090565b6001600160a01b039192501660005261010160205260056040600020015410159056fea2646970667358221220786e457c5d18d6aa2306357887b25482ef8f2dd76b7dc1306c72eb258891f6e064736f6c63430008110033",
  "linkReferences": {},
  "deployedLinkReferences": {}
}