{
  "_format": "hh-sol-artifact-1",
  "contractName": "LogStoreNodeManager",
  "sourceName": "src/NodeManager.sol",
  "abi": [
    {
      "anonymous": false,
      "inputs": [
        {
          "indexed": false,
          "internalType": "address",
          "name": "previousAdmin",
          "type": "address"
        },
        {
          "indexed": false,
          "internalType": "address",
          "name": "newAdmin",
          "type": "address"
        }
      ],
      "name": "AdminChanged",
      "type": "event"
    },
    {
      "anonymous": false,
      "inputs": [
        {
          "indexed": true,
          "internalType": "address",
          "name": "beacon",
          "type": "address"
        }
      ],
      "name": "BeaconUpgraded",
      "type": "event"
    },
    {
      "anonymous": false,
      "inputs": [
        {
          "indexed": false,
          "internalType": "uint8",
          "name": "version",
          "type": "uint8"
        }
      ],
      "name": "Initialized",
      "type": "event"
    },
    {
      "anonymous": false,
      "inputs": [
        {
          "indexed": true,
          "internalType": "address",
          "name": "nodeAddress",
          "type": "address"
        }
      ],
      "name": "NodeRemoved",
      "type": "event"
    },
    {
      "anonymous": false,
      "inputs": [
        {
          "indexed": true,
          "internalType": "address",
          "name": "nodeAddress",
          "type": "address"
        },
        {
          "indexed": false,
          "internalType": "string",
          "name": "metadata",
          "type": "string"
        },
        {
          "indexed": true,
          "internalType": "bool",
          "name": "isNew",
          "type": "bool"
        },
        {
          "indexed": false,
          "internalType": "uint256",
          "name": "lastSeen",
          "type": "uint256"
        }
      ],
      "name": "NodeUpdated",
      "type": "event"
    },
    {
      "anonymous": false,
      "inputs": [
        {
          "indexed": true,
          "internalType": "address",
          "name": "nodeAddress",
          "type": "address"
        }
      ],
      "name": "NodeWhitelistApproved",
      "type": "event"
    },
    {
      "anonymous": false,
      "inputs": [
        {
          "indexed": true,
          "internalType": "address",
          "name": "nodeAddress",
          "type": "address"
        }
      ],
      "name": "NodeWhitelistRejected",
      "type": "event"
    },
    {
      "anonymous": false,
      "inputs": [
        {
          "indexed": true,
          "internalType": "address",
          "name": "previousOwner",
          "type": "address"
        },
        {
          "indexed": true,
          "internalType": "address",
          "name": "newOwner",
          "type": "address"
        }
      ],
      "name": "OwnershipTransferred",
      "type": "event"
    },
    {
      "anonymous": false,
      "inputs": [
        {
          "indexed": false,
          "internalType": "string",
          "name": "id",
          "type": "string"
        }
      ],
      "name": "ReportProcessed",
      "type": "event"
    },
    {
      "anonymous": false,
      "inputs": [
        {
          "indexed": true,
          "internalType": "bool",
          "name": "value",
          "type": "bool"
        }
      ],
      "name": "RequiresWhitelistChanged",
      "type": "event"
    },
    {
      "anonymous": false,
      "inputs": [
        {
          "indexed": true,
          "internalType": "address",
          "name": "delegate",
          "type": "address"
        },
        {
          "indexed": true,
          "internalType": "address",
          "name": "node",
          "type": "address"
        },
        {
          "indexed": false,
          "internalType": "uint256",
          "name": "amount",
          "type": "uint256"
        },
        {
          "indexed": false,
          "internalType": "uint256",
          "name": "totalStake",
          "type": "uint256"
        },
        {
          "indexed": false,
          "internalType": "uint256",
          "name": "totalDelegated",
          "type": "uint256"
        },
        {
          "indexed": false,
          "internalType": "bool",
          "name": "delegated",
          "type": "bool"
        }
      ],
      "name": "StakeDelegateUpdated",
      "type": "event"
    },
    {
      "anonymous": false,
      "inputs": [
        {
          "indexed": true,
          "internalType": "address",
          "name": "implementation",
          "type": "address"
        }
      ],
      "name": "Upgraded",
      "type": "event"
    },
    {
      "inputs": [],
      "name": "LOGSTORE_SYSTEM_STREAM_ID_PATH",
      "outputs": [
        {
          "internalType": "string",
          "name": "",
          "type": "string"
        }
      ],
      "stateMutability": "view",
      "type": "function"
    },
    {
      "inputs": [],
      "name": "LOGSTORE_SYSTEM_STREAM_METADATA_JSON_STRING",
      "outputs": [
        {
          "internalType": "string",
          "name": "",
          "type": "string"
        }
      ],
      "stateMutability": "view",
      "type": "function"
    },
    {
      "inputs": [
        {
          "internalType": "address",
          "name": "",
          "type": "address"
        }
      ],
      "name": "balanceOf",
      "outputs": [
        {
          "internalType": "uint256",
          "name": "",
          "type": "uint256"
        }
      ],
      "stateMutability": "view",
      "type": "function"
    },
    {
      "inputs": [
        {
          "internalType": "uint256",
          "name": "amount",
          "type": "uint256"
        },
        {
          "internalType": "address",
          "name": "node",
          "type": "address"
        }
      ],
      "name": "delegate",
      "outputs": [],
      "stateMutability": "nonpayable",
      "type": "function"
    },
    {
      "inputs": [
        {
          "internalType": "address",
          "name": "",
          "type": "address"
        },
        {
          "internalType": "address",
          "name": "",
          "type": "address"
        }
      ],
      "name": "delegatesOf",
      "outputs": [
        {
          "internalType": "uint256",
          "name": "",
          "type": "uint256"
        }
      ],
      "stateMutability": "view",
      "type": "function"
    },
    {
      "inputs": [],
      "name": "headNode",
      "outputs": [
        {
          "internalType": "address",
          "name": "",
          "type": "address"
        }
      ],
      "stateMutability": "view",
      "type": "function"
    },
    {
      "inputs": [
        {
          "internalType": "address",
          "name": "owner_",
          "type": "address"
        },
        {
          "internalType": "bool",
          "name": "requiresWhitelist_",
          "type": "bool"
        },
        {
          "internalType": "address",
          "name": "stakeTokenAddress_",
          "type": "address"
        },
        {
          "internalType": "uint256",
          "name": "stakeRequiredAmount_",
          "type": "uint256"
        },
        {
          "internalType": "address",
          "name": "streamrRegistryAddress_",
          "type": "address"
        },
        {
          "internalType": "address[]",
          "name": "initialNodes",
          "type": "address[]"
        },
        {
          "internalType": "string[]",
          "name": "initialMetadata",
          "type": "string[]"
        }
      ],
      "name": "initialize",
      "outputs": [],
      "stateMutability": "nonpayable",
      "type": "function"
    },
    {
      "inputs": [
        {
          "internalType": "address",
          "name": "node",
          "type": "address"
        }
      ],
      "name": "isStaked",
      "outputs": [
        {
          "internalType": "bool",
          "name": "",
          "type": "bool"
        }
      ],
      "stateMutability": "view",
      "type": "function"
    },
    {
      "inputs": [
        {
          "internalType": "uint256",
          "name": "amount",
          "type": "uint256"
        },
        {
          "internalType": "string",
          "name": "metadata_",
          "type": "string"
        }
      ],
      "name": "join",
      "outputs": [],
      "stateMutability": "nonpayable",
      "type": "function"
    },
    {
      "inputs": [
        {
          "internalType": "address",
          "name": "nodeAddress",
          "type": "address"
        }
      ],
      "name": "kickNode",
      "outputs": [],
      "stateMutability": "nonpayable",
      "type": "function"
    },
    {
      "inputs": [],
      "name": "leave",
      "outputs": [],
      "stateMutability": "nonpayable",
      "type": "function"
    },
    {
      "inputs": [],
      "name": "nodeAddresses",
      "outputs": [
        {
          "internalType": "address[]",
          "name": "resultAddresses",
          "type": "address[]"
        }
      ],
      "stateMutability": "view",
      "type": "function"
    },
    {
      "inputs": [
        {
          "internalType": "address",
          "name": "node",
          "type": "address"
        }
      ],
      "name": "nodeStake",
      "outputs": [
        {
          "internalType": "uint256",
          "name": "",
          "type": "uint256"
        }
      ],
      "stateMutability": "view",
      "type": "function"
    },
    {
      "inputs": [
        {
          "internalType": "address",
          "name": "",
          "type": "address"
        }
      ],
      "name": "nodes",
      "outputs": [
        {
          "internalType": "uint256",
          "name": "index",
          "type": "uint256"
        },
        {
          "internalType": "string",
          "name": "metadata",
          "type": "string"
        },
        {
          "internalType": "uint256",
          "name": "lastSeen",
          "type": "uint256"
        },
        {
          "internalType": "address",
          "name": "next",
          "type": "address"
        },
        {
          "internalType": "address",
          "name": "prev",
          "type": "address"
        },
        {
          "internalType": "uint256",
          "name": "stake",
          "type": "uint256"
        }
      ],
      "stateMutability": "view",
      "type": "function"
    },
    {
      "inputs": [],
      "name": "owner",
      "outputs": [
        {
          "internalType": "address",
          "name": "",
          "type": "address"
        }
      ],
      "stateMutability": "view",
      "type": "function"
    },
    {
      "inputs": [
        {
          "internalType": "string",
          "name": "id",
          "type": "string"
        }
      ],
      "name": "processReport",
      "outputs": [],
      "stateMutability": "nonpayable",
      "type": "function"
    },
    {
      "inputs": [],
      "name": "proxiableUUID",
      "outputs": [
        {
          "internalType": "bytes32",
          "name": "",
          "type": "bytes32"
        }
      ],
      "stateMutability": "view",
      "type": "function"
    },
    {
      "inputs": [
        {
          "internalType": "address",
          "name": "contractAddress",
          "type": "address"
        }
      ],
      "name": "registerQueryManager",
      "outputs": [],
      "stateMutability": "nonpayable",
      "type": "function"
    },
    {
      "inputs": [
        {
          "internalType": "address",
          "name": "contractAddress",
          "type": "address"
        }
      ],
      "name": "registerReportManager",
      "outputs": [],
      "stateMutability": "nonpayable",
      "type": "function"
    },
    {
      "inputs": [
        {
          "internalType": "address",
          "name": "contractAddress",
          "type": "address"
        }
      ],
      "name": "registerStoreManager",
      "outputs": [],
      "stateMutability": "nonpayable",
      "type": "function"
    },
    {
      "inputs": [],
      "name": "removeNode",
      "outputs": [],
      "stateMutability": "nonpayable",
      "type": "function"
    },
    {
      "inputs": [
        {
          "internalType": "address",
          "name": "nodeAddress",
          "type": "address"
        }
      ],
      "name": "removeNodeAdmin",
      "outputs": [],
      "stateMutability": "nonpayable",
      "type": "function"
    },
    {
      "inputs": [],
      "name": "renounceOwnership",
      "outputs": [],
      "stateMutability": "nonpayable",
      "type": "function"
    },
    {
      "inputs": [],
      "name": "requiresWhitelist",
      "outputs": [
        {
          "internalType": "bool",
          "name": "",
          "type": "bool"
        }
      ],
      "stateMutability": "view",
      "type": "function"
    },
    {
      "inputs": [
        {
          "internalType": "bool",
          "name": "value",
          "type": "bool"
        }
      ],
      "name": "setRequiresWhitelist",
      "outputs": [],
      "stateMutability": "nonpayable",
      "type": "function"
    },
    {
      "inputs": [
        {
          "internalType": "uint256",
          "name": "amount",
          "type": "uint256"
        }
      ],
      "name": "stake",
      "outputs": [],
      "stateMutability": "nonpayable",
      "type": "function"
    },
    {
      "inputs": [
        {
          "internalType": "uint256",
          "name": "amount",
          "type": "uint256"
        },
        {
          "internalType": "address",
          "name": "node",
          "type": "address"
        }
      ],
      "name": "stakeAndDelegate",
      "outputs": [],
      "stateMutability": "nonpayable",
      "type": "function"
    },
    {
      "inputs": [],
      "name": "stakeRequiredAmount",
      "outputs": [
        {
          "internalType": "uint256",
          "name": "",
          "type": "uint256"
        }
      ],
      "stateMutability": "view",
      "type": "function"
    },
    {
      "inputs": [],
      "name": "stakeTokenAddress",
      "outputs": [
        {
          "internalType": "address",
          "name": "",
          "type": "address"
        }
      ],
      "stateMutability": "view",
      "type": "function"
    },
    {
      "inputs": [],
      "name": "startBlockNumber",
      "outputs": [
        {
          "internalType": "uint256",
          "name": "",
          "type": "uint256"
        }
      ],
      "stateMutability": "view",
      "type": "function"
    },
    {
      "inputs": [],
      "name": "tailNode",
      "outputs": [
        {
          "internalType": "address",
          "name": "",
          "type": "address"
        }
      ],
      "stateMutability": "view",
      "type": "function"
    },
    {
      "inputs": [],
      "name": "totalNodes",
      "outputs": [
        {
          "internalType": "uint256",
          "name": "",
          "type": "uint256"
        }
      ],
      "stateMutability": "view",
      "type": "function"
    },
    {
      "inputs": [],
      "name": "totalSupply",
      "outputs": [
        {
          "internalType": "uint256",
          "name": "",
          "type": "uint256"
        }
      ],
      "stateMutability": "view",
      "type": "function"
    },
    {
      "inputs": [
        {
          "internalType": "address",
          "name": "newOwner",
          "type": "address"
        }
      ],
      "name": "transferOwnership",
      "outputs": [],
      "stateMutability": "nonpayable",
      "type": "function"
    },
    {
      "inputs": [],
      "name": "treasurySupply",
      "outputs": [
        {
          "internalType": "uint256",
          "name": "",
          "type": "uint256"
        }
      ],
      "stateMutability": "view",
      "type": "function"
    },
    {
      "inputs": [
        {
          "internalType": "uint256",
          "name": "amount",
          "type": "uint256"
        }
      ],
      "name": "treasuryWithdraw",
      "outputs": [],
      "stateMutability": "nonpayable",
      "type": "function"
    },
    {
      "inputs": [
        {
          "internalType": "uint256",
          "name": "amount",
          "type": "uint256"
        },
        {
          "internalType": "address",
          "name": "node",
          "type": "address"
        }
      ],
      "name": "undelegate",
      "outputs": [],
      "stateMutability": "nonpayable",
      "type": "function"
    },
    {
      "inputs": [
        {
          "internalType": "uint256",
          "name": "amount",
          "type": "uint256"
        },
        {
          "internalType": "address",
          "name": "node",
          "type": "address"
        }
      ],
      "name": "undelegateWithdraw",
      "outputs": [],
      "stateMutability": "nonpayable",
      "type": "function"
    },
    {
      "inputs": [
        {
          "internalType": "address",
          "name": "newImplementation",
          "type": "address"
        }
      ],
      "name": "upgradeTo",
      "outputs": [],
      "stateMutability": "nonpayable",
      "type": "function"
    },
    {
      "inputs": [
        {
          "internalType": "address",
          "name": "newImplementation",
          "type": "address"
        },
        {
          "internalType": "bytes",
          "name": "data",
          "type": "bytes"
        }
      ],
      "name": "upgradeToAndCall",
      "outputs": [],
      "stateMutability": "payable",
      "type": "function"
    },
    {
      "inputs": [
        {
          "internalType": "string",
          "name": "metadata_",
          "type": "string"
        }
      ],
      "name": "upsertNode",
      "outputs": [],
      "stateMutability": "nonpayable",
      "type": "function"
    },
    {
      "inputs": [
        {
          "internalType": "address",
          "name": "node",
          "type": "address"
        },
        {
          "internalType": "string",
          "name": "metadata_",
          "type": "string"
        }
      ],
      "name": "upsertNodeAdmin",
      "outputs": [],
      "stateMutability": "nonpayable",
      "type": "function"
    },
    {
      "inputs": [
        {
          "internalType": "address",
          "name": "",
          "type": "address"
        }
      ],
      "name": "whitelist",
      "outputs": [
        {
          "internalType": "enum LogStoreNodeManager.WhitelistState",
          "name": "",
          "type": "uint8"
        }
      ],
      "stateMutability": "view",
      "type": "function"
    },
    {
      "inputs": [
        {
          "internalType": "address",
          "name": "nodeAddress",
          "type": "address"
        }
      ],
      "name": "whitelistApproveNode",
      "outputs": [],
      "stateMutability": "nonpayable",
      "type": "function"
    },
    {
      "inputs": [
        {
          "internalType": "address",
          "name": "nodeAddress",
          "type": "address"
        }
      ],
      "name": "whitelistRejectNode",
      "outputs": [],
      "stateMutability": "nonpayable",
      "type": "function"
    },
    {
      "inputs": [
        {
          "internalType": "uint256",
          "name": "amount",
          "type": "uint256"
        }
      ],
      "name": "withdraw",
      "outputs": [],
      "stateMutability": "nonpayable",
      "type": "function"
    }
  ],
  "bytecode": "0x60a08060405234610031573060805261408b908161003782396080518181816118290152818161196201526127be0152f35b600080fdfe608080604052600436101561001357600080fd5b600090813560e01c9081630106395f14612dcd5750806308bbb82414612da85780631204c48614612d5c57806318160ddd14612d3e578063189a5a1714612c195780631ad603d014612b9e57806320a59a0314612b415780632af5758014612ad75780632e1a7d4d14612aba5780633659cfe6146127975780633cfb3d8a1461247257806345e863e01461244d5780634632974314611cd057806346c198f614611ca85780634830563414611c8c578063498a4c2d14611c6d5780634f1ef286146118e457806352d1902d1461180e5780635888799c146117a45780635fc1a4b8146117865780636177fd1814611758578063652671391461166a57806370a0823114611631578063715018a6146115d5578063735e6c7a1461135957806375ed25dc1461131857806379e574cb146112d75780638ce15586146112ad5780638da5cb5b146112865780639592d424146112675780639b19251a1461120b578063a5ee5b41146111e8578063a694fc3a14610f8c578063a7cc540514610f58578063abad29a814610f07578063b2a52fef14610e3c578063bfdf086614610e14578063c10b522214610dae578063cd23d26814610d72578063d0d3f5ba14610d58578063d5c7096614610d3a578063d66d9e1914610ce7578063e7b5895314610cb9578063e8d88aba14610c78578063f2fde38b14610bd05763f6883c051461021b57600080fd5b34610bcd576020366003190112610bcd5760043567ffffffffffffffff81116107205761024c903690600401612e23565b9161025633614021565b15610b885761010c6001600160a01b038154168260405180926312e63d7160e01b825281806102898a8a600484016135b6565b03915afa908115610b7d578391610773575b5061010081015161072e57825b606080830190815180518410156103bc576102c58460409261339c565b5101516102dd575b50506102d890613377565b6102a8565b6001600160a01b0361010a54166102f584845161339c565b5151602061030486865161339c565b51015192604061031587875161339c565b51015193833b156103b857918980949261034c9460405197889687958694639ac0e98b60e01b865260048601526064850190612f1c565b916024840152604483015203925af180156103ad57908691610395575b505090602061037c826102d8945161339c565b51015161038c60fc9182546135de565b905590386102cd565b61039e90612e8b565b6103a9578438610369565b8480fd5b6040513d88823e3d90fd5b8980fd5b8786888b88825b60c08201805180518310156104bc576103de8360409261339c565b5101516103f5575b506103f090613377565b6103c3565b6001600160a01b0361010b54166001600160a01b0361041584845161339c565b515116602061042585855161339c565b51015190604061043686865161339c565b51015192803b156104b857889291836064926040519687958694631ee2efa360e31b86526004860152602485015260448401525af180156103ad579086916104a4575b505090602061048c826103f0945161339c565b51015161049c60fc9182546135de565b9055906103e6565b6104ad90612e8b565b6103a9578488610479565b8880fd5b5050509390825b608086018051805183101561055457829160206104fc846001600160a01b036104f261053c986105379761339c565b515116935161339c565b510151818852610102908160205261051c6005918260408c2001546135eb565b91898084131561054157849052602052604089200155613ea5565b613377565b6104c3565b9250838352602052604082200155613ea5565b8580898988885b60a0840192835180518810156106605761057d886001600160a01b039261339c565b51511694865b60206105908a885161339c565b5101515181101561064857808960206105d683826105c36001600160a01b036105cb610623998f6105c38a87925161339c565b51015161339c565b515116958d5161339c565b51015190898b526105fe610105928360205260408d20836000526020526040600020546135eb565b918b831315610628578a8c5260205260408b2090600052602052604060002055613377565b610583565b909150898b5260205260408a209060005260205288604060002055613377565b50935093509461065790613377565b9492919261055b565b868484826001600160a01b038661067f8c604060fd54910151906135eb565b838113156107245760fd555b5416803b156107205781604051809263f6883c0560e01b82528183816106b5898b600484016135b6565b03925af18015610715576106fd575b50507fbcd21d99bbf55769881dda49c45043a8750d2229c330cdddd4718575f7236402916106f7604051928392836135b6565b0390a180f35b61070690612e8b565b6107115782846106c4565b8280fd5b6040513d84823e3d90fd5b5080fd5b508260fd5561068b565b60405162461bcd60e51b815260206004820152601c60248201527f6572726f725f7265706f7274416c726561647950726f636573736564000000006044820152606490fd5b3d91508184823e6107848282612ed7565b6020818381010312610b795780519067ffffffffffffffff82116103a95761012092838383018284010312610b755760405193840184811067ffffffffffffffff821117610b5f576040528282015167ffffffffffffffff8111610a25576107f39082840190858501016134d4565b845281830160208181015190860152604080820151908601526060015167ffffffffffffffff8111610a2557818301601f8286860101011215610a25578084840101519061084082612f41565b9161084e6040519384612ed7565b808352602083019184860160208360051b838a8a01010101116103b8576020818888010101925b60208360051b838a8a010101018410610ac6575050505060608501526080838301015167ffffffffffffffff8111610a25576108b890828401908585010161352d565b608085015260a0838301015167ffffffffffffffff8111610a2557818301601f8286860101011215610a25578084840101516108f381612f41565b916109016040519384612ed7565b818352602083019084860160208460051b838a8a01010101116103b8576020818888010101915b60208460051b838a8a010101018310610a29575050505060a085015260c0838301015167ffffffffffffffff8111610a255783830101818301601f82011215610a255780519061097782612f41565b926109856040519485612ed7565b8284526020606081860194028301019181860183116103b857602001925b8284106109e0575050505060c08401526109d6906109c583820160e001613519565b60e08501526101009201820161347b565b908201523861029b565b60608483880103126103b85760206060916040516109fd81612e9f565b610a0687613519565b81528287015183820152604087015160408201528152019301926109a3565b8680fd5b825167ffffffffffffffff8111610ac2576040888a0184018201888a0103601f190112610ac25760405190610a5d82612ebb565b610a6f602082868d8d01010101613519565b8252604081858c8c01010101519067ffffffffffffffff8211610abe579260209392610aad8b868096958f968a8f988499860195010101010161352d565b838201528152019301929050610928565b8d80fd5b8b80fd5b835167ffffffffffffffff8111610ac2576060888a0184018201888a0103601f190112610ac25760405190610afa82612e9f565b602081858c8c010101015167ffffffffffffffff8111610abe5792602093926060859493878e8e610b3a8f988a809a8401918787878701010101016134d4565b8652010101604081810151868501529101519082015281529190950194019050610875565b634e487b7160e01b600052604160045260246000fd5b8580fd5b8380fd5b6040513d85823e3d90fd5b60405162461bcd60e51b815260206004820152601360248201527f6572726f725f7374616b655265717569726564000000000000000000000000006044820152606490fd5b80fd5b5034610bcd576020366003190112610bcd57610bea612e0d565b610bf2612fe7565b6001600160a01b03811615610c0d57610c0a9061303f565b80f35b60405162461bcd60e51b815260206004820152602660248201527f4f776e61626c653a206e6577206f776e657220697320746865207a65726f206160448201527f64647265737300000000000000000000000000000000000000000000000000006064820152608490fd5b5034610bcd576020366003190112610bcd57610c92612e0d565b610c9a612fe7565b6001600160a01b0361010c91166001600160a01b031982541617905580f35b5034610bcd576040366003190112610bcd57610c0a600435610ce2610cdc612df2565b8261378b565b61386f565b5034610bcd5780600319360112610bcd573381526101056020526040812033600052602052610d1b3360406000205461378b565b338152610104602052610d31604082205461386f565b610c0a33613c5d565b5034610bcd5780600319360112610bcd57602060fe54604051908152f35b5034610bcd5780600319360112610bcd57610c0a33613c5d565b5034610bcd576020366003190112610bcd57600560406020926001600160a01b03610d9b612e0d565b1681526101028452200154604051908152f35b5034610bcd5780600319360112610bcd57610dc7613f6d565b90604051918291602080840190808552835180925280604086019401925b828110610df457505050500390f35b83516001600160a01b031685528695509381019392810192600101610de5565b5034610bcd5780600319360112610bcd5760206001600160a01b036101075416604051908152f35b5034610bcd576020366003190112610bcd5760043567ffffffffffffffff811161072057610e6e903690600401612e23565b60ff60fb5416158015610ed0575b15610e8b57610c0a9133613968565b60405162461bcd60e51b815260206004820152601160248201527f6572726f725f6e6f74417070726f7665640000000000000000000000000000006044820152606490fd5b5033835261010360205260ff6040842054166003811015610ef357600114610e7c565b634e487b7160e01b84526021600452602484fd5b5034610bcd576040366003190112610bcd57610f21612e0d565b6040610f2b612df2565b926001600160a01b0380931681526101056020522091166000526020526020604060002054604051908152f35b5034610bcd5780600319360112610bcd57610f88610f74612fae565b604051918291602083526020830190612f1c565b0390f35b5034610bcd5760208060031936011261072057600435600260c954146111a357600260c955801561115e576001600160a01b0361010960248483835416604051928380926370a0823160e01b82523360048301525afa80156103ad578491879161112d575b50106110e857916064849286943386526101048552604086206110158582546135de565b90556110238460fc546135de565b60fc5554169160405194859384926323b872dd60e01b845233600485015230602485015260448401525af18015610b7d5783906110b3575b6001915015150361106f5750600160c95580f35b6064906040519062461bcd60e51b82526004820152601760248201527f6572726f725f756e7375636365737366756c5374616b650000000000000000006044820152fd5b508181813d83116110e1575b6110c98183612ed7565b81010312610711576110dc60019161347b565b61105b565b503d6110bf565b60405162461bcd60e51b815260048101859052601960248201527f6572726f725f696e73756666696369656e7442616c616e6365000000000000006044820152606490fd5b809250868092503d8311611157575b6111468183612ed7565b81010312610b755783905138610ff1565b503d61113c565b60405162461bcd60e51b815260048101839052601760248201527f6572726f725f696e73756666696369656e745374616b650000000000000000006044820152606490fd5b60405162461bcd60e51b815260048101839052601f60248201527f5265656e7472616e637947756172643a207265656e7472616e742063616c6c006044820152606490fd5b5034610bcd5780600319360112610bcd57602060ff60fb54166040519015158152f35b5034610bcd576020366003190112610bcd576001600160a01b0361122d612e0d565b16815261010360205260ff60408220541660405190600381101561125357602092508152f35b634e487b7160e01b83526021600452602483fd5b5034610bcd5780600319360112610bcd57602061010054604051908152f35b5034610bcd5780600319360112610bcd5760206001600160a01b0360975416604051908152f35b5034610bcd576020366003190112610bcd57610c0a6112ca612e0d565b6112d2612fe7565b613c5d565b5034610bcd576020366003190112610bcd576112f1612e0d565b6112f9612fe7565b6001600160a01b0361010b91166001600160a01b031982541617905580f35b5034610bcd576020366003190112610bcd57611332612e0d565b61133a612fe7565b6001600160a01b0361010a91166001600160a01b031982541617905580f35b5034610bcd576040366003190112610bcd5760043590611377612df2565b600260c9541461159057600260c955821561154b576001600160a01b039261010993808554169460405180966370a0823160e01b82523360048301528160246020998a935afa9081156103ad57908491879161151a575b50106114d557849186913384526101048352604084206113ef8682546135de565b90556113fd8560fc546135de565b60fc5554166064604051809481936323b872dd60e01b83523360048401523060248401528760448401525af180156114ca578490611495575b600191501515036114505790610c0a91600160c95561369e565b60405162461bcd60e51b815260048101859052601760248201527f6572726f725f756e7375636365737366756c5374616b650000000000000000006044820152606490fd5b508481813d83116114c3575b6114ab8183612ed7565b81010312610b79576114be60019161347b565b611436565b503d6114a1565b6040513d86823e3d90fd5b60405162461bcd60e51b815260048101879052601960248201527f6572726f725f696e73756666696369656e7442616c616e6365000000000000006044820152606490fd5b809250888092503d8311611544575b6115338183612ed7565b81010312610b7557839051386113ce565b503d611529565b60405162461bcd60e51b815260206004820152601760248201527f6572726f725f696e73756666696369656e745374616b650000000000000000006044820152606490fd5b60405162461bcd60e51b815260206004820152601f60248201527f5265656e7472616e637947756172643a207265656e7472616e742063616c6c006044820152606490fd5b5034610bcd5780600319360112610bcd576115ee612fe7565b60006001600160a01b036097546001600160a01b03198116609755167f8be0079c531659141344cd1fd0a4f28419497f9722a3daafe3b4186f6b6457e08280a380f35b5034610bcd576020366003190112610bcd5760406020916001600160a01b03611658612e0d565b16815261010483522054604051908152f35b5034610bcd576020366003190112610bcd578060206116f860043561168d612fe7565b6116b48160fd546116a081831115613422565b6116ac8260fc5461346e565b60fc5561346e565b60fd556001600160a01b0361010954169060405194858094819363a9059cbb60e01b83523360048401602090939291936001600160a01b0360408201951681520152565b03925af1908115610715578291611719575b506001610c0a91151514613488565b90506020813d8211611750575b8161173360209383612ed7565b81010312610720576001611749610c0a9261347b565b915061170a565b3d9150611726565b5034610bcd576020366003190112610bcd57602061177c611777612e0d565b614021565b6040519015158152f35b5034610bcd5780600319360112610bcd57602060fd54604051908152f35b5034610bcd576020366003190112610bcd576001600160a01b036117c6612e0d565b6117ce612fe7565b1680825261010360205260408220805460ff191660011790557fdfe83f699699403a4b116b6f9504680228c3f319bbf5ab26b48a81d3005d98b28280a280f35b5034610bcd5780600319360112610bcd576001600160a01b037f00000000000000000000000000000000000000000000000000000000000000001630036118795760206040517f360894a13ba1a3210667c828492db98dca3e2076cc3735a920a3ca505d382bbc8152f35b60405162461bcd60e51b815260206004820152603860248201527f555550535570677261646561626c653a206d757374206e6f742062652063616c60448201527f6c6564207468726f7567682064656c656761746563616c6c00000000000000006064820152608490fd5b506040366003190112610bcd576118f9612e0d565b90602491823567ffffffffffffffff811161071157366023820112156107115780600401359061192882612f59565b6119356040519182612ed7565b8281526020928382019236888383010111610a2557818792898793018637830101526001600160a01b03807f0000000000000000000000000000000000000000000000000000000000000000169061198f82301415613087565b6119be7f360894a13ba1a3210667c828492db98dca3e2076cc3735a920a3ca505d382bbc9282845416146130f9565b6119c6612fe7565b7f4910fdfa16fed3260ed0e7147f7cc6da11a60208b5b9406d12a635614ffd91435460ff1615611a00575050505050610c0a91925061316b565b8596949616906040516352d1902d60e01b81528781600481865afa60009181611c3e575b50611a845760405162461bcd60e51b815260048101899052602e818b01527f45524331393637557067726164653a206e657720696d706c656d656e7461746960448201526d6f6e206973206e6f74205555505360901b6064820152608490fd5b979192939496959703611be957611a9a8761316b565b604051917fbc7cd75a20ee27fd9adebab32041f755214dbc6bffa90cc0225b39da2e5c2d3b600080a2825115801590611be1575b611add575b5050505050905080f35b863b15611b91575050611b7d9394600092839251915af43d15611b89573d90611b0582612f59565b91611b136040519384612ed7565b82523d60008484013e5b7f416464726573733a206c6f772d6c6576656c2064656c65676174652063616c6c60405193611b4b85612e9f565b602785528401527f206661696c6564000000000000000000000000000000000000000000000000006040840152613219565b50803880808080611ad3565b606090611b1d565b62461bcd60e51b8252600482018590526026908201527f416464726573733a2064656c65676174652063616c6c20746f206e6f6e2d636f6044820152651b9d1c9858dd60d21b6064820152608490fd5b506001611ace565b8460296084926040519262461bcd60e51b845260048401528201527f45524331393637557067726164653a20756e737570706f727465642070726f786044820152681a58589b195555525160ba1b6064820152fd5b90918982813d8311611c66575b611c558183612ed7565b81010312610bcd5750519038611a24565b503d611c4b565b5034610bcd5780600319360112610bcd57602061010154604051908152f35b5034610bcd5780600319360112610bcd57610f88610f74612f75565b5034610bcd5780600319360112610bcd5760206001600160a01b036101065416604051908152f35b5034610bcd5760e0366003190112610bcd57611cea612e0d565b602435801515810361071157604435906001600160a01b0382168203610b79576084356001600160a01b03811681036103a95760a4359267ffffffffffffffff8411610b755736602385011215610b7557836004013593611d4a85612f41565b94611d586040519687612ed7565b80865260208601913660248360051b830101116104b8579160248301925b60248360051b8201018410612426575050505067ffffffffffffffff60c43511610b755736602360c435011215610b755767ffffffffffffffff60c4356004013511610b755736602460c4356004013560051b60c435010111610b755785549260ff8460081c161593848095612419575b8015612402575b156123975760ff19808216600117895560ff9186612386575b50611e1a60c4356004013588511461325d565b6001600160a01b03841615158061237b575b611e359061325d565b611e4d828a5460081c16611e48816133b0565b6133b0565b611e563361303f565b611e72828a5460081c16611e69816133b0565b611e48816133b0565b600160c95560fb5416911515161760fb556001600160a01b036001600160a01b03199161010982821684825416179055168160ff54161760ff5560643560fe556001600160a01b0382169061010d54161761010d5584611ed0612f75565b91611ed9612fae565b906001600160a01b0381163b1561071157611f1f836001600160a01b03611f319660405197889687958693630ef8cdc760e01b8552604060048601526044850190612f1c565b83810360031901602485015290612f1c565b0393165af180156123705761235d575b5060405130611f4f82612e9f565b602a8252604036602084013781511561210d576030602083015381516001101561210d576078602183015360295b600181116122de575061229a57611fd06020611f97612f75565b926040519381611fb08693518092868087019101612ef9565b8201611fc482518093868085019101612ef9565b01038084520182612ed7565b80519067ffffffffffffffff8211612286578190611ff061010854612e51565b601f811161222b575b50602090601f83116001146121a1578792612196575b50508160011b916000199060031b1c191617610108555b836001600160a01b0361010d5416803b1561072057816040518092632337c3c760e11b825260406004830152818381612061604482016132c0565b6003602483015203925af1801561071557612182575b505b8251811015612121576001600160a01b03612094828561339c565b51169060c4356004013581101561210d5760248160051b60c43501013560421960c435360301811215610a255760c435019167ffffffffffffffff602484013511610a2557602483013536036044840113610a255761210892610537916120f9612fe7565b60446024830135920190613968565b612079565b634e487b7160e01b86526032600452602486fd5b84828561212c612fe7565b6001600160a01b03811615610c0d576121449061303f565b61214b5780f35b61ff001981541681557f7f26b83ff96e1f2b6a682f133852f6798a09c465da95921460cefb3847402498602060405160018152a180f35b61218b90612e8b565b610b79578338612077565b01519050388061200f565b925061010887527f8543e9adbfbe1f62b7411fdf032fcfea758a7d6b332f64d971a1334c2ff364dd9087935b601f1984168510612210576001945083601f198116106121f7575b505050811b0161010855612026565b015160001960f88460031b161c191690553880806121e8565b818101518355602094850194600190930192909101906121cd565b612276906101086000527f8543e9adbfbe1f62b7411fdf032fcfea758a7d6b332f64d971a1334c2ff364dd601f850160051c8101916020861061227c575b601f0160051c01906132a9565b38611ff9565b9091508190612269565b634e487b7160e01b86526041600452602486fd5b606460405162461bcd60e51b815260206004820152602060248201527f537472696e67733a20686578206c656e67746820696e73756666696369656e746044820152fd5b906010600f8216101561234957825182101561233357807f3031323334353637383961626364656600000000000000000000000000000000600f61232e93161a6020848601015360041c91613c50565b611f7d565b634e487b7160e01b600052603260045260246000fd5b634e487b7160e01b87526032600452602487fd5b61236990949194612e8b565b9238611f41565b6040513d87823e3d90fd5b506064351515611e2c565b61ffff191661010117895538611e07565b60405162461bcd60e51b815260206004820152602e60248201527f496e697469616c697a61626c653a20636f6e747261637420697320616c72656160448201527f647920696e697469616c697a65640000000000000000000000000000000000006064820152608490fd5b50303b158015611dee5750600160ff821614611dee565b50600160ff821610611de7565b6001600160a01b038435168435036103b85760208060249386358152019401939150611d76565b5034610bcd576040366003190112610bcd57610c0a61246a612df2565b60043561378b565b5034610bcd576040366003190112610bcd576004356024803567ffffffffffffffff8111610b79576124a8903690600401612e23565b9060ff60fb5416158015612761575b1561271d57906124c79133613968565b600260c954146126d957600260c9558115612695576001600160a01b039061010991808354169260405180946370a0823160e01b8252336004830152818560209788935afa801561268a5786918891612659575b5010612615578591849133845261010483526040842061253c8882546135de565b905561254a8760fc546135de565b60fc5554166064604051809481936323b872dd60e01b835233600484015230888401528960448401525af180156123705785906125e0575b6001915015150361259d57600160c95583610c0a338561369e565b9060176064926040519262461bcd60e51b845260048401528201527f6572726f725f756e7375636365737366756c5374616b650000000000000000006044820152fd5b508281813d831161260e575b6125f68183612ed7565b810103126103a95761260960019161347b565b612582565b503d6125ec565b60405162461bcd60e51b8152600481018590526019818501527f6572726f725f696e73756666696369656e7442616c616e6365000000000000006044820152606490fd5b809250868092503d8311612683575b6126728183612ed7565b81010312610a25578590513861251b565b503d612668565b6040513d89823e3d90fd5b60649060176040519162461bcd60e51b8352602060048401528201527f6572726f725f696e73756666696369656e745374616b650000000000000000006044820152fd5b606490601f6040519162461bcd60e51b8352602060048401528201527f5265656e7472616e637947756172643a207265656e7472616e742063616c6c006044820152fd5b60405162461bcd60e51b8152602060048201526011818501527f6572726f725f6e6f74417070726f7665640000000000000000000000000000006044820152606490fd5b5033855261010360205260ff6040862054166003811015612784576001146124b7565b634e487b7160e01b865260216004528386fd5b5034610bcd57602080600319360112610720576127b2612e0d565b906001600160a01b03807f0000000000000000000000000000000000000000000000000000000000000000166127ea81301415613087565b6128197f360894a13ba1a3210667c828492db98dca3e2076cc3735a920a3ca505d382bbc9183835416146130f9565b612821612fe7565b604051908382019282841067ffffffffffffffff851117612aa6578360405286835260ff7f4910fdfa16fed3260ed0e7147f7cc6da11a60208b5b9406d12a635614ffd9143541660001461287d575050505050610c0a9061316b565b8596949516906040516352d1902d60e01b81528681600481865afa869181612a77575b506129015760405162461bcd60e51b815260048101889052602e60248201527f45524331393637557067726164653a206e657720696d706c656d656e7461746960448201526d6f6e206973206e6f74205555505360901b6064820152608490fd5b95949503612a20576129128661316b565b604051907fbc7cd75a20ee27fd9adebab32041f755214dbc6bffa90cc0225b39da2e5c2d3b8680a2815115801590612a19575b612953575b50505050905080f35b853b156129c8575092809481926129bd9551915af43d15611b89573d9061297982612f59565b916129876040519384612ed7565b82523d858484013e7f416464726573733a206c6f772d6c6576656c2064656c65676174652063616c6c60405193611b4b85612e9f565b50803880808061294a565b62461bcd60e51b815260048101849052602660248201527f416464726573733a2064656c65676174652063616c6c20746f206e6f6e2d636f6044820152651b9d1c9858dd60d21b6064820152608490fd5b5084612945565b60405162461bcd60e51b815260048101859052602960248201527f45524331393637557067726164653a20756e737570706f727465642070726f786044820152681a58589b195555525160ba1b6064820152608490fd5b9091508781813d8311612a9f575b612a8f8183612ed7565b81010312610a25575190386128a0565b503d612a85565b634e487b7160e01b87526041600452602487fd5b5034610bcd576020366003190112610bcd57610c0a60043561386f565b5034610bcd576020366003190112610bcd576001600160a01b03612af9612e0d565b612b01612fe7565b1680825261010360205260408220805460ff191660021790557fbbe2a784aa6240d8175fa65a8459058efd8f44c5ab66caa2525fe9d6342108788280a280f35b5034610bcd576020366003190112610bcd5760043580151580910361072057612b68612fe7565b60ff1960fb541660ff82161760fb557f7623db9c426686f05cec977c4cadb8ff9657502540ca665ae347731114dac69d8280a280f35b5034610bcd576020366003190112610bcd57610c0a612bbb612e0d565b612bc3612fe7565b612bcb612fe7565b6001600160a01b03811680845261010360205260408420805460ff191660021790557fbbe2a784aa6240d8175fa65a8459058efd8f44c5ab66caa2525fe9d6342108788480a26112d2612fe7565b5034610bcd5760209081600319360112610bcd576001600160a01b0380612c3e612e0d565b168252610102835260408220918254928460018083019360405194859282825492612c6884612e51565b80875293838116908115612d195750600114612cdc575b50505050612c8f92500383612ed7565b600281015492612cc3600582600385015416926004850154169301549360c0604051988998895288015260c0870190612f1c565b9360408601526060850152608084015260a08301520390f35b815285812095935091905b818310612d01575089945050820101612c8f388080612c7f565b85548884018501529485019487945091830191612ce7565b9350505050612c8f94925060ff191682840152151560051b8201018792388080612c7f565b5034610bcd5780600319360112610bcd57602060fc54604051908152f35b5034610bcd576040366003190112610bcd57612d76612e0d565b6024359067ffffffffffffffff821161071157612d9a610c0a923690600401612e23565b91612da3612fe7565b613968565b5034610bcd576040366003190112610bcd57610c0a612dc5612df2565b60043561369e565b9050346107205781600319360112610720576020906001600160a01b0360ff54168152f35b602435906001600160a01b0382168203612e0857565b600080fd5b600435906001600160a01b0382168203612e0857565b9181601f84011215612e085782359167ffffffffffffffff8311612e085760208381860195010111612e0857565b90600182811c92168015612e81575b6020831014612e6b57565b634e487b7160e01b600052602260045260246000fd5b91607f1691612e60565b67ffffffffffffffff8111610b5f57604052565b6060810190811067ffffffffffffffff821117610b5f57604052565b6040810190811067ffffffffffffffff821117610b5f57604052565b90601f8019910116810190811067ffffffffffffffff821117610b5f57604052565b60005b838110612f0c5750506000910152565b8181015183820152602001612efc565b90602091612f3581518092818552858086019101612ef9565b601f01601f1916010190565b67ffffffffffffffff8111610b5f5760051b60200190565b67ffffffffffffffff8111610b5f57601f01601f191660200190565b60405190612f8282612ebb565b600782527f2f73797374656d000000000000000000000000000000000000000000000000006020830152565b60405190612fbb82612ebb565b601382527f7b2022706172746974696f6e73223a2031207d000000000000000000000000006020830152565b6001600160a01b03609754163303612ffb57565b606460405162461bcd60e51b815260206004820152602060248201527f4f776e61626c653a2063616c6c6572206973206e6f7420746865206f776e65726044820152fd5b609754906001600160a01b0380911691826001600160a01b0319821617609755167f8be0079c531659141344cd1fd0a4f28419497f9722a3daafe3b4186f6b6457e0600080a3565b1561308e57565b60405162461bcd60e51b815260206004820152602c60248201527f46756e6374696f6e206d7573742062652063616c6c6564207468726f7567682060448201527f64656c656761746563616c6c00000000000000000000000000000000000000006064820152608490fd5b1561310057565b60405162461bcd60e51b815260206004820152602c60248201527f46756e6374696f6e206d7573742062652063616c6c6564207468726f7567682060448201527f6163746976652070726f787900000000000000000000000000000000000000006064820152608490fd5b803b156131ae576001600160a01b037f360894a13ba1a3210667c828492db98dca3e2076cc3735a920a3ca505d382bbc91166001600160a01b0319825416179055565b60405162461bcd60e51b815260206004820152602d60248201527f455243313936373a206e657720696d706c656d656e746174696f6e206973206e60448201527f6f74206120636f6e7472616374000000000000000000000000000000000000006064820152608490fd5b90919015613225575090565b8151156132355750805190602001fd5b60405162461bcd60e51b815260206004820152908190613259906024830190612f1c565b0390fd5b1561326457565b60405162461bcd60e51b815260206004820152601460248201527f6572726f725f626164547261636b6572446174610000000000000000000000006044820152606490fd5b8181106132b4575050565b600081556001016132a9565b906000916101089081546132d381612e51565b8083529260019180831690811561335257506001146132f3575b50505050565b90929394506000527f8543e9adbfbe1f62b7411fdf032fcfea758a7d6b332f64d971a1334c2ff364dd916000925b84841061333a57505060209250010190388080806132ed565b80546020858501810191909152909301928101613321565b92505050602093945060ff929192191683830152151560051b010190388080806132ed565b60001981146133865760010190565b634e487b7160e01b600052601160045260246000fd5b80518210156123335760209160051b010190565b156133b757565b60405162461bcd60e51b815260206004820152602b60248201527f496e697469616c697a61626c653a20636f6e7472616374206973206e6f74206960448201527f6e697469616c697a696e670000000000000000000000000000000000000000006064820152608490fd5b1561342957565b60405162461bcd60e51b815260206004820152601460248201527f6572726f725f6e6f74456e6f7567685374616b650000000000000000000000006044820152606490fd5b9190820391821161338657565b51908115158203612e0857565b1561348f57565b60405162461bcd60e51b815260206004820152601a60248201527f6572726f725f756e7375636365737366756c57697468647261770000000000006044820152606490fd5b81601f82011215612e085780516134ea81612f59565b926134f86040519485612ed7565b81845260208284010111612e08576135169160208085019101612ef9565b90565b51906001600160a01b0382168203612e0857565b81601f82011215612e085780519061354482612f41565b9260409261355484519586612ed7565b808552602091828087019260061b85010193818511612e08578301915b8483106135815750505050505090565b8583830312612e0857838691825161359881612ebb565b6135a186613519565b81528286015183820152815201920191613571565b90918060409360208452816020850152848401376000828201840152601f01601f1916010190565b9190820180921161338657565b9190916000838201938412911290801582169115161761338657565b1561360e57565b606460405162461bcd60e51b815260206004820152602060248201527f6572726f725f696e73756666696369656e7444656c6567617465416d6f756e746044820152fd5b1561365957565b60405162461bcd60e51b815260206004820152601160248201527f6572726f725f696e76616c69644e6f64650000000000000000000000000000006044820152606490fd5b6136a9811515613607565b6001600160a01b0382169160008381526101029160209280845260409283916136d9600284842001541515613652565b33825261010486528282206136ef88825461346e565b9055338252613734610105948588528484208a855288528484206137148a82546135de565b905589845282885260058585200161372d8a82546135de565b9055613ea5565b87825285526005828220015492338252855281812087825285522054928251948552840152820152600160608201527f4c2cbb7d33d36a22e34970133436a2156c82cefc2dadfd9537fcfc177b40f03560803392a3565b613796811515613607565b6001600160a01b038216916000908382526101026020918183526040916137c4600284872001541515613652565b3385526138186101059283865284872089885286528487206137e789825461346e565b905588875282865260058588200161380089825461346e565b9055338752610104865284872061372d8982546135de565b86855283526005828520015490338552835281842086855283528184205492825195865285015283015260608201527f4c2cbb7d33d36a22e34970133436a2156c82cefc2dadfd9537fcfc177b40f03560803392a3565b6000338152806101046138f960209482869384526138936040862054831115613422565b3385528352604084206138a782825461346e565b90556138b58160fc5461346e565b60fc556001600160a01b0361010954169060405195868094819363a9059cbb60e01b83523360048401602090939291936001600160a01b0360408201951681520152565b03925af192831561395b57819361391e575b505050600161391c91151514613488565b565b9091809350813d8311613954575b6139368183612ed7565b81010312610bcd5750600161394d61391c9261347b565b913861390b565b503d61392c565b50604051903d90823e3d90fd5b9190916001600160a01b03809116916000938385526020906101028252604086209386936002860191825415613ba8575b5060018096019267ffffffffffffffff8211613b945781906139bb8554612e51565b601f8111613b66575b508990601f8311600114613b07578a92613afc575b5050600019600383901b1c191690861b1782555b429055604051936040855286825492613a0584612e51565b938460408901528381169081600014613ab15750600114613a57575b505050509180917f5efa14ec2c459017dc330f0b3e8f2f26bee624ba1c66a50805faf6bf28bfb0b59342908301521515940390a3565b908094985052868084205b838510613a9c5750505050820160600193817f5efa14ec2c459017dc330f0b3e8f2f26bee624ba1c66a50805faf6bf28bfb0b58438613a21565b80548786016060015293019287908201613a62565b60ff19166060808a019190915294151560051b880190940198508593507f5efa14ec2c459017dc330f0b3e8f2f26bee624ba1c66a50805faf6bf28bfb0b59250869150389050613a21565b0135905038806139d9565b858b52868b2089945091601f1984168c5b89828210613b505750508411613b36575b505050811b0182556139ed565b0135600019600384901b60f8161c19169055388080613b29565b8385013586558c97909501949283019201613b18565b613b8e90868c52878c20601f850160051c81019189861061227c57601f0160051c01906132a9565b386139c4565b634e487b7160e01b89526041600452602489fd5b9450600194610106908082541615600014613c125750876001600160a01b031982541617905543610101555b610107876001600160a01b0319825416179055610100805490868201809211613bfe575538613999565b634e487b7160e01b8a52601160045260248afd5b905061010790808254168a52600360408b2001916001600160a01b0319928a8482541617905554166004880191825416179055610100548655613bd4565b8015613386576000190190565b906001600160a01b03809216600092818452610102602090808252604080872091600283015415613e615790829160048996959401938585541680613e38575b5060038094018681541680613e12575b506101069586548a89821614613dfa575b5061010790815490898c81841614613de0575b5050505088885282825287600585822082815560019d8e80830190613cf68254612e51565b80613da3575b5050506002820155828882015582600482015501556101008054906000198201918211613bfe57555486168a5b613d6e575b50505050507fcfc24166db4bb677e857cacabd1541fb2b30645021b27c5130419589b84db52b93949550541615613d64575b80a2565b8061010155613d60565b86168015613d9e57808852828252838820613d898154613c50565b9055875281815285848489200154168a613d29565b613d2e565b601f8111600114613dbb575050555b82388f81613cfc565b613dd491838552601f8a86209201871c820191016132a9565b81878120915555613db2565b6001600160a01b0319915416911617905538808089613cd1565b6001600160a01b031989845416911617875538613cbe565b878754169089528383526004858a2001906001600160a01b031982541617905538613cad565b86600386015416908852828252600384892001906001600160a01b031982541617905538613c9d565b815162461bcd60e51b815260048101859052600e60248201527f6572726f725f6e6f74466f756e640000000000000000000000000000000000006044820152606490fd5b6001600160a01b039081166000818152610102602052604081206005015460fe5491939111613f385761010d5416803b1561071157829182916040518095818094634cbf455560e11b825260606004830152613f03606483016132c0565b9060248301526002604483015203925af1908115613f2c5750613f235750565b61391c90612e8b565b604051903d90823e3d90fd5b61010d5416803b1561071157829182916040518095818094631f1cbd7560e11b825260606004830152613f03606483016132c0565b61010054613f7a81612f41565b90604090613f8a82519384612ed7565b808352613f99601f1991612f41565b016020903682850137610106546001600160a01b03908116848115614018575091600060019384805b613fd1575b5050505050505090565b1561400b575b60009084613fe5848a61339c565b91168091528152610102835261400384600388842001541692613377565b919085613fc2565b838116613fd75780613fc7565b94505050505090565b60fe54801515918261403257505090565b6001600160a01b039192501660005261010260205260056040600020015410159056fea2646970667358221220f43f5bbba4a9aa03b3759766f51581198b2f8ebebcf499b71b0f7841f5c398f364736f6c63430008110033",
  "linkReferences": {},
  "deployedLinkReferences": {}
}