{
  "_format": "hh-sol-artifact-1",
  "contractName": "LogStoreNodeManager",
  "sourceName": "src/NodeManager.sol",
  "abi": [
    {
      "anonymous": false,
      "inputs": [
        {
          "indexed": false,
          "internalType": "address",
          "name": "previousAdmin",
          "type": "address"
        },
        {
          "indexed": false,
          "internalType": "address",
          "name": "newAdmin",
          "type": "address"
        }
      ],
      "name": "AdminChanged",
      "type": "event"
    },
    {
      "anonymous": false,
      "inputs": [
        {
          "indexed": true,
          "internalType": "address",
          "name": "beacon",
          "type": "address"
        }
      ],
      "name": "BeaconUpgraded",
      "type": "event"
    },
    {
      "anonymous": false,
      "inputs": [
        {
          "indexed": false,
          "internalType": "uint8",
          "name": "version",
          "type": "uint8"
        }
      ],
      "name": "Initialized",
      "type": "event"
    },
    {
      "anonymous": false,
      "inputs": [
        {
          "indexed": true,
          "internalType": "address",
          "name": "nodeAddress",
          "type": "address"
        }
      ],
      "name": "NodeRemoved",
      "type": "event"
    },
    {
      "anonymous": false,
      "inputs": [
        {
          "indexed": true,
          "internalType": "address",
          "name": "nodeAddress",
          "type": "address"
        },
        {
          "indexed": false,
          "internalType": "string",
          "name": "metadata",
          "type": "string"
        },
        {
          "indexed": true,
          "internalType": "bool",
          "name": "isNew",
          "type": "bool"
        },
        {
          "indexed": false,
          "internalType": "uint256",
          "name": "lastSeen",
          "type": "uint256"
        }
      ],
      "name": "NodeUpdated",
      "type": "event"
    },
    {
      "anonymous": false,
      "inputs": [
        {
          "indexed": true,
          "internalType": "address",
          "name": "nodeAddress",
          "type": "address"
        }
      ],
      "name": "NodeWhitelistApproved",
      "type": "event"
    },
    {
      "anonymous": false,
      "inputs": [
        {
          "indexed": true,
          "internalType": "address",
          "name": "nodeAddress",
          "type": "address"
        }
      ],
      "name": "NodeWhitelistRejected",
      "type": "event"
    },
    {
      "anonymous": false,
      "inputs": [
        {
          "indexed": true,
          "internalType": "address",
          "name": "previousOwner",
          "type": "address"
        },
        {
          "indexed": true,
          "internalType": "address",
          "name": "newOwner",
          "type": "address"
        }
      ],
      "name": "OwnershipTransferred",
      "type": "event"
    },
    {
      "anonymous": false,
      "inputs": [
        {
          "indexed": false,
          "internalType": "string",
          "name": "id",
          "type": "string"
        }
      ],
      "name": "ReportProcessed",
      "type": "event"
    },
    {
      "anonymous": false,
      "inputs": [
        {
          "indexed": true,
          "internalType": "bool",
          "name": "value",
          "type": "bool"
        }
      ],
      "name": "RequiresWhitelistChanged",
      "type": "event"
    },
    {
      "anonymous": false,
      "inputs": [
        {
          "indexed": true,
          "internalType": "address",
          "name": "delegate",
          "type": "address"
        },
        {
          "indexed": true,
          "internalType": "address",
          "name": "node",
          "type": "address"
        },
        {
          "indexed": false,
          "internalType": "uint256",
          "name": "amount",
          "type": "uint256"
        },
        {
          "indexed": false,
          "internalType": "uint256",
          "name": "totalStake",
          "type": "uint256"
        },
        {
          "indexed": false,
          "internalType": "uint256",
          "name": "totalDelegated",
          "type": "uint256"
        },
        {
          "indexed": false,
          "internalType": "bool",
          "name": "delegated",
          "type": "bool"
        }
      ],
      "name": "StakeDelegateUpdated",
      "type": "event"
    },
    {
      "anonymous": false,
      "inputs": [
        {
          "indexed": true,
          "internalType": "address",
          "name": "implementation",
          "type": "address"
        }
      ],
      "name": "Upgraded",
      "type": "event"
    },
    {
      "inputs": [],
      "name": "LOGSTORE_HEARTBEAT_STREAM_ID_PATH",
      "outputs": [
        {
          "internalType": "string",
          "name": "",
          "type": "string"
        }
      ],
      "stateMutability": "view",
      "type": "function"
    },
    {
      "inputs": [],
      "name": "LOGSTORE_HEARTBEAT_STREAM_METADATA_JSON_STRING",
      "outputs": [
        {
          "internalType": "string",
          "name": "",
          "type": "string"
        }
      ],
      "stateMutability": "view",
      "type": "function"
    },
    {
      "inputs": [],
      "name": "LOGSTORE_RECOVERY_STREAM_ID_PATH",
      "outputs": [
        {
          "internalType": "string",
          "name": "",
          "type": "string"
        }
      ],
      "stateMutability": "view",
      "type": "function"
    },
    {
      "inputs": [],
      "name": "LOGSTORE_RECOVERY_STREAM_METADATA_JSON_STRING",
      "outputs": [
        {
          "internalType": "string",
          "name": "",
          "type": "string"
        }
      ],
      "stateMutability": "view",
      "type": "function"
    },
    {
      "inputs": [],
      "name": "LOGSTORE_ROLLCALL_STREAM_ID_PATH",
      "outputs": [
        {
          "internalType": "string",
          "name": "",
          "type": "string"
        }
      ],
      "stateMutability": "view",
      "type": "function"
    },
    {
      "inputs": [],
      "name": "LOGSTORE_ROLLCALL_STREAM_METADATA_JSON_STRING",
      "outputs": [
        {
          "internalType": "string",
          "name": "",
          "type": "string"
        }
      ],
      "stateMutability": "view",
      "type": "function"
    },
    {
      "inputs": [],
      "name": "LOGSTORE_SYSTEM_STREAM_ID_PATH",
      "outputs": [
        {
          "internalType": "string",
          "name": "",
          "type": "string"
        }
      ],
      "stateMutability": "view",
      "type": "function"
    },
    {
      "inputs": [],
      "name": "LOGSTORE_SYSTEM_STREAM_METADATA_JSON_STRING",
      "outputs": [
        {
          "internalType": "string",
          "name": "",
          "type": "string"
        }
      ],
      "stateMutability": "view",
      "type": "function"
    },
    {
      "inputs": [
        {
          "internalType": "address",
          "name": "",
          "type": "address"
        }
      ],
      "name": "balanceOf",
      "outputs": [
        {
          "internalType": "uint256",
          "name": "",
          "type": "uint256"
        }
      ],
      "stateMutability": "view",
      "type": "function"
    },
    {
      "inputs": [
        {
          "internalType": "uint256",
          "name": "amount",
          "type": "uint256"
        },
        {
          "internalType": "address",
          "name": "node",
          "type": "address"
        }
      ],
      "name": "delegate",
      "outputs": [],
      "stateMutability": "nonpayable",
      "type": "function"
    },
    {
      "inputs": [
        {
          "internalType": "address",
          "name": "",
          "type": "address"
        },
        {
          "internalType": "address",
          "name": "",
          "type": "address"
        }
      ],
      "name": "delegatesOf",
      "outputs": [
        {
          "internalType": "uint256",
          "name": "",
          "type": "uint256"
        }
      ],
      "stateMutability": "view",
      "type": "function"
    },
    {
      "inputs": [],
      "name": "headNode",
      "outputs": [
        {
          "internalType": "address",
          "name": "",
          "type": "address"
        }
      ],
      "stateMutability": "view",
      "type": "function"
    },
    {
      "inputs": [
        {
          "internalType": "address",
          "name": "owner_",
          "type": "address"
        },
        {
          "internalType": "bool",
          "name": "requiresWhitelist_",
          "type": "bool"
        },
        {
          "internalType": "address",
          "name": "stakeTokenAddress_",
          "type": "address"
        },
        {
          "internalType": "uint256",
          "name": "stakeRequiredAmount_",
          "type": "uint256"
        },
        {
          "internalType": "address",
          "name": "streamrRegistryAddress_",
          "type": "address"
        },
        {
          "internalType": "address[]",
          "name": "initialNodes",
          "type": "address[]"
        },
        {
          "internalType": "string[]",
          "name": "initialMetadata",
          "type": "string[]"
        }
      ],
      "name": "initialize",
      "outputs": [],
      "stateMutability": "nonpayable",
      "type": "function"
    },
    {
      "inputs": [
        {
          "internalType": "address",
          "name": "node",
          "type": "address"
        }
      ],
      "name": "isStaked",
      "outputs": [
        {
          "internalType": "bool",
          "name": "",
          "type": "bool"
        }
      ],
      "stateMutability": "view",
      "type": "function"
    },
    {
      "inputs": [
        {
          "internalType": "uint256",
          "name": "amount",
          "type": "uint256"
        },
        {
          "internalType": "string",
          "name": "metadata_",
          "type": "string"
        }
      ],
      "name": "join",
      "outputs": [],
      "stateMutability": "nonpayable",
      "type": "function"
    },
    {
      "inputs": [
        {
          "internalType": "address",
          "name": "nodeAddress",
          "type": "address"
        }
      ],
      "name": "kickNode",
      "outputs": [],
      "stateMutability": "nonpayable",
      "type": "function"
    },
    {
      "inputs": [],
      "name": "leave",
      "outputs": [],
      "stateMutability": "nonpayable",
      "type": "function"
    },
    {
      "inputs": [],
      "name": "nodeAddresses",
      "outputs": [
        {
          "internalType": "address[]",
          "name": "resultAddresses",
          "type": "address[]"
        }
      ],
      "stateMutability": "view",
      "type": "function"
    },
    {
      "inputs": [
        {
          "internalType": "address",
          "name": "node",
          "type": "address"
        }
      ],
      "name": "nodeStake",
      "outputs": [
        {
          "internalType": "uint256",
          "name": "",
          "type": "uint256"
        }
      ],
      "stateMutability": "view",
      "type": "function"
    },
    {
      "inputs": [
        {
          "internalType": "address",
          "name": "",
          "type": "address"
        }
      ],
      "name": "nodes",
      "outputs": [
        {
          "internalType": "uint256",
          "name": "index",
          "type": "uint256"
        },
        {
          "internalType": "string",
          "name": "metadata",
          "type": "string"
        },
        {
          "internalType": "uint256",
          "name": "lastSeen",
          "type": "uint256"
        },
        {
          "internalType": "address",
          "name": "next",
          "type": "address"
        },
        {
          "internalType": "address",
          "name": "prev",
          "type": "address"
        },
        {
          "internalType": "uint256",
          "name": "stake",
          "type": "uint256"
        }
      ],
      "stateMutability": "view",
      "type": "function"
    },
    {
      "inputs": [],
      "name": "owner",
      "outputs": [
        {
          "internalType": "address",
          "name": "",
          "type": "address"
        }
      ],
      "stateMutability": "view",
      "type": "function"
    },
    {
      "inputs": [
        {
          "internalType": "string",
          "name": "id",
          "type": "string"
        }
      ],
      "name": "processReport",
      "outputs": [],
      "stateMutability": "nonpayable",
      "type": "function"
    },
    {
      "inputs": [],
      "name": "proxiableUUID",
      "outputs": [
        {
          "internalType": "bytes32",
          "name": "",
          "type": "bytes32"
        }
      ],
      "stateMutability": "view",
      "type": "function"
    },
    {
      "inputs": [
        {
          "internalType": "address",
          "name": "contractAddress",
          "type": "address"
        }
      ],
      "name": "registerQueryManager",
      "outputs": [],
      "stateMutability": "nonpayable",
      "type": "function"
    },
    {
      "inputs": [
        {
          "internalType": "address",
          "name": "contractAddress",
          "type": "address"
        }
      ],
      "name": "registerReportManager",
      "outputs": [],
      "stateMutability": "nonpayable",
      "type": "function"
    },
    {
      "inputs": [
        {
          "internalType": "address",
          "name": "contractAddress",
          "type": "address"
        }
      ],
      "name": "registerStoreManager",
      "outputs": [],
      "stateMutability": "nonpayable",
      "type": "function"
    },
    {
      "inputs": [],
      "name": "removeNode",
      "outputs": [],
      "stateMutability": "nonpayable",
      "type": "function"
    },
    {
      "inputs": [
        {
          "internalType": "address",
          "name": "nodeAddress",
          "type": "address"
        }
      ],
      "name": "removeNodeAdmin",
      "outputs": [],
      "stateMutability": "nonpayable",
      "type": "function"
    },
    {
      "inputs": [],
      "name": "renounceOwnership",
      "outputs": [],
      "stateMutability": "nonpayable",
      "type": "function"
    },
    {
      "inputs": [],
      "name": "requiresWhitelist",
      "outputs": [
        {
          "internalType": "bool",
          "name": "",
          "type": "bool"
        }
      ],
      "stateMutability": "view",
      "type": "function"
    },
    {
      "inputs": [
        {
          "internalType": "bool",
          "name": "value",
          "type": "bool"
        }
      ],
      "name": "setRequiresWhitelist",
      "outputs": [],
      "stateMutability": "nonpayable",
      "type": "function"
    },
    {
      "inputs": [
        {
          "internalType": "uint256",
          "name": "amount",
          "type": "uint256"
        }
      ],
      "name": "stake",
      "outputs": [],
      "stateMutability": "nonpayable",
      "type": "function"
    },
    {
      "inputs": [
        {
          "internalType": "uint256",
          "name": "amount",
          "type": "uint256"
        },
        {
          "internalType": "address",
          "name": "node",
          "type": "address"
        }
      ],
      "name": "stakeAndDelegate",
      "outputs": [],
      "stateMutability": "nonpayable",
      "type": "function"
    },
    {
      "inputs": [],
      "name": "stakeRequiredAmount",
      "outputs": [
        {
          "internalType": "uint256",
          "name": "",
          "type": "uint256"
        }
      ],
      "stateMutability": "view",
      "type": "function"
    },
    {
      "inputs": [],
      "name": "stakeTokenAddress",
      "outputs": [
        {
          "internalType": "address",
          "name": "",
          "type": "address"
        }
      ],
      "stateMutability": "view",
      "type": "function"
    },
    {
      "inputs": [],
      "name": "startBlockNumber",
      "outputs": [
        {
          "internalType": "uint256",
          "name": "",
          "type": "uint256"
        }
      ],
      "stateMutability": "view",
      "type": "function"
    },
    {
      "inputs": [],
      "name": "tailNode",
      "outputs": [
        {
          "internalType": "address",
          "name": "",
          "type": "address"
        }
      ],
      "stateMutability": "view",
      "type": "function"
    },
    {
      "inputs": [],
      "name": "totalNodes",
      "outputs": [
        {
          "internalType": "uint256",
          "name": "",
          "type": "uint256"
        }
      ],
      "stateMutability": "view",
      "type": "function"
    },
    {
      "inputs": [],
      "name": "totalSupply",
      "outputs": [
        {
          "internalType": "uint256",
          "name": "",
          "type": "uint256"
        }
      ],
      "stateMutability": "view",
      "type": "function"
    },
    {
      "inputs": [
        {
          "internalType": "address",
          "name": "newOwner",
          "type": "address"
        }
      ],
      "name": "transferOwnership",
      "outputs": [],
      "stateMutability": "nonpayable",
      "type": "function"
    },
    {
      "inputs": [],
      "name": "treasurySupply",
      "outputs": [
        {
          "internalType": "uint256",
          "name": "",
          "type": "uint256"
        }
      ],
      "stateMutability": "view",
      "type": "function"
    },
    {
      "inputs": [
        {
          "internalType": "uint256",
          "name": "amount",
          "type": "uint256"
        }
      ],
      "name": "treasuryWithdraw",
      "outputs": [],
      "stateMutability": "nonpayable",
      "type": "function"
    },
    {
      "inputs": [
        {
          "internalType": "uint256",
          "name": "amount",
          "type": "uint256"
        },
        {
          "internalType": "address",
          "name": "node",
          "type": "address"
        }
      ],
      "name": "undelegate",
      "outputs": [],
      "stateMutability": "nonpayable",
      "type": "function"
    },
    {
      "inputs": [
        {
          "internalType": "uint256",
          "name": "amount",
          "type": "uint256"
        },
        {
          "internalType": "address",
          "name": "node",
          "type": "address"
        }
      ],
      "name": "undelegateWithdraw",
      "outputs": [],
      "stateMutability": "nonpayable",
      "type": "function"
    },
    {
      "inputs": [
        {
          "internalType": "address",
          "name": "newImplementation",
          "type": "address"
        }
      ],
      "name": "upgradeTo",
      "outputs": [],
      "stateMutability": "nonpayable",
      "type": "function"
    },
    {
      "inputs": [
        {
          "internalType": "address",
          "name": "newImplementation",
          "type": "address"
        },
        {
          "internalType": "bytes",
          "name": "data",
          "type": "bytes"
        }
      ],
      "name": "upgradeToAndCall",
      "outputs": [],
      "stateMutability": "payable",
      "type": "function"
    },
    {
      "inputs": [
        {
          "internalType": "string",
          "name": "metadata_",
          "type": "string"
        }
      ],
      "name": "upsertNode",
      "outputs": [],
      "stateMutability": "nonpayable",
      "type": "function"
    },
    {
      "inputs": [
        {
          "internalType": "address",
          "name": "node",
          "type": "address"
        },
        {
          "internalType": "string",
          "name": "metadata_",
          "type": "string"
        }
      ],
      "name": "upsertNodeAdmin",
      "outputs": [],
      "stateMutability": "nonpayable",
      "type": "function"
    },
    {
      "inputs": [
        {
          "internalType": "address",
          "name": "",
          "type": "address"
        }
      ],
      "name": "whitelist",
      "outputs": [
        {
          "internalType": "enum LogStoreNodeManager.WhitelistState",
          "name": "",
          "type": "uint8"
        }
      ],
      "stateMutability": "view",
      "type": "function"
    },
    {
      "inputs": [
        {
          "internalType": "address",
          "name": "nodeAddress",
          "type": "address"
        }
      ],
      "name": "whitelistApproveNode",
      "outputs": [],
      "stateMutability": "nonpayable",
      "type": "function"
    },
    {
      "inputs": [
        {
          "internalType": "address",
          "name": "nodeAddress",
          "type": "address"
        }
      ],
      "name": "whitelistRejectNode",
      "outputs": [],
      "stateMutability": "nonpayable",
      "type": "function"
    },
    {
      "inputs": [
        {
          "internalType": "uint256",
          "name": "amount",
          "type": "uint256"
        }
      ],
      "name": "withdraw",
      "outputs": [],
      "stateMutability": "nonpayable",
      "type": "function"
    }
  ],
  "bytecode": "0x60a080604052346100315730608052614b2690816100378239608051818181611876015281816119af0152612d580152f35b600080fdfe6080806040526004361015610014575b600080fd5b600090813560e01c9081630106395f146133185750806308bbb824146132f35780631204c486146132a757806315b0e0cb1461328b57806318160ddd1461326d578063189a5a17146131cf5780631ad603d0146131545780631e332da81461313857806320a59a03146130db5780632af57580146130715780632e1a7d4d146130545780633659cfe614612d315780633cfb3d8a14612a0c57806345e863e0146129e75780634632974314611d1d57806346c198f614611cf55780634830563414611cd9578063498a4c2d14611cba5780634f1ef2861461193157806352d1902d1461185b57806354ea9da2146118275780635888799c146117bd5780635fc1a4b81461179f5780635ff65b1014610db55780636177fd1814611771578063652671391461168357806370a082311461164a578063715018a6146115ee578063735e6c7a1461137257806375ed25dc1461133157806379e574cb146112f05780638b4dcc4414610db55780638ce15586146112c65780638da5cb5b1461129f5780639592d424146112805780639b19251a14611224578063a5ee5b4114611201578063a694fc3a14610fa5578063a7cc540514610db5578063abad29a814610f54578063b2a52fef14610e89578063bfdf086614610e61578063c10b522214610dfb578063cd23d26814610dbf578063ceae878514610db5578063d0d3f5ba14610d9b578063d5c7096614610d7d578063d66d9e1914610d2a578063e7b5895314610cfc578063e8d88aba14610cbb578063f2fde38b14610c135763f6883c051461025e57600080fd5b34610c10576020366003190112610c105760043567ffffffffffffffff81116107635761028f903690600401613369565b91610299336149b8565b15610bcb5761010f6001600160a01b038154168260405180926312e63d7160e01b825281806102cc8a8a60048401613e47565b03915afa908115610bc05783916107b6575b5061010081015161077157825b606080830190815180518410156103ff5761030884604092613c1a565b510151610320575b505061031b90613bf5565b6102eb565b6001600160a01b0361010d5416610338848451613c1a565b51516020610347868651613c1a565b510151926040610358878751613c1a565b51015193833b156103fb57918980949261038f9460405197889687958694639ac0e98b60e01b86526004860152606485019061347d565b916024840152604483015203925af180156103f0579086916103d8575b50509060206103bf8261031b9451613c1a565b5101516103cf60fc918254613e6f565b90559038610310565b6103e190613397565b6103ec5784386103ac565b8480fd5b6040513d88823e3d90fd5b8980fd5b8786888b88825b60c08201805180518310156104ff5761042183604092613c1a565b510151610438575b5061043390613bf5565b610406565b6001600160a01b0361010e54166001600160a01b03610458848451613c1a565b5151166020610468858551613c1a565b510151906040610479868651613c1a565b51015192803b156104fb57889291836064926040519687958694631ee2efa360e31b86526004860152602485015260448401525af180156103f0579086916104e7575b50509060206104cf826104339451613c1a565b5101516104df60fc918254613e6f565b905590610429565b6104f090613397565b6103ec5784886104bc565b8880fd5b5050509390825b6080860180518051831015610597578291602061053f846001600160a01b0361053561057f9861057a97613c1a565b5151169351613c1a565b510151818852610102908160205261055f6005918260408c200154613e7c565b918980841315610584578490526020526040892001556146af565b613bf5565b610506565b92508383526020526040822001556146af565b8580898988885b60a0840192835180518810156106a3576105c0886001600160a01b0392613c1a565b51511694865b60206105d38a8851613c1a565b5101515181101561068b578089602061061983826106066001600160a01b0361060e610666998f6106068a879251613c1a565b510151613c1a565b515116958d51613c1a565b51015190898b52610641610105928360205260408d2083600052602052604060002054613e7c565b918b83131561066b578a8c5260205260408b2090600052602052604060002055613bf5565b6105c6565b909150898b5260205260408a209060005260205288604060002055613bf5565b50935093509461069a90613bf5565b9492919261059e565b868484826001600160a01b03866106c28c604060fd5491015190613e7c565b838113156107675760fd555b5416803b156107635781604051809263f6883c0560e01b82528183816106f8898b60048401613e47565b03925af1801561075857610740575b50507fbcd21d99bbf55769881dda49c45043a8750d2229c330cdddd4718575f72364029161073a60405192839283613e47565b0390a180f35b61074990613397565b610754578284610707565b8280fd5b6040513d84823e3d90fd5b5080fd5b508260fd556106ce565b60405162461bcd60e51b815260206004820152601c60248201527f6572726f725f7265706f7274416c726561647950726f636573736564000000006044820152606490fd5b3d91508184823e6107c782826133e3565b6020818381010312610bbc5780519067ffffffffffffffff82116103ec5761012092838383018284010312610bb85760405193840184811067ffffffffffffffff821117610ba2576040528282015167ffffffffffffffff8111610a6857610836908284019085850101613d68565b845281830160208181015190860152604080820151908601526060015167ffffffffffffffff8111610a6857818301601f8286860101011215610a68578084840101519061088382613814565b9161089160405193846133e3565b808352602083019184860160208360051b838a8a01010101116103fb576020818888010101925b60208360051b838a8a010101018410610b09575050505060608501526080838301015167ffffffffffffffff8111610a68576108fb908284019085850101613dbe565b608085015260a0838301015167ffffffffffffffff8111610a6857818301601f8286860101011215610a685780848401015161093681613814565b9161094460405193846133e3565b818352602083019084860160208460051b838a8a01010101116103fb576020818888010101915b60208460051b838a8a010101018310610a6c575050505060a085015260c0838301015167ffffffffffffffff8111610a685783830101818301601f82011215610a68578051906109ba82613814565b926109c860405194856133e3565b8284526020606081860194028301019181860183116103fb57602001925b828410610a23575050505060c0840152610a1990610a0883820160e001613daa565b60e085015261010092018201613d0f565b90820152386102de565b60608483880103126103fb576020606091604051610a40816133ab565b610a4987613daa565b81528287015183820152604087015160408201528152019301926109e6565b8680fd5b825167ffffffffffffffff8111610b05576040888a0184018201888a0103601f190112610b055760405190610aa0826133c7565b610ab2602082868d8d01010101613daa565b8252604081858c8c01010101519067ffffffffffffffff8211610b01579260209392610af08b868096958f968a8f9884998601950101010101613dbe565b83820152815201930192905061096b565b8d80fd5b8b80fd5b835167ffffffffffffffff8111610b05576060888a0184018201888a0103601f190112610b055760405190610b3d826133ab565b602081858c8c010101015167ffffffffffffffff8111610b015792602093926060859493878e8e610b7d8f988a809a840191878787870101010101613d68565b86520101016040818101518685015291015190820152815291909501940190506108b8565b634e487b7160e01b600052604160045260246000fd5b8580fd5b8380fd5b6040513d85823e3d90fd5b60405162461bcd60e51b815260206004820152601360248201527f6572726f725f7374616b655265717569726564000000000000000000000000006044820152606490fd5b80fd5b5034610c10576020366003190112610c1057610c2d613353565b610c356138f4565b6001600160a01b03811615610c5057610c4d9061394c565b80f35b60405162461bcd60e51b815260206004820152602660248201527f4f776e61626c653a206e6577206f776e657220697320746865207a65726f206160448201527f64647265737300000000000000000000000000000000000000000000000000006064820152608490fd5b5034610c10576020366003190112610c1057610cd5613353565b610cdd6138f4565b6001600160a01b0361010f91166001600160a01b031982541617905580f35b5034610c10576040366003190112610c1057610c4d600435610d25610d1f61333d565b8261401c565b614100565b5034610c105780600319360112610c10573381526101056020526040812033600052602052610d5e3360406000205461401c565b338152610104602052610d746040822054614100565b610c4d33614453565b5034610c105780600319360112610c1057602060fe54604051908152f35b5034610c105780600319360112610c1057610c4d33614453565b505061000f6138d7565b5034610c10576020366003190112610c1057600560406020926001600160a01b03610de8613353565b1681526101028452200154604051908152f35b5034610c105780600319360112610c1057610e14614904565b90604051918291602080840190808552835180925280604086019401925b828110610e4157505050500390f35b83516001600160a01b031685528695509381019392810192600101610e32565b5034610c105780600319360112610c105760206001600160a01b036101075416604051908152f35b5034610c10576020366003190112610c105760043567ffffffffffffffff811161076357610ebb903690600401613369565b60ff60fb5416158015610f1d575b15610ed857610c4d91336141f9565b60405162461bcd60e51b815260206004820152601160248201527f6572726f725f6e6f74417070726f7665640000000000000000000000000000006044820152606490fd5b5033835261010360205260ff6040842054166003811015610f4057600114610ec9565b634e487b7160e01b84526021600452602484fd5b5034610c10576040366003190112610c1057610f6e613353565b6040610f7861333d565b926001600160a01b0380931681526101056020522091166000526020526020604060002054604051908152f35b5034610c105760208060031936011261076357600435600260c954146111bc57600260c9558015611177576001600160a01b0361010c60248483835416604051928380926370a0823160e01b82523360048301525afa80156103f05784918791611146575b5010611101579160648492869433865261010485526040862061102e858254613e6f565b905561103c8460fc54613e6f565b60fc5554169160405194859384926323b872dd60e01b845233600485015230602485015260448401525af18015610bc05783906110cc575b600191501515036110885750600160c95580f35b6064906040519062461bcd60e51b82526004820152601760248201527f6572726f725f756e7375636365737366756c5374616b650000000000000000006044820152fd5b508181813d83116110fa575b6110e281836133e3565b81010312610754576110f5600191613d0f565b611074565b503d6110d8565b60405162461bcd60e51b815260048101859052601960248201527f6572726f725f696e73756666696369656e7442616c616e6365000000000000006044820152606490fd5b809250868092503d8311611170575b61115f81836133e3565b81010312610bb8578390513861100a565b503d611155565b60405162461bcd60e51b815260048101839052601760248201527f6572726f725f696e73756666696369656e745374616b650000000000000000006044820152606490fd5b60405162461bcd60e51b815260048101839052601f60248201527f5265656e7472616e637947756172643a207265656e7472616e742063616c6c006044820152606490fd5b5034610c105780600319360112610c1057602060ff60fb54166040519015158152f35b5034610c10576020366003190112610c10576001600160a01b03611246613353565b16815261010360205260ff60408220541660405190600381101561126c57602092508152f35b634e487b7160e01b83526021600452602483fd5b5034610c105780600319360112610c1057602061010054604051908152f35b5034610c105780600319360112610c105760206001600160a01b0360975416604051908152f35b5034610c10576020366003190112610c1057610c4d6112e3613353565b6112eb6138f4565b614453565b5034610c10576020366003190112610c105761130a613353565b6113126138f4565b6001600160a01b0361010e91166001600160a01b031982541617905580f35b5034610c10576020366003190112610c105761134b613353565b6113536138f4565b6001600160a01b0361010d91166001600160a01b031982541617905580f35b5034610c10576040366003190112610c10576004359061139061333d565b600260c954146115a957600260c9558215611564576001600160a01b039261010c93808554169460405180966370a0823160e01b82523360048301528160246020998a935afa9081156103f0579084918791611533575b50106114ee5784918691338452610104835260408420611408868254613e6f565b90556114168560fc54613e6f565b60fc5554166064604051809481936323b872dd60e01b83523360048401523060248401528760448401525af180156114e35784906114ae575b600191501515036114695790610c4d91600160c955613f2f565b60405162461bcd60e51b815260048101859052601760248201527f6572726f725f756e7375636365737366756c5374616b650000000000000000006044820152606490fd5b508481813d83116114dc575b6114c481836133e3565b81010312610bbc576114d7600191613d0f565b61144f565b503d6114ba565b6040513d86823e3d90fd5b60405162461bcd60e51b815260048101879052601960248201527f6572726f725f696e73756666696369656e7442616c616e6365000000000000006044820152606490fd5b809250888092503d831161155d575b61154c81836133e3565b81010312610bb857839051386113e7565b503d611542565b60405162461bcd60e51b815260206004820152601760248201527f6572726f725f696e73756666696369656e745374616b650000000000000000006044820152606490fd5b60405162461bcd60e51b815260206004820152601f60248201527f5265656e7472616e637947756172643a207265656e7472616e742063616c6c006044820152606490fd5b5034610c105780600319360112610c10576116076138f4565b60006001600160a01b036097546001600160a01b03198116609755167f8be0079c531659141344cd1fd0a4f28419497f9722a3daafe3b4186f6b6457e08280a380f35b5034610c10576020366003190112610c105760406020916001600160a01b03611671613353565b16815261010483522054604051908152f35b5034610c10576020366003190112610c10578060206117116004356116a66138f4565b6116cd8160fd546116b981831115613cb6565b6116c58260fc54613d02565b60fc55613d02565b60fd556001600160a01b0361010c54169060405194858094819363a9059cbb60e01b83523360048401602090939291936001600160a01b0360408201951681520152565b03925af1908115610758578291611732575b506001610c4d91151514613d1c565b90506020813d8211611769575b8161174c602093836133e3565b81010312610763576001611762610c4d92613d0f565b9150611723565b3d915061173f565b5034610c10576020366003190112610c10576020611795611790613353565b6149b8565b6040519015158152f35b5034610c105780600319360112610c1057602060fd54604051908152f35b5034610c10576020366003190112610c10576001600160a01b036117df613353565b6117e76138f4565b1680825261010360205260408220805460ff191660011790557fdfe83f699699403a4b116b6f9504680228c3f319bbf5ab26b48a81d3005d98b28280a280f35b5034610c105780600319360112610c1057611857611843613865565b60405191829160208352602083019061347d565b0390f35b5034610c105780600319360112610c10576001600160a01b037f00000000000000000000000000000000000000000000000000000000000000001630036118c65760206040517f360894a13ba1a3210667c828492db98dca3e2076cc3735a920a3ca505d382bbc8152f35b60405162461bcd60e51b815260206004820152603860248201527f555550535570677261646561626c653a206d757374206e6f742062652063616c60448201527f6c6564207468726f7567682064656c656761746563616c6c00000000000000006064820152608490fd5b506040366003190112610c1057611946613353565b90602491823567ffffffffffffffff811161075457366023820112156107545780600401359061197582613405565b61198260405191826133e3565b8281526020928382019236888383010111610a6857818792898793018637830101526001600160a01b03807f000000000000000000000000000000000000000000000000000000000000000016906119dc82301415613994565b611a0b7f360894a13ba1a3210667c828492db98dca3e2076cc3735a920a3ca505d382bbc928284541614613a06565b611a136138f4565b7f4910fdfa16fed3260ed0e7147f7cc6da11a60208b5b9406d12a635614ffd91435460ff1615611a4d575050505050610c4d919250613a78565b8596949616906040516352d1902d60e01b81528781600481865afa60009181611c8b575b50611ad15760405162461bcd60e51b815260048101899052602e818b01527f45524331393637557067726164653a206e657720696d706c656d656e7461746960448201526d6f6e206973206e6f74205555505360901b6064820152608490fd5b979192939496959703611c3657611ae787613a78565b604051917fbc7cd75a20ee27fd9adebab32041f755214dbc6bffa90cc0225b39da2e5c2d3b600080a2825115801590611c2e575b611b2a575b5050505050905080f35b863b15611bde575050611bca9394600092839251915af43d15611bd6573d90611b5282613405565b91611b6060405193846133e3565b82523d60008484013e5b7f416464726573733a206c6f772d6c6576656c2064656c65676174652063616c6c60405193611b98856133ab565b602785528401527f206661696c6564000000000000000000000000000000000000000000000000006040840152613b26565b50803880808080611b20565b606090611b6a565b62461bcd60e51b8252600482018590526026908201527f416464726573733a2064656c65676174652063616c6c20746f206e6f6e2d636f6044820152651b9d1c9858dd60d21b6064820152608490fd5b506001611b1b565b8460296084926040519262461bcd60e51b845260048401528201527f45524331393637557067726164653a20756e737570706f727465642070726f786044820152681a58589b195555525160ba1b6064820152fd5b90918982813d8311611cb3575b611ca281836133e3565b81010312610c105750519038611a71565b503d611c98565b5034610c105780600319360112610c1057602061010154604051908152f35b5034610c105780600319360112610c105761185761184361382c565b5034610c105780600319360112610c105760206001600160a01b036101065416604051908152f35b5034610c105760e0366003190112610c1057611d37613353565b602435801515810361075457604435906001600160a01b0382168203610bbc576084356001600160a01b03811681036103ec5760a4359267ffffffffffffffff8411610bb85736602385011215610bb857836004013593611d9785613814565b94611da560405196876133e3565b80865260208601913660248360051b830101116104fb579160248301925b60248360051b82010184106129bc575050505067ffffffffffffffff60c43511610bb85736602360c435011215610bb85767ffffffffffffffff60c4356004013511610bb85736602460c4356004013560051b60c435010111610bb85785549260ff8460081c1615938480956129af575b8015612998575b1561292d5760ff19808216600117895560ff918661291c575b50611e6760c43560040135885114613b6a565b6001600160a01b038416151580612911575b611e8290613b6a565b611e9a828a5460081c16611e9581613c44565b613c44565b611ea33361394c565b611ebf828a5460081c16611eb681613c44565b611e9581613c44565b600160c95560fb5416911515161760fb556001600160a01b036001600160a01b03199161010c82821684825416179055168160ff54161760ff5560643560fe556001600160a01b038216906101105416176101105584611f1d613865565b91611f2661389e565b906001600160a01b0381163b1561075457611f6093836001600160a01b03604051809781968295630ef8cdc760e01b845260048401613bb6565b0393165af18015612906576128f3575b50611f7a306149ec565b611fc06020611f87613865565b926040519381611fa0869351809286808701910161345a565b8201611fb48251809386808501910161345a565b010380845201826133e3565b80519067ffffffffffffffff82116125b8578190611fe0610108546134a2565b601f81116128a3575b50602090601f831160011461281957879261280e575b50508160011b916000199060031b1c191617610108555b836001600160a01b036101105416803b1561076357816040518092632337c3c760e11b825260406004830152818381612051604482016134dc565b6003602483015203925af18015610758576127fa575b506001600160a01b03610110541661207d6137db565b61208561389e565b823b15610bbc576120af92849283604051809681958294630ef8cdc760e01b845260048401613bb6565b03925af18015610758576127e6575b50506120c9306149ec565b6120d66020611f876137db565b80519067ffffffffffffffff82116125b85781906120f6610109546134a2565b601f8111612796575b50602090601f831160011461270c578792612701575b50508160011b916000199060031b1c191617610109555b836001600160a01b036101105416803b1561076357816040518092632337c3c760e11b82526040600483015281838161216760448201613593565b6003602483015203925af18015610758576126ed575b506001600160a01b036101105416612193613421565b61219b61389e565b823b15610bbc576121c592849283604051809681958294630ef8cdc760e01b845260048401613bb6565b03925af18015610758576126d9575b50506121df306149ec565b6121ec6020611f87613421565b80519067ffffffffffffffff82116125b857819061220c61010a546134a2565b601f8111612689575b50602090601f83116001146125ff5787926125f4575b50508160011b916000199060031b1c19161761010a555b836001600160a01b036101105416803b1561076357816040518092632337c3c760e11b82526040600483015281838161227d60448201613624565b6003602483015203925af18015610758576125e0575b506001600160a01b0361011054166122a961382c565b6122b161389e565b823b15610bbc576122db92849283604051809681958294630ef8cdc760e01b845260048401613bb6565b03925af18015610758576125cc575b50506122f5306149ec565b6123026020611f8761382c565b80519067ffffffffffffffff82116125b857819061232261010b546134a2565b601f811161255d575b50602090601f83116001146124d35787926124c8575b50508160011b916000199060031b1c19161761010b555b836001600160a01b036101105416803b1561076357816040518092632337c3c760e11b825260406004830152818381612393604482016136b5565b6003602483015203925af18015610758576124b4575b505b8251811015612453576001600160a01b036123c68285613c1a565b51169060c4356004013581101561243f5760248160051b60c43501013560421960c435360301811215610a685760c435019167ffffffffffffffff602484013511610a6857602483013536036044840113610a685761243a9261057a9161242b6138f4565b604460248301359201906141f9565b6123ab565b634e487b7160e01b86526032600452602486fd5b84828561245e6138f4565b6001600160a01b03811615610c50576124769061394c565b61247d5780f35b61ff001981541681557f7f26b83ff96e1f2b6a682f133852f6798a09c465da95921460cefb3847402498602060405160018152a180f35b6124bd90613397565b610bbc5783386123a9565b015190503880612341565b925061010b87527fc4a0eda7235d7f6fd09c1e1f9f82dc3264d0d2f064cb41576c42a996a7be28929087935b601f1984168510612542576001945083601f19811610612529575b505050811b0161010b55612358565b015160001960f88460031b161c1916905538808061251a565b818101518355602094850194600190930192909101906124ff565b6125a89061010b6000527fc4a0eda7235d7f6fd09c1e1f9f82dc3264d0d2f064cb41576c42a996a7be2892601f850160051c810191602086106125ae575b601f0160051c0190613bde565b3861232b565b909150819061259b565b634e487b7160e01b86526041600452602486fd5b6125d590613397565b610bbc5783386122ea565b6125e990613397565b610bbc578338612293565b01519050388061222b565b925061010a87527fc588bd85af64879c0999911852d2549e38c750e7e4e194eb8891b0913e93b12c9087935b601f198416851061266e576001945083601f19811610612655575b505050811b0161010a55612242565b015160001960f88460031b161c19169055388080612646565b8181015183556020948501946001909301929091019061262b565b6126d39061010a6000527fc588bd85af64879c0999911852d2549e38c750e7e4e194eb8891b0913e93b12c601f850160051c810191602086106125ae57601f0160051c0190613bde565b38612215565b6126e290613397565b610bbc5783386121d4565b6126f690613397565b610bbc57833861217d565b015190503880612115565b925061010987527fd7f48d1c2d4fdcceabee32a4fd1437f382c65f0f9af09a878c95c20147dc06a89087935b601f198416851061277b576001945083601f19811610612762575b505050811b016101095561212c565b015160001960f88460031b161c19169055388080612753565b81810151835560209485019460019093019290910190612738565b6127e0906101096000527fd7f48d1c2d4fdcceabee32a4fd1437f382c65f0f9af09a878c95c20147dc06a8601f850160051c810191602086106125ae57601f0160051c0190613bde565b386120ff565b6127ef90613397565b610bbc5783386120be565b61280390613397565b610bbc578338612067565b015190503880611fff565b925061010887527f8543e9adbfbe1f62b7411fdf032fcfea758a7d6b332f64d971a1334c2ff364dd9087935b601f1984168510612888576001945083601f1981161061286f575b505050811b0161010855612016565b015160001960f88460031b161c19169055388080612860565b81810151835560209485019460019093019290910190612845565b6128ed906101086000527f8543e9adbfbe1f62b7411fdf032fcfea758a7d6b332f64d971a1334c2ff364dd601f850160051c810191602086106125ae57601f0160051c0190613bde565b38611fe9565b6128ff90949194613397565b9238611f70565b6040513d87823e3d90fd5b506064351515611e79565b61ffff191661010117895538611e54565b60405162461bcd60e51b815260206004820152602e60248201527f496e697469616c697a61626c653a20636f6e747261637420697320616c72656160448201527f647920696e697469616c697a65640000000000000000000000000000000000006064820152608490fd5b50303b158015611e3b5750600160ff821614611e3b565b50600160ff821610611e34565b8335916001600160a01b03831683036129e357602081602494829352019401939150611dc3565b8a80fd5b5034610c10576040366003190112610c1057610c4d612a0461333d565b60043561401c565b5034610c10576040366003190112610c10576004356024803567ffffffffffffffff8111610bbc57612a42903690600401613369565b9060ff60fb5416158015612cfb575b15612cb75790612a6191336141f9565b600260c95414612c7357600260c9558115612c2f576001600160a01b039061010c91808354169260405180946370a0823160e01b8252336004830152818560209788935afa8015612c245786918891612bf3575b5010612baf5785918491338452610104835260408420612ad6888254613e6f565b9055612ae48760fc54613e6f565b60fc5554166064604051809481936323b872dd60e01b835233600484015230888401528960448401525af18015612906578590612b7a575b60019150151503612b3757600160c95583610c4d3385613f2f565b9060176064926040519262461bcd60e51b845260048401528201527f6572726f725f756e7375636365737366756c5374616b650000000000000000006044820152fd5b508281813d8311612ba8575b612b9081836133e3565b810103126103ec57612ba3600191613d0f565b612b1c565b503d612b86565b60405162461bcd60e51b8152600481018590526019818501527f6572726f725f696e73756666696369656e7442616c616e6365000000000000006044820152606490fd5b809250868092503d8311612c1d575b612c0c81836133e3565b81010312610a685785905138612ab5565b503d612c02565b6040513d89823e3d90fd5b60649060176040519162461bcd60e51b8352602060048401528201527f6572726f725f696e73756666696369656e745374616b650000000000000000006044820152fd5b606490601f6040519162461bcd60e51b8352602060048401528201527f5265656e7472616e637947756172643a207265656e7472616e742063616c6c006044820152fd5b60405162461bcd60e51b8152602060048201526011818501527f6572726f725f6e6f74417070726f7665640000000000000000000000000000006044820152606490fd5b5033855261010360205260ff6040862054166003811015612d1e57600114612a51565b634e487b7160e01b865260216004528386fd5b5034610c105760208060031936011261076357612d4c613353565b906001600160a01b03807f000000000000000000000000000000000000000000000000000000000000000016612d8481301415613994565b612db37f360894a13ba1a3210667c828492db98dca3e2076cc3735a920a3ca505d382bbc918383541614613a06565b612dbb6138f4565b604051908382019282841067ffffffffffffffff851117613040578360405286835260ff7f4910fdfa16fed3260ed0e7147f7cc6da11a60208b5b9406d12a635614ffd91435416600014612e17575050505050610c4d90613a78565b8596949516906040516352d1902d60e01b81528681600481865afa869181613011575b50612e9b5760405162461bcd60e51b815260048101889052602e60248201527f45524331393637557067726164653a206e657720696d706c656d656e7461746960448201526d6f6e206973206e6f74205555505360901b6064820152608490fd5b95949503612fba57612eac86613a78565b604051907fbc7cd75a20ee27fd9adebab32041f755214dbc6bffa90cc0225b39da2e5c2d3b8680a2815115801590612fb3575b612eed575b50505050905080f35b853b15612f6257509280948192612f579551915af43d15611bd6573d90612f1382613405565b91612f2160405193846133e3565b82523d858484013e7f416464726573733a206c6f772d6c6576656c2064656c65676174652063616c6c60405193611b98856133ab565b508038808080612ee4565b62461bcd60e51b815260048101849052602660248201527f416464726573733a2064656c65676174652063616c6c20746f206e6f6e2d636f6044820152651b9d1c9858dd60d21b6064820152608490fd5b5084612edf565b60405162461bcd60e51b815260048101859052602960248201527f45524331393637557067726164653a20756e737570706f727465642070726f786044820152681a58589b195555525160ba1b6064820152608490fd5b9091508781813d8311613039575b61302981836133e3565b81010312610a6857519038612e3a565b503d61301f565b634e487b7160e01b87526041600452602487fd5b5034610c10576020366003190112610c1057610c4d600435614100565b5034610c10576020366003190112610c10576001600160a01b03613093613353565b61309b6138f4565b1680825261010360205260408220805460ff191660021790557fbbe2a784aa6240d8175fa65a8459058efd8f44c5ab66caa2525fe9d6342108788280a280f35b5034610c10576020366003190112610c1057600435801515809103610763576131026138f4565b60ff1960fb541660ff82161760fb557f7623db9c426686f05cec977c4cadb8ff9657502540ca665ae347731114dac69d8280a280f35b5034610c105780600319360112610c10576118576118436137db565b5034610c10576020366003190112610c1057610c4d613171613353565b6131796138f4565b6131816138f4565b6001600160a01b03811680845261010360205260408420805460ff191660021790557fbbe2a784aa6240d8175fa65a8459058efd8f44c5ab66caa2525fe9d6342108788480a26112eb6138f4565b5034610c10576020366003190112610c105760406001600160a01b0391826131f5613353565b168152610102602052208054906040519261321e846132178160018601613746565b03856133e3565b6002820154916005826003830154169260048301541691015491613254604051968796875260c0602088015260c087019061347d565b9360408601526060850152608084015260a08301520390f35b5034610c105780600319360112610c1057602060fc54604051908152f35b5034610c105780600319360112610c1057611857611843613421565b5034610c10576040366003190112610c10576132c1613353565b6024359067ffffffffffffffff8211610754576132e5610c4d923690600401613369565b916132ee6138f4565b6141f9565b5034610c10576040366003190112610c1057610c4d61331061333d565b600435613f2f565b9050346107635781600319360112610763576020906001600160a01b0360ff54168152f35b602435906001600160a01b038216820361000f57565b600435906001600160a01b038216820361000f57565b9181601f8401121561000f5782359167ffffffffffffffff831161000f576020838186019501011161000f57565b67ffffffffffffffff8111610ba257604052565b6060810190811067ffffffffffffffff821117610ba257604052565b6040810190811067ffffffffffffffff821117610ba257604052565b90601f8019910116810190811067ffffffffffffffff821117610ba257604052565b67ffffffffffffffff8111610ba257601f01601f191660200190565b6040519061342e826133c7565b600982527f2f726f6c6c63616c6c00000000000000000000000000000000000000000000006020830152565b60005b83811061346d5750506000910152565b818101518382015260200161345d565b906020916134968151809281855285808601910161345a565b601f01601f1916010190565b90600182811c921680156134d2575b60208310146134bc57565b634e487b7160e01b600052602260045260246000fd5b91607f16916134b1565b906000916101089081546134ef816134a2565b8083529260019180831690811561356e575060011461350f575b50505050565b90929394506000527f8543e9adbfbe1f62b7411fdf032fcfea758a7d6b332f64d971a1334c2ff364dd916000925b8484106135565750506020925001019038808080613509565b8054602085850181019190915290930192810161353d565b92505050602093945060ff929192191683830152151560051b01019038808080613509565b906000916101099081546135a6816134a2565b8083529260019180831690811561356e57506001146135c55750505050565b90929394506000527fd7f48d1c2d4fdcceabee32a4fd1437f382c65f0f9af09a878c95c20147dc06a8916000925b84841061360c5750506020925001019038808080613509565b805460208585018101919091529093019281016135f3565b9060009161010a908154613637816134a2565b8083529260019180831690811561356e57506001146136565750505050565b90929394506000527fc588bd85af64879c0999911852d2549e38c750e7e4e194eb8891b0913e93b12c916000925b84841061369d5750506020925001019038808080613509565b80546020858501810191909152909301928101613684565b9060009161010b9081546136c8816134a2565b8083529260019180831690811561356e57506001146136e75750505050565b90929394506000527fc4a0eda7235d7f6fd09c1e1f9f82dc3264d0d2f064cb41576c42a996a7be2892916000925b84841061372e5750506020925001019038808080613509565b80546020858501810191909152909301928101613715565b9060009291805491613757836134a2565b9182825260019384811690816000146137b857506001146137785750505050565b90919394506000526020928360002092846000945b8386106137a4575050505001019038808080613509565b80548587018301529401938590820161378d565b9294505050602093945060ff191683830152151560051b01019038808080613509565b604051906137e8826133c7565b600982527f2f7265636f7665727900000000000000000000000000000000000000000000006020830152565b67ffffffffffffffff8111610ba25760051b60200190565b60405190613839826133c7565b600782527f2f73797374656d000000000000000000000000000000000000000000000000006020830152565b60405190613872826133c7565b600a82527f2f686561727462656174000000000000000000000000000000000000000000006020830152565b604051906138ab826133c7565b601382527f7b2022706172746974696f6e73223a2031207d000000000000000000000000006020830152565b503461000f57600036600319011261000f5761185761184361389e565b6001600160a01b0360975416330361390857565b606460405162461bcd60e51b815260206004820152602060248201527f4f776e61626c653a2063616c6c6572206973206e6f7420746865206f776e65726044820152fd5b609754906001600160a01b0380911691826001600160a01b0319821617609755167f8be0079c531659141344cd1fd0a4f28419497f9722a3daafe3b4186f6b6457e0600080a3565b1561399b57565b60405162461bcd60e51b815260206004820152602c60248201527f46756e6374696f6e206d7573742062652063616c6c6564207468726f7567682060448201527f64656c656761746563616c6c00000000000000000000000000000000000000006064820152608490fd5b15613a0d57565b60405162461bcd60e51b815260206004820152602c60248201527f46756e6374696f6e206d7573742062652063616c6c6564207468726f7567682060448201527f6163746976652070726f787900000000000000000000000000000000000000006064820152608490fd5b803b15613abb576001600160a01b037f360894a13ba1a3210667c828492db98dca3e2076cc3735a920a3ca505d382bbc91166001600160a01b0319825416179055565b60405162461bcd60e51b815260206004820152602d60248201527f455243313936373a206e657720696d706c656d656e746174696f6e206973206e60448201527f6f74206120636f6e7472616374000000000000000000000000000000000000006064820152608490fd5b90919015613b32575090565b815115613b425750805190602001fd5b60405162461bcd60e51b815260206004820152908190613b6690602483019061347d565b0390fd5b15613b7157565b60405162461bcd60e51b815260206004820152601460248201527f6572726f725f626164547261636b6572446174610000000000000000000000006044820152606490fd5b9091613bcd613bdb9360408452604084019061347d565b91602081840391015261347d565b90565b818110613be9575050565b60008155600101613bde565b6000198114613c045760010190565b634e487b7160e01b600052601160045260246000fd5b8051821015613c2e5760209160051b010190565b634e487b7160e01b600052603260045260246000fd5b15613c4b57565b60405162461bcd60e51b815260206004820152602b60248201527f496e697469616c697a61626c653a20636f6e7472616374206973206e6f74206960448201527f6e697469616c697a696e670000000000000000000000000000000000000000006064820152608490fd5b15613cbd57565b60405162461bcd60e51b815260206004820152601460248201527f6572726f725f6e6f74456e6f7567685374616b650000000000000000000000006044820152606490fd5b91908203918211613c0457565b5190811515820361000f57565b15613d2357565b60405162461bcd60e51b815260206004820152601a60248201527f6572726f725f756e7375636365737366756c57697468647261770000000000006044820152606490fd5b81601f8201121561000f578051613d7e81613405565b92613d8c60405194856133e3565b8184526020828401011161000f57613bdb916020808501910161345a565b51906001600160a01b038216820361000f57565b81601f8201121561000f57805190613dd582613814565b92604092613de5845195866133e3565b808552602091828087019260061b8501019381851161000f578301915b848310613e125750505050505090565b858383031261000f578386918251613e29816133c7565b613e3286613daa565b81528286015183820152815201920191613e02565b90918060409360208452816020850152848401376000828201840152601f01601f1916010190565b91908201809211613c0457565b91909160008382019384129112908015821691151617613c0457565b15613e9f57565b606460405162461bcd60e51b815260206004820152602060248201527f6572726f725f696e73756666696369656e7444656c6567617465416d6f756e746044820152fd5b15613eea57565b60405162461bcd60e51b815260206004820152601160248201527f6572726f725f696e76616c69644e6f64650000000000000000000000000000006044820152606490fd5b613f3a811515613e98565b6001600160a01b038216916000838152610102916020928084526040928391613f6a600284842001541515613ee3565b3382526101048652828220613f80888254613d02565b9055338252613fc5610105948588528484208a85528852848420613fa58a8254613e6f565b9055898452828852600585852001613fbe8a8254613e6f565b90556146af565b87825285526005828220015492338252855281812087825285522054928251948552840152820152600160608201527f4c2cbb7d33d36a22e34970133436a2156c82cefc2dadfd9537fcfc177b40f03560803392a3565b614027811515613e98565b6001600160a01b03821691600090838252610102602091818352604091614055600284872001541515613ee3565b3385526140a9610105928386528487208988528652848720614078898254613d02565b9055888752828652600585882001614091898254613d02565b90553387526101048652848720613fbe898254613e6f565b86855283526005828520015490338552835281842086855283528184205492825195865285015283015260608201527f4c2cbb7d33d36a22e34970133436a2156c82cefc2dadfd9537fcfc177b40f03560803392a3565b60003381528061010461418a60209482869384526141246040862054831115613cb6565b338552835260408420614138828254613d02565b90556141468160fc54613d02565b60fc556001600160a01b0361010c54169060405195868094819363a9059cbb60e01b83523360048401602090939291936001600160a01b0360408201951681520152565b03925af19283156141ec5781936141af575b50505060016141ad91151514613d1c565b565b9091809350813d83116141e5575b6141c781836133e3565b81010312610c10575060016141de6141ad92613d0f565b913861419c565b503d6141bd565b50604051903d90823e3d90fd5b906001600160a01b038092169160009083825260209461010286526040832083600282019384541561439e575b5060018092019567ffffffffffffffff841161438a5761424687546134a2565b601f811161435c575b5081601f85116001146142d257937f5efa14ec2c459017dc330f0b3e8f2f26bee624ba1c66a50805faf6bf28bfb0b5979593819382936142b99997946142c7575b50501b916000199060031b1c19161783555b429055604051928392604084526040840190613746565b9542908301521515940390a3565b013592503880614290565b91601f9493941984168884528a8420935b8b828210614348575050916142b997959391857f5efa14ec2c459017dc330f0b3e8f2f26bee624ba1c66a50805faf6bf28bfb0b59a9896941061432e575b505050811b0183556142a2565b0135600019600384901b60f8161c19169055388080614321565b8484013586559487019492830192016142e3565b614384908884528a8420601f870160051c8101918c88106125ae57601f0160051c0190613bde565b3861424f565b634e487b7160e01b82526041600452602482fd5b94506001946101069080825416156000146144085750876001600160a01b031982541617905543610101555b610107876001600160a01b03198254161790556101008054908682018092116143f4575538614226565b634e487b7160e01b83526011600452602483fd5b90506101079080825416835260036040842001916001600160a01b0319928a84825416179055541660048401918254161790556101005482556143ca565b8015613c04576000190190565b906001600160a01b0380921660009281845261010260209080825260408087209160028301541561466b5790829160048996959401938585541680614642575b506003809401868154168061461c575b506101069586548a89821614614604575b5061010790815490898c818416146145ea575b5050505088885282825287600585822082815560019d8e808301906144ec82546134a2565b806145ad575b505050600282015582888201558260048201550155610100805490600019820191821161459957555486168a5b614564575b50505050507fcfc24166db4bb677e857cacabd1541fb2b30645021b27c5130419589b84db52b9394955054161561455a575b80a2565b8061010155614556565b861680156145945780885282825283882061457f8154614446565b9055875281815285848489200154168a61451f565b614524565b634e487b7160e01b8a52601160045260248afd5b601f81116001146145c5575050555b82388f816144f2565b6145de91838552601f8a86209201871c82019101613bde565b818781209155556145bc565b6001600160a01b03199154169116179055388080896144c7565b6001600160a01b0319898454169116178755386144b4565b878754169089528383526004858a2001906001600160a01b0319825416179055386144a3565b86600386015416908852828252600384892001906001600160a01b031982541617905538614493565b815162461bcd60e51b815260048101859052600e60248201527f6572726f725f6e6f74466f756e640000000000000000000000000000000000006044820152606490fd5b9060006001600160a01b038093168082526101026020526040906005828420015460fe54111560001461487557610110948086541695863b156103ec5783518581634cbf455560e11b998a825260606004830152818381614712606482016134dc565b8a60248301526002604483015203925af1801561484357908691614861575b505081815416803b15610bb85785855180928a82526060600483015281838161475c60648201613593565b8a60248301526002604483015203925af180156148435790869161484d575b505081815416803b15610bb85785855180928a8252606060048301528183816147a660648201613624565b8a60248301526002604483015203925af180156148435790869161482f575b5050541694853b15610bbc5790839495849284519586809481938252606060048301526147f4606483016136b5565b9060248301526002604483015203925af19081156148265750614815575050565b61481f8291613397565b610c105750565b513d84823e3d90fd5b61483890613397565b6103ec5784386147c5565b85513d88823e3d90fd5b61485690613397565b6103ec57843861477b565b61486a90613397565b6103ec578438614731565b610110948086541695863b156103ec5783518581631f1cbd7560e11b998a8252606060048301528183816148ab606482016134dc565b8a60248301526002604483015203925af18015614843576148f1575b5081815416803b15610bb85785855180928a82526060600483015281838161475c60648201613593565b6148fd90959195613397565b93386148c7565b6101005461491181613814565b90604090614921825193846133e3565b808352614930601f1991613814565b016020903682850137610106546001600160a01b039081168481156149af575091600060019384805b614968575b5050505050505090565b156149a2575b6000908461497c848a613c1a565b91168091528152610102835261499a84600388842001541692613bf5565b919085614959565b83811661496e578061495e565b94505050505090565b60fe5480151591826149c957505090565b6001600160a01b0391925016600052610102602052600560406000200154101590565b6001600160a01b031660405190614a02826133ab565b602a82526020908183016040368237835115613c2e57603090538251600190811015613c2e57607860218501536029905b808211614a87575050614a44575090565b6064906040519062461bcd60e51b825280600483015260248201527f537472696e67733a20686578206c656e67746820696e73756666696369656e746044820152fd5b9091600f8116906010821015614adb578551841015614adb577f3031323334353637383961626364656600000000000000000000000000000000614ad5921a85858801015360041c92614446565b90614a33565b60246000634e487b7160e01b81526032600452fdfea26469706673582212204a2aaabb8f353578472b7f78638c7a46db0074a4a15ae146510ca48f7c74853864736f6c63430008110033",
  "linkReferences": {},
  "deployedLinkReferences": {}
}