{
  "_format": "hh-sol-artifact-1",
  "contractName": "LogStoreNodeManager",
  "sourceName": "src/NodeManager.sol",
  "abi": [
    {
      "anonymous": false,
      "inputs": [
        {
          "indexed": false,
          "internalType": "address",
          "name": "previousAdmin",
          "type": "address"
        },
        {
          "indexed": false,
          "internalType": "address",
          "name": "newAdmin",
          "type": "address"
        }
      ],
      "name": "AdminChanged",
      "type": "event"
    },
    {
      "anonymous": false,
      "inputs": [
        {
          "indexed": true,
          "internalType": "address",
          "name": "beacon",
          "type": "address"
        }
      ],
      "name": "BeaconUpgraded",
      "type": "event"
    },
    {
      "anonymous": false,
      "inputs": [
        {
          "indexed": false,
          "internalType": "uint8",
          "name": "version",
          "type": "uint8"
        }
      ],
      "name": "Initialized",
      "type": "event"
    },
    {
      "anonymous": false,
      "inputs": [
        {
          "indexed": true,
          "internalType": "address",
          "name": "nodeAddress",
          "type": "address"
        }
      ],
      "name": "NodeRemoved",
      "type": "event"
    },
    {
      "anonymous": false,
      "inputs": [
        {
          "indexed": true,
          "internalType": "address",
          "name": "nodeAddress",
          "type": "address"
        },
        {
          "indexed": false,
          "internalType": "string",
          "name": "metadata",
          "type": "string"
        },
        {
          "indexed": true,
          "internalType": "bool",
          "name": "isNew",
          "type": "bool"
        },
        {
          "indexed": false,
          "internalType": "uint256",
          "name": "lastSeen",
          "type": "uint256"
        }
      ],
      "name": "NodeUpdated",
      "type": "event"
    },
    {
      "anonymous": false,
      "inputs": [
        {
          "indexed": true,
          "internalType": "address",
          "name": "nodeAddress",
          "type": "address"
        }
      ],
      "name": "NodeWhitelistApproved",
      "type": "event"
    },
    {
      "anonymous": false,
      "inputs": [
        {
          "indexed": true,
          "internalType": "address",
          "name": "nodeAddress",
          "type": "address"
        }
      ],
      "name": "NodeWhitelistRejected",
      "type": "event"
    },
    {
      "anonymous": false,
      "inputs": [
        {
          "indexed": true,
          "internalType": "address",
          "name": "previousOwner",
          "type": "address"
        },
        {
          "indexed": true,
          "internalType": "address",
          "name": "newOwner",
          "type": "address"
        }
      ],
      "name": "OwnershipTransferred",
      "type": "event"
    },
    {
      "anonymous": false,
      "inputs": [
        {
          "indexed": false,
          "internalType": "string",
          "name": "id",
          "type": "string"
        }
      ],
      "name": "ReportProcessed",
      "type": "event"
    },
    {
      "anonymous": false,
      "inputs": [
        {
          "indexed": true,
          "internalType": "bool",
          "name": "value",
          "type": "bool"
        }
      ],
      "name": "RequiresWhitelistChanged",
      "type": "event"
    },
    {
      "anonymous": false,
      "inputs": [
        {
          "indexed": true,
          "internalType": "address",
          "name": "delegate",
          "type": "address"
        },
        {
          "indexed": true,
          "internalType": "address",
          "name": "node",
          "type": "address"
        },
        {
          "indexed": false,
          "internalType": "uint256",
          "name": "amount",
          "type": "uint256"
        },
        {
          "indexed": false,
          "internalType": "uint256",
          "name": "totalStake",
          "type": "uint256"
        },
        {
          "indexed": false,
          "internalType": "uint256",
          "name": "totalDelegated",
          "type": "uint256"
        },
        {
          "indexed": false,
          "internalType": "bool",
          "name": "delegated",
          "type": "bool"
        }
      ],
      "name": "StakeDelegateUpdated",
      "type": "event"
    },
    {
      "anonymous": false,
      "inputs": [
        {
          "indexed": true,
          "internalType": "address",
          "name": "implementation",
          "type": "address"
        }
      ],
      "name": "Upgraded",
      "type": "event"
    },
    {
      "inputs": [],
      "name": "LOGSTORE_SYSTEM_STREAM_ID_PATH",
      "outputs": [
        {
          "internalType": "string",
          "name": "",
          "type": "string"
        }
      ],
      "stateMutability": "view",
      "type": "function"
    },
    {
      "inputs": [],
      "name": "LOGSTORE_SYSTEM_STREAM_METADATA_JSON_STRING",
      "outputs": [
        {
          "internalType": "string",
          "name": "",
          "type": "string"
        }
      ],
      "stateMutability": "view",
      "type": "function"
    },
    {
      "inputs": [
        {
          "internalType": "address",
          "name": "",
          "type": "address"
        }
      ],
      "name": "balanceOf",
      "outputs": [
        {
          "internalType": "uint256",
          "name": "",
          "type": "uint256"
        }
      ],
      "stateMutability": "view",
      "type": "function"
    },
    {
      "inputs": [
        {
          "internalType": "uint256",
          "name": "amount",
          "type": "uint256"
        },
        {
          "internalType": "address",
          "name": "node",
          "type": "address"
        }
      ],
      "name": "delegate",
      "outputs": [],
      "stateMutability": "nonpayable",
      "type": "function"
    },
    {
      "inputs": [
        {
          "internalType": "address",
          "name": "",
          "type": "address"
        },
        {
          "internalType": "address",
          "name": "",
          "type": "address"
        }
      ],
      "name": "delegatesOf",
      "outputs": [
        {
          "internalType": "uint256",
          "name": "",
          "type": "uint256"
        }
      ],
      "stateMutability": "view",
      "type": "function"
    },
    {
      "inputs": [],
      "name": "headNode",
      "outputs": [
        {
          "internalType": "address",
          "name": "",
          "type": "address"
        }
      ],
      "stateMutability": "view",
      "type": "function"
    },
    {
      "inputs": [
        {
          "internalType": "address",
          "name": "owner_",
          "type": "address"
        },
        {
          "internalType": "bool",
          "name": "requiresWhitelist_",
          "type": "bool"
        },
        {
          "internalType": "address",
          "name": "stakeTokenAddress_",
          "type": "address"
        },
        {
          "internalType": "uint256",
          "name": "stakeRequiredAmount_",
          "type": "uint256"
        },
        {
          "internalType": "address",
          "name": "streamrRegistryAddress_",
          "type": "address"
        },
        {
          "internalType": "address[]",
          "name": "initialNodes",
          "type": "address[]"
        },
        {
          "internalType": "string[]",
          "name": "initialMetadata",
          "type": "string[]"
        }
      ],
      "name": "initialize",
      "outputs": [],
      "stateMutability": "nonpayable",
      "type": "function"
    },
    {
      "inputs": [
        {
          "internalType": "address",
          "name": "node",
          "type": "address"
        }
      ],
      "name": "isStaked",
      "outputs": [
        {
          "internalType": "bool",
          "name": "",
          "type": "bool"
        }
      ],
      "stateMutability": "view",
      "type": "function"
    },
    {
      "inputs": [
        {
          "internalType": "uint256",
          "name": "amount",
          "type": "uint256"
        },
        {
          "internalType": "string",
          "name": "metadata_",
          "type": "string"
        }
      ],
      "name": "join",
      "outputs": [],
      "stateMutability": "nonpayable",
      "type": "function"
    },
    {
      "inputs": [
        {
          "internalType": "address",
          "name": "nodeAddress",
          "type": "address"
        }
      ],
      "name": "kickNode",
      "outputs": [],
      "stateMutability": "nonpayable",
      "type": "function"
    },
    {
      "inputs": [],
      "name": "leave",
      "outputs": [],
      "stateMutability": "nonpayable",
      "type": "function"
    },
    {
      "inputs": [],
      "name": "nodeAddresses",
      "outputs": [
        {
          "internalType": "address[]",
          "name": "resultAddresses",
          "type": "address[]"
        }
      ],
      "stateMutability": "view",
      "type": "function"
    },
    {
      "inputs": [
        {
          "internalType": "address",
          "name": "node",
          "type": "address"
        }
      ],
      "name": "nodeStake",
      "outputs": [
        {
          "internalType": "uint256",
          "name": "",
          "type": "uint256"
        }
      ],
      "stateMutability": "view",
      "type": "function"
    },
    {
      "inputs": [
        {
          "internalType": "address",
          "name": "",
          "type": "address"
        }
      ],
      "name": "nodes",
      "outputs": [
        {
          "internalType": "uint256",
          "name": "index",
          "type": "uint256"
        },
        {
          "internalType": "string",
          "name": "metadata",
          "type": "string"
        },
        {
          "internalType": "uint256",
          "name": "lastSeen",
          "type": "uint256"
        },
        {
          "internalType": "address",
          "name": "next",
          "type": "address"
        },
        {
          "internalType": "address",
          "name": "prev",
          "type": "address"
        },
        {
          "internalType": "uint256",
          "name": "stake",
          "type": "uint256"
        }
      ],
      "stateMutability": "view",
      "type": "function"
    },
    {
      "inputs": [],
      "name": "owner",
      "outputs": [
        {
          "internalType": "address",
          "name": "",
          "type": "address"
        }
      ],
      "stateMutability": "view",
      "type": "function"
    },
    {
      "inputs": [
        {
          "internalType": "string",
          "name": "id",
          "type": "string"
        }
      ],
      "name": "processReport",
      "outputs": [],
      "stateMutability": "nonpayable",
      "type": "function"
    },
    {
      "inputs": [],
      "name": "proxiableUUID",
      "outputs": [
        {
          "internalType": "bytes32",
          "name": "",
          "type": "bytes32"
        }
      ],
      "stateMutability": "view",
      "type": "function"
    },
    {
      "inputs": [
        {
          "internalType": "address",
          "name": "contractAddress",
          "type": "address"
        }
      ],
      "name": "registerQueryManager",
      "outputs": [],
      "stateMutability": "nonpayable",
      "type": "function"
    },
    {
      "inputs": [
        {
          "internalType": "address",
          "name": "contractAddress",
          "type": "address"
        }
      ],
      "name": "registerReportManager",
      "outputs": [],
      "stateMutability": "nonpayable",
      "type": "function"
    },
    {
      "inputs": [
        {
          "internalType": "address",
          "name": "contractAddress",
          "type": "address"
        }
      ],
      "name": "registerStoreManager",
      "outputs": [],
      "stateMutability": "nonpayable",
      "type": "function"
    },
    {
      "inputs": [],
      "name": "removeNode",
      "outputs": [],
      "stateMutability": "nonpayable",
      "type": "function"
    },
    {
      "inputs": [
        {
          "internalType": "address",
          "name": "nodeAddress",
          "type": "address"
        }
      ],
      "name": "removeNodeAdmin",
      "outputs": [],
      "stateMutability": "nonpayable",
      "type": "function"
    },
    {
      "inputs": [],
      "name": "renounceOwnership",
      "outputs": [],
      "stateMutability": "nonpayable",
      "type": "function"
    },
    {
      "inputs": [],
      "name": "requiresWhitelist",
      "outputs": [
        {
          "internalType": "bool",
          "name": "",
          "type": "bool"
        }
      ],
      "stateMutability": "view",
      "type": "function"
    },
    {
      "inputs": [
        {
          "internalType": "bool",
          "name": "value",
          "type": "bool"
        }
      ],
      "name": "setRequiresWhitelist",
      "outputs": [],
      "stateMutability": "nonpayable",
      "type": "function"
    },
    {
      "inputs": [
        {
          "internalType": "uint256",
          "name": "amount",
          "type": "uint256"
        }
      ],
      "name": "stake",
      "outputs": [],
      "stateMutability": "nonpayable",
      "type": "function"
    },
    {
      "inputs": [
        {
          "internalType": "uint256",
          "name": "amount",
          "type": "uint256"
        },
        {
          "internalType": "address",
          "name": "node",
          "type": "address"
        }
      ],
      "name": "stakeAndDelegate",
      "outputs": [],
      "stateMutability": "nonpayable",
      "type": "function"
    },
    {
      "inputs": [],
      "name": "stakeRequiredAmount",
      "outputs": [
        {
          "internalType": "uint256",
          "name": "",
          "type": "uint256"
        }
      ],
      "stateMutability": "view",
      "type": "function"
    },
    {
      "inputs": [],
      "name": "stakeTokenAddress",
      "outputs": [
        {
          "internalType": "address",
          "name": "",
          "type": "address"
        }
      ],
      "stateMutability": "view",
      "type": "function"
    },
    {
      "inputs": [],
      "name": "startBlockNumber",
      "outputs": [
        {
          "internalType": "uint256",
          "name": "",
          "type": "uint256"
        }
      ],
      "stateMutability": "view",
      "type": "function"
    },
    {
      "inputs": [],
      "name": "tailNode",
      "outputs": [
        {
          "internalType": "address",
          "name": "",
          "type": "address"
        }
      ],
      "stateMutability": "view",
      "type": "function"
    },
    {
      "inputs": [],
      "name": "totalNodes",
      "outputs": [
        {
          "internalType": "uint256",
          "name": "",
          "type": "uint256"
        }
      ],
      "stateMutability": "view",
      "type": "function"
    },
    {
      "inputs": [],
      "name": "totalSupply",
      "outputs": [
        {
          "internalType": "uint256",
          "name": "",
          "type": "uint256"
        }
      ],
      "stateMutability": "view",
      "type": "function"
    },
    {
      "inputs": [
        {
          "internalType": "address",
          "name": "newOwner",
          "type": "address"
        }
      ],
      "name": "transferOwnership",
      "outputs": [],
      "stateMutability": "nonpayable",
      "type": "function"
    },
    {
      "inputs": [],
      "name": "treasurySupply",
      "outputs": [
        {
          "internalType": "uint256",
          "name": "",
          "type": "uint256"
        }
      ],
      "stateMutability": "view",
      "type": "function"
    },
    {
      "inputs": [
        {
          "internalType": "uint256",
          "name": "amount",
          "type": "uint256"
        }
      ],
      "name": "treasuryWithdraw",
      "outputs": [],
      "stateMutability": "nonpayable",
      "type": "function"
    },
    {
      "inputs": [
        {
          "internalType": "uint256",
          "name": "amount",
          "type": "uint256"
        },
        {
          "internalType": "address",
          "name": "node",
          "type": "address"
        }
      ],
      "name": "undelegate",
      "outputs": [],
      "stateMutability": "nonpayable",
      "type": "function"
    },
    {
      "inputs": [
        {
          "internalType": "uint256",
          "name": "amount",
          "type": "uint256"
        },
        {
          "internalType": "address",
          "name": "node",
          "type": "address"
        }
      ],
      "name": "undelegateWithdraw",
      "outputs": [],
      "stateMutability": "nonpayable",
      "type": "function"
    },
    {
      "inputs": [
        {
          "internalType": "address",
          "name": "newImplementation",
          "type": "address"
        }
      ],
      "name": "upgradeTo",
      "outputs": [],
      "stateMutability": "nonpayable",
      "type": "function"
    },
    {
      "inputs": [
        {
          "internalType": "address",
          "name": "newImplementation",
          "type": "address"
        },
        {
          "internalType": "bytes",
          "name": "data",
          "type": "bytes"
        }
      ],
      "name": "upgradeToAndCall",
      "outputs": [],
      "stateMutability": "payable",
      "type": "function"
    },
    {
      "inputs": [
        {
          "internalType": "string",
          "name": "metadata_",
          "type": "string"
        }
      ],
      "name": "upsertNode",
      "outputs": [],
      "stateMutability": "nonpayable",
      "type": "function"
    },
    {
      "inputs": [
        {
          "internalType": "address",
          "name": "node",
          "type": "address"
        },
        {
          "internalType": "string",
          "name": "metadata_",
          "type": "string"
        }
      ],
      "name": "upsertNodeAdmin",
      "outputs": [],
      "stateMutability": "nonpayable",
      "type": "function"
    },
    {
      "inputs": [
        {
          "internalType": "address",
          "name": "",
          "type": "address"
        }
      ],
      "name": "whitelist",
      "outputs": [
        {
          "internalType": "enum LogStoreNodeManager.WhitelistState",
          "name": "",
          "type": "uint8"
        }
      ],
      "stateMutability": "view",
      "type": "function"
    },
    {
      "inputs": [
        {
          "internalType": "address",
          "name": "nodeAddress",
          "type": "address"
        }
      ],
      "name": "whitelistApproveNode",
      "outputs": [],
      "stateMutability": "nonpayable",
      "type": "function"
    },
    {
      "inputs": [
        {
          "internalType": "address",
          "name": "nodeAddress",
          "type": "address"
        }
      ],
      "name": "whitelistRejectNode",
      "outputs": [],
      "stateMutability": "nonpayable",
      "type": "function"
    },
    {
      "inputs": [
        {
          "internalType": "uint256",
          "name": "amount",
          "type": "uint256"
        }
      ],
      "name": "withdraw",
      "outputs": [],
      "stateMutability": "nonpayable",
      "type": "function"
    }
  ],
  "bytecode": "0x60a080604052346100315730608052614109908161003782396080518181816118aa015281816119e3015261283c0152f35b600080fdfe608080604052600436101561001357600080fd5b600090813560e01c9081630106395f14612e4b5750806308bbb82414612e265780631204c48614612dda57806318160ddd14612dbc578063189a5a1714612c975780631ad603d014612c1c57806320a59a0314612bbf5780632af5758014612b555780632e1a7d4d14612b385780633659cfe6146128155780633cfb3d8a146124f057806345e863e0146124cb5780634632974314611d5557806346c198f614611d2d5780634830563414611d11578063498a4c2d14611cf25780634f1ef2861461196557806352d1902d1461188f5780635888799c146118255780635fc1a4b8146118075780636177fd18146117d957806365267139146116eb57806370a08231146116b2578063715018a614611656578063735e6c7a146113da57806375ed25dc1461139957806379e574cb146113585780638ce155861461132e5780638da5cb5b146113075780639592d424146112e85780639b19251a1461128c578063a5ee5b4114611269578063a694fc3a14611002578063a7cc540514610fce578063abad29a814610f7d578063b2a52fef14610eb2578063bfdf086614610e8a578063c10b522214610e24578063cd23d26814610de8578063d0d3f5ba14610dce578063d5c7096614610db0578063d66d9e1914610d5d578063e7b5895314610d2f578063e8d88aba14610cee578063f2fde38b14610c465763f6883c051461021b57600080fd5b34610c43576020366003190112610c435760043567ffffffffffffffff81116107a25761024c903690600401612ea1565b906102563361409f565b15610bfe5761010c926001600160a01b03845416918160405180946312e63d7160e01b8252818061028b898760048401613634565b03915afa9283156107975782936107f5575b506101008301516107b057815b606080850190815180518410156103df576102c78460409261341a565b5101516102df575b50506102da906133f5565b6102aa565b60206103436001600160a01b0361010a54166102fc86865161341a565b5151888461030b89895161341a565b51015195604061031c8a8a5161341a565b5101519660405197889687958694639ac0e98b60e01b865260048601526064850190612f9a565b916024840152604483015203925af180156103d457610388575b5090602061036f826102da945161341a565b51015161037f60fc91825461365c565b905590386102cf565b6020813d6020116103cc575b816103a160209383612f55565b810103126103c85761036f836102da94936103bd6020946134f9565b50935093505061035d565b8480fd5b3d9150610394565b6040513d87823e3d90fd5b505050508490825b60c08501805180518310156104eb576104028360409261341a565b510151610419575b50610414906133f5565b6103e7565b6001600160a01b0361010b54166001600160a01b0361043984845161341a565b515116602061044985855161341a565b51015190604061045a86865161341a565b51015192803b156104e757889291836064926040519687958694631ee2efa360e31b86526004860152602485015260448401525af180156104dc579086916104c8575b50509060206104b082610414945161341a565b5101516104c060fc91825461365c565b90559061040a565b6104d190612f09565b6103c857848861049d565b6040513d88823e3d90fd5b8880fd5b5050509390825b60808501805180518310156105af576001600160a01b0361057c84809483610520610589986105849761341a565b5151168a526101028060205260406105508c6005928391200154602061054787875161341a565b51015190613669565b918c8084131561058e57508661056786865161341a565b5151168d5260205260408c2001555b5161341a565b515116613f23565b6133f5565b6104f2565b92508661059c86865161341a565b5151168352602052604082200155610576565b85808987878b5b60a08101938451518710156106e357855b60206105d489885161341a565b510151518110156106cb578088602061061a83826106076001600160a01b0361060f610691998f6106078a87925161341a565b51015161341a565b515116958d5161341a565b510151906001600160a01b036106318c8b5161341a565b5151168a52610657610105928360205260408c2083600052602052604060002054613669565b918a831315610696576001600160a01b036106738d8c5161341a565b5151168b5260205260408a20906000526020526040600020556133f5565b6105c7565b9091506001600160a01b036106ac8c8b5161341a565b5151168a526020526040892090600052602052876040600020556133f5565b509291956106da9194506133f5565b949091926105b6565b935084916107016001600160a01b0392604060fd5491015190613669565b838113156107a65760fd555b5416803b156107a25781604051809263f6883c0560e01b8252818381610737898b60048401613634565b03925af180156107975761077f575b50507fbcd21d99bbf55769881dda49c45043a8750d2229c330cdddd4718575f72364029161077960405192839283613634565b0390a180f35b61078890612f09565b610793578284610746565b8280fd5b6040513d84823e3d90fd5b5080fd5b508260fd5561070d565b60405162461bcd60e51b815260206004820152601c60248201527f6572726f725f7265706f7274416c726561647950726f636573736564000000006044820152606490fd5b9092503d908183823e6108088282612f55565b60208183810103126107935780519067ffffffffffffffff8211610bfa57610120928383830182840103126103c85760405193840184811067ffffffffffffffff821117610be4576040528282015167ffffffffffffffff8111610aaa57610877908284019085850101613552565b845281830160208181015190860152604080820151908601526060015167ffffffffffffffff8111610aaa57818301601f8286860101011215610aaa57808484010151906108c482612fbf565b916108d26040519384612f55565b808352602083019184860160208360051b838a8a01010101116104e7576020818888010101925b60208360051b838a8a010101018410610b4b575050505060608501526080838301015167ffffffffffffffff8111610aaa5761093c9082840190858501016135ab565b608085015260a0838301015167ffffffffffffffff8111610aaa57818301601f8286860101011215610aaa5780848401015161097781612fbf565b916109856040519384612f55565b818352602083019084860160208460051b838a8a01010101116104e7576020818888010101915b60208460051b838a8a010101018310610aae575050505060a085015260c0838301015167ffffffffffffffff8111610aaa5783830101818301601f82011215610aaa578051906109fb82612fbf565b92610a096040519485612f55565b8284526020606081860194028301019181860183116104e757602001925b828410610a65575050505060c0840152610a5a90610a4983820160e001613597565b60e0850152610100920182016134f9565b90820152913861029d565b60608483880103126104e7576020606091604051610a8281612f1d565b610a8b87613597565b8152828701518382015260408701516040820152815201930192610a27565b8580fd5b825167ffffffffffffffff8111610b47576040888a0184018201888a0103601f190112610b475760405190610ae282612f39565b610af4602082868d8d01010101613597565b8252604081858c8c01010101519067ffffffffffffffff8211610b43579260209392610b328b868096958f968a8f98849986019501010101016135ab565b8382015281520193019290506109ac565b8c80fd5b8a80fd5b835167ffffffffffffffff8111610b47576060888a0184018201888a0103601f190112610b475760405190610b7f82612f1d565b602081858c8c010101015167ffffffffffffffff8111610b435792602093926060859493878e8e610bbf8f988a809a840191878787870101010101613552565b86520101016040818101518685015291015190820152815291909501940190506108f9565b634e487b7160e01b600052604160045260246000fd5b8380fd5b60405162461bcd60e51b815260206004820152601360248201527f6572726f725f7374616b655265717569726564000000000000000000000000006044820152606490fd5b80fd5b5034610c43576020366003190112610c4357610c60612e8b565b610c68613065565b6001600160a01b03811615610c8357610c80906130bd565b80f35b60405162461bcd60e51b815260206004820152602660248201527f4f776e61626c653a206e6577206f776e657220697320746865207a65726f206160448201527f64647265737300000000000000000000000000000000000000000000000000006064820152608490fd5b5034610c43576020366003190112610c4357610d08612e8b565b610d10613065565b6001600160a01b0361010c91166001600160a01b031982541617905580f35b5034610c43576040366003190112610c4357610c80600435610d58610d52612e70565b82613809565b6138ed565b5034610c435780600319360112610c43573381526101056020526040812033600052602052610d9133604060002054613809565b338152610104602052610da760408220546138ed565b610c8033613cdb565b5034610c435780600319360112610c4357602060fe54604051908152f35b5034610c435780600319360112610c4357610c8033613cdb565b5034610c43576020366003190112610c4357600560406020926001600160a01b03610e11612e8b565b1681526101028452200154604051908152f35b5034610c435780600319360112610c4357610e3d613feb565b90604051918291602080840190808552835180925280604086019401925b828110610e6a57505050500390f35b83516001600160a01b031685528695509381019392810192600101610e5b565b5034610c435780600319360112610c435760206001600160a01b036101075416604051908152f35b5034610c43576020366003190112610c435760043567ffffffffffffffff81116107a257610ee4903690600401612ea1565b60ff60fb5416158015610f46575b15610f0157610c8091336139e6565b60405162461bcd60e51b815260206004820152601160248201527f6572726f725f6e6f74417070726f7665640000000000000000000000000000006044820152606490fd5b5033835261010360205260ff6040842054166003811015610f6957600114610ef2565b634e487b7160e01b84526021600452602484fd5b5034610c43576040366003190112610c4357610f97612e8b565b6040610fa1612e70565b926001600160a01b0380931681526101056020522091166000526020526020604060002054604051908152f35b5034610c435780600319360112610c4357610ffe610fea61302c565b604051918291602083526020830190612f9a565b0390f35b5034610c43576020806003193601126107a257600435600260c9541461122457600260c95580156111df576001600160a01b0361010960248483835416604051928380926370a0823160e01b82523360048301525afa80156104dc57849187916111ae575b5010611169579160648492869433865261010485526040862061108b85825461365c565b90556110998460fc5461365c565b60fc5554169160405194859384926323b872dd60e01b845233600485015230602485015260448401525af1801561115e578390611129575b600191501515036110e55750600160c95580f35b6064906040519062461bcd60e51b82526004820152601760248201527f6572726f725f756e7375636365737366756c5374616b650000000000000000006044820152fd5b508181813d8311611157575b61113f8183612f55565b81010312610793576111526001916134f9565b6110d1565b503d611135565b6040513d85823e3d90fd5b60405162461bcd60e51b815260048101859052601960248201527f6572726f725f696e73756666696369656e7442616c616e6365000000000000006044820152606490fd5b809250868092503d83116111d8575b6111c78183612f55565b81010312610aaa5783905138611067565b503d6111bd565b60405162461bcd60e51b815260048101839052601760248201527f6572726f725f696e73756666696369656e745374616b650000000000000000006044820152606490fd5b60405162461bcd60e51b815260048101839052601f60248201527f5265656e7472616e637947756172643a207265656e7472616e742063616c6c006044820152606490fd5b5034610c435780600319360112610c4357602060ff60fb54166040519015158152f35b5034610c43576020366003190112610c43576001600160a01b036112ae612e8b565b16815261010360205260ff6040822054166040519060038110156112d457602092508152f35b634e487b7160e01b83526021600452602483fd5b5034610c435780600319360112610c4357602061010054604051908152f35b5034610c435780600319360112610c435760206001600160a01b0360975416604051908152f35b5034610c43576020366003190112610c4357610c8061134b612e8b565b611353613065565b613cdb565b5034610c43576020366003190112610c4357611372612e8b565b61137a613065565b6001600160a01b0361010b91166001600160a01b031982541617905580f35b5034610c43576020366003190112610c43576113b3612e8b565b6113bb613065565b6001600160a01b0361010a91166001600160a01b031982541617905580f35b5034610c43576040366003190112610c4357600435906113f8612e70565b600260c9541461161157600260c95582156115cc576001600160a01b039261010993808554169460405180966370a0823160e01b82523360048301528160246020998a935afa9081156104dc57908491879161159b575b5010611556578491869133845261010483526040842061147086825461365c565b905561147e8560fc5461365c565b60fc5554166064604051809481936323b872dd60e01b83523360048401523060248401528760448401525af1801561154b578490611516575b600191501515036114d15790610c8091600160c95561371c565b60405162461bcd60e51b815260048101859052601760248201527f6572726f725f756e7375636365737366756c5374616b650000000000000000006044820152606490fd5b508481813d8311611544575b61152c8183612f55565b81010312610bfa5761153f6001916134f9565b6114b7565b503d611522565b6040513d86823e3d90fd5b60405162461bcd60e51b815260048101879052601960248201527f6572726f725f696e73756666696369656e7442616c616e6365000000000000006044820152606490fd5b809250888092503d83116115c5575b6115b48183612f55565b81010312610aaa578390513861144f565b503d6115aa565b60405162461bcd60e51b815260206004820152601760248201527f6572726f725f696e73756666696369656e745374616b650000000000000000006044820152606490fd5b60405162461bcd60e51b815260206004820152601f60248201527f5265656e7472616e637947756172643a207265656e7472616e742063616c6c006044820152606490fd5b5034610c435780600319360112610c435761166f613065565b60006001600160a01b036097546001600160a01b03198116609755167f8be0079c531659141344cd1fd0a4f28419497f9722a3daafe3b4186f6b6457e08280a380f35b5034610c43576020366003190112610c435760406020916001600160a01b036116d9612e8b565b16815261010483522054604051908152f35b5034610c43576020366003190112610c435780602061177960043561170e613065565b6117358160fd54611721818311156134a0565b61172d8260fc546134ec565b60fc556134ec565b60fd556001600160a01b0361010954169060405194858094819363a9059cbb60e01b83523360048401602090939291936001600160a01b0360408201951681520152565b03925af190811561079757829161179a575b506001610c8091151514613506565b90506020813d82116117d1575b816117b460209383612f55565b810103126107a25760016117ca610c80926134f9565b915061178b565b3d91506117a7565b5034610c43576020366003190112610c435760206117fd6117f8612e8b565b61409f565b6040519015158152f35b5034610c435780600319360112610c4357602060fd54604051908152f35b5034610c43576020366003190112610c43576001600160a01b03611847612e8b565b61184f613065565b1680825261010360205260408220805460ff191660011790557fdfe83f699699403a4b116b6f9504680228c3f319bbf5ab26b48a81d3005d98b28280a280f35b5034610c435780600319360112610c43576001600160a01b037f00000000000000000000000000000000000000000000000000000000000000001630036118fa5760206040517f360894a13ba1a3210667c828492db98dca3e2076cc3735a920a3ca505d382bbc8152f35b60405162461bcd60e51b815260206004820152603860248201527f555550535570677261646561626c653a206d757374206e6f742062652063616c60448201527f6c6564207468726f7567682064656c656761746563616c6c00000000000000006064820152608490fd5b506040366003190112610c435761197a612e8b565b90602491823567ffffffffffffffff81116107935736602382011215610793578060040135906119a982612fd7565b6119b66040519182612f55565b8281526020928382019236888383010111611cee57818792898793018637830101526001600160a01b03807f00000000000000000000000000000000000000000000000000000000000000001690611a1082301415613105565b611a3f7f360894a13ba1a3210667c828492db98dca3e2076cc3735a920a3ca505d382bbc928284541614613177565b611a47613065565b7f4910fdfa16fed3260ed0e7147f7cc6da11a60208b5b9406d12a635614ffd91435460ff1615611a81575050505050610c809192506131e9565b8596949616906040516352d1902d60e01b81528781600481865afa60009181611cbf575b50611b055760405162461bcd60e51b815260048101899052602e818b01527f45524331393637557067726164653a206e657720696d706c656d656e7461746960448201526d6f6e206973206e6f74205555505360901b6064820152608490fd5b979192939496959703611c6a57611b1b876131e9565b604051917fbc7cd75a20ee27fd9adebab32041f755214dbc6bffa90cc0225b39da2e5c2d3b600080a2825115801590611c62575b611b5e575b5050505050905080f35b863b15611c12575050611bfe9394600092839251915af43d15611c0a573d90611b8682612fd7565b91611b946040519384612f55565b82523d60008484013e5b7f416464726573733a206c6f772d6c6576656c2064656c65676174652063616c6c60405193611bcc85612f1d565b602785528401527f206661696c6564000000000000000000000000000000000000000000000000006040840152613297565b50803880808080611b54565b606090611b9e565b62461bcd60e51b8252600482018590526026908201527f416464726573733a2064656c65676174652063616c6c20746f206e6f6e2d636f6044820152651b9d1c9858dd60d21b6064820152608490fd5b506001611b4f565b8460296084926040519262461bcd60e51b845260048401528201527f45524331393637557067726164653a20756e737570706f727465642070726f786044820152681a58589b195555525160ba1b6064820152fd5b90918982813d8311611ce7575b611cd68183612f55565b81010312610c435750519038611aa5565b503d611ccc565b8680fd5b5034610c435780600319360112610c4357602061010154604051908152f35b5034610c435780600319360112610c4357610ffe610fea612ff3565b5034610c435780600319360112610c435760206001600160a01b036101065416604051908152f35b5034610c435760e0366003190112610c4357611d6f612e8b565b602435801515810361079357604435906001600160a01b0382168203610bfa576084356001600160a01b03811681036103c85760a4359267ffffffffffffffff8411610aaa5736602385011215610aaa57836004013593611dcf85612fbf565b94611ddd6040519687612f55565b80865260208601913660248360051b830101116104e7579160248301925b60248360051b82010184106124a0575050505067ffffffffffffffff60c43511610aaa5736602360c435011215610aaa5767ffffffffffffffff60c4356004013511610aaa5736602460c4356004013560051b60c435010111610aaa5785549260ff8460081c161593848095612493575b801561247c575b156124115760ff19808216600117895560ff9186612400575b50611e9f60c435600401358851146132db565b6001600160a01b0384161515806123f5575b611eba906132db565b611ed2828a5460081c16611ecd8161342e565b61342e565b611edb336130bd565b611ef7828a5460081c16611eee8161342e565b611ecd8161342e565b600160c95560fb5416911515161760fb556001600160a01b036001600160a01b03199161010982821684825416179055168160ff54161760ff5560643560fe556001600160a01b0382169061010d54161761010d5584611f55612ff3565b91611f5e61302c565b906001600160a01b0381163b1561079357611fa4836001600160a01b03611fb69660405197889687958693630ef8cdc760e01b8552604060048601526044850190612f9a565b83810360031901602485015290612f9a565b0393165af180156103d4576123e2575b5060405130611fd482612f1d565b602a825260403660208401378151156121925760306020830153815160011015612192576078602183015360295b60018111612363575061231f57612055602061201c612ff3565b9260405193816120358693518092868087019101612f77565b820161204982518093868085019101612f77565b01038084520182612f55565b80519067ffffffffffffffff821161230b57819061207561010854612ecf565b601f81116122b0575b50602090601f831160011461222657879261221b575b50508160011b916000199060031b1c191617610108555b836001600160a01b0361010d5416803b156107a257816040518092632337c3c760e11b8252604060048301528183816120e66044820161333e565b6003602483015203925af1801561079757612207575b505b82518110156121a6576001600160a01b03612119828561341a565b51169060c435600401358110156121925760248160051b60c43501013560421960c435360301811215611cee5760c435019167ffffffffffffffff602484013511611cee57602483013536036044840113611cee5761218d926105849161217e613065565b604460248301359201906139e6565b6120fe565b634e487b7160e01b86526032600452602486fd5b8482856121b1613065565b6001600160a01b03811615610c83576121c9906130bd565b6121d05780f35b61ff001981541681557f7f26b83ff96e1f2b6a682f133852f6798a09c465da95921460cefb3847402498602060405160018152a180f35b61221090612f09565b610bfa5783386120fc565b015190503880612094565b925061010887527f8543e9adbfbe1f62b7411fdf032fcfea758a7d6b332f64d971a1334c2ff364dd9087935b601f1984168510612295576001945083601f1981161061227c575b505050811b01610108556120ab565b015160001960f88460031b161c1916905538808061226d565b81810151835560209485019460019093019290910190612252565b6122fb906101086000527f8543e9adbfbe1f62b7411fdf032fcfea758a7d6b332f64d971a1334c2ff364dd601f850160051c81019160208610612301575b601f0160051c0190613327565b3861207e565b90915081906122ee565b634e487b7160e01b86526041600452602486fd5b606460405162461bcd60e51b815260206004820152602060248201527f537472696e67733a20686578206c656e67746820696e73756666696369656e746044820152fd5b906010600f821610156123ce5782518210156123b857807f3031323334353637383961626364656600000000000000000000000000000000600f6123b393161a6020848601015360041c91613cce565b612002565b634e487b7160e01b600052603260045260246000fd5b634e487b7160e01b87526032600452602487fd5b6123ee90949194612f09565b9238611fc6565b506064351515611eb1565b61ffff191661010117895538611e8c565b60405162461bcd60e51b815260206004820152602e60248201527f496e697469616c697a61626c653a20636f6e747261637420697320616c72656160448201527f647920696e697469616c697a65640000000000000000000000000000000000006064820152608490fd5b50303b158015611e735750600160ff821614611e73565b50600160ff821610611e6c565b6001600160a01b038435168435036124c75760208060249386358152019401939150611dfb565b8980fd5b5034610c43576040366003190112610c4357610c806124e8612e70565b600435613809565b5034610c43576040366003190112610c43576004356024803567ffffffffffffffff8111610bfa57612526903690600401612ea1565b9060ff60fb54161580156127df575b1561279b579061254591336139e6565b600260c9541461275757600260c9558115612713576001600160a01b039061010991808354169260405180946370a0823160e01b8252336004830152818560209788935afa801561270857869188916126d7575b501061269357859184913384526101048352604084206125ba88825461365c565b90556125c88760fc5461365c565b60fc5554166064604051809481936323b872dd60e01b835233600484015230888401528960448401525af180156103d457859061265e575b6001915015150361261b57600160c95583610c80338561371c565b9060176064926040519262461bcd60e51b845260048401528201527f6572726f725f756e7375636365737366756c5374616b650000000000000000006044820152fd5b508281813d831161268c575b6126748183612f55565b810103126103c8576126876001916134f9565b612600565b503d61266a565b60405162461bcd60e51b8152600481018590526019818501527f6572726f725f696e73756666696369656e7442616c616e6365000000000000006044820152606490fd5b809250868092503d8311612701575b6126f08183612f55565b81010312611cee5785905138612599565b503d6126e6565b6040513d89823e3d90fd5b60649060176040519162461bcd60e51b8352602060048401528201527f6572726f725f696e73756666696369656e745374616b650000000000000000006044820152fd5b606490601f6040519162461bcd60e51b8352602060048401528201527f5265656e7472616e637947756172643a207265656e7472616e742063616c6c006044820152fd5b60405162461bcd60e51b8152602060048201526011818501527f6572726f725f6e6f74417070726f7665640000000000000000000000000000006044820152606490fd5b5033855261010360205260ff604086205416600381101561280257600114612535565b634e487b7160e01b865260216004528386fd5b5034610c43576020806003193601126107a257612830612e8b565b906001600160a01b03807f00000000000000000000000000000000000000000000000000000000000000001661286881301415613105565b6128977f360894a13ba1a3210667c828492db98dca3e2076cc3735a920a3ca505d382bbc918383541614613177565b61289f613065565b604051908382019282841067ffffffffffffffff851117612b24578360405286835260ff7f4910fdfa16fed3260ed0e7147f7cc6da11a60208b5b9406d12a635614ffd914354166000146128fb575050505050610c80906131e9565b8596949516906040516352d1902d60e01b81528681600481865afa869181612af5575b5061297f5760405162461bcd60e51b815260048101889052602e60248201527f45524331393637557067726164653a206e657720696d706c656d656e7461746960448201526d6f6e206973206e6f74205555505360901b6064820152608490fd5b95949503612a9e57612990866131e9565b604051907fbc7cd75a20ee27fd9adebab32041f755214dbc6bffa90cc0225b39da2e5c2d3b8680a2815115801590612a97575b6129d1575b50505050905080f35b853b15612a4657509280948192612a3b9551915af43d15611c0a573d906129f782612fd7565b91612a056040519384612f55565b82523d858484013e7f416464726573733a206c6f772d6c6576656c2064656c65676174652063616c6c60405193611bcc85612f1d565b5080388080806129c8565b62461bcd60e51b815260048101849052602660248201527f416464726573733a2064656c65676174652063616c6c20746f206e6f6e2d636f6044820152651b9d1c9858dd60d21b6064820152608490fd5b50846129c3565b60405162461bcd60e51b815260048101859052602960248201527f45524331393637557067726164653a20756e737570706f727465642070726f786044820152681a58589b195555525160ba1b6064820152608490fd5b9091508781813d8311612b1d575b612b0d8183612f55565b81010312611cee5751903861291e565b503d612b03565b634e487b7160e01b87526041600452602487fd5b5034610c43576020366003190112610c4357610c806004356138ed565b5034610c43576020366003190112610c43576001600160a01b03612b77612e8b565b612b7f613065565b1680825261010360205260408220805460ff191660021790557fbbe2a784aa6240d8175fa65a8459058efd8f44c5ab66caa2525fe9d6342108788280a280f35b5034610c43576020366003190112610c43576004358015158091036107a257612be6613065565b60ff1960fb541660ff82161760fb557f7623db9c426686f05cec977c4cadb8ff9657502540ca665ae347731114dac69d8280a280f35b5034610c43576020366003190112610c4357610c80612c39612e8b565b612c41613065565b612c49613065565b6001600160a01b03811680845261010360205260408420805460ff191660021790557fbbe2a784aa6240d8175fa65a8459058efd8f44c5ab66caa2525fe9d6342108788480a2611353613065565b5034610c435760209081600319360112610c43576001600160a01b0380612cbc612e8b565b168252610102835260408220918254928460018083019360405194859282825492612ce684612ecf565b80875293838116908115612d975750600114612d5a575b50505050612d0d92500383612f55565b600281015492612d41600582600385015416926004850154169301549360c0604051988998895288015260c0870190612f9a565b9360408601526060850152608084015260a08301520390f35b815285812095935091905b818310612d7f575089945050820101612d0d388080612cfd565b85548884018501529485019487945091830191612d65565b9350505050612d0d94925060ff191682840152151560051b8201018792388080612cfd565b5034610c435780600319360112610c4357602060fc54604051908152f35b5034610c43576040366003190112610c4357612df4612e8b565b6024359067ffffffffffffffff821161079357612e18610c80923690600401612ea1565b91612e21613065565b6139e6565b5034610c43576040366003190112610c4357610c80612e43612e70565b60043561371c565b9050346107a257816003193601126107a2576020906001600160a01b0360ff54168152f35b602435906001600160a01b0382168203612e8657565b600080fd5b600435906001600160a01b0382168203612e8657565b9181601f84011215612e865782359167ffffffffffffffff8311612e865760208381860195010111612e8657565b90600182811c92168015612eff575b6020831014612ee957565b634e487b7160e01b600052602260045260246000fd5b91607f1691612ede565b67ffffffffffffffff8111610be457604052565b6060810190811067ffffffffffffffff821117610be457604052565b6040810190811067ffffffffffffffff821117610be457604052565b90601f8019910116810190811067ffffffffffffffff821117610be457604052565b60005b838110612f8a5750506000910152565b8181015183820152602001612f7a565b90602091612fb381518092818552858086019101612f77565b601f01601f1916010190565b67ffffffffffffffff8111610be45760051b60200190565b67ffffffffffffffff8111610be457601f01601f191660200190565b6040519061300082612f39565b600782527f2f73797374656d000000000000000000000000000000000000000000000000006020830152565b6040519061303982612f39565b601382527f7b2022706172746974696f6e73223a2031207d000000000000000000000000006020830152565b6001600160a01b0360975416330361307957565b606460405162461bcd60e51b815260206004820152602060248201527f4f776e61626c653a2063616c6c6572206973206e6f7420746865206f776e65726044820152fd5b609754906001600160a01b0380911691826001600160a01b0319821617609755167f8be0079c531659141344cd1fd0a4f28419497f9722a3daafe3b4186f6b6457e0600080a3565b1561310c57565b60405162461bcd60e51b815260206004820152602c60248201527f46756e6374696f6e206d7573742062652063616c6c6564207468726f7567682060448201527f64656c656761746563616c6c00000000000000000000000000000000000000006064820152608490fd5b1561317e57565b60405162461bcd60e51b815260206004820152602c60248201527f46756e6374696f6e206d7573742062652063616c6c6564207468726f7567682060448201527f6163746976652070726f787900000000000000000000000000000000000000006064820152608490fd5b803b1561322c576001600160a01b037f360894a13ba1a3210667c828492db98dca3e2076cc3735a920a3ca505d382bbc91166001600160a01b0319825416179055565b60405162461bcd60e51b815260206004820152602d60248201527f455243313936373a206e657720696d706c656d656e746174696f6e206973206e60448201527f6f74206120636f6e7472616374000000000000000000000000000000000000006064820152608490fd5b909190156132a3575090565b8151156132b35750805190602001fd5b60405162461bcd60e51b8152602060048201529081906132d7906024830190612f9a565b0390fd5b156132e257565b60405162461bcd60e51b815260206004820152601460248201527f6572726f725f626164547261636b6572446174610000000000000000000000006044820152606490fd5b818110613332575050565b60008155600101613327565b9060009161010890815461335181612ecf565b808352926001918083169081156133d05750600114613371575b50505050565b90929394506000527f8543e9adbfbe1f62b7411fdf032fcfea758a7d6b332f64d971a1334c2ff364dd916000925b8484106133b8575050602092500101903880808061336b565b8054602085850181019190915290930192810161339f565b92505050602093945060ff929192191683830152151560051b0101903880808061336b565b60001981146134045760010190565b634e487b7160e01b600052601160045260246000fd5b80518210156123b85760209160051b010190565b1561343557565b60405162461bcd60e51b815260206004820152602b60248201527f496e697469616c697a61626c653a20636f6e7472616374206973206e6f74206960448201527f6e697469616c697a696e670000000000000000000000000000000000000000006064820152608490fd5b156134a757565b60405162461bcd60e51b815260206004820152601460248201527f6572726f725f6e6f74456e6f7567685374616b650000000000000000000000006044820152606490fd5b9190820391821161340457565b51908115158203612e8657565b1561350d57565b60405162461bcd60e51b815260206004820152601a60248201527f6572726f725f756e7375636365737366756c57697468647261770000000000006044820152606490fd5b81601f82011215612e8657805161356881612fd7565b926135766040519485612f55565b81845260208284010111612e86576135949160208085019101612f77565b90565b51906001600160a01b0382168203612e8657565b81601f82011215612e86578051906135c282612fbf565b926040926135d284519586612f55565b808552602091828087019260061b85010193818511612e86578301915b8483106135ff5750505050505090565b8583830312612e8657838691825161361681612f39565b61361f86613597565b815282860151838201528152019201916135ef565b90918060409360208452816020850152848401376000828201840152601f01601f1916010190565b9190820180921161340457565b9190916000838201938412911290801582169115161761340457565b1561368c57565b606460405162461bcd60e51b815260206004820152602060248201527f6572726f725f696e73756666696369656e7444656c6567617465416d6f756e746044820152fd5b156136d757565b60405162461bcd60e51b815260206004820152601160248201527f6572726f725f696e76616c69644e6f64650000000000000000000000000000006044820152606490fd5b613727811515613685565b6001600160a01b0382169160008381526101029160209280845260409283916137576002848420015415156136d0565b338252610104865282822061376d8882546134ec565b90553382526137b2610105948588528484208a855288528484206137928a825461365c565b90558984528288526005858520016137ab8a825461365c565b9055613f23565b87825285526005828220015492338252855281812087825285522054928251948552840152820152600160608201527f4c2cbb7d33d36a22e34970133436a2156c82cefc2dadfd9537fcfc177b40f03560803392a3565b613814811515613685565b6001600160a01b038216916000908382526101026020918183526040916138426002848720015415156136d0565b3385526138966101059283865284872089885286528487206138658982546134ec565b905588875282865260058588200161387e8982546134ec565b905533875261010486528487206137ab89825461365c565b86855283526005828520015490338552835281842086855283528184205492825195865285015283015260608201527f4c2cbb7d33d36a22e34970133436a2156c82cefc2dadfd9537fcfc177b40f03560803392a3565b600033815280610104613977602094828693845261391160408620548311156134a0565b3385528352604084206139258282546134ec565b90556139338160fc546134ec565b60fc556001600160a01b0361010954169060405195868094819363a9059cbb60e01b83523360048401602090939291936001600160a01b0360408201951681520152565b03925af19283156139d957819361399c575b505050600161399a91151514613506565b565b9091809350813d83116139d2575b6139b48183612f55565b81010312610c43575060016139cb61399a926134f9565b9138613989565b503d6139aa565b50604051903d90823e3d90fd5b9190916001600160a01b03809116916000938385526020906101028252604086209386936002860191825415613c26575b5060018096019267ffffffffffffffff8211613c12578190613a398554612ecf565b601f8111613be4575b508990601f8311600114613b85578a92613b7a575b5050600019600383901b1c191690861b1782555b429055604051936040855286825492613a8384612ecf565b938460408901528381169081600014613b2f5750600114613ad5575b505050509180917f5efa14ec2c459017dc330f0b3e8f2f26bee624ba1c66a50805faf6bf28bfb0b59342908301521515940390a3565b908094985052868084205b838510613b1a5750505050820160600193817f5efa14ec2c459017dc330f0b3e8f2f26bee624ba1c66a50805faf6bf28bfb0b58438613a9f565b80548786016060015293019287908201613ae0565b60ff19166060808a019190915294151560051b880190940198508593507f5efa14ec2c459017dc330f0b3e8f2f26bee624ba1c66a50805faf6bf28bfb0b59250869150389050613a9f565b013590503880613a57565b858b52868b2089945091601f1984168c5b89828210613bce5750508411613bb4575b505050811b018255613a6b565b0135600019600384901b60f8161c19169055388080613ba7565b8385013586558c97909501949283019201613b96565b613c0c90868c52878c20601f850160051c81019189861061230157601f0160051c0190613327565b38613a42565b634e487b7160e01b89526041600452602489fd5b9450600194610106908082541615600014613c905750876001600160a01b031982541617905543610101555b610107876001600160a01b0319825416179055610100805490868201809211613c7c575538613a17565b634e487b7160e01b8a52601160045260248afd5b905061010790808254168a52600360408b2001916001600160a01b0319928a8482541617905554166004880191825416179055610100548655613c52565b8015613404576000190190565b906001600160a01b03809216600092818452610102602090808252604080872091600283015415613edf5790829160048996959401938585541680613eb6575b5060038094018681541680613e90575b506101069586548a89821614613e78575b5061010790815490898c81841614613e5e575b5050505088885282825287600585822082815560019d8e80830190613d748254612ecf565b80613e21575b5050506002820155828882015582600482015501556101008054906000198201918211613c7c57555486168a5b613dec575b50505050507fcfc24166db4bb677e857cacabd1541fb2b30645021b27c5130419589b84db52b93949550541615613de2575b80a2565b8061010155613dde565b86168015613e1c57808852828252838820613e078154613cce565b9055875281815285848489200154168a613da7565b613dac565b601f8111600114613e39575050555b82388f81613d7a565b613e5291838552601f8a86209201871c82019101613327565b81878120915555613e30565b6001600160a01b0319915416911617905538808089613d4f565b6001600160a01b031989845416911617875538613d3c565b878754169089528383526004858a2001906001600160a01b031982541617905538613d2b565b86600386015416908852828252600384892001906001600160a01b031982541617905538613d1b565b815162461bcd60e51b815260048101859052600e60248201527f6572726f725f6e6f74466f756e640000000000000000000000000000000000006044820152606490fd5b6001600160a01b039081166000818152610102602052604081206005015460fe5491939111613fb65761010d5416803b1561079357829182916040518095818094634cbf455560e11b825260606004830152613f816064830161333e565b9060248301526002604483015203925af1908115613faa5750613fa15750565b61399a90612f09565b604051903d90823e3d90fd5b61010d5416803b1561079357829182916040518095818094631f1cbd7560e11b825260606004830152613f816064830161333e565b61010054613ff881612fbf565b9060409061400882519384612f55565b808352614017601f1991612fbf565b016020903682850137610106546001600160a01b03908116848115614096575091600060019384805b61404f575b5050505050505090565b15614089575b60009084614063848a61341a565b911680915281526101028352614081846003888420015416926133f5565b919085614040565b8381166140555780614045565b94505050505090565b60fe5480151591826140b057505090565b6001600160a01b039192501660005261010260205260056040600020015410159056fea26469706673582212205f3b8cc24fd423b2beb980ed5597bce179133ed89a8b3d5db5170986ca3ca5ea64736f6c63430008110033",
  "linkReferences": {},
  "deployedLinkReferences": {}
}