{
  "_format": "hh-sol-artifact-1",
  "contractName": "LogStoreNodeManager",
  "sourceName": "src/NodeManager.sol",
  "abi": [
    {
      "anonymous": false,
      "inputs": [
        {
          "indexed": false,
          "internalType": "address",
          "name": "previousAdmin",
          "type": "address"
        },
        {
          "indexed": false,
          "internalType": "address",
          "name": "newAdmin",
          "type": "address"
        }
      ],
      "name": "AdminChanged",
      "type": "event"
    },
    {
      "anonymous": false,
      "inputs": [
        {
          "indexed": true,
          "internalType": "address",
          "name": "beacon",
          "type": "address"
        }
      ],
      "name": "BeaconUpgraded",
      "type": "event"
    },
    {
      "anonymous": false,
      "inputs": [
        {
          "indexed": false,
          "internalType": "uint8",
          "name": "version",
          "type": "uint8"
        }
      ],
      "name": "Initialized",
      "type": "event"
    },
    {
      "anonymous": false,
      "inputs": [
        {
          "indexed": true,
          "internalType": "address",
          "name": "nodeAddress",
          "type": "address"
        }
      ],
      "name": "NodeRemoved",
      "type": "event"
    },
    {
      "anonymous": false,
      "inputs": [
        {
          "indexed": true,
          "internalType": "address",
          "name": "nodeAddress",
          "type": "address"
        },
        {
          "indexed": false,
          "internalType": "string",
          "name": "metadata",
          "type": "string"
        },
        {
          "indexed": true,
          "internalType": "bool",
          "name": "isNew",
          "type": "bool"
        },
        {
          "indexed": false,
          "internalType": "uint256",
          "name": "lastSeen",
          "type": "uint256"
        }
      ],
      "name": "NodeUpdated",
      "type": "event"
    },
    {
      "anonymous": false,
      "inputs": [
        {
          "indexed": true,
          "internalType": "address",
          "name": "nodeAddress",
          "type": "address"
        }
      ],
      "name": "NodeWhitelistApproved",
      "type": "event"
    },
    {
      "anonymous": false,
      "inputs": [
        {
          "indexed": true,
          "internalType": "address",
          "name": "nodeAddress",
          "type": "address"
        }
      ],
      "name": "NodeWhitelistRejected",
      "type": "event"
    },
    {
      "anonymous": false,
      "inputs": [
        {
          "indexed": true,
          "internalType": "address",
          "name": "previousOwner",
          "type": "address"
        },
        {
          "indexed": true,
          "internalType": "address",
          "name": "newOwner",
          "type": "address"
        }
      ],
      "name": "OwnershipTransferred",
      "type": "event"
    },
    {
      "anonymous": false,
      "inputs": [
        {
          "indexed": false,
          "internalType": "string",
          "name": "id",
          "type": "string"
        }
      ],
      "name": "ReportProcessed",
      "type": "event"
    },
    {
      "anonymous": false,
      "inputs": [
        {
          "indexed": true,
          "internalType": "bool",
          "name": "value",
          "type": "bool"
        }
      ],
      "name": "RequiresWhitelistChanged",
      "type": "event"
    },
    {
      "anonymous": false,
      "inputs": [
        {
          "indexed": true,
          "internalType": "address",
          "name": "delegate",
          "type": "address"
        },
        {
          "indexed": true,
          "internalType": "address",
          "name": "node",
          "type": "address"
        },
        {
          "indexed": false,
          "internalType": "uint256",
          "name": "amount",
          "type": "uint256"
        },
        {
          "indexed": false,
          "internalType": "uint256",
          "name": "totalStake",
          "type": "uint256"
        },
        {
          "indexed": false,
          "internalType": "uint256",
          "name": "totalDelegated",
          "type": "uint256"
        },
        {
          "indexed": false,
          "internalType": "bool",
          "name": "delegated",
          "type": "bool"
        }
      ],
      "name": "StakeDelegateUpdated",
      "type": "event"
    },
    {
      "anonymous": false,
      "inputs": [
        {
          "indexed": true,
          "internalType": "address",
          "name": "implementation",
          "type": "address"
        }
      ],
      "name": "Upgraded",
      "type": "event"
    },
    {
      "inputs": [],
      "name": "LOGSTORE_RECOVERY_STREAM_ID_PATH",
      "outputs": [
        {
          "internalType": "string",
          "name": "",
          "type": "string"
        }
      ],
      "stateMutability": "view",
      "type": "function"
    },
    {
      "inputs": [],
      "name": "LOGSTORE_RECOVERY_STREAM_METADATA_JSON_STRING",
      "outputs": [
        {
          "internalType": "string",
          "name": "",
          "type": "string"
        }
      ],
      "stateMutability": "view",
      "type": "function"
    },
    {
      "inputs": [],
      "name": "LOGSTORE_ROLLCALL_STREAM_ID_PATH",
      "outputs": [
        {
          "internalType": "string",
          "name": "",
          "type": "string"
        }
      ],
      "stateMutability": "view",
      "type": "function"
    },
    {
      "inputs": [],
      "name": "LOGSTORE_ROLLCALL_STREAM_METADATA_JSON_STRING",
      "outputs": [
        {
          "internalType": "string",
          "name": "",
          "type": "string"
        }
      ],
      "stateMutability": "view",
      "type": "function"
    },
    {
      "inputs": [],
      "name": "LOGSTORE_SYSTEM_STREAM_ID_PATH",
      "outputs": [
        {
          "internalType": "string",
          "name": "",
          "type": "string"
        }
      ],
      "stateMutability": "view",
      "type": "function"
    },
    {
      "inputs": [],
      "name": "LOGSTORE_SYSTEM_STREAM_METADATA_JSON_STRING",
      "outputs": [
        {
          "internalType": "string",
          "name": "",
          "type": "string"
        }
      ],
      "stateMutability": "view",
      "type": "function"
    },
    {
      "inputs": [
        {
          "internalType": "address",
          "name": "",
          "type": "address"
        }
      ],
      "name": "balanceOf",
      "outputs": [
        {
          "internalType": "uint256",
          "name": "",
          "type": "uint256"
        }
      ],
      "stateMutability": "view",
      "type": "function"
    },
    {
      "inputs": [
        {
          "internalType": "uint256",
          "name": "amount",
          "type": "uint256"
        },
        {
          "internalType": "address",
          "name": "node",
          "type": "address"
        }
      ],
      "name": "delegate",
      "outputs": [],
      "stateMutability": "nonpayable",
      "type": "function"
    },
    {
      "inputs": [
        {
          "internalType": "address",
          "name": "",
          "type": "address"
        },
        {
          "internalType": "address",
          "name": "",
          "type": "address"
        }
      ],
      "name": "delegatesOf",
      "outputs": [
        {
          "internalType": "uint256",
          "name": "",
          "type": "uint256"
        }
      ],
      "stateMutability": "view",
      "type": "function"
    },
    {
      "inputs": [],
      "name": "headNode",
      "outputs": [
        {
          "internalType": "address",
          "name": "",
          "type": "address"
        }
      ],
      "stateMutability": "view",
      "type": "function"
    },
    {
      "inputs": [
        {
          "internalType": "address",
          "name": "owner_",
          "type": "address"
        },
        {
          "internalType": "bool",
          "name": "requiresWhitelist_",
          "type": "bool"
        },
        {
          "internalType": "address",
          "name": "stakeTokenAddress_",
          "type": "address"
        },
        {
          "internalType": "uint256",
          "name": "stakeRequiredAmount_",
          "type": "uint256"
        },
        {
          "internalType": "address",
          "name": "streamrRegistryAddress_",
          "type": "address"
        },
        {
          "internalType": "address[]",
          "name": "initialNodes",
          "type": "address[]"
        },
        {
          "internalType": "string[]",
          "name": "initialMetadata",
          "type": "string[]"
        }
      ],
      "name": "initialize",
      "outputs": [],
      "stateMutability": "nonpayable",
      "type": "function"
    },
    {
      "inputs": [
        {
          "internalType": "address",
          "name": "node",
          "type": "address"
        }
      ],
      "name": "isStaked",
      "outputs": [
        {
          "internalType": "bool",
          "name": "",
          "type": "bool"
        }
      ],
      "stateMutability": "view",
      "type": "function"
    },
    {
      "inputs": [
        {
          "internalType": "uint256",
          "name": "amount",
          "type": "uint256"
        },
        {
          "internalType": "string",
          "name": "metadata_",
          "type": "string"
        }
      ],
      "name": "join",
      "outputs": [],
      "stateMutability": "nonpayable",
      "type": "function"
    },
    {
      "inputs": [
        {
          "internalType": "address",
          "name": "nodeAddress",
          "type": "address"
        }
      ],
      "name": "kickNode",
      "outputs": [],
      "stateMutability": "nonpayable",
      "type": "function"
    },
    {
      "inputs": [],
      "name": "leave",
      "outputs": [],
      "stateMutability": "nonpayable",
      "type": "function"
    },
    {
      "inputs": [],
      "name": "nodeAddresses",
      "outputs": [
        {
          "internalType": "address[]",
          "name": "resultAddresses",
          "type": "address[]"
        }
      ],
      "stateMutability": "view",
      "type": "function"
    },
    {
      "inputs": [
        {
          "internalType": "address",
          "name": "node",
          "type": "address"
        }
      ],
      "name": "nodeStake",
      "outputs": [
        {
          "internalType": "uint256",
          "name": "",
          "type": "uint256"
        }
      ],
      "stateMutability": "view",
      "type": "function"
    },
    {
      "inputs": [
        {
          "internalType": "address",
          "name": "",
          "type": "address"
        }
      ],
      "name": "nodes",
      "outputs": [
        {
          "internalType": "uint256",
          "name": "index",
          "type": "uint256"
        },
        {
          "internalType": "string",
          "name": "metadata",
          "type": "string"
        },
        {
          "internalType": "uint256",
          "name": "lastSeen",
          "type": "uint256"
        },
        {
          "internalType": "address",
          "name": "next",
          "type": "address"
        },
        {
          "internalType": "address",
          "name": "prev",
          "type": "address"
        },
        {
          "internalType": "uint256",
          "name": "stake",
          "type": "uint256"
        }
      ],
      "stateMutability": "view",
      "type": "function"
    },
    {
      "inputs": [],
      "name": "owner",
      "outputs": [
        {
          "internalType": "address",
          "name": "",
          "type": "address"
        }
      ],
      "stateMutability": "view",
      "type": "function"
    },
    {
      "inputs": [
        {
          "internalType": "string",
          "name": "id",
          "type": "string"
        }
      ],
      "name": "processReport",
      "outputs": [],
      "stateMutability": "nonpayable",
      "type": "function"
    },
    {
      "inputs": [],
      "name": "proxiableUUID",
      "outputs": [
        {
          "internalType": "bytes32",
          "name": "",
          "type": "bytes32"
        }
      ],
      "stateMutability": "view",
      "type": "function"
    },
    {
      "inputs": [
        {
          "internalType": "address",
          "name": "contractAddress",
          "type": "address"
        }
      ],
      "name": "registerQueryManager",
      "outputs": [],
      "stateMutability": "nonpayable",
      "type": "function"
    },
    {
      "inputs": [
        {
          "internalType": "address",
          "name": "contractAddress",
          "type": "address"
        }
      ],
      "name": "registerReportManager",
      "outputs": [],
      "stateMutability": "nonpayable",
      "type": "function"
    },
    {
      "inputs": [
        {
          "internalType": "address",
          "name": "contractAddress",
          "type": "address"
        }
      ],
      "name": "registerStoreManager",
      "outputs": [],
      "stateMutability": "nonpayable",
      "type": "function"
    },
    {
      "inputs": [],
      "name": "removeNode",
      "outputs": [],
      "stateMutability": "nonpayable",
      "type": "function"
    },
    {
      "inputs": [
        {
          "internalType": "address",
          "name": "nodeAddress",
          "type": "address"
        }
      ],
      "name": "removeNodeAdmin",
      "outputs": [],
      "stateMutability": "nonpayable",
      "type": "function"
    },
    {
      "inputs": [],
      "name": "renounceOwnership",
      "outputs": [],
      "stateMutability": "nonpayable",
      "type": "function"
    },
    {
      "inputs": [],
      "name": "requiresWhitelist",
      "outputs": [
        {
          "internalType": "bool",
          "name": "",
          "type": "bool"
        }
      ],
      "stateMutability": "view",
      "type": "function"
    },
    {
      "inputs": [
        {
          "internalType": "bool",
          "name": "value",
          "type": "bool"
        }
      ],
      "name": "setRequiresWhitelist",
      "outputs": [],
      "stateMutability": "nonpayable",
      "type": "function"
    },
    {
      "inputs": [
        {
          "internalType": "uint256",
          "name": "amount",
          "type": "uint256"
        }
      ],
      "name": "stake",
      "outputs": [],
      "stateMutability": "nonpayable",
      "type": "function"
    },
    {
      "inputs": [
        {
          "internalType": "uint256",
          "name": "amount",
          "type": "uint256"
        },
        {
          "internalType": "address",
          "name": "node",
          "type": "address"
        }
      ],
      "name": "stakeAndDelegate",
      "outputs": [],
      "stateMutability": "nonpayable",
      "type": "function"
    },
    {
      "inputs": [],
      "name": "stakeRequiredAmount",
      "outputs": [
        {
          "internalType": "uint256",
          "name": "",
          "type": "uint256"
        }
      ],
      "stateMutability": "view",
      "type": "function"
    },
    {
      "inputs": [],
      "name": "stakeTokenAddress",
      "outputs": [
        {
          "internalType": "address",
          "name": "",
          "type": "address"
        }
      ],
      "stateMutability": "view",
      "type": "function"
    },
    {
      "inputs": [],
      "name": "startBlockNumber",
      "outputs": [
        {
          "internalType": "uint256",
          "name": "",
          "type": "uint256"
        }
      ],
      "stateMutability": "view",
      "type": "function"
    },
    {
      "inputs": [],
      "name": "tailNode",
      "outputs": [
        {
          "internalType": "address",
          "name": "",
          "type": "address"
        }
      ],
      "stateMutability": "view",
      "type": "function"
    },
    {
      "inputs": [],
      "name": "totalNodes",
      "outputs": [
        {
          "internalType": "uint256",
          "name": "",
          "type": "uint256"
        }
      ],
      "stateMutability": "view",
      "type": "function"
    },
    {
      "inputs": [],
      "name": "totalSupply",
      "outputs": [
        {
          "internalType": "uint256",
          "name": "",
          "type": "uint256"
        }
      ],
      "stateMutability": "view",
      "type": "function"
    },
    {
      "inputs": [
        {
          "internalType": "address",
          "name": "newOwner",
          "type": "address"
        }
      ],
      "name": "transferOwnership",
      "outputs": [],
      "stateMutability": "nonpayable",
      "type": "function"
    },
    {
      "inputs": [],
      "name": "treasurySupply",
      "outputs": [
        {
          "internalType": "uint256",
          "name": "",
          "type": "uint256"
        }
      ],
      "stateMutability": "view",
      "type": "function"
    },
    {
      "inputs": [
        {
          "internalType": "uint256",
          "name": "amount",
          "type": "uint256"
        }
      ],
      "name": "treasuryWithdraw",
      "outputs": [],
      "stateMutability": "nonpayable",
      "type": "function"
    },
    {
      "inputs": [
        {
          "internalType": "uint256",
          "name": "amount",
          "type": "uint256"
        },
        {
          "internalType": "address",
          "name": "node",
          "type": "address"
        }
      ],
      "name": "undelegate",
      "outputs": [],
      "stateMutability": "nonpayable",
      "type": "function"
    },
    {
      "inputs": [
        {
          "internalType": "uint256",
          "name": "amount",
          "type": "uint256"
        },
        {
          "internalType": "address",
          "name": "node",
          "type": "address"
        }
      ],
      "name": "undelegateWithdraw",
      "outputs": [],
      "stateMutability": "nonpayable",
      "type": "function"
    },
    {
      "inputs": [
        {
          "internalType": "address",
          "name": "newImplementation",
          "type": "address"
        }
      ],
      "name": "upgradeTo",
      "outputs": [],
      "stateMutability": "nonpayable",
      "type": "function"
    },
    {
      "inputs": [
        {
          "internalType": "address",
          "name": "newImplementation",
          "type": "address"
        },
        {
          "internalType": "bytes",
          "name": "data",
          "type": "bytes"
        }
      ],
      "name": "upgradeToAndCall",
      "outputs": [],
      "stateMutability": "payable",
      "type": "function"
    },
    {
      "inputs": [
        {
          "internalType": "string",
          "name": "metadata_",
          "type": "string"
        }
      ],
      "name": "upsertNode",
      "outputs": [],
      "stateMutability": "nonpayable",
      "type": "function"
    },
    {
      "inputs": [
        {
          "internalType": "address",
          "name": "node",
          "type": "address"
        },
        {
          "internalType": "string",
          "name": "metadata_",
          "type": "string"
        }
      ],
      "name": "upsertNodeAdmin",
      "outputs": [],
      "stateMutability": "nonpayable",
      "type": "function"
    },
    {
      "inputs": [
        {
          "internalType": "address",
          "name": "",
          "type": "address"
        }
      ],
      "name": "whitelist",
      "outputs": [
        {
          "internalType": "enum LogStoreNodeManager.WhitelistState",
          "name": "",
          "type": "uint8"
        }
      ],
      "stateMutability": "view",
      "type": "function"
    },
    {
      "inputs": [
        {
          "internalType": "address",
          "name": "nodeAddress",
          "type": "address"
        }
      ],
      "name": "whitelistApproveNode",
      "outputs": [],
      "stateMutability": "nonpayable",
      "type": "function"
    },
    {
      "inputs": [
        {
          "internalType": "address",
          "name": "nodeAddress",
          "type": "address"
        }
      ],
      "name": "whitelistRejectNode",
      "outputs": [],
      "stateMutability": "nonpayable",
      "type": "function"
    },
    {
      "inputs": [
        {
          "internalType": "uint256",
          "name": "amount",
          "type": "uint256"
        }
      ],
      "name": "withdraw",
      "outputs": [],
      "stateMutability": "nonpayable",
      "type": "function"
    }
  ],
  "bytecode": "0x60a0806040523461003157306080526147a99081610037823960805181818161182c015281816119650152612b030152f35b600080fdfe6080806040526004361015610014575b600080fd5b600090813560e01c9081630106395f146130c35750806308bbb8241461309e5780631204c4861461305257806315b0e0cb1461303657806318160ddd14613018578063189a5a1714612f7a5780631ad603d014612eff5780631e332da814612ee357806320a59a0314612e865780632af5758014612e1c5780632e1a7d4d14612dff5780633659cfe614612adc5780633cfb3d8a146127b757806345e863e0146127925780634632974314611ceb57806346c198f614611cc35780634830563414611c8f578063498a4c2d14611c705780634f1ef286146118e757806352d1902d146118115780635888799c146117a75780635fc1a4b8146117895780635ff65b1014610d9f5780636177fd181461175b578063652671391461166d57806370a0823114611634578063715018a6146115d8578063735e6c7a1461135c57806375ed25dc1461131b57806379e574cb146112da5780638ce15586146112b05780638da5cb5b146112895780639592d4241461126a5780639b19251a1461120e578063a5ee5b41146111eb578063a694fc3a14610f8f578063a7cc540514610d9f578063abad29a814610f3e578063b2a52fef14610e73578063bfdf086614610e4b578063c10b522214610de5578063cd23d26814610da9578063ceae878514610d9f578063d0d3f5ba14610d85578063d5c7096614610d67578063d66d9e1914610d14578063e7b5895314610ce6578063e8d88aba14610ca5578063f2fde38b14610bfd5763f6883c051461024857600080fd5b34610bfa576020366003190112610bfa5760043567ffffffffffffffff811161074d57610279903690600401613114565b916102833361463b565b15610bb55761010e6001600160a01b038154168260405180926312e63d7160e01b825281806102b68a8a60048401613b28565b03915afa908115610baa5783916107a0575b5061010081015161075b57825b606080830190815180518410156103e9576102f2846040926138fb565b51015161030a575b5050610305906138d6565b6102d5565b6001600160a01b0361010c54166103228484516138fb565b515160206103318686516138fb565b5101519260406103428787516138fb565b51015193833b156103e55791898094926103799460405197889687958694639ac0e98b60e01b865260048601526064850190613228565b916024840152604483015203925af180156103da579086916103c2575b50509060206103a98261030594516138fb565b5101516103b960fc918254613b50565b905590386102fa565b6103cb90613142565b6103d6578438610396565b8480fd5b6040513d88823e3d90fd5b8980fd5b8786888b88825b60c08201805180518310156104e95761040b836040926138fb565b510151610422575b5061041d906138d6565b6103f0565b6001600160a01b0361010d54166001600160a01b036104428484516138fb565b51511660206104528585516138fb565b5101519060406104638686516138fb565b51015192803b156104e557889291836064926040519687958694631ee2efa360e31b86526004860152602485015260448401525af180156103da579086916104d1575b50509060206104b98261041d94516138fb565b5101516104c960fc918254613b50565b905590610413565b6104da90613142565b6103d65784886104a6565b8880fd5b5050509390825b60808601805180518310156105815782916020610529846001600160a01b0361051f61056998610564976138fb565b51511693516138fb565b51015181885261010290816020526105496005918260408c200154613b5d565b91898084131561056e57849052602052604089200155614390565b6138d6565b6104f0565b9250838352602052604082200155614390565b8580898988885b60a08401928351805188101561068d576105aa886001600160a01b03926138fb565b51511694865b60206105bd8a88516138fb565b51015151811015610675578089602061060383826105f06001600160a01b036105f8610650998f6105f08a8792516138fb565b5101516138fb565b515116958d516138fb565b51015190898b5261062b610105928360205260408d2083600052602052604060002054613b5d565b918b831315610655578a8c5260205260408b20906000526020526040600020556138d6565b6105b0565b909150898b5260205260408a2090600052602052886040600020556138d6565b509350935094610684906138d6565b94929192610588565b868484826001600160a01b03866106ac8c604060fd5491015190613b5d565b838113156107515760fd555b5416803b1561074d5781604051809263f6883c0560e01b82528183816106e2898b60048401613b28565b03925af180156107425761072a575b50507fbcd21d99bbf55769881dda49c45043a8750d2229c330cdddd4718575f72364029161072460405192839283613b28565b0390a180f35b61073390613142565b61073e5782846106f1565b8280fd5b6040513d84823e3d90fd5b5080fd5b508260fd556106b8565b60405162461bcd60e51b815260206004820152601c60248201527f6572726f725f7265706f7274416c726561647950726f636573736564000000006044820152606490fd5b3d91508184823e6107b1828261318e565b6020818381010312610ba65780519067ffffffffffffffff82116103d65761012092838383018284010312610ba25760405193840184811067ffffffffffffffff821117610b8c576040528282015167ffffffffffffffff8111610a5257610820908284019085850101613a49565b845281830160208181015190860152604080820151908601526060015167ffffffffffffffff8111610a5257818301601f8286860101011215610a52578084840101519061086d8261352e565b9161087b604051938461318e565b808352602083019184860160208360051b838a8a01010101116103e5576020818888010101925b60208360051b838a8a010101018410610af3575050505060608501526080838301015167ffffffffffffffff8111610a52576108e5908284019085850101613a9f565b608085015260a0838301015167ffffffffffffffff8111610a5257818301601f8286860101011215610a52578084840101516109208161352e565b9161092e604051938461318e565b818352602083019084860160208460051b838a8a01010101116103e5576020818888010101915b60208460051b838a8a010101018310610a56575050505060a085015260c0838301015167ffffffffffffffff8111610a525783830101818301601f82011215610a52578051906109a48261352e565b926109b2604051948561318e565b8284526020606081860194028301019181860183116103e557602001925b828410610a0d575050505060c0840152610a03906109f283820160e001613a8b565b60e0850152610100920182016139f0565b90820152386102c8565b60608483880103126103e5576020606091604051610a2a81613156565b610a3387613a8b565b81528287015183820152604087015160408201528152019301926109d0565b8680fd5b825167ffffffffffffffff8111610aef576040888a0184018201888a0103601f190112610aef5760405190610a8a82613172565b610a9c602082868d8d01010101613a8b565b8252604081858c8c01010101519067ffffffffffffffff8211610aeb579260209392610ada8b868096958f968a8f9884998601950101010101613a9f565b838201528152019301929050610955565b8d80fd5b8b80fd5b835167ffffffffffffffff8111610aef576060888a0184018201888a0103601f190112610aef5760405190610b2782613156565b602081858c8c010101015167ffffffffffffffff8111610aeb5792602093926060859493878e8e610b678f988a809a840191878787870101010101613a49565b86520101016040818101518685015291015190820152815291909501940190506108a2565b634e487b7160e01b600052604160045260246000fd5b8580fd5b8380fd5b6040513d85823e3d90fd5b60405162461bcd60e51b815260206004820152601360248201527f6572726f725f7374616b655265717569726564000000000000000000000000006044820152606490fd5b80fd5b5034610bfa576020366003190112610bfa57610c176130fe565b610c1f6135d5565b6001600160a01b03811615610c3a57610c379061362d565b80f35b60405162461bcd60e51b815260206004820152602660248201527f4f776e61626c653a206e6577206f776e657220697320746865207a65726f206160448201527f64647265737300000000000000000000000000000000000000000000000000006064820152608490fd5b5034610bfa576020366003190112610bfa57610cbf6130fe565b610cc76135d5565b6001600160a01b0361010e91166001600160a01b031982541617905580f35b5034610bfa576040366003190112610bfa57610c37600435610d0f610d096130e8565b82613cfd565b613de1565b5034610bfa5780600319360112610bfa573381526101056020526040812033600052602052610d4833604060002054613cfd565b338152610104602052610d5e6040822054613de1565b610c3733614134565b5034610bfa5780600319360112610bfa57602060fe54604051908152f35b5034610bfa5780600319360112610bfa57610c3733614134565b505061000f6135b8565b5034610bfa576020366003190112610bfa57600560406020926001600160a01b03610dd26130fe565b1681526101028452200154604051908152f35b5034610bfa5780600319360112610bfa57610dfe614587565b90604051918291602080840190808552835180925280604086019401925b828110610e2b57505050500390f35b83516001600160a01b031685528695509381019392810192600101610e1c565b5034610bfa5780600319360112610bfa5760206001600160a01b036101075416604051908152f35b5034610bfa576020366003190112610bfa5760043567ffffffffffffffff811161074d57610ea5903690600401613114565b60ff60fb5416158015610f07575b15610ec257610c379133613eda565b60405162461bcd60e51b815260206004820152601160248201527f6572726f725f6e6f74417070726f7665640000000000000000000000000000006044820152606490fd5b5033835261010360205260ff6040842054166003811015610f2a57600114610eb3565b634e487b7160e01b84526021600452602484fd5b5034610bfa576040366003190112610bfa57610f586130fe565b6040610f626130e8565b926001600160a01b0380931681526101056020522091166000526020526020604060002054604051908152f35b5034610bfa5760208060031936011261074d57600435600260c954146111a657600260c9558015611161576001600160a01b0361010b60248483835416604051928380926370a0823160e01b82523360048301525afa80156103da5784918791611130575b50106110eb5791606484928694338652610104855260408620611018858254613b50565b90556110268460fc54613b50565b60fc5554169160405194859384926323b872dd60e01b845233600485015230602485015260448401525af18015610baa5783906110b6575b600191501515036110725750600160c95580f35b6064906040519062461bcd60e51b82526004820152601760248201527f6572726f725f756e7375636365737366756c5374616b650000000000000000006044820152fd5b508181813d83116110e4575b6110cc818361318e565b8101031261073e576110df6001916139f0565b61105e565b503d6110c2565b60405162461bcd60e51b815260048101859052601960248201527f6572726f725f696e73756666696369656e7442616c616e6365000000000000006044820152606490fd5b809250868092503d831161115a575b611149818361318e565b81010312610ba25783905138610ff4565b503d61113f565b60405162461bcd60e51b815260048101839052601760248201527f6572726f725f696e73756666696369656e745374616b650000000000000000006044820152606490fd5b60405162461bcd60e51b815260048101839052601f60248201527f5265656e7472616e637947756172643a207265656e7472616e742063616c6c006044820152606490fd5b5034610bfa5780600319360112610bfa57602060ff60fb54166040519015158152f35b5034610bfa576020366003190112610bfa576001600160a01b036112306130fe565b16815261010360205260ff60408220541660405190600381101561125657602092508152f35b634e487b7160e01b83526021600452602483fd5b5034610bfa5780600319360112610bfa57602061010054604051908152f35b5034610bfa5780600319360112610bfa5760206001600160a01b0360975416604051908152f35b5034610bfa576020366003190112610bfa57610c376112cd6130fe565b6112d56135d5565b614134565b5034610bfa576020366003190112610bfa576112f46130fe565b6112fc6135d5565b6001600160a01b0361010d91166001600160a01b031982541617905580f35b5034610bfa576020366003190112610bfa576113356130fe565b61133d6135d5565b6001600160a01b0361010c91166001600160a01b031982541617905580f35b5034610bfa576040366003190112610bfa576004359061137a6130e8565b600260c9541461159357600260c955821561154e576001600160a01b039261010b93808554169460405180966370a0823160e01b82523360048301528160246020998a935afa9081156103da57908491879161151d575b50106114d857849186913384526101048352604084206113f2868254613b50565b90556114008560fc54613b50565b60fc5554166064604051809481936323b872dd60e01b83523360048401523060248401528760448401525af180156114cd578490611498575b600191501515036114535790610c3791600160c955613c10565b60405162461bcd60e51b815260048101859052601760248201527f6572726f725f756e7375636365737366756c5374616b650000000000000000006044820152606490fd5b508481813d83116114c6575b6114ae818361318e565b81010312610ba6576114c16001916139f0565b611439565b503d6114a4565b6040513d86823e3d90fd5b60405162461bcd60e51b815260048101879052601960248201527f6572726f725f696e73756666696369656e7442616c616e6365000000000000006044820152606490fd5b809250888092503d8311611547575b611536818361318e565b81010312610ba257839051386113d1565b503d61152c565b60405162461bcd60e51b815260206004820152601760248201527f6572726f725f696e73756666696369656e745374616b650000000000000000006044820152606490fd5b60405162461bcd60e51b815260206004820152601f60248201527f5265656e7472616e637947756172643a207265656e7472616e742063616c6c006044820152606490fd5b5034610bfa5780600319360112610bfa576115f16135d5565b60006001600160a01b036097546001600160a01b03198116609755167f8be0079c531659141344cd1fd0a4f28419497f9722a3daafe3b4186f6b6457e08280a380f35b5034610bfa576020366003190112610bfa5760406020916001600160a01b0361165b6130fe565b16815261010483522054604051908152f35b5034610bfa576020366003190112610bfa578060206116fb6004356116906135d5565b6116b78160fd546116a381831115613997565b6116af8260fc546139e3565b60fc556139e3565b60fd556001600160a01b0361010b54169060405194858094819363a9059cbb60e01b83523360048401602090939291936001600160a01b0360408201951681520152565b03925af190811561074257829161171c575b506001610c37911515146139fd565b90506020813d8211611753575b816117366020938361318e565b8101031261074d57600161174c610c37926139f0565b915061170d565b3d9150611729565b5034610bfa576020366003190112610bfa57602061177f61177a6130fe565b61463b565b6040519015158152f35b5034610bfa5780600319360112610bfa57602060fd54604051908152f35b5034610bfa576020366003190112610bfa576001600160a01b036117c96130fe565b6117d16135d5565b1680825261010360205260408220805460ff191660011790557fdfe83f699699403a4b116b6f9504680228c3f319bbf5ab26b48a81d3005d98b28280a280f35b5034610bfa5780600319360112610bfa576001600160a01b037f000000000000000000000000000000000000000000000000000000000000000016300361187c5760206040517f360894a13ba1a3210667c828492db98dca3e2076cc3735a920a3ca505d382bbc8152f35b60405162461bcd60e51b815260206004820152603860248201527f555550535570677261646561626c653a206d757374206e6f742062652063616c60448201527f6c6564207468726f7567682064656c656761746563616c6c00000000000000006064820152608490fd5b506040366003190112610bfa576118fc6130fe565b90602491823567ffffffffffffffff811161073e573660238201121561073e5780600401359061192b826131b0565b611938604051918261318e565b8281526020928382019236888383010111610a5257818792898793018637830101526001600160a01b03807f0000000000000000000000000000000000000000000000000000000000000000169061199282301415613675565b6119c17f360894a13ba1a3210667c828492db98dca3e2076cc3735a920a3ca505d382bbc9282845416146136e7565b6119c96135d5565b7f4910fdfa16fed3260ed0e7147f7cc6da11a60208b5b9406d12a635614ffd91435460ff1615611a03575050505050610c37919250613759565b8596949616906040516352d1902d60e01b81528781600481865afa60009181611c41575b50611a875760405162461bcd60e51b815260048101899052602e818b01527f45524331393637557067726164653a206e657720696d706c656d656e7461746960448201526d6f6e206973206e6f74205555505360901b6064820152608490fd5b979192939496959703611bec57611a9d87613759565b604051917fbc7cd75a20ee27fd9adebab32041f755214dbc6bffa90cc0225b39da2e5c2d3b600080a2825115801590611be4575b611ae0575b5050505050905080f35b863b15611b94575050611b809394600092839251915af43d15611b8c573d90611b08826131b0565b91611b16604051938461318e565b82523d60008484013e5b7f416464726573733a206c6f772d6c6576656c2064656c65676174652063616c6c60405193611b4e85613156565b602785528401527f206661696c6564000000000000000000000000000000000000000000000000006040840152613807565b50803880808080611ad6565b606090611b20565b62461bcd60e51b8252600482018590526026908201527f416464726573733a2064656c65676174652063616c6c20746f206e6f6e2d636f6044820152651b9d1c9858dd60d21b6064820152608490fd5b506001611ad1565b8460296084926040519262461bcd60e51b845260048401528201527f45524331393637557067726164653a20756e737570706f727465642070726f786044820152681a58589b195555525160ba1b6064820152fd5b90918982813d8311611c69575b611c58818361318e565b81010312610bfa5750519038611a27565b503d611c4e565b5034610bfa5780600319360112610bfa57602061010154604051908152f35b5034610bfa5780600319360112610bfa57611cbf611cab613546565b604051918291602083526020830190613228565b0390f35b5034610bfa5780600319360112610bfa5760206001600160a01b036101065416604051908152f35b5034610bfa5760e0366003190112610bfa57611d056130fe565b602435801515810361073e57604435906001600160a01b0382168203610ba6576084356001600160a01b03811681036103d65760a4359267ffffffffffffffff8411610ba25736602385011215610ba257836004013593611d658561352e565b94611d73604051968761318e565b80865260208601913660248360051b830101116104e5579160248301925b60248360051b8201018410612767575050505067ffffffffffffffff60c43511610ba25736602360c435011215610ba25767ffffffffffffffff60c4356004013511610ba25736602460c4356004013560051b60c435010111610ba25785549260ff8460081c16159384809561275a575b8015612743575b156126d85760ff19808216600117895560ff91866126c7575b50611e3560c4356004013588511461384b565b6001600160a01b0384161515806126bc575b611e509061384b565b611e68828a5460081c16611e6381613925565b613925565b611e713361362d565b611e8d828a5460081c16611e8481613925565b611e6381613925565b600160c95560fb5416911515161760fb556001600160a01b036001600160a01b03199161010b82821684825416179055168160ff54161760ff5560643560fe556001600160a01b0382169061010f54161761010f5584611eeb6134f5565b91611ef461357f565b906001600160a01b0381163b1561073e57611f2e93836001600160a01b03604051809781968295630ef8cdc760e01b845260048401613897565b0393165af180156126b15761269e575b50611f483061466f565b611f8e6020611f556134f5565b926040519381611f6e8693518092868087019101613205565b8201611f8282518093868085019101613205565b0103808452018261318e565b80519067ffffffffffffffff8211612470578190611fae6101085461324d565b601f811161264e575b50602090601f83116001146125c45787926125b9575b50508160011b916000199060031b1c191617610108555b836001600160a01b0361010f5416803b1561074d57816040518092632337c3c760e11b82526040600483015281838161201f60448201613287565b6003602483015203925af18015610742576125a5575b506001600160a01b0361010f541661204b6131cc565b61205361357f565b823b15610ba65761207d92849283604051809681958294630ef8cdc760e01b845260048401613897565b03925af1801561074257612591575b50506120973061466f565b6120a46020611f556131cc565b80519067ffffffffffffffff82116124705781906120c46101095461324d565b601f8111612541575b50602090601f83116001146124b75787926124ac575b50508160011b916000199060031b1c191617610109555b836001600160a01b0361010f5416803b1561074d57816040518092632337c3c760e11b8252604060048301528183816121356044820161333e565b6003602483015203925af1801561074257612498575b506001600160a01b0361010f5416612161613546565b61216961357f565b823b15610ba65761219392849283604051809681958294630ef8cdc760e01b845260048401613897565b03925af1801561074257612484575b50506121ad3061466f565b6121ba6020611f55613546565b80519067ffffffffffffffff82116124705781906121da61010a5461324d565b601f8111612415575b50602090601f831160011461238b578792612380575b50508160011b916000199060031b1c19161761010a555b836001600160a01b0361010f5416803b1561074d57816040518092632337c3c760e11b82526040600483015281838161224b604482016133cf565b6003602483015203925af180156107425761236c575b505b825181101561230b576001600160a01b0361227e82856138fb565b51169060c435600401358110156122f75760248160051b60c43501013560421960c435360301811215610a525760c435019167ffffffffffffffff602484013511610a5257602483013536036044840113610a52576122f292610564916122e36135d5565b60446024830135920190613eda565b612263565b634e487b7160e01b86526032600452602486fd5b8482856123166135d5565b6001600160a01b03811615610c3a5761232e9061362d565b6123355780f35b61ff001981541681557f7f26b83ff96e1f2b6a682f133852f6798a09c465da95921460cefb3847402498602060405160018152a180f35b61237590613142565b610ba6578338612261565b0151905038806121f9565b925061010a87527fc588bd85af64879c0999911852d2549e38c750e7e4e194eb8891b0913e93b12c9087935b601f19841685106123fa576001945083601f198116106123e1575b505050811b0161010a55612210565b015160001960f88460031b161c191690553880806123d2565b818101518355602094850194600190930192909101906123b7565b6124609061010a6000527fc588bd85af64879c0999911852d2549e38c750e7e4e194eb8891b0913e93b12c601f850160051c81019160208610612466575b601f0160051c01906138bf565b386121e3565b9091508190612453565b634e487b7160e01b86526041600452602486fd5b61248d90613142565b610ba65783386121a2565b6124a190613142565b610ba657833861214b565b0151905038806120e3565b925061010987527fd7f48d1c2d4fdcceabee32a4fd1437f382c65f0f9af09a878c95c20147dc06a89087935b601f1984168510612526576001945083601f1981161061250d575b505050811b01610109556120fa565b015160001960f88460031b161c191690553880806124fe565b818101518355602094850194600190930192909101906124e3565b61258b906101096000527fd7f48d1c2d4fdcceabee32a4fd1437f382c65f0f9af09a878c95c20147dc06a8601f850160051c8101916020861061246657601f0160051c01906138bf565b386120cd565b61259a90613142565b610ba657833861208c565b6125ae90613142565b610ba6578338612035565b015190503880611fcd565b925061010887527f8543e9adbfbe1f62b7411fdf032fcfea758a7d6b332f64d971a1334c2ff364dd9087935b601f1984168510612633576001945083601f1981161061261a575b505050811b0161010855611fe4565b015160001960f88460031b161c1916905538808061260b565b818101518355602094850194600190930192909101906125f0565b612698906101086000527f8543e9adbfbe1f62b7411fdf032fcfea758a7d6b332f64d971a1334c2ff364dd601f850160051c8101916020861061246657601f0160051c01906138bf565b38611fb7565b6126aa90949194613142565b9238611f3e565b6040513d87823e3d90fd5b506064351515611e47565b61ffff191661010117895538611e22565b60405162461bcd60e51b815260206004820152602e60248201527f496e697469616c697a61626c653a20636f6e747261637420697320616c72656160448201527f647920696e697469616c697a65640000000000000000000000000000000000006064820152608490fd5b50303b158015611e095750600160ff821614611e09565b50600160ff821610611e02565b8335916001600160a01b038316830361278e57602081602494829352019401939150611d91565b8a80fd5b5034610bfa576040366003190112610bfa57610c376127af6130e8565b600435613cfd565b5034610bfa576040366003190112610bfa576004356024803567ffffffffffffffff8111610ba6576127ed903690600401613114565b9060ff60fb5416158015612aa6575b15612a62579061280c9133613eda565b600260c95414612a1e57600260c95581156129da576001600160a01b039061010b91808354169260405180946370a0823160e01b8252336004830152818560209788935afa80156129cf578691889161299e575b501061295a5785918491338452610104835260408420612881888254613b50565b905561288f8760fc54613b50565b60fc5554166064604051809481936323b872dd60e01b835233600484015230888401528960448401525af180156126b1578590612925575b600191501515036128e257600160c95583610c373385613c10565b9060176064926040519262461bcd60e51b845260048401528201527f6572726f725f756e7375636365737366756c5374616b650000000000000000006044820152fd5b508281813d8311612953575b61293b818361318e565b810103126103d65761294e6001916139f0565b6128c7565b503d612931565b60405162461bcd60e51b8152600481018590526019818501527f6572726f725f696e73756666696369656e7442616c616e6365000000000000006044820152606490fd5b809250868092503d83116129c8575b6129b7818361318e565b81010312610a525785905138612860565b503d6129ad565b6040513d89823e3d90fd5b60649060176040519162461bcd60e51b8352602060048401528201527f6572726f725f696e73756666696369656e745374616b650000000000000000006044820152fd5b606490601f6040519162461bcd60e51b8352602060048401528201527f5265656e7472616e637947756172643a207265656e7472616e742063616c6c006044820152fd5b60405162461bcd60e51b8152602060048201526011818501527f6572726f725f6e6f74417070726f7665640000000000000000000000000000006044820152606490fd5b5033855261010360205260ff6040862054166003811015612ac9576001146127fc565b634e487b7160e01b865260216004528386fd5b5034610bfa5760208060031936011261074d57612af76130fe565b906001600160a01b03807f000000000000000000000000000000000000000000000000000000000000000016612b2f81301415613675565b612b5e7f360894a13ba1a3210667c828492db98dca3e2076cc3735a920a3ca505d382bbc9183835416146136e7565b612b666135d5565b604051908382019282841067ffffffffffffffff851117612deb578360405286835260ff7f4910fdfa16fed3260ed0e7147f7cc6da11a60208b5b9406d12a635614ffd91435416600014612bc2575050505050610c3790613759565b8596949516906040516352d1902d60e01b81528681600481865afa869181612dbc575b50612c465760405162461bcd60e51b815260048101889052602e60248201527f45524331393637557067726164653a206e657720696d706c656d656e7461746960448201526d6f6e206973206e6f74205555505360901b6064820152608490fd5b95949503612d6557612c5786613759565b604051907fbc7cd75a20ee27fd9adebab32041f755214dbc6bffa90cc0225b39da2e5c2d3b8680a2815115801590612d5e575b612c98575b50505050905080f35b853b15612d0d57509280948192612d029551915af43d15611b8c573d90612cbe826131b0565b91612ccc604051938461318e565b82523d858484013e7f416464726573733a206c6f772d6c6576656c2064656c65676174652063616c6c60405193611b4e85613156565b508038808080612c8f565b62461bcd60e51b815260048101849052602660248201527f416464726573733a2064656c65676174652063616c6c20746f206e6f6e2d636f6044820152651b9d1c9858dd60d21b6064820152608490fd5b5084612c8a565b60405162461bcd60e51b815260048101859052602960248201527f45524331393637557067726164653a20756e737570706f727465642070726f786044820152681a58589b195555525160ba1b6064820152608490fd5b9091508781813d8311612de4575b612dd4818361318e565b81010312610a5257519038612be5565b503d612dca565b634e487b7160e01b87526041600452602487fd5b5034610bfa576020366003190112610bfa57610c37600435613de1565b5034610bfa576020366003190112610bfa576001600160a01b03612e3e6130fe565b612e466135d5565b1680825261010360205260408220805460ff191660021790557fbbe2a784aa6240d8175fa65a8459058efd8f44c5ab66caa2525fe9d6342108788280a280f35b5034610bfa576020366003190112610bfa5760043580151580910361074d57612ead6135d5565b60ff1960fb541660ff82161760fb557f7623db9c426686f05cec977c4cadb8ff9657502540ca665ae347731114dac69d8280a280f35b5034610bfa5780600319360112610bfa57611cbf611cab6134f5565b5034610bfa576020366003190112610bfa57610c37612f1c6130fe565b612f246135d5565b612f2c6135d5565b6001600160a01b03811680845261010360205260408420805460ff191660021790557fbbe2a784aa6240d8175fa65a8459058efd8f44c5ab66caa2525fe9d6342108788480a26112d56135d5565b5034610bfa576020366003190112610bfa5760406001600160a01b039182612fa06130fe565b1681526101026020522080549060405192612fc984612fc28160018601613460565b038561318e565b6002820154916005826003830154169260048301541691015491612fff604051968796875260c0602088015260c0870190613228565b9360408601526060850152608084015260a08301520390f35b5034610bfa5780600319360112610bfa57602060fc54604051908152f35b5034610bfa5780600319360112610bfa57611cbf611cab6131cc565b5034610bfa576040366003190112610bfa5761306c6130fe565b6024359067ffffffffffffffff821161073e57613090610c37923690600401613114565b916130996135d5565b613eda565b5034610bfa576040366003190112610bfa57610c376130bb6130e8565b600435613c10565b90503461074d578160031936011261074d576020906001600160a01b0360ff54168152f35b602435906001600160a01b038216820361000f57565b600435906001600160a01b038216820361000f57565b9181601f8401121561000f5782359167ffffffffffffffff831161000f576020838186019501011161000f57565b67ffffffffffffffff8111610b8c57604052565b6060810190811067ffffffffffffffff821117610b8c57604052565b6040810190811067ffffffffffffffff821117610b8c57604052565b90601f8019910116810190811067ffffffffffffffff821117610b8c57604052565b67ffffffffffffffff8111610b8c57601f01601f191660200190565b604051906131d982613172565b600982527f2f726f6c6c63616c6c00000000000000000000000000000000000000000000006020830152565b60005b8381106132185750506000910152565b8181015183820152602001613208565b9060209161324181518092818552858086019101613205565b601f01601f1916010190565b90600182811c9216801561327d575b602083101461326757565b634e487b7160e01b600052602260045260246000fd5b91607f169161325c565b9060009161010890815461329a8161324d565b8083529260019180831690811561331957506001146132ba575b50505050565b90929394506000527f8543e9adbfbe1f62b7411fdf032fcfea758a7d6b332f64d971a1334c2ff364dd916000925b84841061330157505060209250010190388080806132b4565b805460208585018101919091529093019281016132e8565b92505050602093945060ff929192191683830152151560051b010190388080806132b4565b906000916101099081546133518161324d565b8083529260019180831690811561331957506001146133705750505050565b90929394506000527fd7f48d1c2d4fdcceabee32a4fd1437f382c65f0f9af09a878c95c20147dc06a8916000925b8484106133b757505060209250010190388080806132b4565b8054602085850181019190915290930192810161339e565b9060009161010a9081546133e28161324d565b8083529260019180831690811561331957506001146134015750505050565b90929394506000527fc588bd85af64879c0999911852d2549e38c750e7e4e194eb8891b0913e93b12c916000925b84841061344857505060209250010190388080806132b4565b8054602085850181019190915290930192810161342f565b90600092918054916134718361324d565b9182825260019384811690816000146134d257506001146134925750505050565b90919394506000526020928360002092846000945b8386106134be5750505050010190388080806132b4565b8054858701830152940193859082016134a7565b9294505050602093945060ff191683830152151560051b010190388080806132b4565b6040519061350282613172565b600982527f2f7265636f7665727900000000000000000000000000000000000000000000006020830152565b67ffffffffffffffff8111610b8c5760051b60200190565b6040519061355382613172565b600782527f2f73797374656d000000000000000000000000000000000000000000000000006020830152565b6040519061358c82613172565b601382527f7b2022706172746974696f6e73223a2031207d000000000000000000000000006020830152565b503461000f57600036600319011261000f57611cbf611cab61357f565b6001600160a01b036097541633036135e957565b606460405162461bcd60e51b815260206004820152602060248201527f4f776e61626c653a2063616c6c6572206973206e6f7420746865206f776e65726044820152fd5b609754906001600160a01b0380911691826001600160a01b0319821617609755167f8be0079c531659141344cd1fd0a4f28419497f9722a3daafe3b4186f6b6457e0600080a3565b1561367c57565b60405162461bcd60e51b815260206004820152602c60248201527f46756e6374696f6e206d7573742062652063616c6c6564207468726f7567682060448201527f64656c656761746563616c6c00000000000000000000000000000000000000006064820152608490fd5b156136ee57565b60405162461bcd60e51b815260206004820152602c60248201527f46756e6374696f6e206d7573742062652063616c6c6564207468726f7567682060448201527f6163746976652070726f787900000000000000000000000000000000000000006064820152608490fd5b803b1561379c576001600160a01b037f360894a13ba1a3210667c828492db98dca3e2076cc3735a920a3ca505d382bbc91166001600160a01b0319825416179055565b60405162461bcd60e51b815260206004820152602d60248201527f455243313936373a206e657720696d706c656d656e746174696f6e206973206e60448201527f6f74206120636f6e7472616374000000000000000000000000000000000000006064820152608490fd5b90919015613813575090565b8151156138235750805190602001fd5b60405162461bcd60e51b815260206004820152908190613847906024830190613228565b0390fd5b1561385257565b60405162461bcd60e51b815260206004820152601460248201527f6572726f725f626164547261636b6572446174610000000000000000000000006044820152606490fd5b90916138ae6138bc93604084526040840190613228565b916020818403910152613228565b90565b8181106138ca575050565b600081556001016138bf565b60001981146138e55760010190565b634e487b7160e01b600052601160045260246000fd5b805182101561390f5760209160051b010190565b634e487b7160e01b600052603260045260246000fd5b1561392c57565b60405162461bcd60e51b815260206004820152602b60248201527f496e697469616c697a61626c653a20636f6e7472616374206973206e6f74206960448201527f6e697469616c697a696e670000000000000000000000000000000000000000006064820152608490fd5b1561399e57565b60405162461bcd60e51b815260206004820152601460248201527f6572726f725f6e6f74456e6f7567685374616b650000000000000000000000006044820152606490fd5b919082039182116138e557565b5190811515820361000f57565b15613a0457565b60405162461bcd60e51b815260206004820152601a60248201527f6572726f725f756e7375636365737366756c57697468647261770000000000006044820152606490fd5b81601f8201121561000f578051613a5f816131b0565b92613a6d604051948561318e565b8184526020828401011161000f576138bc9160208085019101613205565b51906001600160a01b038216820361000f57565b81601f8201121561000f57805190613ab68261352e565b92604092613ac68451958661318e565b808552602091828087019260061b8501019381851161000f578301915b848310613af35750505050505090565b858383031261000f578386918251613b0a81613172565b613b1386613a8b565b81528286015183820152815201920191613ae3565b90918060409360208452816020850152848401376000828201840152601f01601f1916010190565b919082018092116138e557565b919091600083820193841291129080158216911516176138e557565b15613b8057565b606460405162461bcd60e51b815260206004820152602060248201527f6572726f725f696e73756666696369656e7444656c6567617465416d6f756e746044820152fd5b15613bcb57565b60405162461bcd60e51b815260206004820152601160248201527f6572726f725f696e76616c69644e6f64650000000000000000000000000000006044820152606490fd5b613c1b811515613b79565b6001600160a01b038216916000838152610102916020928084526040928391613c4b600284842001541515613bc4565b3382526101048652828220613c618882546139e3565b9055338252613ca6610105948588528484208a85528852848420613c868a8254613b50565b9055898452828852600585852001613c9f8a8254613b50565b9055614390565b87825285526005828220015492338252855281812087825285522054928251948552840152820152600160608201527f4c2cbb7d33d36a22e34970133436a2156c82cefc2dadfd9537fcfc177b40f03560803392a3565b613d08811515613b79565b6001600160a01b03821691600090838252610102602091818352604091613d36600284872001541515613bc4565b338552613d8a610105928386528487208988528652848720613d598982546139e3565b9055888752828652600585882001613d728982546139e3565b90553387526101048652848720613c9f898254613b50565b86855283526005828520015490338552835281842086855283528184205492825195865285015283015260608201527f4c2cbb7d33d36a22e34970133436a2156c82cefc2dadfd9537fcfc177b40f03560803392a3565b600033815280610104613e6b6020948286938452613e056040862054831115613997565b338552835260408420613e198282546139e3565b9055613e278160fc546139e3565b60fc556001600160a01b0361010b54169060405195868094819363a9059cbb60e01b83523360048401602090939291936001600160a01b0360408201951681520152565b03925af1928315613ecd578193613e90575b5050506001613e8e911515146139fd565b565b9091809350813d8311613ec6575b613ea8818361318e565b81010312610bfa57506001613ebf613e8e926139f0565b9138613e7d565b503d613e9e565b50604051903d90823e3d90fd5b906001600160a01b038092169160009083825260209461010286526040832083600282019384541561407f575b5060018092019567ffffffffffffffff841161406b57613f27875461324d565b601f811161403d575b5081601f8511600114613fb357937f5efa14ec2c459017dc330f0b3e8f2f26bee624ba1c66a50805faf6bf28bfb0b597959381938293613f9a999794613fa8575b50501b916000199060031b1c19161783555b429055604051928392604084526040840190613460565b9542908301521515940390a3565b013592503880613f71565b91601f9493941984168884528a8420935b8b82821061402957505091613f9a97959391857f5efa14ec2c459017dc330f0b3e8f2f26bee624ba1c66a50805faf6bf28bfb0b59a9896941061400f575b505050811b018355613f83565b0135600019600384901b60f8161c19169055388080614002565b848401358655948701949283019201613fc4565b614065908884528a8420601f870160051c8101918c881061246657601f0160051c01906138bf565b38613f30565b634e487b7160e01b82526041600452602482fd5b94506001946101069080825416156000146140e95750876001600160a01b031982541617905543610101555b610107876001600160a01b03198254161790556101008054908682018092116140d5575538613f07565b634e487b7160e01b83526011600452602483fd5b90506101079080825416835260036040842001916001600160a01b0319928a84825416179055541660048401918254161790556101005482556140ab565b80156138e5576000190190565b906001600160a01b0380921660009281845261010260209080825260408087209160028301541561434c5790829160048996959401938585541680614323575b50600380940186815416806142fd575b506101069586548a898216146142e5575b5061010790815490898c818416146142cb575b5050505088885282825287600585822082815560019d8e808301906141cd825461324d565b8061428e575b505050600282015582888201558260048201550155610100805490600019820191821161427a57555486168a5b614245575b50505050507fcfc24166db4bb677e857cacabd1541fb2b30645021b27c5130419589b84db52b9394955054161561423b575b80a2565b8061010155614237565b86168015614275578088528282528388206142608154614127565b9055875281815285848489200154168a614200565b614205565b634e487b7160e01b8a52601160045260248afd5b601f81116001146142a6575050555b82388f816141d3565b6142bf91838552601f8a86209201871c820191016138bf565b8187812091555561429d565b6001600160a01b03199154169116179055388080896141a8565b6001600160a01b031989845416911617875538614195565b878754169089528383526004858a2001906001600160a01b031982541617905538614184565b86600386015416908852828252600384892001906001600160a01b031982541617905538614174565b815162461bcd60e51b815260048101859052600e60248201527f6572726f725f6e6f74466f756e640000000000000000000000000000000000006044820152606490fd5b9060006001600160a01b038093168082526101026020526040906005828420015460fe5411156000146144f85761010f948086541695863b156103d65783518581634cbf455560e11b998a8252606060048301528183816143f360648201613287565b8a60248301526002604483015203925af180156144da579086916144e4575b505081815416803b15610ba25785855180928a82526060600483015281838161443d6064820161333e565b8a60248301526002604483015203925af180156144da579086916144c6575b5050541694853b15610ba657908394958492845195868094819382526060600483015261448b606483016133cf565b9060248301526002604483015203925af19081156144bd57506144ac575050565b6144b68291613142565b610bfa5750565b513d84823e3d90fd5b6144cf90613142565b6103d657843861445c565b85513d88823e3d90fd5b6144ed90613142565b6103d6578438614412565b61010f948086541695863b156103d65783518581631f1cbd7560e11b998a82526060600483015281838161452e60648201613287565b8a60248301526002604483015203925af180156144da57614574575b5081815416803b15610ba25785855180928a82526060600483015281838161443d6064820161333e565b61458090959195613142565b933861454a565b610100546145948161352e565b906040906145a48251938461318e565b8083526145b3601f199161352e565b016020903682850137610106546001600160a01b03908116848115614632575091600060019384805b6145eb575b5050505050505090565b15614625575b600090846145ff848a6138fb565b91168091528152610102835261461d846003888420015416926138d6565b9190856145dc565b8381166145f157806145e1565b94505050505090565b60fe54801515918261464c57505090565b6001600160a01b0391925016600052610102602052600560406000200154101590565b6001600160a01b03166040519061468582613156565b602a8252602090818301604036823783511561390f5760309053825160019081101561390f57607860218501536029905b80821161470a5750506146c7575090565b6064906040519062461bcd60e51b825280600483015260248201527f537472696e67733a20686578206c656e67746820696e73756666696369656e746044820152fd5b9091600f811690601082101561475e57855184101561475e577f3031323334353637383961626364656600000000000000000000000000000000614758921a85858801015360041c92614127565b906146b6565b60246000634e487b7160e01b81526032600452fdfea26469706673582212206e9985f9c4dac0c45cafd59943ce4a39948f9986b7245dea0cf4a5cb76127ce264736f6c63430008110033",
  "linkReferences": {},
  "deployedLinkReferences": {}
}