{
  "_format": "hh-sol-artifact-1",
  "contractName": "LogStoreNodeManager",
  "sourceName": "src/NodeManager.sol",
  "abi": [
    {
      "anonymous": false,
      "inputs": [
        {
          "indexed": false,
          "internalType": "address",
          "name": "previousAdmin",
          "type": "address"
        },
        {
          "indexed": false,
          "internalType": "address",
          "name": "newAdmin",
          "type": "address"
        }
      ],
      "name": "AdminChanged",
      "type": "event"
    },
    {
      "anonymous": false,
      "inputs": [
        {
          "indexed": true,
          "internalType": "address",
          "name": "beacon",
          "type": "address"
        }
      ],
      "name": "BeaconUpgraded",
      "type": "event"
    },
    {
      "anonymous": false,
      "inputs": [
        {
          "indexed": false,
          "internalType": "uint8",
          "name": "version",
          "type": "uint8"
        }
      ],
      "name": "Initialized",
      "type": "event"
    },
    {
      "anonymous": false,
      "inputs": [
        {
          "indexed": true,
          "internalType": "address",
          "name": "nodeAddress",
          "type": "address"
        }
      ],
      "name": "NodeRemoved",
      "type": "event"
    },
    {
      "anonymous": false,
      "inputs": [
        {
          "indexed": true,
          "internalType": "address",
          "name": "nodeAddress",
          "type": "address"
        },
        {
          "indexed": false,
          "internalType": "string",
          "name": "metadata",
          "type": "string"
        },
        {
          "indexed": true,
          "internalType": "bool",
          "name": "isNew",
          "type": "bool"
        },
        {
          "indexed": false,
          "internalType": "uint256",
          "name": "lastSeen",
          "type": "uint256"
        }
      ],
      "name": "NodeUpdated",
      "type": "event"
    },
    {
      "anonymous": false,
      "inputs": [
        {
          "indexed": true,
          "internalType": "address",
          "name": "nodeAddress",
          "type": "address"
        }
      ],
      "name": "NodeWhitelistApproved",
      "type": "event"
    },
    {
      "anonymous": false,
      "inputs": [
        {
          "indexed": true,
          "internalType": "address",
          "name": "nodeAddress",
          "type": "address"
        }
      ],
      "name": "NodeWhitelistRejected",
      "type": "event"
    },
    {
      "anonymous": false,
      "inputs": [
        {
          "indexed": true,
          "internalType": "address",
          "name": "previousOwner",
          "type": "address"
        },
        {
          "indexed": true,
          "internalType": "address",
          "name": "newOwner",
          "type": "address"
        }
      ],
      "name": "OwnershipTransferred",
      "type": "event"
    },
    {
      "anonymous": false,
      "inputs": [
        {
          "indexed": false,
          "internalType": "string",
          "name": "id",
          "type": "string"
        }
      ],
      "name": "ReportProcessed",
      "type": "event"
    },
    {
      "anonymous": false,
      "inputs": [
        {
          "indexed": true,
          "internalType": "bool",
          "name": "value",
          "type": "bool"
        }
      ],
      "name": "RequiresWhitelistChanged",
      "type": "event"
    },
    {
      "anonymous": false,
      "inputs": [
        {
          "indexed": true,
          "internalType": "address",
          "name": "delegate",
          "type": "address"
        },
        {
          "indexed": true,
          "internalType": "address",
          "name": "node",
          "type": "address"
        },
        {
          "indexed": false,
          "internalType": "uint256",
          "name": "amount",
          "type": "uint256"
        },
        {
          "indexed": false,
          "internalType": "uint256",
          "name": "totalStake",
          "type": "uint256"
        },
        {
          "indexed": false,
          "internalType": "uint256",
          "name": "totalDelegated",
          "type": "uint256"
        },
        {
          "indexed": false,
          "internalType": "bool",
          "name": "delegated",
          "type": "bool"
        }
      ],
      "name": "StakeDelegateUpdated",
      "type": "event"
    },
    {
      "anonymous": false,
      "inputs": [
        {
          "indexed": true,
          "internalType": "address",
          "name": "implementation",
          "type": "address"
        }
      ],
      "name": "Upgraded",
      "type": "event"
    },
    {
      "inputs": [],
      "name": "LOGSTORE_HEARTBEAT_STREAM_ID_PATH",
      "outputs": [
        {
          "internalType": "string",
          "name": "",
          "type": "string"
        }
      ],
      "stateMutability": "view",
      "type": "function"
    },
    {
      "inputs": [],
      "name": "LOGSTORE_HEARTBEAT_STREAM_METADATA_JSON_STRING",
      "outputs": [
        {
          "internalType": "string",
          "name": "",
          "type": "string"
        }
      ],
      "stateMutability": "view",
      "type": "function"
    },
    {
      "inputs": [],
      "name": "LOGSTORE_RECOVERY_STREAM_ID_PATH",
      "outputs": [
        {
          "internalType": "string",
          "name": "",
          "type": "string"
        }
      ],
      "stateMutability": "view",
      "type": "function"
    },
    {
      "inputs": [],
      "name": "LOGSTORE_RECOVERY_STREAM_METADATA_JSON_STRING",
      "outputs": [
        {
          "internalType": "string",
          "name": "",
          "type": "string"
        }
      ],
      "stateMutability": "view",
      "type": "function"
    },
    {
      "inputs": [],
      "name": "LOGSTORE_SYSTEM_STREAM_ID_PATH",
      "outputs": [
        {
          "internalType": "string",
          "name": "",
          "type": "string"
        }
      ],
      "stateMutability": "view",
      "type": "function"
    },
    {
      "inputs": [],
      "name": "LOGSTORE_SYSTEM_STREAM_METADATA_JSON_STRING",
      "outputs": [
        {
          "internalType": "string",
          "name": "",
          "type": "string"
        }
      ],
      "stateMutability": "view",
      "type": "function"
    },
    {
      "inputs": [
        {
          "internalType": "address",
          "name": "",
          "type": "address"
        }
      ],
      "name": "balanceOf",
      "outputs": [
        {
          "internalType": "uint256",
          "name": "",
          "type": "uint256"
        }
      ],
      "stateMutability": "view",
      "type": "function"
    },
    {
      "inputs": [
        {
          "internalType": "uint256",
          "name": "amount",
          "type": "uint256"
        },
        {
          "internalType": "address",
          "name": "node",
          "type": "address"
        }
      ],
      "name": "delegate",
      "outputs": [],
      "stateMutability": "nonpayable",
      "type": "function"
    },
    {
      "inputs": [
        {
          "internalType": "address",
          "name": "",
          "type": "address"
        },
        {
          "internalType": "address",
          "name": "",
          "type": "address"
        }
      ],
      "name": "delegatesOf",
      "outputs": [
        {
          "internalType": "uint256",
          "name": "",
          "type": "uint256"
        }
      ],
      "stateMutability": "view",
      "type": "function"
    },
    {
      "inputs": [],
      "name": "headNode",
      "outputs": [
        {
          "internalType": "address",
          "name": "",
          "type": "address"
        }
      ],
      "stateMutability": "view",
      "type": "function"
    },
    {
      "inputs": [
        {
          "internalType": "address",
          "name": "owner_",
          "type": "address"
        },
        {
          "internalType": "bool",
          "name": "requiresWhitelist_",
          "type": "bool"
        },
        {
          "internalType": "address",
          "name": "stakeTokenAddress_",
          "type": "address"
        },
        {
          "internalType": "uint256",
          "name": "stakeRequiredAmount_",
          "type": "uint256"
        },
        {
          "internalType": "address",
          "name": "streamrRegistryAddress_",
          "type": "address"
        },
        {
          "internalType": "address[]",
          "name": "initialNodes",
          "type": "address[]"
        },
        {
          "internalType": "string[]",
          "name": "initialMetadata",
          "type": "string[]"
        }
      ],
      "name": "initialize",
      "outputs": [],
      "stateMutability": "nonpayable",
      "type": "function"
    },
    {
      "inputs": [
        {
          "internalType": "address",
          "name": "node",
          "type": "address"
        }
      ],
      "name": "isStaked",
      "outputs": [
        {
          "internalType": "bool",
          "name": "",
          "type": "bool"
        }
      ],
      "stateMutability": "view",
      "type": "function"
    },
    {
      "inputs": [
        {
          "internalType": "uint256",
          "name": "amount",
          "type": "uint256"
        },
        {
          "internalType": "string",
          "name": "metadata_",
          "type": "string"
        }
      ],
      "name": "join",
      "outputs": [],
      "stateMutability": "nonpayable",
      "type": "function"
    },
    {
      "inputs": [
        {
          "internalType": "address",
          "name": "nodeAddress",
          "type": "address"
        }
      ],
      "name": "kickNode",
      "outputs": [],
      "stateMutability": "nonpayable",
      "type": "function"
    },
    {
      "inputs": [],
      "name": "leave",
      "outputs": [],
      "stateMutability": "nonpayable",
      "type": "function"
    },
    {
      "inputs": [],
      "name": "nodeAddresses",
      "outputs": [
        {
          "internalType": "address[]",
          "name": "resultAddresses",
          "type": "address[]"
        }
      ],
      "stateMutability": "view",
      "type": "function"
    },
    {
      "inputs": [
        {
          "internalType": "address",
          "name": "node",
          "type": "address"
        }
      ],
      "name": "nodeStake",
      "outputs": [
        {
          "internalType": "uint256",
          "name": "",
          "type": "uint256"
        }
      ],
      "stateMutability": "view",
      "type": "function"
    },
    {
      "inputs": [
        {
          "internalType": "address",
          "name": "",
          "type": "address"
        }
      ],
      "name": "nodes",
      "outputs": [
        {
          "internalType": "uint256",
          "name": "index",
          "type": "uint256"
        },
        {
          "internalType": "string",
          "name": "metadata",
          "type": "string"
        },
        {
          "internalType": "uint256",
          "name": "lastSeen",
          "type": "uint256"
        },
        {
          "internalType": "address",
          "name": "next",
          "type": "address"
        },
        {
          "internalType": "address",
          "name": "prev",
          "type": "address"
        },
        {
          "internalType": "uint256",
          "name": "stake",
          "type": "uint256"
        }
      ],
      "stateMutability": "view",
      "type": "function"
    },
    {
      "inputs": [],
      "name": "owner",
      "outputs": [
        {
          "internalType": "address",
          "name": "",
          "type": "address"
        }
      ],
      "stateMutability": "view",
      "type": "function"
    },
    {
      "inputs": [
        {
          "internalType": "string",
          "name": "id",
          "type": "string"
        }
      ],
      "name": "processReport",
      "outputs": [],
      "stateMutability": "nonpayable",
      "type": "function"
    },
    {
      "inputs": [],
      "name": "proxiableUUID",
      "outputs": [
        {
          "internalType": "bytes32",
          "name": "",
          "type": "bytes32"
        }
      ],
      "stateMutability": "view",
      "type": "function"
    },
    {
      "inputs": [
        {
          "internalType": "address",
          "name": "contractAddress",
          "type": "address"
        }
      ],
      "name": "registerQueryManager",
      "outputs": [],
      "stateMutability": "nonpayable",
      "type": "function"
    },
    {
      "inputs": [
        {
          "internalType": "address",
          "name": "contractAddress",
          "type": "address"
        }
      ],
      "name": "registerReportManager",
      "outputs": [],
      "stateMutability": "nonpayable",
      "type": "function"
    },
    {
      "inputs": [
        {
          "internalType": "address",
          "name": "contractAddress",
          "type": "address"
        }
      ],
      "name": "registerStoreManager",
      "outputs": [],
      "stateMutability": "nonpayable",
      "type": "function"
    },
    {
      "inputs": [],
      "name": "removeNode",
      "outputs": [],
      "stateMutability": "nonpayable",
      "type": "function"
    },
    {
      "inputs": [
        {
          "internalType": "address",
          "name": "nodeAddress",
          "type": "address"
        }
      ],
      "name": "removeNodeAdmin",
      "outputs": [],
      "stateMutability": "nonpayable",
      "type": "function"
    },
    {
      "inputs": [],
      "name": "renounceOwnership",
      "outputs": [],
      "stateMutability": "nonpayable",
      "type": "function"
    },
    {
      "inputs": [],
      "name": "requiresWhitelist",
      "outputs": [
        {
          "internalType": "bool",
          "name": "",
          "type": "bool"
        }
      ],
      "stateMutability": "view",
      "type": "function"
    },
    {
      "inputs": [
        {
          "internalType": "bool",
          "name": "value",
          "type": "bool"
        }
      ],
      "name": "setRequiresWhitelist",
      "outputs": [],
      "stateMutability": "nonpayable",
      "type": "function"
    },
    {
      "inputs": [
        {
          "internalType": "uint256",
          "name": "amount",
          "type": "uint256"
        }
      ],
      "name": "stake",
      "outputs": [],
      "stateMutability": "nonpayable",
      "type": "function"
    },
    {
      "inputs": [
        {
          "internalType": "uint256",
          "name": "amount",
          "type": "uint256"
        },
        {
          "internalType": "address",
          "name": "node",
          "type": "address"
        }
      ],
      "name": "stakeAndDelegate",
      "outputs": [],
      "stateMutability": "nonpayable",
      "type": "function"
    },
    {
      "inputs": [],
      "name": "stakeRequiredAmount",
      "outputs": [
        {
          "internalType": "uint256",
          "name": "",
          "type": "uint256"
        }
      ],
      "stateMutability": "view",
      "type": "function"
    },
    {
      "inputs": [],
      "name": "stakeTokenAddress",
      "outputs": [
        {
          "internalType": "address",
          "name": "",
          "type": "address"
        }
      ],
      "stateMutability": "view",
      "type": "function"
    },
    {
      "inputs": [],
      "name": "startBlockNumber",
      "outputs": [
        {
          "internalType": "uint256",
          "name": "",
          "type": "uint256"
        }
      ],
      "stateMutability": "view",
      "type": "function"
    },
    {
      "inputs": [],
      "name": "tailNode",
      "outputs": [
        {
          "internalType": "address",
          "name": "",
          "type": "address"
        }
      ],
      "stateMutability": "view",
      "type": "function"
    },
    {
      "inputs": [],
      "name": "totalNodes",
      "outputs": [
        {
          "internalType": "uint256",
          "name": "",
          "type": "uint256"
        }
      ],
      "stateMutability": "view",
      "type": "function"
    },
    {
      "inputs": [],
      "name": "totalSupply",
      "outputs": [
        {
          "internalType": "uint256",
          "name": "",
          "type": "uint256"
        }
      ],
      "stateMutability": "view",
      "type": "function"
    },
    {
      "inputs": [
        {
          "internalType": "address",
          "name": "newOwner",
          "type": "address"
        }
      ],
      "name": "transferOwnership",
      "outputs": [],
      "stateMutability": "nonpayable",
      "type": "function"
    },
    {
      "inputs": [],
      "name": "treasurySupply",
      "outputs": [
        {
          "internalType": "uint256",
          "name": "",
          "type": "uint256"
        }
      ],
      "stateMutability": "view",
      "type": "function"
    },
    {
      "inputs": [
        {
          "internalType": "uint256",
          "name": "amount",
          "type": "uint256"
        }
      ],
      "name": "treasuryWithdraw",
      "outputs": [],
      "stateMutability": "nonpayable",
      "type": "function"
    },
    {
      "inputs": [
        {
          "internalType": "uint256",
          "name": "amount",
          "type": "uint256"
        },
        {
          "internalType": "address",
          "name": "node",
          "type": "address"
        }
      ],
      "name": "undelegate",
      "outputs": [],
      "stateMutability": "nonpayable",
      "type": "function"
    },
    {
      "inputs": [
        {
          "internalType": "uint256",
          "name": "amount",
          "type": "uint256"
        },
        {
          "internalType": "address",
          "name": "node",
          "type": "address"
        }
      ],
      "name": "undelegateWithdraw",
      "outputs": [],
      "stateMutability": "nonpayable",
      "type": "function"
    },
    {
      "inputs": [
        {
          "internalType": "address",
          "name": "newImplementation",
          "type": "address"
        }
      ],
      "name": "upgradeTo",
      "outputs": [],
      "stateMutability": "nonpayable",
      "type": "function"
    },
    {
      "inputs": [
        {
          "internalType": "address",
          "name": "newImplementation",
          "type": "address"
        },
        {
          "internalType": "bytes",
          "name": "data",
          "type": "bytes"
        }
      ],
      "name": "upgradeToAndCall",
      "outputs": [],
      "stateMutability": "payable",
      "type": "function"
    },
    {
      "inputs": [
        {
          "internalType": "string",
          "name": "metadata_",
          "type": "string"
        }
      ],
      "name": "upsertNode",
      "outputs": [],
      "stateMutability": "nonpayable",
      "type": "function"
    },
    {
      "inputs": [
        {
          "internalType": "address",
          "name": "node",
          "type": "address"
        },
        {
          "internalType": "string",
          "name": "metadata_",
          "type": "string"
        }
      ],
      "name": "upsertNodeAdmin",
      "outputs": [],
      "stateMutability": "nonpayable",
      "type": "function"
    },
    {
      "inputs": [
        {
          "internalType": "address",
          "name": "",
          "type": "address"
        }
      ],
      "name": "whitelist",
      "outputs": [
        {
          "internalType": "enum LogStoreNodeManager.WhitelistState",
          "name": "",
          "type": "uint8"
        }
      ],
      "stateMutability": "view",
      "type": "function"
    },
    {
      "inputs": [
        {
          "internalType": "address",
          "name": "nodeAddress",
          "type": "address"
        }
      ],
      "name": "whitelistApproveNode",
      "outputs": [],
      "stateMutability": "nonpayable",
      "type": "function"
    },
    {
      "inputs": [
        {
          "internalType": "address",
          "name": "nodeAddress",
          "type": "address"
        }
      ],
      "name": "whitelistRejectNode",
      "outputs": [],
      "stateMutability": "nonpayable",
      "type": "function"
    },
    {
      "inputs": [
        {
          "internalType": "uint256",
          "name": "amount",
          "type": "uint256"
        }
      ],
      "name": "withdraw",
      "outputs": [],
      "stateMutability": "nonpayable",
      "type": "function"
    }
  ],
  "bytecode": "0x60a080604052346100315730608052614a1290816100378239608051818181611860015281816119990152612d0f0152f35b600080fdfe6080806040526004361015610014575b600080fd5b600090813560e01c9081630106395f1461333a5750806308bbb824146133155780631204c486146132c957806318160ddd146132ab578063189a5a17146131865780631ad603d01461310b5780631e332da8146130ef57806320a59a03146130925780632af57580146130285780632e1a7d4d1461300b5780633659cfe614612ce85780633cfb3d8a146129c357806345e863e01461299e5780634632974314611d0757806346c198f614611cdf5780634830563414611cc3578063498a4c2d14611ca45780634f1ef2861461191b57806352d1902d1461184557806354ea9da2146118115780635888799c146117a75780635fc1a4b8146117895780636177fd181461175b578063652671391461166d57806370a0823114611634578063715018a6146115d8578063735e6c7a1461135c57806375ed25dc1461131b57806379e574cb146112da5780638b4dcc4414610d9f5780638ce15586146112b05780638da5cb5b146112895780639592d4241461126a5780639b19251a1461120e578063a5ee5b41146111eb578063a694fc3a14610f8f578063a7cc540514610d9f578063abad29a814610f3e578063b2a52fef14610e73578063bfdf086614610e4b578063c10b522214610de5578063cd23d26814610da9578063ceae878514610d9f578063d0d3f5ba14610d85578063d5c7096614610d67578063d66d9e1914610d14578063e7b5895314610ce6578063e8d88aba14610ca5578063f2fde38b14610bfd5763f6883c051461024857600080fd5b34610bfa576020366003190112610bfa5760043567ffffffffffffffff811161074d5761027990369060040161338b565b91610283336148a4565b15610bb55761010e6001600160a01b038154168260405180926312e63d7160e01b825281806102b68a8a60048401613d0a565b03915afa908115610baa5783916107a0575b5061010081015161075b57825b606080830190815180518410156103e9576102f284604092613add565b51015161030a575b505061030590613ab8565b6102d5565b6001600160a01b0361010c5416610322848451613add565b51516020610331868651613add565b510151926040610342878751613add565b51015193833b156103e55791898094926103799460405197889687958694639ac0e98b60e01b865260048601526064850190613484565b916024840152604483015203925af180156103da579086916103c2575b50509060206103a9826103059451613add565b5101516103b960fc918254613d32565b905590386102fa565b6103cb906133f3565b6103d6578438610396565b8480fd5b6040513d88823e3d90fd5b8980fd5b8786888b88825b60c08201805180518310156104e95761040b83604092613add565b510151610422575b5061041d90613ab8565b6103f0565b6001600160a01b0361010d54166001600160a01b03610442848451613add565b5151166020610452858551613add565b510151906040610463868651613add565b51015192803b156104e557889291836064926040519687958694631ee2efa360e31b86526004860152602485015260448401525af180156103da579086916104d1575b50509060206104b98261041d9451613add565b5101516104c960fc918254613d32565b905590610413565b6104da906133f3565b6103d65784886104a6565b8880fd5b5050509390825b60808601805180518310156105815782916020610529846001600160a01b0361051f6105699861056497613add565b5151169351613add565b51015181885261010290816020526105496005918260408c200154613d3f565b91898084131561056e578490526020526040892001556145f9565b613ab8565b6104f0565b92508383526020526040822001556145f9565b8580898988885b60a08401928351805188101561068d576105aa886001600160a01b0392613add565b51511694865b60206105bd8a8851613add565b51015151811015610675578089602061060383826105f06001600160a01b036105f8610650998f6105f08a879251613add565b510151613add565b515116958d51613add565b51015190898b5261062b610105928360205260408d2083600052602052604060002054613d3f565b918b831315610655578a8c5260205260408b2090600052602052604060002055613ab8565b6105b0565b909150898b5260205260408a209060005260205288604060002055613ab8565b50935093509461068490613ab8565b94929192610588565b868484826001600160a01b03866106ac8c604060fd5491015190613d3f565b838113156107515760fd555b5416803b1561074d5781604051809263f6883c0560e01b82528183816106e2898b60048401613d0a565b03925af180156107425761072a575b50507fbcd21d99bbf55769881dda49c45043a8750d2229c330cdddd4718575f72364029161072460405192839283613d0a565b0390a180f35b610733906133f3565b61073e5782846106f1565b8280fd5b6040513d84823e3d90fd5b5080fd5b508260fd556106b8565b60405162461bcd60e51b815260206004820152601c60248201527f6572726f725f7265706f7274416c726561647950726f636573736564000000006044820152606490fd5b3d91508184823e6107b1828261343f565b6020818381010312610ba65780519067ffffffffffffffff82116103d65761012092838383018284010312610ba25760405193840184811067ffffffffffffffff821117610b8c576040528282015167ffffffffffffffff8111610a5257610820908284019085850101613c2b565b845281830160208181015190860152604080820151908601526060015167ffffffffffffffff8111610a5257818301601f8286860101011215610a52578084840101519061086d826134fe565b9161087b604051938461343f565b808352602083019184860160208360051b838a8a01010101116103e5576020818888010101925b60208360051b838a8a010101018410610af3575050505060608501526080838301015167ffffffffffffffff8111610a52576108e5908284019085850101613c81565b608085015260a0838301015167ffffffffffffffff8111610a5257818301601f8286860101011215610a5257808484010151610920816134fe565b9161092e604051938461343f565b818352602083019084860160208460051b838a8a01010101116103e5576020818888010101915b60208460051b838a8a010101018310610a56575050505060a085015260c0838301015167ffffffffffffffff8111610a525783830101818301601f82011215610a52578051906109a4826134fe565b926109b2604051948561343f565b8284526020606081860194028301019181860183116103e557602001925b828410610a0d575050505060c0840152610a03906109f283820160e001613c6d565b60e085015261010092018201613bd2565b90820152386102c8565b60608483880103126103e5576020606091604051610a2a81613407565b610a3387613c6d565b81528287015183820152604087015160408201528152019301926109d0565b8680fd5b825167ffffffffffffffff8111610aef576040888a0184018201888a0103601f190112610aef5760405190610a8a82613423565b610a9c602082868d8d01010101613c6d565b8252604081858c8c01010101519067ffffffffffffffff8211610aeb579260209392610ada8b868096958f968a8f9884998601950101010101613c81565b838201528152019301929050610955565b8d80fd5b8b80fd5b835167ffffffffffffffff8111610aef576060888a0184018201888a0103601f190112610aef5760405190610b2782613407565b602081858c8c010101015167ffffffffffffffff8111610aeb5792602093926060859493878e8e610b678f988a809a840191878787870101010101613c2b565b86520101016040818101518685015291015190820152815291909501940190506108a2565b634e487b7160e01b600052604160045260246000fd5b8580fd5b8380fd5b6040513d85823e3d90fd5b60405162461bcd60e51b815260206004820152601360248201527f6572726f725f7374616b655265717569726564000000000000000000000000006044820152606490fd5b80fd5b5034610bfa576020366003190112610bfa57610c17613375565b610c1f6135de565b6001600160a01b03811615610c3a57610c3790613636565b80f35b60405162461bcd60e51b815260206004820152602660248201527f4f776e61626c653a206e6577206f776e657220697320746865207a65726f206160448201527f64647265737300000000000000000000000000000000000000000000000000006064820152608490fd5b5034610bfa576020366003190112610bfa57610cbf613375565b610cc76135de565b6001600160a01b0361010e91166001600160a01b031982541617905580f35b5034610bfa576040366003190112610bfa57610c37600435610d0f610d0961335f565b82613edf565b613fc3565b5034610bfa5780600319360112610bfa573381526101056020526040812033600052602052610d4833604060002054613edf565b338152610104602052610d5e6040822054613fc3565b610c37336143b1565b5034610bfa5780600319360112610bfa57602060fe54604051908152f35b5034610bfa5780600319360112610bfa57610c37336143b1565b505061000f6135c1565b5034610bfa576020366003190112610bfa57600560406020926001600160a01b03610dd2613375565b1681526101028452200154604051908152f35b5034610bfa5780600319360112610bfa57610dfe6147f0565b90604051918291602080840190808552835180925280604086019401925b828110610e2b57505050500390f35b83516001600160a01b031685528695509381019392810192600101610e1c565b5034610bfa5780600319360112610bfa5760206001600160a01b036101075416604051908152f35b5034610bfa576020366003190112610bfa5760043567ffffffffffffffff811161074d57610ea590369060040161338b565b60ff60fb5416158015610f07575b15610ec257610c3791336140bc565b60405162461bcd60e51b815260206004820152601160248201527f6572726f725f6e6f74417070726f7665640000000000000000000000000000006044820152606490fd5b5033835261010360205260ff6040842054166003811015610f2a57600114610eb3565b634e487b7160e01b84526021600452602484fd5b5034610bfa576040366003190112610bfa57610f58613375565b6040610f6261335f565b926001600160a01b0380931681526101056020522091166000526020526020604060002054604051908152f35b5034610bfa5760208060031936011261074d57600435600260c954146111a657600260c9558015611161576001600160a01b0361010b60248483835416604051928380926370a0823160e01b82523360048301525afa80156103da5784918791611130575b50106110eb5791606484928694338652610104855260408620611018858254613d32565b90556110268460fc54613d32565b60fc5554169160405194859384926323b872dd60e01b845233600485015230602485015260448401525af18015610baa5783906110b6575b600191501515036110725750600160c95580f35b6064906040519062461bcd60e51b82526004820152601760248201527f6572726f725f756e7375636365737366756c5374616b650000000000000000006044820152fd5b508181813d83116110e4575b6110cc818361343f565b8101031261073e576110df600191613bd2565b61105e565b503d6110c2565b60405162461bcd60e51b815260048101859052601960248201527f6572726f725f696e73756666696369656e7442616c616e6365000000000000006044820152606490fd5b809250868092503d831161115a575b611149818361343f565b81010312610ba25783905138610ff4565b503d61113f565b60405162461bcd60e51b815260048101839052601760248201527f6572726f725f696e73756666696369656e745374616b650000000000000000006044820152606490fd5b60405162461bcd60e51b815260048101839052601f60248201527f5265656e7472616e637947756172643a207265656e7472616e742063616c6c006044820152606490fd5b5034610bfa5780600319360112610bfa57602060ff60fb54166040519015158152f35b5034610bfa576020366003190112610bfa576001600160a01b03611230613375565b16815261010360205260ff60408220541660405190600381101561125657602092508152f35b634e487b7160e01b83526021600452602483fd5b5034610bfa5780600319360112610bfa57602061010054604051908152f35b5034610bfa5780600319360112610bfa5760206001600160a01b0360975416604051908152f35b5034610bfa576020366003190112610bfa57610c376112cd613375565b6112d56135de565b6143b1565b5034610bfa576020366003190112610bfa576112f4613375565b6112fc6135de565b6001600160a01b0361010d91166001600160a01b031982541617905580f35b5034610bfa576020366003190112610bfa57611335613375565b61133d6135de565b6001600160a01b0361010c91166001600160a01b031982541617905580f35b5034610bfa576040366003190112610bfa576004359061137a61335f565b600260c9541461159357600260c955821561154e576001600160a01b039261010b93808554169460405180966370a0823160e01b82523360048301528160246020998a935afa9081156103da57908491879161151d575b50106114d857849186913384526101048352604084206113f2868254613d32565b90556114008560fc54613d32565b60fc5554166064604051809481936323b872dd60e01b83523360048401523060248401528760448401525af180156114cd578490611498575b600191501515036114535790610c3791600160c955613df2565b60405162461bcd60e51b815260048101859052601760248201527f6572726f725f756e7375636365737366756c5374616b650000000000000000006044820152606490fd5b508481813d83116114c6575b6114ae818361343f565b81010312610ba6576114c1600191613bd2565b611439565b503d6114a4565b6040513d86823e3d90fd5b60405162461bcd60e51b815260048101879052601960248201527f6572726f725f696e73756666696369656e7442616c616e6365000000000000006044820152606490fd5b809250888092503d8311611547575b611536818361343f565b81010312610ba257839051386113d1565b503d61152c565b60405162461bcd60e51b815260206004820152601760248201527f6572726f725f696e73756666696369656e745374616b650000000000000000006044820152606490fd5b60405162461bcd60e51b815260206004820152601f60248201527f5265656e7472616e637947756172643a207265656e7472616e742063616c6c006044820152606490fd5b5034610bfa5780600319360112610bfa576115f16135de565b60006001600160a01b036097546001600160a01b03198116609755167f8be0079c531659141344cd1fd0a4f28419497f9722a3daafe3b4186f6b6457e08280a380f35b5034610bfa576020366003190112610bfa5760406020916001600160a01b0361165b613375565b16815261010483522054604051908152f35b5034610bfa576020366003190112610bfa578060206116fb6004356116906135de565b6116b78160fd546116a381831115613b79565b6116af8260fc54613bc5565b60fc55613bc5565b60fd556001600160a01b0361010b54169060405194858094819363a9059cbb60e01b83523360048401602090939291936001600160a01b0360408201951681520152565b03925af190811561074257829161171c575b506001610c3791151514613bdf565b90506020813d8211611753575b816117366020938361343f565b8101031261074d57600161174c610c3792613bd2565b915061170d565b3d9150611729565b5034610bfa576020366003190112610bfa57602061177f61177a613375565b6148a4565b6040519015158152f35b5034610bfa5780600319360112610bfa57602060fd54604051908152f35b5034610bfa576020366003190112610bfa576001600160a01b036117c9613375565b6117d16135de565b1680825261010360205260408220805460ff191660011790557fdfe83f699699403a4b116b6f9504680228c3f319bbf5ab26b48a81d3005d98b28280a280f35b5034610bfa5780600319360112610bfa5761184161182d61354f565b604051918291602083526020830190613484565b0390f35b5034610bfa5780600319360112610bfa576001600160a01b037f00000000000000000000000000000000000000000000000000000000000000001630036118b05760206040517f360894a13ba1a3210667c828492db98dca3e2076cc3735a920a3ca505d382bbc8152f35b60405162461bcd60e51b815260206004820152603860248201527f555550535570677261646561626c653a206d757374206e6f742062652063616c60448201527f6c6564207468726f7567682064656c656761746563616c6c00000000000000006064820152608490fd5b506040366003190112610bfa57611930613375565b90602491823567ffffffffffffffff811161073e573660238201121561073e5780600401359061195f826134a9565b61196c604051918261343f565b8281526020928382019236888383010111610a5257818792898793018637830101526001600160a01b03807f000000000000000000000000000000000000000000000000000000000000000016906119c68230141561367e565b6119f57f360894a13ba1a3210667c828492db98dca3e2076cc3735a920a3ca505d382bbc9282845416146136f0565b6119fd6135de565b7f4910fdfa16fed3260ed0e7147f7cc6da11a60208b5b9406d12a635614ffd91435460ff1615611a37575050505050610c37919250613762565b8596949616906040516352d1902d60e01b81528781600481865afa60009181611c75575b50611abb5760405162461bcd60e51b815260048101899052602e818b01527f45524331393637557067726164653a206e657720696d706c656d656e7461746960448201526d6f6e206973206e6f74205555505360901b6064820152608490fd5b979192939496959703611c2057611ad187613762565b604051917fbc7cd75a20ee27fd9adebab32041f755214dbc6bffa90cc0225b39da2e5c2d3b600080a2825115801590611c18575b611b14575b5050505050905080f35b863b15611bc8575050611bb49394600092839251915af43d15611bc0573d90611b3c826134a9565b91611b4a604051938461343f565b82523d60008484013e5b7f416464726573733a206c6f772d6c6576656c2064656c65676174652063616c6c60405193611b8285613407565b602785528401527f206661696c6564000000000000000000000000000000000000000000000000006040840152613810565b50803880808080611b0a565b606090611b54565b62461bcd60e51b8252600482018590526026908201527f416464726573733a2064656c65676174652063616c6c20746f206e6f6e2d636f6044820152651b9d1c9858dd60d21b6064820152608490fd5b506001611b05565b8460296084926040519262461bcd60e51b845260048401528201527f45524331393637557067726164653a20756e737570706f727465642070726f786044820152681a58589b195555525160ba1b6064820152fd5b90918982813d8311611c9d575b611c8c818361343f565b81010312610bfa5750519038611a5b565b503d611c82565b5034610bfa5780600319360112610bfa57602061010154604051908152f35b5034610bfa5780600319360112610bfa5761184161182d613516565b5034610bfa5780600319360112610bfa5760206001600160a01b036101065416604051908152f35b5034610bfa5760e0366003190112610bfa57611d21613375565b602435801515810361073e57604435906001600160a01b0382168203610ba6576084356001600160a01b03811681036103d65760a4359267ffffffffffffffff8411610ba25736602385011215610ba257836004013593611d81856134fe565b94611d8f604051968761343f565b80865260208601913660248360051b830101116104e5579160248301925b60248360051b8201018410612973575050505067ffffffffffffffff60c43511610ba25736602360c435011215610ba25767ffffffffffffffff60c4356004013511610ba25736602460c4356004013560051b60c435010111610ba25785549260ff8460081c161593848095612966575b801561294f575b156128e45760ff1981166001178855846128d3575b50611e4d60c43560040135865114613854565b6001600160a01b0382161515806128c8575b611e6890613854565b611e8160ff885460081c16611e7c81613b07565b613b07565b611e8a33613636565b611ea760ff885460081c16611e9e81613b07565b611e7c81613b07565b600160c95560ff801960fb5416911515161760fb556001600160a01b036001600160a01b03199161010b82821684825416179055168160ff54161760ff5560643560fe556001600160a01b0382169061010f54161761010f5584611f0961354f565b91611f12613588565b906001600160a01b0381163b1561073e57611f4c93836001600160a01b03604051809781968295630ef8cdc760e01b8452600484016138a0565b0393165af180156128bd576128aa575b50611f66306148d8565b611fac6020611f7361354f565b926040519381611f8c8693518092868087019101613461565b8201611fa082518093868085019101613461565b0103808452018261343f565b80519067ffffffffffffffff8211612588578190611fcc610108546133b9565b601f811161285a575b50602090601f83116001146127d05787926127c5575b50508160011b916000199060031b1c191617610108555b836001600160a01b0361010f5416803b1561074d5760405190632337c3c760e11b82526040600483015260006101085461203b816133b9565b9081604486015285856001831692836000146127a55750505060011461274b575b50839183838180946003602483015203925af1801561074257612737575b506001600160a01b0361010f54166120906134c5565b612098613588565b823b15610ba6576120c292849283604051809681958294630ef8cdc760e01b8452600484016138a0565b03925af1801561074257612723575b50506120dc306148d8565b6120e96020611f736134c5565b80519067ffffffffffffffff8211612588578190612109610109546133b9565b601f81116126d3575b50602090601f831160011461264957879261263e575b50508160011b916000199060031b1c191617610109555b836001600160a01b0361010f5416803b1561074d5760405190632337c3c760e11b825260406004830152600061010954612178816133b9565b90816044860152858560018316928360001461261e575050506001146125c4575b50839183838180946003602483015203925af18015610742576125b0575b506001600160a01b0361010f54166121cd613516565b6121d5613588565b823b15610ba6576121ff92849283604051809681958294630ef8cdc760e01b8452600484016138a0565b03925af180156107425761259c575b5050612219306148d8565b6122266020611f73613516565b80519067ffffffffffffffff821161258857819061224661010a546133b9565b601f811161252d575b50602090601f83116001146124a3578792612498575b50508160011b916000199060031b1c19161761010a555b836001600160a01b0361010f5416803b1561074d5760405190632337c3c760e11b825260406004830152600061010a546122b5816133b9565b9081604486015285856001831692836000146124785750505060011461241e575b50839183838180946003602483015203925af180156107425761240a575b505b82518110156123a9576001600160a01b036123118285613add565b51169060c435600401358110156123955760421960c43536030160248260051b60c4350101351215610ba25760248160051b60c43501013560c435019167ffffffffffffffff602484013511610a5257602483013536036044840113610a525761239092610564916123816135de565b604460248301359201906140bc565b6122f6565b634e487b7160e01b86526032600452602486fd5b8482856123b46135de565b6001600160a01b03811615610c3a576123cc90613636565b6123d35780f35b61ff001981541681557f7f26b83ff96e1f2b6a682f133852f6798a09c465da95921460cefb3847402498602060405160018152a180f35b612413906133f3565b610ba65783386122f4565b61010a600090815291507fc588bd85af64879c0999911852d2549e38c750e7e4e194eb8891b0913e93b12c5b81831061245e5750508201606401836122d6565b80546064868501015289955060209092019160010161244a565b60ff191660648083019190915293151560051b0190920192506122d69050565b015190503880612265565b925061010a87527fc588bd85af64879c0999911852d2549e38c750e7e4e194eb8891b0913e93b12c9087935b601f1984168510612512576001945083601f198116106124f9575b505050811b0161010a5561227c565b015160001960f88460031b161c191690553880806124ea565b818101518355602094850194600190930192909101906124cf565b6125789061010a6000527fc588bd85af64879c0999911852d2549e38c750e7e4e194eb8891b0913e93b12c601f850160051c8101916020861061257e575b601f0160051c01906138c8565b3861224f565b909150819061256b565b634e487b7160e01b86526041600452602486fd5b6125a5906133f3565b610ba657833861220e565b6125b9906133f3565b610ba65783386121b7565b610109600090815291507fd7f48d1c2d4fdcceabee32a4fd1437f382c65f0f9af09a878c95c20147dc06a85b818310612604575050820160640183612199565b8054606486850101528995506020909201916001016125f0565b60ff191660648083019190915293151560051b0190920192506121999050565b015190503880612128565b925061010987527fd7f48d1c2d4fdcceabee32a4fd1437f382c65f0f9af09a878c95c20147dc06a89087935b601f19841685106126b8576001945083601f1981161061269f575b505050811b016101095561213f565b015160001960f88460031b161c19169055388080612690565b81810151835560209485019460019093019290910190612675565b61271d906101096000527fd7f48d1c2d4fdcceabee32a4fd1437f382c65f0f9af09a878c95c20147dc06a8601f850160051c8101916020861061257e57601f0160051c01906138c8565b38612112565b61272c906133f3565b610ba65783386120d1565b612740906133f3565b610ba657833861207a565b610108600090815291507f8543e9adbfbe1f62b7411fdf032fcfea758a7d6b332f64d971a1334c2ff364dd5b81831061278b57505082016064018361205c565b805460648685010152899550602090920191600101612777565b60ff191660648083019190915293151560051b01909201925061205c9050565b015190503880611feb565b925061010887527f8543e9adbfbe1f62b7411fdf032fcfea758a7d6b332f64d971a1334c2ff364dd9087935b601f198416851061283f576001945083601f19811610612826575b505050811b0161010855612002565b015160001960f88460031b161c19169055388080612817565b818101518355602094850194600190930192909101906127fc565b6128a4906101086000527f8543e9adbfbe1f62b7411fdf032fcfea758a7d6b332f64d971a1334c2ff364dd601f850160051c8101916020861061257e57601f0160051c01906138c8565b38611fd5565b6128b6909491946133f3565b9238611f5c565b6040513d87823e3d90fd5b506064351515611e5f565b61ffff191661010117875538611e3a565b60405162461bcd60e51b815260206004820152602e60248201527f496e697469616c697a61626c653a20636f6e747261637420697320616c72656160448201527f647920696e697469616c697a65640000000000000000000000000000000000006064820152608490fd5b50303b158015611e255750600160ff821614611e25565b50600160ff821610611e1e565b8335916001600160a01b038316830361299a57602081602494829352019401939150611dad565b8a80fd5b5034610bfa576040366003190112610bfa57610c376129bb61335f565b600435613edf565b5034610bfa576040366003190112610bfa576004356024803567ffffffffffffffff8111610ba6576129f990369060040161338b565b9060ff60fb5416158015612cb2575b15612c6e5790612a1891336140bc565b600260c95414612c2a57600260c9558115612be6576001600160a01b039061010b91808354169260405180946370a0823160e01b8252336004830152818560209788935afa8015612bdb5786918891612baa575b5010612b665785918491338452610104835260408420612a8d888254613d32565b9055612a9b8760fc54613d32565b60fc5554166064604051809481936323b872dd60e01b835233600484015230888401528960448401525af180156128bd578590612b31575b60019150151503612aee57600160c95583610c373385613df2565b9060176064926040519262461bcd60e51b845260048401528201527f6572726f725f756e7375636365737366756c5374616b650000000000000000006044820152fd5b508281813d8311612b5f575b612b47818361343f565b810103126103d657612b5a600191613bd2565b612ad3565b503d612b3d565b60405162461bcd60e51b8152600481018590526019818501527f6572726f725f696e73756666696369656e7442616c616e6365000000000000006044820152606490fd5b809250868092503d8311612bd4575b612bc3818361343f565b81010312610a525785905138612a6c565b503d612bb9565b6040513d89823e3d90fd5b60649060176040519162461bcd60e51b8352602060048401528201527f6572726f725f696e73756666696369656e745374616b650000000000000000006044820152fd5b606490601f6040519162461bcd60e51b8352602060048401528201527f5265656e7472616e637947756172643a207265656e7472616e742063616c6c006044820152fd5b60405162461bcd60e51b8152602060048201526011818501527f6572726f725f6e6f74417070726f7665640000000000000000000000000000006044820152606490fd5b5033855261010360205260ff6040862054166003811015612cd557600114612a08565b634e487b7160e01b865260216004528386fd5b5034610bfa5760208060031936011261074d57612d03613375565b906001600160a01b03807f000000000000000000000000000000000000000000000000000000000000000016612d3b8130141561367e565b612d6a7f360894a13ba1a3210667c828492db98dca3e2076cc3735a920a3ca505d382bbc9183835416146136f0565b612d726135de565b604051908382019282841067ffffffffffffffff851117612ff7578360405286835260ff7f4910fdfa16fed3260ed0e7147f7cc6da11a60208b5b9406d12a635614ffd91435416600014612dce575050505050610c3790613762565b8596949516906040516352d1902d60e01b81528681600481865afa869181612fc8575b50612e525760405162461bcd60e51b815260048101889052602e60248201527f45524331393637557067726164653a206e657720696d706c656d656e7461746960448201526d6f6e206973206e6f74205555505360901b6064820152608490fd5b95949503612f7157612e6386613762565b604051907fbc7cd75a20ee27fd9adebab32041f755214dbc6bffa90cc0225b39da2e5c2d3b8680a2815115801590612f6a575b612ea4575b50505050905080f35b853b15612f1957509280948192612f0e9551915af43d15611bc0573d90612eca826134a9565b91612ed8604051938461343f565b82523d858484013e7f416464726573733a206c6f772d6c6576656c2064656c65676174652063616c6c60405193611b8285613407565b508038808080612e9b565b62461bcd60e51b815260048101849052602660248201527f416464726573733a2064656c65676174652063616c6c20746f206e6f6e2d636f6044820152651b9d1c9858dd60d21b6064820152608490fd5b5084612e96565b60405162461bcd60e51b815260048101859052602960248201527f45524331393637557067726164653a20756e737570706f727465642070726f786044820152681a58589b195555525160ba1b6064820152608490fd5b9091508781813d8311612ff0575b612fe0818361343f565b81010312610a5257519038612df1565b503d612fd6565b634e487b7160e01b87526041600452602487fd5b5034610bfa576020366003190112610bfa57610c37600435613fc3565b5034610bfa576020366003190112610bfa576001600160a01b0361304a613375565b6130526135de565b1680825261010360205260408220805460ff191660021790557fbbe2a784aa6240d8175fa65a8459058efd8f44c5ab66caa2525fe9d6342108788280a280f35b5034610bfa576020366003190112610bfa5760043580151580910361074d576130b96135de565b60ff1960fb541660ff82161760fb557f7623db9c426686f05cec977c4cadb8ff9657502540ca665ae347731114dac69d8280a280f35b5034610bfa5780600319360112610bfa5761184161182d6134c5565b5034610bfa576020366003190112610bfa57610c37613128613375565b6131306135de565b6131386135de565b6001600160a01b03811680845261010360205260408420805460ff191660021790557fbbe2a784aa6240d8175fa65a8459058efd8f44c5ab66caa2525fe9d6342108788480a26112d56135de565b5034610bfa5760209081600319360112610bfa576001600160a01b03806131ab613375565b1682526101028352604082209182549284600180830193604051948592828254926131d5846133b9565b808752938381169081156132865750600114613249575b505050506131fc9250038361343f565b600281015492613230600582600385015416926004850154169301549360c0604051988998895288015260c0870190613484565b9360408601526060850152608084015260a08301520390f35b815285812095935091905b81831061326e5750899450508201016131fc3880806131ec565b85548884018501529485019487945091830191613254565b93505050506131fc94925060ff191682840152151560051b82010187923880806131ec565b5034610bfa5780600319360112610bfa57602060fc54604051908152f35b5034610bfa576040366003190112610bfa576132e3613375565b6024359067ffffffffffffffff821161073e57613307610c3792369060040161338b565b916133106135de565b6140bc565b5034610bfa576040366003190112610bfa57610c3761333261335f565b600435613df2565b90503461074d578160031936011261074d576020906001600160a01b0360ff54168152f35b602435906001600160a01b038216820361000f57565b600435906001600160a01b038216820361000f57565b9181601f8401121561000f5782359167ffffffffffffffff831161000f576020838186019501011161000f57565b90600182811c921680156133e9575b60208310146133d357565b634e487b7160e01b600052602260045260246000fd5b91607f16916133c8565b67ffffffffffffffff8111610b8c57604052565b6060810190811067ffffffffffffffff821117610b8c57604052565b6040810190811067ffffffffffffffff821117610b8c57604052565b90601f8019910116810190811067ffffffffffffffff821117610b8c57604052565b60005b8381106134745750506000910152565b8181015183820152602001613464565b9060209161349d81518092818552858086019101613461565b601f01601f1916010190565b67ffffffffffffffff8111610b8c57601f01601f191660200190565b604051906134d282613423565b600982527f2f7265636f7665727900000000000000000000000000000000000000000000006020830152565b67ffffffffffffffff8111610b8c5760051b60200190565b6040519061352382613423565b600782527f2f73797374656d000000000000000000000000000000000000000000000000006020830152565b6040519061355c82613423565b600a82527f2f686561727462656174000000000000000000000000000000000000000000006020830152565b6040519061359582613423565b601382527f7b2022706172746974696f6e73223a2031207d000000000000000000000000006020830152565b503461000f57600036600319011261000f5761184161182d613588565b6001600160a01b036097541633036135f257565b606460405162461bcd60e51b815260206004820152602060248201527f4f776e61626c653a2063616c6c6572206973206e6f7420746865206f776e65726044820152fd5b609754906001600160a01b0380911691826001600160a01b0319821617609755167f8be0079c531659141344cd1fd0a4f28419497f9722a3daafe3b4186f6b6457e0600080a3565b1561368557565b60405162461bcd60e51b815260206004820152602c60248201527f46756e6374696f6e206d7573742062652063616c6c6564207468726f7567682060448201527f64656c656761746563616c6c00000000000000000000000000000000000000006064820152608490fd5b156136f757565b60405162461bcd60e51b815260206004820152602c60248201527f46756e6374696f6e206d7573742062652063616c6c6564207468726f7567682060448201527f6163746976652070726f787900000000000000000000000000000000000000006064820152608490fd5b803b156137a5576001600160a01b037f360894a13ba1a3210667c828492db98dca3e2076cc3735a920a3ca505d382bbc91166001600160a01b0319825416179055565b60405162461bcd60e51b815260206004820152602d60248201527f455243313936373a206e657720696d706c656d656e746174696f6e206973206e60448201527f6f74206120636f6e7472616374000000000000000000000000000000000000006064820152608490fd5b9091901561381c575090565b81511561382c5750805190602001fd5b60405162461bcd60e51b815260206004820152908190613850906024830190613484565b0390fd5b1561385b57565b60405162461bcd60e51b815260206004820152601460248201527f6572726f725f626164547261636b6572446174610000000000000000000000006044820152606490fd5b90916138b76138c593604084526040840190613484565b916020818403910152613484565b90565b8181106138d3575050565b600081556001016138c8565b906000916101089081546138f2816133b9565b808352926001918083169081156139715750600114613912575b50505050565b90929394506000527f8543e9adbfbe1f62b7411fdf032fcfea758a7d6b332f64d971a1334c2ff364dd916000925b848410613959575050602092500101903880808061390c565b80546020858501810191909152909301928101613940565b92505050602093945060ff929192191683830152151560051b0101903880808061390c565b906000916101099081546139a9816133b9565b8083529260019180831690811561397157506001146139c85750505050565b90929394506000527fd7f48d1c2d4fdcceabee32a4fd1437f382c65f0f9af09a878c95c20147dc06a8916000925b848410613a0f575050602092500101903880808061390c565b805460208585018101919091529093019281016139f6565b9060009161010a908154613a3a816133b9565b808352926001918083169081156139715750600114613a595750505050565b90929394506000527fc588bd85af64879c0999911852d2549e38c750e7e4e194eb8891b0913e93b12c916000925b848410613aa0575050602092500101903880808061390c565b80546020858501810191909152909301928101613a87565b6000198114613ac75760010190565b634e487b7160e01b600052601160045260246000fd5b8051821015613af15760209160051b010190565b634e487b7160e01b600052603260045260246000fd5b15613b0e57565b60405162461bcd60e51b815260206004820152602b60248201527f496e697469616c697a61626c653a20636f6e7472616374206973206e6f74206960448201527f6e697469616c697a696e670000000000000000000000000000000000000000006064820152608490fd5b15613b8057565b60405162461bcd60e51b815260206004820152601460248201527f6572726f725f6e6f74456e6f7567685374616b650000000000000000000000006044820152606490fd5b91908203918211613ac757565b5190811515820361000f57565b15613be657565b60405162461bcd60e51b815260206004820152601a60248201527f6572726f725f756e7375636365737366756c57697468647261770000000000006044820152606490fd5b81601f8201121561000f578051613c41816134a9565b92613c4f604051948561343f565b8184526020828401011161000f576138c59160208085019101613461565b51906001600160a01b038216820361000f57565b81601f8201121561000f57805190613c98826134fe565b92604092613ca88451958661343f565b808552602091828087019260061b8501019381851161000f578301915b848310613cd55750505050505090565b858383031261000f578386918251613cec81613423565b613cf586613c6d565b81528286015183820152815201920191613cc5565b90918060409360208452816020850152848401376000828201840152601f01601f1916010190565b91908201809211613ac757565b91909160008382019384129112908015821691151617613ac757565b15613d6257565b606460405162461bcd60e51b815260206004820152602060248201527f6572726f725f696e73756666696369656e7444656c6567617465416d6f756e746044820152fd5b15613dad57565b60405162461bcd60e51b815260206004820152601160248201527f6572726f725f696e76616c69644e6f64650000000000000000000000000000006044820152606490fd5b613dfd811515613d5b565b6001600160a01b038216916000838152610102916020928084526040928391613e2d600284842001541515613da6565b3382526101048652828220613e43888254613bc5565b9055338252613e88610105948588528484208a85528852848420613e688a8254613d32565b9055898452828852600585852001613e818a8254613d32565b90556145f9565b87825285526005828220015492338252855281812087825285522054928251948552840152820152600160608201527f4c2cbb7d33d36a22e34970133436a2156c82cefc2dadfd9537fcfc177b40f03560803392a3565b613eea811515613d5b565b6001600160a01b03821691600090838252610102602091818352604091613f18600284872001541515613da6565b338552613f6c610105928386528487208988528652848720613f3b898254613bc5565b9055888752828652600585882001613f54898254613bc5565b90553387526101048652848720613e81898254613d32565b86855283526005828520015490338552835281842086855283528184205492825195865285015283015260608201527f4c2cbb7d33d36a22e34970133436a2156c82cefc2dadfd9537fcfc177b40f03560803392a3565b60003381528061010461404d6020948286938452613fe76040862054831115613b79565b338552835260408420613ffb828254613bc5565b90556140098160fc54613bc5565b60fc556001600160a01b0361010b54169060405195868094819363a9059cbb60e01b83523360048401602090939291936001600160a01b0360408201951681520152565b03925af19283156140af578193614072575b505050600161407091151514613bdf565b565b9091809350813d83116140a8575b61408a818361343f565b81010312610bfa575060016140a161407092613bd2565b913861405f565b503d614080565b50604051903d90823e3d90fd5b9190916001600160a01b038091169160009383855260209061010282526040862093869360028601918254156142fc575b5060018096019267ffffffffffffffff82116142e857819061410f85546133b9565b601f81116142ba575b508990601f831160011461425b578a92614250575b5050600019600383901b1c191690861b1782555b429055604051936040855286825492614159846133b9565b93846040890152838116908160001461420557506001146141ab575b505050509180917f5efa14ec2c459017dc330f0b3e8f2f26bee624ba1c66a50805faf6bf28bfb0b59342908301521515940390a3565b908094985052868084205b8385106141f05750505050820160600193817f5efa14ec2c459017dc330f0b3e8f2f26bee624ba1c66a50805faf6bf28bfb0b58438614175565b805487860160600152930192879082016141b6565b60ff19166060808a019190915294151560051b880190940198508593507f5efa14ec2c459017dc330f0b3e8f2f26bee624ba1c66a50805faf6bf28bfb0b59250869150389050614175565b01359050388061412d565b858b52868b2089945091601f1984168c5b898282106142a4575050841161428a575b505050811b018255614141565b0135600019600384901b60f8161c1916905538808061427d565b8385013586558c9790950194928301920161426c565b6142e290868c52878c20601f850160051c81019189861061257e57601f0160051c01906138c8565b38614118565b634e487b7160e01b89526041600452602489fd5b94506001946101069080825416156000146143665750876001600160a01b031982541617905543610101555b610107876001600160a01b03198254161790556101008054908682018092116143525755386140ed565b634e487b7160e01b8a52601160045260248afd5b905061010790808254168a52600360408b2001916001600160a01b0319928a8482541617905554166004880191825416179055610100548655614328565b8015613ac7576000190190565b906001600160a01b038092166000928184526101026020908082526040808720916002830154156145b5579082916004899695940193858554168061458c575b5060038094018681541680614566575b506101069586548a8982161461454e575b5061010790815490898c81841614614534575b5050505088885282825287600585822082815560019d8e8083019061444a82546133b9565b806144f7575b505050600282015582888201558260048201550155610100805490600019820191821161435257555486168a5b6144c2575b50505050507fcfc24166db4bb677e857cacabd1541fb2b30645021b27c5130419589b84db52b939495505416156144b8575b80a2565b80610101556144b4565b861680156144f2578088528282528388206144dd81546143a4565b9055875281815285848489200154168a61447d565b614482565b601f811160011461450f575050555b82388f81614450565b61452891838552601f8a86209201871c820191016138c8565b81878120915555614506565b6001600160a01b0319915416911617905538808089614425565b6001600160a01b031989845416911617875538614412565b878754169089528383526004858a2001906001600160a01b031982541617905538614401565b86600386015416908852828252600384892001906001600160a01b0319825416179055386143f1565b815162461bcd60e51b815260048101859052600e60248201527f6572726f725f6e6f74466f756e640000000000000000000000000000000000006044820152606490fd5b9060006001600160a01b038093168082526101026020526040906005828420015460fe5411156000146147615761010f948086541695863b156103d65783518581634cbf455560e11b998a82526060600483015281838161465c606482016138df565b8a60248301526002604483015203925af180156147435790869161474d575b505081815416803b15610ba25785855180928a8252606060048301528183816146a660648201613996565b8a60248301526002604483015203925af180156147435790869161472f575b5050541694853b15610ba65790839495849284519586809481938252606060048301526146f460648301613a27565b9060248301526002604483015203925af19081156147265750614715575050565b61471f82916133f3565b610bfa5750565b513d84823e3d90fd5b614738906133f3565b6103d65784386146c5565b85513d88823e3d90fd5b614756906133f3565b6103d657843861467b565b61010f948086541695863b156103d65783518581631f1cbd7560e11b998a825260606004830152818381614797606482016138df565b8a60248301526002604483015203925af18015614743576147dd575b5081815416803b15610ba25785855180928a8252606060048301528183816146a660648201613996565b6147e9909591956133f3565b93386147b3565b610100546147fd816134fe565b9060409061480d8251938461343f565b80835261481c601f19916134fe565b016020903682850137610106546001600160a01b0390811684811561489b575091600060019384805b614854575b5050505050505090565b1561488e575b60009084614868848a613add565b91168091528152610102835261488684600388842001541692613ab8565b919085614845565b83811661485a578061484a565b94505050505090565b60fe5480151591826148b557505090565b6001600160a01b0391925016600052610102602052600560406000200154101590565b6001600160a01b0316604051906148ee82613407565b602a82526020908183016040368237835115613af157603090538251600190811015613af157607860218501536029905b808211614973575050614930575090565b6064906040519062461bcd60e51b825280600483015260248201527f537472696e67733a20686578206c656e67746820696e73756666696369656e746044820152fd5b9091600f81169060108210156149c75785518410156149c7577f30313233343536373839616263646566000000000000000000000000000000006149c1921a85858801015360041c926143a4565b9061491f565b60246000634e487b7160e01b81526032600452fdfea2646970667358221220259c09af0ceb290c33e8db61ac70c6483ece9e71e3c130ece54ba2ab7576196764736f6c63430008110033",
  "linkReferences": {},
  "deployedLinkReferences": {}
}