{
  "_format": "hh-sol-artifact-1",
  "contractName": "LogStoreNodeManager",
  "sourceName": "src/NodeManager.sol",
  "abi": [
    {
      "anonymous": false,
      "inputs": [
        {
          "indexed": false,
          "internalType": "address",
          "name": "previousAdmin",
          "type": "address"
        },
        {
          "indexed": false,
          "internalType": "address",
          "name": "newAdmin",
          "type": "address"
        }
      ],
      "name": "AdminChanged",
      "type": "event"
    },
    {
      "anonymous": false,
      "inputs": [
        {
          "indexed": true,
          "internalType": "address",
          "name": "beacon",
          "type": "address"
        }
      ],
      "name": "BeaconUpgraded",
      "type": "event"
    },
    {
      "anonymous": false,
      "inputs": [
        {
          "indexed": false,
          "internalType": "uint8",
          "name": "version",
          "type": "uint8"
        }
      ],
      "name": "Initialized",
      "type": "event"
    },
    {
      "anonymous": false,
      "inputs": [
        {
          "indexed": true,
          "internalType": "address",
          "name": "nodeAddress",
          "type": "address"
        }
      ],
      "name": "NodeRemoved",
      "type": "event"
    },
    {
      "anonymous": false,
      "inputs": [
        {
          "indexed": true,
          "internalType": "address",
          "name": "nodeAddress",
          "type": "address"
        },
        {
          "indexed": false,
          "internalType": "string",
          "name": "metadata",
          "type": "string"
        },
        {
          "indexed": true,
          "internalType": "bool",
          "name": "isNew",
          "type": "bool"
        },
        {
          "indexed": false,
          "internalType": "uint256",
          "name": "lastSeen",
          "type": "uint256"
        }
      ],
      "name": "NodeUpdated",
      "type": "event"
    },
    {
      "anonymous": false,
      "inputs": [
        {
          "indexed": true,
          "internalType": "address",
          "name": "nodeAddress",
          "type": "address"
        }
      ],
      "name": "NodeWhitelistApproved",
      "type": "event"
    },
    {
      "anonymous": false,
      "inputs": [
        {
          "indexed": true,
          "internalType": "address",
          "name": "nodeAddress",
          "type": "address"
        }
      ],
      "name": "NodeWhitelistRejected",
      "type": "event"
    },
    {
      "anonymous": false,
      "inputs": [
        {
          "indexed": true,
          "internalType": "address",
          "name": "previousOwner",
          "type": "address"
        },
        {
          "indexed": true,
          "internalType": "address",
          "name": "newOwner",
          "type": "address"
        }
      ],
      "name": "OwnershipTransferred",
      "type": "event"
    },
    {
      "anonymous": false,
      "inputs": [
        {
          "indexed": false,
          "internalType": "string",
          "name": "id",
          "type": "string"
        }
      ],
      "name": "ReportProcessed",
      "type": "event"
    },
    {
      "anonymous": false,
      "inputs": [
        {
          "indexed": true,
          "internalType": "bool",
          "name": "value",
          "type": "bool"
        }
      ],
      "name": "RequiresWhitelistChanged",
      "type": "event"
    },
    {
      "anonymous": false,
      "inputs": [
        {
          "indexed": true,
          "internalType": "address",
          "name": "delegate",
          "type": "address"
        },
        {
          "indexed": true,
          "internalType": "address",
          "name": "node",
          "type": "address"
        },
        {
          "indexed": false,
          "internalType": "uint256",
          "name": "amount",
          "type": "uint256"
        },
        {
          "indexed": false,
          "internalType": "uint256",
          "name": "totalStake",
          "type": "uint256"
        },
        {
          "indexed": false,
          "internalType": "uint256",
          "name": "totalDelegated",
          "type": "uint256"
        },
        {
          "indexed": false,
          "internalType": "bool",
          "name": "delegated",
          "type": "bool"
        }
      ],
      "name": "StakeDelegateUpdated",
      "type": "event"
    },
    {
      "anonymous": false,
      "inputs": [
        {
          "indexed": false,
          "internalType": "string",
          "name": "key",
          "type": "string"
        },
        {
          "indexed": false,
          "internalType": "string",
          "name": "path",
          "type": "string"
        },
        {
          "indexed": false,
          "internalType": "string",
          "name": "permissions",
          "type": "string"
        },
        {
          "indexed": false,
          "internalType": "string",
          "name": "streamId",
          "type": "string"
        }
      ],
      "name": "StreamAdded",
      "type": "event"
    },
    {
      "anonymous": false,
      "inputs": [
        {
          "indexed": false,
          "internalType": "string",
          "name": "key",
          "type": "string"
        },
        {
          "indexed": false,
          "internalType": "string",
          "name": "path",
          "type": "string"
        },
        {
          "indexed": false,
          "internalType": "string",
          "name": "permissions",
          "type": "string"
        },
        {
          "indexed": false,
          "internalType": "string",
          "name": "streamId",
          "type": "string"
        }
      ],
      "name": "StreamRemoved",
      "type": "event"
    },
    {
      "anonymous": false,
      "inputs": [
        {
          "indexed": true,
          "internalType": "address",
          "name": "implementation",
          "type": "address"
        }
      ],
      "name": "Upgraded",
      "type": "event"
    },
    {
      "inputs": [
        {
          "internalType": "string",
          "name": "streamPath",
          "type": "string"
        }
      ],
      "name": "_generateStreamId",
      "outputs": [
        {
          "internalType": "string",
          "name": "",
          "type": "string"
        }
      ],
      "stateMutability": "view",
      "type": "function"
    },
    {
      "inputs": [
        {
          "internalType": "address",
          "name": "",
          "type": "address"
        }
      ],
      "name": "balanceOf",
      "outputs": [
        {
          "internalType": "uint256",
          "name": "",
          "type": "uint256"
        }
      ],
      "stateMutability": "view",
      "type": "function"
    },
    {
      "inputs": [
        {
          "internalType": "string",
          "name": "key",
          "type": "string"
        },
        {
          "internalType": "string",
          "name": "path",
          "type": "string"
        },
        {
          "internalType": "string",
          "name": "permissions",
          "type": "string"
        }
      ],
      "name": "createStream",
      "outputs": [],
      "stateMutability": "nonpayable",
      "type": "function"
    },
    {
      "inputs": [
        {
          "internalType": "uint256",
          "name": "amount",
          "type": "uint256"
        },
        {
          "internalType": "address",
          "name": "node",
          "type": "address"
        }
      ],
      "name": "delegate",
      "outputs": [],
      "stateMutability": "nonpayable",
      "type": "function"
    },
    {
      "inputs": [
        {
          "internalType": "address",
          "name": "",
          "type": "address"
        },
        {
          "internalType": "address",
          "name": "",
          "type": "address"
        }
      ],
      "name": "delegatesOf",
      "outputs": [
        {
          "internalType": "uint256",
          "name": "",
          "type": "uint256"
        }
      ],
      "stateMutability": "view",
      "type": "function"
    },
    {
      "inputs": [
        {
          "internalType": "string",
          "name": "key",
          "type": "string"
        }
      ],
      "name": "deleteStream",
      "outputs": [],
      "stateMutability": "nonpayable",
      "type": "function"
    },
    {
      "inputs": [],
      "name": "getAllStreams",
      "outputs": [
        {
          "internalType": "string[]",
          "name": "",
          "type": "string[]"
        }
      ],
      "stateMutability": "view",
      "type": "function"
    },
    {
      "inputs": [],
      "name": "headNode",
      "outputs": [
        {
          "internalType": "address",
          "name": "",
          "type": "address"
        }
      ],
      "stateMutability": "view",
      "type": "function"
    },
    {
      "inputs": [
        {
          "internalType": "address",
          "name": "owner_",
          "type": "address"
        },
        {
          "internalType": "bool",
          "name": "requiresWhitelist_",
          "type": "bool"
        },
        {
          "internalType": "address",
          "name": "stakeTokenAddress_",
          "type": "address"
        },
        {
          "internalType": "uint256",
          "name": "stakeRequiredAmount_",
          "type": "uint256"
        },
        {
          "internalType": "address",
          "name": "streamrRegistryAddress_",
          "type": "address"
        },
        {
          "internalType": "address[]",
          "name": "initialNodes",
          "type": "address[]"
        },
        {
          "internalType": "string[]",
          "name": "initialMetadata",
          "type": "string[]"
        },
        {
          "internalType": "string[3][]",
          "name": "initialStreams",
          "type": "string[3][]"
        }
      ],
      "name": "initialize",
      "outputs": [],
      "stateMutability": "nonpayable",
      "type": "function"
    },
    {
      "inputs": [
        {
          "internalType": "address",
          "name": "node",
          "type": "address"
        }
      ],
      "name": "isStaked",
      "outputs": [
        {
          "internalType": "bool",
          "name": "",
          "type": "bool"
        }
      ],
      "stateMutability": "view",
      "type": "function"
    },
    {
      "inputs": [
        {
          "internalType": "uint256",
          "name": "amount",
          "type": "uint256"
        },
        {
          "internalType": "string",
          "name": "metadata_",
          "type": "string"
        }
      ],
      "name": "join",
      "outputs": [],
      "stateMutability": "nonpayable",
      "type": "function"
    },
    {
      "inputs": [
        {
          "internalType": "address",
          "name": "nodeAddress",
          "type": "address"
        }
      ],
      "name": "kickNode",
      "outputs": [],
      "stateMutability": "nonpayable",
      "type": "function"
    },
    {
      "inputs": [],
      "name": "leave",
      "outputs": [],
      "stateMutability": "nonpayable",
      "type": "function"
    },
    {
      "inputs": [],
      "name": "nodeAddresses",
      "outputs": [
        {
          "internalType": "address[]",
          "name": "resultAddresses",
          "type": "address[]"
        }
      ],
      "stateMutability": "view",
      "type": "function"
    },
    {
      "inputs": [
        {
          "internalType": "address",
          "name": "node",
          "type": "address"
        }
      ],
      "name": "nodeStake",
      "outputs": [
        {
          "internalType": "uint256",
          "name": "",
          "type": "uint256"
        }
      ],
      "stateMutability": "view",
      "type": "function"
    },
    {
      "inputs": [
        {
          "internalType": "address",
          "name": "",
          "type": "address"
        }
      ],
      "name": "nodes",
      "outputs": [
        {
          "internalType": "uint256",
          "name": "index",
          "type": "uint256"
        },
        {
          "internalType": "string",
          "name": "metadata",
          "type": "string"
        },
        {
          "internalType": "uint256",
          "name": "lastSeen",
          "type": "uint256"
        },
        {
          "internalType": "address",
          "name": "next",
          "type": "address"
        },
        {
          "internalType": "address",
          "name": "prev",
          "type": "address"
        },
        {
          "internalType": "uint256",
          "name": "stake",
          "type": "uint256"
        }
      ],
      "stateMutability": "view",
      "type": "function"
    },
    {
      "inputs": [],
      "name": "owner",
      "outputs": [
        {
          "internalType": "address",
          "name": "",
          "type": "address"
        }
      ],
      "stateMutability": "view",
      "type": "function"
    },
    {
      "inputs": [
        {
          "internalType": "string",
          "name": "id",
          "type": "string"
        }
      ],
      "name": "processReport",
      "outputs": [],
      "stateMutability": "nonpayable",
      "type": "function"
    },
    {
      "inputs": [],
      "name": "proxiableUUID",
      "outputs": [
        {
          "internalType": "bytes32",
          "name": "",
          "type": "bytes32"
        }
      ],
      "stateMutability": "view",
      "type": "function"
    },
    {
      "inputs": [
        {
          "internalType": "address",
          "name": "contractAddress",
          "type": "address"
        }
      ],
      "name": "registerQueryManager",
      "outputs": [],
      "stateMutability": "nonpayable",
      "type": "function"
    },
    {
      "inputs": [
        {
          "internalType": "address",
          "name": "contractAddress",
          "type": "address"
        }
      ],
      "name": "registerReportManager",
      "outputs": [],
      "stateMutability": "nonpayable",
      "type": "function"
    },
    {
      "inputs": [
        {
          "internalType": "address",
          "name": "contractAddress",
          "type": "address"
        }
      ],
      "name": "registerStoreManager",
      "outputs": [],
      "stateMutability": "nonpayable",
      "type": "function"
    },
    {
      "inputs": [],
      "name": "removeNode",
      "outputs": [],
      "stateMutability": "nonpayable",
      "type": "function"
    },
    {
      "inputs": [
        {
          "internalType": "address",
          "name": "nodeAddress",
          "type": "address"
        }
      ],
      "name": "removeNodeAdmin",
      "outputs": [],
      "stateMutability": "nonpayable",
      "type": "function"
    },
    {
      "inputs": [],
      "name": "renounceOwnership",
      "outputs": [],
      "stateMutability": "nonpayable",
      "type": "function"
    },
    {
      "inputs": [],
      "name": "requiresWhitelist",
      "outputs": [
        {
          "internalType": "bool",
          "name": "",
          "type": "bool"
        }
      ],
      "stateMutability": "view",
      "type": "function"
    },
    {
      "inputs": [
        {
          "internalType": "bool",
          "name": "value",
          "type": "bool"
        }
      ],
      "name": "setRequiresWhitelist",
      "outputs": [],
      "stateMutability": "nonpayable",
      "type": "function"
    },
    {
      "inputs": [
        {
          "internalType": "uint256",
          "name": "amount",
          "type": "uint256"
        }
      ],
      "name": "stake",
      "outputs": [],
      "stateMutability": "nonpayable",
      "type": "function"
    },
    {
      "inputs": [
        {
          "internalType": "uint256",
          "name": "amount",
          "type": "uint256"
        },
        {
          "internalType": "address",
          "name": "node",
          "type": "address"
        }
      ],
      "name": "stakeAndDelegate",
      "outputs": [],
      "stateMutability": "nonpayable",
      "type": "function"
    },
    {
      "inputs": [],
      "name": "stakeRequiredAmount",
      "outputs": [
        {
          "internalType": "uint256",
          "name": "",
          "type": "uint256"
        }
      ],
      "stateMutability": "view",
      "type": "function"
    },
    {
      "inputs": [],
      "name": "stakeTokenAddress",
      "outputs": [
        {
          "internalType": "address",
          "name": "",
          "type": "address"
        }
      ],
      "stateMutability": "view",
      "type": "function"
    },
    {
      "inputs": [],
      "name": "startBlockNumber",
      "outputs": [
        {
          "internalType": "uint256",
          "name": "",
          "type": "uint256"
        }
      ],
      "stateMutability": "view",
      "type": "function"
    },
    {
      "inputs": [
        {
          "internalType": "string",
          "name": "streamId",
          "type": "string"
        }
      ],
      "name": "streamExists",
      "outputs": [
        {
          "internalType": "bool",
          "name": "",
          "type": "bool"
        }
      ],
      "stateMutability": "view",
      "type": "function"
    },
    {
      "inputs": [
        {
          "internalType": "string",
          "name": "",
          "type": "string"
        }
      ],
      "name": "streamInformation",
      "outputs": [
        {
          "internalType": "string",
          "name": "key",
          "type": "string"
        },
        {
          "internalType": "string",
          "name": "path",
          "type": "string"
        },
        {
          "internalType": "string",
          "name": "metadata",
          "type": "string"
        },
        {
          "internalType": "uint256",
          "name": "index",
          "type": "uint256"
        }
      ],
      "stateMutability": "view",
      "type": "function"
    },
    {
      "inputs": [
        {
          "internalType": "uint256",
          "name": "",
          "type": "uint256"
        }
      ],
      "name": "streams",
      "outputs": [
        {
          "internalType": "string",
          "name": "",
          "type": "string"
        }
      ],
      "stateMutability": "view",
      "type": "function"
    },
    {
      "inputs": [],
      "name": "tailNode",
      "outputs": [
        {
          "internalType": "address",
          "name": "",
          "type": "address"
        }
      ],
      "stateMutability": "view",
      "type": "function"
    },
    {
      "inputs": [],
      "name": "totalNodes",
      "outputs": [
        {
          "internalType": "uint256",
          "name": "",
          "type": "uint256"
        }
      ],
      "stateMutability": "view",
      "type": "function"
    },
    {
      "inputs": [],
      "name": "totalSupply",
      "outputs": [
        {
          "internalType": "uint256",
          "name": "",
          "type": "uint256"
        }
      ],
      "stateMutability": "view",
      "type": "function"
    },
    {
      "inputs": [
        {
          "internalType": "address",
          "name": "newOwner",
          "type": "address"
        }
      ],
      "name": "transferOwnership",
      "outputs": [],
      "stateMutability": "nonpayable",
      "type": "function"
    },
    {
      "inputs": [],
      "name": "treasurySupply",
      "outputs": [
        {
          "internalType": "uint256",
          "name": "",
          "type": "uint256"
        }
      ],
      "stateMutability": "view",
      "type": "function"
    },
    {
      "inputs": [
        {
          "internalType": "uint256",
          "name": "amount",
          "type": "uint256"
        }
      ],
      "name": "treasuryWithdraw",
      "outputs": [],
      "stateMutability": "nonpayable",
      "type": "function"
    },
    {
      "inputs": [
        {
          "internalType": "uint256",
          "name": "amount",
          "type": "uint256"
        },
        {
          "internalType": "address",
          "name": "node",
          "type": "address"
        }
      ],
      "name": "undelegate",
      "outputs": [],
      "stateMutability": "nonpayable",
      "type": "function"
    },
    {
      "inputs": [
        {
          "internalType": "uint256",
          "name": "amount",
          "type": "uint256"
        },
        {
          "internalType": "address",
          "name": "node",
          "type": "address"
        }
      ],
      "name": "undelegateWithdraw",
      "outputs": [],
      "stateMutability": "nonpayable",
      "type": "function"
    },
    {
      "inputs": [
        {
          "internalType": "address",
          "name": "newImplementation",
          "type": "address"
        }
      ],
      "name": "upgradeTo",
      "outputs": [],
      "stateMutability": "nonpayable",
      "type": "function"
    },
    {
      "inputs": [
        {
          "internalType": "address",
          "name": "newImplementation",
          "type": "address"
        },
        {
          "internalType": "bytes",
          "name": "data",
          "type": "bytes"
        }
      ],
      "name": "upgradeToAndCall",
      "outputs": [],
      "stateMutability": "payable",
      "type": "function"
    },
    {
      "inputs": [
        {
          "internalType": "string",
          "name": "metadata_",
          "type": "string"
        }
      ],
      "name": "upsertNode",
      "outputs": [],
      "stateMutability": "nonpayable",
      "type": "function"
    },
    {
      "inputs": [
        {
          "internalType": "address",
          "name": "node",
          "type": "address"
        },
        {
          "internalType": "string",
          "name": "metadata_",
          "type": "string"
        }
      ],
      "name": "upsertNodeAdmin",
      "outputs": [],
      "stateMutability": "nonpayable",
      "type": "function"
    },
    {
      "inputs": [
        {
          "internalType": "address",
          "name": "",
          "type": "address"
        }
      ],
      "name": "whitelist",
      "outputs": [
        {
          "internalType": "enum LogStoreNodeManager.WhitelistState",
          "name": "",
          "type": "uint8"
        }
      ],
      "stateMutability": "view",
      "type": "function"
    },
    {
      "inputs": [
        {
          "internalType": "address",
          "name": "nodeAddress",
          "type": "address"
        }
      ],
      "name": "whitelistApproveNode",
      "outputs": [],
      "stateMutability": "nonpayable",
      "type": "function"
    },
    {
      "inputs": [
        {
          "internalType": "address",
          "name": "nodeAddress",
          "type": "address"
        }
      ],
      "name": "whitelistRejectNode",
      "outputs": [],
      "stateMutability": "nonpayable",
      "type": "function"
    },
    {
      "inputs": [
        {
          "internalType": "uint256",
          "name": "amount",
          "type": "uint256"
        }
      ],
      "name": "withdraw",
      "outputs": [],
      "stateMutability": "nonpayable",
      "type": "function"
    }
  ],
  "bytecode": "0x60a0806040523461003157306080526149c3908161003782396080518181816122bc015281816123ca0152612aea0152f35b600080fdfe608080604052600436101561001357600080fd5b600090813560e01c9081630106395f14612ffa5750806308bbb82414612fd55780631204c48614612f9757806318160ddd14612f78578063189a5a1714612ee95780631ad603d014612e6e57806320a59a0314612e105780632af5758014612da65780632e1a7d4d14612d895780633659cfe614612ac45780633bd84c0c146129db5780633cfb3d8a146126c157806345e863e01461269c57806346c198f614612674578063498a4c2d146126555780634f1ef2861461237757806352d1902d146122a15780635888799c146122375780635fc1a4b8146122185780636177fd18146121ea5780636453cbd714611f0b57806364d60d9114611eb65780636526713914611dc757806366cdbcf214611d065780636bfff68214611cb157806370a0823114611c78578063715018a614611c1c578063735e6c7a146119a157806375ed25dc1461196257806379e574cb146119235780638ce15586146118f95780638da5cb5b146118d25780639592d424146118b35780639b19251a14611857578063a5ee5b4114611833578063a694fc3a146115c1578063abad29a814611570578063ae68f210146114ac578063b2a52fef146113e0578063bfdf0866146113b8578063c10b522214611352578063c30649ba14610f61578063cc54421a14610dd9578063cd23d26814610d9d578063d0d3f5ba14610d83578063d5c7096614610d64578063d66d9e1914610d11578063e7b5895314610ce3578063e8d88aba14610ca4578063f2fde38b14610bfc5763f6883c051461025257600080fd5b34610bf9576020366003190112610bf95760043567ffffffffffffffff811161075a5761028390369060040161304c565b909161028e33613f52565b15610bb4576001600160a01b0360fe5416928160405180956312e63d7160e01b825281806102c0888760048401613aee565b03915afa93841561074f5782946107ab575b50610100928385015161076657825b606080870190815180518410156103f5576102fe846040926136ac565b510151610316575b505061031190613632565b6102e1565b6001600160a01b0360fc541661032d8484516136ac565b5151602061033c8686516136ac565b51015192604061034d8787516136ac565b51015193833b156103f15791898094926103849460405197889687958694639ac0e98b60e01b8652600486015260648501906131eb565b916024840152604483015203925af180156103e6579086916103ce575b50509060206103b48261031194516136ac565b5101516103c5610106918254613b16565b90559038610306565b6103d7906130b4565b6103e25784386103a1565b8480fd5b6040513d88823e3d90fd5b8980fd5b8786888b88825b60c08301805180518310156104f557610417836040926136ac565b51015161042e575b5061042990613632565b6103fc565b6001600160a01b0360fd54166001600160a01b0361044d8484516136ac565b515116602061045d8585516136ac565b51015190604061046e8686516136ac565b51015192803b156104f157889291836064926040519687958694631ee2efa360e31b86526004860152602485015260448401525af180156103e6579086916104dd575b50509060206104c48261042994516136ac565b5101516104d5610106918254613b16565b90559061041f565b6104e6906130b4565b6103e25784886104b1565b8880fd5b505050939190815b608082018051805183101561058c5782916020610536846001600160a01b0361052c6105739861056e976136ac565b51511693516136ac565b510151818752876020526105526005918260408a200154613b23565b90878083131561057857839052886020526040882001556143fb565b613632565b6104fd565b9150828252886020526040822001556143fb565b84808989875b60a081019182518051871015610695576105b4876001600160a01b03926136ac565b51511693855b60206105c78987516136ac565b5101515181101561067f578088602061060d83826105fa6001600160a01b0361060261065a99848f8a6105fa91516136ac565b5101516136ac565b515116958c516136ac565b51015190888a52610635610103928360205260408c2083600052602052604060002054613b23565b918a83131561065f57898b5260205260408a2090600052602052604060002055613632565b6105ba565b909150888a52602052604089209060005260205287604060002055613632565b5093509461068e919250613632565b9390610592565b509291506106ad610107916040835491015190613b23565b90848083131561075e5750555b826001600160a01b0360fe5416803b1561075a5781604051809263f6883c0560e01b82528183816106ef898b60048401613aee565b03925af1801561074f57610737575b50507fbcd21d99bbf55769881dda49c45043a8750d2229c330cdddd4718575f72364029161073160405192839283613aee565b0390a180f35b610740906130b4565b61074b5782846106fe565b8280fd5b6040513d84823e3d90fd5b5080fd5b9150556106ba565b60405162461bcd60e51b815260206004820152601c60248201527f6572726f725f7265706f7274416c726561647950726f636573736564000000006044820152606490fd5b9093503d908183823e6107be8282613100565b602081838101031261074b5780519067ffffffffffffffff8211610bb057610120928383830182840103126103e25760405193840184811067ffffffffffffffff821117610b9a576040528282015167ffffffffffffffff8111610a605761082d908284019085850101613a0f565b845281830160208181015190860152604080820151908601526060015167ffffffffffffffff8111610a6057818301601f8286860101011215610a60578084840101519061087a826132ce565b916108886040519384613100565b808352602083019184860160208360051b838a8a01010101116104f1576020818888010101925b60208360051b838a8a010101018410610b01575050505060608501526080838301015167ffffffffffffffff8111610a60576108f2908284019085850101613a65565b608085015260a0838301015167ffffffffffffffff8111610a6057818301601f8286860101011215610a605780848401015161092d816132ce565b9161093b6040519384613100565b818352602083019084860160208460051b838a8a01010101116104f1576020818888010101915b60208460051b838a8a010101018310610a64575050505060a085015260c0838301015167ffffffffffffffff8111610a605783830101818301601f82011215610a60578051906109b1826132ce565b926109bf6040519485613100565b8284526020606081860194028301019181860183116104f157602001925b828410610a1b575050505060c0840152610a10906109ff83820160e001613a51565b60e0850152610100920182016139b6565b9082015292386102d2565b60608483880103126104f1576020606091604051610a38816130c8565b610a4187613a51565b81528287015183820152604087015160408201528152019301926109dd565b8580fd5b825167ffffffffffffffff8111610afd576040888a0184018201888a0103601f190112610afd5760405190610a98826130e4565b610aaa602082868d8d01010101613a51565b8252604081858c8c01010101519067ffffffffffffffff8211610af9579260209392610ae88b868096958f968a8f9884998601950101010101613a65565b838201528152019301929050610962565b8c80fd5b8a80fd5b835167ffffffffffffffff8111610afd576060888a0184018201888a0103601f190112610afd5760405190610b35826130c8565b602081858c8c010101015167ffffffffffffffff8111610af95792602093926060859493878e8e610b758f988a809a840191878787870101010101613a0f565b86520101016040818101518685015291015190820152815291909501940190506108af565b634e487b7160e01b600052604160045260246000fd5b8380fd5b60405162461bcd60e51b815260206004820152601360248201527f6572726f725f7374616b655265717569726564000000000000000000000000006044820152606490fd5b80fd5b5034610bf9576020366003190112610bf957610c16613036565b610c1e613317565b6001600160a01b03811615610c3957610c369061336f565b80f35b60405162461bcd60e51b815260206004820152602660248201527f4f776e61626c653a206e6577206f776e657220697320746865207a65726f206160448201527f64647265737300000000000000000000000000000000000000000000000000006064820152608490fd5b5034610bf9576020366003190112610bf9576001600160a01b03610cc6613036565b610cce613317565b166001600160a01b031960fe54161760fe5580f35b5034610bf9576040366003190112610bf957610c36600435610d0c610d06613020565b82613cc3565b613da7565b5034610bf95780600319360112610bf9573381526101036020526040812033600052602052610d4533604060002054613cc3565b338152610102602052610d5b6040822054613da7565b610c36336141b3565b5034610bf95780600319360112610bf957602061010854604051908152f35b5034610bf95780600319360112610bf957610c36336141b3565b5034610bf9576020366003190112610bf957600560406020926001600160a01b03610dc6613036565b1681526101008452200154604051908152f35b5034610bf95760608060031936011261075a5767ffffffffffffffff8260043582811161075a57610e0e903690600401613263565b926024908135848111610bb057610e29903690600401613263565b9360449586359182116103e25785610e48610e56933690600401613263565b91610e51613317565b61459d565b610e67610e61613e9e565b94614858565b845195845b878110610e77578580f35b6001600160a01b0380610e8a838a6136ac565b511680885261010060205260408820600501546101085491929111610f2d5760ff5416803b15610f2957879182916040518094818094634cbf455560e11b82528b6004830152610edd606483018c6131eb565b908d83015260028a83015203925af1908115610f1e578791610f0a575b5050610f0590613632565b610e6c565b610f13906130b4565b610a60578538610efa565b6040513d89823e3d90fd5b8780fd5b60ff5416803b15610f2957879182916040518094818094631f1cbd7560e11b82528b6004830152610edd606483018c6131eb565b5034610bf957610100366003190112610bf957610f7c613036565b602435801515810361134957604435926001600160a01b038416840361134957608435916001600160a01b03831683036113495760a4359067ffffffffffffffff93848311610bb05736602384011215610bb0578260040135610fde816132ce565b93610fec6040519586613100565b8185526024602086019260051b8201019036821161134e57602401915b8183106113295750505060c4358581116103e25761102b9036906004016132e6565b97909560e435908111610a60576110469036906004016132e6565b91909286549060ff8260081c16159586809761131c575b8015611305575b1561129a5760ff19831660011789556001600160a01b039287611289575b5061108f8c8951146135e6565b82841615158061127e575b6110a3906135e6565b6110bc60ff8a5460081c166110b7816136c0565b6136c0565b6110c53361336f565b6110e260ff8a5460081c166110d9816136c0565b6110b7816136c0565b600160c9556101059060ff8019835416911515161790556001600160a01b0319928281168460fb54161760fb558261010991168482541617905560643561010855169060ff54161760ff55845b8181106111ff57505050825b825181101561119e576001600160a01b0361115682856136ac565b51168782101561118a579061056e611185926111778360051b890189613679565b91611180613317565b613f87565b61113b565b634e487b7160e01b85526032600452602485fd5b8382876111a9613317565b6001600160a01b03811615610c39576111c19061336f565b6111c85780f35b61ff001981541681557f7f26b83ff96e1f2b6a682f133852f6798a09c465da95921460cefb3847402498602060405160018152a180f35b8061056e8361127361121e61121861127996848a613657565b80613679565b61126b8961126361125961124f8a61124761123d828c889c9b9c613657565b6020810190613679565b9a9095613657565b6040810190613679565b969094369161322c565b95369161322c565b92369161322c565b9161459d565b61112f565b50606435151561109a565b61ffff191661010117895538611082565b60405162461bcd60e51b815260206004820152602e60248201527f496e697469616c697a61626c653a20636f6e747261637420697320616c72656160448201527f647920696e697469616c697a65640000000000000000000000000000000000006064820152608490fd5b50303b1580156110645750600160ff841614611064565b50600160ff84161061105d565b82356001600160a01b038116810361134957815260209283019201611009565b600080fd5b8680fd5b5034610bf95780600319360112610bf95761136b613e9e565b90604051918291602080840190808552835180925280604086019401925b82811061139857505050500390f35b83516001600160a01b031685528695509381019392810192600101611389565b5034610bf95780600319360112610bf95760206001600160a01b0361010d5416604051908152f35b5034610bf9576020366003190112610bf95760043567ffffffffffffffff811161075a5761141290369060040161304c565b60ff6101055416158015611475575b1561143057610c369133613f87565b60405162461bcd60e51b815260206004820152601160248201527f6572726f725f6e6f74417070726f7665640000000000000000000000000000006044820152606490fd5b5033835261010160205260ff604084205416600381101561149857600114611421565b634e487b7160e01b84526021600452602484fd5b5034610bf95760209081600319360112610bf95760043567ffffffffffffffff811161075a57826114e461150e92369060040161304c565b906001600160a01b0360ff54169060405180958194829363130d191f60e11b845260048401613aee565b03915afa91821561156457809261152c575b50506040519015158152f35b9091508282813d831161155d575b6115448183613100565b81010312610bf95750611556906139b6565b3880611520565b503d61153a565b604051903d90823e3d90fd5b5034610bf9576040366003190112610bf95761158a613036565b6040611594613020565b926001600160a01b0380931681526101036020522091166000526020526020604060002054604051908152f35b5034610bf95760208060031936011261075a57600435600260c954146117ee57600260c95580156117a9576001600160a01b036024838260fb5416604051928380926370a0823160e01b82523360048301525afa801561179e578391869161176d575b501061172857839160648492338552610102845260408520611647848254613b16565b9055610106611657848254613b16565b905560fb54169160405194859384926323b872dd60e01b845233600485015230602485015260448401525af1801561171d5783906116e8575b600191501515036116a45750600160c95580f35b6064906040519062461bcd60e51b82526004820152601760248201527f6572726f725f756e7375636365737366756c5374616b650000000000000000006044820152fd5b508181813d8311611716575b6116fe8183613100565b8101031261074b576117116001916139b6565b611690565b503d6116f4565b6040513d85823e3d90fd5b60405162461bcd60e51b815260048101849052601960248201527f6572726f725f696e73756666696369656e7442616c616e6365000000000000006044820152606490fd5b809250858092503d8311611797575b6117868183613100565b810103126103e25782905138611624565b503d61177c565b6040513d87823e3d90fd5b60405162461bcd60e51b815260048101839052601760248201527f6572726f725f696e73756666696369656e745374616b650000000000000000006044820152606490fd5b60405162461bcd60e51b815260048101839052601f60248201527f5265656e7472616e637947756172643a207265656e7472616e742063616c6c006044820152606490fd5b5034610bf95780600319360112610bf957602060ff61010554166040519015158152f35b5034610bf9576020366003190112610bf9576001600160a01b03611879613036565b16815261010160205260ff60408220541660405190600381101561189f57602092508152f35b634e487b7160e01b83526021600452602483fd5b5034610bf95780600319360112610bf957602061010a54604051908152f35b5034610bf95780600319360112610bf95760206001600160a01b0360975416604051908152f35b5034610bf9576020366003190112610bf957610c36611916613036565b61191e613317565b6141b3565b5034610bf9576020366003190112610bf9576001600160a01b03611945613036565b61194d613317565b166001600160a01b031960fd54161760fd5580f35b5034610bf9576020366003190112610bf9576001600160a01b03611984613036565b61198c613317565b166001600160a01b031960fc54161760fc5580f35b5034610bf9576040366003190112610bf957600435906119bf613020565b600260c95414611bd757600260c9558215611b92576001600160a01b03928360fb54169360405180956370a0823160e01b825233600483015281602460209889935afa90811561179e579083918691611b61575b5010611b1c57848491338352610102825260408320611a33858254613b16565b9055610106611a43858254613b16565b905560fb54166064604051809481936323b872dd60e01b83523360048401523060248401528760448401525af18015611b11578490611adc575b60019150151503611a975790610c3691600160c955613bd6565b60405162461bcd60e51b815260048101859052601760248201527f6572726f725f756e7375636365737366756c5374616b650000000000000000006044820152606490fd5b508481813d8311611b0a575b611af28183613100565b81010312610bb057611b056001916139b6565b611a7d565b503d611ae8565b6040513d86823e3d90fd5b60405162461bcd60e51b815260048101869052601960248201527f6572726f725f696e73756666696369656e7442616c616e6365000000000000006044820152606490fd5b809250878092503d8311611b8b575b611b7a8183613100565b810103126103e25782905138611a13565b503d611b70565b60405162461bcd60e51b815260206004820152601760248201527f6572726f725f696e73756666696369656e745374616b650000000000000000006044820152606490fd5b60405162461bcd60e51b815260206004820152601f60248201527f5265656e7472616e637947756172643a207265656e7472616e742063616c6c006044820152606490fd5b5034610bf95780600319360112610bf957611c35613317565b60006001600160a01b036097546001600160a01b03198116609755167f8be0079c531659141344cd1fd0a4f28419497f9722a3daafe3b4186f6b6457e08280a380f35b5034610bf9576020366003190112610bf95760406020916001600160a01b03611c9f613036565b16815261010283522054604051908152f35b5034610bf9576020366003190112610bf9576004359067ffffffffffffffff8211610bf957611d02611cee611ce93660048601613263565b614858565b6040519182916020835260208301906131eb565b0390f35b5034610bf9576020366003190112610bf9576004359067ffffffffffffffff8211610bf957611da1611d536020611d403660048701613263565b81604051938285809451938492016131c8565b8101610104815203019020611d6781613122565b90611dbd611d7760018301613122565b91611daf6003611d8960028401613122565b920154936040519687966080885260808801906131eb565b9086820360208801526131eb565b9084820360408601526131eb565b9060608301520390f35b5034610bf9576020366003190112610bf957806020611e56600435611dea613317565b610107611e14828254611dff8183111561396a565b610106611e0d8382546137c8565b90556137c8565b90556001600160a01b0360fb54169060405194858094819363a9059cbb60e01b83523360048401602090939291936001600160a01b0360408201951681520152565b03925af190811561074f578291611e77575b506001610c36911515146139c3565b90506020813d8211611eae575b81611e9160209383613100565b8101031261075a576001611ea7610c36926139b6565b9150611e68565b3d9150611e84565b5034610bf9576020366003190112610bf9576004359061010e908154831015610bf957611d02611cee84846000527f44731785622d53a842eeb261a70df6f2b61b9624656157b6168597f0656f480501613122565b5034610bf95760208060031936011261075a5760043567ffffffffffffffff811161074b57611f3e903690600401613263565b611f46613317565b60405181519083830191611f5b8183856131c8565b8101908481610104938481520301902092611f76845461307a565b156121a557600360018501947f2bf3f2e340d92786feb9f74a51d40fa8d90bae166b913d4817942216723e73a487611fb0611ce989613122565b97611ffd611fef611fde60405194859460808652611fd1608087018a613732565b9186830390870152613732565b838103604085015260028701613732565b82810360608401528a6131eb565b0390a1015461010e8054909160001991828101908111612191579061205861203061202a61205e94613281565b50613122565b918060036040518d8187516120488183858c016131c8565b81018d8152030190200155613281565b906138f9565b8154801561217d57019061207182613281565b6121695794889695946003946120ab948a948a89612090829b5461307a565b8061212c575b505050556040519485938492519283916131c8565b8201908152030190206120bd8161391e565b6120c96001820161391e565b6120d56002820161391e565b01556001600160a01b0360ff5416803b1561074b576121119383604051809681958294636453cbd760e01b8452600484015260248301906131eb565b03925af1801561074f57612123575080f35b610c36906130b4565b601f81116001146121425750555b883880612096565b81835288832061215d91601f0160051c8101906001016137d5565b8188812091555561213a565b634e487b7160e01b89526004899052602489fd5b634e487b7160e01b89526031600452602489fd5b634e487b7160e01b8a52601160045260248afd5b60405162461bcd60e51b815260048101869052601560248201527f53545245414d5f4e4f545f5245474953544552454400000000000000000000006044820152606490fd5b5034610bf9576020366003190112610bf957602061220e612209613036565b613f52565b6040519015158152f35b5034610bf95780600319360112610bf957602061010754604051908152f35b5034610bf9576020366003190112610bf9576001600160a01b03612259613036565b612261613317565b1680825261010160205260408220805460ff191660011790557fdfe83f699699403a4b116b6f9504680228c3f319bbf5ab26b48a81d3005d98b28280a280f35b5034610bf95780600319360112610bf9576001600160a01b037f000000000000000000000000000000000000000000000000000000000000000016300361230c5760206040517f360894a13ba1a3210667c828492db98dca3e2076cc3735a920a3ca505d382bbc8152f35b60405162461bcd60e51b815260206004820152603860248201527f555550535570677261646561626c653a206d757374206e6f742062652063616c60448201527f6c6564207468726f7567682064656c656761746563616c6c00000000000000006064820152608490fd5b506040366003190112610bf95761238c613036565b60243567ffffffffffffffff811161074b573660238201121561074b576123bd90369060248160040135910161322c565b906001600160a01b0391827f000000000000000000000000000000000000000000000000000000000000000016926123f7843014156133b7565b6124267f360894a13ba1a3210667c828492db98dca3e2076cc3735a920a3ca505d382bbc948286541614613429565b61242e613317565b7f4910fdfa16fed3260ed0e7147f7cc6da11a60208b5b9406d12a635614ffd91435460ff1615612464575050610c36915061349b565b8216604051936352d1902d60e01b85526020948581600481865afa879181612626575b506124e85760405162461bcd60e51b815260048101879052602e60248201527f45524331393637557067726164653a206e657720696d706c656d656e7461746960448201526d6f6e206973206e6f74205555505360901b6064820152608490fd5b94929394036125cf576124fa8461349b565b7fbc7cd75a20ee27fd9adebab32041f755214dbc6bffa90cc0225b39da2e5c2d3b8580a28151158015906125c7575b612534575b50505080f35b6125b592848060405194612547866130c8565b602786527f416464726573733a206c6f772d6c6576656c2064656c65676174652063616c6c85870152660819985a5b195960ca1b60408701528481519101845af4903d156125be573d61259981613210565b906125a76040519283613100565b81528681943d92013e613549565b5038808061252e565b60609250613549565b506001612529565b60405162461bcd60e51b815260048101839052602960248201527f45524331393637557067726164653a20756e737570706f727465642070726f786044820152681a58589b195555525160ba1b6064820152608490fd5b9091508681813d831161264e575b61263e8183613100565b81010312610f2957519038612487565b503d612634565b5034610bf95780600319360112610bf957602061010b54604051908152f35b5034610bf95780600319360112610bf95760206001600160a01b0361010c5416604051908152f35b5034610bf9576040366003190112610bf957610c366126b9613020565b600435613cc3565b5034610bf9576040366003190112610bf9576004356024803567ffffffffffffffff8111610bb0576126f790369060040161304c565b9060ff61010554161580156129a5575b1561296157906127179133613f87565b600260c9541461291d57600260c95581156128d9576001600160a01b03908160fb54169160405180936370a0823160e01b8252336004830152818460209687935afa80156103e657859187916128a8575b501061286457828591338352610102825260408320612788878254613b16565b9055610106612798878254613b16565b905560fb54166064604051809481936323b872dd60e01b835233600484015230888401528960448401525af1801561179e57859061282f575b600191501515036127ec57600160c95583610c363385613bd6565b9060176064926040519262461bcd60e51b845260048401528201527f6572726f725f756e7375636365737366756c5374616b650000000000000000006044820152fd5b508281813d831161285d575b6128458183613100565b810103126103e2576128586001916139b6565b6127d1565b503d61283b565b60405162461bcd60e51b8152600481018490526019818401527f6572726f725f696e73756666696369656e7442616c616e6365000000000000006044820152606490fd5b809250858092503d83116128d2575b6128c18183613100565b81010312610a605784905138612768565b503d6128b7565b60649060176040519162461bcd60e51b8352602060048401528201527f6572726f725f696e73756666696369656e745374616b650000000000000000006044820152fd5b606490601f6040519162461bcd60e51b8352602060048401528201527f5265656e7472616e637947756172643a207265656e7472616e742063616c6c006044820152fd5b60405162461bcd60e51b8152602060048201526011818501527f6572726f725f6e6f74417070726f7665640000000000000000000000000000006044820152606490fd5b5033855261010160205260ff60408620541660038110156129c857600114612707565b634e487b7160e01b865260216004528386fd5b5034610bf95780600319360112610bf95761010e908154916129fc836132ce565b91612a0a6040519384613100565b838352602093848401809383527f44731785622d53a842eeb261a70df6f2b61b9624656157b6168597f0656f480583915b838310612aa05750505050604051928484019085855251809152604084019460408260051b8601019392955b828710612a745785850386f35b909192938280612a90600193603f198a820301865288516131eb565b9601920196019592919092612a67565b6001888192612ab2859b9a989b613122565b81520192019201919096939596612a3b565b5034610bf95760208060031936011261075a57612adf613036565b6001600160a01b03807f000000000000000000000000000000000000000000000000000000000000000016612b16813014156133b7565b612b457f360894a13ba1a3210667c828492db98dca3e2076cc3735a920a3ca505d382bbc918383541614613429565b612b4d613317565b604051908482019282841067ffffffffffffffff851117612d75578360405286835260ff7f4910fdfa16fed3260ed0e7147f7cc6da11a60208b5b9406d12a635614ffd91435416600014612ba95750505050610c36915061349b565b8492939416906040516352d1902d60e01b81528681600481865afa889181612d46575b50612c2d5760405162461bcd60e51b815260048101889052602e60248201527f45524331393637557067726164653a206e657720696d706c656d656e7461746960448201526d6f6e206973206e6f74205555505360901b6064820152608490fd5b9593949503612cef57612c3f8261349b565b7fbc7cd75a20ee27fd9adebab32041f755214dbc6bffa90cc0225b39da2e5c2d3b8680a284835115801590612ce8575b612c7c575b505050505080f35b80612cdd9560405195612c8e876130c8565b602787527f416464726573733a206c6f772d6c6576656c2064656c65676174652063616c6c86880152660819985a5b195960ca1b60408801525190845af4903d156125be573d61259981613210565b503880808084612c74565b5080612c6f565b60405162461bcd60e51b815260048101849052602960248201527f45524331393637557067726164653a20756e737570706f727465642070726f786044820152681a58589b195555525160ba1b6064820152608490fd5b9091508781813d8311612d6e575b612d5e8183613100565b810103126104f157519038612bcc565b503d612d54565b634e487b7160e01b87526041600452602487fd5b5034610bf9576020366003190112610bf957610c36600435613da7565b5034610bf9576020366003190112610bf9576001600160a01b03612dc8613036565b612dd0613317565b1680825261010160205260408220805460ff191660021790557fbbe2a784aa6240d8175fa65a8459058efd8f44c5ab66caa2525fe9d6342108788280a280f35b5034610bf9576020366003190112610bf95760043580151580910361075a57612e37613317565b61010560ff1981541660ff83161790557f7623db9c426686f05cec977c4cadb8ff9657502540ca665ae347731114dac69d8280a280f35b5034610bf9576020366003190112610bf957610c36612e8b613036565b612e93613317565b612e9b613317565b6001600160a01b03811680845261010160205260408420805460ff191660021790557fbbe2a784aa6240d8175fa65a8459058efd8f44c5ab66caa2525fe9d6342108788480a261191e613317565b5034610bf9576020366003190112610bf95760406001600160a01b039182612f0f613036565b16815261010060205220805490612f2860018201613122565b926002820154916005826003830154169260048301541691015491612f5f604051968796875260c0602088015260c08701906131eb565b9360408601526060850152608084015260a08301520390f35b5034610bf95780600319360112610bf957602061010654604051908152f35b5034610bf9576040366003190112610bf957612fb1613036565b6024359067ffffffffffffffff821161074b57611177610c3692369060040161304c565b5034610bf9576040366003190112610bf957610c36612ff2613020565b600435613bd6565b90503461075a578160031936011261075a576020906001600160a01b0361010954168152f35b602435906001600160a01b038216820361134957565b600435906001600160a01b038216820361134957565b9181601f840112156113495782359167ffffffffffffffff8311611349576020838186019501011161134957565b90600182811c921680156130aa575b602083101461309457565b634e487b7160e01b600052602260045260246000fd5b91607f1691613089565b67ffffffffffffffff8111610b9a57604052565b6060810190811067ffffffffffffffff821117610b9a57604052565b6040810190811067ffffffffffffffff821117610b9a57604052565b90601f8019910116810190811067ffffffffffffffff821117610b9a57604052565b90604051918260008254926131368461307a565b9081845260019485811690816000146131a55750600114613162575b505061316092500383613100565b565b9093915060005260209081600020936000915b81831061318d57505061316093508201013880613152565b85548884018501529485019487945091830191613175565b91505061316094506020925060ff191682840152151560051b8201013880613152565b60005b8381106131db5750506000910152565b81810151838201526020016131cb565b90602091613204815180928185528580860191016131c8565b601f01601f1916010190565b67ffffffffffffffff8111610b9a57601f01601f191660200190565b92919261323882613210565b916132466040519384613100565b829481845281830111611349578281602093846000960137010152565b9080601f830112156113495781602061327e9335910161322c565b90565b61010e80548210156132b8576000527f44731785622d53a842eeb261a70df6f2b61b9624656157b6168597f0656f48050190600090565b634e487b7160e01b600052603260045260246000fd5b67ffffffffffffffff8111610b9a5760051b60200190565b9181601f840112156113495782359167ffffffffffffffff8311611349576020808501948460051b01011161134957565b6001600160a01b0360975416330361332b57565b606460405162461bcd60e51b815260206004820152602060248201527f4f776e61626c653a2063616c6c6572206973206e6f7420746865206f776e65726044820152fd5b609754906001600160a01b0380911691826001600160a01b0319821617609755167f8be0079c531659141344cd1fd0a4f28419497f9722a3daafe3b4186f6b6457e0600080a3565b156133be57565b60405162461bcd60e51b815260206004820152602c60248201527f46756e6374696f6e206d7573742062652063616c6c6564207468726f7567682060448201527f64656c656761746563616c6c00000000000000000000000000000000000000006064820152608490fd5b1561343057565b60405162461bcd60e51b815260206004820152602c60248201527f46756e6374696f6e206d7573742062652063616c6c6564207468726f7567682060448201527f6163746976652070726f787900000000000000000000000000000000000000006064820152608490fd5b803b156134de576001600160a01b037f360894a13ba1a3210667c828492db98dca3e2076cc3735a920a3ca505d382bbc91166001600160a01b0319825416179055565b60405162461bcd60e51b815260206004820152602d60248201527f455243313936373a206e657720696d706c656d656e746174696f6e206973206e60448201527f6f74206120636f6e7472616374000000000000000000000000000000000000006064820152608490fd5b919290156135ab575081511561355d575090565b3b156135665790565b60405162461bcd60e51b815260206004820152601d60248201527f416464726573733a2063616c6c20746f206e6f6e2d636f6e74726163740000006044820152606490fd5b8251909150156135be5750805190602001fd5b60405162461bcd60e51b8152602060048201529081906135e29060248301906131eb565b0390fd5b156135ed57565b60405162461bcd60e51b815260206004820152601460248201527f6572726f725f626164547261636b6572446174610000000000000000000000006044820152606490fd5b60001981146136415760010190565b634e487b7160e01b600052601160045260246000fd5b91908110156132b85760051b81013590605e1981360301821215611349570190565b903590601e1981360301821215611349570180359067ffffffffffffffff82116113495760200191813603831361134957565b80518210156132b85760209160051b010190565b156136c757565b60405162461bcd60e51b815260206004820152602b60248201527f496e697469616c697a61626c653a20636f6e7472616374206973206e6f74206960448201527f6e697469616c697a696e670000000000000000000000000000000000000000006064820152608490fd5b90600092918054916137438361307a565b9182825260019384811690816000146137a55750600114613765575b50505050565b90919394506000526020928360002092846000945b83861061379157505050500101903880808061375f565b80548587018301529401938590820161377a565b9294505050602093945060ff191683830152151560051b0101903880808061375f565b9190820391821161364157565b8181106137e0575050565b600081556001016137d5565b9190601f81116137fb57505050565b613160926000526020600020906020601f840160051c83019310613827575b601f0160051c01906137d5565b909150819061381a565b919091825167ffffffffffffffff8111610b9a5761385981613853845461307a565b846137ec565b602080601f831160011461389557508192939460009261388a575b50508160011b916000199060031b1c1916179055565b015190503880613874565b90601f198316958460005282600020926000905b8882106138e1575050836001959697106138c8575b505050811b019055565b015160001960f88460031b161c191690553880806138be565b806001859682949686015181550195019301906138a9565b91906139085761316091613831565b634e487b7160e01b600052600060045260246000fd5b613928815461307a565b9081613932575050565b81601f60009311600114613944575055565b8183526020832061396091601f0160051c8101906001016137d5565b8160208120915555565b1561397157565b60405162461bcd60e51b815260206004820152601460248201527f6572726f725f6e6f74456e6f7567685374616b650000000000000000000000006044820152606490fd5b5190811515820361134957565b156139ca57565b60405162461bcd60e51b815260206004820152601a60248201527f6572726f725f756e7375636365737366756c57697468647261770000000000006044820152606490fd5b81601f82011215611349578051613a2581613210565b92613a336040519485613100565b818452602082840101116113495761327e91602080850191016131c8565b51906001600160a01b038216820361134957565b81601f8201121561134957805190613a7c826132ce565b92604092613a8c84519586613100565b808552602091828087019260061b85010193818511611349578301915b848310613ab95750505050505090565b8583830312611349578386918251613ad0816130e4565b613ad986613a51565b81528286015183820152815201920191613aa9565b90918060409360208452816020850152848401376000828201840152601f01601f1916010190565b9190820180921161364157565b9190916000838201938412911290801582169115161761364157565b15613b4657565b606460405162461bcd60e51b815260206004820152602060248201527f6572726f725f696e73756666696369656e7444656c6567617465416d6f756e746044820152fd5b15613b9157565b60405162461bcd60e51b815260206004820152601160248201527f6572726f725f696e76616c69644e6f64650000000000000000000000000000006044820152606490fd5b613be1811515613b3f565b6001600160a01b038216916000838152610100916020928084526040928391613c11600284842001541515613b8a565b3382526101028652828220613c278882546137c8565b9055338252613c6c610103948588528484208a85528852848420613c4c8a8254613b16565b9055898452828852600585852001613c658a8254613b16565b90556143fb565b87825285526005828220015492338252855281812087825285522054928251948552840152820152600160608201527f4c2cbb7d33d36a22e34970133436a2156c82cefc2dadfd9537fcfc177b40f03560803392a3565b613cce811515613b3f565b6001600160a01b03821691600090838252610100602091818352604091613cfc600284872001541515613b8a565b338552613d50610103928386528487208988528652848720613d1f8982546137c8565b9055888752828652600585882001613d388982546137c8565b90553387526101028652848720613c65898254613b16565b86855283526005828520015490338552835281842086855283528184205492825195865285015283015260608201527f4c2cbb7d33d36a22e34970133436a2156c82cefc2dadfd9537fcfc177b40f03560803392a3565b600033815280610102613e316020948286938452613dcb604086205483111561396a565b338552835260408420613ddf8282546137c8565b9055610106613def8282546137c8565b90556001600160a01b0360fb54169060405195868094819363a9059cbb60e01b83523360048401602090939291936001600160a01b0360408201951681520152565b03925af1928315613e91578193613e54575b5050506001613160911515146139c3565b9091809350813d8311613e8a575b613e6c8183613100565b81010312610bf957506001613e83613160926139b6565b9138613e43565b503d613e62565b50604051903d90823e3d90fd5b61010a54613eab816132ce565b90604090613ebb82519384613100565b808352613eca601f19916132ce565b01602090368285013761010c546001600160a01b03908116848115613f49575091600060019384805b613f02575b5050505050505090565b15613f3c575b60009084613f16848a6136ac565b911680915281526101008352613f3484600388842001541692613632565b919085613ef3565b838116613f085780613ef8565b94505050505090565b610108548015159182613f6457505090565b6001600160a01b0391925016600052610100602052600560406000200154101590565b906001600160a01b03809216916000908382526020946101008652604083208360028201938454156140fe575b5060018092019567ffffffffffffffff84116140ea57613fde84613fd8895461307a565b896137ec565b81601f851160011461406057937f5efa14ec2c459017dc330f0b3e8f2f26bee624ba1c66a50805faf6bf28bfb0b597959381938293614047999794614055575b50501b916000199060031b1c19161783555b429055604051928392604084526040840190613732565b9542908301521515940390a3565b01359250388061401e565b91601f9493941984168884528a8420935b8b8282106140d65750509161404797959391857f5efa14ec2c459017dc330f0b3e8f2f26bee624ba1c66a50805faf6bf28bfb0b59a989694106140bc575b505050811b018355614030565b0135600019600384901b60f8161c191690553880806140af565b848401358655948701949283019201614071565b634e487b7160e01b82526041600452602482fd5b945060019461010c9080825416156000146141685750876001600160a01b03198254161790554361010b555b61010d876001600160a01b031982541617905561010a805490868201809211614154575538613fb4565b634e487b7160e01b83526011600452602483fd5b905061010d9080825416835260036040842001916001600160a01b0319928a848254161790555416600484019182541617905561010a54825561412a565b8015613641576000190190565b906001600160a01b038092166000928184526101006020908082526040808720916002830154156143b7579082916004899695940193858554168061438e575b5060038094018681541680614368575b5061010c9586548a89821614614350575b5061010d90815490898c81841614614336575b5050505088885282825287600585822082815560019d8e8083019061424c825461307a565b806142f9575b50505060028201558288820155826004820155015561010a805490600019820191821161219157555486168a5b6142c4575b50505050507fcfc24166db4bb677e857cacabd1541fb2b30645021b27c5130419589b84db52b939495505416156142ba575b80a2565b8061010b556142b6565b861680156142f4578088528282528388206142df81546141a6565b9055875281815285848489200154168a61427f565b614284565b601f8111600114614311575050555b82388f81614252565b61432a91838552601f8a86209201871c820191016137d5565b81878120915555614308565b6001600160a01b0319915416911617905538808089614227565b6001600160a01b031989845416911617875538614214565b878754169089528383526004858a2001906001600160a01b031982541617905538614203565b86600386015416908852828252600384892001906001600160a01b0319825416179055386141f3565b815162461bcd60e51b815260048101859052600e60248201527f6572726f725f6e6f74466f756e640000000000000000000000000000000000006044820152606490fd5b61010e5460005b81811061440e57505050565b61441781613281565b50604080519182600082549261442c8461307a565b9060019485811690816000146145845750600114614543575b505091611ce99183610104614464955260209687910301902001613122565b6001600160a01b03610100818816948560005252600583600020015461010854111560001461450c5760ff541690813b15611349576000916144c491838551809781958294634cbf455560e11b84526060600485015260648401906131eb565b9060248301526002604483015203925af19081156145025750906144ee92916144f3575b50613632565b614402565b6144fc906130b4565b386144e8565b513d6000823e3d90fd5b60ff541690813b15611349576000916144c491838551809781958294631f1cbd7560e11b84526060600485015260648401906131eb565b915092915060005283602092836000209360005b8281106145705750929350909150810181614464614445565b855488820152948401948793508101614557565b60ff191685525050801515028201905081614464614445565b600060408051908351906020966145d2888701936145bc8187876131c8565b850194898161010497888152030190205461307a565b614814576001600160a01b03938460ff5416803b1561134e5786614617614629928b838851809681958294630ef8cdc760e01b84528c600485015260448401906131eb565b8281036003190160248401528a6131eb565b03925af180156147f757614801575b5061464288614858565b9460ff5416803b1561134e578684518092632337c3c760e11b8252866004830152818381614673604482018d6131eb565b6003602483015203925af180156147f7579087916147e3575b505061010e8054680100000000000000008110156147cf57886120588260016146b794018555613281565b546000198101969087116147bb575082519860808a01988a8a1067ffffffffffffffff8b1117610b9a578a60036147b699614777877fa84ba88bc4cba6bd0c14537f17962f752feed22dd30806af432e8df8d6a7fe039f61478e9f8f6147528a6147a89f8f9d6147639461479b9f60608f989961476d9a8352838152868101998a528281019b8c52019b8c52519485938492519283916131c8565b820190815203019020975188613831565b5160018701613831565b5160028501613831565b519101558451998a9960808b5260808b01906131eb565b91898303908a01526131eb565b91868303908701526131eb565b9083820360608501526131eb565b0390a1565b634e487b7160e01b81526011600452602490fd5b634e487b7160e01b88526041600452602488fd5b6147ec906130b4565b610a6057853861468c565b84513d89823e3d90fd5b61480d909691966130b4565b9438614638565b815162461bcd60e51b815260048101899052601960248201527f53545245414d5f414c52454144595f52454749535445524544000000000000006044820152606490fd5b6040513091614866826130c8565b602a82526020928383019060403683378351156132b8576030825383516001908110156132b857607860218601536029905b8082116149245750506148e157916148c1939161327e93604051958693518092868601906131c8565b82016148d5825180938680850191016131c8565b01038084520182613100565b6064846040519062461bcd60e51b825280600483015260248201527f537472696e67733a20686578206c656e67746820696e73756666696369656e746044820152fd5b9091600f8116906010821015614978578651841015614978577f3031323334353637383961626364656600000000000000000000000000000000614972921a88858901015360041c926141a6565b90614898565b60246000634e487b7160e01b81526032600452fdfea2646970667358221220b6a6ad6254edd74f8d48eabafc2b7e7af8bba6da8ad7b993e0d36a63b512cfd364736f6c63430008110033",
  "linkReferences": {},
  "deployedLinkReferences": {}
}