{
  "_format": "hh-sol-artifact-1",
  "contractName": "LogStoreNodeManager",
  "sourceName": "src/NodeManager.sol",
  "abi": [
    {
      "anonymous": false,
      "inputs": [
        {
          "indexed": false,
          "internalType": "address",
          "name": "previousAdmin",
          "type": "address"
        },
        {
          "indexed": false,
          "internalType": "address",
          "name": "newAdmin",
          "type": "address"
        }
      ],
      "name": "AdminChanged",
      "type": "event"
    },
    {
      "anonymous": false,
      "inputs": [
        {
          "indexed": true,
          "internalType": "address",
          "name": "beacon",
          "type": "address"
        }
      ],
      "name": "BeaconUpgraded",
      "type": "event"
    },
    {
      "anonymous": false,
      "inputs": [
        {
          "indexed": false,
          "internalType": "uint8",
          "name": "version",
          "type": "uint8"
        }
      ],
      "name": "Initialized",
      "type": "event"
    },
    {
      "anonymous": false,
      "inputs": [
        {
          "indexed": true,
          "internalType": "address",
          "name": "nodeAddress",
          "type": "address"
        }
      ],
      "name": "NodeRemoved",
      "type": "event"
    },
    {
      "anonymous": false,
      "inputs": [
        {
          "indexed": true,
          "internalType": "address",
          "name": "nodeAddress",
          "type": "address"
        },
        {
          "indexed": false,
          "internalType": "uint256",
          "name": "stake",
          "type": "uint256"
        }
      ],
      "name": "NodeStakeUpdated",
      "type": "event"
    },
    {
      "anonymous": false,
      "inputs": [
        {
          "indexed": true,
          "internalType": "address",
          "name": "nodeAddress",
          "type": "address"
        },
        {
          "indexed": false,
          "internalType": "string",
          "name": "metadata",
          "type": "string"
        },
        {
          "indexed": true,
          "internalType": "uint256",
          "name": "isNew",
          "type": "uint256"
        },
        {
          "indexed": false,
          "internalType": "uint256",
          "name": "lastSeen",
          "type": "uint256"
        }
      ],
      "name": "NodeUpdated",
      "type": "event"
    },
    {
      "anonymous": false,
      "inputs": [
        {
          "indexed": true,
          "internalType": "address",
          "name": "nodeAddress",
          "type": "address"
        }
      ],
      "name": "NodeWhitelistApproved",
      "type": "event"
    },
    {
      "anonymous": false,
      "inputs": [
        {
          "indexed": true,
          "internalType": "address",
          "name": "nodeAddress",
          "type": "address"
        }
      ],
      "name": "NodeWhitelistRejected",
      "type": "event"
    },
    {
      "anonymous": false,
      "inputs": [
        {
          "indexed": true,
          "internalType": "address",
          "name": "previousOwner",
          "type": "address"
        },
        {
          "indexed": true,
          "internalType": "address",
          "name": "newOwner",
          "type": "address"
        }
      ],
      "name": "OwnershipTransferred",
      "type": "event"
    },
    {
      "anonymous": false,
      "inputs": [
        {
          "indexed": false,
          "internalType": "string",
          "name": "id",
          "type": "string"
        }
      ],
      "name": "ReportProcessed",
      "type": "event"
    },
    {
      "anonymous": false,
      "inputs": [
        {
          "indexed": true,
          "internalType": "bool",
          "name": "value",
          "type": "bool"
        }
      ],
      "name": "RequiresWhitelistChanged",
      "type": "event"
    },
    {
      "anonymous": false,
      "inputs": [
        {
          "indexed": true,
          "internalType": "address",
          "name": "implementation",
          "type": "address"
        }
      ],
      "name": "Upgraded",
      "type": "event"
    },
    {
      "inputs": [],
      "name": "LOGSTORE_QUERY_SYSTEM_STREAM_ID_PATH",
      "outputs": [
        {
          "internalType": "string",
          "name": "",
          "type": "string"
        }
      ],
      "stateMutability": "view",
      "type": "function"
    },
    {
      "inputs": [],
      "name": "LOGSTORE_QUERY_SYSTEM_STREAM_METADATA_JSON_STRING",
      "outputs": [
        {
          "internalType": "string",
          "name": "",
          "type": "string"
        }
      ],
      "stateMutability": "view",
      "type": "function"
    },
    {
      "inputs": [],
      "name": "LOGSTORE_STORE_SYSTEM_STREAM_ID_PATH",
      "outputs": [
        {
          "internalType": "string",
          "name": "",
          "type": "string"
        }
      ],
      "stateMutability": "view",
      "type": "function"
    },
    {
      "inputs": [],
      "name": "LOGSTORE_STORE_SYSTEM_STREAM_METADATA_JSON_STRING",
      "outputs": [
        {
          "internalType": "string",
          "name": "",
          "type": "string"
        }
      ],
      "stateMutability": "view",
      "type": "function"
    },
    {
      "inputs": [
        {
          "internalType": "address",
          "name": "",
          "type": "address"
        }
      ],
      "name": "balanceOf",
      "outputs": [
        {
          "internalType": "uint256",
          "name": "",
          "type": "uint256"
        }
      ],
      "stateMutability": "view",
      "type": "function"
    },
    {
      "inputs": [],
      "name": "countNodes",
      "outputs": [
        {
          "internalType": "uint256",
          "name": "",
          "type": "uint256"
        }
      ],
      "stateMutability": "view",
      "type": "function"
    },
    {
      "inputs": [
        {
          "internalType": "uint256",
          "name": "amount",
          "type": "uint256"
        },
        {
          "internalType": "address",
          "name": "node",
          "type": "address"
        }
      ],
      "name": "delegate",
      "outputs": [],
      "stateMutability": "nonpayable",
      "type": "function"
    },
    {
      "inputs": [
        {
          "internalType": "address",
          "name": "",
          "type": "address"
        },
        {
          "internalType": "address",
          "name": "",
          "type": "address"
        }
      ],
      "name": "delegatesOf",
      "outputs": [
        {
          "internalType": "uint256",
          "name": "",
          "type": "uint256"
        }
      ],
      "stateMutability": "view",
      "type": "function"
    },
    {
      "inputs": [],
      "name": "headNode",
      "outputs": [
        {
          "internalType": "address",
          "name": "",
          "type": "address"
        }
      ],
      "stateMutability": "view",
      "type": "function"
    },
    {
      "inputs": [
        {
          "internalType": "address",
          "name": "owner_",
          "type": "address"
        },
        {
          "internalType": "bool",
          "name": "requiresWhitelist_",
          "type": "bool"
        },
        {
          "internalType": "address",
          "name": "stakeTokenAddress_",
          "type": "address"
        },
        {
          "internalType": "uint256",
          "name": "stakeRequiredAmount_",
          "type": "uint256"
        },
        {
          "internalType": "address",
          "name": "streamrRegistryAddress_",
          "type": "address"
        },
        {
          "internalType": "address[]",
          "name": "initialNodes",
          "type": "address[]"
        },
        {
          "internalType": "string[]",
          "name": "initialMetadata",
          "type": "string[]"
        }
      ],
      "name": "initialize",
      "outputs": [],
      "stateMutability": "nonpayable",
      "type": "function"
    },
    {
      "inputs": [
        {
          "internalType": "address",
          "name": "node",
          "type": "address"
        }
      ],
      "name": "isStaked",
      "outputs": [
        {
          "internalType": "bool",
          "name": "",
          "type": "bool"
        }
      ],
      "stateMutability": "view",
      "type": "function"
    },
    {
      "inputs": [
        {
          "internalType": "uint256",
          "name": "amount",
          "type": "uint256"
        },
        {
          "internalType": "string",
          "name": "metadata_",
          "type": "string"
        }
      ],
      "name": "join",
      "outputs": [],
      "stateMutability": "nonpayable",
      "type": "function"
    },
    {
      "inputs": [
        {
          "internalType": "address",
          "name": "nodeAddress",
          "type": "address"
        }
      ],
      "name": "kickNode",
      "outputs": [],
      "stateMutability": "nonpayable",
      "type": "function"
    },
    {
      "inputs": [],
      "name": "leave",
      "outputs": [],
      "stateMutability": "nonpayable",
      "type": "function"
    },
    {
      "inputs": [],
      "name": "nodeAddresses",
      "outputs": [
        {
          "internalType": "address[]",
          "name": "resultAddresses",
          "type": "address[]"
        }
      ],
      "stateMutability": "view",
      "type": "function"
    },
    {
      "inputs": [
        {
          "internalType": "address",
          "name": "node",
          "type": "address"
        }
      ],
      "name": "nodeStake",
      "outputs": [
        {
          "internalType": "uint256",
          "name": "",
          "type": "uint256"
        }
      ],
      "stateMutability": "view",
      "type": "function"
    },
    {
      "inputs": [
        {
          "internalType": "address",
          "name": "",
          "type": "address"
        }
      ],
      "name": "nodes",
      "outputs": [
        {
          "internalType": "uint256",
          "name": "index",
          "type": "uint256"
        },
        {
          "internalType": "string",
          "name": "metadata",
          "type": "string"
        },
        {
          "internalType": "uint256",
          "name": "lastSeen",
          "type": "uint256"
        },
        {
          "internalType": "address",
          "name": "next",
          "type": "address"
        },
        {
          "internalType": "address",
          "name": "prev",
          "type": "address"
        },
        {
          "internalType": "uint256",
          "name": "stake",
          "type": "uint256"
        }
      ],
      "stateMutability": "view",
      "type": "function"
    },
    {
      "inputs": [],
      "name": "owner",
      "outputs": [
        {
          "internalType": "address",
          "name": "",
          "type": "address"
        }
      ],
      "stateMutability": "view",
      "type": "function"
    },
    {
      "inputs": [
        {
          "internalType": "string",
          "name": "id",
          "type": "string"
        }
      ],
      "name": "processReport",
      "outputs": [],
      "stateMutability": "nonpayable",
      "type": "function"
    },
    {
      "inputs": [],
      "name": "proxiableUUID",
      "outputs": [
        {
          "internalType": "bytes32",
          "name": "",
          "type": "bytes32"
        }
      ],
      "stateMutability": "view",
      "type": "function"
    },
    {
      "inputs": [
        {
          "internalType": "address",
          "name": "contractAddress",
          "type": "address"
        }
      ],
      "name": "registerQueryManager",
      "outputs": [],
      "stateMutability": "nonpayable",
      "type": "function"
    },
    {
      "inputs": [
        {
          "internalType": "address",
          "name": "contractAddress",
          "type": "address"
        }
      ],
      "name": "registerReportManager",
      "outputs": [],
      "stateMutability": "nonpayable",
      "type": "function"
    },
    {
      "inputs": [
        {
          "internalType": "address",
          "name": "contractAddress",
          "type": "address"
        }
      ],
      "name": "registerStoreManager",
      "outputs": [],
      "stateMutability": "nonpayable",
      "type": "function"
    },
    {
      "inputs": [],
      "name": "removeNode",
      "outputs": [],
      "stateMutability": "nonpayable",
      "type": "function"
    },
    {
      "inputs": [
        {
          "internalType": "address",
          "name": "nodeAddress",
          "type": "address"
        }
      ],
      "name": "removeNodeAdmin",
      "outputs": [],
      "stateMutability": "nonpayable",
      "type": "function"
    },
    {
      "inputs": [],
      "name": "renounceOwnership",
      "outputs": [],
      "stateMutability": "nonpayable",
      "type": "function"
    },
    {
      "inputs": [],
      "name": "requiresWhitelist",
      "outputs": [
        {
          "internalType": "bool",
          "name": "",
          "type": "bool"
        }
      ],
      "stateMutability": "view",
      "type": "function"
    },
    {
      "inputs": [
        {
          "internalType": "bool",
          "name": "value",
          "type": "bool"
        }
      ],
      "name": "setRequiresWhitelist",
      "outputs": [],
      "stateMutability": "nonpayable",
      "type": "function"
    },
    {
      "inputs": [
        {
          "internalType": "uint256",
          "name": "amount",
          "type": "uint256"
        }
      ],
      "name": "stake",
      "outputs": [],
      "stateMutability": "nonpayable",
      "type": "function"
    },
    {
      "inputs": [
        {
          "internalType": "uint256",
          "name": "amount",
          "type": "uint256"
        },
        {
          "internalType": "address",
          "name": "node",
          "type": "address"
        }
      ],
      "name": "stakeAndDelegate",
      "outputs": [],
      "stateMutability": "nonpayable",
      "type": "function"
    },
    {
      "inputs": [],
      "name": "stakeRequiredAmount",
      "outputs": [
        {
          "internalType": "uint256",
          "name": "",
          "type": "uint256"
        }
      ],
      "stateMutability": "view",
      "type": "function"
    },
    {
      "inputs": [],
      "name": "stakeTokenAddress",
      "outputs": [
        {
          "internalType": "address",
          "name": "",
          "type": "address"
        }
      ],
      "stateMutability": "view",
      "type": "function"
    },
    {
      "inputs": [],
      "name": "tailNode",
      "outputs": [
        {
          "internalType": "address",
          "name": "",
          "type": "address"
        }
      ],
      "stateMutability": "view",
      "type": "function"
    },
    {
      "inputs": [],
      "name": "totalNodes",
      "outputs": [
        {
          "internalType": "uint256",
          "name": "",
          "type": "uint256"
        }
      ],
      "stateMutability": "view",
      "type": "function"
    },
    {
      "inputs": [],
      "name": "totalSupply",
      "outputs": [
        {
          "internalType": "uint256",
          "name": "",
          "type": "uint256"
        }
      ],
      "stateMutability": "view",
      "type": "function"
    },
    {
      "inputs": [
        {
          "internalType": "address",
          "name": "newOwner",
          "type": "address"
        }
      ],
      "name": "transferOwnership",
      "outputs": [],
      "stateMutability": "nonpayable",
      "type": "function"
    },
    {
      "inputs": [],
      "name": "treasurySupply",
      "outputs": [
        {
          "internalType": "uint256",
          "name": "",
          "type": "uint256"
        }
      ],
      "stateMutability": "view",
      "type": "function"
    },
    {
      "inputs": [
        {
          "internalType": "uint256",
          "name": "amount",
          "type": "uint256"
        }
      ],
      "name": "treasuryWithdraw",
      "outputs": [],
      "stateMutability": "nonpayable",
      "type": "function"
    },
    {
      "inputs": [
        {
          "internalType": "uint256",
          "name": "amount",
          "type": "uint256"
        },
        {
          "internalType": "address",
          "name": "node",
          "type": "address"
        }
      ],
      "name": "undelegate",
      "outputs": [],
      "stateMutability": "nonpayable",
      "type": "function"
    },
    {
      "inputs": [
        {
          "internalType": "uint256",
          "name": "amount",
          "type": "uint256"
        },
        {
          "internalType": "address",
          "name": "node",
          "type": "address"
        }
      ],
      "name": "undelegateWithdraw",
      "outputs": [],
      "stateMutability": "nonpayable",
      "type": "function"
    },
    {
      "inputs": [
        {
          "internalType": "address",
          "name": "newImplementation",
          "type": "address"
        }
      ],
      "name": "upgradeTo",
      "outputs": [],
      "stateMutability": "nonpayable",
      "type": "function"
    },
    {
      "inputs": [
        {
          "internalType": "address",
          "name": "newImplementation",
          "type": "address"
        },
        {
          "internalType": "bytes",
          "name": "data",
          "type": "bytes"
        }
      ],
      "name": "upgradeToAndCall",
      "outputs": [],
      "stateMutability": "payable",
      "type": "function"
    },
    {
      "inputs": [
        {
          "internalType": "string",
          "name": "metadata_",
          "type": "string"
        }
      ],
      "name": "upsertNode",
      "outputs": [],
      "stateMutability": "nonpayable",
      "type": "function"
    },
    {
      "inputs": [
        {
          "internalType": "address",
          "name": "node",
          "type": "address"
        },
        {
          "internalType": "string",
          "name": "metadata_",
          "type": "string"
        }
      ],
      "name": "upsertNodeAdmin",
      "outputs": [],
      "stateMutability": "nonpayable",
      "type": "function"
    },
    {
      "inputs": [
        {
          "internalType": "address",
          "name": "",
          "type": "address"
        }
      ],
      "name": "whitelist",
      "outputs": [
        {
          "internalType": "enum LogStoreNodeManager.WhitelistState",
          "name": "",
          "type": "uint8"
        }
      ],
      "stateMutability": "view",
      "type": "function"
    },
    {
      "inputs": [
        {
          "internalType": "address",
          "name": "nodeAddress",
          "type": "address"
        }
      ],
      "name": "whitelistApproveNode",
      "outputs": [],
      "stateMutability": "nonpayable",
      "type": "function"
    },
    {
      "inputs": [
        {
          "internalType": "address",
          "name": "nodeAddress",
          "type": "address"
        }
      ],
      "name": "whitelistRejectNode",
      "outputs": [],
      "stateMutability": "nonpayable",
      "type": "function"
    },
    {
      "inputs": [
        {
          "internalType": "uint256",
          "name": "amount",
          "type": "uint256"
        }
      ],
      "name": "withdraw",
      "outputs": [],
      "stateMutability": "nonpayable",
      "type": "function"
    }
  ],
  "bytecode": "0x60a0806040523461003157306080526146a5908161003782396080518181816119fd01528181611b360152612a320152f35b600080fdfe6080806040526004361015610014575b600080fd5b600090813560e01c9081630106395f146130415750806308bbb8241461301c5780631204c48614612fd057806318160ddd14612fb2578063189a5a1714612e8d5780631ad603d014612e1257806320a59a0314612db55780632af5758014612d4b5780632e1a7d4d14612d2e5780633659cfe614612a0b5780633cfb3d8a146126e657806345e863e0146126c15780634632974314611e6d57806346c198f614611e455780634f1ef28614611ab857806352d1902d146119e25780635888799c146119785780635bc8350314610eba5780635fc1a4b81461195a5780636177fd181461192c578063652671391461183e57806367517f4f1461182257806370a08231146117e9578063715018a61461178d578063735e6c7a1461151157806375ed25dc146114d057806379e574cb1461148f5780638ce15586146114655780638da5cb5b1461143e5780639592d4241461141f5780639b19251a146113c35780639f1efb501461138f578063a5ee5b411461136c578063a694fc3a14611105578063abad29a8146110b4578063b2a52fef14610fe9578063bfdf086614610fc1578063c10b522214610ec4578063cd1913ea14610eba578063cd23d26814610e7e578063d0d3f5ba14610e64578063d5c7096614610e46578063d66d9e1914610df3578063e04b0f1814610d74578063e7b5895314610d46578063e8d88aba14610d05578063f2fde38b14610c5d5763f6883c051461023257600080fd5b34610c5a576020366003190112610c5a5760043567ffffffffffffffff81116107b957610263903690600401613092565b9061026d33614537565b15610c155761010c926001600160a01b03845416918160405180946312e63d7160e01b825281806102a2898760048401613947565b03915afa9283156107ae57829361080c575b506101008301516107c757815b606080850190815180518410156103f6576102de8460409261371a565b5101516102f6575b50506102f1906136f5565b6102c1565b602061035a6001600160a01b0361010a541661031386865161371a565b5151888461032289895161371a565b5101519560406103338a8a5161371a565b5101519660405197889687958694639ac0e98b60e01b86526004860152606485019061318b565b916024840152604483015203925af180156103eb5761039f575b50906020610386826102f1945161371a565b51015161039660fc91825461396f565b905590386102e6565b6020813d6020116103e3575b816103b860209383613146565b810103126103df57610386836102f194936103d460209461380f565b509350935050610374565b8480fd5b3d91506103ab565b6040513d87823e3d90fd5b505050508490825b60c0850180518051831015610502576104198360409261371a565b510151610430575b5061042b906136f5565b6103fe565b6001600160a01b0361010b54166001600160a01b0361045084845161371a565b515116602061046085855161371a565b51015190604061047186865161371a565b51015192803b156104fe57889291836064926040519687958694631ee2efa360e31b86526004860152602485015260448401525af180156104f3579086916104df575b50509060206104c78261042b945161371a565b5101516104d760fc91825461396f565b905590610421565b6104e8906130fa565b6103df5784886104b4565b6040513d88823e3d90fd5b8880fd5b5050509390825b60808501805180518310156105c6576001600160a01b03610593848094836105376105a09861059b9761371a565b5151168a526101018060205260406105678c6005928391200154602061055e87875161371a565b5101519061397c565b918c808413156105a557508661057e86865161371a565b5151168d5260205260408c2001555b5161371a565b51511661439a565b6136f5565b610509565b9250866105b386865161371a565b515116835260205260408220015561058d565b85808987878b5b60a08101938451518710156106fa57855b60206105eb89885161371a565b510151518110156106e25780886020610631838261061e6001600160a01b036106266106a8998f61061e8a87925161371a565b51015161371a565b515116958d5161371a565b510151906001600160a01b036106488c8b5161371a565b5151168a5261066e610104928360205260408c208360005260205260406000205461397c565b918a8313156106ad576001600160a01b0361068a8d8c5161371a565b5151168b5260205260408a20906000526020526040600020556136f5565b6105de565b9091506001600160a01b036106c38c8b5161371a565b5151168a526020526040892090600052602052876040600020556136f5565b509291956106f19194506136f5565b949091926105cd565b935084916107186001600160a01b0392604060fd549101519061397c565b838113156107bd5760fd555b5416803b156107b95781604051809263f6883c0560e01b825281838161074e898b60048401613947565b03925af180156107ae57610796575b50507fbcd21d99bbf55769881dda49c45043a8750d2229c330cdddd4718575f72364029161079060405192839283613947565b0390a180f35b61079f906130fa565b6107aa57828461075d565b8280fd5b6040513d84823e3d90fd5b5080fd5b508260fd55610724565b60405162461bcd60e51b815260206004820152601c60248201527f6572726f725f7265706f7274416c726561647950726f636573736564000000006044820152606490fd5b9092503d908183823e61081f8282613146565b60208183810103126107aa5780519067ffffffffffffffff8211610c1157610120928383830182840103126103df5760405193840184811067ffffffffffffffff821117610bfb576040528282015167ffffffffffffffff8111610ac15761088e908284019085850101613868565b845281830160208181015190860152604080820151908601526060015167ffffffffffffffff8111610ac157818301601f8286860101011215610ac157808484010151906108db826131b0565b916108e96040519384613146565b808352602083019184860160208360051b838a8a01010101116104fe576020818888010101925b60208360051b838a8a010101018410610b62575050505060608501526080838301015167ffffffffffffffff8111610ac1576109539082840190858501016138be565b608085015260a0838301015167ffffffffffffffff8111610ac157818301601f8286860101011215610ac15780848401015161098e816131b0565b9161099c6040519384613146565b818352602083019084860160208460051b838a8a01010101116104fe576020818888010101915b60208460051b838a8a010101018310610ac5575050505060a085015260c0838301015167ffffffffffffffff8111610ac15783830101818301601f82011215610ac157805190610a12826131b0565b92610a206040519485613146565b8284526020606081860194028301019181860183116104fe57602001925b828410610a7c575050505060c0840152610a7190610a6083820160e0016138aa565b60e08501526101009201820161380f565b9082015291386102b4565b60608483880103126104fe576020606091604051610a998161310e565b610aa2876138aa565b8152828701518382015260408701516040820152815201930192610a3e565b8580fd5b825167ffffffffffffffff8111610b5e576040888a0184018201888a0103601f190112610b5e5760405190610af98261312a565b610b0b602082868d8d010101016138aa565b8252604081858c8c01010101519067ffffffffffffffff8211610b5a579260209392610b498b868096958f968a8f98849986019501010101016138be565b8382015281520193019290506109c3565b8c80fd5b8a80fd5b835167ffffffffffffffff8111610b5e576060888a0184018201888a0103601f190112610b5e5760405190610b968261310e565b602081858c8c010101015167ffffffffffffffff8111610b5a5792602093926060859493878e8e610bd68f988a809a840191878787870101010101613868565b8652010101604081810151868501529101519082015281529190950194019050610910565b634e487b7160e01b600052604160045260246000fd5b8380fd5b60405162461bcd60e51b815260206004820152601360248201527f6572726f725f7374616b655265717569726564000000000000000000000000006044820152606490fd5b80fd5b5034610c5a576020366003190112610c5a57610c7761307c565b610c7f6132ac565b6001600160a01b03811615610c9a57610c9790613304565b80f35b60405162461bcd60e51b815260206004820152602660248201527f4f776e61626c653a206e6577206f776e657220697320746865207a65726f206160448201527f64647265737300000000000000000000000000000000000000000000000000006064820152608490fd5b5034610c5a576020366003190112610c5a57610d1f61307c565b610d276132ac565b6001600160a01b0361010c91166001600160a01b031982541617905580f35b5034610c5a576040366003190112610c5a57610c97600435610d6f610d69613066565b82613bf3565b613dd7565b5034610c5a5780600319360112610c5a57806001600160a01b03808061010554165b168352610101602052600381816040862001541615610dc857610dc282809260408720015416936136f5565b92610d96565b6001830184818511610ddf57602082604051908152f35b634e487b7160e01b81526011600452602490fd5b5034610c5a5780600319360112610c5a573381526101046020526040812033600052602052610e2733604060002054613bf3565b338152610103602052610e3d6040822054613dd7565b610c97336141a2565b5034610c5a5780600319360112610c5a57602060fe54604051908152f35b5034610c5a5780600319360112610c5a57610c97336141a2565b5034610c5a576020366003190112610c5a57600560406020926001600160a01b03610ea761307c565b1681526101018452200154604051908152f35b505061000f61321d565b5034610c5a5780600319360112610c5a5761010054610efb610ee5826131b0565b91610ef36040519384613146565b8083526131b0565b6020828101939091601f19013685376001600160a01b0392836101055416928260019485805b610f64575b505050604051948186019282875251809352604086019693905b838210610f4d5786880387f35b845181168852968201969382019390850190610f40565b90869896919593949515610fae575b839088610f80858961371a565b911680915284526101018552610f9f88600360408720015416936136f5565b91969895949395929192610f21565b878116610f735797959794939294610f26565b5034610c5a5780600319360112610c5a5760206001600160a01b036101065416604051908152f35b5034610c5a576020366003190112610c5a5760043567ffffffffffffffff81116107b95761101b903690600401613092565b60ff60fb541615801561107d575b1561103857610c979133613ed0565b60405162461bcd60e51b815260206004820152601160248201527f6572726f725f6e6f74417070726f7665640000000000000000000000000000006044820152606490fd5b5033835261010260205260ff60408420541660038110156110a057600114611029565b634e487b7160e01b84526021600452602484fd5b5034610c5a576040366003190112610c5a576110ce61307c565b60406110d8613066565b926001600160a01b0380931681526101046020522091166000526020526020604060002054604051908152f35b5034610c5a576020806003193601126107b957600435600260c9541461132757600260c95580156112e2576001600160a01b0361010960248483835416604051928380926370a0823160e01b82523360048301525afa80156104f357849187916112b1575b501061126c579160648492869433865261010385526040862061118e85825461396f565b905561119c8460fc5461396f565b60fc5554169160405194859384926323b872dd60e01b845233600485015230602485015260448401525af1801561126157839061122c575b600191501515036111e85750600160c95580f35b6064906040519062461bcd60e51b82526004820152601760248201527f6572726f725f756e7375636365737366756c5374616b650000000000000000006044820152fd5b508181813d831161125a575b6112428183613146565b810103126107aa5761125560019161380f565b6111d4565b503d611238565b6040513d85823e3d90fd5b60405162461bcd60e51b815260048101859052601960248201527f6572726f725f696e73756666696369656e7442616c616e6365000000000000006044820152606490fd5b809250868092503d83116112db575b6112ca8183613146565b81010312610ac1578390513861116a565b503d6112c0565b60405162461bcd60e51b815260048101839052601760248201527f6572726f725f696e73756666696369656e745374616b650000000000000000006044820152606490fd5b60405162461bcd60e51b815260048101839052601f60248201527f5265656e7472616e637947756172643a207265656e7472616e742063616c6c006044820152606490fd5b5034610c5a5780600319360112610c5a57602060ff60fb54166040519015158152f35b5034610c5a5780600319360112610c5a576113bf6113ab613273565b60405191829160208352602083019061318b565b0390f35b5034610c5a576020366003190112610c5a576001600160a01b036113e561307c565b16815261010260205260ff60408220541660405190600381101561140b57602092508152f35b634e487b7160e01b83526021600452602483fd5b5034610c5a5780600319360112610c5a57602061010054604051908152f35b5034610c5a5780600319360112610c5a5760206001600160a01b0360975416604051908152f35b5034610c5a576020366003190112610c5a57610c9761148261307c565b61148a6132ac565b6141a2565b5034610c5a576020366003190112610c5a576114a961307c565b6114b16132ac565b6001600160a01b0361010b91166001600160a01b031982541617905580f35b5034610c5a576020366003190112610c5a576114ea61307c565b6114f26132ac565b6001600160a01b0361010a91166001600160a01b031982541617905580f35b5034610c5a576040366003190112610c5a576004359061152f613066565b600260c9541461174857600260c9558215611703576001600160a01b039261010993808554169460405180966370a0823160e01b82523360048301528160246020998a935afa9081156104f35790849187916116d2575b501061168d57849186913384526101038352604084206115a786825461396f565b90556115b58560fc5461396f565b60fc5554166064604051809481936323b872dd60e01b83523360048401523060248401528760448401525af1801561168257849061164d575b600191501515036116085790610c9791600160c955613a47565b60405162461bcd60e51b815260048101859052601760248201527f6572726f725f756e7375636365737366756c5374616b650000000000000000006044820152606490fd5b508481813d831161167b575b6116638183613146565b81010312610c115761167660019161380f565b6115ee565b503d611659565b6040513d86823e3d90fd5b60405162461bcd60e51b815260048101879052601960248201527f6572726f725f696e73756666696369656e7442616c616e6365000000000000006044820152606490fd5b809250888092503d83116116fc575b6116eb8183613146565b81010312610ac15783905138611586565b503d6116e1565b60405162461bcd60e51b815260206004820152601760248201527f6572726f725f696e73756666696369656e745374616b650000000000000000006044820152606490fd5b60405162461bcd60e51b815260206004820152601f60248201527f5265656e7472616e637947756172643a207265656e7472616e742063616c6c006044820152606490fd5b5034610c5a5780600319360112610c5a576117a66132ac565b60006001600160a01b036097546001600160a01b03198116609755167f8be0079c531659141344cd1fd0a4f28419497f9722a3daafe3b4186f6b6457e08280a380f35b5034610c5a576020366003190112610c5a5760406020916001600160a01b0361181061307c565b16815261010383522054604051908152f35b5034610c5a5780600319360112610c5a576113bf6113ab61323a565b5034610c5a576020366003190112610c5a578060206118cc6004356118616132ac565b6118888160fd54611874818311156137b6565b6118808260fc54613802565b60fc55613802565b60fd556001600160a01b0361010954169060405194858094819363a9059cbb60e01b83523360048401602090939291936001600160a01b0360408201951681520152565b03925af19081156107ae5782916118ed575b506001610c979115151461381c565b90506020813d8211611924575b8161190760209383613146565b810103126107b957600161191d610c979261380f565b91506118de565b3d91506118fa565b5034610c5a576020366003190112610c5a57602061195061194b61307c565b614537565b6040519015158152f35b5034610c5a5780600319360112610c5a57602060fd54604051908152f35b5034610c5a576020366003190112610c5a576001600160a01b0361199a61307c565b6119a26132ac565b1680825261010260205260408220805460ff191660011790557fdfe83f699699403a4b116b6f9504680228c3f319bbf5ab26b48a81d3005d98b28280a280f35b5034610c5a5780600319360112610c5a576001600160a01b037f0000000000000000000000000000000000000000000000000000000000000000163003611a4d5760206040517f360894a13ba1a3210667c828492db98dca3e2076cc3735a920a3ca505d382bbc8152f35b60405162461bcd60e51b815260206004820152603860248201527f555550535570677261646561626c653a206d757374206e6f742062652063616c60448201527f6c6564207468726f7567682064656c656761746563616c6c00000000000000006064820152608490fd5b506040366003190112610c5a57611acd61307c565b90602491823567ffffffffffffffff81116107aa57366023820112156107aa57806004013590611afc826131c8565b611b096040519182613146565b8281526020928382019236888383010111611e4157818792898793018637830101526001600160a01b03807f00000000000000000000000000000000000000000000000000000000000000001690611b638230141561334c565b611b927f360894a13ba1a3210667c828492db98dca3e2076cc3735a920a3ca505d382bbc9282845416146133be565b611b9a6132ac565b7f4910fdfa16fed3260ed0e7147f7cc6da11a60208b5b9406d12a635614ffd91435460ff1615611bd4575050505050610c97919250613430565b8596949616906040516352d1902d60e01b81528781600481865afa60009181611e12575b50611c585760405162461bcd60e51b815260048101899052602e818b01527f45524331393637557067726164653a206e657720696d706c656d656e7461746960448201526d6f6e206973206e6f74205555505360901b6064820152608490fd5b979192939496959703611dbd57611c6e87613430565b604051917fbc7cd75a20ee27fd9adebab32041f755214dbc6bffa90cc0225b39da2e5c2d3b600080a2825115801590611db5575b611cb1575b5050505050905080f35b863b15611d65575050611d519394600092839251915af43d15611d5d573d90611cd9826131c8565b91611ce76040519384613146565b82523d60008484013e5b7f416464726573733a206c6f772d6c6576656c2064656c65676174652063616c6c60405193611d1f8561310e565b602785528401527f206661696c65640000000000000000000000000000000000000000000000000060408401526134de565b50803880808080611ca7565b606090611cf1565b62461bcd60e51b8252600482018590526026908201527f416464726573733a2064656c65676174652063616c6c20746f206e6f6e2d636f6044820152651b9d1c9858dd60d21b6064820152608490fd5b506001611ca2565b8460296084926040519262461bcd60e51b845260048401528201527f45524331393637557067726164653a20756e737570706f727465642070726f786044820152681a58589b195555525160ba1b6064820152fd5b90918982813d8311611e3a575b611e298183613146565b81010312610c5a5750519038611bf8565b503d611e1f565b8680fd5b5034610c5a5780600319360112610c5a5760206001600160a01b036101055416604051908152f35b5034610c5a5760e0366003190112610c5a57611e8761307c565b60243580151581036107aa57604435906001600160a01b038216809203610c11576084356001600160a01b03811681036103df5760a4359267ffffffffffffffff8411610ac15736602385011215610ac1578360040135611ee7816131b0565b94611ef56040519687613146565b8186526024602087019260051b820101903682116104fe57602401915b81831061269d5750505067ffffffffffffffff60c43511610ac15736602360c435011215610ac15767ffffffffffffffff60c4356004013511610ac15736602460c4356004013560051b60c435010111610ac15785549260ff8460081c161593848095612690575b8015612679575b1561260e5760ff19808216600117895560ff91866125fd575b50611fad60c43560040135885114613522565b831515806125f2575b611fbf90613522565b611fd7828a5460081c16611fd281613744565b613744565b611fe033613304565b611ffc828a5460081c16611ff381613744565b611fd281613744565b600160c95560fb5416911515161760fb556001600160a01b03199061010981838254161790558160ff54161760ff5560643560fe556001600160a01b0382169061010d54161761010d558461204f61323a565b916120586131e4565b906001600160a01b0381163b156107aa5761209293836001600160a01b03604051809781968295630ef8cdc760e01b84526004840161356e565b0393165af180156103eb576125df575b50836001600160a01b0361010d54166120b9613273565b6120c16131e4565b823b15610c11576120eb92849283604051809681958294630ef8cdc760e01b84526004840161356e565b03925af180156107ae576125cb575b50506121053061456b565b61214b602061211261323a565b92604051938161212b8693518092868087019101613168565b820161213f82518093868085019101613168565b01038084520182613146565b80519067ffffffffffffffff82116124d257819061216b610107546130c0565b601f811161257b575b50602090601f83116001146124f15787926124e6575b50508160011b916000199060031b1c191617610107555b6121aa3061456b565b6121b76020612112613273565b80519067ffffffffffffffff82116124d25781906121d7610108546130c0565b601f8111612477575b50602090601f83116001146123ed5787926123e2575b50508160011b916000199060031b1c191617610108555b836001600160a01b0361010d5416803b156107b957816040518092632337c3c760e11b825260406004830152818381612248604482016135ad565b6003602483015203925af180156107ae576123ce575b506001600160a01b0361010d5416803b156107b957816040518092632337c3c760e11b82526040600483015281838161229960448201613664565b6003602483015203925af180156107ae576123ba575b505b8251811015612359576001600160a01b036122cc828561371a565b51169060c435600401358110156123455760248160051b60c43501013560421960c435360301811215611e415760c435019167ffffffffffffffff602484013511611e4157602483013536036044840113611e41576123409261059b916123316132ac565b60446024830135920190613ed0565b6122b1565b634e487b7160e01b86526032600452602486fd5b8482856123646132ac565b6001600160a01b03811615610c9a5761237c90613304565b6123835780f35b61ff001981541681557f7f26b83ff96e1f2b6a682f133852f6798a09c465da95921460cefb3847402498602060405160018152a180f35b6123c3906130fa565b610c115783386122af565b6123d7906130fa565b610c1157833861225e565b0151905038806121f6565b925061010887527f8543e9adbfbe1f62b7411fdf032fcfea758a7d6b332f64d971a1334c2ff364dd9087935b601f198416851061245c576001945083601f19811610612443575b505050811b016101085561220d565b015160001960f88460031b161c19169055388080612434565b81810151835560209485019460019093019290910190612419565b6124c2906101086000527f8543e9adbfbe1f62b7411fdf032fcfea758a7d6b332f64d971a1334c2ff364dd601f850160051c810191602086106124c8575b601f0160051c0190613596565b386121e0565b90915081906124b5565b634e487b7160e01b86526041600452602486fd5b01519050388061218a565b925061010787527f47c4908e245f386bfc1825973249847f4053a761ddb4880ad63c323a7b5a2a259087935b601f1984168510612560576001945083601f19811610612547575b505050811b01610107556121a1565b015160001960f88460031b161c19169055388080612538565b8181015183556020948501946001909301929091019061251d565b6125c5906101076000527f47c4908e245f386bfc1825973249847f4053a761ddb4880ad63c323a7b5a2a25601f850160051c810191602086106124c857601f0160051c0190613596565b38612174565b6125d4906130fa565b610c115783386120fa565b6125eb909491946130fa565b92386120a2565b506064351515611fb6565b61ffff191661010117895538611f9a565b60405162461bcd60e51b815260206004820152602e60248201527f496e697469616c697a61626c653a20636f6e747261637420697320616c72656160448201527f647920696e697469616c697a65640000000000000000000000000000000000006064820152608490fd5b50303b158015611f815750600160ff821614611f81565b50600160ff821610611f7a565b82356001600160a01b03811681036126bd57815260209283019201611f12565b8980fd5b5034610c5a576040366003190112610c5a57610c976126de613066565b600435613bf3565b5034610c5a576040366003190112610c5a576004356024803567ffffffffffffffff8111610c115761271c903690600401613092565b9060ff60fb54161580156129d5575b15612991579061273b9133613ed0565b600260c9541461294d57600260c9558115612909576001600160a01b039061010991808354169260405180946370a0823160e01b8252336004830152818560209788935afa80156128fe57869188916128cd575b501061288957859184913384526101038352604084206127b088825461396f565b90556127be8760fc5461396f565b60fc5554166064604051809481936323b872dd60e01b835233600484015230888401528960448401525af180156103eb578590612854575b6001915015150361281157600160c95583610c973385613a47565b9060176064926040519262461bcd60e51b845260048401528201527f6572726f725f756e7375636365737366756c5374616b650000000000000000006044820152fd5b508281813d8311612882575b61286a8183613146565b810103126103df5761287d60019161380f565b6127f6565b503d612860565b60405162461bcd60e51b8152600481018590526019818501527f6572726f725f696e73756666696369656e7442616c616e6365000000000000006044820152606490fd5b809250868092503d83116128f7575b6128e68183613146565b81010312611e41578590513861278f565b503d6128dc565b6040513d89823e3d90fd5b60649060176040519162461bcd60e51b8352602060048401528201527f6572726f725f696e73756666696369656e745374616b650000000000000000006044820152fd5b606490601f6040519162461bcd60e51b8352602060048401528201527f5265656e7472616e637947756172643a207265656e7472616e742063616c6c006044820152fd5b60405162461bcd60e51b8152602060048201526011818501527f6572726f725f6e6f74417070726f7665640000000000000000000000000000006044820152606490fd5b5033855261010260205260ff60408620541660038110156129f85760011461272b565b634e487b7160e01b865260216004528386fd5b5034610c5a576020806003193601126107b957612a2661307c565b906001600160a01b03807f000000000000000000000000000000000000000000000000000000000000000016612a5e8130141561334c565b612a8d7f360894a13ba1a3210667c828492db98dca3e2076cc3735a920a3ca505d382bbc9183835416146133be565b612a956132ac565b604051908382019282841067ffffffffffffffff851117612d1a578360405286835260ff7f4910fdfa16fed3260ed0e7147f7cc6da11a60208b5b9406d12a635614ffd91435416600014612af1575050505050610c9790613430565b8596949516906040516352d1902d60e01b81528681600481865afa869181612ceb575b50612b755760405162461bcd60e51b815260048101889052602e60248201527f45524331393637557067726164653a206e657720696d706c656d656e7461746960448201526d6f6e206973206e6f74205555505360901b6064820152608490fd5b95949503612c9457612b8686613430565b604051907fbc7cd75a20ee27fd9adebab32041f755214dbc6bffa90cc0225b39da2e5c2d3b8680a2815115801590612c8d575b612bc7575b50505050905080f35b853b15612c3c57509280948192612c319551915af43d15611d5d573d90612bed826131c8565b91612bfb6040519384613146565b82523d858484013e7f416464726573733a206c6f772d6c6576656c2064656c65676174652063616c6c60405193611d1f8561310e565b508038808080612bbe565b62461bcd60e51b815260048101849052602660248201527f416464726573733a2064656c65676174652063616c6c20746f206e6f6e2d636f6044820152651b9d1c9858dd60d21b6064820152608490fd5b5084612bb9565b60405162461bcd60e51b815260048101859052602960248201527f45524331393637557067726164653a20756e737570706f727465642070726f786044820152681a58589b195555525160ba1b6064820152608490fd5b9091508781813d8311612d13575b612d038183613146565b81010312611e4157519038612b14565b503d612cf9565b634e487b7160e01b87526041600452602487fd5b5034610c5a576020366003190112610c5a57610c97600435613dd7565b5034610c5a576020366003190112610c5a576001600160a01b03612d6d61307c565b612d756132ac565b1680825261010260205260408220805460ff191660021790557fbbe2a784aa6240d8175fa65a8459058efd8f44c5ab66caa2525fe9d6342108788280a280f35b5034610c5a576020366003190112610c5a576004358015158091036107b957612ddc6132ac565b60ff1960fb541660ff82161760fb557f7623db9c426686f05cec977c4cadb8ff9657502540ca665ae347731114dac69d8280a280f35b5034610c5a576020366003190112610c5a57610c97612e2f61307c565b612e376132ac565b612e3f6132ac565b6001600160a01b03811680845261010260205260408420805460ff191660021790557fbbe2a784aa6240d8175fa65a8459058efd8f44c5ab66caa2525fe9d6342108788480a261148a6132ac565b5034610c5a5760209081600319360112610c5a576001600160a01b0380612eb261307c565b168252610101835260408220918254928460018083019360405194859282825492612edc846130c0565b80875293838116908115612f8d5750600114612f50575b50505050612f0392500383613146565b600281015492612f37600582600385015416926004850154169301549360c0604051988998895288015260c087019061318b565b9360408601526060850152608084015260a08301520390f35b815285812095935091905b818310612f75575089945050820101612f03388080612ef3565b85548884018501529485019487945091830191612f5b565b9350505050612f0394925060ff191682840152151560051b8201018792388080612ef3565b5034610c5a5780600319360112610c5a57602060fc54604051908152f35b5034610c5a576040366003190112610c5a57612fea61307c565b6024359067ffffffffffffffff82116107aa5761300e610c97923690600401613092565b916130176132ac565b613ed0565b5034610c5a576040366003190112610c5a57610c97613039613066565b600435613a47565b9050346107b957816003193601126107b9576020906001600160a01b0360ff54168152f35b602435906001600160a01b038216820361000f57565b600435906001600160a01b038216820361000f57565b9181601f8401121561000f5782359167ffffffffffffffff831161000f576020838186019501011161000f57565b90600182811c921680156130f0575b60208310146130da57565b634e487b7160e01b600052602260045260246000fd5b91607f16916130cf565b67ffffffffffffffff8111610bfb57604052565b6060810190811067ffffffffffffffff821117610bfb57604052565b6040810190811067ffffffffffffffff821117610bfb57604052565b90601f8019910116810190811067ffffffffffffffff821117610bfb57604052565b60005b83811061317b5750506000910152565b818101518382015260200161316b565b906020916131a481518092818552858086019101613168565b601f01601f1916010190565b67ffffffffffffffff8111610bfb5760051b60200190565b67ffffffffffffffff8111610bfb57601f01601f191660200190565b604051906131f18261312a565b601382527f7b2022706172746974696f6e73223a2031207d000000000000000000000000006020830152565b503461000f57600036600319011261000f576113bf6113ab6131e4565b604051906132478261312a565b601082527f2f6c6f6773746f72652d73797374656d000000000000000000000000000000006020830152565b604051906132808261312a565b600f82527f2f6c6f6773746f72652d717565727900000000000000000000000000000000006020830152565b6001600160a01b036097541633036132c057565b606460405162461bcd60e51b815260206004820152602060248201527f4f776e61626c653a2063616c6c6572206973206e6f7420746865206f776e65726044820152fd5b609754906001600160a01b0380911691826001600160a01b0319821617609755167f8be0079c531659141344cd1fd0a4f28419497f9722a3daafe3b4186f6b6457e0600080a3565b1561335357565b60405162461bcd60e51b815260206004820152602c60248201527f46756e6374696f6e206d7573742062652063616c6c6564207468726f7567682060448201527f64656c656761746563616c6c00000000000000000000000000000000000000006064820152608490fd5b156133c557565b60405162461bcd60e51b815260206004820152602c60248201527f46756e6374696f6e206d7573742062652063616c6c6564207468726f7567682060448201527f6163746976652070726f787900000000000000000000000000000000000000006064820152608490fd5b803b15613473576001600160a01b037f360894a13ba1a3210667c828492db98dca3e2076cc3735a920a3ca505d382bbc91166001600160a01b0319825416179055565b60405162461bcd60e51b815260206004820152602d60248201527f455243313936373a206e657720696d706c656d656e746174696f6e206973206e60448201527f6f74206120636f6e7472616374000000000000000000000000000000000000006064820152608490fd5b909190156134ea575090565b8151156134fa5750805190602001fd5b60405162461bcd60e51b81526020600482015290819061351e90602483019061318b565b0390fd5b1561352957565b60405162461bcd60e51b815260206004820152601460248201527f6572726f725f626164547261636b6572446174610000000000000000000000006044820152606490fd5b90916135856135939360408452604084019061318b565b91602081840391015261318b565b90565b8181106135a1575050565b60008155600101613596565b906000916101079081546135c0816130c0565b8083529260019180831690811561363f57506001146135e0575b50505050565b90929394506000527f47c4908e245f386bfc1825973249847f4053a761ddb4880ad63c323a7b5a2a25916000925b84841061362757505060209250010190388080806135da565b8054602085850181019190915290930192810161360e565b92505050602093945060ff929192191683830152151560051b010190388080806135da565b90600091610108908154613677816130c0565b8083529260019180831690811561363f57506001146136965750505050565b90929394506000527f8543e9adbfbe1f62b7411fdf032fcfea758a7d6b332f64d971a1334c2ff364dd916000925b8484106136dd57505060209250010190388080806135da565b805460208585018101919091529093019281016136c4565b60001981146137045760010190565b634e487b7160e01b600052601160045260246000fd5b805182101561372e5760209160051b010190565b634e487b7160e01b600052603260045260246000fd5b1561374b57565b60405162461bcd60e51b815260206004820152602b60248201527f496e697469616c697a61626c653a20636f6e7472616374206973206e6f74206960448201527f6e697469616c697a696e670000000000000000000000000000000000000000006064820152608490fd5b156137bd57565b60405162461bcd60e51b815260206004820152601460248201527f6572726f725f6e6f74456e6f7567685374616b650000000000000000000000006044820152606490fd5b9190820391821161370457565b5190811515820361000f57565b1561382357565b60405162461bcd60e51b815260206004820152601a60248201527f6572726f725f756e7375636365737366756c57697468647261770000000000006044820152606490fd5b81601f8201121561000f57805161387e816131c8565b9261388c6040519485613146565b8184526020828401011161000f576135939160208085019101613168565b51906001600160a01b038216820361000f57565b81601f8201121561000f578051906138d5826131b0565b926040926138e584519586613146565b808552602091828087019260061b8501019381851161000f578301915b8483106139125750505050505090565b858383031261000f5783869182516139298161312a565b613932866138aa565b81528286015183820152815201920191613902565b90918060409360208452816020850152848401376000828201840152601f01601f1916010190565b9190820180921161370457565b9190916000838201938412911290801582169115161761370457565b1561399f57565b606460405162461bcd60e51b815260206004820152602060248201527f6572726f725f696e73756666696369656e7444656c6567617465416d6f756e746044820152fd5b156139ea57565b60405162461bcd60e51b815260206004820152601160248201527f6572726f725f696e76616c69644e6f64650000000000000000000000000000006044820152606490fd5b805482101561372e5760005260206000200190600090565b9190613a54831515613998565b6001600160a01b03811690600093828552610101602092818452604092613a826002858a20015415156139e3565b3388526101038552838820613a98828254613802565b905533885261010485528388208689528552838820613ab882825461396f565b9055858852828552613ad16005858a200191825461396f565b9055848752818452600783882001338852845260ff838820541615613b32575b7fcf939c6aa5e54a02f6433632298ef92d8600b2e56030790abb22fb9b3ab25d7e949596600592613b22859361439a565b87825285522001549051908152a2565b84875281845260068388200180549068010000000000000000821015613bdf5792613b228593613bb3613b918560059860017fcf939c6aa5e54a02f6433632298ef92d8600b2e56030790abb22fb9b3ab25d7e9d9e9f98018155613a2f565b81546001600160a01b0360039290921b91821b80199091163390921b16179055565b8984528288528484203385526007018852938320805460ff191660011790555090979695509150613af1565b634e487b7160e01b89526041600452602489fd5b919091613c01811515613998565b6001600160a01b038084169160009483865261010190602093828552604093613c316002868b20015415156139e3565b3389526101048652848920878a528652848920613c4f828254613802565b90558689528386526005858a2001613c68828254613802565b90553389526101038652613c80858a2091825461396f565b905587868952838652600680868b2001548a805b828110613d98575b5089905250848752858a20810180546000199391848201918211613d845785613ce3613d0e948f8c8f95918f97613cd58f918c95613a2f565b999054988352522001613a2f565b92909360031b1c169082549060031b916001600160a01b039283811b93849216901b16911916179055565b878a52848752858a20019081548015613d7057937fcf939c6aa5e54a02f6433632298ef92d8600b2e56030790abb22fb9b3ab25d7e98999a9360059693613b229389970191613d5d8383613a2f565b909182549160031b1b191690555561439a565b634e487b7160e01b8b52603160045260248bfd5b634e487b7160e01b8d52601160045260248dfd5b8a8252878a5285613dad82868c862001613a2f565b90549060031b1c163314613dc957613dc4906136f5565b613c94565b929350505090388a81613c9c565b600033815280610103613e616020948286938452613dfb60408620548311156137b6565b338552835260408420613e0f828254613802565b9055613e1d8160fc54613802565b60fc556001600160a01b0361010954169060405195868094819363a9059cbb60e01b83523360048401602090939291936001600160a01b0360408201951681520152565b03925af1928315613ec3578193613e86575b5050506001613e849115151461381c565b565b9091809350813d8311613ebc575b613e9e8183613146565b81010312610c5a57506001613eb5613e849261380f565b9138613e73565b503d613e94565b50604051903d90823e3d90fd5b6001600160a01b038091169160009083825260209061010182526040832093839660028601918254156140f2575b5060018096019267ffffffffffffffff82116124d2578190613f2085546130c0565b601f81116140c4575b508690601f831160011461406557879261405a575b5050600019600383901b1c191690861b1782555b429055604051936040855283825492613f6a846130c0565b9384604089015283811690816000146140105750600114613fb9575b505050509180917f7b8ea65757bf0d882563917834f76c4df069ea7e489c9fc65bf764289792e3349342908301520390a3565b9080949550528383205b828410613ffc57505050820160600190807f7b8ea65757bf0d882563917834f76c4df069ea7e489c9fc65bf764289792e3348438613f86565b805486850160600152928401928101613fc3565b915050869550606092507f7b8ea65757bf0d882563917834f76c4df069ea7e489c9fc65bf764289792e334969493915060ff191682850152151560051b8301019293819238613f86565b013590503880613f3e565b85885286882089945091601f198416895b898282106140ae5750508411614094575b505050811b018255613f52565b0135600019600384901b60f8161c19169055388080614087565b8385013586558c97909501949283019201614076565b6140ec90868952878920601f850160051c8101918986106124c857601f0160051c0190613596565b38613f29565b97506001976101059080825416156000146141575750876001600160a01b03198254161790555b610106876001600160a01b0319825416179055610100805490898201809211614143575538613efe565b634e487b7160e01b87526011600452602487fd5b90506101069080825416875260036040882001916001600160a01b0319928a8482541617905554166004880191825416179055610100548655614119565b8015613704576000190190565b6001600160a01b038091169060009082825261010160209080825260409081852092600284015415614357578686528181528286209386855585600191888388016141ed81546130c0565b8061431b575b5050600288015560066003978a898201558a60048201558a60058201550180548a825580614302575b5050600481018a8884835416930192848454168c528787526004898d20016001600160a01b03199182825416179055610105805483878216146142f1575b50508461010693845493828516146142e0575b50505050509082915416905b6142ab575b50505050505050807fcfc24166db4bb677e857cacabd1541fb2b30645021b27c5130419589b84db52b91a2565b861680156142db578088528383528488206142c68154614195565b90558752828252858585892001541681614279565b61427e565b54169116179055388080848161426d565b82878754169116179055388061425a565b614314918b52858b2090810190613596565b388061421c565b601f81116001146143315750555b8838806141f3565b81835286832061434b91601f0160051c8101908701613596565b81868120915555614329565b60649083519062461bcd60e51b82526004820152600e60248201527f6572726f725f6e6f74466f756e640000000000000000000000000000000000006044820152fd5b9060006001600160a01b038093168082526101016020526040906005828420015460fe5411156000146144a45761010d948086541695863b156103df5783518581634cbf455560e11b998a8252606060048301528183816143fd606482016135ad565b8a60248301526002604483015203925af1801561449a57908691614486575b5050541694853b15610c1157908394958492845195868094819382526060600483015261444b60648301613664565b9060248301526002604483015203925af190811561447d575061446c575050565b61447682916130fa565b610c5a5750565b513d84823e3d90fd5b61448f906130fa565b6103df57843861441c565b85513d88823e3d90fd5b61010d948086541695863b156103df5783518581631f1cbd7560e11b998a8252606060048301528183816144da606482016135ad565b8a60248301526002604483015203925af1801561449a57614524575b50541694853b15610c1157908394958492845195868094819382526060600483015261444b60648301613664565b614530909591956130fa565b93386144f6565b60fe54801515918261454857505090565b6001600160a01b0391925016600052610101602052600560406000200154101590565b6001600160a01b0316604051906145818261310e565b602a8252602090818301604036823783511561372e5760309053825160019081101561372e57607860218501536029905b8082116146065750506145c3575090565b6064906040519062461bcd60e51b825280600483015260248201527f537472696e67733a20686578206c656e67746820696e73756666696369656e746044820152fd5b9091600f811690601082101561465a57855184101561465a577f3031323334353637383961626364656600000000000000000000000000000000614654921a85858801015360041c92614195565b906145b2565b60246000634e487b7160e01b81526032600452fdfea2646970667358221220315186fa17680baf7efda3e4bc820ed3c648ec96ee0542b276af5d0173ade37364736f6c63430008110033",
  "linkReferences": {},
  "deployedLinkReferences": {}
}