{
  "_format": "hh-sol-artifact-1",
  "contractName": "LogStoreNodeManager",
  "sourceName": "src/NodeManager.sol",
  "abi": [
    {
      "anonymous": false,
      "inputs": [
        {
          "indexed": false,
          "internalType": "address",
          "name": "previousAdmin",
          "type": "address"
        },
        {
          "indexed": false,
          "internalType": "address",
          "name": "newAdmin",
          "type": "address"
        }
      ],
      "name": "AdminChanged",
      "type": "event"
    },
    {
      "anonymous": false,
      "inputs": [
        {
          "indexed": true,
          "internalType": "address",
          "name": "beacon",
          "type": "address"
        }
      ],
      "name": "BeaconUpgraded",
      "type": "event"
    },
    {
      "anonymous": false,
      "inputs": [
        {
          "indexed": false,
          "internalType": "uint8",
          "name": "version",
          "type": "uint8"
        }
      ],
      "name": "Initialized",
      "type": "event"
    },
    {
      "anonymous": false,
      "inputs": [
        {
          "indexed": true,
          "internalType": "address",
          "name": "nodeAddress",
          "type": "address"
        }
      ],
      "name": "NodeRemoved",
      "type": "event"
    },
    {
      "anonymous": false,
      "inputs": [
        {
          "indexed": true,
          "internalType": "address",
          "name": "nodeAddress",
          "type": "address"
        },
        {
          "indexed": false,
          "internalType": "uint256",
          "name": "stake",
          "type": "uint256"
        }
      ],
      "name": "NodeStakeUpdated",
      "type": "event"
    },
    {
      "anonymous": false,
      "inputs": [
        {
          "indexed": true,
          "internalType": "address",
          "name": "nodeAddress",
          "type": "address"
        },
        {
          "indexed": false,
          "internalType": "string",
          "name": "metadata",
          "type": "string"
        },
        {
          "indexed": true,
          "internalType": "uint256",
          "name": "isNew",
          "type": "uint256"
        },
        {
          "indexed": false,
          "internalType": "uint256",
          "name": "lastSeen",
          "type": "uint256"
        }
      ],
      "name": "NodeUpdated",
      "type": "event"
    },
    {
      "anonymous": false,
      "inputs": [
        {
          "indexed": true,
          "internalType": "address",
          "name": "nodeAddress",
          "type": "address"
        }
      ],
      "name": "NodeWhitelistApproved",
      "type": "event"
    },
    {
      "anonymous": false,
      "inputs": [
        {
          "indexed": true,
          "internalType": "address",
          "name": "nodeAddress",
          "type": "address"
        }
      ],
      "name": "NodeWhitelistRejected",
      "type": "event"
    },
    {
      "anonymous": false,
      "inputs": [
        {
          "indexed": true,
          "internalType": "address",
          "name": "previousOwner",
          "type": "address"
        },
        {
          "indexed": true,
          "internalType": "address",
          "name": "newOwner",
          "type": "address"
        }
      ],
      "name": "OwnershipTransferred",
      "type": "event"
    },
    {
      "anonymous": false,
      "inputs": [
        {
          "indexed": false,
          "internalType": "string",
          "name": "id",
          "type": "string"
        }
      ],
      "name": "ReportProcessed",
      "type": "event"
    },
    {
      "anonymous": false,
      "inputs": [
        {
          "indexed": true,
          "internalType": "bool",
          "name": "value",
          "type": "bool"
        }
      ],
      "name": "RequiresWhitelistChanged",
      "type": "event"
    },
    {
      "anonymous": false,
      "inputs": [
        {
          "indexed": true,
          "internalType": "address",
          "name": "implementation",
          "type": "address"
        }
      ],
      "name": "Upgraded",
      "type": "event"
    },
    {
      "inputs": [],
      "name": "LOGSTORE_SYSTEM_STREAM_ID_PATH",
      "outputs": [
        {
          "internalType": "string",
          "name": "",
          "type": "string"
        }
      ],
      "stateMutability": "view",
      "type": "function"
    },
    {
      "inputs": [],
      "name": "LOGSTORE_SYSTEM_STREAM_METADATA_JSON_STRING",
      "outputs": [
        {
          "internalType": "string",
          "name": "",
          "type": "string"
        }
      ],
      "stateMutability": "view",
      "type": "function"
    },
    {
      "inputs": [
        {
          "internalType": "address",
          "name": "",
          "type": "address"
        }
      ],
      "name": "balanceOf",
      "outputs": [
        {
          "internalType": "uint256",
          "name": "",
          "type": "uint256"
        }
      ],
      "stateMutability": "view",
      "type": "function"
    },
    {
      "inputs": [],
      "name": "countNodes",
      "outputs": [
        {
          "internalType": "uint256",
          "name": "",
          "type": "uint256"
        }
      ],
      "stateMutability": "view",
      "type": "function"
    },
    {
      "inputs": [
        {
          "internalType": "uint256",
          "name": "amount",
          "type": "uint256"
        },
        {
          "internalType": "address",
          "name": "node",
          "type": "address"
        }
      ],
      "name": "delegate",
      "outputs": [],
      "stateMutability": "nonpayable",
      "type": "function"
    },
    {
      "inputs": [
        {
          "internalType": "address",
          "name": "",
          "type": "address"
        },
        {
          "internalType": "address",
          "name": "",
          "type": "address"
        }
      ],
      "name": "delegatesOf",
      "outputs": [
        {
          "internalType": "uint256",
          "name": "",
          "type": "uint256"
        }
      ],
      "stateMutability": "view",
      "type": "function"
    },
    {
      "inputs": [],
      "name": "headNode",
      "outputs": [
        {
          "internalType": "address",
          "name": "",
          "type": "address"
        }
      ],
      "stateMutability": "view",
      "type": "function"
    },
    {
      "inputs": [
        {
          "internalType": "address",
          "name": "owner_",
          "type": "address"
        },
        {
          "internalType": "bool",
          "name": "requiresWhitelist_",
          "type": "bool"
        },
        {
          "internalType": "address",
          "name": "stakeTokenAddress_",
          "type": "address"
        },
        {
          "internalType": "uint256",
          "name": "stakeRequiredAmount_",
          "type": "uint256"
        },
        {
          "internalType": "address",
          "name": "streamrRegistryAddress_",
          "type": "address"
        },
        {
          "internalType": "address[]",
          "name": "initialNodes",
          "type": "address[]"
        },
        {
          "internalType": "string[]",
          "name": "initialMetadata",
          "type": "string[]"
        }
      ],
      "name": "initialize",
      "outputs": [],
      "stateMutability": "nonpayable",
      "type": "function"
    },
    {
      "inputs": [
        {
          "internalType": "address",
          "name": "node",
          "type": "address"
        }
      ],
      "name": "isStaked",
      "outputs": [
        {
          "internalType": "bool",
          "name": "",
          "type": "bool"
        }
      ],
      "stateMutability": "view",
      "type": "function"
    },
    {
      "inputs": [
        {
          "internalType": "uint256",
          "name": "amount",
          "type": "uint256"
        },
        {
          "internalType": "string",
          "name": "metadata_",
          "type": "string"
        }
      ],
      "name": "join",
      "outputs": [],
      "stateMutability": "nonpayable",
      "type": "function"
    },
    {
      "inputs": [
        {
          "internalType": "address",
          "name": "nodeAddress",
          "type": "address"
        }
      ],
      "name": "kickNode",
      "outputs": [],
      "stateMutability": "nonpayable",
      "type": "function"
    },
    {
      "inputs": [],
      "name": "leave",
      "outputs": [],
      "stateMutability": "nonpayable",
      "type": "function"
    },
    {
      "inputs": [],
      "name": "nodeAddresses",
      "outputs": [
        {
          "internalType": "address[]",
          "name": "resultAddresses",
          "type": "address[]"
        }
      ],
      "stateMutability": "view",
      "type": "function"
    },
    {
      "inputs": [
        {
          "internalType": "address",
          "name": "node",
          "type": "address"
        }
      ],
      "name": "nodeStake",
      "outputs": [
        {
          "internalType": "uint256",
          "name": "",
          "type": "uint256"
        }
      ],
      "stateMutability": "view",
      "type": "function"
    },
    {
      "inputs": [
        {
          "internalType": "address",
          "name": "",
          "type": "address"
        }
      ],
      "name": "nodes",
      "outputs": [
        {
          "internalType": "uint256",
          "name": "index",
          "type": "uint256"
        },
        {
          "internalType": "string",
          "name": "metadata",
          "type": "string"
        },
        {
          "internalType": "uint256",
          "name": "lastSeen",
          "type": "uint256"
        },
        {
          "internalType": "address",
          "name": "next",
          "type": "address"
        },
        {
          "internalType": "address",
          "name": "prev",
          "type": "address"
        },
        {
          "internalType": "uint256",
          "name": "stake",
          "type": "uint256"
        }
      ],
      "stateMutability": "view",
      "type": "function"
    },
    {
      "inputs": [],
      "name": "owner",
      "outputs": [
        {
          "internalType": "address",
          "name": "",
          "type": "address"
        }
      ],
      "stateMutability": "view",
      "type": "function"
    },
    {
      "inputs": [
        {
          "internalType": "string",
          "name": "id",
          "type": "string"
        }
      ],
      "name": "processReport",
      "outputs": [],
      "stateMutability": "nonpayable",
      "type": "function"
    },
    {
      "inputs": [],
      "name": "proxiableUUID",
      "outputs": [
        {
          "internalType": "bytes32",
          "name": "",
          "type": "bytes32"
        }
      ],
      "stateMutability": "view",
      "type": "function"
    },
    {
      "inputs": [
        {
          "internalType": "address",
          "name": "contractAddress",
          "type": "address"
        }
      ],
      "name": "registerQueryManager",
      "outputs": [],
      "stateMutability": "nonpayable",
      "type": "function"
    },
    {
      "inputs": [
        {
          "internalType": "address",
          "name": "contractAddress",
          "type": "address"
        }
      ],
      "name": "registerReportManager",
      "outputs": [],
      "stateMutability": "nonpayable",
      "type": "function"
    },
    {
      "inputs": [
        {
          "internalType": "address",
          "name": "contractAddress",
          "type": "address"
        }
      ],
      "name": "registerStoreManager",
      "outputs": [],
      "stateMutability": "nonpayable",
      "type": "function"
    },
    {
      "inputs": [],
      "name": "removeNode",
      "outputs": [],
      "stateMutability": "nonpayable",
      "type": "function"
    },
    {
      "inputs": [
        {
          "internalType": "address",
          "name": "nodeAddress",
          "type": "address"
        }
      ],
      "name": "removeNodeAdmin",
      "outputs": [],
      "stateMutability": "nonpayable",
      "type": "function"
    },
    {
      "inputs": [],
      "name": "renounceOwnership",
      "outputs": [],
      "stateMutability": "nonpayable",
      "type": "function"
    },
    {
      "inputs": [],
      "name": "requiresWhitelist",
      "outputs": [
        {
          "internalType": "bool",
          "name": "",
          "type": "bool"
        }
      ],
      "stateMutability": "view",
      "type": "function"
    },
    {
      "inputs": [
        {
          "internalType": "bool",
          "name": "value",
          "type": "bool"
        }
      ],
      "name": "setRequiresWhitelist",
      "outputs": [],
      "stateMutability": "nonpayable",
      "type": "function"
    },
    {
      "inputs": [
        {
          "internalType": "uint256",
          "name": "amount",
          "type": "uint256"
        }
      ],
      "name": "stake",
      "outputs": [],
      "stateMutability": "nonpayable",
      "type": "function"
    },
    {
      "inputs": [
        {
          "internalType": "uint256",
          "name": "amount",
          "type": "uint256"
        },
        {
          "internalType": "address",
          "name": "node",
          "type": "address"
        }
      ],
      "name": "stakeAndDelegate",
      "outputs": [],
      "stateMutability": "nonpayable",
      "type": "function"
    },
    {
      "inputs": [],
      "name": "stakeRequiredAmount",
      "outputs": [
        {
          "internalType": "uint256",
          "name": "",
          "type": "uint256"
        }
      ],
      "stateMutability": "view",
      "type": "function"
    },
    {
      "inputs": [],
      "name": "stakeTokenAddress",
      "outputs": [
        {
          "internalType": "address",
          "name": "",
          "type": "address"
        }
      ],
      "stateMutability": "view",
      "type": "function"
    },
    {
      "inputs": [],
      "name": "tailNode",
      "outputs": [
        {
          "internalType": "address",
          "name": "",
          "type": "address"
        }
      ],
      "stateMutability": "view",
      "type": "function"
    },
    {
      "inputs": [],
      "name": "totalNodes",
      "outputs": [
        {
          "internalType": "uint256",
          "name": "",
          "type": "uint256"
        }
      ],
      "stateMutability": "view",
      "type": "function"
    },
    {
      "inputs": [],
      "name": "totalSupply",
      "outputs": [
        {
          "internalType": "uint256",
          "name": "",
          "type": "uint256"
        }
      ],
      "stateMutability": "view",
      "type": "function"
    },
    {
      "inputs": [
        {
          "internalType": "address",
          "name": "newOwner",
          "type": "address"
        }
      ],
      "name": "transferOwnership",
      "outputs": [],
      "stateMutability": "nonpayable",
      "type": "function"
    },
    {
      "inputs": [],
      "name": "treasurySupply",
      "outputs": [
        {
          "internalType": "uint256",
          "name": "",
          "type": "uint256"
        }
      ],
      "stateMutability": "view",
      "type": "function"
    },
    {
      "inputs": [
        {
          "internalType": "uint256",
          "name": "amount",
          "type": "uint256"
        }
      ],
      "name": "treasuryWithdraw",
      "outputs": [],
      "stateMutability": "nonpayable",
      "type": "function"
    },
    {
      "inputs": [
        {
          "internalType": "uint256",
          "name": "amount",
          "type": "uint256"
        },
        {
          "internalType": "address",
          "name": "node",
          "type": "address"
        }
      ],
      "name": "undelegate",
      "outputs": [],
      "stateMutability": "nonpayable",
      "type": "function"
    },
    {
      "inputs": [
        {
          "internalType": "uint256",
          "name": "amount",
          "type": "uint256"
        },
        {
          "internalType": "address",
          "name": "node",
          "type": "address"
        }
      ],
      "name": "undelegateWithdraw",
      "outputs": [],
      "stateMutability": "nonpayable",
      "type": "function"
    },
    {
      "inputs": [
        {
          "internalType": "address",
          "name": "newImplementation",
          "type": "address"
        }
      ],
      "name": "upgradeTo",
      "outputs": [],
      "stateMutability": "nonpayable",
      "type": "function"
    },
    {
      "inputs": [
        {
          "internalType": "address",
          "name": "newImplementation",
          "type": "address"
        },
        {
          "internalType": "bytes",
          "name": "data",
          "type": "bytes"
        }
      ],
      "name": "upgradeToAndCall",
      "outputs": [],
      "stateMutability": "payable",
      "type": "function"
    },
    {
      "inputs": [
        {
          "internalType": "string",
          "name": "metadata_",
          "type": "string"
        }
      ],
      "name": "upsertNode",
      "outputs": [],
      "stateMutability": "nonpayable",
      "type": "function"
    },
    {
      "inputs": [
        {
          "internalType": "address",
          "name": "node",
          "type": "address"
        },
        {
          "internalType": "string",
          "name": "metadata_",
          "type": "string"
        }
      ],
      "name": "upsertNodeAdmin",
      "outputs": [],
      "stateMutability": "nonpayable",
      "type": "function"
    },
    {
      "inputs": [
        {
          "internalType": "address",
          "name": "",
          "type": "address"
        }
      ],
      "name": "whitelist",
      "outputs": [
        {
          "internalType": "enum LogStoreNodeManager.WhitelistState",
          "name": "",
          "type": "uint8"
        }
      ],
      "stateMutability": "view",
      "type": "function"
    },
    {
      "inputs": [
        {
          "internalType": "address",
          "name": "nodeAddress",
          "type": "address"
        }
      ],
      "name": "whitelistApproveNode",
      "outputs": [],
      "stateMutability": "nonpayable",
      "type": "function"
    },
    {
      "inputs": [
        {
          "internalType": "address",
          "name": "nodeAddress",
          "type": "address"
        }
      ],
      "name": "whitelistRejectNode",
      "outputs": [],
      "stateMutability": "nonpayable",
      "type": "function"
    },
    {
      "inputs": [
        {
          "internalType": "uint256",
          "name": "amount",
          "type": "uint256"
        }
      ],
      "name": "withdraw",
      "outputs": [],
      "stateMutability": "nonpayable",
      "type": "function"
    }
  ],
  "bytecode": "0x60a0806040523461003157306080526142b0908161003782396080518181816119c001528181611af901526129330152f35b600080fdfe608080604052600436101561001357600080fd5b600090813560e01c9081630106395f14612f425750806308bbb82414612f1d5780631204c48614612ed157806318160ddd14612eb3578063189a5a1714612d8e5780631ad603d014612d1357806320a59a0314612cb65780632af5758014612c4c5780632e1a7d4d14612c2f5780633659cfe61461290c5780633cfb3d8a146125e757806345e863e0146125c25780634632974314611e4c57806346c198f614611e245780634830563414611e085780634f1ef28614611a7b57806352d1902d146119a55780635888799c1461193b5780635fc1a4b81461191d5780636177fd18146118ef578063652671391461180157806370a08231146117c8578063715018a61461176c578063735e6c7a146114f057806375ed25dc146114af57806379e574cb1461146e5780638ce15586146114445780638da5cb5b1461141d5780639592d424146113fe5780639b19251a146113a2578063a5ee5b411461137f578063a694fc3a14611118578063a7cc5405146110e4578063abad29a814611093578063b2a52fef14610fc8578063bfdf086614610fa0578063c10b522214610ea3578063cd23d26814610e67578063d0d3f5ba14610e4d578063d5c7096614610e2f578063d66d9e1914610ddc578063e04b0f1814610d5d578063e7b5895314610d2f578063e8d88aba14610cee578063f2fde38b14610c465763f6883c051461021b57600080fd5b34610c43576020366003190112610c435760043567ffffffffffffffff81116107a25761024c903690600401612f98565b9061025633614246565b15610bfe5761010b926001600160a01b03845416918160405180946312e63d7160e01b8252818061028b89876004840161372b565b03915afa9283156107975782936107f5575b506101008301516107b057815b606080850190815180518410156103df576102c784604092613511565b5101516102df575b50506102da906134ec565b6102aa565b60206103436001600160a01b0361010954166102fc868651613511565b5151888461030b898951613511565b51015195604061031c8a8a51613511565b5101519660405197889687958694639ac0e98b60e01b865260048601526064850190613091565b916024840152604483015203925af180156103d457610388575b5090602061036f826102da9451613511565b51015161037f60fc918254613753565b905590386102cf565b6020813d6020116103cc575b816103a16020938361304c565b810103126103c85761036f836102da94936103bd6020946135f0565b50935093505061035d565b8480fd5b3d9150610394565b6040513d87823e3d90fd5b505050508490825b60c08501805180518310156104eb5761040283604092613511565b510151610419575b50610414906134ec565b6103e7565b6001600160a01b0361010a54166001600160a01b03610439848451613511565b5151166020610449858551613511565b51015190604061045a868651613511565b51015192803b156104e757889291836064926040519687958694631ee2efa360e31b86526004860152602485015260448401525af180156104dc579086916104c8575b50509060206104b0826104149451613511565b5101516104c060fc918254613753565b90559061040a565b6104d190613000565b6103c857848861049d565b6040513d88823e3d90fd5b8880fd5b5050509390825b60808501805180518310156105af576001600160a01b0361057c848094836105206105899861058497613511565b5151168a526101018060205260406105508c60059283912001546020610547878751613511565b51015190613760565b918c8084131561058e575086610567868651613511565b5151168d5260205260408c2001555b51613511565b51511661417e565b6134ec565b6104f2565b92508661059c868651613511565b5151168352602052604082200155610576565b85808987878b5b60a08101938451518710156106e357855b60206105d4898851613511565b510151518110156106cb578088602061061a83826106076001600160a01b0361060f610691998f6106078a879251613511565b510151613511565b515116958d51613511565b510151906001600160a01b036106318c8b51613511565b5151168a52610657610104928360205260408c2083600052602052604060002054613760565b918a831315610696576001600160a01b036106738d8c51613511565b5151168b5260205260408a20906000526020526040600020556134ec565b6105c7565b9091506001600160a01b036106ac8c8b51613511565b5151168a526020526040892090600052602052876040600020556134ec565b509291956106da9194506134ec565b949091926105b6565b935084916107016001600160a01b0392604060fd5491015190613760565b838113156107a65760fd555b5416803b156107a25781604051809263f6883c0560e01b8252818381610737898b6004840161372b565b03925af180156107975761077f575b50507fbcd21d99bbf55769881dda49c45043a8750d2229c330cdddd4718575f7236402916107796040519283928361372b565b0390a180f35b61078890613000565b610793578284610746565b8280fd5b6040513d84823e3d90fd5b5080fd5b508260fd5561070d565b60405162461bcd60e51b815260206004820152601c60248201527f6572726f725f7265706f7274416c726561647950726f636573736564000000006044820152606490fd5b9092503d908183823e610808828261304c565b60208183810103126107935780519067ffffffffffffffff8211610bfa57610120928383830182840103126103c85760405193840184811067ffffffffffffffff821117610be4576040528282015167ffffffffffffffff8111610aaa57610877908284019085850101613649565b845281830160208181015190860152604080820151908601526060015167ffffffffffffffff8111610aaa57818301601f8286860101011215610aaa57808484010151906108c4826130b6565b916108d2604051938461304c565b808352602083019184860160208360051b838a8a01010101116104e7576020818888010101925b60208360051b838a8a010101018410610b4b575050505060608501526080838301015167ffffffffffffffff8111610aaa5761093c9082840190858501016136a2565b608085015260a0838301015167ffffffffffffffff8111610aaa57818301601f8286860101011215610aaa57808484010151610977816130b6565b91610985604051938461304c565b818352602083019084860160208460051b838a8a01010101116104e7576020818888010101915b60208460051b838a8a010101018310610aae575050505060a085015260c0838301015167ffffffffffffffff8111610aaa5783830101818301601f82011215610aaa578051906109fb826130b6565b92610a09604051948561304c565b8284526020606081860194028301019181860183116104e757602001925b828410610a65575050505060c0840152610a5a90610a4983820160e00161368e565b60e0850152610100920182016135f0565b90820152913861029d565b60608483880103126104e7576020606091604051610a8281613014565b610a8b8761368e565b8152828701518382015260408701516040820152815201930192610a27565b8580fd5b825167ffffffffffffffff8111610b47576040888a0184018201888a0103601f190112610b475760405190610ae282613030565b610af4602082868d8d0101010161368e565b8252604081858c8c01010101519067ffffffffffffffff8211610b43579260209392610b328b868096958f968a8f98849986019501010101016136a2565b8382015281520193019290506109ac565b8c80fd5b8a80fd5b835167ffffffffffffffff8111610b47576060888a0184018201888a0103601f190112610b475760405190610b7f82613014565b602081858c8c010101015167ffffffffffffffff8111610b435792602093926060859493878e8e610bbf8f988a809a840191878787870101010101613649565b86520101016040818101518685015291015190820152815291909501940190506108f9565b634e487b7160e01b600052604160045260246000fd5b8380fd5b60405162461bcd60e51b815260206004820152601360248201527f6572726f725f7374616b655265717569726564000000000000000000000000006044820152606490fd5b80fd5b5034610c43576020366003190112610c4357610c60612f82565b610c6861315c565b6001600160a01b03811615610c8357610c80906131b4565b80f35b60405162461bcd60e51b815260206004820152602660248201527f4f776e61626c653a206e6577206f776e657220697320746865207a65726f206160448201527f64647265737300000000000000000000000000000000000000000000000000006064820152608490fd5b5034610c43576020366003190112610c4357610d08612f82565b610d1061315c565b6001600160a01b0361010b91166001600160a01b031982541617905580f35b5034610c43576040366003190112610c4357610c80600435610d58610d52612f67565b826139d7565b613bbb565b5034610c435780600319360112610c4357806001600160a01b03808061010554165b168352610101602052600381816040862001541615610db157610dab82809260408720015416936134ec565b92610d7f565b6001830184818511610dc857602082604051908152f35b634e487b7160e01b81526011600452602490fd5b5034610c435780600319360112610c43573381526101046020526040812033600052602052610e10336040600020546139d7565b338152610103602052610e266040822054613bbb565b610c8033613f86565b5034610c435780600319360112610c4357602060fe54604051908152f35b5034610c435780600319360112610c4357610c8033613f86565b5034610c43576020366003190112610c4357600560406020926001600160a01b03610e90612f82565b1681526101018452200154604051908152f35b5034610c435780600319360112610c435761010054610eda610ec4826130b6565b91610ed2604051938461304c565b8083526130b6565b6020828101939091601f19013685376001600160a01b0392836101055416928260019485805b610f43575b505050604051948186019282875251809352604086019693905b838210610f2c5786880387f35b845181168852968201969382019390850190610f1f565b90869896919593949515610f8d575b839088610f5f8589613511565b911680915284526101018552610f7e88600360408720015416936134ec565b91969895949395929192610f00565b878116610f525797959794939294610f05565b5034610c435780600319360112610c435760206001600160a01b036101065416604051908152f35b5034610c43576020366003190112610c435760043567ffffffffffffffff81116107a257610ffa903690600401612f98565b60ff60fb541615801561105c575b1561101757610c809133613cb4565b60405162461bcd60e51b815260206004820152601160248201527f6572726f725f6e6f74417070726f7665640000000000000000000000000000006044820152606490fd5b5033835261010260205260ff604084205416600381101561107f57600114611008565b634e487b7160e01b84526021600452602484fd5b5034610c43576040366003190112610c43576110ad612f82565b60406110b7612f67565b926001600160a01b0380931681526101046020522091166000526020526020604060002054604051908152f35b5034610c435780600319360112610c4357611114611100613123565b604051918291602083526020830190613091565b0390f35b5034610c43576020806003193601126107a257600435600260c9541461133a57600260c95580156112f5576001600160a01b0361010860248483835416604051928380926370a0823160e01b82523360048301525afa80156104dc57849187916112c4575b501061127f57916064849286943386526101038552604086206111a1858254613753565b90556111af8460fc54613753565b60fc5554169160405194859384926323b872dd60e01b845233600485015230602485015260448401525af1801561127457839061123f575b600191501515036111fb5750600160c95580f35b6064906040519062461bcd60e51b82526004820152601760248201527f6572726f725f756e7375636365737366756c5374616b650000000000000000006044820152fd5b508181813d831161126d575b611255818361304c565b81010312610793576112686001916135f0565b6111e7565b503d61124b565b6040513d85823e3d90fd5b60405162461bcd60e51b815260048101859052601960248201527f6572726f725f696e73756666696369656e7442616c616e6365000000000000006044820152606490fd5b809250868092503d83116112ee575b6112dd818361304c565b81010312610aaa578390513861117d565b503d6112d3565b60405162461bcd60e51b815260048101839052601760248201527f6572726f725f696e73756666696369656e745374616b650000000000000000006044820152606490fd5b60405162461bcd60e51b815260048101839052601f60248201527f5265656e7472616e637947756172643a207265656e7472616e742063616c6c006044820152606490fd5b5034610c435780600319360112610c4357602060ff60fb54166040519015158152f35b5034610c43576020366003190112610c43576001600160a01b036113c4612f82565b16815261010260205260ff6040822054166040519060038110156113ea57602092508152f35b634e487b7160e01b83526021600452602483fd5b5034610c435780600319360112610c4357602061010054604051908152f35b5034610c435780600319360112610c435760206001600160a01b0360975416604051908152f35b5034610c43576020366003190112610c4357610c80611461612f82565b61146961315c565b613f86565b5034610c43576020366003190112610c4357611488612f82565b61149061315c565b6001600160a01b0361010a91166001600160a01b031982541617905580f35b5034610c43576020366003190112610c43576114c9612f82565b6114d161315c565b6001600160a01b0361010991166001600160a01b031982541617905580f35b5034610c43576040366003190112610c43576004359061150e612f67565b600260c9541461172757600260c95582156116e2576001600160a01b039261010893808554169460405180966370a0823160e01b82523360048301528160246020998a935afa9081156104dc5790849187916116b1575b501061166c5784918691338452610103835260408420611586868254613753565b90556115948560fc54613753565b60fc5554166064604051809481936323b872dd60e01b83523360048401523060248401528760448401525af1801561166157849061162c575b600191501515036115e75790610c8091600160c95561382b565b60405162461bcd60e51b815260048101859052601760248201527f6572726f725f756e7375636365737366756c5374616b650000000000000000006044820152606490fd5b508481813d831161165a575b611642818361304c565b81010312610bfa576116556001916135f0565b6115cd565b503d611638565b6040513d86823e3d90fd5b60405162461bcd60e51b815260048101879052601960248201527f6572726f725f696e73756666696369656e7442616c616e6365000000000000006044820152606490fd5b809250888092503d83116116db575b6116ca818361304c565b81010312610aaa5783905138611565565b503d6116c0565b60405162461bcd60e51b815260206004820152601760248201527f6572726f725f696e73756666696369656e745374616b650000000000000000006044820152606490fd5b60405162461bcd60e51b815260206004820152601f60248201527f5265656e7472616e637947756172643a207265656e7472616e742063616c6c006044820152606490fd5b5034610c435780600319360112610c435761178561315c565b60006001600160a01b036097546001600160a01b03198116609755167f8be0079c531659141344cd1fd0a4f28419497f9722a3daafe3b4186f6b6457e08280a380f35b5034610c43576020366003190112610c435760406020916001600160a01b036117ef612f82565b16815261010383522054604051908152f35b5034610c43576020366003190112610c435780602061188f60043561182461315c565b61184b8160fd5461183781831115613597565b6118438260fc546135e3565b60fc556135e3565b60fd556001600160a01b0361010854169060405194858094819363a9059cbb60e01b83523360048401602090939291936001600160a01b0360408201951681520152565b03925af19081156107975782916118b0575b506001610c80911515146135fd565b90506020813d82116118e7575b816118ca6020938361304c565b810103126107a25760016118e0610c80926135f0565b91506118a1565b3d91506118bd565b5034610c43576020366003190112610c4357602061191361190e612f82565b614246565b6040519015158152f35b5034610c435780600319360112610c4357602060fd54604051908152f35b5034610c43576020366003190112610c43576001600160a01b0361195d612f82565b61196561315c565b1680825261010260205260408220805460ff191660011790557fdfe83f699699403a4b116b6f9504680228c3f319bbf5ab26b48a81d3005d98b28280a280f35b5034610c435780600319360112610c43576001600160a01b037f0000000000000000000000000000000000000000000000000000000000000000163003611a105760206040517f360894a13ba1a3210667c828492db98dca3e2076cc3735a920a3ca505d382bbc8152f35b60405162461bcd60e51b815260206004820152603860248201527f555550535570677261646561626c653a206d757374206e6f742062652063616c60448201527f6c6564207468726f7567682064656c656761746563616c6c00000000000000006064820152608490fd5b506040366003190112610c4357611a90612f82565b90602491823567ffffffffffffffff8111610793573660238201121561079357806004013590611abf826130ce565b611acc604051918261304c565b8281526020928382019236888383010111611e0457818792898793018637830101526001600160a01b03807f00000000000000000000000000000000000000000000000000000000000000001690611b26823014156131fc565b611b557f360894a13ba1a3210667c828492db98dca3e2076cc3735a920a3ca505d382bbc92828454161461326e565b611b5d61315c565b7f4910fdfa16fed3260ed0e7147f7cc6da11a60208b5b9406d12a635614ffd91435460ff1615611b97575050505050610c809192506132e0565b8596949616906040516352d1902d60e01b81528781600481865afa60009181611dd5575b50611c1b5760405162461bcd60e51b815260048101899052602e818b01527f45524331393637557067726164653a206e657720696d706c656d656e7461746960448201526d6f6e206973206e6f74205555505360901b6064820152608490fd5b979192939496959703611d8057611c31876132e0565b604051917fbc7cd75a20ee27fd9adebab32041f755214dbc6bffa90cc0225b39da2e5c2d3b600080a2825115801590611d78575b611c74575b5050505050905080f35b863b15611d28575050611d149394600092839251915af43d15611d20573d90611c9c826130ce565b91611caa604051938461304c565b82523d60008484013e5b7f416464726573733a206c6f772d6c6576656c2064656c65676174652063616c6c60405193611ce285613014565b602785528401527f206661696c656400000000000000000000000000000000000000000000000000604084015261338e565b50803880808080611c6a565b606090611cb4565b62461bcd60e51b8252600482018590526026908201527f416464726573733a2064656c65676174652063616c6c20746f206e6f6e2d636f6044820152651b9d1c9858dd60d21b6064820152608490fd5b506001611c65565b8460296084926040519262461bcd60e51b845260048401528201527f45524331393637557067726164653a20756e737570706f727465642070726f786044820152681a58589b195555525160ba1b6064820152fd5b90918982813d8311611dfd575b611dec818361304c565b81010312610c435750519038611bbb565b503d611de2565b8680fd5b5034610c435780600319360112610c43576111146111006130ea565b5034610c435780600319360112610c435760206001600160a01b036101055416604051908152f35b5034610c435760e0366003190112610c4357611e66612f82565b602435801515810361079357604435906001600160a01b0382168203610bfa576084356001600160a01b03811681036103c85760a4359267ffffffffffffffff8411610aaa5736602385011215610aaa57836004013593611ec6856130b6565b94611ed4604051968761304c565b80865260208601913660248360051b830101116104e7579160248301925b60248360051b8201018410612597575050505067ffffffffffffffff60c43511610aaa5736602360c435011215610aaa5767ffffffffffffffff60c4356004013511610aaa5736602460c4356004013560051b60c435010111610aaa5785549260ff8460081c16159384809561258a575b8015612573575b156125085760ff19808216600117895560ff91866124f7575b50611f9660c435600401358851146133d2565b6001600160a01b0384161515806124ec575b611fb1906133d2565b611fc9828a5460081c16611fc481613525565b613525565b611fd2336131b4565b611fee828a5460081c16611fe581613525565b611fc481613525565b600160c95560fb5416911515161760fb556001600160a01b036001600160a01b03199161010882821684825416179055168160ff54161760ff5560643560fe556001600160a01b0382169061010c54161761010c558461204c6130ea565b91612055613123565b906001600160a01b0381163b156107935761209b836001600160a01b036120ad9660405197889687958693630ef8cdc760e01b8552604060048601526044850190613091565b83810360031901602485015290613091565b0393165af180156103d4576124d9575b50604051306120cb82613014565b602a825260403660208401378151156122895760306020830153815160011015612289576078602183015360295b6001811161245a57506124165761214c60206121136130ea565b92604051938161212c869351809286808701910161306e565b82016121408251809386808501910161306e565b0103808452018261304c565b80519067ffffffffffffffff821161240257819061216c61010754612fc6565b601f81116123a7575b50602090601f831160011461231d578792612312575b50508160011b916000199060031b1c191617610107555b836001600160a01b0361010c5416803b156107a257816040518092632337c3c760e11b8252604060048301528183816121dd60448201613435565b6003602483015203925af18015610797576122fe575b505b825181101561229d576001600160a01b036122108285613511565b51169060c435600401358110156122895760248160051b60c43501013560421960c435360301811215611e045760c435019167ffffffffffffffff602484013511611e0457602483013536036044840113611e0457612284926105849161227561315c565b60446024830135920190613cb4565b6121f5565b634e487b7160e01b86526032600452602486fd5b8482856122a861315c565b6001600160a01b03811615610c83576122c0906131b4565b6122c75780f35b61ff001981541681557f7f26b83ff96e1f2b6a682f133852f6798a09c465da95921460cefb3847402498602060405160018152a180f35b61230790613000565b610bfa5783386121f3565b01519050388061218b565b925061010787527f47c4908e245f386bfc1825973249847f4053a761ddb4880ad63c323a7b5a2a259087935b601f198416851061238c576001945083601f19811610612373575b505050811b01610107556121a2565b015160001960f88460031b161c19169055388080612364565b81810151835560209485019460019093019290910190612349565b6123f2906101076000527f47c4908e245f386bfc1825973249847f4053a761ddb4880ad63c323a7b5a2a25601f850160051c810191602086106123f8575b601f0160051c019061341e565b38612175565b90915081906123e5565b634e487b7160e01b86526041600452602486fd5b606460405162461bcd60e51b815260206004820152602060248201527f537472696e67733a20686578206c656e67746820696e73756666696369656e746044820152fd5b906010600f821610156124c55782518210156124af57807f3031323334353637383961626364656600000000000000000000000000000000600f6124aa93161a6020848601015360041c91613f79565b6120f9565b634e487b7160e01b600052603260045260246000fd5b634e487b7160e01b87526032600452602487fd5b6124e590949194613000565b92386120bd565b506064351515611fa8565b61ffff191661010117895538611f83565b60405162461bcd60e51b815260206004820152602e60248201527f496e697469616c697a61626c653a20636f6e747261637420697320616c72656160448201527f647920696e697469616c697a65640000000000000000000000000000000000006064820152608490fd5b50303b158015611f6a5750600160ff821614611f6a565b50600160ff821610611f63565b6001600160a01b038435168435036125be5760208060249386358152019401939150611ef2565b8980fd5b5034610c43576040366003190112610c4357610c806125df612f67565b6004356139d7565b5034610c43576040366003190112610c43576004356024803567ffffffffffffffff8111610bfa5761261d903690600401612f98565b9060ff60fb54161580156128d6575b15612892579061263c9133613cb4565b600260c9541461284e57600260c955811561280a576001600160a01b039061010891808354169260405180946370a0823160e01b8252336004830152818560209788935afa80156127ff57869188916127ce575b501061278a57859184913384526101038352604084206126b1888254613753565b90556126bf8760fc54613753565b60fc5554166064604051809481936323b872dd60e01b835233600484015230888401528960448401525af180156103d4578590612755575b6001915015150361271257600160c95583610c80338561382b565b9060176064926040519262461bcd60e51b845260048401528201527f6572726f725f756e7375636365737366756c5374616b650000000000000000006044820152fd5b508281813d8311612783575b61276b818361304c565b810103126103c85761277e6001916135f0565b6126f7565b503d612761565b60405162461bcd60e51b8152600481018590526019818501527f6572726f725f696e73756666696369656e7442616c616e6365000000000000006044820152606490fd5b809250868092503d83116127f8575b6127e7818361304c565b81010312611e045785905138612690565b503d6127dd565b6040513d89823e3d90fd5b60649060176040519162461bcd60e51b8352602060048401528201527f6572726f725f696e73756666696369656e745374616b650000000000000000006044820152fd5b606490601f6040519162461bcd60e51b8352602060048401528201527f5265656e7472616e637947756172643a207265656e7472616e742063616c6c006044820152fd5b60405162461bcd60e51b8152602060048201526011818501527f6572726f725f6e6f74417070726f7665640000000000000000000000000000006044820152606490fd5b5033855261010260205260ff60408620541660038110156128f95760011461262c565b634e487b7160e01b865260216004528386fd5b5034610c43576020806003193601126107a257612927612f82565b906001600160a01b03807f00000000000000000000000000000000000000000000000000000000000000001661295f813014156131fc565b61298e7f360894a13ba1a3210667c828492db98dca3e2076cc3735a920a3ca505d382bbc91838354161461326e565b61299661315c565b604051908382019282841067ffffffffffffffff851117612c1b578360405286835260ff7f4910fdfa16fed3260ed0e7147f7cc6da11a60208b5b9406d12a635614ffd914354166000146129f2575050505050610c80906132e0565b8596949516906040516352d1902d60e01b81528681600481865afa869181612bec575b50612a765760405162461bcd60e51b815260048101889052602e60248201527f45524331393637557067726164653a206e657720696d706c656d656e7461746960448201526d6f6e206973206e6f74205555505360901b6064820152608490fd5b95949503612b9557612a87866132e0565b604051907fbc7cd75a20ee27fd9adebab32041f755214dbc6bffa90cc0225b39da2e5c2d3b8680a2815115801590612b8e575b612ac8575b50505050905080f35b853b15612b3d57509280948192612b329551915af43d15611d20573d90612aee826130ce565b91612afc604051938461304c565b82523d858484013e7f416464726573733a206c6f772d6c6576656c2064656c65676174652063616c6c60405193611ce285613014565b508038808080612abf565b62461bcd60e51b815260048101849052602660248201527f416464726573733a2064656c65676174652063616c6c20746f206e6f6e2d636f6044820152651b9d1c9858dd60d21b6064820152608490fd5b5084612aba565b60405162461bcd60e51b815260048101859052602960248201527f45524331393637557067726164653a20756e737570706f727465642070726f786044820152681a58589b195555525160ba1b6064820152608490fd5b9091508781813d8311612c14575b612c04818361304c565b81010312611e0457519038612a15565b503d612bfa565b634e487b7160e01b87526041600452602487fd5b5034610c43576020366003190112610c4357610c80600435613bbb565b5034610c43576020366003190112610c43576001600160a01b03612c6e612f82565b612c7661315c565b1680825261010260205260408220805460ff191660021790557fbbe2a784aa6240d8175fa65a8459058efd8f44c5ab66caa2525fe9d6342108788280a280f35b5034610c43576020366003190112610c43576004358015158091036107a257612cdd61315c565b60ff1960fb541660ff82161760fb557f7623db9c426686f05cec977c4cadb8ff9657502540ca665ae347731114dac69d8280a280f35b5034610c43576020366003190112610c4357610c80612d30612f82565b612d3861315c565b612d4061315c565b6001600160a01b03811680845261010260205260408420805460ff191660021790557fbbe2a784aa6240d8175fa65a8459058efd8f44c5ab66caa2525fe9d6342108788480a261146961315c565b5034610c435760209081600319360112610c43576001600160a01b0380612db3612f82565b168252610101835260408220918254928460018083019360405194859282825492612ddd84612fc6565b80875293838116908115612e8e5750600114612e51575b50505050612e049250038361304c565b600281015492612e38600582600385015416926004850154169301549360c0604051988998895288015260c0870190613091565b9360408601526060850152608084015260a08301520390f35b815285812095935091905b818310612e76575089945050820101612e04388080612df4565b85548884018501529485019487945091830191612e5c565b9350505050612e0494925060ff191682840152151560051b8201018792388080612df4565b5034610c435780600319360112610c4357602060fc54604051908152f35b5034610c43576040366003190112610c4357612eeb612f82565b6024359067ffffffffffffffff821161079357612f0f610c80923690600401612f98565b91612f1861315c565b613cb4565b5034610c43576040366003190112610c4357610c80612f3a612f67565b60043561382b565b9050346107a257816003193601126107a2576020906001600160a01b0360ff54168152f35b602435906001600160a01b0382168203612f7d57565b600080fd5b600435906001600160a01b0382168203612f7d57565b9181601f84011215612f7d5782359167ffffffffffffffff8311612f7d5760208381860195010111612f7d57565b90600182811c92168015612ff6575b6020831014612fe057565b634e487b7160e01b600052602260045260246000fd5b91607f1691612fd5565b67ffffffffffffffff8111610be457604052565b6060810190811067ffffffffffffffff821117610be457604052565b6040810190811067ffffffffffffffff821117610be457604052565b90601f8019910116810190811067ffffffffffffffff821117610be457604052565b60005b8381106130815750506000910152565b8181015183820152602001613071565b906020916130aa8151809281855285808601910161306e565b601f01601f1916010190565b67ffffffffffffffff8111610be45760051b60200190565b67ffffffffffffffff8111610be457601f01601f191660200190565b604051906130f782613030565b600782527f2f73797374656d000000000000000000000000000000000000000000000000006020830152565b6040519061313082613030565b601382527f7b2022706172746974696f6e73223a2031207d000000000000000000000000006020830152565b6001600160a01b0360975416330361317057565b606460405162461bcd60e51b815260206004820152602060248201527f4f776e61626c653a2063616c6c6572206973206e6f7420746865206f776e65726044820152fd5b609754906001600160a01b0380911691826001600160a01b0319821617609755167f8be0079c531659141344cd1fd0a4f28419497f9722a3daafe3b4186f6b6457e0600080a3565b1561320357565b60405162461bcd60e51b815260206004820152602c60248201527f46756e6374696f6e206d7573742062652063616c6c6564207468726f7567682060448201527f64656c656761746563616c6c00000000000000000000000000000000000000006064820152608490fd5b1561327557565b60405162461bcd60e51b815260206004820152602c60248201527f46756e6374696f6e206d7573742062652063616c6c6564207468726f7567682060448201527f6163746976652070726f787900000000000000000000000000000000000000006064820152608490fd5b803b15613323576001600160a01b037f360894a13ba1a3210667c828492db98dca3e2076cc3735a920a3ca505d382bbc91166001600160a01b0319825416179055565b60405162461bcd60e51b815260206004820152602d60248201527f455243313936373a206e657720696d706c656d656e746174696f6e206973206e60448201527f6f74206120636f6e7472616374000000000000000000000000000000000000006064820152608490fd5b9091901561339a575090565b8151156133aa5750805190602001fd5b60405162461bcd60e51b8152602060048201529081906133ce906024830190613091565b0390fd5b156133d957565b60405162461bcd60e51b815260206004820152601460248201527f6572726f725f626164547261636b6572446174610000000000000000000000006044820152606490fd5b818110613429575050565b6000815560010161341e565b9060009161010790815461344881612fc6565b808352926001918083169081156134c75750600114613468575b50505050565b90929394506000527f47c4908e245f386bfc1825973249847f4053a761ddb4880ad63c323a7b5a2a25916000925b8484106134af5750506020925001019038808080613462565b80546020858501810191909152909301928101613496565b92505050602093945060ff929192191683830152151560051b01019038808080613462565b60001981146134fb5760010190565b634e487b7160e01b600052601160045260246000fd5b80518210156124af5760209160051b010190565b1561352c57565b60405162461bcd60e51b815260206004820152602b60248201527f496e697469616c697a61626c653a20636f6e7472616374206973206e6f74206960448201527f6e697469616c697a696e670000000000000000000000000000000000000000006064820152608490fd5b1561359e57565b60405162461bcd60e51b815260206004820152601460248201527f6572726f725f6e6f74456e6f7567685374616b650000000000000000000000006044820152606490fd5b919082039182116134fb57565b51908115158203612f7d57565b1561360457565b60405162461bcd60e51b815260206004820152601a60248201527f6572726f725f756e7375636365737366756c57697468647261770000000000006044820152606490fd5b81601f82011215612f7d57805161365f816130ce565b9261366d604051948561304c565b81845260208284010111612f7d5761368b916020808501910161306e565b90565b51906001600160a01b0382168203612f7d57565b81601f82011215612f7d578051906136b9826130b6565b926040926136c98451958661304c565b808552602091828087019260061b85010193818511612f7d578301915b8483106136f65750505050505090565b8583830312612f7d57838691825161370d81613030565b6137168661368e565b815282860151838201528152019201916136e6565b90918060409360208452816020850152848401376000828201840152601f01601f1916010190565b919082018092116134fb57565b919091600083820193841291129080158216911516176134fb57565b1561378357565b606460405162461bcd60e51b815260206004820152602060248201527f6572726f725f696e73756666696369656e7444656c6567617465416d6f756e746044820152fd5b156137ce57565b60405162461bcd60e51b815260206004820152601160248201527f6572726f725f696e76616c69644e6f64650000000000000000000000000000006044820152606490fd5b80548210156124af5760005260206000200190600090565b919061383883151561377c565b6001600160a01b038116906000938285526101016020928184526040926138666002858a20015415156137c7565b338852610103855283882061387c8282546135e3565b90553388526101048552838820868952855283882061389c828254613753565b90558588528285526138b56005858a2001918254613753565b9055848752818452600783882001338852845260ff838820541615613916575b7fcf939c6aa5e54a02f6433632298ef92d8600b2e56030790abb22fb9b3ab25d7e949596600592613906859361417e565b87825285522001549051908152a2565b848752818452600683882001805490680100000000000000008210156139c3579261390685936139976139758560059860017fcf939c6aa5e54a02f6433632298ef92d8600b2e56030790abb22fb9b3ab25d7e9d9e9f98018155613813565b81546001600160a01b0360039290921b91821b80199091163390921b16179055565b8984528288528484203385526007018852938320805460ff1916600117905550909796955091506138d5565b634e487b7160e01b89526041600452602489fd5b9190916139e581151561377c565b6001600160a01b038084169160009483865261010190602093828552604093613a156002868b20015415156137c7565b3389526101048652848920878a528652848920613a338282546135e3565b90558689528386526005858a2001613a4c8282546135e3565b90553389526101038652613a64858a20918254613753565b905587868952838652600680868b2001548a805b828110613b7c575b5089905250848752858a20810180546000199391848201918211613b685785613ac7613af2948f8c8f95918f97613ab98f918c95613813565b999054988352522001613813565b92909360031b1c169082549060031b916001600160a01b039283811b93849216901b16911916179055565b878a52848752858a20019081548015613b5457937fcf939c6aa5e54a02f6433632298ef92d8600b2e56030790abb22fb9b3ab25d7e98999a93600596936139069389970191613b418383613813565b909182549160031b1b191690555561417e565b634e487b7160e01b8b52603160045260248bfd5b634e487b7160e01b8d52601160045260248dfd5b8a8252878a5285613b9182868c862001613813565b90549060031b1c163314613bad57613ba8906134ec565b613a78565b929350505090388a81613a80565b600033815280610103613c456020948286938452613bdf6040862054831115613597565b338552835260408420613bf38282546135e3565b9055613c018160fc546135e3565b60fc556001600160a01b0361010854169060405195868094819363a9059cbb60e01b83523360048401602090939291936001600160a01b0360408201951681520152565b03925af1928315613ca7578193613c6a575b5050506001613c68911515146135fd565b565b9091809350813d8311613ca0575b613c82818361304c565b81010312610c4357506001613c99613c68926135f0565b9138613c57565b503d613c78565b50604051903d90823e3d90fd5b6001600160a01b03809116916000908382526020906101018252604083209383966002860191825415613ed6575b5060018096019267ffffffffffffffff8211612402578190613d048554612fc6565b601f8111613ea8575b508690601f8311600114613e49578792613e3e575b5050600019600383901b1c191690861b1782555b429055604051936040855283825492613d4e84612fc6565b938460408901528381169081600014613df45750600114613d9d575b505050509180917f7b8ea65757bf0d882563917834f76c4df069ea7e489c9fc65bf764289792e3349342908301520390a3565b9080949550528383205b828410613de057505050820160600190807f7b8ea65757bf0d882563917834f76c4df069ea7e489c9fc65bf764289792e3348438613d6a565b805486850160600152928401928101613da7565b915050869550606092507f7b8ea65757bf0d882563917834f76c4df069ea7e489c9fc65bf764289792e334969493915060ff191682850152151560051b8301019293819238613d6a565b013590503880613d22565b85885286882089945091601f198416895b89828210613e925750508411613e78575b505050811b018255613d36565b0135600019600384901b60f8161c19169055388080613e6b565b8385013586558c97909501949283019201613e5a565b613ed090868952878920601f850160051c8101918986106123f857601f0160051c019061341e565b38613d0d565b9750600197610105908082541615600014613f3b5750876001600160a01b03198254161790555b610106876001600160a01b0319825416179055610100805490898201809211613f27575538613ce2565b634e487b7160e01b87526011600452602487fd5b90506101069080825416875260036040882001916001600160a01b0319928a8482541617905554166004880191825416179055610100548655613efd565b80156134fb576000190190565b6001600160a01b03809116906000908282526101016020908082526040908185209260028401541561413b57868652818152828620938685558560019188838801613fd18154612fc6565b806140ff575b5050600288015560066003978a898201558a60048201558a60058201550180548a8255806140e6575b5050600481018a8884835416930192848454168c528787526004898d20016001600160a01b03199182825416179055610105805483878216146140d5575b50508461010693845493828516146140c4575b50505050509082915416905b61408f575b50505050505050807fcfc24166db4bb677e857cacabd1541fb2b30645021b27c5130419589b84db52b91a2565b861680156140bf578088528383528488206140aa8154613f79565b9055875282825285858589200154168161405d565b614062565b541691161790553880808481614051565b82878754169116179055388061403e565b6140f8918b52858b209081019061341e565b3880614000565b601f81116001146141155750555b883880613fd7565b81835286832061412f91601f0160051c810190870161341e565b8186812091555561410d565b60649083519062461bcd60e51b82526004820152600e60248201527f6572726f725f6e6f74466f756e640000000000000000000000000000000000006044820152fd5b6001600160a01b039081166000818152610101602052604081206005015460fe54919391116142115761010c5416803b1561079357829182916040518095818094634cbf455560e11b8252606060048301526141dc60648301613435565b9060248301526002604483015203925af190811561420557506141fc5750565b613c6890613000565b604051903d90823e3d90fd5b61010c5416803b1561079357829182916040518095818094631f1cbd7560e11b8252606060048301526141dc60648301613435565b60fe54801515918261425757505090565b6001600160a01b039192501660005261010160205260056040600020015410159056fea2646970667358221220979da318c9e035b97ac913b3e265396d2fef462303c9b909cfce41a6c0dbfc1964736f6c63430008110033",
  "linkReferences": {},
  "deployedLinkReferences": {}
}