{
  "_format": "hh-sol-artifact-1",
  "contractName": "LogStoreNodeManager",
  "sourceName": "src/NodeManager.sol",
  "abi": [
    {
      "anonymous": false,
      "inputs": [
        {
          "indexed": false,
          "internalType": "address",
          "name": "previousAdmin",
          "type": "address"
        },
        {
          "indexed": false,
          "internalType": "address",
          "name": "newAdmin",
          "type": "address"
        }
      ],
      "name": "AdminChanged",
      "type": "event"
    },
    {
      "anonymous": false,
      "inputs": [
        {
          "indexed": true,
          "internalType": "address",
          "name": "beacon",
          "type": "address"
        }
      ],
      "name": "BeaconUpgraded",
      "type": "event"
    },
    {
      "anonymous": false,
      "inputs": [
        {
          "indexed": false,
          "internalType": "uint8",
          "name": "version",
          "type": "uint8"
        }
      ],
      "name": "Initialized",
      "type": "event"
    },
    {
      "anonymous": false,
      "inputs": [
        {
          "indexed": true,
          "internalType": "address",
          "name": "nodeAddress",
          "type": "address"
        }
      ],
      "name": "NodeRemoved",
      "type": "event"
    },
    {
      "anonymous": false,
      "inputs": [
        {
          "indexed": true,
          "internalType": "address",
          "name": "nodeAddress",
          "type": "address"
        },
        {
          "indexed": false,
          "internalType": "uint256",
          "name": "stake",
          "type": "uint256"
        }
      ],
      "name": "NodeStakeUpdated",
      "type": "event"
    },
    {
      "anonymous": false,
      "inputs": [
        {
          "indexed": true,
          "internalType": "address",
          "name": "nodeAddress",
          "type": "address"
        },
        {
          "indexed": false,
          "internalType": "string",
          "name": "metadata",
          "type": "string"
        },
        {
          "indexed": true,
          "internalType": "uint256",
          "name": "isNew",
          "type": "uint256"
        },
        {
          "indexed": false,
          "internalType": "uint256",
          "name": "lastSeen",
          "type": "uint256"
        }
      ],
      "name": "NodeUpdated",
      "type": "event"
    },
    {
      "anonymous": false,
      "inputs": [
        {
          "indexed": true,
          "internalType": "address",
          "name": "nodeAddress",
          "type": "address"
        }
      ],
      "name": "NodeWhitelistApproved",
      "type": "event"
    },
    {
      "anonymous": false,
      "inputs": [
        {
          "indexed": true,
          "internalType": "address",
          "name": "nodeAddress",
          "type": "address"
        }
      ],
      "name": "NodeWhitelistRejected",
      "type": "event"
    },
    {
      "anonymous": false,
      "inputs": [
        {
          "indexed": true,
          "internalType": "address",
          "name": "previousOwner",
          "type": "address"
        },
        {
          "indexed": true,
          "internalType": "address",
          "name": "newOwner",
          "type": "address"
        }
      ],
      "name": "OwnershipTransferred",
      "type": "event"
    },
    {
      "anonymous": false,
      "inputs": [
        {
          "indexed": false,
          "internalType": "string",
          "name": "id",
          "type": "string"
        }
      ],
      "name": "ReportProcessed",
      "type": "event"
    },
    {
      "anonymous": false,
      "inputs": [
        {
          "indexed": true,
          "internalType": "bool",
          "name": "value",
          "type": "bool"
        }
      ],
      "name": "RequiresWhitelistChanged",
      "type": "event"
    },
    {
      "anonymous": false,
      "inputs": [
        {
          "indexed": true,
          "internalType": "address",
          "name": "implementation",
          "type": "address"
        }
      ],
      "name": "Upgraded",
      "type": "event"
    },
    {
      "inputs": [],
      "name": "LOGSTORE_QUERY_STREAM_ID_PATH",
      "outputs": [
        {
          "internalType": "string",
          "name": "",
          "type": "string"
        }
      ],
      "stateMutability": "view",
      "type": "function"
    },
    {
      "inputs": [],
      "name": "LOGSTORE_QUERY_STREAM_METADATA_JSON_STRING",
      "outputs": [
        {
          "internalType": "string",
          "name": "",
          "type": "string"
        }
      ],
      "stateMutability": "view",
      "type": "function"
    },
    {
      "inputs": [],
      "name": "LOGSTORE_SYSTEM_STREAM_ID_PATH",
      "outputs": [
        {
          "internalType": "string",
          "name": "",
          "type": "string"
        }
      ],
      "stateMutability": "view",
      "type": "function"
    },
    {
      "inputs": [],
      "name": "LOGSTORE_SYSTEM_STREAM_METADATA_JSON_STRING",
      "outputs": [
        {
          "internalType": "string",
          "name": "",
          "type": "string"
        }
      ],
      "stateMutability": "view",
      "type": "function"
    },
    {
      "inputs": [
        {
          "internalType": "address",
          "name": "",
          "type": "address"
        }
      ],
      "name": "balanceOf",
      "outputs": [
        {
          "internalType": "uint256",
          "name": "",
          "type": "uint256"
        }
      ],
      "stateMutability": "view",
      "type": "function"
    },
    {
      "inputs": [],
      "name": "countNodes",
      "outputs": [
        {
          "internalType": "uint256",
          "name": "",
          "type": "uint256"
        }
      ],
      "stateMutability": "view",
      "type": "function"
    },
    {
      "inputs": [
        {
          "internalType": "uint256",
          "name": "amount",
          "type": "uint256"
        },
        {
          "internalType": "address",
          "name": "node",
          "type": "address"
        }
      ],
      "name": "delegate",
      "outputs": [],
      "stateMutability": "nonpayable",
      "type": "function"
    },
    {
      "inputs": [
        {
          "internalType": "address",
          "name": "",
          "type": "address"
        },
        {
          "internalType": "address",
          "name": "",
          "type": "address"
        }
      ],
      "name": "delegatesOf",
      "outputs": [
        {
          "internalType": "uint256",
          "name": "",
          "type": "uint256"
        }
      ],
      "stateMutability": "view",
      "type": "function"
    },
    {
      "inputs": [],
      "name": "headNode",
      "outputs": [
        {
          "internalType": "address",
          "name": "",
          "type": "address"
        }
      ],
      "stateMutability": "view",
      "type": "function"
    },
    {
      "inputs": [
        {
          "internalType": "address",
          "name": "owner_",
          "type": "address"
        },
        {
          "internalType": "bool",
          "name": "requiresWhitelist_",
          "type": "bool"
        },
        {
          "internalType": "address",
          "name": "stakeTokenAddress_",
          "type": "address"
        },
        {
          "internalType": "uint256",
          "name": "stakeRequiredAmount_",
          "type": "uint256"
        },
        {
          "internalType": "address",
          "name": "streamrRegistryAddress_",
          "type": "address"
        },
        {
          "internalType": "address[]",
          "name": "initialNodes",
          "type": "address[]"
        },
        {
          "internalType": "string[]",
          "name": "initialMetadata",
          "type": "string[]"
        }
      ],
      "name": "initialize",
      "outputs": [],
      "stateMutability": "nonpayable",
      "type": "function"
    },
    {
      "inputs": [
        {
          "internalType": "address",
          "name": "node",
          "type": "address"
        }
      ],
      "name": "isStaked",
      "outputs": [
        {
          "internalType": "bool",
          "name": "",
          "type": "bool"
        }
      ],
      "stateMutability": "view",
      "type": "function"
    },
    {
      "inputs": [
        {
          "internalType": "uint256",
          "name": "amount",
          "type": "uint256"
        },
        {
          "internalType": "string",
          "name": "metadata_",
          "type": "string"
        }
      ],
      "name": "join",
      "outputs": [],
      "stateMutability": "nonpayable",
      "type": "function"
    },
    {
      "inputs": [
        {
          "internalType": "address",
          "name": "nodeAddress",
          "type": "address"
        }
      ],
      "name": "kickNode",
      "outputs": [],
      "stateMutability": "nonpayable",
      "type": "function"
    },
    {
      "inputs": [],
      "name": "leave",
      "outputs": [],
      "stateMutability": "nonpayable",
      "type": "function"
    },
    {
      "inputs": [],
      "name": "nodeAddresses",
      "outputs": [
        {
          "internalType": "address[]",
          "name": "resultAddresses",
          "type": "address[]"
        }
      ],
      "stateMutability": "view",
      "type": "function"
    },
    {
      "inputs": [
        {
          "internalType": "address",
          "name": "node",
          "type": "address"
        }
      ],
      "name": "nodeStake",
      "outputs": [
        {
          "internalType": "uint256",
          "name": "",
          "type": "uint256"
        }
      ],
      "stateMutability": "view",
      "type": "function"
    },
    {
      "inputs": [
        {
          "internalType": "address",
          "name": "",
          "type": "address"
        }
      ],
      "name": "nodes",
      "outputs": [
        {
          "internalType": "uint256",
          "name": "index",
          "type": "uint256"
        },
        {
          "internalType": "string",
          "name": "metadata",
          "type": "string"
        },
        {
          "internalType": "uint256",
          "name": "lastSeen",
          "type": "uint256"
        },
        {
          "internalType": "address",
          "name": "next",
          "type": "address"
        },
        {
          "internalType": "address",
          "name": "prev",
          "type": "address"
        },
        {
          "internalType": "uint256",
          "name": "stake",
          "type": "uint256"
        }
      ],
      "stateMutability": "view",
      "type": "function"
    },
    {
      "inputs": [],
      "name": "owner",
      "outputs": [
        {
          "internalType": "address",
          "name": "",
          "type": "address"
        }
      ],
      "stateMutability": "view",
      "type": "function"
    },
    {
      "inputs": [
        {
          "internalType": "string",
          "name": "id",
          "type": "string"
        }
      ],
      "name": "processReport",
      "outputs": [],
      "stateMutability": "nonpayable",
      "type": "function"
    },
    {
      "inputs": [],
      "name": "proxiableUUID",
      "outputs": [
        {
          "internalType": "bytes32",
          "name": "",
          "type": "bytes32"
        }
      ],
      "stateMutability": "view",
      "type": "function"
    },
    {
      "inputs": [
        {
          "internalType": "address",
          "name": "contractAddress",
          "type": "address"
        }
      ],
      "name": "registerQueryManager",
      "outputs": [],
      "stateMutability": "nonpayable",
      "type": "function"
    },
    {
      "inputs": [
        {
          "internalType": "address",
          "name": "contractAddress",
          "type": "address"
        }
      ],
      "name": "registerReportManager",
      "outputs": [],
      "stateMutability": "nonpayable",
      "type": "function"
    },
    {
      "inputs": [
        {
          "internalType": "address",
          "name": "contractAddress",
          "type": "address"
        }
      ],
      "name": "registerStoreManager",
      "outputs": [],
      "stateMutability": "nonpayable",
      "type": "function"
    },
    {
      "inputs": [],
      "name": "removeNode",
      "outputs": [],
      "stateMutability": "nonpayable",
      "type": "function"
    },
    {
      "inputs": [
        {
          "internalType": "address",
          "name": "nodeAddress",
          "type": "address"
        }
      ],
      "name": "removeNodeAdmin",
      "outputs": [],
      "stateMutability": "nonpayable",
      "type": "function"
    },
    {
      "inputs": [],
      "name": "renounceOwnership",
      "outputs": [],
      "stateMutability": "nonpayable",
      "type": "function"
    },
    {
      "inputs": [],
      "name": "requiresWhitelist",
      "outputs": [
        {
          "internalType": "bool",
          "name": "",
          "type": "bool"
        }
      ],
      "stateMutability": "view",
      "type": "function"
    },
    {
      "inputs": [
        {
          "internalType": "bool",
          "name": "value",
          "type": "bool"
        }
      ],
      "name": "setRequiresWhitelist",
      "outputs": [],
      "stateMutability": "nonpayable",
      "type": "function"
    },
    {
      "inputs": [
        {
          "internalType": "uint256",
          "name": "amount",
          "type": "uint256"
        }
      ],
      "name": "stake",
      "outputs": [],
      "stateMutability": "nonpayable",
      "type": "function"
    },
    {
      "inputs": [
        {
          "internalType": "uint256",
          "name": "amount",
          "type": "uint256"
        },
        {
          "internalType": "address",
          "name": "node",
          "type": "address"
        }
      ],
      "name": "stakeAndDelegate",
      "outputs": [],
      "stateMutability": "nonpayable",
      "type": "function"
    },
    {
      "inputs": [],
      "name": "stakeRequiredAmount",
      "outputs": [
        {
          "internalType": "uint256",
          "name": "",
          "type": "uint256"
        }
      ],
      "stateMutability": "view",
      "type": "function"
    },
    {
      "inputs": [],
      "name": "stakeTokenAddress",
      "outputs": [
        {
          "internalType": "address",
          "name": "",
          "type": "address"
        }
      ],
      "stateMutability": "view",
      "type": "function"
    },
    {
      "inputs": [],
      "name": "tailNode",
      "outputs": [
        {
          "internalType": "address",
          "name": "",
          "type": "address"
        }
      ],
      "stateMutability": "view",
      "type": "function"
    },
    {
      "inputs": [],
      "name": "totalNodes",
      "outputs": [
        {
          "internalType": "uint256",
          "name": "",
          "type": "uint256"
        }
      ],
      "stateMutability": "view",
      "type": "function"
    },
    {
      "inputs": [],
      "name": "totalSupply",
      "outputs": [
        {
          "internalType": "uint256",
          "name": "",
          "type": "uint256"
        }
      ],
      "stateMutability": "view",
      "type": "function"
    },
    {
      "inputs": [
        {
          "internalType": "address",
          "name": "newOwner",
          "type": "address"
        }
      ],
      "name": "transferOwnership",
      "outputs": [],
      "stateMutability": "nonpayable",
      "type": "function"
    },
    {
      "inputs": [],
      "name": "treasurySupply",
      "outputs": [
        {
          "internalType": "uint256",
          "name": "",
          "type": "uint256"
        }
      ],
      "stateMutability": "view",
      "type": "function"
    },
    {
      "inputs": [
        {
          "internalType": "uint256",
          "name": "amount",
          "type": "uint256"
        }
      ],
      "name": "treasuryWithdraw",
      "outputs": [],
      "stateMutability": "nonpayable",
      "type": "function"
    },
    {
      "inputs": [
        {
          "internalType": "uint256",
          "name": "amount",
          "type": "uint256"
        },
        {
          "internalType": "address",
          "name": "node",
          "type": "address"
        }
      ],
      "name": "undelegate",
      "outputs": [],
      "stateMutability": "nonpayable",
      "type": "function"
    },
    {
      "inputs": [
        {
          "internalType": "uint256",
          "name": "amount",
          "type": "uint256"
        },
        {
          "internalType": "address",
          "name": "node",
          "type": "address"
        }
      ],
      "name": "undelegateWithdraw",
      "outputs": [],
      "stateMutability": "nonpayable",
      "type": "function"
    },
    {
      "inputs": [
        {
          "internalType": "address",
          "name": "newImplementation",
          "type": "address"
        }
      ],
      "name": "upgradeTo",
      "outputs": [],
      "stateMutability": "nonpayable",
      "type": "function"
    },
    {
      "inputs": [
        {
          "internalType": "address",
          "name": "newImplementation",
          "type": "address"
        },
        {
          "internalType": "bytes",
          "name": "data",
          "type": "bytes"
        }
      ],
      "name": "upgradeToAndCall",
      "outputs": [],
      "stateMutability": "payable",
      "type": "function"
    },
    {
      "inputs": [
        {
          "internalType": "string",
          "name": "metadata_",
          "type": "string"
        }
      ],
      "name": "upsertNode",
      "outputs": [],
      "stateMutability": "nonpayable",
      "type": "function"
    },
    {
      "inputs": [
        {
          "internalType": "address",
          "name": "node",
          "type": "address"
        },
        {
          "internalType": "string",
          "name": "metadata_",
          "type": "string"
        }
      ],
      "name": "upsertNodeAdmin",
      "outputs": [],
      "stateMutability": "nonpayable",
      "type": "function"
    },
    {
      "inputs": [
        {
          "internalType": "address",
          "name": "",
          "type": "address"
        }
      ],
      "name": "whitelist",
      "outputs": [
        {
          "internalType": "enum LogStoreNodeManager.WhitelistState",
          "name": "",
          "type": "uint8"
        }
      ],
      "stateMutability": "view",
      "type": "function"
    },
    {
      "inputs": [
        {
          "internalType": "address",
          "name": "nodeAddress",
          "type": "address"
        }
      ],
      "name": "whitelistApproveNode",
      "outputs": [],
      "stateMutability": "nonpayable",
      "type": "function"
    },
    {
      "inputs": [
        {
          "internalType": "address",
          "name": "nodeAddress",
          "type": "address"
        }
      ],
      "name": "whitelistRejectNode",
      "outputs": [],
      "stateMutability": "nonpayable",
      "type": "function"
    },
    {
      "inputs": [
        {
          "internalType": "uint256",
          "name": "amount",
          "type": "uint256"
        }
      ],
      "name": "withdraw",
      "outputs": [],
      "stateMutability": "nonpayable",
      "type": "function"
    }
  ],
  "bytecode": "0x60a080604052346100315730608052614633908161003782396080518181816119ad01528181611ae60152612a160152f35b600080fdfe6080806040526004361015610014575b600080fd5b600090813560e01c9081630106395f14612fba575080630429945c14612f9e57806308bbb82414612f795780631204c48614612f2d57806318160ddd14612f0f578063189a5a1714612e715780631ad603d014612df657806320a59a0314612d9957806328c2b946146110fb5780632af5758014612d2f5780632e1a7d4d14612d125780633659cfe6146129ef5780633cfb3d8a146126ca57806345e863e0146126a55780634632974314611e5157806346c198f614611e295780634830563414611df55780634f1ef28614611a6857806352d1902d146119925780635888799c146119285780635fc1a4b81461190a5780636177fd18146118dc57806365267139146117ee57806370a08231146117b5578063715018a614611759578063735e6c7a146114dd57806375ed25dc1461149c57806379e574cb1461145b5780638ce15586146114315780638da5cb5b1461140a5780639592d424146113eb5780639b19251a1461138f578063a5ee5b411461136c578063a694fc3a14611105578063a7cc5405146110fb578063abad29a8146110aa578063b2a52fef14610fdf578063bfdf086614610fb7578063c10b522214610eba578063cd23d26814610e7e578063d0d3f5ba14610e64578063d5c7096614610e46578063d66d9e1914610df3578063e04b0f1814610d74578063e7b5895314610d46578063e8d88aba14610d05578063f2fde38b14610c5d5763f6883c051461023257600080fd5b34610c5a576020366003190112610c5a5760043567ffffffffffffffff81116107b957610263903690600401613116565b9061026d336144c5565b15610c155761010c926001600160a01b03845416918160405180946312e63d7160e01b825281806102a2898760048401613955565b03915afa9283156107ae57829361080c575b506101008301516107c757815b606080850190815180518410156103f6576102de84604092613728565b5101516102f6575b50506102f190613703565b6102c1565b602061035a6001600160a01b0361010a5416610313868651613728565b51518884610322898951613728565b5101519560406103338a8a51613728565b5101519660405197889687958694639ac0e98b60e01b8652600486015260648501906130c5565b916024840152604483015203925af180156103eb5761039f575b50906020610386826102f19451613728565b51015161039660fc91825461397d565b905590386102e6565b6020813d6020116103e3575b816103b86020938361302b565b810103126103df57610386836102f194936103d460209461381d565b509350935050610374565b8480fd5b3d91506103ab565b6040513d87823e3d90fd5b505050508490825b60c08501805180518310156105025761041983604092613728565b510151610430575b5061042b90613703565b6103fe565b6001600160a01b0361010b54166001600160a01b03610450848451613728565b5151166020610460858551613728565b510151906040610471868651613728565b51015192803b156104fe57889291836064926040519687958694631ee2efa360e31b86526004860152602485015260448401525af180156104f3579086916104df575b50509060206104c78261042b9451613728565b5101516104d760fc91825461397d565b905590610421565b6104e890612fdf565b6103df5784886104b4565b6040513d88823e3d90fd5b8880fd5b5050509390825b60808501805180518310156105c6576001600160a01b03610593848094836105376105a09861059b97613728565b5151168a526101018060205260406105678c6005928391200154602061055e878751613728565b5101519061398a565b918c808413156105a557508661057e868651613728565b5151168d5260205260408c2001555b51613728565b515116614328565b613703565b610509565b9250866105b3868651613728565b515116835260205260408220015561058d565b85808987878b5b60a08101938451518710156106fa57855b60206105eb898851613728565b510151518110156106e25780886020610631838261061e6001600160a01b036106266106a8998f61061e8a879251613728565b510151613728565b515116958d51613728565b510151906001600160a01b036106488c8b51613728565b5151168a5261066e610104928360205260408c208360005260205260406000205461398a565b918a8313156106ad576001600160a01b0361068a8d8c51613728565b5151168b5260205260408a2090600052602052604060002055613703565b6105de565b9091506001600160a01b036106c38c8b51613728565b5151168a52602052604089209060005260205287604060002055613703565b509291956106f1919450613703565b949091926105cd565b935084916107186001600160a01b0392604060fd549101519061398a565b838113156107bd5760fd555b5416803b156107b95781604051809263f6883c0560e01b825281838161074e898b60048401613955565b03925af180156107ae57610796575b50507fbcd21d99bbf55769881dda49c45043a8750d2229c330cdddd4718575f72364029161079060405192839283613955565b0390a180f35b61079f90612fdf565b6107aa57828461075d565b8280fd5b6040513d84823e3d90fd5b5080fd5b508260fd55610724565b60405162461bcd60e51b815260206004820152601c60248201527f6572726f725f7265706f7274416c726561647950726f636573736564000000006044820152606490fd5b9092503d908183823e61081f828261302b565b60208183810103126107aa5780519067ffffffffffffffff8211610c1157610120928383830182840103126103df5760405193840184811067ffffffffffffffff821117610bfb576040528282015167ffffffffffffffff8111610ac15761088e908284019085850101613876565b845281830160208181015190860152604080820151908601526060015167ffffffffffffffff8111610ac157818301601f8286860101011215610ac157808484010151906108db826133b1565b916108e9604051938461302b565b808352602083019184860160208360051b838a8a01010101116104fe576020818888010101925b60208360051b838a8a010101018410610b62575050505060608501526080838301015167ffffffffffffffff8111610ac1576109539082840190858501016138cc565b608085015260a0838301015167ffffffffffffffff8111610ac157818301601f8286860101011215610ac15780848401015161098e816133b1565b9161099c604051938461302b565b818352602083019084860160208460051b838a8a01010101116104fe576020818888010101915b60208460051b838a8a010101018310610ac5575050505060a085015260c0838301015167ffffffffffffffff8111610ac15783830101818301601f82011215610ac157805190610a12826133b1565b92610a20604051948561302b565b8284526020606081860194028301019181860183116104fe57602001925b828410610a7c575050505060c0840152610a7190610a6083820160e0016138b8565b60e08501526101009201820161381d565b9082015291386102b4565b60608483880103126104fe576020606091604051610a9981612ff3565b610aa2876138b8565b8152828701518382015260408701516040820152815201930192610a3e565b8580fd5b825167ffffffffffffffff8111610b5e576040888a0184018201888a0103601f190112610b5e5760405190610af98261300f565b610b0b602082868d8d010101016138b8565b8252604081858c8c01010101519067ffffffffffffffff8211610b5a579260209392610b498b868096958f968a8f98849986019501010101016138cc565b8382015281520193019290506109c3565b8c80fd5b8a80fd5b835167ffffffffffffffff8111610b5e576060888a0184018201888a0103601f190112610b5e5760405190610b9682612ff3565b602081858c8c010101015167ffffffffffffffff8111610b5a5792602093926060859493878e8e610bd68f988a809a840191878787870101010101613876565b8652010101604081810151868501529101519082015281529190950194019050610910565b634e487b7160e01b600052604160045260246000fd5b8380fd5b60405162461bcd60e51b815260206004820152601360248201527f6572726f725f7374616b655265717569726564000000000000000000000000006044820152606490fd5b80fd5b5034610c5a576020366003190112610c5a57610c77613100565b610c7f613402565b6001600160a01b03811615610c9a57610c979061345a565b80f35b60405162461bcd60e51b815260206004820152602660248201527f4f776e61626c653a206e6577206f776e657220697320746865207a65726f206160448201527f64647265737300000000000000000000000000000000000000000000000000006064820152608490fd5b5034610c5a576020366003190112610c5a57610d1f613100565b610d27613402565b6001600160a01b0361010c91166001600160a01b031982541617905580f35b5034610c5a576040366003190112610c5a57610c97600435610d6f610d696130ea565b82613c01565b613de5565b5034610c5a5780600319360112610c5a57806001600160a01b03808061010554165b168352610101602052600381816040862001541615610dc857610dc28280926040872001541693613703565b92610d96565b6001830184818511610ddf57602082604051908152f35b634e487b7160e01b81526011600452602490fd5b5034610c5a5780600319360112610c5a573381526101046020526040812033600052602052610e2733604060002054613c01565b338152610103602052610e3d6040822054613de5565b610c9733614130565b5034610c5a5780600319360112610c5a57602060fe54604051908152f35b5034610c5a5780600319360112610c5a57610c9733614130565b5034610c5a576020366003190112610c5a57600560406020926001600160a01b03610ea7613100565b1681526101018452200154604051908152f35b5034610c5a5780600319360112610c5a5761010054610ef1610edb826133b1565b91610ee9604051938461302b565b8083526133b1565b6020828101939091601f19013685376001600160a01b0392836101055416928260019485805b610f5a575b505050604051948186019282875251809352604086019693905b838210610f435786880387f35b845181168852968201969382019390850190610f36565b90869896919593949515610fa4575b839088610f768589613728565b911680915284526101018552610f958860036040872001541693613703565b91969895949395929192610f17565b878116610f695797959794939294610f1c565b5034610c5a5780600319360112610c5a5760206001600160a01b036101065416604051908152f35b5034610c5a576020366003190112610c5a5760043567ffffffffffffffff81116107b957611011903690600401613116565b60ff60fb5416158015611073575b1561102e57610c979133613ede565b60405162461bcd60e51b815260206004820152601160248201527f6572726f725f6e6f74417070726f7665640000000000000000000000000000006044820152606490fd5b5033835261010260205260ff60408420541660038110156110965760011461101f565b634e487b7160e01b84526021600452602484fd5b5034610c5a576040366003190112610c5a576110c4613100565b60406110ce6130ea565b926001600160a01b0380931681526101046020522091166000526020526020604060002054604051908152f35b505061000f613394565b5034610c5a576020806003193601126107b957600435600260c9541461132757600260c95580156112e2576001600160a01b0361010960248483835416604051928380926370a0823160e01b82523360048301525afa80156104f357849187916112b1575b501061126c579160648492869433865261010385526040862061118e85825461397d565b905561119c8460fc5461397d565b60fc5554169160405194859384926323b872dd60e01b845233600485015230602485015260448401525af1801561126157839061122c575b600191501515036111e85750600160c95580f35b6064906040519062461bcd60e51b82526004820152601760248201527f6572726f725f756e7375636365737366756c5374616b650000000000000000006044820152fd5b508181813d831161125a575b611242818361302b565b810103126107aa5761125560019161381d565b6111d4565b503d611238565b6040513d85823e3d90fd5b60405162461bcd60e51b815260048101859052601960248201527f6572726f725f696e73756666696369656e7442616c616e6365000000000000006044820152606490fd5b809250868092503d83116112db575b6112ca818361302b565b81010312610ac1578390513861116a565b503d6112c0565b60405162461bcd60e51b815260048101839052601760248201527f6572726f725f696e73756666696369656e745374616b650000000000000000006044820152606490fd5b60405162461bcd60e51b815260048101839052601f60248201527f5265656e7472616e637947756172643a207265656e7472616e742063616c6c006044820152606490fd5b5034610c5a5780600319360112610c5a57602060ff60fb54166040519015158152f35b5034610c5a576020366003190112610c5a576001600160a01b036113b1613100565b16815261010260205260ff6040822054166040519060038110156113d757602092508152f35b634e487b7160e01b83526021600452602483fd5b5034610c5a5780600319360112610c5a57602061010054604051908152f35b5034610c5a5780600319360112610c5a5760206001600160a01b0360975416604051908152f35b5034610c5a576020366003190112610c5a57610c9761144e613100565b611456613402565b614130565b5034610c5a576020366003190112610c5a57611475613100565b61147d613402565b6001600160a01b0361010b91166001600160a01b031982541617905580f35b5034610c5a576020366003190112610c5a576114b6613100565b6114be613402565b6001600160a01b0361010a91166001600160a01b031982541617905580f35b5034610c5a576040366003190112610c5a57600435906114fb6130ea565b600260c9541461171457600260c95582156116cf576001600160a01b039261010993808554169460405180966370a0823160e01b82523360048301528160246020998a935afa9081156104f357908491879161169e575b5010611659578491869133845261010383526040842061157386825461397d565b90556115818560fc5461397d565b60fc5554166064604051809481936323b872dd60e01b83523360048401523060248401528760448401525af1801561164e578490611619575b600191501515036115d45790610c9791600160c955613a55565b60405162461bcd60e51b815260048101859052601760248201527f6572726f725f756e7375636365737366756c5374616b650000000000000000006044820152606490fd5b508481813d8311611647575b61162f818361302b565b81010312610c115761164260019161381d565b6115ba565b503d611625565b6040513d86823e3d90fd5b60405162461bcd60e51b815260048101879052601960248201527f6572726f725f696e73756666696369656e7442616c616e6365000000000000006044820152606490fd5b809250888092503d83116116c8575b6116b7818361302b565b81010312610ac15783905138611552565b503d6116ad565b60405162461bcd60e51b815260206004820152601760248201527f6572726f725f696e73756666696369656e745374616b650000000000000000006044820152606490fd5b60405162461bcd60e51b815260206004820152601f60248201527f5265656e7472616e637947756172643a207265656e7472616e742063616c6c006044820152606490fd5b5034610c5a5780600319360112610c5a57611772613402565b60006001600160a01b036097546001600160a01b03198116609755167f8be0079c531659141344cd1fd0a4f28419497f9722a3daafe3b4186f6b6457e08280a380f35b5034610c5a576020366003190112610c5a5760406020916001600160a01b036117dc613100565b16815261010383522054604051908152f35b5034610c5a576020366003190112610c5a5780602061187c600435611811613402565b6118388160fd54611824818311156137c4565b6118308260fc54613810565b60fc55613810565b60fd556001600160a01b0361010954169060405194858094819363a9059cbb60e01b83523360048401602090939291936001600160a01b0360408201951681520152565b03925af19081156107ae57829161189d575b506001610c979115151461382a565b90506020813d82116118d4575b816118b76020938361302b565b810103126107b95760016118cd610c979261381d565b915061188e565b3d91506118aa565b5034610c5a576020366003190112610c5a5760206119006118fb613100565b6144c5565b6040519015158152f35b5034610c5a5780600319360112610c5a57602060fd54604051908152f35b5034610c5a576020366003190112610c5a576001600160a01b0361194a613100565b611952613402565b1680825261010260205260408220805460ff191660011790557fdfe83f699699403a4b116b6f9504680228c3f319bbf5ab26b48a81d3005d98b28280a280f35b5034610c5a5780600319360112610c5a576001600160a01b037f00000000000000000000000000000000000000000000000000000000000000001630036119fd5760206040517f360894a13ba1a3210667c828492db98dca3e2076cc3735a920a3ca505d382bbc8152f35b60405162461bcd60e51b815260206004820152603860248201527f555550535570677261646561626c653a206d757374206e6f742062652063616c60448201527f6c6564207468726f7567682064656c656761746563616c6c00000000000000006064820152608490fd5b506040366003190112610c5a57611a7d613100565b90602491823567ffffffffffffffff81116107aa57366023820112156107aa57806004013590611aac8261304d565b611ab9604051918261302b565b8281526020928382019236888383010111611df157818792898793018637830101526001600160a01b03807f00000000000000000000000000000000000000000000000000000000000000001690611b13823014156134a2565b611b427f360894a13ba1a3210667c828492db98dca3e2076cc3735a920a3ca505d382bbc928284541614613514565b611b4a613402565b7f4910fdfa16fed3260ed0e7147f7cc6da11a60208b5b9406d12a635614ffd91435460ff1615611b84575050505050610c97919250613586565b8596949616906040516352d1902d60e01b81528781600481865afa60009181611dc2575b50611c085760405162461bcd60e51b815260048101899052602e818b01527f45524331393637557067726164653a206e657720696d706c656d656e7461746960448201526d6f6e206973206e6f74205555505360901b6064820152608490fd5b979192939496959703611d6d57611c1e87613586565b604051917fbc7cd75a20ee27fd9adebab32041f755214dbc6bffa90cc0225b39da2e5c2d3b600080a2825115801590611d65575b611c61575b5050505050905080f35b863b15611d15575050611d019394600092839251915af43d15611d0d573d90611c898261304d565b91611c97604051938461302b565b82523d60008484013e5b7f416464726573733a206c6f772d6c6576656c2064656c65676174652063616c6c60405193611ccf85612ff3565b602785528401527f206661696c6564000000000000000000000000000000000000000000000000006040840152613634565b50803880808080611c57565b606090611ca1565b62461bcd60e51b8252600482018590526026908201527f416464726573733a2064656c65676174652063616c6c20746f206e6f6e2d636f6044820152651b9d1c9858dd60d21b6064820152608490fd5b506001611c52565b8460296084926040519262461bcd60e51b845260048401528201527f45524331393637557067726164653a20756e737570706f727465642070726f786044820152681a58589b195555525160ba1b6064820152fd5b90918982813d8311611dea575b611dd9818361302b565b81010312610c5a5750519038611ba8565b503d611dcf565b8680fd5b5034610c5a5780600319360112610c5a57611e25611e116133c9565b6040519182916020835260208301906130c5565b0390f35b5034610c5a5780600319360112610c5a5760206001600160a01b036101055416604051908152f35b5034610c5a5760e0366003190112610c5a57611e6b613100565b60243580151581036107aa57604435906001600160a01b038216809203610c11576084356001600160a01b03811681036103df5760a4359267ffffffffffffffff8411610ac15736602385011215610ac1578360040135611ecb816133b1565b94611ed9604051968761302b565b8186526024602087019260051b820101903682116104fe57602401915b8183106126815750505067ffffffffffffffff60c43511610ac15736602360c435011215610ac15767ffffffffffffffff60c4356004013511610ac15736602460c4356004013560051b60c435010111610ac15785549260ff8460081c161593848095612674575b801561265d575b156125f25760ff19808216600117895560ff91866125e1575b50611f9160c43560040135885114613678565b831515806125d6575b611fa390613678565b611fbb828a5460081c16611fb681613752565b613752565b611fc43361345a565b611fe0828a5460081c16611fd781613752565b611fb681613752565b600160c95560fb5416911515161760fb556001600160a01b03199061010981838254161790558160ff54161760ff5560643560fe556001600160a01b0382169061010d54161761010d55846120336133c9565b9161203c61335b565b906001600160a01b0381163b156107aa5761207693836001600160a01b03604051809781968295630ef8cdc760e01b8452600484016136c4565b0393165af180156103eb576125c3575b50836001600160a01b0361010d541661209d613069565b6120a561335b565b823b15610c11576120cf92849283604051809681958294630ef8cdc760e01b8452600484016136c4565b03925af180156107ae576125af575b50506120e9306144f9565b61212f60206120f66133c9565b92604051938161210f86935180928680870191016130a2565b8201612123825180938680850191016130a2565b0103808452018261302b565b80519067ffffffffffffffff82116124b657819061214f61010754613144565b601f811161255f575b50602090601f83116001146124d55787926124ca575b50508160011b916000199060031b1c191617610107555b61218e306144f9565b61219b60206120f6613069565b80519067ffffffffffffffff82116124b65781906121bb61010854613144565b601f811161245b575b50602090601f83116001146123d15787926123c6575b50508160011b916000199060031b1c191617610108555b836001600160a01b0361010d5416803b156107b957816040518092632337c3c760e11b82526040600483015281838161222c6044820161317e565b6003602483015203925af180156107ae576123b2575b506001600160a01b0361010d5416803b156107b957816040518092632337c3c760e11b82526040600483015281838161227d60448201613235565b6003602483015203925af180156107ae5761239e575b505b825181101561233d576001600160a01b036122b08285613728565b51169060c435600401358110156123295760248160051b60c43501013560421960c435360301811215611df15760c435019167ffffffffffffffff602484013511611df157602483013536036044840113611df1576123249261059b91612315613402565b60446024830135920190613ede565b612295565b634e487b7160e01b86526032600452602486fd5b848285612348613402565b6001600160a01b03811615610c9a576123609061345a565b6123675780f35b61ff001981541681557f7f26b83ff96e1f2b6a682f133852f6798a09c465da95921460cefb3847402498602060405160018152a180f35b6123a790612fdf565b610c11578338612293565b6123bb90612fdf565b610c11578338612242565b0151905038806121da565b925061010887527f8543e9adbfbe1f62b7411fdf032fcfea758a7d6b332f64d971a1334c2ff364dd9087935b601f1984168510612440576001945083601f19811610612427575b505050811b01610108556121f1565b015160001960f88460031b161c19169055388080612418565b818101518355602094850194600190930192909101906123fd565b6124a6906101086000527f8543e9adbfbe1f62b7411fdf032fcfea758a7d6b332f64d971a1334c2ff364dd601f850160051c810191602086106124ac575b601f0160051c01906136ec565b386121c4565b9091508190612499565b634e487b7160e01b86526041600452602486fd5b01519050388061216e565b925061010787527f47c4908e245f386bfc1825973249847f4053a761ddb4880ad63c323a7b5a2a259087935b601f1984168510612544576001945083601f1981161061252b575b505050811b0161010755612185565b015160001960f88460031b161c1916905538808061251c565b81810151835560209485019460019093019290910190612501565b6125a9906101076000527f47c4908e245f386bfc1825973249847f4053a761ddb4880ad63c323a7b5a2a25601f850160051c810191602086106124ac57601f0160051c01906136ec565b38612158565b6125b890612fdf565b610c115783386120de565b6125cf90949194612fdf565b9238612086565b506064351515611f9a565b61ffff191661010117895538611f7e565b60405162461bcd60e51b815260206004820152602e60248201527f496e697469616c697a61626c653a20636f6e747261637420697320616c72656160448201527f647920696e697469616c697a65640000000000000000000000000000000000006064820152608490fd5b50303b158015611f655750600160ff821614611f65565b50600160ff821610611f5e565b82356001600160a01b03811681036126a157815260209283019201611ef6565b8980fd5b5034610c5a576040366003190112610c5a57610c976126c26130ea565b600435613c01565b5034610c5a576040366003190112610c5a576004356024803567ffffffffffffffff8111610c1157612700903690600401613116565b9060ff60fb54161580156129b9575b15612975579061271f9133613ede565b600260c9541461293157600260c95581156128ed576001600160a01b039061010991808354169260405180946370a0823160e01b8252336004830152818560209788935afa80156128e257869188916128b1575b501061286d578591849133845261010383526040842061279488825461397d565b90556127a28760fc5461397d565b60fc5554166064604051809481936323b872dd60e01b835233600484015230888401528960448401525af180156103eb578590612838575b600191501515036127f557600160c95583610c973385613a55565b9060176064926040519262461bcd60e51b845260048401528201527f6572726f725f756e7375636365737366756c5374616b650000000000000000006044820152fd5b508281813d8311612866575b61284e818361302b565b810103126103df5761286160019161381d565b6127da565b503d612844565b60405162461bcd60e51b8152600481018590526019818501527f6572726f725f696e73756666696369656e7442616c616e6365000000000000006044820152606490fd5b809250868092503d83116128db575b6128ca818361302b565b81010312611df15785905138612773565b503d6128c0565b6040513d89823e3d90fd5b60649060176040519162461bcd60e51b8352602060048401528201527f6572726f725f696e73756666696369656e745374616b650000000000000000006044820152fd5b606490601f6040519162461bcd60e51b8352602060048401528201527f5265656e7472616e637947756172643a207265656e7472616e742063616c6c006044820152fd5b60405162461bcd60e51b8152602060048201526011818501527f6572726f725f6e6f74417070726f7665640000000000000000000000000000006044820152606490fd5b5033855261010260205260ff60408620541660038110156129dc5760011461270f565b634e487b7160e01b865260216004528386fd5b5034610c5a576020806003193601126107b957612a0a613100565b906001600160a01b03807f000000000000000000000000000000000000000000000000000000000000000016612a42813014156134a2565b612a717f360894a13ba1a3210667c828492db98dca3e2076cc3735a920a3ca505d382bbc918383541614613514565b612a79613402565b604051908382019282841067ffffffffffffffff851117612cfe578360405286835260ff7f4910fdfa16fed3260ed0e7147f7cc6da11a60208b5b9406d12a635614ffd91435416600014612ad5575050505050610c9790613586565b8596949516906040516352d1902d60e01b81528681600481865afa869181612ccf575b50612b595760405162461bcd60e51b815260048101889052602e60248201527f45524331393637557067726164653a206e657720696d706c656d656e7461746960448201526d6f6e206973206e6f74205555505360901b6064820152608490fd5b95949503612c7857612b6a86613586565b604051907fbc7cd75a20ee27fd9adebab32041f755214dbc6bffa90cc0225b39da2e5c2d3b8680a2815115801590612c71575b612bab575b50505050905080f35b853b15612c2057509280948192612c159551915af43d15611d0d573d90612bd18261304d565b91612bdf604051938461302b565b82523d858484013e7f416464726573733a206c6f772d6c6576656c2064656c65676174652063616c6c60405193611ccf85612ff3565b508038808080612ba2565b62461bcd60e51b815260048101849052602660248201527f416464726573733a2064656c65676174652063616c6c20746f206e6f6e2d636f6044820152651b9d1c9858dd60d21b6064820152608490fd5b5084612b9d565b60405162461bcd60e51b815260048101859052602960248201527f45524331393637557067726164653a20756e737570706f727465642070726f786044820152681a58589b195555525160ba1b6064820152608490fd5b9091508781813d8311612cf7575b612ce7818361302b565b81010312611df157519038612af8565b503d612cdd565b634e487b7160e01b87526041600452602487fd5b5034610c5a576020366003190112610c5a57610c97600435613de5565b5034610c5a576020366003190112610c5a576001600160a01b03612d51613100565b612d59613402565b1680825261010260205260408220805460ff191660021790557fbbe2a784aa6240d8175fa65a8459058efd8f44c5ab66caa2525fe9d6342108788280a280f35b5034610c5a576020366003190112610c5a576004358015158091036107b957612dc0613402565b60ff1960fb541660ff82161760fb557f7623db9c426686f05cec977c4cadb8ff9657502540ca665ae347731114dac69d8280a280f35b5034610c5a576020366003190112610c5a57610c97612e13613100565b612e1b613402565b612e23613402565b6001600160a01b03811680845261010260205260408420805460ff191660021790557fbbe2a784aa6240d8175fa65a8459058efd8f44c5ab66caa2525fe9d6342108788480a2611456613402565b5034610c5a576020366003190112610c5a5760406001600160a01b039182612e97613100565b1681526101016020522080549060405192612ec084612eb981600186016132c6565b038561302b565b6002820154916005826003830154169260048301541691015491612ef6604051968796875260c0602088015260c08701906130c5565b9360408601526060850152608084015260a08301520390f35b5034610c5a5780600319360112610c5a57602060fc54604051908152f35b5034610c5a576040366003190112610c5a57612f47613100565b6024359067ffffffffffffffff82116107aa57612f6b610c97923690600401613116565b91612f74613402565b613ede565b5034610c5a576040366003190112610c5a57610c97612f966130ea565b600435613a55565b5034610c5a5780600319360112610c5a57611e25611e11613069565b9050346107b957816003193601126107b9576020906001600160a01b0360ff54168152f35b67ffffffffffffffff8111610bfb57604052565b6060810190811067ffffffffffffffff821117610bfb57604052565b6040810190811067ffffffffffffffff821117610bfb57604052565b90601f8019910116810190811067ffffffffffffffff821117610bfb57604052565b67ffffffffffffffff8111610bfb57601f01601f191660200190565b604051906130768261300f565b600f82527f2f6c6f6773746f72652d717565727900000000000000000000000000000000006020830152565b60005b8381106130b55750506000910152565b81810151838201526020016130a5565b906020916130de815180928185528580860191016130a2565b601f01601f1916010190565b602435906001600160a01b038216820361000f57565b600435906001600160a01b038216820361000f57565b9181601f8401121561000f5782359167ffffffffffffffff831161000f576020838186019501011161000f57565b90600182811c92168015613174575b602083101461315e57565b634e487b7160e01b600052602260045260246000fd5b91607f1691613153565b9060009161010790815461319181613144565b8083529260019180831690811561321057506001146131b1575b50505050565b90929394506000527f47c4908e245f386bfc1825973249847f4053a761ddb4880ad63c323a7b5a2a25916000925b8484106131f857505060209250010190388080806131ab565b805460208585018101919091529093019281016131df565b92505050602093945060ff929192191683830152151560051b010190388080806131ab565b9060009161010890815461324881613144565b8083529260019180831690811561321057506001146132675750505050565b90929394506000527f8543e9adbfbe1f62b7411fdf032fcfea758a7d6b332f64d971a1334c2ff364dd916000925b8484106132ae57505060209250010190388080806131ab565b80546020858501810191909152909301928101613295565b90600092918054916132d783613144565b91828252600193848116908160001461333857506001146132f85750505050565b90919394506000526020928360002092846000945b8386106133245750505050010190388080806131ab565b80548587018301529401938590820161330d565b9294505050602093945060ff191683830152151560051b010190388080806131ab565b604051906133688261300f565b601382527f7b2022706172746974696f6e73223a2031207d000000000000000000000000006020830152565b503461000f57600036600319011261000f57611e25611e1161335b565b67ffffffffffffffff8111610bfb5760051b60200190565b604051906133d68261300f565b601082527f2f6c6f6773746f72652d73797374656d000000000000000000000000000000006020830152565b6001600160a01b0360975416330361341657565b606460405162461bcd60e51b815260206004820152602060248201527f4f776e61626c653a2063616c6c6572206973206e6f7420746865206f776e65726044820152fd5b609754906001600160a01b0380911691826001600160a01b0319821617609755167f8be0079c531659141344cd1fd0a4f28419497f9722a3daafe3b4186f6b6457e0600080a3565b156134a957565b60405162461bcd60e51b815260206004820152602c60248201527f46756e6374696f6e206d7573742062652063616c6c6564207468726f7567682060448201527f64656c656761746563616c6c00000000000000000000000000000000000000006064820152608490fd5b1561351b57565b60405162461bcd60e51b815260206004820152602c60248201527f46756e6374696f6e206d7573742062652063616c6c6564207468726f7567682060448201527f6163746976652070726f787900000000000000000000000000000000000000006064820152608490fd5b803b156135c9576001600160a01b037f360894a13ba1a3210667c828492db98dca3e2076cc3735a920a3ca505d382bbc91166001600160a01b0319825416179055565b60405162461bcd60e51b815260206004820152602d60248201527f455243313936373a206e657720696d706c656d656e746174696f6e206973206e60448201527f6f74206120636f6e7472616374000000000000000000000000000000000000006064820152608490fd5b90919015613640575090565b8151156136505750805190602001fd5b60405162461bcd60e51b8152602060048201529081906136749060248301906130c5565b0390fd5b1561367f57565b60405162461bcd60e51b815260206004820152601460248201527f6572726f725f626164547261636b6572446174610000000000000000000000006044820152606490fd5b90916136db6136e9936040845260408401906130c5565b9160208184039101526130c5565b90565b8181106136f7575050565b600081556001016136ec565b60001981146137125760010190565b634e487b7160e01b600052601160045260246000fd5b805182101561373c5760209160051b010190565b634e487b7160e01b600052603260045260246000fd5b1561375957565b60405162461bcd60e51b815260206004820152602b60248201527f496e697469616c697a61626c653a20636f6e7472616374206973206e6f74206960448201527f6e697469616c697a696e670000000000000000000000000000000000000000006064820152608490fd5b156137cb57565b60405162461bcd60e51b815260206004820152601460248201527f6572726f725f6e6f74456e6f7567685374616b650000000000000000000000006044820152606490fd5b9190820391821161371257565b5190811515820361000f57565b1561383157565b60405162461bcd60e51b815260206004820152601a60248201527f6572726f725f756e7375636365737366756c57697468647261770000000000006044820152606490fd5b81601f8201121561000f57805161388c8161304d565b9261389a604051948561302b565b8184526020828401011161000f576136e991602080850191016130a2565b51906001600160a01b038216820361000f57565b81601f8201121561000f578051906138e3826133b1565b926040926138f38451958661302b565b808552602091828087019260061b8501019381851161000f578301915b8483106139205750505050505090565b858383031261000f5783869182516139378161300f565b613940866138b8565b81528286015183820152815201920191613910565b90918060409360208452816020850152848401376000828201840152601f01601f1916010190565b9190820180921161371257565b9190916000838201938412911290801582169115161761371257565b156139ad57565b606460405162461bcd60e51b815260206004820152602060248201527f6572726f725f696e73756666696369656e7444656c6567617465416d6f756e746044820152fd5b156139f857565b60405162461bcd60e51b815260206004820152601160248201527f6572726f725f696e76616c69644e6f64650000000000000000000000000000006044820152606490fd5b805482101561373c5760005260206000200190600090565b9190613a628315156139a6565b6001600160a01b03811690600093828552610101602092818452604092613a906002858a20015415156139f1565b3388526101038552838820613aa6828254613810565b905533885261010485528388208689528552838820613ac682825461397d565b9055858852828552613adf6005858a200191825461397d565b9055848752818452600783882001338852845260ff838820541615613b40575b7fcf939c6aa5e54a02f6433632298ef92d8600b2e56030790abb22fb9b3ab25d7e949596600592613b308593614328565b87825285522001549051908152a2565b84875281845260068388200180549068010000000000000000821015613bed5792613b308593613bc1613b9f8560059860017fcf939c6aa5e54a02f6433632298ef92d8600b2e56030790abb22fb9b3ab25d7e9d9e9f98018155613a3d565b81546001600160a01b0360039290921b91821b80199091163390921b16179055565b8984528288528484203385526007018852938320805460ff191660011790555090979695509150613aff565b634e487b7160e01b89526041600452602489fd5b919091613c0f8115156139a6565b6001600160a01b038084169160009483865261010190602093828552604093613c3f6002868b20015415156139f1565b3389526101048652848920878a528652848920613c5d828254613810565b90558689528386526005858a2001613c76828254613810565b90553389526101038652613c8e858a2091825461397d565b905587868952838652600680868b2001548a805b828110613da6575b5089905250848752858a20810180546000199391848201918211613d925785613cf1613d1c948f8c8f95918f97613ce38f918c95613a3d565b999054988352522001613a3d565b92909360031b1c169082549060031b916001600160a01b039283811b93849216901b16911916179055565b878a52848752858a20019081548015613d7e57937fcf939c6aa5e54a02f6433632298ef92d8600b2e56030790abb22fb9b3ab25d7e98999a9360059693613b309389970191613d6b8383613a3d565b909182549160031b1b1916905555614328565b634e487b7160e01b8b52603160045260248bfd5b634e487b7160e01b8d52601160045260248dfd5b8a8252878a5285613dbb82868c862001613a3d565b90549060031b1c163314613dd757613dd290613703565b613ca2565b929350505090388a81613caa565b600033815280610103613e6f6020948286938452613e0960408620548311156137c4565b338552835260408420613e1d828254613810565b9055613e2b8160fc54613810565b60fc556001600160a01b0361010954169060405195868094819363a9059cbb60e01b83523360048401602090939291936001600160a01b0360408201951681520152565b03925af1928315613ed1578193613e94575b5050506001613e929115151461382a565b565b9091809350813d8311613eca575b613eac818361302b565b81010312610c5a57506001613ec3613e929261381d565b9138613e81565b503d613ea2565b50604051903d90823e3d90fd5b91906001600160a01b0380931691600093838552602091610101835260408620866002820193845415614080575b5060018092019567ffffffffffffffff841161406c57613f2c8754613144565b601f811161403e575b5081601f8511600114613fb557937f7b8ea65757bf0d882563917834f76c4df069ea7e489c9fc65bf764289792e33497959381938293613f9f999794613faa575b50501b916000199060031b1c19161783555b4290556040519283926040845260408401906132c6565b9042908301520390a3565b013592503880613f76565b91601f949394198416888452878420935b818110614029575091613f9f97959391857f7b8ea65757bf0d882563917834f76c4df069ea7e489c9fc65bf764289792e3349a9896941061400f575b505050811b018355613f88565b0135600019600384901b60f8161c19169055388080614002565b83830135855593860193918801918801613fc6565b61406690888452878420601f870160051c8101918988106124ac57601f0160051c01906136ec565b38613f35565b634e487b7160e01b82526041600452602482fd5b97506001976101059080825416156000146140e55750876001600160a01b03198254161790555b610106876001600160a01b03198254161790556101008054908982018092116140d1575538613f0c565b634e487b7160e01b83526011600452602483fd5b90506101069080825416835260036040842001916001600160a01b0319928a84825416179055541660048401918254161790556101005482556140a7565b8015613712576000190190565b6001600160a01b0380911690600090828252610101602090808252604090818520926002840154156142e55786865281815282862093868555856001918883880161417b8154613144565b806142a9575b5050600288015560066003978a898201558a60048201558a60058201550180548a825580614290575b5050600481018a8884835416930192848454168c528787526004898d20016001600160a01b031991828254161790556101058054838782161461427f575b505084610106938454938285161461426e575b50505050509082915416905b614239575b50505050505050807fcfc24166db4bb677e857cacabd1541fb2b30645021b27c5130419589b84db52b91a2565b86168015614269578088528383528488206142548154614123565b90558752828252858585892001541681614207565b61420c565b5416911617905538808084816141fb565b8287875416911617905538806141e8565b6142a2918b52858b20908101906136ec565b38806141aa565b601f81116001146142bf5750555b883880614181565b8183528683206142d991601f0160051c81019087016136ec565b818681209155556142b7565b60649083519062461bcd60e51b82526004820152600e60248201527f6572726f725f6e6f74466f756e640000000000000000000000000000000000006044820152fd5b9060006001600160a01b038093168082526101016020526040906005828420015460fe5411156000146144325761010d948086541695863b156103df5783518581634cbf455560e11b998a82526060600483015281838161438b6064820161317e565b8a60248301526002604483015203925af1801561442857908691614414575b5050541694853b15610c115790839495849284519586809481938252606060048301526143d960648301613235565b9060248301526002604483015203925af190811561440b57506143fa575050565b6144048291612fdf565b610c5a5750565b513d84823e3d90fd5b61441d90612fdf565b6103df5784386143aa565b85513d88823e3d90fd5b61010d948086541695863b156103df5783518581631f1cbd7560e11b998a8252606060048301528183816144686064820161317e565b8a60248301526002604483015203925af18015614428576144b2575b50541694853b15610c115790839495849284519586809481938252606060048301526143d960648301613235565b6144be90959195612fdf565b9338614484565b60fe5480151591826144d657505090565b6001600160a01b0391925016600052610101602052600560406000200154101590565b6001600160a01b03166040519061450f82612ff3565b602a8252602090818301604036823783511561373c5760309053825160019081101561373c57607860218501536029905b808211614594575050614551575090565b6064906040519062461bcd60e51b825280600483015260248201527f537472696e67733a20686578206c656e67746820696e73756666696369656e746044820152fd5b9091600f81169060108210156145e85785518410156145e8577f30313233343536373839616263646566000000000000000000000000000000006145e2921a85858801015360041c92614123565b90614540565b60246000634e487b7160e01b81526032600452fdfea26469706673582212209ab5d8455a7df7c3aab49d42f54bee42d5bc2a4570c4e16f6a2071f4148bb7ae64736f6c63430008110033",
  "linkReferences": {},
  "deployedLinkReferences": {}
}