{
  "_format": "hh-sol-artifact-1",
  "contractName": "LogStoreNodeManager",
  "sourceName": "src/NodeManager.sol",
  "abi": [
    {
      "anonymous": false,
      "inputs": [
        {
          "indexed": false,
          "internalType": "address",
          "name": "previousAdmin",
          "type": "address"
        },
        {
          "indexed": false,
          "internalType": "address",
          "name": "newAdmin",
          "type": "address"
        }
      ],
      "name": "AdminChanged",
      "type": "event"
    },
    {
      "anonymous": false,
      "inputs": [
        {
          "indexed": true,
          "internalType": "address",
          "name": "beacon",
          "type": "address"
        }
      ],
      "name": "BeaconUpgraded",
      "type": "event"
    },
    {
      "anonymous": false,
      "inputs": [
        {
          "indexed": false,
          "internalType": "uint8",
          "name": "version",
          "type": "uint8"
        }
      ],
      "name": "Initialized",
      "type": "event"
    },
    {
      "anonymous": false,
      "inputs": [
        {
          "indexed": true,
          "internalType": "address",
          "name": "nodeAddress",
          "type": "address"
        }
      ],
      "name": "NodeRemoved",
      "type": "event"
    },
    {
      "anonymous": false,
      "inputs": [
        {
          "indexed": true,
          "internalType": "address",
          "name": "nodeAddress",
          "type": "address"
        },
        {
          "indexed": false,
          "internalType": "uint256",
          "name": "stake",
          "type": "uint256"
        }
      ],
      "name": "NodeStakeUpdated",
      "type": "event"
    },
    {
      "anonymous": false,
      "inputs": [
        {
          "indexed": true,
          "internalType": "address",
          "name": "nodeAddress",
          "type": "address"
        },
        {
          "indexed": false,
          "internalType": "string",
          "name": "metadata",
          "type": "string"
        },
        {
          "indexed": true,
          "internalType": "uint256",
          "name": "isNew",
          "type": "uint256"
        },
        {
          "indexed": false,
          "internalType": "uint256",
          "name": "lastSeen",
          "type": "uint256"
        }
      ],
      "name": "NodeUpdated",
      "type": "event"
    },
    {
      "anonymous": false,
      "inputs": [
        {
          "indexed": true,
          "internalType": "address",
          "name": "nodeAddress",
          "type": "address"
        }
      ],
      "name": "NodeWhitelistApproved",
      "type": "event"
    },
    {
      "anonymous": false,
      "inputs": [
        {
          "indexed": true,
          "internalType": "address",
          "name": "nodeAddress",
          "type": "address"
        }
      ],
      "name": "NodeWhitelistRejected",
      "type": "event"
    },
    {
      "anonymous": false,
      "inputs": [
        {
          "indexed": true,
          "internalType": "address",
          "name": "previousOwner",
          "type": "address"
        },
        {
          "indexed": true,
          "internalType": "address",
          "name": "newOwner",
          "type": "address"
        }
      ],
      "name": "OwnershipTransferred",
      "type": "event"
    },
    {
      "anonymous": false,
      "inputs": [
        {
          "indexed": false,
          "internalType": "string",
          "name": "id",
          "type": "string"
        }
      ],
      "name": "ReportProcessed",
      "type": "event"
    },
    {
      "anonymous": false,
      "inputs": [
        {
          "indexed": true,
          "internalType": "bool",
          "name": "value",
          "type": "bool"
        }
      ],
      "name": "RequiresWhitelistChanged",
      "type": "event"
    },
    {
      "anonymous": false,
      "inputs": [
        {
          "indexed": true,
          "internalType": "address",
          "name": "implementation",
          "type": "address"
        }
      ],
      "name": "Upgraded",
      "type": "event"
    },
    {
      "inputs": [
        {
          "internalType": "address",
          "name": "",
          "type": "address"
        }
      ],
      "name": "balanceOf",
      "outputs": [
        {
          "internalType": "uint256",
          "name": "",
          "type": "uint256"
        }
      ],
      "stateMutability": "view",
      "type": "function"
    },
    {
      "inputs": [],
      "name": "countNodes",
      "outputs": [
        {
          "internalType": "uint256",
          "name": "",
          "type": "uint256"
        }
      ],
      "stateMutability": "view",
      "type": "function"
    },
    {
      "inputs": [
        {
          "internalType": "uint256",
          "name": "amount",
          "type": "uint256"
        },
        {
          "internalType": "address",
          "name": "node",
          "type": "address"
        }
      ],
      "name": "delegate",
      "outputs": [],
      "stateMutability": "nonpayable",
      "type": "function"
    },
    {
      "inputs": [
        {
          "internalType": "uint256",
          "name": "amount",
          "type": "uint256"
        },
        {
          "internalType": "address",
          "name": "node",
          "type": "address"
        }
      ],
      "name": "delegateStake",
      "outputs": [],
      "stateMutability": "nonpayable",
      "type": "function"
    },
    {
      "inputs": [
        {
          "internalType": "address",
          "name": "",
          "type": "address"
        },
        {
          "internalType": "address",
          "name": "",
          "type": "address"
        }
      ],
      "name": "delegatesOf",
      "outputs": [
        {
          "internalType": "uint256",
          "name": "",
          "type": "uint256"
        }
      ],
      "stateMutability": "view",
      "type": "function"
    },
    {
      "inputs": [],
      "name": "headNode",
      "outputs": [
        {
          "internalType": "address",
          "name": "",
          "type": "address"
        }
      ],
      "stateMutability": "view",
      "type": "function"
    },
    {
      "inputs": [
        {
          "internalType": "address",
          "name": "owner",
          "type": "address"
        },
        {
          "internalType": "bool",
          "name": "requiresWhitelist_",
          "type": "bool"
        },
        {
          "internalType": "address",
          "name": "stakeTokenAddress_",
          "type": "address"
        },
        {
          "internalType": "uint256",
          "name": "stakeRequiredAmount_",
          "type": "uint256"
        },
        {
          "internalType": "address[]",
          "name": "initialNodes",
          "type": "address[]"
        },
        {
          "internalType": "string[]",
          "name": "initialMetadata",
          "type": "string[]"
        }
      ],
      "name": "initialize",
      "outputs": [],
      "stateMutability": "nonpayable",
      "type": "function"
    },
    {
      "inputs": [
        {
          "internalType": "address",
          "name": "node",
          "type": "address"
        }
      ],
      "name": "isStaked",
      "outputs": [
        {
          "internalType": "bool",
          "name": "",
          "type": "bool"
        }
      ],
      "stateMutability": "view",
      "type": "function"
    },
    {
      "inputs": [
        {
          "internalType": "uint256",
          "name": "amount",
          "type": "uint256"
        },
        {
          "internalType": "string",
          "name": "metadata_",
          "type": "string"
        }
      ],
      "name": "join",
      "outputs": [],
      "stateMutability": "nonpayable",
      "type": "function"
    },
    {
      "inputs": [
        {
          "internalType": "address",
          "name": "nodeAddress",
          "type": "address"
        }
      ],
      "name": "kickNode",
      "outputs": [],
      "stateMutability": "nonpayable",
      "type": "function"
    },
    {
      "inputs": [],
      "name": "leave",
      "outputs": [],
      "stateMutability": "nonpayable",
      "type": "function"
    },
    {
      "inputs": [],
      "name": "nodeAddresses",
      "outputs": [
        {
          "internalType": "address[]",
          "name": "resultAddresses",
          "type": "address[]"
        }
      ],
      "stateMutability": "view",
      "type": "function"
    },
    {
      "inputs": [
        {
          "internalType": "address",
          "name": "node",
          "type": "address"
        }
      ],
      "name": "nodeStake",
      "outputs": [
        {
          "internalType": "uint256",
          "name": "",
          "type": "uint256"
        }
      ],
      "stateMutability": "view",
      "type": "function"
    },
    {
      "inputs": [
        {
          "internalType": "address",
          "name": "",
          "type": "address"
        }
      ],
      "name": "nodes",
      "outputs": [
        {
          "internalType": "uint256",
          "name": "index",
          "type": "uint256"
        },
        {
          "internalType": "string",
          "name": "metadata",
          "type": "string"
        },
        {
          "internalType": "uint256",
          "name": "lastSeen",
          "type": "uint256"
        },
        {
          "internalType": "address",
          "name": "next",
          "type": "address"
        },
        {
          "internalType": "address",
          "name": "prev",
          "type": "address"
        },
        {
          "internalType": "uint256",
          "name": "stake",
          "type": "uint256"
        }
      ],
      "stateMutability": "view",
      "type": "function"
    },
    {
      "inputs": [],
      "name": "owner",
      "outputs": [
        {
          "internalType": "address",
          "name": "",
          "type": "address"
        }
      ],
      "stateMutability": "view",
      "type": "function"
    },
    {
      "inputs": [
        {
          "internalType": "string",
          "name": "id",
          "type": "string"
        }
      ],
      "name": "processReport",
      "outputs": [],
      "stateMutability": "nonpayable",
      "type": "function"
    },
    {
      "inputs": [],
      "name": "proxiableUUID",
      "outputs": [
        {
          "internalType": "bytes32",
          "name": "",
          "type": "bytes32"
        }
      ],
      "stateMutability": "view",
      "type": "function"
    },
    {
      "inputs": [
        {
          "internalType": "address",
          "name": "contractAddress",
          "type": "address"
        }
      ],
      "name": "registerQueryManager",
      "outputs": [],
      "stateMutability": "nonpayable",
      "type": "function"
    },
    {
      "inputs": [
        {
          "internalType": "address",
          "name": "contractAddress",
          "type": "address"
        }
      ],
      "name": "registerReportManager",
      "outputs": [],
      "stateMutability": "nonpayable",
      "type": "function"
    },
    {
      "inputs": [
        {
          "internalType": "address",
          "name": "contractAddress",
          "type": "address"
        }
      ],
      "name": "registerStoreManager",
      "outputs": [],
      "stateMutability": "nonpayable",
      "type": "function"
    },
    {
      "inputs": [],
      "name": "removeNode",
      "outputs": [],
      "stateMutability": "nonpayable",
      "type": "function"
    },
    {
      "inputs": [
        {
          "internalType": "address",
          "name": "nodeAddress",
          "type": "address"
        }
      ],
      "name": "removeNodeAdmin",
      "outputs": [],
      "stateMutability": "nonpayable",
      "type": "function"
    },
    {
      "inputs": [],
      "name": "renounceOwnership",
      "outputs": [],
      "stateMutability": "nonpayable",
      "type": "function"
    },
    {
      "inputs": [],
      "name": "requiresWhitelist",
      "outputs": [
        {
          "internalType": "bool",
          "name": "",
          "type": "bool"
        }
      ],
      "stateMutability": "view",
      "type": "function"
    },
    {
      "inputs": [
        {
          "internalType": "bool",
          "name": "value",
          "type": "bool"
        }
      ],
      "name": "setRequiresWhitelist",
      "outputs": [],
      "stateMutability": "nonpayable",
      "type": "function"
    },
    {
      "inputs": [
        {
          "internalType": "uint256",
          "name": "amount",
          "type": "uint256"
        }
      ],
      "name": "stake",
      "outputs": [],
      "stateMutability": "nonpayable",
      "type": "function"
    },
    {
      "inputs": [],
      "name": "stakeRequiredAmount",
      "outputs": [
        {
          "internalType": "uint256",
          "name": "",
          "type": "uint256"
        }
      ],
      "stateMutability": "view",
      "type": "function"
    },
    {
      "inputs": [],
      "name": "tailNode",
      "outputs": [
        {
          "internalType": "address",
          "name": "",
          "type": "address"
        }
      ],
      "stateMutability": "view",
      "type": "function"
    },
    {
      "inputs": [],
      "name": "totalNodes",
      "outputs": [
        {
          "internalType": "uint256",
          "name": "",
          "type": "uint256"
        }
      ],
      "stateMutability": "view",
      "type": "function"
    },
    {
      "inputs": [],
      "name": "totalSupply",
      "outputs": [
        {
          "internalType": "uint256",
          "name": "",
          "type": "uint256"
        }
      ],
      "stateMutability": "view",
      "type": "function"
    },
    {
      "inputs": [
        {
          "internalType": "address",
          "name": "newOwner",
          "type": "address"
        }
      ],
      "name": "transferOwnership",
      "outputs": [],
      "stateMutability": "nonpayable",
      "type": "function"
    },
    {
      "inputs": [],
      "name": "treasurySupply",
      "outputs": [
        {
          "internalType": "uint256",
          "name": "",
          "type": "uint256"
        }
      ],
      "stateMutability": "view",
      "type": "function"
    },
    {
      "inputs": [
        {
          "internalType": "uint256",
          "name": "amount",
          "type": "uint256"
        }
      ],
      "name": "treasuryWithdraw",
      "outputs": [],
      "stateMutability": "nonpayable",
      "type": "function"
    },
    {
      "inputs": [
        {
          "internalType": "uint256",
          "name": "amount",
          "type": "uint256"
        },
        {
          "internalType": "address",
          "name": "node",
          "type": "address"
        }
      ],
      "name": "undelegate",
      "outputs": [],
      "stateMutability": "nonpayable",
      "type": "function"
    },
    {
      "inputs": [
        {
          "internalType": "uint256",
          "name": "amount",
          "type": "uint256"
        },
        {
          "internalType": "address",
          "name": "node",
          "type": "address"
        }
      ],
      "name": "undelegateWithdraw",
      "outputs": [],
      "stateMutability": "nonpayable",
      "type": "function"
    },
    {
      "inputs": [
        {
          "internalType": "address",
          "name": "newImplementation",
          "type": "address"
        }
      ],
      "name": "upgradeTo",
      "outputs": [],
      "stateMutability": "nonpayable",
      "type": "function"
    },
    {
      "inputs": [
        {
          "internalType": "address",
          "name": "newImplementation",
          "type": "address"
        },
        {
          "internalType": "bytes",
          "name": "data",
          "type": "bytes"
        }
      ],
      "name": "upgradeToAndCall",
      "outputs": [],
      "stateMutability": "payable",
      "type": "function"
    },
    {
      "inputs": [
        {
          "internalType": "string",
          "name": "metadata_",
          "type": "string"
        }
      ],
      "name": "upsertNode",
      "outputs": [],
      "stateMutability": "nonpayable",
      "type": "function"
    },
    {
      "inputs": [
        {
          "internalType": "address",
          "name": "node",
          "type": "address"
        },
        {
          "internalType": "string",
          "name": "metadata_",
          "type": "string"
        }
      ],
      "name": "upsertNodeAdmin",
      "outputs": [],
      "stateMutability": "nonpayable",
      "type": "function"
    },
    {
      "inputs": [
        {
          "internalType": "address",
          "name": "",
          "type": "address"
        }
      ],
      "name": "whitelist",
      "outputs": [
        {
          "internalType": "enum LogStoreNodeManager.WhitelistState",
          "name": "",
          "type": "uint8"
        }
      ],
      "stateMutability": "view",
      "type": "function"
    },
    {
      "inputs": [
        {
          "internalType": "address",
          "name": "nodeAddress",
          "type": "address"
        }
      ],
      "name": "whitelistApproveNode",
      "outputs": [],
      "stateMutability": "nonpayable",
      "type": "function"
    },
    {
      "inputs": [
        {
          "internalType": "address",
          "name": "nodeAddress",
          "type": "address"
        }
      ],
      "name": "whitelistRejectNode",
      "outputs": [],
      "stateMutability": "nonpayable",
      "type": "function"
    },
    {
      "inputs": [
        {
          "internalType": "uint256",
          "name": "amount",
          "type": "uint256"
        }
      ],
      "name": "withdraw",
      "outputs": [],
      "stateMutability": "nonpayable",
      "type": "function"
    }
  ],
  "bytecode": "0x60a08060405234610031573060805261355a9081610037823960805181818161147301528181611580015261196b0152f35b600080fdfe6080604052600436101561001257600080fd5b60003560e01c80628c580c14611f0b57806308bbb82414611ee75780631204c48614611e9c57806318160ddd14611e7e578063189a5a1714611d595780631ad603d014611cdd57806320a59a0314611c815780632af5758014611c175780632e1a7d4d14611bfb5780633659cfe6146119465780633cfb3d8a146118bd57806345e863e01461189957806346c198f6146118725780634f1ef2861461152e57806352d1902d146114585780635888799c146113ee5780635fc1a4b8146113d05780636177fd18146113a357806365267139146112b657806370258cdc1461128857806370a082311461124e578063715018a6146111f357806375ed25dc146111b357806379e574cb146111735780638ce155861461114a5780638da5cb5b146111235780639592d424146111055780639b19251a146110bf578063a5ee5b411461109c578063a694fc3a14611080578063abad29a81461102e578063b2a52fef14610f61578063bfdf086614610f3a578063c10b522214610e3b578063cd23d26814610dfe578063d0d3f5ba14610de4578063d5c7096614610dc6578063d66d9e1914610d75578063e04b0f1814610cf1578063e7b5895314610cc4578063e8d88aba14610c84578063f2fde38b14610bf55763f6883c05146101f457600080fd5b346103bf5760203660031901126103bf5760043567ffffffffffffffff81116103bf57366023820112156103bf57806004013567ffffffffffffffff81116103bf57602482019160248236920101116103bf57610250336134f1565b15610bb0576001600160a01b0360d7541690600060405180936312e63d7160e01b8252818061028386896004840161292f565b03915afa9182156103cc576000926107ba575b506101008201516107755760005b60609081840191825180518310156103d8576102c283604092612702565b5101516102da575b506102d591506126f3565b6102a4565b602061033e6001600160a01b0360d554166102f6858751612702565b5151600084610306888a51612702565b510151956040610317898b51612702565b5101519660405197889687958694639ac0e98b60e01b86526004860152606485019061240c565b916024840152604483015203925af180156103cc57610381575b506020610369826102d59451612702565b51015161037960ca918254612957565b9055386102ca565b6020813d6020116103c4575b8161039a60209383612304565b810103126103bf57610369826102d5946103b56020946127f7565b5094505050610358565b600080fd5b3d915061038d565b6040513d6000823e3d90fd5b84878760005b60c0820190815180518210156104cb576103fa82604092612702565b510151610411575b61040c91506126f3565b6103de565b6001600160a01b0360d65416916001600160a01b03610431838351612702565b5151166020610441848451612702565b5101516040610451858551612702565b51015194803b156103bf57600092836064926040519889958694631ee2efa360e31b86526004860152602485015260448401525af19283156103cc57826020926104a59261040c966104bc575b5051612702565b5101516104b560ca918254612957565b9055610402565b6104c5906122f0565b8961049e565b84868560005b608082018051805183101561058957906001600160a01b036104f78461055a9594612702565b51511660005260ce80602052600590836105288360406000200154602061051f848851612702565b51015190612964565b93600085131561055f576001600160a01b03916105459151612702565b515116600052602052604060002001556126f3565b6104d1565b600094506001600160a01b03916105769151612702565b51511683526020526040822001556126f3565b505050826000925b60a08301928351518510156106bf5760005b60206105b0878751612702565b510151518110156106ac57806001600160a01b036105e06106709360206105d88b8b51612702565b510151612702565b51511660206105f583826105d88c8c51612702565b510151906001600160a01b0361060c8a8a51612702565b51511660005261063360d19283602052604060002083600052602052604060002054612964565b916000831315610675576001600160a01b036106508b8b51612702565b5151166000526020526040600020906000526020526040600020556126f3565b6105a3565b9091506001600160a01b0361068b8a8a51612702565b515116600052602052604060002090600052602052600060408120556126f3565b509250926106b9906126f3565b92610591565b6106d190604060cb5491015190612964565b600081131561076a5760cb555b6001600160a01b0360d7541691823b156103bf576000604051809463f6883c0560e01b825281838161071488886004840161292f565b03925af19283156103cc577fbcd21d99bbf55769881dda49c45043a8750d2229c330cdddd4718575f72364029361075b575b506107566040519283928361292f565b0390a1005b610764906122f0565b83610746565b50600060cb556106de565b60405162461bcd60e51b815260206004820152601c60248201527f6572726f725f7265706f7274416c726561647950726f636573736564000000006044820152606490fd5b9091503d90816000823e6107ce8282612304565b60208183810103126103bf5780519067ffffffffffffffff82116103bf57610120928383830182840103126103bf5760405193840184811067ffffffffffffffff821117610b9a576040528282015167ffffffffffffffff81116103bf5761083d908284019085850101612850565b845281830160208181015190860152604080820151908601526060015167ffffffffffffffff81116103bf57818301601f82868601010112156103bf5780848401015161088981612326565b916108976040519384612304565b818352602083019084860160208460051b838a8a01010101116103bf576020818888010101915b60208460051b838a8a010101018310610b01575050505060608501526080838301015167ffffffffffffffff81116103bf576109019082840190858501016128a6565b608085015260a0838301015167ffffffffffffffff81116103bf57818301601f82868601010112156103bf5780848401015161093c81612326565b9161094a6040519384612304565b8183526020830184860160208460051b848a8a01010101116103bf576020828888010101905b60208460051b848a8a010101018210610a6e575050505060a085015260c0838301015167ffffffffffffffff81116103bf5783830101818301601f820112156103bf578051906109bf82612326565b926109cd6040519485612304565b8284526020606081860194028301019181860183116103bf57602001925b828410610a29575050505060c0840152610a1e90610a0d83820160e001612892565b60e0850152610100920182016127f7565b908201529038610296565b60608483880103126103bf576020606091604051610a46816122b8565b610a4f87612892565b81528287015183820152604087015160408201528152019301926109eb565b815167ffffffffffffffff81116103bf576040888a0185018201888a0103601f1901126103bf5760405191610aa2836122d4565b610ab4602083878d8d01010101612892565b8352604082868c8c01010101519067ffffffffffffffff82116103bf57602093610af08b868096958f968b8f98849986019501010101016128a6565b838201528152019201919050610970565b82519067ffffffffffffffff82116103bf576060888a0184018301888a0103601f1901126103bf5760405191610b36836122b8565b602081858c8c01010101519167ffffffffffffffff83116103bf576020936060859493878e8e610b758f988a809a840191878787870101010101612850565b86520101016040818101518685015291015190820152815291909401930190506108be565b634e487b7160e01b600052604160045260246000fd5b60405162461bcd60e51b815260206004820152601360248201527f6572726f725f7374616b655265717569726564000000000000000000000000006044820152606490fd5b346103bf5760203660031901126103bf57610c0e61228c565b610c16612431565b6001600160a01b03811615610c3057610c2e90612489565b005b60405162461bcd60e51b815260206004820152602660248201527f4f776e61626c653a206e6577206f776e657220697320746865207a65726f206160448201526564647265737360d01b6064820152608490fd5b346103bf5760203660031901126103bf576001600160a01b03610ca561228c565b610cad612431565b166001600160a01b031960d754161760d755600080f35b346103bf5760403660031901126103bf57610c2e600435610cec610ce66122a2565b82612d1e565b612f04565b346103bf5760003660031901126103bf5760006001600160a01b0390818060d254165b1660005260ce60205260038281604060002001541615610d4857610d428380926040600020015416926126f3565b91610d14565b5060018101809111610d5f57602090604051908152f35b634e487b7160e01b600052601160045260246000fd5b346103bf5760003660031901126103bf573360005260d16020526040600020602052610da633604060002054612d1e565b3360005260d0602052610dbd604060002054612f04565b610c2e336132ed565b346103bf5760003660031901126103bf57602060cc54604051908152f35b346103bf5760003660031901126103bf57610c2e336132ed565b346103bf5760203660031901126103bf576001600160a01b03610e1f61228c565b1660005260ce6020526020600560406000200154604051908152f35b346103bf5760003660031901126103bf5760cd54610e71610e5b82612326565b91610e696040519384612304565b808352612326565b6020808301929091601f19013684376001600160a01b038060d2541691600060019384805b610edb575b5050506040519380850191818652518092526040850195926000905b838210610ec45786880387f35b845181168852968201969382019390850190610eb7565b90859795919693949615610f27575b60009087610ef88588612702565b911680915260005260ce8452610f188760036040600020015416936126f3565b91959796949396929192610e96565b868116610eea5796949695939295610e9b565b346103bf5760003660031901126103bf5760206001600160a01b0360d35416604051908152f35b346103bf5760203660031901126103bf5760043567ffffffffffffffff81116103bf57610f92903690600401612391565b60ff60c95416158015610ff4575b15610faf57610c2e9033613015565b60405162461bcd60e51b815260206004820152601160248201527f6572726f725f6e6f74417070726f7665640000000000000000000000000000006044820152606490fd5b503360005260cf60205260ff60406000205416600381101561101857600114610fa0565b634e487b7160e01b600052602160045260246000fd5b346103bf5760403660031901126103bf5761104761228c565b61104f6122a2565b906001600160a01b0380911660005260d1602052604060002091166000526020526020604060002054604051908152f35b346103bf5760203660031901126103bf57610c2e600435612980565b346103bf5760003660031901126103bf57602060ff60c954166040519015158152f35b346103bf5760203660031901126103bf576001600160a01b036110e061228c565b1660005260cf60205260ff604060002054166040516003821015611018576020918152f35b346103bf5760003660031901126103bf57602060cd54604051908152f35b346103bf5760003660031901126103bf5760206001600160a01b0360975416604051908152f35b346103bf5760203660031901126103bf57610c2e61116661228c565b61116e612431565b6132ed565b346103bf5760203660031901126103bf576001600160a01b0361119461228c565b61119c612431565b166001600160a01b031960d654161760d655600080f35b346103bf5760203660031901126103bf576001600160a01b036111d461228c565b6111dc612431565b166001600160a01b031960d554161760d555600080f35b346103bf5760003660031901126103bf5761120c612431565b60006001600160a01b036097546001600160a01b03198116609755167f8be0079c531659141344cd1fd0a4f28419497f9722a3daafe3b4186f6b6457e08280a3005b346103bf5760203660031901126103bf576001600160a01b0361126f61228c565b1660005260d06020526020604060002054604051908152f35b346103bf5760403660031901126103bf57610c2e6004356112a76122a2565b906112b181612980565b612b84565b346103bf5760203660031901126103bf57600060206113436004356112d9612431565b6113008160cb546112ec8183111561279e565b6112f88260ca546127ea565b60ca556127ea565b60cb556001600160a01b0360d454169060405194858094819363a9059cbb60e01b83523360048401602090939291936001600160a01b0360408201951681520152565b03925af19081156103cc57600091611364575b610c2e600183151514612804565b90506020813d821161139b575b8161137e60209383612304565b810103126103bf576001611394610c2e926127f7565b9150611356565b3d9150611371565b346103bf5760203660031901126103bf5760206113c66113c161228c565b6134f1565b6040519015158152f35b346103bf5760003660031901126103bf57602060cb54604051908152f35b346103bf5760203660031901126103bf576001600160a01b0361140f61228c565b611417612431565b168060005260cf6020526040600020600160ff198254161790557fdfe83f699699403a4b116b6f9504680228c3f319bbf5ab26b48a81d3005d98b2600080a2005b346103bf5760003660031901126103bf576001600160a01b037f00000000000000000000000000000000000000000000000000000000000000001630036114c35760206040517f360894a13ba1a3210667c828492db98dca3e2076cc3735a920a3ca505d382bbc8152f35b60405162461bcd60e51b815260206004820152603860248201527f555550535570677261646561626c653a206d757374206e6f742062652063616c60448201527f6c6564207468726f7567682064656c656761746563616c6c00000000000000006064820152608490fd5b60403660031901126103bf5761154261228c565b60243567ffffffffffffffff81116103bf57366023820112156103bf5761157390369060248160040135910161235a565b906001600160a01b0391827f000000000000000000000000000000000000000000000000000000000000000016926115ad843014156124d1565b6115dc7f360894a13ba1a3210667c828492db98dca3e2076cc3735a920a3ca505d382bbc948286541614612543565b6115e4612431565b7f4910fdfa16fed3260ed0e7147f7cc6da11a60208b5b9406d12a635614ffd91435460ff161561161a575050610c2e91506125b5565b82919216604051936352d1902d60e01b85526020948581600481865afa60009181611843575b506116a15760405162461bcd60e51b815260048101879052602e60248201527f45524331393637557067726164653a206e657720696d706c656d656e7461746960448201526d6f6e206973206e6f74205555505360901b6064820152608490fd5b036117ec576116af826125b5565b604051907fbc7cd75a20ee27fd9adebab32041f755214dbc6bffa90cc0225b39da2e5c2d3b600080a28251158015906117e4575b6116e957005b813b156117935750600082819285610c2e9695519201905af43d1561178b573d906117138261233e565b916117216040519384612304565b82523d60008484013e5b7f416464726573733a206c6f772d6c6576656c2064656c65676174652063616c6c60405193611759856122b8565b602785528401527f206661696c6564000000000000000000000000000000000000000000000000006040840152612663565b60609061172b565b62461bcd60e51b815260048101849052602660248201527f416464726573733a2064656c65676174652063616c6c20746f206e6f6e2d636f6044820152651b9d1c9858dd60d21b6064820152608490fd5b5060016116e3565b60405162461bcd60e51b815260048101859052602960248201527f45524331393637557067726164653a20756e737570706f727465642070726f786044820152681a58589b195555525160ba1b6064820152608490fd5b9091508681813d831161186b575b61185b8183612304565b810103126103bf57519087611640565b503d611851565b346103bf5760003660031901126103bf5760206001600160a01b0360d25416604051908152f35b346103bf5760403660031901126103bf57610c2e6118b56122a2565b600435612d1e565b346103bf5760403660031901126103bf5760043560243567ffffffffffffffff81116103bf576118f1903690600401612391565b9060ff60c95416158015611922575b15610faf57611912610c2e9233613015565b61191b81612980565b3390612b84565b503360005260cf60205260ff60406000205416600381101561101857600114611900565b346103bf576020806003193601126103bf5761196061228c565b6001600160a01b03807f000000000000000000000000000000000000000000000000000000000000000016611997813014156124d1565b6119c67f360894a13ba1a3210667c828492db98dca3e2076cc3735a920a3ca505d382bbc918383541614612543565b6119ce612431565b604051908482019282841067ffffffffffffffff851117610b9a57836040526000835260ff7f4910fdfa16fed3260ed0e7147f7cc6da11a60208b5b9406d12a635614ffd91435416600014611a2b5750505050610c2e91506125b5565b8416906040516352d1902d60e01b81528681600481865afa60009181611bcc575b50611aad5760405162461bcd60e51b815260048101889052602e60248201527f45524331393637557067726164653a206e657720696d706c656d656e7461746960448201526d6f6e206973206e6f74205555505360901b6064820152608490fd5b03611b7557611abb846125b5565b604051907fbc7cd75a20ee27fd9adebab32041f755214dbc6bffa90cc0225b39da2e5c2d3b600080a2815115801590611b6d575b611af557005b833b15611b1c5750610c2e9392600092839251915af43d1561178b573d906117138261233e565b62461bcd60e51b815260048101859052602660248201527f416464726573733a2064656c65676174652063616c6c20746f206e6f6e2d636f6044820152651b9d1c9858dd60d21b6064820152608490fd5b506000611aef565b60405162461bcd60e51b815260048101869052602960248201527f45524331393637557067726164653a20756e737570706f727465642070726f786044820152681a58589b195555525160ba1b6064820152608490fd5b9091508781813d8311611bf4575b611be48183612304565b810103126103bf57519088611a4c565b503d611bda565b346103bf5760203660031901126103bf57610c2e600435612f04565b346103bf5760203660031901126103bf576001600160a01b03611c3861228c565b611c40612431565b168060005260cf6020526040600020600260ff198254161790557fbbe2a784aa6240d8175fa65a8459058efd8f44c5ab66caa2525fe9d634210878600080a2005b346103bf5760203660031901126103bf576004358015158091036103bf57611ca7612431565b60ff1960c9541660ff82161760c9557f7623db9c426686f05cec977c4cadb8ff9657502540ca665ae347731114dac69d600080a2005b346103bf5760203660031901126103bf57610c2e611cf961228c565b611d01612431565b611d09612431565b6001600160a01b0381168060005260cf6020526040600020600260ff198254161790557fbbe2a784aa6240d8175fa65a8459058efd8f44c5ab66caa2525fe9d634210878600080a261116e612431565b346103bf576020806003193601126103bf576001600160a01b0380611d7c61228c565b1660005260ce825260406000209081549160019084828201604051938491600091815491611da9836123af565b80865292828116908115611e5b5750600114611e1c575b505050611dcf92500383612304565b600281015492611e03600582600385015416926004850154169301549360c0604051988998895288015260c087019061240c565b9360408601526060850152608084015260a08301520390f35b600090815285812095935091905b818310611e43575089945050820101611dcf8980611dc0565b85548884018501529485019487945091830191611e2a565b92505050611dcf94925060ff191682840152151560051b82010187928980611dc0565b346103bf5760003660031901126103bf57602060ca54604051908152f35b346103bf5760403660031901126103bf57611eb561228c565b6024359067ffffffffffffffff82116103bf57611ed9610c2e923690600401612391565b90611ee2612431565b613015565b346103bf5760403660031901126103bf57610c2e611f036122a2565b600435612b84565b346103bf5760c03660031901126103bf57611f2461228c565b602480358015158091036103bf57604435926001600160a01b03928385168095036103bf576084359367ffffffffffffffff6064358187116103bf57366023880112156103bf57866004013596611f7a88612326565b90611f886040519283612304565b888252602098868a84019160051b830101913683116103bf578701905b8282106122745750505060a4358381116103bf57366023820112156103bf578060040135611fd281612326565b94611fe06040519687612304565b818652878b87019260051b840101923684116103bf57888101925b84841061224e5750505050506000549160ff998a8460081c16159889809a612242575b801561222c575b156121c25760019b8c9560ff19908c88838316176000556121b0575b5061205b8260005460081c166120568161272c565b61272c565b61206433612489565b6120748260005460081c1661272c565b60c9541691161760c95561208b83518651146126a7565b801515806121a7575b61209d906126a7565b6001600160a01b031960d454161760d45560cc55816000905b612166575b505050506120c7612431565b82161561211457506120d890612489565b6120de57005b7f7f26b83ff96e1f2b6a682f133852f6798a09c465da95921460cefb38474024989161ff001960005416600055604051908152a1005b8360266084926040519262461bcd60e51b845260048401528201527f4f776e61626c653a206e6577206f776e657220697320746865207a65726f206160448201526564647265737360d01b6064820152fd5b81518110156121a257806121978661218161219c9486612702565b511661218d8388612702565b5190611ee2612431565b6126f3565b826120b6565b6120bb565b50811515612094565b61ffff1916610101176000558e612041565b60405162461bcd60e51b8152600481018c9052602e818a01527f496e697469616c697a61626c653a20636f6e747261637420697320616c72656160448201527f647920696e697469616c697a65640000000000000000000000000000000000006064820152608490fd5b50303b158015612025575060018c861614612025565b5060018c86161061201e565b83358381116103bf578d9161226983928d3691870101612391565b815201930192611ffb565b813587811681036103bf578152908a01908a01611fa5565b600435906001600160a01b03821682036103bf57565b602435906001600160a01b03821682036103bf57565b6060810190811067ffffffffffffffff821117610b9a57604052565b6040810190811067ffffffffffffffff821117610b9a57604052565b67ffffffffffffffff8111610b9a57604052565b90601f8019910116810190811067ffffffffffffffff821117610b9a57604052565b67ffffffffffffffff8111610b9a5760051b60200190565b67ffffffffffffffff8111610b9a57601f01601f191660200190565b9291926123668261233e565b916123746040519384612304565b8294818452818301116103bf578281602093846000960137010152565b9080601f830112156103bf578160206123ac9335910161235a565b90565b90600182811c921680156123df575b60208310146123c957565b634e487b7160e01b600052602260045260246000fd5b91607f16916123be565b60005b8381106123fc5750506000910152565b81810151838201526020016123ec565b90602091612425815180928185528580860191016123e9565b601f01601f1916010190565b6001600160a01b0360975416330361244557565b606460405162461bcd60e51b815260206004820152602060248201527f4f776e61626c653a2063616c6c6572206973206e6f7420746865206f776e65726044820152fd5b609754906001600160a01b0380911691826001600160a01b0319821617609755167f8be0079c531659141344cd1fd0a4f28419497f9722a3daafe3b4186f6b6457e0600080a3565b156124d857565b60405162461bcd60e51b815260206004820152602c60248201527f46756e6374696f6e206d7573742062652063616c6c6564207468726f7567682060448201527f64656c656761746563616c6c00000000000000000000000000000000000000006064820152608490fd5b1561254a57565b60405162461bcd60e51b815260206004820152602c60248201527f46756e6374696f6e206d7573742062652063616c6c6564207468726f7567682060448201527f6163746976652070726f787900000000000000000000000000000000000000006064820152608490fd5b803b156125f8576001600160a01b037f360894a13ba1a3210667c828492db98dca3e2076cc3735a920a3ca505d382bbc91166001600160a01b0319825416179055565b60405162461bcd60e51b815260206004820152602d60248201527f455243313936373a206e657720696d706c656d656e746174696f6e206973206e60448201527f6f74206120636f6e7472616374000000000000000000000000000000000000006064820152608490fd5b9091901561266f575090565b81511561267f5750805190602001fd5b60405162461bcd60e51b8152602060048201529081906126a390602483019061240c565b0390fd5b156126ae57565b60405162461bcd60e51b815260206004820152601460248201527f6572726f725f626164547261636b6572446174610000000000000000000000006044820152606490fd5b6000198114610d5f5760010190565b80518210156127165760209160051b010190565b634e487b7160e01b600052603260045260246000fd5b1561273357565b60405162461bcd60e51b815260206004820152602b60248201527f496e697469616c697a61626c653a20636f6e7472616374206973206e6f74206960448201527f6e697469616c697a696e670000000000000000000000000000000000000000006064820152608490fd5b156127a557565b60405162461bcd60e51b815260206004820152601460248201527f6572726f725f6e6f74456e6f7567685374616b650000000000000000000000006044820152606490fd5b91908203918211610d5f57565b519081151582036103bf57565b1561280b57565b60405162461bcd60e51b815260206004820152601a60248201527f6572726f725f756e7375636365737366756c57697468647261770000000000006044820152606490fd5b81601f820112156103bf5780516128668161233e565b926128746040519485612304565b818452602082840101116103bf576123ac91602080850191016123e9565b51906001600160a01b03821682036103bf57565b81601f820112156103bf578051906128bd82612326565b926040926128cd84519586612304565b808552602091828087019260061b850101938185116103bf578301915b8483106128fa5750505050505090565b85838303126103bf578386918251612911816122d4565b61291a86612892565b815282860151838201528152019201916128ea565b90918060409360208452816020850152848401376000828201840152601f01601f1916010190565b91908201809211610d5f57565b91909160008382019384129112908015821691151617610d5f57565b8015612a90576000338152806020809360d08252604083206129a3828254612957565b90556129b18160ca54612957565b60ca5560646001600160a01b0360d454169160405195869384926323b872dd60e01b845233600485015230602485015260448401525af1908115612a84578091612a49575b5060019150151503612a055750565b6064906040519062461bcd60e51b82526004820152601760248201527f6572726f725f756e7375636365737366756c5374616b650000000000000000006044820152fd5b90508282813d8311612a7d575b612a608183612304565b81010312612a7a5750612a746001916127f7565b386129f6565b80fd5b503d612a56565b604051903d90823e3d90fd5b60405162461bcd60e51b815260206004820152601760248201527f6572726f725f696e73756666696369656e745374616b650000000000000000006044820152606490fd5b15612adc57565b606460405162461bcd60e51b815260206004820152602060248201527f6572726f725f696e73756666696369656e7444656c6567617465416d6f756e746044820152fd5b15612b2757565b60405162461bcd60e51b815260206004820152601160248201527f6572726f725f696e76616c69644e6f64650000000000000000000000000000006044820152606490fd5b80548210156127165760005260206000200190600090565b91906001600160a01b0390612b9a841515612ad5565b1660009281845260ce90602091808352604091612bbe600284892001541515612b20565b33875260d08452828720612bd38282546127ea565b905533875260d184528287208588528452828720612bf2828254612957565b9055848752818452612c0b600584892001918254612957565b9055838652808352600782872001338752835260ff828720541615612c63575b8186600592867fcf939c6aa5e54a02f6433632298ef92d8600b2e56030790abb22fb9b3ab25d7e9798995285522001549051908152a2565b83865280835260068287200180549068010000000000000000821015612d0a5796600592612ce0612cbe847fcf939c6aa5e54a02f6433632298ef92d8600b2e56030790abb22fb9b3ab25d7e999a9b60018997018155612b6c565b81546001600160a01b0360039290921b91821b80199091163390921b16179055565b8782528086528282203383526007018652918120805460ff19166001179055969594509050612c2b565b634e487b7160e01b88526041600452602488fd5b91612d2a831515612ad5565b6001600160a01b0380921660009381855260ce90602091808352604091612d586002848a2001541515612b20565b33885260d184528288208589528452828820612d758282546127ea565b9055848852818452600583892001612d8e8282546127ea565b905533885260d08452612da5838920918254612957565b90558695875b858952828552600680858b200154821015612ef757612dcf828492878d2001612b6c565b90549060031b1c163314612deb57612de6906126f3565b612dab565b90919293949596505b85885282855283882060060180546000199291838201918211612ee35784612e39612e649460068a8f8b8f978f99612e2b91612b6c565b999054988352522001612b6c565b92909360031b1c169082549060031b916001600160a01b039283811b93849216901b16911916179055565b8588528285526006848920019081548015612ecf57927fcf939c6aa5e54a02f6433632298ef92d8600b2e56030790abb22fb9b3ab25d7e979899926005959287950191612eb18383612b6c565b909182549160031b1b191690555587825285522001549051908152a2565b634e487b7160e01b8a52603160045260248afd5b634e487b7160e01b8b52601160045260248bfd5b5050909192939495612df4565b612f8f9060008091338252602093849160d08352612f28604085205482111561279e565b33845260d0835260408420612f3e8282546127ea565b9055612f4c8160ca546127ea565b60ca556001600160a01b0360d454169060405195868094819363a9059cbb60e01b83523360048401602090939291936001600160a01b0360408201951681520152565b03925af1928315612ff1578193612fb4575b5050506001612fb291151514612804565b565b9091809350813d8311612fea575b612fcc8183612304565b81010312612a7a57506001612fe3612fb2926127f7565b9138612fa1565b503d612fc2565b50604051903d90823e3d90fd5b818110613009575050565b60008155600101612ffe565b906001600160a01b03809216906000828152602060ce8152604082209282956002850190815415613256575b50815160019586019267ffffffffffffffff821161324257819061306585546123af565b601f8111613209575b508590601f83116001146131aa57879261319f575b5050600019600383901b1c191690861b1782555b4290556040519360408552838254926130af846123af565b93846040890152838116908160001461315557506001146130fe575b505050509180917f7b8ea65757bf0d882563917834f76c4df069ea7e489c9fc65bf764289792e3349342908301520390a3565b9080949550528383205b82841061314157505050820160600190807f7b8ea65757bf0d882563917834f76c4df069ea7e489c9fc65bf764289792e33484386130cb565b805486850160600152928401928101613108565b915050869550606092507f7b8ea65757bf0d882563917834f76c4df069ea7e489c9fc65bf764289792e334969493915060ff191682850152151560051b83010192938192386130cb565b015190503880613083565b8588528688208994509190601f198416895b898282106131f357505084116131da575b505050811b018255613097565b015160001960f88460031b161c191690553880806131cd565b8385015186558c979095019493840193016131bc565b61323290868952878920601f850160051c810191898610613238575b601f0160051c0190612ffe565b3861306e565b9091508190613225565b634e487b7160e01b86526041600452602486fd5b60d2546001985081166132b35750856001600160a01b031960d254161760d2555b856001600160a01b031960d354161760d35560cd5487810180911161329f5760cd5538613041565b634e487b7160e01b85526011600452602485fd5b8060d35416855260036040862001906001600160a01b031991888382541617905560d35416600487019182541617905560cd548555613277565b6001600160a01b038091169060009082825260ce602090808252604090818520926002840154156134ae5786865281815282862086815560018781830161333481546123af565b80613472575b5050600283015586888a600398828a8701556006600496848882015584600582015501805484825580613459575b505083868201878b8d848454169501968488541681528c8c5220016001600160a01b0319938482541617905560d2548483821614613448575b5060d3549382851614613437575b505050509082915416905b6133ed575b5050505050505050807fcfc24166db4bb677e857cacabd1541fb2b30645021b27c5130419589b84db52b91a2565b87168015613432578089528484528589208054801561341f5760001901905588528383528488208601548716816133ba565b634e487b7160e01b8b526011855260248bfd5b6133bf565b541691161760d355388083816133af565b838387541691161760d255386133a1565b61346b91855288852090810190612ffe565b3880613368565b601f81116001146134885750555b87388061333a565b8183528583206134a291601f0160051c8101908501612ffe565b81858120915555613480565b60649083519062461bcd60e51b82526004820152600e60248201527f6572726f725f6e6f74466f756e640000000000000000000000000000000000006044820152fd5b60cc54801515918261350257505090565b6001600160a01b039192501660005260ce60205260056040600020015410159056fea264697066735822122041f09c4dd1d72c351653c71f4d55fc3d87945232d020b736f0f4ee0fefbe81a464736f6c63430008110033",
  "linkReferences": {},
  "deployedLinkReferences": {}
}