{
  "_format": "hh-sol-artifact-1",
  "contractName": "LogStoreNodeManager",
  "sourceName": "src/NodeManager.sol",
  "abi": [
    {
      "anonymous": false,
      "inputs": [
        {
          "indexed": false,
          "internalType": "address",
          "name": "previousAdmin",
          "type": "address"
        },
        {
          "indexed": false,
          "internalType": "address",
          "name": "newAdmin",
          "type": "address"
        }
      ],
      "name": "AdminChanged",
      "type": "event"
    },
    {
      "anonymous": false,
      "inputs": [
        {
          "indexed": true,
          "internalType": "address",
          "name": "beacon",
          "type": "address"
        }
      ],
      "name": "BeaconUpgraded",
      "type": "event"
    },
    {
      "anonymous": false,
      "inputs": [
        {
          "indexed": false,
          "internalType": "uint8",
          "name": "version",
          "type": "uint8"
        }
      ],
      "name": "Initialized",
      "type": "event"
    },
    {
      "anonymous": false,
      "inputs": [
        {
          "indexed": true,
          "internalType": "address",
          "name": "nodeAddress",
          "type": "address"
        }
      ],
      "name": "NodeRemoved",
      "type": "event"
    },
    {
      "anonymous": false,
      "inputs": [
        {
          "indexed": true,
          "internalType": "address",
          "name": "nodeAddress",
          "type": "address"
        },
        {
          "indexed": false,
          "internalType": "uint256",
          "name": "stake",
          "type": "uint256"
        }
      ],
      "name": "NodeStakeUpdated",
      "type": "event"
    },
    {
      "anonymous": false,
      "inputs": [
        {
          "indexed": true,
          "internalType": "address",
          "name": "nodeAddress",
          "type": "address"
        },
        {
          "indexed": false,
          "internalType": "string",
          "name": "metadata",
          "type": "string"
        },
        {
          "indexed": true,
          "internalType": "uint256",
          "name": "isNew",
          "type": "uint256"
        },
        {
          "indexed": false,
          "internalType": "uint256",
          "name": "lastSeen",
          "type": "uint256"
        }
      ],
      "name": "NodeUpdated",
      "type": "event"
    },
    {
      "anonymous": false,
      "inputs": [
        {
          "indexed": true,
          "internalType": "address",
          "name": "nodeAddress",
          "type": "address"
        }
      ],
      "name": "NodeWhitelistApproved",
      "type": "event"
    },
    {
      "anonymous": false,
      "inputs": [
        {
          "indexed": true,
          "internalType": "address",
          "name": "nodeAddress",
          "type": "address"
        }
      ],
      "name": "NodeWhitelistRejected",
      "type": "event"
    },
    {
      "anonymous": false,
      "inputs": [
        {
          "indexed": true,
          "internalType": "address",
          "name": "previousOwner",
          "type": "address"
        },
        {
          "indexed": true,
          "internalType": "address",
          "name": "newOwner",
          "type": "address"
        }
      ],
      "name": "OwnershipTransferred",
      "type": "event"
    },
    {
      "anonymous": false,
      "inputs": [
        {
          "indexed": false,
          "internalType": "string",
          "name": "id",
          "type": "string"
        }
      ],
      "name": "ReportProcessed",
      "type": "event"
    },
    {
      "anonymous": false,
      "inputs": [
        {
          "indexed": true,
          "internalType": "bool",
          "name": "value",
          "type": "bool"
        }
      ],
      "name": "RequiresWhitelistChanged",
      "type": "event"
    },
    {
      "anonymous": false,
      "inputs": [
        {
          "indexed": true,
          "internalType": "address",
          "name": "implementation",
          "type": "address"
        }
      ],
      "name": "Upgraded",
      "type": "event"
    },
    {
      "inputs": [],
      "name": "LOGSTORE_SYSTEM_STREAM_ID_PATH",
      "outputs": [
        {
          "internalType": "string",
          "name": "",
          "type": "string"
        }
      ],
      "stateMutability": "view",
      "type": "function"
    },
    {
      "inputs": [],
      "name": "LOGSTORE_SYSTEM_STREAM_METADATA_JSON_STRING",
      "outputs": [
        {
          "internalType": "string",
          "name": "",
          "type": "string"
        }
      ],
      "stateMutability": "view",
      "type": "function"
    },
    {
      "inputs": [
        {
          "internalType": "address",
          "name": "",
          "type": "address"
        }
      ],
      "name": "balanceOf",
      "outputs": [
        {
          "internalType": "uint256",
          "name": "",
          "type": "uint256"
        }
      ],
      "stateMutability": "view",
      "type": "function"
    },
    {
      "inputs": [],
      "name": "countNodes",
      "outputs": [
        {
          "internalType": "uint256",
          "name": "",
          "type": "uint256"
        }
      ],
      "stateMutability": "view",
      "type": "function"
    },
    {
      "inputs": [
        {
          "internalType": "uint256",
          "name": "amount",
          "type": "uint256"
        },
        {
          "internalType": "address",
          "name": "node",
          "type": "address"
        }
      ],
      "name": "delegate",
      "outputs": [],
      "stateMutability": "nonpayable",
      "type": "function"
    },
    {
      "inputs": [
        {
          "internalType": "address",
          "name": "",
          "type": "address"
        },
        {
          "internalType": "address",
          "name": "",
          "type": "address"
        }
      ],
      "name": "delegatesOf",
      "outputs": [
        {
          "internalType": "uint256",
          "name": "",
          "type": "uint256"
        }
      ],
      "stateMutability": "view",
      "type": "function"
    },
    {
      "inputs": [],
      "name": "headNode",
      "outputs": [
        {
          "internalType": "address",
          "name": "",
          "type": "address"
        }
      ],
      "stateMutability": "view",
      "type": "function"
    },
    {
      "inputs": [
        {
          "internalType": "address",
          "name": "owner_",
          "type": "address"
        },
        {
          "internalType": "bool",
          "name": "requiresWhitelist_",
          "type": "bool"
        },
        {
          "internalType": "address",
          "name": "stakeTokenAddress_",
          "type": "address"
        },
        {
          "internalType": "uint256",
          "name": "stakeRequiredAmount_",
          "type": "uint256"
        },
        {
          "internalType": "address",
          "name": "streamrRegistryAddress_",
          "type": "address"
        },
        {
          "internalType": "address[]",
          "name": "initialNodes",
          "type": "address[]"
        },
        {
          "internalType": "string[]",
          "name": "initialMetadata",
          "type": "string[]"
        }
      ],
      "name": "initialize",
      "outputs": [],
      "stateMutability": "nonpayable",
      "type": "function"
    },
    {
      "inputs": [
        {
          "internalType": "address",
          "name": "node",
          "type": "address"
        }
      ],
      "name": "isStaked",
      "outputs": [
        {
          "internalType": "bool",
          "name": "",
          "type": "bool"
        }
      ],
      "stateMutability": "view",
      "type": "function"
    },
    {
      "inputs": [
        {
          "internalType": "uint256",
          "name": "amount",
          "type": "uint256"
        },
        {
          "internalType": "string",
          "name": "metadata_",
          "type": "string"
        }
      ],
      "name": "join",
      "outputs": [],
      "stateMutability": "nonpayable",
      "type": "function"
    },
    {
      "inputs": [
        {
          "internalType": "address",
          "name": "nodeAddress",
          "type": "address"
        }
      ],
      "name": "kickNode",
      "outputs": [],
      "stateMutability": "nonpayable",
      "type": "function"
    },
    {
      "inputs": [],
      "name": "leave",
      "outputs": [],
      "stateMutability": "nonpayable",
      "type": "function"
    },
    {
      "inputs": [],
      "name": "nodeAddresses",
      "outputs": [
        {
          "internalType": "address[]",
          "name": "resultAddresses",
          "type": "address[]"
        }
      ],
      "stateMutability": "view",
      "type": "function"
    },
    {
      "inputs": [
        {
          "internalType": "address",
          "name": "node",
          "type": "address"
        }
      ],
      "name": "nodeStake",
      "outputs": [
        {
          "internalType": "uint256",
          "name": "",
          "type": "uint256"
        }
      ],
      "stateMutability": "view",
      "type": "function"
    },
    {
      "inputs": [
        {
          "internalType": "address",
          "name": "",
          "type": "address"
        }
      ],
      "name": "nodes",
      "outputs": [
        {
          "internalType": "uint256",
          "name": "index",
          "type": "uint256"
        },
        {
          "internalType": "string",
          "name": "metadata",
          "type": "string"
        },
        {
          "internalType": "uint256",
          "name": "lastSeen",
          "type": "uint256"
        },
        {
          "internalType": "address",
          "name": "next",
          "type": "address"
        },
        {
          "internalType": "address",
          "name": "prev",
          "type": "address"
        },
        {
          "internalType": "uint256",
          "name": "stake",
          "type": "uint256"
        }
      ],
      "stateMutability": "view",
      "type": "function"
    },
    {
      "inputs": [],
      "name": "owner",
      "outputs": [
        {
          "internalType": "address",
          "name": "",
          "type": "address"
        }
      ],
      "stateMutability": "view",
      "type": "function"
    },
    {
      "inputs": [
        {
          "internalType": "string",
          "name": "id",
          "type": "string"
        }
      ],
      "name": "processReport",
      "outputs": [],
      "stateMutability": "nonpayable",
      "type": "function"
    },
    {
      "inputs": [],
      "name": "proxiableUUID",
      "outputs": [
        {
          "internalType": "bytes32",
          "name": "",
          "type": "bytes32"
        }
      ],
      "stateMutability": "view",
      "type": "function"
    },
    {
      "inputs": [
        {
          "internalType": "address",
          "name": "contractAddress",
          "type": "address"
        }
      ],
      "name": "registerQueryManager",
      "outputs": [],
      "stateMutability": "nonpayable",
      "type": "function"
    },
    {
      "inputs": [
        {
          "internalType": "address",
          "name": "contractAddress",
          "type": "address"
        }
      ],
      "name": "registerReportManager",
      "outputs": [],
      "stateMutability": "nonpayable",
      "type": "function"
    },
    {
      "inputs": [
        {
          "internalType": "address",
          "name": "contractAddress",
          "type": "address"
        }
      ],
      "name": "registerStoreManager",
      "outputs": [],
      "stateMutability": "nonpayable",
      "type": "function"
    },
    {
      "inputs": [],
      "name": "removeNode",
      "outputs": [],
      "stateMutability": "nonpayable",
      "type": "function"
    },
    {
      "inputs": [
        {
          "internalType": "address",
          "name": "nodeAddress",
          "type": "address"
        }
      ],
      "name": "removeNodeAdmin",
      "outputs": [],
      "stateMutability": "nonpayable",
      "type": "function"
    },
    {
      "inputs": [],
      "name": "renounceOwnership",
      "outputs": [],
      "stateMutability": "nonpayable",
      "type": "function"
    },
    {
      "inputs": [],
      "name": "requiresWhitelist",
      "outputs": [
        {
          "internalType": "bool",
          "name": "",
          "type": "bool"
        }
      ],
      "stateMutability": "view",
      "type": "function"
    },
    {
      "inputs": [
        {
          "internalType": "bool",
          "name": "value",
          "type": "bool"
        }
      ],
      "name": "setRequiresWhitelist",
      "outputs": [],
      "stateMutability": "nonpayable",
      "type": "function"
    },
    {
      "inputs": [
        {
          "internalType": "uint256",
          "name": "amount",
          "type": "uint256"
        }
      ],
      "name": "stake",
      "outputs": [],
      "stateMutability": "nonpayable",
      "type": "function"
    },
    {
      "inputs": [
        {
          "internalType": "uint256",
          "name": "amount",
          "type": "uint256"
        },
        {
          "internalType": "address",
          "name": "node",
          "type": "address"
        }
      ],
      "name": "stakeAndDelegate",
      "outputs": [],
      "stateMutability": "nonpayable",
      "type": "function"
    },
    {
      "inputs": [],
      "name": "stakeRequiredAmount",
      "outputs": [
        {
          "internalType": "uint256",
          "name": "",
          "type": "uint256"
        }
      ],
      "stateMutability": "view",
      "type": "function"
    },
    {
      "inputs": [],
      "name": "stakeTokenAddress",
      "outputs": [
        {
          "internalType": "address",
          "name": "",
          "type": "address"
        }
      ],
      "stateMutability": "view",
      "type": "function"
    },
    {
      "inputs": [],
      "name": "tailNode",
      "outputs": [
        {
          "internalType": "address",
          "name": "",
          "type": "address"
        }
      ],
      "stateMutability": "view",
      "type": "function"
    },
    {
      "inputs": [],
      "name": "totalNodes",
      "outputs": [
        {
          "internalType": "uint256",
          "name": "",
          "type": "uint256"
        }
      ],
      "stateMutability": "view",
      "type": "function"
    },
    {
      "inputs": [],
      "name": "totalSupply",
      "outputs": [
        {
          "internalType": "uint256",
          "name": "",
          "type": "uint256"
        }
      ],
      "stateMutability": "view",
      "type": "function"
    },
    {
      "inputs": [
        {
          "internalType": "address",
          "name": "newOwner",
          "type": "address"
        }
      ],
      "name": "transferOwnership",
      "outputs": [],
      "stateMutability": "nonpayable",
      "type": "function"
    },
    {
      "inputs": [],
      "name": "treasurySupply",
      "outputs": [
        {
          "internalType": "uint256",
          "name": "",
          "type": "uint256"
        }
      ],
      "stateMutability": "view",
      "type": "function"
    },
    {
      "inputs": [
        {
          "internalType": "uint256",
          "name": "amount",
          "type": "uint256"
        }
      ],
      "name": "treasuryWithdraw",
      "outputs": [],
      "stateMutability": "nonpayable",
      "type": "function"
    },
    {
      "inputs": [
        {
          "internalType": "uint256",
          "name": "amount",
          "type": "uint256"
        },
        {
          "internalType": "address",
          "name": "node",
          "type": "address"
        }
      ],
      "name": "undelegate",
      "outputs": [],
      "stateMutability": "nonpayable",
      "type": "function"
    },
    {
      "inputs": [
        {
          "internalType": "uint256",
          "name": "amount",
          "type": "uint256"
        },
        {
          "internalType": "address",
          "name": "node",
          "type": "address"
        }
      ],
      "name": "undelegateWithdraw",
      "outputs": [],
      "stateMutability": "nonpayable",
      "type": "function"
    },
    {
      "inputs": [
        {
          "internalType": "address",
          "name": "newImplementation",
          "type": "address"
        }
      ],
      "name": "upgradeTo",
      "outputs": [],
      "stateMutability": "nonpayable",
      "type": "function"
    },
    {
      "inputs": [
        {
          "internalType": "address",
          "name": "newImplementation",
          "type": "address"
        },
        {
          "internalType": "bytes",
          "name": "data",
          "type": "bytes"
        }
      ],
      "name": "upgradeToAndCall",
      "outputs": [],
      "stateMutability": "payable",
      "type": "function"
    },
    {
      "inputs": [
        {
          "internalType": "string",
          "name": "metadata_",
          "type": "string"
        }
      ],
      "name": "upsertNode",
      "outputs": [],
      "stateMutability": "nonpayable",
      "type": "function"
    },
    {
      "inputs": [
        {
          "internalType": "address",
          "name": "node",
          "type": "address"
        },
        {
          "internalType": "string",
          "name": "metadata_",
          "type": "string"
        }
      ],
      "name": "upsertNodeAdmin",
      "outputs": [],
      "stateMutability": "nonpayable",
      "type": "function"
    },
    {
      "inputs": [
        {
          "internalType": "address",
          "name": "",
          "type": "address"
        }
      ],
      "name": "whitelist",
      "outputs": [
        {
          "internalType": "enum LogStoreNodeManager.WhitelistState",
          "name": "",
          "type": "uint8"
        }
      ],
      "stateMutability": "view",
      "type": "function"
    },
    {
      "inputs": [
        {
          "internalType": "address",
          "name": "nodeAddress",
          "type": "address"
        }
      ],
      "name": "whitelistApproveNode",
      "outputs": [],
      "stateMutability": "nonpayable",
      "type": "function"
    },
    {
      "inputs": [
        {
          "internalType": "address",
          "name": "nodeAddress",
          "type": "address"
        }
      ],
      "name": "whitelistRejectNode",
      "outputs": [],
      "stateMutability": "nonpayable",
      "type": "function"
    },
    {
      "inputs": [
        {
          "internalType": "uint256",
          "name": "amount",
          "type": "uint256"
        }
      ],
      "name": "withdraw",
      "outputs": [],
      "stateMutability": "nonpayable",
      "type": "function"
    }
  ],
  "bytecode": "0x60a080604052346100315730608052614101908161003782396080518181816119c001528181611af901526129dd0152f35b600080fdfe608080604052600436101561001357600080fd5b600090813560e01c9081630106395f14612fec5750806308bbb82414612fc75780631204c48614612f7b57806318160ddd14612f5d578063189a5a1714612e385780631ad603d014612dbd57806320a59a0314612d605780632af5758014612cf65780632e1a7d4d14612cd95780633659cfe6146129b65780633cfb3d8a1461269157806345e863e01461266c5780634632974314611e4c57806346c198f614611e245780634830563414611e085780634f1ef28614611a7b57806352d1902d146119a55780635888799c1461193b5780635fc1a4b81461191d5780636177fd18146118ef578063652671391461180157806370a08231146117c8578063715018a61461176c578063735e6c7a146114f057806375ed25dc146114af57806379e574cb1461146e5780638ce15586146114445780638da5cb5b1461141d5780639592d424146113fe5780639b19251a146113a2578063a5ee5b411461137f578063a694fc3a14611118578063a7cc5405146110e4578063abad29a814611093578063b2a52fef14610fc8578063bfdf086614610fa0578063c10b522214610ea3578063cd23d26814610e67578063d0d3f5ba14610e4d578063d5c7096614610e2f578063d66d9e1914610ddc578063e04b0f1814610d5d578063e7b5895314610d2f578063e8d88aba14610cee578063f2fde38b14610c465763f6883c051461021b57600080fd5b34610c43576020366003190112610c435760043567ffffffffffffffff81116107a25761024c903690600401613042565b9061025633614097565b15610bfe5761010b926001600160a01b03845416918160405180946312e63d7160e01b8252818061028b8987600484016137d5565b03915afa9283156107975782936107f5575b506101008301516107b057815b606080850190815180518410156103df576102c7846040926135bb565b5101516102df575b50506102da90613596565b6102aa565b60206103436001600160a01b0361010954166102fc8686516135bb565b5151888461030b8989516135bb565b51015195604061031c8a8a516135bb565b5101519660405197889687958694639ac0e98b60e01b86526004860152606485019061313b565b916024840152604483015203925af180156103d457610388575b5090602061036f826102da94516135bb565b51015161037f60fc9182546137fd565b905590386102cf565b6020813d6020116103cc575b816103a1602093836130f6565b810103126103c85761036f836102da94936103bd60209461369a565b50935093505061035d565b8480fd5b3d9150610394565b6040513d87823e3d90fd5b505050508490825b60c08501805180518310156104eb57610402836040926135bb565b510151610419575b5061041490613596565b6103e7565b6001600160a01b0361010a54166001600160a01b036104398484516135bb565b51511660206104498585516135bb565b51015190604061045a8686516135bb565b51015192803b156104e757889291836064926040519687958694631ee2efa360e31b86526004860152602485015260448401525af180156104dc579086916104c8575b50509060206104b08261041494516135bb565b5101516104c060fc9182546137fd565b90559061040a565b6104d1906130aa565b6103c857848861049d565b6040513d88823e3d90fd5b8880fd5b5050509390825b60808501805180518310156105af576001600160a01b0361057c8480948361052061058998610584976135bb565b5151168a526101018060205260406105508c600592839120015460206105478787516135bb565b5101519061380a565b918c8084131561058e5750866105678686516135bb565b5151168d5260205260408c2001555b516135bb565b515116613fcf565b613596565b6104f2565b92508661059c8686516135bb565b5151168352602052604082200155610576565b85808987878b5b60a08101938451518710156106e357855b60206105d48988516135bb565b510151518110156106cb578088602061061a83826106076001600160a01b0361060f610691998f6106078a8792516135bb565b5101516135bb565b515116958d516135bb565b510151906001600160a01b036106318c8b516135bb565b5151168a52610657610104928360205260408c208360005260205260406000205461380a565b918a831315610696576001600160a01b036106738d8c516135bb565b5151168b5260205260408a2090600052602052604060002055613596565b6105c7565b9091506001600160a01b036106ac8c8b516135bb565b5151168a52602052604089209060005260205287604060002055613596565b509291956106da919450613596565b949091926105b6565b935084916107016001600160a01b0392604060fd549101519061380a565b838113156107a65760fd555b5416803b156107a25781604051809263f6883c0560e01b8252818381610737898b600484016137d5565b03925af180156107975761077f575b50507fbcd21d99bbf55769881dda49c45043a8750d2229c330cdddd4718575f723640291610779604051928392836137d5565b0390a180f35b610788906130aa565b610793578284610746565b8280fd5b6040513d84823e3d90fd5b5080fd5b508260fd5561070d565b60405162461bcd60e51b815260206004820152601c60248201527f6572726f725f7265706f7274416c726561647950726f636573736564000000006044820152606490fd5b9092503d908183823e61080882826130f6565b60208183810103126107935780519067ffffffffffffffff8211610bfa57610120928383830182840103126103c85760405193840184811067ffffffffffffffff821117610be4576040528282015167ffffffffffffffff8111610aaa576108779082840190858501016136f3565b845281830160208181015190860152604080820151908601526060015167ffffffffffffffff8111610aaa57818301601f8286860101011215610aaa57808484010151906108c482613160565b916108d260405193846130f6565b808352602083019184860160208360051b838a8a01010101116104e7576020818888010101925b60208360051b838a8a010101018410610b4b575050505060608501526080838301015167ffffffffffffffff8111610aaa5761093c90828401908585010161374c565b608085015260a0838301015167ffffffffffffffff8111610aaa57818301601f8286860101011215610aaa5780848401015161097781613160565b9161098560405193846130f6565b818352602083019084860160208460051b838a8a01010101116104e7576020818888010101915b60208460051b838a8a010101018310610aae575050505060a085015260c0838301015167ffffffffffffffff8111610aaa5783830101818301601f82011215610aaa578051906109fb82613160565b92610a0960405194856130f6565b8284526020606081860194028301019181860183116104e757602001925b828410610a65575050505060c0840152610a5a90610a4983820160e001613738565b60e08501526101009201820161369a565b90820152913861029d565b60608483880103126104e7576020606091604051610a82816130be565b610a8b87613738565b8152828701518382015260408701516040820152815201930192610a27565b8580fd5b825167ffffffffffffffff8111610b47576040888a0184018201888a0103601f190112610b475760405190610ae2826130da565b610af4602082868d8d01010101613738565b8252604081858c8c01010101519067ffffffffffffffff8211610b43579260209392610b328b868096958f968a8f988499860195010101010161374c565b8382015281520193019290506109ac565b8c80fd5b8a80fd5b835167ffffffffffffffff8111610b47576060888a0184018201888a0103601f190112610b475760405190610b7f826130be565b602081858c8c010101015167ffffffffffffffff8111610b435792602093926060859493878e8e610bbf8f988a809a8401918787878701010101016136f3565b86520101016040818101518685015291015190820152815291909501940190506108f9565b634e487b7160e01b600052604160045260246000fd5b8380fd5b60405162461bcd60e51b815260206004820152601360248201527f6572726f725f7374616b655265717569726564000000000000000000000000006044820152606490fd5b80fd5b5034610c43576020366003190112610c4357610c6061302c565b610c68613206565b6001600160a01b03811615610c8357610c809061325e565b80f35b60405162461bcd60e51b815260206004820152602660248201527f4f776e61626c653a206e6577206f776e657220697320746865207a65726f206160448201527f64647265737300000000000000000000000000000000000000000000000000006064820152608490fd5b5034610c43576020366003190112610c4357610d0861302c565b610d10613206565b6001600160a01b0361010b91166001600160a01b031982541617905580f35b5034610c43576040366003190112610c4357610c80600435610d58610d52613011565b82613985565b613a36565b5034610c435780600319360112610c4357806001600160a01b03808061010554165b168352610101602052600381816040862001541615610db157610dab8280926040872001541693613596565b92610d7f565b6001830184818511610dc857602082604051908152f35b634e487b7160e01b81526011600452602490fd5b5034610c435780600319360112610c43573381526101046020526040812033600052602052610e1033604060002054613985565b338152610103602052610e266040822054613a36565b610c8033613e01565b5034610c435780600319360112610c4357602060fe54604051908152f35b5034610c435780600319360112610c4357610c8033613e01565b5034610c43576020366003190112610c4357600560406020926001600160a01b03610e9061302c565b1681526101018452200154604051908152f35b5034610c435780600319360112610c435761010054610eda610ec482613160565b91610ed260405193846130f6565b808352613160565b6020828101939091601f19013685376001600160a01b0392836101055416928260019485805b610f43575b505050604051948186019282875251809352604086019693905b838210610f2c5786880387f35b845181168852968201969382019390850190610f1f565b90869896919593949515610f8d575b839088610f5f85896135bb565b911680915284526101018552610f7e8860036040872001541693613596565b91969895949395929192610f00565b878116610f525797959794939294610f05565b5034610c435780600319360112610c435760206001600160a01b036101065416604051908152f35b5034610c43576020366003190112610c435760043567ffffffffffffffff81116107a257610ffa903690600401613042565b60ff60fb541615801561105c575b1561101757610c809133613b2f565b60405162461bcd60e51b815260206004820152601160248201527f6572726f725f6e6f74417070726f7665640000000000000000000000000000006044820152606490fd5b5033835261010260205260ff604084205416600381101561107f57600114611008565b634e487b7160e01b84526021600452602484fd5b5034610c43576040366003190112610c43576110ad61302c565b60406110b7613011565b926001600160a01b0380931681526101046020522091166000526020526020604060002054604051908152f35b5034610c435780600319360112610c43576111146111006131cd565b60405191829160208352602083019061313b565b0390f35b5034610c43576020806003193601126107a257600435600260c9541461133a57600260c95580156112f5576001600160a01b0361010860248483835416604051928380926370a0823160e01b82523360048301525afa80156104dc57849187916112c4575b501061127f57916064849286943386526101038552604086206111a18582546137fd565b90556111af8460fc546137fd565b60fc5554169160405194859384926323b872dd60e01b845233600485015230602485015260448401525af1801561127457839061123f575b600191501515036111fb5750600160c95580f35b6064906040519062461bcd60e51b82526004820152601760248201527f6572726f725f756e7375636365737366756c5374616b650000000000000000006044820152fd5b508181813d831161126d575b61125581836130f6565b810103126107935761126860019161369a565b6111e7565b503d61124b565b6040513d85823e3d90fd5b60405162461bcd60e51b815260048101859052601960248201527f6572726f725f696e73756666696369656e7442616c616e6365000000000000006044820152606490fd5b809250868092503d83116112ee575b6112dd81836130f6565b81010312610aaa578390513861117d565b503d6112d3565b60405162461bcd60e51b815260048101839052601760248201527f6572726f725f696e73756666696369656e745374616b650000000000000000006044820152606490fd5b60405162461bcd60e51b815260048101839052601f60248201527f5265656e7472616e637947756172643a207265656e7472616e742063616c6c006044820152606490fd5b5034610c435780600319360112610c4357602060ff60fb54166040519015158152f35b5034610c43576020366003190112610c43576001600160a01b036113c461302c565b16815261010260205260ff6040822054166040519060038110156113ea57602092508152f35b634e487b7160e01b83526021600452602483fd5b5034610c435780600319360112610c4357602061010054604051908152f35b5034610c435780600319360112610c435760206001600160a01b0360975416604051908152f35b5034610c43576020366003190112610c4357610c8061146161302c565b611469613206565b613e01565b5034610c43576020366003190112610c435761148861302c565b611490613206565b6001600160a01b0361010a91166001600160a01b031982541617905580f35b5034610c43576020366003190112610c43576114c961302c565b6114d1613206565b6001600160a01b0361010991166001600160a01b031982541617905580f35b5034610c43576040366003190112610c43576004359061150e613011565b600260c9541461172757600260c95582156116e2576001600160a01b039261010893808554169460405180966370a0823160e01b82523360048301528160246020998a935afa9081156104dc5790849187916116b1575b501061166c57849186913384526101038352604084206115868682546137fd565b90556115948560fc546137fd565b60fc5554166064604051809481936323b872dd60e01b83523360048401523060248401528760448401525af1801561166157849061162c575b600191501515036115e75790610c8091600160c9556138bd565b60405162461bcd60e51b815260048101859052601760248201527f6572726f725f756e7375636365737366756c5374616b650000000000000000006044820152606490fd5b508481813d831161165a575b61164281836130f6565b81010312610bfa5761165560019161369a565b6115cd565b503d611638565b6040513d86823e3d90fd5b60405162461bcd60e51b815260048101879052601960248201527f6572726f725f696e73756666696369656e7442616c616e6365000000000000006044820152606490fd5b809250888092503d83116116db575b6116ca81836130f6565b81010312610aaa5783905138611565565b503d6116c0565b60405162461bcd60e51b815260206004820152601760248201527f6572726f725f696e73756666696369656e745374616b650000000000000000006044820152606490fd5b60405162461bcd60e51b815260206004820152601f60248201527f5265656e7472616e637947756172643a207265656e7472616e742063616c6c006044820152606490fd5b5034610c435780600319360112610c4357611785613206565b60006001600160a01b036097546001600160a01b03198116609755167f8be0079c531659141344cd1fd0a4f28419497f9722a3daafe3b4186f6b6457e08280a380f35b5034610c43576020366003190112610c435760406020916001600160a01b036117ef61302c565b16815261010383522054604051908152f35b5034610c43576020366003190112610c435780602061188f600435611824613206565b61184b8160fd5461183781831115613641565b6118438260fc5461368d565b60fc5561368d565b60fd556001600160a01b0361010854169060405194858094819363a9059cbb60e01b83523360048401602090939291936001600160a01b0360408201951681520152565b03925af19081156107975782916118b0575b506001610c80911515146136a7565b90506020813d82116118e7575b816118ca602093836130f6565b810103126107a25760016118e0610c809261369a565b91506118a1565b3d91506118bd565b5034610c43576020366003190112610c4357602061191361190e61302c565b614097565b6040519015158152f35b5034610c435780600319360112610c4357602060fd54604051908152f35b5034610c43576020366003190112610c43576001600160a01b0361195d61302c565b611965613206565b1680825261010260205260408220805460ff191660011790557fdfe83f699699403a4b116b6f9504680228c3f319bbf5ab26b48a81d3005d98b28280a280f35b5034610c435780600319360112610c43576001600160a01b037f0000000000000000000000000000000000000000000000000000000000000000163003611a105760206040517f360894a13ba1a3210667c828492db98dca3e2076cc3735a920a3ca505d382bbc8152f35b60405162461bcd60e51b815260206004820152603860248201527f555550535570677261646561626c653a206d757374206e6f742062652063616c60448201527f6c6564207468726f7567682064656c656761746563616c6c00000000000000006064820152608490fd5b506040366003190112610c4357611a9061302c565b90602491823567ffffffffffffffff8111610793573660238201121561079357806004013590611abf82613178565b611acc60405191826130f6565b8281526020928382019236888383010111611e0457818792898793018637830101526001600160a01b03807f00000000000000000000000000000000000000000000000000000000000000001690611b26823014156132a6565b611b557f360894a13ba1a3210667c828492db98dca3e2076cc3735a920a3ca505d382bbc928284541614613318565b611b5d613206565b7f4910fdfa16fed3260ed0e7147f7cc6da11a60208b5b9406d12a635614ffd91435460ff1615611b97575050505050610c8091925061338a565b8596949616906040516352d1902d60e01b81528781600481865afa60009181611dd5575b50611c1b5760405162461bcd60e51b815260048101899052602e818b01527f45524331393637557067726164653a206e657720696d706c656d656e7461746960448201526d6f6e206973206e6f74205555505360901b6064820152608490fd5b979192939496959703611d8057611c318761338a565b604051917fbc7cd75a20ee27fd9adebab32041f755214dbc6bffa90cc0225b39da2e5c2d3b600080a2825115801590611d78575b611c74575b5050505050905080f35b863b15611d28575050611d149394600092839251915af43d15611d20573d90611c9c82613178565b91611caa60405193846130f6565b82523d60008484013e5b7f416464726573733a206c6f772d6c6576656c2064656c65676174652063616c6c60405193611ce2856130be565b602785528401527f206661696c6564000000000000000000000000000000000000000000000000006040840152613438565b50803880808080611c6a565b606090611cb4565b62461bcd60e51b8252600482018590526026908201527f416464726573733a2064656c65676174652063616c6c20746f206e6f6e2d636f6044820152651b9d1c9858dd60d21b6064820152608490fd5b506001611c65565b8460296084926040519262461bcd60e51b845260048401528201527f45524331393637557067726164653a20756e737570706f727465642070726f786044820152681a58589b195555525160ba1b6064820152fd5b90918982813d8311611dfd575b611dec81836130f6565b81010312610c435750519038611bbb565b503d611de2565b8680fd5b5034610c435780600319360112610c4357611114611100613194565b5034610c435780600319360112610c435760206001600160a01b036101055416604051908152f35b5034610c435760e0366003190112610c4357611e6661302c565b602435801515810361079357604435906001600160a01b0382168203610bfa576084356001600160a01b03811681036103c85760a4359267ffffffffffffffff8411610aaa5736602385011215610aaa57836004013593611ec685613160565b94611ed460405196876130f6565b80865260208601913660248360051b830101116104e7579160248301925b60248360051b8201018410612645575050505067ffffffffffffffff60c43511610aaa5736602360c435011215610aaa5767ffffffffffffffff60c4356004013511610aaa5736602460c4356004013560051b60c435010111610aaa5785549260ff8460081c161593848095612638575b8015612621575b156125b65760ff1981166001178855846125a5575b50611f9260c4356004013586511461347c565b6001600160a01b03821615158061259a575b611fad9061347c565b611fc660ff885460081c16611fc1816135cf565b6135cf565b611fcf3361325e565b611fec60ff885460081c16611fe3816135cf565b611fc1816135cf565b600160c95560ff801960fb5416911515161760fb556001600160a01b036001600160a01b03199161010882821684825416179055168160ff54161760ff5560643560fe556001600160a01b0382169061010c54161761010c558461204e613194565b916120576131cd565b906001600160a01b0381163b156107935761209d836001600160a01b036120af9660405197889687958693630ef8cdc760e01b855260406004860152604485019061313b565b8381036003190160248501529061313b565b0393165af180156103d457612587575b50604051306120cd826130be565b602a825260403660208401378151156122bd57603060208301538151600110156122bd576078602183015360295b6001811161250857506124c45761214e6020612115613194565b92604051938161212e8693518092868087019101613118565b820161214282518093868085019101613118565b010380845201826130f6565b80519067ffffffffffffffff82116124b057819061216e61010754613070565b601f8111612455575b50602090601f83116001146123cb5787926123c0575b50508160011b916000199060031b1c191617610107555b836001600160a01b0361010c5416803b156107a25760405190632337c3c760e11b8252604060048301526000610107546121dd81613070565b9081604486015285856001831692836000146123a057505050600114612346575b50839183838180946003602483015203925af1801561079757612332575b505b82518110156122d1576001600160a01b0361223982856135bb565b51169060c435600401358110156122bd5760421960c43536030160248260051b60c4350101351215610aaa5760248160051b60c43501013560c435019167ffffffffffffffff602484013511611e0457602483013536036044840113611e04576122b892610584916122a9613206565b60446024830135920190613b2f565b61221e565b634e487b7160e01b86526032600452602486fd5b8482856122dc613206565b6001600160a01b03811615610c83576122f49061325e565b6122fb5780f35b61ff001981541681557f7f26b83ff96e1f2b6a682f133852f6798a09c465da95921460cefb3847402498602060405160018152a180f35b61233b906130aa565b610bfa57833861221c565b610107600090815291507f47c4908e245f386bfc1825973249847f4053a761ddb4880ad63c323a7b5a2a255b8183106123865750508201606401836121fe565b805460648685010152899550602090920191600101612372565b60ff191660648083019190915293151560051b0190920192506121fe9050565b01519050388061218d565b925061010787527f47c4908e245f386bfc1825973249847f4053a761ddb4880ad63c323a7b5a2a259087935b601f198416851061243a576001945083601f19811610612421575b505050811b01610107556121a4565b015160001960f88460031b161c19169055388080612412565b818101518355602094850194600190930192909101906123f7565b6124a0906101076000527f47c4908e245f386bfc1825973249847f4053a761ddb4880ad63c323a7b5a2a25601f850160051c810191602086106124a6575b601f0160051c01906134c8565b38612177565b9091508190612493565b634e487b7160e01b86526041600452602486fd5b606460405162461bcd60e51b815260206004820152602060248201527f537472696e67733a20686578206c656e67746820696e73756666696369656e746044820152fd5b906010600f8216101561257357825182101561255d57807f3031323334353637383961626364656600000000000000000000000000000000600f61255893161a6020848601015360041c91613df4565b6120fb565b634e487b7160e01b600052603260045260246000fd5b634e487b7160e01b87526032600452602487fd5b612593909491946130aa565b92386120bf565b506064351515611fa4565b61ffff191661010117875538611f7f565b60405162461bcd60e51b815260206004820152602e60248201527f496e697469616c697a61626c653a20636f6e747261637420697320616c72656160448201527f647920696e697469616c697a65640000000000000000000000000000000000006064820152608490fd5b50303b158015611f6a5750600160ff821614611f6a565b50600160ff821610611f63565b8335916001600160a01b0383168303610b4757602081602494829352019401939150611ef2565b5034610c43576040366003190112610c4357610c80612689613011565b600435613985565b5034610c43576040366003190112610c43576004356024803567ffffffffffffffff8111610bfa576126c7903690600401613042565b9060ff60fb5416158015612980575b1561293c57906126e69133613b2f565b600260c954146128f857600260c95581156128b4576001600160a01b039061010891808354169260405180946370a0823160e01b8252336004830152818560209788935afa80156128a95786918891612878575b5010612834578591849133845261010383526040842061275b8882546137fd565b90556127698760fc546137fd565b60fc5554166064604051809481936323b872dd60e01b835233600484015230888401528960448401525af180156103d45785906127ff575b600191501515036127bc57600160c95583610c8033856138bd565b9060176064926040519262461bcd60e51b845260048401528201527f6572726f725f756e7375636365737366756c5374616b650000000000000000006044820152fd5b508281813d831161282d575b61281581836130f6565b810103126103c85761282860019161369a565b6127a1565b503d61280b565b60405162461bcd60e51b8152600481018590526019818501527f6572726f725f696e73756666696369656e7442616c616e6365000000000000006044820152606490fd5b809250868092503d83116128a2575b61289181836130f6565b81010312611e04578590513861273a565b503d612887565b6040513d89823e3d90fd5b60649060176040519162461bcd60e51b8352602060048401528201527f6572726f725f696e73756666696369656e745374616b650000000000000000006044820152fd5b606490601f6040519162461bcd60e51b8352602060048401528201527f5265656e7472616e637947756172643a207265656e7472616e742063616c6c006044820152fd5b60405162461bcd60e51b8152602060048201526011818501527f6572726f725f6e6f74417070726f7665640000000000000000000000000000006044820152606490fd5b5033855261010260205260ff60408620541660038110156129a3576001146126d6565b634e487b7160e01b865260216004528386fd5b5034610c43576020806003193601126107a2576129d161302c565b906001600160a01b03807f000000000000000000000000000000000000000000000000000000000000000016612a09813014156132a6565b612a387f360894a13ba1a3210667c828492db98dca3e2076cc3735a920a3ca505d382bbc918383541614613318565b612a40613206565b604051908382019282841067ffffffffffffffff851117612cc5578360405286835260ff7f4910fdfa16fed3260ed0e7147f7cc6da11a60208b5b9406d12a635614ffd91435416600014612a9c575050505050610c809061338a565b8596949516906040516352d1902d60e01b81528681600481865afa869181612c96575b50612b205760405162461bcd60e51b815260048101889052602e60248201527f45524331393637557067726164653a206e657720696d706c656d656e7461746960448201526d6f6e206973206e6f74205555505360901b6064820152608490fd5b95949503612c3f57612b318661338a565b604051907fbc7cd75a20ee27fd9adebab32041f755214dbc6bffa90cc0225b39da2e5c2d3b8680a2815115801590612c38575b612b72575b50505050905080f35b853b15612be757509280948192612bdc9551915af43d15611d20573d90612b9882613178565b91612ba660405193846130f6565b82523d858484013e7f416464726573733a206c6f772d6c6576656c2064656c65676174652063616c6c60405193611ce2856130be565b508038808080612b69565b62461bcd60e51b815260048101849052602660248201527f416464726573733a2064656c65676174652063616c6c20746f206e6f6e2d636f6044820152651b9d1c9858dd60d21b6064820152608490fd5b5084612b64565b60405162461bcd60e51b815260048101859052602960248201527f45524331393637557067726164653a20756e737570706f727465642070726f786044820152681a58589b195555525160ba1b6064820152608490fd5b9091508781813d8311612cbe575b612cae81836130f6565b81010312611e0457519038612abf565b503d612ca4565b634e487b7160e01b87526041600452602487fd5b5034610c43576020366003190112610c4357610c80600435613a36565b5034610c43576020366003190112610c43576001600160a01b03612d1861302c565b612d20613206565b1680825261010260205260408220805460ff191660021790557fbbe2a784aa6240d8175fa65a8459058efd8f44c5ab66caa2525fe9d6342108788280a280f35b5034610c43576020366003190112610c43576004358015158091036107a257612d87613206565b60ff1960fb541660ff82161760fb557f7623db9c426686f05cec977c4cadb8ff9657502540ca665ae347731114dac69d8280a280f35b5034610c43576020366003190112610c4357610c80612dda61302c565b612de2613206565b612dea613206565b6001600160a01b03811680845261010260205260408420805460ff191660021790557fbbe2a784aa6240d8175fa65a8459058efd8f44c5ab66caa2525fe9d6342108788480a2611469613206565b5034610c435760209081600319360112610c43576001600160a01b0380612e5d61302c565b168252610101835260408220918254928460018083019360405194859282825492612e8784613070565b80875293838116908115612f385750600114612efb575b50505050612eae925003836130f6565b600281015492612ee2600582600385015416926004850154169301549360c0604051988998895288015260c087019061313b565b9360408601526060850152608084015260a08301520390f35b815285812095935091905b818310612f20575089945050820101612eae388080612e9e565b85548884018501529485019487945091830191612f06565b9350505050612eae94925060ff191682840152151560051b8201018792388080612e9e565b5034610c435780600319360112610c4357602060fc54604051908152f35b5034610c43576040366003190112610c4357612f9561302c565b6024359067ffffffffffffffff821161079357612fb9610c80923690600401613042565b91612fc2613206565b613b2f565b5034610c43576040366003190112610c4357610c80612fe4613011565b6004356138bd565b9050346107a257816003193601126107a2576020906001600160a01b0360ff54168152f35b602435906001600160a01b038216820361302757565b600080fd5b600435906001600160a01b038216820361302757565b9181601f840112156130275782359167ffffffffffffffff8311613027576020838186019501011161302757565b90600182811c921680156130a0575b602083101461308a57565b634e487b7160e01b600052602260045260246000fd5b91607f169161307f565b67ffffffffffffffff8111610be457604052565b6060810190811067ffffffffffffffff821117610be457604052565b6040810190811067ffffffffffffffff821117610be457604052565b90601f8019910116810190811067ffffffffffffffff821117610be457604052565b60005b83811061312b5750506000910152565b818101518382015260200161311b565b9060209161315481518092818552858086019101613118565b601f01601f1916010190565b67ffffffffffffffff8111610be45760051b60200190565b67ffffffffffffffff8111610be457601f01601f191660200190565b604051906131a1826130da565b600782527f2f73797374656d000000000000000000000000000000000000000000000000006020830152565b604051906131da826130da565b601382527f7b2022706172746974696f6e73223a2031207d000000000000000000000000006020830152565b6001600160a01b0360975416330361321a57565b606460405162461bcd60e51b815260206004820152602060248201527f4f776e61626c653a2063616c6c6572206973206e6f7420746865206f776e65726044820152fd5b609754906001600160a01b0380911691826001600160a01b0319821617609755167f8be0079c531659141344cd1fd0a4f28419497f9722a3daafe3b4186f6b6457e0600080a3565b156132ad57565b60405162461bcd60e51b815260206004820152602c60248201527f46756e6374696f6e206d7573742062652063616c6c6564207468726f7567682060448201527f64656c656761746563616c6c00000000000000000000000000000000000000006064820152608490fd5b1561331f57565b60405162461bcd60e51b815260206004820152602c60248201527f46756e6374696f6e206d7573742062652063616c6c6564207468726f7567682060448201527f6163746976652070726f787900000000000000000000000000000000000000006064820152608490fd5b803b156133cd576001600160a01b037f360894a13ba1a3210667c828492db98dca3e2076cc3735a920a3ca505d382bbc91166001600160a01b0319825416179055565b60405162461bcd60e51b815260206004820152602d60248201527f455243313936373a206e657720696d706c656d656e746174696f6e206973206e60448201527f6f74206120636f6e7472616374000000000000000000000000000000000000006064820152608490fd5b90919015613444575090565b8151156134545750805190602001fd5b60405162461bcd60e51b81526020600482015290819061347890602483019061313b565b0390fd5b1561348357565b60405162461bcd60e51b815260206004820152601460248201527f6572726f725f626164547261636b6572446174610000000000000000000000006044820152606490fd5b8181106134d3575050565b600081556001016134c8565b906000916101079081546134f281613070565b808352926001918083169081156135715750600114613512575b50505050565b90929394506000527f47c4908e245f386bfc1825973249847f4053a761ddb4880ad63c323a7b5a2a25916000925b848410613559575050602092500101903880808061350c565b80546020858501810191909152909301928101613540565b92505050602093945060ff929192191683830152151560051b0101903880808061350c565b60001981146135a55760010190565b634e487b7160e01b600052601160045260246000fd5b805182101561255d5760209160051b010190565b156135d657565b60405162461bcd60e51b815260206004820152602b60248201527f496e697469616c697a61626c653a20636f6e7472616374206973206e6f74206960448201527f6e697469616c697a696e670000000000000000000000000000000000000000006064820152608490fd5b1561364857565b60405162461bcd60e51b815260206004820152601460248201527f6572726f725f6e6f74456e6f7567685374616b650000000000000000000000006044820152606490fd5b919082039182116135a557565b5190811515820361302757565b156136ae57565b60405162461bcd60e51b815260206004820152601a60248201527f6572726f725f756e7375636365737366756c57697468647261770000000000006044820152606490fd5b81601f8201121561302757805161370981613178565b9261371760405194856130f6565b81845260208284010111613027576137359160208085019101613118565b90565b51906001600160a01b038216820361302757565b81601f820112156130275780519061376382613160565b92604092613773845195866130f6565b808552602091828087019260061b85010193818511613027578301915b8483106137a05750505050505090565b85838303126130275783869182516137b7816130da565b6137c086613738565b81528286015183820152815201920191613790565b90918060409360208452816020850152848401376000828201840152601f01601f1916010190565b919082018092116135a557565b919091600083820193841291129080158216911516176135a557565b1561382d57565b606460405162461bcd60e51b815260206004820152602060248201527f6572726f725f696e73756666696369656e7444656c6567617465416d6f756e746044820152fd5b1561387857565b60405162461bcd60e51b815260206004820152601160248201527f6572726f725f696e76616c69644e6f64650000000000000000000000000000006044820152606490fd5b7fcf939c6aa5e54a02f6433632298ef92d8600b2e56030790abb22fb9b3ab25d7e906138ea811515613826565b6001600160a01b038316926005600092858452610101936020948086526139756040958694613920600287872001541515613871565b338552610103895285852061393682825461368d565b905533855261010489528585208b865289528585206139568282546137fd565b90558a855283895261396e87878720019182546137fd565b9055613fcf565b87825285522001549051908152a2565b7fcf939c6aa5e54a02f6433632298ef92d8600b2e56030790abb22fb9b3ab25d7e906139b2811515613826565b6001600160a01b0383169260056000928584526101019360209480865261397560409586946139e8600287872001541515613871565b33855261010489528585208b86528952858520613a0682825461368d565b90558a85528389528686862001613a1e82825461368d565b9055338552610103895261396e8686209182546137fd565b600033815280610103613ac06020948286938452613a5a6040862054831115613641565b338552835260408420613a6e82825461368d565b9055613a7c8160fc5461368d565b60fc556001600160a01b0361010854169060405195868094819363a9059cbb60e01b83523360048401602090939291936001600160a01b0360408201951681520152565b03925af1928315613b22578193613ae5575b5050506001613ae3911515146136a7565b565b9091809350813d8311613b1b575b613afd81836130f6565b81010312610c4357506001613b14613ae39261369a565b9138613ad2565b503d613af3565b50604051903d90823e3d90fd5b6001600160a01b03809116916000908382526020906101018252604083209383966002860191825415613d51575b5060018096019267ffffffffffffffff82116124b0578190613b7f8554613070565b601f8111613d23575b508690601f8311600114613cc4578792613cb9575b5050600019600383901b1c191690861b1782555b429055604051936040855283825492613bc984613070565b938460408901528381169081600014613c6f5750600114613c18575b505050509180917f7b8ea65757bf0d882563917834f76c4df069ea7e489c9fc65bf764289792e3349342908301520390a3565b9080949550528383205b828410613c5b57505050820160600190807f7b8ea65757bf0d882563917834f76c4df069ea7e489c9fc65bf764289792e3348438613be5565b805486850160600152928401928101613c22565b915050869550606092507f7b8ea65757bf0d882563917834f76c4df069ea7e489c9fc65bf764289792e334969493915060ff191682850152151560051b8301019293819238613be5565b013590503880613b9d565b85885286882089945091601f198416895b89828210613d0d5750508411613cf3575b505050811b018255613bb1565b0135600019600384901b60f8161c19169055388080613ce6565b8385013586558c97909501949283019201613cd5565b613d4b90868952878920601f850160051c8101918986106124a657601f0160051c01906134c8565b38613b88565b9750600197610105908082541615600014613db65750876001600160a01b03198254161790555b610106876001600160a01b0319825416179055610100805490898201809211613da2575538613b5d565b634e487b7160e01b87526011600452602487fd5b90506101069080825416875260036040882001916001600160a01b0319928a8482541617905554166004880191825416179055610100548655613d78565b80156135a5576000190190565b6001600160a01b038091169060009082825261010160209080825260409081852092600284015415613f8c57868652818152828620938685558560019188838801613e4c8154613070565b80613f50575b50506002880155886005600398828a8201558260048201550155600481018a8884835416930192848454168c528787526004898d20016001600160a01b0319918282541617905561010580548387821614613f3f575b5050846101069384549382851614613f2e575b50505050509082915416905b613ef9575b50505050505050807fcfc24166db4bb677e857cacabd1541fb2b30645021b27c5130419589b84db52b91a2565b86168015613f2957808852838352848820613f148154613df4565b90558752828252858585892001541681613ec7565b613ecc565b541691161790553880808481613ebb565b828787541691161790553880613ea8565b601f8111600114613f665750555b883880613e52565b818352868320613f8091601f0160051c81019087016134c8565b81868120915555613f5e565b60649083519062461bcd60e51b82526004820152600e60248201527f6572726f725f6e6f74466f756e640000000000000000000000000000000000006044820152fd5b6001600160a01b039081166000818152610101602052604081206005015460fe54919391116140625761010c5416803b1561079357829182916040518095818094634cbf455560e11b82526060600483015261402d606483016134df565b9060248301526002604483015203925af1908115614056575061404d5750565b613ae3906130aa565b604051903d90823e3d90fd5b61010c5416803b1561079357829182916040518095818094631f1cbd7560e11b82526060600483015261402d606483016134df565b60fe5480151591826140a857505090565b6001600160a01b039192501660005261010160205260056040600020015410159056fea264697066735822122065e11d3b75cc76f8913bf480b1133a4450479bce75d84d8db957c97f805957e664736f6c63430008110033",
  "linkReferences": {},
  "deployedLinkReferences": {}
}