{
  "_format": "hh-sol-artifact-1",
  "contractName": "LogStoreNodeManager",
  "sourceName": "src/NodeManager.sol",
  "abi": [
    {
      "anonymous": false,
      "inputs": [
        {
          "indexed": false,
          "internalType": "address",
          "name": "previousAdmin",
          "type": "address"
        },
        {
          "indexed": false,
          "internalType": "address",
          "name": "newAdmin",
          "type": "address"
        }
      ],
      "name": "AdminChanged",
      "type": "event"
    },
    {
      "anonymous": false,
      "inputs": [
        {
          "indexed": true,
          "internalType": "address",
          "name": "beacon",
          "type": "address"
        }
      ],
      "name": "BeaconUpgraded",
      "type": "event"
    },
    {
      "anonymous": false,
      "inputs": [
        {
          "indexed": false,
          "internalType": "uint8",
          "name": "version",
          "type": "uint8"
        }
      ],
      "name": "Initialized",
      "type": "event"
    },
    {
      "anonymous": false,
      "inputs": [
        {
          "indexed": true,
          "internalType": "address",
          "name": "nodeAddress",
          "type": "address"
        }
      ],
      "name": "NodeRemoved",
      "type": "event"
    },
    {
      "anonymous": false,
      "inputs": [
        {
          "indexed": true,
          "internalType": "address",
          "name": "nodeAddress",
          "type": "address"
        },
        {
          "indexed": false,
          "internalType": "string",
          "name": "metadata",
          "type": "string"
        },
        {
          "indexed": true,
          "internalType": "bool",
          "name": "isNew",
          "type": "bool"
        },
        {
          "indexed": false,
          "internalType": "uint256",
          "name": "lastSeen",
          "type": "uint256"
        }
      ],
      "name": "NodeUpdated",
      "type": "event"
    },
    {
      "anonymous": false,
      "inputs": [
        {
          "indexed": true,
          "internalType": "address",
          "name": "nodeAddress",
          "type": "address"
        }
      ],
      "name": "NodeWhitelistApproved",
      "type": "event"
    },
    {
      "anonymous": false,
      "inputs": [
        {
          "indexed": true,
          "internalType": "address",
          "name": "nodeAddress",
          "type": "address"
        }
      ],
      "name": "NodeWhitelistRejected",
      "type": "event"
    },
    {
      "anonymous": false,
      "inputs": [
        {
          "indexed": true,
          "internalType": "address",
          "name": "previousOwner",
          "type": "address"
        },
        {
          "indexed": true,
          "internalType": "address",
          "name": "newOwner",
          "type": "address"
        }
      ],
      "name": "OwnershipTransferred",
      "type": "event"
    },
    {
      "anonymous": false,
      "inputs": [
        {
          "indexed": false,
          "internalType": "string",
          "name": "id",
          "type": "string"
        }
      ],
      "name": "ReportProcessed",
      "type": "event"
    },
    {
      "anonymous": false,
      "inputs": [
        {
          "indexed": true,
          "internalType": "bool",
          "name": "value",
          "type": "bool"
        }
      ],
      "name": "RequiresWhitelistChanged",
      "type": "event"
    },
    {
      "anonymous": false,
      "inputs": [
        {
          "indexed": true,
          "internalType": "enum AccessControlUpgradeable.Role",
          "name": "role",
          "type": "uint8"
        },
        {
          "indexed": true,
          "internalType": "address",
          "name": "account",
          "type": "address"
        },
        {
          "indexed": true,
          "internalType": "address",
          "name": "sender",
          "type": "address"
        }
      ],
      "name": "RoleGranted",
      "type": "event"
    },
    {
      "anonymous": false,
      "inputs": [
        {
          "indexed": true,
          "internalType": "enum AccessControlUpgradeable.Role",
          "name": "role",
          "type": "uint8"
        },
        {
          "indexed": true,
          "internalType": "address",
          "name": "account",
          "type": "address"
        },
        {
          "indexed": true,
          "internalType": "address",
          "name": "sender",
          "type": "address"
        }
      ],
      "name": "RoleRevoked",
      "type": "event"
    },
    {
      "anonymous": false,
      "inputs": [
        {
          "indexed": true,
          "internalType": "address",
          "name": "delegate",
          "type": "address"
        },
        {
          "indexed": true,
          "internalType": "address",
          "name": "node",
          "type": "address"
        },
        {
          "indexed": false,
          "internalType": "uint256",
          "name": "amount",
          "type": "uint256"
        },
        {
          "indexed": false,
          "internalType": "uint256",
          "name": "totalStake",
          "type": "uint256"
        },
        {
          "indexed": false,
          "internalType": "uint256",
          "name": "totalDelegated",
          "type": "uint256"
        },
        {
          "indexed": false,
          "internalType": "bool",
          "name": "delegated",
          "type": "bool"
        }
      ],
      "name": "StakeDelegateUpdated",
      "type": "event"
    },
    {
      "anonymous": false,
      "inputs": [
        {
          "indexed": false,
          "internalType": "string",
          "name": "key",
          "type": "string"
        },
        {
          "indexed": false,
          "internalType": "string",
          "name": "path",
          "type": "string"
        },
        {
          "indexed": false,
          "internalType": "string",
          "name": "permissions",
          "type": "string"
        },
        {
          "indexed": false,
          "internalType": "string",
          "name": "streamId",
          "type": "string"
        }
      ],
      "name": "StreamAdded",
      "type": "event"
    },
    {
      "anonymous": false,
      "inputs": [
        {
          "indexed": false,
          "internalType": "string",
          "name": "key",
          "type": "string"
        },
        {
          "indexed": false,
          "internalType": "string",
          "name": "path",
          "type": "string"
        },
        {
          "indexed": false,
          "internalType": "string",
          "name": "permissions",
          "type": "string"
        },
        {
          "indexed": false,
          "internalType": "string",
          "name": "streamId",
          "type": "string"
        }
      ],
      "name": "StreamRemoved",
      "type": "event"
    },
    {
      "anonymous": false,
      "inputs": [
        {
          "indexed": true,
          "internalType": "address",
          "name": "implementation",
          "type": "address"
        }
      ],
      "name": "Upgraded",
      "type": "event"
    },
    {
      "inputs": [
        {
          "internalType": "string",
          "name": "streamPath",
          "type": "string"
        }
      ],
      "name": "_generateStreamId",
      "outputs": [
        {
          "internalType": "string",
          "name": "",
          "type": "string"
        }
      ],
      "stateMutability": "view",
      "type": "function"
    },
    {
      "inputs": [
        {
          "internalType": "address",
          "name": "",
          "type": "address"
        }
      ],
      "name": "balanceOf",
      "outputs": [
        {
          "internalType": "uint256",
          "name": "",
          "type": "uint256"
        }
      ],
      "stateMutability": "view",
      "type": "function"
    },
    {
      "inputs": [
        {
          "internalType": "string",
          "name": "key",
          "type": "string"
        },
        {
          "internalType": "string",
          "name": "path",
          "type": "string"
        },
        {
          "internalType": "string",
          "name": "permissions",
          "type": "string"
        }
      ],
      "name": "createStream",
      "outputs": [],
      "stateMutability": "nonpayable",
      "type": "function"
    },
    {
      "inputs": [
        {
          "internalType": "uint256",
          "name": "amount",
          "type": "uint256"
        },
        {
          "internalType": "address",
          "name": "node",
          "type": "address"
        }
      ],
      "name": "delegate",
      "outputs": [],
      "stateMutability": "nonpayable",
      "type": "function"
    },
    {
      "inputs": [
        {
          "internalType": "address",
          "name": "",
          "type": "address"
        },
        {
          "internalType": "address",
          "name": "",
          "type": "address"
        }
      ],
      "name": "delegatesOf",
      "outputs": [
        {
          "internalType": "uint256",
          "name": "",
          "type": "uint256"
        }
      ],
      "stateMutability": "view",
      "type": "function"
    },
    {
      "inputs": [
        {
          "internalType": "string",
          "name": "key",
          "type": "string"
        }
      ],
      "name": "deleteStream",
      "outputs": [],
      "stateMutability": "nonpayable",
      "type": "function"
    },
    {
      "inputs": [],
      "name": "getAllStreams",
      "outputs": [
        {
          "internalType": "string[]",
          "name": "",
          "type": "string[]"
        }
      ],
      "stateMutability": "view",
      "type": "function"
    },
    {
      "inputs": [
        {
          "internalType": "enum AccessControlUpgradeable.Role",
          "name": "role",
          "type": "uint8"
        },
        {
          "internalType": "address",
          "name": "account",
          "type": "address"
        }
      ],
      "name": "grantRole",
      "outputs": [],
      "stateMutability": "nonpayable",
      "type": "function"
    },
    {
      "inputs": [],
      "name": "headNode",
      "outputs": [
        {
          "internalType": "address",
          "name": "",
          "type": "address"
        }
      ],
      "stateMutability": "view",
      "type": "function"
    },
    {
      "inputs": [
        {
          "internalType": "address",
          "name": "owner_",
          "type": "address"
        },
        {
          "internalType": "bool",
          "name": "requiresWhitelist_",
          "type": "bool"
        },
        {
          "internalType": "address",
          "name": "stakeTokenAddress_",
          "type": "address"
        },
        {
          "internalType": "uint256",
          "name": "stakeRequiredAmount_",
          "type": "uint256"
        },
        {
          "internalType": "address",
          "name": "streamrRegistryAddress_",
          "type": "address"
        },
        {
          "internalType": "address[]",
          "name": "initialNodes",
          "type": "address[]"
        },
        {
          "internalType": "string[]",
          "name": "initialMetadata",
          "type": "string[]"
        },
        {
          "internalType": "string[3][]",
          "name": "initialStreams",
          "type": "string[3][]"
        }
      ],
      "name": "initialize",
      "outputs": [],
      "stateMutability": "nonpayable",
      "type": "function"
    },
    {
      "inputs": [
        {
          "internalType": "address",
          "name": "node",
          "type": "address"
        }
      ],
      "name": "isStaked",
      "outputs": [
        {
          "internalType": "bool",
          "name": "",
          "type": "bool"
        }
      ],
      "stateMutability": "view",
      "type": "function"
    },
    {
      "inputs": [
        {
          "internalType": "uint256",
          "name": "amount",
          "type": "uint256"
        },
        {
          "internalType": "string",
          "name": "metadata_",
          "type": "string"
        }
      ],
      "name": "join",
      "outputs": [],
      "stateMutability": "nonpayable",
      "type": "function"
    },
    {
      "inputs": [
        {
          "internalType": "address",
          "name": "nodeAddress",
          "type": "address"
        }
      ],
      "name": "kickNode",
      "outputs": [],
      "stateMutability": "nonpayable",
      "type": "function"
    },
    {
      "inputs": [],
      "name": "leave",
      "outputs": [],
      "stateMutability": "nonpayable",
      "type": "function"
    },
    {
      "inputs": [],
      "name": "nodeAddresses",
      "outputs": [
        {
          "internalType": "address[]",
          "name": "resultAddresses",
          "type": "address[]"
        }
      ],
      "stateMutability": "view",
      "type": "function"
    },
    {
      "inputs": [
        {
          "internalType": "address",
          "name": "node",
          "type": "address"
        }
      ],
      "name": "nodeStake",
      "outputs": [
        {
          "internalType": "uint256",
          "name": "",
          "type": "uint256"
        }
      ],
      "stateMutability": "view",
      "type": "function"
    },
    {
      "inputs": [
        {
          "internalType": "address",
          "name": "",
          "type": "address"
        }
      ],
      "name": "nodes",
      "outputs": [
        {
          "internalType": "uint256",
          "name": "index",
          "type": "uint256"
        },
        {
          "internalType": "string",
          "name": "metadata",
          "type": "string"
        },
        {
          "internalType": "uint256",
          "name": "lastSeen",
          "type": "uint256"
        },
        {
          "internalType": "address",
          "name": "next",
          "type": "address"
        },
        {
          "internalType": "address",
          "name": "prev",
          "type": "address"
        },
        {
          "internalType": "uint256",
          "name": "stake",
          "type": "uint256"
        }
      ],
      "stateMutability": "view",
      "type": "function"
    },
    {
      "inputs": [],
      "name": "owner",
      "outputs": [
        {
          "internalType": "address",
          "name": "",
          "type": "address"
        }
      ],
      "stateMutability": "view",
      "type": "function"
    },
    {
      "inputs": [
        {
          "internalType": "string",
          "name": "id",
          "type": "string"
        }
      ],
      "name": "processReport",
      "outputs": [],
      "stateMutability": "nonpayable",
      "type": "function"
    },
    {
      "inputs": [],
      "name": "proxiableUUID",
      "outputs": [
        {
          "internalType": "bytes32",
          "name": "",
          "type": "bytes32"
        }
      ],
      "stateMutability": "view",
      "type": "function"
    },
    {
      "inputs": [
        {
          "internalType": "address",
          "name": "contractAddress",
          "type": "address"
        }
      ],
      "name": "registerQueryManager",
      "outputs": [],
      "stateMutability": "nonpayable",
      "type": "function"
    },
    {
      "inputs": [
        {
          "internalType": "address",
          "name": "contractAddress",
          "type": "address"
        }
      ],
      "name": "registerReportManager",
      "outputs": [],
      "stateMutability": "nonpayable",
      "type": "function"
    },
    {
      "inputs": [
        {
          "internalType": "address",
          "name": "contractAddress",
          "type": "address"
        }
      ],
      "name": "registerStoreManager",
      "outputs": [],
      "stateMutability": "nonpayable",
      "type": "function"
    },
    {
      "inputs": [],
      "name": "removeNode",
      "outputs": [],
      "stateMutability": "nonpayable",
      "type": "function"
    },
    {
      "inputs": [
        {
          "internalType": "address",
          "name": "nodeAddress",
          "type": "address"
        }
      ],
      "name": "removeNodeAdmin",
      "outputs": [],
      "stateMutability": "nonpayable",
      "type": "function"
    },
    {
      "inputs": [],
      "name": "renounceOwnership",
      "outputs": [],
      "stateMutability": "nonpayable",
      "type": "function"
    },
    {
      "inputs": [
        {
          "internalType": "address",
          "name": "account",
          "type": "address"
        }
      ],
      "name": "renounceRole",
      "outputs": [],
      "stateMutability": "nonpayable",
      "type": "function"
    },
    {
      "inputs": [],
      "name": "requiresWhitelist",
      "outputs": [
        {
          "internalType": "bool",
          "name": "",
          "type": "bool"
        }
      ],
      "stateMutability": "view",
      "type": "function"
    },
    {
      "inputs": [
        {
          "internalType": "address",
          "name": "account",
          "type": "address"
        }
      ],
      "name": "revokeRole",
      "outputs": [],
      "stateMutability": "nonpayable",
      "type": "function"
    },
    {
      "inputs": [
        {
          "internalType": "address",
          "name": "",
          "type": "address"
        }
      ],
      "name": "roles",
      "outputs": [
        {
          "internalType": "enum AccessControlUpgradeable.Role",
          "name": "",
          "type": "uint8"
        }
      ],
      "stateMutability": "view",
      "type": "function"
    },
    {
      "inputs": [
        {
          "internalType": "bool",
          "name": "value",
          "type": "bool"
        }
      ],
      "name": "setRequiresWhitelist",
      "outputs": [],
      "stateMutability": "nonpayable",
      "type": "function"
    },
    {
      "inputs": [
        {
          "internalType": "uint256",
          "name": "amount",
          "type": "uint256"
        }
      ],
      "name": "stake",
      "outputs": [],
      "stateMutability": "nonpayable",
      "type": "function"
    },
    {
      "inputs": [
        {
          "internalType": "uint256",
          "name": "amount",
          "type": "uint256"
        },
        {
          "internalType": "address",
          "name": "node",
          "type": "address"
        }
      ],
      "name": "stakeAndDelegate",
      "outputs": [],
      "stateMutability": "nonpayable",
      "type": "function"
    },
    {
      "inputs": [],
      "name": "stakeRequiredAmount",
      "outputs": [
        {
          "internalType": "uint256",
          "name": "",
          "type": "uint256"
        }
      ],
      "stateMutability": "view",
      "type": "function"
    },
    {
      "inputs": [],
      "name": "stakeTokenAddress",
      "outputs": [
        {
          "internalType": "address",
          "name": "",
          "type": "address"
        }
      ],
      "stateMutability": "view",
      "type": "function"
    },
    {
      "inputs": [],
      "name": "startBlockNumber",
      "outputs": [
        {
          "internalType": "uint256",
          "name": "",
          "type": "uint256"
        }
      ],
      "stateMutability": "view",
      "type": "function"
    },
    {
      "inputs": [
        {
          "internalType": "string",
          "name": "streamId",
          "type": "string"
        }
      ],
      "name": "streamExists",
      "outputs": [
        {
          "internalType": "bool",
          "name": "",
          "type": "bool"
        }
      ],
      "stateMutability": "view",
      "type": "function"
    },
    {
      "inputs": [
        {
          "internalType": "string",
          "name": "",
          "type": "string"
        }
      ],
      "name": "streamInformation",
      "outputs": [
        {
          "internalType": "string",
          "name": "key",
          "type": "string"
        },
        {
          "internalType": "string",
          "name": "path",
          "type": "string"
        },
        {
          "internalType": "string",
          "name": "metadata",
          "type": "string"
        },
        {
          "internalType": "uint256",
          "name": "index",
          "type": "uint256"
        }
      ],
      "stateMutability": "view",
      "type": "function"
    },
    {
      "inputs": [
        {
          "internalType": "uint256",
          "name": "",
          "type": "uint256"
        }
      ],
      "name": "streams",
      "outputs": [
        {
          "internalType": "string",
          "name": "",
          "type": "string"
        }
      ],
      "stateMutability": "view",
      "type": "function"
    },
    {
      "inputs": [
        {
          "internalType": "bytes4",
          "name": "interfaceId",
          "type": "bytes4"
        }
      ],
      "name": "supportsInterface",
      "outputs": [
        {
          "internalType": "bool",
          "name": "",
          "type": "bool"
        }
      ],
      "stateMutability": "view",
      "type": "function"
    },
    {
      "inputs": [],
      "name": "tailNode",
      "outputs": [
        {
          "internalType": "address",
          "name": "",
          "type": "address"
        }
      ],
      "stateMutability": "view",
      "type": "function"
    },
    {
      "inputs": [],
      "name": "totalNodes",
      "outputs": [
        {
          "internalType": "uint256",
          "name": "",
          "type": "uint256"
        }
      ],
      "stateMutability": "view",
      "type": "function"
    },
    {
      "inputs": [],
      "name": "totalSupply",
      "outputs": [
        {
          "internalType": "uint256",
          "name": "",
          "type": "uint256"
        }
      ],
      "stateMutability": "view",
      "type": "function"
    },
    {
      "inputs": [
        {
          "internalType": "address",
          "name": "newOwner",
          "type": "address"
        }
      ],
      "name": "transferOwnership",
      "outputs": [],
      "stateMutability": "nonpayable",
      "type": "function"
    },
    {
      "inputs": [],
      "name": "treasurySupply",
      "outputs": [
        {
          "internalType": "uint256",
          "name": "",
          "type": "uint256"
        }
      ],
      "stateMutability": "view",
      "type": "function"
    },
    {
      "inputs": [
        {
          "internalType": "uint256",
          "name": "amount",
          "type": "uint256"
        }
      ],
      "name": "treasuryWithdraw",
      "outputs": [],
      "stateMutability": "nonpayable",
      "type": "function"
    },
    {
      "inputs": [
        {
          "internalType": "uint256",
          "name": "amount",
          "type": "uint256"
        },
        {
          "internalType": "address",
          "name": "node",
          "type": "address"
        }
      ],
      "name": "undelegate",
      "outputs": [],
      "stateMutability": "nonpayable",
      "type": "function"
    },
    {
      "inputs": [
        {
          "internalType": "uint256",
          "name": "amount",
          "type": "uint256"
        },
        {
          "internalType": "address",
          "name": "node",
          "type": "address"
        }
      ],
      "name": "undelegateWithdraw",
      "outputs": [],
      "stateMutability": "nonpayable",
      "type": "function"
    },
    {
      "inputs": [
        {
          "internalType": "address",
          "name": "newImplementation",
          "type": "address"
        }
      ],
      "name": "upgradeTo",
      "outputs": [],
      "stateMutability": "nonpayable",
      "type": "function"
    },
    {
      "inputs": [
        {
          "internalType": "address",
          "name": "newImplementation",
          "type": "address"
        },
        {
          "internalType": "bytes",
          "name": "data",
          "type": "bytes"
        }
      ],
      "name": "upgradeToAndCall",
      "outputs": [],
      "stateMutability": "payable",
      "type": "function"
    },
    {
      "inputs": [
        {
          "internalType": "string",
          "name": "metadata_",
          "type": "string"
        }
      ],
      "name": "upsertNode",
      "outputs": [],
      "stateMutability": "nonpayable",
      "type": "function"
    },
    {
      "inputs": [
        {
          "internalType": "address",
          "name": "node",
          "type": "address"
        },
        {
          "internalType": "string",
          "name": "metadata_",
          "type": "string"
        }
      ],
      "name": "upsertNodeAdmin",
      "outputs": [],
      "stateMutability": "nonpayable",
      "type": "function"
    },
    {
      "inputs": [
        {
          "internalType": "address",
          "name": "",
          "type": "address"
        }
      ],
      "name": "whitelist",
      "outputs": [
        {
          "internalType": "enum LogStoreNodeManager.WhitelistState",
          "name": "",
          "type": "uint8"
        }
      ],
      "stateMutability": "view",
      "type": "function"
    },
    {
      "inputs": [
        {
          "internalType": "address",
          "name": "nodeAddress",
          "type": "address"
        }
      ],
      "name": "whitelistApproveNode",
      "outputs": [],
      "stateMutability": "nonpayable",
      "type": "function"
    },
    {
      "inputs": [
        {
          "internalType": "address",
          "name": "nodeAddress",
          "type": "address"
        }
      ],
      "name": "whitelistRejectNode",
      "outputs": [],
      "stateMutability": "nonpayable",
      "type": "function"
    },
    {
      "inputs": [
        {
          "internalType": "uint256",
          "name": "amount",
          "type": "uint256"
        }
      ],
      "name": "withdraw",
      "outputs": [],
      "stateMutability": "nonpayable",
      "type": "function"
    }
  ],
  "bytecode": "0x60a080604052346100315730608052614f1990816100378239608051818181612686015281816127940152612f470152f35b600080fdfe608080604052600436101561001357600080fd5b600090813560e01c9081630106395f1461354f5750806301ffc9a71461351457806308bbb824146134ef5780631204c4861461348757806318160ddd14613468578063189a5a17146133d95780631ad603d01461330457806320a59a03146132a65780632af575801461321c5780632e1a7d4d146131ff5780633659cfe614612f205780633bd84c0c14612e375780633cfb3d8a14612b0557806345e863e014612ae057806346c198f614612ab8578063498a4c2d14612a995780634f1ef2861461274157806352d1902d1461266b5780635888799c146125e15780635d5664e1146125155780635fc1a4b8146124f65780636177fd18146124c85780636453cbd7146121ca57806364d60d9114612175578063652671391461208557806366cdbcf214611fc45780636bfff68214611f6f57806370a0823114611f36578063715018a614611eda578063735e6c7a14611c5d57806375ed25dc14611c1c57806379e574cb14611bdb57806380e52e3f14611b9d5780638ce1558614611b535780638da5cb5b14611b2c5780639592d42414611b0d5780639937464214611ac55780639b19251a14611a69578063a5ee5b4114611a45578063a694fc3a146117e8578063abad29a814611797578063ae68f210146116d2578063b2a52fef14611606578063bfdf0866146115de578063c10b522214611578578063c30649ba14611041578063cc54421a14610eb4578063cd23d26814610e78578063d0d3f5ba14610e5e578063d5c7096614610e3f578063d66d9e1914610dec578063dcc1a49a14610d59578063e7b5895314610d2b578063e8d88aba14610cea578063f2fde38b14610c425763f6883c051461028957600080fd5b34610c3f576020366003190112610c3f5760043567ffffffffffffffff8111610794576102ba9036906004016135a1565b916102c43361449b565b15610bfa576101626001600160a01b038154168260405180926312e63d7160e01b825281806102f78a8a60048401614036565b03915afa908115610bef5783916107e5575b506101008101516107a057825b6060808301908151805184101561042b5761033384604092613ba8565b51015161034b575b505061034690613b2e565b610316565b6001600160a01b036101605416610363848451613ba8565b51516020610372868651613ba8565b510151926040610383878751613ba8565b51015193833b156104275791898094926103ba9460405197889687958694639ac0e98b60e01b865260048601526064850190613740565b916024840152604483015203925af1801561041c57908691610404575b50509060206103ea826103469451613ba8565b5101516103fb61016a91825461405e565b9055903861033b565b61040d90613609565b6104185784386103d7565b8480fd5b6040513d88823e3d90fd5b8980fd5b8786888b88825b60c082018051805183101561052c5761044d83604092613ba8565b510151610464575b5061045f90613b2e565b610432565b6001600160a01b0361016154166001600160a01b03610484848451613ba8565b5151166020610494858551613ba8565b5101519060406104a5868651613ba8565b51015192803b1561052857889291836064926040519687958694631ee2efa360e31b86526004860152602485015260448401525af1801561041c57908691610514575b50509060206104fb8261045f9451613ba8565b51015161050c61016a91825461405e565b905590610455565b61051d90613609565b6104185784886104e8565b8880fd5b5050509390825b60808601805180518310156105c4578291602061056c846001600160a01b036105626105ac986105a797613ba8565b5151169351613ba8565b510151818852610164908160205261058c6005918260408c20015461406b565b9189808413156105b157849052602052604089200155614944565b613b2e565b610533565b9250838352602052604082200155614944565b8580898988885b60a0840192835180518810156106d0576105ed886001600160a01b0392613ba8565b51511694865b60206106008a8851613ba8565b510151518110156106b8578089602061064683826106336001600160a01b0361063b610693998f6106338a879251613ba8565b510151613ba8565b515116958d51613ba8565b51015190898b5261066e610167928360205260408d208360005260205260406000205461406b565b918b831315610698578a8c5260205260408b2090600052602052604060002055613b2e565b6105f3565b909150898b5260205260408a209060005260205288604060002055613b2e565b5093509350946106c790613b2e565b949291926105cb565b868484826001600160a01b03868b6106f261016b91604083549101519061406b565b9084808313156107985750555b5416803b156107945781604051809263f6883c0560e01b8252818381610729898b60048401614036565b03925af1801561078957610771575b50507fbcd21d99bbf55769881dda49c45043a8750d2229c330cdddd4718575f72364029161076b60405192839283614036565b0390a180f35b61077a90613609565b610785578284610738565b8280fd5b6040513d84823e3d90fd5b5080fd5b9150556106ff565b60405162461bcd60e51b815260206004820152601c60248201527f6572726f725f7265706f7274416c726561647950726f636573736564000000006044820152606490fd5b3d91508184823e6107f68282613655565b6020818381010312610beb5780519067ffffffffffffffff82116104185761012092838383018284010312610be75760405193840184811067ffffffffffffffff821117610bd1576040528282015167ffffffffffffffff8111610a9757610865908284019085850101613f57565b845281830160208181015190860152604080820151908601526060015167ffffffffffffffff8111610a9757818301601f8286860101011215610a9757808484010151906108b282613823565b916108c06040519384613655565b808352602083019184860160208360051b838a8a0101010111610427576020818888010101925b60208360051b838a8a010101018410610b38575050505060608501526080838301015167ffffffffffffffff8111610a975761092a908284019085850101613fad565b608085015260a0838301015167ffffffffffffffff8111610a9757818301601f8286860101011215610a975780848401015161096581613823565b916109736040519384613655565b818352602083019084860160208460051b838a8a0101010111610427576020818888010101915b60208460051b838a8a010101018310610a9b575050505060a085015260c0838301015167ffffffffffffffff8111610a975783830101818301601f82011215610a97578051906109e982613823565b926109f76040519485613655565b82845260206060818601940283010191818601831161042757602001925b828410610a52575050505060c0840152610a4890610a3783820160e001613f99565b60e085015261010092018201613efe565b9082015238610309565b6060848388010312610427576020606091604051610a6f8161361d565b610a7887613f99565b8152828701518382015260408701516040820152815201930192610a15565b8680fd5b825167ffffffffffffffff8111610b34576040888a0184018201888a0103601f190112610b345760405190610acf82613639565b610ae1602082868d8d01010101613f99565b8252604081858c8c01010101519067ffffffffffffffff8211610b30579260209392610b1f8b868096958f968a8f9884998601950101010101613fad565b83820152815201930192905061099a565b8d80fd5b8b80fd5b835167ffffffffffffffff8111610b34576060888a0184018201888a0103601f190112610b345760405190610b6c8261361d565b602081858c8c010101015167ffffffffffffffff8111610b305792602093926060859493878e8e610bac8f988a809a840191878787870101010101613f57565b86520101016040818101518685015291015190820152815291909501940190506108e7565b634e487b7160e01b600052604160045260246000fd5b8580fd5b8380fd5b6040513d85823e3d90fd5b60405162461bcd60e51b815260206004820152601360248201527f6572726f725f7374616b655265717569726564000000000000000000000000006044820152606490fd5b80fd5b5034610c3f576020366003190112610c3f57610c5c61358b565b610c6461386c565b6001600160a01b03811615610c7f57610c7c906138c4565b80f35b60405162461bcd60e51b815260206004820152602660248201527f4f776e61626c653a206e6577206f776e657220697320746865207a65726f206160448201527f64647265737300000000000000000000000000000000000000000000000000006064820152608490fd5b5034610c3f576020366003190112610c3f57610d0461358b565b610d0c61386c565b6001600160a01b0361016291166001600160a01b031982541617905580f35b5034610c3f576040366003190112610c3f57610c7c600435610d54610d4e613575565b8261420b565b6142ef565b5034610c3f576020366003190112610c3f57610d7361358b565b336001600160a01b03821603610da857610c7c906001600160a01b031660005261012d602052604060002060ff198154169055565b606460405162461bcd60e51b815260206004820152602060248201527f416363657373436f6e74726f6c3a204e4f545f4143434f554e545f4f574e45526044820152fd5b5034610c3f5780600319360112610c3f573381526101676020526040812033600052602052610e203360406000205461420b565b338152610166602052610e3660408220546142ef565b610c7c336146fc565b5034610c3f5780600319360112610c3f57602061016c54604051908152f35b5034610c3f5780600319360112610c3f57610c7c336146fc565b5034610c3f576020366003190112610c3f57600560406020926001600160a01b03610ea161358b565b1681526101648452200154604051908152f35b5034610c3f5760609081600319360112610c3f5767ffffffffffffffff9160043583811161078557610eea9036906004016137b8565b92602493843582811161041857610f059036906004016137b8565b946044928335908111610be757610f209036906004016137b8565b9233865260209361012d855260ff60408820541693600485101561102e579088610f5792610f52600280981015613c2e565b614ae8565b610f68610f626143e7565b97614dae565b90875195875b878110610f79578880f35b6001600160a01b0380610f8c838d613ba8565b511690818b526101648952600560408c20015461016c541115610fba575b5050610fb590613b2e565b610f6e565b6101635416803b1561102a578a9182916040518094818094634cbf455560e11b8252896004830152610fef606483018d613740565b908d8301528d8b83015203925af1801561101f57908a9115610faa5761101490613609565b610528578838610faa565b6040513d8c823e3d90fd5b8a80fd5b634e487b7160e01b885260216004528388fd5b5034610c3f57610100366003190112610c3f5761105c61358b565b60243591821515830361156f576044356001600160a01b038116810361156f57608435936001600160a01b038516850361156f5760a4359067ffffffffffffffff9283831161041857366023840112156104185782600401356110be81613823565b936110cc6040519586613655565b8185526024602086019260051b8201019036821161157457602401915b81831061154f5750505060c435848111610be75761110b90369060040161383b565b97909460e435908111610a975761112690369060040161383b565b91909287549460ff8660081c161595868097611542575b801561152b575b156114c05760ff1981166001178a55866114af575b506111668b885114613ae2565b6001600160a01b0382161515806114a4575b61118190613ae2565b61119a60ff8a5460081c1661119581613bbc565b613bbc565b6111a3336138c4565b6111d760ff8a5460081c166111b781613bbc565b6111c081613bbc565b6111c981613bbc565b600160c95561119581613bbc565b6001600160a01b038a1660005261012d60205260ff60406000205416600481101561148e5760031461143d576001600160a01b038a1660005261012d6020526040600020600360ff19825416179055336001600160a01b038b1660037f570d3756e5b890fbf84c01fc2daf898fa7e95ae3ca9f1ed5edf012eacb5c6ce6600080a46101699060ff8019835416911515161790556001600160a01b03199061015f6001600160a01b038216838254161790556001600160a01b0361016d91168282541617905560643561016c556001600160a01b03610163921690825416179055855b8181106113be57505050835b825181101561135d576001600160a01b036112e08285613ba8565b511687821015611349576112f98260051b860186613b75565b9133885261012d60205260ff6040892054166004811015611335579161133094939161132b60026105a7951015613c2e565b6144d0565b6112c5565b634e487b7160e01b89526021600452602489fd5b634e487b7160e01b86526032600452602486fd5b84828761136861386c565b6001600160a01b03811615610c7f57611380906138c4565b6113875780f35b61ff001981541681557f7f26b83ff96e1f2b6a682f133852f6798a09c465da95921460cefb3847402498602060405160018152a180f35b806105a7836114326113dd6113d761143896848a613b53565b80613b75565b61142a8961142261141861140e8a6114066113fc828c889c9b9c613b53565b6020810190613b75565b9a9095613b53565b6040810190613b75565b9690943691613781565b953691613781565b923691613781565b91614ae8565b6112b9565b60405162461bcd60e51b8152602060048201526024808201527f416363657373436f6e74726f6c3a20524f4c455f414c52454144595f4153534960448201526311d3915160e21b6064820152608490fd5b634e487b7160e01b600052602160045260246000fd5b506064351515611178565b61ffff191661010117895538611159565b60405162461bcd60e51b815260206004820152602e60248201527f496e697469616c697a61626c653a20636f6e747261637420697320616c72656160448201527f647920696e697469616c697a65640000000000000000000000000000000000006064820152608490fd5b50303b1580156111445750600160ff821614611144565b50600160ff82161061113d565b82356001600160a01b038116810361156f578152602092830192016110e9565b600080fd5b8780fd5b5034610c3f5780600319360112610c3f576115916143e7565b90604051918291602080840190808552835180925280604086019401925b8281106115be57505050500390f35b83516001600160a01b0316855286955093810193928101926001016115af565b5034610c3f5780600319360112610c3f5760206001600160a01b036101715416604051908152f35b5034610c3f576020366003190112610c3f5760043567ffffffffffffffff8111610794576116389036906004016135a1565b60ff610169541615801561169b575b1561165657610c7c91336144d0565b60405162461bcd60e51b815260206004820152601160248201527f6572726f725f6e6f74417070726f7665640000000000000000000000000000006044820152606490fd5b5033835261016560205260ff60408420541660038110156116be57600114611647565b634e487b7160e01b84526021600452602484fd5b5034610c3f5760209081600319360112610c3f5760043567ffffffffffffffff8111610794578261170a6117359236906004016135a1565b906001600160a01b0361016354169060405180958194829363130d191f60e11b845260048401614036565b03915afa91821561178b578092611753575b50506040519015158152f35b9091508282813d8311611784575b61176b8183613655565b81010312610c3f575061177d90613efe565b3880611747565b503d611761565b604051903d90823e3d90fd5b5034610c3f576040366003190112610c3f576117b161358b565b60406117bb613575565b926001600160a01b0380931681526101676020522091166000526020526020604060002054604051908152f35b5034610c3f5760208060031936011261079457600435600260c95414611a0057600260c95580156119bb576001600160a01b0361015f60248483835416604051928380926370a0823160e01b82523360048301525afa801561041c578491879161198a575b5010611945579160648492869433865261016685526040862061187185825461405e565b905561016a61188185825461405e565b905554169160405194859384926323b872dd60e01b845233600485015230602485015260448401525af18015610bef578390611910575b600191501515036118cc5750600160c95580f35b6064906040519062461bcd60e51b82526004820152601760248201527f6572726f725f756e7375636365737366756c5374616b650000000000000000006044820152fd5b508181813d831161193e575b6119268183613655565b8101031261078557611939600191613efe565b6118b8565b503d61191c565b60405162461bcd60e51b815260048101859052601960248201527f6572726f725f696e73756666696369656e7442616c616e6365000000000000006044820152606490fd5b809250868092503d83116119b4575b6119a38183613655565b81010312610be7578390513861184d565b503d611999565b60405162461bcd60e51b815260048101839052601760248201527f6572726f725f696e73756666696369656e745374616b650000000000000000006044820152606490fd5b60405162461bcd60e51b815260048101839052601f60248201527f5265656e7472616e637947756172643a207265656e7472616e742063616c6c006044820152606490fd5b5034610c3f5780600319360112610c3f57602060ff61016954166040519015158152f35b5034610c3f576020366003190112610c3f576001600160a01b03611a8b61358b565b16815261016560205260ff604082205416604051906003811015611ab157602092508152f35b634e487b7160e01b83526021600452602483fd5b5034610c3f576020366003190112610c3f576001600160a01b03611ae761358b565b16815261012d60205260ff604082205416604051906004811015611ab157602092508152f35b5034610c3f5780600319360112610c3f57602061016e54604051908152f35b5034610c3f5780600319360112610c3f5760206001600160a01b0360975416604051908152f35b5034610c3f576020366003190112610c3f57611b6d61358b565b33825261012d60205260ff6040832054166004811015611ab15790611b986002610c7c931015613c2e565b6146fc565b5034610c3f576020366003190112610c3f57610c7c611bba61358b565b6001600160a01b031660005261012d602052604060002060ff198154169055565b5034610c3f576020366003190112610c3f57611bf561358b565b611bfd61386c565b6001600160a01b0361016191166001600160a01b031982541617905580f35b5034610c3f576020366003190112610c3f57611c3661358b565b611c3e61386c565b6001600160a01b0361016091166001600160a01b031982541617905580f35b5034610c3f576040366003190112610c3f5760043590611c7b613575565b600260c95414611e9557600260c9558215611e50576001600160a01b039261015f93808554169460405180966370a0823160e01b82523360048301528160246020998a935afa90811561041c579084918791611e1f575b5010611dda5784918691338452610166835260408420611cf386825461405e565b905561016a611d0386825461405e565b905554166064604051809481936323b872dd60e01b83523360048401523060248401528760448401525af18015611dcf578490611d9a575b60019150151503611d555790610c7c91600160c95561411e565b60405162461bcd60e51b815260048101859052601760248201527f6572726f725f756e7375636365737366756c5374616b650000000000000000006044820152606490fd5b508481813d8311611dc8575b611db08183613655565b81010312610beb57611dc3600191613efe565b611d3b565b503d611da6565b6040513d86823e3d90fd5b60405162461bcd60e51b815260048101879052601960248201527f6572726f725f696e73756666696369656e7442616c616e6365000000000000006044820152606490fd5b809250888092503d8311611e49575b611e388183613655565b81010312610be75783905138611cd2565b503d611e2e565b60405162461bcd60e51b815260206004820152601760248201527f6572726f725f696e73756666696369656e745374616b650000000000000000006044820152606490fd5b60405162461bcd60e51b815260206004820152601f60248201527f5265656e7472616e637947756172643a207265656e7472616e742063616c6c006044820152606490fd5b5034610c3f5780600319360112610c3f57611ef361386c565b60006001600160a01b036097546001600160a01b03198116609755167f8be0079c531659141344cd1fd0a4f28419497f9722a3daafe3b4186f6b6457e08280a380f35b5034610c3f576020366003190112610c3f5760406020916001600160a01b03611f5d61358b565b16815261016683522054604051908152f35b5034610c3f576020366003190112610c3f576004359067ffffffffffffffff8211610c3f57611fc0611fac611fa736600486016137b8565b614dae565b604051918291602083526020830190613740565b0390f35b5034610c3f576020366003190112610c3f576004359067ffffffffffffffff8211610c3f5761205f6120116020611ffe36600487016137b8565b816040519382858094519384920161371d565b810161016881520301902061202581613677565b9061207b61203560018301613677565b9161206d600361204760028401613677565b92015493604051968796608088526080880190613740565b908682036020880152613740565b908482036040860152613740565b9060608301520390f35b5034610c3f576020366003190112610c3f578060206121156004356120a861386c565b61016b6120d28282546120bd81831115613eb2565b61016a6120cb838254613d10565b9055613d10565b90556001600160a01b0361015f54169060405194858094819363a9059cbb60e01b83523360048401602090939291936001600160a01b0360408201951681520152565b03925af1908115610789578291612136575b506001610c7c91151514613f0b565b90506020813d821161216d575b8161215060209383613655565b81010312610794576001612166610c7c92613efe565b9150612127565b3d9150612143565b5034610c3f576020366003190112610c3f5760043590610172908154831015610c3f57611fc0611fac84846000527fed95d52ae313e6be6d8c8f9945923a6497c37269ba35d5e3535b758e47227cfc01613677565b5034610c3f576020806003193601126107945760043567ffffffffffffffff8111610785576121fd9036906004016137b8565b33835261012d825260ff60408420541660048110156116be576002612223911015613c2e565b6040518151908383019161223881838561371d565b810190848161016893848152030190209261225384546135cf565b1561248357600360018501947f2bf3f2e340d92786feb9f74a51d40fa8d90bae166b913d4817942216723e73a48761228d611fa789613677565b976122da6122cc6122bb604051948594608086526122ae608087018a613c7a565b9186830390870152613c7a565b838103604085015260028701613c7a565b82810360608401528a613740565b0390a10154610172805490916000199182810190811161246f579061233561230d61230761233b946137d6565b50613677565b918060036040518d8187516123258183858c0161371d565b81018d81520301902001556137d6565b90613e41565b8154801561245b57019061234e826137d6565b612447579488969594600394612388948a948a8961236d829b546135cf565b8061240a575b5050505560405194859384925192839161371d565b82019081520301902061239a81613e66565b6123a660018201613e66565b6123b260028201613e66565b01556001600160a01b036101635416803b15610785576123ef9383604051809681958294636453cbd760e01b845260048401526024830190613740565b03925af1801561078957612401575080f35b610c7c90613609565b601f81116001146124205750555b883880612373565b81835288832061243b91601f0160051c810190600101613d1d565b81888120915555612418565b634e487b7160e01b89526004899052602489fd5b634e487b7160e01b89526031600452602489fd5b634e487b7160e01b8a52601160045260248afd5b60405162461bcd60e51b815260048101869052601560248201527f53545245414d5f4e4f545f5245474953544552454400000000000000000000006044820152606490fd5b5034610c3f576020366003190112610c3f5760206124ec6124e761358b565b61449b565b6040519015158152f35b5034610c3f5780600319360112610c3f57602061016b54604051908152f35b5034610c3f576040366003190112610c3f5760043560048110156107945761253b613575565b33835261012d908160205260ff60408520541660048110156125cd579061256d60036001600160a01b03931015613c2e565b16908184528060205260ff60408520541660048110156125cd57831461143d578184526020526040832060ff1981541660ff841617905533917f570d3756e5b890fbf84c01fc2daf898fa7e95ae3ca9f1ed5edf012eacb5c6ce68480a480f35b634e487b7160e01b85526021600452602485fd5b5034610c3f576020366003190112610c3f576125fb61358b565b33825261012d60205260ff6040832054166004811015611ab1579061262b60026001600160a01b03931015613c2e565b1680825261016560205260408220805460ff191660011790557fdfe83f699699403a4b116b6f9504680228c3f319bbf5ab26b48a81d3005d98b28280a280f35b5034610c3f5780600319360112610c3f576001600160a01b037f00000000000000000000000000000000000000000000000000000000000000001630036126d65760206040517f360894a13ba1a3210667c828492db98dca3e2076cc3735a920a3ca505d382bbc8152f35b60405162461bcd60e51b815260206004820152603860248201527f555550535570677261646561626c653a206d757374206e6f742062652063616c60448201527f6c6564207468726f7567682064656c656761746563616c6c00000000000000006064820152608490fd5b506040366003190112610c3f5761275661358b565b9060243567ffffffffffffffff8111610794573660238201121561079457612788903690602481600401359101613781565b916001600160a01b03807f000000000000000000000000000000000000000000000000000000000000000016906127c18230141561390c565b6127f07f360894a13ba1a3210667c828492db98dca3e2076cc3735a920a3ca505d382bbc92828454161461397e565b6127f861386c565b7f4910fdfa16fed3260ed0e7147f7cc6da11a60208b5b9406d12a635614ffd91435460ff161561282f575050610c7c9192506139f0565b6040516352d1902d60e01b8152602094939291831691908581600481865afa859181612a6a575b506128b75760405162461bcd60e51b815260048101879052602e60248201527f45524331393637557067726164653a206e657720696d706c656d656e7461746960448201526d6f6e206973206e6f74205555505360901b6064820152608490fd5b94939403612a13576128c8826139f0565b604051907fbc7cd75a20ee27fd9adebab32041f755214dbc6bffa90cc0225b39da2e5c2d3b8580a2845115801590612a0b575b612908575b505050905080f35b813b156129ba57509180846129a894848397519201905af43d156129b2573d9061293182613765565b9161293f6040519384613655565b82523d858484013e5b7f416464726573733a206c6f772d6c6576656c2064656c65676174652063616c6c604051936129768561361d565b602785528401527f206661696c6564000000000000000000000000000000000000000000000000006040840152613a9e565b5080388080612900565b606090612948565b62461bcd60e51b815260048101839052602660248201527f416464726573733a2064656c65676174652063616c6c20746f206e6f6e2d636f6044820152651b9d1c9858dd60d21b6064820152608490fd5b5060016128fb565b60405162461bcd60e51b815260048101849052602960248201527f45524331393637557067726164653a20756e737570706f727465642070726f786044820152681a58589b195555525160ba1b6064820152608490fd5b9091508681813d8311612a92575b612a828183613655565b81010312610be757519038612856565b503d612a78565b5034610c3f5780600319360112610c3f57602061016f54604051908152f35b5034610c3f5780600319360112610c3f5760206001600160a01b036101705416604051908152f35b5034610c3f576040366003190112610c3f57610c7c612afd613575565b60043561420b565b5034610c3f576040366003190112610c3f576004356024803567ffffffffffffffff8111610beb57612b3b9036906004016135a1565b9060ff6101695416158015612e01575b15612dbd5790612b5b91336144d0565b600260c95414612d7957600260c9558115612d35576001600160a01b039061015f91808354169260405180946370a0823160e01b8252336004830152818560209788935afa8015612d2a5786918891612cf9575b5010612cb55785918491338452610166835260408420612bd088825461405e565b905561016a612be088825461405e565b905554166064604051809481936323b872dd60e01b835233600484015230888401528960448401525af18015612caa578590612c75575b60019150151503612c3257600160c95583610c7c338561411e565b9060176064926040519262461bcd60e51b845260048401528201527f6572726f725f756e7375636365737366756c5374616b650000000000000000006044820152fd5b508281813d8311612ca3575b612c8b8183613655565b8101031261041857612c9e600191613efe565b612c17565b503d612c81565b6040513d87823e3d90fd5b60405162461bcd60e51b8152600481018590526019818501527f6572726f725f696e73756666696369656e7442616c616e6365000000000000006044820152606490fd5b809250868092503d8311612d23575b612d128183613655565b81010312610a975785905138612baf565b503d612d08565b6040513d89823e3d90fd5b60649060176040519162461bcd60e51b8352602060048401528201527f6572726f725f696e73756666696369656e745374616b650000000000000000006044820152fd5b606490601f6040519162461bcd60e51b8352602060048401528201527f5265656e7472616e637947756172643a207265656e7472616e742063616c6c006044820152fd5b60405162461bcd60e51b8152602060048201526011818501527f6572726f725f6e6f74417070726f7665640000000000000000000000000000006044820152606490fd5b5033855261016560205260ff6040862054166003811015612e2457600114612b4b565b634e487b7160e01b865260216004528386fd5b5034610c3f5780600319360112610c3f5761017290815491612e5883613823565b91612e666040519384613655565b838352602093848401809383527fed95d52ae313e6be6d8c8f9945923a6497c37269ba35d5e3535b758e47227cfc83915b838310612efc5750505050604051928484019085855251809152604084019460408260051b8601019392955b828710612ed05785850386f35b909192938280612eec600193603f198a82030186528851613740565b9601920196019592919092612ec3565b6001888192612f0e859b9a989b613677565b81520192019201919096939596612e97565b5034610c3f5760208060031936011261079457612f3b61358b565b906001600160a01b03807f000000000000000000000000000000000000000000000000000000000000000016612f738130141561390c565b612fa27f360894a13ba1a3210667c828492db98dca3e2076cc3735a920a3ca505d382bbc91838354161461397e565b612faa61386c565b604051908382019282841067ffffffffffffffff8511176131eb578360405286835260ff7f4910fdfa16fed3260ed0e7147f7cc6da11a60208b5b9406d12a635614ffd91435416600014613006575050505050610c7c906139f0565b8596949516906040516352d1902d60e01b81528681600481865afa8691816131bc575b5061308a5760405162461bcd60e51b815260048101889052602e60248201527f45524331393637557067726164653a206e657720696d706c656d656e7461746960448201526d6f6e206973206e6f74205555505360901b6064820152608490fd5b959495036131655761309b866139f0565b604051907fbc7cd75a20ee27fd9adebab32041f755214dbc6bffa90cc0225b39da2e5c2d3b8680a281511580159061315e575b6130dc575b50505050905080f35b853b1561310d575092809481926131029551915af43d156129b2573d9061293182613765565b5080388080806130d3565b62461bcd60e51b815260048101849052602660248201527f416464726573733a2064656c65676174652063616c6c20746f206e6f6e2d636f6044820152651b9d1c9858dd60d21b6064820152608490fd5b50846130ce565b60405162461bcd60e51b815260048101859052602960248201527f45524331393637557067726164653a20756e737570706f727465642070726f786044820152681a58589b195555525160ba1b6064820152608490fd5b9091508781813d83116131e4575b6131d48183613655565b81010312610a9757519038613029565b503d6131ca565b634e487b7160e01b87526041600452602487fd5b5034610c3f576020366003190112610c3f57610c7c6004356142ef565b5034610c3f576020366003190112610c3f5761323661358b565b33825261012d60205260ff6040832054166004811015611ab1579061326660026001600160a01b03931015613c2e565b1680825261016560205260408220805460ff191660021790557fbbe2a784aa6240d8175fa65a8459058efd8f44c5ab66caa2525fe9d6342108788280a280f35b5034610c3f576020366003190112610c3f57600435801515809103610794576132cd61386c565b61016960ff1981541660ff83161790557f7623db9c426686f05cec977c4cadb8ff9657502540ca665ae347731114dac69d8280a280f35b5034610c3f576020366003190112610c3f5761331e61358b565b33825261012d8060205260ff60408420541660048110156116be576002613346911015613c2e565b3383528060205260ff60408420541660048110156116be57600261336b911015613c2e565b6001600160a01b03821680845261016560205260408420805460ff191660021790557fbbe2a784aa6240d8175fa65a8459058efd8f44c5ab66caa2525fe9d6342108788480a233835260205260ff6040832054166004811015611ab15790611b986002610c7c931015613c2e565b5034610c3f576020366003190112610c3f5760406001600160a01b0391826133ff61358b565b1681526101646020522080549061341860018201613677565b92600282015491600582600383015416926004830154169101549161344f604051968796875260c0602088015260c0870190613740565b9360408601526060850152608084015260a08301520390f35b5034610c3f5780600319360112610c3f57602061016a54604051908152f35b5034610c3f576040366003190112610c3f576134a161358b565b9060243567ffffffffffffffff8111610794576134c29036906004016135a1565b9033835261012d60205260ff6040842054169360048510156116be5761132b6002610c7c95961015613c2e565b5034610c3f576040366003190112610c3f57610c7c61350c613575565b60043561411e565b5034610c3f576020366003190112610c3f5760043563ffffffff60e01b8116809103610794576040516301ffc9a760e01b9091148152602090f35b9050346107945781600319360112610794576020906001600160a01b0361016d54168152f35b602435906001600160a01b038216820361156f57565b600435906001600160a01b038216820361156f57565b9181601f8401121561156f5782359167ffffffffffffffff831161156f576020838186019501011161156f57565b90600182811c921680156135ff575b60208310146135e957565b634e487b7160e01b600052602260045260246000fd5b91607f16916135de565b67ffffffffffffffff8111610bd157604052565b6060810190811067ffffffffffffffff821117610bd157604052565b6040810190811067ffffffffffffffff821117610bd157604052565b90601f8019910116810190811067ffffffffffffffff821117610bd157604052565b906040519182600082549261368b846135cf565b9081845260019485811690816000146136fa57506001146136b7575b50506136b592500383613655565b565b9093915060005260209081600020936000915b8183106136e25750506136b5935082010138806136a7565b855488840185015294850194879450918301916136ca565b9150506136b594506020925060ff191682840152151560051b82010138806136a7565b60005b8381106137305750506000910152565b8181015183820152602001613720565b906020916137598151809281855285808601910161371d565b601f01601f1916010190565b67ffffffffffffffff8111610bd157601f01601f191660200190565b92919261378d82613765565b9161379b6040519384613655565b82948184528183011161156f578281602093846000960137010152565b9080601f8301121561156f578160206137d393359101613781565b90565b610172805482101561380d576000527fed95d52ae313e6be6d8c8f9945923a6497c37269ba35d5e3535b758e47227cfc0190600090565b634e487b7160e01b600052603260045260246000fd5b67ffffffffffffffff8111610bd15760051b60200190565b9181601f8401121561156f5782359167ffffffffffffffff831161156f576020808501948460051b01011161156f57565b6001600160a01b0360975416330361388057565b606460405162461bcd60e51b815260206004820152602060248201527f4f776e61626c653a2063616c6c6572206973206e6f7420746865206f776e65726044820152fd5b609754906001600160a01b0380911691826001600160a01b0319821617609755167f8be0079c531659141344cd1fd0a4f28419497f9722a3daafe3b4186f6b6457e0600080a3565b1561391357565b60405162461bcd60e51b815260206004820152602c60248201527f46756e6374696f6e206d7573742062652063616c6c6564207468726f7567682060448201527f64656c656761746563616c6c00000000000000000000000000000000000000006064820152608490fd5b1561398557565b60405162461bcd60e51b815260206004820152602c60248201527f46756e6374696f6e206d7573742062652063616c6c6564207468726f7567682060448201527f6163746976652070726f787900000000000000000000000000000000000000006064820152608490fd5b803b15613a33576001600160a01b037f360894a13ba1a3210667c828492db98dca3e2076cc3735a920a3ca505d382bbc91166001600160a01b0319825416179055565b60405162461bcd60e51b815260206004820152602d60248201527f455243313936373a206e657720696d706c656d656e746174696f6e206973206e60448201527f6f74206120636f6e7472616374000000000000000000000000000000000000006064820152608490fd5b90919015613aaa575090565b815115613aba5750805190602001fd5b60405162461bcd60e51b815260206004820152908190613ade906024830190613740565b0390fd5b15613ae957565b60405162461bcd60e51b815260206004820152601460248201527f6572726f725f626164547261636b6572446174610000000000000000000000006044820152606490fd5b6000198114613b3d5760010190565b634e487b7160e01b600052601160045260246000fd5b919081101561380d5760051b81013590605e198136030182121561156f570190565b903590601e198136030182121561156f570180359067ffffffffffffffff821161156f5760200191813603831361156f57565b805182101561380d5760209160051b010190565b15613bc357565b60405162461bcd60e51b815260206004820152602b60248201527f496e697469616c697a61626c653a20636f6e7472616374206973206e6f74206960448201527f6e697469616c697a696e670000000000000000000000000000000000000000006064820152608490fd5b15613c3557565b60405162461bcd60e51b815260206004820152601d60248201527f416363657373436f6e74726f6c3a204e4f545f415554484f52495a45440000006044820152606490fd5b9060009291805491613c8b836135cf565b918282526001938481169081600014613ced5750600114613cad575b50505050565b90919394506000526020928360002092846000945b838610613cd9575050505001019038808080613ca7565b805485870183015294019385908201613cc2565b9294505050602093945060ff191683830152151560051b01019038808080613ca7565b91908203918211613b3d57565b818110613d28575050565b60008155600101613d1d565b9190601f8111613d4357505050565b6136b5926000526020600020906020601f840160051c83019310613d6f575b601f0160051c0190613d1d565b9091508190613d62565b919091825167ffffffffffffffff8111610bd157613da181613d9b84546135cf565b84613d34565b602080601f8311600114613ddd575081929394600092613dd2575b50508160011b916000199060031b1c1916179055565b015190503880613dbc565b90601f198316958460005282600020926000905b888210613e2957505083600195969710613e10575b505050811b019055565b015160001960f88460031b161c19169055388080613e06565b80600185968294968601518155019501930190613df1565b9190613e50576136b591613d79565b634e487b7160e01b600052600060045260246000fd5b613e7081546135cf565b9081613e7a575050565b81601f60009311600114613e8c575055565b81835260208320613ea891601f0160051c810190600101613d1d565b8160208120915555565b15613eb957565b60405162461bcd60e51b815260206004820152601460248201527f6572726f725f6e6f74456e6f7567685374616b650000000000000000000000006044820152606490fd5b5190811515820361156f57565b15613f1257565b60405162461bcd60e51b815260206004820152601a60248201527f6572726f725f756e7375636365737366756c57697468647261770000000000006044820152606490fd5b81601f8201121561156f578051613f6d81613765565b92613f7b6040519485613655565b8184526020828401011161156f576137d3916020808501910161371d565b51906001600160a01b038216820361156f57565b81601f8201121561156f57805190613fc482613823565b92604092613fd484519586613655565b808552602091828087019260061b8501019381851161156f578301915b8483106140015750505050505090565b858383031261156f57838691825161401881613639565b61402186613f99565b81528286015183820152815201920191613ff1565b90918060409360208452816020850152848401376000828201840152601f01601f1916010190565b91908201809211613b3d57565b91909160008382019384129112908015821691151617613b3d57565b1561408e57565b606460405162461bcd60e51b815260206004820152602060248201527f6572726f725f696e73756666696369656e7444656c6567617465416d6f756e746044820152fd5b156140d957565b60405162461bcd60e51b815260206004820152601160248201527f6572726f725f696e76616c69644e6f64650000000000000000000000000000006044820152606490fd5b614129811515614087565b6001600160a01b0382169160008381526101649160209280845260409283916141596002848420015415156140d2565b338252610166865282822061416f888254613d10565b90553382526141b4610167948588528484208a855288528484206141948a825461405e565b90558984528288526005858520016141ad8a825461405e565b9055614944565b87825285526005828220015492338252855281812087825285522054928251948552840152820152600160608201527f4c2cbb7d33d36a22e34970133436a2156c82cefc2dadfd9537fcfc177b40f03560803392a3565b614216811515614087565b6001600160a01b038216916000908382526101646020918183526040916142446002848720015415156140d2565b338552614298610167928386528487208988528652848720614267898254613d10565b9055888752828652600585882001614280898254613d10565b905533875261016686528487206141ad89825461405e565b86855283526005828520015490338552835281842086855283528184205492825195865285015283015260608201527f4c2cbb7d33d36a22e34970133436a2156c82cefc2dadfd9537fcfc177b40f03560803392a3565b60003381528061016661437a60209482869384526143136040862054831115613eb2565b338552835260408420614327828254613d10565b905561016a614337828254613d10565b90556001600160a01b0361015f54169060405195868094819363a9059cbb60e01b83523360048401602090939291936001600160a01b0360408201951681520152565b03925af19283156143da57819361439d575b50505060016136b591151514613f0b565b9091809350813d83116143d3575b6143b58183613655565b81010312610c3f575060016143cc6136b592613efe565b913861438c565b503d6143ab565b50604051903d90823e3d90fd5b61016e546143f481613823565b9060409061440482519384613655565b808352614413601f1991613823565b016020903682850137610170546001600160a01b03908116848115614492575091600060019384805b61444b575b5050505050505090565b15614485575b6000908461445f848a613ba8565b91168091528152610164835261447d84600388842001541692613b2e565b91908561443c565b8381166144515780614441565b94505050505090565b61016c5480151591826144ad57505090565b6001600160a01b0391925016600052610164602052600560406000200154101590565b906001600160a01b0380921691600090838252602094610164865260408320836002820193845415614647575b5060018092019567ffffffffffffffff8411614633576145278461452189546135cf565b89613d34565b81601f85116001146145a957937f5efa14ec2c459017dc330f0b3e8f2f26bee624ba1c66a50805faf6bf28bfb0b59795938193829361459099979461459e575b50501b916000199060031b1c19161783555b429055604051928392604084526040840190613c7a565b9542908301521515940390a3565b013592503880614567565b91601f9493941984168884528a8420935b8b82821061461f5750509161459097959391857f5efa14ec2c459017dc330f0b3e8f2f26bee624ba1c66a50805faf6bf28bfb0b59a98969410614605575b505050811b018355614579565b0135600019600384901b60f8161c191690553880806145f8565b8484013586559487019492830192016145ba565b634e487b7160e01b82526041600452602482fd5b94506001946101709080825416156000146146b15750876001600160a01b03198254161790554361016f555b610171876001600160a01b031982541617905561016e80549086820180921161469d5755386144fd565b634e487b7160e01b83526011600452602483fd5b90506101719080825416835260036040842001916001600160a01b0319928a848254161790555416600484019182541617905561016e548255614673565b8015613b3d576000190190565b906001600160a01b0380921660009281845261016460209080825260408087209160028301541561490057908291600489969594019385855416806148d7575b50600380940186815416806148b1575b506101709586548a89821614614899575b5061017190815490898c8184161461487f575b5050505088885282825287600585822082815560019d8e8083019061479582546135cf565b80614842575b50505060028201558288820155826004820155015561016e805490600019820191821161246f57555486168a5b61480d575b50505050507fcfc24166db4bb677e857cacabd1541fb2b30645021b27c5130419589b84db52b93949550541615614803575b80a2565b8061016f556147ff565b8616801561483d5780885282825283882061482881546146ef565b9055875281815285848489200154168a6147c8565b6147cd565b601f811160011461485a575050555b82388f8161479b565b61487391838552601f8a86209201871c82019101613d1d565b81878120915555614851565b6001600160a01b0319915416911617905538808089614770565b6001600160a01b03198984541691161787553861475d565b878754169089528383526004858a2001906001600160a01b03198254161790553861474c565b86600386015416908852828252600384892001906001600160a01b03198254161790553861473c565b815162461bcd60e51b815260048101859052600e60248201527f6572726f725f6e6f74466f756e640000000000000000000000000000000000006044820152606490fd5b6101725460005b81811061495757505050565b614960816137d6565b506040805191826000825492614975846135cf565b906001948581169081600014614acf5750600114614a8e575b505091611fa791836101686149ad955260209687910301902001613677565b6001600160a01b03610164818816948560005252600583600020015461016c541115600014614a5657610163541690813b1561156f57600091614a0e91838551809781958294634cbf455560e11b8452606060048501526064840190613740565b9060248301526002604483015203925af1908115614a4c575090614a389291614a3d575b50613b2e565b61494b565b614a4690613609565b38614a32565b513d6000823e3d90fd5b610163541690813b1561156f57600091614a0e91838551809781958294631f1cbd7560e11b8452606060048501526064840190613740565b915092915060005283602092836000209360005b828110614abb57509293509091508101816149ad61498e565b855488820152948401948793508101614aa2565b60ff1916855250508015150282019050816149ad61498e565b60006040805190835190602096614b1d88870193614b0781878761371d565b85019489816101689788815203019020546135cf565b614d6a576001600160a01b03936101639480865416803b156115745787614b65614b77928c838951809681958294630ef8cdc760e01b84528d60048501526044840190613740565b8281036003190160248401528b613740565b03925af18015614d6057614d4d575b50614b9089614dae565b955416803b15610a97578684518092632337c3c760e11b8252866004830152818381614bbf604482018d613740565b6003602483015203925af18015614d4357908791614d2f575b5050610172805468010000000000000000811015614d1b5788612335826001614c03940185556137d6565b54600019810196908711614d07575082519860808a01988a8a1067ffffffffffffffff8b1117610bd1578a6003614d0299614cc3877fa84ba88bc4cba6bd0c14537f17962f752feed22dd30806af432e8df8d6a7fe039f614cda9f8f614c9e8a614cf49f8f9d614caf94614ce79f60608f9899614cb99a8352838152868101998a528281019b8c52019b8c525194859384925192839161371d565b820190815203019020975188613d79565b5160018701613d79565b5160028501613d79565b519101558451998a9960808b5260808b0190613740565b91898303908a0152613740565b9186830390870152613740565b908382036060850152613740565b0390a1565b634e487b7160e01b81526011600452602490fd5b634e487b7160e01b88526041600452602488fd5b614d3890613609565b610be7578538614bd8565b84513d89823e3d90fd5b614d5990979197613609565b9538614b86565b85513d8a823e3d90fd5b815162461bcd60e51b815260048101899052601960248201527f53545245414d5f414c52454144595f52454749535445524544000000000000006044820152606490fd5b6040513091614dbc8261361d565b602a825260209283830190604036833783511561380d5760308253835160019081101561380d57607860218601536029905b808211614e7a575050614e375791614e1793916137d3936040519586935180928686019061371d565b8201614e2b8251809386808501910161371d565b01038084520182613655565b6064846040519062461bcd60e51b825280600483015260248201527f537472696e67733a20686578206c656e67746820696e73756666696369656e746044820152fd5b9091600f8116906010821015614ece578651841015614ece577f3031323334353637383961626364656600000000000000000000000000000000614ec8921a88858901015360041c926146ef565b90614dee565b60246000634e487b7160e01b81526032600452fdfea26469706673582212205356622357547dddcc667580f6bcbac52765eb8a6cc04eb9d84191b2d505b00a64736f6c63430008110033",
  "linkReferences": {},
  "deployedLinkReferences": {}
}